{
  "_format": "hh-sol-artifact-1",
  "contractName": "ChildERC20Proxified",
  "sourceName": "contracts/child/proxifiedChildToken/ChildERC20Proxified.sol",
  "abi": [
    {
      "inputs": [],
      "payable": false,
      "stateMutability": "nonpayable",
      "type": "constructor"
    },
    {
      "anonymous": false,
      "inputs": [
        {
          "indexed": true,
          "internalType": "address",
          "name": "owner",
          "type": "address"
        },
        {
          "indexed": true,
          "internalType": "address",
          "name": "spender",
          "type": "address"
        },
        {
          "indexed": false,
          "internalType": "uint256",
          "name": "value",
          "type": "uint256"
        }
      ],
      "name": "Approval",
      "type": "event"
    },
    {
      "anonymous": false,
      "inputs": [
        {
          "indexed": true,
          "internalType": "address",
          "name": "previousAddress",
          "type": "address"
        },
        {
          "indexed": true,
          "internalType": "address",
          "name": "newAddress",
          "type": "address"
        }
      ],
      "name": "ChildChainChanged",
      "type": "event"
    },
    {
      "anonymous": false,
      "inputs": [
        {
          "indexed": true,
          "internalType": "address",
          "name": "token",
          "type": "address"
        },
        {
          "indexed": true,
          "internalType": "address",
          "name": "from",
          "type": "address"
        },
        {
          "indexed": false,
          "internalType": "uint256",
          "name": "amount",
          "type": "uint256"
        },
        {
          "indexed": false,
          "internalType": "uint256",
          "name": "input1",
          "type": "uint256"
        },
        {
          "indexed": false,
          "internalType": "uint256",
          "name": "output1",
          "type": "uint256"
        }
      ],
      "name": "Deposit",
      "type": "event"
    },
    {
      "anonymous": false,
      "inputs": [
        {
          "indexed": true,
          "internalType": "address",
          "name": "token",
          "type": "address"
        },
        {
          "indexed": true,
          "internalType": "address",
          "name": "from",
          "type": "address"
        },
        {
          "indexed": true,
          "internalType": "address",
          "name": "to",
          "type": "address"
        },
        {
          "indexed": false,
          "internalType": "uint256",
          "name": "amount",
          "type": "uint256"
        },
        {
          "indexed": false,
          "internalType": "uint256",
          "name": "input1",
          "type": "uint256"
        },
        {
          "indexed": false,
          "internalType": "uint256",
          "name": "input2",
          "type": "uint256"
        },
        {
          "indexed": false,
          "internalType": "uint256",
          "name": "output1",
          "type": "uint256"
        },
        {
          "indexed": false,
          "internalType": "uint256",
          "name": "output2",
          "type": "uint256"
        }
      ],
      "name": "LogFeeTransfer",
      "type": "event"
    },
    {
      "anonymous": false,
      "inputs": [
        {
          "indexed": true,
          "internalType": "address",
          "name": "token",
          "type": "address"
        },
        {
          "indexed": true,
          "internalType": "address",
          "name": "from",
          "type": "address"
        },
        {
          "indexed": true,
          "internalType": "address",
          "name": "to",
          "type": "address"
        },
        {
          "indexed": false,
          "internalType": "uint256",
          "name": "amount",
          "type": "uint256"
        },
        {
          "indexed": false,
          "internalType": "uint256",
          "name": "input1",
          "type": "uint256"
        },
        {
          "indexed": false,
          "internalType": "uint256",
          "name": "input2",
          "type": "uint256"
        },
        {
          "indexed": false,
          "internalType": "uint256",
          "name": "output1",
          "type": "uint256"
        },
        {
          "indexed": false,
          "internalType": "uint256",
          "name": "output2",
          "type": "uint256"
        }
      ],
      "name": "LogTransfer",
      "type": "event"
    },
    {
      "anonymous": false,
      "inputs": [
        {
          "indexed": true,
          "internalType": "address",
          "name": "previousOwner",
          "type": "address"
        },
        {
          "indexed": true,
          "internalType": "address",
          "name": "newOwner",
          "type": "address"
        }
      ],
      "name": "OwnershipTransferred",
      "type": "event"
    },
    {
      "anonymous": false,
      "inputs": [
        {
          "indexed": true,
          "internalType": "address",
          "name": "previousAddress",
          "type": "address"
        },
        {
          "indexed": true,
          "internalType": "address",
          "name": "newAddress",
          "type": "address"
        }
      ],
      "name": "ParentChanged",
      "type": "event"
    },
    {
      "anonymous": false,
      "inputs": [
        {
          "indexed": true,
          "internalType": "address",
          "name": "previousAddress",
          "type": "address"
        },
        {
          "indexed": true,
          "internalType": "address",
          "name": "newAddress",
          "type": "address"
        }
      ],
      "name": "StateSyncerAddressChanged",
      "type": "event"
    },
    {
      "anonymous": false,
      "inputs": [
        {
          "indexed": true,
          "internalType": "address",
          "name": "from",
          "type": "address"
        },
        {
          "indexed": true,
          "internalType": "address",
          "name": "to",
          "type": "address"
        },
        {
          "indexed": false,
          "internalType": "uint256",
          "name": "value",
          "type": "uint256"
        }
      ],
      "name": "Transfer",
      "type": "event"
    },
    {
      "anonymous": false,
      "inputs": [
        {
          "indexed": true,
          "internalType": "address",
          "name": "token",
          "type": "address"
        },
        {
          "indexed": true,
          "internalType": "address",
          "name": "from",
          "type": "address"
        },
        {
          "indexed": false,
          "internalType": "uint256",
          "name": "amount",
          "type": "uint256"
        },
        {
          "indexed": false,
          "internalType": "uint256",
          "name": "input1",
          "type": "uint256"
        },
        {
          "indexed": false,
          "internalType": "uint256",
          "name": "output1",
          "type": "uint256"
        }
      ],
      "name": "Withdraw",
      "type": "event"
    },
    {
      "constant": true,
      "inputs": [],
      "name": "CHAINID",
      "outputs": [
        {
          "internalType": "uint256",
          "name": "",
          "type": "uint256"
        }
      ],
      "payable": false,
      "stateMutability": "view",
      "type": "function"
    },
    {
      "constant": true,
      "inputs": [],
      "name": "EIP712_DOMAIN_HASH",
      "outputs": [
        {
          "internalType": "bytes32",
          "name": "",
          "type": "bytes32"
        }
      ],
      "payable": false,
      "stateMutability": "view",
      "type": "function"
    },
    {
      "constant": true,
      "inputs": [],
      "name": "EIP712_DOMAIN_SCHEMA_HASH",
      "outputs": [
        {
          "internalType": "bytes32",
          "name": "",
          "type": "bytes32"
        }
      ],
      "payable": false,
      "stateMutability": "view",
      "type": "function"
    },
    {
      "constant": true,
      "inputs": [],
      "name": "EIP712_TOKEN_TRANSFER_ORDER_SCHEMA_HASH",
      "outputs": [
        {
          "internalType": "bytes32",
          "name": "",
          "type": "bytes32"
        }
      ],
      "payable": false,
      "stateMutability": "view",
      "type": "function"
    },
    {
      "constant": true,
      "inputs": [
        {
          "internalType": "address",
          "name": "",
          "type": "address"
        },
        {
          "internalType": "address",
          "name": "",
          "type": "address"
        }
      ],
      "name": "allowance",
      "outputs": [
        {
          "internalType": "uint256",
          "name": "",
          "type": "uint256"
        }
      ],
      "payable": false,
      "stateMutability": "view",
      "type": "function"
    },
    {
      "constant": false,
      "inputs": [
        {
          "internalType": "address",
          "name": "",
          "type": "address"
        },
        {
          "internalType": "uint256",
          "name": "",
          "type": "uint256"
        }
      ],
      "name": "approve",
      "outputs": [
        {
          "internalType": "bool",
          "name": "",
          "type": "bool"
        }
      ],
      "payable": false,
      "stateMutability": "nonpayable",
      "type": "function"
    },
    {
      "constant": true,
      "inputs": [
        {
          "internalType": "address",
          "name": "owner",
          "type": "address"
        }
      ],
      "name": "balanceOf",
      "outputs": [
        {
          "internalType": "uint256",
          "name": "",
          "type": "uint256"
        }
      ],
      "payable": false,
      "stateMutability": "view",
      "type": "function"
    },
    {
      "constant": false,
      "inputs": [
        {
          "internalType": "address",
          "name": "newAddress",
          "type": "address"
        }
      ],
      "name": "changeChildChain",
      "outputs": [],
      "payable": false,
      "stateMutability": "nonpayable",
      "type": "function"
    },
    {
      "constant": false,
      "inputs": [
        {
          "internalType": "address",
          "name": "newAddress",
          "type": "address"
        }
      ],
      "name": "changeStateSyncerAddress",
      "outputs": [],
      "payable": false,
      "stateMutability": "nonpayable",
      "type": "function"
    },
    {
      "constant": true,
      "inputs": [],
      "name": "childChain",
      "outputs": [
        {
          "internalType": "address",
          "name": "",
          "type": "address"
        }
      ],
      "payable": false,
      "stateMutability": "view",
      "type": "function"
    },
    {
      "constant": true,
      "inputs": [],
      "name": "decimals",
      "outputs": [
        {
          "internalType": "uint8",
          "name": "",
          "type": "uint8"
        }
      ],
      "payable": false,
      "stateMutability": "view",
      "type": "function"
    },
    {
      "constant": false,
      "inputs": [
        {
          "internalType": "address",
          "name": "spender",
          "type": "address"
        },
        {
          "internalType": "uint256",
          "name": "subtractedValue",
          "type": "uint256"
        }
      ],
      "name": "decreaseAllowance",
      "outputs": [
        {
          "internalType": "bool",
          "name": "",
          "type": "bool"
        }
      ],
      "payable": false,
      "stateMutability": "nonpayable",
      "type": "function"
    },
    {
      "constant": false,
      "inputs": [
        {
          "internalType": "address",
          "name": "user",
          "type": "address"
        },
        {
          "internalType": "uint256",
          "name": "amount",
          "type": "uint256"
        }
      ],
      "name": "deposit",
      "outputs": [],
      "payable": false,
      "stateMutability": "nonpayable",
      "type": "function"
    },
    {
      "constant": true,
      "inputs": [
        {
          "internalType": "bytes32",
          "name": "",
          "type": "bytes32"
        }
      ],
      "name": "disabledHashes",
      "outputs": [
        {
          "internalType": "bool",
          "name": "",
          "type": "bool"
        }
      ],
      "payable": false,
      "stateMutability": "view",
      "type": "function"
    },
    {
      "constant": true,
      "inputs": [
        {
          "internalType": "bytes32",
          "name": "hash",
          "type": "bytes32"
        },
        {
          "internalType": "bytes",
          "name": "sig",
          "type": "bytes"
        }
      ],
      "name": "ecrecovery",
      "outputs": [
        {
          "internalType": "address",
          "name": "result",
          "type": "address"
        }
      ],
      "payable": false,
      "stateMutability": "pure",
      "type": "function"
    },
    {
      "constant": true,
      "inputs": [
        {
          "internalType": "address",
          "name": "spender",
          "type": "address"
        },
        {
          "internalType": "uint256",
          "name": "tokenIdOrAmount",
          "type": "uint256"
        },
        {
          "internalType": "bytes32",
          "name": "data",
          "type": "bytes32"
        },
        {
          "internalType": "uint256",
          "name": "expiration",
          "type": "uint256"
        }
      ],
      "name": "getTokenTransferOrderHash",
      "outputs": [
        {
          "internalType": "bytes32",
          "name": "orderHash",
          "type": "bytes32"
        }
      ],
      "payable": false,
      "stateMutability": "view",
      "type": "function"
    },
    {
      "constant": false,
      "inputs": [
        {
          "internalType": "address",
          "name": "spender",
          "type": "address"
        },
        {
          "internalType": "uint256",
          "name": "addedValue",
          "type": "uint256"
        }
      ],
      "name": "increaseAllowance",
      "outputs": [
        {
          "internalType": "bool",
          "name": "",
          "type": "bool"
        }
      ],
      "payable": false,
      "stateMutability": "nonpayable",
      "type": "function"
    },
    {
      "constant": false,
      "inputs": [
        {
          "internalType": "address",
          "name": "_token",
          "type": "address"
        },
        {
          "internalType": "string",
          "name": "name",
          "type": "string"
        },
        {
          "internalType": "string",
          "name": "symbol",
          "type": "string"
        },
        {
          "internalType": "uint8",
          "name": "decimals",
          "type": "uint8"
        }
      ],
      "name": "initialize",
      "outputs": [],
      "payable": false,
      "stateMutability": "nonpayable",
      "type": "function"
    },
    {
      "constant": true,
      "inputs": [],
      "name": "isOnlyStateSyncerContract",
      "outputs": [
        {
          "internalType": "bool",
          "name": "",
          "type": "bool"
        }
      ],
      "payable": false,
      "stateMutability": "view",
      "type": "function"
    },
    {
      "constant": true,
      "inputs": [],
      "name": "isOwner",
      "outputs": [
        {
          "internalType": "bool",
          "name": "",
          "type": "bool"
        }
      ],
      "payable": false,
      "stateMutability": "view",
      "type": "function"
    },
    {
      "constant": true,
      "inputs": [],
      "name": "name",
      "outputs": [
        {
          "internalType": "string",
          "name": "",
          "type": "string"
        }
      ],
      "payable": false,
      "stateMutability": "view",
      "type": "function"
    },
    {
      "constant": true,
      "inputs": [],
      "name": "networkId",
      "outputs": [
        {
          "internalType": "bytes",
          "name": "",
          "type": "bytes"
        }
      ],
      "payable": false,
      "stateMutability": "view",
      "type": "function"
    },
    {
      "constant": false,
      "inputs": [
        {
          "internalType": "uint256",
          "name": "",
          "type": "uint256"
        },
        {
          "internalType": "bytes",
          "name": "data",
          "type": "bytes"
        }
      ],
      "name": "onStateReceive",
      "outputs": [],
      "payable": false,
      "stateMutability": "nonpayable",
      "type": "function"
    },
    {
      "constant": true,
      "inputs": [],
      "name": "owner",
      "outputs": [
        {
          "internalType": "address",
          "name": "",
          "type": "address"
        }
      ],
      "payable": false,
      "stateMutability": "view",
      "type": "function"
    },
    {
      "constant": true,
      "inputs": [],
      "name": "parent",
      "outputs": [
        {
          "internalType": "address",
          "name": "",
          "type": "address"
        }
      ],
      "payable": false,
      "stateMutability": "view",
      "type": "function"
    },
    {
      "constant": false,
      "inputs": [],
      "name": "renounceOwnership",
      "outputs": [],
      "payable": false,
      "stateMutability": "nonpayable",
      "type": "function"
    },
    {
      "constant": false,
      "inputs": [
        {
          "internalType": "address",
          "name": "newAddress",
          "type": "address"
        }
      ],
      "name": "setParent",
      "outputs": [],
      "payable": false,
      "stateMutability": "nonpayable",
      "type": "function"
    },
    {
      "constant": true,
      "inputs": [],
      "name": "stateSyncer",
      "outputs": [
        {
          "internalType": "address",
          "name": "",
          "type": "address"
        }
      ],
      "payable": false,
      "stateMutability": "view",
      "type": "function"
    },
    {
      "constant": true,
      "inputs": [],
      "name": "symbol",
      "outputs": [
        {
          "internalType": "string",
          "name": "",
          "type": "string"
        }
      ],
      "payable": false,
      "stateMutability": "view",
      "type": "function"
    },
    {
      "constant": true,
      "inputs": [],
      "name": "token",
      "outputs": [
        {
          "internalType": "address",
          "name": "",
          "type": "address"
        }
      ],
      "payable": false,
      "stateMutability": "view",
      "type": "function"
    },
    {
      "constant": true,
      "inputs": [],
      "name": "totalSupply",
      "outputs": [
        {
          "internalType": "uint256",
          "name": "",
          "type": "uint256"
        }
      ],
      "payable": false,
      "stateMutability": "view",
      "type": "function"
    },
    {
      "constant": false,
      "inputs": [
        {
          "internalType": "address",
          "name": "to",
          "type": "address"
        },
        {
          "internalType": "uint256",
          "name": "value",
          "type": "uint256"
        }
      ],
      "name": "transfer",
      "outputs": [
        {
          "internalType": "bool",
          "name": "",
          "type": "bool"
        }
      ],
      "payable": false,
      "stateMutability": "nonpayable",
      "type": "function"
    },
    {
      "constant": false,
      "inputs": [
        {
          "internalType": "address",
          "name": "",
          "type": "address"
        },
        {
          "internalType": "address",
          "name": "",
          "type": "address"
        },
        {
          "internalType": "uint256",
          "name": "",
          "type": "uint256"
        }
      ],
      "name": "transferFrom",
      "outputs": [
        {
          "internalType": "bool",
          "name": "",
          "type": "bool"
        }
      ],
      "payable": false,
      "stateMutability": "nonpayable",
      "type": "function"
    },
    {
      "constant": false,
      "inputs": [
        {
          "internalType": "address",
          "name": "newOwner",
          "type": "address"
        }
      ],
      "name": "transferOwnership",
      "outputs": [],
      "payable": false,
      "stateMutability": "nonpayable",
      "type": "function"
    },
    {
      "constant": false,
      "inputs": [
        {
          "internalType": "bytes",
          "name": "sig",
          "type": "bytes"
        },
        {
          "internalType": "uint256",
          "name": "amount",
          "type": "uint256"
        },
        {
          "internalType": "bytes32",
          "name": "data",
          "type": "bytes32"
        },
        {
          "internalType": "uint256",
          "name": "expiration",
          "type": "uint256"
        },
        {
          "internalType": "address",
          "name": "to",
          "type": "address"
        }
      ],
      "name": "transferWithSig",
      "outputs": [
        {
          "internalType": "address",
          "name": "from",
          "type": "address"
        }
      ],
      "payable": false,
      "stateMutability": "nonpayable",
      "type": "function"
    },
    {
      "constant": false,
      "inputs": [
        {
          "internalType": "uint256",
          "name": "amount",
          "type": "uint256"
        }
      ],
      "name": "withdraw",
      "outputs": [],
      "payable": true,
      "stateMutability": "payable",
      "type": "function"
    }
  ],
  "bytecode": "0x60806040526000600b60156101000a81548160ff0219169083151502179055503480156200002c57600080fd5b5060018060405180602001604052806000815250604051806020016040528060008152506012828282336000806101000a81548173ffffffffffffffffffffffffffffffffffffffff021916908373ffffffffffffffffffffffffffffffffffffffff1602179055506000809054906101000a900473ffffffffffffffffffffffffffffffffffffffff1673ffffffffffffffffffffffffffffffffffffffff16600073ffffffffffffffffffffffffffffffffffffffff167f8be0079c531659141344cd1fd0a4f28419497f9722a3daafe3b4186f6b6457e060405160405180910390a360405180608001604052806052815260200162003b81605291396040516020018082805190602001908083835b602083106200016357805182526020820191506020810190506020830392506200013e565b6001836020036101000a038019825116818451168082178552505050505050905001915050604051602081830303815290604052805190602001206040518060400160405280600d81526020017f4d61746963204e6574776f726b00000000000000000000000000000000000000815250805190602001206040518060400160405280600181526020017f3100000000000000000000000000000000000000000000000000000000000000815250805190602001206201388130604051602001808681526020018581526020018481526020018381526020018273ffffffffffffffffffffffffffffffffffffffff1673ffffffffffffffffffffffffffffffffffffffff16815260200195505050505050604051602081830303815290604052805190602001206001819055508260099080519060200190620002a992919062000428565b5081600a9080519060200190620002c292919062000428565b5080600b60006101000a81548160ff021916908360ff160217905550505050611001600b60016101000a81548173ffffffffffffffffffffffffffffffffffffffff021916908373ffffffffffffffffffffffffffffffffffffffff160217905550600b60019054906101000a900473ffffffffffffffffffffffffffffffffffffffff1673ffffffffffffffffffffffffffffffffffffffff16600073ffffffffffffffffffffffffffffffffffffffff167f98e6a46aa139a033b9c7f3ae4ad1c103ffdce3e7cf509326808ba8c4b5af11c060405160405180910390a3600073ffffffffffffffffffffffffffffffffffffffff168473ffffffffffffffffffffffffffffffffffffffff161415620003dc57600080fd5b83600260006101000a81548173ffffffffffffffffffffffffffffffffffffffff021916908373ffffffffffffffffffffffffffffffffffffffff1602179055505050505050620004d7565b828054600181600116156101000203166002900490600052602060002090601f016020900481019282601f106200046b57805160ff19168380011785556200049c565b828001600101855582156200049c579182015b828111156200049b5782518255916020019190600101906200047e565b5b509050620004ab9190620004af565b5090565b620004d491905b80821115620004d0576000816000905550600101620004b6565b5090565b90565b61369a80620004e76000396000f3fe60806040526004361061020f5760003560e01c80638f32d59b11610118578063dd62ed3e116100a0578063ed9ef5241161006f578063ed9ef52414610e36578063f2fde38b14610e87578063f4ef4d6914610ed8578063f6d2ee8614610f2f578063fc0c546a146110375761020f565b8063dd62ed3e14610d0a578063df55500714610d8f578063e306f77914610de0578063e614d0d614610e0b5761020f565b8063a9059cbb116100e7578063a9059cbb14610b6b578063abceeba214610bde578063acd06cb314610c09578063b789543c14610c5c578063cc79f97b14610cdf5761020f565b80638f32d59b146109a95780639025e64c146109d857806395d89b4114610a68578063a457c2d714610af85761020f565b8063395093511161019b57806360f96a8f1161016a57806360f96a8f1461076d57806370a08231146107c4578063715018a61461082957806377d32e94146108405780638da5cb5b146109525761020f565b8063395093511461061957806342fc47fb1461068c57806347e7ef24146106e357806355651f711461073e5761020f565b806319d27d9c116101e257806319d27d9c1461039357806323b872dd1461049757806326c53bea1461052a5780632e1a7d4d146105ba578063313ce567146105e85761020f565b806306fdde0314610214578063095ea7b3146102a45780631499c5921461031757806318160ddd14610368575b600080fd5b34801561022057600080fd5b5061022961108e565b6040518080602001828103825283818151815260200191508051906020019080838360005b8381101561026957808201518184015260208101905061024e565b50505050905090810190601f1680156102965780820380516001836020036101000a031916815260200191505b509250505060405180910390f35b3480156102b057600080fd5b506102fd600480360360408110156102c757600080fd5b81019080803573ffffffffffffffffffffffffffffffffffffffff16906020019092919080359060200190929190505050611130565b604051808215151515815260200191505060405180910390f35b34801561032357600080fd5b506103666004803603602081101561033a57600080fd5b81019080803573ffffffffffffffffffffffffffffffffffffffff1690602001909291905050506111a0565b005b34801561037457600080fd5b5061037d6112f7565b6040518082815260200191505060405180910390f35b34801561039f57600080fd5b50610455600480360360a08110156103b657600080fd5b81019080803590602001906401000000008111156103d357600080fd5b8201836020820111156103e557600080fd5b8035906020019184600183028401116401000000008311171561040757600080fd5b9091929391929390803590602001909291908035906020019092919080359060200190929190803573ffffffffffffffffffffffffffffffffffffffff169060200190929190505050611301565b604051808273ffffffffffffffffffffffffffffffffffffffff1673ffffffffffffffffffffffffffffffffffffffff16815260200191505060405180910390f35b3480156104a357600080fd5b50610510600480360360608110156104ba57600080fd5b81019080803573ffffffffffffffffffffffffffffffffffffffff169060200190929190803573ffffffffffffffffffffffffffffffffffffffff169060200190929190803590602001909291905050506114d6565b604051808215151515815260200191505060405180910390f35b34801561053657600080fd5b506105b86004803603604081101561054d57600080fd5b81019080803590602001909291908035906020019064010000000081111561057457600080fd5b82018360208201111561058657600080fd5b803590602001918460018302840111640100000000831117156105a857600080fd5b9091929391929390505050611546565b005b6105e6600480360360208110156105d057600080fd5b8101908080359060200190929190505050611616565b005b3480156105f457600080fd5b506105fd611623565b604051808260ff1660ff16815260200191505060405180910390f35b34801561062557600080fd5b506106726004803603604081101561063c57600080fd5b81019080803573ffffffffffffffffffffffffffffffffffffffff1690602001909291908035906020019092919050505061163a565b604051808215151515815260200191505060405180910390f35b34801561069857600080fd5b506106a16116df565b604051808273ffffffffffffffffffffffffffffffffffffffff1673ffffffffffffffffffffffffffffffffffffffff16815260200191505060405180910390f35b3480156106ef57600080fd5b5061073c6004803603604081101561070657600080fd5b81019080803573ffffffffffffffffffffffffffffffffffffffff16906020019092919080359060200190929190505050611705565b005b34801561074a57600080fd5b506107536118ac565b604051808215151515815260200191505060405180910390f35b34801561077957600080fd5b50610782611904565b604051808273ffffffffffffffffffffffffffffffffffffffff1673ffffffffffffffffffffffffffffffffffffffff16815260200191505060405180910390f35b3480156107d057600080fd5b50610813600480360360208110156107e757600080fd5b81019080803573ffffffffffffffffffffffffffffffffffffffff16906020019092919050505061192a565b6040518082815260200191505060405180910390f35b34801561083557600080fd5b5061083e611973565b005b34801561084c57600080fd5b506109106004803603604081101561086357600080fd5b81019080803590602001909291908035906020019064010000000081111561088a57600080fd5b82018360208201111561089c57600080fd5b803590602001918460018302840111640100000000831117156108be57600080fd5b91908080601f016020809104026020016040519081016040528093929190818152602001838380828437600081840152601f19601f820116905080830192505050505050509192919290505050611a43565b604051808273ffffffffffffffffffffffffffffffffffffffff1673ffffffffffffffffffffffffffffffffffffffff16815260200191505060405180910390f35b34801561095e57600080fd5b50610967611bc8565b604051808273ffffffffffffffffffffffffffffffffffffffff1673ffffffffffffffffffffffffffffffffffffffff16815260200191505060405180910390f35b3480156109b557600080fd5b506109be611bf1565b604051808215151515815260200191505060405180910390f35b3480156109e457600080fd5b506109ed611c68565b6040518080602001828103825283818151815260200191508051906020019080838360005b83811015610a2d578082015181840152602081019050610a12565b50505050905090810190601f168015610a5a5780820380516001836020036101000a031916815260200191505b509250505060405180910390f35b348015610a7457600080fd5b50610a7d611ca1565b6040518080602001828103825283818151815260200191508051906020019080838360005b83811015610abd578082015181840152602081019050610aa2565b50505050905090810190601f168015610aea5780820380516001836020036101000a031916815260200191505b509250505060405180910390f35b348015610b0457600080fd5b50610b5160048036036040811015610b1b57600080fd5b81019080803573ffffffffffffffffffffffffffffffffffffffff16906020019092919080359060200190929190505050611d43565b604051808215151515815260200191505060405180910390f35b348015610b7757600080fd5b50610bc460048036036040811015610b8e57600080fd5b81019080803573ffffffffffffffffffffffffffffffffffffffff16906020019092919080359060200190929190505050611de8565b604051808215151515815260200191505060405180910390f35b348015610bea57600080fd5b50610bf3611f7f565b6040518082815260200191505060405180910390f35b348015610c1557600080fd5b50610c4260048036036020811015610c2c57600080fd5b810190808035906020019092919050505061200c565b604051808215151515815260200191505060405180910390f35b348015610c6857600080fd5b50610cc960048036036080811015610c7f57600080fd5b81019080803573ffffffffffffffffffffffffffffffffffffffff16906020019092919080359060200190929190803590602001909291908035906020019092919050505061202c565b6040518082815260200191505060405180910390f35b348015610ceb57600080fd5b50610cf461204c565b6040518082815260200191505060405180910390f35b348015610d1657600080fd5b50610d7960048036036040811015610d2d57600080fd5b81019080803573ffffffffffffffffffffffffffffffffffffffff169060200190929190803573ffffffffffffffffffffffffffffffffffffffff169060200190929190505050612053565b6040518082815260200191505060405180910390f35b348015610d9b57600080fd5b50610dde60048036036020811015610db257600080fd5b81019080803573ffffffffffffffffffffffffffffffffffffffff1690602001909291905050506120c3565b005b348015610dec57600080fd5b50610df561221a565b6040518082815260200191505060405180910390f35b348015610e1757600080fd5b50610e20612220565b6040518082815260200191505060405180910390f35b348015610e4257600080fd5b50610e8560048036036020811015610e5957600080fd5b81019080803573ffffffffffffffffffffffffffffffffffffffff1690602001909291905050506122ad565b005b348015610e9357600080fd5b50610ed660048036036020811015610eaa57600080fd5b81019080803573ffffffffffffffffffffffffffffffffffffffff169060200190929190505050612404565b005b348015610ee457600080fd5b50610eed612421565b604051808273ffffffffffffffffffffffffffffffffffffffff1673ffffffffffffffffffffffffffffffffffffffff16815260200191505060405180910390f35b348015610f3b57600080fd5b5061103560048036036080811015610f5257600080fd5b81019080803573ffffffffffffffffffffffffffffffffffffffff16906020019092919080359060200190640100000000811115610f8f57600080fd5b820183602082011115610fa157600080fd5b80359060200191846001830284011164010000000083111715610fc357600080fd5b909192939192939080359060200190640100000000811115610fe457600080fd5b820183602082011115610ff657600080fd5b8035906020019184600183028401116401000000008311171561101857600080fd5b9091929391929390803560ff169060200190929190505050612447565b005b34801561104357600080fd5b5061104c6125a7565b604051808273ffffffffffffffffffffffffffffffffffffffff1673ffffffffffffffffffffffffffffffffffffffff16815260200191505060405180910390f35b606060098054600181600116156101000203166002900480601f0160208091040260200160405190810160405280929190818152602001828054600181600116156101000203166002900480156111265780601f106110fb57610100808354040283529160200191611126565b820191906000526020600020905b81548152906001019060200180831161110957829003601f168201915b5050505050905090565b60006040517f08c379a00000000000000000000000000000000000000000000000000000000081526004018080602001828103825260108152602001807f44697361626c656420666561747572650000000000000000000000000000000081525060200191505060405180910390fd5b6111a8611bf1565b6111b157600080fd5b600073ffffffffffffffffffffffffffffffffffffffff168173ffffffffffffffffffffffffffffffffffffffff161415611237576040517f08c379a00000000000000000000000000000000000000000000000000000000081526004018080602001828103825260338152602001806134b26033913960400191505060405180910390fd5b8073ffffffffffffffffffffffffffffffffffffffff16600460009054906101000a900473ffffffffffffffffffffffffffffffffffffffff1673ffffffffffffffffffffffffffffffffffffffff167fc9e4c719f349d4c91a37138eb5cf0ba2670c592a764f8c0b18c603ba9178cc1d60405160405180910390a380600460006101000a81548173ffffffffffffffffffffffffffffffffffffffff021916908373ffffffffffffffffffffffffffffffffffffffff16021790555050565b6000600854905090565b600080851161130f57600080fd5b600083148061131e5750824311155b611390576040517f08c379a00000000000000000000000000000000000000000000000000000000081526004018080602001828103825260148152602001807f5369676e6174757265206973206578706972656400000000000000000000000081525060200191505060405180910390fd5b60006113a76113a1338888886125cd565b306126a3565b9050600015156005600083815260200190815260200160002060009054906101000a900460ff16151514611443576040517f08c379a000000000000000000000000000000000000000000000000000000000815260040180806020018281038252600f8152602001807f536967206465616374697661746564000000000000000000000000000000000081525060200191505060405180910390fd5b60016005600083815260200190815260200160002060006101000a81548160ff0219169083151502179055506114bd8189898080601f016020809104026020016040519081016040528093929190818152602001838380828437600081840152601f19601f82011690508083019250505050505050611a43565b91506114ca828488612832565b50509695505050505050565b60006040517f08c379a00000000000000000000000000000000000000000000000000000000081526004018080602001828103825260108152602001807f44697361626c656420666561747572650000000000000000000000000000000081525060200191505060405180910390fd5b61154e6118ac565b6115a3576040517f08c379a00000000000000000000000000000000000000000000000000000000081526004018080602001828103825260358152602001806135376035913960400191505060405180910390fd5b600080838360408110156115b657600080fd5b81019080803573ffffffffffffffffffffffffffffffffffffffff169060200190929190803590602001909291905050509150915060006115f68361192a565b905081811015611604578091505b61160e8383612bef565b505050505050565b6116203382612bef565b50565b6000600b60009054906101000a900460ff16905090565b60006116d533846116d085600760003373ffffffffffffffffffffffffffffffffffffffff1673ffffffffffffffffffffffffffffffffffffffff16815260200190815260200160002060008973ffffffffffffffffffffffffffffffffffffffff1673ffffffffffffffffffffffffffffffffffffffff16815260200190815260200160002054612caa90919063ffffffff16565b612cc9565b6001905092915050565b600360009054906101000a900473ffffffffffffffffffffffffffffffffffffffff1681565b600360009054906101000a900473ffffffffffffffffffffffffffffffffffffffff1673ffffffffffffffffffffffffffffffffffffffff163373ffffffffffffffffffffffffffffffffffffffff16146117ab576040517f08c379a00000000000000000000000000000000000000000000000000000000081526004018080602001828103825260338152602001806135f96033913960400191505060405180910390fd5b6000811180156117e85750600073ffffffffffffffffffffffffffffffffffffffff168273ffffffffffffffffffffffffffffffffffffffff1614155b6117f157600080fd5b60006117fc8361192a565b90506118088383612e28565b8273ffffffffffffffffffffffffffffffffffffffff16600260009054906101000a900473ffffffffffffffffffffffffffffffffffffffff1673ffffffffffffffffffffffffffffffffffffffff167f4e2ca0515ed1aef1395f66b5303bb5d6f1bf9d61a353fa53f73f8ac9973fa9f684846118848861192a565b60405180848152602001838152602001828152602001935050505060405180910390a3505050565b6000600b60019054906101000a900473ffffffffffffffffffffffffffffffffffffffff1673ffffffffffffffffffffffffffffffffffffffff163373ffffffffffffffffffffffffffffffffffffffff1614905090565b600460009054906101000a900473ffffffffffffffffffffffffffffffffffffffff1681565b6000600660008373ffffffffffffffffffffffffffffffffffffffff1673ffffffffffffffffffffffffffffffffffffffff168152602001908152602001600020549050919050565b61197b611bf1565b61198457600080fd5b600073ffffffffffffffffffffffffffffffffffffffff166000809054906101000a900473ffffffffffffffffffffffffffffffffffffffff1673ffffffffffffffffffffffffffffffffffffffff167f8be0079c531659141344cd1fd0a4f28419497f9722a3daafe3b4186f6b6457e060405160405180910390a360008060006101000a81548173ffffffffffffffffffffffffffffffffffffffff021916908373ffffffffffffffffffffffffffffffffffffffff160217905550565b6000806000806041855114611a5e5760009350505050611bc2565b602085015192506040850151915060ff6041860151169050601b8160ff161015611a8957601b810190505b601b8160ff1614158015611aa15750601c8160ff1614155b15611ab25760009350505050611bc2565b60018682858560405160008152602001604052604051808581526020018460ff1660ff1681526020018381526020018281526020019450505050506020604051602081039080840390855afa158015611b0f573d6000803e3d6000fd5b505050602060405103519350600073ffffffffffffffffffffffffffffffffffffffff168473ffffffffffffffffffffffffffffffffffffffff161415611bbe576040517f08c379a00000000000000000000000000000000000000000000000000000000081526004018080602001828103825260128152602001807f4572726f7220696e2065637265636f766572000000000000000000000000000081525060200191505060405180910390fd5b5050505b92915050565b60008060009054906101000a900473ffffffffffffffffffffffffffffffffffffffff16905090565b600080600060405180807f6d617469632e6e6574776f726b2e70726f78792e6f776e657200000000000000815250601901905060405180910390209050805491508173ffffffffffffffffffffffffffffffffffffffff163373ffffffffffffffffffffffffffffffffffffffff16149250505090565b6040518060400160405280600381526020017f013881000000000000000000000000000000000000000000000000000000000081525081565b6060600a8054600181600116156101000203166002900480601f016020809104026020016040519081016040528092919081815260200182805460018160011615610100020316600290048015611d395780601f10611d0e57610100808354040283529160200191611d39565b820191906000526020600020905b815481529060010190602001808311611d1c57829003601f168201915b5050505050905090565b6000611dde3384611dd985600760003373ffffffffffffffffffffffffffffffffffffffff1673ffffffffffffffffffffffffffffffffffffffff16815260200190815260200160002060008973ffffffffffffffffffffffffffffffffffffffff1673ffffffffffffffffffffffffffffffffffffffff16815260200190815260200160002054612f7c90919063ffffffff16565b612cc9565b6001905092915050565b60008073ffffffffffffffffffffffffffffffffffffffff16600460009054906101000a900473ffffffffffffffffffffffffffffffffffffffff1673ffffffffffffffffffffffffffffffffffffffff1614158015611f5d5750600460009054906101000a900473ffffffffffffffffffffffffffffffffffffffff1673ffffffffffffffffffffffffffffffffffffffff16631ffb811f3385856040518463ffffffff1660e01b8152600401808473ffffffffffffffffffffffffffffffffffffffff1673ffffffffffffffffffffffffffffffffffffffff1681526020018373ffffffffffffffffffffffffffffffffffffffff1673ffffffffffffffffffffffffffffffffffffffff1681526020018281526020019350505050602060405180830381600087803b158015611f2057600080fd5b505af1158015611f34573d6000803e3d6000fd5b505050506040513d6020811015611f4a57600080fd5b8101908080519060200190929190505050155b15611f6b5760009050611f79565b611f76338484612832565b90505b92915050565b6040518060800160405280605b815260200161359e605b91396040516020018082805190602001908083835b60208310611fce5780518252602082019150602081019050602083039250611fab565b6001836020036101000a0380198251168184511680821785525050505050509050019150506040516020818303038152906040528051906020012081565b60056020528060005260406000206000915054906101000a900460ff1681565b600061204261203d868686866125cd565b612f9c565b9050949350505050565b6201388181565b60006040517f08c379a00000000000000000000000000000000000000000000000000000000081526004018080602001828103825260108152602001807f44697361626c656420666561747572650000000000000000000000000000000081525060200191505060405180910390fd5b6120cb611bf1565b6120d457600080fd5b600073ffffffffffffffffffffffffffffffffffffffff168173ffffffffffffffffffffffffffffffffffffffff16141561215a576040517f08c379a000000000000000000000000000000000000000000000000000000000815260040180806020018281038252603a81526020018061362c603a913960400191505060405180910390fd5b8073ffffffffffffffffffffffffffffffffffffffff16600b60019054906101000a900473ffffffffffffffffffffffffffffffffffffffff1673ffffffffffffffffffffffffffffffffffffffff167f98e6a46aa139a033b9c7f3ae4ad1c103ffdce3e7cf509326808ba8c4b5af11c060405160405180910390a380600b60016101000a81548173ffffffffffffffffffffffffffffffffffffffff021916908373ffffffffffffffffffffffffffffffffffffffff16021790555050565b60015481565b6040518060800160405280605281526020016134e5605291396040516020018082805190602001908083835b6020831061226f578051825260208201915060208101905060208303925061224c565b6001836020036101000a0380198251168184511680821785525050505050509050019150506040516020818303038152906040528051906020012081565b6122b5611bf1565b6122be57600080fd5b600073ffffffffffffffffffffffffffffffffffffffff168173ffffffffffffffffffffffffffffffffffffffff161415612344576040517f08c379a000000000000000000000000000000000000000000000000000000000815260040180806020018281038252603281526020018061356c6032913960400191505060405180910390fd5b8073ffffffffffffffffffffffffffffffffffffffff16600360009054906101000a900473ffffffffffffffffffffffffffffffffffffffff1673ffffffffffffffffffffffffffffffffffffffff167f1f9f3556dd336016cdf20adaead7d5c73665dba664b60e8c17e9a4eb91ce1d3960405160405180910390a380600360006101000a81548173ffffffffffffffffffffffffffffffffffffffff021916908373ffffffffffffffffffffffffffffffffffffffff16021790555050565b61240c611bf1565b61241557600080fd5b61241e81612fb1565b50565b600b60019054906101000a900473ffffffffffffffffffffffffffffffffffffffff1681565b600b60159054906101000a900460ff16156124ca576040517f08c379a000000000000000000000000000000000000000000000000000000000815260040180806020018281038252600e8152602001807f616c726561647920696e6974656400000000000000000000000000000000000081525060200191505060405180910390fd5b6001600b60156101000a81548160ff021916908315150217905550600073ffffffffffffffffffffffffffffffffffffffff168673ffffffffffffffffffffffffffffffffffffffff16141561251f57600080fd5b85600260006101000a81548173ffffffffffffffffffffffffffffffffffffffff021916908373ffffffffffffffffffffffffffffffffffffffff16021790555084846009919061257192919061340c565b508282600a919061258392919061340c565b5080600b60006101000a81548160ff021916908360ff160217905550505050505050565b600260009054906101000a900473ffffffffffffffffffffffffffffffffffffffff1681565b6000806040518060800160405280605b815260200161359e605b91396040516020018082805190602001908083835b6020831061261f57805182526020820191506020810190506020830392506125fc565b6001836020036101000a03801982511681845116808217855250505050505090500191505060405160208183030381529060405280519060200120905060405181815273ffffffffffffffffffffffffffffffffffffffff8716602082015285604082015284606082015283608082015260a0812092505081915050949350505050565b6000806040518060800160405280605281526020016134e5605291396040516020018082805190602001908083835b602083106126f557805182526020820191506020810190506020830392506126d2565b6001836020036101000a038019825116818451168082178552505050505050905001915050604051602081830303815290604052805190602001206040518060400160405280600d81526020017f4d61746963204e6574776f726b00000000000000000000000000000000000000815250805190602001206040518060400160405280600181526020017f3100000000000000000000000000000000000000000000000000000000000000815250805190602001206201388186604051602001808681526020018581526020018481526020018381526020018273ffffffffffffffffffffffffffffffffffffffff1673ffffffffffffffffffffffffffffffffffffffff1681526020019550505050505060405160208183030381529060405280519060200120905061282984826130a9565b91505092915050565b6000803073ffffffffffffffffffffffffffffffffffffffff166370a08231866040518263ffffffff1660e01b8152600401808273ffffffffffffffffffffffffffffffffffffffff1673ffffffffffffffffffffffffffffffffffffffff16815260200191505060206040518083038186803b1580156128b257600080fd5b505afa1580156128c6573d6000803e3d6000fd5b505050506040513d60208110156128dc57600080fd5b8101908080519060200190929190505050905060003073ffffffffffffffffffffffffffffffffffffffff166370a08231866040518263ffffffff1660e01b8152600401808273ffffffffffffffffffffffffffffffffffffffff1673ffffffffffffffffffffffffffffffffffffffff16815260200191505060206040518083038186803b15801561296e57600080fd5b505afa158015612982573d6000803e3d6000fd5b505050506040513d602081101561299857600080fd5b810190808051906020019092919050505090506129b68686866130ea565b8473ffffffffffffffffffffffffffffffffffffffff168673ffffffffffffffffffffffffffffffffffffffff16600260009054906101000a900473ffffffffffffffffffffffffffffffffffffffff1673ffffffffffffffffffffffffffffffffffffffff167fe6497e3ee548a3372136af2fcb0696db31fc6cf20260707645068bd3fe97f3c48786863073ffffffffffffffffffffffffffffffffffffffff166370a082318e6040518263ffffffff1660e01b8152600401808273ffffffffffffffffffffffffffffffffffffffff1673ffffffffffffffffffffffffffffffffffffffff16815260200191505060206040518083038186803b158015612abe57600080fd5b505afa158015612ad2573d6000803e3d6000fd5b505050506040513d6020811015612ae857600080fd5b81019080805190602001909291905050503073ffffffffffffffffffffffffffffffffffffffff166370a082318e6040518263ffffffff1660e01b8152600401808273ffffffffffffffffffffffffffffffffffffffff1673ffffffffffffffffffffffffffffffffffffffff16815260200191505060206040518083038186803b158015612b7657600080fd5b505afa158015612b8a573d6000803e3d6000fd5b505050506040513d6020811015612ba057600080fd5b8101908080519060200190929190505050604051808681526020018581526020018481526020018381526020018281526020019550505050505060405180910390a46001925050509392505050565b6000612bfa8361192a565b9050612c0683836132b8565b8273ffffffffffffffffffffffffffffffffffffffff16600260009054906101000a900473ffffffffffffffffffffffffffffffffffffffff1673ffffffffffffffffffffffffffffffffffffffff167febff2602b3f468259e1e99f613fed6691f3a6526effe6ef3e768ba7ae7a36c4f8484612c828861192a565b60405180848152602001838152602001828152602001935050505060405180910390a3505050565b600080828401905083811015612cbf57600080fd5b8091505092915050565b600073ffffffffffffffffffffffffffffffffffffffff168273ffffffffffffffffffffffffffffffffffffffff161415612d0357600080fd5b600073ffffffffffffffffffffffffffffffffffffffff168373ffffffffffffffffffffffffffffffffffffffff161415612d3d57600080fd5b80600760008573ffffffffffffffffffffffffffffffffffffffff1673ffffffffffffffffffffffffffffffffffffffff16815260200190815260200160002060008473ffffffffffffffffffffffffffffffffffffffff1673ffffffffffffffffffffffffffffffffffffffff168152602001908152602001600020819055508173ffffffffffffffffffffffffffffffffffffffff168373ffffffffffffffffffffffffffffffffffffffff167f8c5be1e5ebec7d5bd14f71427d1e84f3dd0314c0f7b2291e5b200ac8c7c3b925836040518082815260200191505060405180910390a3505050565b600073ffffffffffffffffffffffffffffffffffffffff168273ffffffffffffffffffffffffffffffffffffffff161415612e6257600080fd5b612e7781600854612caa90919063ffffffff16565b600881905550612ecf81600660008573ffffffffffffffffffffffffffffffffffffffff1673ffffffffffffffffffffffffffffffffffffffff16815260200190815260200160002054612caa90919063ffffffff16565b600660008473ffffffffffffffffffffffffffffffffffffffff1673ffffffffffffffffffffffffffffffffffffffff168152602001908152602001600020819055508173ffffffffffffffffffffffffffffffffffffffff16600073ffffffffffffffffffffffffffffffffffffffff167fddf252ad1be2c89b69c2b068fc378daa952ba7f163c4a11628f55a4df523b3ef836040518082815260200191505060405180910390a35050565b600082821115612f8b57600080fd5b600082840390508091505092915050565b6000612faa826001546130a9565b9050919050565b600073ffffffffffffffffffffffffffffffffffffffff168173ffffffffffffffffffffffffffffffffffffffff161415612feb57600080fd5b8073ffffffffffffffffffffffffffffffffffffffff166000809054906101000a900473ffffffffffffffffffffffffffffffffffffffff1673ffffffffffffffffffffffffffffffffffffffff167f8be0079c531659141344cd1fd0a4f28419497f9722a3daafe3b4186f6b6457e060405160405180910390a3806000806101000a81548173ffffffffffffffffffffffffffffffffffffffff021916908373ffffffffffffffffffffffffffffffffffffffff16021790555050565b60006040517f190100000000000000000000000000000000000000000000000000000000000081528260028201528360228201526042812091505092915050565b600073ffffffffffffffffffffffffffffffffffffffff168273ffffffffffffffffffffffffffffffffffffffff16141561312457600080fd5b61317681600660008673ffffffffffffffffffffffffffffffffffffffff1673ffffffffffffffffffffffffffffffffffffffff16815260200190815260200160002054612f7c90919063ffffffff16565b600660008573ffffffffffffffffffffffffffffffffffffffff1673ffffffffffffffffffffffffffffffffffffffff1681526020019081526020016000208190555061320b81600660008573ffffffffffffffffffffffffffffffffffffffff1673ffffffffffffffffffffffffffffffffffffffff16815260200190815260200160002054612caa90919063ffffffff16565b600660008473ffffffffffffffffffffffffffffffffffffffff1673ffffffffffffffffffffffffffffffffffffffff168152602001908152602001600020819055508173ffffffffffffffffffffffffffffffffffffffff168373ffffffffffffffffffffffffffffffffffffffff167fddf252ad1be2c89b69c2b068fc378daa952ba7f163c4a11628f55a4df523b3ef836040518082815260200191505060405180910390a3505050565b600073ffffffffffffffffffffffffffffffffffffffff168273ffffffffffffffffffffffffffffffffffffffff1614156132f257600080fd5b61330781600854612f7c90919063ffffffff16565b60088190555061335f81600660008573ffffffffffffffffffffffffffffffffffffffff1673ffffffffffffffffffffffffffffffffffffffff16815260200190815260200160002054612f7c90919063ffffffff16565b600660008473ffffffffffffffffffffffffffffffffffffffff1673ffffffffffffffffffffffffffffffffffffffff16815260200190815260200160002081905550600073ffffffffffffffffffffffffffffffffffffffff168273ffffffffffffffffffffffffffffffffffffffff167fddf252ad1be2c89b69c2b068fc378daa952ba7f163c4a11628f55a4df523b3ef836040518082815260200191505060405180910390a35050565b828054600181600116156101000203166002900490600052602060002090601f016020900481019282601f1061344d57803560ff191683800117855561347b565b8280016001018555821561347b579182015b8281111561347a57823582559160200191906001019061345f565b5b509050613488919061348c565b5090565b6134ae91905b808211156134aa576000816000905550600101613492565b5090565b9056fe4368696c6420746f6b656e3a206e657720706172656e74206164647265737320697320746865207a65726f2061646472657373454950373132446f6d61696e28737472696e67206e616d652c737472696e672076657273696f6e2c75696e7432353620636861696e49642c6164647265737320766572696679696e67436f6e74726163742953746174652073796e6365723a2063616c6c6572206973206e6f74207468652073746174652073796e63657220636f6e74726163744368696c6420746f6b656e3a206e6577206368696c64206164647265737320697320746865207a65726f2061646472657373546f6b656e5472616e736665724f726465722861646472657373207370656e6465722c75696e7432353620746f6b656e49644f72416d6f756e742c6279746573333220646174612c75696e743235362065787069726174696f6e294368696c6420746f6b656e3a2063616c6c6572206973206e6f7420746865206368696c6420636861696e20636f6e747261637453746174652073796e6365723a206e65772073746174652073796e636572206164647265737320697320746865207a65726f2061646472657373a265627a7a72315820710b1b318c8ec910ebc72a5ab04e400847ebd1c29c8a3c77345db06179d5383964736f6c63430005110032454950373132446f6d61696e28737472696e67206e616d652c737472696e672076657273696f6e2c75696e7432353620636861696e49642c6164647265737320766572696679696e67436f6e747261637429",
  "linkReferences": {},
  "deployedLinkReferences": {}
}