{
  "_format": "hh-sol-artifact-1",
  "contractName": "MarketplacePredicate",
  "sourceName": "contracts/root/predicates/MarketplacePredicate.sol",
  "abi": [
    {
      "inputs": [
        {
          "internalType": "address",
          "name": "_rootChain",
          "type": "address"
        },
        {
          "internalType": "address",
          "name": "_withdrawManager",
          "type": "address"
        },
        {
          "internalType": "address",
          "name": "_registry",
          "type": "address"
        }
      ],
      "payable": false,
      "stateMutability": "nonpayable",
      "type": "constructor"
    },
    {
      "constant": true,
      "inputs": [],
      "name": "CHAINID",
      "outputs": [
        {
          "internalType": "uint256",
          "name": "",
          "type": "uint256"
        }
      ],
      "payable": false,
      "stateMutability": "view",
      "type": "function"
    },
    {
      "constant": true,
      "inputs": [],
      "name": "networkId",
      "outputs": [
        {
          "internalType": "bytes",
          "name": "",
          "type": "bytes"
        }
      ],
      "payable": false,
      "stateMutability": "view",
      "type": "function"
    },
    {
      "constant": false,
      "inputs": [
        {
          "internalType": "bytes",
          "name": "data",
          "type": "bytes"
        }
      ],
      "name": "onFinalizeExit",
      "outputs": [],
      "payable": false,
      "stateMutability": "nonpayable",
      "type": "function"
    },
    {
      "constant": true,
      "inputs": [],
      "name": "registry",
      "outputs": [
        {
          "internalType": "contract Registry",
          "name": "",
          "type": "address"
        }
      ],
      "payable": false,
      "stateMutability": "view",
      "type": "function"
    },
    {
      "constant": true,
      "inputs": [],
      "name": "rootChain",
      "outputs": [
        {
          "internalType": "contract IRootChain",
          "name": "",
          "type": "address"
        }
      ],
      "payable": false,
      "stateMutability": "view",
      "type": "function"
    },
    {
      "constant": false,
      "inputs": [
        {
          "internalType": "bytes",
          "name": "data",
          "type": "bytes"
        },
        {
          "internalType": "bytes",
          "name": "exitTx",
          "type": "bytes"
        }
      ],
      "name": "startExit",
      "outputs": [],
      "payable": true,
      "stateMutability": "payable",
      "type": "function"
    },
    {
      "constant": true,
      "inputs": [
        {
          "internalType": "bytes",
          "name": "exit",
          "type": "bytes"
        },
        {
          "internalType": "bytes",
          "name": "inputUtxo",
          "type": "bytes"
        },
        {
          "internalType": "bytes",
          "name": "challengeData",
          "type": "bytes"
        }
      ],
      "name": "verifyDeprecation",
      "outputs": [
        {
          "internalType": "bool",
          "name": "",
          "type": "bool"
        }
      ],
      "payable": false,
      "stateMutability": "view",
      "type": "function"
    }
  ],
  "bytecode": "0x608060405234801561001057600080fd5b506040516141793803806141798339818101604052606081101561003357600080fd5b81019080805190602001909291908051906020019092919080519060200190929190505050816000806101000a81548173ffffffffffffffffffffffffffffffffffffffff021916908373ffffffffffffffffffffffffffffffffffffffff16021790555082600360006101000a81548173ffffffffffffffffffffffffffffffffffffffff021916908373ffffffffffffffffffffffffffffffffffffffff16021790555080600260006101000a81548173ffffffffffffffffffffffffffffffffffffffff021916908373ffffffffffffffffffffffffffffffffffffffff16021790555050505061404d8061012c6000396000f3fe6080604052600436106100705760003560e01c80639025e64c1161004e5780639025e64c14610220578063987ab9db146102b0578063cc79f97b14610307578063ec58410c1461033257610070565b806328b4b53d146100755780637b103999146101435780637bd94e031461019a575b600080fd5b6101416004803603604081101561008b57600080fd5b81019080803590602001906401000000008111156100a857600080fd5b8201836020820111156100ba57600080fd5b803590602001918460018302840111640100000000831117156100dc57600080fd5b9091929391929390803590602001906401000000008111156100fd57600080fd5b82018360208201111561010f57600080fd5b8035906020019184600183028401116401000000008311171561013157600080fd5b909192939192939050505061047a565b005b34801561014f57600080fd5b50610158611457565b604051808273ffffffffffffffffffffffffffffffffffffffff1673ffffffffffffffffffffffffffffffffffffffff16815260200191505060405180910390f35b3480156101a657600080fd5b5061021e600480360360208110156101bd57600080fd5b81019080803590602001906401000000008111156101da57600080fd5b8201836020820111156101ec57600080fd5b8035906020019184600183028401116401000000008311171561020e57600080fd5b909192939192939050505061147d565b005b34801561022c57600080fd5b50610235611694565b6040518080602001828103825283818151815260200191508051906020019080838360005b8381101561027557808201518184015260208101905061025a565b50505050905090810190601f1680156102a25780820380516001836020036101000a031916815260200191505b509250505060405180910390f35b3480156102bc57600080fd5b506102c56116cd565b604051808273ffffffffffffffffffffffffffffffffffffffff1673ffffffffffffffffffffffffffffffffffffffff16815260200191505060405180910390f35b34801561031357600080fd5b5061031c6116f3565b6040518082815260200191505060405180910390f35b34801561033e57600080fd5b506104606004803603606081101561035557600080fd5b810190808035906020019064010000000081111561037257600080fd5b82018360208201111561038457600080fd5b803590602001918460018302840111640100000000831117156103a657600080fd5b9091929391929390803590602001906401000000008111156103c757600080fd5b8201836020820111156103d957600080fd5b803590602001918460018302840111640100000000831117156103fb57600080fd5b90919293919293908035906020019064010000000081111561041c57600080fd5b82018360208201111561042e57600080fd5b8035906020019184600183028401116401000000008311171561045057600080fd5b90919293919293905050506116fa565b604051808215151515815260200191505060405180910390f35b67016345785d8a000034146104f7576040517f08c379a00000000000000000000000000000000000000000000000000000000081526004018080602001828103825260138152602001807f496e76616c696420426f6e6420616d6f756e740000000000000000000000000081525060200191505060405180910390fd5b606061054e61054986868080601f016020809104026020016040519081016040528093929190818152602001838380828437600081840152601f19601f82011690508083019250505050505050611bfe565b611c2c565b9050600060606105718360008151811061056457fe5b6020026020010151611d09565b806020019051604081101561058557600080fd5b8101908080519060200190929190805160405193929190846401000000008211156105af57600080fd5b838201915060208201858111156105c557600080fd5b82518660018202830111640100000000821117156105e257600080fd5b8083526020830192505050908051906020019080838360005b838110156106165780820151818401526020810190506105fb565b50505050905090810190601f1680156106435780820380516001836020036101000a031916815260200191505b50604052505050915091506000600260009054906101000a900473ffffffffffffffffffffffffffffffffffffffff1673ffffffffffffffffffffffffffffffffffffffff166337b1d585846040518263ffffffff1660e01b8152600401808273ffffffffffffffffffffffffffffffffffffffff1673ffffffffffffffffffffffffffffffffffffffff16815260200191505060206040518083038186803b1580156106ef57600080fd5b505afa158015610703573d6000803e3d6000fd5b505050506040513d602081101561071957600080fd5b8101908080519060200190929190505050600381111561073557fe5b60ff1614156107ac576040517f08c379a00000000000000000000000000000000000000000000000000000000081526004018080602001828103825260158152602001807f4e6f7420612076616c696420707265646963617465000000000000000000000081525060200191505060405180910390fd5b6107b4613c04565b61080286868080601f016020809104026020016040519081016040528093929190818152602001838380828437600081840152601f19601f8201169050808301925050505050505033611d83565b9050600360009054906101000a900473ffffffffffffffffffffffffffffffffffffffff1673ffffffffffffffffffffffffffffffffffffffff1663b87e1b666040518163ffffffff1660e01b815260040160206040518083038186803b15801561086c57600080fd5b505afa158015610880573d6000803e3d6000fd5b505050506040513d602081101561089657600080fd5b81019080805190602001909291905050508160c0015111610902576040517f08c379a0000000000000000000000000000000000000000000000000000000008152600401808060200182810382526049815260200180613f886049913960600191505060405180910390fd5b61090a613c86565b61091984843360016000611f50565b905061093781604001518360400151836000015185600001516122ab565b6109548560018151811061094757fe5b6020026020010151611d09565b806020019051604081101561096857600080fd5b81019080805190602001909291908051604051939291908464010000000082111561099257600080fd5b838201915060208201858111156109a857600080fd5b82518660018202830111640100000000821117156109c557600080fd5b8083526020830192505050908051906020019080838360005b838110156109f95780820151818401526020810190506109de565b50505050905090810190601f168015610a265780820380516001836020036101000a031916815260200191505b5060405250505081915080905080945081955050506000600260009054906101000a900473ffffffffffffffffffffffffffffffffffffffff1673ffffffffffffffffffffffffffffffffffffffff166337b1d585866040518263ffffffff1660e01b8152600401808273ffffffffffffffffffffffffffffffffffffffff1673ffffffffffffffffffffffffffffffffffffffff16815260200191505060206040518083038186803b158015610adc57600080fd5b505afa158015610af0573d6000803e3d6000fd5b505050506040513d6020811015610b0657600080fd5b81019080805190602001909291905050506003811115610b2257fe5b60ff161415610b99576040517f08c379a00000000000000000000000000000000000000000000000000000000081526004018080602001828103825260158152602001807f4e6f7420612076616c696420707265646963617465000000000000000000000081525060200191505060405180910390fd5b610ba1613c86565b610bb48585856080015160016000611f50565b9050610bd281604001518460600151836000015186602001516122ab565b6000610bf487600189510381518110610be757fe5b60200260200101516124e8565b9050610bfe613c86565b600488511415610dc757610c2588600381518110610c1857fe5b6020026020010151611d09565b8060200190516040811015610c3957600080fd5b810190808051906020019092919080516040519392919084640100000000821115610c6357600080fd5b83820191506020820185811115610c7957600080fd5b8251866001820283011164010000000082111715610c9657600080fd5b8083526020830192505050908051906020019080838360005b83811015610cca578082015181840152602081019050610caf565b50505050905090810190601f168015610cf75780820380516001836020036101000a031916815260200191505b506040525050508191508090508097508198505050610d1b87873360016000611f50565b9050806040015173ffffffffffffffffffffffffffffffffffffffff16836040015173ffffffffffffffffffffffffffffffffffffffff1614610dc6576040517f08c379a00000000000000000000000000000000000000000000000000000000081526004018080602001828103825260188152602001807f4368696c6420746f6b656e20646f65736e74206d61746368000000000000000081525060200191505060405180910390fd5b5b610dcf612542565b60006001610df2610de8876020015187602001516125b4565b84602001516125b4565b901b9050846040015173ffffffffffffffffffffffffffffffffffffffff168373ffffffffffffffffffffffffffffffffffffffff161415610f9a576000809054906101000a900473ffffffffffffffffffffffffffffffffffffffff1673ffffffffffffffffffffffffffffffffffffffff1663d931a86933858860600151610e8d8b600001518b600001516125ce90919063ffffffff16565b8b60a001516000886040518863ffffffff1660e01b8152600401808873ffffffffffffffffffffffffffffffffffffffff1673ffffffffffffffffffffffffffffffffffffffff1681526020018773ffffffffffffffffffffffffffffffffffffffff1673ffffffffffffffffffffffffffffffffffffffff1681526020018673ffffffffffffffffffffffffffffffffffffffff1673ffffffffffffffffffffffffffffffffffffffff16815260200185815260200184815260200183151515158152602001828152602001975050505050505050600060405180830381600087803b158015610f7d57600080fd5b505af1158015610f91573d6000803e3d6000fd5b5050505061113b565b836040015173ffffffffffffffffffffffffffffffffffffffff168373ffffffffffffffffffffffffffffffffffffffff16141561113a576000809054906101000a900473ffffffffffffffffffffffffffffffffffffffff1673ffffffffffffffffffffffffffffffffffffffff1663d931a8693385876060015161103187600001518c602001516125ee90919063ffffffff16565b8b60a001516000886040518863ffffffff1660e01b8152600401808873ffffffffffffffffffffffffffffffffffffffff1673ffffffffffffffffffffffffffffffffffffffff1681526020018773ffffffffffffffffffffffffffffffffffffffff1673ffffffffffffffffffffffffffffffffffffffff1681526020018673ffffffffffffffffffffffffffffffffffffffff1673ffffffffffffffffffffffffffffffffffffffff16815260200185815260200184815260200183151515158152602001828152602001975050505050505050600060405180830381600087803b15801561112157600080fd5b505af1158015611135573d6000803e3d6000fd5b505050505b5b6000809054906101000a900473ffffffffffffffffffffffffffffffffffffffff1673ffffffffffffffffffffffffffffffffffffffff166322f192af8287602001513389606001516040518563ffffffff1660e01b8152600401808581526020018481526020018373ffffffffffffffffffffffffffffffffffffffff1673ffffffffffffffffffffffffffffffffffffffff1681526020018273ffffffffffffffffffffffffffffffffffffffff1673ffffffffffffffffffffffffffffffffffffffff168152602001945050505050600060405180830381600087803b15801561122757600080fd5b505af115801561123b573d6000803e3d6000fd5b505050506000809054906101000a900473ffffffffffffffffffffffffffffffffffffffff1673ffffffffffffffffffffffffffffffffffffffff166322f192af828660200151896080015188606001516040518563ffffffff1660e01b8152600401808581526020018481526020018373ffffffffffffffffffffffffffffffffffffffff1673ffffffffffffffffffffffffffffffffffffffff1681526020018273ffffffffffffffffffffffffffffffffffffffff1673ffffffffffffffffffffffffffffffffffffffff168152602001945050505050600060405180830381600087803b15801561132f57600080fd5b505af1158015611343573d6000803e3d6000fd5b505050506000809054906101000a900473ffffffffffffffffffffffffffffffffffffffff1673ffffffffffffffffffffffffffffffffffffffff166322f192af8260003386606001516040518563ffffffff1660e01b8152600401808581526020018481526020018373ffffffffffffffffffffffffffffffffffffffff1673ffffffffffffffffffffffffffffffffffffffff1681526020018273ffffffffffffffffffffffffffffffffffffffff1673ffffffffffffffffffffffffffffffffffffffff168152602001945050505050600060405180830381600087803b15801561143057600080fd5b505af1158015611444573d6000803e3d6000fd5b5050505050505050505050505050505050565b600260009054906101000a900473ffffffffffffffffffffffffffffffffffffffff1681565b6000809054906101000a900473ffffffffffffffffffffffffffffffffffffffff1673ffffffffffffffffffffffffffffffffffffffff163373ffffffffffffffffffffffffffffffffffffffff161461153f576040517f08c379a00000000000000000000000000000000000000000000000000000000081526004018080602001828103825260158152602001807f4f4e4c595f57495448445241575f4d414e41474552000000000000000000000081525060200191505060405180910390fd5b600080600061159185858080601f016020809104026020016040519081016040528093929190818152602001838380828437600081840152601f19601f8201169050808301925050505050505061260d565b93509350935050600160009054906101000a900473ffffffffffffffffffffffffffffffffffffffff1673ffffffffffffffffffffffffffffffffffffffff166349f4cc178484846040518463ffffffff1660e01b8152600401808473ffffffffffffffffffffffffffffffffffffffff1673ffffffffffffffffffffffffffffffffffffffff1681526020018373ffffffffffffffffffffffffffffffffffffffff1673ffffffffffffffffffffffffffffffffffffffff1681526020018281526020019350505050600060405180830381600087803b15801561167557600080fd5b505af1158015611689573d6000803e3d6000fd5b505050505050505050565b6040518060400160405280600381526020017f013881000000000000000000000000000000000000000000000000000000000081525081565b600360009054906101000a900473ffffffffffffffffffffffffffffffffffffffff1681565b6201388181565b6000611704613cda565b61175188888080601f016020809104026020016040519081016040528093929190818152602001838380828437600081840152601f19601f82011690508083019250505050505050612674565b90506000806000806117a68a8a8080601f016020809104026020016040519081016040528093929190818152602001838380828437600081840152601f19601f8201169050808301925050505050505061275a565b935093509350935060606118056118008a8a8080601f016020809104026020016040519081016040528093929190818152602001838380828437600081840152601f19601f82011690508083019250505050505050611bfe565b611c2c565b905061180f613c04565b61183561182f83600a8151811061182257fe5b6020026020010151611d09565b86611d83565b905061183f613c86565b611891858c8c8080601f016020809104026020016040519081016040528093929190818152602001838380828437600081840152601f19601f8201169050808301925050505050505088600180611f50565b9050600260038111156118a057fe5b600260009054906101000a900473ffffffffffffffffffffffffffffffffffffffff1673ffffffffffffffffffffffffffffffffffffffff166337b1d585876040518263ffffffff1660e01b8152600401808273ffffffffffffffffffffffffffffffffffffffff1673ffffffffffffffffffffffffffffffffffffffff16815260200191505060206040518083038186803b15801561193f57600080fd5b505afa158015611953573d6000803e3d6000fd5b505050506040513d602081101561196957600080fd5b8101908080519060200190929190505050600381111561198557fe5b14156119ff57876000015181600001511480156119a9575087600001518260000151145b6119fe576040517f08c379a0000000000000000000000000000000000000000000000000000000008152600401808060200182810382526048815260200180613fd16048913960600191505060405180910390fd5b5b8160c00151611a1182602001516127c4565b1115611a68576040517f08c379a0000000000000000000000000000000000000000000000000000000008152600401808060200182810382526036815260200180613f066036913960400191505060405180910390fd5b8373ffffffffffffffffffffffffffffffffffffffff16816040015173ffffffffffffffffffffffffffffffffffffffff16148015611ad657508373ffffffffffffffffffffffffffffffffffffffff16826040015173ffffffffffffffffffffffffffffffffffffffff16145b611b2b576040517f08c379a000000000000000000000000000000000000000000000000000000000815260040180806020018281038252604c815260200180613f3c604c913960600191505060405180910390fd5b87602001518260a001511415611b8c576040517f08c379a0000000000000000000000000000000000000000000000000000000008152600401808060200182810382526021815260200180613e856021913960400191505060405180910390fd5b86816020015111611be8576040517f08c379a0000000000000000000000000000000000000000000000000000000008152600401808060200182810382526056815260200180613e2f6056913960600191505060405180910390fd5b6001985050505050505050509695505050505050565b611c06613d57565b600060208301905060405180604001604052808451815260200182815250915050919050565b6060611c37826127d6565b611c4057600080fd5b6000611c4b83612824565b9050606081604051908082528060200260200182016040528015611c8957816020015b611c76613d71565b815260200190600190039081611c6e5790505b5090506000611c9b8560200151612895565b8560200151019050600080600090505b84811015611cfc57611cbc8361291e565b9150604051806040016040528083815260200184815250848281518110611cdf57fe5b602002602001018190525081830192508080600101915050611cab565b5082945050505050919050565b60606000826000015111611d1c57600080fd5b600080611d28846129d6565b915091506060816040519080825280601f01601f191660200182016040528015611d615781602001600182028038833980820191505090505b5090506000816020019050611d77848285612a0e565b81945050505050919050565b611d8b613c04565b6060611d9e611d9985611bfe565b611c2c565b90506009815114611e17576040517f08c379a00000000000000000000000000000000000000000000000000000000081526004018080602001828103825260158152602001807f4d414c464f524d45445f57495448445241575f5458000000000000000000000081525060200191505060405180910390fd5b6000611e3682600381518110611e2957fe5b6020026020010151612a7f565b90506000611e42613d8b565b611e67611e6285600581518110611e5557fe5b6020026020010151611d09565b612aa2565b9150915063e660b9e460e01b7bffffffffffffffffffffffffffffffffffffffffffffffffffffffff1916827bffffffffffffffffffffffffffffffffffffffffffffffffffffffff191614611f25576040517f08c379a000000000000000000000000000000000000000000000000000000000815260040180806020018281038252601c8152602001807f4e6f7420657865637574654f72646572207472616e73616374696f6e0000000081525060200191505060405180910390fd5b611f30818488612b84565b9450611f3b84613177565b90508560a00181815250505050505092915050565b611f58613c86565b60608673ffffffffffffffffffffffffffffffffffffffff166382e3464c8787878760405160200180806020018573ffffffffffffffffffffffffffffffffffffffff1673ffffffffffffffffffffffffffffffffffffffff1681526020018415151515815260200183151515158152602001828103825286818151815260200191508051906020019080838360005b83811015612003578082015181840152602081019050611fe8565b50505050905090810190601f1680156120305780820380516001836020036101000a031916815260200191505b50955050505050506040516020818303038152906040526040518263ffffffff1660e01b81526004018080602001828103825283818151815260200191508051906020019080838360005b8381101561209657808201518184015260208101905061207b565b50505050905090810190601f1680156120c35780820380516001836020036101000a031916815260200191505b509250505060006040518083038186803b1580156120e057600080fd5b505afa1580156120f4573d6000803e3d6000fd5b505050506040513d6000823e3d601f19601f82011682018060405250602081101561211e57600080fd5b810190808051604051939291908464010000000082111561213e57600080fd5b8382019150602082018581111561215457600080fd5b825186600182028301116401000000008211171561217157600080fd5b8083526020830192505050908051906020019080838360005b838110156121a557808201518184015260208101905061218a565b50505050905090810190601f1680156121d25780820380516001836020036101000a031916815260200191505b5060405250505090508080602001905160808110156121f057600080fd5b8101908080519060200190929190805190602001909291908051906020019092919080519060200190929190505050819150809050856000018660200187604001886060018473ffffffffffffffffffffffffffffffffffffffff1673ffffffffffffffffffffffffffffffffffffffff168152508473ffffffffffffffffffffffffffffffffffffffff1673ffffffffffffffffffffffffffffffffffffffff168152508481525084815250505050505095945050505050565b8273ffffffffffffffffffffffffffffffffffffffff168473ffffffffffffffffffffffffffffffffffffffff161461234c576040517f08c379a00000000000000000000000000000000000000000000000000000000081526004018080602001828103825260198152602001807f4368696c6420746f6b656e7320646f206e6f74206d617463680000000000000081525060200191505060405180910390fd5b600260009054906101000a900473ffffffffffffffffffffffffffffffffffffffff1673ffffffffffffffffffffffffffffffffffffffff1663bbfe7cd3856040518263ffffffff1660e01b8152600401808273ffffffffffffffffffffffffffffffffffffffff1673ffffffffffffffffffffffffffffffffffffffff16815260200191505060206040518083038186803b1580156123eb57600080fd5b505afa1580156123ff573d6000803e3d6000fd5b505050506040513d602081101561241557600080fd5b81019080805190602001909291905050501561248857808214612483576040517f08c379a0000000000000000000000000000000000000000000000000000000008152600401808060200182810382526024815260200180613e0b6024913960400191505060405180910390fd5b6124e2565b808210156124e1576040517f08c379a0000000000000000000000000000000000000000000000000000000008152600401808060200182810382526028815260200180613ea66028913960400191505060405180910390fd5b5b50505050565b600080826000015111801561250257506021826000015111155b61250b57600080fd5b600080612517846129d6565b91509150600082519050602082101561253757816020036101000a810490505b809350505050919050565b6000809054906101000a900473ffffffffffffffffffffffffffffffffffffffff1673ffffffffffffffffffffffffffffffffffffffff166108fc67016345785d8a00009081150290604051600060405180830381858888f193505050501580156125b1573d6000803e3d6000fd5b50565b6000818310156125c457816125c6565b825b905092915050565b6000828211156125dd57600080fd5b600082840390508091505092915050565b60008082840190508381101561260357600080fd5b8091505092915050565b60008060008084806020019051608081101561262857600080fd5b8101908080519060200190929190805190602001909291908051906020019092919080519060200190929190505050829250819150809450819550829650839750505050509193509193565b61267c613cda565b60008060008060008680602001905160a081101561269957600080fd5b810190808051906020019092919080519060200190929190805190602001909291908051906020019092919080519060200190929190505050945094509450945094506040518060c001604052808481526020018381526020018673ffffffffffffffffffffffffffffffffffffffff1681526020018573ffffffffffffffffffffffffffffffffffffffff1681526020018215158152602001600073ffffffffffffffffffffffffffffffffffffffff1681525095505050505050919050565b60008060008084806020019051608081101561277557600080fd5b8101908080519060200190929190805190602001909291908051906020019092919080519060200190929190505050829250819150809050809450819550829650839750505050509193509193565b600060a1608183901b901c9050919050565b600080826000015114156127ed576000905061281f565b60008083602001519050805160001a915060c060ff168260ff1610156128185760009250505061281f565b6001925050505b919050565b6000808260000151141561283b5760009050612890565b6000809050600061284f8460200151612895565b84602001510190506000846000015185602001510190505b80821015612889576128788261291e565b820191508280600101935050612867565b8293505050505b919050565b600080825160001a9050608060ff168110156128b5576000915050612919565b60b860ff168110806128da575060c060ff1681101580156128d9575060f860ff1681105b5b156128e9576001915050612919565b60c060ff168110156129095760018060b80360ff16820301915050612919565b60018060f80360ff168203019150505b919050565b6000806000835160001a9050608060ff1681101561293f57600191506129cc565b60b860ff1681101561295c576001608060ff1682030191506129cb565b60c060ff1681101561298c5760b78103600185019450806020036101000a855104600182018101935050506129ca565b60f860ff168110156129a957600160c060ff1682030191506129c9565b60f78103600185019450806020036101000a855104600182018101935050505b5b5b5b8192505050919050565b60008060006129e88460200151612895565b905060008185602001510190506000828660000151039050818194509450505050915091565b6000811415612a1c57612a7a565b5b602060ff168110612a4c5782518252602060ff1683019250602060ff1682019150602060ff1681039050612a1d565b6000811115612a79576000600182602060ff16036101000a03905080198451168184511681811785525050505b5b505050565b60006015826000015114612a9257600080fd5b612a9b826124e8565b9050919050565b6000612aac613d8b565b612ac1612abc84600060046135a6565b613632565b9150612ace836044613640565b60001b816040018181525050612ae5836064613640565b816060018181525050612af9836084613640565b816080019073ffffffffffffffffffffffffffffffffffffffff16908173ffffffffffffffffffffffffffffffffffffffff16815250506000612b3d8460a4613640565b9050612b4b8460c4836135a6565b826000018190525060008160c4019050612b658582613640565b9150612b758560208301846135a6565b83602001819052505050915091565b612b8c613c04565b612b94613dd3565b612ba18560000151613668565b9050612bab613dd3565b612bb88660200151613668565b9050600073__$1589bce7f5321952abb8f3fc1f5105d4b4$__63250e38bf84600001518886604001518b6040015187600001518860400151604051602001808481526020018373ffffffffffffffffffffffffffffffffffffffff1673ffffffffffffffffffffffffffffffffffffffff1660601b81526014018281526020019350505050604051602081830303815290604052805190602001208c606001516040518663ffffffff1660e01b8152600401808673ffffffffffffffffffffffffffffffffffffffff1673ffffffffffffffffffffffffffffffffffffffff1681526020018573ffffffffffffffffffffffffffffffffffffffff1673ffffffffffffffffffffffffffffffffffffffff1681526020018481526020018381526020018281526020019550505050505060206040518083038186803b158015612d0057600080fd5b505af4158015612d14573d6000803e3d6000fd5b505050506040513d6020811015612d2a57600080fd5b810190808051906020019092919050505090506000612d4d8285602001516137a5565b905073__$1589bce7f5321952abb8f3fc1f5105d4b4$__63250e38bf84600001518986604001518c6040015189600001518a60400151604051602001808481526020018373ffffffffffffffffffffffffffffffffffffffff1673ffffffffffffffffffffffffffffffffffffffff1660601b81526014018281526020019350505050604051602081830303815290604052805190602001208d606001516040518663ffffffff1660e01b8152600401808673ffffffffffffffffffffffffffffffffffffffff1673ffffffffffffffffffffffffffffffffffffffff1681526020018573ffffffffffffffffffffffffffffffffffffffff1673ffffffffffffffffffffffffffffffffffffffff1681526020018481526020018381526020018281526020019550505050505060206040518083038186803b158015612e9357600080fd5b505af4158015612ea7573d6000803e3d6000fd5b505050506040513d6020811015612ebd57600080fd5b810190808051906020019092919050505091506000612ee08385602001516137a5565b90508073ffffffffffffffffffffffffffffffffffffffff16896080015173ffffffffffffffffffffffffffffffffffffffff1614612f87576040517f08c379a000000000000000000000000000000000000000000000000000000000815260040180806020018281038252601c8152602001807f4f726465727320617265206e6f7420636f6d706c696d656e746172790000000081525060200191505060405180910390fd5b8673ffffffffffffffffffffffffffffffffffffffff168273ffffffffffffffffffffffffffffffffffffffff161415613053576040518060e001604052808660400151815260200185604001518152602001866000015173ffffffffffffffffffffffffffffffffffffffff168152602001856000015173ffffffffffffffffffffffffffffffffffffffff1681526020018273ffffffffffffffffffffffffffffffffffffffff1681526020016000801b81526020018a6060015181525095505050505050613170565b8673ffffffffffffffffffffffffffffffffffffffff168173ffffffffffffffffffffffffffffffffffffffff16141561311f576040518060e001604052808560400151815260200186604001518152602001856000015173ffffffffffffffffffffffffffffffffffffffff168152602001866000015173ffffffffffffffffffffffffffffffffffffffff1681526020018373ffffffffffffffffffffffffffffffffffffffff1681526020016000801b81526020018a6060015181525095505050505050613170565b6040517f08c379a0000000000000000000000000000000000000000000000000000000008152600401808060200182810382526038815260200180613ece6038913960400191505060405180910390fd5b9392505050565b600080606060096040519080825280602002602001820160405280156131b157816020015b606081526020019060019003908161319c5790505b50905060008090505b60058160ff161161320b576131e4858260ff16815181106131d757fe5b6020026020010151611d09565b828260ff16815181106131f357fe5b602002602001018190525080806001019150506131ba565b506040518060400160405280600381526020017f01388100000000000000000000000000000000000000000000000000000000008152508160068151811061324f57fe5b6020026020010181905250604051806020016040528060008152508160078151811061327757fe5b6020026020010181905250604051806020016040528060008152508160088151811061329f57fe5b60200260200101819052506132b3816138c7565b80519060200120915060018273__$d57268b4e4abe976846916e1669260f8d8$__63b40b539b6132f6886006815181106132e957fe5b6020026020010151611d09565b73__$d57268b4e4abe976846916e1669260f8d8$__634d66a2ae6040518060400160405280600381526020017f01388100000000000000000000000000000000000000000000000000000000008152506040518263ffffffff1660e01b81526004018080602001828103825283818151815260200191508051906020019080838360005b8381101561339557808201518184015260208101905061337a565b50505050905090810190601f1680156133c25780820380516001836020036101000a031916815260200191505b509250505060206040518083038186803b1580156133df57600080fd5b505af41580156133f3573d6000803e3d6000fd5b505050506040513d602081101561340957600080fd5b81019080805190602001909291905050506040518363ffffffff1660e01b815260040180806020018361ffff1661ffff168152602001828103825284818151815260200191508051906020019080838360005b8381101561347757808201518184015260208101905061345c565b50505050905090810190601f1680156134a45780820380516001836020036101000a031916815260200191505b50935050505060206040518083038186803b1580156134c257600080fd5b505af41580156134d6573d6000803e3d6000fd5b505050506040513d60208110156134ec57600080fd5b810190808051906020019092919050505061351a8760078151811061350d57fe5b60200260200101516124e8565b60001b61353a8860088151811061352d57fe5b60200260200101516124e8565b60001b60405160008152602001604052604051808581526020018460ff1660ff1681526020018381526020018281526020019450505050506020604051602081039080840390855afa158015613594573d6000803e3d6000fd5b50505060206040510351925050915091565b6060818301845110156135b857600080fd5b60608215600081146135d557604051915060208201604052613626565b6040519150601f8416801560200281840101858101878315602002848b0101015b8183101561361357805183526020830192506020810190506135f6565b50868552601f19601f8301166040525050505b50809150509392505050565b600060208201519050919050565b6000602082018351101561365357600080fd5b60008260208501015190508091505092915050565b613670613dd3565b81806020019051606081101561368557600080fd5b8101908080519060200190929190805160405193929190846401000000008211156136af57600080fd5b838201915060208201858111156136c557600080fd5b82518660018202830111640100000000821117156136e257600080fd5b8083526020830192505050908051906020019080838360005b838110156137165780820151818401526020810190506136fb565b50505050905090810190601f1680156137435780820380516001836020036101000a031916815260200191505b5060405260200180519060200190929190505050829250836000018460200185604001838152508390528373ffffffffffffffffffffffffffffffffffffffff1673ffffffffffffffffffffffffffffffffffffffff16815250505050919050565b60008060008060418551146137c057600093505050506138c1565b602085015192506040850151915060ff6041860151169050601b8160ff1610156137eb57601b810190505b601b8160ff16141580156138035750601c8160ff1614155b1561381457600093505050506138c1565b600060018783868660405160008152602001604052604051808581526020018460ff1660ff1681526020018381526020018281526020019450505050506020604051602081039080840390855afa158015613873573d6000803e3d6000fd5b505050602060405103519050600073ffffffffffffffffffffffffffffffffffffffff168173ffffffffffffffffffffffffffffffffffffffff1614156138b957600080fd5b809450505050505b92915050565b60608060008090505b835181101561390d576138fe826138f98684815181106138ec57fe5b602002602001015161392b565b6139c7565b915080806001019150506138d0565b5061392361391d825160c0613a51565b826139c7565b915050919050565b606080600183511480156139625750608060ff60f81b8460008151811061394e57fe5b602001015160f81c60f81b1660f81c60ff16105b156139a65760016040519080825280601f01601f19166020018201604052801561399b5781602001600182028038833980820191505090505b5090508290506139be565b6139bb6139b584516080613a51565b846139c7565b90505b80915050919050565b6060806040519050835180825260208201818101602087015b818310156139fd57805183526020830192506020810190506139e0565b50855192508351830184528091508282019050602086015b81831015613a325780518352602083019250602081019050613a15565b50601f19601f8851850115830101166040525050508091505092915050565b60606038831015613ae057606060016040519080825280601f01601f191660200182016040528015613a925781602001600182028038833980820191505090505b50905082840160f81b81600081518110613aa857fe5b60200101907effffffffffffffffffffffffffffffffffffffffffffffffffffffffffffff1916908160001a90535080915050613b3d565b600080600190505b6000818681613af357fe5b0414613b0d57818060010192505061010081029050613ae8565b6060613b1d836037870101613b43565b90506060613b2a87613b43565b9050613b3682826139c7565b9450505050505b92915050565b606060006001905060ff831115613b5957600290505b806040519080825280601f01601f191660200182016040528015613b8c5781602001600182028038833980820191505090505b50915060008090505b81811015613bfd5780600183030360080260020a8481613bb157fe5b0460f81b838281518110613bc157fe5b60200101907effffffffffffffffffffffffffffffffffffffffffffffffffffffffffffff1916908160001a9053508080600101915050613b95565b5050919050565b6040518060e001604052806000815260200160008152602001600073ffffffffffffffffffffffffffffffffffffffff168152602001600073ffffffffffffffffffffffffffffffffffffffff168152602001600073ffffffffffffffffffffffffffffffffffffffff16815260200160008019168152602001600081525090565b60405180608001604052806000815260200160008152602001600073ffffffffffffffffffffffffffffffffffffffff168152602001600073ffffffffffffffffffffffffffffffffffffffff1681525090565b6040518060c001604052806000815260200160008019168152602001600073ffffffffffffffffffffffffffffffffffffffff168152602001600073ffffffffffffffffffffffffffffffffffffffff168152602001600015158152602001600073ffffffffffffffffffffffffffffffffffffffff1681525090565b604051806040016040528060008152602001600081525090565b604051806040016040528060008152602001600081525090565b6040518060a0016040528060608152602001606081526020016000801916815260200160008152602001600073ffffffffffffffffffffffffffffffffffffffff1681525090565b6040518060600160405280600073ffffffffffffffffffffffffffffffffffffffff1681526020016060815260200160008152509056fe53616d652065726337323120746f6b656e20776173206e6f74207265666572656e636564416765206f66206368616c6c656e6765206c6f6720696e207468652072656365697074206e6565647320746f206265206d6f726520726563656e74207468616e205574786f206265696e67206368616c6c656e67656443616e6e6f74206368616c6c656e6765207769746820746865206578697420747845786974696e672077697468206d6f726520746f6b656e73207468616e207265666572656e63656450726f766964656420747820646f65736e7420636f6e6365726e2074686520657869746f72202874726164655061727469636970616e7429546865206d61726b6574706c616365206f72646572207761732065787069726564207768656e2069742077617320696e636c756465644c6f675472616e73666572526563656970742c206368616c6c656e6765547820746f6b656e20616e64206368616c6c656e676564207574786f20746f6b656e20646f206e6f74206d6174636854686520696e666c696768742065786974206973206e6f742076616c69642c206265636175736520746865206d61726b6574706c616365206f726465722068617320657870697265644c6f675472616e73666572526563656970742c206368616c6c656e67655478204e465420616e64206368616c6c656e676564207574786f204e465420646f206e6f74206d61746368a265627a7a723158203b47638ccc2a9b43516a743d50ebb4e59158385469b677b6750f37d923b1dee964736f6c63430005110032",
  "linkReferences": {
    "contracts/common/lib/Common.sol": {
      "Common": [
        {
          "length": 20,
          "start": 13293
        },
        {
          "length": 20,
          "start": 13348
        }
      ]
    },
    "contracts/root/predicates/TransferWithSigUtils.sol": {
      "TransferWithSigUtils": [
        {
          "length": 20,
          "start": 11498
        },
        {
          "length": 20,
          "start": 11901
        }
      ]
    }
  },
  "deployedLinkReferences": {
    "contracts/common/lib/Common.sol": {
      "Common": [
        {
          "length": 20,
          "start": 12993
        },
        {
          "length": 20,
          "start": 13048
        }
      ]
    },
    "contracts/root/predicates/TransferWithSigUtils.sol": {
      "TransferWithSigUtils": [
        {
          "length": 20,
          "start": 11198
        },
        {
          "length": 20,
          "start": 11601
        }
      ]
    }
  }
}