{
  "_format": "hh-sol-artifact-1",
  "contractName": "StakeManagerTestable",
  "sourceName": "contracts/test/StakeManagerTestable.sol",
  "abi": [
    {
      "anonymous": false,
      "inputs": [
        {
          "indexed": true,
          "internalType": "address",
          "name": "previousOwner",
          "type": "address"
        },
        {
          "indexed": true,
          "internalType": "address",
          "name": "newOwner",
          "type": "address"
        }
      ],
      "name": "OwnershipTransferred",
      "type": "event"
    },
    {
      "anonymous": false,
      "inputs": [
        {
          "indexed": true,
          "internalType": "address",
          "name": "previousRootChain",
          "type": "address"
        },
        {
          "indexed": true,
          "internalType": "address",
          "name": "newRootChain",
          "type": "address"
        }
      ],
      "name": "RootChainChanged",
      "type": "event"
    },
    {
      "constant": true,
      "inputs": [],
      "name": "CHECKPOINT_REWARD",
      "outputs": [
        {
          "internalType": "uint256",
          "name": "",
          "type": "uint256"
        }
      ],
      "payable": false,
      "stateMutability": "view",
      "type": "function"
    },
    {
      "constant": true,
      "inputs": [],
      "name": "NFTContract",
      "outputs": [
        {
          "internalType": "contract StakingNFT",
          "name": "",
          "type": "address"
        }
      ],
      "payable": false,
      "stateMutability": "view",
      "type": "function"
    },
    {
      "constant": true,
      "inputs": [],
      "name": "NFTCounter",
      "outputs": [
        {
          "internalType": "uint256",
          "name": "",
          "type": "uint256"
        }
      ],
      "payable": false,
      "stateMutability": "view",
      "type": "function"
    },
    {
      "constant": true,
      "inputs": [],
      "name": "WITHDRAWAL_DELAY",
      "outputs": [
        {
          "internalType": "uint256",
          "name": "",
          "type": "uint256"
        }
      ],
      "payable": false,
      "stateMutability": "view",
      "type": "function"
    },
    {
      "constant": true,
      "inputs": [],
      "name": "accountStateRoot",
      "outputs": [
        {
          "internalType": "bytes32",
          "name": "",
          "type": "bytes32"
        }
      ],
      "payable": false,
      "stateMutability": "view",
      "type": "function"
    },
    {
      "constant": false,
      "inputs": [
        {
          "internalType": "uint256",
          "name": "delta",
          "type": "uint256"
        }
      ],
      "name": "advanceEpoch",
      "outputs": [],
      "payable": false,
      "stateMutability": "nonpayable",
      "type": "function"
    },
    {
      "constant": true,
      "inputs": [],
      "name": "auctionPeriod",
      "outputs": [
        {
          "internalType": "uint256",
          "name": "",
          "type": "uint256"
        }
      ],
      "payable": false,
      "stateMutability": "view",
      "type": "function"
    },
    {
      "constant": false,
      "inputs": [
        {
          "internalType": "address",
          "name": "newRootChain",
          "type": "address"
        }
      ],
      "name": "changeRootChain",
      "outputs": [],
      "payable": false,
      "stateMutability": "nonpayable",
      "type": "function"
    },
    {
      "constant": true,
      "inputs": [],
      "name": "checkPointBlockInterval",
      "outputs": [
        {
          "internalType": "uint256",
          "name": "",
          "type": "uint256"
        }
      ],
      "payable": false,
      "stateMutability": "view",
      "type": "function"
    },
    {
      "constant": false,
      "inputs": [
        {
          "internalType": "uint256",
          "name": "blockInterval",
          "type": "uint256"
        },
        {
          "internalType": "bytes32",
          "name": "voteHash",
          "type": "bytes32"
        },
        {
          "internalType": "bytes32",
          "name": "stateRoot",
          "type": "bytes32"
        },
        {
          "internalType": "address",
          "name": "proposer",
          "type": "address"
        },
        {
          "internalType": "uint256[3][]",
          "name": "sigs",
          "type": "uint256[3][]"
        }
      ],
      "name": "checkSignatures",
      "outputs": [
        {
          "internalType": "uint256",
          "name": "",
          "type": "uint256"
        }
      ],
      "payable": false,
      "stateMutability": "nonpayable",
      "type": "function"
    },
    {
      "constant": true,
      "inputs": [],
      "name": "checkpointRewardDelta",
      "outputs": [
        {
          "internalType": "uint256",
          "name": "",
          "type": "uint256"
        }
      ],
      "payable": false,
      "stateMutability": "view",
      "type": "function"
    },
    {
      "constant": false,
      "inputs": [
        {
          "internalType": "uint256",
          "name": "accumFeeAmount",
          "type": "uint256"
        },
        {
          "internalType": "uint256",
          "name": "index",
          "type": "uint256"
        },
        {
          "internalType": "bytes",
          "name": "proof",
          "type": "bytes"
        }
      ],
      "name": "claimFee",
      "outputs": [],
      "payable": false,
      "stateMutability": "nonpayable",
      "type": "function"
    },
    {
      "constant": false,
      "inputs": [
        {
          "internalType": "uint256",
          "name": "validatorId",
          "type": "uint256"
        },
        {
          "internalType": "uint256",
          "name": "heimdallFee",
          "type": "uint256"
        }
      ],
      "name": "confirmAuctionBid",
      "outputs": [],
      "payable": false,
      "stateMutability": "nonpayable",
      "type": "function"
    },
    {
      "constant": true,
      "inputs": [],
      "name": "currentEpoch",
      "outputs": [
        {
          "internalType": "uint256",
          "name": "",
          "type": "uint256"
        }
      ],
      "payable": false,
      "stateMutability": "view",
      "type": "function"
    },
    {
      "constant": true,
      "inputs": [],
      "name": "currentValidatorSetSize",
      "outputs": [
        {
          "internalType": "uint256",
          "name": "",
          "type": "uint256"
        }
      ],
      "payable": false,
      "stateMutability": "view",
      "type": "function"
    },
    {
      "constant": true,
      "inputs": [],
      "name": "currentValidatorSetTotalStake",
      "outputs": [
        {
          "internalType": "uint256",
          "name": "",
          "type": "uint256"
        }
      ],
      "payable": false,
      "stateMutability": "view",
      "type": "function"
    },
    {
      "constant": false,
      "inputs": [
        {
          "internalType": "uint256",
          "name": "validatorId",
          "type": "uint256"
        },
        {
          "internalType": "uint256",
          "name": "amount",
          "type": "uint256"
        }
      ],
      "name": "decreaseValidatorDelegatedAmount",
      "outputs": [],
      "payable": false,
      "stateMutability": "nonpayable",
      "type": "function"
    },
    {
      "constant": true,
      "inputs": [
        {
          "internalType": "uint256",
          "name": "validatorId",
          "type": "uint256"
        }
      ],
      "name": "delegatedAmount",
      "outputs": [
        {
          "internalType": "uint256",
          "name": "",
          "type": "uint256"
        }
      ],
      "payable": false,
      "stateMutability": "view",
      "type": "function"
    },
    {
      "constant": false,
      "inputs": [
        {
          "internalType": "uint256",
          "name": "validatorId",
          "type": "uint256"
        },
        {
          "internalType": "uint256",
          "name": "amount",
          "type": "uint256"
        },
        {
          "internalType": "address",
          "name": "delegator",
          "type": "address"
        }
      ],
      "name": "delegationDeposit",
      "outputs": [
        {
          "internalType": "bool",
          "name": "",
          "type": "bool"
        }
      ],
      "payable": false,
      "stateMutability": "nonpayable",
      "type": "function"
    },
    {
      "constant": true,
      "inputs": [],
      "name": "delegationEnabled",
      "outputs": [
        {
          "internalType": "bool",
          "name": "",
          "type": "bool"
        }
      ],
      "payable": false,
      "stateMutability": "view",
      "type": "function"
    },
    {
      "constant": true,
      "inputs": [
        {
          "internalType": "uint256",
          "name": "validatorId",
          "type": "uint256"
        }
      ],
      "name": "delegatorsReward",
      "outputs": [
        {
          "internalType": "uint256",
          "name": "",
          "type": "uint256"
        }
      ],
      "payable": false,
      "stateMutability": "view",
      "type": "function"
    },
    {
      "constant": false,
      "inputs": [
        {
          "internalType": "address",
          "name": "auctionUser",
          "type": "address"
        },
        {
          "internalType": "uint256",
          "name": "heimdallFee",
          "type": "uint256"
        },
        {
          "internalType": "uint256",
          "name": "validatorId",
          "type": "uint256"
        },
        {
          "internalType": "uint256",
          "name": "auctionAmount",
          "type": "uint256"
        },
        {
          "internalType": "bool",
          "name": "acceptDelegation",
          "type": "bool"
        },
        {
          "internalType": "bytes",
          "name": "signerPubkey",
          "type": "bytes"
        }
      ],
      "name": "dethroneAndStake",
      "outputs": [],
      "payable": false,
      "stateMutability": "nonpayable",
      "type": "function"
    },
    {
      "constant": false,
      "inputs": [
        {
          "internalType": "address",
          "name": "destination",
          "type": "address"
        },
        {
          "internalType": "uint256",
          "name": "amount",
          "type": "uint256"
        }
      ],
      "name": "drain",
      "outputs": [],
      "payable": false,
      "stateMutability": "nonpayable",
      "type": "function"
    },
    {
      "constant": false,
      "inputs": [
        {
          "internalType": "uint256",
          "name": "validatorId",
          "type": "uint256"
        },
        {
          "internalType": "address",
          "name": "tokenAddr",
          "type": "address"
        },
        {
          "internalType": "address payable",
          "name": "destination",
          "type": "address"
        },
        {
          "internalType": "uint256",
          "name": "amount",
          "type": "uint256"
        }
      ],
      "name": "drainValidatorShares",
      "outputs": [],
      "payable": false,
      "stateMutability": "nonpayable",
      "type": "function"
    },
    {
      "constant": true,
      "inputs": [],
      "name": "dynasty",
      "outputs": [
        {
          "internalType": "uint256",
          "name": "",
          "type": "uint256"
        }
      ],
      "payable": false,
      "stateMutability": "view",
      "type": "function"
    },
    {
      "constant": true,
      "inputs": [],
      "name": "epoch",
      "outputs": [
        {
          "internalType": "uint256",
          "name": "",
          "type": "uint256"
        }
      ],
      "payable": false,
      "stateMutability": "view",
      "type": "function"
    },
    {
      "constant": true,
      "inputs": [],
      "name": "eventsHub",
      "outputs": [
        {
          "internalType": "address",
          "name": "",
          "type": "address"
        }
      ],
      "payable": false,
      "stateMutability": "view",
      "type": "function"
    },
    {
      "constant": true,
      "inputs": [],
      "name": "extensionCode",
      "outputs": [
        {
          "internalType": "address",
          "name": "",
          "type": "address"
        }
      ],
      "payable": false,
      "stateMutability": "view",
      "type": "function"
    },
    {
      "constant": false,
      "inputs": [],
      "name": "forceFinalizeCommit",
      "outputs": [],
      "payable": false,
      "stateMutability": "nonpayable",
      "type": "function"
    },
    {
      "constant": false,
      "inputs": [
        {
          "internalType": "uint256",
          "name": "validatorId",
          "type": "uint256"
        }
      ],
      "name": "forceUnstake",
      "outputs": [],
      "payable": false,
      "stateMutability": "nonpayable",
      "type": "function"
    },
    {
      "constant": true,
      "inputs": [],
      "name": "getRegistry",
      "outputs": [
        {
          "internalType": "address",
          "name": "",
          "type": "address"
        }
      ],
      "payable": false,
      "stateMutability": "view",
      "type": "function"
    },
    {
      "constant": true,
      "inputs": [
        {
          "internalType": "uint256",
          "name": "validatorId",
          "type": "uint256"
        }
      ],
      "name": "getValidatorContract",
      "outputs": [
        {
          "internalType": "address",
          "name": "",
          "type": "address"
        }
      ],
      "payable": false,
      "stateMutability": "view",
      "type": "function"
    },
    {
      "constant": true,
      "inputs": [
        {
          "internalType": "address",
          "name": "user",
          "type": "address"
        }
      ],
      "name": "getValidatorId",
      "outputs": [
        {
          "internalType": "uint256",
          "name": "",
          "type": "uint256"
        }
      ],
      "payable": false,
      "stateMutability": "view",
      "type": "function"
    },
    {
      "constant": true,
      "inputs": [],
      "name": "governance",
      "outputs": [
        {
          "internalType": "contract IGovernance",
          "name": "",
          "type": "address"
        }
      ],
      "payable": false,
      "stateMutability": "view",
      "type": "function"
    },
    {
      "constant": false,
      "inputs": [
        {
          "internalType": "address",
          "name": "_registry",
          "type": "address"
        },
        {
          "internalType": "address",
          "name": "_rootchain",
          "type": "address"
        },
        {
          "internalType": "address",
          "name": "_token",
          "type": "address"
        },
        {
          "internalType": "address",
          "name": "_NFTContract",
          "type": "address"
        },
        {
          "internalType": "address",
          "name": "_stakingLogger",
          "type": "address"
        },
        {
          "internalType": "address",
          "name": "_validatorShareFactory",
          "type": "address"
        },
        {
          "internalType": "address",
          "name": "_governance",
          "type": "address"
        },
        {
          "internalType": "address",
          "name": "_owner",
          "type": "address"
        },
        {
          "internalType": "address",
          "name": "_extensionCode",
          "type": "address"
        }
      ],
      "name": "initialize",
      "outputs": [],
      "payable": false,
      "stateMutability": "nonpayable",
      "type": "function"
    },
    {
      "constant": false,
      "inputs": [
        {
          "internalType": "address[]",
          "name": "_signers",
          "type": "address[]"
        }
      ],
      "name": "insertSigners",
      "outputs": [],
      "payable": false,
      "stateMutability": "nonpayable",
      "type": "function"
    },
    {
      "constant": true,
      "inputs": [],
      "name": "isOwner",
      "outputs": [
        {
          "internalType": "bool",
          "name": "",
          "type": "bool"
        }
      ],
      "payable": false,
      "stateMutability": "view",
      "type": "function"
    },
    {
      "constant": true,
      "inputs": [
        {
          "internalType": "uint256",
          "name": "validatorId",
          "type": "uint256"
        }
      ],
      "name": "isValidator",
      "outputs": [
        {
          "internalType": "bool",
          "name": "",
          "type": "bool"
        }
      ],
      "payable": false,
      "stateMutability": "view",
      "type": "function"
    },
    {
      "constant": true,
      "inputs": [
        {
          "internalType": "uint256",
          "name": "",
          "type": "uint256"
        }
      ],
      "name": "latestSignerUpdateEpoch",
      "outputs": [
        {
          "internalType": "uint256",
          "name": "",
          "type": "uint256"
        }
      ],
      "payable": false,
      "stateMutability": "view",
      "type": "function"
    },
    {
      "constant": false,
      "inputs": [],
      "name": "lock",
      "outputs": [],
      "payable": false,
      "stateMutability": "nonpayable",
      "type": "function"
    },
    {
      "constant": true,
      "inputs": [],
      "name": "locked",
      "outputs": [
        {
          "internalType": "bool",
          "name": "",
          "type": "bool"
        }
      ],
      "payable": false,
      "stateMutability": "view",
      "type": "function"
    },
    {
      "constant": true,
      "inputs": [],
      "name": "logger",
      "outputs": [
        {
          "internalType": "contract StakingInfo",
          "name": "",
          "type": "address"
        }
      ],
      "payable": false,
      "stateMutability": "view",
      "type": "function"
    },
    {
      "constant": true,
      "inputs": [],
      "name": "maxRewardedCheckpoints",
      "outputs": [
        {
          "internalType": "uint256",
          "name": "",
          "type": "uint256"
        }
      ],
      "payable": false,
      "stateMutability": "view",
      "type": "function"
    },
    {
      "constant": false,
      "inputs": [
        {
          "internalType": "uint256",
          "name": "fromValidatorId",
          "type": "uint256"
        },
        {
          "internalType": "uint256",
          "name": "toValidatorId",
          "type": "uint256"
        },
        {
          "internalType": "uint256",
          "name": "amount",
          "type": "uint256"
        }
      ],
      "name": "migrateDelegation",
      "outputs": [],
      "payable": false,
      "stateMutability": "nonpayable",
      "type": "function"
    },
    {
      "constant": false,
      "inputs": [
        {
          "internalType": "uint256",
          "name": "validatorIdFrom",
          "type": "uint256"
        },
        {
          "internalType": "uint256",
          "name": "validatorIdTo",
          "type": "uint256"
        }
      ],
      "name": "migrateValidatorsData",
      "outputs": [],
      "payable": false,
      "stateMutability": "nonpayable",
      "type": "function"
    },
    {
      "constant": true,
      "inputs": [],
      "name": "minDeposit",
      "outputs": [
        {
          "internalType": "uint256",
          "name": "",
          "type": "uint256"
        }
      ],
      "payable": false,
      "stateMutability": "view",
      "type": "function"
    },
    {
      "constant": true,
      "inputs": [],
      "name": "minHeimdallFee",
      "outputs": [
        {
          "internalType": "uint256",
          "name": "",
          "type": "uint256"
        }
      ],
      "payable": false,
      "stateMutability": "view",
      "type": "function"
    },
    {
      "constant": true,
      "inputs": [],
      "name": "owner",
      "outputs": [
        {
          "internalType": "address",
          "name": "",
          "type": "address"
        }
      ],
      "payable": false,
      "stateMutability": "view",
      "type": "function"
    },
    {
      "constant": true,
      "inputs": [
        {
          "internalType": "uint256",
          "name": "tokenId",
          "type": "uint256"
        }
      ],
      "name": "ownerOf",
      "outputs": [
        {
          "internalType": "address",
          "name": "",
          "type": "address"
        }
      ],
      "payable": false,
      "stateMutability": "view",
      "type": "function"
    },
    {
      "constant": true,
      "inputs": [],
      "name": "prevBlockInterval",
      "outputs": [
        {
          "internalType": "uint256",
          "name": "",
          "type": "uint256"
        }
      ],
      "payable": false,
      "stateMutability": "view",
      "type": "function"
    },
    {
      "constant": true,
      "inputs": [],
      "name": "proposerBonus",
      "outputs": [
        {
          "internalType": "uint256",
          "name": "",
          "type": "uint256"
        }
      ],
      "payable": false,
      "stateMutability": "view",
      "type": "function"
    },
    {
      "constant": true,
      "inputs": [],
      "name": "registry",
      "outputs": [
        {
          "internalType": "address",
          "name": "",
          "type": "address"
        }
      ],
      "payable": false,
      "stateMutability": "view",
      "type": "function"
    },
    {
      "constant": false,
      "inputs": [
        {
          "internalType": "address",
          "name": "_NFTContract",
          "type": "address"
        },
        {
          "internalType": "address",
          "name": "_stakingLogger",
          "type": "address"
        },
        {
          "internalType": "address",
          "name": "_validatorShareFactory",
          "type": "address"
        },
        {
          "internalType": "address",
          "name": "_extensionCode",
          "type": "address"
        }
      ],
      "name": "reinitialize",
      "outputs": [],
      "payable": false,
      "stateMutability": "nonpayable",
      "type": "function"
    },
    {
      "constant": false,
      "inputs": [],
      "name": "renounceOwnership",
      "outputs": [],
      "payable": false,
      "stateMutability": "nonpayable",
      "type": "function"
    },
    {
      "constant": true,
      "inputs": [],
      "name": "replacementCoolDown",
      "outputs": [
        {
          "internalType": "uint256",
          "name": "",
          "type": "uint256"
        }
      ],
      "payable": false,
      "stateMutability": "view",
      "type": "function"
    },
    {
      "constant": false,
      "inputs": [
        {
          "internalType": "address",
          "name": "signer",
          "type": "address"
        }
      ],
      "name": "resetSignerUsed",
      "outputs": [],
      "payable": false,
      "stateMutability": "nonpayable",
      "type": "function"
    },
    {
      "constant": false,
      "inputs": [
        {
          "internalType": "uint256",
          "name": "validatorId",
          "type": "uint256"
        },
        {
          "internalType": "uint256",
          "name": "amount",
          "type": "uint256"
        },
        {
          "internalType": "bool",
          "name": "stakeRewards",
          "type": "bool"
        }
      ],
      "name": "restake",
      "outputs": [],
      "payable": false,
      "stateMutability": "nonpayable",
      "type": "function"
    },
    {
      "constant": true,
      "inputs": [],
      "name": "rewardDecreasePerCheckpoint",
      "outputs": [
        {
          "internalType": "uint256",
          "name": "",
          "type": "uint256"
        }
      ],
      "payable": false,
      "stateMutability": "view",
      "type": "function"
    },
    {
      "constant": true,
      "inputs": [],
      "name": "rewardPerStake",
      "outputs": [
        {
          "internalType": "uint256",
          "name": "",
          "type": "uint256"
        }
      ],
      "payable": false,
      "stateMutability": "view",
      "type": "function"
    },
    {
      "constant": true,
      "inputs": [],
      "name": "rootChain",
      "outputs": [
        {
          "internalType": "address",
          "name": "",
          "type": "address"
        }
      ],
      "payable": false,
      "stateMutability": "view",
      "type": "function"
    },
    {
      "constant": false,
      "inputs": [
        {
          "internalType": "uint256",
          "name": "_currentEpoch",
          "type": "uint256"
        }
      ],
      "name": "setCurrentEpoch",
      "outputs": [],
      "payable": false,
      "stateMutability": "nonpayable",
      "type": "function"
    },
    {
      "constant": false,
      "inputs": [
        {
          "internalType": "bool",
          "name": "enabled",
          "type": "bool"
        }
      ],
      "name": "setDelegationEnabled",
      "outputs": [],
      "payable": false,
      "stateMutability": "nonpayable",
      "type": "function"
    },
    {
      "constant": false,
      "inputs": [
        {
          "internalType": "address",
          "name": "_token",
          "type": "address"
        }
      ],
      "name": "setStakingToken",
      "outputs": [],
      "payable": false,
      "stateMutability": "nonpayable",
      "type": "function"
    },
    {
      "constant": true,
      "inputs": [
        {
          "internalType": "address",
          "name": "",
          "type": "address"
        }
      ],
      "name": "signerToValidator",
      "outputs": [
        {
          "internalType": "uint256",
          "name": "",
          "type": "uint256"
        }
      ],
      "payable": false,
      "stateMutability": "view",
      "type": "function"
    },
    {
      "constant": true,
      "inputs": [],
      "name": "signerUpdateLimit",
      "outputs": [
        {
          "internalType": "uint256",
          "name": "",
          "type": "uint256"
        }
      ],
      "payable": false,
      "stateMutability": "view",
      "type": "function"
    },
    {
      "constant": true,
      "inputs": [
        {
          "internalType": "uint256",
          "name": "",
          "type": "uint256"
        }
      ],
      "name": "signers",
      "outputs": [
        {
          "internalType": "address",
          "name": "",
          "type": "address"
        }
      ],
      "payable": false,
      "stateMutability": "view",
      "type": "function"
    },
    {
      "constant": false,
      "inputs": [
        {
          "internalType": "bytes",
          "name": "_slashingInfoList",
          "type": "bytes"
        }
      ],
      "name": "slash",
      "outputs": [
        {
          "internalType": "uint256",
          "name": "",
          "type": "uint256"
        }
      ],
      "payable": false,
      "stateMutability": "nonpayable",
      "type": "function"
    },
    {
      "constant": false,
      "inputs": [
        {
          "internalType": "address",
          "name": "user",
          "type": "address"
        },
        {
          "internalType": "uint256",
          "name": "amount",
          "type": "uint256"
        },
        {
          "internalType": "uint256",
          "name": "heimdallFee",
          "type": "uint256"
        },
        {
          "internalType": "bool",
          "name": "acceptDelegation",
          "type": "bool"
        },
        {
          "internalType": "bytes",
          "name": "signerPubkey",
          "type": "bytes"
        }
      ],
      "name": "stakeFor",
      "outputs": [],
      "payable": false,
      "stateMutability": "nonpayable",
      "type": "function"
    },
    {
      "constant": false,
      "inputs": [
        {
          "internalType": "uint256",
          "name": "validatorId",
          "type": "uint256"
        },
        {
          "internalType": "uint256",
          "name": "amount",
          "type": "uint256"
        },
        {
          "internalType": "bool",
          "name": "_acceptDelegation",
          "type": "bool"
        },
        {
          "internalType": "bytes",
          "name": "_signerPubkey",
          "type": "bytes"
        }
      ],
      "name": "startAuction",
      "outputs": [],
      "payable": false,
      "stateMutability": "nonpayable",
      "type": "function"
    },
    {
      "constant": false,
      "inputs": [
        {
          "internalType": "uint256",
          "name": "forNCheckpoints",
          "type": "uint256"
        }
      ],
      "name": "stopAuctions",
      "outputs": [],
      "payable": false,
      "stateMutability": "nonpayable",
      "type": "function"
    },
    {
      "constant": false,
      "inputs": [
        {
          "internalType": "uint256",
          "name": "validatorId",
          "type": "uint256"
        },
        {
          "internalType": "bool",
          "name": "lock",
          "type": "bool"
        }
      ],
      "name": "testLockShareContract",
      "outputs": [],
      "payable": false,
      "stateMutability": "nonpayable",
      "type": "function"
    },
    {
      "constant": true,
      "inputs": [],
      "name": "token",
      "outputs": [
        {
          "internalType": "contract IERC20",
          "name": "",
          "type": "address"
        }
      ],
      "payable": false,
      "stateMutability": "view",
      "type": "function"
    },
    {
      "constant": false,
      "inputs": [
        {
          "internalType": "address",
          "name": "user",
          "type": "address"
        },
        {
          "internalType": "uint256",
          "name": "heimdallFee",
          "type": "uint256"
        }
      ],
      "name": "topUpForFee",
      "outputs": [],
      "payable": false,
      "stateMutability": "nonpayable",
      "type": "function"
    },
    {
      "constant": true,
      "inputs": [],
      "name": "totalHeimdallFee",
      "outputs": [
        {
          "internalType": "uint256",
          "name": "",
          "type": "uint256"
        }
      ],
      "payable": false,
      "stateMutability": "view",
      "type": "function"
    },
    {
      "constant": true,
      "inputs": [],
      "name": "totalRewards",
      "outputs": [
        {
          "internalType": "uint256",
          "name": "",
          "type": "uint256"
        }
      ],
      "payable": false,
      "stateMutability": "view",
      "type": "function"
    },
    {
      "constant": true,
      "inputs": [],
      "name": "totalRewardsLiquidated",
      "outputs": [
        {
          "internalType": "uint256",
          "name": "",
          "type": "uint256"
        }
      ],
      "payable": false,
      "stateMutability": "view",
      "type": "function"
    },
    {
      "constant": true,
      "inputs": [],
      "name": "totalStaked",
      "outputs": [
        {
          "internalType": "uint256",
          "name": "",
          "type": "uint256"
        }
      ],
      "payable": false,
      "stateMutability": "view",
      "type": "function"
    },
    {
      "constant": true,
      "inputs": [
        {
          "internalType": "address",
          "name": "user",
          "type": "address"
        }
      ],
      "name": "totalStakedFor",
      "outputs": [
        {
          "internalType": "uint256",
          "name": "",
          "type": "uint256"
        }
      ],
      "payable": false,
      "stateMutability": "view",
      "type": "function"
    },
    {
      "constant": false,
      "inputs": [
        {
          "internalType": "uint256",
          "name": "validatorId",
          "type": "uint256"
        },
        {
          "internalType": "uint256",
          "name": "amount",
          "type": "uint256"
        },
        {
          "internalType": "address",
          "name": "delegator",
          "type": "address"
        }
      ],
      "name": "transferFunds",
      "outputs": [
        {
          "internalType": "bool",
          "name": "",
          "type": "bool"
        }
      ],
      "payable": false,
      "stateMutability": "nonpayable",
      "type": "function"
    },
    {
      "constant": false,
      "inputs": [
        {
          "internalType": "address",
          "name": "newOwner",
          "type": "address"
        }
      ],
      "name": "transferOwnership",
      "outputs": [],
      "payable": false,
      "stateMutability": "nonpayable",
      "type": "function"
    },
    {
      "constant": false,
      "inputs": [
        {
          "internalType": "uint256",
          "name": "validatorId",
          "type": "uint256"
        }
      ],
      "name": "unjail",
      "outputs": [],
      "payable": false,
      "stateMutability": "nonpayable",
      "type": "function"
    },
    {
      "constant": false,
      "inputs": [],
      "name": "unlock",
      "outputs": [],
      "payable": false,
      "stateMutability": "nonpayable",
      "type": "function"
    },
    {
      "constant": false,
      "inputs": [
        {
          "internalType": "uint256",
          "name": "validatorId",
          "type": "uint256"
        }
      ],
      "name": "unstake",
      "outputs": [],
      "payable": false,
      "stateMutability": "nonpayable",
      "type": "function"
    },
    {
      "constant": false,
      "inputs": [
        {
          "internalType": "uint256",
          "name": "validatorId",
          "type": "uint256"
        }
      ],
      "name": "unstakeClaim",
      "outputs": [],
      "payable": false,
      "stateMutability": "nonpayable",
      "type": "function"
    },
    {
      "constant": false,
      "inputs": [
        {
          "internalType": "uint256",
          "name": "_blocks",
          "type": "uint256"
        }
      ],
      "name": "updateCheckPointBlockInterval",
      "outputs": [],
      "payable": false,
      "stateMutability": "nonpayable",
      "type": "function"
    },
    {
      "constant": false,
      "inputs": [
        {
          "internalType": "uint256",
          "name": "newReward",
          "type": "uint256"
        }
      ],
      "name": "updateCheckpointReward",
      "outputs": [],
      "payable": false,
      "stateMutability": "nonpayable",
      "type": "function"
    },
    {
      "constant": false,
      "inputs": [
        {
          "internalType": "uint256",
          "name": "_rewardDecreasePerCheckpoint",
          "type": "uint256"
        },
        {
          "internalType": "uint256",
          "name": "_maxRewardedCheckpoints",
          "type": "uint256"
        },
        {
          "internalType": "uint256",
          "name": "_checkpointRewardDelta",
          "type": "uint256"
        }
      ],
      "name": "updateCheckpointRewardParams",
      "outputs": [],
      "payable": false,
      "stateMutability": "nonpayable",
      "type": "function"
    },
    {
      "constant": false,
      "inputs": [
        {
          "internalType": "uint256",
          "name": "validatorId",
          "type": "uint256"
        },
        {
          "internalType": "uint256",
          "name": "newCommissionRate",
          "type": "uint256"
        }
      ],
      "name": "updateCommissionRate",
      "outputs": [],
      "payable": false,
      "stateMutability": "nonpayable",
      "type": "function"
    },
    {
      "constant": false,
      "inputs": [
        {
          "internalType": "uint256",
          "name": "newDynasty",
          "type": "uint256"
        }
      ],
      "name": "updateDynastyValue",
      "outputs": [],
      "payable": false,
      "stateMutability": "nonpayable",
      "type": "function"
    },
    {
      "constant": false,
      "inputs": [
        {
          "internalType": "uint256",
          "name": "_minDeposit",
          "type": "uint256"
        },
        {
          "internalType": "uint256",
          "name": "_minHeimdallFee",
          "type": "uint256"
        }
      ],
      "name": "updateMinAmounts",
      "outputs": [],
      "payable": false,
      "stateMutability": "nonpayable",
      "type": "function"
    },
    {
      "constant": false,
      "inputs": [
        {
          "internalType": "uint256",
          "name": "newProposerBonus",
          "type": "uint256"
        }
      ],
      "name": "updateProposerBonus",
      "outputs": [],
      "payable": false,
      "stateMutability": "nonpayable",
      "type": "function"
    },
    {
      "constant": false,
      "inputs": [
        {
          "internalType": "uint256",
          "name": "validatorId",
          "type": "uint256"
        },
        {
          "internalType": "bytes",
          "name": "signerPubkey",
          "type": "bytes"
        }
      ],
      "name": "updateSigner",
      "outputs": [],
      "payable": false,
      "stateMutability": "nonpayable",
      "type": "function"
    },
    {
      "constant": false,
      "inputs": [
        {
          "internalType": "uint256",
          "name": "_limit",
          "type": "uint256"
        }
      ],
      "name": "updateSignerUpdateLimit",
      "outputs": [],
      "payable": false,
      "stateMutability": "nonpayable",
      "type": "function"
    },
    {
      "constant": false,
      "inputs": [
        {
          "internalType": "uint256",
          "name": "validatorId",
          "type": "uint256"
        },
        {
          "internalType": "address",
          "name": "newContractAddress",
          "type": "address"
        }
      ],
      "name": "updateValidatorContractAddress",
      "outputs": [],
      "payable": false,
      "stateMutability": "nonpayable",
      "type": "function"
    },
    {
      "constant": false,
      "inputs": [
        {
          "internalType": "bool",
          "name": "delegation",
          "type": "bool"
        }
      ],
      "name": "updateValidatorDelegation",
      "outputs": [],
      "payable": false,
      "stateMutability": "nonpayable",
      "type": "function"
    },
    {
      "constant": false,
      "inputs": [
        {
          "internalType": "uint256",
          "name": "validatorId",
          "type": "uint256"
        },
        {
          "internalType": "int256",
          "name": "amount",
          "type": "int256"
        }
      ],
      "name": "updateValidatorState",
      "outputs": [],
      "payable": false,
      "stateMutability": "nonpayable",
      "type": "function"
    },
    {
      "constant": false,
      "inputs": [
        {
          "internalType": "uint256",
          "name": "newThreshold",
          "type": "uint256"
        }
      ],
      "name": "updateValidatorThreshold",
      "outputs": [],
      "payable": false,
      "stateMutability": "nonpayable",
      "type": "function"
    },
    {
      "constant": true,
      "inputs": [
        {
          "internalType": "address",
          "name": "",
          "type": "address"
        }
      ],
      "name": "userFeeExit",
      "outputs": [
        {
          "internalType": "uint256",
          "name": "",
          "type": "uint256"
        }
      ],
      "payable": false,
      "stateMutability": "view",
      "type": "function"
    },
    {
      "constant": true,
      "inputs": [
        {
          "internalType": "uint256",
          "name": "",
          "type": "uint256"
        }
      ],
      "name": "validatorAuction",
      "outputs": [
        {
          "internalType": "uint256",
          "name": "amount",
          "type": "uint256"
        },
        {
          "internalType": "uint256",
          "name": "startEpoch",
          "type": "uint256"
        },
        {
          "internalType": "address",
          "name": "user",
          "type": "address"
        },
        {
          "internalType": "bool",
          "name": "acceptDelegation",
          "type": "bool"
        },
        {
          "internalType": "bytes",
          "name": "signerPubkey",
          "type": "bytes"
        }
      ],
      "payable": false,
      "stateMutability": "view",
      "type": "function"
    },
    {
      "constant": true,
      "inputs": [
        {
          "internalType": "uint256",
          "name": "validatorId",
          "type": "uint256"
        }
      ],
      "name": "validatorReward",
      "outputs": [
        {
          "internalType": "uint256",
          "name": "",
          "type": "uint256"
        }
      ],
      "payable": false,
      "stateMutability": "view",
      "type": "function"
    },
    {
      "constant": true,
      "inputs": [],
      "name": "validatorShareFactory",
      "outputs": [
        {
          "internalType": "contract ValidatorShareFactory",
          "name": "",
          "type": "address"
        }
      ],
      "payable": false,
      "stateMutability": "view",
      "type": "function"
    },
    {
      "constant": true,
      "inputs": [
        {
          "internalType": "uint256",
          "name": "validatorId",
          "type": "uint256"
        }
      ],
      "name": "validatorStake",
      "outputs": [
        {
          "internalType": "uint256",
          "name": "",
          "type": "uint256"
        }
      ],
      "payable": false,
      "stateMutability": "view",
      "type": "function"
    },
    {
      "constant": true,
      "inputs": [],
      "name": "validatorState",
      "outputs": [
        {
          "internalType": "uint256",
          "name": "amount",
          "type": "uint256"
        },
        {
          "internalType": "uint256",
          "name": "stakerCount",
          "type": "uint256"
        }
      ],
      "payable": false,
      "stateMutability": "view",
      "type": "function"
    },
    {
      "constant": true,
      "inputs": [
        {
          "internalType": "uint256",
          "name": "",
          "type": "uint256"
        }
      ],
      "name": "validatorStateChanges",
      "outputs": [
        {
          "internalType": "int256",
          "name": "amount",
          "type": "int256"
        },
        {
          "internalType": "int256",
          "name": "stakerCount",
          "type": "int256"
        }
      ],
      "payable": false,
      "stateMutability": "view",
      "type": "function"
    },
    {
      "constant": true,
      "inputs": [],
      "name": "validatorThreshold",
      "outputs": [
        {
          "internalType": "uint256",
          "name": "",
          "type": "uint256"
        }
      ],
      "payable": false,
      "stateMutability": "view",
      "type": "function"
    },
    {
      "constant": true,
      "inputs": [
        {
          "internalType": "uint256",
          "name": "",
          "type": "uint256"
        }
      ],
      "name": "validators",
      "outputs": [
        {
          "internalType": "uint256",
          "name": "amount",
          "type": "uint256"
        },
        {
          "internalType": "uint256",
          "name": "reward",
          "type": "uint256"
        },
        {
          "internalType": "uint256",
          "name": "activationEpoch",
          "type": "uint256"
        },
        {
          "internalType": "uint256",
          "name": "deactivationEpoch",
          "type": "uint256"
        },
        {
          "internalType": "uint256",
          "name": "jailTime",
          "type": "uint256"
        },
        {
          "internalType": "address",
          "name": "signer",
          "type": "address"
        },
        {
          "internalType": "address",
          "name": "contractAddress",
          "type": "address"
        },
        {
          "internalType": "enum StakeManagerStorage.Status",
          "name": "status",
          "type": "uint8"
        },
        {
          "internalType": "uint256",
          "name": "commissionRate",
          "type": "uint256"
        },
        {
          "internalType": "uint256",
          "name": "lastCommissionUpdate",
          "type": "uint256"
        },
        {
          "internalType": "uint256",
          "name": "delegatorsReward",
          "type": "uint256"
        },
        {
          "internalType": "uint256",
          "name": "delegatedAmount",
          "type": "uint256"
        },
        {
          "internalType": "uint256",
          "name": "initialRewardPerStake",
          "type": "uint256"
        }
      ],
      "payable": false,
      "stateMutability": "view",
      "type": "function"
    },
    {
      "constant": false,
      "inputs": [
        {
          "internalType": "uint256",
          "name": "validatorId",
          "type": "uint256"
        }
      ],
      "name": "withdrawDelegatorsReward",
      "outputs": [
        {
          "internalType": "uint256",
          "name": "",
          "type": "uint256"
        }
      ],
      "payable": false,
      "stateMutability": "nonpayable",
      "type": "function"
    },
    {
      "constant": false,
      "inputs": [
        {
          "internalType": "uint256",
          "name": "validatorId",
          "type": "uint256"
        }
      ],
      "name": "withdrawRewards",
      "outputs": [],
      "payable": false,
      "stateMutability": "nonpayable",
      "type": "function"
    },
    {
      "constant": true,
      "inputs": [],
      "name": "withdrawalDelay",
      "outputs": [
        {
          "internalType": "uint256",
          "name": "",
          "type": "uint256"
        }
      ],
      "payable": false,
      "stateMutability": "view",
      "type": "function"
    }
  ],
  "bytecode": "0x60806040526000602360006101000a81548160ff02191690831515021790555060008080600060016101000a81548173ffffffffffffffffffffffffffffffffffffffff021916908373ffffffffffffffffffffffffffffffffffffffff160217905550505033600160006101000a81548173ffffffffffffffffffffffffffffffffffffffff021916908373ffffffffffffffffffffffffffffffffffffffff160217905550600160009054906101000a900473ffffffffffffffffffffffffffffffffffffffff1673ffffffffffffffffffffffffffffffffffffffff16600073ffffffffffffffffffffffffffffffffffffffff167f8be0079c531659141344cd1fd0a4f28419497f9722a3daafe3b4186f6b6457e060405160405180910390a3619c0b80620001336000396000f3fe608060405234801561001057600080fd5b506004361061068f5760003560e01c80637f4b43231161036c578063bc8756a9116101de578063eceec1d31161010f578063f771fc87116100ad578063fb1ef52c11610087578063fb1ef52c146123d1578063fba58f3414612413578063fc0c546a14612431578063ff8fdad81461247b5761068f565b8063f771fc871461234f578063f83d08ba1461237d578063f8a3176c146123875761068f565b8063f2fde38b116100e9578063f2fde38b146120d3578063f3b8777914612117578063f41a964214612145578063f5e95acb1461220a5761068f565b8063eceec1d314612017578063f24ccbfe14612059578063f28699fa146120a35761068f565b8063d86d53e71161017c578063e59ee0c611610156578063e59ee0c614611f46578063e6692f4914611f6b578063e6bd8bb814611f99578063e8afa8e814611fd35761068f565b8063d86d53e714611ec2578063dcd962b214611ef0578063e568959a14611f285761068f565b8063cd6b8388116101b8578063cd6b838814611e10578063cf30901214611e2e578063d6de07d014611e50578063d7f5549d14611e805761068f565b8063bc8756a914611d24578063c710e92214611d94578063cbf383d514611de25761068f565b80639a8a6243116102b8578063a69df4b511610256578063b184be8111610230578063b184be8114611c52578063b1d23f0214611ca0578063b4cc366714611cd8578063b65de35e14611ce25761068f565b8063a69df4b514611c0c578063a7ab696114611c16578063a8dc889b14611c345761068f565b80639ff11500116102925780639ff1150014611aef578063a440ab1e14611b27578063a476907114611b55578063a685487714611b735761068f565b80639a8a624314611a6b5780639b33f43414611a895780639ddbbf8514611ab75761068f565b80638f32d59b1161032557806391f1a3a5116102ff57806391f1a3a51461199d5780639342c8f4146119bb578063987ab9db146119e957806399d18f6f14611a335761068f565b80638f32d59b1461192f578063900cf0cf14611951578063914601491461196f5761068f565b80637f4b4323146117e55780637f952d9514611827578063817b1cd214611845578063858a7c0314611863578063883b455f1461189b5780638da5cb5b146118e55761068f565b806348ab8b2a1161050557806360c8d1221161045157806376671808116103ef5780637b103999116103c95780637b1039991461171d5780637c7eaf1a146117675780637d669752146117855780637ed4b27c146117a35761068f565b8063766718081461168957806377939d10146116a757806378f84a44146116c55761068f565b806368cb812a1161042b57806368cb812a146115225780636901b253146115f15780637060054d14611661578063715018a61461167f5761068f565b806360c8d122146114245780636352211e1461146657806363656798146114d45761068f565b80635325e144116104be57806356342d8c1161049857806356342d8c146112955780635aa6e675146113035780635ab1bd531461134d5780635e47655f146113975761068f565b80635325e1441461116257806354b8c601146112555780635508d8e1146112775761068f565b806348ab8b2a14610e985780634b341aed14610f105780634e3c83f114610f685780634fd101d714610f865780634fdd20f114610fa457806352b8115d1461109f5761068f565b806325316411116105df57806331c2273b1161057d5780633862da0b116105575780633862da0b14610dc257806339610f7814610e1a57806341b3d18514610e5c578063451b598514610e7a5761068f565b806331c2273b14610c5e5780633427458614610ca857806335aa2e4414610cc65761068f565b806328cc4e41116105b957806328cc4e4114610a695780632cf44a4314610aad5780632e17de7814610b655780632fa9d18b14610b935761068f565b806325316411146109bc57806325726df2146109da5780632649263a14610a235761068f565b8063174e68321161064c5780631ae4818f116106265780631ae4818f146108925780631dd6b9b1146108dc5780631e9b12ef1461090a5780632079fb9a1461094e5761068f565b8063174e6832146107ee578063178c2c831461084657806317c2b910146108745761068f565b806306cfb10414610694578063078a13b1146106c25780630cccfc58146107665780630e15561a146107845780630ebb172a146107a257806316827b1b146107c0575b600080fd5b6106c0600480360360208110156106aa57600080fd5b81019080803590602001909291905050506124bf565b005b610764600480360360808110156106d857600080fd5b81019080803573ffffffffffffffffffffffffffffffffffffffff169060200190929190803573ffffffffffffffffffffffffffffffffffffffff169060200190929190803573ffffffffffffffffffffffffffffffffffffffff169060200190929190803573ffffffffffffffffffffffffffffffffffffffff1690602001909291905050506124d1565b005b61076e612637565b6040518082815260200191505060405180910390f35b61078c61263d565b6040518082815260200191505060405180910390f35b6107aa612643565b6040518082815260200191505060405180910390f35b6107ec600480360360208110156107d657600080fd5b8101908080359060200190929190505050612649565b005b6108306004803603602081101561080457600080fd5b81019080803573ffffffffffffffffffffffffffffffffffffffff169060200190929190505050612700565b6040518082815260200191505060405180910390f35b6108726004803603602081101561085c57600080fd5b81019080803590602001909291905050506127ec565b005b61087c612c2f565b6040518082815260200191505060405180910390f35b61089a612c35565b604051808273ffffffffffffffffffffffffffffffffffffffff1673ffffffffffffffffffffffffffffffffffffffff16815260200191505060405180910390f35b610908600480360360208110156108f257600080fd5b8101908080359060200190929190505050612c5b565b005b61094c6004803603602081101561092057600080fd5b81019080803573ffffffffffffffffffffffffffffffffffffffff169060200190929190505050612c6d565b005b61097a6004803603602081101561096457600080fd5b8101908080359060200190929190505050612cf3565b604051808273ffffffffffffffffffffffffffffffffffffffff1673ffffffffffffffffffffffffffffffffffffffff16815260200191505060405180910390f35b6109c4612d2f565b6040518082815260200191505060405180910390f35b610a06600480360360208110156109f057600080fd5b8101908080359060200190929190505050612d35565b604051808381526020018281526020019250505060405180910390f35b610a4f60048036036020811015610a3957600080fd5b8101908080359060200190929190505050612d59565b604051808215151515815260200191505060405180910390f35b610aab60048036036060811015610a7f57600080fd5b810190808035906020019092919080359060200190929190803515159060200190929190505050612dbf565b005b610b6360048036036020811015610ac357600080fd5b8101908080359060200190640100000000811115610ae057600080fd5b820183602082011115610af257600080fd5b80359060200191846020830284011164010000000083111715610b1457600080fd5b919080806020026020016040519081016040528093929190818152602001838360200280828437600081840152601f19601f820116905080830192505050505050509192919290505050613092565b005b610b9160048036036020811015610b7b57600080fd5b81019080803590602001909291905050506130bd565b005b610c48600480360360a0811015610ba957600080fd5b81019080803590602001909291908035906020019092919080359060200190929190803573ffffffffffffffffffffffffffffffffffffffff16906020019092919080359060200190640100000000811115610c0457600080fd5b820183602082011115610c1657600080fd5b80359060200191846060830284011164010000000083111715610c3857600080fd5b90919293919293905050506131c4565b6040518082815260200191505060405180910390f35b610c66613648565b604051808273ffffffffffffffffffffffffffffffffffffffff1673ffffffffffffffffffffffffffffffffffffffff16815260200191505060405180910390f35b610cb061366e565b6040518082815260200191505060405180910390f35b610cf260048036036020811015610cdc57600080fd5b8101908080359060200190929190505050613674565b604051808e81526020018d81526020018c81526020018b81526020018a81526020018973ffffffffffffffffffffffffffffffffffffffff1673ffffffffffffffffffffffffffffffffffffffff1681526020018873ffffffffffffffffffffffffffffffffffffffff1673ffffffffffffffffffffffffffffffffffffffff168152602001876003811115610d8457fe5b60ff1681526020018681526020018581526020018481526020018381526020018281526020019d505050505050505050505050505060405180910390f35b610e0460048036036020811015610dd857600080fd5b81019080803573ffffffffffffffffffffffffffffffffffffffff169060200190929190505050613727565b6040518082815260200191505060405180910390f35b610e4660048036036020811015610e3057600080fd5b810190808035906020019092919050505061373f565b6040518082815260200191505060405180910390f35b610e64613792565b6040518082815260200191505060405180910390f35b610e82613798565b6040518082815260200191505060405180910390f35b610f0e60048036036080811015610eae57600080fd5b8101908080359060200190929190803573ffffffffffffffffffffffffffffffffffffffff169060200190929190803573ffffffffffffffffffffffffffffffffffffffff1690602001909291908035906020019092919050505061379e565b005b610f5260048036036020811015610f2657600080fd5b81019080803573ffffffffffffffffffffffffffffffffffffffff1690602001909291905050506138f5565b6040518082815260200191505060405180910390f35b610f70613b19565b6040518082815260200191505060405180910390f35b610f8e613b1f565b6040518082815260200191505060405180910390f35b61109d600480360360a0811015610fba57600080fd5b81019080803573ffffffffffffffffffffffffffffffffffffffff16906020019092919080359060200190929190803590602001909291908035151590602001909291908035906020019064010000000081111561101757600080fd5b82018360208201111561102957600080fd5b8035906020019184600183028401116401000000008311171561104b57600080fd5b91908080601f016020809104026020016040519081016040528093929190818152602001838380828437600081840152601f19601f820116905080830192505050505050509192919290505050613b25565b005b611160600480360360c08110156110b557600080fd5b81019080803573ffffffffffffffffffffffffffffffffffffffff1690602001909291908035906020019092919080359060200190929190803590602001909291908035151590602001909291908035906020019064010000000081111561111c57600080fd5b82018360208201111561112e57600080fd5b8035906020019184600183028401116401000000008311171561115057600080fd5b9091929391929390505050613c43565b005b61118e6004803603602081101561117857600080fd5b8101908080359060200190929190505050613df8565b604051808681526020018581526020018473ffffffffffffffffffffffffffffffffffffffff1673ffffffffffffffffffffffffffffffffffffffff1681526020018315151515815260200180602001828103825283818151815260200191508051906020019080838360005b838110156112165780820151818401526020810190506111fb565b50505050905090810190601f1680156112435780820380516001836020036101000a031916815260200191505b50965050505050505060405180910390f35b61125d613ef2565b604051808215151515815260200191505060405180910390f35b61127f613f05565b6040518082815260200191505060405180910390f35b6112c1600480360360208110156112ab57600080fd5b8101908080359060200190929190505050613f0b565b604051808273ffffffffffffffffffffffffffffffffffffffff1673ffffffffffffffffffffffffffffffffffffffff16815260200191505060405180910390f35b61130b613f4b565b604051808273ffffffffffffffffffffffffffffffffffffffff1673ffffffffffffffffffffffffffffffffffffffff16815260200191505060405180910390f35b611355613f71565b604051808273ffffffffffffffffffffffffffffffffffffffff1673ffffffffffffffffffffffffffffffffffffffff16815260200191505060405180910390f35b61140e600480360360208110156113ad57600080fd5b81019080803590602001906401000000008111156113ca57600080fd5b8201836020820111156113dc57600080fd5b803590602001918460018302840111640100000000831117156113fe57600080fd5b9091929391929390505050613f9b565b6040518082815260200191505060405180910390f35b6114646004803603606081101561143a57600080fd5b8101908080359060200190929190803590602001909291908035906020019092919050505061440e565b005b6114926004803603602081101561147c57600080fd5b8101908080359060200190929190505050614507565b604051808273ffffffffffffffffffffffffffffffffffffffff1673ffffffffffffffffffffffffffffffffffffffff16815260200191505060405180910390f35b611520600480360360408110156114ea57600080fd5b81019080803573ffffffffffffffffffffffffffffffffffffffff169060200190929190803590602001909291905050506145be565b005b6115ef6004803603606081101561153857600080fd5b8101908080359060200190929190803590602001909291908035906020019064010000000081111561156957600080fd5b82018360208201111561157b57600080fd5b8035906020019184600183028401116401000000008311171561159d57600080fd5b91908080601f016020809104026020016040519081016040528093929190818152602001838380828437600081840152601f19601f8201169050808301925050505050505091929192905050506145d7565b005b6116476004803603606081101561160757600080fd5b810190808035906020019092919080359060200190929190803573ffffffffffffffffffffffffffffffffffffffff169060200190929190505050614862565b604051808215151515815260200191505060405180910390f35b611669614990565b6040518082815260200191505060405180910390f35b611687614996565b005b611691614a68565b6040518082815260200191505060405180910390f35b6116af614a6e565b6040518082815260200191505060405180910390f35b611707600480360360208110156116db57600080fd5b81019080803573ffffffffffffffffffffffffffffffffffffffff169060200190929190505050614a74565b6040518082815260200191505060405180910390f35b611725614a8c565b604051808273ffffffffffffffffffffffffffffffffffffffff1673ffffffffffffffffffffffffffffffffffffffff16815260200191505060405180910390f35b61176f614ab2565b6040518082815260200191505060405180910390f35b61178d614ab8565b6040518082815260200191505060405180910390f35b6117cf600480360360208110156117b957600080fd5b8101908080359060200190929190505050614abe565b6040518082815260200191505060405180910390f35b611811600480360360208110156117fb57600080fd5b8101908080359060200190929190505050614b27565b6040518082815260200191505060405180910390f35b61182f614b47565b6040518082815260200191505060405180910390f35b61184d614b54565b6040518082815260200191505060405180910390f35b6118996004803603604081101561187957600080fd5b810190808035906020019092919080359060200190929190505050614b5a565b005b6118a3614bac565b604051808273ffffffffffffffffffffffffffffffffffffffff1673ffffffffffffffffffffffffffffffffffffffff16815260200191505060405180910390f35b6118ed614bd2565b604051808273ffffffffffffffffffffffffffffffffffffffff1673ffffffffffffffffffffffffffffffffffffffff16815260200191505060405180910390f35b611937614bfc565b604051808215151515815260200191505060405180910390f35b611959614c73565b6040518082815260200191505060405180910390f35b61199b6004803603602081101561198557600080fd5b8101908080359060200190929190505050614c7d565b005b6119a5614c94565b6040518082815260200191505060405180910390f35b6119e7600480360360208110156119d157600080fd5b8101908080359060200190929190505050614c9a565b005b6119f1614cbb565b604051808273ffffffffffffffffffffffffffffffffffffffff1673ffffffffffffffffffffffffffffffffffffffff16815260200191505060405180910390f35b611a6960048036036040811015611a4957600080fd5b810190808035906020019092919080359060200190929190505050614ce1565b005b611a73614e05565b6040518082815260200191505060405180910390f35b611ab560048036036020811015611a9f57600080fd5b8101908080359060200190929190505050614e0b565b005b611aed60048036036040811015611acd57600080fd5b810190808035906020019092919080359060200190929190505050614f2b565b005b611b2560048036036040811015611b0557600080fd5b810190808035906020019092919080359060200190929190505050615024565b005b611b5360048036036020811015611b3d57600080fd5b810190808035906020019092919050505061510f565b005b611b5d61512f565b6040518082815260200191505060405180910390f35b611c0a60048036036080811015611b8957600080fd5b81019080803590602001909291908035906020019092919080351515906020019092919080359060200190640100000000811115611bc657600080fd5b820183602082011115611bd857600080fd5b80359060200191846001830284011164010000000083111715611bfa57600080fd5b909192939192939050505061513c565b005b611c1461526f565b005b611c1e615281565b6040518082815260200191505060405180910390f35b611c3c61528b565b6040518082815260200191505060405180910390f35b611c9e60048036036040811015611c6857600080fd5b81019080803573ffffffffffffffffffffffffffffffffffffffff16906020019092919080359060200190929190505050615291565b005b611cd660048036036040811015611cb657600080fd5b8101908080359060200190929190803590602001909291905050506152a7565b005b611ce06152c1565b005b611d0e60048036036020811015611cf857600080fd5b81019080803590602001909291905050506152cb565b6040518082815260200191505060405180910390f35b611d7a60048036036060811015611d3a57600080fd5b810190808035906020019092919080359060200190929190803573ffffffffffffffffffffffffffffffffffffffff169060200190929190505050615340565b604051808215151515815260200191505060405180910390f35b611de060048036036040811015611daa57600080fd5b8101908080359060200190929190803573ffffffffffffffffffffffffffffffffffffffff1690602001909291905050506155de565b005b611e0e60048036036020811015611df857600080fd5b81019080803590602001909291905050506156f7565b005b611e186157ae565b6040518082815260200191505060405180910390f35b611e366157b4565b604051808215151515815260200191505060405180910390f35b611e7e60048036036020811015611e6657600080fd5b810190808035151590602001909291905050506157c6565b005b611eac60048036036020811015611e9657600080fd5b8101908080359060200190929190505050615a2b565b6040518082815260200191505060405180910390f35b611eee60048036036020811015611ed857600080fd5b8101908080359060200190929190505050615a43565b005b611f2660048036036040811015611f0657600080fd5b810190808035906020019092919080359060200190929190505050615df0565b005b611f30615eec565b6040518082815260200191505060405180910390f35b611f4e615ef2565b604051808381526020018281526020019250505060405180910390f35b611f9760048036036020811015611f8157600080fd5b8101908080359060200190929190505050615f04565b005b611fd160048036036040811015611faf57600080fd5b8101908080359060200190929190803515159060200190929190505050615ff8565b005b61201560048036036020811015611fe957600080fd5b81019080803573ffffffffffffffffffffffffffffffffffffffff169060200190929190505050616134565b005b6120436004803603602081101561202d57600080fd5b810190808035906020019092919050505061623f565b6040518082815260200191505060405180910390f35b61206161625f565b604051808273ffffffffffffffffffffffffffffffffffffffff1673ffffffffffffffffffffffffffffffffffffffff16815260200191505060405180910390f35b6120d1600480360360208110156120b957600080fd5b81019080803515159060200190929190505050616285565b005b612115600480360360208110156120e957600080fd5b81019080803573ffffffffffffffffffffffffffffffffffffffff1690602001909291905050506162aa565b005b6121436004803603602081101561212d57600080fd5b81019080803590602001909291905050506162c7565b005b6122086004803603604081101561215b57600080fd5b81019080803590602001909291908035906020019064010000000081111561218257600080fd5b82018360208201111561219457600080fd5b803590602001918460018302840111640100000000831117156121b657600080fd5b91908080601f016020809104026020016040519081016040528093929190818152602001838380828437600081840152601f19601f8201169050808301925050505050505091929192905050506162e5565b005b61234d600480360361012081101561222157600080fd5b81019080803573ffffffffffffffffffffffffffffffffffffffff169060200190929190803573ffffffffffffffffffffffffffffffffffffffff169060200190929190803573ffffffffffffffffffffffffffffffffffffffff169060200190929190803573ffffffffffffffffffffffffffffffffffffffff169060200190929190803573ffffffffffffffffffffffffffffffffffffffff169060200190929190803573ffffffffffffffffffffffffffffffffffffffff169060200190929190803573ffffffffffffffffffffffffffffffffffffffff169060200190929190803573ffffffffffffffffffffffffffffffffffffffff169060200190929190803573ffffffffffffffffffffffffffffffffffffffff169060200190929190505050616664565b005b61237b6004803603602081101561236557600080fd5b8101908080359060200190929190505050616a2f565b005b612385616a55565b005b61238f616a67565b604051808273ffffffffffffffffffffffffffffffffffffffff1673ffffffffffffffffffffffffffffffffffffffff16815260200191505060405180910390f35b612411600480360360608110156123e757600080fd5b81019080803590602001909291908035906020019092919080359060200190929190505050616a8d565b005b61241b616cb2565b6040518082815260200191505060405180910390f35b612439616cb8565b604051808273ffffffffffffffffffffffffffffffffffffffff1673ffffffffffffffffffffffffffffffffffffffff16815260200191505060405180910390f35b6124bd6004803603602081101561249157600080fd5b81019080803573ffffffffffffffffffffffffffffffffffffffff169060200190929190505050616cde565b005b6124c7616d26565b80600f8190555050565b6124d9616d26565b6124e281616dce565b6124eb57600080fd5b6000602360016101000a81548173ffffffffffffffffffffffffffffffffffffffff021916908373ffffffffffffffffffffffffffffffffffffffff16021790555080602560006101000a81548173ffffffffffffffffffffffffffffffffffffffff021916908373ffffffffffffffffffffffffffffffffffffffff16021790555083600660006101000a81548173ffffffffffffffffffffffffffffffffffffffff021916908373ffffffffffffffffffffffffffffffffffffffff16021790555082600560006101000a81548173ffffffffffffffffffffffffffffffffffffffff021916908373ffffffffffffffffffffffffffffffffffffffff16021790555081600760006101000a81548173ffffffffffffffffffffffffffffffffffffffff021916908373ffffffffffffffffffffffffffffffffffffffff16021790555050505050565b60155481565b60135481565b60085481565b612651616d26565b600081141561265f57600080fd5b600560009054906101000a900473ffffffffffffffffffffffffffffffffffffffff1673ffffffffffffffffffffffffffffffffffffffff1663f1980a50826010546040518363ffffffff1660e01b81526004018083815260200182815260200192505050600060405180830381600087803b1580156126de57600080fd5b505af11580156126f2573d6000803e3d6000fd5b505050508060108190555050565b6000600660009054906101000a900473ffffffffffffffffffffffffffffffffffffffff1673ffffffffffffffffffffffffffffffffffffffff16632f745c598360006040518363ffffffff1660e01b8152600401808373ffffffffffffffffffffffffffffffffffffffff1673ffffffffffffffffffffffffffffffffffffffff1681526020018281526020019250505060206040518083038186803b1580156127aa57600080fd5b505afa1580156127be573d6000803e3d6000fd5b505050506040513d60208110156127d457600080fd5b81019080805190602001909291905050509050919050565b806127f681616e20565b6002600381111561280357fe5b601a600084815260200190815260200160002060060160149054906101000a900460ff16600381111561283257fe5b146128a5576040517f08c379a000000000000000000000000000000000000000000000000000000000815260040180806020018281038252600a8152602001807f4e6f74206a61696c65640000000000000000000000000000000000000000000081525060200191505060405180910390fd5b6000601a60008481526020019081526020016000206003015414612931576040517f08c379a00000000000000000000000000000000000000000000000000000000081526004018080602001828103825260118152602001807f416c726561647920756e7374616b696e6700000000000000000000000000000081525060200191505060405180910390fd5b6000600954905080601a60008581526020019081526020016000206004015411156129c4576040517f08c379a00000000000000000000000000000000000000000000000000000000081526004018080602001828103825260168152602001807f496e636f6d706c657465206a61696c20706572696f640000000000000000000081525060200191505060405180910390fd5b6000601a6000858152602001908152602001600020600001549050600c548110156129ee57600080fd5b6000601a600086815260200190815260200160002060060160009054906101000a900473ffffffffffffffffffffffffffffffffffffffff169050600073ffffffffffffffffffffffffffffffffffffffff168173ffffffffffffffffffffffffffffffffffffffff1614612abe578073ffffffffffffffffffffffffffffffffffffffff1663a69df4b56040518163ffffffff1660e01b8152600401600060405180830381600087803b158015612aa557600080fd5b505af1158015612ab9573d6000803e3d6000fd5b505050505b612af3612aea601a6000888152602001908152602001600020600a015484616f0890919063ffffffff16565b60016000616f27565b6001601a600087815260200190815260200160002060060160146101000a81548160ff02191690836003811115612b2657fe5b02179055506000601a600087815260200190815260200160002060050160009054906101000a900473ffffffffffffffffffffffffffffffffffffffff169050600560009054906101000a900473ffffffffffffffffffffffffffffffffffffffff1673ffffffffffffffffffffffffffffffffffffffff1663f92ec5af87836040518363ffffffff1660e01b8152600401808381526020018273ffffffffffffffffffffffffffffffffffffffff1673ffffffffffffffffffffffffffffffffffffffff16815260200192505050600060405180830381600087803b158015612c0f57600080fd5b505af1158015612c23573d6000803e3d6000fd5b50505050505050505050565b60175481565b600760009054906101000a900473ffffffffffffffffffffffffffffffffffffffff1681565b612c63616d26565b8060098190555050565b612c75616d26565b600073ffffffffffffffffffffffffffffffffffffffff168173ffffffffffffffffffffffffffffffffffffffff161415612caf57600080fd5b80600360006101000a81548173ffffffffffffffffffffffffffffffffffffffff021916908373ffffffffffffffffffffffffffffffffffffffff16021790555050565b60268181548110612d0057fe5b906000526020600020016000915054906101000a900473ffffffffffffffffffffffffffffffffffffffff1681565b600e5481565b601e6020528060005260406000206000915090508060000154908060010154905082565b6000612db8601a600084815260200190815260200160002060060160149054906101000a900460ff16601a600085815260200190815260200160002060000154601a60008681526020019081526020016000206003015460095461707d565b9050919050565b612dc76170c4565b82612dd181616e20565b6000601a60008681526020019081526020016000206003015414612e5d576040517f08c379a000000000000000000000000000000000000000000000000000000000815260040180806020018281038252600c8152602001807f4e6f2072657374616b696e67000000000000000000000000000000000000000081525060200191505060405180910390fd5b6000831115612e7257612e71333085617148565b5b612e7b846172d7565b8115612edc57612ebd6001612eaf601a60008881526020019081526020016000206001015486616f0890919063ffffffff16565b6172e990919063ffffffff16565b92506001601a6000868152602001908152602001600020600101819055505b6000612ef384601154616f0890919063ffffffff16565b905080601181905550612f2584601a600088815260200190815260200160002060000154616f0890919063ffffffff16565b601a600087815260200190815260200160002060000181905550612f4b84600080616f27565b600560009054906101000a900473ffffffffffffffffffffffffffffffffffffffff1673ffffffffffffffffffffffffffffffffffffffff1663532e19a9866040518263ffffffff1660e01b815260040180828152602001915050600060405180830381600087803b158015612fc057600080fd5b505af1158015612fd4573d6000803e3d6000fd5b50505050600560009054906101000a900473ffffffffffffffffffffffffffffffffffffffff1673ffffffffffffffffffffffffffffffffffffffff16635616a7cc86601a600089815260200190815260200160002060000154846040518463ffffffff1660e01b8152600401808481526020018381526020018281526020019350505050600060405180830381600087803b15801561307357600080fd5b505af1158015613087573d6000803e3d6000fd5b505050505050505050565b61309a614bfc565b6130a357600080fd5b80602690805190602001906130b99291906199f4565b5050565b806130c781616e20565b60006020600084815260200190815260200160002060000154146130ea57600080fd5b6000601a600084815260200190815260200160002060060160149054906101000a900460ff1690506000601a60008581526020019081526020016000206002015411801561314e57506000601a600085815260200190815260200160002060030154145b801561319157506001600381111561316257fe5b81600381111561316e57fe5b148061319057506002600381111561318257fe5b81600381111561318e57fe5b145b5b61319a57600080fd5b60006131b26001600954616f0890919063ffffffff16565b90506131be8482617309565b50505050565b6000600260009054906101000a900473ffffffffffffffffffffffffffffffffffffffff1673ffffffffffffffffffffffffffffffffffffffff163373ffffffffffffffffffffffffffffffffffffffff161461322057600080fd5b600060095490506000806000601c60010154905061323c619a7e565b81602680549050016040519080825280602002602001820160405280156132725781602001602082028038833980820191505090505b50816040018190525060268054806020026020016040519081016040528092919081815260200182805480156132fd57602002820191906000526020600020905b8160009054906101000a900473ffffffffffffffffffffffffffffffffffffffff1673ffffffffffffffffffffffffffffffffffffffff16815260200190600101908083116132b3575b50505050508160600181905250600081602001818152505060268054905081608001818152505061332c619aad565b82602680549050016040519080825280602002602001820160405280156133625781602001602082028038833980820191505090505b50816020018190525060008090505b898990508110156136085760006133d08e8c8c8581811061338e57fe5b9050606002016003806020026040519081016040528092919082600360200280828437600081840152601f19601f8201169050808301925050505050506175aa565b90508573ffffffffffffffffffffffffffffffffffffffff168173ffffffffffffffffffffffffffffffffffffffff16141561340c57506135fd565b8573ffffffffffffffffffffffffffffffffffffffff168173ffffffffffffffffffffffffffffffffffffffff1610156134465750613608565b6000601b60008373ffffffffffffffffffffffffffffffffffffffff1673ffffffffffffffffffffffffffffffffffffffff1681526020019081526020016000205490506000601a60008381526020019081526020016000206000015490506000601a600084815260200190815260200160002060060160149054906101000a900460ff169050601a6000848152602001908152602001600020600301548660000181815250506134fd818388600001518e61707d565b156135965783985061354082613532601a6000878152602001908152602001600020600a01548d616f0890919063ffffffff16565b616f0890919063ffffffff16565b995060008660000151146135845782866020015187604001518151811061356357fe5b60200260200101818152505085604001805180919060010181525050613591565b61358e87856176eb565b96505b6135f8565b600260038111156135a357fe5b8160038111156135af57fe5b14156135f7578287604001518860000151815181106135ca57fe5b60200260200101818152505086600001805180919060010181525050866020018051809190600101815250505b5b505050505b806001019050613371565b506136148260006176eb565b91506136368d8b878e8660400151876000015187602001518860400151617810565b96505050505050509695505050505050565b600660009054906101000a900473ffffffffffffffffffffffffffffffffffffffff1681565b60165481565b601a6020528060005260406000206000915090508060000154908060010154908060020154908060030154908060040154908060050160009054906101000a900473ffffffffffffffffffffffffffffffffffffffff16908060060160009054906101000a900473ffffffffffffffffffffffffffffffffffffffff16908060060160149054906101000a900460ff169080600701549080600801549080600901549080600a01549080600b015490508d565b601b6020528060005260406000206000915090505481565b60008061374b83617a1a565b91505061378a600161377c83601a600088815260200190815260200160002060090154616f0890919063ffffffff16565b6172e990919063ffffffff16565b915050919050565b600c5481565b60295481565b6137a6616d26565b6000601a600086815260200190815260200160002060060160009054906101000a900473ffffffffffffffffffffffffffffffffffffffff169050600073ffffffffffffffffffffffffffffffffffffffff168173ffffffffffffffffffffffffffffffffffffffff16141561381b57600080fd5b8073ffffffffffffffffffffffffffffffffffffffff1663abf59fc98585856040518463ffffffff1660e01b8152600401808473ffffffffffffffffffffffffffffffffffffffff1673ffffffffffffffffffffffffffffffffffffffff1681526020018373ffffffffffffffffffffffffffffffffffffffff1673ffffffffffffffffffffffffffffffffffffffff1681526020018281526020019350505050600060405180830381600087803b1580156138d657600080fd5b505af11580156138ea573d6000803e3d6000fd5b505050505050505050565b60008073ffffffffffffffffffffffffffffffffffffffff168273ffffffffffffffffffffffffffffffffffffffff161480613a0a57506000600660009054906101000a900473ffffffffffffffffffffffffffffffffffffffff1673ffffffffffffffffffffffffffffffffffffffff166370a08231846040518263ffffffff1660e01b8152600401808273ffffffffffffffffffffffffffffffffffffffff1673ffffffffffffffffffffffffffffffffffffffff16815260200191505060206040518083038186803b1580156139cd57600080fd5b505afa1580156139e1573d6000803e3d6000fd5b505050506040513d60208110156139f757600080fd5b8101908080519060200190929190505050145b15613a185760009050613b14565b601a6000600660009054906101000a900473ffffffffffffffffffffffffffffffffffffffff1673ffffffffffffffffffffffffffffffffffffffff16632f745c598560006040518363ffffffff1660e01b8152600401808373ffffffffffffffffffffffffffffffffffffffff1673ffffffffffffffffffffffffffffffffffffffff1681526020018281526020019250505060206040518083038186803b158015613ac457600080fd5b505afa158015613ad8573d6000803e3d6000fd5b505050506040513d6020811015613aee57600080fd5b810190808051906020019092919050505081526020019081526020016000206000015490505b919050565b600f5481565b60105481565b613b2d6170c4565b601054613b38614b47565b10613bab576040517f08c379a000000000000000000000000000000000000000000000000000000000815260040180806020018281038252600d8152602001807f6e6f206d6f726520736c6f74730000000000000000000000000000000000000081525060200191505060405180910390fd5b600c54841015613c23576040517f08c379a00000000000000000000000000000000000000000000000000000000081526004018080602001828103825260128152602001807f6e6f7420656e6f756768206465706f736974000000000000000000000000000081525060200191505060405180910390fd5b613c2f85338587617acb565b613c3b85858484617c42565b505050505050565b3073ffffffffffffffffffffffffffffffffffffffff163373ffffffffffffffffffffffffffffffffffffffff1614613ce4576040517f08c379a000000000000000000000000000000000000000000000000000000000815260040180806020018281038252600b8152602001807f6e6f7420616c6c6f77656400000000000000000000000000000000000000000081525060200191505060405180910390fd5b613cf18788886000617acb565b613cfd85600954617309565b6000613d4f88868686868080601f016020809104026020016040519081016040528093929190818152602001838380828437600081840152601f19601f82011690508083019250505050505050617c42565b9050600560009054906101000a900473ffffffffffffffffffffffffffffffffffffffff1673ffffffffffffffffffffffffffffffffffffffff1663e12ab1af8288886040518463ffffffff1660e01b8152600401808481526020018381526020018281526020019350505050600060405180830381600087803b158015613dd657600080fd5b505af1158015613dea573d6000803e3d6000fd5b505050505050505050505050565b602080528060005260406000206000915090508060000154908060010154908060020160009054906101000a900473ffffffffffffffffffffffffffffffffffffffff16908060020160149054906101000a900460ff1690806003018054600181600116156101000203166002900480601f016020809104026020016040519081016040528092919081815260200182805460018160011615610100020316600290048015613ee85780601f10613ebd57610100808354040283529160200191613ee8565b820191906000526020600020905b815481529060010190602001808311613ecb57829003601f168201915b5050505050905085565b601960009054906101000a900460ff1681565b60125481565b6000601a600083815260200190815260200160002060060160009054906101000a900473ffffffffffffffffffffffffffffffffffffffff169050919050565b600060019054906101000a900473ffffffffffffffffffffffffffffffffffffffff1681565b6000600460009054906101000a900473ffffffffffffffffffffffffffffffffffffffff16905090565b60003373ffffffffffffffffffffffffffffffffffffffff16600460009054906101000a900473ffffffffffffffffffffffffffffffffffffffff1673ffffffffffffffffffffffffffffffffffffffff1663d580b4186040518163ffffffff1660e01b815260040160206040518083038186803b15801561401c57600080fd5b505afa158015614030573d6000803e3d6000fd5b505050506040513d602081101561404657600080fd5b810190808051906020019092919050505073ffffffffffffffffffffffffffffffffffffffff16146140e0576040517f08c379a00000000000000000000000000000000000000000000000000000000081526004018080602001828103825260118152602001807f4e6f7420736c617368206d616e6167657200000000000000000000000000000081525060200191505060405180910390fd5b606061413761413285858080601f016020809104026020016040519081016040528093929190818152602001838380828437600081840152601f19601f82011690508083019250505050505050618256565b618284565b90506000806000805b84518110156143dc57606061416786838151811061415a57fe5b6020026020010151618284565b905060006141888260008151811061417b57fe5b6020026020010151618361565b9050614193816172d7565b60006141b2836001815181106141a557fe5b6020026020010151618361565b90506141c78186616f0890919063ffffffff16565b94506000601a600084815260200190815260200160002060060160009054906101000a900473ffffffffffffffffffffffffffffffffffffffff169050600073ffffffffffffffffffffffffffffffffffffffff168173ffffffffffffffffffffffffffffffffffffffff161461431d5760008173ffffffffffffffffffffffffffffffffffffffff16636cbb6050601a600087815260200190815260200160002060000154601a6000888152602001908152602001600020600a0154866040518463ffffffff1660e01b8152600401808481526020018381526020018281526020019350505050602060405180830381600087803b1580156142c957600080fd5b505af11580156142dd573d6000803e3d6000fd5b505050506040513d60208110156142f357600080fd5b8101908080519060200190929190505050905061431981846172e990919063ffffffff16565b9250505b600061434883601a6000878152602001908152602001600020600001546172e990919063ffffffff16565b905080601a600086815260200190815260200160002060000181905550600081141561437f5761437a84600954617309565b6143ca565b61439c8560028151811061438f57fe5b60200260200101516183bb565b156143c9576143be6143af85600161840d565b89616f0890919063ffffffff16565b975088806001019950505b5b50505050508080600101915050614140565b6144006143f28484616f0890919063ffffffff16565b600003856000036000616f27565b819550505050505092915050565b614416616d26565b614502602560009054906101000a900473ffffffffffffffffffffffffffffffffffffffff16602560009054906101000a900473ffffffffffffffffffffffffffffffffffffffff1673ffffffffffffffffffffffffffffffffffffffff166360c8d122905060e01b858585604051602401808481526020018381526020018281526020019350505050604051602081830303815290604052907bffffffffffffffffffffffffffffffffffffffffffffffffffffffff19166020820180517bffffffffffffffffffffffffffffffffffffffffffffffffffffffff8381831617835250505050618692565b505050565b6000600660009054906101000a900473ffffffffffffffffffffffffffffffffffffffff1673ffffffffffffffffffffffffffffffffffffffff16636352211e836040518263ffffffff1660e01b81526004018082815260200191505060206040518083038186803b15801561457c57600080fd5b505afa158015614590573d6000803e3d6000fd5b505050506040513d60208110156145a657600080fd5b81019080805190602001909291905050509050919050565b6145c66170c4565b6145d38233836000617acb565b5050565b3383604051602001808373ffffffffffffffffffffffffffffffffffffffff1673ffffffffffffffffffffffffffffffffffffffff168152602001828152602001925050506040516020818303038152906040528051906020012073__$e61d9d092f9a1b7ffd6ff803beb268e3c6$__636c8f455c909184601754856040518563ffffffff1660e01b81526004018085815260200184815260200183815260200180602001828103825283818151815260200191508051906020019080838360005b838110156146b4578082015181840152602081019050614699565b50505050905090810190601f1680156146e15780820380516001836020036101000a031916815260200191505b509550505050505060206040518083038186803b15801561470157600080fd5b505af4158015614715573d6000803e3d6000fd5b505050506040513d602081101561472b57600080fd5b81019080805190602001909291905050506147ae576040517f08c379a000000000000000000000000000000000000000000000000000000000815260040180806020018281038252600f8152602001807f57726f6e67206163632070726f6f66000000000000000000000000000000000081525060200191505060405180910390fd5b6000614802601f60003373ffffffffffffffffffffffffffffffffffffffff1673ffffffffffffffffffffffffffffffffffffffff16815260200190815260200160002054856172e990919063ffffffff16565b905061480e33826186bc565b83601f60003373ffffffffffffffffffffffffffffffffffffffff1673ffffffffffffffffffffffffffffffffffffffff1681526020019081526020016000208190555061485c338261879c565b50505050565b60008361486e816188f6565b600360009054906101000a900473ffffffffffffffffffffffffffffffffffffffff1673ffffffffffffffffffffffffffffffffffffffff166323b872dd8430876040518463ffffffff1660e01b8152600401808473ffffffffffffffffffffffffffffffffffffffff1673ffffffffffffffffffffffffffffffffffffffff1681526020018373ffffffffffffffffffffffffffffffffffffffff1673ffffffffffffffffffffffffffffffffffffffff1681526020018281526020019350505050602060405180830381600087803b15801561494b57600080fd5b505af115801561495f573d6000803e3d6000fd5b505050506040513d602081101561497557600080fd5b81019080805190602001909291905050509150509392505050565b600a5481565b61499e614bfc565b6149a757600080fd5b600073ffffffffffffffffffffffffffffffffffffffff16600160009054906101000a900473ffffffffffffffffffffffffffffffffffffffff1673ffffffffffffffffffffffffffffffffffffffff167f8be0079c531659141344cd1fd0a4f28419497f9722a3daafe3b4186f6b6457e060405160405180910390a36000600160006101000a81548173ffffffffffffffffffffffffffffffffffffffff021916908373ffffffffffffffffffffffffffffffffffffffff160217905550565b60095481565b60185481565b601f6020528060005260406000206000915090505481565b600460009054906101000a900473ffffffffffffffffffffffffffffffffffffffff1681565b602a5481565b600b5481565b600081614aca816188f6565b614ad3836172d7565b6000614aff6001601a6000878152602001908152602001600020600901546172e990919063ffffffff16565b90506001601a6000868152602001908152602001600020600901819055508092505050919050565b6000601a6000838152602001908152602001600020600a01549050919050565b6000601c60010154905090565b60115481565b81614b64816188f6565b614b8d82601a6000868152602001908152602001600020600a01546172e990919063ffffffff16565b601a6000858152602001908152602001600020600a0181905550505050565b602360019054906101000a900473ffffffffffffffffffffffffffffffffffffffff1681565b6000600160009054906101000a900473ffffffffffffffffffffffffffffffffffffffff16905090565b600080600060405180807f6d617469632e6e6574776f726b2e70726f78792e6f776e657200000000000000815250601901905060405180910390209050805491508173ffffffffffffffffffffffffffffffffffffffff163373ffffffffffffffffffffffffffffffffffffffff16149250505090565b6000600954905090565b614c85616d26565b614c9181600954617309565b50565b60275481565b80614ca481616e20565b614cad826172d7565b614cb782336189d0565b5050565b600260009054906101000a900473ffffffffffffffffffffffffffffffffffffffff1681565b614ce96170c4565b614e01602560009054906101000a900473ffffffffffffffffffffffffffffffffffffffff16602560009054906101000a900473ffffffffffffffffffffffffffffffffffffffff1673ffffffffffffffffffffffffffffffffffffffff1663ac35ab92905060e01b848430604051602401808481526020018381526020018273ffffffffffffffffffffffffffffffffffffffff1673ffffffffffffffffffffffffffffffffffffffff1681526020019350505050604051602081830303815290604052907bffffffffffffffffffffffffffffffffffffffffffffffffffffffff19166020820180517bffffffffffffffffffffffffffffffffffffffffffffffffffffffff8381831617835250505050618692565b5050565b60225481565b614e13616d26565b600560009054906101000a900473ffffffffffffffffffffffffffffffffffffffff1673ffffffffffffffffffffffffffffffffffffffff1663a3b1d8cb826016546040518363ffffffff1660e01b81526004018083815260200182815260200192505050600060405180830381600087803b158015614e9257600080fd5b505af1158015614ea6573d6000803e3d6000fd5b505050506064811115614f21576040517f08c379a00000000000000000000000000000000000000000000000000000000081526004018080602001828103825260078152602001807f746f6f206269670000000000000000000000000000000000000000000000000081525060200191505060405180910390fd5b8060168190555050565b614f33614bfc565b614f3c57600080fd5b615020602560009054906101000a900473ffffffffffffffffffffffffffffffffffffffff16602560009054906101000a900473ffffffffffffffffffffffffffffffffffffffff1673ffffffffffffffffffffffffffffffffffffffff16639ddbbf85905060e01b84846040516024018083815260200182815260200192505050604051602081830303815290604052907bffffffffffffffffffffffffffffffffffffffffffffffffffffffff19166020820180517bffffffffffffffffffffffffffffffffffffffffffffffffffffffff8381831617835250505050618692565b5050565b8161502e816188f6565b60008213156150ba57601960009054906101000a900460ff166150b9576040517f08c379a00000000000000000000000000000000000000000000000000000000081526004018080602001828103825260168152602001807f44656c65676174696f6e2069732064697361626c65640000000000000000000081525060200191505060405180910390fd5b5b6150c682600080616f27565b600082126150dd576150d88383618b00565b61510a565b615109837fffffffffffffffffffffffffffffffffffffffffffffffffffffffffffffffff8402614b5a565b5b505050565b615117616d26565b600081141561512557600080fd5b80600e8190555050565b6000601c60000154905090565b6151446170c4565b615268602560009054906101000a900473ffffffffffffffffffffffffffffffffffffffff16602560009054906101000a900473ffffffffffffffffffffffffffffffffffffffff1673ffffffffffffffffffffffffffffffffffffffff1663a6854877905060e01b87878787876040516024018086815260200185815260200184151515158152602001806020018281038252848482818152602001925080828437600081840152601f19601f8201169050808301925050509650505050505050604051602081830303815290604052907bffffffffffffffffffffffffffffffffffffffffffffffffffffffff19166020820180517bffffffffffffffffffffffffffffffffffffffffffffffffffffffff8381831617835250505050618692565b5050505050565b615277616d26565b61527f618b47565b565b6000600854905090565b60245481565b615299616d26565b6152a3828261879c565b5050565b6152af616d26565b81600c8190555080600d819055505050565b6152c9618b63565b565b6000806000601a60008581526020019081526020016000206003015414156152fc576152f683617a1a565b50809150505b615338600161532a83601a600088815260200190815260200160002060010154616f0890919063ffffffff16565b6172e990919063ffffffff16565b915050919050565b60003373ffffffffffffffffffffffffffffffffffffffff16601a600086815260200190815260200160002060060160009054906101000a900473ffffffffffffffffffffffffffffffffffffffff1673ffffffffffffffffffffffffffffffffffffffff16148061547f57503373ffffffffffffffffffffffffffffffffffffffff16600460009054906101000a900473ffffffffffffffffffffffffffffffffffffffff1673ffffffffffffffffffffffffffffffffffffffff1663d580b4186040518163ffffffff1660e01b815260040160206040518083038186803b15801561542c57600080fd5b505afa158015615440573d6000803e3d6000fd5b505050506040513d602081101561545657600080fd5b810190808051906020019092919050505073ffffffffffffffffffffffffffffffffffffffff16145b6154f1576040517f08c379a000000000000000000000000000000000000000000000000000000000815260040180806020018281038252600b8152602001807f6e6f7420616c6c6f77656400000000000000000000000000000000000000000081525060200191505060405180910390fd5b600360009054906101000a900473ffffffffffffffffffffffffffffffffffffffff1673ffffffffffffffffffffffffffffffffffffffff1663a9059cbb83856040518363ffffffff1660e01b8152600401808373ffffffffffffffffffffffffffffffffffffffff1673ffffffffffffffffffffffffffffffffffffffff16815260200182815260200192505050602060405180830381600087803b15801561559a57600080fd5b505af11580156155ae573d6000803e3d6000fd5b505050506040513d60208110156155c457600080fd5b810190808051906020019092919050505090509392505050565b6155e6616d26565b3073ffffffffffffffffffffffffffffffffffffffff168173ffffffffffffffffffffffffffffffffffffffff16638da5cb5b6040518163ffffffff1660e01b815260040160206040518083038186803b15801561564357600080fd5b505afa158015615657573d6000803e3d6000fd5b505050506040513d602081101561566d57600080fd5b810190808051906020019092919050505073ffffffffffffffffffffffffffffffffffffffff161461569e57600080fd5b80601a600084815260200190815260200160002060060160006101000a81548173ffffffffffffffffffffffffffffffffffffffff021916908373ffffffffffffffffffffffffffffffffffffffff1602179055505050565b6156ff616d26565b600081141561570d57600080fd5b600560009054906101000a900473ffffffffffffffffffffffffffffffffffffffff1673ffffffffffffffffffffffffffffffffffffffff1663b6fa74c482600b546040518363ffffffff1660e01b81526004018083815260200182815260200192505050600060405180830381600087803b15801561578c57600080fd5b505af11580156157a0573d6000803e3d6000fd5b5050505080600b8190555050565b60145481565b6000809054906101000a900460ff1681565b6000601b60003373ffffffffffffffffffffffffffffffffffffffff1673ffffffffffffffffffffffffffffffffffffffff168152602001908152602001600020549050615867601a600083815260200190815260200160002060060160149054906101000a900460ff16601a600084815260200190815260200160002060000154601a60008581526020019081526020016000206003015460095461707d565b6158d9576040517f08c379a000000000000000000000000000000000000000000000000000000000815260040180806020018281038252600d8152602001807f6e6f742076616c696461746f720000000000000000000000000000000000000081525060200191505060405180910390fd5b6000601a600083815260200190815260200160002060060160009054906101000a900473ffffffffffffffffffffffffffffffffffffffff169050600073ffffffffffffffffffffffffffffffffffffffff168173ffffffffffffffffffffffffffffffffffffffff1614156159b7576040517f08c379a00000000000000000000000000000000000000000000000000000000081526004018080602001828103825260168152602001807f44656c65676174696f6e2069732064697361626c65640000000000000000000081525060200191505060405180910390fd5b8073ffffffffffffffffffffffffffffffffffffffff16637ba8c820846040518263ffffffff1660e01b81526004018082151515158152602001915050600060405180830381600087803b158015615a0e57600080fd5b505af1158015615a22573d6000803e3d6000fd5b50505050505050565b60216020528060005260406000206000915090505481565b80615a4d81616e20565b6000601a6000848152602001908152602001600020600301549050600081118015615a8e5750600954615a8b60085483616f0890919063ffffffff16565b11155b8015615ad35750600380811115615aa157fe5b601a600085815260200190815260200160002060060160149054906101000a900460ff166003811115615ad057fe5b14155b615adc57600080fd5b6000601a60008581526020019081526020016000206000015490506000615b0e826011546172e990919063ffffffff16565b905080601181905550615b2185336189d0565b600660009054906101000a900473ffffffffffffffffffffffffffffffffffffffff1673ffffffffffffffffffffffffffffffffffffffff166342966c68866040518263ffffffff1660e01b815260040180828152602001915050600060405180830381600087803b158015615b9657600080fd5b505af1158015615baa573d6000803e3d6000fd5b505050506000601a6000878152602001908152602001600020600001819055506000601a6000878152602001908152602001600020600401819055506000601a600087815260200190815260200160002060050160006101000a81548173ffffffffffffffffffffffffffffffffffffffff021916908373ffffffffffffffffffffffffffffffffffffffff1602179055507fffffffffffffffffffffffffffffffffffffffffffffffffffffffffffffffff601b6000601a600089815260200190815260200160002060050160009054906101000a900473ffffffffffffffffffffffffffffffffffffffff1673ffffffffffffffffffffffffffffffffffffffff1673ffffffffffffffffffffffffffffffffffffffff168152602001908152602001600020819055506003601a600087815260200190815260200160002060060160146101000a81548160ff02191690836003811115615d0957fe5b0217905550615d18338361879c565b600560009054906101000a900473ffffffffffffffffffffffffffffffffffffffff1673ffffffffffffffffffffffffffffffffffffffff1663ae2e26b1338785856040518563ffffffff1660e01b8152600401808573ffffffffffffffffffffffffffffffffffffffff1673ffffffffffffffffffffffffffffffffffffffff168152602001848152602001838152602001828152602001945050505050600060405180830381600087803b158015615dd157600080fd5b505af1158015615de5573d6000803e3d6000fd5b505050505050505050565b81615dfa81616e20565b615e03836172d7565b615ee7602560009054906101000a900473ffffffffffffffffffffffffffffffffffffffff16602560009054906101000a900473ffffffffffffffffffffffffffffffffffffffff1673ffffffffffffffffffffffffffffffffffffffff1663dcd962b2905060e01b85856040516024018083815260200182815260200192505050604051602081830303815290604052907bffffffffffffffffffffffffffffffffffffffffffffffffffffffff19166020820180517bffffffffffffffffffffffffffffffffffffffffffffffffffffffff8381831617835250505050618692565b505050565b60285481565b601c8060000154908060010154905082565b615f0c616d26565b60008111615f1957600080fd5b600560009054906101000a900473ffffffffffffffffffffffffffffffffffffffff1673ffffffffffffffffffffffffffffffffffffffff1663a0e300a682600a546040518363ffffffff1660e01b81526004018083815260200182815260200192505050600060405180830381600087803b158015615f9857600080fd5b505af1158015615fac573d6000803e3d6000fd5b5050505080600a8190555080600881905550615fd2600482618c0490919063ffffffff16565b601581905550615fef601554600954616f0890919063ffffffff16565b60188190555050565b801561609957601a600083815260200190815260200160002060060160009054906101000a900473ffffffffffffffffffffffffffffffffffffffff1673ffffffffffffffffffffffffffffffffffffffff1663f83d08ba6040518163ffffffff1660e01b8152600401600060405180830381600087803b15801561607c57600080fd5b505af1158015616090573d6000803e3d6000fd5b50505050616130565b601a600083815260200190815260200160002060060160009054906101000a900473ffffffffffffffffffffffffffffffffffffffff1673ffffffffffffffffffffffffffffffffffffffff1663a69df4b56040518163ffffffff1660e01b8152600401600060405180830381600087803b15801561611757600080fd5b505af115801561612b573d6000803e3d6000fd5b505050505b5050565b61613c614bfc565b61614557600080fd5b600073ffffffffffffffffffffffffffffffffffffffff168173ffffffffffffffffffffffffffffffffffffffff16141561617f57600080fd5b8073ffffffffffffffffffffffffffffffffffffffff16600260009054906101000a900473ffffffffffffffffffffffffffffffffffffffff1673ffffffffffffffffffffffffffffffffffffffff167f211c9015fc81c0dbd45bd99f0f29fc1c143bfd53442d5ffd722bbbef7a887fe960405160405180910390a380600260006101000a81548173ffffffffffffffffffffffffffffffffffffffff021916908373ffffffffffffffffffffffffffffffffffffffff16021790555050565b6000601a6000838152602001908152602001600020600001549050919050565b600560009054906101000a900473ffffffffffffffffffffffffffffffffffffffff1681565b61628d616d26565b80601960006101000a81548160ff02191690831515021790555050565b6162b2614bfc565b6162bb57600080fd5b6162c481618c2a565b50565b6162dc81600954616f0890919063ffffffff16565b60098190555050565b816162ef81616e20565b60006162fa83618d24565b90506000600954905061632b600f546021600088815260200190815260200160002054616f0890919063ffffffff16565b8110156163a0576040517f08c379a000000000000000000000000000000000000000000000000000000000815260040180806020018281038252600b8152602001807f4e6f7420616c6c6f77656400000000000000000000000000000000000000000081525060200191505060405180910390fd5b6000601a600087815260200190815260200160002060050160009054906101000a900473ffffffffffffffffffffffffffffffffffffffff169050600560009054906101000a900473ffffffffffffffffffffffffffffffffffffffff1673ffffffffffffffffffffffffffffffffffffffff1663b80fbce5878386896040518563ffffffff1660e01b8152600401808581526020018473ffffffffffffffffffffffffffffffffffffffff1673ffffffffffffffffffffffffffffffffffffffff1681526020018373ffffffffffffffffffffffffffffffffffffffff1673ffffffffffffffffffffffffffffffffffffffff16815260200180602001828103825283818151815260200191508051906020019080838360005b838110156164d65780820151818401526020810190506164bb565b50505050905090810190601f1680156165035780820380516001836020036101000a031916815260200191505b5095505050505050600060405180830381600087803b15801561652557600080fd5b505af1158015616539573d6000803e3d6000fd5b505050507fffffffffffffffffffffffffffffffffffffffffffffffffffffffffffffffff601b60008373ffffffffffffffffffffffffffffffffffffffff1673ffffffffffffffffffffffffffffffffffffffff1681526020019081526020016000208190555085601b60008573ffffffffffffffffffffffffffffffffffffffff1673ffffffffffffffffffffffffffffffffffffffff1681526020019081526020016000208190555082601a600088815260200190815260200160002060050160006101000a81548173ffffffffffffffffffffffffffffffffffffffff021916908373ffffffffffffffffffffffffffffffffffffffff1602179055506166448184618ea3565b816021600088815260200190815260200160002081905550505050505050565b602360009054906101000a900460ff16156166e7576040517f08c379a000000000000000000000000000000000000000000000000000000000815260040180806020018281038252600e8152602001807f616c726561647920696e6974656400000000000000000000000000000000000081525060200191505060405180910390fd5b6001602360006101000a81548160ff02191690831515021790555061670b81616dce565b61677d576040517f08c379a00000000000000000000000000000000000000000000000000000000081526004018080602001828103825260168152602001807f61756374696f6e20696d706c20696e636f72726563740000000000000000000081525060200191505060405180910390fd5b80602560006101000a81548173ffffffffffffffffffffffffffffffffffffffff021916908373ffffffffffffffffffffffffffffffffffffffff16021790555082600060016101000a81548173ffffffffffffffffffffffffffffffffffffffff021916908373ffffffffffffffffffffffffffffffffffffffff16021790555088600460006101000a81548173ffffffffffffffffffffffffffffffffffffffff021916908373ffffffffffffffffffffffffffffffffffffffff16021790555087600260006101000a81548173ffffffffffffffffffffffffffffffffffffffff021916908373ffffffffffffffffffffffffffffffffffffffff16021790555086600360006101000a81548173ffffffffffffffffffffffffffffffffffffffff021916908373ffffffffffffffffffffffffffffffffffffffff16021790555085600660006101000a81548173ffffffffffffffffffffffffffffffffffffffff021916908373ffffffffffffffffffffffffffffffffffffffff16021790555084600560006101000a81548173ffffffffffffffffffffffffffffffffffffffff021916908373ffffffffffffffffffffffffffffffffffffffff16021790555083600760006101000a81548173ffffffffffffffffffffffffffffffffffffffff021916908373ffffffffffffffffffffffffffffffffffffffff16021790555061698e82618c2a565b6120006008819055506001600981905550610376600a8190555069044664c7bf6451f00000600b81905550670de0b6b3a7640000600c81905550670de0b6b3a7640000600d81905550610400600e819055506064600f8190555060076010819055506001601281905550610800601581905550600a6016819055506001601960006101000a81548160ff021916908315150217905550505050505050505050565b616a37616d26565b616a4c81600954616f0890919063ffffffff16565b60188190555050565b616a5d616d26565b616a65618eb9565b565b602560009054906101000a900473ffffffffffffffffffffffffffffffffffffffff1681565b60078211616b03576040517f08c379a00000000000000000000000000000000000000000000000000000000081526004018080602001828103825260118152602001807f496e76616c6964206d6967726174696f6e00000000000000000000000000000081525060200191505060405180910390fd5b601a600084815260200190815260200160002060060160009054906101000a900473ffffffffffffffffffffffffffffffffffffffff1673ffffffffffffffffffffffffffffffffffffffff16636e7ce59133836040518363ffffffff1660e01b8152600401808373ffffffffffffffffffffffffffffffffffffffff1673ffffffffffffffffffffffffffffffffffffffff16815260200182815260200192505050600060405180830381600087803b158015616bc057600080fd5b505af1158015616bd4573d6000803e3d6000fd5b50505050601a600083815260200190815260200160002060060160009054906101000a900473ffffffffffffffffffffffffffffffffffffffff1673ffffffffffffffffffffffffffffffffffffffff1663a0c1ca3433836040518363ffffffff1660e01b8152600401808373ffffffffffffffffffffffffffffffffffffffff1673ffffffffffffffffffffffffffffffffffffffff16815260200182815260200192505050600060405180830381600087803b158015616c9557600080fd5b505af1158015616ca9573d6000803e3d6000fd5b50505050505050565b600d5481565b600360009054906101000a900473ffffffffffffffffffffffffffffffffffffffff1681565b6000601b60008373ffffffffffffffffffffffffffffffffffffffff1673ffffffffffffffffffffffffffffffffffffffff1681526020019081526020016000208190555050565b600060019054906101000a900473ffffffffffffffffffffffffffffffffffffffff1673ffffffffffffffffffffffffffffffffffffffff163373ffffffffffffffffffffffffffffffffffffffff1614616dcc576040517f08c379a0000000000000000000000000000000000000000000000000000000008152600401808060200182810382526026815260200180619bb16026913960400191505060405180910390fd5b565b60008073ffffffffffffffffffffffffffffffffffffffff168273ffffffffffffffffffffffffffffffffffffffff161415616e0d5760009050616e1b565b6000823b9050600081119150505b919050565b3373ffffffffffffffffffffffffffffffffffffffff16600660009054906101000a900473ffffffffffffffffffffffffffffffffffffffff1673ffffffffffffffffffffffffffffffffffffffff16636352211e836040518263ffffffff1660e01b81526004018082815260200191505060206040518083038186803b158015616eaa57600080fd5b505afa158015616ebe573d6000803e3d6000fd5b505050506040513d6020811015616ed457600080fd5b810190808051906020019092919050505073ffffffffffffffffffffffffffffffffffffffff1614616f0557600080fd5b50565b600080828401905083811015616f1d57600080fd5b8091505092915050565b600081141561702f576000831315616f5f57616f5183601c60000154616f0890919063ffffffff16565b601c60000181905550616fad565b6000831215616fac57616fa27fffffffffffffffffffffffffffffffffffffffffffffffffffffffffffffffff8402601c600001546172e990919063ffffffff16565b601c600001819055505b5b6000821315616fdc57616fce82601c60010154616f0890919063ffffffff16565b601c6001018190555061702a565b60008212156170295761701f7fffffffffffffffffffffffffffffffffffffffffffffffffffffffffffffffff8302601c600101546172e990919063ffffffff16565b601c600101819055505b5b617078565b82601e60008381526020019081526020016000206000016000828254019250508190555081601e6000838152602001908152602001600020600101600082825401925050819055505b505050565b600080841180156170985750600083148061709757508183115b5b80156170ba5750600160038111156170ac57fe5b8560038111156170b857fe5b145b9050949350505050565b6000809054906101000a900460ff1615617146576040517f08c379a00000000000000000000000000000000000000000000000000000000081526004018080602001828103825260068152602001807f6c6f636b6564000000000000000000000000000000000000000000000000000081525060200191505060405180910390fd5b565b600360009054906101000a900473ffffffffffffffffffffffffffffffffffffffff1673ffffffffffffffffffffffffffffffffffffffff166323b872dd8484846040518463ffffffff1660e01b8152600401808473ffffffffffffffffffffffffffffffffffffffff1673ffffffffffffffffffffffffffffffffffffffff1681526020018373ffffffffffffffffffffffffffffffffffffffff1673ffffffffffffffffffffffffffffffffffffffff1681526020018281526020019350505050602060405180830381600087803b15801561722557600080fd5b505af1158015617239573d6000803e3d6000fd5b505050506040513d602081101561724f57600080fd5b81019080805190602001909291905050506172d2576040517f08c379a00000000000000000000000000000000000000000000000000000000081526004018080602001828103825260148152602001807f7472616e736665722066726f6d206661696c656400000000000000000000000081525060200191505060405180910390fd5b505050565b6172e681602454602454618ed5565b50565b6000828211156172f857600080fd5b600082840390508091505092915050565b617312826172d7565b6000601a6000848152602001908152602001600020600001549050600061733884614507565b905082601a6000868152602001908152602001600020600301819055506000601a6000868152602001908152602001600020600a015490506000601a600087815260200190815260200160002060060160009054906101000a900473ffffffffffffffffffffffffffffffffffffffff169050600073ffffffffffffffffffffffffffffffffffffffff168173ffffffffffffffffffffffffffffffffffffffff1614617440578073ffffffffffffffffffffffffffffffffffffffff1663f83d08ba6040518163ffffffff1660e01b8152600401600060405180830381600087803b15801561742757600080fd5b505af115801561743b573d6000803e3d6000fd5b505050505b61747f601a600088815260200190815260200160002060050160009054906101000a900473ffffffffffffffffffffffffffffffffffffffff16618fae565b61748986846189d0565b600060095486111561749b578561749e565b60005b90506174d08386016000037fffffffffffffffffffffffffffffffffffffffffffffffffffffffffffffffff83616f27565b600560009054906101000a900473ffffffffffffffffffffffffffffffffffffffff1673ffffffffffffffffffffffffffffffffffffffff16635e04d483858989896040518563ffffffff1660e01b8152600401808573ffffffffffffffffffffffffffffffffffffffff1673ffffffffffffffffffffffffffffffffffffffff168152602001848152602001838152602001828152602001945050505050600060405180830381600087803b15801561758957600080fd5b505af115801561759d573d6000803e3d6000fd5b5050505050505050505050565b60008060008084519250602085015191506040850151601f1a90507f7fffffffffffffffffffffffffffffff5d576e7357a4501ddfe92f46681b20a08260001c11156175fc57600093505050506176e5565b601b8160ff16101561760f57601b810190505b601b8160ff16141580156176275750601c8160ff1614155b1561763857600093505050506176e5565b600060018783868660405160008152602001604052604051808581526020018460ff1660ff1681526020018381526020018281526020019450505050506020604051602081039080840390855afa158015617697573d6000803e3d6000fd5b505050602060405103519050600073ffffffffffffffffffffffffffffffffffffffff168173ffffffffffffffffffffffffffffffffffffffff1614156176dd57600080fd5b809450505050505b92915050565b6176f3619a7e565b5b8260800151836020015110801561775257508173ffffffffffffffffffffffffffffffffffffffff16836060015184602001518151811061773157fe5b602002602001015173ffffffffffffffffffffffffffffffffffffffff1614155b156177f757601b6000846060015185602001518151811061776f57fe5b602002602001015173ffffffffffffffffffffffffffffffffffffffff1673ffffffffffffffffffffffffffffffffffffffff1681526020019081526020016000205483604001518460000151815181106177c657fe5b60200260200101818152505082600001805180919060010181525050826020018051809190600101815250506176f4565b8260200180518091906001018152505082905092915050565b600080601c6000015490506178556001617847600361783960028661913f90919063ffffffff16565b618c0490919063ffffffff16565b616f0890919063ffffffff16565b8810156178ca576040517f08c379a00000000000000000000000000000000000000000000000000000000081526004018080602001828103825260138152602001807f322f332b31206e6f6e2d6d616a6f72697479210000000000000000000000000081525060200191505060405180910390fd5b60006178d78b8a84619179565b9050600061790360646178f56016548561913f90919063ffffffff16565b618c0490919063ffffffff16565b90506000601b60008d73ffffffffffffffffffffffffffffffffffffffff1673ffffffffffffffffffffffffffffffffffffffff1681526020019081526020016000205490506000601a60008381526020019081526020016000209050617977838260010154616f0890919063ffffffff16565b81600101819055508a60178190555060006179de6179cd8e6179bf6a084595161401484a0000006179b1898b6172e990919063ffffffff16565b61913f90919063ffffffff16565b618c0490919063ffffffff16565b602454616f0890919063ffffffff16565b90506179eb8b8b8361935a565b806024819055506179fd89898361935a565b617a05618b63565b84965050505050505098975050505050505050565b6000806000601a60008581526020019081526020016000206000015490506000617a63601a6000878152602001908152602001600020600a015483616f0890919063ffffffff16565b90506000601a6000878152602001908152602001600020600b0154602454039050617abf8684617ab96a084595161401484a000000617aab878761913f90919063ffffffff16565b618c0490919063ffffffff16565b8561939f565b94509450505050915091565b600d54821015617b43576040517f08c379a000000000000000000000000000000000000000000000000000000000815260040180806020018281038252600d8152602001807f66656520746f6f20736d616c6c0000000000000000000000000000000000000081525060200191505060405180910390fd5b617b608330617b5b8486616f0890919063ffffffff16565b617148565b617b7582602254616f0890919063ffffffff16565b602281905550600560009054906101000a900473ffffffffffffffffffffffffffffffffffffffff1673ffffffffffffffffffffffffffffffffffffffff1663a449d79585846040518363ffffffff1660e01b8152600401808373ffffffffffffffffffffffffffffffffffffffff1673ffffffffffffffffffffffffffffffffffffffff16815260200182815260200192505050600060405180830381600087803b158015617c2457600080fd5b505af1158015617c38573d6000803e3d6000fd5b5050505050505050565b600080617c4e83618d24565b905060006009549050600060125490506000600560009054906101000a900473ffffffffffffffffffffffffffffffffffffffff1690506000617c9c89601154616f0890919063ffffffff16565b905080601181905550604051806101a001604052808a81526020016001815260200185815260200160008152602001600081526020018673ffffffffffffffffffffffffffffffffffffffff16815260200189617cfa576000617e35565b600760009054906101000a900473ffffffffffffffffffffffffffffffffffffffff1673ffffffffffffffffffffffffffffffffffffffff1663d4ad26738686600460009054906101000a900473ffffffffffffffffffffffffffffffffffffffff166040518463ffffffff1660e01b8152600401808481526020018373ffffffffffffffffffffffffffffffffffffffff1673ffffffffffffffffffffffffffffffffffffffff1681526020018273ffffffffffffffffffffffffffffffffffffffff1673ffffffffffffffffffffffffffffffffffffffff1681526020019350505050602060405180830381600087803b158015617df957600080fd5b505af1158015617e0d573d6000803e3d6000fd5b505050506040513d6020811015617e2357600080fd5b81019080805190602001909291905050505b73ffffffffffffffffffffffffffffffffffffffff16815260200160016003811115617e5d57fe5b815260200160008152602001600081526020016001815260200160008152602001602454815250601a6000858152602001908152602001600020600082015181600001556020820151816001015560408201518160020155606082015181600301556080820151816004015560a08201518160050160006101000a81548173ffffffffffffffffffffffffffffffffffffffff021916908373ffffffffffffffffffffffffffffffffffffffff16021790555060c08201518160060160006101000a81548173ffffffffffffffffffffffffffffffffffffffff021916908373ffffffffffffffffffffffffffffffffffffffff16021790555060e08201518160060160146101000a81548160ff02191690836003811115617f7b57fe5b021790555061010082015181600701556101208201518160080155610140820151816009015561016082015181600a015561018082015181600b0155905050836021600085815260200190815260200160002081905550600660009054906101000a900473ffffffffffffffffffffffffffffffffffffffff1673ffffffffffffffffffffffffffffffffffffffff166340c10f198b856040518363ffffffff1660e01b8152600401808373ffffffffffffffffffffffffffffffffffffffff1673ffffffffffffffffffffffffffffffffffffffff16815260200182815260200192505050600060405180830381600087803b15801561807b57600080fd5b505af115801561808f573d6000803e3d6000fd5b5050505082601b60008773ffffffffffffffffffffffffffffffffffffffff1673ffffffffffffffffffffffffffffffffffffffff168152602001908152602001600020819055506180e48960016000616f27565b8360206000858152602001908152602001600020600101819055508173ffffffffffffffffffffffffffffffffffffffff166333a8383c868986888e876040518763ffffffff1660e01b8152600401808773ffffffffffffffffffffffffffffffffffffffff1673ffffffffffffffffffffffffffffffffffffffff16815260200180602001868152602001858152602001848152602001838152602001828103825287818151815260200191508051906020019080838360005b838110156181ba57808201518184015260208101905061819f565b50505050905090810190601f1680156181e75780820380516001836020036101000a031916815260200191505b50975050505050505050600060405180830381600087803b15801561820b57600080fd5b505af115801561821f573d6000803e3d6000fd5b50505050618237600184616f0890919063ffffffff16565b60128190555061824685619481565b8295505050505050949350505050565b61825e619ace565b600060208301905060405180604001604052808451815260200182815250915050919050565b606061828f82619642565b61829857600080fd5b60006182a383619690565b90506060816040519080825280602002602001820160405280156182e157816020015b6182ce619ae8565b8152602001906001900390816182c65790505b50905060006182f38560200151619701565b8560200151019050600080600090505b84811015618354576183148361978a565b915060405180604001604052808381526020018481525084828151811061833757fe5b602002602001018190525081830192508080600101915050618303565b5082945050505050919050565b600080826000015111801561837b57506021826000015111155b61838457600080fd5b60008061839084619842565b9150915060008251905060208210156183b057816020036101000a810490505b809350505050919050565b600060018260000151146183ce57600080fd5b60008083602001519050805160001a915060008214806183f15750608060ff1682145b1561840157600092505050618408565b6001925050505b919050565b600080601a600085815260200190815260200160002060060160009054906101000a900473ffffffffffffffffffffffffffffffffffffffff169050600073ffffffffffffffffffffffffffffffffffffffff168173ffffffffffffffffffffffffffffffffffffffff16146184de578073ffffffffffffffffffffffffffffffffffffffff1663f83d08ba6040518163ffffffff1660e01b8152600401600060405180830381600087803b1580156184c557600080fd5b505af11580156184d9573d6000803e3d6000fd5b505050505b600060095490506184f88482616f0890919063ffffffff16565b601a6000878152602001908152602001600020600401819055506002601a600087815260200190815260200160002060060160146101000a81548160ff0219169083600381111561854557fe5b0217905550600560009054906101000a900473ffffffffffffffffffffffffffffffffffffffff1673ffffffffffffffffffffffffffffffffffffffff166381dc101b8683601a60008a815260200190815260200160002060050160009054906101000a900473ffffffffffffffffffffffffffffffffffffffff166040518463ffffffff1660e01b8152600401808481526020018381526020018273ffffffffffffffffffffffffffffffffffffffff1673ffffffffffffffffffffffffffffffffffffffff1681526020019350505050600060405180830381600087803b15801561863157600080fd5b505af1158015618645573d6000803e3d6000fd5b50505050618688601a6000878152602001908152602001600020600a0154601a600088815260200190815260200160002060000154616f0890919063ffffffff16565b9250505092915050565b600080825160208401856127105a03f43d604051816000823e82600081146186b8578282f35b8282fd5b6186d1816022546172e990919063ffffffff16565b602281905550600560009054906101000a900473ffffffffffffffffffffffffffffffffffffffff1673ffffffffffffffffffffffffffffffffffffffff1663122b648183836040518363ffffffff1660e01b8152600401808373ffffffffffffffffffffffffffffffffffffffff1673ffffffffffffffffffffffffffffffffffffffff16815260200182815260200192505050600060405180830381600087803b15801561878057600080fd5b505af1158015618794573d6000803e3d6000fd5b505050505050565b600360009054906101000a900473ffffffffffffffffffffffffffffffffffffffff1673ffffffffffffffffffffffffffffffffffffffff1663a9059cbb83836040518363ffffffff1660e01b8152600401808373ffffffffffffffffffffffffffffffffffffffff1673ffffffffffffffffffffffffffffffffffffffff16815260200182815260200192505050602060405180830381600087803b15801561884557600080fd5b505af1158015618859573d6000803e3d6000fd5b505050506040513d602081101561886f57600080fd5b81019080805190602001909291905050506188f2576040517f08c379a000000000000000000000000000000000000000000000000000000000815260040180806020018281038252600f8152602001807f7472616e73666572206661696c6564000000000000000000000000000000000081525060200191505060405180910390fd5b5050565b3373ffffffffffffffffffffffffffffffffffffffff16601a600083815260200190815260200160002060060160009054906101000a900473ffffffffffffffffffffffffffffffffffffffff1673ffffffffffffffffffffffffffffffffffffffff16146189cd576040517f08c379a00000000000000000000000000000000000000000000000000000000081526004018080602001828103825260188152602001807f496e76616c696420636f6e74726163742061646472657373000000000000000081525060200191505060405180910390fd5b50565b60006189fc6001601a6000868152602001908152602001600020600101546172e990919063ffffffff16565b9050618a1381601454616f0890919063ffffffff16565b6014819055506001601a600085815260200190815260200160002060010181905550602454601a6000858152602001908152602001600020600b0181905550618a5c828261879c565b600560009054906101000a900473ffffffffffffffffffffffffffffffffffffffff1673ffffffffffffffffffffffffffffffffffffffff1663b685b26a84836014546040518463ffffffff1660e01b8152600401808481526020018381526020018281526020019350505050600060405180830381600087803b158015618ae357600080fd5b505af1158015618af7573d6000803e3d6000fd5b50505050505050565b618b2981601a6000858152602001908152602001600020600a0154616f0890919063ffffffff16565b601a6000848152602001908152602001600020600a01819055505050565b60008060006101000a81548160ff021916908315150217905550565b600060095490506000618b80600183616f0890919063ffffffff16565b9050618b8a619b02565b601e6000838152602001908152602001600020604051806040016040529081600082015481526020016001820154815250509050618bd2816000015182602001516000616f27565b601e60008481526020019081526020016000206000808201600090556001820160009055505081600981905550505050565b6000808211618c1257600080fd5b6000828481618c1d57fe5b0490508091505092915050565b600073ffffffffffffffffffffffffffffffffffffffff168173ffffffffffffffffffffffffffffffffffffffff161415618c6457600080fd5b8073ffffffffffffffffffffffffffffffffffffffff16600160009054906101000a900473ffffffffffffffffffffffffffffffffffffffff1673ffffffffffffffffffffffffffffffffffffffff167f8be0079c531659141344cd1fd0a4f28419497f9722a3daafe3b4186f6b6457e060405160405180910390a380600160006101000a81548173ffffffffffffffffffffffffffffffffffffffff021916908373ffffffffffffffffffffffffffffffffffffffff16021790555050565b60006040825114618d9d576040517f08c379a00000000000000000000000000000000000000000000000000000000081526004018080602001828103825260078152602001807f6e6f74207075620000000000000000000000000000000000000000000000000081525060200191505060405180910390fd5b6000828051906020012060001c9050600073ffffffffffffffffffffffffffffffffffffffff168173ffffffffffffffffffffffffffffffffffffffff1614158015618e2857506000601b60008373ffffffffffffffffffffffffffffffffffffffff1673ffffffffffffffffffffffffffffffffffffffff16815260200190815260200160002054145b618e9a576040517f08c379a000000000000000000000000000000000000000000000000000000000815260040180806020018281038252600e8152602001807f496e76616c6964207369676e657200000000000000000000000000000000000081525060200191505060405180910390fd5b80915050919050565b618eac82618fae565b618eb581619481565b5050565b60016000806101000a81548160ff021916908315150217905550565b6000601a6000858152602001908152602001600020600b0154905082811015618f84576000601a60008681526020019081526020016000206000015490506000601a6000878152602001908152602001600020600a015490506000811115618f6b576000618f4c8284616f0890919063ffffffff16565b9050618f65878484618f608b868c8b61987a565b6198bd565b50618f81565b618f8086618f7b8885898861987a565b61998a565b5b50505b80821115618fa85781601a6000868152602001908152602001600020600b01819055505b50505050565b60006026805490509050600060266001830381548110618fca57fe5b9060005260206000200160009054906101000a900473ffffffffffffffffffffffffffffffffffffffff1690506026600183038154811061900757fe5b9060005260206000200160006101000a81549073ffffffffffffffffffffffffffffffffffffffff021916905560006001830390505b6000811115619127578373ffffffffffffffffffffffffffffffffffffffff168273ffffffffffffffffffffffffffffffffffffffff16141561907f57619127565b6026600182038154811061908f57fe5b9060005260206000200160009054906101000a900473ffffffffffffffffffffffffffffffffffffffff1682602660018403815481106190cb57fe5b9060005260206000200160008291906101000a81548173ffffffffffffffffffffffffffffffffffffffff021916908373ffffffffffffffffffffffffffffffffffffffff16021790555081935050508060019003905061903d565b50600182036026816191399190619b1c565b50505050565b6000808314156191525760009050619173565b600082840290508284828161916357fe5b041461916e57600080fd5b809150505b92915050565b600080600e5490506000600b549050600061919f83888161919657fe5b046029546199db565b90506000811180156191b357506027548114155b156191f9576000602754146191f15760006064602a548402816191d257fe5b0490508160275411156191e95780830192506191ef565b80830392505b505b806027819055505b6000838811156192ec576000602854905061927561925460646192466192378560028960018b03028161922857fe5b0461913f90919063ffffffff16565b8861913f90919063ffffffff16565b618c0490919063ffffffff16565b619267858761913f90919063ffffffff16565b6172e990919063ffffffff16565b915061929c61928d868561913f90919063ffffffff16565b8a6172e990919063ffffffff16565b98506192e86192d960646192cb846192bd888a61913f90919063ffffffff16565b61913f90919063ffffffff16565b618c0490919063ffffffff16565b856172e990919063ffffffff16565b9350505b61932361931485619306868c61913f90919063ffffffff16565b618c0490919063ffffffff16565b82616f0890919063ffffffff16565b905061934a8661933c898461913f90919063ffffffff16565b618c0490919063ffffffff16565b9050809450505050509392505050565b6000602454905060008090505b838110156193985761938d85828151811061937e57fe5b60200260200101518385618ed5565b806001019050619367565b5050505050565b60008060008314156193bd5760008081915080905091509150619478565b60006193e4846193d6878961913f90919063ffffffff16565b618c0490919063ffffffff16565b90506000601a6000898152602001908152602001600020600701549050600081111561945757619454619445606461943784619429878c6172e990919063ffffffff16565b61913f90919063ffffffff16565b618c0490919063ffffffff16565b83616f0890919063ffffffff16565b91505b600061946c83886172e990919063ffffffff16565b90508281945094505050505b94509492505050565b60268190806001815401808255809150509060018203906000526020600020016000909192909190916101000a81548173ffffffffffffffffffffffffffffffffffffffff021916908373ffffffffffffffffffffffffffffffffffffffff160217905550506000600160268054905003905060008190505b60008111156195df5760006026600183038154811061951557fe5b9060005260206000200160009054906101000a900473ffffffffffffffffffffffffffffffffffffffff1690508373ffffffffffffffffffffffffffffffffffffffff168173ffffffffffffffffffffffffffffffffffffffff16101561957c57506195df565b806026838154811061958a57fe5b9060005260206000200160006101000a81548173ffffffffffffffffffffffffffffffffffffffff021916908373ffffffffffffffffffffffffffffffffffffffff16021790555050806001900390506194fa565b81811461963d5782602682815481106195f457fe5b9060005260206000200160006101000a81548173ffffffffffffffffffffffffffffffffffffffff021916908373ffffffffffffffffffffffffffffffffffffffff1602179055505b505050565b60008082600001511415619659576000905061968b565b60008083602001519050805160001a915060c060ff168260ff1610156196845760009250505061968b565b6001925050505b919050565b600080826000015114156196a757600090506196fc565b600080905060006196bb8460200151619701565b84602001510190506000846000015185602001510190505b808210156196f5576196e48261978a565b8201915082806001019350506196d3565b8293505050505b919050565b600080825160001a9050608060ff16811015619721576000915050619785565b60b860ff16811080619746575060c060ff168110158015619745575060f860ff1681105b5b15619755576001915050619785565b60c060ff168110156197755760018060b80360ff16820301915050619785565b60018060f80360ff168203019150505b919050565b6000806000835160001a9050608060ff168110156197ab5760019150619838565b60b860ff168110156197c8576001608060ff168203019150619837565b60c060ff168110156197f85760b78103600185019450806020036101000a85510460018201810193505050619836565b60f860ff1681101561981557600160c060ff168203019150619835565b60f78103600185019450806020036101000a855104600182018101935050505b5b5b5b8192505050919050565b60008060006198548460200151619701565b905060008185602001510190506000828660000151039050818194509450505050915091565b60008082840390506198b26a084595161401484a0000006198a4878461913f90919063ffffffff16565b618c0490919063ffffffff16565b915050949350505050565b60006198d28484616f0890919063ffffffff16565b90506000806198e38787868661939f565b9150915060008111156199345761991981601a60008a815260200190815260200160002060090154616f0890919063ffffffff16565b601a6000898152602001908152602001600020600901819055505b60008211156199815761996682601a60008a815260200190815260200160002060010154616f0890919063ffffffff16565b601a6000898152602001908152602001600020600101819055505b50505050505050565b60008111156199d7576199bc81601a600085815260200190815260200160002060010154616f0890919063ffffffff16565b601a6000848152602001908152602001600020600101819055505b5050565b60008183106199ea57816199ec565b825b905092915050565b828054828255906000526020600020908101928215619a6d579160200282015b82811115619a6c5782518260006101000a81548173ffffffffffffffffffffffffffffffffffffffff021916908373ffffffffffffffffffffffffffffffffffffffff16021790555091602001919060010190619a14565b5b509050619a7a9190619b48565b5090565b6040518060a0016040528060008152602001600081526020016060815260200160608152602001600081525090565b60405180606001604052806000815260200160608152602001600081525090565b604051806040016040528060008152602001600081525090565b604051806040016040528060008152602001600081525090565b604051806040016040528060008152602001600081525090565b815481835581811115619b4357818360005260206000209182019101619b429190619b8b565b5b505050565b619b8891905b80821115619b8457600081816101000a81549073ffffffffffffffffffffffffffffffffffffffff021916905550600101619b4e565b5090565b90565b619bad91905b80821115619ba9576000816000905550600101619b91565b5090565b9056fe4f6e6c7920676f7665726e616e636520636f6e747261637420697320617574686f72697a6564a265627a7a72315820485bfdf6f7dffcacd83e276d0daae15088bbc31d6ec33940740d971b0769430b64736f6c63430005110032",
  "linkReferences": {
    "contracts/common/lib/Merkle.sol": {
      "Merkle": [
        {
          "length": 20,
          "start": 18279
        }
      ]
    }
  },
  "deployedLinkReferences": {
    "contracts/common/lib/Merkle.sol": {
      "Merkle": [
        {
          "length": 20,
          "start": 17972
        }
      ]
    }
  }
}