{
  "_format": "hh-sol-artifact-1",
  "contractName": "SlashingManager",
  "sourceName": "contracts/staking/slashing/SlashingManager.sol",
  "abi": [
    {
      "inputs": [
        {
          "internalType": "address",
          "name": "_registry",
          "type": "address"
        },
        {
          "internalType": "address",
          "name": "_logger",
          "type": "address"
        },
        {
          "internalType": "string",
          "name": "_heimdallId",
          "type": "string"
        }
      ],
      "payable": false,
      "stateMutability": "nonpayable",
      "type": "constructor"
    },
    {
      "anonymous": false,
      "inputs": [
        {
          "indexed": true,
          "internalType": "address",
          "name": "previousOwner",
          "type": "address"
        },
        {
          "indexed": true,
          "internalType": "address",
          "name": "newOwner",
          "type": "address"
        }
      ],
      "name": "OwnershipTransferred",
      "type": "event"
    },
    {
      "constant": true,
      "inputs": [],
      "name": "VOTE_TYPE",
      "outputs": [
        {
          "internalType": "uint8",
          "name": "",
          "type": "uint8"
        }
      ],
      "payable": false,
      "stateMutability": "view",
      "type": "function"
    },
    {
      "constant": false,
      "inputs": [
        {
          "internalType": "uint256",
          "name": "value",
          "type": "uint256"
        },
        {
          "internalType": "address",
          "name": "token",
          "type": "address"
        },
        {
          "internalType": "address",
          "name": "destination",
          "type": "address"
        }
      ],
      "name": "drainTokens",
      "outputs": [],
      "payable": false,
      "stateMutability": "nonpayable",
      "type": "function"
    },
    {
      "constant": true,
      "inputs": [],
      "name": "heimdallId",
      "outputs": [
        {
          "internalType": "bytes32",
          "name": "",
          "type": "bytes32"
        }
      ],
      "payable": false,
      "stateMutability": "view",
      "type": "function"
    },
    {
      "constant": true,
      "inputs": [],
      "name": "isOwner",
      "outputs": [
        {
          "internalType": "bool",
          "name": "",
          "type": "bool"
        }
      ],
      "payable": false,
      "stateMutability": "view",
      "type": "function"
    },
    {
      "constant": true,
      "inputs": [],
      "name": "jailCheckpoints",
      "outputs": [
        {
          "internalType": "uint256",
          "name": "",
          "type": "uint256"
        }
      ],
      "payable": false,
      "stateMutability": "view",
      "type": "function"
    },
    {
      "constant": true,
      "inputs": [],
      "name": "logger",
      "outputs": [
        {
          "internalType": "contract StakingInfo",
          "name": "",
          "type": "address"
        }
      ],
      "payable": false,
      "stateMutability": "view",
      "type": "function"
    },
    {
      "constant": true,
      "inputs": [],
      "name": "owner",
      "outputs": [
        {
          "internalType": "address",
          "name": "",
          "type": "address"
        }
      ],
      "payable": false,
      "stateMutability": "view",
      "type": "function"
    },
    {
      "constant": true,
      "inputs": [],
      "name": "proposerRate",
      "outputs": [
        {
          "internalType": "uint256",
          "name": "",
          "type": "uint256"
        }
      ],
      "payable": false,
      "stateMutability": "view",
      "type": "function"
    },
    {
      "constant": true,
      "inputs": [],
      "name": "registry",
      "outputs": [
        {
          "internalType": "contract Registry",
          "name": "",
          "type": "address"
        }
      ],
      "payable": false,
      "stateMutability": "view",
      "type": "function"
    },
    {
      "constant": false,
      "inputs": [],
      "name": "renounceOwnership",
      "outputs": [],
      "payable": false,
      "stateMutability": "nonpayable",
      "type": "function"
    },
    {
      "constant": true,
      "inputs": [],
      "name": "reportRate",
      "outputs": [
        {
          "internalType": "uint256",
          "name": "",
          "type": "uint256"
        }
      ],
      "payable": false,
      "stateMutability": "view",
      "type": "function"
    },
    {
      "constant": false,
      "inputs": [
        {
          "internalType": "string",
          "name": "_heimdallId",
          "type": "string"
        }
      ],
      "name": "setHeimdallId",
      "outputs": [],
      "payable": false,
      "stateMutability": "nonpayable",
      "type": "function"
    },
    {
      "constant": true,
      "inputs": [],
      "name": "slashingNonce",
      "outputs": [
        {
          "internalType": "uint256",
          "name": "",
          "type": "uint256"
        }
      ],
      "payable": false,
      "stateMutability": "view",
      "type": "function"
    },
    {
      "constant": false,
      "inputs": [
        {
          "internalType": "address",
          "name": "newOwner",
          "type": "address"
        }
      ],
      "name": "transferOwnership",
      "outputs": [],
      "payable": false,
      "stateMutability": "nonpayable",
      "type": "function"
    },
    {
      "constant": false,
      "inputs": [
        {
          "internalType": "uint256",
          "name": "newProposerRate",
          "type": "uint256"
        }
      ],
      "name": "updateProposerRate",
      "outputs": [],
      "payable": false,
      "stateMutability": "nonpayable",
      "type": "function"
    },
    {
      "constant": false,
      "inputs": [
        {
          "internalType": "uint256",
          "name": "newReportRate",
          "type": "uint256"
        }
      ],
      "name": "updateReportRate",
      "outputs": [],
      "payable": false,
      "stateMutability": "nonpayable",
      "type": "function"
    },
    {
      "constant": false,
      "inputs": [
        {
          "internalType": "bytes",
          "name": "data",
          "type": "bytes"
        },
        {
          "internalType": "bytes",
          "name": "sigs",
          "type": "bytes"
        }
      ],
      "name": "updateSlashedAmounts",
      "outputs": [],
      "payable": false,
      "stateMutability": "nonpayable",
      "type": "function"
    },
    {
      "constant": true,
      "inputs": [
        {
          "internalType": "bytes32",
          "name": "voteHash",
          "type": "bytes32"
        },
        {
          "internalType": "bytes",
          "name": "sigs",
          "type": "bytes"
        }
      ],
      "name": "verifyConsensus",
      "outputs": [
        {
          "internalType": "bool",
          "name": "",
          "type": "bool"
        }
      ],
      "payable": false,
      "stateMutability": "view",
      "type": "function"
    }
  ],
  "bytecode": "0x60806040526005600155603260025560056003553480156200002057600080fd5b506040516200200138038062002001833981810160405260608110156200004657600080fd5b810190808051906020019092919080519060200190929190805160405193929190846401000000008211156200007b57600080fd5b838201915060208201858111156200009257600080fd5b8251866001820283011164010000000082111715620000b057600080fd5b8083526020830192505050908051906020019080838360005b83811015620000e6578082015181840152602081019050620000c9565b50505050905090810190601f168015620001145780820380516001836020036101000a031916815260200191505b5060405250505033600760006101000a81548173ffffffffffffffffffffffffffffffffffffffff021916908373ffffffffffffffffffffffffffffffffffffffff160217905550600760009054906101000a900473ffffffffffffffffffffffffffffffffffffffff1673ffffffffffffffffffffffffffffffffffffffff16600073ffffffffffffffffffffffffffffffffffffffff167f8be0079c531659141344cd1fd0a4f28419497f9722a3daafe3b4186f6b6457e060405160405180910390a382600560006101000a81548173ffffffffffffffffffffffffffffffffffffffff021916908373ffffffffffffffffffffffffffffffffffffffff16021790555081600660006101000a81548173ffffffffffffffffffffffffffffffffffffffff021916908373ffffffffffffffffffffffffffffffffffffffff160217905550806040516020018082805190602001908083835b602083106200029457805182526020820191506020810190506020830392506200026f565b6001836020036101000a03801982511681845116808217855250505050505090500191505060405160208183030381529060405280519060200120600081905550505050611d1980620002e86000396000f3fe608060405234801561001057600080fd5b50600436106101165760003560e01c8063b7a071e9116100a2578063e5bbd4a711610071578063e5bbd4a714610542578063ea0688b314610570578063f24ccbfe1461062b578063f2fde38b14610675578063fbc3dd36146106b957610116565b8063b7a071e9146103f5578063bbcfbbb014610423578063c25593be14610500578063d5b844eb1461051e57610116565b8063715018a6116100e9578063715018a6146103175780637b103999146103215780638da5cb5b1461036b5780638f32d59b146103b5578063a2d32176146103d757610116565b80633199e3051461011b57806343f7505a14610139578063556b2ce9146101a757806367a4f7c6146101c5575b600080fd5b6101236106d7565b6040518082815260200191505060405180910390f35b6101a56004803603606081101561014f57600080fd5b8101908080359060200190929190803573ffffffffffffffffffffffffffffffffffffffff169060200190929190803573ffffffffffffffffffffffffffffffffffffffff1690602001909291905050506106dd565b005b6101af610827565b6040518082815260200191505060405180910390f35b610315600480360360408110156101db57600080fd5b81019080803590602001906401000000008111156101f857600080fd5b82018360208201111561020a57600080fd5b8035906020019184600183028401116401000000008311171561022c57600080fd5b91908080601f016020809104026020016040519081016040528093929190818152602001838380828437600081840152601f19601f8201169050808301925050505050505091929192908035906020019064010000000081111561028f57600080fd5b8201836020820111156102a157600080fd5b803590602001918460018302840111640100000000831117156102c357600080fd5b91908080601f016020809104026020016040519081016040528093929190818152602001838380828437600081840152601f19601f82011690508083019250505050505050919291929050505061082d565b005b61031f6111d4565b005b6103296112a6565b604051808273ffffffffffffffffffffffffffffffffffffffff1673ffffffffffffffffffffffffffffffffffffffff16815260200191505060405180910390f35b6103736112cc565b604051808273ffffffffffffffffffffffffffffffffffffffff1673ffffffffffffffffffffffffffffffffffffffff16815260200191505060405180910390f35b6103bd6112f6565b604051808215151515815260200191505060405180910390f35b6103df61134e565b6040518082815260200191505060405180910390f35b6104216004803603602081101561040b57600080fd5b8101908080359060200190929190505050611354565b005b6104e66004803603604081101561043957600080fd5b81019080803590602001909291908035906020019064010000000081111561046057600080fd5b82018360208201111561047257600080fd5b8035906020019184600183028401116401000000008311171561049457600080fd5b91908080601f016020809104026020016040519081016040528093929190818152602001838380828437600081840152601f19601f82011690508083019250505050505050919291929050505061137c565b604051808215151515815260200191505060405180910390f35b610508611895565b6040518082815260200191505060405180910390f35b61052661189b565b604051808260ff1660ff16815260200191505060405180910390f35b61056e6004803603602081101561055857600080fd5b81019080803590602001909291905050506118a0565b005b6106296004803603602081101561058657600080fd5b81019080803590602001906401000000008111156105a357600080fd5b8201836020820111156105b557600080fd5b803590602001918460018302840111640100000000831117156105d757600080fd5b91908080601f016020809104026020016040519081016040528093929190818152602001838380828437600081840152601f19601f8201169050808301925050505050505091929192905050506118c8565b005b610633611954565b604051808273ffffffffffffffffffffffffffffffffffffffff1673ffffffffffffffffffffffffffffffffffffffff16815260200191505060405180910390f35b6106b76004803603602081101561068b57600080fd5b81019080803573ffffffffffffffffffffffffffffffffffffffff16906020019092919050505061197a565b005b6106c1611997565b6040518082815260200191505060405180910390f35b60025481565b6106e56112f6565b6106ee57600080fd5b8173ffffffffffffffffffffffffffffffffffffffff1663a9059cbb82856040518363ffffffff1660e01b8152600401808373ffffffffffffffffffffffffffffffffffffffff1673ffffffffffffffffffffffffffffffffffffffff16815260200182815260200192505050602060405180830381600087803b15801561077557600080fd5b505af1158015610789573d6000803e3d6000fd5b505050506040513d602081101561079f57600080fd5b8101908080519060200190929190505050610822576040517f08c379a000000000000000000000000000000000000000000000000000000000815260040180806020018281038252600f8152602001807f5472616e73666572206661696c6564000000000000000000000000000000000081525060200191505060405180910390fd5b505050565b60035481565b600080606084806020019051606081101561084757600080fd5b8101908080519060200190929190805190602001909291908051604051939291908464010000000082111561087b57600080fd5b8382019150602082018581111561089157600080fd5b82518660018202830111640100000000821117156108ae57600080fd5b8083526020830192505050908051906020019080838360005b838110156108e25780820151818401526020810190506108c7565b50505050905090810190601f16801561090f5780820380516001836020036101000a031916815260200191505b50604052505050925092509250610932600160045461199d90919063ffffffff16565b60048190555082600454146109af576040517f08c379a00000000000000000000000000000000000000000000000000000000081526004018080602001828103825260168152602001807f496e76616c696420736c617368696e67206e6f6e63650000000000000000000081525060200191505060405180910390fd5b6000600560009054906101000a900473ffffffffffffffffffffffffffffffffffffffff1673ffffffffffffffffffffffffffffffffffffffff1663287be3e46040518163ffffffff1660e01b815260040160206040518083038186803b158015610a1957600080fd5b505afa158015610a2d573d6000803e3d6000fd5b505050506040513d6020811015610a4357600080fd5b81019080805190602001909291905050509050600080610b5c6040518060400160405280600181526020017f0100000000000000000000000000000000000000000000000000000000000000815250896040516020018083805190602001908083835b60208310610ac95780518252602082019150602081019050602083039250610aa6565b6001836020036101000a03801982511681845116808217855250505050505090500182805190602001908083835b60208310610b1a5780518252602082019150602081019050602083039250610af7565b6001836020036101000a03801982511681845116808217855250505050505090500192505050604051602081830303815290604052805190602001208861137c565b610bce576040517f08c379a00000000000000000000000000000000000000000000000000000000081526004018080602001828103825260148152602001807f322f332b3120506f77657220726571756972656400000000000000000000000081525060200191505060405180910390fd5b60008373ffffffffffffffffffffffffffffffffffffffff16635e47655f866040518263ffffffff1660e01b81526004018080602001828103825283818151815260200191508051906020019080838360005b83811015610c3c578082015181840152602081019050610c21565b50505050905090810190601f168015610c695780820380516001836020036101000a031916815260200191505b5092505050602060405180830381600087803b158015610c8857600080fd5b505af1158015610c9c573d6000803e3d6000fd5b505050506040513d6020811015610cb257600080fd5b81019080805190602001909291905050509050600660009054906101000a900473ffffffffffffffffffffffffffffffffffffffff1673ffffffffffffffffffffffffffffffffffffffff1663fb77c94e88836040518363ffffffff1660e01b81526004018083815260200182815260200192505050600060405180830381600087803b158015610d4257600080fd5b505af1158015610d56573d6000803e3d6000fd5b505050506000610d846064610d76600154856119bc90919063ffffffff16565b6119f690919063ffffffff16565b9050610d998183611a1c90919063ffffffff16565b91508473ffffffffffffffffffffffffffffffffffffffff1663bc8756a9600084306040518463ffffffff1660e01b8152600401808481526020018381526020018273ffffffffffffffffffffffffffffffffffffffff1673ffffffffffffffffffffffffffffffffffffffff1681526020019350505050602060405180830381600087803b158015610e2b57600080fd5b505af1158015610e3f573d6000803e3d6000fd5b505050506040513d6020811015610e5557600080fd5b8101908080519060200190929190505050610ed8576040517f08c379a000000000000000000000000000000000000000000000000000000000815260040180806020018281038252600f8152602001807f5472616e73666572206661696c6564000000000000000000000000000000000081525060200191505060405180910390fd5b8673ffffffffffffffffffffffffffffffffffffffff163373ffffffffffffffffffffffffffffffffffffffff161461108b576000610f356064610f27600254856119bc90919063ffffffff16565b6119f690919063ffffffff16565b90508573ffffffffffffffffffffffffffffffffffffffff1663bc8756a96000838b6040518463ffffffff1660e01b8152600401808481526020018381526020018273ffffffffffffffffffffffffffffffffffffffff1673ffffffffffffffffffffffffffffffffffffffff1681526020019350505050602060405180830381600087803b158015610fc757600080fd5b505af1158015610fdb573d6000803e3d6000fd5b505050506040513d6020811015610ff157600080fd5b8101908080519060200190929190505050611074576040517f08c379a00000000000000000000000000000000000000000000000000000000081526004018080602001828103825260168152602001807f426f756e7479207472616e73666572206661696c65640000000000000000000081525060200191505060405180910390fd5b6110878183611a1c90919063ffffffff16565b9150505b8473ffffffffffffffffffffffffffffffffffffffff1663bc8756a9600083336040518463ffffffff1660e01b8152600401808481526020018381526020018273ffffffffffffffffffffffffffffffffffffffff1673ffffffffffffffffffffffffffffffffffffffff1681526020019350505050602060405180830381600087803b15801561111b57600080fd5b505af115801561112f573d6000803e3d6000fd5b505050506040513d602081101561114557600080fd5b81019080805190602001909291905050506111c8576040517f08c379a00000000000000000000000000000000000000000000000000000000081526004018080602001828103825260168152602001807f426f756e7479207472616e73666572206661696c65640000000000000000000081525060200191505060405180910390fd5b50505050505050505050565b6111dc6112f6565b6111e557600080fd5b600073ffffffffffffffffffffffffffffffffffffffff16600760009054906101000a900473ffffffffffffffffffffffffffffffffffffffff1673ffffffffffffffffffffffffffffffffffffffff167f8be0079c531659141344cd1fd0a4f28419497f9722a3daafe3b4186f6b6457e060405160405180910390a36000600760006101000a81548173ffffffffffffffffffffffffffffffffffffffff021916908373ffffffffffffffffffffffffffffffffffffffff160217905550565b600560009054906101000a900473ffffffffffffffffffffffffffffffffffffffff1681565b6000600760009054906101000a900473ffffffffffffffffffffffffffffffffffffffff16905090565b6000600760009054906101000a900473ffffffffffffffffffffffffffffffffffffffff1673ffffffffffffffffffffffffffffffffffffffff163373ffffffffffffffffffffffffffffffffffffffff1614905090565b60045481565b61135c6112f6565b61136557600080fd5b6000811161137257600080fd5b8060018190555050565b600080600560009054906101000a900473ffffffffffffffffffffffffffffffffffffffff1673ffffffffffffffffffffffffffffffffffffffff1663287be3e46040518163ffffffff1660e01b815260040160206040518083038186803b1580156113e757600080fd5b505afa1580156113fb573d6000803e3d6000fd5b505050506040513d602081101561141157600080fd5b8101908080519060200190929190505050905060008060008090505b85518167ffffffffffffffff1610156117cc576060611458878367ffffffffffffffff166041611a3c565b9050600061146f828a611ac890919063ffffffff16565b905060008673ffffffffffffffffffffffffffffffffffffffff16633862da0b836040518263ffffffff1660e01b8152600401808273ffffffffffffffffffffffffffffffffffffffff1673ffffffffffffffffffffffffffffffffffffffff16815260200191505060206040518083038186803b1580156114f057600080fd5b505afa158015611504573d6000803e3d6000fd5b505050506040513d602081101561151a57600080fd5b810190808051906020019092919050505090508473ffffffffffffffffffffffffffffffffffffffff168273ffffffffffffffffffffffffffffffffffffffff161415611569575050506117cc565b8673ffffffffffffffffffffffffffffffffffffffff16632649263a826040518263ffffffff1660e01b81526004018082815260200191505060206040518083038186803b1580156115ba57600080fd5b505afa1580156115ce573d6000803e3d6000fd5b505050506040513d60208110156115e457600080fd5b8101908080519060200190929190505050801561162c57508473ffffffffffffffffffffffffffffffffffffffff168273ffffffffffffffffffffffffffffffffffffffff16115b156117be578194506000808873ffffffffffffffffffffffffffffffffffffffff166335aa2e44846040518263ffffffff1660e01b8152600401808281526020019150506101a06040518083038186803b15801561168957600080fd5b505afa15801561169d573d6000803e3d6000fd5b505050506040513d6101a08110156116b457600080fd5b8101908080519060200190929190805190602001909291908051906020019092919080519060200190929190805190602001909291908051906020019092919080519060200190929190805190602001909291908051906020019092919080519060200190929190805190602001909291908051906020019092919080519060200190929190505050909192939495969798999a509091929394959697989950909192939495969798509091929394959697509091929394959650909192939495509091929394509091929350909192509091505080925081935050506117a4818361199d90919063ffffffff16565b91506117b9828961199d90919063ffffffff16565b975050505b50505060418101905061142d565b506118876001611879600361186b60028873ffffffffffffffffffffffffffffffffffffffff1663a47690716040518163ffffffff1660e01b815260040160206040518083038186803b15801561182257600080fd5b505afa158015611836573d6000803e3d6000fd5b505050506040513d602081101561184c57600080fd5b81019080805190602001909291905050506119bc90919063ffffffff16565b6119f690919063ffffffff16565b61199d90919063ffffffff16565b821015935050505092915050565b60015481565b600281565b6118a86112f6565b6118b157600080fd5b600081116118be57600080fd5b8060028190555050565b6118d06112f6565b6118d957600080fd5b806040516020018082805190602001908083835b6020831061191057805182526020820191506020810190506020830392506118ed565b6001836020036101000a0380198251168184511680821785525050505050509050019150506040516020818303038152906040528051906020012060008190555050565b600660009054906101000a900473ffffffffffffffffffffffffffffffffffffffff1681565b6119826112f6565b61198b57600080fd5b61199481611bea565b50565b60005481565b6000808284019050838110156119b257600080fd5b8091505092915050565b6000808314156119cf57600090506119f0565b60008284029050828482816119e057fe5b04146119eb57600080fd5b809150505b92915050565b6000808211611a0457600080fd5b6000828481611a0f57fe5b0490508091505092915050565b600082821115611a2b57600080fd5b600082840390508091505092915050565b606081830184511015611a4e57600080fd5b6060821560008114611a6b57604051915060208201604052611abc565b6040519150601f8416801560200281840101858101878315602002848b0101015b81831015611aa95780518352602083019250602081019050611a8c565b50868552601f19601f8301166040525050505b50809150509392505050565b6000806000806041855114611ae35760009350505050611be4565b602085015192506040850151915060ff6041860151169050601b8160ff161015611b0e57601b810190505b601b8160ff1614158015611b265750601c8160ff1614155b15611b375760009350505050611be4565b600060018783868660405160008152602001604052604051808581526020018460ff1660ff1681526020018381526020018281526020019450505050506020604051602081039080840390855afa158015611b96573d6000803e3d6000fd5b505050602060405103519050600073ffffffffffffffffffffffffffffffffffffffff168173ffffffffffffffffffffffffffffffffffffffff161415611bdc57600080fd5b809450505050505b92915050565b600073ffffffffffffffffffffffffffffffffffffffff168173ffffffffffffffffffffffffffffffffffffffff161415611c2457600080fd5b8073ffffffffffffffffffffffffffffffffffffffff16600760009054906101000a900473ffffffffffffffffffffffffffffffffffffffff1673ffffffffffffffffffffffffffffffffffffffff167f8be0079c531659141344cd1fd0a4f28419497f9722a3daafe3b4186f6b6457e060405160405180910390a380600760006101000a81548173ffffffffffffffffffffffffffffffffffffffff021916908373ffffffffffffffffffffffffffffffffffffffff1602179055505056fea265627a7a72315820b7ee8ca6a5604306113603084ece5708ac3047a0794f748c9f73c49c53c224d964736f6c63430005110032",
  "linkReferences": {},
  "deployedLinkReferences": {}
}