{
  "_format": "hh-sol-artifact-1",
  "contractName": "MRC20",
  "sourceName": "contracts/child/MRC20.sol",
  "abi": [
    {
      "inputs": [],
      "payable": false,
      "stateMutability": "nonpayable",
      "type": "constructor"
    },
    {
      "anonymous": false,
      "inputs": [
        {
          "indexed": true,
          "internalType": "address",
          "name": "previousAddress",
          "type": "address"
        },
        {
          "indexed": true,
          "internalType": "address",
          "name": "newAddress",
          "type": "address"
        }
      ],
      "name": "ChildChainChanged",
      "type": "event"
    },
    {
      "anonymous": false,
      "inputs": [
        {
          "indexed": true,
          "internalType": "address",
          "name": "token",
          "type": "address"
        },
        {
          "indexed": true,
          "internalType": "address",
          "name": "from",
          "type": "address"
        },
        {
          "indexed": false,
          "internalType": "uint256",
          "name": "amount",
          "type": "uint256"
        },
        {
          "indexed": false,
          "internalType": "uint256",
          "name": "input1",
          "type": "uint256"
        },
        {
          "indexed": false,
          "internalType": "uint256",
          "name": "output1",
          "type": "uint256"
        }
      ],
      "name": "Deposit",
      "type": "event"
    },
    {
      "anonymous": false,
      "inputs": [
        {
          "indexed": true,
          "internalType": "address",
          "name": "token",
          "type": "address"
        },
        {
          "indexed": true,
          "internalType": "address",
          "name": "from",
          "type": "address"
        },
        {
          "indexed": true,
          "internalType": "address",
          "name": "to",
          "type": "address"
        },
        {
          "indexed": false,
          "internalType": "uint256",
          "name": "amount",
          "type": "uint256"
        },
        {
          "indexed": false,
          "internalType": "uint256",
          "name": "input1",
          "type": "uint256"
        },
        {
          "indexed": false,
          "internalType": "uint256",
          "name": "input2",
          "type": "uint256"
        },
        {
          "indexed": false,
          "internalType": "uint256",
          "name": "output1",
          "type": "uint256"
        },
        {
          "indexed": false,
          "internalType": "uint256",
          "name": "output2",
          "type": "uint256"
        }
      ],
      "name": "LogFeeTransfer",
      "type": "event"
    },
    {
      "anonymous": false,
      "inputs": [
        {
          "indexed": true,
          "internalType": "address",
          "name": "token",
          "type": "address"
        },
        {
          "indexed": true,
          "internalType": "address",
          "name": "from",
          "type": "address"
        },
        {
          "indexed": true,
          "internalType": "address",
          "name": "to",
          "type": "address"
        },
        {
          "indexed": false,
          "internalType": "uint256",
          "name": "amount",
          "type": "uint256"
        },
        {
          "indexed": false,
          "internalType": "uint256",
          "name": "input1",
          "type": "uint256"
        },
        {
          "indexed": false,
          "internalType": "uint256",
          "name": "input2",
          "type": "uint256"
        },
        {
          "indexed": false,
          "internalType": "uint256",
          "name": "output1",
          "type": "uint256"
        },
        {
          "indexed": false,
          "internalType": "uint256",
          "name": "output2",
          "type": "uint256"
        }
      ],
      "name": "LogTransfer",
      "type": "event"
    },
    {
      "anonymous": false,
      "inputs": [
        {
          "indexed": true,
          "internalType": "address",
          "name": "previousOwner",
          "type": "address"
        },
        {
          "indexed": true,
          "internalType": "address",
          "name": "newOwner",
          "type": "address"
        }
      ],
      "name": "OwnershipTransferred",
      "type": "event"
    },
    {
      "anonymous": false,
      "inputs": [
        {
          "indexed": true,
          "internalType": "address",
          "name": "previousAddress",
          "type": "address"
        },
        {
          "indexed": true,
          "internalType": "address",
          "name": "newAddress",
          "type": "address"
        }
      ],
      "name": "ParentChanged",
      "type": "event"
    },
    {
      "anonymous": false,
      "inputs": [
        {
          "indexed": true,
          "internalType": "address",
          "name": "from",
          "type": "address"
        },
        {
          "indexed": true,
          "internalType": "address",
          "name": "to",
          "type": "address"
        },
        {
          "indexed": false,
          "internalType": "uint256",
          "name": "value",
          "type": "uint256"
        }
      ],
      "name": "Transfer",
      "type": "event"
    },
    {
      "anonymous": false,
      "inputs": [
        {
          "indexed": true,
          "internalType": "address",
          "name": "token",
          "type": "address"
        },
        {
          "indexed": true,
          "internalType": "address",
          "name": "from",
          "type": "address"
        },
        {
          "indexed": false,
          "internalType": "uint256",
          "name": "amount",
          "type": "uint256"
        },
        {
          "indexed": false,
          "internalType": "uint256",
          "name": "input1",
          "type": "uint256"
        },
        {
          "indexed": false,
          "internalType": "uint256",
          "name": "output1",
          "type": "uint256"
        }
      ],
      "name": "Withdraw",
      "type": "event"
    },
    {
      "constant": true,
      "inputs": [],
      "name": "CHAINID",
      "outputs": [
        {
          "internalType": "uint256",
          "name": "",
          "type": "uint256"
        }
      ],
      "payable": false,
      "stateMutability": "view",
      "type": "function"
    },
    {
      "constant": true,
      "inputs": [],
      "name": "EIP712_DOMAIN_HASH",
      "outputs": [
        {
          "internalType": "bytes32",
          "name": "",
          "type": "bytes32"
        }
      ],
      "payable": false,
      "stateMutability": "view",
      "type": "function"
    },
    {
      "constant": true,
      "inputs": [],
      "name": "EIP712_DOMAIN_SCHEMA_HASH",
      "outputs": [
        {
          "internalType": "bytes32",
          "name": "",
          "type": "bytes32"
        }
      ],
      "payable": false,
      "stateMutability": "view",
      "type": "function"
    },
    {
      "constant": true,
      "inputs": [],
      "name": "EIP712_TOKEN_TRANSFER_ORDER_SCHEMA_HASH",
      "outputs": [
        {
          "internalType": "bytes32",
          "name": "",
          "type": "bytes32"
        }
      ],
      "payable": false,
      "stateMutability": "view",
      "type": "function"
    },
    {
      "constant": true,
      "inputs": [
        {
          "internalType": "address",
          "name": "account",
          "type": "address"
        }
      ],
      "name": "balanceOf",
      "outputs": [
        {
          "internalType": "uint256",
          "name": "",
          "type": "uint256"
        }
      ],
      "payable": false,
      "stateMutability": "view",
      "type": "function"
    },
    {
      "constant": false,
      "inputs": [
        {
          "internalType": "address",
          "name": "newAddress",
          "type": "address"
        }
      ],
      "name": "changeChildChain",
      "outputs": [],
      "payable": false,
      "stateMutability": "nonpayable",
      "type": "function"
    },
    {
      "constant": true,
      "inputs": [],
      "name": "childChain",
      "outputs": [
        {
          "internalType": "address",
          "name": "",
          "type": "address"
        }
      ],
      "payable": false,
      "stateMutability": "view",
      "type": "function"
    },
    {
      "constant": true,
      "inputs": [],
      "name": "currentSupply",
      "outputs": [
        {
          "internalType": "uint256",
          "name": "",
          "type": "uint256"
        }
      ],
      "payable": false,
      "stateMutability": "view",
      "type": "function"
    },
    {
      "constant": true,
      "inputs": [],
      "name": "decimals",
      "outputs": [
        {
          "internalType": "uint8",
          "name": "",
          "type": "uint8"
        }
      ],
      "payable": false,
      "stateMutability": "pure",
      "type": "function"
    },
    {
      "constant": false,
      "inputs": [
        {
          "internalType": "address",
          "name": "user",
          "type": "address"
        },
        {
          "internalType": "uint256",
          "name": "amount",
          "type": "uint256"
        }
      ],
      "name": "deposit",
      "outputs": [],
      "payable": false,
      "stateMutability": "nonpayable",
      "type": "function"
    },
    {
      "constant": true,
      "inputs": [
        {
          "internalType": "bytes32",
          "name": "",
          "type": "bytes32"
        }
      ],
      "name": "disabledHashes",
      "outputs": [
        {
          "internalType": "bool",
          "name": "",
          "type": "bool"
        }
      ],
      "payable": false,
      "stateMutability": "view",
      "type": "function"
    },
    {
      "constant": true,
      "inputs": [
        {
          "internalType": "bytes32",
          "name": "hash",
          "type": "bytes32"
        },
        {
          "internalType": "bytes",
          "name": "sig",
          "type": "bytes"
        }
      ],
      "name": "ecrecovery",
      "outputs": [
        {
          "internalType": "address",
          "name": "result",
          "type": "address"
        }
      ],
      "payable": false,
      "stateMutability": "pure",
      "type": "function"
    },
    {
      "constant": true,
      "inputs": [
        {
          "internalType": "address",
          "name": "spender",
          "type": "address"
        },
        {
          "internalType": "uint256",
          "name": "tokenIdOrAmount",
          "type": "uint256"
        },
        {
          "internalType": "bytes32",
          "name": "data",
          "type": "bytes32"
        },
        {
          "internalType": "uint256",
          "name": "expiration",
          "type": "uint256"
        }
      ],
      "name": "getTokenTransferOrderHash",
      "outputs": [
        {
          "internalType": "bytes32",
          "name": "orderHash",
          "type": "bytes32"
        }
      ],
      "payable": false,
      "stateMutability": "view",
      "type": "function"
    },
    {
      "constant": false,
      "inputs": [
        {
          "internalType": "address",
          "name": "_childChain",
          "type": "address"
        },
        {
          "internalType": "address",
          "name": "_token",
          "type": "address"
        }
      ],
      "name": "initialize",
      "outputs": [],
      "payable": false,
      "stateMutability": "nonpayable",
      "type": "function"
    },
    {
      "constant": true,
      "inputs": [],
      "name": "isOwner",
      "outputs": [
        {
          "internalType": "bool",
          "name": "",
          "type": "bool"
        }
      ],
      "payable": false,
      "stateMutability": "view",
      "type": "function"
    },
    {
      "constant": true,
      "inputs": [],
      "name": "name",
      "outputs": [
        {
          "internalType": "string",
          "name": "",
          "type": "string"
        }
      ],
      "payable": false,
      "stateMutability": "pure",
      "type": "function"
    },
    {
      "constant": true,
      "inputs": [],
      "name": "networkId",
      "outputs": [
        {
          "internalType": "bytes",
          "name": "",
          "type": "bytes"
        }
      ],
      "payable": false,
      "stateMutability": "view",
      "type": "function"
    },
    {
      "constant": true,
      "inputs": [],
      "name": "owner",
      "outputs": [
        {
          "internalType": "address",
          "name": "",
          "type": "address"
        }
      ],
      "payable": false,
      "stateMutability": "view",
      "type": "function"
    },
    {
      "constant": true,
      "inputs": [],
      "name": "parent",
      "outputs": [
        {
          "internalType": "address",
          "name": "",
          "type": "address"
        }
      ],
      "payable": false,
      "stateMutability": "view",
      "type": "function"
    },
    {
      "constant": false,
      "inputs": [],
      "name": "renounceOwnership",
      "outputs": [],
      "payable": false,
      "stateMutability": "nonpayable",
      "type": "function"
    },
    {
      "constant": false,
      "inputs": [
        {
          "internalType": "address",
          "name": "",
          "type": "address"
        }
      ],
      "name": "setParent",
      "outputs": [],
      "payable": false,
      "stateMutability": "nonpayable",
      "type": "function"
    },
    {
      "constant": true,
      "inputs": [],
      "name": "symbol",
      "outputs": [
        {
          "internalType": "string",
          "name": "",
          "type": "string"
        }
      ],
      "payable": false,
      "stateMutability": "pure",
      "type": "function"
    },
    {
      "constant": true,
      "inputs": [],
      "name": "token",
      "outputs": [
        {
          "internalType": "address",
          "name": "",
          "type": "address"
        }
      ],
      "payable": false,
      "stateMutability": "view",
      "type": "function"
    },
    {
      "constant": true,
      "inputs": [],
      "name": "totalSupply",
      "outputs": [
        {
          "internalType": "uint256",
          "name": "",
          "type": "uint256"
        }
      ],
      "payable": false,
      "stateMutability": "view",
      "type": "function"
    },
    {
      "constant": false,
      "inputs": [
        {
          "internalType": "address",
          "name": "to",
          "type": "address"
        },
        {
          "internalType": "uint256",
          "name": "value",
          "type": "uint256"
        }
      ],
      "name": "transfer",
      "outputs": [
        {
          "internalType": "bool",
          "name": "",
          "type": "bool"
        }
      ],
      "payable": true,
      "stateMutability": "payable",
      "type": "function"
    },
    {
      "constant": false,
      "inputs": [
        {
          "internalType": "address",
          "name": "newOwner",
          "type": "address"
        }
      ],
      "name": "transferOwnership",
      "outputs": [],
      "payable": false,
      "stateMutability": "nonpayable",
      "type": "function"
    },
    {
      "constant": false,
      "inputs": [
        {
          "internalType": "bytes",
          "name": "sig",
          "type": "bytes"
        },
        {
          "internalType": "uint256",
          "name": "amount",
          "type": "uint256"
        },
        {
          "internalType": "bytes32",
          "name": "data",
          "type": "bytes32"
        },
        {
          "internalType": "uint256",
          "name": "expiration",
          "type": "uint256"
        },
        {
          "internalType": "address",
          "name": "to",
          "type": "address"
        }
      ],
      "name": "transferWithSig",
      "outputs": [
        {
          "internalType": "address",
          "name": "from",
          "type": "address"
        }
      ],
      "payable": false,
      "stateMutability": "nonpayable",
      "type": "function"
    },
    {
      "constant": false,
      "inputs": [
        {
          "internalType": "uint256",
          "name": "amount",
          "type": "uint256"
        }
      ],
      "name": "withdraw",
      "outputs": [],
      "payable": true,
      "stateMutability": "payable",
      "type": "function"
    }
  ],
  "bytecode": "0x6080604052600060065534801561001557600080fd5b50336000806101000a81548173ffffffffffffffffffffffffffffffffffffffff021916908373ffffffffffffffffffffffffffffffffffffffff1602179055506000809054906101000a900473ffffffffffffffffffffffffffffffffffffffff1673ffffffffffffffffffffffffffffffffffffffff16600073ffffffffffffffffffffffffffffffffffffffff167f8be0079c531659141344cd1fd0a4f28419497f9722a3daafe3b4186f6b6457e060405160405180910390a3604051806080016040528060528152602001612600605291396040516020018082805190602001908083835b6020831061012157805182526020820191506020810190506020830392506100fe565b6001836020036101000a038019825116818451168082178552505050505050905001915050604051602081830303815290604052805190602001206040518060400160405280600d81526020017f4d61746963204e6574776f726b00000000000000000000000000000000000000815250805190602001206040518060400160405280600181526020017f3100000000000000000000000000000000000000000000000000000000000000815250805190602001206201388130604051602001808681526020018581526020018481526020018381526020018273ffffffffffffffffffffffffffffffffffffffff1673ffffffffffffffffffffffffffffffffffffffff16815260200195505050505050604051602081830303815290604052805190602001206001819055506123a28061025e6000396000f3fe6080604052600436106101b75760003560e01c80638da5cb5b116100ec578063b789543c1161008a578063e614d0d611610064578063e614d0d614610ac1578063ed9ef52414610aec578063f2fde38b14610b3d578063fc0c546a14610b8e576101b7565b8063b789543c146109e8578063cc79f97b14610a6b578063e306f77914610a96576101b7565b806395d89b41116100c657806395d89b4114610874578063a9059cbb14610904578063abceeba21461096a578063acd06cb314610995576101b7565b80638da5cb5b1461075e5780638f32d59b146107b55780639025e64c146107e4576101b7565b806347e7ef241161015957806370a082311161013357806370a08231146105a5578063715018a61461060a578063771282f61461062157806377d32e941461064c576101b7565b806347e7ef2414610482578063485cc955146104dd57806360f96a8f1461054e576101b7565b806319d27d9c1161019557806319d27d9c146102c85780632e1a7d4d146103cc578063313ce567146103fa57806342fc47fb1461042b576101b7565b806306fdde03146101bc5780631499c5921461024c57806318160ddd1461029d575b600080fd5b3480156101c857600080fd5b506101d1610be5565b6040518080602001828103825283818151815260200191508051906020019080838360005b838110156102115780820151818401526020810190506101f6565b50505050905090810190601f16801561023e5780820380516001836020036101000a031916815260200191505b509250505060405180910390f35b34801561025857600080fd5b5061029b6004803603602081101561026f57600080fd5b81019080803573ffffffffffffffffffffffffffffffffffffffff169060200190929190505050610c22565b005b3480156102a957600080fd5b506102b2610c90565b6040518082815260200191505060405180910390f35b3480156102d457600080fd5b5061038a600480360360a08110156102eb57600080fd5b810190808035906020019064010000000081111561030857600080fd5b82018360208201111561031a57600080fd5b8035906020019184600183028401116401000000008311171561033c57600080fd5b9091929391929390803590602001909291908035906020019092919080359060200190929190803573ffffffffffffffffffffffffffffffffffffffff169060200190929190505050610ca6565b604051808273ffffffffffffffffffffffffffffffffffffffff1673ffffffffffffffffffffffffffffffffffffffff16815260200191505060405180910390f35b6103f8600480360360208110156103e257600080fd5b8101908080359060200190929190505050610e7b565b005b34801561040657600080fd5b5061040f610fcd565b604051808260ff1660ff16815260200191505060405180910390f35b34801561043757600080fd5b50610440610fd6565b604051808273ffffffffffffffffffffffffffffffffffffffff1673ffffffffffffffffffffffffffffffffffffffff16815260200191505060405180910390f35b34801561048e57600080fd5b506104db600480360360408110156104a557600080fd5b81019080803573ffffffffffffffffffffffffffffffffffffffff16906020019092919080359060200190929190505050610ffc565b005b3480156104e957600080fd5b5061054c6004803603604081101561050057600080fd5b81019080803573ffffffffffffffffffffffffffffffffffffffff169060200190929190803573ffffffffffffffffffffffffffffffffffffffff1690602001909291905050506111b8565b005b34801561055a57600080fd5b50610563611287565b604051808273ffffffffffffffffffffffffffffffffffffffff1673ffffffffffffffffffffffffffffffffffffffff16815260200191505060405180910390f35b3480156105b157600080fd5b506105f4600480360360208110156105c857600080fd5b81019080803573ffffffffffffffffffffffffffffffffffffffff1690602001909291905050506112ad565b6040518082815260200191505060405180910390f35b34801561061657600080fd5b5061061f6112ce565b005b34801561062d57600080fd5b5061063661139e565b6040518082815260200191505060405180910390f35b34801561065857600080fd5b5061071c6004803603604081101561066f57600080fd5b81019080803590602001909291908035906020019064010000000081111561069657600080fd5b8201836020820111156106a857600080fd5b803590602001918460018302840111640100000000831117156106ca57600080fd5b91908080601f016020809104026020016040519081016040528093929190818152602001838380828437600081840152601f19601f8201169050808301925050505050505091929192905050506113a4565b604051808273ffffffffffffffffffffffffffffffffffffffff1673ffffffffffffffffffffffffffffffffffffffff16815260200191505060405180910390f35b34801561076a57600080fd5b50610773611529565b604051808273ffffffffffffffffffffffffffffffffffffffff1673ffffffffffffffffffffffffffffffffffffffff16815260200191505060405180910390f35b3480156107c157600080fd5b506107ca611552565b604051808215151515815260200191505060405180910390f35b3480156107f057600080fd5b506107f96115a9565b6040518080602001828103825283818151815260200191508051906020019080838360005b8381101561083957808201518184015260208101905061081e565b50505050905090810190601f1680156108665780820380516001836020036101000a031916815260200191505b509250505060405180910390f35b34801561088057600080fd5b506108896115e2565b6040518080602001828103825283818151815260200191508051906020019080838360005b838110156108c95780820151818401526020810190506108ae565b50505050905090810190601f1680156108f65780820380516001836020036101000a031916815260200191505b509250505060405180910390f35b6109506004803603604081101561091a57600080fd5b81019080803573ffffffffffffffffffffffffffffffffffffffff1690602001909291908035906020019092919050505061161f565b604051808215151515815260200191505060405180910390f35b34801561097657600080fd5b5061097f611645565b6040518082815260200191505060405180910390f35b3480156109a157600080fd5b506109ce600480360360208110156109b857600080fd5b81019080803590602001909291905050506116d2565b604051808215151515815260200191505060405180910390f35b3480156109f457600080fd5b50610a5560048036036080811015610a0b57600080fd5b81019080803573ffffffffffffffffffffffffffffffffffffffff1690602001909291908035906020019092919080359060200190929190803590602001909291905050506116f2565b6040518082815260200191505060405180910390f35b348015610a7757600080fd5b50610a80611712565b6040518082815260200191505060405180910390f35b348015610aa257600080fd5b50610aab611719565b6040518082815260200191505060405180910390f35b348015610acd57600080fd5b50610ad661171f565b6040518082815260200191505060405180910390f35b348015610af857600080fd5b50610b3b60048036036020811015610b0f57600080fd5b81019080803573ffffffffffffffffffffffffffffffffffffffff1690602001909291905050506117ac565b005b348015610b4957600080fd5b50610b8c60048036036020811015610b6057600080fd5b81019080803573ffffffffffffffffffffffffffffffffffffffff169060200190929190505050611903565b005b348015610b9a57600080fd5b50610ba3611920565b604051808273ffffffffffffffffffffffffffffffffffffffff1673ffffffffffffffffffffffffffffffffffffffff16815260200191505060405180910390f35b60606040518060400160405280600b81526020017f4d6174696320546f6b656e000000000000000000000000000000000000000000815250905090565b6040517f08c379a00000000000000000000000000000000000000000000000000000000081526004018080602001828103825260108152602001807f44697361626c656420666561747572650000000000000000000000000000000081525060200191505060405180910390fd5b6000601260ff16600a0a6402540be40002905090565b6000808511610cb457600080fd5b6000831480610cc35750824311155b610d35576040517f08c379a00000000000000000000000000000000000000000000000000000000081526004018080602001828103825260148152602001807f5369676e6174757265206973206578706972656400000000000000000000000081525060200191505060405180910390fd5b6000610d4c610d4633888888611946565b30611a1c565b9050600015156005600083815260200190815260200160002060009054906101000a900460ff16151514610de8576040517f08c379a000000000000000000000000000000000000000000000000000000000815260040180806020018281038252600f8152602001807f536967206465616374697661746564000000000000000000000000000000000081525060200191505060405180910390fd5b60016005600083815260200190815260200160002060006101000a81548160ff021916908315150217905550610e628189898080601f016020809104026020016040519081016040528093929190818152602001838380828437600081840152601f19601f820116905080830192505050505050506113a4565b9150610e6f828488611bab565b50509695505050505050565b60003390506000610e8b826112ad565b9050610ea283600654611f6890919063ffffffff16565b600681905550600083118015610eb757508234145b610f29576040517f08c379a00000000000000000000000000000000000000000000000000000000081526004018080602001828103825260138152602001807f496e73756666696369656e7420616d6f756e740000000000000000000000000081525060200191505060405180910390fd5b8173ffffffffffffffffffffffffffffffffffffffff16600260009054906101000a900473ffffffffffffffffffffffffffffffffffffffff1673ffffffffffffffffffffffffffffffffffffffff167febff2602b3f468259e1e99f613fed6691f3a6526effe6ef3e768ba7ae7a36c4f8584610fa5876112ad565b60405180848152602001838152602001828152602001935050505060405180910390a3505050565b60006012905090565b600360009054906101000a900473ffffffffffffffffffffffffffffffffffffffff1681565b611004611552565b61100d57600080fd5b60008111801561104a5750600073ffffffffffffffffffffffffffffffffffffffff168273ffffffffffffffffffffffffffffffffffffffff1614155b61109f576040517f08c379a000000000000000000000000000000000000000000000000000000000815260040180806020018281038252602381526020018061226c6023913960400191505060405180910390fd5b60006110aa836112ad565b905060008390508073ffffffffffffffffffffffffffffffffffffffff166108fc849081150290604051600060405180830381858888f193505050501580156110f7573d6000803e3d6000fd5b5061110d83600654611f8890919063ffffffff16565b6006819055508373ffffffffffffffffffffffffffffffffffffffff16600260009054906101000a900473ffffffffffffffffffffffffffffffffffffffff1673ffffffffffffffffffffffffffffffffffffffff167f4e2ca0515ed1aef1395f66b5303bb5d6f1bf9d61a353fa53f73f8ac9973fa9f6858561118f896112ad565b60405180848152602001838152602001828152602001935050505060405180910390a350505050565b600760009054906101000a900460ff161561121e576040517f08c379a00000000000000000000000000000000000000000000000000000000081526004018080602001828103825260238152602001806122496023913960400191505060405180910390fd5b6001600760006101000a81548160ff02191690831515021790555080600260006101000a81548173ffffffffffffffffffffffffffffffffffffffff021916908373ffffffffffffffffffffffffffffffffffffffff16021790555061128382611fa7565b5050565b600460009054906101000a900473ffffffffffffffffffffffffffffffffffffffff1681565b60008173ffffffffffffffffffffffffffffffffffffffff16319050919050565b6112d6611552565b6112df57600080fd5b600073ffffffffffffffffffffffffffffffffffffffff166000809054906101000a900473ffffffffffffffffffffffffffffffffffffffff1673ffffffffffffffffffffffffffffffffffffffff167f8be0079c531659141344cd1fd0a4f28419497f9722a3daafe3b4186f6b6457e060405160405180910390a360008060006101000a81548173ffffffffffffffffffffffffffffffffffffffff021916908373ffffffffffffffffffffffffffffffffffffffff160217905550565b60065481565b60008060008060418551146113bf5760009350505050611523565b602085015192506040850151915060ff6041860151169050601b8160ff1610156113ea57601b810190505b601b8160ff16141580156114025750601c8160ff1614155b156114135760009350505050611523565b60018682858560405160008152602001604052604051808581526020018460ff1660ff1681526020018381526020018281526020019450505050506020604051602081039080840390855afa158015611470573d6000803e3d6000fd5b505050602060405103519350600073ffffffffffffffffffffffffffffffffffffffff168473ffffffffffffffffffffffffffffffffffffffff16141561151f576040517f08c379a00000000000000000000000000000000000000000000000000000000081526004018080602001828103825260128152602001807f4572726f7220696e2065637265636f766572000000000000000000000000000081525060200191505060405180910390fd5b5050505b92915050565b60008060009054906101000a900473ffffffffffffffffffffffffffffffffffffffff16905090565b60008060009054906101000a900473ffffffffffffffffffffffffffffffffffffffff1673ffffffffffffffffffffffffffffffffffffffff163373ffffffffffffffffffffffffffffffffffffffff1614905090565b6040518060400160405280600381526020017f013881000000000000000000000000000000000000000000000000000000000081525081565b60606040518060400160405280600581526020017f4d41544943000000000000000000000000000000000000000000000000000000815250905090565b6000813414611631576000905061163f565b61163c338484611bab565b90505b92915050565b6040518060800160405280605b8152602001612313605b91396040516020018082805190602001908083835b602083106116945780518252602082019150602081019050602083039250611671565b6001836020036101000a0380198251168184511680821785525050505050509050019150506040516020818303038152906040528051906020012081565b60056020528060005260406000206000915054906101000a900460ff1681565b600061170861170386868686611946565b61209f565b9050949350505050565b6201388181565b60015481565b60405180608001604052806052815260200161228f605291396040516020018082805190602001908083835b6020831061176e578051825260208201915060208101905060208303925061174b565b6001836020036101000a0380198251168184511680821785525050505050509050019150506040516020818303038152906040528051906020012081565b6117b4611552565b6117bd57600080fd5b600073ffffffffffffffffffffffffffffffffffffffff168173ffffffffffffffffffffffffffffffffffffffff161415611843576040517f08c379a00000000000000000000000000000000000000000000000000000000081526004018080602001828103825260328152602001806122e16032913960400191505060405180910390fd5b8073ffffffffffffffffffffffffffffffffffffffff16600360009054906101000a900473ffffffffffffffffffffffffffffffffffffffff1673ffffffffffffffffffffffffffffffffffffffff167f1f9f3556dd336016cdf20adaead7d5c73665dba664b60e8c17e9a4eb91ce1d3960405160405180910390a380600360006101000a81548173ffffffffffffffffffffffffffffffffffffffff021916908373ffffffffffffffffffffffffffffffffffffffff16021790555050565b61190b611552565b61191457600080fd5b61191d81611fa7565b50565b600260009054906101000a900473ffffffffffffffffffffffffffffffffffffffff1681565b6000806040518060800160405280605b8152602001612313605b91396040516020018082805190602001908083835b602083106119985780518252602082019150602081019050602083039250611975565b6001836020036101000a03801982511681845116808217855250505050505090500191505060405160208183030381529060405280519060200120905060405181815273ffffffffffffffffffffffffffffffffffffffff8716602082015285604082015284606082015283608082015260a0812092505081915050949350505050565b60008060405180608001604052806052815260200161228f605291396040516020018082805190602001908083835b60208310611a6e5780518252602082019150602081019050602083039250611a4b565b6001836020036101000a038019825116818451168082178552505050505050905001915050604051602081830303815290604052805190602001206040518060400160405280600d81526020017f4d61746963204e6574776f726b00000000000000000000000000000000000000815250805190602001206040518060400160405280600181526020017f3100000000000000000000000000000000000000000000000000000000000000815250805190602001206201388186604051602001808681526020018581526020018481526020018381526020018273ffffffffffffffffffffffffffffffffffffffff1673ffffffffffffffffffffffffffffffffffffffff16815260200195505050505050604051602081830303815290604052805190602001209050611ba284826120b4565b91505092915050565b6000803073ffffffffffffffffffffffffffffffffffffffff166370a08231866040518263ffffffff1660e01b8152600401808273ffffffffffffffffffffffffffffffffffffffff1673ffffffffffffffffffffffffffffffffffffffff16815260200191505060206040518083038186803b158015611c2b57600080fd5b505afa158015611c3f573d6000803e3d6000fd5b505050506040513d6020811015611c5557600080fd5b8101908080519060200190929190505050905060003073ffffffffffffffffffffffffffffffffffffffff166370a08231866040518263ffffffff1660e01b8152600401808273ffffffffffffffffffffffffffffffffffffffff1673ffffffffffffffffffffffffffffffffffffffff16815260200191505060206040518083038186803b158015611ce757600080fd5b505afa158015611cfb573d6000803e3d6000fd5b505050506040513d6020811015611d1157600080fd5b81019080805190602001909291905050509050611d2f8686866120f5565b8473ffffffffffffffffffffffffffffffffffffffff168673ffffffffffffffffffffffffffffffffffffffff16600260009054906101000a900473ffffffffffffffffffffffffffffffffffffffff1673ffffffffffffffffffffffffffffffffffffffff167fe6497e3ee548a3372136af2fcb0696db31fc6cf20260707645068bd3fe97f3c48786863073ffffffffffffffffffffffffffffffffffffffff166370a082318e6040518263ffffffff1660e01b8152600401808273ffffffffffffffffffffffffffffffffffffffff1673ffffffffffffffffffffffffffffffffffffffff16815260200191505060206040518083038186803b158015611e3757600080fd5b505afa158015611e4b573d6000803e3d6000fd5b505050506040513d6020811015611e6157600080fd5b81019080805190602001909291905050503073ffffffffffffffffffffffffffffffffffffffff166370a082318e6040518263ffffffff1660e01b8152600401808273ffffffffffffffffffffffffffffffffffffffff1673ffffffffffffffffffffffffffffffffffffffff16815260200191505060206040518083038186803b158015611eef57600080fd5b505afa158015611f03573d6000803e3d6000fd5b505050506040513d6020811015611f1957600080fd5b8101908080519060200190929190505050604051808681526020018581526020018481526020018381526020018281526020019550505050505060405180910390a46001925050509392505050565b600082821115611f7757600080fd5b600082840390508091505092915050565b600080828401905083811015611f9d57600080fd5b8091505092915050565b600073ffffffffffffffffffffffffffffffffffffffff168173ffffffffffffffffffffffffffffffffffffffff161415611fe157600080fd5b8073ffffffffffffffffffffffffffffffffffffffff166000809054906101000a900473ffffffffffffffffffffffffffffffffffffffff1673ffffffffffffffffffffffffffffffffffffffff167f8be0079c531659141344cd1fd0a4f28419497f9722a3daafe3b4186f6b6457e060405160405180910390a3806000806101000a81548173ffffffffffffffffffffffffffffffffffffffff021916908373ffffffffffffffffffffffffffffffffffffffff16021790555050565b60006120ad826001546120b4565b9050919050565b60006040517f190100000000000000000000000000000000000000000000000000000000000081528260028201528360228201526042812091505092915050565b3073ffffffffffffffffffffffffffffffffffffffff168273ffffffffffffffffffffffffffffffffffffffff161415612197576040517f08c379a00000000000000000000000000000000000000000000000000000000081526004018080602001828103825260138152602001807f63616e27742073656e6420746f204d524332300000000000000000000000000081525060200191505060405180910390fd5b8173ffffffffffffffffffffffffffffffffffffffff166108fc829081150290604051600060405180830381858888f193505050501580156121dd573d6000803e3d6000fd5b508173ffffffffffffffffffffffffffffffffffffffff168373ffffffffffffffffffffffffffffffffffffffff167fddf252ad1be2c89b69c2b068fc378daa952ba7f163c4a11628f55a4df523b3ef836040518082815260200191505060405180910390a350505056fe54686520636f6e747261637420697320616c726561647920696e697469616c697a6564496e73756666696369656e7420616d6f756e74206f7220696e76616c69642075736572454950373132446f6d61696e28737472696e67206e616d652c737472696e672076657273696f6e2c75696e7432353620636861696e49642c6164647265737320766572696679696e67436f6e7472616374294368696c6420746f6b656e3a206e6577206368696c64206164647265737320697320746865207a65726f2061646472657373546f6b656e5472616e736665724f726465722861646472657373207370656e6465722c75696e7432353620746f6b656e49644f72416d6f756e742c6279746573333220646174612c75696e743235362065787069726174696f6e29a265627a7a723158208cb4f3f8de102dc6a79cb6038838d3fc4396934421676eb44b50e082b95eb2c264736f6c63430005110032454950373132446f6d61696e28737472696e67206e616d652c737472696e672076657273696f6e2c75696e7432353620636861696e49642c6164647265737320766572696679696e67436f6e747261637429",
  "linkReferences": {},
  "deployedLinkReferences": {}
}