{
  "_format": "hh-sol-artifact-1",
  "contractName": "ModuleManager",
  "sourceName": "contracts/common/gnosis/GnosisSafe.sol",
  "abi": [
    {
      "anonymous": false,
      "inputs": [
        {
          "indexed": false,
          "internalType": "contract Module",
          "name": "module",
          "type": "address"
        }
      ],
      "name": "DisabledModule",
      "type": "event"
    },
    {
      "anonymous": false,
      "inputs": [
        {
          "indexed": false,
          "internalType": "contract Module",
          "name": "module",
          "type": "address"
        }
      ],
      "name": "EnabledModule",
      "type": "event"
    },
    {
      "anonymous": false,
      "inputs": [
        {
          "indexed": true,
          "internalType": "address",
          "name": "module",
          "type": "address"
        }
      ],
      "name": "ExecutionFromModuleFailure",
      "type": "event"
    },
    {
      "anonymous": false,
      "inputs": [
        {
          "indexed": true,
          "internalType": "address",
          "name": "module",
          "type": "address"
        }
      ],
      "name": "ExecutionFromModuleSuccess",
      "type": "event"
    },
    {
      "constant": false,
      "inputs": [
        {
          "internalType": "contract Module",
          "name": "prevModule",
          "type": "address"
        },
        {
          "internalType": "contract Module",
          "name": "module",
          "type": "address"
        }
      ],
      "name": "disableModule",
      "outputs": [],
      "payable": false,
      "stateMutability": "nonpayable",
      "type": "function"
    },
    {
      "constant": false,
      "inputs": [
        {
          "internalType": "contract Module",
          "name": "module",
          "type": "address"
        }
      ],
      "name": "enableModule",
      "outputs": [],
      "payable": false,
      "stateMutability": "nonpayable",
      "type": "function"
    },
    {
      "constant": false,
      "inputs": [
        {
          "internalType": "address",
          "name": "to",
          "type": "address"
        },
        {
          "internalType": "uint256",
          "name": "value",
          "type": "uint256"
        },
        {
          "internalType": "bytes",
          "name": "data",
          "type": "bytes"
        },
        {
          "internalType": "enum Enum.Operation",
          "name": "operation",
          "type": "uint8"
        }
      ],
      "name": "execTransactionFromModule",
      "outputs": [
        {
          "internalType": "bool",
          "name": "success",
          "type": "bool"
        }
      ],
      "payable": false,
      "stateMutability": "nonpayable",
      "type": "function"
    },
    {
      "constant": false,
      "inputs": [
        {
          "internalType": "address",
          "name": "to",
          "type": "address"
        },
        {
          "internalType": "uint256",
          "name": "value",
          "type": "uint256"
        },
        {
          "internalType": "bytes",
          "name": "data",
          "type": "bytes"
        },
        {
          "internalType": "enum Enum.Operation",
          "name": "operation",
          "type": "uint8"
        }
      ],
      "name": "execTransactionFromModuleReturnData",
      "outputs": [
        {
          "internalType": "bool",
          "name": "success",
          "type": "bool"
        },
        {
          "internalType": "bytes",
          "name": "returnData",
          "type": "bytes"
        }
      ],
      "payable": false,
      "stateMutability": "nonpayable",
      "type": "function"
    },
    {
      "constant": true,
      "inputs": [],
      "name": "getModules",
      "outputs": [
        {
          "internalType": "address[]",
          "name": "",
          "type": "address[]"
        }
      ],
      "payable": false,
      "stateMutability": "view",
      "type": "function"
    },
    {
      "constant": true,
      "inputs": [
        {
          "internalType": "address",
          "name": "start",
          "type": "address"
        },
        {
          "internalType": "uint256",
          "name": "pageSize",
          "type": "uint256"
        }
      ],
      "name": "getModulesPaginated",
      "outputs": [
        {
          "internalType": "address[]",
          "name": "array",
          "type": "address[]"
        },
        {
          "internalType": "address",
          "name": "next",
          "type": "address"
        }
      ],
      "payable": false,
      "stateMutability": "view",
      "type": "function"
    }
  ],
  "bytecode": "0x608060405234801561001057600080fd5b50611235806100206000396000f3fe608060405234801561001057600080fd5b50600436106100625760003560e01c8063468721a7146100675780635229073f14610171578063610b5925146102e7578063b2494df31461032b578063cc2f84521461038a578063e009cfde14610460575b600080fd5b6101576004803603608081101561007d57600080fd5b81019080803573ffffffffffffffffffffffffffffffffffffffff16906020019092919080359060200190929190803590602001906401000000008111156100c457600080fd5b8201836020820111156100d657600080fd5b803590602001918460018302840111640100000000831117156100f857600080fd5b91908080601f016020809104026020016040519081016040528093929190818152602001838380828437600081840152601f19601f820116905080830192505050505050509192919290803560ff1690602001909291905050506104c4565b604051808215151515815260200191505060405180910390f35b6102616004803603608081101561018757600080fd5b81019080803573ffffffffffffffffffffffffffffffffffffffff16906020019092919080359060200190929190803590602001906401000000008111156101ce57600080fd5b8201836020820111156101e057600080fd5b8035906020019184600183028401116401000000008311171561020257600080fd5b91908080601f016020809104026020016040519081016040528093929190818152602001838380828437600081840152601f19601f820116905080830192505050505050509192919290803560ff16906020019092919050505061068c565b604051808315151515815260200180602001828103825283818151815260200191508051906020019080838360005b838110156102ab578082015181840152602081019050610290565b50505050905090810190601f1680156102d85780820380516001836020036101000a031916815260200191505b50935050505060405180910390f35b610329600480360360208110156102fd57600080fd5b81019080803573ffffffffffffffffffffffffffffffffffffffff1690602001909291905050506106c2565b005b610333610ae2565b6040518080602001828103825283818151815260200191508051906020019060200280838360005b8381101561037657808201518184015260208101905061035b565b505050509050019250505060405180910390f35b6103d6600480360360408110156103a057600080fd5b81019080803573ffffffffffffffffffffffffffffffffffffffff16906020019092919080359060200190929190505050610afb565b60405180806020018373ffffffffffffffffffffffffffffffffffffffff1673ffffffffffffffffffffffffffffffffffffffff168152602001828103825284818151815260200191508051906020019060200280838360005b8381101561044b578082015181840152602081019050610430565b50505050905001935050505060405180910390f35b6104c26004803603604081101561047657600080fd5b81019080803573ffffffffffffffffffffffffffffffffffffffff169060200190929190803573ffffffffffffffffffffffffffffffffffffffff169060200190929190505050610cd8565b005b6000600173ffffffffffffffffffffffffffffffffffffffff163373ffffffffffffffffffffffffffffffffffffffff161415801561058e5750600073ffffffffffffffffffffffffffffffffffffffff166000803373ffffffffffffffffffffffffffffffffffffffff1673ffffffffffffffffffffffffffffffffffffffff16815260200190815260200160002060009054906101000a900473ffffffffffffffffffffffffffffffffffffffff1673ffffffffffffffffffffffffffffffffffffffff1614155b6105e3576040517f08c379a00000000000000000000000000000000000000000000000000000000081526004018080602001828103825260308152602001806111d16030913960400191505060405180910390fd5b6105f0858585855a6110da565b90508015610640573373ffffffffffffffffffffffffffffffffffffffff167f6895c13664aa4f67288b25d7a21d7aaa34916e355fb9b6fae0a139a9085becb860405160405180910390a2610684565b3373ffffffffffffffffffffffffffffffffffffffff167facd2c8702804128fdb0db2bb49f6d127dd0181c13fd45dbfe16de0930e2bd37560405160405180910390a25b949350505050565b6000606061069c868686866104c4565b915060405160203d0181016040523d81523d6000602083013e8091505094509492505050565b3073ffffffffffffffffffffffffffffffffffffffff163373ffffffffffffffffffffffffffffffffffffffff1614610746576040517f08c379a000000000000000000000000000000000000000000000000000000000815260040180806020018281038252602c8152602001806111a5602c913960400191505060405180910390fd5b600073ffffffffffffffffffffffffffffffffffffffff168173ffffffffffffffffffffffffffffffffffffffff16141580156107b05750600173ffffffffffffffffffffffffffffffffffffffff168173ffffffffffffffffffffffffffffffffffffffff1614155b610822576040517f08c379a000000000000000000000000000000000000000000000000000000000815260040180806020018281038252601f8152602001807f496e76616c6964206d6f64756c6520616464726573732070726f76696465640081525060200191505060405180910390fd5b600073ffffffffffffffffffffffffffffffffffffffff166000808373ffffffffffffffffffffffffffffffffffffffff1673ffffffffffffffffffffffffffffffffffffffff16815260200190815260200160002060009054906101000a900473ffffffffffffffffffffffffffffffffffffffff1673ffffffffffffffffffffffffffffffffffffffff1614610922576040517f08c379a000000000000000000000000000000000000000000000000000000000815260040180806020018281038252601d8152602001807f4d6f64756c652068617320616c7265616479206265656e20616464656400000081525060200191505060405180910390fd5b600080600173ffffffffffffffffffffffffffffffffffffffff1673ffffffffffffffffffffffffffffffffffffffff16815260200190815260200160002060009054906101000a900473ffffffffffffffffffffffffffffffffffffffff166000808373ffffffffffffffffffffffffffffffffffffffff1673ffffffffffffffffffffffffffffffffffffffff16815260200190815260200160002060006101000a81548173ffffffffffffffffffffffffffffffffffffffff021916908373ffffffffffffffffffffffffffffffffffffffff16021790555080600080600173ffffffffffffffffffffffffffffffffffffffff1673ffffffffffffffffffffffffffffffffffffffff16815260200190815260200160002060006101000a81548173ffffffffffffffffffffffffffffffffffffffff021916908373ffffffffffffffffffffffffffffffffffffffff1602179055507fecdf3a3effea5783a3c4c2140e677577666428d44ed9d474a0b3a4c9943f844081604051808273ffffffffffffffffffffffffffffffffffffffff1673ffffffffffffffffffffffffffffffffffffffff16815260200191505060405180910390a150565b606080610af16001600a610afb565b5090508091505090565b6060600082604051908082528060200260200182016040528015610b2e5781602001602082028038833980820191505090505b509150600080905060008060008773ffffffffffffffffffffffffffffffffffffffff1673ffffffffffffffffffffffffffffffffffffffff16815260200190815260200160002060009054906101000a900473ffffffffffffffffffffffffffffffffffffffff1690505b600073ffffffffffffffffffffffffffffffffffffffff168173ffffffffffffffffffffffffffffffffffffffff1614158015610c045750600173ffffffffffffffffffffffffffffffffffffffff168173ffffffffffffffffffffffffffffffffffffffff1614155b8015610c0f57508482105b15610cc95780848381518110610c2157fe5b602002602001019073ffffffffffffffffffffffffffffffffffffffff16908173ffffffffffffffffffffffffffffffffffffffff16815250506000808273ffffffffffffffffffffffffffffffffffffffff1673ffffffffffffffffffffffffffffffffffffffff16815260200190815260200160002060009054906101000a900473ffffffffffffffffffffffffffffffffffffffff1690508180600101925050610b9a565b80925081845250509250929050565b3073ffffffffffffffffffffffffffffffffffffffff163373ffffffffffffffffffffffffffffffffffffffff1614610d5c576040517f08c379a000000000000000000000000000000000000000000000000000000000815260040180806020018281038252602c8152602001806111a5602c913960400191505060405180910390fd5b600073ffffffffffffffffffffffffffffffffffffffff168173ffffffffffffffffffffffffffffffffffffffff1614158015610dc65750600173ffffffffffffffffffffffffffffffffffffffff168173ffffffffffffffffffffffffffffffffffffffff1614155b610e38576040517f08c379a000000000000000000000000000000000000000000000000000000000815260040180806020018281038252601f8152602001807f496e76616c6964206d6f64756c6520616464726573732070726f76696465640081525060200191505060405180910390fd5b8073ffffffffffffffffffffffffffffffffffffffff166000808473ffffffffffffffffffffffffffffffffffffffff1673ffffffffffffffffffffffffffffffffffffffff16815260200190815260200160002060009054906101000a900473ffffffffffffffffffffffffffffffffffffffff1673ffffffffffffffffffffffffffffffffffffffff1614610f1a576040517f08c379a000000000000000000000000000000000000000000000000000000000815260040180806020018281038252602881526020018061117d6028913960400191505060405180910390fd5b6000808273ffffffffffffffffffffffffffffffffffffffff1673ffffffffffffffffffffffffffffffffffffffff16815260200190815260200160002060009054906101000a900473ffffffffffffffffffffffffffffffffffffffff166000808473ffffffffffffffffffffffffffffffffffffffff1673ffffffffffffffffffffffffffffffffffffffff16815260200190815260200160002060006101000a81548173ffffffffffffffffffffffffffffffffffffffff021916908373ffffffffffffffffffffffffffffffffffffffff16021790555060008060008373ffffffffffffffffffffffffffffffffffffffff1673ffffffffffffffffffffffffffffffffffffffff16815260200190815260200160002060006101000a81548173ffffffffffffffffffffffffffffffffffffffff021916908373ffffffffffffffffffffffffffffffffffffffff1602179055507faab4fa2b463f581b2b32cb3b7e3b704b9ce37cc209b5fb4d77e593ace405427681604051808273ffffffffffffffffffffffffffffffffffffffff1673ffffffffffffffffffffffffffffffffffffffff16815260200191505060405180910390a15050565b60008060018111156110e857fe5b8360018111156110f457fe5b141561110d576111068686868561114c565b9050611143565b60018081111561111957fe5b83600181111561112557fe5b141561113d57611136868584611165565b9050611142565b600090505b5b95945050505050565b6000806000845160208601878987f19050949350505050565b60008060008451602086018786f49050939250505056fe496e76616c696420707265764d6f64756c652c206d6f64756c6520706169722070726f76696465644d6574686f642063616e206f6e6c792062652063616c6c65642066726f6d207468697320636f6e74726163744d6574686f642063616e206f6e6c792062652063616c6c65642066726f6d20616e20656e61626c6564206d6f64756c65a265627a7a7231582024e9e0b89048f0dbc8baf32ca6454266480a48d9106a37de716f5d905a675a2464736f6c63430005110032",
  "linkReferences": {},
  "deployedLinkReferences": {}
}