{
  "_format": "hh-sol-artifact-1",
  "contractName": "ChainIdMixin",
  "sourceName": "contracts/common/mixin/ChainIdMixin.sol",
  "abi": [
    {
      "constant": true,
      "inputs": [],
      "name": "CHAINID",
      "outputs": [
        {
          "internalType": "uint256",
          "name": "",
          "type": "uint256"
        }
      ],
      "payable": false,
      "stateMutability": "view",
      "type": "function"
    },
    {
      "constant": true,
      "inputs": [],
      "name": "networkId",
      "outputs": [
        {
          "internalType": "bytes",
          "name": "",
          "type": "bytes"
        }
      ],
      "payable": false,
      "stateMutability": "view",
      "type": "function"
    }
  ],
  "bytecode": "0x608060405234801561001057600080fd5b50610151806100206000396000f3fe608060405234801561001057600080fd5b50600436106100365760003560e01c80639025e64c1461003b578063cc79f97b146100be575b600080fd5b6100436100dc565b6040518080602001828103825283818151815260200191508051906020019080838360005b83811015610083578082015181840152602081019050610068565b50505050905090810190601f1680156100b05780820380516001836020036101000a031916815260200191505b509250505060405180910390f35b6100c6610115565b6040518082815260200191505060405180910390f35b6040518060400160405280600381526020017f013881000000000000000000000000000000000000000000000000000000000081525081565b620138818156fea265627a7a7231582069809a914ba18faf37937bd7a5b7782bd5f58cd13b349473b225dbe735e4b3a464736f6c63430005110032",
  "linkReferences": {},
  "deployedLinkReferences": {}
}