{
  "_format": "hh-sol-artifact-1",
  "contractName": "ProxyTestImpl",
  "sourceName": "contracts/test/Proxy/ProxyTestImpl.sol",
  "abi": [
    {
      "inputs": [],
      "payable": false,
      "stateMutability": "nonpayable",
      "type": "constructor"
    },
    {
      "constant": true,
      "inputs": [],
      "name": "a",
      "outputs": [
        {
          "internalType": "uint256",
          "name": "",
          "type": "uint256"
        }
      ],
      "payable": false,
      "stateMutability": "view",
      "type": "function"
    },
    {
      "constant": true,
      "inputs": [],
      "name": "b",
      "outputs": [
        {
          "internalType": "uint256",
          "name": "",
          "type": "uint256"
        }
      ],
      "payable": false,
      "stateMutability": "view",
      "type": "function"
    },
    {
      "constant": true,
      "inputs": [],
      "name": "ctorInit",
      "outputs": [
        {
          "internalType": "uint256",
          "name": "",
          "type": "uint256"
        }
      ],
      "payable": false,
      "stateMutability": "view",
      "type": "function"
    },
    {
      "constant": false,
      "inputs": [],
      "name": "init",
      "outputs": [],
      "payable": false,
      "stateMutability": "nonpayable",
      "type": "function"
    }
  ],
  "bytecode": "0x608060405260008060006101000a81548160ff021916908315150217905550600180556002805534801561003257600080fd5b50600380819055506101a8806100496000396000f3fe608060405234801561001057600080fd5b506004361061004c5760003560e01c80630dbe671f146100515780634df7e3d01461006f57806394eb090c1461008d578063e1c7392a146100ab575b600080fd5b6100596100b5565b6040518082815260200191505060405180910390f35b6100776100bb565b6040518082815260200191505060405180910390f35b6100956100c1565b6040518082815260200191505060405180910390f35b6100b36100c7565b005b60015481565b60025481565b60035481565b6000809054906101000a900460ff1615610149576040517f08c379a000000000000000000000000000000000000000000000000000000000815260040180806020018281038252600e8152602001807f616c726561647920696e6974656400000000000000000000000000000000000081525060200191505060405180910390fd5b60016000806101000a81548160ff021916908315150217905550600180819055506002808190555056fea265627a7a72315820aa5c3874c85d065076472dfc064e9b68cb9da0f4df247aebb633e1616a1c2e4164736f6c63430005110032",
  "linkReferences": {},
  "deployedLinkReferences": {}
}