{
  "_format": "hh-sol-artifact-1",
  "contractName": "Proxy",
  "sourceName": "contracts/common/misc/Proxy.sol",
  "abi": [
    {
      "inputs": [
        {
          "internalType": "address",
          "name": "_proxyTo",
          "type": "address"
        }
      ],
      "payable": false,
      "stateMutability": "nonpayable",
      "type": "constructor"
    },
    {
      "anonymous": false,
      "inputs": [
        {
          "indexed": false,
          "internalType": "address",
          "name": "_prevOwner",
          "type": "address"
        },
        {
          "indexed": false,
          "internalType": "address",
          "name": "_newOwner",
          "type": "address"
        }
      ],
      "name": "OwnerUpdate",
      "type": "event"
    },
    {
      "anonymous": false,
      "inputs": [
        {
          "indexed": true,
          "internalType": "address",
          "name": "previousOwner",
          "type": "address"
        },
        {
          "indexed": true,
          "internalType": "address",
          "name": "newOwner",
          "type": "address"
        }
      ],
      "name": "OwnershipTransferred",
      "type": "event"
    },
    {
      "anonymous": false,
      "inputs": [
        {
          "indexed": true,
          "internalType": "address",
          "name": "_new",
          "type": "address"
        },
        {
          "indexed": true,
          "internalType": "address",
          "name": "_old",
          "type": "address"
        }
      ],
      "name": "ProxyUpdated",
      "type": "event"
    },
    {
      "payable": true,
      "stateMutability": "payable",
      "type": "fallback"
    },
    {
      "constant": true,
      "inputs": [],
      "name": "implementation",
      "outputs": [
        {
          "internalType": "address",
          "name": "",
          "type": "address"
        }
      ],
      "payable": false,
      "stateMutability": "view",
      "type": "function"
    },
    {
      "constant": true,
      "inputs": [],
      "name": "isOwner",
      "outputs": [
        {
          "internalType": "bool",
          "name": "",
          "type": "bool"
        }
      ],
      "payable": false,
      "stateMutability": "view",
      "type": "function"
    },
    {
      "constant": true,
      "inputs": [],
      "name": "owner",
      "outputs": [
        {
          "internalType": "address",
          "name": "",
          "type": "address"
        }
      ],
      "payable": false,
      "stateMutability": "view",
      "type": "function"
    },
    {
      "constant": true,
      "inputs": [],
      "name": "proxyType",
      "outputs": [
        {
          "internalType": "uint256",
          "name": "proxyTypeId",
          "type": "uint256"
        }
      ],
      "payable": false,
      "stateMutability": "pure",
      "type": "function"
    },
    {
      "constant": false,
      "inputs": [],
      "name": "renounceOwnership",
      "outputs": [],
      "payable": false,
      "stateMutability": "nonpayable",
      "type": "function"
    },
    {
      "constant": false,
      "inputs": [
        {
          "internalType": "address",
          "name": "newOwner",
          "type": "address"
        }
      ],
      "name": "transferOwnership",
      "outputs": [],
      "payable": false,
      "stateMutability": "nonpayable",
      "type": "function"
    },
    {
      "constant": false,
      "inputs": [
        {
          "internalType": "address",
          "name": "_newProxyTo",
          "type": "address"
        }
      ],
      "name": "updateImplementation",
      "outputs": [],
      "payable": false,
      "stateMutability": "nonpayable",
      "type": "function"
    }
  ],
  "bytecode": "0x608060405234801561001057600080fd5b50604051610bb4380380610bb48339818101604052602081101561003357600080fd5b8101908080519060200190929190505050336000806101000a81548173ffffffffffffffffffffffffffffffffffffffff021916908373ffffffffffffffffffffffffffffffffffffffff1602179055506000809054906101000a900473ffffffffffffffffffffffffffffffffffffffff1673ffffffffffffffffffffffffffffffffffffffff16600073ffffffffffffffffffffffffffffffffffffffff167f8be0079c531659141344cd1fd0a4f28419497f9722a3daafe3b4186f6b6457e060405160405180910390a361010f8161011560201b60201c565b5061039c565b6101236102f360201b60201c565b61012c57600080fd5b600073ffffffffffffffffffffffffffffffffffffffff168173ffffffffffffffffffffffffffffffffffffffff1614156101cf576040517f08c379a00000000000000000000000000000000000000000000000000000000081526004018080602001828103825260158152602001807f494e56414c49445f50524f58595f41444452455353000000000000000000000081525060200191505060405180910390fd5b6101de8161034a60201b60201c565b610233576040517f08c379a0000000000000000000000000000000000000000000000000000000008152600401808060200182810382526025815260200180610b8f6025913960400191505060405180910390fd5b600160009054906101000a900473ffffffffffffffffffffffffffffffffffffffff1673ffffffffffffffffffffffffffffffffffffffff168173ffffffffffffffffffffffffffffffffffffffff167fd32d24edea94f55e932d9a008afc425a8561462d1b1f57bc6e508e9a6b9509e160405160405180910390a380600160006101000a81548173ffffffffffffffffffffffffffffffffffffffff021916908373ffffffffffffffffffffffffffffffffffffffff16021790555050565b60008060009054906101000a900473ffffffffffffffffffffffffffffffffffffffff1673ffffffffffffffffffffffffffffffffffffffff163373ffffffffffffffffffffffffffffffffffffffff1614905090565b60008073ffffffffffffffffffffffffffffffffffffffff168273ffffffffffffffffffffffffffffffffffffffff1614156103895760009050610397565b6000823b9050600081119150505b919050565b6107e4806103ab6000396000f3fe6080604052600436106100705760003560e01c8063715018a61161004e578063715018a6146101b65780638da5cb5b146101cd5780638f32d59b14610224578063f2fde38b1461025357610070565b8063025b22bc146100e35780634555d5c9146101345780635c60da1b1461015f575b6100e1600160009054906101000a900473ffffffffffffffffffffffffffffffffffffffff166000368080601f016020809104026020016040519081016040528093929190818152602001838380828437600081840152601f19601f820116905080830192505050505050506102a4565b005b3480156100ef57600080fd5b506101326004803603602081101561010657600080fd5b81019080803573ffffffffffffffffffffffffffffffffffffffff1690602001909291905050506102ce565b005b34801561014057600080fd5b506101496104a0565b6040518082815260200191505060405180910390f35b34801561016b57600080fd5b506101746104a9565b604051808273ffffffffffffffffffffffffffffffffffffffff1673ffffffffffffffffffffffffffffffffffffffff16815260200191505060405180910390f35b3480156101c257600080fd5b506101cb6104d3565b005b3480156101d957600080fd5b506101e26105a3565b604051808273ffffffffffffffffffffffffffffffffffffffff1673ffffffffffffffffffffffffffffffffffffffff16815260200191505060405180910390f35b34801561023057600080fd5b506102396105cc565b604051808215151515815260200191505060405180910390f35b34801561025f57600080fd5b506102a26004803603602081101561027657600080fd5b81019080803573ffffffffffffffffffffffffffffffffffffffff169060200190929190505050610623565b005b600080825160208401856127105a03f43d604051816000823e82600081146102ca578282f35b8282fd5b6102d66105cc565b6102df57600080fd5b600073ffffffffffffffffffffffffffffffffffffffff168173ffffffffffffffffffffffffffffffffffffffff161415610382576040517f08c379a00000000000000000000000000000000000000000000000000000000081526004018080602001828103825260158152602001807f494e56414c49445f50524f58595f41444452455353000000000000000000000081525060200191505060405180910390fd5b61038b81610640565b6103e0576040517f08c379a000000000000000000000000000000000000000000000000000000000815260040180806020018281038252602581526020018061078b6025913960400191505060405180910390fd5b600160009054906101000a900473ffffffffffffffffffffffffffffffffffffffff1673ffffffffffffffffffffffffffffffffffffffff168173ffffffffffffffffffffffffffffffffffffffff167fd32d24edea94f55e932d9a008afc425a8561462d1b1f57bc6e508e9a6b9509e160405160405180910390a380600160006101000a81548173ffffffffffffffffffffffffffffffffffffffff021916908373ffffffffffffffffffffffffffffffffffffffff16021790555050565b60006002905090565b6000600160009054906101000a900473ffffffffffffffffffffffffffffffffffffffff16905090565b6104db6105cc565b6104e457600080fd5b600073ffffffffffffffffffffffffffffffffffffffff166000809054906101000a900473ffffffffffffffffffffffffffffffffffffffff1673ffffffffffffffffffffffffffffffffffffffff167f8be0079c531659141344cd1fd0a4f28419497f9722a3daafe3b4186f6b6457e060405160405180910390a360008060006101000a81548173ffffffffffffffffffffffffffffffffffffffff021916908373ffffffffffffffffffffffffffffffffffffffff160217905550565b60008060009054906101000a900473ffffffffffffffffffffffffffffffffffffffff16905090565b60008060009054906101000a900473ffffffffffffffffffffffffffffffffffffffff1673ffffffffffffffffffffffffffffffffffffffff163373ffffffffffffffffffffffffffffffffffffffff1614905090565b61062b6105cc565b61063457600080fd5b61063d81610692565b50565b60008073ffffffffffffffffffffffffffffffffffffffff168273ffffffffffffffffffffffffffffffffffffffff16141561067f576000905061068d565b6000823b9050600081119150505b919050565b600073ffffffffffffffffffffffffffffffffffffffff168173ffffffffffffffffffffffffffffffffffffffff1614156106cc57600080fd5b8073ffffffffffffffffffffffffffffffffffffffff166000809054906101000a900473ffffffffffffffffffffffffffffffffffffffff1673ffffffffffffffffffffffffffffffffffffffff167f8be0079c531659141344cd1fd0a4f28419497f9722a3daafe3b4186f6b6457e060405160405180910390a3806000806101000a81548173ffffffffffffffffffffffffffffffffffffffff021916908373ffffffffffffffffffffffffffffffffffffffff1602179055505056fe44455354494e4154494f4e5f414444524553535f49535f4e4f545f415f434f4e5452414354a265627a7a723158203153ac553764328d04c7f5a5782b203e1b0c8241fdd5b5abc30cdbb5d016e5cd64736f6c6343000511003244455354494e4154494f4e5f414444524553535f49535f4e4f545f415f434f4e5452414354",
  "linkReferences": {},
  "deployedLinkReferences": {}
}