{
  "_format": "hh-sol-artifact-1",
  "contractName": "ProxyTestImplStorageLayoutChange",
  "sourceName": "contracts/test/Proxy/ProxyTestImplStorageLayoutChange.sol",
  "abi": [
    {
      "constant": true,
      "inputs": [],
      "name": "a",
      "outputs": [
        {
          "internalType": "uint256",
          "name": "",
          "type": "uint256"
        }
      ],
      "payable": false,
      "stateMutability": "view",
      "type": "function"
    },
    {
      "constant": true,
      "inputs": [],
      "name": "b",
      "outputs": [
        {
          "internalType": "uint256",
          "name": "",
          "type": "uint256"
        }
      ],
      "payable": false,
      "stateMutability": "view",
      "type": "function"
    }
  ],
  "bytecode": "0x608060405260008060006101000a81548160ff02191690831515021790555034801561002a57600080fd5b5060b0806100396000396000f3fe6080604052348015600f57600080fd5b506004361060325760003560e01c80630dbe671f1460375780634df7e3d0146053575b600080fd5b603d606f565b6040518082815260200191505060405180910390f35b60596075565b6040518082815260200191505060405180910390f35b60025481565b6001548156fea265627a7a72315820f5048d789ca613e6718dd39c66211e27e684fc94d8b4af8dfcda201c46747f8964736f6c63430005110032",
  "linkReferences": {},
  "deployedLinkReferences": {}
}