{
  "_format": "hh-sol-artifact-1",
  "contractName": "LibEIP712Domain",
  "sourceName": "contracts/child/misc/EIP712.sol",
  "abi": [
    {
      "inputs": [],
      "payable": false,
      "stateMutability": "nonpayable",
      "type": "constructor"
    },
    {
      "constant": true,
      "inputs": [],
      "name": "CHAINID",
      "outputs": [
        {
          "internalType": "uint256",
          "name": "",
          "type": "uint256"
        }
      ],
      "payable": false,
      "stateMutability": "view",
      "type": "function"
    },
    {
      "constant": true,
      "inputs": [],
      "name": "EIP712_DOMAIN_HASH",
      "outputs": [
        {
          "internalType": "bytes32",
          "name": "",
          "type": "bytes32"
        }
      ],
      "payable": false,
      "stateMutability": "view",
      "type": "function"
    },
    {
      "constant": true,
      "inputs": [],
      "name": "EIP712_DOMAIN_SCHEMA_HASH",
      "outputs": [
        {
          "internalType": "bytes32",
          "name": "",
          "type": "bytes32"
        }
      ],
      "payable": false,
      "stateMutability": "view",
      "type": "function"
    },
    {
      "constant": true,
      "inputs": [],
      "name": "networkId",
      "outputs": [
        {
          "internalType": "bytes",
          "name": "",
          "type": "bytes"
        }
      ],
      "payable": false,
      "stateMutability": "view",
      "type": "function"
    }
  ],
  "bytecode": "0x608060405234801561001057600080fd5b50604051806080016040528060528152602001610425605291396040516020018082805190602001908083835b60208310610060578051825260208201915060208101905060208303925061003d565b6001836020036101000a038019825116818451168082178552505050505050905001915050604051602081830303815290604052805190602001206040518060400160405280600d81526020017f4d61746963204e6574776f726b00000000000000000000000000000000000000815250805190602001206040518060400160405280600181526020017f3100000000000000000000000000000000000000000000000000000000000000815250805190602001206201388130604051602001808681526020018581526020018481526020018381526020018273ffffffffffffffffffffffffffffffffffffffff1673ffffffffffffffffffffffffffffffffffffffff16815260200195505050505050604051602081830303815290604052805190602001206000819055506102888061019d6000396000f3fe608060405234801561001057600080fd5b506004361061004c5760003560e01c80639025e64c14610051578063cc79f97b146100d4578063e306f779146100f2578063e614d0d614610110575b600080fd5b61005961012e565b6040518080602001828103825283818151815260200191508051906020019080838360005b8381101561009957808201518184015260208101905061007e565b50505050905090810190601f1680156100c65780820380516001836020036101000a031916815260200191505b509250505060405180910390f35b6100dc610167565b6040518082815260200191505060405180910390f35b6100fa61016e565b6040518082815260200191505060405180910390f35b610118610174565b6040518082815260200191505060405180910390f35b6040518060400160405280600381526020017f013881000000000000000000000000000000000000000000000000000000000081525081565b6201388181565b60005481565b604051806080016040528060528152602001610202605291396040516020018082805190602001908083835b602083106101c357805182526020820191506020810190506020830392506101a0565b6001836020036101000a038019825116818451168082178552505050505050905001915050604051602081830303815290604052805190602001208156fe454950373132446f6d61696e28737472696e67206e616d652c737472696e672076657273696f6e2c75696e7432353620636861696e49642c6164647265737320766572696679696e67436f6e747261637429a265627a7a72315820add72ed11ba61df01a623c753eed615d857b151faf084e539a328a4109918b9a64736f6c63430005110032454950373132446f6d61696e28737472696e67206e616d652c737472696e672076657273696f6e2c75696e7432353620636861696e49642c6164647265737320766572696679696e67436f6e747261637429",
  "linkReferences": {},
  "deployedLinkReferences": {}
}