{
  "_format": "hh-sol-artifact-1",
  "contractName": "ERC721Predicate",
  "sourceName": "contracts/root/predicates/ERC721Predicate.sol",
  "abi": [
    {
      "inputs": [
        {
          "internalType": "address",
          "name": "_withdrawManager",
          "type": "address"
        },
        {
          "internalType": "address",
          "name": "_depositManager",
          "type": "address"
        }
      ],
      "payable": false,
      "stateMutability": "nonpayable",
      "type": "constructor"
    },
    {
      "constant": true,
      "inputs": [],
      "name": "CHAINID",
      "outputs": [
        {
          "internalType": "uint256",
          "name": "",
          "type": "uint256"
        }
      ],
      "payable": false,
      "stateMutability": "view",
      "type": "function"
    },
    {
      "constant": true,
      "inputs": [
        {
          "internalType": "bytes",
          "name": "state",
          "type": "bytes"
        }
      ],
      "name": "interpretStateUpdate",
      "outputs": [
        {
          "internalType": "bytes",
          "name": "b",
          "type": "bytes"
        }
      ],
      "payable": false,
      "stateMutability": "view",
      "type": "function"
    },
    {
      "constant": true,
      "inputs": [],
      "name": "networkId",
      "outputs": [
        {
          "internalType": "bytes",
          "name": "",
          "type": "bytes"
        }
      ],
      "payable": false,
      "stateMutability": "view",
      "type": "function"
    },
    {
      "constant": false,
      "inputs": [
        {
          "internalType": "bytes",
          "name": "data",
          "type": "bytes"
        }
      ],
      "name": "onFinalizeExit",
      "outputs": [],
      "payable": false,
      "stateMutability": "nonpayable",
      "type": "function"
    },
    {
      "constant": false,
      "inputs": [
        {
          "internalType": "bytes",
          "name": "data",
          "type": "bytes"
        },
        {
          "internalType": "bytes",
          "name": "exitTx",
          "type": "bytes"
        }
      ],
      "name": "startExit",
      "outputs": [
        {
          "internalType": "bytes",
          "name": "",
          "type": "bytes"
        }
      ],
      "payable": true,
      "stateMutability": "payable",
      "type": "function"
    },
    {
      "constant": false,
      "inputs": [
        {
          "internalType": "bytes",
          "name": "data",
          "type": "bytes"
        }
      ],
      "name": "startExitWithBurntTokens",
      "outputs": [
        {
          "internalType": "bytes",
          "name": "",
          "type": "bytes"
        }
      ],
      "payable": false,
      "stateMutability": "nonpayable",
      "type": "function"
    },
    {
      "constant": false,
      "inputs": [
        {
          "internalType": "bytes",
          "name": "exit",
          "type": "bytes"
        },
        {
          "internalType": "bytes",
          "name": "inputUtxo",
          "type": "bytes"
        },
        {
          "internalType": "bytes",
          "name": "challengeData",
          "type": "bytes"
        }
      ],
      "name": "verifyDeprecation",
      "outputs": [
        {
          "internalType": "bool",
          "name": "",
          "type": "bool"
        }
      ],
      "payable": false,
      "stateMutability": "nonpayable",
      "type": "function"
    }
  ],
  "bytecode": "0x608060405234801561001057600080fd5b5060405161411f38038061411f8339818101604052604081101561003357600080fd5b8101908080519060200190929190805190602001909291905050508181816000806101000a81548173ffffffffffffffffffffffffffffffffffffffff021916908373ffffffffffffffffffffffffffffffffffffffff16021790555080600160006101000a81548173ffffffffffffffffffffffffffffffffffffffff021916908373ffffffffffffffffffffffffffffffffffffffff1602179055505050505061403b806100e46000396000f3fe6080604052600436106100705760003560e01c806382e3464c1161004e57806382e3464c146104075780639025e64c14610506578063cc79f97b14610596578063ec58410c146105c157610070565b806328b4b53d146100755780637bd94e03146102405780637c5264b4146102c6575b600080fd5b6101c56004803603604081101561008b57600080fd5b81019080803590602001906401000000008111156100a857600080fd5b8201836020820111156100ba57600080fd5b803590602001918460018302840111640100000000831117156100dc57600080fd5b91908080601f016020809104026020016040519081016040528093929190818152602001838380828437600081840152601f19601f8201169050808301925050505050505091929192908035906020019064010000000081111561013f57600080fd5b82018360208201111561015157600080fd5b8035906020019184600183028401116401000000008311171561017357600080fd5b91908080601f016020809104026020016040519081016040528093929190818152602001838380828437600081840152601f19601f820116905080830192505050505050509192919290505050610709565b6040518080602001828103825283818151815260200191508051906020019080838360005b838110156102055780820151818401526020810190506101ea565b50505050905090810190601f1680156102325780820380516001836020036101000a031916815260200191505b509250505060405180910390f35b34801561024c57600080fd5b506102c46004803603602081101561026357600080fd5b810190808035906020019064010000000081111561028057600080fd5b82018360208201111561029257600080fd5b803590602001918460018302840111640100000000831117156102b457600080fd5b9091929391929390505050610da2565b005b3480156102d257600080fd5b5061038c600480360360208110156102e957600080fd5b810190808035906020019064010000000081111561030657600080fd5b82018360208201111561031857600080fd5b8035906020019184600183028401116401000000008311171561033a57600080fd5b91908080601f016020809104026020016040519081016040528093929190818152602001838380828437600081840152601f19601f820116905080830192505050505050509192919290505050610fb9565b6040518080602001828103825283818151815260200191508051906020019080838360005b838110156103cc5780820151818401526020810190506103b1565b50505050905090810190601f1680156103f95780820380516001836020036101000a031916815260200191505b509250505060405180910390f35b34801561041357600080fd5b5061048b6004803603602081101561042a57600080fd5b810190808035906020019064010000000081111561044757600080fd5b82018360208201111561045957600080fd5b8035906020019184600183028401116401000000008311171561047b57600080fd5b90919293919293905050506115de565b6040518080602001828103825283818151815260200191508051906020019080838360005b838110156104cb5780820151818401526020810190506104b0565b50505050905090810190601f1680156104f85780820380516001836020036101000a031916815260200191505b509250505060405180910390f35b34801561051257600080fd5b5061051b611b52565b6040518080602001828103825283818151815260200191508051906020019080838360005b8381101561055b578082015181840152602081019050610540565b50505050905090810190601f1680156105885780820380516001836020036101000a031916815260200191505b509250505060405180910390f35b3480156105a257600080fd5b506105ab611b8b565b6040518082815260200191505060405180910390f35b3480156105cd57600080fd5b506106ef600480360360608110156105e457600080fd5b810190808035906020019064010000000081111561060157600080fd5b82018360208201111561061357600080fd5b8035906020019184600183028401116401000000008311171561063557600080fd5b90919293919293908035906020019064010000000081111561065657600080fd5b82018360208201111561066857600080fd5b8035906020019184600183028401116401000000008311171561068a57600080fd5b9091929391929390803590602001906401000000008111156106ab57600080fd5b8201836020820111156106bd57600080fd5b803590602001918460018302840111640100000000831117156106df57600080fd5b9091929391929390505050611b92565b604051808215151515815260200191505060405180910390f35b606067016345785d8a00003414610788576040517f08c379a00000000000000000000000000000000000000000000000000000000081526004018080602001828103825260138152602001807f496e76616c696420426f6e6420616d6f756e740000000000000000000000000081525060200191505060405180910390fd5b606061079b6107968561201b565b612049565b90506107a5613cad565b6107ae84612126565b90506000806108066107d3856006815181106107c657fe5b6020026020010151612337565b6107f0866009815181106107e357fe5b60200260200101516123b1565b856060015186604001518760000151600061240b565b91509150610812612663565b60006109918261098361084b600a61083d8a60098151811061083057fe5b60200260200101516123b1565b6126d590919063ffffffff16565b6000809054906101000a900473ffffffffffffffffffffffffffffffffffffffff1673ffffffffffffffffffffffffffffffffffffffff1663ad1d80698d6000806040518463ffffffff1660e01b815260040180806020018460ff16815260200183151515158152602001828103825285818151815260200191508051906020019080838360005b838110156108ee5780820151818401526020810190506108d3565b50505050905090810190601f16801561091b5780820380516001836020036101000a031916815260200191505b5094505050505060206040518083038186803b15801561093a57600080fd5b505afa15801561094e573d6000803e3d6000fd5b505050506040513d602081101561096457600080fd5b810190808051906020019092919050505061270f90919063ffffffff16565b61270f90919063ffffffff16565b90506000600182901b90506000809054906101000a900473ffffffffffffffffffffffffffffffffffffffff1673ffffffffffffffffffffffffffffffffffffffff1663d931a8693387604001518789600001518a602001516000886040518863ffffffff1660e01b8152600401808873ffffffffffffffffffffffffffffffffffffffff1673ffffffffffffffffffffffffffffffffffffffff1681526020018773ffffffffffffffffffffffffffffffffffffffff1673ffffffffffffffffffffffffffffffffffffffff1681526020018673ffffffffffffffffffffffffffffffffffffffff1673ffffffffffffffffffffffffffffffffffffffff16815260200185815260200184815260200183151515158152602001828152602001975050505050505050600060405180830381600087803b158015610ad557600080fd5b505af1158015610ae9573d6000803e3d6000fd5b505050506000809054906101000a900473ffffffffffffffffffffffffffffffffffffffff1673ffffffffffffffffffffffffffffffffffffffff166322f192af82848860600151886040518563ffffffff1660e01b8152600401808581526020018481526020018373ffffffffffffffffffffffffffffffffffffffff1673ffffffffffffffffffffffffffffffffffffffff1681526020018273ffffffffffffffffffffffffffffffffffffffff1673ffffffffffffffffffffffffffffffffffffffff168152602001945050505050600060405180830381600087803b158015610bd557600080fd5b505af1158015610be9573d6000803e3d6000fd5b505050506000809054906101000a900473ffffffffffffffffffffffffffffffffffffffff1673ffffffffffffffffffffffffffffffffffffffff166322f192af82610c3f60018661272e90919063ffffffff16565b33886040518563ffffffff1660e01b8152600401808581526020018481526020018373ffffffffffffffffffffffffffffffffffffffff1673ffffffffffffffffffffffffffffffffffffffff1681526020018273ffffffffffffffffffffffffffffffffffffffff1673ffffffffffffffffffffffffffffffffffffffff168152602001945050505050600060405180830381600087803b158015610ce457600080fd5b505af1158015610cf8573d6000803e3d6000fd5b50505050838560000151866040015183604051602001808573ffffffffffffffffffffffffffffffffffffffff1673ffffffffffffffffffffffffffffffffffffffff1681526020018481526020018373ffffffffffffffffffffffffffffffffffffffff1673ffffffffffffffffffffffffffffffffffffffff168152602001828152602001945050505050604051602081830303815290604052965050505050505092915050565b6000809054906101000a900473ffffffffffffffffffffffffffffffffffffffff1673ffffffffffffffffffffffffffffffffffffffff163373ffffffffffffffffffffffffffffffffffffffff1614610e64576040517f08c379a00000000000000000000000000000000000000000000000000000000081526004018080602001828103825260158152602001807f4f4e4c595f57495448445241575f4d414e41474552000000000000000000000081525060200191505060405180910390fd5b6000806000610eb685858080601f016020809104026020016040519081016040528093929190818152602001838380828437600081840152601f19601f8201169050808301925050505050505061274e565b93509350935050600160009054906101000a900473ffffffffffffffffffffffffffffffffffffffff1673ffffffffffffffffffffffffffffffffffffffff166349f4cc178484846040518463ffffffff1660e01b8152600401808473ffffffffffffffffffffffffffffffffffffffff1673ffffffffffffffffffffffffffffffffffffffff1681526020018373ffffffffffffffffffffffffffffffffffffffff1673ffffffffffffffffffffffffffffffffffffffff1681526020018281526020019350505050600060405180830381600087803b158015610f9a57600080fd5b505af1158015610fae573d6000803e3d6000fd5b505050505050505050565b606080610fcd610fc88461201b565b612049565b90506060610fee82600681518110610fe157fe5b6020026020010151612337565b90506060611003610ffe8361201b565b612049565b905060008060009054906101000a900473ffffffffffffffffffffffffffffffffffffffff1673ffffffffffffffffffffffffffffffffffffffff1663ad1d8069876000806040518463ffffffff1660e01b815260040180806020018460ff16815260200183151515158152602001828103825285818151815260200191508051906020019080838360005b838110156110aa57808201518184015260208101905061108f565b50505050905090810190601f1680156110d75780820380516001836020036101000a031916815260200191505b5094505050505060206040518083038186803b1580156110f657600080fd5b505afa15801561110a573d6000803e3d6000fd5b505050506040513d602081101561112057600080fd5b8101908080519060200190929190505050905060006111528560098151811061114557fe5b60200260200101516123b1565b9050600a81106111ca576040517f08c379a000000000000000000000000000000000000000000000000000000000815260040180806020018281038252601b8152602001807f537570706f7274696e672061206d6178206f66203130206c6f6773000000000081525060200191505060405180910390fd5b6112026111ea846003815181106111dd57fe5b6020026020010151612049565b82815181106111f557fe5b6020026020010151612049565b925060006112238460008151811061121657fe5b60200260200101516127b5565b905060606112448560028151811061123757fe5b6020026020010151612337565b90506112638560018151811061125657fe5b6020026020010151612049565b94507f9b1bfa7fa9ee420a16e124f794c35ac9f90472acc99140eb2f6447c714cad8eb60001b6112a68660008151811061129957fe5b60200260200101516123b1565b60001b1461131c576040517f08c379a000000000000000000000000000000000000000000000000000000000815260040180806020018281038252601e8152602001807f4e6f742061207769746864726177206576656e74207369676e6174757265000081525060200191505060405180910390fd5b600061133b8660018151811061132e57fe5b60200260200101516123b1565b905061135a8660028151811061134d57fe5b60200260200101516123b1565b73ffffffffffffffffffffffffffffffffffffffff163373ffffffffffffffffffffffffffffffffffffffff16146113dd576040517f08c379a0000000000000000000000000000000000000000000000000000000008152600401808060200182810382526028815260200180613f3d6028913960400191505060405180910390fd5b60006113ea8360006127d8565b90506000600187901b90506000809054906101000a900473ffffffffffffffffffffffffffffffffffffffff1673ffffffffffffffffffffffffffffffffffffffff1663d931a869338786866000801b6001886040518863ffffffff1660e01b8152600401808873ffffffffffffffffffffffffffffffffffffffff1673ffffffffffffffffffffffffffffffffffffffff1681526020018773ffffffffffffffffffffffffffffffffffffffff1673ffffffffffffffffffffffffffffffffffffffff1681526020018673ffffffffffffffffffffffffffffffffffffffff1673ffffffffffffffffffffffffffffffffffffffff16815260200185815260200184815260200183151515158152602001828152602001975050505050505050600060405180830381600087803b15801561152557600080fd5b505af1158015611539573d6000803e3d6000fd5b5050505082828683604051602001808573ffffffffffffffffffffffffffffffffffffffff1673ffffffffffffffffffffffffffffffffffffffff1681526020018481526020018373ffffffffffffffffffffffffffffffffffffffff1673ffffffffffffffffffffffffffffffffffffffff1681526020018281526020019450505050506040516020818303038152906040529a5050505050505050505050919050565b6060806000806000868660808110156115f657600080fd5b810190808035906020019064010000000081111561161357600080fd5b82018360208201111561162557600080fd5b8035906020019184600183028401116401000000008311171561164757600080fd5b91908080601f016020809104026020016040519081016040528093929190818152602001838380828437600081840152601f19601f820116905080830192505050505050509192919290803573ffffffffffffffffffffffffffffffffffffffff169060200190929190803515159060200190929190803515159060200190929190505050935093509350935060606116e76116e28661201b565b612049565b90506060611708826006815181106116fb57fe5b6020026020010151612337565b905060006117298360098151811061171c57fe5b60200260200101516123b1565b9050600a81106117a1576040517f08c379a000000000000000000000000000000000000000000000000000000000815260040180806020018281038252601b8152602001807f537570706f7274696e672061206d6178206f66203130206c6f6773000000000081525060200191505060405180910390fd5b60606117b46117af8461201b565b612049565b90506117ee6117d6826003815181106117c957fe5b6020026020010151612049565b83815181106117e157fe5b6020026020010151612049565b90506117f8613d16565b6118158260008151811061180857fe5b60200260200101516127b5565b816040019073ffffffffffffffffffffffffffffffffffffffff16908173ffffffffffffffffffffffffffffffffffffffff1681525050606061186b8360028151811061185e57fe5b6020026020010151612337565b905061188a8360018151811061187d57fe5b6020026020010151612049565b92506118a98360018151811061189c57fe5b60200260200101516123b1565b826060019073ffffffffffffffffffffffffffffffffffffffff16908173ffffffffffffffffffffffffffffffffffffffff16815250506118eb8160006127d8565b826000018181525050861561190957611904838a612800565b61191d565b611913838a612971565b8260200181815250505b611947611934600a866126d590919063ffffffff16565b836020015161270f90919063ffffffff16565b8260200181815250508715611aa057611a9682602001516000809054906101000a900473ffffffffffffffffffffffffffffffffffffffff1673ffffffffffffffffffffffffffffffffffffffff1663ad1d80698d6000806040518463ffffffff1660e01b815260040180806020018460ff16815260200183151515158152602001828103825285818151815260200191508051906020019080838360005b83811015611a015780820151818401526020810190506119e6565b50505050905090810190601f168015611a2e5780820380516001836020036101000a031916815260200191505b5094505050505060206040518083038186803b158015611a4d57600080fd5b505afa158015611a61573d6000803e3d6000fd5b505050506040513d6020811015611a7757600080fd5b810190808051906020019092919050505061270f90919063ffffffff16565b8260200181815250505b8160000151826020015183604001518460600151604051602001808581526020018481526020018373ffffffffffffffffffffffffffffffffffffffff1673ffffffffffffffffffffffffffffffffffffffff1681526020018273ffffffffffffffffffffffffffffffffffffffff1673ffffffffffffffffffffffffffffffffffffffff1681526020019450505050506040516020818303038152906040529a505050505050505050505092915050565b6040518060400160405280600381526020017f013881000000000000000000000000000000000000000000000000000000000081525081565b6201388181565b6000611b9c613d6a565b611be988888080601f016020809104026020016040519081016040528093929190818152602001838380828437600081840152601f19601f82011690508083019250505050505050612b35565b9050600080611c3b88888080601f016020809104026020016040519081016040528093929190818152602001838380828437600081840152601f19601f82011690508083019250505050505050612c1b565b5050915091506060611c98611c9388888080601f016020809104026020016040519081016040528093929190818152602001838380828437600081840152601f19601f8201169050808301925050505050505061201b565b612049565b9050611ca2613cad565b611cc7611cc283600a81518110611cb557fe5b6020026020010151612337565b612c85565b90508273ffffffffffffffffffffffffffffffffffffffff16816060015173ffffffffffffffffffffffffffffffffffffffff1614611d51576040517f08c379a000000000000000000000000000000000000000000000000000000000815260040180806020018281038252604a815260200180613e6c604a913960600191505060405180910390fd5b806040015173ffffffffffffffffffffffffffffffffffffffff16856060015173ffffffffffffffffffffffffffffffffffffffff1614611ddd576040517f08c379a000000000000000000000000000000000000000000000000000000000815260040180806020018281038252602f815260200180613e3d602f913960400191505060405180910390fd5b806020015185602001511415611e3e576040517f08c379a0000000000000000000000000000000000000000000000000000000008152600401808060200182810382526021815260200180613eef6021913960400191505060405180910390fd5b8060000151856000015114611ebb576040517f08c379a00000000000000000000000000000000000000000000000000000000081526004018080602001828103825260158152602001807f746f6b656e496420646f65736e2774206d61746368000000000000000000000081525060200191505060405180910390fd5b60008060009054906101000a900473ffffffffffffffffffffffffffffffffffffffff1673ffffffffffffffffffffffffffffffffffffffff1663ad1d80698a8a600060016040518563ffffffff1660e01b815260040180806020018460ff168152602001831515151581526020018281038252868682818152602001925080828437600081840152601f19601f8201169050808301925050509550505050505060206040518083038186803b158015611f7457600080fd5b505afa158015611f88573d6000803e3d6000fd5b505050506040513d6020811015611f9e57600080fd5b81019080805190602001909291905050509050612004611fd184600681518110611fc457fe5b6020026020010151612337565b611fee85600981518110611fe157fe5b60200260200101516123b1565b846060015185604001518660000151600161240b565b505084811196505050505050509695505050505050565b612023613de7565b600060208301905060405180604001604052808451815260200182815250915050919050565b606061205482612de9565b61205d57600080fd5b600061206883612e37565b90506060816040519080825280602002602001820160405280156120a657816020015b612093613e01565b81526020019060019003908161208b5790505b50905060006120b88560200151612ea8565b8560200151019050600080600090505b84811015612119576120d983612f31565b91506040518060400160405280838152602001848152508482815181106120fc57fe5b6020026020010181905250818301925080806001019150506120c8565b5082945050505050919050565b61212e613cad565b606061214161213c8461201b565b612049565b905060098151146121ba576040517f08c379a00000000000000000000000000000000000000000000000000000000081526004018080602001828103825260158152602001807f4d414c464f524d45445f57495448445241575f5458000000000000000000000081525060200191505060405180910390fd5b6121d7816003815181106121ca57fe5b60200260200101516127b5565b826040019073ffffffffffffffffffffffffffffffffffffffff16908173ffffffffffffffffffffffffffffffffffffffff168152505061221781612fe9565b8360600184602001828152508273ffffffffffffffffffffffffffffffffffffffff1673ffffffffffffffffffffffffffffffffffffffff1681525050503373ffffffffffffffffffffffffffffffffffffffff16826060015173ffffffffffffffffffffffffffffffffffffffff1614156122df576122b26122ad826005815181106122a057fe5b6020026020010151612337565b613418565b83600001846080018260038111156122c657fe5b60038111156122d157fe5b815250828152505050612331565b6123046122ff826005815181106122f257fe5b6020026020010151612337565b61365d565b82600001818152505060028260800190600381111561231f57fe5b9081600381111561232c57fe5b815250505b50919050565b6060600082600001511161234a57600080fd5b6000806123568461382d565b915091506060816040519080825280601f01601f19166020018201604052801561238f5781602001600182028038833980820191505090505b50905060008160200190506123a5848285613865565b81945050505050919050565b60008082600001511180156123cb57506021826000015111155b6123d457600080fd5b6000806123e08461382d565b91509150600082519050602082101561240057816020036101000a810490505b809350505050919050565b600080600a8710612484576040517f08c379a000000000000000000000000000000000000000000000000000000000815260040180806020018281038252601b8152602001807f537570706f7274696e672061206d6178206f66203130206c6f6773000000000081525060200191505060405180910390fd5b60606124976124928a61201b565b612049565b90506124d16124b9826003815181106124ac57fe5b6020026020010151612049565b89815181106124c457fe5b6020026020010151612049565b90506124f0816000815181106124e357fe5b60200260200101516127b5565b73ffffffffffffffffffffffffffffffffffffffff168673ffffffffffffffffffffffffffffffffffffffff1614612573576040517f08c379a0000000000000000000000000000000000000000000000000000000008152600401808060200182810382526039815260200180613eb66039913960400191505060405180910390fd5b60606125928260028151811061258557fe5b6020026020010151612337565b90506125b1826001815181106125a457fe5b6020026020010151612049565b91506125d0826001815181106125c357fe5b60200260200101516123b1565b935084156125e7576125e28289612800565b6125f4565b6125f18289612971565b92505b6125ff8160006127d8565b8614612656576040517f08c379a000000000000000000000000000000000000000000000000000000000815260040180806020018281038252602a815260200180613f8c602a913960400191505060405180910390fd5b5050965096945050505050565b6000809054906101000a900473ffffffffffffffffffffffffffffffffffffffff1673ffffffffffffffffffffffffffffffffffffffff166108fc67016345785d8a00009081150290604051600060405180830381858888f193505050501580156126d2573d6000803e3d6000fd5b50565b6000808314156126e85760009050612709565b60008284029050828482816126f957fe5b041461270457600080fd5b809150505b92915050565b60008082840190508381101561272457600080fd5b8091505092915050565b60008282111561273d57600080fd5b600082840390508091505092915050565b60008060008084806020019051608081101561276957600080fd5b8101908080519060200190929190805190602001909291908051906020019092919080519060200190929190505050829250819150809450819550829650839750505050509193509193565b600060158260000151146127c857600080fd5b6127d1826123b1565b9050919050565b600060208201835110156127eb57600080fd5b60008260208501015190508091505092915050565b600061281f8360008151811061281257fe5b60200260200101516123b1565b60001b90507f9b1bfa7fa9ee420a16e124f794c35ac9f90472acc99140eb2f6447c714cad8eb60001b81148061287757507f6eabe333476233fd382224f233210cb808a7bc4c4de64f9d76628bf63c677b1a60001b81145b6128cc576040517f08c379a000000000000000000000000000000000000000000000000000000000815260040180806020018281038252602d815260200180613f10602d913960400191505060405180910390fd5b6128e9836002815181106128dc57fe5b60200260200101516123b1565b73ffffffffffffffffffffffffffffffffffffffff168273ffffffffffffffffffffffffffffffffffffffff161461296c576040517f08c379a000000000000000000000000000000000000000000000000000000000815260040180806020018281038252602a815260200180613fdd602a913960400191505060405180910390fd5b505050565b6000806129918460008151811061298457fe5b60200260200101516123b1565b60001b905060007f5548c837ab068cf56a2c2479df0882a4922fd203edb7517321831d95078c5f6260001b8214156129e7576129e0856002815181106129d357fe5b60200260200101516123b1565b9050612aa9565b7f6eabe333476233fd382224f233210cb808a7bc4c4de64f9d76628bf63c677b1a60001b821415612a3a57612a2f85600381518110612a2257fe5b60200260200101516123b1565b905060019250612aa8565b6040517f08c379a00000000000000000000000000000000000000000000000000000000081526004018080602001828103825260178152602001807f457869742074797065206e6f7420737570706f7274656400000000000000000081525060200191505060405180910390fd5b5b8073ffffffffffffffffffffffffffffffffffffffff168473ffffffffffffffffffffffffffffffffffffffff1614612b2d576040517f08c379a0000000000000000000000000000000000000000000000000000000008152600401808060200182810382526027815260200180613f656027913960400191505060405180910390fd5b505092915050565b612b3d613d6a565b60008060008060008680602001905160a0811015612b5a57600080fd5b810190808051906020019092919080519060200190929190805190602001909291908051906020019092919080519060200190929190505050945094509450945094506040518060c001604052808481526020018381526020018673ffffffffffffffffffffffffffffffffffffffff1681526020018573ffffffffffffffffffffffffffffffffffffffff1681526020018215158152602001600073ffffffffffffffffffffffffffffffffffffffff1681525095505050505050919050565b600080600080848060200190516080811015612c3657600080fd5b8101908080519060200190929190805190602001909291908051906020019092919080519060200190929190505050829250819150809050809450819550829650839750505050509193509193565b612c8d613cad565b6060612ca0612c9b8461201b565b612049565b90506009815114612d19576040517f08c379a00000000000000000000000000000000000000000000000000000000081526004018080602001828103825260158152602001807f4d414c464f524d45445f57495448445241575f5458000000000000000000000081525060200191505060405180910390fd5b612d3681600381518110612d2957fe5b60200260200101516127b5565b826040019073ffffffffffffffffffffffffffffffffffffffff16908173ffffffffffffffffffffffffffffffffffffffff1681525050612d7681612fe9565b8360600184602001828152508273ffffffffffffffffffffffffffffffffffffffff1673ffffffffffffffffffffffffffffffffffffffff168152505050612dd9612dd482600581518110612dc757fe5b6020026020010151612337565b613418565b5082600001818152505050919050565b60008082600001511415612e005760009050612e32565b60008083602001519050805160001a915060c060ff168260ff161015612e2b57600092505050612e32565b6001925050505b919050565b60008082600001511415612e4e5760009050612ea3565b60008090506000612e628460200151612ea8565b84602001510190506000846000015185602001510190505b80821015612e9c57612e8b82612f31565b820191508280600101935050612e7a565b8293505050505b919050565b600080825160001a9050608060ff16811015612ec8576000915050612f2c565b60b860ff16811080612eed575060c060ff168110158015612eec575060f860ff1681105b5b15612efc576001915050612f2c565b60c060ff16811015612f1c5760018060b80360ff16820301915050612f2c565b60018060f80360ff168203019150505b919050565b6000806000835160001a9050608060ff16811015612f525760019150612fdf565b60b860ff16811015612f6f576001608060ff168203019150612fde565b60c060ff16811015612f9f5760b78103600185019450806020036101000a85510460018201810193505050612fdd565b60f860ff16811015612fbc57600160c060ff168203019150612fdc565b60f78103600185019450806020036101000a855104600182018101935050505b5b5b5b8192505050919050565b6000806060600960405190808252806020026020018201604052801561302357816020015b606081526020019060019003908161300e5790505b50905060008090505b60058160ff161161307d57613056858260ff168151811061304957fe5b6020026020010151612337565b828260ff168151811061306557fe5b6020026020010181905250808060010191505061302c565b506040518060400160405280600381526020017f0138810000000000000000000000000000000000000000000000000000000000815250816006815181106130c157fe5b602002602001018190525060405180602001604052806000815250816007815181106130e957fe5b6020026020010181905250604051806020016040528060008152508160088151811061311157fe5b6020026020010181905250613125816138d6565b80519060200120915060018273__$d57268b4e4abe976846916e1669260f8d8$__63b40b539b6131688860068151811061315b57fe5b6020026020010151612337565b73__$d57268b4e4abe976846916e1669260f8d8$__634d66a2ae6040518060400160405280600381526020017f01388100000000000000000000000000000000000000000000000000000000008152506040518263ffffffff1660e01b81526004018080602001828103825283818151815260200191508051906020019080838360005b838110156132075780820151818401526020810190506131ec565b50505050905090810190601f1680156132345780820380516001836020036101000a031916815260200191505b509250505060206040518083038186803b15801561325157600080fd5b505af4158015613265573d6000803e3d6000fd5b505050506040513d602081101561327b57600080fd5b81019080805190602001909291905050506040518363ffffffff1660e01b815260040180806020018361ffff1661ffff168152602001828103825284818151815260200191508051906020019080838360005b838110156132e95780820151818401526020810190506132ce565b50505050905090810190601f1680156133165780820380516001836020036101000a031916815260200191505b50935050505060206040518083038186803b15801561333457600080fd5b505af4158015613348573d6000803e3d6000fd5b505050506040513d602081101561335e57600080fd5b810190808051906020019092919050505061338c8760078151811061337f57fe5b60200260200101516123b1565b60001b6133ac8860088151811061339f57fe5b60200260200101516123b1565b60001b60405160008152602001604052604051808581526020018460ff1660ff1681526020018381526020018281526020019450505050506020604051602081039080840390855afa158015613406573d6000803e3d6000fd5b50505060206040510351925050915091565b600080600061343261342d856000600461393a565b6139c6565b9050632e1a7d4d60e01b7bffffffffffffffffffffffffffffffffffffffffffffffffffffffff1916817bffffffffffffffffffffffffffffffffffffffffffffffffffffffff1916141561350e5760248451146134f8576040517f08c379a000000000000000000000000000000000000000000000000000000000815260040180806020018281038252600a8152602001807f496e76616c69642074780000000000000000000000000000000000000000000081525060200191505060405180910390fd5b6135038460046127d8565b925060039150613657565b6323b872dd60e01b7bffffffffffffffffffffffffffffffffffffffffffffffffffffffff1916817bffffffffffffffffffffffffffffffffffffffffffffffffffffffff191614156135e85760648451146135d2576040517f08c379a000000000000000000000000000000000000000000000000000000000815260040180806020018281038252600a8152602001807f496e76616c69642074780000000000000000000000000000000000000000000081525060200191505060405180910390fd5b6135dd8460446127d8565b925060019150613656565b6040517f08c379a000000000000000000000000000000000000000000000000000000000815260040180806020018281038252601a8152602001807f457869742074782074797065206e6f7420737570706f7274656400000000000081525060200191505060405180910390fd5b5b50915091565b600060648251146136d6576040517f08c379a000000000000000000000000000000000000000000000000000000000815260040180806020018281038252600a8152602001807f496e76616c69642074780000000000000000000000000000000000000000000081525060200191505060405180910390fd5b60006136ed6136e8846000600461393a565b6139c6565b90506323b872dd60e01b7bffffffffffffffffffffffffffffffffffffffffffffffffffffffff1916817bffffffffffffffffffffffffffffffffffffffffffffffffffffffff19161461378c576040517f08c379a0000000000000000000000000000000000000000000000000000000008152600401808060200182810382526027815260200180613fb66027913960400191505060405180910390fd5b6137978360246127d8565b73ffffffffffffffffffffffffffffffffffffffff163373ffffffffffffffffffffffffffffffffffffffff161461381a576040517f08c379a0000000000000000000000000000000000000000000000000000000008152600401808060200182810382526021815260200180613e1c6021913960400191505060405180910390fd5b6138258360446127d8565b915050919050565b600080600061383f8460200151612ea8565b905060008185602001510190506000828660000151039050818194509450505050915091565b6000811415613873576138d1565b5b602060ff1681106138a35782518252602060ff1683019250602060ff1682019150602060ff1681039050613874565b60008111156138d0576000600182602060ff16036101000a03905080198451168184511681811785525050505b5b505050565b60608060008090505b835181101561391c5761390d826139088684815181106138fb57fe5b60200260200101516139d4565b613a70565b915080806001019150506138df565b5061393261392c825160c0613afa565b82613a70565b915050919050565b60608183018451101561394c57600080fd5b6060821560008114613969576040519150602082016040526139ba565b6040519150601f8416801560200281840101858101878315602002848b0101015b818310156139a7578051835260208301925060208101905061398a565b50868552601f19601f8301166040525050505b50809150509392505050565b600060208201519050919050565b60608060018351148015613a0b5750608060ff60f81b846000815181106139f757fe5b602001015160f81c60f81b1660f81c60ff16105b15613a4f5760016040519080825280601f01601f191660200182016040528015613a445781602001600182028038833980820191505090505b509050829050613a67565b613a64613a5e84516080613afa565b84613a70565b90505b80915050919050565b6060806040519050835180825260208201818101602087015b81831015613aa65780518352602083019250602081019050613a89565b50855192508351830184528091508282019050602086015b81831015613adb5780518352602083019250602081019050613abe565b50601f19601f8851850115830101166040525050508091505092915050565b60606038831015613b8957606060016040519080825280601f01601f191660200182016040528015613b3b5781602001600182028038833980820191505090505b50905082840160f81b81600081518110613b5157fe5b60200101907effffffffffffffffffffffffffffffffffffffffffffffffffffffffffffff1916908160001a90535080915050613be6565b600080600190505b6000818681613b9c57fe5b0414613bb657818060010192505061010081029050613b91565b6060613bc6836037870101613bec565b90506060613bd387613bec565b9050613bdf8282613a70565b9450505050505b92915050565b606060006001905060ff831115613c0257600290505b806040519080825280601f01601f191660200182016040528015613c355781602001600182028038833980820191505090505b50915060008090505b81811015613ca65780600183030360080260020a8481613c5a57fe5b0460f81b838281518110613c6a57fe5b60200101907effffffffffffffffffffffffffffffffffffffffffffffffffffffffffffff1916908160001a9053508080600101915050613c3e565b5050919050565b6040518060a001604052806000815260200160008019168152602001600073ffffffffffffffffffffffffffffffffffffffff168152602001600073ffffffffffffffffffffffffffffffffffffffff16815260200160006003811115613d1057fe5b81525090565b60405180608001604052806000815260200160008152602001600073ffffffffffffffffffffffffffffffffffffffff168152602001600073ffffffffffffffffffffffffffffffffffffffff1681525090565b6040518060c001604052806000815260200160008019168152602001600073ffffffffffffffffffffffffffffffffffffffff168152602001600073ffffffffffffffffffffffffffffffffffffffff168152602001600015158152602001600073ffffffffffffffffffffffffffffffffffffffff1681525090565b604051806040016040528060008152602001600081525090565b60405180604001604052806000815260200160008152509056fe4578697420747820646f65736e7420636f6e6365726e2074686520657869746f724368616c6c656e676520747820746f6b656e20646f65736e74206d617463682077697468206578697420746f6b656e4368616c6c656e6765207478206e6f74207369676e6564206279207468652070617274792077686f207369676e65642074686520696e707574205554584f20746f2074686520657869745265666572656e636520616e64206578697420747820646f206e6f7420636f72726573706f6e6420746f207468652073616d6520746f6b656e43616e6e6f74206368616c6c656e676520776974682074686520657869742074784c6f67207369676e617475726520646f65736e74207175616c69667920617320612076616c6964207370656e645769746864726177657220616e64206275726e206578697420747820646f206e6f74206d617463687478202f206c6f6720646f65736e7420636f6e6365726e20746865207061727469636970616e74546f6b656e496420696e2074686520747820616e64206c6f674461746120646f206e6f74206d617463684f6e6c7920737570706f7274732065786974696e672066726f6d207472616e73666572207478737061727469636970616e7420616e64207265666572656e63656420747820646f206e6f74206d61746368a265627a7a72315820d473811333000c2ec33fd55a60a884fa6a7ffd0e5ce3fe4dc7831b4234ddf8e164736f6c63430005110032",
  "linkReferences": {
    "contracts/common/lib/Common.sol": {
      "Common": [
        {
          "length": 20,
          "start": 12823
        },
        {
          "length": 20,
          "start": 12878
        }
      ]
    }
  },
  "deployedLinkReferences": {
    "contracts/common/lib/Common.sol": {
      "Common": [
        {
          "length": 20,
          "start": 12595
        },
        {
          "length": 20,
          "start": 12650
        }
      ]
    }
  }
}