{
  "_format": "hh-sol-artifact-1",
  "contractName": "GovernanceLockable",
  "sourceName": "contracts/common/mixin/GovernanceLockable.sol",
  "abi": [
    {
      "inputs": [
        {
          "internalType": "address",
          "name": "governance",
          "type": "address"
        }
      ],
      "payable": false,
      "stateMutability": "nonpayable",
      "type": "constructor"
    },
    {
      "constant": true,
      "inputs": [],
      "name": "governance",
      "outputs": [
        {
          "internalType": "contract IGovernance",
          "name": "",
          "type": "address"
        }
      ],
      "payable": false,
      "stateMutability": "view",
      "type": "function"
    },
    {
      "constant": false,
      "inputs": [],
      "name": "lock",
      "outputs": [],
      "payable": false,
      "stateMutability": "nonpayable",
      "type": "function"
    },
    {
      "constant": true,
      "inputs": [],
      "name": "locked",
      "outputs": [
        {
          "internalType": "bool",
          "name": "",
          "type": "bool"
        }
      ],
      "payable": false,
      "stateMutability": "view",
      "type": "function"
    },
    {
      "constant": false,
      "inputs": [],
      "name": "unlock",
      "outputs": [],
      "payable": false,
      "stateMutability": "nonpayable",
      "type": "function"
    }
  ],
  "bytecode": "0x608060405234801561001057600080fd5b506040516102ff3803806102ff8339818101604052602081101561003357600080fd5b81019080805190602001909291905050508080600060016101000a81548173ffffffffffffffffffffffffffffffffffffffff021916908373ffffffffffffffffffffffffffffffffffffffff1602179055505050610268806100976000396000f3fe608060405234801561001057600080fd5b506004361061004c5760003560e01c80635aa6e67514610051578063a69df4b51461009b578063cf309012146100a5578063f83d08ba146100c7575b600080fd5b6100596100d1565b604051808273ffffffffffffffffffffffffffffffffffffffff1673ffffffffffffffffffffffffffffffffffffffff16815260200191505060405180910390f35b6100a36100f7565b005b6100ad610109565b604051808215151515815260200191505060405180910390f35b6100cf61011b565b005b600060019054906101000a900473ffffffffffffffffffffffffffffffffffffffff1681565b6100ff61012d565b6101076101d5565b565b6000809054906101000a900460ff1681565b61012361012d565b61012b6101f1565b565b600060019054906101000a900473ffffffffffffffffffffffffffffffffffffffff1673ffffffffffffffffffffffffffffffffffffffff163373ffffffffffffffffffffffffffffffffffffffff16146101d3576040517f08c379a000000000000000000000000000000000000000000000000000000000815260040180806020018281038252602681526020018061020e6026913960400191505060405180910390fd5b565b60008060006101000a81548160ff021916908315150217905550565b60016000806101000a81548160ff02191690831515021790555056fe4f6e6c7920676f7665726e616e636520636f6e747261637420697320617574686f72697a6564a265627a7a72315820aa81a4a2bbadce064711a131c0543bc5fb114fbfd91a7603406f3f4b495ad6c664736f6c63430005110032",
  "linkReferences": {},
  "deployedLinkReferences": {}
}