{
  "_format": "hh-sol-artifact-1",
  "contractName": "MintableERC721Predicate",
  "sourceName": "contracts/root/predicates/MintableERC721Predicate.sol",
  "abi": [
    {
      "inputs": [
        {
          "internalType": "address",
          "name": "_withdrawManager",
          "type": "address"
        },
        {
          "internalType": "address",
          "name": "_depositManager",
          "type": "address"
        }
      ],
      "payable": false,
      "stateMutability": "nonpayable",
      "type": "constructor"
    },
    {
      "constant": true,
      "inputs": [],
      "name": "CHAINID",
      "outputs": [
        {
          "internalType": "uint256",
          "name": "",
          "type": "uint256"
        }
      ],
      "payable": false,
      "stateMutability": "view",
      "type": "function"
    },
    {
      "constant": true,
      "inputs": [
        {
          "internalType": "uint256",
          "name": "",
          "type": "uint256"
        }
      ],
      "name": "exitToMintableTokenInfo",
      "outputs": [
        {
          "internalType": "string",
          "name": "uri",
          "type": "string"
        },
        {
          "internalType": "address",
          "name": "minter",
          "type": "address"
        },
        {
          "internalType": "bool",
          "name": "isVanillaMint",
          "type": "bool"
        }
      ],
      "payable": false,
      "stateMutability": "view",
      "type": "function"
    },
    {
      "constant": true,
      "inputs": [
        {
          "internalType": "bytes",
          "name": "state",
          "type": "bytes"
        }
      ],
      "name": "interpretStateUpdate",
      "outputs": [
        {
          "internalType": "bytes",
          "name": "b",
          "type": "bytes"
        }
      ],
      "payable": false,
      "stateMutability": "view",
      "type": "function"
    },
    {
      "constant": true,
      "inputs": [],
      "name": "networkId",
      "outputs": [
        {
          "internalType": "bytes",
          "name": "",
          "type": "bytes"
        }
      ],
      "payable": false,
      "stateMutability": "view",
      "type": "function"
    },
    {
      "constant": false,
      "inputs": [
        {
          "internalType": "bytes",
          "name": "data",
          "type": "bytes"
        }
      ],
      "name": "onFinalizeExit",
      "outputs": [],
      "payable": false,
      "stateMutability": "nonpayable",
      "type": "function"
    },
    {
      "constant": false,
      "inputs": [
        {
          "internalType": "bytes",
          "name": "data",
          "type": "bytes"
        },
        {
          "internalType": "bytes",
          "name": "exitTx",
          "type": "bytes"
        }
      ],
      "name": "startExit",
      "outputs": [
        {
          "internalType": "bytes",
          "name": "",
          "type": "bytes"
        }
      ],
      "payable": true,
      "stateMutability": "payable",
      "type": "function"
    },
    {
      "constant": false,
      "inputs": [
        {
          "internalType": "bytes",
          "name": "data",
          "type": "bytes"
        },
        {
          "internalType": "bytes",
          "name": "mintTx",
          "type": "bytes"
        }
      ],
      "name": "startExitForMetadataMintableBurntToken",
      "outputs": [],
      "payable": false,
      "stateMutability": "nonpayable",
      "type": "function"
    },
    {
      "constant": false,
      "inputs": [
        {
          "internalType": "bytes",
          "name": "data",
          "type": "bytes"
        },
        {
          "internalType": "bytes",
          "name": "mintTx",
          "type": "bytes"
        },
        {
          "internalType": "bytes",
          "name": "exitTx",
          "type": "bytes"
        }
      ],
      "name": "startExitForMetadataMintableToken",
      "outputs": [],
      "payable": true,
      "stateMutability": "payable",
      "type": "function"
    },
    {
      "constant": false,
      "inputs": [
        {
          "internalType": "bytes",
          "name": "data",
          "type": "bytes"
        },
        {
          "internalType": "bytes",
          "name": "mintTx",
          "type": "bytes"
        }
      ],
      "name": "startExitForMintableBurntToken",
      "outputs": [],
      "payable": false,
      "stateMutability": "nonpayable",
      "type": "function"
    },
    {
      "constant": false,
      "inputs": [
        {
          "internalType": "bytes",
          "name": "data",
          "type": "bytes"
        },
        {
          "internalType": "bytes",
          "name": "mintTx",
          "type": "bytes"
        },
        {
          "internalType": "bytes",
          "name": "exitTx",
          "type": "bytes"
        }
      ],
      "name": "startExitForMintableToken",
      "outputs": [],
      "payable": true,
      "stateMutability": "payable",
      "type": "function"
    },
    {
      "constant": false,
      "inputs": [
        {
          "internalType": "bytes",
          "name": "data",
          "type": "bytes"
        }
      ],
      "name": "startExitWithBurntTokens",
      "outputs": [
        {
          "internalType": "bytes",
          "name": "",
          "type": "bytes"
        }
      ],
      "payable": false,
      "stateMutability": "nonpayable",
      "type": "function"
    },
    {
      "constant": false,
      "inputs": [
        {
          "internalType": "bytes",
          "name": "exit",
          "type": "bytes"
        },
        {
          "internalType": "bytes",
          "name": "inputUtxo",
          "type": "bytes"
        },
        {
          "internalType": "bytes",
          "name": "challengeData",
          "type": "bytes"
        }
      ],
      "name": "verifyDeprecation",
      "outputs": [
        {
          "internalType": "bool",
          "name": "",
          "type": "bool"
        }
      ],
      "payable": false,
      "stateMutability": "nonpayable",
      "type": "function"
    }
  ],
  "bytecode": "0x60806040523480156200001157600080fd5b5060405162005b6a38038062005b6a833981810160405260408110156200003757600080fd5b81019080805190602001909291908051906020019092919050505081818181816000806101000a81548173ffffffffffffffffffffffffffffffffffffffff021916908373ffffffffffffffffffffffffffffffffffffffff16021790555080600160006101000a81548173ffffffffffffffffffffffffffffffffffffffff021916908373ffffffffffffffffffffffffffffffffffffffff160217905550505050505050615a7d80620000ed6000396000f3fe6080604052600436106100a75760003560e01c80639025e64c116100645780639025e64c1461070a5780639087ea4c1461079a578063983134b9146108bd578063b0199891146109e0578063cc79f97b14610abb578063ec58410c14610ae6576100a7565b8063026c521d146100ac57806328b4b53d1461019e5780637bd94e03146103695780637c5264b4146103ef57806382e3464c1461053057806384be6fc81461062f575b600080fd5b3480156100b857600080fd5b506100e5600480360360208110156100cf57600080fd5b8101908080359060200190929190505050610c2e565b60405180806020018473ffffffffffffffffffffffffffffffffffffffff1673ffffffffffffffffffffffffffffffffffffffff16815260200183151515158152602001828103825285818151815260200191508051906020019080838360005b83811015610161578082015181840152602081019050610146565b50505050905090810190601f16801561018e5780820380516001836020036101000a031916815260200191505b5094505050505060405180910390f35b6102ee600480360360408110156101b457600080fd5b81019080803590602001906401000000008111156101d157600080fd5b8201836020820111156101e357600080fd5b8035906020019184600183028401116401000000008311171561020557600080fd5b91908080601f016020809104026020016040519081016040528093929190818152602001838380828437600081840152601f19601f8201169050808301925050505050505091929192908035906020019064010000000081111561026857600080fd5b82018360208201111561027a57600080fd5b8035906020019184600183028401116401000000008311171561029c57600080fd5b91908080601f016020809104026020016040519081016040528093929190818152602001838380828437600081840152601f19601f820116905080830192505050505050509192919290505050610d1d565b6040518080602001828103825283818151815260200191508051906020019080838360005b8381101561032e578082015181840152602081019050610313565b50505050905090810190601f16801561035b5780820380516001836020036101000a031916815260200191505b509250505060405180910390f35b34801561037557600080fd5b506103ed6004803603602081101561038c57600080fd5b81019080803590602001906401000000008111156103a957600080fd5b8201836020820111156103bb57600080fd5b803590602001918460018302840111640100000000831117156103dd57600080fd5b90919293919293905050506113b6565b005b3480156103fb57600080fd5b506104b56004803603602081101561041257600080fd5b810190808035906020019064010000000081111561042f57600080fd5b82018360208201111561044157600080fd5b8035906020019184600183028401116401000000008311171561046357600080fd5b91908080601f016020809104026020016040519081016040528093929190818152602001838380828437600081840152601f19601f820116905080830192505050505050509192919290505050611925565b6040518080602001828103825283818151815260200191508051906020019080838360005b838110156104f55780820151818401526020810190506104da565b50505050905090810190601f1680156105225780820380516001836020036101000a031916815260200191505b509250505060405180910390f35b34801561053c57600080fd5b506105b46004803603602081101561055357600080fd5b810190808035906020019064010000000081111561057057600080fd5b82018360208201111561058257600080fd5b803590602001918460018302840111640100000000831117156105a457600080fd5b9091929391929390505050611f4a565b6040518080602001828103825283818151815260200191508051906020019080838360005b838110156105f45780820151818401526020810190506105d9565b50505050905090810190601f1680156106215780820380516001836020036101000a031916815260200191505b509250505060405180910390f35b34801561063b57600080fd5b506107086004803603604081101561065257600080fd5b810190808035906020019064010000000081111561066f57600080fd5b82018360208201111561068157600080fd5b803590602001918460018302840111640100000000831117156106a357600080fd5b9091929391929390803590602001906401000000008111156106c457600080fd5b8201836020820111156106d657600080fd5b803590602001918460018302840111640100000000831117156106f857600080fd5b90919293919293905050506124be565b005b34801561071657600080fd5b5061071f6125b7565b6040518080602001828103825283818151815260200191508051906020019080838360005b8381101561075f578082015181840152602081019050610744565b50505050905090810190601f16801561078c5780820380516001836020036101000a031916815260200191505b509250505060405180910390f35b6108bb600480360360608110156107b057600080fd5b81019080803590602001906401000000008111156107cd57600080fd5b8201836020820111156107df57600080fd5b8035906020019184600183028401116401000000008311171561080157600080fd5b90919293919293908035906020019064010000000081111561082257600080fd5b82018360208201111561083457600080fd5b8035906020019184600183028401116401000000008311171561085657600080fd5b90919293919293908035906020019064010000000081111561087757600080fd5b82018360208201111561088957600080fd5b803590602001918460018302840111640100000000831117156108ab57600080fd5b90919293919293905050506125f0565b005b6109de600480360360608110156108d357600080fd5b81019080803590602001906401000000008111156108f057600080fd5b82018360208201111561090257600080fd5b8035906020019184600183028401116401000000008311171561092457600080fd5b90919293919293908035906020019064010000000081111561094557600080fd5b82018360208201111561095757600080fd5b8035906020019184600183028401116401000000008311171561097957600080fd5b90919293919293908035906020019064010000000081111561099a57600080fd5b8201836020820111156109ac57600080fd5b803590602001918460018302840111640100000000831117156109ce57600080fd5b9091929391929390505050612730565b005b3480156109ec57600080fd5b50610ab960048036036040811015610a0357600080fd5b8101908080359060200190640100000000811115610a2057600080fd5b820183602082011115610a3257600080fd5b80359060200191846001830284011164010000000083111715610a5457600080fd5b909192939192939080359060200190640100000000811115610a7557600080fd5b820183602082011115610a8757600080fd5b80359060200191846001830284011164010000000083111715610aa957600080fd5b9091929391929390505050612870565b005b348015610ac757600080fd5b50610ad0612969565b6040518082815260200191505060405180910390f35b348015610af257600080fd5b50610c1460048036036060811015610b0957600080fd5b8101908080359060200190640100000000811115610b2657600080fd5b820183602082011115610b3857600080fd5b80359060200191846001830284011164010000000083111715610b5a57600080fd5b909192939192939080359060200190640100000000811115610b7b57600080fd5b820183602082011115610b8d57600080fd5b80359060200191846001830284011164010000000083111715610baf57600080fd5b909192939192939080359060200190640100000000811115610bd057600080fd5b820183602082011115610be257600080fd5b80359060200191846001830284011164010000000083111715610c0457600080fd5b9091929391929390505050612970565b604051808215151515815260200191505060405180910390f35b6002602052806000526040600020600091509050806000018054600181600116156101000203166002900480601f016020809104026020016040519081016040528092919081815260200182805460018160011615610100020316600290048015610cda5780601f10610caf57610100808354040283529160200191610cda565b820191906000526020600020905b815481529060010190602001808311610cbd57829003601f168201915b5050505050908060010160009054906101000a900473ffffffffffffffffffffffffffffffffffffffff16908060010160149054906101000a900460ff16905083565b606067016345785d8a00003414610d9c576040517f08c379a00000000000000000000000000000000000000000000000000000000081526004018080602001828103825260138152602001807f496e76616c696420426f6e6420616d6f756e740000000000000000000000000081525060200191505060405180910390fd5b6060610daf610daa85612df9565b612e27565b9050610db9615331565b610dc284612f04565b9050600080610e1a610de785600681518110610dda57fe5b6020026020010151613115565b610e0486600981518110610df757fe5b602002602001015161318f565b85606001518660400151876000015160006131e9565b91509150610e26613441565b6000610fa582610f97610e5f600a610e518a600981518110610e4457fe5b602002602001015161318f565b6134b390919063ffffffff16565b6000809054906101000a900473ffffffffffffffffffffffffffffffffffffffff1673ffffffffffffffffffffffffffffffffffffffff1663ad1d80698d6000806040518463ffffffff1660e01b815260040180806020018460ff16815260200183151515158152602001828103825285818151815260200191508051906020019080838360005b83811015610f02578082015181840152602081019050610ee7565b50505050905090810190601f168015610f2f5780820380516001836020036101000a031916815260200191505b5094505050505060206040518083038186803b158015610f4e57600080fd5b505afa158015610f62573d6000803e3d6000fd5b505050506040513d6020811015610f7857600080fd5b81019080805190602001909291905050506134ed90919063ffffffff16565b6134ed90919063ffffffff16565b90506000600182901b90506000809054906101000a900473ffffffffffffffffffffffffffffffffffffffff1673ffffffffffffffffffffffffffffffffffffffff1663d931a8693387604001518789600001518a602001516000886040518863ffffffff1660e01b8152600401808873ffffffffffffffffffffffffffffffffffffffff1673ffffffffffffffffffffffffffffffffffffffff1681526020018773ffffffffffffffffffffffffffffffffffffffff1673ffffffffffffffffffffffffffffffffffffffff1681526020018673ffffffffffffffffffffffffffffffffffffffff1673ffffffffffffffffffffffffffffffffffffffff16815260200185815260200184815260200183151515158152602001828152602001975050505050505050600060405180830381600087803b1580156110e957600080fd5b505af11580156110fd573d6000803e3d6000fd5b505050506000809054906101000a900473ffffffffffffffffffffffffffffffffffffffff1673ffffffffffffffffffffffffffffffffffffffff166322f192af82848860600151886040518563ffffffff1660e01b8152600401808581526020018481526020018373ffffffffffffffffffffffffffffffffffffffff1673ffffffffffffffffffffffffffffffffffffffff1681526020018273ffffffffffffffffffffffffffffffffffffffff1673ffffffffffffffffffffffffffffffffffffffff168152602001945050505050600060405180830381600087803b1580156111e957600080fd5b505af11580156111fd573d6000803e3d6000fd5b505050506000809054906101000a900473ffffffffffffffffffffffffffffffffffffffff1673ffffffffffffffffffffffffffffffffffffffff166322f192af8261125360018661350c90919063ffffffff16565b33886040518563ffffffff1660e01b8152600401808581526020018481526020018373ffffffffffffffffffffffffffffffffffffffff1673ffffffffffffffffffffffffffffffffffffffff1681526020018273ffffffffffffffffffffffffffffffffffffffff1673ffffffffffffffffffffffffffffffffffffffff168152602001945050505050600060405180830381600087803b1580156112f857600080fd5b505af115801561130c573d6000803e3d6000fd5b50505050838560000151866040015183604051602001808573ffffffffffffffffffffffffffffffffffffffff1673ffffffffffffffffffffffffffffffffffffffff1681526020018481526020018373ffffffffffffffffffffffffffffffffffffffff1673ffffffffffffffffffffffffffffffffffffffff168152602001828152602001945050505050604051602081830303815290604052965050505050505092915050565b6000809054906101000a900473ffffffffffffffffffffffffffffffffffffffff1673ffffffffffffffffffffffffffffffffffffffff163373ffffffffffffffffffffffffffffffffffffffff1614611478576040517f08c379a00000000000000000000000000000000000000000000000000000000081526004018080602001828103825260158152602001807f4f4e4c595f57495448445241575f4d414e41474552000000000000000000000081525060200191505060405180910390fd5b6000806000806114cb86868080601f016020809104026020016040519081016040528093929190818152602001838380828437600081840152601f19601f8201169050808301925050505050505061352c565b935093509350935060006002600086815260200190815260200160002090508373ffffffffffffffffffffffffffffffffffffffff1663aa271e1a8260010160009054906101000a900473ffffffffffffffffffffffffffffffffffffffff166040518263ffffffff1660e01b8152600401808273ffffffffffffffffffffffffffffffffffffffff1673ffffffffffffffffffffffffffffffffffffffff16815260200191505060206040518083038186803b15801561158b57600080fd5b505afa15801561159f573d6000803e3d6000fd5b505050506040513d60208110156115b557600080fd5b810190808051906020019092919050505061161b576040517f08c379a00000000000000000000000000000000000000000000000000000000081526004018080602001828103825260478152602001806158e66047913960600191505060405180910390fd5b8060010160149054906101000a900460ff16156117715760008490508073ffffffffffffffffffffffffffffffffffffffff166340c10f1985856040518363ffffffff1660e01b8152600401808373ffffffffffffffffffffffffffffffffffffffff1673ffffffffffffffffffffffffffffffffffffffff16815260200182815260200192505050602060405180830381600087803b1580156116be57600080fd5b505af11580156116d2573d6000803e3d6000fd5b505050506040513d60208110156116e857600080fd5b810190808051906020019092919050505061176b576040517f08c379a00000000000000000000000000000000000000000000000000000000081526004018080602001828103825260118152602001807f544f4b454e5f4d494e545f4641494c454400000000000000000000000000000081525060200191505060405180910390fd5b5061191c565b60008490508073ffffffffffffffffffffffffffffffffffffffff166350bb4e7f8585856000016040518463ffffffff1660e01b8152600401808473ffffffffffffffffffffffffffffffffffffffff1673ffffffffffffffffffffffffffffffffffffffff168152602001838152602001806020018281038252838181546001816001161561010002031660029004815260200191508054600181600116156101000203166002900480156118685780601f1061183d57610100808354040283529160200191611868565b820191906000526020600020905b81548152906001019060200180831161184b57829003601f168201915b5050945050505050602060405180830381600087803b15801561188a57600080fd5b505af115801561189e573d6000803e3d6000fd5b505050506040513d60208110156118b457600080fd5b810190808051906020019092919050505061191a576040517f08c379a00000000000000000000000000000000000000000000000000000000081526004018080602001828103825260398152602001806156666039913960400191505060405180910390fd5b505b50505050505050565b60608061193961193484612df9565b612e27565b9050606061195a8260068151811061194d57fe5b6020026020010151613115565b9050606061196f61196a83612df9565b612e27565b905060008060009054906101000a900473ffffffffffffffffffffffffffffffffffffffff1673ffffffffffffffffffffffffffffffffffffffff1663ad1d8069876000806040518463ffffffff1660e01b815260040180806020018460ff16815260200183151515158152602001828103825285818151815260200191508051906020019080838360005b83811015611a165780820151818401526020810190506119fb565b50505050905090810190601f168015611a435780820380516001836020036101000a031916815260200191505b5094505050505060206040518083038186803b158015611a6257600080fd5b505afa158015611a76573d6000803e3d6000fd5b505050506040513d6020811015611a8c57600080fd5b810190808051906020019092919050505090506000611abe85600981518110611ab157fe5b602002602001015161318f565b9050600a8110611b36576040517f08c379a000000000000000000000000000000000000000000000000000000000815260040180806020018281038252601b8152602001807f537570706f7274696e672061206d6178206f66203130206c6f6773000000000081525060200191505060405180910390fd5b611b6e611b5684600381518110611b4957fe5b6020026020010151612e27565b8281518110611b6157fe5b6020026020010151612e27565b92506000611b8f84600081518110611b8257fe5b6020026020010151613593565b90506060611bb085600281518110611ba357fe5b6020026020010151613115565b9050611bcf85600181518110611bc257fe5b6020026020010151612e27565b94507f9b1bfa7fa9ee420a16e124f794c35ac9f90472acc99140eb2f6447c714cad8eb60001b611c1286600081518110611c0557fe5b602002602001015161318f565b60001b14611c88576040517f08c379a000000000000000000000000000000000000000000000000000000000815260040180806020018281038252601e8152602001807f4e6f742061207769746864726177206576656e74207369676e6174757265000081525060200191505060405180910390fd5b6000611ca786600181518110611c9a57fe5b602002602001015161318f565b9050611cc686600281518110611cb957fe5b602002602001015161318f565b73ffffffffffffffffffffffffffffffffffffffff163373ffffffffffffffffffffffffffffffffffffffff1614611d49576040517f08c379a000000000000000000000000000000000000000000000000000000000815260040180806020018281038252602881526020018061569f6028913960400191505060405180910390fd5b6000611d568360006135b6565b90506000600187901b90506000809054906101000a900473ffffffffffffffffffffffffffffffffffffffff1673ffffffffffffffffffffffffffffffffffffffff1663d931a869338786866000801b6001886040518863ffffffff1660e01b8152600401808873ffffffffffffffffffffffffffffffffffffffff1673ffffffffffffffffffffffffffffffffffffffff1681526020018773ffffffffffffffffffffffffffffffffffffffff1673ffffffffffffffffffffffffffffffffffffffff1681526020018673ffffffffffffffffffffffffffffffffffffffff1673ffffffffffffffffffffffffffffffffffffffff16815260200185815260200184815260200183151515158152602001828152602001975050505050505050600060405180830381600087803b158015611e9157600080fd5b505af1158015611ea5573d6000803e3d6000fd5b5050505082828683604051602001808573ffffffffffffffffffffffffffffffffffffffff1673ffffffffffffffffffffffffffffffffffffffff1681526020018481526020018373ffffffffffffffffffffffffffffffffffffffff1673ffffffffffffffffffffffffffffffffffffffff1681526020018281526020019450505050506040516020818303038152906040529a5050505050505050505050919050565b606080600080600086866080811015611f6257600080fd5b8101908080359060200190640100000000811115611f7f57600080fd5b820183602082011115611f9157600080fd5b80359060200191846001830284011164010000000083111715611fb357600080fd5b91908080601f016020809104026020016040519081016040528093929190818152602001838380828437600081840152601f19601f820116905080830192505050505050509192919290803573ffffffffffffffffffffffffffffffffffffffff1690602001909291908035151590602001909291908035151590602001909291905050509350935093509350606061205361204e86612df9565b612e27565b905060606120748260068151811061206757fe5b6020026020010151613115565b905060006120958360098151811061208857fe5b602002602001015161318f565b9050600a811061210d576040517f08c379a000000000000000000000000000000000000000000000000000000000815260040180806020018281038252601b8152602001807f537570706f7274696e672061206d6178206f66203130206c6f6773000000000081525060200191505060405180910390fd5b606061212061211b84612df9565b612e27565b905061215a6121428260038151811061213557fe5b6020026020010151612e27565b838151811061214d57fe5b6020026020010151612e27565b905061216461539a565b6121818260008151811061217457fe5b6020026020010151613593565b816040019073ffffffffffffffffffffffffffffffffffffffff16908173ffffffffffffffffffffffffffffffffffffffff168152505060606121d7836002815181106121ca57fe5b6020026020010151613115565b90506121f6836001815181106121e957fe5b6020026020010151612e27565b92506122158360018151811061220857fe5b602002602001015161318f565b826060019073ffffffffffffffffffffffffffffffffffffffff16908173ffffffffffffffffffffffffffffffffffffffff16815250506122578160006135b6565b826000018181525050861561227557612270838a6135de565b612289565b61227f838a61374f565b8260200181815250505b6122b36122a0600a866134b390919063ffffffff16565b83602001516134ed90919063ffffffff16565b826020018181525050871561240c5761240282602001516000809054906101000a900473ffffffffffffffffffffffffffffffffffffffff1673ffffffffffffffffffffffffffffffffffffffff1663ad1d80698d6000806040518463ffffffff1660e01b815260040180806020018460ff16815260200183151515158152602001828103825285818151815260200191508051906020019080838360005b8381101561236d578082015181840152602081019050612352565b50505050905090810190601f16801561239a5780820380516001836020036101000a031916815260200191505b5094505050505060206040518083038186803b1580156123b957600080fd5b505afa1580156123cd573d6000803e3d6000fd5b505050506040513d60208110156123e357600080fd5b81019080805190602001909291905050506134ed90919063ffffffff16565b8260200181815250505b8160000151826020015183604001518460600151604051602001808581526020018481526020018373ffffffffffffffffffffffffffffffffffffffff1673ffffffffffffffffffffffffffffffffffffffff1681526020018273ffffffffffffffffffffffffffffffffffffffff1673ffffffffffffffffffffffffffffffffffffffff1681526020019450505050506040516020818303038152906040529a505050505050505050505092915050565b60008060008061251188888080601f016020809104026020016040519081016040528093929190818152602001838380828437600081840152601f19601f82011690508083019250505050505050611925565b806020019051608081101561252557600080fd5b810190808051906020019092919080519060200190929190805190602001909291908051906020019092919050505093509350935093506125ad86868080601f016020809104026020016040519081016040528093929190818152602001838380828437600081840152601f19601f8201169050808301925050505050505085858585613913565b5050505050505050565b6040518060400160405280600381526020017f013881000000000000000000000000000000000000000000000000000000000081525081565b6000806000806126888a8a8080601f016020809104026020016040519081016040528093929190818152602001838380828437600081840152601f19601f8201169050808301925050505050505087878080601f016020809104026020016040519081016040528093929190818152602001838380828437600081840152601f19601f82011690508083019250505050505050610d1d565b806020019051608081101561269c57600080fd5b8101908080519060200190929190805190602001909291908051906020019092919080519060200190929190505050935093509350935061272488888080601f016020809104026020016040519081016040528093929190818152602001838380828437600081840152601f19601f8201169050808301925050505050505085858585613bc6565b50505050505050505050565b6000806000806127c88a8a8080601f016020809104026020016040519081016040528093929190818152602001838380828437600081840152601f19601f8201169050808301925050505050505087878080601f016020809104026020016040519081016040528093929190818152602001838380828437600081840152601f19601f82011690508083019250505050505050610d1d565b80602001905160808110156127dc57600080fd5b8101908080519060200190929190805190602001909291908051906020019092919080519060200190929190505050935093509350935061286488888080601f016020809104026020016040519081016040528093929190818152602001838380828437600081840152601f19601f8201169050808301925050505050505085858585613913565b50505050505050505050565b6000806000806128c388888080601f016020809104026020016040519081016040528093929190818152602001838380828437600081840152601f19601f82011690508083019250505050505050611925565b80602001905160808110156128d757600080fd5b8101908080519060200190929190805190602001909291908051906020019092919080519060200190929190505050935093509350935061295f86868080601f016020809104026020016040519081016040528093929190818152602001838380828437600081840152601f19601f8201169050808301925050505050505085858585613bc6565b5050505050505050565b6201388181565b600061297a6153ee565b6129c788888080601f016020809104026020016040519081016040528093929190818152602001838380828437600081840152601f19601f82011690508083019250505050505050613e83565b9050600080612a1988888080601f016020809104026020016040519081016040528093929190818152602001838380828437600081840152601f19601f82011690508083019250505050505050613f69565b5050915091506060612a76612a7188888080601f016020809104026020016040519081016040528093929190818152602001838380828437600081840152601f19601f82011690508083019250505050505050612df9565b612e27565b9050612a80615331565b612aa5612aa083600a81518110612a9357fe5b6020026020010151613115565b613fd3565b90508273ffffffffffffffffffffffffffffffffffffffff16816060015173ffffffffffffffffffffffffffffffffffffffff1614612b2f576040517f08c379a000000000000000000000000000000000000000000000000000000000815260040180806020018281038252604a815260200180615595604a913960600191505060405180910390fd5b806040015173ffffffffffffffffffffffffffffffffffffffff16856060015173ffffffffffffffffffffffffffffffffffffffff1614612bbb576040517f08c379a000000000000000000000000000000000000000000000000000000000815260040180806020018281038252602f815260200180615566602f913960400191505060405180910390fd5b806020015185602001511415612c1c576040517f08c379a00000000000000000000000000000000000000000000000000000000081526004018080602001828103825260218152602001806156186021913960400191505060405180910390fd5b8060000151856000015114612c99576040517f08c379a00000000000000000000000000000000000000000000000000000000081526004018080602001828103825260158152602001807f746f6b656e496420646f65736e2774206d61746368000000000000000000000081525060200191505060405180910390fd5b60008060009054906101000a900473ffffffffffffffffffffffffffffffffffffffff1673ffffffffffffffffffffffffffffffffffffffff1663ad1d80698a8a600060016040518563ffffffff1660e01b815260040180806020018460ff168152602001831515151581526020018281038252868682818152602001925080828437600081840152601f19601f8201169050808301925050509550505050505060206040518083038186803b158015612d5257600080fd5b505afa158015612d66573d6000803e3d6000fd5b505050506040513d6020811015612d7c57600080fd5b81019080805190602001909291905050509050612de2612daf84600681518110612da257fe5b6020026020010151613115565b612dcc85600981518110612dbf57fe5b602002602001015161318f565b84606001518560400151866000015160016131e9565b505084811196505050505050509695505050505050565b612e0161546b565b600060208301905060405180604001604052808451815260200182815250915050919050565b6060612e3282614137565b612e3b57600080fd5b6000612e4683614185565b9050606081604051908082528060200260200182016040528015612e8457816020015b612e71615485565b815260200190600190039081612e695790505b5090506000612e9685602001516141f6565b8560200151019050600080600090505b84811015612ef757612eb78361427f565b9150604051806040016040528083815260200184815250848281518110612eda57fe5b602002602001018190525081830192508080600101915050612ea6565b5082945050505050919050565b612f0c615331565b6060612f1f612f1a84612df9565b612e27565b90506009815114612f98576040517f08c379a00000000000000000000000000000000000000000000000000000000081526004018080602001828103825260158152602001807f4d414c464f524d45445f57495448445241575f5458000000000000000000000081525060200191505060405180910390fd5b612fb581600381518110612fa857fe5b6020026020010151613593565b826040019073ffffffffffffffffffffffffffffffffffffffff16908173ffffffffffffffffffffffffffffffffffffffff1681525050612ff581614337565b8360600184602001828152508273ffffffffffffffffffffffffffffffffffffffff1673ffffffffffffffffffffffffffffffffffffffff1681525050503373ffffffffffffffffffffffffffffffffffffffff16826060015173ffffffffffffffffffffffffffffffffffffffff1614156130bd5761309061308b8260058151811061307e57fe5b6020026020010151613115565b614766565b83600001846080018260038111156130a457fe5b60038111156130af57fe5b81525082815250505061310f565b6130e26130dd826005815181106130d057fe5b6020026020010151613115565b6149ab565b8260000181815250506002826080019060038111156130fd57fe5b9081600381111561310a57fe5b815250505b50919050565b6060600082600001511161312857600080fd5b60008061313484614b7b565b915091506060816040519080825280601f01601f19166020018201604052801561316d5781602001600182028038833980820191505090505b5090506000816020019050613183848285614bb3565b81945050505050919050565b60008082600001511180156131a957506021826000015111155b6131b257600080fd5b6000806131be84614b7b565b9150915060008251905060208210156131de57816020036101000a810490505b809350505050919050565b600080600a8710613262576040517f08c379a000000000000000000000000000000000000000000000000000000000815260040180806020018281038252601b8152602001807f537570706f7274696e672061206d6178206f66203130206c6f6773000000000081525060200191505060405180910390fd5b60606132756132708a612df9565b612e27565b90506132af6132978260038151811061328a57fe5b6020026020010151612e27565b89815181106132a257fe5b6020026020010151612e27565b90506132ce816000815181106132c157fe5b6020026020010151613593565b73ffffffffffffffffffffffffffffffffffffffff168673ffffffffffffffffffffffffffffffffffffffff1614613351576040517f08c379a00000000000000000000000000000000000000000000000000000000081526004018080602001828103825260398152602001806155df6039913960400191505060405180910390fd5b60606133708260028151811061336357fe5b6020026020010151613115565b905061338f8260018151811061338257fe5b6020026020010151612e27565b91506133ae826001815181106133a157fe5b602002602001015161318f565b935084156133c5576133c082896135de565b6133d2565b6133cf828961374f565b92505b6133dd8160006135b6565b8614613434576040517f08c379a000000000000000000000000000000000000000000000000000000000815260040180806020018281038252602a8152602001806157a8602a913960400191505060405180910390fd5b5050965096945050505050565b6000809054906101000a900473ffffffffffffffffffffffffffffffffffffffff1673ffffffffffffffffffffffffffffffffffffffff166108fc67016345785d8a00009081150290604051600060405180830381858888f193505050501580156134b0573d6000803e3d6000fd5b50565b6000808314156134c657600090506134e7565b60008284029050828482816134d757fe5b04146134e257600080fd5b809150505b92915050565b60008082840190508381101561350257600080fd5b8091505092915050565b60008282111561351b57600080fd5b600082840390508091505092915050565b60008060008084806020019051608081101561354757600080fd5b8101908080519060200190929190805190602001909291908051906020019092919080519060200190929190505050829250819150809450819550829650839750505050509193509193565b600060158260000151146135a657600080fd5b6135af8261318f565b9050919050565b600060208201835110156135c957600080fd5b60008260208501015190508091505092915050565b60006135fd836000815181106135f057fe5b602002602001015161318f565b60001b90507f9b1bfa7fa9ee420a16e124f794c35ac9f90472acc99140eb2f6447c714cad8eb60001b81148061365557507f6eabe333476233fd382224f233210cb808a7bc4c4de64f9d76628bf63c677b1a60001b81145b6136aa576040517f08c379a000000000000000000000000000000000000000000000000000000000815260040180806020018281038252602d815260200180615639602d913960400191505060405180910390fd5b6136c7836002815181106136ba57fe5b602002602001015161318f565b73ffffffffffffffffffffffffffffffffffffffff168273ffffffffffffffffffffffffffffffffffffffff161461374a576040517f08c379a000000000000000000000000000000000000000000000000000000000815260040180806020018281038252602a81526020018061597d602a913960400191505060405180910390fd5b505050565b60008061376f8460008151811061376257fe5b602002602001015161318f565b60001b905060007f5548c837ab068cf56a2c2479df0882a4922fd203edb7517321831d95078c5f6260001b8214156137c5576137be856002815181106137b157fe5b602002602001015161318f565b9050613887565b7f6eabe333476233fd382224f233210cb808a7bc4c4de64f9d76628bf63c677b1a60001b8214156138185761380d8560038151811061380057fe5b602002602001015161318f565b905060019250613886565b6040517f08c379a00000000000000000000000000000000000000000000000000000000081526004018080602001828103825260178152602001807f457869742074797065206e6f7420737570706f7274656400000000000000000081525060200191505060405180910390fd5b5b8073ffffffffffffffffffffffffffffffffffffffff168473ffffffffffffffffffffffffffffffffffffffff161461390b576040517f08c379a00000000000000000000000000000000000000000000000000000000081526004018080602001828103825260278152602001806156c76027913960400191505060405180910390fd5b505092915050565b60008490508073ffffffffffffffffffffffffffffffffffffffff16634f558e79856040518263ffffffff1660e01b81526004018082815260200191505060206040518083038186803b15801561396957600080fd5b505afa15801561397d573d6000803e3d6000fd5b505050506040513d602081101561399357600080fd5b8101908080519060200190929190505050156139fa576040517f08c379a00000000000000000000000000000000000000000000000000000000081526004018080602001828103825260528152602001806157f96052913960600191505060405180910390fd5b6060613a0d613a0888612df9565b612e27565b90506060613a37613a3183600581518110613a2457fe5b6020026020010151613115565b87614c24565b90506000613a4483614337565b50905060405180606001604052808381526020018273ffffffffffffffffffffffffffffffffffffffff16815260200160001515815250600260008781526020019081526020016000206000820151816000019080519060200190613aaa92919061549f565b5060208201518160010160006101000a81548173ffffffffffffffffffffffffffffffffffffffff021916908373ffffffffffffffffffffffffffffffffffffffff16021790555060408201518160010160146101000a81548160ff0219169083151502179055509050506000613b3484600381518110613b2757fe5b6020026020010151613593565b90508073ffffffffffffffffffffffffffffffffffffffff168773ffffffffffffffffffffffffffffffffffffffff1614613bba576040517f08c379a000000000000000000000000000000000000000000000000000000000815260040180806020018281038252605c8152602001806159ed605c913960600191505060405180910390fd5b50505050505050505050565b6060613bd9613bd487612df9565b612e27565b9050613c01613bfb82600581518110613bee57fe5b6020026020010151613115565b85614e1f565b60008590508073ffffffffffffffffffffffffffffffffffffffff16634f558e79866040518263ffffffff1660e01b81526004018082815260200191505060206040518083038186803b158015613c5757600080fd5b505afa158015613c6b573d6000803e3d6000fd5b505050506040513d6020811015613c8157600080fd5b810190808051906020019092919050505015613ce8576040517f08c379a00000000000000000000000000000000000000000000000000000000081526004018080602001828103825260468152602001806159a76046913960600191505060405180910390fd5b6000613cf383614337565b50905060405180606001604052806040518060200160405280600081525081526020018273ffffffffffffffffffffffffffffffffffffffff16815260200160011515815250600260008681526020019081526020016000206000820151816000019080519060200190613d6892919061549f565b5060208201518160010160006101000a81548173ffffffffffffffffffffffffffffffffffffffff021916908373ffffffffffffffffffffffffffffffffffffffff16021790555060408201518160010160146101000a81548160ff0219169083151502179055509050506000613df284600381518110613de557fe5b6020026020010151613593565b90508073ffffffffffffffffffffffffffffffffffffffff168673ffffffffffffffffffffffffffffffffffffffff1614613e78576040517f08c379a000000000000000000000000000000000000000000000000000000000815260040180806020018281038252605081526020018061592d6050913960600191505060405180910390fd5b505050505050505050565b613e8b6153ee565b60008060008060008680602001905160a0811015613ea857600080fd5b810190808051906020019092919080519060200190929190805190602001909291908051906020019092919080519060200190929190505050945094509450945094506040518060c001604052808481526020018381526020018673ffffffffffffffffffffffffffffffffffffffff1681526020018573ffffffffffffffffffffffffffffffffffffffff1681526020018215158152602001600073ffffffffffffffffffffffffffffffffffffffff1681525095505050505050919050565b600080600080848060200190516080811015613f8457600080fd5b8101908080519060200190929190805190602001909291908051906020019092919080519060200190929190505050829250819150809050809450819550829650839750505050509193509193565b613fdb615331565b6060613fee613fe984612df9565b612e27565b90506009815114614067576040517f08c379a00000000000000000000000000000000000000000000000000000000081526004018080602001828103825260158152602001807f4d414c464f524d45445f57495448445241575f5458000000000000000000000081525060200191505060405180910390fd5b6140848160038151811061407757fe5b6020026020010151613593565b826040019073ffffffffffffffffffffffffffffffffffffffff16908173ffffffffffffffffffffffffffffffffffffffff16815250506140c481614337565b8360600184602001828152508273ffffffffffffffffffffffffffffffffffffffff1673ffffffffffffffffffffffffffffffffffffffff1681525050506141276141228260058151811061411557fe5b6020026020010151613115565b614766565b5082600001818152505050919050565b6000808260000151141561414e5760009050614180565b60008083602001519050805160001a915060c060ff168260ff16101561417957600092505050614180565b6001925050505b919050565b6000808260000151141561419c57600090506141f1565b600080905060006141b084602001516141f6565b84602001510190506000846000015185602001510190505b808210156141ea576141d98261427f565b8201915082806001019350506141c8565b8293505050505b919050565b600080825160001a9050608060ff1681101561421657600091505061427a565b60b860ff1681108061423b575060c060ff16811015801561423a575060f860ff1681105b5b1561424a57600191505061427a565b60c060ff1681101561426a5760018060b80360ff1682030191505061427a565b60018060f80360ff168203019150505b919050565b6000806000835160001a9050608060ff168110156142a0576001915061432d565b60b860ff168110156142bd576001608060ff16820301915061432c565b60c060ff168110156142ed5760b78103600185019450806020036101000a8551046001820181019350505061432b565b60f860ff1681101561430a57600160c060ff16820301915061432a565b60f78103600185019450806020036101000a855104600182018101935050505b5b5b5b8192505050919050565b6000806060600960405190808252806020026020018201604052801561437157816020015b606081526020019060019003908161435c5790505b50905060008090505b60058160ff16116143cb576143a4858260ff168151811061439757fe5b6020026020010151613115565b828260ff16815181106143b357fe5b6020026020010181905250808060010191505061437a565b506040518060400160405280600381526020017f01388100000000000000000000000000000000000000000000000000000000008152508160068151811061440f57fe5b6020026020010181905250604051806020016040528060008152508160078151811061443757fe5b6020026020010181905250604051806020016040528060008152508160088151811061445f57fe5b602002602001018190525061447381614f5a565b80519060200120915060018273__$d57268b4e4abe976846916e1669260f8d8$__63b40b539b6144b6886006815181106144a957fe5b6020026020010151613115565b73__$d57268b4e4abe976846916e1669260f8d8$__634d66a2ae6040518060400160405280600381526020017f01388100000000000000000000000000000000000000000000000000000000008152506040518263ffffffff1660e01b81526004018080602001828103825283818151815260200191508051906020019080838360005b8381101561455557808201518184015260208101905061453a565b50505050905090810190601f1680156145825780820380516001836020036101000a031916815260200191505b509250505060206040518083038186803b15801561459f57600080fd5b505af41580156145b3573d6000803e3d6000fd5b505050506040513d60208110156145c957600080fd5b81019080805190602001909291905050506040518363ffffffff1660e01b815260040180806020018361ffff1661ffff168152602001828103825284818151815260200191508051906020019080838360005b8381101561463757808201518184015260208101905061461c565b50505050905090810190601f1680156146645780820380516001836020036101000a031916815260200191505b50935050505060206040518083038186803b15801561468257600080fd5b505af4158015614696573d6000803e3d6000fd5b505050506040513d60208110156146ac57600080fd5b81019080805190602001909291905050506146da876007815181106146cd57fe5b602002602001015161318f565b60001b6146fa886008815181106146ed57fe5b602002602001015161318f565b60001b60405160008152602001604052604051808581526020018460ff1660ff1681526020018381526020018281526020019450505050506020604051602081039080840390855afa158015614754573d6000803e3d6000fd5b50505060206040510351925050915091565b600080600061478061477b8560006004614fbe565b61504a565b9050632e1a7d4d60e01b7bffffffffffffffffffffffffffffffffffffffffffffffffffffffff1916817bffffffffffffffffffffffffffffffffffffffffffffffffffffffff1916141561485c576024845114614846576040517f08c379a000000000000000000000000000000000000000000000000000000000815260040180806020018281038252600a8152602001807f496e76616c69642074780000000000000000000000000000000000000000000081525060200191505060405180910390fd5b6148518460046135b6565b9250600391506149a5565b6323b872dd60e01b7bffffffffffffffffffffffffffffffffffffffffffffffffffffffff1916817bffffffffffffffffffffffffffffffffffffffffffffffffffffffff19161415614936576064845114614920576040517f08c379a000000000000000000000000000000000000000000000000000000000815260040180806020018281038252600a8152602001807f496e76616c69642074780000000000000000000000000000000000000000000081525060200191505060405180910390fd5b61492b8460446135b6565b9250600191506149a4565b6040517f08c379a000000000000000000000000000000000000000000000000000000000815260040180806020018281038252601a8152602001807f457869742074782074797065206e6f7420737570706f7274656400000000000081525060200191505060405180910390fd5b5b50915091565b60006064825114614a24576040517f08c379a000000000000000000000000000000000000000000000000000000000815260040180806020018281038252600a8152602001807f496e76616c69642074780000000000000000000000000000000000000000000081525060200191505060405180910390fd5b6000614a3b614a368460006004614fbe565b61504a565b90506323b872dd60e01b7bffffffffffffffffffffffffffffffffffffffffffffffffffffffff1916817bffffffffffffffffffffffffffffffffffffffffffffffffffffffff191614614ada576040517f08c379a00000000000000000000000000000000000000000000000000000000081526004018080602001828103825260278152602001806157d26027913960400191505060405180910390fd5b614ae58360246135b6565b73ffffffffffffffffffffffffffffffffffffffff163373ffffffffffffffffffffffffffffffffffffffff1614614b68576040517f08c379a00000000000000000000000000000000000000000000000000000000081526004018080602001828103825260218152602001806155456021913960400191505060405180910390fd5b614b738360446135b6565b915050919050565b6000806000614b8d84602001516141f6565b905060008185602001510190506000828660000151039050818194509450505050915091565b6000811415614bc157614c1f565b5b602060ff168110614bf15782518252602060ff1683019250602060ff1682019150602060ff1681039050614bc2565b6000811115614c1e576000600182602060ff16036101000a03905080198451168184511681811785525050505b5b505050565b60606000614c3d614c388560006004614fbe565b61504a565b90506350bb4e7f60e01b817bffffffffffffffffffffffffffffffffffffffffffffffffffffffff191614614cbd576040517f08c379a000000000000000000000000000000000000000000000000000000000815260040180806020018281038252605c81526020018061574c605c913960600191505060405180910390fd5b6000614cce85600480885103614fbe565b8060200190516060811015614ce257600080fd5b81019080805190602001909291908051906020019092919080516040519392919084640100000000821115614d1657600080fd5b83820191506020820185811115614d2c57600080fd5b8251866001820283011164010000000082111715614d4957600080fd5b8083526020830192505050908051906020019080838360005b83811015614d7d578082015181840152602081019050614d62565b50505050905090810190601f168015614daa5780820380516001836020036101000a031916815260200191505b506040525050509091508090508094508192505050838114614e17576040517f08c379a000000000000000000000000000000000000000000000000000000000815260040180806020018281038252605e8152602001806156ee605e913960600191505060405180910390fd5b505092915050565b6000614e36614e318460006004614fbe565b61504a565b90506340c10f1960e01b817bffffffffffffffffffffffffffffffffffffffffffffffffffffffff191614614eb6576040517f08c379a000000000000000000000000000000000000000000000000000000000815260040180806020018281038252604981526020018061584b6049913960600191505060405180910390fd5b6000614ec784600480875103614fbe565b8060200190516040811015614edb57600080fd5b810190808051906020019092919080519060200190929190505050905080915050828114614f54576040517f08c379a00000000000000000000000000000000000000000000000000000000081526004018080602001828103825260528152602001806158946052913960600191505060405180910390fd5b50505050565b60608060008090505b8351811015614fa057614f9182614f8c868481518110614f7f57fe5b6020026020010151615058565b6150f4565b91508080600101915050614f63565b50614fb6614fb0825160c061517e565b826150f4565b915050919050565b606081830184511015614fd057600080fd5b6060821560008114614fed5760405191506020820160405261503e565b6040519150601f8416801560200281840101858101878315602002848b0101015b8183101561502b578051835260208301925060208101905061500e565b50868552601f19601f8301166040525050505b50809150509392505050565b600060208201519050919050565b6060806001835114801561508f5750608060ff60f81b8460008151811061507b57fe5b602001015160f81c60f81b1660f81c60ff16105b156150d35760016040519080825280601f01601f1916602001820160405280156150c85781602001600182028038833980820191505090505b5090508290506150eb565b6150e86150e28451608061517e565b846150f4565b90505b80915050919050565b6060806040519050835180825260208201818101602087015b8183101561512a578051835260208301925060208101905061510d565b50855192508351830184528091508282019050602086015b8183101561515f5780518352602083019250602081019050615142565b50601f19601f8851850115830101166040525050508091505092915050565b6060603883101561520d57606060016040519080825280601f01601f1916602001820160405280156151bf5781602001600182028038833980820191505090505b50905082840160f81b816000815181106151d557fe5b60200101907effffffffffffffffffffffffffffffffffffffffffffffffffffffffffffff1916908160001a9053508091505061526a565b600080600190505b600081868161522057fe5b041461523a57818060010192505061010081029050615215565b606061524a836037870101615270565b9050606061525787615270565b905061526382826150f4565b9450505050505b92915050565b606060006001905060ff83111561528657600290505b806040519080825280601f01601f1916602001820160405280156152b95781602001600182028038833980820191505090505b50915060008090505b8181101561532a5780600183030360080260020a84816152de57fe5b0460f81b8382815181106152ee57fe5b60200101907effffffffffffffffffffffffffffffffffffffffffffffffffffffffffffff1916908160001a90535080806001019150506152c2565b5050919050565b6040518060a001604052806000815260200160008019168152602001600073ffffffffffffffffffffffffffffffffffffffff168152602001600073ffffffffffffffffffffffffffffffffffffffff1681526020016000600381111561539457fe5b81525090565b60405180608001604052806000815260200160008152602001600073ffffffffffffffffffffffffffffffffffffffff168152602001600073ffffffffffffffffffffffffffffffffffffffff1681525090565b6040518060c001604052806000815260200160008019168152602001600073ffffffffffffffffffffffffffffffffffffffff168152602001600073ffffffffffffffffffffffffffffffffffffffff168152602001600015158152602001600073ffffffffffffffffffffffffffffffffffffffff1681525090565b604051806040016040528060008152602001600081525090565b604051806040016040528060008152602001600081525090565b828054600181600116156101000203166002900490600052602060002090601f016020900481019282601f106154e057805160ff191683800117855561550e565b8280016001018555821561550e579182015b8281111561550d5782518255916020019190600101906154f2565b5b50905061551b919061551f565b5090565b61554191905b8082111561553d576000816000905550600101615525565b5090565b9056fe4578697420747820646f65736e7420636f6e6365726e2074686520657869746f724368616c6c656e676520747820746f6b656e20646f65736e74206d617463682077697468206578697420746f6b656e4368616c6c656e6765207478206e6f74207369676e6564206279207468652070617274792077686f207369676e65642074686520696e707574205554584f20746f2074686520657869745265666572656e636520616e64206578697420747820646f206e6f7420636f72726573706f6e6420746f207468652073616d6520746f6b656e43616e6e6f74206368616c6c656e676520776974682074686520657869742074784c6f67207369676e617475726520646f65736e74207175616c69667920617320612076616c6964207370656e644d696e7461626c654552433732315072656469636174652e6f6e46696e616c697a65457869743a20544f4b454e5f4d494e545f4641494c45445769746864726177657220616e64206275726e206578697420747820646f206e6f74206d617463687478202f206c6f6720646f65736e7420636f6e6365726e20746865207061727469636970616e744d696e7461626c654552433732315072656469636174652e5f70726f636573735261774d696e7457697468546f6b656e5552493a20546f6b656e49647320696e206578697420616e64206d696e7420747820646f206e6f74206d617463684d696e7461626c654552433732315072656469636174652e5f70726f636573735261774d696e7457697468546f6b656e5552493a2066756e6353696720646f6573206e6f74206d61746368206d696e7457697468546f6b656e555249546f6b656e496420696e2074686520747820616e64206c6f674461746120646f206e6f74206d617463684f6e6c7920737570706f7274732065786974696e672066726f6d207472616e73666572207478734d696e7461626c654552433732315072656469636174652e70726f636573734d696e7457697468546f6b656e5552493a20546f6b656e206265696e672065786974656420616c7265616479206578697374734d696e7461626c654552433732315072656469636174652e5f70726f636573735261774d696e743a2066756e6353696720646f6573206e6f74206d617463682077697468206d696e744d696e7461626c654552433732315072656469636174652e5f70726f636573735261774d696e743a20546f6b656e49647320696e206578697420616e64206d696e7420747820646f206e6f74206d617463684d696e7461626c654552433732315072656469636174652e70726f636573734d696e7457697468546f6b656e5552493a204e6f7420617574686f72697a656420746f206d696e744d696e7461626c654552433732315072656469636174652e70726f636573734d696e743b20546f6b656e20696e207265666572656e636520616e64206d696e7420747820617265206e6f742073616d657061727469636970616e7420616e64207265666572656e63656420747820646f206e6f74206d617463684d696e7461626c654552433732315072656469636174652e70726f636573734d696e743a20546f6b656e206265696e672065786974656420616c7265616479206578697374734d696e7461626c654552433732315072656469636174652e70726f636573734d696e7457697468546f6b656e5552493b20546f6b656e20696e207265666572656e636520616e64206d696e7420747820617265206e6f742073616d65a265627a7a723158205ddc63c732b1750a73c47ea1e49cf48b271c486b1112cadfa699a4c667c86dce64736f6c63430005110032",
  "linkReferences": {
    "contracts/common/lib/Common.sol": {
      "Common": [
        {
          "length": 20,
          "start": 17774
        },
        {
          "length": 20,
          "start": 17829
        }
      ]
    }
  },
  "deployedLinkReferences": {
    "contracts/common/lib/Common.sol": {
      "Common": [
        {
          "length": 20,
          "start": 17537
        },
        {
          "length": 20,
          "start": 17592
        }
      ]
    }
  }
}