{
  "_format": "hh-sol-artifact-1",
  "contractName": "StakeManager",
  "sourceName": "contracts/staking/stakeManager/StakeManager.sol",
  "abi": [
    {
      "inputs": [],
      "payable": false,
      "stateMutability": "nonpayable",
      "type": "constructor"
    },
    {
      "anonymous": false,
      "inputs": [
        {
          "indexed": true,
          "internalType": "address",
          "name": "previousOwner",
          "type": "address"
        },
        {
          "indexed": true,
          "internalType": "address",
          "name": "newOwner",
          "type": "address"
        }
      ],
      "name": "OwnershipTransferred",
      "type": "event"
    },
    {
      "anonymous": false,
      "inputs": [
        {
          "indexed": true,
          "internalType": "address",
          "name": "previousRootChain",
          "type": "address"
        },
        {
          "indexed": true,
          "internalType": "address",
          "name": "newRootChain",
          "type": "address"
        }
      ],
      "name": "RootChainChanged",
      "type": "event"
    },
    {
      "constant": true,
      "inputs": [],
      "name": "CHECKPOINT_REWARD",
      "outputs": [
        {
          "internalType": "uint256",
          "name": "",
          "type": "uint256"
        }
      ],
      "payable": false,
      "stateMutability": "view",
      "type": "function"
    },
    {
      "constant": true,
      "inputs": [],
      "name": "NFTContract",
      "outputs": [
        {
          "internalType": "contract StakingNFT",
          "name": "",
          "type": "address"
        }
      ],
      "payable": false,
      "stateMutability": "view",
      "type": "function"
    },
    {
      "constant": true,
      "inputs": [],
      "name": "NFTCounter",
      "outputs": [
        {
          "internalType": "uint256",
          "name": "",
          "type": "uint256"
        }
      ],
      "payable": false,
      "stateMutability": "view",
      "type": "function"
    },
    {
      "constant": true,
      "inputs": [],
      "name": "WITHDRAWAL_DELAY",
      "outputs": [
        {
          "internalType": "uint256",
          "name": "",
          "type": "uint256"
        }
      ],
      "payable": false,
      "stateMutability": "view",
      "type": "function"
    },
    {
      "constant": true,
      "inputs": [],
      "name": "accountStateRoot",
      "outputs": [
        {
          "internalType": "bytes32",
          "name": "",
          "type": "bytes32"
        }
      ],
      "payable": false,
      "stateMutability": "view",
      "type": "function"
    },
    {
      "constant": true,
      "inputs": [],
      "name": "auctionPeriod",
      "outputs": [
        {
          "internalType": "uint256",
          "name": "",
          "type": "uint256"
        }
      ],
      "payable": false,
      "stateMutability": "view",
      "type": "function"
    },
    {
      "constant": false,
      "inputs": [
        {
          "internalType": "address",
          "name": "newRootChain",
          "type": "address"
        }
      ],
      "name": "changeRootChain",
      "outputs": [],
      "payable": false,
      "stateMutability": "nonpayable",
      "type": "function"
    },
    {
      "constant": true,
      "inputs": [],
      "name": "checkPointBlockInterval",
      "outputs": [
        {
          "internalType": "uint256",
          "name": "",
          "type": "uint256"
        }
      ],
      "payable": false,
      "stateMutability": "view",
      "type": "function"
    },
    {
      "constant": false,
      "inputs": [
        {
          "internalType": "uint256",
          "name": "blockInterval",
          "type": "uint256"
        },
        {
          "internalType": "bytes32",
          "name": "voteHash",
          "type": "bytes32"
        },
        {
          "internalType": "bytes32",
          "name": "stateRoot",
          "type": "bytes32"
        },
        {
          "internalType": "address",
          "name": "proposer",
          "type": "address"
        },
        {
          "internalType": "uint256[3][]",
          "name": "sigs",
          "type": "uint256[3][]"
        }
      ],
      "name": "checkSignatures",
      "outputs": [
        {
          "internalType": "uint256",
          "name": "",
          "type": "uint256"
        }
      ],
      "payable": false,
      "stateMutability": "nonpayable",
      "type": "function"
    },
    {
      "constant": true,
      "inputs": [],
      "name": "checkpointRewardDelta",
      "outputs": [
        {
          "internalType": "uint256",
          "name": "",
          "type": "uint256"
        }
      ],
      "payable": false,
      "stateMutability": "view",
      "type": "function"
    },
    {
      "constant": false,
      "inputs": [
        {
          "internalType": "uint256",
          "name": "accumFeeAmount",
          "type": "uint256"
        },
        {
          "internalType": "uint256",
          "name": "index",
          "type": "uint256"
        },
        {
          "internalType": "bytes",
          "name": "proof",
          "type": "bytes"
        }
      ],
      "name": "claimFee",
      "outputs": [],
      "payable": false,
      "stateMutability": "nonpayable",
      "type": "function"
    },
    {
      "constant": false,
      "inputs": [
        {
          "internalType": "uint256",
          "name": "validatorId",
          "type": "uint256"
        },
        {
          "internalType": "uint256",
          "name": "heimdallFee",
          "type": "uint256"
        }
      ],
      "name": "confirmAuctionBid",
      "outputs": [],
      "payable": false,
      "stateMutability": "nonpayable",
      "type": "function"
    },
    {
      "constant": true,
      "inputs": [],
      "name": "currentEpoch",
      "outputs": [
        {
          "internalType": "uint256",
          "name": "",
          "type": "uint256"
        }
      ],
      "payable": false,
      "stateMutability": "view",
      "type": "function"
    },
    {
      "constant": true,
      "inputs": [],
      "name": "currentValidatorSetSize",
      "outputs": [
        {
          "internalType": "uint256",
          "name": "",
          "type": "uint256"
        }
      ],
      "payable": false,
      "stateMutability": "view",
      "type": "function"
    },
    {
      "constant": true,
      "inputs": [],
      "name": "currentValidatorSetTotalStake",
      "outputs": [
        {
          "internalType": "uint256",
          "name": "",
          "type": "uint256"
        }
      ],
      "payable": false,
      "stateMutability": "view",
      "type": "function"
    },
    {
      "constant": false,
      "inputs": [
        {
          "internalType": "uint256",
          "name": "validatorId",
          "type": "uint256"
        },
        {
          "internalType": "uint256",
          "name": "amount",
          "type": "uint256"
        }
      ],
      "name": "decreaseValidatorDelegatedAmount",
      "outputs": [],
      "payable": false,
      "stateMutability": "nonpayable",
      "type": "function"
    },
    {
      "constant": true,
      "inputs": [
        {
          "internalType": "uint256",
          "name": "validatorId",
          "type": "uint256"
        }
      ],
      "name": "delegatedAmount",
      "outputs": [
        {
          "internalType": "uint256",
          "name": "",
          "type": "uint256"
        }
      ],
      "payable": false,
      "stateMutability": "view",
      "type": "function"
    },
    {
      "constant": false,
      "inputs": [
        {
          "internalType": "uint256",
          "name": "validatorId",
          "type": "uint256"
        },
        {
          "internalType": "uint256",
          "name": "amount",
          "type": "uint256"
        },
        {
          "internalType": "address",
          "name": "delegator",
          "type": "address"
        }
      ],
      "name": "delegationDeposit",
      "outputs": [
        {
          "internalType": "bool",
          "name": "",
          "type": "bool"
        }
      ],
      "payable": false,
      "stateMutability": "nonpayable",
      "type": "function"
    },
    {
      "constant": true,
      "inputs": [],
      "name": "delegationEnabled",
      "outputs": [
        {
          "internalType": "bool",
          "name": "",
          "type": "bool"
        }
      ],
      "payable": false,
      "stateMutability": "view",
      "type": "function"
    },
    {
      "constant": true,
      "inputs": [
        {
          "internalType": "uint256",
          "name": "validatorId",
          "type": "uint256"
        }
      ],
      "name": "delegatorsReward",
      "outputs": [
        {
          "internalType": "uint256",
          "name": "",
          "type": "uint256"
        }
      ],
      "payable": false,
      "stateMutability": "view",
      "type": "function"
    },
    {
      "constant": false,
      "inputs": [
        {
          "internalType": "address",
          "name": "auctionUser",
          "type": "address"
        },
        {
          "internalType": "uint256",
          "name": "heimdallFee",
          "type": "uint256"
        },
        {
          "internalType": "uint256",
          "name": "validatorId",
          "type": "uint256"
        },
        {
          "internalType": "uint256",
          "name": "auctionAmount",
          "type": "uint256"
        },
        {
          "internalType": "bool",
          "name": "acceptDelegation",
          "type": "bool"
        },
        {
          "internalType": "bytes",
          "name": "signerPubkey",
          "type": "bytes"
        }
      ],
      "name": "dethroneAndStake",
      "outputs": [],
      "payable": false,
      "stateMutability": "nonpayable",
      "type": "function"
    },
    {
      "constant": false,
      "inputs": [
        {
          "internalType": "address",
          "name": "destination",
          "type": "address"
        },
        {
          "internalType": "uint256",
          "name": "amount",
          "type": "uint256"
        }
      ],
      "name": "drain",
      "outputs": [],
      "payable": false,
      "stateMutability": "nonpayable",
      "type": "function"
    },
    {
      "constant": false,
      "inputs": [
        {
          "internalType": "uint256",
          "name": "validatorId",
          "type": "uint256"
        },
        {
          "internalType": "address",
          "name": "tokenAddr",
          "type": "address"
        },
        {
          "internalType": "address payable",
          "name": "destination",
          "type": "address"
        },
        {
          "internalType": "uint256",
          "name": "amount",
          "type": "uint256"
        }
      ],
      "name": "drainValidatorShares",
      "outputs": [],
      "payable": false,
      "stateMutability": "nonpayable",
      "type": "function"
    },
    {
      "constant": true,
      "inputs": [],
      "name": "dynasty",
      "outputs": [
        {
          "internalType": "uint256",
          "name": "",
          "type": "uint256"
        }
      ],
      "payable": false,
      "stateMutability": "view",
      "type": "function"
    },
    {
      "constant": true,
      "inputs": [],
      "name": "epoch",
      "outputs": [
        {
          "internalType": "uint256",
          "name": "",
          "type": "uint256"
        }
      ],
      "payable": false,
      "stateMutability": "view",
      "type": "function"
    },
    {
      "constant": true,
      "inputs": [],
      "name": "eventsHub",
      "outputs": [
        {
          "internalType": "address",
          "name": "",
          "type": "address"
        }
      ],
      "payable": false,
      "stateMutability": "view",
      "type": "function"
    },
    {
      "constant": true,
      "inputs": [],
      "name": "extensionCode",
      "outputs": [
        {
          "internalType": "address",
          "name": "",
          "type": "address"
        }
      ],
      "payable": false,
      "stateMutability": "view",
      "type": "function"
    },
    {
      "constant": false,
      "inputs": [
        {
          "internalType": "uint256",
          "name": "validatorId",
          "type": "uint256"
        }
      ],
      "name": "forceUnstake",
      "outputs": [],
      "payable": false,
      "stateMutability": "nonpayable",
      "type": "function"
    },
    {
      "constant": true,
      "inputs": [],
      "name": "getRegistry",
      "outputs": [
        {
          "internalType": "address",
          "name": "",
          "type": "address"
        }
      ],
      "payable": false,
      "stateMutability": "view",
      "type": "function"
    },
    {
      "constant": true,
      "inputs": [
        {
          "internalType": "uint256",
          "name": "validatorId",
          "type": "uint256"
        }
      ],
      "name": "getValidatorContract",
      "outputs": [
        {
          "internalType": "address",
          "name": "",
          "type": "address"
        }
      ],
      "payable": false,
      "stateMutability": "view",
      "type": "function"
    },
    {
      "constant": true,
      "inputs": [
        {
          "internalType": "address",
          "name": "user",
          "type": "address"
        }
      ],
      "name": "getValidatorId",
      "outputs": [
        {
          "internalType": "uint256",
          "name": "",
          "type": "uint256"
        }
      ],
      "payable": false,
      "stateMutability": "view",
      "type": "function"
    },
    {
      "constant": true,
      "inputs": [],
      "name": "governance",
      "outputs": [
        {
          "internalType": "contract IGovernance",
          "name": "",
          "type": "address"
        }
      ],
      "payable": false,
      "stateMutability": "view",
      "type": "function"
    },
    {
      "constant": false,
      "inputs": [
        {
          "internalType": "address",
          "name": "_registry",
          "type": "address"
        },
        {
          "internalType": "address",
          "name": "_rootchain",
          "type": "address"
        },
        {
          "internalType": "address",
          "name": "_token",
          "type": "address"
        },
        {
          "internalType": "address",
          "name": "_NFTContract",
          "type": "address"
        },
        {
          "internalType": "address",
          "name": "_stakingLogger",
          "type": "address"
        },
        {
          "internalType": "address",
          "name": "_validatorShareFactory",
          "type": "address"
        },
        {
          "internalType": "address",
          "name": "_governance",
          "type": "address"
        },
        {
          "internalType": "address",
          "name": "_owner",
          "type": "address"
        },
        {
          "internalType": "address",
          "name": "_extensionCode",
          "type": "address"
        }
      ],
      "name": "initialize",
      "outputs": [],
      "payable": false,
      "stateMutability": "nonpayable",
      "type": "function"
    },
    {
      "constant": false,
      "inputs": [
        {
          "internalType": "address[]",
          "name": "_signers",
          "type": "address[]"
        }
      ],
      "name": "insertSigners",
      "outputs": [],
      "payable": false,
      "stateMutability": "nonpayable",
      "type": "function"
    },
    {
      "constant": true,
      "inputs": [],
      "name": "isOwner",
      "outputs": [
        {
          "internalType": "bool",
          "name": "",
          "type": "bool"
        }
      ],
      "payable": false,
      "stateMutability": "view",
      "type": "function"
    },
    {
      "constant": true,
      "inputs": [
        {
          "internalType": "uint256",
          "name": "validatorId",
          "type": "uint256"
        }
      ],
      "name": "isValidator",
      "outputs": [
        {
          "internalType": "bool",
          "name": "",
          "type": "bool"
        }
      ],
      "payable": false,
      "stateMutability": "view",
      "type": "function"
    },
    {
      "constant": true,
      "inputs": [
        {
          "internalType": "uint256",
          "name": "",
          "type": "uint256"
        }
      ],
      "name": "latestSignerUpdateEpoch",
      "outputs": [
        {
          "internalType": "uint256",
          "name": "",
          "type": "uint256"
        }
      ],
      "payable": false,
      "stateMutability": "view",
      "type": "function"
    },
    {
      "constant": false,
      "inputs": [],
      "name": "lock",
      "outputs": [],
      "payable": false,
      "stateMutability": "nonpayable",
      "type": "function"
    },
    {
      "constant": true,
      "inputs": [],
      "name": "locked",
      "outputs": [
        {
          "internalType": "bool",
          "name": "",
          "type": "bool"
        }
      ],
      "payable": false,
      "stateMutability": "view",
      "type": "function"
    },
    {
      "constant": true,
      "inputs": [],
      "name": "logger",
      "outputs": [
        {
          "internalType": "contract StakingInfo",
          "name": "",
          "type": "address"
        }
      ],
      "payable": false,
      "stateMutability": "view",
      "type": "function"
    },
    {
      "constant": true,
      "inputs": [],
      "name": "maxRewardedCheckpoints",
      "outputs": [
        {
          "internalType": "uint256",
          "name": "",
          "type": "uint256"
        }
      ],
      "payable": false,
      "stateMutability": "view",
      "type": "function"
    },
    {
      "constant": false,
      "inputs": [
        {
          "internalType": "uint256",
          "name": "fromValidatorId",
          "type": "uint256"
        },
        {
          "internalType": "uint256",
          "name": "toValidatorId",
          "type": "uint256"
        },
        {
          "internalType": "uint256",
          "name": "amount",
          "type": "uint256"
        }
      ],
      "name": "migrateDelegation",
      "outputs": [],
      "payable": false,
      "stateMutability": "nonpayable",
      "type": "function"
    },
    {
      "constant": false,
      "inputs": [
        {
          "internalType": "uint256",
          "name": "validatorIdFrom",
          "type": "uint256"
        },
        {
          "internalType": "uint256",
          "name": "validatorIdTo",
          "type": "uint256"
        }
      ],
      "name": "migrateValidatorsData",
      "outputs": [],
      "payable": false,
      "stateMutability": "nonpayable",
      "type": "function"
    },
    {
      "constant": true,
      "inputs": [],
      "name": "minDeposit",
      "outputs": [
        {
          "internalType": "uint256",
          "name": "",
          "type": "uint256"
        }
      ],
      "payable": false,
      "stateMutability": "view",
      "type": "function"
    },
    {
      "constant": true,
      "inputs": [],
      "name": "minHeimdallFee",
      "outputs": [
        {
          "internalType": "uint256",
          "name": "",
          "type": "uint256"
        }
      ],
      "payable": false,
      "stateMutability": "view",
      "type": "function"
    },
    {
      "constant": true,
      "inputs": [],
      "name": "owner",
      "outputs": [
        {
          "internalType": "address",
          "name": "",
          "type": "address"
        }
      ],
      "payable": false,
      "stateMutability": "view",
      "type": "function"
    },
    {
      "constant": true,
      "inputs": [
        {
          "internalType": "uint256",
          "name": "tokenId",
          "type": "uint256"
        }
      ],
      "name": "ownerOf",
      "outputs": [
        {
          "internalType": "address",
          "name": "",
          "type": "address"
        }
      ],
      "payable": false,
      "stateMutability": "view",
      "type": "function"
    },
    {
      "constant": true,
      "inputs": [],
      "name": "prevBlockInterval",
      "outputs": [
        {
          "internalType": "uint256",
          "name": "",
          "type": "uint256"
        }
      ],
      "payable": false,
      "stateMutability": "view",
      "type": "function"
    },
    {
      "constant": true,
      "inputs": [],
      "name": "proposerBonus",
      "outputs": [
        {
          "internalType": "uint256",
          "name": "",
          "type": "uint256"
        }
      ],
      "payable": false,
      "stateMutability": "view",
      "type": "function"
    },
    {
      "constant": true,
      "inputs": [],
      "name": "registry",
      "outputs": [
        {
          "internalType": "address",
          "name": "",
          "type": "address"
        }
      ],
      "payable": false,
      "stateMutability": "view",
      "type": "function"
    },
    {
      "constant": false,
      "inputs": [
        {
          "internalType": "address",
          "name": "_NFTContract",
          "type": "address"
        },
        {
          "internalType": "address",
          "name": "_stakingLogger",
          "type": "address"
        },
        {
          "internalType": "address",
          "name": "_validatorShareFactory",
          "type": "address"
        },
        {
          "internalType": "address",
          "name": "_extensionCode",
          "type": "address"
        }
      ],
      "name": "reinitialize",
      "outputs": [],
      "payable": false,
      "stateMutability": "nonpayable",
      "type": "function"
    },
    {
      "constant": false,
      "inputs": [],
      "name": "renounceOwnership",
      "outputs": [],
      "payable": false,
      "stateMutability": "nonpayable",
      "type": "function"
    },
    {
      "constant": true,
      "inputs": [],
      "name": "replacementCoolDown",
      "outputs": [
        {
          "internalType": "uint256",
          "name": "",
          "type": "uint256"
        }
      ],
      "payable": false,
      "stateMutability": "view",
      "type": "function"
    },
    {
      "constant": false,
      "inputs": [
        {
          "internalType": "uint256",
          "name": "validatorId",
          "type": "uint256"
        },
        {
          "internalType": "uint256",
          "name": "amount",
          "type": "uint256"
        },
        {
          "internalType": "bool",
          "name": "stakeRewards",
          "type": "bool"
        }
      ],
      "name": "restake",
      "outputs": [],
      "payable": false,
      "stateMutability": "nonpayable",
      "type": "function"
    },
    {
      "constant": true,
      "inputs": [],
      "name": "rewardDecreasePerCheckpoint",
      "outputs": [
        {
          "internalType": "uint256",
          "name": "",
          "type": "uint256"
        }
      ],
      "payable": false,
      "stateMutability": "view",
      "type": "function"
    },
    {
      "constant": true,
      "inputs": [],
      "name": "rewardPerStake",
      "outputs": [
        {
          "internalType": "uint256",
          "name": "",
          "type": "uint256"
        }
      ],
      "payable": false,
      "stateMutability": "view",
      "type": "function"
    },
    {
      "constant": true,
      "inputs": [],
      "name": "rootChain",
      "outputs": [
        {
          "internalType": "address",
          "name": "",
          "type": "address"
        }
      ],
      "payable": false,
      "stateMutability": "view",
      "type": "function"
    },
    {
      "constant": false,
      "inputs": [
        {
          "internalType": "uint256",
          "name": "_currentEpoch",
          "type": "uint256"
        }
      ],
      "name": "setCurrentEpoch",
      "outputs": [],
      "payable": false,
      "stateMutability": "nonpayable",
      "type": "function"
    },
    {
      "constant": false,
      "inputs": [
        {
          "internalType": "bool",
          "name": "enabled",
          "type": "bool"
        }
      ],
      "name": "setDelegationEnabled",
      "outputs": [],
      "payable": false,
      "stateMutability": "nonpayable",
      "type": "function"
    },
    {
      "constant": false,
      "inputs": [
        {
          "internalType": "address",
          "name": "_token",
          "type": "address"
        }
      ],
      "name": "setStakingToken",
      "outputs": [],
      "payable": false,
      "stateMutability": "nonpayable",
      "type": "function"
    },
    {
      "constant": true,
      "inputs": [
        {
          "internalType": "address",
          "name": "",
          "type": "address"
        }
      ],
      "name": "signerToValidator",
      "outputs": [
        {
          "internalType": "uint256",
          "name": "",
          "type": "uint256"
        }
      ],
      "payable": false,
      "stateMutability": "view",
      "type": "function"
    },
    {
      "constant": true,
      "inputs": [],
      "name": "signerUpdateLimit",
      "outputs": [
        {
          "internalType": "uint256",
          "name": "",
          "type": "uint256"
        }
      ],
      "payable": false,
      "stateMutability": "view",
      "type": "function"
    },
    {
      "constant": true,
      "inputs": [
        {
          "internalType": "uint256",
          "name": "",
          "type": "uint256"
        }
      ],
      "name": "signers",
      "outputs": [
        {
          "internalType": "address",
          "name": "",
          "type": "address"
        }
      ],
      "payable": false,
      "stateMutability": "view",
      "type": "function"
    },
    {
      "constant": false,
      "inputs": [
        {
          "internalType": "bytes",
          "name": "_slashingInfoList",
          "type": "bytes"
        }
      ],
      "name": "slash",
      "outputs": [
        {
          "internalType": "uint256",
          "name": "",
          "type": "uint256"
        }
      ],
      "payable": false,
      "stateMutability": "nonpayable",
      "type": "function"
    },
    {
      "constant": false,
      "inputs": [
        {
          "internalType": "address",
          "name": "user",
          "type": "address"
        },
        {
          "internalType": "uint256",
          "name": "amount",
          "type": "uint256"
        },
        {
          "internalType": "uint256",
          "name": "heimdallFee",
          "type": "uint256"
        },
        {
          "internalType": "bool",
          "name": "acceptDelegation",
          "type": "bool"
        },
        {
          "internalType": "bytes",
          "name": "signerPubkey",
          "type": "bytes"
        }
      ],
      "name": "stakeFor",
      "outputs": [],
      "payable": false,
      "stateMutability": "nonpayable",
      "type": "function"
    },
    {
      "constant": false,
      "inputs": [
        {
          "internalType": "uint256",
          "name": "validatorId",
          "type": "uint256"
        },
        {
          "internalType": "uint256",
          "name": "amount",
          "type": "uint256"
        },
        {
          "internalType": "bool",
          "name": "_acceptDelegation",
          "type": "bool"
        },
        {
          "internalType": "bytes",
          "name": "_signerPubkey",
          "type": "bytes"
        }
      ],
      "name": "startAuction",
      "outputs": [],
      "payable": false,
      "stateMutability": "nonpayable",
      "type": "function"
    },
    {
      "constant": false,
      "inputs": [
        {
          "internalType": "uint256",
          "name": "forNCheckpoints",
          "type": "uint256"
        }
      ],
      "name": "stopAuctions",
      "outputs": [],
      "payable": false,
      "stateMutability": "nonpayable",
      "type": "function"
    },
    {
      "constant": true,
      "inputs": [],
      "name": "token",
      "outputs": [
        {
          "internalType": "contract IERC20",
          "name": "",
          "type": "address"
        }
      ],
      "payable": false,
      "stateMutability": "view",
      "type": "function"
    },
    {
      "constant": false,
      "inputs": [
        {
          "internalType": "address",
          "name": "user",
          "type": "address"
        },
        {
          "internalType": "uint256",
          "name": "heimdallFee",
          "type": "uint256"
        }
      ],
      "name": "topUpForFee",
      "outputs": [],
      "payable": false,
      "stateMutability": "nonpayable",
      "type": "function"
    },
    {
      "constant": true,
      "inputs": [],
      "name": "totalHeimdallFee",
      "outputs": [
        {
          "internalType": "uint256",
          "name": "",
          "type": "uint256"
        }
      ],
      "payable": false,
      "stateMutability": "view",
      "type": "function"
    },
    {
      "constant": true,
      "inputs": [],
      "name": "totalRewards",
      "outputs": [
        {
          "internalType": "uint256",
          "name": "",
          "type": "uint256"
        }
      ],
      "payable": false,
      "stateMutability": "view",
      "type": "function"
    },
    {
      "constant": true,
      "inputs": [],
      "name": "totalRewardsLiquidated",
      "outputs": [
        {
          "internalType": "uint256",
          "name": "",
          "type": "uint256"
        }
      ],
      "payable": false,
      "stateMutability": "view",
      "type": "function"
    },
    {
      "constant": true,
      "inputs": [],
      "name": "totalStaked",
      "outputs": [
        {
          "internalType": "uint256",
          "name": "",
          "type": "uint256"
        }
      ],
      "payable": false,
      "stateMutability": "view",
      "type": "function"
    },
    {
      "constant": true,
      "inputs": [
        {
          "internalType": "address",
          "name": "user",
          "type": "address"
        }
      ],
      "name": "totalStakedFor",
      "outputs": [
        {
          "internalType": "uint256",
          "name": "",
          "type": "uint256"
        }
      ],
      "payable": false,
      "stateMutability": "view",
      "type": "function"
    },
    {
      "constant": false,
      "inputs": [
        {
          "internalType": "uint256",
          "name": "validatorId",
          "type": "uint256"
        },
        {
          "internalType": "uint256",
          "name": "amount",
          "type": "uint256"
        },
        {
          "internalType": "address",
          "name": "delegator",
          "type": "address"
        }
      ],
      "name": "transferFunds",
      "outputs": [
        {
          "internalType": "bool",
          "name": "",
          "type": "bool"
        }
      ],
      "payable": false,
      "stateMutability": "nonpayable",
      "type": "function"
    },
    {
      "constant": false,
      "inputs": [
        {
          "internalType": "address",
          "name": "newOwner",
          "type": "address"
        }
      ],
      "name": "transferOwnership",
      "outputs": [],
      "payable": false,
      "stateMutability": "nonpayable",
      "type": "function"
    },
    {
      "constant": false,
      "inputs": [
        {
          "internalType": "uint256",
          "name": "validatorId",
          "type": "uint256"
        }
      ],
      "name": "unjail",
      "outputs": [],
      "payable": false,
      "stateMutability": "nonpayable",
      "type": "function"
    },
    {
      "constant": false,
      "inputs": [],
      "name": "unlock",
      "outputs": [],
      "payable": false,
      "stateMutability": "nonpayable",
      "type": "function"
    },
    {
      "constant": false,
      "inputs": [
        {
          "internalType": "uint256",
          "name": "validatorId",
          "type": "uint256"
        }
      ],
      "name": "unstake",
      "outputs": [],
      "payable": false,
      "stateMutability": "nonpayable",
      "type": "function"
    },
    {
      "constant": false,
      "inputs": [
        {
          "internalType": "uint256",
          "name": "validatorId",
          "type": "uint256"
        }
      ],
      "name": "unstakeClaim",
      "outputs": [],
      "payable": false,
      "stateMutability": "nonpayable",
      "type": "function"
    },
    {
      "constant": false,
      "inputs": [
        {
          "internalType": "uint256",
          "name": "_blocks",
          "type": "uint256"
        }
      ],
      "name": "updateCheckPointBlockInterval",
      "outputs": [],
      "payable": false,
      "stateMutability": "nonpayable",
      "type": "function"
    },
    {
      "constant": false,
      "inputs": [
        {
          "internalType": "uint256",
          "name": "newReward",
          "type": "uint256"
        }
      ],
      "name": "updateCheckpointReward",
      "outputs": [],
      "payable": false,
      "stateMutability": "nonpayable",
      "type": "function"
    },
    {
      "constant": false,
      "inputs": [
        {
          "internalType": "uint256",
          "name": "_rewardDecreasePerCheckpoint",
          "type": "uint256"
        },
        {
          "internalType": "uint256",
          "name": "_maxRewardedCheckpoints",
          "type": "uint256"
        },
        {
          "internalType": "uint256",
          "name": "_checkpointRewardDelta",
          "type": "uint256"
        }
      ],
      "name": "updateCheckpointRewardParams",
      "outputs": [],
      "payable": false,
      "stateMutability": "nonpayable",
      "type": "function"
    },
    {
      "constant": false,
      "inputs": [
        {
          "internalType": "uint256",
          "name": "validatorId",
          "type": "uint256"
        },
        {
          "internalType": "uint256",
          "name": "newCommissionRate",
          "type": "uint256"
        }
      ],
      "name": "updateCommissionRate",
      "outputs": [],
      "payable": false,
      "stateMutability": "nonpayable",
      "type": "function"
    },
    {
      "constant": false,
      "inputs": [
        {
          "internalType": "uint256",
          "name": "newDynasty",
          "type": "uint256"
        }
      ],
      "name": "updateDynastyValue",
      "outputs": [],
      "payable": false,
      "stateMutability": "nonpayable",
      "type": "function"
    },
    {
      "constant": false,
      "inputs": [
        {
          "internalType": "uint256",
          "name": "_minDeposit",
          "type": "uint256"
        },
        {
          "internalType": "uint256",
          "name": "_minHeimdallFee",
          "type": "uint256"
        }
      ],
      "name": "updateMinAmounts",
      "outputs": [],
      "payable": false,
      "stateMutability": "nonpayable",
      "type": "function"
    },
    {
      "constant": false,
      "inputs": [
        {
          "internalType": "uint256",
          "name": "newProposerBonus",
          "type": "uint256"
        }
      ],
      "name": "updateProposerBonus",
      "outputs": [],
      "payable": false,
      "stateMutability": "nonpayable",
      "type": "function"
    },
    {
      "constant": false,
      "inputs": [
        {
          "internalType": "uint256",
          "name": "validatorId",
          "type": "uint256"
        },
        {
          "internalType": "bytes",
          "name": "signerPubkey",
          "type": "bytes"
        }
      ],
      "name": "updateSigner",
      "outputs": [],
      "payable": false,
      "stateMutability": "nonpayable",
      "type": "function"
    },
    {
      "constant": false,
      "inputs": [
        {
          "internalType": "uint256",
          "name": "_limit",
          "type": "uint256"
        }
      ],
      "name": "updateSignerUpdateLimit",
      "outputs": [],
      "payable": false,
      "stateMutability": "nonpayable",
      "type": "function"
    },
    {
      "constant": false,
      "inputs": [
        {
          "internalType": "uint256",
          "name": "validatorId",
          "type": "uint256"
        },
        {
          "internalType": "address",
          "name": "newContractAddress",
          "type": "address"
        }
      ],
      "name": "updateValidatorContractAddress",
      "outputs": [],
      "payable": false,
      "stateMutability": "nonpayable",
      "type": "function"
    },
    {
      "constant": false,
      "inputs": [
        {
          "internalType": "bool",
          "name": "delegation",
          "type": "bool"
        }
      ],
      "name": "updateValidatorDelegation",
      "outputs": [],
      "payable": false,
      "stateMutability": "nonpayable",
      "type": "function"
    },
    {
      "constant": false,
      "inputs": [
        {
          "internalType": "uint256",
          "name": "validatorId",
          "type": "uint256"
        },
        {
          "internalType": "int256",
          "name": "amount",
          "type": "int256"
        }
      ],
      "name": "updateValidatorState",
      "outputs": [],
      "payable": false,
      "stateMutability": "nonpayable",
      "type": "function"
    },
    {
      "constant": false,
      "inputs": [
        {
          "internalType": "uint256",
          "name": "newThreshold",
          "type": "uint256"
        }
      ],
      "name": "updateValidatorThreshold",
      "outputs": [],
      "payable": false,
      "stateMutability": "nonpayable",
      "type": "function"
    },
    {
      "constant": true,
      "inputs": [
        {
          "internalType": "address",
          "name": "",
          "type": "address"
        }
      ],
      "name": "userFeeExit",
      "outputs": [
        {
          "internalType": "uint256",
          "name": "",
          "type": "uint256"
        }
      ],
      "payable": false,
      "stateMutability": "view",
      "type": "function"
    },
    {
      "constant": true,
      "inputs": [
        {
          "internalType": "uint256",
          "name": "",
          "type": "uint256"
        }
      ],
      "name": "validatorAuction",
      "outputs": [
        {
          "internalType": "uint256",
          "name": "amount",
          "type": "uint256"
        },
        {
          "internalType": "uint256",
          "name": "startEpoch",
          "type": "uint256"
        },
        {
          "internalType": "address",
          "name": "user",
          "type": "address"
        },
        {
          "internalType": "bool",
          "name": "acceptDelegation",
          "type": "bool"
        },
        {
          "internalType": "bytes",
          "name": "signerPubkey",
          "type": "bytes"
        }
      ],
      "payable": false,
      "stateMutability": "view",
      "type": "function"
    },
    {
      "constant": true,
      "inputs": [
        {
          "internalType": "uint256",
          "name": "validatorId",
          "type": "uint256"
        }
      ],
      "name": "validatorReward",
      "outputs": [
        {
          "internalType": "uint256",
          "name": "",
          "type": "uint256"
        }
      ],
      "payable": false,
      "stateMutability": "view",
      "type": "function"
    },
    {
      "constant": true,
      "inputs": [],
      "name": "validatorShareFactory",
      "outputs": [
        {
          "internalType": "contract ValidatorShareFactory",
          "name": "",
          "type": "address"
        }
      ],
      "payable": false,
      "stateMutability": "view",
      "type": "function"
    },
    {
      "constant": true,
      "inputs": [
        {
          "internalType": "uint256",
          "name": "validatorId",
          "type": "uint256"
        }
      ],
      "name": "validatorStake",
      "outputs": [
        {
          "internalType": "uint256",
          "name": "",
          "type": "uint256"
        }
      ],
      "payable": false,
      "stateMutability": "view",
      "type": "function"
    },
    {
      "constant": true,
      "inputs": [],
      "name": "validatorState",
      "outputs": [
        {
          "internalType": "uint256",
          "name": "amount",
          "type": "uint256"
        },
        {
          "internalType": "uint256",
          "name": "stakerCount",
          "type": "uint256"
        }
      ],
      "payable": false,
      "stateMutability": "view",
      "type": "function"
    },
    {
      "constant": true,
      "inputs": [
        {
          "internalType": "uint256",
          "name": "",
          "type": "uint256"
        }
      ],
      "name": "validatorStateChanges",
      "outputs": [
        {
          "internalType": "int256",
          "name": "amount",
          "type": "int256"
        },
        {
          "internalType": "int256",
          "name": "stakerCount",
          "type": "int256"
        }
      ],
      "payable": false,
      "stateMutability": "view",
      "type": "function"
    },
    {
      "constant": true,
      "inputs": [],
      "name": "validatorThreshold",
      "outputs": [
        {
          "internalType": "uint256",
          "name": "",
          "type": "uint256"
        }
      ],
      "payable": false,
      "stateMutability": "view",
      "type": "function"
    },
    {
      "constant": true,
      "inputs": [
        {
          "internalType": "uint256",
          "name": "",
          "type": "uint256"
        }
      ],
      "name": "validators",
      "outputs": [
        {
          "internalType": "uint256",
          "name": "amount",
          "type": "uint256"
        },
        {
          "internalType": "uint256",
          "name": "reward",
          "type": "uint256"
        },
        {
          "internalType": "uint256",
          "name": "activationEpoch",
          "type": "uint256"
        },
        {
          "internalType": "uint256",
          "name": "deactivationEpoch",
          "type": "uint256"
        },
        {
          "internalType": "uint256",
          "name": "jailTime",
          "type": "uint256"
        },
        {
          "internalType": "address",
          "name": "signer",
          "type": "address"
        },
        {
          "internalType": "address",
          "name": "contractAddress",
          "type": "address"
        },
        {
          "internalType": "enum StakeManagerStorage.Status",
          "name": "status",
          "type": "uint8"
        },
        {
          "internalType": "uint256",
          "name": "commissionRate",
          "type": "uint256"
        },
        {
          "internalType": "uint256",
          "name": "lastCommissionUpdate",
          "type": "uint256"
        },
        {
          "internalType": "uint256",
          "name": "delegatorsReward",
          "type": "uint256"
        },
        {
          "internalType": "uint256",
          "name": "delegatedAmount",
          "type": "uint256"
        },
        {
          "internalType": "uint256",
          "name": "initialRewardPerStake",
          "type": "uint256"
        }
      ],
      "payable": false,
      "stateMutability": "view",
      "type": "function"
    },
    {
      "constant": false,
      "inputs": [
        {
          "internalType": "uint256",
          "name": "validatorId",
          "type": "uint256"
        }
      ],
      "name": "withdrawDelegatorsReward",
      "outputs": [
        {
          "internalType": "uint256",
          "name": "",
          "type": "uint256"
        }
      ],
      "payable": false,
      "stateMutability": "nonpayable",
      "type": "function"
    },
    {
      "constant": false,
      "inputs": [
        {
          "internalType": "uint256",
          "name": "validatorId",
          "type": "uint256"
        }
      ],
      "name": "withdrawRewards",
      "outputs": [],
      "payable": false,
      "stateMutability": "nonpayable",
      "type": "function"
    },
    {
      "constant": true,
      "inputs": [],
      "name": "withdrawalDelay",
      "outputs": [
        {
          "internalType": "uint256",
          "name": "",
          "type": "uint256"
        }
      ],
      "payable": false,
      "stateMutability": "view",
      "type": "function"
    }
  ],
  "bytecode": "0x60806040526000602360006101000a81548160ff0219169083151502179055503480156200002c57600080fd5b5060008080600060016101000a81548173ffffffffffffffffffffffffffffffffffffffff021916908373ffffffffffffffffffffffffffffffffffffffff160217905550505033600160006101000a81548173ffffffffffffffffffffffffffffffffffffffff021916908373ffffffffffffffffffffffffffffffffffffffff160217905550600160009054906101000a900473ffffffffffffffffffffffffffffffffffffffff1673ffffffffffffffffffffffffffffffffffffffff16600073ffffffffffffffffffffffffffffffffffffffff167f8be0079c531659141344cd1fd0a4f28419497f9722a3daafe3b4186f6b6457e060405160405180910390a361993d80620001416000396000f3fe608060405234801561001057600080fd5b50600436106106235760003560e01c80637d66975211610336578063b1d23f02116101c3578063e6692f491161010f578063f5e95acb116100ad578063f8a3176c11610087578063f8a3176c146122a9578063fb1ef52c146122f3578063fba58f3414612335578063fc0c546a1461235357610623565b8063f5e95acb1461212c578063f771fc8714612271578063f83d08ba1461229f57610623565b8063f24ccbfe116100e9578063f24ccbfe14611fa9578063f28699fa14611ff3578063f2fde38b14612023578063f41a96421461206757610623565b8063e6692f4914611ef5578063e8afa8e814611f23578063eceec1d314611f6757610623565b8063cf3090121161017c578063d86d53e711610156578063d86d53e714611e4c578063dcd962b214611e7a578063e568959a14611eb2578063e59ee0c614611ed057610623565b8063cf30901214611db8578063d6de07d014611dda578063d7f5549d14611e0a57610623565b8063b1d23f0214611c34578063b65de35e14611c6c578063bc8756a914611cae578063c710e92214611d1e578063cbf383d514611d6c578063cd6b838814611d9a57610623565b8063987ab9db11610282578063a440ab1e1161023b578063a69df4b511610215578063a69df4b514611ba0578063a7ab696114611baa578063a8dc889b14611bc8578063b184be8114611be657610623565b8063a440ab1e14611abb578063a476907114611ae9578063a685487714611b0757610623565b8063987ab9db1461197d57806399d18f6f146119c75780639a8a6243146119ff5780639b33f43414611a1d5780639ddbbf8514611a4b5780639ff1150014611a8357610623565b8063883b455f116102ef578063900cf0cf116102c9578063900cf0cf146118e5578063914601491461190357806391f1a3a5146119315780639342c8f41461194f57610623565b8063883b455f1461182f5780638da5cb5b146118795780638f32d59b146118c357610623565b80637d669752146117195780637ed4b27c146117375780637f4b4323146117795780637f952d95146117bb578063817b1cd2146117d9578063858a7c03146117f757610623565b8063451b5985116104b45780635e47655f116104005780637060054d116103b957806377939d101161039357806377939d101461163b57806378f84a44146116595780637b103999146116b15780637c7eaf1a146116fb57610623565b80637060054d146115f5578063715018a614611613578063766718081461161d57610623565b80635e47655f1461132b57806360c8d122146113b85780636352211e146113fa578063636567981461146857806368cb812a146114b65780636901b2531461158557610623565b806352b8115d1161046d5780635508d8e1116104475780635508d8e11461120b57806356342d8c146112295780635aa6e675146112975780635ab1bd53146112e157610623565b806352b8115d146110335780635325e144146110f657806354b8c601146111e957610623565b8063451b598514610e0e57806348ab8b2a14610e2c5780634b341aed14610ea45780634e3c83f114610efc5780634fd101d714610f1a5780634fdd20f114610f3857610623565b806325316411116105735780632fa9d18b1161052c57806335aa2e441161050657806335aa2e4414610c5a5780633862da0b14610d5657806339610f7814610dae57806341b3d18514610df057610623565b80632fa9d18b14610b2757806331c2273b14610bf25780633427458614610c3c57610623565b8063253164111461095057806325726df21461096e5780632649263a146109b757806328cc4e41146109fd5780632cf44a4314610a415780632e17de7814610af957610623565b8063174e6832116105e05780631ae4818f116105ba5780631ae4818f146108265780631dd6b9b1146108705780631e9b12ef1461089e5780632079fb9a146108e257610623565b8063174e683214610782578063178c2c83146107da57806317c2b9101461080857610623565b806306cfb10414610628578063078a13b1146106565780630cccfc58146106fa5780630e15561a146107185780630ebb172a1461073657806316827b1b14610754575b600080fd5b6106546004803603602081101561063e57600080fd5b810190808035906020019092919050505061239d565b005b6106f86004803603608081101561066c57600080fd5b81019080803573ffffffffffffffffffffffffffffffffffffffff169060200190929190803573ffffffffffffffffffffffffffffffffffffffff169060200190929190803573ffffffffffffffffffffffffffffffffffffffff169060200190929190803573ffffffffffffffffffffffffffffffffffffffff1690602001909291905050506123af565b005b610702612515565b6040518082815260200191505060405180910390f35b61072061251b565b6040518082815260200191505060405180910390f35b61073e612521565b6040518082815260200191505060405180910390f35b6107806004803603602081101561076a57600080fd5b8101908080359060200190929190505050612527565b005b6107c46004803603602081101561079857600080fd5b81019080803573ffffffffffffffffffffffffffffffffffffffff1690602001909291905050506125de565b6040518082815260200191505060405180910390f35b610806600480360360208110156107f057600080fd5b81019080803590602001909291905050506126ca565b005b610810612b0d565b6040518082815260200191505060405180910390f35b61082e612b13565b604051808273ffffffffffffffffffffffffffffffffffffffff1673ffffffffffffffffffffffffffffffffffffffff16815260200191505060405180910390f35b61089c6004803603602081101561088657600080fd5b8101908080359060200190929190505050612b39565b005b6108e0600480360360208110156108b457600080fd5b81019080803573ffffffffffffffffffffffffffffffffffffffff169060200190929190505050612b4b565b005b61090e600480360360208110156108f857600080fd5b8101908080359060200190929190505050612bd1565b604051808273ffffffffffffffffffffffffffffffffffffffff1673ffffffffffffffffffffffffffffffffffffffff16815260200191505060405180910390f35b610958612c0d565b6040518082815260200191505060405180910390f35b61099a6004803603602081101561098457600080fd5b8101908080359060200190929190505050612c13565b604051808381526020018281526020019250505060405180910390f35b6109e3600480360360208110156109cd57600080fd5b8101908080359060200190929190505050612c37565b604051808215151515815260200191505060405180910390f35b610a3f60048036036060811015610a1357600080fd5b810190808035906020019092919080359060200190929190803515159060200190929190505050612c9d565b005b610af760048036036020811015610a5757600080fd5b8101908080359060200190640100000000811115610a7457600080fd5b820183602082011115610a8657600080fd5b80359060200191846020830284011164010000000083111715610aa857600080fd5b919080806020026020016040519081016040528093929190818152602001838360200280828437600081840152601f19601f820116905080830192505050505050509192919290505050612f70565b005b610b2560048036036020811015610b0f57600080fd5b8101908080359060200190929190505050612f9b565b005b610bdc600480360360a0811015610b3d57600080fd5b81019080803590602001909291908035906020019092919080359060200190929190803573ffffffffffffffffffffffffffffffffffffffff16906020019092919080359060200190640100000000811115610b9857600080fd5b820183602082011115610baa57600080fd5b80359060200191846060830284011164010000000083111715610bcc57600080fd5b90919293919293905050506130a2565b6040518082815260200191505060405180910390f35b610bfa613526565b604051808273ffffffffffffffffffffffffffffffffffffffff1673ffffffffffffffffffffffffffffffffffffffff16815260200191505060405180910390f35b610c4461354c565b6040518082815260200191505060405180910390f35b610c8660048036036020811015610c7057600080fd5b8101908080359060200190929190505050613552565b604051808e81526020018d81526020018c81526020018b81526020018a81526020018973ffffffffffffffffffffffffffffffffffffffff1673ffffffffffffffffffffffffffffffffffffffff1681526020018873ffffffffffffffffffffffffffffffffffffffff1673ffffffffffffffffffffffffffffffffffffffff168152602001876003811115610d1857fe5b60ff1681526020018681526020018581526020018481526020018381526020018281526020019d505050505050505050505050505060405180910390f35b610d9860048036036020811015610d6c57600080fd5b81019080803573ffffffffffffffffffffffffffffffffffffffff169060200190929190505050613605565b6040518082815260200191505060405180910390f35b610dda60048036036020811015610dc457600080fd5b810190808035906020019092919050505061361d565b6040518082815260200191505060405180910390f35b610df8613670565b6040518082815260200191505060405180910390f35b610e16613676565b6040518082815260200191505060405180910390f35b610ea260048036036080811015610e4257600080fd5b8101908080359060200190929190803573ffffffffffffffffffffffffffffffffffffffff169060200190929190803573ffffffffffffffffffffffffffffffffffffffff1690602001909291908035906020019092919050505061367c565b005b610ee660048036036020811015610eba57600080fd5b81019080803573ffffffffffffffffffffffffffffffffffffffff1690602001909291905050506137d3565b6040518082815260200191505060405180910390f35b610f046139f7565b6040518082815260200191505060405180910390f35b610f226139fd565b6040518082815260200191505060405180910390f35b611031600480360360a0811015610f4e57600080fd5b81019080803573ffffffffffffffffffffffffffffffffffffffff169060200190929190803590602001909291908035906020019092919080351515906020019092919080359060200190640100000000811115610fab57600080fd5b820183602082011115610fbd57600080fd5b80359060200191846001830284011164010000000083111715610fdf57600080fd5b91908080601f016020809104026020016040519081016040528093929190818152602001838380828437600081840152601f19601f820116905080830192505050505050509192919290505050613a03565b005b6110f4600480360360c081101561104957600080fd5b81019080803573ffffffffffffffffffffffffffffffffffffffff169060200190929190803590602001909291908035906020019092919080359060200190929190803515159060200190929190803590602001906401000000008111156110b057600080fd5b8201836020820111156110c257600080fd5b803590602001918460018302840111640100000000831117156110e457600080fd5b9091929391929390505050613b21565b005b6111226004803603602081101561110c57600080fd5b8101908080359060200190929190505050613cd6565b604051808681526020018581526020018473ffffffffffffffffffffffffffffffffffffffff1673ffffffffffffffffffffffffffffffffffffffff1681526020018315151515815260200180602001828103825283818151815260200191508051906020019080838360005b838110156111aa57808201518184015260208101905061118f565b50505050905090810190601f1680156111d75780820380516001836020036101000a031916815260200191505b50965050505050505060405180910390f35b6111f1613dd0565b604051808215151515815260200191505060405180910390f35b611213613de3565b6040518082815260200191505060405180910390f35b6112556004803603602081101561123f57600080fd5b8101908080359060200190929190505050613de9565b604051808273ffffffffffffffffffffffffffffffffffffffff1673ffffffffffffffffffffffffffffffffffffffff16815260200191505060405180910390f35b61129f613e29565b604051808273ffffffffffffffffffffffffffffffffffffffff1673ffffffffffffffffffffffffffffffffffffffff16815260200191505060405180910390f35b6112e9613e4f565b604051808273ffffffffffffffffffffffffffffffffffffffff1673ffffffffffffffffffffffffffffffffffffffff16815260200191505060405180910390f35b6113a26004803603602081101561134157600080fd5b810190808035906020019064010000000081111561135e57600080fd5b82018360208201111561137057600080fd5b8035906020019184600183028401116401000000008311171561139257600080fd5b9091929391929390505050613e79565b6040518082815260200191505060405180910390f35b6113f8600480360360608110156113ce57600080fd5b810190808035906020019092919080359060200190929190803590602001909291905050506142ec565b005b6114266004803603602081101561141057600080fd5b81019080803590602001909291905050506143e5565b604051808273ffffffffffffffffffffffffffffffffffffffff1673ffffffffffffffffffffffffffffffffffffffff16815260200191505060405180910390f35b6114b46004803603604081101561147e57600080fd5b81019080803573ffffffffffffffffffffffffffffffffffffffff1690602001909291908035906020019092919050505061449c565b005b611583600480360360608110156114cc57600080fd5b810190808035906020019092919080359060200190929190803590602001906401000000008111156114fd57600080fd5b82018360208201111561150f57600080fd5b8035906020019184600183028401116401000000008311171561153157600080fd5b91908080601f016020809104026020016040519081016040528093929190818152602001838380828437600081840152601f19601f8201169050808301925050505050505091929192905050506144b5565b005b6115db6004803603606081101561159b57600080fd5b810190808035906020019092919080359060200190929190803573ffffffffffffffffffffffffffffffffffffffff169060200190929190505050614740565b604051808215151515815260200191505060405180910390f35b6115fd61486e565b6040518082815260200191505060405180910390f35b61161b614874565b005b611625614946565b6040518082815260200191505060405180910390f35b61164361494c565b6040518082815260200191505060405180910390f35b61169b6004803603602081101561166f57600080fd5b81019080803573ffffffffffffffffffffffffffffffffffffffff169060200190929190505050614952565b6040518082815260200191505060405180910390f35b6116b961496a565b604051808273ffffffffffffffffffffffffffffffffffffffff1673ffffffffffffffffffffffffffffffffffffffff16815260200191505060405180910390f35b611703614990565b6040518082815260200191505060405180910390f35b611721614996565b6040518082815260200191505060405180910390f35b6117636004803603602081101561174d57600080fd5b810190808035906020019092919050505061499c565b6040518082815260200191505060405180910390f35b6117a56004803603602081101561178f57600080fd5b8101908080359060200190929190505050614a05565b6040518082815260200191505060405180910390f35b6117c3614a25565b6040518082815260200191505060405180910390f35b6117e1614a32565b6040518082815260200191505060405180910390f35b61182d6004803603604081101561180d57600080fd5b810190808035906020019092919080359060200190929190505050614a38565b005b611837614a8a565b604051808273ffffffffffffffffffffffffffffffffffffffff1673ffffffffffffffffffffffffffffffffffffffff16815260200191505060405180910390f35b611881614ab0565b604051808273ffffffffffffffffffffffffffffffffffffffff1673ffffffffffffffffffffffffffffffffffffffff16815260200191505060405180910390f35b6118cb614ada565b604051808215151515815260200191505060405180910390f35b6118ed614b51565b6040518082815260200191505060405180910390f35b61192f6004803603602081101561191957600080fd5b8101908080359060200190929190505050614b5b565b005b611939614b72565b6040518082815260200191505060405180910390f35b61197b6004803603602081101561196557600080fd5b8101908080359060200190929190505050614b78565b005b611985614b99565b604051808273ffffffffffffffffffffffffffffffffffffffff1673ffffffffffffffffffffffffffffffffffffffff16815260200191505060405180910390f35b6119fd600480360360408110156119dd57600080fd5b810190808035906020019092919080359060200190929190505050614bbf565b005b611a07614ce3565b6040518082815260200191505060405180910390f35b611a4960048036036020811015611a3357600080fd5b8101908080359060200190929190505050614ce9565b005b611a8160048036036040811015611a6157600080fd5b810190808035906020019092919080359060200190929190505050614e09565b005b611ab960048036036040811015611a9957600080fd5b810190808035906020019092919080359060200190929190505050614f02565b005b611ae760048036036020811015611ad157600080fd5b8101908080359060200190929190505050614fed565b005b611af161500d565b6040518082815260200191505060405180910390f35b611b9e60048036036080811015611b1d57600080fd5b81019080803590602001909291908035906020019092919080351515906020019092919080359060200190640100000000811115611b5a57600080fd5b820183602082011115611b6c57600080fd5b80359060200191846001830284011164010000000083111715611b8e57600080fd5b909192939192939050505061501a565b005b611ba861514d565b005b611bb261515f565b6040518082815260200191505060405180910390f35b611bd0615169565b6040518082815260200191505060405180910390f35b611c3260048036036040811015611bfc57600080fd5b81019080803573ffffffffffffffffffffffffffffffffffffffff1690602001909291908035906020019092919050505061516f565b005b611c6a60048036036040811015611c4a57600080fd5b810190808035906020019092919080359060200190929190505050615185565b005b611c9860048036036020811015611c8257600080fd5b810190808035906020019092919050505061519f565b6040518082815260200191505060405180910390f35b611d0460048036036060811015611cc457600080fd5b810190808035906020019092919080359060200190929190803573ffffffffffffffffffffffffffffffffffffffff169060200190929190505050615214565b604051808215151515815260200191505060405180910390f35b611d6a60048036036040811015611d3457600080fd5b8101908080359060200190929190803573ffffffffffffffffffffffffffffffffffffffff1690602001909291905050506154b2565b005b611d9860048036036020811015611d8257600080fd5b81019080803590602001909291905050506155cb565b005b611da2615682565b6040518082815260200191505060405180910390f35b611dc0615688565b604051808215151515815260200191505060405180910390f35b611e0860048036036020811015611df057600080fd5b8101908080351515906020019092919050505061569a565b005b611e3660048036036020811015611e2057600080fd5b81019080803590602001909291905050506158ff565b6040518082815260200191505060405180910390f35b611e7860048036036020811015611e6257600080fd5b8101908080359060200190929190505050615917565b005b611eb060048036036040811015611e9057600080fd5b810190808035906020019092919080359060200190929190505050615cc4565b005b611eba615dc0565b6040518082815260200191505060405180910390f35b611ed8615dc6565b604051808381526020018281526020019250505060405180910390f35b611f2160048036036020811015611f0b57600080fd5b8101908080359060200190929190505050615dd8565b005b611f6560048036036020811015611f3957600080fd5b81019080803573ffffffffffffffffffffffffffffffffffffffff169060200190929190505050615ecc565b005b611f9360048036036020811015611f7d57600080fd5b8101908080359060200190929190505050615fd7565b6040518082815260200191505060405180910390f35b611fb1615ff7565b604051808273ffffffffffffffffffffffffffffffffffffffff1673ffffffffffffffffffffffffffffffffffffffff16815260200191505060405180910390f35b6120216004803603602081101561200957600080fd5b8101908080351515906020019092919050505061601d565b005b6120656004803603602081101561203957600080fd5b81019080803573ffffffffffffffffffffffffffffffffffffffff169060200190929190505050616042565b005b61212a6004803603604081101561207d57600080fd5b8101908080359060200190929190803590602001906401000000008111156120a457600080fd5b8201836020820111156120b657600080fd5b803590602001918460018302840111640100000000831117156120d857600080fd5b91908080601f016020809104026020016040519081016040528093929190818152602001838380828437600081840152601f19601f82011690508083019250505050505050919291929050505061605f565b005b61226f600480360361012081101561214357600080fd5b81019080803573ffffffffffffffffffffffffffffffffffffffff169060200190929190803573ffffffffffffffffffffffffffffffffffffffff169060200190929190803573ffffffffffffffffffffffffffffffffffffffff169060200190929190803573ffffffffffffffffffffffffffffffffffffffff169060200190929190803573ffffffffffffffffffffffffffffffffffffffff169060200190929190803573ffffffffffffffffffffffffffffffffffffffff169060200190929190803573ffffffffffffffffffffffffffffffffffffffff169060200190929190803573ffffffffffffffffffffffffffffffffffffffff169060200190929190803573ffffffffffffffffffffffffffffffffffffffff1690602001909291905050506163de565b005b61229d6004803603602081101561228757600080fd5b81019080803590602001909291905050506167a9565b005b6122a76167cf565b005b6122b16167e1565b604051808273ffffffffffffffffffffffffffffffffffffffff1673ffffffffffffffffffffffffffffffffffffffff16815260200191505060405180910390f35b6123336004803603606081101561230957600080fd5b81019080803590602001909291908035906020019092919080359060200190929190505050616807565b005b61233d616a2c565b6040518082815260200191505060405180910390f35b61235b616a32565b604051808273ffffffffffffffffffffffffffffffffffffffff1673ffffffffffffffffffffffffffffffffffffffff16815260200191505060405180910390f35b6123a5616a58565b80600f8190555050565b6123b7616a58565b6123c081616b00565b6123c957600080fd5b6000602360016101000a81548173ffffffffffffffffffffffffffffffffffffffff021916908373ffffffffffffffffffffffffffffffffffffffff16021790555080602560006101000a81548173ffffffffffffffffffffffffffffffffffffffff021916908373ffffffffffffffffffffffffffffffffffffffff16021790555083600660006101000a81548173ffffffffffffffffffffffffffffffffffffffff021916908373ffffffffffffffffffffffffffffffffffffffff16021790555082600560006101000a81548173ffffffffffffffffffffffffffffffffffffffff021916908373ffffffffffffffffffffffffffffffffffffffff16021790555081600760006101000a81548173ffffffffffffffffffffffffffffffffffffffff021916908373ffffffffffffffffffffffffffffffffffffffff16021790555050505050565b60155481565b60135481565b60085481565b61252f616a58565b600081141561253d57600080fd5b600560009054906101000a900473ffffffffffffffffffffffffffffffffffffffff1673ffffffffffffffffffffffffffffffffffffffff1663f1980a50826010546040518363ffffffff1660e01b81526004018083815260200182815260200192505050600060405180830381600087803b1580156125bc57600080fd5b505af11580156125d0573d6000803e3d6000fd5b505050508060108190555050565b6000600660009054906101000a900473ffffffffffffffffffffffffffffffffffffffff1673ffffffffffffffffffffffffffffffffffffffff16632f745c598360006040518363ffffffff1660e01b8152600401808373ffffffffffffffffffffffffffffffffffffffff1673ffffffffffffffffffffffffffffffffffffffff1681526020018281526020019250505060206040518083038186803b15801561268857600080fd5b505afa15801561269c573d6000803e3d6000fd5b505050506040513d60208110156126b257600080fd5b81019080805190602001909291905050509050919050565b806126d481616b52565b600260038111156126e157fe5b601a600084815260200190815260200160002060060160149054906101000a900460ff16600381111561271057fe5b14612783576040517f08c379a000000000000000000000000000000000000000000000000000000000815260040180806020018281038252600a8152602001807f4e6f74206a61696c65640000000000000000000000000000000000000000000081525060200191505060405180910390fd5b6000601a6000848152602001908152602001600020600301541461280f576040517f08c379a00000000000000000000000000000000000000000000000000000000081526004018080602001828103825260118152602001807f416c726561647920756e7374616b696e6700000000000000000000000000000081525060200191505060405180910390fd5b6000600954905080601a60008581526020019081526020016000206004015411156128a2576040517f08c379a00000000000000000000000000000000000000000000000000000000081526004018080602001828103825260168152602001807f496e636f6d706c657465206a61696c20706572696f640000000000000000000081525060200191505060405180910390fd5b6000601a6000858152602001908152602001600020600001549050600c548110156128cc57600080fd5b6000601a600086815260200190815260200160002060060160009054906101000a900473ffffffffffffffffffffffffffffffffffffffff169050600073ffffffffffffffffffffffffffffffffffffffff168173ffffffffffffffffffffffffffffffffffffffff161461299c578073ffffffffffffffffffffffffffffffffffffffff1663a69df4b56040518163ffffffff1660e01b8152600401600060405180830381600087803b15801561298357600080fd5b505af1158015612997573d6000803e3d6000fd5b505050505b6129d16129c8601a6000888152602001908152602001600020600a015484616c3a90919063ffffffff16565b60016000616c59565b6001601a600087815260200190815260200160002060060160146101000a81548160ff02191690836003811115612a0457fe5b02179055506000601a600087815260200190815260200160002060050160009054906101000a900473ffffffffffffffffffffffffffffffffffffffff169050600560009054906101000a900473ffffffffffffffffffffffffffffffffffffffff1673ffffffffffffffffffffffffffffffffffffffff1663f92ec5af87836040518363ffffffff1660e01b8152600401808381526020018273ffffffffffffffffffffffffffffffffffffffff1673ffffffffffffffffffffffffffffffffffffffff16815260200192505050600060405180830381600087803b158015612aed57600080fd5b505af1158015612b01573d6000803e3d6000fd5b50505050505050505050565b60175481565b600760009054906101000a900473ffffffffffffffffffffffffffffffffffffffff1681565b612b41616a58565b8060098190555050565b612b53616a58565b600073ffffffffffffffffffffffffffffffffffffffff168173ffffffffffffffffffffffffffffffffffffffff161415612b8d57600080fd5b80600360006101000a81548173ffffffffffffffffffffffffffffffffffffffff021916908373ffffffffffffffffffffffffffffffffffffffff16021790555050565b60268181548110612bde57fe5b906000526020600020016000915054906101000a900473ffffffffffffffffffffffffffffffffffffffff1681565b600e5481565b601e6020528060005260406000206000915090508060000154908060010154905082565b6000612c96601a600084815260200190815260200160002060060160149054906101000a900460ff16601a600085815260200190815260200160002060000154601a600086815260200190815260200160002060030154600954616daf565b9050919050565b612ca5616df6565b82612caf81616b52565b6000601a60008681526020019081526020016000206003015414612d3b576040517f08c379a000000000000000000000000000000000000000000000000000000000815260040180806020018281038252600c8152602001807f4e6f2072657374616b696e67000000000000000000000000000000000000000081525060200191505060405180910390fd5b6000831115612d5057612d4f333085616e7a565b5b612d5984617009565b8115612dba57612d9b6001612d8d601a60008881526020019081526020016000206001015486616c3a90919063ffffffff16565b61701b90919063ffffffff16565b92506001601a6000868152602001908152602001600020600101819055505b6000612dd184601154616c3a90919063ffffffff16565b905080601181905550612e0384601a600088815260200190815260200160002060000154616c3a90919063ffffffff16565b601a600087815260200190815260200160002060000181905550612e2984600080616c59565b600560009054906101000a900473ffffffffffffffffffffffffffffffffffffffff1673ffffffffffffffffffffffffffffffffffffffff1663532e19a9866040518263ffffffff1660e01b815260040180828152602001915050600060405180830381600087803b158015612e9e57600080fd5b505af1158015612eb2573d6000803e3d6000fd5b50505050600560009054906101000a900473ffffffffffffffffffffffffffffffffffffffff1673ffffffffffffffffffffffffffffffffffffffff16635616a7cc86601a600089815260200190815260200160002060000154846040518463ffffffff1660e01b8152600401808481526020018381526020018281526020019350505050600060405180830381600087803b158015612f5157600080fd5b505af1158015612f65573d6000803e3d6000fd5b505050505050505050565b612f78614ada565b612f8157600080fd5b8060269080519060200190612f97929190619726565b5050565b80612fa581616b52565b6000602060008481526020019081526020016000206000015414612fc857600080fd5b6000601a600084815260200190815260200160002060060160149054906101000a900460ff1690506000601a60008581526020019081526020016000206002015411801561302c57506000601a600085815260200190815260200160002060030154145b801561306f57506001600381111561304057fe5b81600381111561304c57fe5b148061306e57506002600381111561306057fe5b81600381111561306c57fe5b145b5b61307857600080fd5b60006130906001600954616c3a90919063ffffffff16565b905061309c848261703b565b50505050565b6000600260009054906101000a900473ffffffffffffffffffffffffffffffffffffffff1673ffffffffffffffffffffffffffffffffffffffff163373ffffffffffffffffffffffffffffffffffffffff16146130fe57600080fd5b600060095490506000806000601c60010154905061311a6197b0565b81602680549050016040519080825280602002602001820160405280156131505781602001602082028038833980820191505090505b50816040018190525060268054806020026020016040519081016040528092919081815260200182805480156131db57602002820191906000526020600020905b8160009054906101000a900473ffffffffffffffffffffffffffffffffffffffff1673ffffffffffffffffffffffffffffffffffffffff1681526020019060010190808311613191575b50505050508160600181905250600081602001818152505060268054905081608001818152505061320a6197df565b82602680549050016040519080825280602002602001820160405280156132405781602001602082028038833980820191505090505b50816020018190525060008090505b898990508110156134e65760006132ae8e8c8c8581811061326c57fe5b9050606002016003806020026040519081016040528092919082600360200280828437600081840152601f19601f8201169050808301925050505050506172dc565b90508573ffffffffffffffffffffffffffffffffffffffff168173ffffffffffffffffffffffffffffffffffffffff1614156132ea57506134db565b8573ffffffffffffffffffffffffffffffffffffffff168173ffffffffffffffffffffffffffffffffffffffff16101561332457506134e6565b6000601b60008373ffffffffffffffffffffffffffffffffffffffff1673ffffffffffffffffffffffffffffffffffffffff1681526020019081526020016000205490506000601a60008381526020019081526020016000206000015490506000601a600084815260200190815260200160002060060160149054906101000a900460ff169050601a6000848152602001908152602001600020600301548660000181815250506133db818388600001518e616daf565b156134745783985061341e82613410601a6000878152602001908152602001600020600a01548d616c3a90919063ffffffff16565b616c3a90919063ffffffff16565b995060008660000151146134625782866020015187604001518151811061344157fe5b6020026020010181815250508560400180518091906001018152505061346f565b61346c878561741d565b96505b6134d6565b6002600381111561348157fe5b81600381111561348d57fe5b14156134d5578287604001518860000151815181106134a857fe5b60200260200101818152505086600001805180919060010181525050866020018051809190600101815250505b5b505050505b80600101905061324f565b506134f282600061741d565b91506135148d8b878e8660400151876000015187602001518860400151617542565b96505050505050509695505050505050565b600660009054906101000a900473ffffffffffffffffffffffffffffffffffffffff1681565b60165481565b601a6020528060005260406000206000915090508060000154908060010154908060020154908060030154908060040154908060050160009054906101000a900473ffffffffffffffffffffffffffffffffffffffff16908060060160009054906101000a900473ffffffffffffffffffffffffffffffffffffffff16908060060160149054906101000a900460ff169080600701549080600801549080600901549080600a01549080600b015490508d565b601b6020528060005260406000206000915090505481565b6000806136298361774c565b915050613668600161365a83601a600088815260200190815260200160002060090154616c3a90919063ffffffff16565b61701b90919063ffffffff16565b915050919050565b600c5481565b60295481565b613684616a58565b6000601a600086815260200190815260200160002060060160009054906101000a900473ffffffffffffffffffffffffffffffffffffffff169050600073ffffffffffffffffffffffffffffffffffffffff168173ffffffffffffffffffffffffffffffffffffffff1614156136f957600080fd5b8073ffffffffffffffffffffffffffffffffffffffff1663abf59fc98585856040518463ffffffff1660e01b8152600401808473ffffffffffffffffffffffffffffffffffffffff1673ffffffffffffffffffffffffffffffffffffffff1681526020018373ffffffffffffffffffffffffffffffffffffffff1673ffffffffffffffffffffffffffffffffffffffff1681526020018281526020019350505050600060405180830381600087803b1580156137b457600080fd5b505af11580156137c8573d6000803e3d6000fd5b505050505050505050565b60008073ffffffffffffffffffffffffffffffffffffffff168273ffffffffffffffffffffffffffffffffffffffff1614806138e857506000600660009054906101000a900473ffffffffffffffffffffffffffffffffffffffff1673ffffffffffffffffffffffffffffffffffffffff166370a08231846040518263ffffffff1660e01b8152600401808273ffffffffffffffffffffffffffffffffffffffff1673ffffffffffffffffffffffffffffffffffffffff16815260200191505060206040518083038186803b1580156138ab57600080fd5b505afa1580156138bf573d6000803e3d6000fd5b505050506040513d60208110156138d557600080fd5b8101908080519060200190929190505050145b156138f657600090506139f2565b601a6000600660009054906101000a900473ffffffffffffffffffffffffffffffffffffffff1673ffffffffffffffffffffffffffffffffffffffff16632f745c598560006040518363ffffffff1660e01b8152600401808373ffffffffffffffffffffffffffffffffffffffff1673ffffffffffffffffffffffffffffffffffffffff1681526020018281526020019250505060206040518083038186803b1580156139a257600080fd5b505afa1580156139b6573d6000803e3d6000fd5b505050506040513d60208110156139cc57600080fd5b810190808051906020019092919050505081526020019081526020016000206000015490505b919050565b600f5481565b60105481565b613a0b616df6565b601054613a16614a25565b10613a89576040517f08c379a000000000000000000000000000000000000000000000000000000000815260040180806020018281038252600d8152602001807f6e6f206d6f726520736c6f74730000000000000000000000000000000000000081525060200191505060405180910390fd5b600c54841015613b01576040517f08c379a00000000000000000000000000000000000000000000000000000000081526004018080602001828103825260128152602001807f6e6f7420656e6f756768206465706f736974000000000000000000000000000081525060200191505060405180910390fd5b613b0d853385876177fd565b613b1985858484617974565b505050505050565b3073ffffffffffffffffffffffffffffffffffffffff163373ffffffffffffffffffffffffffffffffffffffff1614613bc2576040517f08c379a000000000000000000000000000000000000000000000000000000000815260040180806020018281038252600b8152602001807f6e6f7420616c6c6f77656400000000000000000000000000000000000000000081525060200191505060405180910390fd5b613bcf87888860006177fd565b613bdb8560095461703b565b6000613c2d88868686868080601f016020809104026020016040519081016040528093929190818152602001838380828437600081840152601f19601f82011690508083019250505050505050617974565b9050600560009054906101000a900473ffffffffffffffffffffffffffffffffffffffff1673ffffffffffffffffffffffffffffffffffffffff1663e12ab1af8288886040518463ffffffff1660e01b8152600401808481526020018381526020018281526020019350505050600060405180830381600087803b158015613cb457600080fd5b505af1158015613cc8573d6000803e3d6000fd5b505050505050505050505050565b602080528060005260406000206000915090508060000154908060010154908060020160009054906101000a900473ffffffffffffffffffffffffffffffffffffffff16908060020160149054906101000a900460ff1690806003018054600181600116156101000203166002900480601f016020809104026020016040519081016040528092919081815260200182805460018160011615610100020316600290048015613dc65780601f10613d9b57610100808354040283529160200191613dc6565b820191906000526020600020905b815481529060010190602001808311613da957829003601f168201915b5050505050905085565b601960009054906101000a900460ff1681565b60125481565b6000601a600083815260200190815260200160002060060160009054906101000a900473ffffffffffffffffffffffffffffffffffffffff169050919050565b600060019054906101000a900473ffffffffffffffffffffffffffffffffffffffff1681565b6000600460009054906101000a900473ffffffffffffffffffffffffffffffffffffffff16905090565b60003373ffffffffffffffffffffffffffffffffffffffff16600460009054906101000a900473ffffffffffffffffffffffffffffffffffffffff1673ffffffffffffffffffffffffffffffffffffffff1663d580b4186040518163ffffffff1660e01b815260040160206040518083038186803b158015613efa57600080fd5b505afa158015613f0e573d6000803e3d6000fd5b505050506040513d6020811015613f2457600080fd5b810190808051906020019092919050505073ffffffffffffffffffffffffffffffffffffffff1614613fbe576040517f08c379a00000000000000000000000000000000000000000000000000000000081526004018080602001828103825260118152602001807f4e6f7420736c617368206d616e6167657200000000000000000000000000000081525060200191505060405180910390fd5b606061401561401085858080601f016020809104026020016040519081016040528093929190818152602001838380828437600081840152601f19601f82011690508083019250505050505050617f88565b617fb6565b90506000806000805b84518110156142ba57606061404586838151811061403857fe5b6020026020010151617fb6565b905060006140668260008151811061405957fe5b6020026020010151618093565b905061407181617009565b60006140908360018151811061408357fe5b6020026020010151618093565b90506140a58186616c3a90919063ffffffff16565b94506000601a600084815260200190815260200160002060060160009054906101000a900473ffffffffffffffffffffffffffffffffffffffff169050600073ffffffffffffffffffffffffffffffffffffffff168173ffffffffffffffffffffffffffffffffffffffff16146141fb5760008173ffffffffffffffffffffffffffffffffffffffff16636cbb6050601a600087815260200190815260200160002060000154601a6000888152602001908152602001600020600a0154866040518463ffffffff1660e01b8152600401808481526020018381526020018281526020019350505050602060405180830381600087803b1580156141a757600080fd5b505af11580156141bb573d6000803e3d6000fd5b505050506040513d60208110156141d157600080fd5b810190808051906020019092919050505090506141f7818461701b90919063ffffffff16565b9250505b600061422683601a60008781526020019081526020016000206000015461701b90919063ffffffff16565b905080601a600086815260200190815260200160002060000181905550600081141561425d576142588460095461703b565b6142a8565b61427a8560028151811061426d57fe5b60200260200101516180ed565b156142a75761429c61428d85600161813f565b89616c3a90919063ffffffff16565b975088806001019950505b5b5050505050808060010191505061401e565b6142de6142d08484616c3a90919063ffffffff16565b600003856000036000616c59565b819550505050505092915050565b6142f4616a58565b6143e0602560009054906101000a900473ffffffffffffffffffffffffffffffffffffffff16602560009054906101000a900473ffffffffffffffffffffffffffffffffffffffff1673ffffffffffffffffffffffffffffffffffffffff166360c8d122905060e01b858585604051602401808481526020018381526020018281526020019350505050604051602081830303815290604052907bffffffffffffffffffffffffffffffffffffffffffffffffffffffff19166020820180517bffffffffffffffffffffffffffffffffffffffffffffffffffffffff83818316178352505050506183c4565b505050565b6000600660009054906101000a900473ffffffffffffffffffffffffffffffffffffffff1673ffffffffffffffffffffffffffffffffffffffff16636352211e836040518263ffffffff1660e01b81526004018082815260200191505060206040518083038186803b15801561445a57600080fd5b505afa15801561446e573d6000803e3d6000fd5b505050506040513d602081101561448457600080fd5b81019080805190602001909291905050509050919050565b6144a4616df6565b6144b182338360006177fd565b5050565b3383604051602001808373ffffffffffffffffffffffffffffffffffffffff1673ffffffffffffffffffffffffffffffffffffffff168152602001828152602001925050506040516020818303038152906040528051906020012073__$e61d9d092f9a1b7ffd6ff803beb268e3c6$__636c8f455c909184601754856040518563ffffffff1660e01b81526004018085815260200184815260200183815260200180602001828103825283818151815260200191508051906020019080838360005b83811015614592578082015181840152602081019050614577565b50505050905090810190601f1680156145bf5780820380516001836020036101000a031916815260200191505b509550505050505060206040518083038186803b1580156145df57600080fd5b505af41580156145f3573d6000803e3d6000fd5b505050506040513d602081101561460957600080fd5b810190808051906020019092919050505061468c576040517f08c379a000000000000000000000000000000000000000000000000000000000815260040180806020018281038252600f8152602001807f57726f6e67206163632070726f6f66000000000000000000000000000000000081525060200191505060405180910390fd5b60006146e0601f60003373ffffffffffffffffffffffffffffffffffffffff1673ffffffffffffffffffffffffffffffffffffffff168152602001908152602001600020548561701b90919063ffffffff16565b90506146ec33826183ee565b83601f60003373ffffffffffffffffffffffffffffffffffffffff1673ffffffffffffffffffffffffffffffffffffffff1681526020019081526020016000208190555061473a33826184ce565b50505050565b60008361474c81618628565b600360009054906101000a900473ffffffffffffffffffffffffffffffffffffffff1673ffffffffffffffffffffffffffffffffffffffff166323b872dd8430876040518463ffffffff1660e01b8152600401808473ffffffffffffffffffffffffffffffffffffffff1673ffffffffffffffffffffffffffffffffffffffff1681526020018373ffffffffffffffffffffffffffffffffffffffff1673ffffffffffffffffffffffffffffffffffffffff1681526020018281526020019350505050602060405180830381600087803b15801561482957600080fd5b505af115801561483d573d6000803e3d6000fd5b505050506040513d602081101561485357600080fd5b81019080805190602001909291905050509150509392505050565b600a5481565b61487c614ada565b61488557600080fd5b600073ffffffffffffffffffffffffffffffffffffffff16600160009054906101000a900473ffffffffffffffffffffffffffffffffffffffff1673ffffffffffffffffffffffffffffffffffffffff167f8be0079c531659141344cd1fd0a4f28419497f9722a3daafe3b4186f6b6457e060405160405180910390a36000600160006101000a81548173ffffffffffffffffffffffffffffffffffffffff021916908373ffffffffffffffffffffffffffffffffffffffff160217905550565b60095481565b60185481565b601f6020528060005260406000206000915090505481565b600460009054906101000a900473ffffffffffffffffffffffffffffffffffffffff1681565b602a5481565b600b5481565b6000816149a881618628565b6149b183617009565b60006149dd6001601a60008781526020019081526020016000206009015461701b90919063ffffffff16565b90506001601a6000868152602001908152602001600020600901819055508092505050919050565b6000601a6000838152602001908152602001600020600a01549050919050565b6000601c60010154905090565b60115481565b81614a4281618628565b614a6b82601a6000868152602001908152602001600020600a015461701b90919063ffffffff16565b601a6000858152602001908152602001600020600a0181905550505050565b602360019054906101000a900473ffffffffffffffffffffffffffffffffffffffff1681565b6000600160009054906101000a900473ffffffffffffffffffffffffffffffffffffffff16905090565b600080600060405180807f6d617469632e6e6574776f726b2e70726f78792e6f776e657200000000000000815250601901905060405180910390209050805491508173ffffffffffffffffffffffffffffffffffffffff163373ffffffffffffffffffffffffffffffffffffffff16149250505090565b6000600954905090565b614b63616a58565b614b6f8160095461703b565b50565b60275481565b80614b8281616b52565b614b8b82617009565b614b958233618702565b5050565b600260009054906101000a900473ffffffffffffffffffffffffffffffffffffffff1681565b614bc7616df6565b614cdf602560009054906101000a900473ffffffffffffffffffffffffffffffffffffffff16602560009054906101000a900473ffffffffffffffffffffffffffffffffffffffff1673ffffffffffffffffffffffffffffffffffffffff1663ac35ab92905060e01b848430604051602401808481526020018381526020018273ffffffffffffffffffffffffffffffffffffffff1673ffffffffffffffffffffffffffffffffffffffff1681526020019350505050604051602081830303815290604052907bffffffffffffffffffffffffffffffffffffffffffffffffffffffff19166020820180517bffffffffffffffffffffffffffffffffffffffffffffffffffffffff83818316178352505050506183c4565b5050565b60225481565b614cf1616a58565b600560009054906101000a900473ffffffffffffffffffffffffffffffffffffffff1673ffffffffffffffffffffffffffffffffffffffff1663a3b1d8cb826016546040518363ffffffff1660e01b81526004018083815260200182815260200192505050600060405180830381600087803b158015614d7057600080fd5b505af1158015614d84573d6000803e3d6000fd5b505050506064811115614dff576040517f08c379a00000000000000000000000000000000000000000000000000000000081526004018080602001828103825260078152602001807f746f6f206269670000000000000000000000000000000000000000000000000081525060200191505060405180910390fd5b8060168190555050565b614e11614ada565b614e1a57600080fd5b614efe602560009054906101000a900473ffffffffffffffffffffffffffffffffffffffff16602560009054906101000a900473ffffffffffffffffffffffffffffffffffffffff1673ffffffffffffffffffffffffffffffffffffffff16639ddbbf85905060e01b84846040516024018083815260200182815260200192505050604051602081830303815290604052907bffffffffffffffffffffffffffffffffffffffffffffffffffffffff19166020820180517bffffffffffffffffffffffffffffffffffffffffffffffffffffffff83818316178352505050506183c4565b5050565b81614f0c81618628565b6000821315614f9857601960009054906101000a900460ff16614f97576040517f08c379a00000000000000000000000000000000000000000000000000000000081526004018080602001828103825260168152602001807f44656c65676174696f6e2069732064697361626c65640000000000000000000081525060200191505060405180910390fd5b5b614fa482600080616c59565b60008212614fbb57614fb68383618832565b614fe8565b614fe7837fffffffffffffffffffffffffffffffffffffffffffffffffffffffffffffffff8402614a38565b5b505050565b614ff5616a58565b600081141561500357600080fd5b80600e8190555050565b6000601c60000154905090565b615022616df6565b615146602560009054906101000a900473ffffffffffffffffffffffffffffffffffffffff16602560009054906101000a900473ffffffffffffffffffffffffffffffffffffffff1673ffffffffffffffffffffffffffffffffffffffff1663a6854877905060e01b87878787876040516024018086815260200185815260200184151515158152602001806020018281038252848482818152602001925080828437600081840152601f19601f8201169050808301925050509650505050505050604051602081830303815290604052907bffffffffffffffffffffffffffffffffffffffffffffffffffffffff19166020820180517bffffffffffffffffffffffffffffffffffffffffffffffffffffffff83818316178352505050506183c4565b5050505050565b615155616a58565b61515d618879565b565b6000600854905090565b60245481565b615177616a58565b61518182826184ce565b5050565b61518d616a58565b81600c8190555080600d819055505050565b6000806000601a60008581526020019081526020016000206003015414156151d0576151ca8361774c565b50809150505b61520c60016151fe83601a600088815260200190815260200160002060010154616c3a90919063ffffffff16565b61701b90919063ffffffff16565b915050919050565b60003373ffffffffffffffffffffffffffffffffffffffff16601a600086815260200190815260200160002060060160009054906101000a900473ffffffffffffffffffffffffffffffffffffffff1673ffffffffffffffffffffffffffffffffffffffff16148061535357503373ffffffffffffffffffffffffffffffffffffffff16600460009054906101000a900473ffffffffffffffffffffffffffffffffffffffff1673ffffffffffffffffffffffffffffffffffffffff1663d580b4186040518163ffffffff1660e01b815260040160206040518083038186803b15801561530057600080fd5b505afa158015615314573d6000803e3d6000fd5b505050506040513d602081101561532a57600080fd5b810190808051906020019092919050505073ffffffffffffffffffffffffffffffffffffffff16145b6153c5576040517f08c379a000000000000000000000000000000000000000000000000000000000815260040180806020018281038252600b8152602001807f6e6f7420616c6c6f77656400000000000000000000000000000000000000000081525060200191505060405180910390fd5b600360009054906101000a900473ffffffffffffffffffffffffffffffffffffffff1673ffffffffffffffffffffffffffffffffffffffff1663a9059cbb83856040518363ffffffff1660e01b8152600401808373ffffffffffffffffffffffffffffffffffffffff1673ffffffffffffffffffffffffffffffffffffffff16815260200182815260200192505050602060405180830381600087803b15801561546e57600080fd5b505af1158015615482573d6000803e3d6000fd5b505050506040513d602081101561549857600080fd5b810190808051906020019092919050505090509392505050565b6154ba616a58565b3073ffffffffffffffffffffffffffffffffffffffff168173ffffffffffffffffffffffffffffffffffffffff16638da5cb5b6040518163ffffffff1660e01b815260040160206040518083038186803b15801561551757600080fd5b505afa15801561552b573d6000803e3d6000fd5b505050506040513d602081101561554157600080fd5b810190808051906020019092919050505073ffffffffffffffffffffffffffffffffffffffff161461557257600080fd5b80601a600084815260200190815260200160002060060160006101000a81548173ffffffffffffffffffffffffffffffffffffffff021916908373ffffffffffffffffffffffffffffffffffffffff1602179055505050565b6155d3616a58565b60008114156155e157600080fd5b600560009054906101000a900473ffffffffffffffffffffffffffffffffffffffff1673ffffffffffffffffffffffffffffffffffffffff1663b6fa74c482600b546040518363ffffffff1660e01b81526004018083815260200182815260200192505050600060405180830381600087803b15801561566057600080fd5b505af1158015615674573d6000803e3d6000fd5b5050505080600b8190555050565b60145481565b6000809054906101000a900460ff1681565b6000601b60003373ffffffffffffffffffffffffffffffffffffffff1673ffffffffffffffffffffffffffffffffffffffff16815260200190815260200160002054905061573b601a600083815260200190815260200160002060060160149054906101000a900460ff16601a600084815260200190815260200160002060000154601a600085815260200190815260200160002060030154600954616daf565b6157ad576040517f08c379a000000000000000000000000000000000000000000000000000000000815260040180806020018281038252600d8152602001807f6e6f742076616c696461746f720000000000000000000000000000000000000081525060200191505060405180910390fd5b6000601a600083815260200190815260200160002060060160009054906101000a900473ffffffffffffffffffffffffffffffffffffffff169050600073ffffffffffffffffffffffffffffffffffffffff168173ffffffffffffffffffffffffffffffffffffffff16141561588b576040517f08c379a00000000000000000000000000000000000000000000000000000000081526004018080602001828103825260168152602001807f44656c65676174696f6e2069732064697361626c65640000000000000000000081525060200191505060405180910390fd5b8073ffffffffffffffffffffffffffffffffffffffff16637ba8c820846040518263ffffffff1660e01b81526004018082151515158152602001915050600060405180830381600087803b1580156158e257600080fd5b505af11580156158f6573d6000803e3d6000fd5b50505050505050565b60216020528060005260406000206000915090505481565b8061592181616b52565b6000601a6000848152602001908152602001600020600301549050600081118015615962575060095461595f60085483616c3a90919063ffffffff16565b11155b80156159a7575060038081111561597557fe5b601a600085815260200190815260200160002060060160149054906101000a900460ff1660038111156159a457fe5b14155b6159b057600080fd5b6000601a600085815260200190815260200160002060000154905060006159e28260115461701b90919063ffffffff16565b9050806011819055506159f58533618702565b600660009054906101000a900473ffffffffffffffffffffffffffffffffffffffff1673ffffffffffffffffffffffffffffffffffffffff166342966c68866040518263ffffffff1660e01b815260040180828152602001915050600060405180830381600087803b158015615a6a57600080fd5b505af1158015615a7e573d6000803e3d6000fd5b505050506000601a6000878152602001908152602001600020600001819055506000601a6000878152602001908152602001600020600401819055506000601a600087815260200190815260200160002060050160006101000a81548173ffffffffffffffffffffffffffffffffffffffff021916908373ffffffffffffffffffffffffffffffffffffffff1602179055507fffffffffffffffffffffffffffffffffffffffffffffffffffffffffffffffff601b6000601a600089815260200190815260200160002060050160009054906101000a900473ffffffffffffffffffffffffffffffffffffffff1673ffffffffffffffffffffffffffffffffffffffff1673ffffffffffffffffffffffffffffffffffffffff168152602001908152602001600020819055506003601a600087815260200190815260200160002060060160146101000a81548160ff02191690836003811115615bdd57fe5b0217905550615bec33836184ce565b600560009054906101000a900473ffffffffffffffffffffffffffffffffffffffff1673ffffffffffffffffffffffffffffffffffffffff1663ae2e26b1338785856040518563ffffffff1660e01b8152600401808573ffffffffffffffffffffffffffffffffffffffff1673ffffffffffffffffffffffffffffffffffffffff168152602001848152602001838152602001828152602001945050505050600060405180830381600087803b158015615ca557600080fd5b505af1158015615cb9573d6000803e3d6000fd5b505050505050505050565b81615cce81616b52565b615cd783617009565b615dbb602560009054906101000a900473ffffffffffffffffffffffffffffffffffffffff16602560009054906101000a900473ffffffffffffffffffffffffffffffffffffffff1673ffffffffffffffffffffffffffffffffffffffff1663dcd962b2905060e01b85856040516024018083815260200182815260200192505050604051602081830303815290604052907bffffffffffffffffffffffffffffffffffffffffffffffffffffffff19166020820180517bffffffffffffffffffffffffffffffffffffffffffffffffffffffff83818316178352505050506183c4565b505050565b60285481565b601c8060000154908060010154905082565b615de0616a58565b60008111615ded57600080fd5b600560009054906101000a900473ffffffffffffffffffffffffffffffffffffffff1673ffffffffffffffffffffffffffffffffffffffff1663a0e300a682600a546040518363ffffffff1660e01b81526004018083815260200182815260200192505050600060405180830381600087803b158015615e6c57600080fd5b505af1158015615e80573d6000803e3d6000fd5b5050505080600a8190555080600881905550615ea660048261889590919063ffffffff16565b601581905550615ec3601554600954616c3a90919063ffffffff16565b60188190555050565b615ed4614ada565b615edd57600080fd5b600073ffffffffffffffffffffffffffffffffffffffff168173ffffffffffffffffffffffffffffffffffffffff161415615f1757600080fd5b8073ffffffffffffffffffffffffffffffffffffffff16600260009054906101000a900473ffffffffffffffffffffffffffffffffffffffff1673ffffffffffffffffffffffffffffffffffffffff167f211c9015fc81c0dbd45bd99f0f29fc1c143bfd53442d5ffd722bbbef7a887fe960405160405180910390a380600260006101000a81548173ffffffffffffffffffffffffffffffffffffffff021916908373ffffffffffffffffffffffffffffffffffffffff16021790555050565b6000601a6000838152602001908152602001600020600001549050919050565b600560009054906101000a900473ffffffffffffffffffffffffffffffffffffffff1681565b616025616a58565b80601960006101000a81548160ff02191690831515021790555050565b61604a614ada565b61605357600080fd5b61605c816188bb565b50565b8161606981616b52565b6000616074836189b5565b9050600060095490506160a5600f546021600088815260200190815260200160002054616c3a90919063ffffffff16565b81101561611a576040517f08c379a000000000000000000000000000000000000000000000000000000000815260040180806020018281038252600b8152602001807f4e6f7420616c6c6f77656400000000000000000000000000000000000000000081525060200191505060405180910390fd5b6000601a600087815260200190815260200160002060050160009054906101000a900473ffffffffffffffffffffffffffffffffffffffff169050600560009054906101000a900473ffffffffffffffffffffffffffffffffffffffff1673ffffffffffffffffffffffffffffffffffffffff1663b80fbce5878386896040518563ffffffff1660e01b8152600401808581526020018473ffffffffffffffffffffffffffffffffffffffff1673ffffffffffffffffffffffffffffffffffffffff1681526020018373ffffffffffffffffffffffffffffffffffffffff1673ffffffffffffffffffffffffffffffffffffffff16815260200180602001828103825283818151815260200191508051906020019080838360005b83811015616250578082015181840152602081019050616235565b50505050905090810190601f16801561627d5780820380516001836020036101000a031916815260200191505b5095505050505050600060405180830381600087803b15801561629f57600080fd5b505af11580156162b3573d6000803e3d6000fd5b505050507fffffffffffffffffffffffffffffffffffffffffffffffffffffffffffffffff601b60008373ffffffffffffffffffffffffffffffffffffffff1673ffffffffffffffffffffffffffffffffffffffff1681526020019081526020016000208190555085601b60008573ffffffffffffffffffffffffffffffffffffffff1673ffffffffffffffffffffffffffffffffffffffff1681526020019081526020016000208190555082601a600088815260200190815260200160002060050160006101000a81548173ffffffffffffffffffffffffffffffffffffffff021916908373ffffffffffffffffffffffffffffffffffffffff1602179055506163be8184618b34565b816021600088815260200190815260200160002081905550505050505050565b602360009054906101000a900460ff1615616461576040517f08c379a000000000000000000000000000000000000000000000000000000000815260040180806020018281038252600e8152602001807f616c726561647920696e6974656400000000000000000000000000000000000081525060200191505060405180910390fd5b6001602360006101000a81548160ff02191690831515021790555061648581616b00565b6164f7576040517f08c379a00000000000000000000000000000000000000000000000000000000081526004018080602001828103825260168152602001807f61756374696f6e20696d706c20696e636f72726563740000000000000000000081525060200191505060405180910390fd5b80602560006101000a81548173ffffffffffffffffffffffffffffffffffffffff021916908373ffffffffffffffffffffffffffffffffffffffff16021790555082600060016101000a81548173ffffffffffffffffffffffffffffffffffffffff021916908373ffffffffffffffffffffffffffffffffffffffff16021790555088600460006101000a81548173ffffffffffffffffffffffffffffffffffffffff021916908373ffffffffffffffffffffffffffffffffffffffff16021790555087600260006101000a81548173ffffffffffffffffffffffffffffffffffffffff021916908373ffffffffffffffffffffffffffffffffffffffff16021790555086600360006101000a81548173ffffffffffffffffffffffffffffffffffffffff021916908373ffffffffffffffffffffffffffffffffffffffff16021790555085600660006101000a81548173ffffffffffffffffffffffffffffffffffffffff021916908373ffffffffffffffffffffffffffffffffffffffff16021790555084600560006101000a81548173ffffffffffffffffffffffffffffffffffffffff021916908373ffffffffffffffffffffffffffffffffffffffff16021790555083600760006101000a81548173ffffffffffffffffffffffffffffffffffffffff021916908373ffffffffffffffffffffffffffffffffffffffff160217905550616708826188bb565b6120006008819055506001600981905550610376600a8190555069044664c7bf6451f00000600b81905550670de0b6b3a7640000600c81905550670de0b6b3a7640000600d81905550610400600e819055506064600f8190555060076010819055506001601281905550610800601581905550600a6016819055506001601960006101000a81548160ff021916908315150217905550505050505050505050565b6167b1616a58565b6167c681600954616c3a90919063ffffffff16565b60188190555050565b6167d7616a58565b6167df618b4a565b565b602560009054906101000a900473ffffffffffffffffffffffffffffffffffffffff1681565b6007821161687d576040517f08c379a00000000000000000000000000000000000000000000000000000000081526004018080602001828103825260118152602001807f496e76616c6964206d6967726174696f6e00000000000000000000000000000081525060200191505060405180910390fd5b601a600084815260200190815260200160002060060160009054906101000a900473ffffffffffffffffffffffffffffffffffffffff1673ffffffffffffffffffffffffffffffffffffffff16636e7ce59133836040518363ffffffff1660e01b8152600401808373ffffffffffffffffffffffffffffffffffffffff1673ffffffffffffffffffffffffffffffffffffffff16815260200182815260200192505050600060405180830381600087803b15801561693a57600080fd5b505af115801561694e573d6000803e3d6000fd5b50505050601a600083815260200190815260200160002060060160009054906101000a900473ffffffffffffffffffffffffffffffffffffffff1673ffffffffffffffffffffffffffffffffffffffff1663a0c1ca3433836040518363ffffffff1660e01b8152600401808373ffffffffffffffffffffffffffffffffffffffff1673ffffffffffffffffffffffffffffffffffffffff16815260200182815260200192505050600060405180830381600087803b158015616a0f57600080fd5b505af1158015616a23573d6000803e3d6000fd5b50505050505050565b600d5481565b600360009054906101000a900473ffffffffffffffffffffffffffffffffffffffff1681565b600060019054906101000a900473ffffffffffffffffffffffffffffffffffffffff1673ffffffffffffffffffffffffffffffffffffffff163373ffffffffffffffffffffffffffffffffffffffff1614616afe576040517f08c379a00000000000000000000000000000000000000000000000000000000081526004018080602001828103825260268152602001806198e36026913960400191505060405180910390fd5b565b60008073ffffffffffffffffffffffffffffffffffffffff168273ffffffffffffffffffffffffffffffffffffffff161415616b3f5760009050616b4d565b6000823b9050600081119150505b919050565b3373ffffffffffffffffffffffffffffffffffffffff16600660009054906101000a900473ffffffffffffffffffffffffffffffffffffffff1673ffffffffffffffffffffffffffffffffffffffff16636352211e836040518263ffffffff1660e01b81526004018082815260200191505060206040518083038186803b158015616bdc57600080fd5b505afa158015616bf0573d6000803e3d6000fd5b505050506040513d6020811015616c0657600080fd5b810190808051906020019092919050505073ffffffffffffffffffffffffffffffffffffffff1614616c3757600080fd5b50565b600080828401905083811015616c4f57600080fd5b8091505092915050565b6000811415616d61576000831315616c9157616c8383601c60000154616c3a90919063ffffffff16565b601c60000181905550616cdf565b6000831215616cde57616cd47fffffffffffffffffffffffffffffffffffffffffffffffffffffffffffffffff8402601c6000015461701b90919063ffffffff16565b601c600001819055505b5b6000821315616d0e57616d0082601c60010154616c3a90919063ffffffff16565b601c60010181905550616d5c565b6000821215616d5b57616d517fffffffffffffffffffffffffffffffffffffffffffffffffffffffffffffffff8302601c6001015461701b90919063ffffffff16565b601c600101819055505b5b616daa565b82601e60008381526020019081526020016000206000016000828254019250508190555081601e6000838152602001908152602001600020600101600082825401925050819055505b505050565b60008084118015616dca57506000831480616dc957508183115b5b8015616dec575060016003811115616dde57fe5b856003811115616dea57fe5b145b9050949350505050565b6000809054906101000a900460ff1615616e78576040517f08c379a00000000000000000000000000000000000000000000000000000000081526004018080602001828103825260068152602001807f6c6f636b6564000000000000000000000000000000000000000000000000000081525060200191505060405180910390fd5b565b600360009054906101000a900473ffffffffffffffffffffffffffffffffffffffff1673ffffffffffffffffffffffffffffffffffffffff166323b872dd8484846040518463ffffffff1660e01b8152600401808473ffffffffffffffffffffffffffffffffffffffff1673ffffffffffffffffffffffffffffffffffffffff1681526020018373ffffffffffffffffffffffffffffffffffffffff1673ffffffffffffffffffffffffffffffffffffffff1681526020018281526020019350505050602060405180830381600087803b158015616f5757600080fd5b505af1158015616f6b573d6000803e3d6000fd5b505050506040513d6020811015616f8157600080fd5b8101908080519060200190929190505050617004576040517f08c379a00000000000000000000000000000000000000000000000000000000081526004018080602001828103825260148152602001807f7472616e736665722066726f6d206661696c656400000000000000000000000081525060200191505060405180910390fd5b505050565b61701881602454602454618b66565b50565b60008282111561702a57600080fd5b600082840390508091505092915050565b61704482617009565b6000601a6000848152602001908152602001600020600001549050600061706a846143e5565b905082601a6000868152602001908152602001600020600301819055506000601a6000868152602001908152602001600020600a015490506000601a600087815260200190815260200160002060060160009054906101000a900473ffffffffffffffffffffffffffffffffffffffff169050600073ffffffffffffffffffffffffffffffffffffffff168173ffffffffffffffffffffffffffffffffffffffff1614617172578073ffffffffffffffffffffffffffffffffffffffff1663f83d08ba6040518163ffffffff1660e01b8152600401600060405180830381600087803b15801561715957600080fd5b505af115801561716d573d6000803e3d6000fd5b505050505b6171b1601a600088815260200190815260200160002060050160009054906101000a900473ffffffffffffffffffffffffffffffffffffffff16618c3f565b6171bb8684618702565b60006009548611156171cd57856171d0565b60005b90506172028386016000037fffffffffffffffffffffffffffffffffffffffffffffffffffffffffffffffff83616c59565b600560009054906101000a900473ffffffffffffffffffffffffffffffffffffffff1673ffffffffffffffffffffffffffffffffffffffff16635e04d483858989896040518563ffffffff1660e01b8152600401808573ffffffffffffffffffffffffffffffffffffffff1673ffffffffffffffffffffffffffffffffffffffff168152602001848152602001838152602001828152602001945050505050600060405180830381600087803b1580156172bb57600080fd5b505af11580156172cf573d6000803e3d6000fd5b5050505050505050505050565b60008060008084519250602085015191506040850151601f1a90507f7fffffffffffffffffffffffffffffff5d576e7357a4501ddfe92f46681b20a08260001c111561732e5760009350505050617417565b601b8160ff16101561734157601b810190505b601b8160ff16141580156173595750601c8160ff1614155b1561736a5760009350505050617417565b600060018783868660405160008152602001604052604051808581526020018460ff1660ff1681526020018381526020018281526020019450505050506020604051602081039080840390855afa1580156173c9573d6000803e3d6000fd5b505050602060405103519050600073ffffffffffffffffffffffffffffffffffffffff168173ffffffffffffffffffffffffffffffffffffffff16141561740f57600080fd5b809450505050505b92915050565b6174256197b0565b5b8260800151836020015110801561748457508173ffffffffffffffffffffffffffffffffffffffff16836060015184602001518151811061746357fe5b602002602001015173ffffffffffffffffffffffffffffffffffffffff1614155b1561752957601b600084606001518560200151815181106174a157fe5b602002602001015173ffffffffffffffffffffffffffffffffffffffff1673ffffffffffffffffffffffffffffffffffffffff1681526020019081526020016000205483604001518460000151815181106174f857fe5b6020026020010181815250508260000180518091906001018152505082602001805180919060010181525050617426565b8260200180518091906001018152505082905092915050565b600080601c6000015490506175876001617579600361756b600286618dd090919063ffffffff16565b61889590919063ffffffff16565b616c3a90919063ffffffff16565b8810156175fc576040517f08c379a00000000000000000000000000000000000000000000000000000000081526004018080602001828103825260138152602001807f322f332b31206e6f6e2d6d616a6f72697479210000000000000000000000000081525060200191505060405180910390fd5b60006176098b8a84618e0a565b90506000617635606461762760165485618dd090919063ffffffff16565b61889590919063ffffffff16565b90506000601b60008d73ffffffffffffffffffffffffffffffffffffffff1673ffffffffffffffffffffffffffffffffffffffff1681526020019081526020016000205490506000601a600083815260200190815260200160002090506176a9838260010154616c3a90919063ffffffff16565b81600101819055508a60178190555060006177106176ff8e6176f16a084595161401484a0000006176e3898b61701b90919063ffffffff16565b618dd090919063ffffffff16565b61889590919063ffffffff16565b602454616c3a90919063ffffffff16565b905061771d8b8b83618feb565b8060248190555061772f898983618feb565b617737619030565b84965050505050505098975050505050505050565b6000806000601a60008581526020019081526020016000206000015490506000617795601a6000878152602001908152602001600020600a015483616c3a90919063ffffffff16565b90506000601a6000878152602001908152602001600020600b01546024540390506177f186846177eb6a084595161401484a0000006177dd8787618dd090919063ffffffff16565b61889590919063ffffffff16565b856190d1565b94509450505050915091565b600d54821015617875576040517f08c379a000000000000000000000000000000000000000000000000000000000815260040180806020018281038252600d8152602001807f66656520746f6f20736d616c6c0000000000000000000000000000000000000081525060200191505060405180910390fd5b617892833061788d8486616c3a90919063ffffffff16565b616e7a565b6178a782602254616c3a90919063ffffffff16565b602281905550600560009054906101000a900473ffffffffffffffffffffffffffffffffffffffff1673ffffffffffffffffffffffffffffffffffffffff1663a449d79585846040518363ffffffff1660e01b8152600401808373ffffffffffffffffffffffffffffffffffffffff1673ffffffffffffffffffffffffffffffffffffffff16815260200182815260200192505050600060405180830381600087803b15801561795657600080fd5b505af115801561796a573d6000803e3d6000fd5b5050505050505050565b600080617980836189b5565b905060006009549050600060125490506000600560009054906101000a900473ffffffffffffffffffffffffffffffffffffffff16905060006179ce89601154616c3a90919063ffffffff16565b905080601181905550604051806101a001604052808a81526020016001815260200185815260200160008152602001600081526020018673ffffffffffffffffffffffffffffffffffffffff16815260200189617a2c576000617b67565b600760009054906101000a900473ffffffffffffffffffffffffffffffffffffffff1673ffffffffffffffffffffffffffffffffffffffff1663d4ad26738686600460009054906101000a900473ffffffffffffffffffffffffffffffffffffffff166040518463ffffffff1660e01b8152600401808481526020018373ffffffffffffffffffffffffffffffffffffffff1673ffffffffffffffffffffffffffffffffffffffff1681526020018273ffffffffffffffffffffffffffffffffffffffff1673ffffffffffffffffffffffffffffffffffffffff1681526020019350505050602060405180830381600087803b158015617b2b57600080fd5b505af1158015617b3f573d6000803e3d6000fd5b505050506040513d6020811015617b5557600080fd5b81019080805190602001909291905050505b73ffffffffffffffffffffffffffffffffffffffff16815260200160016003811115617b8f57fe5b815260200160008152602001600081526020016001815260200160008152602001602454815250601a6000858152602001908152602001600020600082015181600001556020820151816001015560408201518160020155606082015181600301556080820151816004015560a08201518160050160006101000a81548173ffffffffffffffffffffffffffffffffffffffff021916908373ffffffffffffffffffffffffffffffffffffffff16021790555060c08201518160060160006101000a81548173ffffffffffffffffffffffffffffffffffffffff021916908373ffffffffffffffffffffffffffffffffffffffff16021790555060e08201518160060160146101000a81548160ff02191690836003811115617cad57fe5b021790555061010082015181600701556101208201518160080155610140820151816009015561016082015181600a015561018082015181600b0155905050836021600085815260200190815260200160002081905550600660009054906101000a900473ffffffffffffffffffffffffffffffffffffffff1673ffffffffffffffffffffffffffffffffffffffff166340c10f198b856040518363ffffffff1660e01b8152600401808373ffffffffffffffffffffffffffffffffffffffff1673ffffffffffffffffffffffffffffffffffffffff16815260200182815260200192505050600060405180830381600087803b158015617dad57600080fd5b505af1158015617dc1573d6000803e3d6000fd5b5050505082601b60008773ffffffffffffffffffffffffffffffffffffffff1673ffffffffffffffffffffffffffffffffffffffff16815260200190815260200160002081905550617e168960016000616c59565b8360206000858152602001908152602001600020600101819055508173ffffffffffffffffffffffffffffffffffffffff166333a8383c868986888e876040518763ffffffff1660e01b8152600401808773ffffffffffffffffffffffffffffffffffffffff1673ffffffffffffffffffffffffffffffffffffffff16815260200180602001868152602001858152602001848152602001838152602001828103825287818151815260200191508051906020019080838360005b83811015617eec578082015181840152602081019050617ed1565b50505050905090810190601f168015617f195780820380516001836020036101000a031916815260200191505b50975050505050505050600060405180830381600087803b158015617f3d57600080fd5b505af1158015617f51573d6000803e3d6000fd5b50505050617f69600184616c3a90919063ffffffff16565b601281905550617f78856191b3565b8295505050505050949350505050565b617f90619800565b600060208301905060405180604001604052808451815260200182815250915050919050565b6060617fc182619374565b617fca57600080fd5b6000617fd5836193c2565b905060608160405190808252806020026020018201604052801561801357816020015b61800061981a565b815260200190600190039081617ff85790505b50905060006180258560200151619433565b8560200151019050600080600090505b8481101561808657618046836194bc565b915060405180604001604052808381526020018481525084828151811061806957fe5b602002602001018190525081830192508080600101915050618035565b5082945050505050919050565b60008082600001511180156180ad57506021826000015111155b6180b657600080fd5b6000806180c284619574565b9150915060008251905060208210156180e257816020036101000a810490505b809350505050919050565b6000600182600001511461810057600080fd5b60008083602001519050805160001a915060008214806181235750608060ff1682145b156181335760009250505061813a565b6001925050505b919050565b600080601a600085815260200190815260200160002060060160009054906101000a900473ffffffffffffffffffffffffffffffffffffffff169050600073ffffffffffffffffffffffffffffffffffffffff168173ffffffffffffffffffffffffffffffffffffffff1614618210578073ffffffffffffffffffffffffffffffffffffffff1663f83d08ba6040518163ffffffff1660e01b8152600401600060405180830381600087803b1580156181f757600080fd5b505af115801561820b573d6000803e3d6000fd5b505050505b6000600954905061822a8482616c3a90919063ffffffff16565b601a6000878152602001908152602001600020600401819055506002601a600087815260200190815260200160002060060160146101000a81548160ff0219169083600381111561827757fe5b0217905550600560009054906101000a900473ffffffffffffffffffffffffffffffffffffffff1673ffffffffffffffffffffffffffffffffffffffff166381dc101b8683601a60008a815260200190815260200160002060050160009054906101000a900473ffffffffffffffffffffffffffffffffffffffff166040518463ffffffff1660e01b8152600401808481526020018381526020018273ffffffffffffffffffffffffffffffffffffffff1673ffffffffffffffffffffffffffffffffffffffff1681526020019350505050600060405180830381600087803b15801561836357600080fd5b505af1158015618377573d6000803e3d6000fd5b505050506183ba601a6000878152602001908152602001600020600a0154601a600088815260200190815260200160002060000154616c3a90919063ffffffff16565b9250505092915050565b600080825160208401856127105a03f43d604051816000823e82600081146183ea578282f35b8282fd5b6184038160225461701b90919063ffffffff16565b602281905550600560009054906101000a900473ffffffffffffffffffffffffffffffffffffffff1673ffffffffffffffffffffffffffffffffffffffff1663122b648183836040518363ffffffff1660e01b8152600401808373ffffffffffffffffffffffffffffffffffffffff1673ffffffffffffffffffffffffffffffffffffffff16815260200182815260200192505050600060405180830381600087803b1580156184b257600080fd5b505af11580156184c6573d6000803e3d6000fd5b505050505050565b600360009054906101000a900473ffffffffffffffffffffffffffffffffffffffff1673ffffffffffffffffffffffffffffffffffffffff1663a9059cbb83836040518363ffffffff1660e01b8152600401808373ffffffffffffffffffffffffffffffffffffffff1673ffffffffffffffffffffffffffffffffffffffff16815260200182815260200192505050602060405180830381600087803b15801561857757600080fd5b505af115801561858b573d6000803e3d6000fd5b505050506040513d60208110156185a157600080fd5b8101908080519060200190929190505050618624576040517f08c379a000000000000000000000000000000000000000000000000000000000815260040180806020018281038252600f8152602001807f7472616e73666572206661696c6564000000000000000000000000000000000081525060200191505060405180910390fd5b5050565b3373ffffffffffffffffffffffffffffffffffffffff16601a600083815260200190815260200160002060060160009054906101000a900473ffffffffffffffffffffffffffffffffffffffff1673ffffffffffffffffffffffffffffffffffffffff16146186ff576040517f08c379a00000000000000000000000000000000000000000000000000000000081526004018080602001828103825260188152602001807f496e76616c696420636f6e74726163742061646472657373000000000000000081525060200191505060405180910390fd5b50565b600061872e6001601a60008681526020019081526020016000206001015461701b90919063ffffffff16565b905061874581601454616c3a90919063ffffffff16565b6014819055506001601a600085815260200190815260200160002060010181905550602454601a6000858152602001908152602001600020600b018190555061878e82826184ce565b600560009054906101000a900473ffffffffffffffffffffffffffffffffffffffff1673ffffffffffffffffffffffffffffffffffffffff1663b685b26a84836014546040518463ffffffff1660e01b8152600401808481526020018381526020018281526020019350505050600060405180830381600087803b15801561881557600080fd5b505af1158015618829573d6000803e3d6000fd5b50505050505050565b61885b81601a6000858152602001908152602001600020600a0154616c3a90919063ffffffff16565b601a6000848152602001908152602001600020600a01819055505050565b60008060006101000a81548160ff021916908315150217905550565b60008082116188a357600080fd5b60008284816188ae57fe5b0490508091505092915050565b600073ffffffffffffffffffffffffffffffffffffffff168173ffffffffffffffffffffffffffffffffffffffff1614156188f557600080fd5b8073ffffffffffffffffffffffffffffffffffffffff16600160009054906101000a900473ffffffffffffffffffffffffffffffffffffffff1673ffffffffffffffffffffffffffffffffffffffff167f8be0079c531659141344cd1fd0a4f28419497f9722a3daafe3b4186f6b6457e060405160405180910390a380600160006101000a81548173ffffffffffffffffffffffffffffffffffffffff021916908373ffffffffffffffffffffffffffffffffffffffff16021790555050565b60006040825114618a2e576040517f08c379a00000000000000000000000000000000000000000000000000000000081526004018080602001828103825260078152602001807f6e6f74207075620000000000000000000000000000000000000000000000000081525060200191505060405180910390fd5b6000828051906020012060001c9050600073ffffffffffffffffffffffffffffffffffffffff168173ffffffffffffffffffffffffffffffffffffffff1614158015618ab957506000601b60008373ffffffffffffffffffffffffffffffffffffffff1673ffffffffffffffffffffffffffffffffffffffff16815260200190815260200160002054145b618b2b576040517f08c379a000000000000000000000000000000000000000000000000000000000815260040180806020018281038252600e8152602001807f496e76616c6964207369676e657200000000000000000000000000000000000081525060200191505060405180910390fd5b80915050919050565b618b3d82618c3f565b618b46816191b3565b5050565b60016000806101000a81548160ff021916908315150217905550565b6000601a6000858152602001908152602001600020600b0154905082811015618c15576000601a60008681526020019081526020016000206000015490506000601a6000878152602001908152602001600020600a015490506000811115618bfc576000618bdd8284616c3a90919063ffffffff16565b9050618bf6878484618bf18b868c8b6195ac565b6195ef565b50618c12565b618c1186618c0c888589886195ac565b6196bc565b5b50505b80821115618c395781601a6000868152602001908152602001600020600b01819055505b50505050565b60006026805490509050600060266001830381548110618c5b57fe5b9060005260206000200160009054906101000a900473ffffffffffffffffffffffffffffffffffffffff16905060266001830381548110618c9857fe5b9060005260206000200160006101000a81549073ffffffffffffffffffffffffffffffffffffffff021916905560006001830390505b6000811115618db8578373ffffffffffffffffffffffffffffffffffffffff168273ffffffffffffffffffffffffffffffffffffffff161415618d1057618db8565b60266001820381548110618d2057fe5b9060005260206000200160009054906101000a900473ffffffffffffffffffffffffffffffffffffffff168260266001840381548110618d5c57fe5b9060005260206000200160008291906101000a81548173ffffffffffffffffffffffffffffffffffffffff021916908373ffffffffffffffffffffffffffffffffffffffff160217905550819350505080600190039050618cce565b5060018203602681618dca9190619834565b50505050565b600080831415618de35760009050618e04565b6000828402905082848281618df457fe5b0414618dff57600080fd5b809150505b92915050565b600080600e5490506000600b5490506000618e30838881618e2757fe5b0460295461970d565b9050600081118015618e4457506027548114155b15618e8a57600060275414618e825760006064602a54840281618e6357fe5b049050816027541115618e7a578083019250618e80565b80830392505b505b806027819055505b600083881115618f7d5760006028549050618f06618ee56064618ed7618ec88560028960018b030281618eb957fe5b04618dd090919063ffffffff16565b88618dd090919063ffffffff16565b61889590919063ffffffff16565b618ef88587618dd090919063ffffffff16565b61701b90919063ffffffff16565b9150618f2d618f1e8685618dd090919063ffffffff16565b8a61701b90919063ffffffff16565b9850618f79618f6a6064618f5c84618f4e888a618dd090919063ffffffff16565b618dd090919063ffffffff16565b61889590919063ffffffff16565b8561701b90919063ffffffff16565b9350505b618fb4618fa585618f97868c618dd090919063ffffffff16565b61889590919063ffffffff16565b82616c3a90919063ffffffff16565b9050618fdb86618fcd8984618dd090919063ffffffff16565b61889590919063ffffffff16565b9050809450505050509392505050565b6000602454905060008090505b838110156190295761901e85828151811061900f57fe5b60200260200101518385618b66565b806001019050618ff8565b5050505050565b60006009549050600061904d600183616c3a90919063ffffffff16565b9050619057619860565b601e600083815260200190815260200160002060405180604001604052908160008201548152602001600182015481525050905061909f816000015182602001516000616c59565b601e60008481526020019081526020016000206000808201600090556001820160009055505081600981905550505050565b60008060008314156190ef57600080819150809050915091506191aa565b6000619116846191088789618dd090919063ffffffff16565b61889590919063ffffffff16565b90506000601a600089815260200190815260200160002060070154905060008111156191895761918661917760646191698461915b878c61701b90919063ffffffff16565b618dd090919063ffffffff16565b61889590919063ffffffff16565b83616c3a90919063ffffffff16565b91505b600061919e838861701b90919063ffffffff16565b90508281945094505050505b94509492505050565b60268190806001815401808255809150509060018203906000526020600020016000909192909190916101000a81548173ffffffffffffffffffffffffffffffffffffffff021916908373ffffffffffffffffffffffffffffffffffffffff160217905550506000600160268054905003905060008190505b60008111156193115760006026600183038154811061924757fe5b9060005260206000200160009054906101000a900473ffffffffffffffffffffffffffffffffffffffff1690508373ffffffffffffffffffffffffffffffffffffffff168173ffffffffffffffffffffffffffffffffffffffff1610156192ae5750619311565b80602683815481106192bc57fe5b9060005260206000200160006101000a81548173ffffffffffffffffffffffffffffffffffffffff021916908373ffffffffffffffffffffffffffffffffffffffff160217905550508060019003905061922c565b81811461936f57826026828154811061932657fe5b9060005260206000200160006101000a81548173ffffffffffffffffffffffffffffffffffffffff021916908373ffffffffffffffffffffffffffffffffffffffff1602179055505b505050565b6000808260000151141561938b57600090506193bd565b60008083602001519050805160001a915060c060ff168260ff1610156193b6576000925050506193bd565b6001925050505b919050565b600080826000015114156193d9576000905061942e565b600080905060006193ed8460200151619433565b84602001510190506000846000015185602001510190505b8082101561942757619416826194bc565b820191508280600101935050619405565b8293505050505b919050565b600080825160001a9050608060ff168110156194535760009150506194b7565b60b860ff16811080619478575060c060ff168110158015619477575060f860ff1681105b5b156194875760019150506194b7565b60c060ff168110156194a75760018060b80360ff168203019150506194b7565b60018060f80360ff168203019150505b919050565b6000806000835160001a9050608060ff168110156194dd576001915061956a565b60b860ff168110156194fa576001608060ff168203019150619569565b60c060ff1681101561952a5760b78103600185019450806020036101000a85510460018201810193505050619568565b60f860ff1681101561954757600160c060ff168203019150619567565b60f78103600185019450806020036101000a855104600182018101935050505b5b5b5b8192505050919050565b60008060006195868460200151619433565b905060008185602001510190506000828660000151039050818194509450505050915091565b60008082840390506195e46a084595161401484a0000006195d68784618dd090919063ffffffff16565b61889590919063ffffffff16565b915050949350505050565b60006196048484616c3a90919063ffffffff16565b9050600080619615878786866190d1565b9150915060008111156196665761964b81601a60008a815260200190815260200160002060090154616c3a90919063ffffffff16565b601a6000898152602001908152602001600020600901819055505b60008211156196b35761969882601a60008a815260200190815260200160002060010154616c3a90919063ffffffff16565b601a6000898152602001908152602001600020600101819055505b50505050505050565b6000811115619709576196ee81601a600085815260200190815260200160002060010154616c3a90919063ffffffff16565b601a6000848152602001908152602001600020600101819055505b5050565b600081831061971c578161971e565b825b905092915050565b82805482825590600052602060002090810192821561979f579160200282015b8281111561979e5782518260006101000a81548173ffffffffffffffffffffffffffffffffffffffff021916908373ffffffffffffffffffffffffffffffffffffffff16021790555091602001919060010190619746565b5b5090506197ac919061987a565b5090565b6040518060a0016040528060008152602001600081526020016060815260200160608152602001600081525090565b60405180606001604052806000815260200160608152602001600081525090565b604051806040016040528060008152602001600081525090565b604051806040016040528060008152602001600081525090565b81548183558181111561985b5781836000526020600020918201910161985a91906198bd565b5b505050565b604051806040016040528060008152602001600081525090565b6198ba91905b808211156198b657600081816101000a81549073ffffffffffffffffffffffffffffffffffffffff021916905550600101619880565b5090565b90565b6198df91905b808211156198db5760008160009055506001016198c3565b5090565b9056fe4f6e6c7920676f7665726e616e636520636f6e747261637420697320617574686f72697a6564a265627a7a7231582018c00426334d1473d6dfff219c1fe761a2ea5e26945571009f0ada5d4d73fa3864736f6c63430005110032",
  "linkReferences": {
    "contracts/common/lib/Merkle.sol": {
      "Merkle": [
        {
          "length": 20,
          "start": 18003
        }
      ]
    }
  },
  "deployedLinkReferences": {
    "contracts/common/lib/Merkle.sol": {
      "Merkle": [
        {
          "length": 20,
          "start": 17682
        }
      ]
    }
  }
}