{
  "_format": "hh-sol-artifact-1",
  "contractName": "ERC721PlasmaMintable",
  "sourceName": "contracts/common/tokens/ERC721PlasmaMintable.sol",
  "abi": [
    {
      "inputs": [
        {
          "internalType": "string",
          "name": "name",
          "type": "string"
        },
        {
          "internalType": "string",
          "name": "symbol",
          "type": "string"
        }
      ],
      "payable": false,
      "stateMutability": "nonpayable",
      "type": "constructor"
    },
    {
      "anonymous": false,
      "inputs": [
        {
          "indexed": true,
          "internalType": "address",
          "name": "owner",
          "type": "address"
        },
        {
          "indexed": true,
          "internalType": "address",
          "name": "approved",
          "type": "address"
        },
        {
          "indexed": true,
          "internalType": "uint256",
          "name": "tokenId",
          "type": "uint256"
        }
      ],
      "name": "Approval",
      "type": "event"
    },
    {
      "anonymous": false,
      "inputs": [
        {
          "indexed": true,
          "internalType": "address",
          "name": "owner",
          "type": "address"
        },
        {
          "indexed": true,
          "internalType": "address",
          "name": "operator",
          "type": "address"
        },
        {
          "indexed": false,
          "internalType": "bool",
          "name": "approved",
          "type": "bool"
        }
      ],
      "name": "ApprovalForAll",
      "type": "event"
    },
    {
      "anonymous": false,
      "inputs": [
        {
          "indexed": true,
          "internalType": "address",
          "name": "account",
          "type": "address"
        }
      ],
      "name": "MinterAdded",
      "type": "event"
    },
    {
      "anonymous": false,
      "inputs": [
        {
          "indexed": true,
          "internalType": "address",
          "name": "account",
          "type": "address"
        }
      ],
      "name": "MinterRemoved",
      "type": "event"
    },
    {
      "anonymous": false,
      "inputs": [
        {
          "indexed": true,
          "internalType": "address",
          "name": "from",
          "type": "address"
        },
        {
          "indexed": true,
          "internalType": "address",
          "name": "to",
          "type": "address"
        },
        {
          "indexed": true,
          "internalType": "uint256",
          "name": "tokenId",
          "type": "uint256"
        }
      ],
      "name": "Transfer",
      "type": "event"
    },
    {
      "constant": false,
      "inputs": [
        {
          "internalType": "address",
          "name": "account",
          "type": "address"
        }
      ],
      "name": "addMinter",
      "outputs": [],
      "payable": false,
      "stateMutability": "nonpayable",
      "type": "function"
    },
    {
      "constant": false,
      "inputs": [
        {
          "internalType": "address",
          "name": "to",
          "type": "address"
        },
        {
          "internalType": "uint256",
          "name": "tokenId",
          "type": "uint256"
        }
      ],
      "name": "approve",
      "outputs": [],
      "payable": false,
      "stateMutability": "nonpayable",
      "type": "function"
    },
    {
      "constant": true,
      "inputs": [
        {
          "internalType": "address",
          "name": "owner",
          "type": "address"
        }
      ],
      "name": "balanceOf",
      "outputs": [
        {
          "internalType": "uint256",
          "name": "",
          "type": "uint256"
        }
      ],
      "payable": false,
      "stateMutability": "view",
      "type": "function"
    },
    {
      "constant": true,
      "inputs": [
        {
          "internalType": "uint256",
          "name": "tokenId",
          "type": "uint256"
        }
      ],
      "name": "exists",
      "outputs": [
        {
          "internalType": "bool",
          "name": "",
          "type": "bool"
        }
      ],
      "payable": false,
      "stateMutability": "view",
      "type": "function"
    },
    {
      "constant": true,
      "inputs": [
        {
          "internalType": "uint256",
          "name": "tokenId",
          "type": "uint256"
        }
      ],
      "name": "getApproved",
      "outputs": [
        {
          "internalType": "address",
          "name": "",
          "type": "address"
        }
      ],
      "payable": false,
      "stateMutability": "view",
      "type": "function"
    },
    {
      "constant": true,
      "inputs": [
        {
          "internalType": "address",
          "name": "owner",
          "type": "address"
        },
        {
          "internalType": "address",
          "name": "operator",
          "type": "address"
        }
      ],
      "name": "isApprovedForAll",
      "outputs": [
        {
          "internalType": "bool",
          "name": "",
          "type": "bool"
        }
      ],
      "payable": false,
      "stateMutability": "view",
      "type": "function"
    },
    {
      "constant": true,
      "inputs": [
        {
          "internalType": "address",
          "name": "account",
          "type": "address"
        }
      ],
      "name": "isMinter",
      "outputs": [
        {
          "internalType": "bool",
          "name": "",
          "type": "bool"
        }
      ],
      "payable": false,
      "stateMutability": "view",
      "type": "function"
    },
    {
      "constant": false,
      "inputs": [
        {
          "internalType": "address",
          "name": "to",
          "type": "address"
        },
        {
          "internalType": "uint256",
          "name": "tokenId",
          "type": "uint256"
        }
      ],
      "name": "mint",
      "outputs": [
        {
          "internalType": "bool",
          "name": "",
          "type": "bool"
        }
      ],
      "payable": false,
      "stateMutability": "nonpayable",
      "type": "function"
    },
    {
      "constant": false,
      "inputs": [
        {
          "internalType": "address",
          "name": "to",
          "type": "address"
        },
        {
          "internalType": "uint256",
          "name": "tokenId",
          "type": "uint256"
        },
        {
          "internalType": "string",
          "name": "tokenURI",
          "type": "string"
        }
      ],
      "name": "mintWithTokenURI",
      "outputs": [
        {
          "internalType": "bool",
          "name": "",
          "type": "bool"
        }
      ],
      "payable": false,
      "stateMutability": "nonpayable",
      "type": "function"
    },
    {
      "constant": true,
      "inputs": [],
      "name": "name",
      "outputs": [
        {
          "internalType": "string",
          "name": "",
          "type": "string"
        }
      ],
      "payable": false,
      "stateMutability": "view",
      "type": "function"
    },
    {
      "constant": true,
      "inputs": [
        {
          "internalType": "uint256",
          "name": "tokenId",
          "type": "uint256"
        }
      ],
      "name": "ownerOf",
      "outputs": [
        {
          "internalType": "address",
          "name": "",
          "type": "address"
        }
      ],
      "payable": false,
      "stateMutability": "view",
      "type": "function"
    },
    {
      "constant": false,
      "inputs": [],
      "name": "renounceMinter",
      "outputs": [],
      "payable": false,
      "stateMutability": "nonpayable",
      "type": "function"
    },
    {
      "constant": false,
      "inputs": [
        {
          "internalType": "address",
          "name": "from",
          "type": "address"
        },
        {
          "internalType": "address",
          "name": "to",
          "type": "address"
        },
        {
          "internalType": "uint256",
          "name": "tokenId",
          "type": "uint256"
        }
      ],
      "name": "safeTransferFrom",
      "outputs": [],
      "payable": false,
      "stateMutability": "nonpayable",
      "type": "function"
    },
    {
      "constant": false,
      "inputs": [
        {
          "internalType": "address",
          "name": "from",
          "type": "address"
        },
        {
          "internalType": "address",
          "name": "to",
          "type": "address"
        },
        {
          "internalType": "uint256",
          "name": "tokenId",
          "type": "uint256"
        },
        {
          "internalType": "bytes",
          "name": "_data",
          "type": "bytes"
        }
      ],
      "name": "safeTransferFrom",
      "outputs": [],
      "payable": false,
      "stateMutability": "nonpayable",
      "type": "function"
    },
    {
      "constant": false,
      "inputs": [
        {
          "internalType": "address",
          "name": "to",
          "type": "address"
        },
        {
          "internalType": "bool",
          "name": "approved",
          "type": "bool"
        }
      ],
      "name": "setApprovalForAll",
      "outputs": [],
      "payable": false,
      "stateMutability": "nonpayable",
      "type": "function"
    },
    {
      "constant": true,
      "inputs": [
        {
          "internalType": "bytes4",
          "name": "interfaceId",
          "type": "bytes4"
        }
      ],
      "name": "supportsInterface",
      "outputs": [
        {
          "internalType": "bool",
          "name": "",
          "type": "bool"
        }
      ],
      "payable": false,
      "stateMutability": "view",
      "type": "function"
    },
    {
      "constant": true,
      "inputs": [],
      "name": "symbol",
      "outputs": [
        {
          "internalType": "string",
          "name": "",
          "type": "string"
        }
      ],
      "payable": false,
      "stateMutability": "view",
      "type": "function"
    },
    {
      "constant": true,
      "inputs": [
        {
          "internalType": "uint256",
          "name": "tokenId",
          "type": "uint256"
        }
      ],
      "name": "tokenURI",
      "outputs": [
        {
          "internalType": "string",
          "name": "",
          "type": "string"
        }
      ],
      "payable": false,
      "stateMutability": "view",
      "type": "function"
    },
    {
      "constant": false,
      "inputs": [
        {
          "internalType": "address",
          "name": "from",
          "type": "address"
        },
        {
          "internalType": "address",
          "name": "to",
          "type": "address"
        },
        {
          "internalType": "uint256",
          "name": "tokenId",
          "type": "uint256"
        }
      ],
      "name": "transferFrom",
      "outputs": [],
      "payable": false,
      "stateMutability": "nonpayable",
      "type": "function"
    }
  ],
  "bytecode": "0x60806040523480156200001157600080fd5b50604051620021e6380380620021e6833981810160405260408110156200003757600080fd5b81019080805160405193929190846401000000008211156200005857600080fd5b838201915060208201858111156200006f57600080fd5b82518660018202830111640100000000821117156200008d57600080fd5b8083526020830192505050908051906020019080838360005b83811015620000c3578082015181840152602081019050620000a6565b50505050905090810190601f168015620000f15780820380516001836020036101000a031916815260200191505b50604052602001805160405193929190846401000000008211156200011557600080fd5b838201915060208201858111156200012c57600080fd5b82518660018202830111640100000000821117156200014a57600080fd5b8083526020830192505050908051906020019080838360005b838110156200018057808201518184015260208101905062000163565b50505050905090810190601f168015620001ae5780820380516001836020036101000a031916815260200191505b506040525050508181620001cf6301ffc9a760e01b6200024c60201b60201c565b620001e76380ac58cd60e01b6200024c60201b60201c565b8160059080519060200190620001ff92919062000496565b5080600690805190602001906200021892919062000496565b5062000231635b5e139f60e01b6200024c60201b60201c565b50506200024433620002ec60201b60201c565b505062000545565b63ffffffff60e01b817bffffffffffffffffffffffffffffffffffffffffffffffffffffffff191614156200028057600080fd5b6001600080837bffffffffffffffffffffffffffffffffffffffffffffffffffffffff19167bffffffffffffffffffffffffffffffffffffffffffffffffffffffff1916815260200190815260200160002060006101000a81548160ff02191690831515021790555050565b620003078160086200034d60201b62001a2d1790919060201c565b8073ffffffffffffffffffffffffffffffffffffffff167f6ae172837ea30b801fbfcdd4108aa1d5bf8ff775444fd70256b44e6bf3dfc3f660405160405180910390a250565b600073ffffffffffffffffffffffffffffffffffffffff168173ffffffffffffffffffffffffffffffffffffffff1614156200038857600080fd5b6200039a82826200040360201b60201c565b15620003a557600080fd5b60018260000160008373ffffffffffffffffffffffffffffffffffffffff1673ffffffffffffffffffffffffffffffffffffffff16815260200190815260200160002060006101000a81548160ff0219169083151502179055505050565b60008073ffffffffffffffffffffffffffffffffffffffff168273ffffffffffffffffffffffffffffffffffffffff1614156200043f57600080fd5b8260000160008373ffffffffffffffffffffffffffffffffffffffff1673ffffffffffffffffffffffffffffffffffffffff16815260200190815260200160002060009054906101000a900460ff16905092915050565b828054600181600116156101000203166002900490600052602060002090601f016020900481019282601f10620004d957805160ff19168380011785556200050a565b828001600101855582156200050a579182015b8281111562000509578251825591602001919060010190620004ec565b5b5090506200051991906200051d565b5090565b6200054291905b808211156200053e57600081600090555060010162000524565b5090565b90565b611c9180620005556000396000f3fe608060405234801561001057600080fd5b50600436106101215760003560e01c80636352211e116100ad578063a22cb46511610071578063a22cb465146106e6578063aa271e1a14610736578063b88d4fde14610792578063c87b56dd14610897578063e985e9c51461093e57610121565b80636352211e1461054f57806370a08231146105bd57806395d89b4114610615578063983b2d561461069857806398650275146106dc57610121565b806323b872dd116100f457806323b872dd146102ca57806340c10f191461033857806342842e0e1461039e5780634f558e791461040c57806350bb4e7f1461045257610121565b806301ffc9a71461012657806306fdde031461018b578063081812fc1461020e578063095ea7b31461027c575b600080fd5b6101716004803603602081101561013c57600080fd5b8101908080357bffffffffffffffffffffffffffffffffffffffffffffffffffffffff191690602001909291905050506109ba565b604051808215151515815260200191505060405180910390f35b610193610a21565b6040518080602001828103825283818151815260200191508051906020019080838360005b838110156101d35780820151818401526020810190506101b8565b50505050905090810190601f1680156102005780820380516001836020036101000a031916815260200191505b509250505060405180910390f35b61023a6004803603602081101561022457600080fd5b8101908080359060200190929190505050610ac3565b604051808273ffffffffffffffffffffffffffffffffffffffff1673ffffffffffffffffffffffffffffffffffffffff16815260200191505060405180910390f35b6102c86004803603604081101561029257600080fd5b81019080803573ffffffffffffffffffffffffffffffffffffffff16906020019092919080359060200190929190505050610b12565b005b610336600480360360608110156102e057600080fd5b81019080803573ffffffffffffffffffffffffffffffffffffffff169060200190929190803573ffffffffffffffffffffffffffffffffffffffff16906020019092919080359060200190929190505050610c53565b005b6103846004803603604081101561034e57600080fd5b81019080803573ffffffffffffffffffffffffffffffffffffffff16906020019092919080359060200190929190505050610c76565b604051808215151515815260200191505060405180910390f35b61040a600480360360608110156103b457600080fd5b81019080803573ffffffffffffffffffffffffffffffffffffffff169060200190929190803573ffffffffffffffffffffffffffffffffffffffff16906020019092919080359060200190929190505050610c9e565b005b6104386004803603602081101561042257600080fd5b8101908080359060200190929190505050610cbe565b604051808215151515815260200191505060405180910390f35b6105356004803603606081101561046857600080fd5b81019080803573ffffffffffffffffffffffffffffffffffffffff16906020019092919080359060200190929190803590602001906401000000008111156104af57600080fd5b8201836020820111156104c157600080fd5b803590602001918460018302840111640100000000831117156104e357600080fd5b91908080601f016020809104026020016040519081016040528093929190818152602001838380828437600081840152601f19601f820116905080830192505050505050509192919290505050610cd0565b604051808215151515815260200191505060405180910390f35b61057b6004803603602081101561056557600080fd5b8101908080359060200190929190505050610d03565b604051808273ffffffffffffffffffffffffffffffffffffffff1673ffffffffffffffffffffffffffffffffffffffff16815260200191505060405180910390f35b6105ff600480360360208110156105d357600080fd5b81019080803573ffffffffffffffffffffffffffffffffffffffff169060200190929190505050610d7f565b6040518082815260200191505060405180910390f35b61061d610e08565b6040518080602001828103825283818151815260200191508051906020019080838360005b8381101561065d578082015181840152602081019050610642565b50505050905090810190601f16801561068a5780820380516001836020036101000a031916815260200191505b509250505060405180910390f35b6106da600480360360208110156106ae57600080fd5b81019080803573ffffffffffffffffffffffffffffffffffffffff169060200190929190505050610eaa565b005b6106e4610ec8565b005b610734600480360360408110156106fc57600080fd5b81019080803573ffffffffffffffffffffffffffffffffffffffff169060200190929190803515159060200190929190505050610ed3565b005b6107786004803603602081101561074c57600080fd5b81019080803573ffffffffffffffffffffffffffffffffffffffff16906020019092919050505061100d565b604051808215151515815260200191505060405180910390f35b610895600480360360808110156107a857600080fd5b81019080803573ffffffffffffffffffffffffffffffffffffffff169060200190929190803573ffffffffffffffffffffffffffffffffffffffff169060200190929190803590602001909291908035906020019064010000000081111561080f57600080fd5b82018360208201111561082157600080fd5b8035906020019184600183028401116401000000008311171561084357600080fd5b91908080601f016020809104026020016040519081016040528093929190818152602001838380828437600081840152601f19601f82011690508083019250505050505050919291929050505061102a565b005b6108c3600480360360208110156108ad57600080fd5b8101908080359060200190929190505050611050565b6040518080602001828103825283818151815260200191508051906020019080838360005b838110156109035780820151818401526020810190506108e8565b50505050905090810190601f1680156109305780820380516001836020036101000a031916815260200191505b509250505060405180910390f35b6109a06004803603604081101561095457600080fd5b81019080803573ffffffffffffffffffffffffffffffffffffffff169060200190929190803573ffffffffffffffffffffffffffffffffffffffff169060200190929190505050611117565b604051808215151515815260200191505060405180910390f35b6000806000837bffffffffffffffffffffffffffffffffffffffffffffffffffffffff19167bffffffffffffffffffffffffffffffffffffffffffffffffffffffff1916815260200190815260200160002060009054906101000a900460ff169050919050565b606060058054600181600116156101000203166002900480601f016020809104026020016040519081016040528092919081815260200182805460018160011615610100020316600290048015610ab95780601f10610a8e57610100808354040283529160200191610ab9565b820191906000526020600020905b815481529060010190602001808311610a9c57829003601f168201915b5050505050905090565b6000610ace826111ab565b610ad757600080fd5b6002600083815260200190815260200160002060009054906101000a900473ffffffffffffffffffffffffffffffffffffffff169050919050565b6000610b1d82610d03565b90508073ffffffffffffffffffffffffffffffffffffffff168373ffffffffffffffffffffffffffffffffffffffff161415610b5857600080fd5b8073ffffffffffffffffffffffffffffffffffffffff163373ffffffffffffffffffffffffffffffffffffffff161480610b985750610b978133611117565b5b610ba157600080fd5b826002600084815260200190815260200160002060006101000a81548173ffffffffffffffffffffffffffffffffffffffff021916908373ffffffffffffffffffffffffffffffffffffffff160217905550818373ffffffffffffffffffffffffffffffffffffffff168273ffffffffffffffffffffffffffffffffffffffff167f8c5be1e5ebec7d5bd14f71427d1e84f3dd0314c0f7b2291e5b200ac8c7c3b92560405160405180910390a4505050565b610c5d338261121d565b610c6657600080fd5b610c718383836112b2565b505050565b6000610c813361100d565b610c8a57600080fd5b610c948383611475565b6001905092915050565b610cb98383836040518060200160405280600081525061102a565b505050565b6000610cc9826111ab565b9050919050565b6000610cdb3361100d565b610ce457600080fd5b610cee8484611475565b610cf883836115bb565b600190509392505050565b6000806001600084815260200190815260200160002060009054906101000a900473ffffffffffffffffffffffffffffffffffffffff169050600073ffffffffffffffffffffffffffffffffffffffff168173ffffffffffffffffffffffffffffffffffffffff161415610d7657600080fd5b80915050919050565b60008073ffffffffffffffffffffffffffffffffffffffff168273ffffffffffffffffffffffffffffffffffffffff161415610dba57600080fd5b610e01600360008473ffffffffffffffffffffffffffffffffffffffff1673ffffffffffffffffffffffffffffffffffffffff1681526020019081526020016000206115f9565b9050919050565b606060068054600181600116156101000203166002900480601f016020809104026020016040519081016040528092919081815260200182805460018160011615610100020316600290048015610ea05780601f10610e7557610100808354040283529160200191610ea0565b820191906000526020600020905b815481529060010190602001808311610e8357829003601f168201915b5050505050905090565b610eb33361100d565b610ebc57600080fd5b610ec581611607565b50565b610ed133611661565b565b3373ffffffffffffffffffffffffffffffffffffffff168273ffffffffffffffffffffffffffffffffffffffff161415610f0c57600080fd5b80600460003373ffffffffffffffffffffffffffffffffffffffff1673ffffffffffffffffffffffffffffffffffffffff16815260200190815260200160002060008473ffffffffffffffffffffffffffffffffffffffff1673ffffffffffffffffffffffffffffffffffffffff16815260200190815260200160002060006101000a81548160ff0219169083151502179055508173ffffffffffffffffffffffffffffffffffffffff163373ffffffffffffffffffffffffffffffffffffffff167f17307eab39ab6107e8899845ad3d59bd9653f200f220920489ca2b5937696c3183604051808215151515815260200191505060405180910390a35050565b60006110238260086116bb90919063ffffffff16565b9050919050565b611035848484610c53565b6110418484848461174d565b61104a57600080fd5b50505050565b606061105b826111ab565b61106457600080fd5b600760008381526020019081526020016000208054600181600116156101000203166002900480601f01602080910402602001604051908101604052809291908181526020018280546001816001161561010002031660029004801561110b5780601f106110e05761010080835404028352916020019161110b565b820191906000526020600020905b8154815290600101906020018083116110ee57829003601f168201915b50505050509050919050565b6000600460008473ffffffffffffffffffffffffffffffffffffffff1673ffffffffffffffffffffffffffffffffffffffff16815260200190815260200160002060008373ffffffffffffffffffffffffffffffffffffffff1673ffffffffffffffffffffffffffffffffffffffff16815260200190815260200160002060009054906101000a900460ff16905092915050565b6000806001600084815260200190815260200160002060009054906101000a900473ffffffffffffffffffffffffffffffffffffffff169050600073ffffffffffffffffffffffffffffffffffffffff168173ffffffffffffffffffffffffffffffffffffffff161415915050919050565b60008061122983610d03565b90508073ffffffffffffffffffffffffffffffffffffffff168473ffffffffffffffffffffffffffffffffffffffff16148061129857508373ffffffffffffffffffffffffffffffffffffffff1661128084610ac3565b73ffffffffffffffffffffffffffffffffffffffff16145b806112a957506112a88185611117565b5b91505092915050565b8273ffffffffffffffffffffffffffffffffffffffff166112d282610d03565b73ffffffffffffffffffffffffffffffffffffffff16146112f257600080fd5b600073ffffffffffffffffffffffffffffffffffffffff168273ffffffffffffffffffffffffffffffffffffffff16141561132c57600080fd5b61133581611936565b61137c600360008573ffffffffffffffffffffffffffffffffffffffff1673ffffffffffffffffffffffffffffffffffffffff1681526020019081526020016000206119f4565b6113c3600360008473ffffffffffffffffffffffffffffffffffffffff1673ffffffffffffffffffffffffffffffffffffffff168152602001908152602001600020611a17565b816001600083815260200190815260200160002060006101000a81548173ffffffffffffffffffffffffffffffffffffffff021916908373ffffffffffffffffffffffffffffffffffffffff160217905550808273ffffffffffffffffffffffffffffffffffffffff168473ffffffffffffffffffffffffffffffffffffffff167fddf252ad1be2c89b69c2b068fc378daa952ba7f163c4a11628f55a4df523b3ef60405160405180910390a4505050565b600073ffffffffffffffffffffffffffffffffffffffff168273ffffffffffffffffffffffffffffffffffffffff1614156114af57600080fd5b6114b8816111ab565b156114c257600080fd5b816001600083815260200190815260200160002060006101000a81548173ffffffffffffffffffffffffffffffffffffffff021916908373ffffffffffffffffffffffffffffffffffffffff16021790555061155b600360008473ffffffffffffffffffffffffffffffffffffffff1673ffffffffffffffffffffffffffffffffffffffff168152602001908152602001600020611a17565b808273ffffffffffffffffffffffffffffffffffffffff16600073ffffffffffffffffffffffffffffffffffffffff167fddf252ad1be2c89b69c2b068fc378daa952ba7f163c4a11628f55a4df523b3ef60405160405180910390a45050565b6115c4826111ab565b6115cd57600080fd5b806007600084815260200190815260200160002090805190602001906115f4929190611bb7565b505050565b600081600001549050919050565b61161b816008611a2d90919063ffffffff16565b8073ffffffffffffffffffffffffffffffffffffffff167f6ae172837ea30b801fbfcdd4108aa1d5bf8ff775444fd70256b44e6bf3dfc3f660405160405180910390a250565b611675816008611ad990919063ffffffff16565b8073ffffffffffffffffffffffffffffffffffffffff167fe94479a9f7e1952cc78f2d6baab678adc1b772d936c6583def489e524cb6669260405160405180910390a250565b60008073ffffffffffffffffffffffffffffffffffffffff168273ffffffffffffffffffffffffffffffffffffffff1614156116f657600080fd5b8260000160008373ffffffffffffffffffffffffffffffffffffffff1673ffffffffffffffffffffffffffffffffffffffff16815260200190815260200160002060009054906101000a900460ff16905092915050565b600061176e8473ffffffffffffffffffffffffffffffffffffffff16611b84565b61177b576001905061192e565b60008473ffffffffffffffffffffffffffffffffffffffff1663150b7a02338887876040518563ffffffff1660e01b8152600401808573ffffffffffffffffffffffffffffffffffffffff1673ffffffffffffffffffffffffffffffffffffffff1681526020018473ffffffffffffffffffffffffffffffffffffffff1673ffffffffffffffffffffffffffffffffffffffff16815260200183815260200180602001828103825283818151815260200191508051906020019080838360005b8381101561185657808201518184015260208101905061183b565b50505050905090810190601f1680156118835780820380516001836020036101000a031916815260200191505b5095505050505050602060405180830381600087803b1580156118a557600080fd5b505af11580156118b9573d6000803e3d6000fd5b505050506040513d60208110156118cf57600080fd5b8101908080519060200190929190505050905063150b7a0260e01b7bffffffffffffffffffffffffffffffffffffffffffffffffffffffff1916817bffffffffffffffffffffffffffffffffffffffffffffffffffffffff1916149150505b949350505050565b600073ffffffffffffffffffffffffffffffffffffffff166002600083815260200190815260200160002060009054906101000a900473ffffffffffffffffffffffffffffffffffffffff1673ffffffffffffffffffffffffffffffffffffffff16146119f15760006002600083815260200190815260200160002060006101000a81548173ffffffffffffffffffffffffffffffffffffffff021916908373ffffffffffffffffffffffffffffffffffffffff1602179055505b50565b611a0c60018260000154611b9790919063ffffffff16565b816000018190555050565b6001816000016000828254019250508190555050565b600073ffffffffffffffffffffffffffffffffffffffff168173ffffffffffffffffffffffffffffffffffffffff161415611a6757600080fd5b611a7182826116bb565b15611a7b57600080fd5b60018260000160008373ffffffffffffffffffffffffffffffffffffffff1673ffffffffffffffffffffffffffffffffffffffff16815260200190815260200160002060006101000a81548160ff0219169083151502179055505050565b600073ffffffffffffffffffffffffffffffffffffffff168173ffffffffffffffffffffffffffffffffffffffff161415611b1357600080fd5b611b1d82826116bb565b611b2657600080fd5b60008260000160008373ffffffffffffffffffffffffffffffffffffffff1673ffffffffffffffffffffffffffffffffffffffff16815260200190815260200160002060006101000a81548160ff0219169083151502179055505050565b600080823b905060008111915050919050565b600082821115611ba657600080fd5b600082840390508091505092915050565b828054600181600116156101000203166002900490600052602060002090601f016020900481019282601f10611bf857805160ff1916838001178555611c26565b82800160010185558215611c26579182015b82811115611c25578251825591602001919060010190611c0a565b5b509050611c339190611c37565b5090565b611c5991905b80821115611c55576000816000905550600101611c3d565b5090565b9056fea265627a7a723158208fbeff66c050441b3d3f62e7af50b641ea266b5c8a145d113bc948a599a1c4c264736f6c63430005110032",
  "linkReferences": {},
  "deployedLinkReferences": {}
}