{
  "_format": "hh-sol-artifact-1",
  "contractName": "TransferWithSigPredicate",
  "sourceName": "contracts/root/predicates/TransferWithSigPredicate.sol",
  "abi": [
    {
      "inputs": [
        {
          "internalType": "address",
          "name": "_rootChain",
          "type": "address"
        },
        {
          "internalType": "address",
          "name": "_withdrawManager",
          "type": "address"
        },
        {
          "internalType": "address",
          "name": "_registry",
          "type": "address"
        }
      ],
      "payable": false,
      "stateMutability": "nonpayable",
      "type": "constructor"
    },
    {
      "constant": true,
      "inputs": [],
      "name": "CHAINID",
      "outputs": [
        {
          "internalType": "uint256",
          "name": "",
          "type": "uint256"
        }
      ],
      "payable": false,
      "stateMutability": "view",
      "type": "function"
    },
    {
      "constant": true,
      "inputs": [],
      "name": "networkId",
      "outputs": [
        {
          "internalType": "bytes",
          "name": "",
          "type": "bytes"
        }
      ],
      "payable": false,
      "stateMutability": "view",
      "type": "function"
    },
    {
      "constant": false,
      "inputs": [
        {
          "internalType": "bytes",
          "name": "data",
          "type": "bytes"
        }
      ],
      "name": "onFinalizeExit",
      "outputs": [],
      "payable": false,
      "stateMutability": "nonpayable",
      "type": "function"
    },
    {
      "constant": true,
      "inputs": [],
      "name": "registry",
      "outputs": [
        {
          "internalType": "contract Registry",
          "name": "",
          "type": "address"
        }
      ],
      "payable": false,
      "stateMutability": "view",
      "type": "function"
    },
    {
      "constant": true,
      "inputs": [],
      "name": "rootChain",
      "outputs": [
        {
          "internalType": "contract IRootChain",
          "name": "",
          "type": "address"
        }
      ],
      "payable": false,
      "stateMutability": "view",
      "type": "function"
    },
    {
      "constant": false,
      "inputs": [
        {
          "internalType": "bytes",
          "name": "data",
          "type": "bytes"
        },
        {
          "internalType": "bytes",
          "name": "exitTx",
          "type": "bytes"
        }
      ],
      "name": "startExitForIncomingErc20Transfer",
      "outputs": [],
      "payable": true,
      "stateMutability": "payable",
      "type": "function"
    },
    {
      "constant": false,
      "inputs": [
        {
          "internalType": "bytes",
          "name": "data",
          "type": "bytes"
        },
        {
          "internalType": "bytes",
          "name": "exitTx",
          "type": "bytes"
        }
      ],
      "name": "startExitForOutgoingErc20Transfer",
      "outputs": [],
      "payable": true,
      "stateMutability": "payable",
      "type": "function"
    },
    {
      "constant": true,
      "inputs": [
        {
          "internalType": "bytes",
          "name": "exit",
          "type": "bytes"
        },
        {
          "internalType": "bytes",
          "name": "inputUtxo",
          "type": "bytes"
        },
        {
          "internalType": "bytes",
          "name": "challengeData",
          "type": "bytes"
        }
      ],
      "name": "verifyDeprecation",
      "outputs": [
        {
          "internalType": "bool",
          "name": "",
          "type": "bool"
        }
      ],
      "payable": false,
      "stateMutability": "view",
      "type": "function"
    }
  ],
  "bytecode": "0x608060405234801561001057600080fd5b50604051613b17380380613b178339818101604052606081101561003357600080fd5b81019080805190602001909291908051906020019092919080519060200190929190505050816000806101000a81548173ffffffffffffffffffffffffffffffffffffffff021916908373ffffffffffffffffffffffffffffffffffffffff16021790555082600360006101000a81548173ffffffffffffffffffffffffffffffffffffffff021916908373ffffffffffffffffffffffffffffffffffffffff16021790555080600260006101000a81548173ffffffffffffffffffffffffffffffffffffffff021916908373ffffffffffffffffffffffffffffffffffffffff1602179055505050506139eb8061012c6000396000f3fe60806040526004361061007b5760003560e01c80639025e64c1161004e5780639025e64c146102f9578063987ab9db14610389578063cc79f97b146103e0578063ec58410c1461040b5761007b565b8063378383b3146100805780633cccdaaf1461014e5780637b1039991461021c5780637bd94e0314610273575b600080fd5b61014c6004803603604081101561009657600080fd5b81019080803590602001906401000000008111156100b357600080fd5b8201836020820111156100c557600080fd5b803590602001918460018302840111640100000000831117156100e757600080fd5b90919293919293908035906020019064010000000081111561010857600080fd5b82018360208201111561011a57600080fd5b8035906020019184600183028401116401000000008311171561013c57600080fd5b9091929391929390505050610553565b005b61021a6004803603604081101561016457600080fd5b810190808035906020019064010000000081111561018157600080fd5b82018360208201111561019357600080fd5b803590602001918460018302840111640100000000831117156101b557600080fd5b9091929391929390803590602001906401000000008111156101d657600080fd5b8201836020820111156101e857600080fd5b8035906020019184600183028401116401000000008311171561020a57600080fd5b9091929391929390505050610ef8565b005b34801561022857600080fd5b5061023161162d565b604051808273ffffffffffffffffffffffffffffffffffffffff1673ffffffffffffffffffffffffffffffffffffffff16815260200191505060405180910390f35b34801561027f57600080fd5b506102f76004803603602081101561029657600080fd5b81019080803590602001906401000000008111156102b357600080fd5b8201836020820111156102c557600080fd5b803590602001918460018302840111640100000000831117156102e757600080fd5b9091929391929390505050611653565b005b34801561030557600080fd5b5061030e61186a565b6040518080602001828103825283818151815260200191508051906020019080838360005b8381101561034e578082015181840152602081019050610333565b50505050905090810190601f16801561037b5780820380516001836020036101000a031916815260200191505b509250505060405180910390f35b34801561039557600080fd5b5061039e6118a3565b604051808273ffffffffffffffffffffffffffffffffffffffff1673ffffffffffffffffffffffffffffffffffffffff16815260200191505060405180910390f35b3480156103ec57600080fd5b506103f56118c9565b6040518082815260200191505060405180910390f35b34801561041757600080fd5b506105396004803603606081101561042e57600080fd5b810190808035906020019064010000000081111561044b57600080fd5b82018360208201111561045d57600080fd5b8035906020019184600183028401116401000000008311171561047f57600080fd5b9091929391929390803590602001906401000000008111156104a057600080fd5b8201836020820111156104b257600080fd5b803590602001918460018302840111640100000000831117156104d457600080fd5b9091929391929390803590602001906401000000008111156104f557600080fd5b82018360208201111561050757600080fd5b8035906020019184600183028401116401000000008311171561052957600080fd5b90919293919293905050506118d0565b604051808215151515815260200191505060405180910390f35b67016345785d8a000034146105d0576040517f08c379a00000000000000000000000000000000000000000000000000000000081526004018080602001828103825260138152602001807f496e76616c696420426f6e6420616d6f756e740000000000000000000000000081525060200191505060405180910390fd5b606061062761062286868080601f016020809104026020016040519081016040528093929190818152602001838380828437600081840152601f19601f82011690508083019250505050505050611e5c565b611e8a565b905060606106488260008151811061063b57fe5b6020026020010151611f67565b90506106526135ea565b60006106a186868080601f016020809104026020016040519081016040528093929190818152602001838380828437600081840152601f19601f82011690508083019250505050505050611fe1565b91509150600360009054906101000a900473ffffffffffffffffffffffffffffffffffffffff1673ffffffffffffffffffffffffffffffffffffffff1663b87e1b666040518163ffffffff1660e01b815260040160206040518083038186803b15801561070d57600080fd5b505afa158015610721573d6000803e3d6000fd5b505050506040513d602081101561073757600080fd5b8101908080519060200190929190505050811161079f576040517f08c379a00000000000000000000000000000000000000000000000000000000081526004018080602001828103825260448152602001806137476044913960600191505060405180910390fd5b3373ffffffffffffffffffffffffffffffffffffffff16826060015173ffffffffffffffffffffffffffffffffffffffff161415610845576040517f08c379a000000000000000000000000000000000000000000000000000000000815260040180806020018281038252601e8152602001807f53686f756c6420626520616e20696e636f6d696e67207472616e73666572000081525060200191505060405180910390fd5b6000600260009054906101000a900473ffffffffffffffffffffffffffffffffffffffff1673ffffffffffffffffffffffffffffffffffffffff1663b68649766040518163ffffffff1660e01b815260040160206040518083038186803b1580156108af57600080fd5b505afa1580156108c3573d6000803e3d6000fd5b505050506040513d60208110156108d957600080fd5b810190808051906020019092919050505090506108f4613641565b6109078286866060015160016000612385565b9050806040015173ffffffffffffffffffffffffffffffffffffffff16846040015173ffffffffffffffffffffffffffffffffffffffff1614610995576040517f08c379a000000000000000000000000000000000000000000000000000000000815260040180806020018281038252603f815260200180613978603f913960400191505060405180910390fd5b8360000151816000015110156109f6576040517f08c379a00000000000000000000000000000000000000000000000000000000081526004018080602001828103825260288152602001806138586028913960400191505060405180910390fd5b6109fe613641565b600187511115610b5157610a2587600181518110610a1857fe5b6020026020010151611f67565b9550610a3683873360016000612385565b9050816040015173ffffffffffffffffffffffffffffffffffffffff16816040015173ffffffffffffffffffffffffffffffffffffffff1614610ac4576040517f08c379a000000000000000000000000000000000000000000000000000000000815260040180806020018281038252602f815260200180613829602f913960400191505060405180910390fd5b816060015173ffffffffffffffffffffffffffffffffffffffff16816060015173ffffffffffffffffffffffffffffffffffffffff1614610b50576040517f08c379a000000000000000000000000000000000000000000000000000000000815260040180806020018281038252602e815260200180613902602e913960400191505060405180910390fd5b5b610b596126e0565b60006001610b6f84602001518460200151612752565b901b90506000809054906101000a900473ffffffffffffffffffffffffffffffffffffffff1673ffffffffffffffffffffffffffffffffffffffff1663d931a8693385604001518660600151610bd687600001518c6000015161276c90919063ffffffff16565b8b602001516000886040518863ffffffff1660e01b8152600401808873ffffffffffffffffffffffffffffffffffffffff1673ffffffffffffffffffffffffffffffffffffffff1681526020018773ffffffffffffffffffffffffffffffffffffffff1673ffffffffffffffffffffffffffffffffffffffff1681526020018673ffffffffffffffffffffffffffffffffffffffff1673ffffffffffffffffffffffffffffffffffffffff16815260200185815260200184815260200183151515158152602001828152602001975050505050505050600060405180830381600087803b158015610cc657600080fd5b505af1158015610cda573d6000803e3d6000fd5b505050506000809054906101000a900473ffffffffffffffffffffffffffffffffffffffff1673ffffffffffffffffffffffffffffffffffffffff166322f192af828560200151896060015187606001516040518563ffffffff1660e01b8152600401808581526020018481526020018373ffffffffffffffffffffffffffffffffffffffff1673ffffffffffffffffffffffffffffffffffffffff1681526020018273ffffffffffffffffffffffffffffffffffffffff1673ffffffffffffffffffffffffffffffffffffffff168152602001945050505050600060405180830381600087803b158015610dce57600080fd5b505af1158015610de2573d6000803e3d6000fd5b505050506000809054906101000a900473ffffffffffffffffffffffffffffffffffffffff1673ffffffffffffffffffffffffffffffffffffffff166322f192af8284602001513387606001516040518563ffffffff1660e01b8152600401808581526020018481526020018373ffffffffffffffffffffffffffffffffffffffff1673ffffffffffffffffffffffffffffffffffffffff1681526020018273ffffffffffffffffffffffffffffffffffffffff1673ffffffffffffffffffffffffffffffffffffffff168152602001945050505050600060405180830381600087803b158015610ed257600080fd5b505af1158015610ee6573d6000803e3d6000fd5b50505050505050505050505050505050565b67016345785d8a00003414610f75576040517f08c379a00000000000000000000000000000000000000000000000000000000081526004018080602001828103825260138152602001807f496e76616c696420426f6e6420616d6f756e740000000000000000000000000081525060200191505060405180910390fd5b6060610fcc610fc786868080601f016020809104026020016040519081016040528093929190818152602001838380828437600081840152601f19601f82011690508083019250505050505050611e5c565b611e8a565b90506060610fed82600081518110610fe057fe5b6020026020010151611f67565b9050610ff76135ea565b600061104686868080601f016020809104026020016040519081016040528093929190818152602001838380828437600081840152601f19601f82011690508083019250505050505050611fe1565b91509150600360009054906101000a900473ffffffffffffffffffffffffffffffffffffffff1673ffffffffffffffffffffffffffffffffffffffff1663b87e1b666040518163ffffffff1660e01b815260040160206040518083038186803b1580156110b257600080fd5b505afa1580156110c6573d6000803e3d6000fd5b505050506040513d60208110156110dc57600080fd5b81019080805190602001909291905050508111611144576040517f08c379a00000000000000000000000000000000000000000000000000000000081526004018080602001828103825260448152602001806137476044913960600191505060405180910390fd5b3373ffffffffffffffffffffffffffffffffffffffff16826060015173ffffffffffffffffffffffffffffffffffffffff16146111e9576040517f08c379a000000000000000000000000000000000000000000000000000000000815260040180806020018281038252601e8152602001807f53686f756c6420626520616e206f7574676f696e67207472616e73666572000081525060200191505060405180910390fd5b6000600260009054906101000a900473ffffffffffffffffffffffffffffffffffffffff1673ffffffffffffffffffffffffffffffffffffffff1663b68649766040518163ffffffff1660e01b815260040160206040518083038186803b15801561125357600080fd5b505afa158015611267573d6000803e3d6000fd5b505050506040513d602081101561127d57600080fd5b81019080805190602001909291905050509050611298613641565b6112a782863360016000612385565b9050806040015173ffffffffffffffffffffffffffffffffffffffff16846040015173ffffffffffffffffffffffffffffffffffffffff1614611335576040517f08c379a000000000000000000000000000000000000000000000000000000000815260040180806020018281038252603f815260200180613978603f913960400191505060405180910390fd5b836000015181600001511015611396576040517f08c379a00000000000000000000000000000000000000000000000000000000081526004018080602001828103825260288152602001806138586028913960400191505060405180910390fd5b61139e6126e0565b600060018260200151901b90506001811790506000809054906101000a900473ffffffffffffffffffffffffffffffffffffffff1673ffffffffffffffffffffffffffffffffffffffff1663d931a86933846040015185606001516114148a60000151886000015161278b90919063ffffffff16565b8a602001516000886040518863ffffffff1660e01b8152600401808873ffffffffffffffffffffffffffffffffffffffff1673ffffffffffffffffffffffffffffffffffffffff1681526020018773ffffffffffffffffffffffffffffffffffffffff1673ffffffffffffffffffffffffffffffffffffffff1681526020018673ffffffffffffffffffffffffffffffffffffffff1673ffffffffffffffffffffffffffffffffffffffff16815260200185815260200184815260200183151515158152602001828152602001975050505050505050600060405180830381600087803b15801561150457600080fd5b505af1158015611518573d6000803e3d6000fd5b505050506000809054906101000a900473ffffffffffffffffffffffffffffffffffffffff1673ffffffffffffffffffffffffffffffffffffffff166322f192af8284602001513386606001516040518563ffffffff1660e01b8152600401808581526020018481526020018373ffffffffffffffffffffffffffffffffffffffff1673ffffffffffffffffffffffffffffffffffffffff1681526020018273ffffffffffffffffffffffffffffffffffffffff1673ffffffffffffffffffffffffffffffffffffffff168152602001945050505050600060405180830381600087803b15801561160857600080fd5b505af115801561161c573d6000803e3d6000fd5b505050505050505050505050505050565b600260009054906101000a900473ffffffffffffffffffffffffffffffffffffffff1681565b6000809054906101000a900473ffffffffffffffffffffffffffffffffffffffff1673ffffffffffffffffffffffffffffffffffffffff163373ffffffffffffffffffffffffffffffffffffffff1614611715576040517f08c379a00000000000000000000000000000000000000000000000000000000081526004018080602001828103825260158152602001807f4f4e4c595f57495448445241575f4d414e41474552000000000000000000000081525060200191505060405180910390fd5b600080600061176785858080601f016020809104026020016040519081016040528093929190818152602001838380828437600081840152601f19601f820116905080830192505050505050506127ab565b93509350935050600160009054906101000a900473ffffffffffffffffffffffffffffffffffffffff1673ffffffffffffffffffffffffffffffffffffffff166349f4cc178484846040518463ffffffff1660e01b8152600401808473ffffffffffffffffffffffffffffffffffffffff1673ffffffffffffffffffffffffffffffffffffffff1681526020018373ffffffffffffffffffffffffffffffffffffffff1673ffffffffffffffffffffffffffffffffffffffff1681526020018281526020019350505050600060405180830381600087803b15801561184b57600080fd5b505af115801561185f573d6000803e3d6000fd5b505050505050505050565b6040518060400160405280600381526020017f013881000000000000000000000000000000000000000000000000000000000081525081565b600360009054906101000a900473ffffffffffffffffffffffffffffffffffffffff1681565b6201388181565b60006118da613695565b61192788888080601f016020809104026020016040519081016040528093929190818152602001838380828437600081840152601f19601f82011690508083019250505050505050612812565b905060008060008061197c8a8a8080601f016020809104026020016040519081016040528093929190818152602001838380828437600081840152601f19601f820116905080830192505050505050506128f8565b935093509350935060606119db6119d68a8a8080601f016020809104026020016040519081016040528093929190818152602001838380828437600081840152601f19601f82011690508083019250505050505050611e5c565b611e8a565b90506119e56135ea565b6000611a0c611a0784600a815181106119fa57fe5b6020026020010151611f67565b611fe1565b915091508573ffffffffffffffffffffffffffffffffffffffff16826060015173ffffffffffffffffffffffffffffffffffffffff1614611a98576040517f08c379a000000000000000000000000000000000000000000000000000000000815260040180806020018281038252602781526020018061378b6027913960400191505060405180910390fd5b611aa0613641565b611af2868d8d8080601f016020809104026020016040519081016040528093929190818152602001838380828437600081840152601f19601f8201169050808301925050505050505089600180612385565b905060026003811115611b0157fe5b600260009054906101000a900473ffffffffffffffffffffffffffffffffffffffff1673ffffffffffffffffffffffffffffffffffffffff166337b1d585886040518263ffffffff1660e01b8152600401808273ffffffffffffffffffffffffffffffffffffffff1673ffffffffffffffffffffffffffffffffffffffff16815260200191505060206040518083038186803b158015611ba057600080fd5b505afa158015611bb4573d6000803e3d6000fd5b505050506040513d6020811015611bca57600080fd5b81019080805190602001909291905050506003811115611be657fe5b1415611c605788600001518160000151148015611c0a575088600001518360000151145b611c5f576040517f08c379a00000000000000000000000000000000000000000000000000000000081526004018080602001828103825260488152602001806139306048913960600191505060405180910390fd5b5b81611c6e8260200151612962565b1115611cc5576040517f08c379a00000000000000000000000000000000000000000000000000000000081526004018080602001828103825260368152602001806138806036913960400191505060405180910390fd5b8473ffffffffffffffffffffffffffffffffffffffff16816040015173ffffffffffffffffffffffffffffffffffffffff16148015611d3357508473ffffffffffffffffffffffffffffffffffffffff16836040015173ffffffffffffffffffffffffffffffffffffffff16145b611d88576040517f08c379a000000000000000000000000000000000000000000000000000000000815260040180806020018281038252604c8152602001806138b6604c913960600191505060405180910390fd5b886020015183602001511415611de9576040517f08c379a00000000000000000000000000000000000000000000000000000000081526004018080602001828103825260218152602001806138086021913960400191505060405180910390fd5b87816020015111611e45576040517f08c379a00000000000000000000000000000000000000000000000000000000081526004018080602001828103825260568152602001806137b26056913960600191505060405180910390fd5b600199505050505050505050509695505050505050565b611e64613712565b600060208301905060405180604001604052808451815260200182815250915050919050565b6060611e9582612974565b611e9e57600080fd5b6000611ea9836129c2565b9050606081604051908082528060200260200182016040528015611ee757816020015b611ed461372c565b815260200190600190039081611ecc5790505b5090506000611ef98560200151612a33565b8560200151019050600080600090505b84811015611f5a57611f1a83612abc565b9150604051806040016040528083815260200184815250848281518110611f3d57fe5b602002602001018190525081830192508080600101915050611f09565b5082945050505050919050565b60606000826000015111611f7a57600080fd5b600080611f8684612b74565b915091506060816040519080825280601f01601f191660200182016040528015611fbf5781602001600182028038833980820191505090505b5090506000816020019050611fd5848285612bac565b81945050505050919050565b611fe96135ea565b60006060611ffe611ff985611e5c565b611e8a565b90506009815114612077576040517f08c379a000000000000000000000000000000000000000000000000000000000815260040180806020018281038252600c8152602001807f4d414c464f524d45445f5458000000000000000000000000000000000000000081525060200191505060405180910390fd5b6120948160038151811061208757fe5b6020026020010151612c1d565b836040019073ffffffffffffffffffffffffffffffffffffffff16908173ffffffffffffffffffffffffffffffffffffffff168152505060006120d682612c40565b856020018181525081925050506060612102836005815181106120f557fe5b6020026020010151611f67565b9050600061211b612116836000600461306f565b6130fb565b90506319d27d9c60e01b7bffffffffffffffffffffffffffffffffffffffffffffffffffffffff1916817bffffffffffffffffffffffffffffffffffffffffffffffffffffffff1916146121d7576040517f08c379a000000000000000000000000000000000000000000000000000000000815260040180806020018281038252601f8152602001807f4e6f74207472616e7366657257697468536967207472616e73616374696f6e0081525060200191505060405180910390fd5b6121e2826024613109565b86600001818152505060006121f8836044613109565b60001b9050612208836064613109565b955060006122178460a4613109565b905060606122278560c48461306f565b9050600073__$1589bce7f5321952abb8f3fc1f5105d4b4$__63250e38bf8b60400151898d60000151888e6040518663ffffffff1660e01b8152600401808673ffffffffffffffffffffffffffffffffffffffff1673ffffffffffffffffffffffffffffffffffffffff1681526020018573ffffffffffffffffffffffffffffffffffffffff1673ffffffffffffffffffffffffffffffffffffffff1681526020018481526020018381526020018281526020019550505050505060206040518083038186803b1580156122fa57600080fd5b505af415801561230e573d6000803e3d6000fd5b505050506040513d602081101561232457600080fd5b810190808051906020019092919050505090506123418183613131565b8a6060019073ffffffffffffffffffffffffffffffffffffffff16908173ffffffffffffffffffffffffffffffffffffffff16815250505050505050505050915091565b61238d613641565b60608673ffffffffffffffffffffffffffffffffffffffff166382e3464c8787878760405160200180806020018573ffffffffffffffffffffffffffffffffffffffff1673ffffffffffffffffffffffffffffffffffffffff1681526020018415151515815260200183151515158152602001828103825286818151815260200191508051906020019080838360005b8381101561243857808201518184015260208101905061241d565b50505050905090810190601f1680156124655780820380516001836020036101000a031916815260200191505b50955050505050506040516020818303038152906040526040518263ffffffff1660e01b81526004018080602001828103825283818151815260200191508051906020019080838360005b838110156124cb5780820151818401526020810190506124b0565b50505050905090810190601f1680156124f85780820380516001836020036101000a031916815260200191505b509250505060006040518083038186803b15801561251557600080fd5b505afa158015612529573d6000803e3d6000fd5b505050506040513d6000823e3d601f19601f82011682018060405250602081101561255357600080fd5b810190808051604051939291908464010000000082111561257357600080fd5b8382019150602082018581111561258957600080fd5b82518660018202830111640100000000821117156125a657600080fd5b8083526020830192505050908051906020019080838360005b838110156125da5780820151818401526020810190506125bf565b50505050905090810190601f1680156126075780820380516001836020036101000a031916815260200191505b50604052505050905080806020019051608081101561262557600080fd5b8101908080519060200190929190805190602001909291908051906020019092919080519060200190929190505050819150809050856000018660200187604001886060018473ffffffffffffffffffffffffffffffffffffffff1673ffffffffffffffffffffffffffffffffffffffff168152508473ffffffffffffffffffffffffffffffffffffffff1673ffffffffffffffffffffffffffffffffffffffff168152508481525084815250505050505095945050505050565b6000809054906101000a900473ffffffffffffffffffffffffffffffffffffffff1673ffffffffffffffffffffffffffffffffffffffff166108fc67016345785d8a00009081150290604051600060405180830381858888f1935050505015801561274f573d6000803e3d6000fd5b50565b6000818310156127625781612764565b825b905092915050565b60008082840190508381101561278157600080fd5b8091505092915050565b60008282111561279a57600080fd5b600082840390508091505092915050565b6000806000808480602001905160808110156127c657600080fd5b8101908080519060200190929190805190602001909291908051906020019092919080519060200190929190505050829250819150809450819550829650839750505050509193509193565b61281a613695565b60008060008060008680602001905160a081101561283757600080fd5b810190808051906020019092919080519060200190929190805190602001909291908051906020019092919080519060200190929190505050945094509450945094506040518060c001604052808481526020018381526020018673ffffffffffffffffffffffffffffffffffffffff1681526020018573ffffffffffffffffffffffffffffffffffffffff1681526020018215158152602001600073ffffffffffffffffffffffffffffffffffffffff1681525095505050505050919050565b60008060008084806020019051608081101561291357600080fd5b8101908080519060200190929190805190602001909291908051906020019092919080519060200190929190505050829250819150809050809450819550829650839750505050509193509193565b600060a1608183901b901c9050919050565b6000808260000151141561298b57600090506129bd565b60008083602001519050805160001a915060c060ff168260ff1610156129b6576000925050506129bd565b6001925050505b919050565b600080826000015114156129d95760009050612a2e565b600080905060006129ed8460200151612a33565b84602001510190506000846000015185602001510190505b80821015612a2757612a1682612abc565b820191508280600101935050612a05565b8293505050505b919050565b600080825160001a9050608060ff16811015612a53576000915050612ab7565b60b860ff16811080612a78575060c060ff168110158015612a77575060f860ff1681105b5b15612a87576001915050612ab7565b60c060ff16811015612aa75760018060b80360ff16820301915050612ab7565b60018060f80360ff168203019150505b919050565b6000806000835160001a9050608060ff16811015612add5760019150612b6a565b60b860ff16811015612afa576001608060ff168203019150612b69565b60c060ff16811015612b2a5760b78103600185019450806020036101000a85510460018201810193505050612b68565b60f860ff16811015612b4757600160c060ff168203019150612b67565b60f78103600185019450806020036101000a855104600182018101935050505b5b5b5b8192505050919050565b6000806000612b868460200151612a33565b905060008185602001510190506000828660000151039050818194509450505050915091565b6000811415612bba57612c18565b5b602060ff168110612bea5782518252602060ff1683019250602060ff1682019150602060ff1681039050612bbb565b6000811115612c17576000600182602060ff16036101000a03905080198451168184511681811785525050505b5b505050565b60006015826000015114612c3057600080fd5b612c3982613253565b9050919050565b60008060606009604051908082528060200260200182016040528015612c7a57816020015b6060815260200190600190039081612c655790505b50905060008090505b60058160ff1611612cd457612cad858260ff1681518110612ca057fe5b6020026020010151611f67565b828260ff1681518110612cbc57fe5b60200260200101819052508080600101915050612c83565b506040518060400160405280600381526020017f013881000000000000000000000000000000000000000000000000000000000081525081600681518110612d1857fe5b60200260200101819052506040518060200160405280600081525081600781518110612d4057fe5b60200260200101819052506040518060200160405280600081525081600881518110612d6857fe5b6020026020010181905250612d7c816132ad565b80519060200120915060018273__$d57268b4e4abe976846916e1669260f8d8$__63b40b539b612dbf88600681518110612db257fe5b6020026020010151611f67565b73__$d57268b4e4abe976846916e1669260f8d8$__634d66a2ae6040518060400160405280600381526020017f01388100000000000000000000000000000000000000000000000000000000008152506040518263ffffffff1660e01b81526004018080602001828103825283818151815260200191508051906020019080838360005b83811015612e5e578082015181840152602081019050612e43565b50505050905090810190601f168015612e8b5780820380516001836020036101000a031916815260200191505b509250505060206040518083038186803b158015612ea857600080fd5b505af4158015612ebc573d6000803e3d6000fd5b505050506040513d6020811015612ed257600080fd5b81019080805190602001909291905050506040518363ffffffff1660e01b815260040180806020018361ffff1661ffff168152602001828103825284818151815260200191508051906020019080838360005b83811015612f40578082015181840152602081019050612f25565b50505050905090810190601f168015612f6d5780820380516001836020036101000a031916815260200191505b50935050505060206040518083038186803b158015612f8b57600080fd5b505af4158015612f9f573d6000803e3d6000fd5b505050506040513d6020811015612fb557600080fd5b8101908080519060200190929190505050612fe387600781518110612fd657fe5b6020026020010151613253565b60001b61300388600881518110612ff657fe5b6020026020010151613253565b60001b60405160008152602001604052604051808581526020018460ff1660ff1681526020018381526020018281526020019450505050506020604051602081039080840390855afa15801561305d573d6000803e3d6000fd5b50505060206040510351925050915091565b60608183018451101561308157600080fd5b606082156000811461309e576040519150602082016040526130ef565b6040519150601f8416801560200281840101858101878315602002848b0101015b818310156130dc57805183526020830192506020810190506130bf565b50868552601f19601f8301166040525050505b50809150509392505050565b600060208201519050919050565b6000602082018351101561311c57600080fd5b60008260208501015190508091505092915050565b600080600080604185511461314c576000935050505061324d565b602085015192506040850151915060ff6041860151169050601b8160ff16101561317757601b810190505b601b8160ff161415801561318f5750601c8160ff1614155b156131a0576000935050505061324d565b600060018783868660405160008152602001604052604051808581526020018460ff1660ff1681526020018381526020018281526020019450505050506020604051602081039080840390855afa1580156131ff573d6000803e3d6000fd5b505050602060405103519050600073ffffffffffffffffffffffffffffffffffffffff168173ffffffffffffffffffffffffffffffffffffffff16141561324557600080fd5b809450505050505b92915050565b600080826000015111801561326d57506021826000015111155b61327657600080fd5b60008061328284612b74565b9150915060008251905060208210156132a257816020036101000a810490505b809350505050919050565b60608060008090505b83518110156132f3576132e4826132df8684815181106132d257fe5b6020026020010151613311565b6133ad565b915080806001019150506132b6565b50613309613303825160c0613437565b826133ad565b915050919050565b606080600183511480156133485750608060ff60f81b8460008151811061333457fe5b602001015160f81c60f81b1660f81c60ff16105b1561338c5760016040519080825280601f01601f1916602001820160405280156133815781602001600182028038833980820191505090505b5090508290506133a4565b6133a161339b84516080613437565b846133ad565b90505b80915050919050565b6060806040519050835180825260208201818101602087015b818310156133e357805183526020830192506020810190506133c6565b50855192508351830184528091508282019050602086015b8183101561341857805183526020830192506020810190506133fb565b50601f19601f8851850115830101166040525050508091505092915050565b606060388310156134c657606060016040519080825280601f01601f1916602001820160405280156134785781602001600182028038833980820191505090505b50905082840160f81b8160008151811061348e57fe5b60200101907effffffffffffffffffffffffffffffffffffffffffffffffffffffffffffff1916908160001a90535080915050613523565b600080600190505b60008186816134d957fe5b04146134f3578180600101925050610100810290506134ce565b6060613503836037870101613529565b9050606061351087613529565b905061351c82826133ad565b9450505050505b92915050565b606060006001905060ff83111561353f57600290505b806040519080825280601f01601f1916602001820160405280156135725781602001600182028038833980820191505090505b50915060008090505b818110156135e35780600183030360080260020a848161359757fe5b0460f81b8382815181106135a757fe5b60200101907effffffffffffffffffffffffffffffffffffffffffffffffffffffffffffff1916908160001a905350808060010191505061357b565b5050919050565b60405180608001604052806000815260200160008019168152602001600073ffffffffffffffffffffffffffffffffffffffff168152602001600073ffffffffffffffffffffffffffffffffffffffff1681525090565b60405180608001604052806000815260200160008152602001600073ffffffffffffffffffffffffffffffffffffffff168152602001600073ffffffffffffffffffffffffffffffffffffffff1681525090565b6040518060c001604052806000815260200160008019168152602001600073ffffffffffffffffffffffffffffffffffffffff168152602001600073ffffffffffffffffffffffffffffffffffffffff168152602001600015158152602001600073ffffffffffffffffffffffffffffffffffffffff1681525090565b604051806040016040528060008152602001600081525090565b60405180604001604052806000815260200160008152509056fe54686520696e666c696768742065786974206973206e6f742076616c69642c206265636175736520746865207472616e73666572207369672068617320657870697265647574786f4f776e6572206973206e6f74207472616e7366657257697468536967207369676e6572416765206f66206368616c6c656e6765206c6f6720696e207468652072656365697074206e6565647320746f206265206d6f726520726563656e74207468616e205574786f206265696e67206368616c6c656e67656443616e6e6f74206368616c6c656e676520776974682074686520657869742074786368696c6420746f6b656e7320696e20746865207265666572656e6365642074787320646f206e6f74206d6174636845786974696e672077697468206d6f726520746f6b656e73207468616e207265666572656e636564546865207472616e7366657257697468536967206f726465722065787069726564207768656e2069742077617320696e636c756465644c6f675472616e73666572526563656970742c206368616c6c656e6765547820746f6b656e20616e64206368616c6c656e676564207574786f20746f6b656e20646f206e6f74206d61746368726f6f7420746f6b656e7320696e20746865207265666572656e6365642074787320646f206e6f74206d617463684c6f675472616e73666572526563656970742c206368616c6c656e67655478204e465420616e64206368616c6c656e676564207574786f204e465420646f206e6f74206d617463685265666572656e636520616e64206578697420747820646f206e6f7420636f72726573706f6e6420746f207468652073616d65206368696c6420746f6b656ea265627a7a723158208d15143d89d088782b4cf0e8b9f20dab3fa9083cb342373313be3ca744cbbb2664736f6c63430005110032",
  "linkReferences": {
    "contracts/common/lib/Common.sol": {
      "Common": [
        {
          "length": 20,
          "start": 11958
        },
        {
          "length": 20,
          "start": 12013
        }
      ]
    },
    "contracts/root/predicates/TransferWithSigUtils.sol": {
      "TransferWithSigUtils": [
        {
          "length": 20,
          "start": 9049
        }
      ]
    }
  },
  "deployedLinkReferences": {
    "contracts/common/lib/Common.sol": {
      "Common": [
        {
          "length": 20,
          "start": 11658
        },
        {
          "length": 20,
          "start": 11713
        }
      ]
    },
    "contracts/root/predicates/TransferWithSigUtils.sol": {
      "TransferWithSigUtils": [
        {
          "length": 20,
          "start": 8749
        }
      ]
    }
  }
}