{
  "_format": "hh-sol-artifact-1",
  "contractName": "ValidatorShare",
  "sourceName": "contracts/staking/validatorShare/ValidatorShare.sol",
  "abi": [
    {
      "anonymous": false,
      "inputs": [
        {
          "indexed": true,
          "internalType": "address",
          "name": "owner",
          "type": "address"
        },
        {
          "indexed": true,
          "internalType": "address",
          "name": "spender",
          "type": "address"
        },
        {
          "indexed": false,
          "internalType": "uint256",
          "name": "value",
          "type": "uint256"
        }
      ],
      "name": "Approval",
      "type": "event"
    },
    {
      "anonymous": false,
      "inputs": [
        {
          "indexed": true,
          "internalType": "address",
          "name": "previousOwner",
          "type": "address"
        },
        {
          "indexed": true,
          "internalType": "address",
          "name": "newOwner",
          "type": "address"
        }
      ],
      "name": "OwnershipTransferred",
      "type": "event"
    },
    {
      "anonymous": false,
      "inputs": [
        {
          "indexed": true,
          "internalType": "address",
          "name": "from",
          "type": "address"
        },
        {
          "indexed": true,
          "internalType": "address",
          "name": "to",
          "type": "address"
        },
        {
          "indexed": false,
          "internalType": "uint256",
          "name": "value",
          "type": "uint256"
        }
      ],
      "name": "Transfer",
      "type": "event"
    },
    {
      "constant": true,
      "inputs": [],
      "name": "activeAmount",
      "outputs": [
        {
          "internalType": "uint256",
          "name": "",
          "type": "uint256"
        }
      ],
      "payable": false,
      "stateMutability": "view",
      "type": "function"
    },
    {
      "constant": true,
      "inputs": [
        {
          "internalType": "address",
          "name": "owner",
          "type": "address"
        },
        {
          "internalType": "address",
          "name": "spender",
          "type": "address"
        }
      ],
      "name": "allowance",
      "outputs": [
        {
          "internalType": "uint256",
          "name": "",
          "type": "uint256"
        }
      ],
      "payable": false,
      "stateMutability": "view",
      "type": "function"
    },
    {
      "constant": false,
      "inputs": [
        {
          "internalType": "address",
          "name": "spender",
          "type": "address"
        },
        {
          "internalType": "uint256",
          "name": "value",
          "type": "uint256"
        }
      ],
      "name": "approve",
      "outputs": [
        {
          "internalType": "bool",
          "name": "",
          "type": "bool"
        }
      ],
      "payable": false,
      "stateMutability": "nonpayable",
      "type": "function"
    },
    {
      "constant": true,
      "inputs": [
        {
          "internalType": "address",
          "name": "owner",
          "type": "address"
        }
      ],
      "name": "balanceOf",
      "outputs": [
        {
          "internalType": "uint256",
          "name": "",
          "type": "uint256"
        }
      ],
      "payable": false,
      "stateMutability": "view",
      "type": "function"
    },
    {
      "constant": false,
      "inputs": [
        {
          "internalType": "uint256",
          "name": "_amount",
          "type": "uint256"
        },
        {
          "internalType": "uint256",
          "name": "_minSharesToMint",
          "type": "uint256"
        }
      ],
      "name": "buyVoucher",
      "outputs": [
        {
          "internalType": "uint256",
          "name": "amountToDeposit",
          "type": "uint256"
        }
      ],
      "payable": false,
      "stateMutability": "nonpayable",
      "type": "function"
    },
    {
      "constant": true,
      "inputs": [],
      "name": "commissionRate_deprecated",
      "outputs": [
        {
          "internalType": "uint256",
          "name": "",
          "type": "uint256"
        }
      ],
      "payable": false,
      "stateMutability": "view",
      "type": "function"
    },
    {
      "constant": false,
      "inputs": [
        {
          "internalType": "address",
          "name": "spender",
          "type": "address"
        },
        {
          "internalType": "uint256",
          "name": "subtractedValue",
          "type": "uint256"
        }
      ],
      "name": "decreaseAllowance",
      "outputs": [
        {
          "internalType": "bool",
          "name": "",
          "type": "bool"
        }
      ],
      "payable": false,
      "stateMutability": "nonpayable",
      "type": "function"
    },
    {
      "constant": true,
      "inputs": [],
      "name": "delegation",
      "outputs": [
        {
          "internalType": "bool",
          "name": "",
          "type": "bool"
        }
      ],
      "payable": false,
      "stateMutability": "view",
      "type": "function"
    },
    {
      "constant": false,
      "inputs": [
        {
          "internalType": "address",
          "name": "token",
          "type": "address"
        },
        {
          "internalType": "address payable",
          "name": "destination",
          "type": "address"
        },
        {
          "internalType": "uint256",
          "name": "amount",
          "type": "uint256"
        }
      ],
      "name": "drain",
      "outputs": [],
      "payable": false,
      "stateMutability": "nonpayable",
      "type": "function"
    },
    {
      "constant": true,
      "inputs": [],
      "name": "eventsHub",
      "outputs": [
        {
          "internalType": "contract EventsHub",
          "name": "",
          "type": "address"
        }
      ],
      "payable": false,
      "stateMutability": "view",
      "type": "function"
    },
    {
      "constant": true,
      "inputs": [],
      "name": "exchangeRate",
      "outputs": [
        {
          "internalType": "uint256",
          "name": "",
          "type": "uint256"
        }
      ],
      "payable": false,
      "stateMutability": "view",
      "type": "function"
    },
    {
      "constant": true,
      "inputs": [
        {
          "internalType": "address",
          "name": "user",
          "type": "address"
        }
      ],
      "name": "getLiquidRewards",
      "outputs": [
        {
          "internalType": "uint256",
          "name": "",
          "type": "uint256"
        }
      ],
      "payable": false,
      "stateMutability": "view",
      "type": "function"
    },
    {
      "constant": true,
      "inputs": [],
      "name": "getRewardPerShare",
      "outputs": [
        {
          "internalType": "uint256",
          "name": "",
          "type": "uint256"
        }
      ],
      "payable": false,
      "stateMutability": "view",
      "type": "function"
    },
    {
      "constant": true,
      "inputs": [
        {
          "internalType": "address",
          "name": "user",
          "type": "address"
        }
      ],
      "name": "getTotalStake",
      "outputs": [
        {
          "internalType": "uint256",
          "name": "",
          "type": "uint256"
        },
        {
          "internalType": "uint256",
          "name": "",
          "type": "uint256"
        }
      ],
      "payable": false,
      "stateMutability": "view",
      "type": "function"
    },
    {
      "constant": false,
      "inputs": [
        {
          "internalType": "address",
          "name": "spender",
          "type": "address"
        },
        {
          "internalType": "uint256",
          "name": "addedValue",
          "type": "uint256"
        }
      ],
      "name": "increaseAllowance",
      "outputs": [
        {
          "internalType": "bool",
          "name": "",
          "type": "bool"
        }
      ],
      "payable": false,
      "stateMutability": "nonpayable",
      "type": "function"
    },
    {
      "constant": true,
      "inputs": [
        {
          "internalType": "address",
          "name": "",
          "type": "address"
        }
      ],
      "name": "initalRewardPerShare",
      "outputs": [
        {
          "internalType": "uint256",
          "name": "",
          "type": "uint256"
        }
      ],
      "payable": false,
      "stateMutability": "view",
      "type": "function"
    },
    {
      "constant": false,
      "inputs": [
        {
          "internalType": "uint256",
          "name": "_validatorId",
          "type": "uint256"
        },
        {
          "internalType": "address",
          "name": "_stakingLogger",
          "type": "address"
        },
        {
          "internalType": "address",
          "name": "_stakeManager",
          "type": "address"
        }
      ],
      "name": "initialize",
      "outputs": [],
      "payable": false,
      "stateMutability": "nonpayable",
      "type": "function"
    },
    {
      "constant": true,
      "inputs": [],
      "name": "isOwner",
      "outputs": [
        {
          "internalType": "bool",
          "name": "",
          "type": "bool"
        }
      ],
      "payable": false,
      "stateMutability": "view",
      "type": "function"
    },
    {
      "constant": true,
      "inputs": [],
      "name": "lastCommissionUpdate_deprecated",
      "outputs": [
        {
          "internalType": "uint256",
          "name": "",
          "type": "uint256"
        }
      ],
      "payable": false,
      "stateMutability": "view",
      "type": "function"
    },
    {
      "constant": false,
      "inputs": [],
      "name": "lock",
      "outputs": [],
      "payable": false,
      "stateMutability": "nonpayable",
      "type": "function"
    },
    {
      "constant": true,
      "inputs": [],
      "name": "locked",
      "outputs": [
        {
          "internalType": "bool",
          "name": "",
          "type": "bool"
        }
      ],
      "payable": false,
      "stateMutability": "view",
      "type": "function"
    },
    {
      "constant": false,
      "inputs": [
        {
          "internalType": "address",
          "name": "user",
          "type": "address"
        },
        {
          "internalType": "uint256",
          "name": "amount",
          "type": "uint256"
        }
      ],
      "name": "migrateIn",
      "outputs": [],
      "payable": false,
      "stateMutability": "nonpayable",
      "type": "function"
    },
    {
      "constant": false,
      "inputs": [
        {
          "internalType": "address",
          "name": "user",
          "type": "address"
        },
        {
          "internalType": "uint256",
          "name": "amount",
          "type": "uint256"
        }
      ],
      "name": "migrateOut",
      "outputs": [],
      "payable": false,
      "stateMutability": "nonpayable",
      "type": "function"
    },
    {
      "constant": true,
      "inputs": [],
      "name": "minAmount",
      "outputs": [
        {
          "internalType": "uint256",
          "name": "",
          "type": "uint256"
        }
      ],
      "payable": false,
      "stateMutability": "view",
      "type": "function"
    },
    {
      "constant": true,
      "inputs": [],
      "name": "owner",
      "outputs": [
        {
          "internalType": "address",
          "name": "",
          "type": "address"
        }
      ],
      "payable": false,
      "stateMutability": "view",
      "type": "function"
    },
    {
      "constant": false,
      "inputs": [],
      "name": "renounceOwnership",
      "outputs": [],
      "payable": false,
      "stateMutability": "nonpayable",
      "type": "function"
    },
    {
      "constant": false,
      "inputs": [],
      "name": "restake",
      "outputs": [
        {
          "internalType": "uint256",
          "name": "",
          "type": "uint256"
        },
        {
          "internalType": "uint256",
          "name": "",
          "type": "uint256"
        }
      ],
      "payable": false,
      "stateMutability": "nonpayable",
      "type": "function"
    },
    {
      "constant": true,
      "inputs": [],
      "name": "rewardPerShare",
      "outputs": [
        {
          "internalType": "uint256",
          "name": "",
          "type": "uint256"
        }
      ],
      "payable": false,
      "stateMutability": "view",
      "type": "function"
    },
    {
      "constant": false,
      "inputs": [
        {
          "internalType": "uint256",
          "name": "claimAmount",
          "type": "uint256"
        },
        {
          "internalType": "uint256",
          "name": "maximumSharesToBurn",
          "type": "uint256"
        }
      ],
      "name": "sellVoucher",
      "outputs": [],
      "payable": false,
      "stateMutability": "nonpayable",
      "type": "function"
    },
    {
      "constant": false,
      "inputs": [
        {
          "internalType": "uint256",
          "name": "claimAmount",
          "type": "uint256"
        },
        {
          "internalType": "uint256",
          "name": "maximumSharesToBurn",
          "type": "uint256"
        }
      ],
      "name": "sellVoucher_new",
      "outputs": [],
      "payable": false,
      "stateMutability": "nonpayable",
      "type": "function"
    },
    {
      "constant": false,
      "inputs": [
        {
          "internalType": "uint256",
          "name": "validatorStake",
          "type": "uint256"
        },
        {
          "internalType": "uint256",
          "name": "delegatedAmount",
          "type": "uint256"
        },
        {
          "internalType": "uint256",
          "name": "totalAmountToSlash",
          "type": "uint256"
        }
      ],
      "name": "slash",
      "outputs": [
        {
          "internalType": "uint256",
          "name": "",
          "type": "uint256"
        }
      ],
      "payable": false,
      "stateMutability": "nonpayable",
      "type": "function"
    },
    {
      "constant": true,
      "inputs": [],
      "name": "stakeManager",
      "outputs": [
        {
          "internalType": "contract IStakeManager",
          "name": "",
          "type": "address"
        }
      ],
      "payable": false,
      "stateMutability": "view",
      "type": "function"
    },
    {
      "constant": true,
      "inputs": [],
      "name": "stakingLogger",
      "outputs": [
        {
          "internalType": "contract StakingInfo",
          "name": "",
          "type": "address"
        }
      ],
      "payable": false,
      "stateMutability": "view",
      "type": "function"
    },
    {
      "constant": true,
      "inputs": [],
      "name": "totalStake_deprecated",
      "outputs": [
        {
          "internalType": "uint256",
          "name": "",
          "type": "uint256"
        }
      ],
      "payable": false,
      "stateMutability": "view",
      "type": "function"
    },
    {
      "constant": true,
      "inputs": [],
      "name": "totalSupply",
      "outputs": [
        {
          "internalType": "uint256",
          "name": "",
          "type": "uint256"
        }
      ],
      "payable": false,
      "stateMutability": "view",
      "type": "function"
    },
    {
      "constant": false,
      "inputs": [
        {
          "internalType": "address",
          "name": "to",
          "type": "address"
        },
        {
          "internalType": "uint256",
          "name": "value",
          "type": "uint256"
        }
      ],
      "name": "transfer",
      "outputs": [
        {
          "internalType": "bool",
          "name": "",
          "type": "bool"
        }
      ],
      "payable": false,
      "stateMutability": "nonpayable",
      "type": "function"
    },
    {
      "constant": false,
      "inputs": [
        {
          "internalType": "address",
          "name": "from",
          "type": "address"
        },
        {
          "internalType": "address",
          "name": "to",
          "type": "address"
        },
        {
          "internalType": "uint256",
          "name": "value",
          "type": "uint256"
        }
      ],
      "name": "transferFrom",
      "outputs": [
        {
          "internalType": "bool",
          "name": "",
          "type": "bool"
        }
      ],
      "payable": false,
      "stateMutability": "nonpayable",
      "type": "function"
    },
    {
      "constant": false,
      "inputs": [
        {
          "internalType": "address",
          "name": "newOwner",
          "type": "address"
        }
      ],
      "name": "transferOwnership",
      "outputs": [],
      "payable": false,
      "stateMutability": "nonpayable",
      "type": "function"
    },
    {
      "constant": true,
      "inputs": [
        {
          "internalType": "address",
          "name": "",
          "type": "address"
        }
      ],
      "name": "unbondNonces",
      "outputs": [
        {
          "internalType": "uint256",
          "name": "",
          "type": "uint256"
        }
      ],
      "payable": false,
      "stateMutability": "view",
      "type": "function"
    },
    {
      "constant": true,
      "inputs": [
        {
          "internalType": "address",
          "name": "",
          "type": "address"
        }
      ],
      "name": "unbonds",
      "outputs": [
        {
          "internalType": "uint256",
          "name": "shares",
          "type": "uint256"
        },
        {
          "internalType": "uint256",
          "name": "withdrawEpoch",
          "type": "uint256"
        }
      ],
      "payable": false,
      "stateMutability": "view",
      "type": "function"
    },
    {
      "constant": true,
      "inputs": [
        {
          "internalType": "address",
          "name": "",
          "type": "address"
        },
        {
          "internalType": "uint256",
          "name": "",
          "type": "uint256"
        }
      ],
      "name": "unbonds_new",
      "outputs": [
        {
          "internalType": "uint256",
          "name": "shares",
          "type": "uint256"
        },
        {
          "internalType": "uint256",
          "name": "withdrawEpoch",
          "type": "uint256"
        }
      ],
      "payable": false,
      "stateMutability": "view",
      "type": "function"
    },
    {
      "constant": false,
      "inputs": [],
      "name": "unlock",
      "outputs": [],
      "payable": false,
      "stateMutability": "nonpayable",
      "type": "function"
    },
    {
      "constant": false,
      "inputs": [],
      "name": "unstakeClaimTokens",
      "outputs": [],
      "payable": false,
      "stateMutability": "nonpayable",
      "type": "function"
    },
    {
      "constant": false,
      "inputs": [
        {
          "internalType": "uint256",
          "name": "unbondNonce",
          "type": "uint256"
        }
      ],
      "name": "unstakeClaimTokens_new",
      "outputs": [],
      "payable": false,
      "stateMutability": "nonpayable",
      "type": "function"
    },
    {
      "constant": false,
      "inputs": [
        {
          "internalType": "bool",
          "name": "_delegation",
          "type": "bool"
        }
      ],
      "name": "updateDelegation",
      "outputs": [],
      "payable": false,
      "stateMutability": "nonpayable",
      "type": "function"
    },
    {
      "constant": true,
      "inputs": [],
      "name": "validatorId",
      "outputs": [
        {
          "internalType": "uint256",
          "name": "",
          "type": "uint256"
        }
      ],
      "payable": false,
      "stateMutability": "view",
      "type": "function"
    },
    {
      "constant": true,
      "inputs": [],
      "name": "validatorRewards_deprecated",
      "outputs": [
        {
          "internalType": "uint256",
          "name": "",
          "type": "uint256"
        }
      ],
      "payable": false,
      "stateMutability": "view",
      "type": "function"
    },
    {
      "constant": true,
      "inputs": [],
      "name": "withdrawExchangeRate",
      "outputs": [
        {
          "internalType": "uint256",
          "name": "",
          "type": "uint256"
        }
      ],
      "payable": false,
      "stateMutability": "view",
      "type": "function"
    },
    {
      "constant": true,
      "inputs": [],
      "name": "withdrawPool",
      "outputs": [
        {
          "internalType": "uint256",
          "name": "",
          "type": "uint256"
        }
      ],
      "payable": false,
      "stateMutability": "view",
      "type": "function"
    },
    {
      "constant": false,
      "inputs": [],
      "name": "withdrawRewards",
      "outputs": [],
      "payable": false,
      "stateMutability": "nonpayable",
      "type": "function"
    },
    {
      "constant": true,
      "inputs": [],
      "name": "withdrawShares",
      "outputs": [
        {
          "internalType": "uint256",
          "name": "",
          "type": "uint256"
        }
      ],
      "payable": false,
      "stateMutability": "view",
      "type": "function"
    }
  ],
  "bytecode": "0x60806040526000600360156101000a81548160ff02191690831515021790555033600360016101000a81548173ffffffffffffffffffffffffffffffffffffffff021916908373ffffffffffffffffffffffffffffffffffffffff160217905550600360019054906101000a900473ffffffffffffffffffffffffffffffffffffffff1673ffffffffffffffffffffffffffffffffffffffff16600073ffffffffffffffffffffffffffffffffffffffff167f8be0079c531659141344cd1fd0a4f28419497f9722a3daafe3b4186f6b6457e060405160405180910390a3614882806100ec6000396000f3fe608060405234801561001057600080fd5b50600436106102f15760003560e01c80637542ff951161019d578063a9059cbb116100e9578063cf309012116100a2578063e4cd1aec1161007c578063e4cd1aec14610df4578063e97fddc214610e4c578063f2fde38b14610e7a578063f83d08ba14610ebe576102f1565b8063cf30901214610d38578063dd62ed3e14610d5a578063df5cf72314610dd2576102f1565b8063a9059cbb14610b96578063abf59fc914610bfc578063b4988fd014610c6a578063bfb18f2914610cd8578063c7b8981c14610cf6578063c83ec04d14610d00576102f1565b80638d16a14a116101565780639b2cb5d8116101305780639b2cb5d814610aba578063a0c1ca3414610ad8578063a457c2d714610b26578063a69df4b514610b8c576102f1565b80638d16a14a14610a445780638da5cb5b14610a4e5780638f32d59b14610a98576102f1565b80637542ff95146108db578063795be587146109255780637ba8c8201461098e578063883b455f146109be5780638ccdd28914610a085780638d086da414610a26576102f1565b80633d94eb051161025c578063653ec134116102155780636cbb6050116101ef5780636cbb6050146107d55780636e7ce5911461082b57806370a0823114610879578063715018a6146108d1576102f1565b8063653ec134146106d2578063676e5550146107315780636ab1507114610789576102f1565b80633d94eb05146105eb578063446a2ec8146106355780634f91440d146106535780635c42c733146106785780635c5f7dae146106965780635f0c80cc146106b4576102f1565b806323b872dd116102ae57806323b872dd1461044d5780633046c204146104d3578063395093511461052b57806339c31e93146105915780633a09bf44146105af5780633ba0b9a9146105cd576102f1565b8063029d3040146102f6578063095ea7b31461032e57806318160ddd146103945780631bf494a7146103b25780631e7ff8f6146103d0578063234406791461042f575b600080fd5b61032c6004803603604081101561030c57600080fd5b810190808035906020019092919080359060200190929190505050610ec8565b005b61037a6004803603604081101561034457600080fd5b81019080803573ffffffffffffffffffffffffffffffffffffffff169060200190929190803590602001909291905050506111b1565b604051808215151515815260200191505060405180910390f35b61039c6111c8565b6040518082815260200191505060405180910390f35b6103ba6111d2565b6040518082815260200191505060405180910390f35b610412600480360360208110156103e657600080fd5b81019080803573ffffffffffffffffffffffffffffffffffffffff169060200190929190505050611291565b604051808381526020018281526020019250505060405180910390f35b610437611300565b6040518082815260200191505060405180910390f35b6104b96004803603606081101561046357600080fd5b81019080803573ffffffffffffffffffffffffffffffffffffffff169060200190929190803573ffffffffffffffffffffffffffffffffffffffff16906020019092919080359060200190929190505050611306565b604051808215151515815260200191505060405180910390f35b610515600480360360208110156104e957600080fd5b81019080803573ffffffffffffffffffffffffffffffffffffffff1690602001909291905050506113b7565b6040518082815260200191505060405180910390f35b6105776004803603604081101561054157600080fd5b81019080803573ffffffffffffffffffffffffffffffffffffffff169060200190929190803590602001909291905050506113cf565b604051808215151515815260200191505060405180910390f35b610599611474565b6040518082815260200191505060405180910390f35b6105b761147a565b6040518082815260200191505060405180910390f35b6105d5611480565b6040518082815260200191505060405180910390f35b6105f3611583565b604051808273ffffffffffffffffffffffffffffffffffffffff1673ffffffffffffffffffffffffffffffffffffffff16815260200191505060405180910390f35b61063d6115a9565b6040518082815260200191505060405180910390f35b61065b6115af565b604051808381526020018281526020019250505060405180910390f35b610680611974565b6040518082815260200191505060405180910390f35b61069e61197a565b6040518082815260200191505060405180910390f35b6106bc611980565b6040518082815260200191505060405180910390f35b610714600480360360208110156106e857600080fd5b81019080803573ffffffffffffffffffffffffffffffffffffffff169060200190929190505050611986565b604051808381526020018281526020019250505060405180910390f35b6107736004803603602081101561074757600080fd5b81019080803573ffffffffffffffffffffffffffffffffffffffff1690602001909291905050506119aa565b6040518082815260200191505060405180910390f35b6107bf6004803603604081101561079f57600080fd5b8101908080359060200190929190803590602001909291905050506119c4565b6040518082815260200191505060405180910390f35b610815600480360360608110156107eb57600080fd5b81019080803590602001909291908035906020019092919080359060200190929190505050611b46565b6040518082815260200191505060405180910390f35b6108776004803603604081101561084157600080fd5b81019080803573ffffffffffffffffffffffffffffffffffffffff16906020019092919080359060200190929190505050611ce3565b005b6108bb6004803603602081101561088f57600080fd5b81019080803573ffffffffffffffffffffffffffffffffffffffff1690602001909291905050506120ad565b6040518082815260200191505060405180910390f35b6108d96120f5565b005b6108e36121c7565b604051808273ffffffffffffffffffffffffffffffffffffffff1673ffffffffffffffffffffffffffffffffffffffff16815260200191505060405180910390f35b6109716004803603604081101561093b57600080fd5b81019080803573ffffffffffffffffffffffffffffffffffffffff169060200190929190803590602001909291905050506121ed565b604051808381526020018281526020019250505060405180910390f35b6109bc600480360360208110156109a457600080fd5b8101908080351515906020019092919050505061221e565b005b6109c661224c565b604051808273ffffffffffffffffffffffffffffffffffffffff1673ffffffffffffffffffffffffffffffffffffffff16815260200191505060405180910390f35b610a10612272565b6040518082815260200191505060405180910390f35b610a2e612278565b6040518082815260200191505060405180910390f35b610a4c61227e565b005b610a56612414565b604051808273ffffffffffffffffffffffffffffffffffffffff1673ffffffffffffffffffffffffffffffffffffffff16815260200191505060405180910390f35b610aa061243e565b604051808215151515815260200191505060405180910390f35b610ac2612496565b6040518082815260200191505060405180910390f35b610b2460048036036040811015610aee57600080fd5b81019080803573ffffffffffffffffffffffffffffffffffffffff1690602001909291908035906020019092919050505061249c565b005b610b7260048036036040811015610b3c57600080fd5b81019080803573ffffffffffffffffffffffffffffffffffffffff169060200190929190803590602001909291905050506124c8565b604051808215151515815260200191505060405180910390f35b610b9461256d565b005b610be260048036036040811015610bac57600080fd5b81019080803573ffffffffffffffffffffffffffffffffffffffff16906020019092919080359060200190929190505050612588565b604051808215151515815260200191505060405180910390f35b610c6860048036036060811015610c1257600080fd5b81019080803573ffffffffffffffffffffffffffffffffffffffff169060200190929190803573ffffffffffffffffffffffffffffffffffffffff1690602001909291908035906020019092919050505061259f565b005b610cd660048036036060811015610c8057600080fd5b8101908080359060200190929190803573ffffffffffffffffffffffffffffffffffffffff169060200190929190803573ffffffffffffffffffffffffffffffffffffffff16906020019092919050505061276b565b005b610ce06128d3565b6040518082815260200191505060405180910390f35b610cfe612939565b005b610d3660048036036040811015610d1657600080fd5b8101908080359060200190929190803590602001909291905050506129c1565b005b610d40612ced565b604051808215151515815260200191505060405180910390f35b610dbc60048036036040811015610d7057600080fd5b81019080803573ffffffffffffffffffffffffffffffffffffffff169060200190929190803573ffffffffffffffffffffffffffffffffffffffff169060200190929190505050612d00565b6040518082815260200191505060405180910390f35b610dda612d87565b604051808215151515815260200191505060405180910390f35b610e3660048036036020811015610e0a57600080fd5b81019080803573ffffffffffffffffffffffffffffffffffffffff169060200190929190505050612d9a565b6040518082815260200191505060405180910390f35b610e7860048036036020811015610e6257600080fd5b8101908080359060200190929190505050612db2565b005b610ebc60048036036020811015610e9057600080fd5b81019080803573ffffffffffffffffffffffffffffffffffffffff169060200190929190505050612f58565b005b610ec6612f75565b005b600080610ed58484612f90565b91509150610ee1614833565b601260003373ffffffffffffffffffffffffffffffffffffffff1673ffffffffffffffffffffffffffffffffffffffff168152602001908152602001600020604051806040016040529081600082015481526020016001820154815250509050610f5882826000015161321290919063ffffffff16565b816000018181525050600560009054906101000a900473ffffffffffffffffffffffffffffffffffffffff1673ffffffffffffffffffffffffffffffffffffffff1663900cf0cf6040518163ffffffff1660e01b815260040160206040518083038186803b158015610fc957600080fd5b505afa158015610fdd573d6000803e3d6000fd5b505050506040513d6020811015610ff357600080fd5b810190808051906020019092919050505081602001818152505080601260003373ffffffffffffffffffffffffffffffffffffffff1673ffffffffffffffffffffffffffffffffffffffff16815260200190815260200160002060008201518160000155602082015181600101559050506000600460009054906101000a900473ffffffffffffffffffffffffffffffffffffffff1690508073ffffffffffffffffffffffffffffffffffffffff1663f1382b536006543389886040518563ffffffff1660e01b8152600401808581526020018473ffffffffffffffffffffffffffffffffffffffff1673ffffffffffffffffffffffffffffffffffffffff168152602001838152602001828152602001945050505050600060405180830381600087803b15801561112457600080fd5b505af1158015611138573d6000803e3d6000fd5b505050508073ffffffffffffffffffffffffffffffffffffffff1663532e19a96006546040518263ffffffff1660e01b815260040180828152602001915050600060405180830381600087803b15801561119157600080fd5b505af11580156111a5573d6000803e3d6000fd5b50505050505050505050565b60006111be338484613231565b6001905092915050565b6000600254905090565b600061128c600560009054906101000a900473ffffffffffffffffffffffffffffffffffffffff1673ffffffffffffffffffffffffffffffffffffffff166339610f786006546040518263ffffffff1660e01b81526004018082815260200191505060206040518083038186803b15801561124c57600080fd5b505afa158015611260573d6000803e3d6000fd5b505050506040513d602081101561127657600080fd5b810190808051906020019092919050505061329f565b905090565b600080600061129f846120ad565b905060006112ab611480565b905060008214156112c7576000818191509350935050506112fb565b6112f36112d2613313565b6112e5848461333d90919063ffffffff16565b61337790919063ffffffff16565b819350935050505b915091565b60095481565b600061131384848461339d565b6113ac84336113a785600160008a73ffffffffffffffffffffffffffffffffffffffff1673ffffffffffffffffffffffffffffffffffffffff16815260200190815260200160002060003373ffffffffffffffffffffffffffffffffffffffff1673ffffffffffffffffffffffffffffffffffffffff168152602001908152602001600020546133c190919063ffffffff16565b613231565b600190509392505050565b60146020528060005260406000206000915090505481565b600061146a338461146585600160003373ffffffffffffffffffffffffffffffffffffffff1673ffffffffffffffffffffffffffffffffffffffff16815260200190815260200160002060008973ffffffffffffffffffffffffffffffffffffffff1673ffffffffffffffffffffffffffffffffffffffff1681526020019081526020016000205461321290919063ffffffff16565b613231565b6001905092915050565b60075481565b600d5481565b60008061148b6111c8565b90506000611497613313565b90506000821461157a576115758261156783600560009054906101000a900473ffffffffffffffffffffffffffffffffffffffff1673ffffffffffffffffffffffffffffffffffffffff16637f4b43236006546040518263ffffffff1660e01b81526004018082815260200191505060206040518083038186803b15801561151e57600080fd5b505afa158015611532573d6000803e3d6000fd5b505050506040513d602081101561154857600080fd5b810190808051906020019092919050505061333d90919063ffffffff16565b61337790919063ffffffff16565b61157c565b805b9250505090565b600460009054906101000a900473ffffffffffffffffffffffffffffffffffffffff1681565b600c5481565b600080600033905060006115c2826133e1565b90506000600a5482101561163e576040517f08c379a000000000000000000000000000000000000000000000000000000000815260040180806020018281038252601c8152602001807f546f6f20736d616c6c207265776172647320746f2072657374616b650000000081525060200191505060405180910390fd5b600082146119675761165282600085613503565b90508082111561188c57600560009054906101000a900473ffffffffffffffffffffffffffffffffffffffff1673ffffffffffffffffffffffffffffffffffffffff1663bc8756a9600654838503866040518463ffffffff1660e01b8152600401808481526020018381526020018273ffffffffffffffffffffffffffffffffffffffff1673ffffffffffffffffffffffffffffffffffffffff1681526020019350505050602060405180830381600087803b15801561171157600080fd5b505af1158015611725573d6000803e3d6000fd5b505050506040513d602081101561173b57600080fd5b81019080805190602001909291905050506117be576040517f08c379a00000000000000000000000000000000000000000000000000000000081526004018080602001828103825260138152602001807f496e737566666963656e7420726577617264730000000000000000000000000081525060200191505060405180910390fd5b600460009054906101000a900473ffffffffffffffffffffffffffffffffffffffff1673ffffffffffffffffffffffffffffffffffffffff1663b7721d2d600654858486036040518463ffffffff1660e01b8152600401808481526020018373ffffffffffffffffffffffffffffffffffffffff1673ffffffffffffffffffffffffffffffffffffffff1681526020018281526020019350505050600060405180830381600087803b15801561187357600080fd5b505af1158015611887573d6000803e3d6000fd5b505050505b600061189784611291565b509050600460009054906101000a900473ffffffffffffffffffffffffffffffffffffffff1673ffffffffffffffffffffffffffffffffffffffff16637f88a95760065486846040518463ffffffff1660e01b8152600401808481526020018373ffffffffffffffffffffffffffffffffffffffff1673ffffffffffffffffffffffffffffffffffffffff1681526020018281526020019350505050600060405180830381600087803b15801561194d57600080fd5b505af1158015611961573d6000803e3d6000fd5b50505050505b8082945094505050509091565b600f5481565b60065481565b600b5481565b60126020528060005260406000206000915090508060000154908060010154905082565b60006119bd826119b86111d2565b613934565b9050919050565b60006119cf336139f9565b506119db838333613503565b9050600560009054906101000a900473ffffffffffffffffffffffffffffffffffffffff1673ffffffffffffffffffffffffffffffffffffffff16636901b25360065483336040518463ffffffff1660e01b8152600401808481526020018381526020018273ffffffffffffffffffffffffffffffffffffffff1673ffffffffffffffffffffffffffffffffffffffff1681526020019350505050602060405180830381600087803b158015611a9057600080fd5b505af1158015611aa4573d6000803e3d6000fd5b505050506040513d6020811015611aba57600080fd5b8101908080519060200190929190505050611b3d576040517f08c379a000000000000000000000000000000000000000000000000000000000815260040180806020018281038252600e8152602001807f6465706f736974206661696c656400000000000000000000000000000000000081525060200191505060405180910390fd5b80905092915050565b6000611b5061243e565b611b5957600080fd5b6000600f5490506000611b75828661321290919063ffffffff16565b90506000811415611b8b57600092505050611cdc565b6000611bc4611ba3838961321290919063ffffffff16565b611bb6878561333d90919063ffffffff16565b61337790919063ffffffff16565b90506000611bed83611bdf848761333d90919063ffffffff16565b61337790919063ffffffff16565b90506000611c0482846133c190919063ffffffff16565b9050600560009054906101000a900473ffffffffffffffffffffffffffffffffffffffff1673ffffffffffffffffffffffffffffffffffffffff1663858a7c03600654836040518363ffffffff1660e01b81526004018083815260200182815260200192505050600060405180830381600087803b158015611c8557600080fd5b505af1158015611c99573d6000803e3d6000fd5b50505050611cb281600d546133c190919063ffffffff16565b600d81905550611ccd82600f546133c190919063ffffffff16565b600f8190555082955050505050505b9392505050565b611ceb61243e565b611cf457600080fd5b611cfd826139f9565b50600080611d0a84611291565b9150915082821015611d84576040517f08c379a00000000000000000000000000000000000000000000000000000000081526004018080602001828103825260128152602001807f4d6967726174696e6720746f6f206d756368000000000000000000000000000081525060200191505060405180910390fd5b6000611d8e613313565b90506000611db783611da9848861333d90919063ffffffff16565b61337790919063ffffffff16565b9050611dc38682613c44565b600560009054906101000a900473ffffffffffffffffffffffffffffffffffffffff1673ffffffffffffffffffffffffffffffffffffffff16639ff11500600654876000036040518363ffffffff1660e01b81526004018083815260200182815260200192505050600060405180830381600087803b158015611e4557600080fd5b505af1158015611e59573d6000803e3d6000fd5b50505050611e7285600d546133c190919063ffffffff16565b600d81905550600460009054906101000a900473ffffffffffffffffffffffffffffffffffffffff1673ffffffffffffffffffffffffffffffffffffffff1663f1382b536006548888856040518563ffffffff1660e01b8152600401808581526020018473ffffffffffffffffffffffffffffffffffffffff1673ffffffffffffffffffffffffffffffffffffffff168152602001838152602001828152602001945050505050600060405180830381600087803b158015611f3357600080fd5b505af1158015611f47573d6000803e3d6000fd5b50505050600460009054906101000a900473ffffffffffffffffffffffffffffffffffffffff1673ffffffffffffffffffffffffffffffffffffffff1663532e19a96006546040518263ffffffff1660e01b815260040180828152602001915050600060405180830381600087803b158015611fc257600080fd5b505af1158015611fd6573d6000803e3d6000fd5b50505050600460009054906101000a900473ffffffffffffffffffffffffffffffffffffffff1673ffffffffffffffffffffffffffffffffffffffff1663605be9be60065488886040518463ffffffff1660e01b8152600401808481526020018373ffffffffffffffffffffffffffffffffffffffff1673ffffffffffffffffffffffffffffffffffffffff1681526020018281526020019350505050600060405180830381600087803b15801561208d57600080fd5b505af11580156120a1573d6000803e3d6000fd5b50505050505050505050565b60008060008373ffffffffffffffffffffffffffffffffffffffff1673ffffffffffffffffffffffffffffffffffffffff168152602001908152602001600020549050919050565b6120fd61243e565b61210657600080fd5b600073ffffffffffffffffffffffffffffffffffffffff16600360019054906101000a900473ffffffffffffffffffffffffffffffffffffffff1673ffffffffffffffffffffffffffffffffffffffff167f8be0079c531659141344cd1fd0a4f28419497f9722a3daafe3b4186f6b6457e060405160405180910390a36000600360016101000a81548173ffffffffffffffffffffffffffffffffffffffff021916908373ffffffffffffffffffffffffffffffffffffffff160217905550565b600560009054906101000a900473ffffffffffffffffffffffffffffffffffffffff1681565b6015602052816000526040600020602052806000526040600020600091509150508060000154908060010154905082565b61222661243e565b61222f57600080fd5b80600e60006101000a81548160ff02191690831515021790555050565b601660009054906101000a900473ffffffffffffffffffffffffffffffffffffffff1681565b60085481565b60105481565b612286614833565b601260003373ffffffffffffffffffffffffffffffffffffffff1673ffffffffffffffffffffffffffffffffffffffff16815260200190815260200160002060405180604001604052908160008201548152602001600182015481525050905060006122f182613d96565b9050601260003373ffffffffffffffffffffffffffffffffffffffff1673ffffffffffffffffffffffffffffffffffffffff16815260200190815260200160002060008082016000905560018201600090555050600460009054906101000a900473ffffffffffffffffffffffffffffffffffffffff1673ffffffffffffffffffffffffffffffffffffffff1663605be9be60065433846040518463ffffffff1660e01b8152600401808481526020018373ffffffffffffffffffffffffffffffffffffffff1673ffffffffffffffffffffffffffffffffffffffff1681526020018281526020019350505050600060405180830381600087803b1580156123f857600080fd5b505af115801561240c573d6000803e3d6000fd5b505050505050565b6000600360019054906101000a900473ffffffffffffffffffffffffffffffffffffffff16905090565b6000600360019054906101000a900473ffffffffffffffffffffffffffffffffffffffff1673ffffffffffffffffffffffffffffffffffffffff163373ffffffffffffffffffffffffffffffffffffffff1614905090565b600a5481565b6124a461243e565b6124ad57600080fd5b6124b6826139f9565b506124c381600084613503565b505050565b6000612563338461255e85600160003373ffffffffffffffffffffffffffffffffffffffff1673ffffffffffffffffffffffffffffffffffffffff16815260200190815260200160002060008973ffffffffffffffffffffffffffffffffffffffff1673ffffffffffffffffffffffffffffffffffffffff168152602001908152602001600020546133c190919063ffffffff16565b613231565b6001905092915050565b61257561243e565b61257e57600080fd5b612586614153565b565b600061259533848461339d565b6001905092915050565b6125a761243e565b6125b057600080fd5b600073ffffffffffffffffffffffffffffffffffffffff168373ffffffffffffffffffffffffffffffffffffffff161415612631578173ffffffffffffffffffffffffffffffffffffffff166108fc829081150290604051600060405180830381858888f1935050505015801561262b573d6000803e3d6000fd5b50612766565b8273ffffffffffffffffffffffffffffffffffffffff1663a9059cbb83836040518363ffffffff1660e01b8152600401808373ffffffffffffffffffffffffffffffffffffffff1673ffffffffffffffffffffffffffffffffffffffff16815260200182815260200192505050602060405180830381600087803b1580156126b857600080fd5b505af11580156126cc573d6000803e3d6000fd5b505050506040513d60208110156126e257600080fd5b8101908080519060200190929190505050612765576040517f08c379a000000000000000000000000000000000000000000000000000000000815260040180806020018281038252600c8152602001807f447261696e206661696c6564000000000000000000000000000000000000000081525060200191505060405180910390fd5b5b505050565b600360159054906101000a900460ff16156127ee576040517f08c379a000000000000000000000000000000000000000000000000000000000815260040180806020018281038252600e8152602001807f616c726561647920696e6974656400000000000000000000000000000000000081525060200191505060405180910390fd5b6001600360156101000a81548160ff0219169083151502179055508260068190555081600460006101000a81548173ffffffffffffffffffffffffffffffffffffffff021916908373ffffffffffffffffffffffffffffffffffffffff16021790555080600560006101000a81548173ffffffffffffffffffffffffffffffffffffffff021916908373ffffffffffffffffffffffffffffffffffffffff16021790555061289b81614170565b6128a361426a565b50670de0b6b3a7640000600a819055506001600e60006101000a81548160ff021916908315150217905550505050565b6000806128de613313565b9050600860065410156128f45780915050612936565b600060105490506000811461292f5761292a8161291c84600f5461333d90919063ffffffff16565b61337790919063ffffffff16565b612931565b815b925050505b90565b6000612944336139f9565b9050600a548110156129be576040517f08c379a00000000000000000000000000000000000000000000000000000000081526004018080602001828103825260188152602001807f546f6f20736d616c6c207265776172647320616d6f756e74000000000000000081525060200191505060405180910390fd5b50565b6000806129ce8484612f90565b915091506000612a276001601460003373ffffffffffffffffffffffffffffffffffffffff1673ffffffffffffffffffffffffffffffffffffffff1681526020019081526020016000205461321290919063ffffffff16565b9050612a31614833565b6040518060400160405280848152602001600560009054906101000a900473ffffffffffffffffffffffffffffffffffffffff1673ffffffffffffffffffffffffffffffffffffffff1663900cf0cf6040518163ffffffff1660e01b815260040160206040518083038186803b158015612aaa57600080fd5b505afa158015612abe573d6000803e3d6000fd5b505050506040513d6020811015612ad457600080fd5b8101908080519060200190929190505050815250905080601560003373ffffffffffffffffffffffffffffffffffffffff1673ffffffffffffffffffffffffffffffffffffffff1681526020019081526020016000206000848152602001908152602001600020600082015181600001556020820151816001015590505081601460003373ffffffffffffffffffffffffffffffffffffffff1673ffffffffffffffffffffffffffffffffffffffff16815260200190815260200160002081905550612b9e61426a565b73ffffffffffffffffffffffffffffffffffffffff16635536b682600654338988876040518663ffffffff1660e01b8152600401808681526020018573ffffffffffffffffffffffffffffffffffffffff1673ffffffffffffffffffffffffffffffffffffffff16815260200184815260200183815260200182815260200195505050505050600060405180830381600087803b158015612c3e57600080fd5b505af1158015612c52573d6000803e3d6000fd5b50505050600460009054906101000a900473ffffffffffffffffffffffffffffffffffffffff1673ffffffffffffffffffffffffffffffffffffffff1663532e19a96006546040518263ffffffff1660e01b815260040180828152602001915050600060405180830381600087803b158015612ccd57600080fd5b505af1158015612ce1573d6000803e3d6000fd5b50505050505050505050565b600360009054906101000a900460ff1681565b6000600160008473ffffffffffffffffffffffffffffffffffffffff1673ffffffffffffffffffffffffffffffffffffffff16815260200190815260200160002060008373ffffffffffffffffffffffffffffffffffffffff1673ffffffffffffffffffffffffffffffffffffffff16815260200190815260200160002054905092915050565b600e60009054906101000a900460ff1681565b60136020528060005260406000206000915090505481565b612dba614833565b601560003373ffffffffffffffffffffffffffffffffffffffff1673ffffffffffffffffffffffffffffffffffffffff16815260200190815260200160002060008381526020019081526020016000206040518060400160405290816000820154815260200160018201548152505090506000612e3682613d96565b9050601560003373ffffffffffffffffffffffffffffffffffffffff1673ffffffffffffffffffffffffffffffffffffffff168152602001908152602001600020600084815260200190815260200160002060008082016000905560018201600090555050612ea361426a565b73ffffffffffffffffffffffffffffffffffffffff16636e699d876006543384876040518563ffffffff1660e01b8152600401808581526020018473ffffffffffffffffffffffffffffffffffffffff1673ffffffffffffffffffffffffffffffffffffffff168152602001838152602001828152602001945050505050600060405180830381600087803b158015612f3b57600080fd5b505af1158015612f4f573d6000803e3d6000fd5b50505050505050565b612f6061243e565b612f6957600080fd5b612f7281614170565b50565b612f7d61243e565b612f8657600080fd5b612f8e614475565b565b600080600080612f9f33611291565b9150915060008214158015612fb45750858210155b613026576040517f08c379a00000000000000000000000000000000000000000000000000000000081526004018080602001828103825260128152602001807f546f6f206d75636820726571756573746564000000000000000000000000000081525060200191505060405180910390fd5b6000613030613313565b905060006130598361304b848b61333d90919063ffffffff16565b61337790919063ffffffff16565b9050868111156130d1576040517f08c379a00000000000000000000000000000000000000000000000000000000081526004018080602001828103825260118152602001807f746f6f206d75636820736c69707061676500000000000000000000000000000081525060200191505060405180910390fd5b6130da336139f9565b506130e53382613c44565b600560009054906101000a900473ffffffffffffffffffffffffffffffffffffffff1673ffffffffffffffffffffffffffffffffffffffff16639ff115006006548a6000036040518363ffffffff1660e01b81526004018083815260200182815260200192505050600060405180830381600087803b15801561316757600080fd5b505af115801561317b573d6000803e3d6000fd5b5050505061319488600d546133c190919063ffffffff16565b600d8190555060006131c86131a76128d3565b6131ba858c61333d90919063ffffffff16565b61337790919063ffffffff16565b90506131df89600f5461321290919063ffffffff16565b600f819055506131fa8160105461321290919063ffffffff16565b60108190555081819650965050505050509250929050565b60008082840190508381101561322757600080fd5b8091505092915050565b6040517f08c379a00000000000000000000000000000000000000000000000000000000081526004018080602001828103825260088152602001807f64697361626c656400000000000000000000000000000000000000000000000081525060200191505060405180910390fd5b600080600c5490506000831461330a5760006132b96111c8565b905060008114613308576133056132f6826132e86a084595161401484a0000008861333d90919063ffffffff16565b61337790919063ffffffff16565b8361321290919063ffffffff16565b91505b505b80915050919050565b600060086006541015613329576064905061333a565b6c01431e0fae6d7217caa000000090505b90565b6000808314156133505760009050613371565b600082840290508284828161336157fe5b041461336c57600080fd5b809150505b92915050565b600080821161338557600080fd5b600082848161339057fe5b0490508091505092915050565b6133a6826139f9565b506133b0836139f9565b506133bc838383614492565b505050565b6000828211156133d057600080fd5b600082840390508091505092915050565b60008061349e600560009054906101000a900473ffffffffffffffffffffffffffffffffffffffff1673ffffffffffffffffffffffffffffffffffffffff16637ed4b27c6006546040518263ffffffff1660e01b815260040180828152602001915050602060405180830381600087803b15801561345e57600080fd5b505af1158015613472573d6000803e3d6000fd5b505050506040513d602081101561348857600080fd5b810190808051906020019092919050505061329f565b905060006134ac8483613934565b905081600c8190555081601360008673ffffffffffffffffffffffffffffffffffffffff1673ffffffffffffffffffffffffffffffffffffffff168152602001908152602001600020819055508092505050919050565b600061350d61465c565b600e60009054906101000a900460ff1661358f576040517f08c379a00000000000000000000000000000000000000000000000000000000081526004018080602001828103825260168152602001807f44656c65676174696f6e2069732064697361626c65640000000000000000000081525060200191505060405180910390fd5b6000613599611480565b905060006135a5613313565b905060006135ce836135c0848a61333d90919063ffffffff16565b61337790919063ffffffff16565b905085811015613646576040517f08c379a00000000000000000000000000000000000000000000000000000000081526004018080602001828103825260118152602001807f546f6f206d75636820736c69707061676500000000000000000000000000000081525060200191505060405180910390fd5b6000601260008773ffffffffffffffffffffffffffffffffffffffff1673ffffffffffffffffffffffffffffffffffffffff16815260200190815260200160002060000154146136fe576040517f08c379a000000000000000000000000000000000000000000000000000000000815260040180806020018281038252600c8152602001807f4f6e676f696e672065786974000000000000000000000000000000000000000081525060200191505060405180910390fd5b61370885826146e1565b61372d8261371f838661333d90919063ffffffff16565b61337790919063ffffffff16565b9650600560009054906101000a900473ffffffffffffffffffffffffffffffffffffffff1673ffffffffffffffffffffffffffffffffffffffff16639ff11500600654896040518363ffffffff1660e01b81526004018083815260200182815260200192505050600060405180830381600087803b1580156137ae57600080fd5b505af11580156137c2573d6000803e3d6000fd5b505050506137db87600d5461321290919063ffffffff16565b600d819055506000600460009054906101000a900473ffffffffffffffffffffffffffffffffffffffff1690508073ffffffffffffffffffffffffffffffffffffffff1663c69d0573600654888b866040518563ffffffff1660e01b8152600401808581526020018473ffffffffffffffffffffffffffffffffffffffff1673ffffffffffffffffffffffffffffffffffffffff168152602001838152602001828152602001945050505050600060405180830381600087803b1580156138a157600080fd5b505af11580156138b5573d6000803e3d6000fd5b505050508073ffffffffffffffffffffffffffffffffffffffff1663532e19a96006546040518263ffffffff1660e01b815260040180828152602001915050600060405180830381600087803b15801561390e57600080fd5b505af1158015613922573d6000803e3d6000fd5b50505050879450505050509392505050565b600080613940846120ad565b905060008114156139555760009150506139f3565b6000601360008673ffffffffffffffffffffffffffffffffffffffff1673ffffffffffffffffffffffffffffffffffffffff168152602001908152602001600020549050838114156139ac576000925050506139f3565b6139ee6a084595161401484a0000006139e0846139d285896133c190919063ffffffff16565b61333d90919063ffffffff16565b61337790919063ffffffff16565b925050505b92915050565b600080613a05836133e1565b905060008114613c3b57600560009054906101000a900473ffffffffffffffffffffffffffffffffffffffff1673ffffffffffffffffffffffffffffffffffffffff1663bc8756a960065483866040518463ffffffff1660e01b8152600401808481526020018381526020018273ffffffffffffffffffffffffffffffffffffffff1673ffffffffffffffffffffffffffffffffffffffff1681526020019350505050602060405180830381600087803b158015613ac257600080fd5b505af1158015613ad6573d6000803e3d6000fd5b505050506040513d6020811015613aec57600080fd5b8101908080519060200190929190505050613b6f576040517f08c379a00000000000000000000000000000000000000000000000000000000081526004018080602001828103825260138152602001807f496e737566666963656e7420726577617264730000000000000000000000000081525060200191505060405180910390fd5b600460009054906101000a900473ffffffffffffffffffffffffffffffffffffffff1673ffffffffffffffffffffffffffffffffffffffff1663b7721d2d60065485846040518463ffffffff1660e01b8152600401808481526020018373ffffffffffffffffffffffffffffffffffffffff1673ffffffffffffffffffffffffffffffffffffffff1681526020018281526020019350505050600060405180830381600087803b158015613c2257600080fd5b505af1158015613c36573d6000803e3d6000fd5b505050505b80915050919050565b600073ffffffffffffffffffffffffffffffffffffffff168273ffffffffffffffffffffffffffffffffffffffff161415613c7e57600080fd5b613c93816002546133c190919063ffffffff16565b600281905550613cea816000808573ffffffffffffffffffffffffffffffffffffffff1673ffffffffffffffffffffffffffffffffffffffff168152602001908152602001600020546133c190919063ffffffff16565b6000808473ffffffffffffffffffffffffffffffffffffffff1673ffffffffffffffffffffffffffffffffffffffff16815260200190815260200160002081905550600073ffffffffffffffffffffffffffffffffffffffff168273ffffffffffffffffffffffffffffffffffffffff167fddf252ad1be2c89b69c2b068fc378daa952ba7f163c4a11628f55a4df523b3ef836040518082815260200191505060405180910390a35050565b60008082600001519050600560009054906101000a900473ffffffffffffffffffffffffffffffffffffffff1673ffffffffffffffffffffffffffffffffffffffff1663900cf0cf6040518163ffffffff1660e01b815260040160206040518083038186803b158015613e0857600080fd5b505afa158015613e1c573d6000803e3d6000fd5b505050506040513d6020811015613e3257600080fd5b8101908080519060200190929190505050613efc600560009054906101000a900473ffffffffffffffffffffffffffffffffffffffff1673ffffffffffffffffffffffffffffffffffffffff1663a7ab69616040518163ffffffff1660e01b815260040160206040518083038186803b158015613eae57600080fd5b505afa158015613ec2573d6000803e3d6000fd5b505050506040513d6020811015613ed857600080fd5b8101908080519060200190929190505050856020015161321290919063ffffffff16565b11158015613f0a5750600081115b613f7c576040517f08c379a000000000000000000000000000000000000000000000000000000000815260040180806020018281038252601c8152602001807f496e636f6d706c657465207769746864726177616c20706572696f640000000081525060200191505060405180910390fd5b6000613fb1613f89613313565b613fa384613f956128d3565b61333d90919063ffffffff16565b61337790919063ffffffff16565b9050613fc8826010546133c190919063ffffffff16565b601081905550613fe381600f546133c190919063ffffffff16565b600f81905550600560009054906101000a900473ffffffffffffffffffffffffffffffffffffffff1673ffffffffffffffffffffffffffffffffffffffff1663bc8756a960065483336040518463ffffffff1660e01b8152600401808481526020018381526020018273ffffffffffffffffffffffffffffffffffffffff1673ffffffffffffffffffffffffffffffffffffffff1681526020019350505050602060405180830381600087803b15801561409c57600080fd5b505af11580156140b0573d6000803e3d6000fd5b505050506040513d60208110156140c657600080fd5b8101908080519060200190929190505050614149576040517f08c379a00000000000000000000000000000000000000000000000000000000081526004018080602001828103825260138152602001807f496e737566666963656e7420726577617264730000000000000000000000000081525060200191505060405180910390fd5b8092505050919050565b6000600360006101000a81548160ff021916908315150217905550565b600073ffffffffffffffffffffffffffffffffffffffff168173ffffffffffffffffffffffffffffffffffffffff1614156141aa57600080fd5b8073ffffffffffffffffffffffffffffffffffffffff16600360019054906101000a900473ffffffffffffffffffffffffffffffffffffffff1673ffffffffffffffffffffffffffffffffffffffff167f8be0079c531659141344cd1fd0a4f28419497f9722a3daafe3b4186f6b6457e060405160405180910390a380600360016101000a81548173ffffffffffffffffffffffffffffffffffffffff021916908373ffffffffffffffffffffffffffffffffffffffff16021790555050565b600080601660009054906101000a900473ffffffffffffffffffffffffffffffffffffffff169050600073ffffffffffffffffffffffffffffffffffffffff168173ffffffffffffffffffffffffffffffffffffffff16141561446e57600560009054906101000a900473ffffffffffffffffffffffffffffffffffffffff1673ffffffffffffffffffffffffffffffffffffffff16635ab1bd536040518163ffffffff1660e01b815260040160206040518083038186803b15801561432f57600080fd5b505afa158015614343573d6000803e3d6000fd5b505050506040513d602081101561435957600080fd5b810190808051906020019092919050505073ffffffffffffffffffffffffffffffffffffffff1663cac39a0560405180807f6576656e74734875620000000000000000000000000000000000000000000000815250600901905060405180910390206040518263ffffffff1660e01b81526004018082815260200191505060206040518083038186803b1580156143ef57600080fd5b505afa158015614403573d6000803e3d6000fd5b505050506040513d602081101561441957600080fd5b8101908080519060200190929190505050905080601660006101000a81548173ffffffffffffffffffffffffffffffffffffffff021916908373ffffffffffffffffffffffffffffffffffffffff1602179055505b8091505090565b6001600360006101000a81548160ff021916908315150217905550565b600073ffffffffffffffffffffffffffffffffffffffff168273ffffffffffffffffffffffffffffffffffffffff1614156144cc57600080fd5b61451d816000808673ffffffffffffffffffffffffffffffffffffffff1673ffffffffffffffffffffffffffffffffffffffff168152602001908152602001600020546133c190919063ffffffff16565b6000808573ffffffffffffffffffffffffffffffffffffffff1673ffffffffffffffffffffffffffffffffffffffff168152602001908152602001600020819055506145b0816000808573ffffffffffffffffffffffffffffffffffffffff1673ffffffffffffffffffffffffffffffffffffffff1681526020019081526020016000205461321290919063ffffffff16565b6000808473ffffffffffffffffffffffffffffffffffffffff1673ffffffffffffffffffffffffffffffffffffffff168152602001908152602001600020819055508173ffffffffffffffffffffffffffffffffffffffff168373ffffffffffffffffffffffffffffffffffffffff167fddf252ad1be2c89b69c2b068fc378daa952ba7f163c4a11628f55a4df523b3ef836040518082815260200191505060405180910390a3505050565b600360009054906101000a900460ff16156146df576040517f08c379a00000000000000000000000000000000000000000000000000000000081526004018080602001828103825260068152602001807f6c6f636b6564000000000000000000000000000000000000000000000000000081525060200191505060405180910390fd5b565b600073ffffffffffffffffffffffffffffffffffffffff168273ffffffffffffffffffffffffffffffffffffffff16141561471b57600080fd5b6147308160025461321290919063ffffffff16565b600281905550614787816000808573ffffffffffffffffffffffffffffffffffffffff1673ffffffffffffffffffffffffffffffffffffffff1681526020019081526020016000205461321290919063ffffffff16565b6000808473ffffffffffffffffffffffffffffffffffffffff1673ffffffffffffffffffffffffffffffffffffffff168152602001908152602001600020819055508173ffffffffffffffffffffffffffffffffffffffff16600073ffffffffffffffffffffffffffffffffffffffff167fddf252ad1be2c89b69c2b068fc378daa952ba7f163c4a11628f55a4df523b3ef836040518082815260200191505060405180910390a35050565b60405180604001604052806000815260200160008152509056fea265627a7a72315820abded20e89bc388e746bd8a6ffbdc84187f1f4a38868206064b65fa5652b4ea164736f6c63430005110032",
  "linkReferences": {},
  "deployedLinkReferences": {}
}