{
  "_format": "hh-sol-artifact-1",
  "contractName": "ContractWithoutFallback",
  "sourceName": "contracts/test/ContractActor.sol",
  "abi": [
    {
      "constant": false,
      "inputs": [
        {
          "internalType": "address",
          "name": "depositManager",
          "type": "address"
        },
        {
          "internalType": "address",
          "name": "token",
          "type": "address"
        },
        {
          "internalType": "uint256",
          "name": "amount",
          "type": "uint256"
        }
      ],
      "name": "deposit",
      "outputs": [],
      "payable": false,
      "stateMutability": "nonpayable",
      "type": "function"
    },
    {
      "constant": false,
      "inputs": [
        {
          "internalType": "address payable",
          "name": "withdrawManager",
          "type": "address"
        },
        {
          "internalType": "uint256",
          "name": "depositId",
          "type": "uint256"
        },
        {
          "internalType": "address",
          "name": "token",
          "type": "address"
        },
        {
          "internalType": "uint256",
          "name": "amountOrToken",
          "type": "uint256"
        }
      ],
      "name": "startExitWithDepositedTokens",
      "outputs": [],
      "payable": true,
      "stateMutability": "payable",
      "type": "function"
    }
  ],
  "bytecode": "0x608060405234801561001057600080fd5b50610373806100206000396000f3fe6080604052600436106100295760003560e01c80631756baa01461002e5780638340f549146100a6575b600080fd5b6100a46004803603608081101561004457600080fd5b81019080803573ffffffffffffffffffffffffffffffffffffffff16906020019092919080359060200190929190803573ffffffffffffffffffffffffffffffffffffffff16906020019092919080359060200190929190505050610121565b005b3480156100b257600080fd5b5061011f600480360360608110156100c957600080fd5b81019080803573ffffffffffffffffffffffffffffffffffffffff169060200190929190803573ffffffffffffffffffffffffffffffffffffffff169060200190929190803590602001909291905050506101d7565b005b8373ffffffffffffffffffffffffffffffffffffffff1663144a03b367016345785d8a00008585856040518563ffffffff1660e01b8152600401808481526020018373ffffffffffffffffffffffffffffffffffffffff1673ffffffffffffffffffffffffffffffffffffffff16815260200182815260200193505050506000604051808303818588803b1580156101b857600080fd5b505af11580156101cc573d6000803e3d6000fd5b505050505050505050565b8173ffffffffffffffffffffffffffffffffffffffff1663095ea7b384836040518363ffffffff1660e01b8152600401808373ffffffffffffffffffffffffffffffffffffffff1673ffffffffffffffffffffffffffffffffffffffff16815260200182815260200192505050602060405180830381600087803b15801561025e57600080fd5b505af1158015610272573d6000803e3d6000fd5b505050506040513d602081101561028857600080fd5b8101908080519060200190929190505050508273ffffffffffffffffffffffffffffffffffffffff166397feb92683836040518363ffffffff1660e01b8152600401808373ffffffffffffffffffffffffffffffffffffffff1673ffffffffffffffffffffffffffffffffffffffff16815260200182815260200192505050600060405180830381600087803b15801561032157600080fd5b505af1158015610335573d6000803e3d6000fd5b5050505050505056fea265627a7a72315820ec665da79d1583068b25c8b5c7e684ca4019345bafa48840fb20dcb9632733cf64736f6c63430005110032",
  "linkReferences": {},
  "deployedLinkReferences": {}
}