{
  "_format": "hh-sol-artifact-1",
  "contractName": "Common",
  "sourceName": "contracts/common/lib/Common.sol",
  "abi": [
    {
      "constant": true,
      "inputs": [
        {
          "internalType": "bytes",
          "name": "v",
          "type": "bytes"
        },
        {
          "internalType": "uint16",
          "name": "chainId",
          "type": "uint16"
        }
      ],
      "name": "getV",
      "outputs": [
        {
          "internalType": "uint8",
          "name": "",
          "type": "uint8"
        }
      ],
      "payable": false,
      "stateMutability": "pure",
      "type": "function"
    },
    {
      "constant": true,
      "inputs": [
        {
          "internalType": "address",
          "name": "_addr",
          "type": "address"
        }
      ],
      "name": "isContract",
      "outputs": [
        {
          "internalType": "bool",
          "name": "",
          "type": "bool"
        }
      ],
      "payable": false,
      "stateMutability": "view",
      "type": "function"
    },
    {
      "constant": true,
      "inputs": [
        {
          "internalType": "bytes",
          "name": "_arg",
          "type": "bytes"
        }
      ],
      "name": "toUint16",
      "outputs": [
        {
          "internalType": "uint16",
          "name": "",
          "type": "uint16"
        }
      ],
      "payable": false,
      "stateMutability": "pure",
      "type": "function"
    },
    {
      "constant": true,
      "inputs": [
        {
          "internalType": "bytes",
          "name": "_arg",
          "type": "bytes"
        }
      ],
      "name": "toUint8",
      "outputs": [
        {
          "internalType": "uint8",
          "name": "",
          "type": "uint8"
        }
      ],
      "payable": false,
      "stateMutability": "pure",
      "type": "function"
    }
  ],
  "bytecode": "0x610578610026600b82828239805160001a60731461001957fe5b30600052607381538281f3fe73000000000000000000000000000000000000000030146080604052600436106100565760003560e01c8063162790551461005b5780634d66a2ae146100b75780637ae93b191461018e578063b40b539b14610263575b600080fd5b61009d6004803603602081101561007157600080fd5b81019080803573ffffffffffffffffffffffffffffffffffffffff169060200190929190505050610346565b604051808215151515815260200191505060405180910390f35b610170600480360360208110156100cd57600080fd5b81019080803590602001906401000000008111156100ea57600080fd5b8201836020820111156100fc57600080fd5b8035906020019184600183028401116401000000008311171561011e57600080fd5b91908080601f016020809104026020016040519081016040528093929190818152602001838380828437600081840152601f19601f820116905080830192505050505050509192919290505050610359565b604051808261ffff1661ffff16815260200191505060405180910390f35b610247600480360360208110156101a457600080fd5b81019080803590602001906401000000008111156101c157600080fd5b8201836020820111156101d357600080fd5b803590602001918460018302840111640100000000831117156101f557600080fd5b91908080601f016020809104026020016040519081016040528093929190818152602001838380828437600081840152601f19601f8201169050808301925050505050505091929192905050506103a7565b604051808260ff1660ff16815260200191505060405180910390f35b61032a6004803603604081101561027957600080fd5b810190808035906020019064010000000081111561029657600080fd5b8201836020820111156102a857600080fd5b803590602001918460018302840111640100000000831117156102ca57600080fd5b91908080601f016020809104026020016040519081016040528093929190818152602001838380828437600081840152601f19601f820116905080830192505050505050509192919290803561ffff1690602001909291905050506103cb565b604051808260ff1660ff16815260200191505060405180910390f35b600080823b905060008111915050919050565b60008160018151811061036857fe5b602001015160f81c60f81b60f81c60ff1660088360008151811061038857fe5b602001015160f81c60f81b60f81c60ff1661ffff16901b179050919050565b6000816000815181106103b657fe5b602001015160f81c60f81b60f81c9050919050565b6000808261ffff1611156103ff5760086002830261ffff166103f66103ef8661041b565b6000610471565b03039050610415565b61041261040b8461041b565b6000610471565b90505b92915050565b60608061042a60208451610499565b6040519080825280601f01601f19166020018201604052801561045c5781602001600182028038833980820191505090505b50905061046981846104b9565b915050919050565b6000602082018351101561048457600080fd5b60008260208501015190508091505092915050565b6000828211156104a857600080fd5b600082840390508091505092915050565b6060806040519050835180825260208201818101602087015b818310156104ef57805183526020830192506020810190506104d2565b50855192508351830184528091508282019050602086015b818310156105245780518352602083019250602081019050610507565b50601f19601f885185011583010116604052505050809150509291505056fea265627a7a7231582096ce087ed75b6c89885143ea98bbb9bffc16aca0adb75f311f999504e215ec3364736f6c63430005110032",
  "linkReferences": {},
  "deployedLinkReferences": {}
}