{
  "_format": "hh-sol-artifact-1",
  "contractName": "ERC721PredicateBurnOnly",
  "sourceName": "contracts/root/predicates/ERC721PredicateBurnOnly.sol",
  "abi": [
    {
      "inputs": [
        {
          "internalType": "address",
          "name": "_withdrawManager",
          "type": "address"
        },
        {
          "internalType": "address",
          "name": "_depositManager",
          "type": "address"
        }
      ],
      "payable": false,
      "stateMutability": "nonpayable",
      "type": "constructor"
    },
    {
      "constant": true,
      "inputs": [],
      "name": "CHAINID",
      "outputs": [
        {
          "internalType": "uint256",
          "name": "",
          "type": "uint256"
        }
      ],
      "payable": false,
      "stateMutability": "view",
      "type": "function"
    },
    {
      "constant": true,
      "inputs": [
        {
          "internalType": "bytes",
          "name": "state",
          "type": "bytes"
        }
      ],
      "name": "interpretStateUpdate",
      "outputs": [
        {
          "internalType": "bytes",
          "name": "b",
          "type": "bytes"
        }
      ],
      "payable": false,
      "stateMutability": "view",
      "type": "function"
    },
    {
      "constant": true,
      "inputs": [],
      "name": "networkId",
      "outputs": [
        {
          "internalType": "bytes",
          "name": "",
          "type": "bytes"
        }
      ],
      "payable": false,
      "stateMutability": "view",
      "type": "function"
    },
    {
      "constant": false,
      "inputs": [
        {
          "internalType": "bytes",
          "name": "data",
          "type": "bytes"
        }
      ],
      "name": "onFinalizeExit",
      "outputs": [],
      "payable": false,
      "stateMutability": "nonpayable",
      "type": "function"
    },
    {
      "constant": false,
      "inputs": [
        {
          "internalType": "bytes",
          "name": "data",
          "type": "bytes"
        }
      ],
      "name": "startExitWithBurntTokens",
      "outputs": [
        {
          "internalType": "bytes",
          "name": "",
          "type": "bytes"
        }
      ],
      "payable": false,
      "stateMutability": "nonpayable",
      "type": "function"
    },
    {
      "constant": false,
      "inputs": [
        {
          "internalType": "bytes",
          "name": "exit",
          "type": "bytes"
        },
        {
          "internalType": "bytes",
          "name": "inputUtxo",
          "type": "bytes"
        },
        {
          "internalType": "bytes",
          "name": "challengeData",
          "type": "bytes"
        }
      ],
      "name": "verifyDeprecation",
      "outputs": [
        {
          "internalType": "bool",
          "name": "",
          "type": "bool"
        }
      ],
      "payable": false,
      "stateMutability": "nonpayable",
      "type": "function"
    }
  ],
  "bytecode": "0x608060405234801561001057600080fd5b506040516114213803806114218339818101604052604081101561003357600080fd5b8101908080519060200190929190805190602001909291905050508181816000806101000a81548173ffffffffffffffffffffffffffffffffffffffff021916908373ffffffffffffffffffffffffffffffffffffffff16021790555080600160006101000a81548173ffffffffffffffffffffffffffffffffffffffff021916908373ffffffffffffffffffffffffffffffffffffffff1602179055505050505061133d806100e46000396000f3fe608060405234801561001057600080fd5b50600436106100625760003560e01c80637bd94e03146100675780637c5264b4146100e057806382e3464c146102145780639025e64c14610306578063cc79f97b14610389578063ec58410c146103a7575b600080fd5b6100de6004803603602081101561007d57600080fd5b810190808035906020019064010000000081111561009a57600080fd5b8201836020820111156100ac57600080fd5b803590602001918460018302840111640100000000831117156100ce57600080fd5b90919293919293905050506104e2565b005b610199600480360360208110156100f657600080fd5b810190808035906020019064010000000081111561011357600080fd5b82018360208201111561012557600080fd5b8035906020019184600183028401116401000000008311171561014757600080fd5b91908080601f016020809104026020016040519081016040528093929190818152602001838380828437600081840152601f19601f8201169050808301925050505050505091929192905050506106f9565b6040518080602001828103825283818151815260200191508051906020019080838360005b838110156101d95780820151818401526020810190506101be565b50505050905090810190601f1680156102065780820380516001836020036101000a031916815260200191505b509250505060405180910390f35b61028b6004803603602081101561022a57600080fd5b810190808035906020019064010000000081111561024757600080fd5b82018360208201111561025957600080fd5b8035906020019184600183028401116401000000008311171561027b57600080fd5b9091929391929390505050610d1e565b6040518080602001828103825283818151815260200191508051906020019080838360005b838110156102cb5780820151818401526020810190506102b0565b50505050905090810190601f1680156102f85780820380516001836020036101000a031916815260200191505b509250505060405180910390f35b61030e610d26565b6040518080602001828103825283818151815260200191508051906020019080838360005b8381101561034e578082015181840152602081019050610333565b50505050905090810190601f16801561037b5780820380516001836020036101000a031916815260200191505b509250505060405180910390f35b610391610d5f565b6040518082815260200191505060405180910390f35b6104c8600480360360608110156103bd57600080fd5b81019080803590602001906401000000008111156103da57600080fd5b8201836020820111156103ec57600080fd5b8035906020019184600183028401116401000000008311171561040e57600080fd5b90919293919293908035906020019064010000000081111561042f57600080fd5b82018360208201111561044157600080fd5b8035906020019184600183028401116401000000008311171561046357600080fd5b90919293919293908035906020019064010000000081111561048457600080fd5b82018360208201111561049657600080fd5b803590602001918460018302840111640100000000831117156104b857600080fd5b9091929391929390505050610d66565b604051808215151515815260200191505060405180910390f35b6000809054906101000a900473ffffffffffffffffffffffffffffffffffffffff1673ffffffffffffffffffffffffffffffffffffffff163373ffffffffffffffffffffffffffffffffffffffff16146105a4576040517f08c379a00000000000000000000000000000000000000000000000000000000081526004018080602001828103825260158152602001807f4f4e4c595f57495448445241575f4d414e41474552000000000000000000000081525060200191505060405180910390fd5b60008060006105f685858080601f016020809104026020016040519081016040528093929190818152602001838380828437600081840152601f19601f82011690508083019250505050505050610d72565b93509350935050600160009054906101000a900473ffffffffffffffffffffffffffffffffffffffff1673ffffffffffffffffffffffffffffffffffffffff166349f4cc178484846040518463ffffffff1660e01b8152600401808473ffffffffffffffffffffffffffffffffffffffff1673ffffffffffffffffffffffffffffffffffffffff1681526020018373ffffffffffffffffffffffffffffffffffffffff1673ffffffffffffffffffffffffffffffffffffffff1681526020018281526020019350505050600060405180830381600087803b1580156106da57600080fd5b505af11580156106ee573d6000803e3d6000fd5b505050505050505050565b60608061070d61070884610dd9565b610e07565b9050606061072e8260068151811061072157fe5b6020026020010151610ee4565b9050606061074361073e83610dd9565b610e07565b905060008060009054906101000a900473ffffffffffffffffffffffffffffffffffffffff1673ffffffffffffffffffffffffffffffffffffffff1663ad1d8069876000806040518463ffffffff1660e01b815260040180806020018460ff16815260200183151515158152602001828103825285818151815260200191508051906020019080838360005b838110156107ea5780820151818401526020810190506107cf565b50505050905090810190601f1680156108175780820380516001836020036101000a031916815260200191505b5094505050505060206040518083038186803b15801561083657600080fd5b505afa15801561084a573d6000803e3d6000fd5b505050506040513d602081101561086057600080fd5b8101908080519060200190929190505050905060006108928560098151811061088557fe5b6020026020010151610f5e565b9050600a811061090a576040517f08c379a000000000000000000000000000000000000000000000000000000000815260040180806020018281038252601b8152602001807f537570706f7274696e672061206d6178206f66203130206c6f6773000000000081525060200191505060405180910390fd5b61094261092a8460038151811061091d57fe5b6020026020010151610e07565b828151811061093557fe5b6020026020010151610e07565b925060006109638460008151811061095657fe5b6020026020010151610fb8565b905060606109848560028151811061097757fe5b6020026020010151610ee4565b90506109a38560018151811061099657fe5b6020026020010151610e07565b94507f9b1bfa7fa9ee420a16e124f794c35ac9f90472acc99140eb2f6447c714cad8eb60001b6109e6866000815181106109d957fe5b6020026020010151610f5e565b60001b14610a5c576040517f08c379a000000000000000000000000000000000000000000000000000000000815260040180806020018281038252601e8152602001807f4e6f742061207769746864726177206576656e74207369676e6174757265000081525060200191505060405180910390fd5b6000610a7b86600181518110610a6e57fe5b6020026020010151610f5e565b9050610a9a86600281518110610a8d57fe5b6020026020010151610f5e565b73ffffffffffffffffffffffffffffffffffffffff163373ffffffffffffffffffffffffffffffffffffffff1614610b1d576040517f08c379a00000000000000000000000000000000000000000000000000000000081526004018080602001828103825260288152602001806112e16028913960400191505060405180910390fd5b6000610b2a836000610fdb565b90506000600187901b90506000809054906101000a900473ffffffffffffffffffffffffffffffffffffffff1673ffffffffffffffffffffffffffffffffffffffff1663d931a869338786866000801b6001886040518863ffffffff1660e01b8152600401808873ffffffffffffffffffffffffffffffffffffffff1673ffffffffffffffffffffffffffffffffffffffff1681526020018773ffffffffffffffffffffffffffffffffffffffff1673ffffffffffffffffffffffffffffffffffffffff1681526020018673ffffffffffffffffffffffffffffffffffffffff1673ffffffffffffffffffffffffffffffffffffffff16815260200185815260200184815260200183151515158152602001828152602001975050505050505050600060405180830381600087803b158015610c6557600080fd5b505af1158015610c79573d6000803e3d6000fd5b5050505082828683604051602001808573ffffffffffffffffffffffffffffffffffffffff1673ffffffffffffffffffffffffffffffffffffffff1681526020018481526020018373ffffffffffffffffffffffffffffffffffffffff1673ffffffffffffffffffffffffffffffffffffffff1681526020018281526020019450505050506040516020818303038152906040529a5050505050505050505050919050565b606092915050565b6040518060400160405280600381526020017f013881000000000000000000000000000000000000000000000000000000000081525081565b6201388181565b60009695505050505050565b600080600080848060200190516080811015610d8d57600080fd5b8101908080519060200190929190805190602001909291908051906020019092919080519060200190929190505050829250819150809450819550829650839750505050509193509193565b610de16112ac565b600060208301905060405180604001604052808451815260200182815250915050919050565b6060610e1282611003565b610e1b57600080fd5b6000610e2683611051565b9050606081604051908082528060200260200182016040528015610e6457816020015b610e516112c6565b815260200190600190039081610e495790505b5090506000610e7685602001516110c2565b8560200151019050600080600090505b84811015610ed757610e978361114b565b9150604051806040016040528083815260200184815250848281518110610eba57fe5b602002602001018190525081830192508080600101915050610e86565b5082945050505050919050565b60606000826000015111610ef757600080fd5b600080610f0384611203565b915091506060816040519080825280601f01601f191660200182016040528015610f3c5781602001600182028038833980820191505090505b5090506000816020019050610f5284828561123b565b81945050505050919050565b6000808260000151118015610f7857506021826000015111155b610f8157600080fd5b600080610f8d84611203565b915091506000825190506020821015610fad57816020036101000a810490505b809350505050919050565b60006015826000015114610fcb57600080fd5b610fd482610f5e565b9050919050565b60006020820183511015610fee57600080fd5b60008260208501015190508091505092915050565b6000808260000151141561101a576000905061104c565b60008083602001519050805160001a915060c060ff168260ff1610156110455760009250505061104c565b6001925050505b919050565b6000808260000151141561106857600090506110bd565b6000809050600061107c84602001516110c2565b84602001510190506000846000015185602001510190505b808210156110b6576110a58261114b565b820191508280600101935050611094565b8293505050505b919050565b600080825160001a9050608060ff168110156110e2576000915050611146565b60b860ff16811080611107575060c060ff168110158015611106575060f860ff1681105b5b15611116576001915050611146565b60c060ff168110156111365760018060b80360ff16820301915050611146565b60018060f80360ff168203019150505b919050565b6000806000835160001a9050608060ff1681101561116c57600191506111f9565b60b860ff16811015611189576001608060ff1682030191506111f8565b60c060ff168110156111b95760b78103600185019450806020036101000a855104600182018101935050506111f7565b60f860ff168110156111d657600160c060ff1682030191506111f6565b60f78103600185019450806020036101000a855104600182018101935050505b5b5b5b8192505050919050565b600080600061121584602001516110c2565b905060008185602001510190506000828660000151039050818194509450505050915091565b6000811415611249576112a7565b5b602060ff1681106112795782518252602060ff1683019250602060ff1682019150602060ff168103905061124a565b60008111156112a6576000600182602060ff16036101000a03905080198451168184511681811785525050505b5b505050565b604051806040016040528060008152602001600081525090565b60405180604001604052806000815260200160008152509056fe5769746864726177657220616e64206275726e206578697420747820646f206e6f74206d61746368a265627a7a723158200430663ccf55755e19b612d87d5df7660fc73a7775673a287949d212c5b647d064736f6c63430005110032",
  "linkReferences": {},
  "deployedLinkReferences": {}
}