{
  "_format": "hh-sol-artifact-1",
  "contractName": "DepositManager",
  "sourceName": "contracts/root/depositManager/DepositManager.sol",
  "abi": [
    {
      "inputs": [],
      "payable": false,
      "stateMutability": "nonpayable",
      "type": "constructor"
    },
    {
      "anonymous": false,
      "inputs": [
        {
          "indexed": true,
          "internalType": "uint256",
          "name": "oldLimit",
          "type": "uint256"
        },
        {
          "indexed": true,
          "internalType": "uint256",
          "name": "newLimit",
          "type": "uint256"
        }
      ],
      "name": "MaxErc20DepositUpdate",
      "type": "event"
    },
    {
      "anonymous": false,
      "inputs": [
        {
          "indexed": true,
          "internalType": "address",
          "name": "owner",
          "type": "address"
        },
        {
          "indexed": true,
          "internalType": "address",
          "name": "token",
          "type": "address"
        },
        {
          "indexed": false,
          "internalType": "uint256",
          "name": "amountOrNFTId",
          "type": "uint256"
        },
        {
          "indexed": false,
          "internalType": "uint256",
          "name": "depositBlockId",
          "type": "uint256"
        }
      ],
      "name": "NewDepositBlock",
      "type": "event"
    },
    {
      "anonymous": false,
      "inputs": [
        {
          "indexed": true,
          "internalType": "address",
          "name": "previousOwner",
          "type": "address"
        },
        {
          "indexed": true,
          "internalType": "address",
          "name": "newOwner",
          "type": "address"
        }
      ],
      "name": "OwnershipTransferred",
      "type": "event"
    },
    {
      "payable": true,
      "stateMutability": "payable",
      "type": "fallback"
    },
    {
      "constant": true,
      "inputs": [],
      "name": "childChain",
      "outputs": [
        {
          "internalType": "address",
          "name": "",
          "type": "address"
        }
      ],
      "payable": false,
      "stateMutability": "view",
      "type": "function"
    },
    {
      "constant": false,
      "inputs": [
        {
          "internalType": "address[]",
          "name": "_tokens",
          "type": "address[]"
        },
        {
          "internalType": "uint256[]",
          "name": "_amountOrTokens",
          "type": "uint256[]"
        },
        {
          "internalType": "address",
          "name": "_user",
          "type": "address"
        }
      ],
      "name": "depositBulk",
      "outputs": [],
      "payable": false,
      "stateMutability": "nonpayable",
      "type": "function"
    },
    {
      "constant": false,
      "inputs": [
        {
          "internalType": "address",
          "name": "_token",
          "type": "address"
        },
        {
          "internalType": "uint256",
          "name": "_amount",
          "type": "uint256"
        }
      ],
      "name": "depositERC20",
      "outputs": [],
      "payable": false,
      "stateMutability": "nonpayable",
      "type": "function"
    },
    {
      "constant": false,
      "inputs": [
        {
          "internalType": "address",
          "name": "_token",
          "type": "address"
        },
        {
          "internalType": "address",
          "name": "_user",
          "type": "address"
        },
        {
          "internalType": "uint256",
          "name": "_amount",
          "type": "uint256"
        }
      ],
      "name": "depositERC20ForUser",
      "outputs": [],
      "payable": false,
      "stateMutability": "nonpayable",
      "type": "function"
    },
    {
      "constant": false,
      "inputs": [
        {
          "internalType": "address",
          "name": "_token",
          "type": "address"
        },
        {
          "internalType": "uint256",
          "name": "_tokenId",
          "type": "uint256"
        }
      ],
      "name": "depositERC721",
      "outputs": [],
      "payable": false,
      "stateMutability": "nonpayable",
      "type": "function"
    },
    {
      "constant": false,
      "inputs": [
        {
          "internalType": "address",
          "name": "_token",
          "type": "address"
        },
        {
          "internalType": "address",
          "name": "_user",
          "type": "address"
        },
        {
          "internalType": "uint256",
          "name": "_tokenId",
          "type": "uint256"
        }
      ],
      "name": "depositERC721ForUser",
      "outputs": [],
      "payable": false,
      "stateMutability": "nonpayable",
      "type": "function"
    },
    {
      "constant": false,
      "inputs": [],
      "name": "depositEther",
      "outputs": [],
      "payable": true,
      "stateMutability": "payable",
      "type": "function"
    },
    {
      "constant": true,
      "inputs": [
        {
          "internalType": "uint256",
          "name": "",
          "type": "uint256"
        }
      ],
      "name": "deposits",
      "outputs": [
        {
          "internalType": "bytes32",
          "name": "depositHash",
          "type": "bytes32"
        },
        {
          "internalType": "uint256",
          "name": "createdAt",
          "type": "uint256"
        }
      ],
      "payable": false,
      "stateMutability": "view",
      "type": "function"
    },
    {
      "constant": true,
      "inputs": [],
      "name": "governance",
      "outputs": [
        {
          "internalType": "contract IGovernance",
          "name": "",
          "type": "address"
        }
      ],
      "payable": false,
      "stateMutability": "view",
      "type": "function"
    },
    {
      "constant": true,
      "inputs": [],
      "name": "isOwner",
      "outputs": [
        {
          "internalType": "bool",
          "name": "",
          "type": "bool"
        }
      ],
      "payable": false,
      "stateMutability": "view",
      "type": "function"
    },
    {
      "constant": false,
      "inputs": [],
      "name": "lock",
      "outputs": [],
      "payable": false,
      "stateMutability": "nonpayable",
      "type": "function"
    },
    {
      "constant": true,
      "inputs": [],
      "name": "locked",
      "outputs": [
        {
          "internalType": "bool",
          "name": "",
          "type": "bool"
        }
      ],
      "payable": false,
      "stateMutability": "view",
      "type": "function"
    },
    {
      "constant": true,
      "inputs": [],
      "name": "maxErc20Deposit",
      "outputs": [
        {
          "internalType": "uint256",
          "name": "",
          "type": "uint256"
        }
      ],
      "payable": false,
      "stateMutability": "view",
      "type": "function"
    },
    {
      "constant": false,
      "inputs": [
        {
          "internalType": "address",
          "name": "",
          "type": "address"
        },
        {
          "internalType": "address",
          "name": "_user",
          "type": "address"
        },
        {
          "internalType": "uint256",
          "name": "_tokenId",
          "type": "uint256"
        },
        {
          "internalType": "bytes",
          "name": "",
          "type": "bytes"
        }
      ],
      "name": "onERC721Received",
      "outputs": [
        {
          "internalType": "bytes4",
          "name": "",
          "type": "bytes4"
        }
      ],
      "payable": false,
      "stateMutability": "nonpayable",
      "type": "function"
    },
    {
      "constant": true,
      "inputs": [],
      "name": "owner",
      "outputs": [
        {
          "internalType": "address",
          "name": "",
          "type": "address"
        }
      ],
      "payable": false,
      "stateMutability": "view",
      "type": "function"
    },
    {
      "constant": true,
      "inputs": [],
      "name": "registry",
      "outputs": [
        {
          "internalType": "contract Registry",
          "name": "",
          "type": "address"
        }
      ],
      "payable": false,
      "stateMutability": "view",
      "type": "function"
    },
    {
      "constant": false,
      "inputs": [],
      "name": "renounceOwnership",
      "outputs": [],
      "payable": false,
      "stateMutability": "nonpayable",
      "type": "function"
    },
    {
      "constant": true,
      "inputs": [],
      "name": "rootChain",
      "outputs": [
        {
          "internalType": "contract RootChain",
          "name": "",
          "type": "address"
        }
      ],
      "payable": false,
      "stateMutability": "view",
      "type": "function"
    },
    {
      "constant": true,
      "inputs": [],
      "name": "stateSender",
      "outputs": [
        {
          "internalType": "contract StateSender",
          "name": "",
          "type": "address"
        }
      ],
      "payable": false,
      "stateMutability": "view",
      "type": "function"
    },
    {
      "constant": false,
      "inputs": [
        {
          "internalType": "address",
          "name": "_user",
          "type": "address"
        },
        {
          "internalType": "uint256",
          "name": "_amount",
          "type": "uint256"
        },
        {
          "internalType": "bytes",
          "name": "",
          "type": "bytes"
        }
      ],
      "name": "tokenFallback",
      "outputs": [],
      "payable": false,
      "stateMutability": "nonpayable",
      "type": "function"
    },
    {
      "constant": false,
      "inputs": [
        {
          "internalType": "address",
          "name": "_token",
          "type": "address"
        },
        {
          "internalType": "address",
          "name": "_user",
          "type": "address"
        },
        {
          "internalType": "uint256",
          "name": "_amountOrNFTId",
          "type": "uint256"
        }
      ],
      "name": "transferAssets",
      "outputs": [],
      "payable": false,
      "stateMutability": "nonpayable",
      "type": "function"
    },
    {
      "constant": false,
      "inputs": [
        {
          "internalType": "address",
          "name": "newOwner",
          "type": "address"
        }
      ],
      "name": "transferOwnership",
      "outputs": [],
      "payable": false,
      "stateMutability": "nonpayable",
      "type": "function"
    },
    {
      "constant": false,
      "inputs": [],
      "name": "unlock",
      "outputs": [],
      "payable": false,
      "stateMutability": "nonpayable",
      "type": "function"
    },
    {
      "constant": false,
      "inputs": [],
      "name": "updateChildChainAndStateSender",
      "outputs": [],
      "payable": false,
      "stateMutability": "nonpayable",
      "type": "function"
    },
    {
      "constant": false,
      "inputs": [
        {
          "internalType": "uint256",
          "name": "maxDepositAmount",
          "type": "uint256"
        }
      ],
      "name": "updateMaxErc20Deposit",
      "outputs": [],
      "payable": false,
      "stateMutability": "nonpayable",
      "type": "function"
    },
    {
      "constant": false,
      "inputs": [
        {
          "internalType": "address",
          "name": "_rootChain",
          "type": "address"
        }
      ],
      "name": "updateRootChain",
      "outputs": [],
      "payable": false,
      "stateMutability": "nonpayable",
      "type": "function"
    }
  ],
  "bytecode": "0x608060405268056bc75e2d6310000060085534801561001d57600080fd5b50600080336000806101000a81548173ffffffffffffffffffffffffffffffffffffffff021916908373ffffffffffffffffffffffffffffffffffffffff1602179055506000809054906101000a900473ffffffffffffffffffffffffffffffffffffffff1673ffffffffffffffffffffffffffffffffffffffff16600073ffffffffffffffffffffffffffffffffffffffff167f8be0079c531659141344cd1fd0a4f28419497f9722a3daafe3b4186f6b6457e060405160405180910390a380600260006101000a81548173ffffffffffffffffffffffffffffffffffffffff021916908373ffffffffffffffffffffffffffffffffffffffff16021790555050506128738061012f6000396000f3fe6080604052600436106101815760003560e01c806397feb926116100d1578063cb10f94c1161008a578063e7af7ba111610064578063e7af7ba114610a4b578063f220371114610a76578063f2fde38b14610ac7578063f83d08ba14610b1857610181565b8063cb10f94c1461096a578063cf309012146109c1578063d29a4bf6146109f057610181565b806397feb9261461074f578063987ab9db146107aa57806398ea5fca14610801578063a69df4b51461080b578063b02c43d014610822578063c0ee0b8a1461087857610181565b80635aa6e6751161013e5780637b1f7117116101185780637b1f7117146105535780638b9e4f931461064e5780638da5cb5b146106c95780638f32d59b1461072057610181565b80635aa6e6751461048e578063715018a6146104e55780637b103999146104fc57610181565b8063072b15351461018b578063150b7a021461020657806342be83791461036a57806342fc47fb1461038157806349f4cc17146103d85780634b56c07114610453575b610189610b2f565b005b34801561019757600080fd5b50610204600480360360608110156101ae57600080fd5b81019080803573ffffffffffffffffffffffffffffffffffffffff169060200190929190803573ffffffffffffffffffffffffffffffffffffffff16906020019092919080359060200190929190505050610c4b565b005b34801561021257600080fd5b506103166004803603608081101561022957600080fd5b81019080803573ffffffffffffffffffffffffffffffffffffffff169060200190929190803573ffffffffffffffffffffffffffffffffffffffff169060200190929190803590602001909291908035906020019064010000000081111561029057600080fd5b8201836020820111156102a257600080fd5b803590602001918460018302840111640100000000831117156102c457600080fd5b91908080601f016020809104026020016040519081016040528093929190818152602001838380828437600081840152601f19601f820116905080830192505050505050509192919290505050610d2e565b60405180827bffffffffffffffffffffffffffffffffffffffffffffffffffffffff19167bffffffffffffffffffffffffffffffffffffffffffffffffffffffff1916815260200191505060405180910390f35b34801561037657600080fd5b5061037f610d4d565b005b34801561038d57600080fd5b50610396610f86565b604051808273ffffffffffffffffffffffffffffffffffffffff1673ffffffffffffffffffffffffffffffffffffffff16815260200191505060405180910390f35b3480156103e457600080fd5b50610451600480360360608110156103fb57600080fd5b81019080803573ffffffffffffffffffffffffffffffffffffffff169060200190929190803573ffffffffffffffffffffffffffffffffffffffff16906020019092919080359060200190929190505050610fac565b005b34801561045f57600080fd5b5061048c6004803603602081101561047657600080fd5b8101908080359060200190929190505050611581565b005b34801561049a57600080fd5b506104a36115d1565b604051808273ffffffffffffffffffffffffffffffffffffffff1673ffffffffffffffffffffffffffffffffffffffff16815260200191505060405180910390f35b3480156104f157600080fd5b506104fa6115f7565b005b34801561050857600080fd5b506105116116c7565b604051808273ffffffffffffffffffffffffffffffffffffffff1673ffffffffffffffffffffffffffffffffffffffff16815260200191505060405180910390f35b34801561055f57600080fd5b5061064c6004803603606081101561057657600080fd5b810190808035906020019064010000000081111561059357600080fd5b8201836020820111156105a557600080fd5b803590602001918460208302840111640100000000831117156105c757600080fd5b9091929391929390803590602001906401000000008111156105e857600080fd5b8201836020820111156105fa57600080fd5b8035906020019184602083028401116401000000008311171561061c57600080fd5b9091929391929390803573ffffffffffffffffffffffffffffffffffffffff1690602001909291905050506116ed565b005b34801561065a57600080fd5b506106c76004803603606081101561067157600080fd5b81019080803573ffffffffffffffffffffffffffffffffffffffff169060200190929190803573ffffffffffffffffffffffffffffffffffffffff16906020019092919080359060200190929190505050611c6c565b005b3480156106d557600080fd5b506106de611e5c565b604051808273ffffffffffffffffffffffffffffffffffffffff1673ffffffffffffffffffffffffffffffffffffffff16815260200191505060405180910390f35b34801561072c57600080fd5b50610735611e85565b604051808215151515815260200191505060405180910390f35b34801561075b57600080fd5b506107a86004803603604081101561077257600080fd5b81019080803573ffffffffffffffffffffffffffffffffffffffff16906020019092919080359060200190929190505050611edc565b005b3480156107b657600080fd5b506107bf611eeb565b604051808273ffffffffffffffffffffffffffffffffffffffff1673ffffffffffffffffffffffffffffffffffffffff16815260200191505060405180910390f35b610809610b2f565b005b34801561081757600080fd5b50610820611f11565b005b34801561082e57600080fd5b5061085b6004803603602081101561084557600080fd5b8101908080359060200190929190505050611f23565b604051808381526020018281526020019250505060405180910390f35b34801561088457600080fd5b506109686004803603606081101561089b57600080fd5b81019080803573ffffffffffffffffffffffffffffffffffffffff16906020019092919080359060200190929190803590602001906401000000008111156108e257600080fd5b8201836020820111156108f457600080fd5b8035906020019184600183028401116401000000008311171561091657600080fd5b91908080601f016020809104026020016040519081016040528093929190818152602001838380828437600081840152601f19601f820116905080830192505050505050509192919290505050611f47565b005b34801561097657600080fd5b5061097f611f57565b604051808273ffffffffffffffffffffffffffffffffffffffff1673ffffffffffffffffffffffffffffffffffffffff16815260200191505060405180910390f35b3480156109cd57600080fd5b506109d6611f7d565b604051808215151515815260200191505060405180910390f35b3480156109fc57600080fd5b50610a4960048036036040811015610a1357600080fd5b81019080803573ffffffffffffffffffffffffffffffffffffffff16906020019092919080359060200190929190505050611f90565b005b348015610a5757600080fd5b50610a60611f9f565b6040518082815260200191505060405180910390f35b348015610a8257600080fd5b50610ac560048036036020811015610a9957600080fd5b81019080803573ffffffffffffffffffffffffffffffffffffffff169060200190929190505050611fa5565b005b348015610ad357600080fd5b50610b1660048036036020811015610aea57600080fd5b81019080803573ffffffffffffffffffffffffffffffffffffffff169060200190929190505050611ffa565b005b348015610b2457600080fd5b50610b2d612017565b005b6000600360009054906101000a900473ffffffffffffffffffffffffffffffffffffffff1673ffffffffffffffffffffffffffffffffffffffff16638b9c94896040518163ffffffff1660e01b815260040160206040518083038186803b158015610b9957600080fd5b505afa158015610bad573d6000803e3d6000fd5b505050506040513d6020811015610bc357600080fd5b8101908080519060200190929190505050905060008190508073ffffffffffffffffffffffffffffffffffffffff1663d0e30db0346040518263ffffffff1660e01b81526004016000604051808303818588803b158015610c2357600080fd5b505af1158015610c37573d6000803e3d6000fd5b5050505050610c47338334612029565b5050565b8273ffffffffffffffffffffffffffffffffffffffff166323b872dd3330846040518463ffffffff1660e01b8152600401808473ffffffffffffffffffffffffffffffffffffffff1673ffffffffffffffffffffffffffffffffffffffff1681526020018373ffffffffffffffffffffffffffffffffffffffff1673ffffffffffffffffffffffffffffffffffffffff1681526020018281526020019350505050600060405180830381600087803b158015610d0657600080fd5b505af1158015610d1a573d6000803e3d6000fd5b50505050610d29828483612029565b505050565b6000610d3b843385612029565b63150b7a0260e01b9050949350505050565b600080600360009054906101000a900473ffffffffffffffffffffffffffffffffffffffff1673ffffffffffffffffffffffffffffffffffffffff1663648b81786040518163ffffffff1660e01b8152600401604080518083038186803b158015610db757600080fd5b505afa158015610dcb573d6000803e3d6000fd5b505050506040513d6040811015610de157600080fd5b81019080805190602001909291908051906020019092919050505091509150600560009054906101000a900473ffffffffffffffffffffffffffffffffffffffff1673ffffffffffffffffffffffffffffffffffffffff168173ffffffffffffffffffffffffffffffffffffffff16141580610eab5750600760009054906101000a900473ffffffffffffffffffffffffffffffffffffffff1673ffffffffffffffffffffffffffffffffffffffff168273ffffffffffffffffffffffffffffffffffffffff1614155b610f00576040517f08c379a000000000000000000000000000000000000000000000000000000000815260040180806020018281038252603e8152602001806127db603e913960400191505060405180910390fd5b81600760006101000a81548173ffffffffffffffffffffffffffffffffffffffff021916908373ffffffffffffffffffffffffffffffffffffffff16021790555080600560006101000a81548173ffffffffffffffffffffffffffffffffffffffff021916908373ffffffffffffffffffffffffffffffffffffffff1602179055505050565b600760009054906101000a900473ffffffffffffffffffffffffffffffffffffffff1681565b6000600360009054906101000a900473ffffffffffffffffffffffffffffffffffffffff1673ffffffffffffffffffffffffffffffffffffffff166337b1d585336040518263ffffffff1660e01b8152600401808273ffffffffffffffffffffffffffffffffffffffff1673ffffffffffffffffffffffffffffffffffffffff16815260200191505060206040518083038186803b15801561104d57600080fd5b505afa158015611061573d6000803e3d6000fd5b505050506040513d602081101561107757600080fd5b8101908080519060200190929190505050600381111561109357fe5b60ff16141561110a576040517f08c379a00000000000000000000000000000000000000000000000000000000081526004018080602001828103825260158152602001807f4e6f7420612076616c696420707265646963617465000000000000000000000081525060200191505060405180910390fd5b6000600360009054906101000a900473ffffffffffffffffffffffffffffffffffffffff1673ffffffffffffffffffffffffffffffffffffffff16638b9c94896040518163ffffffff1660e01b815260040160206040518083038186803b15801561117457600080fd5b505afa158015611188573d6000803e3d6000fd5b505050506040513d602081101561119e57600080fd5b81019080805190602001909291905050509050600360009054906101000a900473ffffffffffffffffffffffffffffffffffffffff1673ffffffffffffffffffffffffffffffffffffffff1663daa09e54856040518263ffffffff1660e01b8152600401808273ffffffffffffffffffffffffffffffffffffffff1673ffffffffffffffffffffffffffffffffffffffff16815260200191505060206040518083038186803b15801561125057600080fd5b505afa158015611264573d6000803e3d6000fd5b505050506040513d602081101561127a57600080fd5b810190808051906020019092919050505015611368578373ffffffffffffffffffffffffffffffffffffffff166323b872dd3085856040518463ffffffff1660e01b8152600401808473ffffffffffffffffffffffffffffffffffffffff1673ffffffffffffffffffffffffffffffffffffffff1681526020018373ffffffffffffffffffffffffffffffffffffffff1673ffffffffffffffffffffffffffffffffffffffff1681526020018281526020019350505050600060405180830381600087803b15801561134b57600080fd5b505af115801561135f573d6000803e3d6000fd5b5050505061157b565b8073ffffffffffffffffffffffffffffffffffffffff168473ffffffffffffffffffffffffffffffffffffffff1614156114455760008490508073ffffffffffffffffffffffffffffffffffffffff1662f714ce84866040518363ffffffff1660e01b8152600401808381526020018273ffffffffffffffffffffffffffffffffffffffff1673ffffffffffffffffffffffffffffffffffffffff16815260200192505050600060405180830381600087803b15801561142757600080fd5b505af115801561143b573d6000803e3d6000fd5b505050505061157a565b8373ffffffffffffffffffffffffffffffffffffffff1663a9059cbb84846040518363ffffffff1660e01b8152600401808373ffffffffffffffffffffffffffffffffffffffff1673ffffffffffffffffffffffffffffffffffffffff16815260200182815260200192505050602060405180830381600087803b1580156114cc57600080fd5b505af11580156114e0573d6000803e3d6000fd5b505050506040513d60208110156114f657600080fd5b8101908080519060200190929190505050611579576040517f08c379a000000000000000000000000000000000000000000000000000000000815260040180806020018281038252600f8152602001807f5452414e534645525f4641494c4544000000000000000000000000000000000081525060200191505060405180910390fd5b5b5b50505050565b611589612240565b600081141561159757600080fd5b806008547f010c0265813c273963aa5e8683cf5c45a3b744ba6369c22af0958ec5fcf16b2060405160405180910390a38060088190555050565b600260009054906101000a900473ffffffffffffffffffffffffffffffffffffffff1681565b6115ff611e85565b61160857600080fd5b600073ffffffffffffffffffffffffffffffffffffffff166000809054906101000a900473ffffffffffffffffffffffffffffffffffffffff1673ffffffffffffffffffffffffffffffffffffffff167f8be0079c531659141344cd1fd0a4f28419497f9722a3daafe3b4186f6b6457e060405160405180910390a360008060006101000a81548173ffffffffffffffffffffffffffffffffffffffff021916908373ffffffffffffffffffffffffffffffffffffffff160217905550565b600360009054906101000a900473ffffffffffffffffffffffffffffffffffffffff1681565b6116f56122e8565b828290508585905014611770576040517f08c379a000000000000000000000000000000000000000000000000000000000815260040180806020018281038252600d8152602001807f496e76616c696420496e7075740000000000000000000000000000000000000081525060200191505060405180910390fd5b6000600460009054906101000a900473ffffffffffffffffffffffffffffffffffffffff1673ffffffffffffffffffffffffffffffffffffffff16635391f483878790506040518263ffffffff1660e01b815260040180828152602001915050602060405180830381600087803b1580156117ea57600080fd5b505af11580156117fe573d6000803e3d6000fd5b505050506040513d602081101561181457600080fd5b810190808051906020019092919050505090506000600360009054906101000a900473ffffffffffffffffffffffffffffffffffffffff16905060008090505b87879050811015611c62578173ffffffffffffffffffffffffffffffffffffffff166301f07db589898481811061188757fe5b9050602002013573ffffffffffffffffffffffffffffffffffffffff166040518263ffffffff1660e01b8152600401808273ffffffffffffffffffffffffffffffffffffffff1673ffffffffffffffffffffffffffffffffffffffff16815260200191505060206040518083038186803b15801561190457600080fd5b505afa158015611918573d6000803e3d6000fd5b505050506040513d602081101561192e57600080fd5b810190808051906020019092919050505015611a565787878281811061195057fe5b9050602002013573ffffffffffffffffffffffffffffffffffffffff1673ffffffffffffffffffffffffffffffffffffffff166323b872dd333089898681811061199657fe5b905060200201356040518463ffffffff1660e01b8152600401808473ffffffffffffffffffffffffffffffffffffffff1673ffffffffffffffffffffffffffffffffffffffff1681526020018373ffffffffffffffffffffffffffffffffffffffff1673ffffffffffffffffffffffffffffffffffffffff1681526020018281526020019350505050600060405180830381600087803b158015611a3957600080fd5b505af1158015611a4d573d6000803e3d6000fd5b50505050611bf9565b878782818110611a6257fe5b9050602002013573ffffffffffffffffffffffffffffffffffffffff1673ffffffffffffffffffffffffffffffffffffffff166323b872dd3330898986818110611aa857fe5b905060200201356040518463ffffffff1660e01b8152600401808473ffffffffffffffffffffffffffffffffffffffff1673ffffffffffffffffffffffffffffffffffffffff1681526020018373ffffffffffffffffffffffffffffffffffffffff1673ffffffffffffffffffffffffffffffffffffffff1681526020018281526020019350505050602060405180830381600087803b158015611b4b57600080fd5b505af1158015611b5f573d6000803e3d6000fd5b505050506040513d6020811015611b7557600080fd5b8101908080519060200190929190505050611bf8576040517f08c379a00000000000000000000000000000000000000000000000000000000081526004018080602001828103825260158152602001807f544f4b454e5f5452414e534645525f4641494c4544000000000000000000000081525060200191505060405180910390fd5b5b611c3f84898984818110611c0957fe5b9050602002013573ffffffffffffffffffffffffffffffffffffffff16888885818110611c3257fe5b905060200201358661236d565b611c5360018461268a90919063ffffffff16565b92508080600101915050611854565b5050505050505050565b600854811115611ce4576040517f08c379a000000000000000000000000000000000000000000000000000000000815260040180806020018281038252601d8152602001807f657863656564206d6178696d756d206465706f73697420616d6f756e7400000081525060200191505060405180910390fd5b8273ffffffffffffffffffffffffffffffffffffffff166323b872dd3330846040518463ffffffff1660e01b8152600401808473ffffffffffffffffffffffffffffffffffffffff1673ffffffffffffffffffffffffffffffffffffffff1681526020018373ffffffffffffffffffffffffffffffffffffffff1673ffffffffffffffffffffffffffffffffffffffff1681526020018281526020019350505050602060405180830381600087803b158015611d9f57600080fd5b505af1158015611db3573d6000803e3d6000fd5b505050506040513d6020811015611dc957600080fd5b8101908080519060200190929190505050611e4c576040517f08c379a00000000000000000000000000000000000000000000000000000000081526004018080602001828103825260158152602001807f544f4b454e5f5452414e534645525f4641494c4544000000000000000000000081525060200191505060405180910390fd5b611e57828483612029565b505050565b60008060009054906101000a900473ffffffffffffffffffffffffffffffffffffffff16905090565b60008060009054906101000a900473ffffffffffffffffffffffffffffffffffffffff1673ffffffffffffffffffffffffffffffffffffffff163373ffffffffffffffffffffffffffffffffffffffff1614905090565b611ee7823383611c6c565b5050565b600460009054906101000a900473ffffffffffffffffffffffffffffffffffffffff1681565b611f19612240565b611f216126a9565b565b60066020528060005260406000206000915090508060000154908060010154905082565b611f52833384612029565b505050565b600560009054906101000a900473ffffffffffffffffffffffffffffffffffffffff1681565b600160149054906101000a900460ff1681565b611f9b823383610c4b565b5050565b60085481565b611fad611e85565b611fb657600080fd5b80600460006101000a81548173ffffffffffffffffffffffffffffffffffffffff021916908373ffffffffffffffffffffffffffffffffffffffff16021790555050565b612002611e85565b61200b57600080fd5b612014816126c6565b50565b61201f612240565b6120276127be565b565b6120316122e8565b81600360009054906101000a900473ffffffffffffffffffffffffffffffffffffffff1673ffffffffffffffffffffffffffffffffffffffff16636416c183826040518263ffffffff1660e01b8152600401808273ffffffffffffffffffffffffffffffffffffffff1673ffffffffffffffffffffffffffffffffffffffff16815260200191505060206040518083038186803b1580156120d157600080fd5b505afa1580156120e5573d6000803e3d6000fd5b505050506040513d60208110156120fb57600080fd5b810190808051906020019092919050505061217e576040517f08c379a00000000000000000000000000000000000000000000000000000000081526004018080602001828103825260138152602001807f544f4b454e5f4e4f545f535550504f525445440000000000000000000000000081525060200191505060405180910390fd5b61223a848484600460009054906101000a900473ffffffffffffffffffffffffffffffffffffffff1673ffffffffffffffffffffffffffffffffffffffff16635391f48360016040518263ffffffff1660e01b815260040180828152602001915050602060405180830381600087803b1580156121fa57600080fd5b505af115801561220e573d6000803e3d6000fd5b505050506040513d602081101561222457600080fd5b810190808051906020019092919050505061236d565b50505050565b600260009054906101000a900473ffffffffffffffffffffffffffffffffffffffff1673ffffffffffffffffffffffffffffffffffffffff163373ffffffffffffffffffffffffffffffffffffffff16146122e6576040517f08c379a00000000000000000000000000000000000000000000000000000000081526004018080602001828103825260268152602001806128196026913960400191505060405180910390fd5b565b600160149054906101000a900460ff161561236b576040517f08c379a00000000000000000000000000000000000000000000000000000000081526004018080602001828103825260068152602001807f6c6f636b6564000000000000000000000000000000000000000000000000000081525060200191505060405180910390fd5b565b6040518060400160405280858585604051602001808473ffffffffffffffffffffffffffffffffffffffff1673ffffffffffffffffffffffffffffffffffffffff1660601b81526014018373ffffffffffffffffffffffffffffffffffffffff1673ffffffffffffffffffffffffffffffffffffffff1660601b8152601401828152602001935050505060405160208183030381529060405280519060200120815260200142815250600660008381526020019081526020016000206000820151816000015560208201518160010155905050600560009054906101000a900473ffffffffffffffffffffffffffffffffffffffff1673ffffffffffffffffffffffffffffffffffffffff166316f19831600760009054906101000a900473ffffffffffffffffffffffffffffffffffffffff1686868686604051602001808573ffffffffffffffffffffffffffffffffffffffff1673ffffffffffffffffffffffffffffffffffffffff1681526020018473ffffffffffffffffffffffffffffffffffffffff1673ffffffffffffffffffffffffffffffffffffffff1681526020018381526020018281526020019450505050506040516020818303038152906040526040518363ffffffff1660e01b8152600401808373ffffffffffffffffffffffffffffffffffffffff1673ffffffffffffffffffffffffffffffffffffffff16815260200180602001828103825283818151815260200191508051906020019080838360005b838110156125b2578082015181840152602081019050612597565b50505050905090810190601f1680156125df5780820380516001836020036101000a031916815260200191505b509350505050600060405180830381600087803b1580156125ff57600080fd5b505af1158015612613573d6000803e3d6000fd5b505050508273ffffffffffffffffffffffffffffffffffffffff168473ffffffffffffffffffffffffffffffffffffffff167f1dadc8d0683c6f9824e885935c1bec6f76816730dcec148dda8cf25a7b9f797b8484604051808381526020018281526020019250505060405180910390a350505050565b60008082840190508381101561269f57600080fd5b8091505092915050565b6000600160146101000a81548160ff021916908315150217905550565b600073ffffffffffffffffffffffffffffffffffffffff168173ffffffffffffffffffffffffffffffffffffffff16141561270057600080fd5b8073ffffffffffffffffffffffffffffffffffffffff166000809054906101000a900473ffffffffffffffffffffffffffffffffffffffff1673ffffffffffffffffffffffffffffffffffffffff167f8be0079c531659141344cd1fd0a4f28419497f9722a3daafe3b4186f6b6457e060405160405180910390a3806000806101000a81548173ffffffffffffffffffffffffffffffffffffffff021916908373ffffffffffffffffffffffffffffffffffffffff16021790555050565b60018060146101000a81548160ff02191690831515021790555056fe41746c65617374206f6e65206f6620737461746553656e646572206f72206368696c64436861696e20616464726573732073686f756c64206368616e67654f6e6c7920676f7665726e616e636520636f6e747261637420697320617574686f72697a6564a265627a7a723158201ce1a31895ccb6acaaaab9a74b6f48632dfb49b560d8bdc3bb5158210a9e9d8564736f6c63430005110032",
  "linkReferences": {},
  "deployedLinkReferences": {}
}