{
  "contractName": "ChainIdMixin",
  "abi": [
    {
      "constant": true,
      "inputs": [],
      "name": "networkId",
      "outputs": [
        {
          "internalType": "bytes",
          "name": "",
          "type": "bytes"
        }
      ],
      "payable": false,
      "stateMutability": "view",
      "type": "function"
    },
    {
      "constant": true,
      "inputs": [],
      "name": "CHAINID",
      "outputs": [
        {
          "internalType": "uint256",
          "name": "",
          "type": "uint256"
        }
      ],
      "payable": false,
      "stateMutability": "view",
      "type": "function"
    }
  ],
  "bytecode": "0x608060405234801561001057600080fd5b50610120806100206000396000f3fe6080604052348015600f57600080fd5b506004361060325760003560e01c80639025e64c146037578063cc79f97b1460af575b600080fd5b603d60c7565b6040805160208082528351818301528351919283929083019185019080838360005b838110156075578181015183820152602001605f565b50505050905090810190601f16801560a15780820380516001836020036101000a031916815260200191505b509250505060405180910390f35b60b560e5565b60408051918252519081900360200190f35b604051806040016040528060028152602001611f7760f11b81525081565b613eee8156fea265627a7a723158203f9f045e6b7c96111a88c42d8933ed8b641781a5e84bc472677e1ea1e0b8750964736f6c634300050b0032",
  "source": "pragma solidity ^0.5.2;\n\ncontract ChainIdMixin {\n  bytes constant public networkId = hex\"3EEE\";\n  uint256 constant public CHAINID = 16110;\n}\n",
  "sourcePath": "/Users/atvanguard/matic/contracts/contracts/common/mixin/ChainIdMixin.sol",
  "compiler": {
    "name": "solc",
    "version": "0.5.11+commit.c082d0b4.Emscripten.clang"
  },
  "schemaVersion": "3.0.14",
  "updatedAt": "2019-12-18T15:44:20.903Z",
  "devdoc": {
    "methods": {}
  },
  "userdoc": {
    "methods": {}
  }
}