{
  "contractName": "ChildERC20",
  "abi": [
    {
      "constant": true,
      "inputs": [],
      "name": "name",
      "outputs": [
        {
          "name": "",
          "type": "string"
        }
      ],
      "payable": false,
      "stateMutability": "view",
      "type": "function"
    },
    {
      "constant": false,
      "inputs": [
        {
          "name": "spender",
          "type": "address"
        },
        {
          "name": "value",
          "type": "uint256"
        }
      ],
      "name": "approve",
      "outputs": [
        {
          "name": "",
          "type": "bool"
        }
      ],
      "payable": false,
      "stateMutability": "nonpayable",
      "type": "function"
    },
    {
      "constant": true,
      "inputs": [],
      "name": "totalSupply",
      "outputs": [
        {
          "name": "",
          "type": "uint256"
        }
      ],
      "payable": false,
      "stateMutability": "view",
      "type": "function"
    },
    {
      "constant": false,
      "inputs": [
        {
          "name": "from",
          "type": "address"
        },
        {
          "name": "to",
          "type": "address"
        },
        {
          "name": "value",
          "type": "uint256"
        }
      ],
      "name": "transferFrom",
      "outputs": [
        {
          "name": "",
          "type": "bool"
        }
      ],
      "payable": false,
      "stateMutability": "nonpayable",
      "type": "function"
    },
    {
      "constant": true,
      "inputs": [],
      "name": "decimals",
      "outputs": [
        {
          "name": "",
          "type": "uint8"
        }
      ],
      "payable": false,
      "stateMutability": "view",
      "type": "function"
    },
    {
      "constant": false,
      "inputs": [
        {
          "name": "spender",
          "type": "address"
        },
        {
          "name": "addedValue",
          "type": "uint256"
        }
      ],
      "name": "increaseAllowance",
      "outputs": [
        {
          "name": "",
          "type": "bool"
        }
      ],
      "payable": false,
      "stateMutability": "nonpayable",
      "type": "function"
    },
    {
      "constant": true,
      "inputs": [],
      "name": "parent",
      "outputs": [
        {
          "name": "",
          "type": "address"
        }
      ],
      "payable": false,
      "stateMutability": "view",
      "type": "function"
    },
    {
      "constant": true,
      "inputs": [],
      "name": "parentOwner",
      "outputs": [
        {
          "name": "",
          "type": "address"
        }
      ],
      "payable": false,
      "stateMutability": "view",
      "type": "function"
    },
    {
      "constant": true,
      "inputs": [
        {
          "name": "owner",
          "type": "address"
        }
      ],
      "name": "balanceOf",
      "outputs": [
        {
          "name": "",
          "type": "uint256"
        }
      ],
      "payable": false,
      "stateMutability": "view",
      "type": "function"
    },
    {
      "constant": false,
      "inputs": [],
      "name": "renounceOwnership",
      "outputs": [],
      "payable": false,
      "stateMutability": "nonpayable",
      "type": "function"
    },
    {
      "constant": true,
      "inputs": [
        {
          "name": "hash",
          "type": "bytes32"
        },
        {
          "name": "sig",
          "type": "bytes"
        }
      ],
      "name": "ecrecovery",
      "outputs": [
        {
          "name": "result",
          "type": "address"
        }
      ],
      "payable": false,
      "stateMutability": "pure",
      "type": "function"
    },
    {
      "constant": true,
      "inputs": [],
      "name": "owner",
      "outputs": [
        {
          "name": "",
          "type": "address"
        }
      ],
      "payable": false,
      "stateMutability": "view",
      "type": "function"
    },
    {
      "constant": true,
      "inputs": [],
      "name": "isOwner",
      "outputs": [
        {
          "name": "",
          "type": "bool"
        }
      ],
      "payable": false,
      "stateMutability": "view",
      "type": "function"
    },
    {
      "constant": true,
      "inputs": [],
      "name": "symbol",
      "outputs": [
        {
          "name": "",
          "type": "string"
        }
      ],
      "payable": false,
      "stateMutability": "view",
      "type": "function"
    },
    {
      "constant": false,
      "inputs": [
        {
          "name": "spender",
          "type": "address"
        },
        {
          "name": "subtractedValue",
          "type": "uint256"
        }
      ],
      "name": "decreaseAllowance",
      "outputs": [
        {
          "name": "",
          "type": "bool"
        }
      ],
      "payable": false,
      "stateMutability": "nonpayable",
      "type": "function"
    },
    {
      "constant": true,
      "inputs": [],
      "name": "EIP712_TOKEN_TRANSFER_ORDER_SCHEMA_HASH",
      "outputs": [
        {
          "name": "",
          "type": "bytes32"
        }
      ],
      "payable": false,
      "stateMutability": "view",
      "type": "function"
    },
    {
      "constant": true,
      "inputs": [
        {
          "name": "",
          "type": "bytes32"
        }
      ],
      "name": "disabledHashes",
      "outputs": [
        {
          "name": "",
          "type": "bool"
        }
      ],
      "payable": false,
      "stateMutability": "view",
      "type": "function"
    },
    {
      "constant": true,
      "inputs": [
        {
          "name": "spender",
          "type": "address"
        },
        {
          "name": "tokenIdOrAmount",
          "type": "uint256"
        },
        {
          "name": "data",
          "type": "bytes32"
        },
        {
          "name": "expiration",
          "type": "uint256"
        }
      ],
      "name": "getTokenTransferOrderHash",
      "outputs": [
        {
          "name": "orderHash",
          "type": "bytes32"
        }
      ],
      "payable": false,
      "stateMutability": "view",
      "type": "function"
    },
    {
      "constant": true,
      "inputs": [
        {
          "name": "owner",
          "type": "address"
        },
        {
          "name": "spender",
          "type": "address"
        }
      ],
      "name": "allowance",
      "outputs": [
        {
          "name": "",
          "type": "uint256"
        }
      ],
      "payable": false,
      "stateMutability": "view",
      "type": "function"
    },
    {
      "constant": true,
      "inputs": [],
      "name": "EIP712_DOMAIN_HASH",
      "outputs": [
        {
          "name": "",
          "type": "bytes32"
        }
      ],
      "payable": false,
      "stateMutability": "view",
      "type": "function"
    },
    {
      "constant": true,
      "inputs": [],
      "name": "EIP712_DOMAIN_SCHEMA_HASH",
      "outputs": [
        {
          "name": "",
          "type": "bytes32"
        }
      ],
      "payable": false,
      "stateMutability": "view",
      "type": "function"
    },
    {
      "constant": false,
      "inputs": [
        {
          "name": "newOwner",
          "type": "address"
        }
      ],
      "name": "transferOwnership",
      "outputs": [],
      "payable": false,
      "stateMutability": "nonpayable",
      "type": "function"
    },
    {
      "constant": true,
      "inputs": [],
      "name": "token",
      "outputs": [
        {
          "name": "",
          "type": "address"
        }
      ],
      "payable": false,
      "stateMutability": "view",
      "type": "function"
    },
    {
      "inputs": [
        {
          "name": "_owner",
          "type": "address"
        },
        {
          "name": "_token",
          "type": "address"
        },
        {
          "name": "_name",
          "type": "string"
        },
        {
          "name": "_symbol",
          "type": "string"
        },
        {
          "name": "_decimals",
          "type": "uint8"
        }
      ],
      "payable": false,
      "stateMutability": "nonpayable",
      "type": "constructor"
    },
    {
      "anonymous": false,
      "inputs": [
        {
          "indexed": true,
          "name": "token",
          "type": "address"
        },
        {
          "indexed": true,
          "name": "from",
          "type": "address"
        },
        {
          "indexed": false,
          "name": "amount",
          "type": "uint256"
        },
        {
          "indexed": false,
          "name": "input1",
          "type": "uint256"
        },
        {
          "indexed": false,
          "name": "output1",
          "type": "uint256"
        }
      ],
      "name": "Deposit",
      "type": "event"
    },
    {
      "anonymous": false,
      "inputs": [
        {
          "indexed": true,
          "name": "token",
          "type": "address"
        },
        {
          "indexed": true,
          "name": "from",
          "type": "address"
        },
        {
          "indexed": false,
          "name": "amount",
          "type": "uint256"
        },
        {
          "indexed": false,
          "name": "input1",
          "type": "uint256"
        },
        {
          "indexed": false,
          "name": "output1",
          "type": "uint256"
        }
      ],
      "name": "Withdraw",
      "type": "event"
    },
    {
      "anonymous": false,
      "inputs": [
        {
          "indexed": true,
          "name": "token",
          "type": "address"
        },
        {
          "indexed": true,
          "name": "from",
          "type": "address"
        },
        {
          "indexed": true,
          "name": "to",
          "type": "address"
        },
        {
          "indexed": false,
          "name": "amount",
          "type": "uint256"
        },
        {
          "indexed": false,
          "name": "input1",
          "type": "uint256"
        },
        {
          "indexed": false,
          "name": "input2",
          "type": "uint256"
        },
        {
          "indexed": false,
          "name": "output1",
          "type": "uint256"
        },
        {
          "indexed": false,
          "name": "output2",
          "type": "uint256"
        }
      ],
      "name": "LogTransfer",
      "type": "event"
    },
    {
      "anonymous": false,
      "inputs": [
        {
          "indexed": true,
          "name": "from",
          "type": "address"
        },
        {
          "indexed": true,
          "name": "to",
          "type": "address"
        },
        {
          "indexed": false,
          "name": "value",
          "type": "uint256"
        }
      ],
      "name": "Transfer",
      "type": "event"
    },
    {
      "anonymous": false,
      "inputs": [
        {
          "indexed": true,
          "name": "owner",
          "type": "address"
        },
        {
          "indexed": true,
          "name": "spender",
          "type": "address"
        },
        {
          "indexed": false,
          "name": "value",
          "type": "uint256"
        }
      ],
      "name": "Approval",
      "type": "event"
    },
    {
      "anonymous": false,
      "inputs": [
        {
          "indexed": true,
          "name": "previousOwner",
          "type": "address"
        },
        {
          "indexed": true,
          "name": "newOwner",
          "type": "address"
        }
      ],
      "name": "OwnershipTransferred",
      "type": "event"
    },
    {
      "constant": false,
      "inputs": [
        {
          "name": "_parent",
          "type": "address"
        }
      ],
      "name": "setParent",
      "outputs": [],
      "payable": false,
      "stateMutability": "nonpayable",
      "type": "function"
    },
    {
      "constant": false,
      "inputs": [
        {
          "name": "user",
          "type": "address"
        },
        {
          "name": "amount",
          "type": "uint256"
        }
      ],
      "name": "deposit",
      "outputs": [],
      "payable": false,
      "stateMutability": "nonpayable",
      "type": "function"
    },
    {
      "constant": false,
      "inputs": [
        {
          "name": "amount",
          "type": "uint256"
        }
      ],
      "name": "withdraw",
      "outputs": [],
      "payable": false,
      "stateMutability": "nonpayable",
      "type": "function"
    },
    {
      "constant": false,
      "inputs": [
        {
          "name": "to",
          "type": "address"
        },
        {
          "name": "value",
          "type": "uint256"
        }
      ],
      "name": "transfer",
      "outputs": [
        {
          "name": "",
          "type": "bool"
        }
      ],
      "payable": false,
      "stateMutability": "nonpayable",
      "type": "function"
    },
    {
      "constant": false,
      "inputs": [
        {
          "name": "sig",
          "type": "bytes"
        },
        {
          "name": "amount",
          "type": "uint256"
        },
        {
          "name": "data",
          "type": "bytes32"
        },
        {
          "name": "expiration",
          "type": "uint256"
        },
        {
          "name": "to",
          "type": "address"
        }
      ],
      "name": "transferWithSig",
      "outputs": [
        {
          "name": "from",
          "type": "address"
        }
      ],
      "payable": false,
      "stateMutability": "nonpayable",
      "type": "function"
    }
  ],
  "bytecode": "0x60806040523480156200001157600080fd5b50604051620018dc380380620018dc833981018060405260a08110156200003757600080fd5b81516020830151604084018051929491938201926401000000008111156200005e57600080fd5b820160208101848111156200007257600080fd5b81516401000000008111828201871017156200008d57600080fd5b50509291906020018051640100000000811115620000aa57600080fd5b82016020810184811115620000be57600080fd5b8151640100000000811182820187101715620000d957600080fd5b5050602090910151600080546001600160a01b03191633178082556040519395509193508592859285926001600160a01b0391909116917f8be0079c531659141344cd1fd0a4f28419497f9722a3daafe3b4186f6b6457e0908290a360405180608001604052806049815260200162001893604991396040516020018082805190602001908083835b60208310620001835780518252601f19909201916020918201910162000162565b51815160209384036101000a60001901801990921691161790526040805192909401828103601f190183528085528251928201929092208285018552600d83527f4d61746963204e6574776f726b000000000000000000000000000000000000009282019290925283518085018552600181527f3100000000000000000000000000000000000000000000000000000000000000908201528351808201929092527fd26430275d0d30693378daeb558f6ed30c3a48ba5d665f52c16608e1c41b5cd7828501527fc89efdaa54c0f20c7adf612882df0950f5a951637e0307cdcb4c672f298b8bc66060830152613a9960808301523060a0808401919091528451808403909101815260c0909201909352805190830120600855508551620002b39350600992509086019062000344565b508151620002c990600a90602085019062000344565b50600b805460ff191660ff9290921691909117905550506001600160a01b038416158015906200030157506001600160a01b03851615155b6200030b57600080fd5b5050600380546001600160a01b039485166001600160a01b031991821617909155600180549390941692169190911790915550620003e9565b828054600181600116156101000203166002900490600052602060002090601f016020900481019282601f106200038757805160ff1916838001178555620003b7565b82800160010185558215620003b7579182015b82811115620003b75782518255916020019190600101906200039a565b50620003c5929150620003c9565b5090565b620003e691905b80821115620003c55760008155600101620003d0565b90565b61149a80620003f96000396000f3fe608060405234801561001057600080fd5b50600436106101c45760003560e01c806377d32e94116100f9578063acd06cb311610097578063e306f77911610071578063e306f7791461061e578063e614d0d614610626578063f2fde38b1461062e578063fc0c546a14610654576101c4565b8063acd06cb31461059b578063b789543c146105b8578063dd62ed3e146105f0576101c4565b806395d89b41116100d357806395d89b4114610533578063a457c2d71461053b578063a9059cbb14610567578063abceeba214610593576101c4565b806377d32e94146104765780638da5cb5b146105235780638f32d59b1461052b576101c4565b8063313ce5671161016657806360f96a8f1161014057806360f96a8f146104385780637019d41a1461044057806370a0823114610448578063715018a61461046e576101c4565b8063313ce567146103c257806339509351146103e057806347e7ef241461040c576101c4565b806318160ddd116101a257806318160ddd146102ae57806319d27d9c146102c857806323b872dd1461036f5780632e1a7d4d146103a5576101c4565b806306fdde03146101c9578063095ea7b3146102465780631499c59214610286575b600080fd5b6101d161065c565b6040805160208082528351818301528351919283929083019185019080838360005b8381101561020b5781810151838201526020016101f3565b50505050905090810190601f1680156102385780820380516001836020036101000a031916815260200191505b509250505060405180910390f35b6102726004803603604081101561025c57600080fd5b506001600160a01b0381351690602001356106f2565b604080519115158252519081900360200190f35b6102ac6004803603602081101561029c57600080fd5b50356001600160a01b0316610709565b005b6102b6610755565b60408051918252519081900360200190f35b610353600480360360a08110156102de57600080fd5b8101906020810181356401000000008111156102f957600080fd5b82018360208201111561030b57600080fd5b8035906020019184600183028401116401000000008311171561032d57600080fd5b9193509150803590602081013590604081013590606001356001600160a01b031661075b565b604080516001600160a01b039092168252519081900360200190f35b6102726004803603606081101561038557600080fd5b506001600160a01b038135811691602081013590911690604001356108b2565b6102ac600480360360208110156103bb57600080fd5b5035610909565b6103ca610998565b6040805160ff9092168252519081900360200190f35b610272600480360360408110156103f657600080fd5b506001600160a01b0381351690602001356109a1565b6102ac6004803603604081101561042257600080fd5b506001600160a01b0381351690602001356109dd565b610353610a62565b610353610a71565b6102b66004803603602081101561045e57600080fd5b50356001600160a01b0316610a80565b6102ac610a9b565b6103536004803603604081101561048c57600080fd5b813591908101906040810160208201356401000000008111156104ae57600080fd5b8201836020820111156104c057600080fd5b803590602001918460018302840111640100000000831117156104e257600080fd5b91908080601f016020809104026020016040519081016040528093929190818152602001838380828437600092019190915250929550610af6945050505050565b610353610c27565b610272610c36565b6101d1610c47565b6102726004803603604081101561055157600080fd5b506001600160a01b038135169060200135610ca8565b6102726004803603604081101561057d57600080fd5b506001600160a01b038135169060200135610ce4565b6102b6610da1565b610272600480360360208110156105b157600080fd5b5035610e2a565b6102b6600480360360808110156105ce57600080fd5b506001600160a01b038135169060208101359060408101359060600135610e3f565b6102b66004803603604081101561060657600080fd5b506001600160a01b0381358116916020013516610e5e565b6102b6610e89565b6102b6610e8f565b6102ac6004803603602081101561064457600080fd5b50356001600160a01b0316610ed9565b610353610ef6565b60098054604080516020601f60026000196101006001881615020190951694909404938401819004810282018101909252828152606093909290918301828280156106e85780601f106106bd576101008083540402835291602001916106e8565b820191906000526020600020905b8154815290600101906020018083116106cb57829003601f168201915b5050505050905090565b60006106ff338484610f05565b5060015b92915050565b6003546001600160a01b0316331461072057600080fd5b6001600160a01b03811661073357600080fd5b600280546001600160a01b0319166001600160a01b0392909216919091179055565b60075490565b600080851161076957600080fd5b8215806107765750824311155b6107ca5760408051600160e51b62461bcd02815260206004820152601460248201527f5369676e61747572652069732065787069726564000000000000000000000000604482015290519081900360640190fd5b60006107d833878787610e3f565b60008181526004602052604090205490915060ff16156108425760408051600160e51b62461bcd02815260206004820152600f60248201527f5369672064656163746976617465640000000000000000000000000000000000604482015290519081900360640190fd5b600081815260046020908152604091829020805460ff191660011790558151601f8a0182900482028101820190925288825261089a9183918b908b9081908401838280828437600092019190915250610af692505050565b91506108a7828488610f8d565b509695505050505050565b60006108bf84848461102d565b6001600160a01b0384166000908152600660209081526040808320338085529252909120546108ff9186916108fa908663ffffffff6110fa16565b610f05565b5060019392505050565b33600061091582610a80565b90506000831180156109275750828110155b61093057600080fd5b61093a828461110f565b6001546001600160a01b0380841691167febff2602b3f468259e1e99f613fed6691f3a6526effe6ef3e768ba7ae7a36c4f858461097687610a80565b60408051938452602084019290925282820152519081900360600190a3505050565b600b5460ff1690565b3360008181526006602090815260408083206001600160a01b038716845290915281205490916106ff9185906108fa908663ffffffff6111b816565b6109e5610c36565b6109ee57600080fd5b600081118015610a0657506001600160a01b03821615155b610a0f57600080fd5b6000610a1a83610a80565b9050610a2683836111d1565b6001546001600160a01b0380851691167f4e2ca0515ed1aef1395f66b5303bb5d6f1bf9d61a353fa53f73f8ac9973fa9f6848461097688610a80565b6002546001600160a01b031681565b6003546001600160a01b031681565b6001600160a01b031660009081526005602052604090205490565b610aa3610c36565b610aac57600080fd5b600080546040516001600160a01b03909116907f8be0079c531659141344cd1fd0a4f28419497f9722a3daafe3b4186f6b6457e0908390a3600080546001600160a01b0319169055565b6000806000808451604114610b115760009350505050610703565b50505060208201516040830151604184015160ff16601b811015610b3357601b015b8060ff16601b14158015610b4b57508060ff16601c14155b15610b5c5760009350505050610703565b6040805160008152602080820180845289905260ff8416828401526060820186905260808201859052915160019260a0808401939192601f1981019281900390910190855afa158015610bb3573d6000803e3d6000fd5b5050604051601f1901519450506001600160a01b038416610c1e5760408051600160e51b62461bcd02815260206004820152601260248201527f4572726f7220696e2065637265636f7665720000000000000000000000000000604482015290519081900360640190fd5b50505092915050565b6000546001600160a01b031690565b6000546001600160a01b0316331490565b600a8054604080516020601f60026000196101006001881615020190951694909404938401819004810282018101909252828152606093909290918301828280156106e85780601f106106bd576101008083540402835291602001916106e8565b3360008181526006602090815260408083206001600160a01b038716845290915281205490916106ff9185906108fa908663ffffffff6110fa16565b6002546000906001600160a01b031615801590610d89575060025460408051600160e01b631ffb811f0281523360048201526001600160a01b0386811660248301526044820186905291519190921691631ffb811f9160648083019260209291908290030181600087803b158015610d5b57600080fd5b505af1158015610d6f573d6000803e3d6000fd5b505050506040513d6020811015610d8557600080fd5b5051155b15610d9657506000610703565b6106ff338484610f8d565b6040518060800160405280605b81526020016113cb605b91396040516020018082805190602001908083835b60208310610dec5780518252601f199092019160209182019101610dcd565b6001836020036101000a0380198251168184511680821785525050505050509050019150506040516020818303038152906040528051906020012081565b60046020526000908152604090205460ff1681565b6000610e55610e508686868661127b565b611334565b95945050505050565b6001600160a01b03918216600090815260066020908152604080832093909416825291909152205490565b60085481565b6040518060800160405280604981526020016114266049913960405160200180828051906020019080838360208310610dec5780518252601f199092019160209182019101610dcd565b610ee1610c36565b610eea57600080fd5b610ef38161135c565b50565b6001546001600160a01b031681565b6001600160a01b038216610f1857600080fd5b6001600160a01b038316610f2b57600080fd5b6001600160a01b03808416600081815260066020908152604080832094871680845294825291829020859055815185815291517f8c5be1e5ebec7d5bd14f71427d1e84f3dd0314c0f7b2291e5b200ac8c7c3b9259281900390910190a3505050565b6000610f9884610a80565b90506000610fa584610a80565b9050610fb285858561102d565b6001546001600160a01b038086169187821691167fe6497e3ee548a3372136af2fcb0696db31fc6cf20260707645068bd3fe97f3c4868686610ff38c610a80565b610ffc8c610a80565b6040805195865260208601949094528484019290925260608401526080830152519081900360a00190a45050505050565b6001600160a01b03821661104057600080fd5b6001600160a01b038316600090815260056020526040902054611069908263ffffffff6110fa16565b6001600160a01b03808516600090815260056020526040808220939093559084168152205461109e908263ffffffff6111b816565b6001600160a01b0380841660008181526005602090815260409182902094909455805185815290519193928716927fddf252ad1be2c89b69c2b068fc378daa952ba7f163c4a11628f55a4df523b3ef92918290030190a3505050565b60008282111561110957600080fd5b50900390565b6001600160a01b03821661112257600080fd5b600754611135908263ffffffff6110fa16565b6007556001600160a01b038216600090815260056020526040902054611161908263ffffffff6110fa16565b6001600160a01b0383166000818152600560209081526040808320949094558351858152935191937fddf252ad1be2c89b69c2b068fc378daa952ba7f163c4a11628f55a4df523b3ef929081900390910190a35050565b6000828201838110156111ca57600080fd5b9392505050565b6001600160a01b0382166111e457600080fd5b6007546111f7908263ffffffff6111b816565b6007556001600160a01b038216600090815260056020526040902054611223908263ffffffff6111b816565b6001600160a01b03831660008181526005602090815260408083209490945583518581529351929391927fddf252ad1be2c89b69c2b068fc378daa952ba7f163c4a11628f55a4df523b3ef9281900390910190a35050565b6000806040518060800160405280605b81526020016113cb605b91396040516020018082805190602001908083835b602083106112c95780518252601f1990920191602091820191016112aa565b51815160209384036101000a60001901801990921691161790526040805192909401828103601f1901835280855282519282019290922082526001600160a01b039b909b169a81019a909a5250880196909652505050606084019190915260808301525060a0902090565b600854604051600160f01b611901028152600281019190915260228101919091526042902090565b6001600160a01b03811661136f57600080fd5b600080546040516001600160a01b03808516939216917f8be0079c531659141344cd1fd0a4f28419497f9722a3daafe3b4186f6b6457e091a3600080546001600160a01b0319166001600160a01b039290921691909117905556fe546f6b656e5472616e736665724f726465722861646472657373207370656e6465722c75696e7432353620746f6b656e49644f72416d6f756e742c6279746573333220646174612c75696e743235362065787069726174696f6e29454950373132446f6d61696e28737472696e67206e616d652c737472696e672076657273696f6e2c75696e7432353620636861696e49642c6164647265737320636f6e747261637429a165627a7a72305820ac7a987e39c2dc7118617a113ccaa7d822c805b8de8827ce3586b7c947aceda40029454950373132446f6d61696e28737472696e67206e616d652c737472696e672076657273696f6e2c75696e7432353620636861696e49642c6164647265737320636f6e747261637429",
  "source": "pragma solidity ^0.5.2;\n\nimport { ERC20 } from \"openzeppelin-solidity/contracts/token/ERC20/ERC20.sol\";\nimport { ERC20Detailed } from \"openzeppelin-solidity/contracts/token/ERC20/ERC20Detailed.sol\";\n\nimport \"./ChildToken.sol\";\nimport \"./misc/IParentToken.sol\";\nimport \"./misc/LibTokenTransferOrder.sol\";\n\ncontract ChildERC20 is ChildToken, ERC20, LibTokenTransferOrder, ERC20Detailed {\n\n  event Deposit(\n    address indexed token,\n    address indexed from,\n    uint256 amount,\n    uint256 input1,\n    uint256 output1\n  );\n\n  event Withdraw(\n    address indexed token,\n    address indexed from,\n    uint256 amount,\n    uint256 input1,\n    uint256 output1\n  );\n\n  event LogTransfer(\n    address indexed token,\n    address indexed from,\n    address indexed to,\n    uint256 amount,\n    uint256 input1,\n    uint256 input2,\n    uint256 output1,\n    uint256 output2\n  );\n\n  constructor (address _owner, address _token, string memory _name, string memory _symbol, uint8 _decimals)\n    public\n    ERC20Detailed(_name, _symbol, _decimals) {\n    require(_token != address(0x0) && _owner != address(0x0));\n    parentOwner = _owner;\n    token = _token;\n  }\n\n  function setParent(address _parent) public isParentOwner {\n    require(_parent != address(0x0));\n    parent = _parent;\n  }\n\n  /**\n   * Deposit tokens\n   *\n   * @param user address for address\n   * @param amount token balance\n   */\n  function deposit(address user, uint256 amount) public onlyOwner {\n    // check for amount and user\n    require(amount > 0 && user != address(0x0));\n\n    // input balance\n    uint256 input1 = balanceOf(user);\n\n    // increase balance\n    _mint(user, amount);\n\n    // deposit events\n    emit Deposit(token, user, amount, input1, balanceOf(user));\n  }\n\n  /**\n   * Withdraw tokens\n   *\n   * @param amount tokens\n   */\n  function withdraw(uint256 amount) public {\n    address user = msg.sender;\n    // input balance\n    uint256 input = balanceOf(user);\n\n    // check for amount\n    require(amount > 0 && input >= amount);\n\n    // decrease balance\n    _burn(user, amount);\n\n    // withdraw event\n    emit Withdraw(token, user, amount, input, balanceOf(user));\n  }\n\n  /// @dev Function that is called when a user or another contract wants to transfer funds.\n  /// @param to Address of token receiver.\n  /// @param value Number of tokens to transfer.\n  /// @return Returns success of function call.\n  function transfer(address to, uint256 value) public returns (bool) {\n    if (parent != address(0x0) && !IParentToken(parent).beforeTransfer(msg.sender, to, value)) {\n      return false;\n    }\n    _transferFrom(msg.sender, to, value);\n    return true; // to be compliant with the standard ERC20.transfer function interface\n  }\n\n  function transferWithSig(bytes calldata sig, uint256 amount, bytes32 data, uint256 expiration, address to) external returns (address from) {\n    require(amount > 0);\n    require(expiration == 0 || block.number <= expiration, \"Signature is expired\");\n\n    bytes32 dataHash = getTokenTransferOrderHash(\n      msg.sender,\n      amount,\n      data,\n      expiration\n    );\n    require(disabledHashes[dataHash] == false, \"Sig deactivated\");\n    disabledHashes[dataHash] = true;\n\n    from = ecrecovery(dataHash, sig);\n    _transferFrom(from, to, amount);\n  }\n\n  /// @param from Address from where tokens are withdrawn.\n  /// @param to Address to where tokens are sent.\n  /// @param value Number of tokens to transfer.\n  /// @return Returns success of function call.\n  function _transferFrom(address from, address to, uint256 value) internal {\n    uint256 input1 = balanceOf(from);\n    uint256 input2 = balanceOf(to);\n    _transfer(from, to, value);\n    emit LogTransfer(\n      token,\n      from,\n      to,\n      value,\n      input1,\n      input2,\n      balanceOf(from),\n      balanceOf(to)\n    );\n  }\n}\n",
  "sourcePath": "/Users/arpit/projects/contracts/contracts/child/ChildERC20.sol",
  "compiler": {
    "name": "solc",
    "version": "0.5.7+commit.6da8b019.Emscripten.clang"
  },
  "schemaVersion": "3.0.16",
  "updatedAt": "2019-09-21T10:53:38.803Z",
  "devdoc": {
    "methods": {
      "allowance(address,address)": {
        "details": "Function to check the amount of tokens that an owner allowed to a spender.",
        "params": {
          "owner": "address The address which owns the funds.",
          "spender": "address The address which will spend the funds."
        },
        "return": "A uint256 specifying the amount of tokens still available for the spender."
      },
      "approve(address,uint256)": {
        "details": "Approve the passed address to spend the specified amount of tokens on behalf of msg.sender. Beware that changing an allowance with this method brings the risk that someone may use both the old and the new allowance by unfortunate transaction ordering. One possible solution to mitigate this race condition is to first reduce the spender's allowance to 0 and set the desired value afterwards: https://github.com/ethereum/EIPs/issues/20#issuecomment-263524729",
        "params": {
          "spender": "The address which will spend the funds.",
          "value": "The amount of tokens to be spent."
        }
      },
      "balanceOf(address)": {
        "details": "Gets the balance of the specified address.",
        "params": {
          "owner": "The address to query the balance of."
        },
        "return": "A uint256 representing the amount owned by the passed address."
      },
      "decimals()": {
        "return": "the number of decimals of the token."
      },
      "decreaseAllowance(address,uint256)": {
        "details": "Decrease the amount of tokens that an owner allowed to a spender. approve should be called when _allowed[msg.sender][spender] == 0. To decrement allowed value is better to use this function to avoid 2 calls (and wait until the first transaction is mined) From MonolithDAO Token.sol Emits an Approval event.",
        "params": {
          "spender": "The address which will spend the funds.",
          "subtractedValue": "The amount of tokens to decrease the allowance by."
        }
      },
      "deposit(address,uint256)": {
        "params": {
          "amount": "token balance",
          "user": "address for address"
        }
      },
      "increaseAllowance(address,uint256)": {
        "details": "Increase the amount of tokens that an owner allowed to a spender. approve should be called when _allowed[msg.sender][spender] == 0. To increment allowed value is better to use this function to avoid 2 calls (and wait until the first transaction is mined) From MonolithDAO Token.sol Emits an Approval event.",
        "params": {
          "addedValue": "The amount of tokens to increase the allowance by.",
          "spender": "The address which will spend the funds."
        }
      },
      "isOwner()": {
        "return": "true if `msg.sender` is the owner of the contract."
      },
      "name()": {
        "return": "the name of the token."
      },
      "owner()": {
        "return": "the address of the owner."
      },
      "renounceOwnership()": {
        "details": "Allows the current owner to relinquish control of the contract. It will not be possible to call the functions with the `onlyOwner` modifier anymore."
      },
      "symbol()": {
        "return": "the symbol of the token."
      },
      "totalSupply()": {
        "details": "Total number of tokens in existence"
      },
      "transfer(address,uint256)": {
        "details": "Function that is called when a user or another contract wants to transfer funds.",
        "params": {
          "to": "Address of token receiver.",
          "value": "Number of tokens to transfer."
        },
        "return": "Returns success of function call."
      },
      "transferFrom(address,address,uint256)": {
        "details": "Transfer tokens from one address to another. Note that while this function emits an Approval event, this is not required as per the specification, and other compliant implementations may not emit the event.",
        "params": {
          "from": "address The address which you want to send tokens from",
          "to": "address The address which you want to transfer to",
          "value": "uint256 the amount of tokens to be transferred"
        }
      },
      "transferOwnership(address)": {
        "details": "Allows the current owner to transfer control of the contract to a newOwner.",
        "params": {
          "newOwner": "The address to transfer ownership to."
        }
      },
      "withdraw(uint256)": {
        "params": {
          "amount": "tokens"
        }
      }
    }
  },
  "userdoc": {
    "methods": {
      "deposit(address,uint256)": {
        "notice": "Deposit tokens"
      },
      "renounceOwnership()": {
        "notice": "Renouncing ownership will leave the contract without an owner, thereby removing any functionality that is only available to the owner."
      },
      "withdraw(uint256)": {
        "notice": "Withdraw tokens"
      }
    }
  }
}