{
  "contractName": "ChildERC721",
  "abi": [
    {
      "constant": true,
      "inputs": [
        {
          "name": "interfaceId",
          "type": "bytes4"
        }
      ],
      "name": "supportsInterface",
      "outputs": [
        {
          "name": "",
          "type": "bool"
        }
      ],
      "payable": false,
      "stateMutability": "view",
      "type": "function"
    },
    {
      "constant": true,
      "inputs": [],
      "name": "name",
      "outputs": [
        {
          "name": "",
          "type": "string"
        }
      ],
      "payable": false,
      "stateMutability": "view",
      "type": "function"
    },
    {
      "constant": true,
      "inputs": [
        {
          "name": "tokenId",
          "type": "uint256"
        }
      ],
      "name": "getApproved",
      "outputs": [
        {
          "name": "",
          "type": "address"
        }
      ],
      "payable": false,
      "stateMutability": "view",
      "type": "function"
    },
    {
      "constant": false,
      "inputs": [
        {
          "name": "to",
          "type": "address"
        },
        {
          "name": "tokenId",
          "type": "uint256"
        }
      ],
      "name": "approve",
      "outputs": [],
      "payable": false,
      "stateMutability": "nonpayable",
      "type": "function"
    },
    {
      "constant": true,
      "inputs": [],
      "name": "totalSupply",
      "outputs": [
        {
          "name": "",
          "type": "uint256"
        }
      ],
      "payable": false,
      "stateMutability": "view",
      "type": "function"
    },
    {
      "constant": true,
      "inputs": [
        {
          "name": "owner",
          "type": "address"
        },
        {
          "name": "index",
          "type": "uint256"
        }
      ],
      "name": "tokenOfOwnerByIndex",
      "outputs": [
        {
          "name": "",
          "type": "uint256"
        }
      ],
      "payable": false,
      "stateMutability": "view",
      "type": "function"
    },
    {
      "constant": false,
      "inputs": [
        {
          "name": "from",
          "type": "address"
        },
        {
          "name": "to",
          "type": "address"
        },
        {
          "name": "tokenId",
          "type": "uint256"
        }
      ],
      "name": "safeTransferFrom",
      "outputs": [],
      "payable": false,
      "stateMutability": "nonpayable",
      "type": "function"
    },
    {
      "constant": true,
      "inputs": [
        {
          "name": "index",
          "type": "uint256"
        }
      ],
      "name": "tokenByIndex",
      "outputs": [
        {
          "name": "",
          "type": "uint256"
        }
      ],
      "payable": false,
      "stateMutability": "view",
      "type": "function"
    },
    {
      "constant": true,
      "inputs": [],
      "name": "parent",
      "outputs": [
        {
          "name": "",
          "type": "address"
        }
      ],
      "payable": false,
      "stateMutability": "view",
      "type": "function"
    },
    {
      "constant": true,
      "inputs": [
        {
          "name": "tokenId",
          "type": "uint256"
        }
      ],
      "name": "ownerOf",
      "outputs": [
        {
          "name": "",
          "type": "address"
        }
      ],
      "payable": false,
      "stateMutability": "view",
      "type": "function"
    },
    {
      "constant": true,
      "inputs": [],
      "name": "parentOwner",
      "outputs": [
        {
          "name": "",
          "type": "address"
        }
      ],
      "payable": false,
      "stateMutability": "view",
      "type": "function"
    },
    {
      "constant": true,
      "inputs": [
        {
          "name": "owner",
          "type": "address"
        }
      ],
      "name": "balanceOf",
      "outputs": [
        {
          "name": "",
          "type": "uint256"
        }
      ],
      "payable": false,
      "stateMutability": "view",
      "type": "function"
    },
    {
      "constant": false,
      "inputs": [],
      "name": "renounceOwnership",
      "outputs": [],
      "payable": false,
      "stateMutability": "nonpayable",
      "type": "function"
    },
    {
      "constant": true,
      "inputs": [
        {
          "name": "hash",
          "type": "bytes32"
        },
        {
          "name": "sig",
          "type": "bytes"
        }
      ],
      "name": "ecrecovery",
      "outputs": [
        {
          "name": "result",
          "type": "address"
        }
      ],
      "payable": false,
      "stateMutability": "pure",
      "type": "function"
    },
    {
      "constant": true,
      "inputs": [],
      "name": "owner",
      "outputs": [
        {
          "name": "",
          "type": "address"
        }
      ],
      "payable": false,
      "stateMutability": "view",
      "type": "function"
    },
    {
      "constant": true,
      "inputs": [],
      "name": "isOwner",
      "outputs": [
        {
          "name": "",
          "type": "bool"
        }
      ],
      "payable": false,
      "stateMutability": "view",
      "type": "function"
    },
    {
      "constant": true,
      "inputs": [],
      "name": "symbol",
      "outputs": [
        {
          "name": "",
          "type": "string"
        }
      ],
      "payable": false,
      "stateMutability": "view",
      "type": "function"
    },
    {
      "constant": false,
      "inputs": [
        {
          "name": "to",
          "type": "address"
        },
        {
          "name": "approved",
          "type": "bool"
        }
      ],
      "name": "setApprovalForAll",
      "outputs": [],
      "payable": false,
      "stateMutability": "nonpayable",
      "type": "function"
    },
    {
      "constant": true,
      "inputs": [],
      "name": "EIP712_TOKEN_TRANSFER_ORDER_SCHEMA_HASH",
      "outputs": [
        {
          "name": "",
          "type": "bytes32"
        }
      ],
      "payable": false,
      "stateMutability": "view",
      "type": "function"
    },
    {
      "constant": true,
      "inputs": [
        {
          "name": "",
          "type": "bytes32"
        }
      ],
      "name": "disabledHashes",
      "outputs": [
        {
          "name": "",
          "type": "bool"
        }
      ],
      "payable": false,
      "stateMutability": "view",
      "type": "function"
    },
    {
      "constant": true,
      "inputs": [
        {
          "name": "spender",
          "type": "address"
        },
        {
          "name": "tokenIdOrAmount",
          "type": "uint256"
        },
        {
          "name": "data",
          "type": "bytes32"
        },
        {
          "name": "expiration",
          "type": "uint256"
        }
      ],
      "name": "getTokenTransferOrderHash",
      "outputs": [
        {
          "name": "orderHash",
          "type": "bytes32"
        }
      ],
      "payable": false,
      "stateMutability": "view",
      "type": "function"
    },
    {
      "constant": false,
      "inputs": [
        {
          "name": "from",
          "type": "address"
        },
        {
          "name": "to",
          "type": "address"
        },
        {
          "name": "tokenId",
          "type": "uint256"
        },
        {
          "name": "_data",
          "type": "bytes"
        }
      ],
      "name": "safeTransferFrom",
      "outputs": [],
      "payable": false,
      "stateMutability": "nonpayable",
      "type": "function"
    },
    {
      "constant": true,
      "inputs": [
        {
          "name": "tokenId",
          "type": "uint256"
        }
      ],
      "name": "tokenURI",
      "outputs": [
        {
          "name": "",
          "type": "string"
        }
      ],
      "payable": false,
      "stateMutability": "view",
      "type": "function"
    },
    {
      "constant": true,
      "inputs": [],
      "name": "EIP712_DOMAIN_HASH",
      "outputs": [
        {
          "name": "",
          "type": "bytes32"
        }
      ],
      "payable": false,
      "stateMutability": "view",
      "type": "function"
    },
    {
      "constant": true,
      "inputs": [],
      "name": "EIP712_DOMAIN_SCHEMA_HASH",
      "outputs": [
        {
          "name": "",
          "type": "bytes32"
        }
      ],
      "payable": false,
      "stateMutability": "view",
      "type": "function"
    },
    {
      "constant": true,
      "inputs": [
        {
          "name": "owner",
          "type": "address"
        },
        {
          "name": "operator",
          "type": "address"
        }
      ],
      "name": "isApprovedForAll",
      "outputs": [
        {
          "name": "",
          "type": "bool"
        }
      ],
      "payable": false,
      "stateMutability": "view",
      "type": "function"
    },
    {
      "constant": false,
      "inputs": [
        {
          "name": "newOwner",
          "type": "address"
        }
      ],
      "name": "transferOwnership",
      "outputs": [],
      "payable": false,
      "stateMutability": "nonpayable",
      "type": "function"
    },
    {
      "constant": true,
      "inputs": [],
      "name": "token",
      "outputs": [
        {
          "name": "",
          "type": "address"
        }
      ],
      "payable": false,
      "stateMutability": "view",
      "type": "function"
    },
    {
      "inputs": [
        {
          "name": "_owner",
          "type": "address"
        },
        {
          "name": "_token",
          "type": "address"
        },
        {
          "name": "name",
          "type": "string"
        },
        {
          "name": "symbol",
          "type": "string"
        }
      ],
      "payable": false,
      "stateMutability": "nonpayable",
      "type": "constructor"
    },
    {
      "anonymous": false,
      "inputs": [
        {
          "indexed": true,
          "name": "token",
          "type": "address"
        },
        {
          "indexed": true,
          "name": "from",
          "type": "address"
        },
        {
          "indexed": false,
          "name": "tokenId",
          "type": "uint256"
        }
      ],
      "name": "Deposit",
      "type": "event"
    },
    {
      "anonymous": false,
      "inputs": [
        {
          "indexed": true,
          "name": "token",
          "type": "address"
        },
        {
          "indexed": true,
          "name": "from",
          "type": "address"
        },
        {
          "indexed": false,
          "name": "tokenId",
          "type": "uint256"
        }
      ],
      "name": "Withdraw",
      "type": "event"
    },
    {
      "anonymous": false,
      "inputs": [
        {
          "indexed": true,
          "name": "token",
          "type": "address"
        },
        {
          "indexed": true,
          "name": "from",
          "type": "address"
        },
        {
          "indexed": true,
          "name": "to",
          "type": "address"
        },
        {
          "indexed": false,
          "name": "tokenId",
          "type": "uint256"
        }
      ],
      "name": "LogTransfer",
      "type": "event"
    },
    {
      "anonymous": false,
      "inputs": [
        {
          "indexed": true,
          "name": "from",
          "type": "address"
        },
        {
          "indexed": true,
          "name": "to",
          "type": "address"
        },
        {
          "indexed": true,
          "name": "tokenId",
          "type": "uint256"
        }
      ],
      "name": "Transfer",
      "type": "event"
    },
    {
      "anonymous": false,
      "inputs": [
        {
          "indexed": true,
          "name": "owner",
          "type": "address"
        },
        {
          "indexed": true,
          "name": "approved",
          "type": "address"
        },
        {
          "indexed": true,
          "name": "tokenId",
          "type": "uint256"
        }
      ],
      "name": "Approval",
      "type": "event"
    },
    {
      "anonymous": false,
      "inputs": [
        {
          "indexed": true,
          "name": "owner",
          "type": "address"
        },
        {
          "indexed": true,
          "name": "operator",
          "type": "address"
        },
        {
          "indexed": false,
          "name": "approved",
          "type": "bool"
        }
      ],
      "name": "ApprovalForAll",
      "type": "event"
    },
    {
      "anonymous": false,
      "inputs": [
        {
          "indexed": true,
          "name": "previousOwner",
          "type": "address"
        },
        {
          "indexed": true,
          "name": "newOwner",
          "type": "address"
        }
      ],
      "name": "OwnershipTransferred",
      "type": "event"
    },
    {
      "constant": false,
      "inputs": [
        {
          "name": "_parent",
          "type": "address"
        }
      ],
      "name": "setParent",
      "outputs": [],
      "payable": false,
      "stateMutability": "nonpayable",
      "type": "function"
    },
    {
      "constant": false,
      "inputs": [
        {
          "name": "user",
          "type": "address"
        },
        {
          "name": "tokenId",
          "type": "uint256"
        }
      ],
      "name": "deposit",
      "outputs": [],
      "payable": false,
      "stateMutability": "nonpayable",
      "type": "function"
    },
    {
      "constant": false,
      "inputs": [
        {
          "name": "tokenId",
          "type": "uint256"
        }
      ],
      "name": "withdraw",
      "outputs": [],
      "payable": false,
      "stateMutability": "nonpayable",
      "type": "function"
    },
    {
      "constant": false,
      "inputs": [
        {
          "name": "from",
          "type": "address"
        },
        {
          "name": "to",
          "type": "address"
        },
        {
          "name": "tokenId",
          "type": "uint256"
        }
      ],
      "name": "transferFrom",
      "outputs": [],
      "payable": false,
      "stateMutability": "nonpayable",
      "type": "function"
    },
    {
      "constant": false,
      "inputs": [
        {
          "name": "sig",
          "type": "bytes"
        },
        {
          "name": "tokenId",
          "type": "uint256"
        },
        {
          "name": "data",
          "type": "bytes32"
        },
        {
          "name": "expiration",
          "type": "uint256"
        },
        {
          "name": "to",
          "type": "address"
        }
      ],
      "name": "transferWithSig",
      "outputs": [
        {
          "name": "",
          "type": "address"
        }
      ],
      "payable": false,
      "stateMutability": "nonpayable",
      "type": "function"
    }
  ],
  "bytecode": "0x60806040523480156200001157600080fd5b50604051620021cc380380620021cc833981018060405260808110156200003757600080fd5b81516020830151604084018051929491938201926401000000008111156200005e57600080fd5b820160208101848111156200007257600080fd5b81516401000000008111828201871017156200008d57600080fd5b50509291906020018051640100000000811115620000aa57600080fd5b82016020810184811115620000be57600080fd5b8151640100000000811182820187101715620000d957600080fd5b5050600080546001600160a01b0319163317808255604051929550869450859350849284926001600160a01b039290921691907f8be0079c531659141344cd1fd0a4f28419497f9722a3daafe3b4186f6b6457e0908290a360405180608001604052806049815260200162002183604991396040516020018082805190602001908083835b602083106200017f5780518252601f1990920191602091820191016200015e565b51815160209384036101000a60001901801990921691161790526040805192909401828103601f190183528085528251928201929092208285018552600d83527f4d61746963204e6574776f726b000000000000000000000000000000000000009282019290925283518085018552600181527f3100000000000000000000000000000000000000000000000000000000000000908201528351808201929092527fd26430275d0d30693378daeb558f6ed30c3a48ba5d665f52c16608e1c41b5cd7828501527fc89efdaa54c0f20c7adf612882df0950f5a951637e0307cdcb4c672f298b8bc66060830152613a9960808301523060a0808401919091528451808403909101815260c090920190935280519083012060055550620002cc92507f01ffc9a7000000000000000000000000000000000000000000000000000000009150620003a3811b901c565b620002e46380ac58cd60e01b620003a360201b60201c565b620002fc63780e9d6360e01b620003a360201b60201c565b81516200031190600f90602085019062000410565b5080516200032790601090602084019062000410565b5062000340635b5e139f60e01b620003a360201b60201c565b505050506001600160a01b038316158015906200036557506001600160a01b03841615155b6200036f57600080fd5b5050600380546001600160a01b039384166001600160a01b03199182161790915560018054929093169116179055620004b5565b7fffffffff000000000000000000000000000000000000000000000000000000008082161415620003d357600080fd5b7fffffffff00000000000000000000000000000000000000000000000000000000166000908152600660205260409020805460ff19166001179055565b828054600181600116156101000203166002900490600052602060002090601f016020900481019282601f106200045357805160ff191683800117855562000483565b8280016001018555821562000483579182015b828111156200048357825182559160200191906001019062000466565b506200049192915062000495565b5090565b620004b291905b808211156200049157600081556001016200049c565b90565b611cbe80620004c56000396000f3fe608060405234801561001057600080fd5b50600436106101fb5760003560e01c806370a082311161011a578063acd06cb3116100ad578063e306f7791161007c578063e306f77914610776578063e614d0d61461077e578063e985e9c514610786578063f2fde38b146107b4578063fc0c546a146107da576101fb565b8063acd06cb31461063e578063b789543c1461065b578063b88d4fde14610693578063c87b56dd14610759576101fb565b80638f32d59b116100e95780638f32d59b146105f857806395d89b4114610600578063a22cb46514610608578063abceeba214610636576101fb565b806370a0823114610515578063715018a61461053b57806377d32e94146105435780638da5cb5b146105f0576101fb565b80632e1a7d4d116101925780634f6ccce7116101615780634f6ccce7146104cb57806360f96a8f146104e85780636352211e146104f05780637019d41a1461050d576101fb565b80632e1a7d4d146104205780632f745c591461043d57806342842e0e1461046957806347e7ef241461049f576101fb565b80631499c592116101ce5780631499c5921461031f57806318160ddd1461034557806319d27d9c1461035f57806323b872dd146103ea576101fb565b806301ffc9a71461020057806306fdde031461023b578063081812fc146102b8578063095ea7b3146102f1575b600080fd5b6102276004803603602081101561021657600080fd5b50356001600160e01b0319166107e2565b604080519115158252519081900360200190f35b610243610801565b6040805160208082528351818301528351919283929083019185019080838360005b8381101561027d578181015183820152602001610265565b50505050905090810190601f1680156102aa5780820380516001836020036101000a031916815260200191505b509250505060405180910390f35b6102d5600480360360208110156102ce57600080fd5b5035610898565b604080516001600160a01b039092168252519081900360200190f35b61031d6004803603604081101561030757600080fd5b506001600160a01b0381351690602001356108c8565b005b61031d6004803603602081101561033557600080fd5b50356001600160a01b0316610975565b61034d6109c1565b60408051918252519081900360200190f35b6102d5600480360360a081101561037557600080fd5b81019060208101813564010000000081111561039057600080fd5b8201836020820111156103a257600080fd5b803590602001918460018302840111640100000000831117156103c457600080fd5b9193509150803590602081013590604081013590606001356001600160a01b03166109c7565b61031d6004803603606081101561040057600080fd5b506001600160a01b03813581169160208101359091169060400135610b82565b61031d6004803603602081101561043657600080fd5b5035610c3e565b61034d6004803603604081101561045357600080fd5b506001600160a01b038135169060200135610cab565b61031d6004803603606081101561047f57600080fd5b506001600160a01b03813581169160208101359091169060400135610cf9565b61031d600480360360408110156104b557600080fd5b506001600160a01b038135169060200135610d14565b61034d600480360360208110156104e157600080fd5b5035610d8b565b6102d5610dbf565b6102d56004803603602081101561050657600080fd5b5035610dce565b6102d5610df0565b61034d6004803603602081101561052b57600080fd5b50356001600160a01b0316610dff565b61031d610e35565b6102d56004803603604081101561055957600080fd5b8135919081019060408101602082013564010000000081111561057b57600080fd5b82018360208201111561058d57600080fd5b803590602001918460018302840111640100000000831117156105af57600080fd5b91908080601f016020809104026020016040519081016040528093929190818152602001838380828437600092019190915250929550610e90945050505050565b6102d5610fc1565b610227610fd0565b610243610fe1565b61031d6004803603604081101561061e57600080fd5b506001600160a01b0381351690602001351515611042565b61034d6110c6565b6102276004803603602081101561065457600080fd5b503561114f565b61034d6004803603608081101561067157600080fd5b506001600160a01b038135169060208101359060408101359060600135611164565b61031d600480360360808110156106a957600080fd5b6001600160a01b038235811692602081013590911691604082013591908101906080810160608201356401000000008111156106e457600080fd5b8201836020820111156106f657600080fd5b8035906020019184600183028401116401000000008311171561071857600080fd5b91908080601f016020809104026020016040519081016040528093929190818152602001838380828437600092019190915250929550611183945050505050565b6102436004803603602081101561076f57600080fd5b50356111a9565b61034d61125c565b61034d611262565b6102276004803603604081101561079c57600080fd5b506001600160a01b03813581169160200135166112ac565b61031d600480360360208110156107ca57600080fd5b50356001600160a01b03166112da565b6102d56112f7565b6001600160e01b03191660009081526006602052604090205460ff1690565b600f8054604080516020601f600260001961010060018816150201909516949094049384018190048102820181019092528281526060939092909183018282801561088d5780601f106108625761010080835404028352916020019161088d565b820191906000526020600020905b81548152906001019060200180831161087057829003601f168201915b505050505090505b90565b60006108a382611306565b6108ac57600080fd5b506000908152600860205260409020546001600160a01b031690565b60006108d382610dce565b9050806001600160a01b0316836001600160a01b031614156108f457600080fd5b336001600160a01b0382161480610910575061091081336112ac565b61091957600080fd5b60008281526008602052604080822080546001600160a01b0319166001600160a01b0387811691821790925591518593918516917f8c5be1e5ebec7d5bd14f71427d1e84f3dd0314c0f7b2291e5b200ac8c7c3b92591a4505050565b6003546001600160a01b0316331461098c57600080fd5b6001600160a01b03811661099f57600080fd5b600280546001600160a01b0319166001600160a01b0392909216919091179055565b600d5490565b60008215806109d65750824311155b610a2a5760408051600160e51b62461bcd02815260206004820152601460248201527f5369676e61747572652069732065787069726564000000000000000000000000604482015290519081900360640190fd5b6000610a3833878787611164565b60008181526004602052604090205490915060ff1615610aa25760408051600160e51b62461bcd02815260206004820152600f60248201527f5369672064656163746976617465640000000000000000000000000000000000604482015290519081900360640190fd5b6000818152600460209081526040808320805460ff191660011790558051601f8b01839004830281018301909152898152610afa918491908c908c9081908401838280828437600092019190915250610e9092505050565b9050610b07818589611323565b610b228185896040518060200160405280600081525061137c565b610b765760408051600160e51b62461bcd02815260206004820152601d60248201527f5f636865636b4f6e4552433732315265636569766564206661696c6564000000604482015290519081900360640190fd5b98975050505050505050565b6002546001600160a01b031615801590610c24575060025460408051600160e01b631ffb811f0281523360048201526001600160a01b0385811660248301526044820185905291519190921691631ffb811f9160648083019260209291908290030181600087803b158015610bf657600080fd5b505af1158015610c0a573d6000803e3d6000fd5b505050506040513d6020811015610c2057600080fd5b5051155b15610c2e57610c39565b610c39838383611323565b505050565b33610c4882610dce565b6001600160a01b031614610c5b57600080fd5b610c6533826114b6565b60015460408051838152905133926001600160a01b0316917f9b1bfa7fa9ee420a16e124f794c35ac9f90472acc99140eb2f6447c714cad8eb919081900360200190a350565b6000610cb683610dff565b8210610cc157600080fd5b6001600160a01b0383166000908152600b60205260409020805483908110610ce557fe5b906000526020600020015490505b92915050565b610c3983838360405180602001604052806000815250611183565b610d1c610fd0565b610d2557600080fd5b6001600160a01b038216610d3857600080fd5b610d428282611502565b6001546040805183815290516001600160a01b038086169316917f5548c837ab068cf56a2c2479df0882a4922fd203edb7517321831d95078c5f62919081900360200190a35050565b6000610d956109c1565b8210610da057600080fd5b600d8281548110610dad57fe5b90600052602060002001549050919050565b6002546001600160a01b031681565b6000818152600760205260408120546001600160a01b031680610cf357600080fd5b6003546001600160a01b031681565b60006001600160a01b038216610e1457600080fd5b6001600160a01b0382166000908152600960205260409020610cf39061151f565b610e3d610fd0565b610e4657600080fd5b600080546040516001600160a01b03909116907f8be0079c531659141344cd1fd0a4f28419497f9722a3daafe3b4186f6b6457e0908390a3600080546001600160a01b0319169055565b6000806000808451604114610eab5760009350505050610cf3565b50505060208201516040830151604184015160ff16601b811015610ecd57601b015b8060ff16601b14158015610ee557508060ff16601c14155b15610ef65760009350505050610cf3565b6040805160008152602080820180845289905260ff8416828401526060820186905260808201859052915160019260a0808401939192601f1981019281900390910190855afa158015610f4d573d6000803e3d6000fd5b5050604051601f1901519450506001600160a01b038416610fb85760408051600160e51b62461bcd02815260206004820152601260248201527f4572726f7220696e2065637265636f7665720000000000000000000000000000604482015290519081900360640190fd5b50505092915050565b6000546001600160a01b031690565b6000546001600160a01b0316331490565b60108054604080516020601f600260001961010060018816150201909516949094049384018190048102820181019092528281526060939092909183018282801561088d5780601f106108625761010080835404028352916020019161088d565b6001600160a01b03821633141561105857600080fd5b336000818152600a602090815260408083206001600160a01b03871680855290835292819020805460ff1916861515908117909155815190815290519293927f17307eab39ab6107e8899845ad3d59bd9653f200f220920489ca2b5937696c31929181900390910190a35050565b6040518060800160405280605b8152602001611bef605b91396040516020018082805190602001908083835b602083106111115780518252601f1990920191602091820191016110f2565b6001836020036101000a0380198251168184511680821785525050505050509050019150506040516020818303038152906040528051906020012081565b60046020526000908152604090205460ff1681565b600061117a61117586868686611523565b6115dc565b95945050505050565b61118e848484610b82565b61119a8484848461137c565b6111a357600080fd5b50505050565b60606111b482611306565b6111bd57600080fd5b60008281526011602090815260409182902080548351601f6002600019610100600186161502019093169290920491820184900484028101840190945280845290918301828280156112505780601f1061122557610100808354040283529160200191611250565b820191906000526020600020905b81548152906001019060200180831161123357829003601f168201915b50505050509050919050565b60055481565b604051806080016040528060498152602001611c4a60499139604051602001808280519060200190808383602083106111115780518252601f1990920191602091820191016110f2565b6001600160a01b039182166000908152600a6020908152604080832093909416825291909152205460ff1690565b6112e2610fd0565b6112eb57600080fd5b6112f481611604565b50565b6001546001600160a01b031681565b6000908152600760205260409020546001600160a01b0316151590565b61132e838383611672565b6001546040805183815290516001600160a01b0380861693878216939116917f6eabe333476233fd382224f233210cb808a7bc4c4de64f9d76628bf63c677b1a9181900360200190a4505050565b6000611390846001600160a01b0316611691565b61139c575060016114ae565b604051600160e11b630a85bd0102815233600482018181526001600160a01b03888116602485015260448401879052608060648501908152865160848601528651600095928a169463150b7a029490938c938b938b939260a4019060208501908083838e5b83811015611419578181015183820152602001611401565b50505050905090810190601f1680156114465780820380516001836020036101000a031916815260200191505b5095505050505050602060405180830381600087803b15801561146857600080fd5b505af115801561147c573d6000803e3d6000fd5b505050506040513d602081101561149257600080fd5b50516001600160e01b031916600160e11b630a85bd0102149150505b949350505050565b6114c08282611697565b60008181526011602052604090205460026000196101006001841615020190911604156114fe5760008181526011602052604081206114fe91611b6c565b5050565b61150c82826116c3565b6115168282611764565b6114fe816117a2565b5490565b6000806040518060800160405280605b8152602001611bef605b91396040516020018082805190602001908083835b602083106115715780518252601f199092019160209182019101611552565b51815160209384036101000a60001901801990921691161790526040805192909401828103601f1901835280855282519282019290922082526001600160a01b039b909b169a81019a909a5250880196909652505050606084019190915260808301525060a0902090565b600554604051600160f01b611901028152600281019190915260228101919091526042902090565b6001600160a01b03811661161757600080fd5b600080546040516001600160a01b03808516939216917f8be0079c531659141344cd1fd0a4f28419497f9722a3daafe3b4186f6b6457e091a3600080546001600160a01b0319166001600160a01b0392909216919091179055565b61167d8383836117e6565b61168783826118c6565b610c398282611764565b3b151590565b6116a182826119bb565b6116ab82826118c6565b6000818152600c60205260408120556114fe81611a60565b6001600160a01b0382166116d657600080fd5b6116df81611306565b156116e957600080fd5b600081815260076020908152604080832080546001600160a01b0319166001600160a01b03871690811790915583526009909152902061172890611afc565b60405181906001600160a01b038416906000907fddf252ad1be2c89b69c2b068fc378daa952ba7f163c4a11628f55a4df523b3ef908290a45050565b6001600160a01b039091166000908152600b602081815260408084208054868652600c84529185208290559282526001810183559183529091200155565b600d80546000838152600e60205260408120829055600182018355919091527fd7b6990105719101dabeb77144f2a3385c8033acd3af97e9423a695e81ad1eb50155565b826001600160a01b03166117f982610dce565b6001600160a01b03161461180c57600080fd5b6001600160a01b03821661181f57600080fd5b61182881611b05565b6001600160a01b038316600090815260096020526040902061184990611b40565b6001600160a01b038216600090815260096020526040902061186a90611afc565b60008181526007602052604080822080546001600160a01b0319166001600160a01b0386811691821790925591518493918716917fddf252ad1be2c89b69c2b068fc378daa952ba7f163c4a11628f55a4df523b3ef91a4505050565b6001600160a01b0382166000908152600b60205260408120546118f090600163ffffffff611b5716565b6000838152600c602052604090205490915080821461198b576001600160a01b0384166000908152600b6020526040812080548490811061192d57fe5b9060005260206000200154905080600b6000876001600160a01b03166001600160a01b03168152602001908152602001600020838154811061196b57fe5b6000918252602080832090910192909255918252600c9052604090208190555b6001600160a01b0384166000908152600b602052604090208054906119b4906000198301611bb0565b5050505050565b816001600160a01b03166119ce82610dce565b6001600160a01b0316146119e157600080fd5b6119ea81611b05565b6001600160a01b0382166000908152600960205260409020611a0b90611b40565b60008181526007602052604080822080546001600160a01b0319169055518291906001600160a01b038516907fddf252ad1be2c89b69c2b068fc378daa952ba7f163c4a11628f55a4df523b3ef908390a45050565b600d54600090611a7790600163ffffffff611b5716565b6000838152600e6020526040812054600d8054939450909284908110611a9957fe5b9060005260206000200154905080600d8381548110611ab457fe5b6000918252602080832090910192909255828152600e90915260409020829055600d805490611ae7906000198301611bb0565b505050600091825250600e6020526040812055565b80546001019055565b6000818152600860205260409020546001600160a01b0316156112f457600090815260086020526040902080546001600160a01b0319169055565b8054611b5390600163ffffffff611b5716565b9055565b600082821115611b6657600080fd5b50900390565b50805460018160011615610100020316600290046000825580601f10611b9257506112f4565b601f0160209004906000526020600020908101906112f49190611bd0565b815481835581811115610c3957600083815260209020610c399181019083015b61089591905b80821115611bea5760008155600101611bd6565b509056fe546f6b656e5472616e736665724f726465722861646472657373207370656e6465722c75696e7432353620746f6b656e49644f72416d6f756e742c6279746573333220646174612c75696e743235362065787069726174696f6e29454950373132446f6d61696e28737472696e67206e616d652c737472696e672076657273696f6e2c75696e7432353620636861696e49642c6164647265737320636f6e747261637429a165627a7a72305820a0d1004b996474bb2fd82bf9cbd44508c716d716a36afe5b8554ad7676ff0aa10029454950373132446f6d61696e28737472696e67206e616d652c737472696e672076657273696f6e2c75696e7432353620636861696e49642c6164647265737320636f6e747261637429",
  "source": "pragma solidity ^0.5.2;\n\nimport { ERC721Full } from \"openzeppelin-solidity/contracts/token/ERC721/ERC721Full.sol\";\n\nimport \"./ChildToken.sol\";\nimport \"./misc/IParentToken.sol\";\nimport \"./misc/LibTokenTransferOrder.sol\";\n\n\ncontract ChildERC721 is ChildToken, LibTokenTransferOrder, ERC721Full {\n\n  event Deposit(\n    address indexed token,\n    address indexed from,\n    uint256 tokenId\n  );\n\n  event Withdraw(\n    address indexed token,\n    address indexed from,\n    uint256 tokenId\n  );\n\n  event LogTransfer(\n    address indexed token,\n    address indexed from,\n    address indexed to,\n    uint256 tokenId\n  );\n\n  constructor (address _owner, address _token, string memory name, string memory symbol)\n    public\n    ERC721Full(name, symbol)\n  {\n    require(_token != address(0x0) && _owner != address(0x0));\n    parentOwner = _owner;\n    token = _token;\n  }\n\n  function setParent(address _parent) public isParentOwner {\n    require(_parent != address(0x0));\n    parent = _parent;\n  }\n\n  /**\n   * @notice Deposit tokens\n   * @param user address for deposit\n   * @param tokenId tokenId to mint to user's account\n   */\n  function deposit(address user, uint256 tokenId) public onlyOwner {\n    require(user != address(0x0));\n    _mint(user, tokenId);\n    emit Deposit(token, user, tokenId);\n  }\n\n  /**\n   * @notice Withdraw tokens\n   * @param tokenId tokenId of the token to be withdrawn\n   */\n  function withdraw(uint256 tokenId) public {\n    require(ownerOf(tokenId) == msg.sender);\n    _burn(msg.sender, tokenId);\n    emit Withdraw(token, msg.sender, tokenId);\n  }\n\n  /**\n   * @dev Overriding the inherited method so that it emits LogTransfer\n   */\n  function transferFrom(address from, address to, uint256 tokenId) public {\n    if (parent != address(0x0) && !IParentToken(parent).beforeTransfer(msg.sender, to, tokenId)) {\n      return;\n    }\n    _transferFrom(from, to, tokenId);\n  }\n\n  function transferWithSig(bytes calldata sig, uint256 tokenId, bytes32 data, uint256 expiration, address to) external returns (address) {\n    require(expiration == 0 || block.number <= expiration, \"Signature is expired\");\n\n    bytes32 dataHash = getTokenTransferOrderHash(\n      msg.sender,\n      tokenId,\n      data,\n      expiration\n    );\n    require(disabledHashes[dataHash] == false, \"Sig deactivated\");\n    disabledHashes[dataHash] = true;\n\n    // recover address and send tokens\n    address from = ecrecovery(dataHash, sig);\n    _transferFrom(from, to, tokenId);\n    require(\n      _checkOnERC721Received(from, to, tokenId, \"\"),\n      \"_checkOnERC721Received failed\"\n    );\n    return from;\n  }\n\n  function _transferFrom(address from, address to, uint256 tokenId) internal {\n    super._transferFrom(from, to, tokenId);\n    emit LogTransfer(\n      token,\n      from,\n      to,\n      tokenId\n    );\n  }\n}\n",
  "sourcePath": "/Users/arpit/projects/contracts/contracts/child/ChildERC721.sol",
  "compiler": {
    "name": "solc",
    "version": "0.5.7+commit.6da8b019.Emscripten.clang"
  },
  "schemaVersion": "3.0.14",
  "updatedAt": "2019-11-13T10:42:44.270Z",
  "devdoc": {
    "methods": {
      "approve(address,uint256)": {
        "details": "Approves another address to transfer the given token ID The zero address indicates there is no approved address. There can only be one approved address per token at a given time. Can only be called by the token owner or an approved operator.",
        "params": {
          "to": "address to be approved for the given token ID",
          "tokenId": "uint256 ID of the token to be approved"
        }
      },
      "balanceOf(address)": {
        "details": "Gets the balance of the specified address",
        "params": {
          "owner": "address to query the balance of"
        },
        "return": "uint256 representing the amount owned by the passed address"
      },
      "deposit(address,uint256)": {
        "params": {
          "tokenId": "tokenId to mint to user's account",
          "user": "address for deposit"
        }
      },
      "getApproved(uint256)": {
        "details": "Gets the approved address for a token ID, or zero if no address set Reverts if the token ID does not exist.",
        "params": {
          "tokenId": "uint256 ID of the token to query the approval of"
        },
        "return": "address currently approved for the given token ID"
      },
      "isApprovedForAll(address,address)": {
        "details": "Tells whether an operator is approved by a given owner",
        "params": {
          "operator": "operator address which you want to query the approval of",
          "owner": "owner address which you want to query the approval of"
        },
        "return": "bool whether the given operator is approved by the given owner"
      },
      "isOwner()": {
        "return": "true if `msg.sender` is the owner of the contract."
      },
      "name()": {
        "details": "Gets the token name",
        "return": "string representing the token name"
      },
      "owner()": {
        "return": "the address of the owner."
      },
      "ownerOf(uint256)": {
        "details": "Gets the owner of the specified token ID",
        "params": {
          "tokenId": "uint256 ID of the token to query the owner of"
        },
        "return": "address currently marked as the owner of the given token ID"
      },
      "renounceOwnership()": {
        "details": "Allows the current owner to relinquish control of the contract. It will not be possible to call the functions with the `onlyOwner` modifier anymore."
      },
      "safeTransferFrom(address,address,uint256)": {
        "details": "Safely transfers the ownership of a given token ID to another address If the target address is a contract, it must implement `onERC721Received`, which is called upon a safe transfer, and return the magic value `bytes4(keccak256(\"onERC721Received(address,address,uint256,bytes)\"))`; otherwise, the transfer is reverted. Requires the msg.sender to be the owner, approved, or operator",
        "params": {
          "from": "current owner of the token",
          "to": "address to receive the ownership of the given token ID",
          "tokenId": "uint256 ID of the token to be transferred"
        }
      },
      "safeTransferFrom(address,address,uint256,bytes)": {
        "details": "Safely transfers the ownership of a given token ID to another address If the target address is a contract, it must implement `onERC721Received`, which is called upon a safe transfer, and return the magic value `bytes4(keccak256(\"onERC721Received(address,address,uint256,bytes)\"))`; otherwise, the transfer is reverted. Requires the msg.sender to be the owner, approved, or operator",
        "params": {
          "_data": "bytes data to send along with a safe transfer check",
          "from": "current owner of the token",
          "to": "address to receive the ownership of the given token ID",
          "tokenId": "uint256 ID of the token to be transferred"
        }
      },
      "setApprovalForAll(address,bool)": {
        "details": "Sets or unsets the approval of a given operator An operator is allowed to transfer all tokens of the sender on their behalf",
        "params": {
          "approved": "representing the status of the approval to be set",
          "to": "operator address to set the approval"
        }
      },
      "supportsInterface(bytes4)": {
        "details": "implement supportsInterface(bytes4) using a lookup table"
      },
      "symbol()": {
        "details": "Gets the token symbol",
        "return": "string representing the token symbol"
      },
      "tokenByIndex(uint256)": {
        "details": "Gets the token ID at a given index of all the tokens in this contract Reverts if the index is greater or equal to the total number of tokens",
        "params": {
          "index": "uint256 representing the index to be accessed of the tokens list"
        },
        "return": "uint256 token ID at the given index of the tokens list"
      },
      "tokenOfOwnerByIndex(address,uint256)": {
        "details": "Gets the token ID at a given index of the tokens list of the requested owner",
        "params": {
          "index": "uint256 representing the index to be accessed of the requested tokens list",
          "owner": "address owning the tokens list to be accessed"
        },
        "return": "uint256 token ID at the given index of the tokens list owned by the requested address"
      },
      "tokenURI(uint256)": {
        "details": "Returns an URI for a given token ID Throws if the token ID does not exist. May return an empty string.",
        "params": {
          "tokenId": "uint256 ID of the token to query"
        }
      },
      "totalSupply()": {
        "details": "Gets the total amount of tokens stored by the contract",
        "return": "uint256 representing the total amount of tokens"
      },
      "transferFrom(address,address,uint256)": {
        "details": "Overriding the inherited method so that it emits LogTransfer"
      },
      "transferOwnership(address)": {
        "details": "Allows the current owner to transfer control of the contract to a newOwner.",
        "params": {
          "newOwner": "The address to transfer ownership to."
        }
      },
      "withdraw(uint256)": {
        "params": {
          "tokenId": "tokenId of the token to be withdrawn"
        }
      }
    }
  },
  "userdoc": {
    "methods": {
      "deposit(address,uint256)": {
        "notice": "Deposit tokens"
      },
      "renounceOwnership()": {
        "notice": "Renouncing ownership will leave the contract without an owner, thereby removing any functionality that is only available to the owner."
      },
      "withdraw(uint256)": {
        "notice": "Withdraw tokens"
      }
    }
  }
}