{
  "contractName": "ChildERC721",
  "abi": [
    {
      "constant": true,
      "inputs": [
        {
          "internalType": "bytes4",
          "name": "interfaceId",
          "type": "bytes4"
        }
      ],
      "name": "supportsInterface",
      "outputs": [
        {
          "internalType": "bool",
          "name": "",
          "type": "bool"
        }
      ],
      "payable": false,
      "stateMutability": "view",
      "type": "function"
    },
    {
      "constant": true,
      "inputs": [],
      "name": "name",
      "outputs": [
        {
          "internalType": "string",
          "name": "",
          "type": "string"
        }
      ],
      "payable": false,
      "stateMutability": "view",
      "type": "function"
    },
    {
      "constant": true,
      "inputs": [],
      "name": "totalSupply",
      "outputs": [
        {
          "internalType": "uint256",
          "name": "",
          "type": "uint256"
        }
      ],
      "payable": false,
      "stateMutability": "view",
      "type": "function"
    },
    {
      "constant": true,
      "inputs": [
        {
          "internalType": "address",
          "name": "owner",
          "type": "address"
        },
        {
          "internalType": "uint256",
          "name": "index",
          "type": "uint256"
        }
      ],
      "name": "tokenOfOwnerByIndex",
      "outputs": [
        {
          "internalType": "uint256",
          "name": "",
          "type": "uint256"
        }
      ],
      "payable": false,
      "stateMutability": "view",
      "type": "function"
    },
    {
      "constant": false,
      "inputs": [
        {
          "internalType": "address",
          "name": "from",
          "type": "address"
        },
        {
          "internalType": "address",
          "name": "to",
          "type": "address"
        },
        {
          "internalType": "uint256",
          "name": "tokenId",
          "type": "uint256"
        }
      ],
      "name": "safeTransferFrom",
      "outputs": [],
      "payable": false,
      "stateMutability": "nonpayable",
      "type": "function"
    },
    {
      "constant": true,
      "inputs": [
        {
          "internalType": "uint256",
          "name": "index",
          "type": "uint256"
        }
      ],
      "name": "tokenByIndex",
      "outputs": [
        {
          "internalType": "uint256",
          "name": "",
          "type": "uint256"
        }
      ],
      "payable": false,
      "stateMutability": "view",
      "type": "function"
    },
    {
      "constant": true,
      "inputs": [],
      "name": "parent",
      "outputs": [
        {
          "internalType": "address",
          "name": "",
          "type": "address"
        }
      ],
      "payable": false,
      "stateMutability": "view",
      "type": "function"
    },
    {
      "constant": true,
      "inputs": [
        {
          "internalType": "uint256",
          "name": "tokenId",
          "type": "uint256"
        }
      ],
      "name": "ownerOf",
      "outputs": [
        {
          "internalType": "address",
          "name": "",
          "type": "address"
        }
      ],
      "payable": false,
      "stateMutability": "view",
      "type": "function"
    },
    {
      "constant": true,
      "inputs": [],
      "name": "parentOwner",
      "outputs": [
        {
          "internalType": "address",
          "name": "",
          "type": "address"
        }
      ],
      "payable": false,
      "stateMutability": "view",
      "type": "function"
    },
    {
      "constant": true,
      "inputs": [
        {
          "internalType": "address",
          "name": "owner",
          "type": "address"
        }
      ],
      "name": "balanceOf",
      "outputs": [
        {
          "internalType": "uint256",
          "name": "",
          "type": "uint256"
        }
      ],
      "payable": false,
      "stateMutability": "view",
      "type": "function"
    },
    {
      "constant": false,
      "inputs": [],
      "name": "renounceOwnership",
      "outputs": [],
      "payable": false,
      "stateMutability": "nonpayable",
      "type": "function"
    },
    {
      "constant": true,
      "inputs": [
        {
          "internalType": "bytes32",
          "name": "hash",
          "type": "bytes32"
        },
        {
          "internalType": "bytes",
          "name": "sig",
          "type": "bytes"
        }
      ],
      "name": "ecrecovery",
      "outputs": [
        {
          "internalType": "address",
          "name": "result",
          "type": "address"
        }
      ],
      "payable": false,
      "stateMutability": "pure",
      "type": "function"
    },
    {
      "constant": true,
      "inputs": [],
      "name": "owner",
      "outputs": [
        {
          "internalType": "address",
          "name": "",
          "type": "address"
        }
      ],
      "payable": false,
      "stateMutability": "view",
      "type": "function"
    },
    {
      "constant": true,
      "inputs": [],
      "name": "isOwner",
      "outputs": [
        {
          "internalType": "bool",
          "name": "",
          "type": "bool"
        }
      ],
      "payable": false,
      "stateMutability": "view",
      "type": "function"
    },
    {
      "constant": true,
      "inputs": [],
      "name": "networkId",
      "outputs": [
        {
          "internalType": "bytes",
          "name": "",
          "type": "bytes"
        }
      ],
      "payable": false,
      "stateMutability": "view",
      "type": "function"
    },
    {
      "constant": true,
      "inputs": [],
      "name": "symbol",
      "outputs": [
        {
          "internalType": "string",
          "name": "",
          "type": "string"
        }
      ],
      "payable": false,
      "stateMutability": "view",
      "type": "function"
    },
    {
      "constant": true,
      "inputs": [],
      "name": "EIP712_TOKEN_TRANSFER_ORDER_SCHEMA_HASH",
      "outputs": [
        {
          "internalType": "bytes32",
          "name": "",
          "type": "bytes32"
        }
      ],
      "payable": false,
      "stateMutability": "view",
      "type": "function"
    },
    {
      "constant": true,
      "inputs": [
        {
          "internalType": "bytes32",
          "name": "",
          "type": "bytes32"
        }
      ],
      "name": "disabledHashes",
      "outputs": [
        {
          "internalType": "bool",
          "name": "",
          "type": "bool"
        }
      ],
      "payable": false,
      "stateMutability": "view",
      "type": "function"
    },
    {
      "constant": true,
      "inputs": [
        {
          "internalType": "address",
          "name": "spender",
          "type": "address"
        },
        {
          "internalType": "uint256",
          "name": "tokenIdOrAmount",
          "type": "uint256"
        },
        {
          "internalType": "bytes32",
          "name": "data",
          "type": "bytes32"
        },
        {
          "internalType": "uint256",
          "name": "expiration",
          "type": "uint256"
        }
      ],
      "name": "getTokenTransferOrderHash",
      "outputs": [
        {
          "internalType": "bytes32",
          "name": "orderHash",
          "type": "bytes32"
        }
      ],
      "payable": false,
      "stateMutability": "view",
      "type": "function"
    },
    {
      "constant": false,
      "inputs": [
        {
          "internalType": "address",
          "name": "from",
          "type": "address"
        },
        {
          "internalType": "address",
          "name": "to",
          "type": "address"
        },
        {
          "internalType": "uint256",
          "name": "tokenId",
          "type": "uint256"
        },
        {
          "internalType": "bytes",
          "name": "_data",
          "type": "bytes"
        }
      ],
      "name": "safeTransferFrom",
      "outputs": [],
      "payable": false,
      "stateMutability": "nonpayable",
      "type": "function"
    },
    {
      "constant": true,
      "inputs": [
        {
          "internalType": "uint256",
          "name": "tokenId",
          "type": "uint256"
        }
      ],
      "name": "tokenURI",
      "outputs": [
        {
          "internalType": "string",
          "name": "",
          "type": "string"
        }
      ],
      "payable": false,
      "stateMutability": "view",
      "type": "function"
    },
    {
      "constant": true,
      "inputs": [],
      "name": "CHAINID",
      "outputs": [
        {
          "internalType": "uint256",
          "name": "",
          "type": "uint256"
        }
      ],
      "payable": false,
      "stateMutability": "view",
      "type": "function"
    },
    {
      "constant": true,
      "inputs": [],
      "name": "EIP712_DOMAIN_HASH",
      "outputs": [
        {
          "internalType": "bytes32",
          "name": "",
          "type": "bytes32"
        }
      ],
      "payable": false,
      "stateMutability": "view",
      "type": "function"
    },
    {
      "constant": true,
      "inputs": [],
      "name": "EIP712_DOMAIN_SCHEMA_HASH",
      "outputs": [
        {
          "internalType": "bytes32",
          "name": "",
          "type": "bytes32"
        }
      ],
      "payable": false,
      "stateMutability": "view",
      "type": "function"
    },
    {
      "constant": false,
      "inputs": [
        {
          "internalType": "address",
          "name": "newOwner",
          "type": "address"
        }
      ],
      "name": "transferOwnership",
      "outputs": [],
      "payable": false,
      "stateMutability": "nonpayable",
      "type": "function"
    },
    {
      "constant": true,
      "inputs": [],
      "name": "token",
      "outputs": [
        {
          "internalType": "address",
          "name": "",
          "type": "address"
        }
      ],
      "payable": false,
      "stateMutability": "view",
      "type": "function"
    },
    {
      "inputs": [
        {
          "internalType": "address",
          "name": "_owner",
          "type": "address"
        },
        {
          "internalType": "address",
          "name": "_token",
          "type": "address"
        },
        {
          "internalType": "string",
          "name": "name",
          "type": "string"
        },
        {
          "internalType": "string",
          "name": "symbol",
          "type": "string"
        }
      ],
      "payable": false,
      "stateMutability": "nonpayable",
      "type": "constructor"
    },
    {
      "anonymous": false,
      "inputs": [
        {
          "indexed": true,
          "internalType": "address",
          "name": "token",
          "type": "address"
        },
        {
          "indexed": true,
          "internalType": "address",
          "name": "from",
          "type": "address"
        },
        {
          "indexed": false,
          "internalType": "uint256",
          "name": "tokenId",
          "type": "uint256"
        }
      ],
      "name": "Deposit",
      "type": "event"
    },
    {
      "anonymous": false,
      "inputs": [
        {
          "indexed": true,
          "internalType": "address",
          "name": "token",
          "type": "address"
        },
        {
          "indexed": true,
          "internalType": "address",
          "name": "from",
          "type": "address"
        },
        {
          "indexed": false,
          "internalType": "uint256",
          "name": "tokenId",
          "type": "uint256"
        }
      ],
      "name": "Withdraw",
      "type": "event"
    },
    {
      "anonymous": false,
      "inputs": [
        {
          "indexed": true,
          "internalType": "address",
          "name": "token",
          "type": "address"
        },
        {
          "indexed": true,
          "internalType": "address",
          "name": "from",
          "type": "address"
        },
        {
          "indexed": true,
          "internalType": "address",
          "name": "to",
          "type": "address"
        },
        {
          "indexed": false,
          "internalType": "uint256",
          "name": "tokenId",
          "type": "uint256"
        }
      ],
      "name": "LogTransfer",
      "type": "event"
    },
    {
      "anonymous": false,
      "inputs": [
        {
          "indexed": true,
          "internalType": "address",
          "name": "from",
          "type": "address"
        },
        {
          "indexed": true,
          "internalType": "address",
          "name": "to",
          "type": "address"
        },
        {
          "indexed": true,
          "internalType": "uint256",
          "name": "tokenId",
          "type": "uint256"
        }
      ],
      "name": "Transfer",
      "type": "event"
    },
    {
      "anonymous": false,
      "inputs": [
        {
          "indexed": true,
          "internalType": "address",
          "name": "owner",
          "type": "address"
        },
        {
          "indexed": true,
          "internalType": "address",
          "name": "approved",
          "type": "address"
        },
        {
          "indexed": true,
          "internalType": "uint256",
          "name": "tokenId",
          "type": "uint256"
        }
      ],
      "name": "Approval",
      "type": "event"
    },
    {
      "anonymous": false,
      "inputs": [
        {
          "indexed": true,
          "internalType": "address",
          "name": "owner",
          "type": "address"
        },
        {
          "indexed": true,
          "internalType": "address",
          "name": "operator",
          "type": "address"
        },
        {
          "indexed": false,
          "internalType": "bool",
          "name": "approved",
          "type": "bool"
        }
      ],
      "name": "ApprovalForAll",
      "type": "event"
    },
    {
      "anonymous": false,
      "inputs": [
        {
          "indexed": true,
          "internalType": "address",
          "name": "token",
          "type": "address"
        },
        {
          "indexed": true,
          "internalType": "address",
          "name": "from",
          "type": "address"
        },
        {
          "indexed": true,
          "internalType": "address",
          "name": "to",
          "type": "address"
        },
        {
          "indexed": false,
          "internalType": "uint256",
          "name": "amount",
          "type": "uint256"
        },
        {
          "indexed": false,
          "internalType": "uint256",
          "name": "input1",
          "type": "uint256"
        },
        {
          "indexed": false,
          "internalType": "uint256",
          "name": "input2",
          "type": "uint256"
        },
        {
          "indexed": false,
          "internalType": "uint256",
          "name": "output1",
          "type": "uint256"
        },
        {
          "indexed": false,
          "internalType": "uint256",
          "name": "output2",
          "type": "uint256"
        }
      ],
      "name": "LogFeeTransfer",
      "type": "event"
    },
    {
      "anonymous": false,
      "inputs": [
        {
          "indexed": true,
          "internalType": "address",
          "name": "previousOwner",
          "type": "address"
        },
        {
          "indexed": true,
          "internalType": "address",
          "name": "newOwner",
          "type": "address"
        }
      ],
      "name": "OwnershipTransferred",
      "type": "event"
    },
    {
      "constant": false,
      "inputs": [
        {
          "internalType": "bytes",
          "name": "sig",
          "type": "bytes"
        },
        {
          "internalType": "uint256",
          "name": "tokenId",
          "type": "uint256"
        },
        {
          "internalType": "bytes32",
          "name": "data",
          "type": "bytes32"
        },
        {
          "internalType": "uint256",
          "name": "expiration",
          "type": "uint256"
        },
        {
          "internalType": "address",
          "name": "to",
          "type": "address"
        }
      ],
      "name": "transferWithSig",
      "outputs": [
        {
          "internalType": "address",
          "name": "",
          "type": "address"
        }
      ],
      "payable": false,
      "stateMutability": "nonpayable",
      "type": "function"
    },
    {
      "constant": false,
      "inputs": [
        {
          "internalType": "address",
          "name": "_parent",
          "type": "address"
        }
      ],
      "name": "setParent",
      "outputs": [],
      "payable": false,
      "stateMutability": "nonpayable",
      "type": "function"
    },
    {
      "constant": false,
      "inputs": [
        {
          "internalType": "address",
          "name": "to",
          "type": "address"
        },
        {
          "internalType": "uint256",
          "name": "tokenId",
          "type": "uint256"
        }
      ],
      "name": "approve",
      "outputs": [],
      "payable": false,
      "stateMutability": "nonpayable",
      "type": "function"
    },
    {
      "constant": true,
      "inputs": [
        {
          "internalType": "uint256",
          "name": "tokenId",
          "type": "uint256"
        }
      ],
      "name": "getApproved",
      "outputs": [
        {
          "internalType": "address",
          "name": "operator",
          "type": "address"
        }
      ],
      "payable": false,
      "stateMutability": "view",
      "type": "function"
    },
    {
      "constant": false,
      "inputs": [
        {
          "internalType": "address",
          "name": "operator",
          "type": "address"
        },
        {
          "internalType": "bool",
          "name": "_approved",
          "type": "bool"
        }
      ],
      "name": "setApprovalForAll",
      "outputs": [],
      "payable": false,
      "stateMutability": "nonpayable",
      "type": "function"
    },
    {
      "constant": true,
      "inputs": [
        {
          "internalType": "address",
          "name": "owner",
          "type": "address"
        },
        {
          "internalType": "address",
          "name": "operator",
          "type": "address"
        }
      ],
      "name": "isApprovedForAll",
      "outputs": [
        {
          "internalType": "bool",
          "name": "",
          "type": "bool"
        }
      ],
      "payable": false,
      "stateMutability": "view",
      "type": "function"
    },
    {
      "constant": false,
      "inputs": [
        {
          "internalType": "address",
          "name": "user",
          "type": "address"
        },
        {
          "internalType": "uint256",
          "name": "tokenId",
          "type": "uint256"
        }
      ],
      "name": "deposit",
      "outputs": [],
      "payable": false,
      "stateMutability": "nonpayable",
      "type": "function"
    },
    {
      "constant": false,
      "inputs": [
        {
          "internalType": "uint256",
          "name": "tokenId",
          "type": "uint256"
        }
      ],
      "name": "withdraw",
      "outputs": [],
      "payable": true,
      "stateMutability": "payable",
      "type": "function"
    },
    {
      "constant": false,
      "inputs": [
        {
          "internalType": "address",
          "name": "from",
          "type": "address"
        },
        {
          "internalType": "address",
          "name": "to",
          "type": "address"
        },
        {
          "internalType": "uint256",
          "name": "tokenId",
          "type": "uint256"
        }
      ],
      "name": "transferFrom",
      "outputs": [],
      "payable": false,
      "stateMutability": "nonpayable",
      "type": "function"
    }
  ],
  "bytecode": "0x60806040523480156200001157600080fd5b50604051620023a1380380620023a1833981810160405260808110156200003757600080fd5b815160208301516040808501805191519395929483019291846401000000008211156200006357600080fd5b9083019060208201858111156200007957600080fd5b82516401000000008111828201881017156200009457600080fd5b82525081516020918201929091019080838360005b83811015620000c3578181015183820152602001620000a9565b50505050905090810190601f168015620000f15780820380516001836020036101000a031916815260200191505b50604052602001805160405193929190846401000000008211156200011557600080fd5b9083019060208201858111156200012b57600080fd5b82516401000000008111828201881017156200014657600080fd5b82525081516020918201929091019080838360005b83811015620001755781810151838201526020016200015b565b50505050905090810190601f168015620001a35780820380516001836020036101000a031916815260200191505b506040819052600080546001600160a01b031916331780825587955086945085935084926001600160a01b039190911691907f8be0079c531659141344cd1fd0a4f28419497f9722a3daafe3b4186f6b6457e0908290a360405180608001604052806049815260200162002358604991396040516020018082805190602001908083835b60208310620002485780518252601f19909201916020918201910162000227565b51815160209384036101000a60001901801990921691161790526040805192909401828103601f190183528085528251928201929092208285018552600d83527f4d61746963204e6574776f726b00000000000000000000000000000000000000928201929092528351808501855260018082527f3100000000000000000000000000000000000000000000000000000000000000918301919091528451808301939093527fd26430275d0d30693378daeb558f6ed30c3a48ba5d665f52c16608e1c41b5cd7838601527fc89efdaa54c0f20c7adf612882df0950f5a951637e0307cdcb4c672f298b8bc66060840152613eee60808401523060a0808501919091528551808503909101815260c09093019094528151910120909155506200039491507f01ffc9a7000000000000000000000000000000000000000000000000000000009050620004bf565b620003c87f80ac58cd000000000000000000000000000000000000000000000000000000006001600160e01b03620004bf16565b620003fc7f780e9d63000000000000000000000000000000000000000000000000000000006001600160e01b03620004bf16565b81516200041190600f9060208501906200052c565b508051620004279060109060208401906200052c565b506200045c7f5b5e139f000000000000000000000000000000000000000000000000000000006001600160e01b03620004bf16565b505050506001600160a01b038316158015906200048157506001600160a01b03841615155b6200048b57600080fd5b5050600480546001600160a01b039384166001600160a01b03199182161790915560028054929093169116179055620005d1565b7fffffffff000000000000000000000000000000000000000000000000000000008082161415620004ef57600080fd5b7fffffffff00000000000000000000000000000000000000000000000000000000166000908152600660205260409020805460ff19166001179055565b828054600181600116156101000203166002900490600052602060002090601f016020900481019282601f106200056f57805160ff19168380011785556200059f565b828001600101855582156200059f579182015b828111156200059f57825182559160200191906001019062000582565b50620005ad929150620005b1565b5090565b620005ce91905b80821115620005ad5760008155600101620005b8565b90565b611d7780620005e16000396000f3fe6080604052600436106102045760003560e01c8063715018a611610118578063b789543c116100a0578063e306f7791161006f578063e306f77914610908578063e614d0d61461091d578063e985e9c514610932578063f2fde38b1461096d578063fc0c546a146109a057610204565b8063b789543c146107b1578063b88d4fde146107f6578063c87b56dd146108c9578063cc79f97b146108f357610204565b80639025e64c116100e75780639025e64c1461070d57806395d89b4114610722578063a22cb46514610737578063abceeba214610772578063acd06cb31461078757610204565b8063715018a61461061457806377d32e94146106295780638da5cb5b146106e35780638f32d59b146106f857610204565b80632e1a7d4d1161019b5780634f6ccce71161016a5780634f6ccce71461056357806360f96a8f1461058d5780636352211e146105a25780637019d41a146105cc57806370a08231146105e157610204565b80632e1a7d4d146104915780632f745c59146104ae57806342842e0e146104e757806347e7ef241461052a57610204565b80631499c592116101d75780631499c5921461035c57806318160ddd1461038f57806319d27d9c146103b657806323b872dd1461044e57610204565b806301ffc9a71461020957806306fdde0314610251578063081812fc146102db578063095ea7b314610321575b600080fd5b34801561021557600080fd5b5061023d6004803603602081101561022c57600080fd5b50356001600160e01b0319166109b5565b604080519115158252519081900360200190f35b34801561025d57600080fd5b506102666109d4565b6040805160208082528351818301528351919283929083019185019080838360005b838110156102a0578181015183820152602001610288565b50505050905090810190601f1680156102cd5780820380516001836020036101000a031916815260200191505b509250505060405180910390f35b3480156102e757600080fd5b50610305600480360360208110156102fe57600080fd5b5035610a6b565b604080516001600160a01b039092168252519081900360200190f35b34801561032d57600080fd5b5061035a6004803603604081101561034457600080fd5b506001600160a01b038135169060200135610aad565b005b34801561036857600080fd5b5061035a6004803603602081101561037f57600080fd5b50356001600160a01b0316610aed565b34801561039b57600080fd5b506103a4610b39565b60408051918252519081900360200190f35b3480156103c257600080fd5b50610305600480360360a08110156103d957600080fd5b8101906020810181356401000000008111156103f457600080fd5b82018360208201111561040657600080fd5b8035906020019184600183028401116401000000008311171561042857600080fd5b9193509150803590602081013590604081013590606001356001600160a01b0316610b3f565b34801561045a57600080fd5b5061035a6004803603606081101561047157600080fd5b506001600160a01b03813581169160208101359091169060400135610cda565b61035a600480360360208110156104a757600080fd5b5035610d93565b3480156104ba57600080fd5b506103a4600480360360408110156104d157600080fd5b506001600160a01b038135169060200135610e00565b3480156104f357600080fd5b5061035a6004803603606081101561050a57600080fd5b506001600160a01b03813581169160208101359091169060400135610e4e565b34801561053657600080fd5b5061035a6004803603604081101561054d57600080fd5b506001600160a01b038135169060200135610e69565b34801561056f57600080fd5b506103a46004803603602081101561058657600080fd5b5035610ee0565b34801561059957600080fd5b50610305610f14565b3480156105ae57600080fd5b50610305600480360360208110156105c557600080fd5b5035610f23565b3480156105d857600080fd5b50610305610f45565b3480156105ed57600080fd5b506103a46004803603602081101561060457600080fd5b50356001600160a01b0316610f54565b34801561062057600080fd5b5061035a610f8a565b34801561063557600080fd5b506103056004803603604081101561064c57600080fd5b8135919081019060408101602082013564010000000081111561066e57600080fd5b82018360208201111561068057600080fd5b803590602001918460018302840111640100000000831117156106a257600080fd5b91908080601f016020809104026020016040519081016040528093929190818152602001838380828437600092019190915250929550610fe5945050505050565b3480156106ef57600080fd5b50610305611108565b34801561070457600080fd5b5061023d611117565b34801561071957600080fd5b50610266611128565b34801561072e57600080fd5b50610266611146565b34801561074357600080fd5b5061035a6004803603604081101561075a57600080fd5b506001600160a01b0381351690602001351515610aad565b34801561077e57600080fd5b506103a46111a7565b34801561079357600080fd5b5061023d600480360360208110156107aa57600080fd5b5035611230565b3480156107bd57600080fd5b506103a4600480360360808110156107d457600080fd5b506001600160a01b038135169060208101359060408101359060600135611245565b34801561080257600080fd5b5061035a6004803603608081101561081957600080fd5b6001600160a01b0382358116926020810135909116916040820135919081019060808101606082013564010000000081111561085457600080fd5b82018360208201111561086657600080fd5b8035906020019184600183028401116401000000008311171561088857600080fd5b91908080601f016020809104026020016040519081016040528093929190818152602001838380828437600092019190915250929550611264945050505050565b3480156108d557600080fd5b50610266600480360360208110156108ec57600080fd5b503561128a565b3480156108ff57600080fd5b506103a461133d565b34801561091457600080fd5b506103a4611343565b34801561092957600080fd5b506103a4611349565b34801561093e57600080fd5b5061023d6004803603604081101561095557600080fd5b506001600160a01b0381358116916020013516610a6b565b34801561097957600080fd5b5061035a6004803603602081101561099057600080fd5b50356001600160a01b0316611393565b3480156109ac57600080fd5b506103056113b0565b6001600160e01b03191660009081526006602052604090205460ff1690565b600f8054604080516020601f6002600019610100600188161502019095169490940493840181900481028201810190925282815260609390929091830182828015610a605780601f10610a3557610100808354040283529160200191610a60565b820191906000526020600020905b815481529060010190602001808311610a4357829003601f168201915b505050505090505b90565b6040805162461bcd60e51b815260206004820152601060248201526f44697361626c6564206665617475726560801b6044820152905160009181900360640190fd5b6040805162461bcd60e51b815260206004820152601060248201526f44697361626c6564206665617475726560801b604482015290519081900360640190fd5b6004546001600160a01b03163314610b0457600080fd5b6001600160a01b038116610b1757600080fd5b600380546001600160a01b0319166001600160a01b0392909216919091179055565b600d5490565b6000821580610b4e5750824311155b610b96576040805162461bcd60e51b815260206004820152601460248201527314da59db985d1d5c99481a5cc8195e1c1a5c995960621b604482015290519081900360640190fd5b6000610ba433878787611245565b60008181526005602052604090205490915060ff1615610bfd576040805162461bcd60e51b815260206004820152600f60248201526e14da59c819195858dd1a5d985d1959608a1b604482015290519081900360640190fd5b6000818152600560209081526040808320805460ff191660011790558051601f8b01839004830281018301909152898152610c55918491908c908c9081908401838280828437600092019190915250610fe592505050565b9050610c628185896113bf565b610c7d81858960405180602001604052806000815250611418565b610cce576040805162461bcd60e51b815260206004820152601d60248201527f5f636865636b4f6e4552433732315265636569766564206661696c6564000000604482015290519081900360640190fd5b98975050505050505050565b6003546001600160a01b031615801590610d79575060035460408051631ffb811f60e01b81523360048201526001600160a01b0385811660248301526044820185905291519190921691631ffb811f9160648083019260209291908290030181600087803b158015610d4b57600080fd5b505af1158015610d5f573d6000803e3d6000fd5b505050506040513d6020811015610d7557600080fd5b5051155b15610d8357610d8e565b610d8e8383836113bf565b505050565b33610d9d82610f23565b6001600160a01b031614610db057600080fd5b610dba338261154c565b60025460408051838152905133926001600160a01b0316917f9b1bfa7fa9ee420a16e124f794c35ac9f90472acc99140eb2f6447c714cad8eb919081900360200190a350565b6000610e0b83610f54565b8210610e1657600080fd5b6001600160a01b0383166000908152600b60205260409020805483908110610e3a57fe5b906000526020600020015490505b92915050565b610d8e83838360405180602001604052806000815250611264565b610e71611117565b610e7a57600080fd5b6001600160a01b038216610e8d57600080fd5b610e978282611598565b6002546040805183815290516001600160a01b038086169316917f5548c837ab068cf56a2c2479df0882a4922fd203edb7517321831d95078c5f62919081900360200190a35050565b6000610eea610b39565b8210610ef557600080fd5b600d8281548110610f0257fe5b90600052602060002001549050919050565b6003546001600160a01b031681565b6000818152600760205260408120546001600160a01b031680610e4857600080fd5b6004546001600160a01b031681565b60006001600160a01b038216610f6957600080fd5b6001600160a01b0382166000908152600960205260409020610e48906115b5565b610f92611117565b610f9b57600080fd5b600080546040516001600160a01b03909116907f8be0079c531659141344cd1fd0a4f28419497f9722a3daafe3b4186f6b6457e0908390a3600080546001600160a01b0319169055565b60008060008084516041146110005760009350505050610e48565b50505060208201516040830151604184015160ff16601b81101561102257601b015b8060ff16601b1415801561103a57508060ff16601c14155b1561104b5760009350505050610e48565b6040805160008152602080820180845289905260ff8416828401526060820186905260808201859052915160019260a0808401939192601f1981019281900390910190855afa1580156110a2573d6000803e3d6000fd5b5050604051601f1901519450506001600160a01b0384166110ff576040805162461bcd60e51b815260206004820152601260248201527122b93937b91034b71032b1b932b1b7bb32b960711b604482015290519081900360640190fd5b50505092915050565b6000546001600160a01b031690565b6000546001600160a01b0316331490565b604051806040016040528060028152602001611f7760f11b81525081565b60108054604080516020601f6002600019610100600188161502019095169490940493840181900481028201810190925282815260609390929091830182828015610a605780601f10610a3557610100808354040283529160200191610a60565b6040518060800160405280605b8152602001611c9f605b91396040516020018082805190602001908083835b602083106111f25780518252601f1990920191602091820191016111d3565b6001836020036101000a0380198251168184511680821785525050505050509050019150506040516020818303038152906040528051906020012081565b60056020526000908152604090205460ff1681565b600061125b611256868686866115b9565b611672565b95945050505050565b61126f848484610cda565b61127b84848484611418565b61128457600080fd5b50505050565b606061129582611697565b61129e57600080fd5b60008281526011602090815260409182902080548351601f6002600019610100600186161502019093169290920491820184900484028101840190945280845290918301828280156113315780601f1061130657610100808354040283529160200191611331565b820191906000526020600020905b81548152906001019060200180831161131457829003601f168201915b50505050509050919050565b613eee81565b60015481565b604051806080016040528060498152602001611cfa60499139604051602001808280519060200190808383602083106111f25780518252601f1990920191602091820191016111d3565b61139b611117565b6113a457600080fd5b6113ad816116b4565b50565b6002546001600160a01b031681565b6113ca838383611722565b6002546040805183815290516001600160a01b0380861693878216939116917f6eabe333476233fd382224f233210cb808a7bc4c4de64f9d76628bf63c677b1a9181900360200190a4505050565b600061142c846001600160a01b0316611741565b61143857506001611544565b604051630a85bd0160e11b815233600482018181526001600160a01b03888116602485015260448401879052608060648501908152865160848601528651600095928a169463150b7a029490938c938b938b939260a4019060208501908083838e5b838110156114b257818101518382015260200161149a565b50505050905090810190601f1680156114df5780820380516001836020036101000a031916815260200191505b5095505050505050602060405180830381600087803b15801561150157600080fd5b505af1158015611515573d6000803e3d6000fd5b505050506040513d602081101561152b57600080fd5b50516001600160e01b031916630a85bd0160e11b149150505b949350505050565b6115568282611747565b600081815260116020526040902054600260001961010060018416150201909116041561159457600081815260116020526040812061159491611c1c565b5050565b6115a28282611773565b6115ac8282611814565b61159481611852565b5490565b6000806040518060800160405280605b8152602001611c9f605b91396040516020018082805190602001908083835b602083106116075780518252601f1990920191602091820191016115e8565b51815160209384036101000a60001901801990921691161790526040805192909401828103601f1901835280855282519282019290922082526001600160a01b039b909b169a81019a909a5250880196909652505050606084019190915260808301525060a0902090565b60015460405161190160f01b8152600281019190915260228101919091526042902090565b6000908152600760205260409020546001600160a01b0316151590565b6001600160a01b0381166116c757600080fd5b600080546040516001600160a01b03808516939216917f8be0079c531659141344cd1fd0a4f28419497f9722a3daafe3b4186f6b6457e091a3600080546001600160a01b0319166001600160a01b0392909216919091179055565b61172d838383611896565b6117378382611976565b610d8e8282611814565b3b151590565b6117518282611a6b565b61175b8282611976565b6000818152600c602052604081205561159481611b10565b6001600160a01b03821661178657600080fd5b61178f81611697565b1561179957600080fd5b600081815260076020908152604080832080546001600160a01b0319166001600160a01b0387169081179091558352600990915290206117d890611bac565b60405181906001600160a01b038416906000907fddf252ad1be2c89b69c2b068fc378daa952ba7f163c4a11628f55a4df523b3ef908290a45050565b6001600160a01b039091166000908152600b602081815260408084208054868652600c84529185208290559282526001810183559183529091200155565b600d80546000838152600e60205260408120829055600182018355919091527fd7b6990105719101dabeb77144f2a3385c8033acd3af97e9423a695e81ad1eb50155565b826001600160a01b03166118a982610f23565b6001600160a01b0316146118bc57600080fd5b6001600160a01b0382166118cf57600080fd5b6118d881611bb5565b6001600160a01b03831660009081526009602052604090206118f990611bf0565b6001600160a01b038216600090815260096020526040902061191a90611bac565b60008181526007602052604080822080546001600160a01b0319166001600160a01b0386811691821790925591518493918716917fddf252ad1be2c89b69c2b068fc378daa952ba7f163c4a11628f55a4df523b3ef91a4505050565b6001600160a01b0382166000908152600b60205260408120546119a090600163ffffffff611c0716565b6000838152600c6020526040902054909150808214611a3b576001600160a01b0384166000908152600b602052604081208054849081106119dd57fe5b9060005260206000200154905080600b6000876001600160a01b03166001600160a01b031681526020019081526020016000208381548110611a1b57fe5b6000918252602080832090910192909255918252600c9052604090208190555b6001600160a01b0384166000908152600b60205260409020805490611a64906000198301611c60565b5050505050565b816001600160a01b0316611a7e82610f23565b6001600160a01b031614611a9157600080fd5b611a9a81611bb5565b6001600160a01b0382166000908152600960205260409020611abb90611bf0565b60008181526007602052604080822080546001600160a01b0319169055518291906001600160a01b038516907fddf252ad1be2c89b69c2b068fc378daa952ba7f163c4a11628f55a4df523b3ef908390a45050565b600d54600090611b2790600163ffffffff611c0716565b6000838152600e6020526040812054600d8054939450909284908110611b4957fe5b9060005260206000200154905080600d8381548110611b6457fe5b6000918252602080832090910192909255828152600e90915260409020829055600d805490611b97906000198301611c60565b505050600091825250600e6020526040812055565b80546001019055565b6000818152600860205260409020546001600160a01b0316156113ad57600090815260086020526040902080546001600160a01b0319169055565b8054611c0390600163ffffffff611c0716565b9055565b600082821115611c1657600080fd5b50900390565b50805460018160011615610100020316600290046000825580601f10611c4257506113ad565b601f0160209004906000526020600020908101906113ad9190611c80565b815481835581811115610d8e57600083815260209020610d8e9181019083015b610a6891905b80821115611c9a5760008155600101611c86565b509056fe546f6b656e5472616e736665724f726465722861646472657373207370656e6465722c75696e7432353620746f6b656e49644f72416d6f756e742c6279746573333220646174612c75696e743235362065787069726174696f6e29454950373132446f6d61696e28737472696e67206e616d652c737472696e672076657273696f6e2c75696e7432353620636861696e49642c6164647265737320636f6e747261637429a265627a7a72315820a5c4853a764921f47ed233b9a2d719494c1c3408dec76ae97de0327e0557d68564736f6c634300050b0032454950373132446f6d61696e28737472696e67206e616d652c737472696e672076657273696f6e2c75696e7432353620636861696e49642c6164647265737320636f6e747261637429",
  "source": "pragma solidity ^0.5.2;\n\nimport { ERC721Full } from \"openzeppelin-solidity/contracts/token/ERC721/ERC721Full.sol\";\n\nimport \"./ChildToken.sol\";\nimport \"./misc/IParentToken.sol\";\n\n\ncontract ChildERC721 is ChildToken, ERC721Full {\n\n  event Deposit(\n    address indexed token,\n    address indexed from,\n    uint256 tokenId\n  );\n\n  event Withdraw(\n    address indexed token,\n    address indexed from,\n    uint256 tokenId\n  );\n\n  event LogTransfer(\n    address indexed token,\n    address indexed from,\n    address indexed to,\n    uint256 tokenId\n  );\n\n  constructor (address _owner, address _token, string memory name, string memory symbol)\n    public\n    ERC721Full(name, symbol)\n  {\n    require(_token != address(0x0) && _owner != address(0x0));\n    parentOwner = _owner;\n    token = _token;\n  }\n\n  function transferWithSig(bytes calldata sig, uint256 tokenId, bytes32 data, uint256 expiration, address to) external returns (address) {\n    require(expiration == 0 || block.number <= expiration, \"Signature is expired\");\n\n    bytes32 dataHash = getTokenTransferOrderHash(\n      msg.sender,\n      tokenId,\n      data,\n      expiration\n    );\n    require(disabledHashes[dataHash] == false, \"Sig deactivated\");\n    disabledHashes[dataHash] = true;\n\n    // recover address and send tokens\n    address from = ecrecovery(dataHash, sig);\n    _transferFrom(from, to, tokenId);\n    require(\n      _checkOnERC721Received(from, to, tokenId, \"\"),\n      \"_checkOnERC721Received failed\"\n    );\n    return from;\n  }\n\n  function setParent(address _parent) public isParentOwner {\n    require(_parent != address(0x0));\n    parent = _parent;\n  }\n\n  function approve(address to, uint256 tokenId) public {\n    revert(\"Disabled feature\");\n  }\n\n  function getApproved(uint256 tokenId) public view returns (address operator) {\n    revert(\"Disabled feature\");\n  }\n\n  function setApprovalForAll(address operator, bool _approved) public {\n    revert(\"Disabled feature\");\n  }\n\n  function isApprovedForAll(address owner, address operator) public view returns (bool){\n    revert(\"Disabled feature\");\n  }\n\n  /**\n   * @notice Deposit tokens\n   * @param user address for deposit\n   * @param tokenId tokenId to mint to user's account\n   */\n  function deposit(address user, uint256 tokenId) public onlyOwner {\n    require(user != address(0x0));\n    _mint(user, tokenId);\n    emit Deposit(token, user, tokenId);\n  }\n\n  /**\n   * @notice Withdraw tokens\n   * @param tokenId tokenId of the token to be withdrawn\n   */\n  function withdraw(uint256 tokenId) payable public {\n    require(ownerOf(tokenId) == msg.sender);\n    _burn(msg.sender, tokenId);\n    emit Withdraw(token, msg.sender, tokenId);\n  }\n\n  /**\n   * @dev Overriding the inherited method so that it emits LogTransfer\n   */\n  function transferFrom(address from, address to, uint256 tokenId) public {\n    if (parent != address(0x0) && !IParentToken(parent).beforeTransfer(msg.sender, to, tokenId)) {\n      return;\n    }\n    _transferFrom(from, to, tokenId);\n  }\n\n  function _transferFrom(address from, address to, uint256 tokenId) internal {\n    super._transferFrom(from, to, tokenId);\n    emit LogTransfer(\n      token,\n      from,\n      to,\n      tokenId\n    );\n  }\n}\n",
  "sourcePath": "/Users/atvanguard/matic/contracts/contracts/child/ChildERC721.sol",
  "compiler": {
    "name": "solc",
    "version": "0.5.11+commit.c082d0b4.Emscripten.clang"
  },
  "schemaVersion": "3.0.14",
  "updatedAt": "2019-12-18T15:44:20.877Z",
  "devdoc": {
    "methods": {
      "balanceOf(address)": {
        "details": "Gets the balance of the specified address",
        "params": {
          "owner": "address to query the balance of"
        },
        "return": "uint256 representing the amount owned by the passed address"
      },
      "deposit(address,uint256)": {
        "params": {
          "tokenId": "tokenId to mint to user's account",
          "user": "address for deposit"
        }
      },
      "isOwner()": {
        "return": "true if `msg.sender` is the owner of the contract."
      },
      "name()": {
        "details": "Gets the token name",
        "return": "string representing the token name"
      },
      "owner()": {
        "return": "the address of the owner."
      },
      "ownerOf(uint256)": {
        "details": "Gets the owner of the specified token ID",
        "params": {
          "tokenId": "uint256 ID of the token to query the owner of"
        },
        "return": "address currently marked as the owner of the given token ID"
      },
      "renounceOwnership()": {
        "details": "Allows the current owner to relinquish control of the contract. It will not be possible to call the functions with the `onlyOwner` modifier anymore."
      },
      "safeTransferFrom(address,address,uint256)": {
        "details": "Safely transfers the ownership of a given token ID to another address If the target address is a contract, it must implement `onERC721Received`, which is called upon a safe transfer, and return the magic value `bytes4(keccak256(\"onERC721Received(address,address,uint256,bytes)\"))`; otherwise, the transfer is reverted. Requires the msg.sender to be the owner, approved, or operator",
        "params": {
          "from": "current owner of the token",
          "to": "address to receive the ownership of the given token ID",
          "tokenId": "uint256 ID of the token to be transferred"
        }
      },
      "safeTransferFrom(address,address,uint256,bytes)": {
        "details": "Safely transfers the ownership of a given token ID to another address If the target address is a contract, it must implement `onERC721Received`, which is called upon a safe transfer, and return the magic value `bytes4(keccak256(\"onERC721Received(address,address,uint256,bytes)\"))`; otherwise, the transfer is reverted. Requires the msg.sender to be the owner, approved, or operator",
        "params": {
          "_data": "bytes data to send along with a safe transfer check",
          "from": "current owner of the token",
          "to": "address to receive the ownership of the given token ID",
          "tokenId": "uint256 ID of the token to be transferred"
        }
      },
      "supportsInterface(bytes4)": {
        "details": "implement supportsInterface(bytes4) using a lookup table"
      },
      "symbol()": {
        "details": "Gets the token symbol",
        "return": "string representing the token symbol"
      },
      "tokenByIndex(uint256)": {
        "details": "Gets the token ID at a given index of all the tokens in this contract Reverts if the index is greater or equal to the total number of tokens",
        "params": {
          "index": "uint256 representing the index to be accessed of the tokens list"
        },
        "return": "uint256 token ID at the given index of the tokens list"
      },
      "tokenOfOwnerByIndex(address,uint256)": {
        "details": "Gets the token ID at a given index of the tokens list of the requested owner",
        "params": {
          "index": "uint256 representing the index to be accessed of the requested tokens list",
          "owner": "address owning the tokens list to be accessed"
        },
        "return": "uint256 token ID at the given index of the tokens list owned by the requested address"
      },
      "tokenURI(uint256)": {
        "details": "Returns an URI for a given token ID Throws if the token ID does not exist. May return an empty string.",
        "params": {
          "tokenId": "uint256 ID of the token to query"
        }
      },
      "totalSupply()": {
        "details": "Gets the total amount of tokens stored by the contract",
        "return": "uint256 representing the total amount of tokens"
      },
      "transferFrom(address,address,uint256)": {
        "details": "Overriding the inherited method so that it emits LogTransfer"
      },
      "transferOwnership(address)": {
        "details": "Allows the current owner to transfer control of the contract to a newOwner.",
        "params": {
          "newOwner": "The address to transfer ownership to."
        }
      },
      "withdraw(uint256)": {
        "params": {
          "tokenId": "tokenId of the token to be withdrawn"
        }
      }
    }
  },
  "userdoc": {
    "methods": {
      "deposit(address,uint256)": {
        "notice": "Deposit tokens"
      },
      "renounceOwnership()": {
        "notice": "Renouncing ownership will leave the contract without an owner, thereby removing any functionality that is only available to the owner."
      },
      "withdraw(uint256)": {
        "notice": "Withdraw tokens"
      }
    }
  }
}