{
  "contractName": "ChildChain",
  "abi": [
    {
      "constant": true,
      "inputs": [
        {
          "name": "",
          "type": "uint256"
        }
      ],
      "name": "withdraws",
      "outputs": [
        {
          "name": "",
          "type": "bool"
        }
      ],
      "payable": false,
      "stateMutability": "view",
      "type": "function"
    },
    {
      "constant": true,
      "inputs": [],
      "name": "isOnlyStateSyncerContract",
      "outputs": [
        {
          "name": "",
          "type": "bool"
        }
      ],
      "payable": false,
      "stateMutability": "view",
      "type": "function"
    },
    {
      "constant": false,
      "inputs": [],
      "name": "renounceOwnership",
      "outputs": [],
      "payable": false,
      "stateMutability": "nonpayable",
      "type": "function"
    },
    {
      "constant": true,
      "inputs": [],
      "name": "owner",
      "outputs": [
        {
          "name": "",
          "type": "address"
        }
      ],
      "payable": false,
      "stateMutability": "view",
      "type": "function"
    },
    {
      "constant": true,
      "inputs": [],
      "name": "isOwner",
      "outputs": [
        {
          "name": "",
          "type": "bool"
        }
      ],
      "payable": false,
      "stateMutability": "view",
      "type": "function"
    },
    {
      "constant": true,
      "inputs": [
        {
          "name": "",
          "type": "uint256"
        }
      ],
      "name": "deposits",
      "outputs": [
        {
          "name": "",
          "type": "bool"
        }
      ],
      "payable": false,
      "stateMutability": "view",
      "type": "function"
    },
    {
      "constant": true,
      "inputs": [
        {
          "name": "",
          "type": "address"
        }
      ],
      "name": "isERC721",
      "outputs": [
        {
          "name": "",
          "type": "bool"
        }
      ],
      "payable": false,
      "stateMutability": "view",
      "type": "function"
    },
    {
      "constant": false,
      "inputs": [
        {
          "name": "newAddress",
          "type": "address"
        }
      ],
      "name": "changeStateSyncerAddress",
      "outputs": [],
      "payable": false,
      "stateMutability": "nonpayable",
      "type": "function"
    },
    {
      "constant": true,
      "inputs": [
        {
          "name": "",
          "type": "address"
        }
      ],
      "name": "tokens",
      "outputs": [
        {
          "name": "",
          "type": "address"
        }
      ],
      "payable": false,
      "stateMutability": "view",
      "type": "function"
    },
    {
      "constant": false,
      "inputs": [
        {
          "name": "newOwner",
          "type": "address"
        }
      ],
      "name": "transferOwnership",
      "outputs": [],
      "payable": false,
      "stateMutability": "nonpayable",
      "type": "function"
    },
    {
      "constant": true,
      "inputs": [],
      "name": "stateSyncer",
      "outputs": [
        {
          "name": "",
          "type": "address"
        }
      ],
      "payable": false,
      "stateMutability": "view",
      "type": "function"
    },
    {
      "inputs": [],
      "payable": false,
      "stateMutability": "nonpayable",
      "type": "constructor"
    },
    {
      "anonymous": false,
      "inputs": [
        {
          "indexed": true,
          "name": "rootToken",
          "type": "address"
        },
        {
          "indexed": true,
          "name": "token",
          "type": "address"
        },
        {
          "indexed": false,
          "name": "_decimals",
          "type": "uint8"
        }
      ],
      "name": "NewToken",
      "type": "event"
    },
    {
      "anonymous": false,
      "inputs": [
        {
          "indexed": true,
          "name": "rootToken",
          "type": "address"
        },
        {
          "indexed": true,
          "name": "childToken",
          "type": "address"
        },
        {
          "indexed": true,
          "name": "user",
          "type": "address"
        },
        {
          "indexed": false,
          "name": "amount",
          "type": "uint256"
        },
        {
          "indexed": false,
          "name": "depositCount",
          "type": "uint256"
        }
      ],
      "name": "TokenDeposited",
      "type": "event"
    },
    {
      "anonymous": false,
      "inputs": [
        {
          "indexed": true,
          "name": "rootToken",
          "type": "address"
        },
        {
          "indexed": true,
          "name": "childToken",
          "type": "address"
        },
        {
          "indexed": true,
          "name": "user",
          "type": "address"
        },
        {
          "indexed": false,
          "name": "amount",
          "type": "uint256"
        },
        {
          "indexed": false,
          "name": "withrawCount",
          "type": "uint256"
        }
      ],
      "name": "TokenWithdrawn",
      "type": "event"
    },
    {
      "anonymous": false,
      "inputs": [
        {
          "indexed": true,
          "name": "previousAddress",
          "type": "address"
        },
        {
          "indexed": true,
          "name": "newAddress",
          "type": "address"
        }
      ],
      "name": "StateSyncerAddressChanged",
      "type": "event"
    },
    {
      "anonymous": false,
      "inputs": [
        {
          "indexed": true,
          "name": "previousOwner",
          "type": "address"
        },
        {
          "indexed": true,
          "name": "newOwner",
          "type": "address"
        }
      ],
      "name": "OwnershipTransferred",
      "type": "event"
    },
    {
      "constant": false,
      "inputs": [
        {
          "name": "_owner",
          "type": "address"
        },
        {
          "name": "_rootToken",
          "type": "address"
        },
        {
          "name": "_name",
          "type": "string"
        },
        {
          "name": "_symbol",
          "type": "string"
        },
        {
          "name": "_decimals",
          "type": "uint8"
        },
        {
          "name": "_isERC721",
          "type": "bool"
        }
      ],
      "name": "addToken",
      "outputs": [
        {
          "name": "token",
          "type": "address"
        }
      ],
      "payable": false,
      "stateMutability": "nonpayable",
      "type": "function"
    },
    {
      "constant": false,
      "inputs": [
        {
          "name": "rootToken",
          "type": "address"
        },
        {
          "name": "token",
          "type": "address"
        },
        {
          "name": "isErc721",
          "type": "bool"
        }
      ],
      "name": "mapToken",
      "outputs": [],
      "payable": false,
      "stateMutability": "nonpayable",
      "type": "function"
    },
    {
      "constant": false,
      "inputs": [
        {
          "name": "",
          "type": "uint256"
        },
        {
          "name": "data",
          "type": "bytes"
        }
      ],
      "name": "onStateReceive",
      "outputs": [],
      "payable": false,
      "stateMutability": "nonpayable",
      "type": "function"
    },
    {
      "constant": false,
      "inputs": [
        {
          "name": "rootToken",
          "type": "address"
        },
        {
          "name": "user",
          "type": "address"
        },
        {
          "name": "amountOrTokenId",
          "type": "uint256"
        },
        {
          "name": "withdrawCount",
          "type": "uint256"
        }
      ],
      "name": "withdrawTokens",
      "outputs": [],
      "payable": false,
      "stateMutability": "nonpayable",
      "type": "function"
    }
  ],
  "bytecode": "0x608060405234801561001057600080fd5b50600080546001600160a01b03191633178082556040516001600160a01b039190911691907f8be0079c531659141344cd1fd0a4f28419497f9722a3daafe3b4186f6b6457e0908290a3600180546001600160a01b03191661100117908190556040516001600160a01b0391909116906000907f98e6a46aa139a033b9c7f3ae4ad1c103ffdce3e7cf509326808ba8c4b5af11c0908290a3614934806100b76000396000f3fe60806040523480156200001157600080fd5b50600436106200010c5760003560e01c8063b02c43d011620000a5578063e117694b116200006f578063e117694b1462000412578063e4860339146200044d578063f2fde38b1462000476578063f4ef4d69146200049f576200010c565b8063b02c43d01462000247578063bb9b9fa21462000267578063daa09e5414620003c0578063df55500714620003e9576200010c565b806355651f7111620000e757806355651f711462000203578063715018a6146200020d5780638da5cb5b14620002175780638f32d59b146200023d576200010c565b806307a06d37146200011157806326c53bea146200015257806355466c3714620001cf575b600080fd5b62000150600480360360808110156200012957600080fd5b506001600160a01b03813581169160208101359091169060408101359060600135620004a9565b005b62000150600480360360408110156200016a57600080fd5b813591908101906040810160208201356401000000008111156200018d57600080fd5b820183602082011115620001a057600080fd5b80359060200191846001830284011164010000000083111715620001c357600080fd5b509092509050620005f8565b620001ef60048036036020811015620001e757600080fd5b503562000694565b604080519115158252519081900360200190f35b620001ef620006a9565b62000150620006ba565b6200022162000718565b604080516001600160a01b039092168252519081900360200190f35b620001ef62000727565b620001ef600480360360208110156200025f57600080fd5b503562000738565b62000221600480360360c08110156200027f57600080fd5b6001600160a01b038235811692602081013590911691810190606081016040820135640100000000811115620002b457600080fd5b820183602082011115620002c757600080fd5b80359060200191846001830284011164010000000083111715620002ea57600080fd5b91908080601f01602080910402602001604051908101604052809392919081815260200183838082843760009201919091525092959493602081019350359150506401000000008111156200033e57600080fd5b8201836020820111156200035157600080fd5b803590602001918460018302840111640100000000831117156200037457600080fd5b91908080601f0160208091040260200160405190810160405280939291908181526020018383808284376000920191909152509295505060ff833516935050506020013515156200074d565b620001ef60048036036020811015620003d857600080fd5b50356001600160a01b031662000a97565b62000150600480360360208110156200040157600080fd5b50356001600160a01b031662000aac565b62000150600480360360608110156200042a57600080fd5b506001600160a01b03813581169160208101359091169060400135151562000b66565b62000221600480360360208110156200046557600080fd5b50356001600160a01b031662000bc5565b62000150600480360360208110156200048e57600080fd5b50356001600160a01b031662000be0565b6200022162000c02565b620004b362000727565b620004bd57600080fd5b60008181526005602052604090205460ff1615620004da57600080fd5b6000818152600560209081526040808320805460ff191660011790556001600160a01b03808816845260029092529091205416806200051857600080fd5b6001600160a01b03851660009081526003602052604081205460ff16156200054257508062000545565b50805b806001600160a01b0316632e1a7d4d856040518263ffffffff1660e01b815260040180828152602001915050600060405180830381600087803b1580156200058c57600080fd5b505af1158015620005a1573d6000803e3d6000fd5b5050604080518781526020810187905281516001600160a01b03808b16955087811694508b16927f7ec90ada0dee6c6d3ea251a8236eb33077411c39b9c26fc24045ae009599def3928290030190a4505050505050565b62000602620006a9565b6200064257604051600160e51b62461bcd0281526004018080602001828103825260358152602001806200489a6035913960400191505060405180910390fd5b600080600080858560808110156200065957600080fd5b506001600160a01b038135811695506020820135169350604081013592506060013590506200068b8385848462000c11565b50505050505050565b60056020526000908152604090205460ff1681565b6001546001600160a01b0316331490565b620006c462000727565b620006ce57600080fd5b600080546040516001600160a01b03909116907f8be0079c531659141344cd1fd0a4f28419497f9722a3daafe3b4186f6b6457e0908390a3600080546001600160a01b0319169055565b6000546001600160a01b031690565b6000546001600160a01b0316331490565b60046020526000908152604090205460ff1681565b60006200075962000727565b6200076357600080fd5b6001600160a01b0386811660009081526002602052604090205416156200078957600080fd5b8115620008f55786868686604051620007a29062000dd5565b80856001600160a01b03166001600160a01b03168152602001846001600160a01b03166001600160a01b031681526020018060200180602001838103835285818151815260200191508051906020019080838360005b8381101562000812578181015183820152602001620007f8565b50505050905090810190601f168015620008405780820380516001836020036101000a031916815260200191505b50838103825284518152845160209182019186019080838360005b83811015620008755781810151838201526020016200085b565b50505050905090810190601f168015620008a35780820380516001836020036101000a031916815260200191505b509650505050505050604051809103906000f080158015620008c9573d6000803e3d6000fd5b506001600160a01b0387166000908152600360205260409020805460ff19166001179055905062000a28565b8686868686604051620009089062000de3565b6001600160a01b038087168252851660208083019190915260ff8316608083015260a06040830181815286519184019190915285519091606084019160c085019188019080838360005b838110156200096c57818101518382015260200162000952565b50505050905090810190601f1680156200099a5780820380516001836020036101000a031916815260200191505b50838103825285518152855160209182019187019080838360005b83811015620009cf578181015183820152602001620009b5565b50505050905090810190601f168015620009fd5780820380516001836020036101000a031916815260200191505b50975050505050505050604051809103906000f08015801562000a24573d6000803e3d6000fd5b5090505b6001600160a01b0386811660008181526002602090815260409182902080546001600160a01b0319169486169485179055815160ff8816815291517f9894b680cecb28f00988b0d91ed301a55bba06a8befd7fdb0b1ff36d0d3950ff9281900390910190a39695505050505050565b60036020526000908152604090205460ff1681565b62000ab662000727565b62000ac057600080fd5b6001600160a01b03811662000b0a57604051600160e51b62461bcd02815260040180806020018281038252603a815260200180620048cf603a913960400191505060405180910390fd5b6001546040516001600160a01b038084169216907f98e6a46aa139a033b9c7f3ae4ad1c103ffdce3e7cf509326808ba8c4b5af11c090600090a3600180546001600160a01b0319166001600160a01b0392909216919091179055565b62000b7062000727565b62000b7a57600080fd5b6001600160a01b03928316600090815260026020908152604080832080546001600160a01b031916959096169490941790945560039093529120805460ff1916911515919091179055565b6002602052600090815260409020546001600160a01b031681565b62000bea62000727565b62000bf457600080fd5b62000bff8162000d66565b50565b6001546001600160a01b031681565b60008181526004602052604090205460ff161562000c2e57600080fd5b6000818152600460209081526040808320805460ff191660011790556001600160a01b038088168452600290925290912054168062000c6c57600080fd5b6001600160a01b03851660009081526003602052604081205460ff161562000c9657508062000c99565b50805b806001600160a01b03166347e7ef2486866040518363ffffffff1660e01b815260040180836001600160a01b03166001600160a01b0316815260200182815260200192505050600060405180830381600087803b15801562000cfa57600080fd5b505af115801562000d0f573d6000803e3d6000fd5b5050604080518781526020810187905281516001600160a01b03808b16955087811694508b16927fec3afb067bce33c5a294470ec5b29e6759301cd3928550490c6d48816cdc2f5d928290030190a4505050505050565b6001600160a01b03811662000d7a57600080fd5b600080546040516001600160a01b03808516939216917f8be0079c531659141344cd1fd0a4f28419497f9722a3daafe3b4186f6b6457e091a3600080546001600160a01b0319166001600160a01b0392909216919091179055565b6121cc8062000df283390190565b6118dc8062002fbe8339019056fe60806040523480156200001157600080fd5b50604051620021cc380380620021cc833981018060405260808110156200003757600080fd5b81516020830151604084018051929491938201926401000000008111156200005e57600080fd5b820160208101848111156200007257600080fd5b81516401000000008111828201871017156200008d57600080fd5b50509291906020018051640100000000811115620000aa57600080fd5b82016020810184811115620000be57600080fd5b8151640100000000811182820187101715620000d957600080fd5b5050600080546001600160a01b0319163317808255604051929550869450859350849284926001600160a01b039290921691907f8be0079c531659141344cd1fd0a4f28419497f9722a3daafe3b4186f6b6457e0908290a360405180608001604052806049815260200162002183604991396040516020018082805190602001908083835b602083106200017f5780518252601f1990920191602091820191016200015e565b51815160209384036101000a60001901801990921691161790526040805192909401828103601f190183528085528251928201929092208285018552600d83527f4d61746963204e6574776f726b000000000000000000000000000000000000009282019290925283518085018552600181527f3100000000000000000000000000000000000000000000000000000000000000908201528351808201929092527fd26430275d0d30693378daeb558f6ed30c3a48ba5d665f52c16608e1c41b5cd7828501527fc89efdaa54c0f20c7adf612882df0950f5a951637e0307cdcb4c672f298b8bc66060830152613a9960808301523060a0808401919091528451808403909101815260c090920190935280519083012060055550620002cc92507f01ffc9a7000000000000000000000000000000000000000000000000000000009150620003a3811b901c565b620002e46380ac58cd60e01b620003a360201b60201c565b620002fc63780e9d6360e01b620003a360201b60201c565b81516200031190600f90602085019062000410565b5080516200032790601090602084019062000410565b5062000340635b5e139f60e01b620003a360201b60201c565b505050506001600160a01b038316158015906200036557506001600160a01b03841615155b6200036f57600080fd5b5050600380546001600160a01b039384166001600160a01b03199182161790915560018054929093169116179055620004b5565b7fffffffff000000000000000000000000000000000000000000000000000000008082161415620003d357600080fd5b7fffffffff00000000000000000000000000000000000000000000000000000000166000908152600660205260409020805460ff19166001179055565b828054600181600116156101000203166002900490600052602060002090601f016020900481019282601f106200045357805160ff191683800117855562000483565b8280016001018555821562000483579182015b828111156200048357825182559160200191906001019062000466565b506200049192915062000495565b5090565b620004b291905b808211156200049157600081556001016200049c565b90565b611cbe80620004c56000396000f3fe608060405234801561001057600080fd5b50600436106101fb5760003560e01c806370a082311161011a578063acd06cb3116100ad578063e306f7791161007c578063e306f77914610776578063e614d0d61461077e578063e985e9c514610786578063f2fde38b146107b4578063fc0c546a146107da576101fb565b8063acd06cb31461063e578063b789543c1461065b578063b88d4fde14610693578063c87b56dd14610759576101fb565b80638f32d59b116100e95780638f32d59b146105f857806395d89b4114610600578063a22cb46514610608578063abceeba214610636576101fb565b806370a0823114610515578063715018a61461053b57806377d32e94146105435780638da5cb5b146105f0576101fb565b80632e1a7d4d116101925780634f6ccce7116101615780634f6ccce7146104cb57806360f96a8f146104e85780636352211e146104f05780637019d41a1461050d576101fb565b80632e1a7d4d146104205780632f745c591461043d57806342842e0e1461046957806347e7ef241461049f576101fb565b80631499c592116101ce5780631499c5921461031f57806318160ddd1461034557806319d27d9c1461035f57806323b872dd146103ea576101fb565b806301ffc9a71461020057806306fdde031461023b578063081812fc146102b8578063095ea7b3146102f1575b600080fd5b6102276004803603602081101561021657600080fd5b50356001600160e01b0319166107e2565b604080519115158252519081900360200190f35b610243610801565b6040805160208082528351818301528351919283929083019185019080838360005b8381101561027d578181015183820152602001610265565b50505050905090810190601f1680156102aa5780820380516001836020036101000a031916815260200191505b509250505060405180910390f35b6102d5600480360360208110156102ce57600080fd5b5035610898565b604080516001600160a01b039092168252519081900360200190f35b61031d6004803603604081101561030757600080fd5b506001600160a01b0381351690602001356108c8565b005b61031d6004803603602081101561033557600080fd5b50356001600160a01b0316610975565b61034d6109c1565b60408051918252519081900360200190f35b6102d5600480360360a081101561037557600080fd5b81019060208101813564010000000081111561039057600080fd5b8201836020820111156103a257600080fd5b803590602001918460018302840111640100000000831117156103c457600080fd5b9193509150803590602081013590604081013590606001356001600160a01b03166109c7565b61031d6004803603606081101561040057600080fd5b506001600160a01b03813581169160208101359091169060400135610b82565b61031d6004803603602081101561043657600080fd5b5035610c3e565b61034d6004803603604081101561045357600080fd5b506001600160a01b038135169060200135610cab565b61031d6004803603606081101561047f57600080fd5b506001600160a01b03813581169160208101359091169060400135610cf9565b61031d600480360360408110156104b557600080fd5b506001600160a01b038135169060200135610d14565b61034d600480360360208110156104e157600080fd5b5035610d8b565b6102d5610dbf565b6102d56004803603602081101561050657600080fd5b5035610dce565b6102d5610df0565b61034d6004803603602081101561052b57600080fd5b50356001600160a01b0316610dff565b61031d610e35565b6102d56004803603604081101561055957600080fd5b8135919081019060408101602082013564010000000081111561057b57600080fd5b82018360208201111561058d57600080fd5b803590602001918460018302840111640100000000831117156105af57600080fd5b91908080601f016020809104026020016040519081016040528093929190818152602001838380828437600092019190915250929550610e90945050505050565b6102d5610fc1565b610227610fd0565b610243610fe1565b61031d6004803603604081101561061e57600080fd5b506001600160a01b0381351690602001351515611042565b61034d6110c6565b6102276004803603602081101561065457600080fd5b503561114f565b61034d6004803603608081101561067157600080fd5b506001600160a01b038135169060208101359060408101359060600135611164565b61031d600480360360808110156106a957600080fd5b6001600160a01b038235811692602081013590911691604082013591908101906080810160608201356401000000008111156106e457600080fd5b8201836020820111156106f657600080fd5b8035906020019184600183028401116401000000008311171561071857600080fd5b91908080601f016020809104026020016040519081016040528093929190818152602001838380828437600092019190915250929550611183945050505050565b6102436004803603602081101561076f57600080fd5b50356111a9565b61034d61125c565b61034d611262565b6102276004803603604081101561079c57600080fd5b506001600160a01b03813581169160200135166112ac565b61031d600480360360208110156107ca57600080fd5b50356001600160a01b03166112da565b6102d56112f7565b6001600160e01b03191660009081526006602052604090205460ff1690565b600f8054604080516020601f600260001961010060018816150201909516949094049384018190048102820181019092528281526060939092909183018282801561088d5780601f106108625761010080835404028352916020019161088d565b820191906000526020600020905b81548152906001019060200180831161087057829003601f168201915b505050505090505b90565b60006108a382611306565b6108ac57600080fd5b506000908152600860205260409020546001600160a01b031690565b60006108d382610dce565b9050806001600160a01b0316836001600160a01b031614156108f457600080fd5b336001600160a01b0382161480610910575061091081336112ac565b61091957600080fd5b60008281526008602052604080822080546001600160a01b0319166001600160a01b0387811691821790925591518593918516917f8c5be1e5ebec7d5bd14f71427d1e84f3dd0314c0f7b2291e5b200ac8c7c3b92591a4505050565b6003546001600160a01b0316331461098c57600080fd5b6001600160a01b03811661099f57600080fd5b600280546001600160a01b0319166001600160a01b0392909216919091179055565b600d5490565b60008215806109d65750824311155b610a2a5760408051600160e51b62461bcd02815260206004820152601460248201527f5369676e61747572652069732065787069726564000000000000000000000000604482015290519081900360640190fd5b6000610a3833878787611164565b60008181526004602052604090205490915060ff1615610aa25760408051600160e51b62461bcd02815260206004820152600f60248201527f5369672064656163746976617465640000000000000000000000000000000000604482015290519081900360640190fd5b6000818152600460209081526040808320805460ff191660011790558051601f8b01839004830281018301909152898152610afa918491908c908c9081908401838280828437600092019190915250610e9092505050565b9050610b07818589611323565b610b228185896040518060200160405280600081525061137c565b610b765760408051600160e51b62461bcd02815260206004820152601d60248201527f5f636865636b4f6e4552433732315265636569766564206661696c6564000000604482015290519081900360640190fd5b98975050505050505050565b6002546001600160a01b031615801590610c24575060025460408051600160e01b631ffb811f0281523360048201526001600160a01b0385811660248301526044820185905291519190921691631ffb811f9160648083019260209291908290030181600087803b158015610bf657600080fd5b505af1158015610c0a573d6000803e3d6000fd5b505050506040513d6020811015610c2057600080fd5b5051155b15610c2e57610c39565b610c39838383611323565b505050565b33610c4882610dce565b6001600160a01b031614610c5b57600080fd5b610c6533826114b6565b60015460408051838152905133926001600160a01b0316917f9b1bfa7fa9ee420a16e124f794c35ac9f90472acc99140eb2f6447c714cad8eb919081900360200190a350565b6000610cb683610dff565b8210610cc157600080fd5b6001600160a01b0383166000908152600b60205260409020805483908110610ce557fe5b906000526020600020015490505b92915050565b610c3983838360405180602001604052806000815250611183565b610d1c610fd0565b610d2557600080fd5b6001600160a01b038216610d3857600080fd5b610d428282611502565b6001546040805183815290516001600160a01b038086169316917f5548c837ab068cf56a2c2479df0882a4922fd203edb7517321831d95078c5f62919081900360200190a35050565b6000610d956109c1565b8210610da057600080fd5b600d8281548110610dad57fe5b90600052602060002001549050919050565b6002546001600160a01b031681565b6000818152600760205260408120546001600160a01b031680610cf357600080fd5b6003546001600160a01b031681565b60006001600160a01b038216610e1457600080fd5b6001600160a01b0382166000908152600960205260409020610cf39061151f565b610e3d610fd0565b610e4657600080fd5b600080546040516001600160a01b03909116907f8be0079c531659141344cd1fd0a4f28419497f9722a3daafe3b4186f6b6457e0908390a3600080546001600160a01b0319169055565b6000806000808451604114610eab5760009350505050610cf3565b50505060208201516040830151604184015160ff16601b811015610ecd57601b015b8060ff16601b14158015610ee557508060ff16601c14155b15610ef65760009350505050610cf3565b6040805160008152602080820180845289905260ff8416828401526060820186905260808201859052915160019260a0808401939192601f1981019281900390910190855afa158015610f4d573d6000803e3d6000fd5b5050604051601f1901519450506001600160a01b038416610fb85760408051600160e51b62461bcd02815260206004820152601260248201527f4572726f7220696e2065637265636f7665720000000000000000000000000000604482015290519081900360640190fd5b50505092915050565b6000546001600160a01b031690565b6000546001600160a01b0316331490565b60108054604080516020601f600260001961010060018816150201909516949094049384018190048102820181019092528281526060939092909183018282801561088d5780601f106108625761010080835404028352916020019161088d565b6001600160a01b03821633141561105857600080fd5b336000818152600a602090815260408083206001600160a01b03871680855290835292819020805460ff1916861515908117909155815190815290519293927f17307eab39ab6107e8899845ad3d59bd9653f200f220920489ca2b5937696c31929181900390910190a35050565b6040518060800160405280605b8152602001611bef605b91396040516020018082805190602001908083835b602083106111115780518252601f1990920191602091820191016110f2565b6001836020036101000a0380198251168184511680821785525050505050509050019150506040516020818303038152906040528051906020012081565b60046020526000908152604090205460ff1681565b600061117a61117586868686611523565b6115dc565b95945050505050565b61118e848484610b82565b61119a8484848461137c565b6111a357600080fd5b50505050565b60606111b482611306565b6111bd57600080fd5b60008281526011602090815260409182902080548351601f6002600019610100600186161502019093169290920491820184900484028101840190945280845290918301828280156112505780601f1061122557610100808354040283529160200191611250565b820191906000526020600020905b81548152906001019060200180831161123357829003601f168201915b50505050509050919050565b60055481565b604051806080016040528060498152602001611c4a60499139604051602001808280519060200190808383602083106111115780518252601f1990920191602091820191016110f2565b6001600160a01b039182166000908152600a6020908152604080832093909416825291909152205460ff1690565b6112e2610fd0565b6112eb57600080fd5b6112f481611604565b50565b6001546001600160a01b031681565b6000908152600760205260409020546001600160a01b0316151590565b61132e838383611672565b6001546040805183815290516001600160a01b0380861693878216939116917f6eabe333476233fd382224f233210cb808a7bc4c4de64f9d76628bf63c677b1a9181900360200190a4505050565b6000611390846001600160a01b0316611691565b61139c575060016114ae565b604051600160e11b630a85bd0102815233600482018181526001600160a01b03888116602485015260448401879052608060648501908152865160848601528651600095928a169463150b7a029490938c938b938b939260a4019060208501908083838e5b83811015611419578181015183820152602001611401565b50505050905090810190601f1680156114465780820380516001836020036101000a031916815260200191505b5095505050505050602060405180830381600087803b15801561146857600080fd5b505af115801561147c573d6000803e3d6000fd5b505050506040513d602081101561149257600080fd5b50516001600160e01b031916600160e11b630a85bd0102149150505b949350505050565b6114c08282611697565b60008181526011602052604090205460026000196101006001841615020190911604156114fe5760008181526011602052604081206114fe91611b6c565b5050565b61150c82826116c3565b6115168282611764565b6114fe816117a2565b5490565b6000806040518060800160405280605b8152602001611bef605b91396040516020018082805190602001908083835b602083106115715780518252601f199092019160209182019101611552565b51815160209384036101000a60001901801990921691161790526040805192909401828103601f1901835280855282519282019290922082526001600160a01b039b909b169a81019a909a5250880196909652505050606084019190915260808301525060a0902090565b600554604051600160f01b611901028152600281019190915260228101919091526042902090565b6001600160a01b03811661161757600080fd5b600080546040516001600160a01b03808516939216917f8be0079c531659141344cd1fd0a4f28419497f9722a3daafe3b4186f6b6457e091a3600080546001600160a01b0319166001600160a01b0392909216919091179055565b61167d8383836117e6565b61168783826118c6565b610c398282611764565b3b151590565b6116a182826119bb565b6116ab82826118c6565b6000818152600c60205260408120556114fe81611a60565b6001600160a01b0382166116d657600080fd5b6116df81611306565b156116e957600080fd5b600081815260076020908152604080832080546001600160a01b0319166001600160a01b03871690811790915583526009909152902061172890611afc565b60405181906001600160a01b038416906000907fddf252ad1be2c89b69c2b068fc378daa952ba7f163c4a11628f55a4df523b3ef908290a45050565b6001600160a01b039091166000908152600b602081815260408084208054868652600c84529185208290559282526001810183559183529091200155565b600d80546000838152600e60205260408120829055600182018355919091527fd7b6990105719101dabeb77144f2a3385c8033acd3af97e9423a695e81ad1eb50155565b826001600160a01b03166117f982610dce565b6001600160a01b03161461180c57600080fd5b6001600160a01b03821661181f57600080fd5b61182881611b05565b6001600160a01b038316600090815260096020526040902061184990611b40565b6001600160a01b038216600090815260096020526040902061186a90611afc565b60008181526007602052604080822080546001600160a01b0319166001600160a01b0386811691821790925591518493918716917fddf252ad1be2c89b69c2b068fc378daa952ba7f163c4a11628f55a4df523b3ef91a4505050565b6001600160a01b0382166000908152600b60205260408120546118f090600163ffffffff611b5716565b6000838152600c602052604090205490915080821461198b576001600160a01b0384166000908152600b6020526040812080548490811061192d57fe5b9060005260206000200154905080600b6000876001600160a01b03166001600160a01b03168152602001908152602001600020838154811061196b57fe5b6000918252602080832090910192909255918252600c9052604090208190555b6001600160a01b0384166000908152600b602052604090208054906119b4906000198301611bb0565b5050505050565b816001600160a01b03166119ce82610dce565b6001600160a01b0316146119e157600080fd5b6119ea81611b05565b6001600160a01b0382166000908152600960205260409020611a0b90611b40565b60008181526007602052604080822080546001600160a01b0319169055518291906001600160a01b038516907fddf252ad1be2c89b69c2b068fc378daa952ba7f163c4a11628f55a4df523b3ef908390a45050565b600d54600090611a7790600163ffffffff611b5716565b6000838152600e6020526040812054600d8054939450909284908110611a9957fe5b9060005260206000200154905080600d8381548110611ab457fe5b6000918252602080832090910192909255828152600e90915260409020829055600d805490611ae7906000198301611bb0565b505050600091825250600e6020526040812055565b80546001019055565b6000818152600860205260409020546001600160a01b0316156112f457600090815260086020526040902080546001600160a01b0319169055565b8054611b5390600163ffffffff611b5716565b9055565b600082821115611b6657600080fd5b50900390565b50805460018160011615610100020316600290046000825580601f10611b9257506112f4565b601f0160209004906000526020600020908101906112f49190611bd0565b815481835581811115610c3957600083815260209020610c399181019083015b61089591905b80821115611bea5760008155600101611bd6565b509056fe546f6b656e5472616e736665724f726465722861646472657373207370656e6465722c75696e7432353620746f6b656e49644f72416d6f756e742c6279746573333220646174612c75696e743235362065787069726174696f6e29454950373132446f6d61696e28737472696e67206e616d652c737472696e672076657273696f6e2c75696e7432353620636861696e49642c6164647265737320636f6e747261637429a165627a7a72305820a0d1004b996474bb2fd82bf9cbd44508c716d716a36afe5b8554ad7676ff0aa10029454950373132446f6d61696e28737472696e67206e616d652c737472696e672076657273696f6e2c75696e7432353620636861696e49642c6164647265737320636f6e74726163742960806040523480156200001157600080fd5b50604051620018dc380380620018dc833981018060405260a08110156200003757600080fd5b81516020830151604084018051929491938201926401000000008111156200005e57600080fd5b820160208101848111156200007257600080fd5b81516401000000008111828201871017156200008d57600080fd5b50509291906020018051640100000000811115620000aa57600080fd5b82016020810184811115620000be57600080fd5b8151640100000000811182820187101715620000d957600080fd5b5050602090910151600080546001600160a01b03191633178082556040519395509193508592859285926001600160a01b0391909116917f8be0079c531659141344cd1fd0a4f28419497f9722a3daafe3b4186f6b6457e0908290a360405180608001604052806049815260200162001893604991396040516020018082805190602001908083835b60208310620001835780518252601f19909201916020918201910162000162565b51815160209384036101000a60001901801990921691161790526040805192909401828103601f190183528085528251928201929092208285018552600d83527f4d61746963204e6574776f726b000000000000000000000000000000000000009282019290925283518085018552600181527f3100000000000000000000000000000000000000000000000000000000000000908201528351808201929092527fd26430275d0d30693378daeb558f6ed30c3a48ba5d665f52c16608e1c41b5cd7828501527fc89efdaa54c0f20c7adf612882df0950f5a951637e0307cdcb4c672f298b8bc66060830152613a9960808301523060a0808401919091528451808403909101815260c0909201909352805190830120600855508551620002b39350600992509086019062000344565b508151620002c990600a90602085019062000344565b50600b805460ff191660ff9290921691909117905550506001600160a01b038416158015906200030157506001600160a01b03851615155b6200030b57600080fd5b5050600380546001600160a01b039485166001600160a01b031991821617909155600180549390941692169190911790915550620003e9565b828054600181600116156101000203166002900490600052602060002090601f016020900481019282601f106200038757805160ff1916838001178555620003b7565b82800160010185558215620003b7579182015b82811115620003b75782518255916020019190600101906200039a565b50620003c5929150620003c9565b5090565b620003e691905b80821115620003c55760008155600101620003d0565b90565b61149a80620003f96000396000f3fe608060405234801561001057600080fd5b50600436106101c45760003560e01c806377d32e94116100f9578063acd06cb311610097578063e306f77911610071578063e306f7791461061e578063e614d0d614610626578063f2fde38b1461062e578063fc0c546a14610654576101c4565b8063acd06cb31461059b578063b789543c146105b8578063dd62ed3e146105f0576101c4565b806395d89b41116100d357806395d89b4114610533578063a457c2d71461053b578063a9059cbb14610567578063abceeba214610593576101c4565b806377d32e94146104765780638da5cb5b146105235780638f32d59b1461052b576101c4565b8063313ce5671161016657806360f96a8f1161014057806360f96a8f146104385780637019d41a1461044057806370a0823114610448578063715018a61461046e576101c4565b8063313ce567146103c257806339509351146103e057806347e7ef241461040c576101c4565b806318160ddd116101a257806318160ddd146102ae57806319d27d9c146102c857806323b872dd1461036f5780632e1a7d4d146103a5576101c4565b806306fdde03146101c9578063095ea7b3146102465780631499c59214610286575b600080fd5b6101d161065c565b6040805160208082528351818301528351919283929083019185019080838360005b8381101561020b5781810151838201526020016101f3565b50505050905090810190601f1680156102385780820380516001836020036101000a031916815260200191505b509250505060405180910390f35b6102726004803603604081101561025c57600080fd5b506001600160a01b0381351690602001356106f2565b604080519115158252519081900360200190f35b6102ac6004803603602081101561029c57600080fd5b50356001600160a01b0316610709565b005b6102b6610755565b60408051918252519081900360200190f35b610353600480360360a08110156102de57600080fd5b8101906020810181356401000000008111156102f957600080fd5b82018360208201111561030b57600080fd5b8035906020019184600183028401116401000000008311171561032d57600080fd5b9193509150803590602081013590604081013590606001356001600160a01b031661075b565b604080516001600160a01b039092168252519081900360200190f35b6102726004803603606081101561038557600080fd5b506001600160a01b038135811691602081013590911690604001356108b2565b6102ac600480360360208110156103bb57600080fd5b5035610909565b6103ca610998565b6040805160ff9092168252519081900360200190f35b610272600480360360408110156103f657600080fd5b506001600160a01b0381351690602001356109a1565b6102ac6004803603604081101561042257600080fd5b506001600160a01b0381351690602001356109dd565b610353610a62565b610353610a71565b6102b66004803603602081101561045e57600080fd5b50356001600160a01b0316610a80565b6102ac610a9b565b6103536004803603604081101561048c57600080fd5b813591908101906040810160208201356401000000008111156104ae57600080fd5b8201836020820111156104c057600080fd5b803590602001918460018302840111640100000000831117156104e257600080fd5b91908080601f016020809104026020016040519081016040528093929190818152602001838380828437600092019190915250929550610af6945050505050565b610353610c27565b610272610c36565b6101d1610c47565b6102726004803603604081101561055157600080fd5b506001600160a01b038135169060200135610ca8565b6102726004803603604081101561057d57600080fd5b506001600160a01b038135169060200135610ce4565b6102b6610da1565b610272600480360360208110156105b157600080fd5b5035610e2a565b6102b6600480360360808110156105ce57600080fd5b506001600160a01b038135169060208101359060408101359060600135610e3f565b6102b66004803603604081101561060657600080fd5b506001600160a01b0381358116916020013516610e5e565b6102b6610e89565b6102b6610e8f565b6102ac6004803603602081101561064457600080fd5b50356001600160a01b0316610ed9565b610353610ef6565b60098054604080516020601f60026000196101006001881615020190951694909404938401819004810282018101909252828152606093909290918301828280156106e85780601f106106bd576101008083540402835291602001916106e8565b820191906000526020600020905b8154815290600101906020018083116106cb57829003601f168201915b5050505050905090565b60006106ff338484610f05565b5060015b92915050565b6003546001600160a01b0316331461072057600080fd5b6001600160a01b03811661073357600080fd5b600280546001600160a01b0319166001600160a01b0392909216919091179055565b60075490565b600080851161076957600080fd5b8215806107765750824311155b6107ca5760408051600160e51b62461bcd02815260206004820152601460248201527f5369676e61747572652069732065787069726564000000000000000000000000604482015290519081900360640190fd5b60006107d833878787610e3f565b60008181526004602052604090205490915060ff16156108425760408051600160e51b62461bcd02815260206004820152600f60248201527f5369672064656163746976617465640000000000000000000000000000000000604482015290519081900360640190fd5b600081815260046020908152604091829020805460ff191660011790558151601f8a0182900482028101820190925288825261089a9183918b908b9081908401838280828437600092019190915250610af692505050565b91506108a7828488610f8d565b509695505050505050565b60006108bf84848461102d565b6001600160a01b0384166000908152600660209081526040808320338085529252909120546108ff9186916108fa908663ffffffff6110fa16565b610f05565b5060019392505050565b33600061091582610a80565b90506000831180156109275750828110155b61093057600080fd5b61093a828461110f565b6001546001600160a01b0380841691167febff2602b3f468259e1e99f613fed6691f3a6526effe6ef3e768ba7ae7a36c4f858461097687610a80565b60408051938452602084019290925282820152519081900360600190a3505050565b600b5460ff1690565b3360008181526006602090815260408083206001600160a01b038716845290915281205490916106ff9185906108fa908663ffffffff6111b816565b6109e5610c36565b6109ee57600080fd5b600081118015610a0657506001600160a01b03821615155b610a0f57600080fd5b6000610a1a83610a80565b9050610a2683836111d1565b6001546001600160a01b0380851691167f4e2ca0515ed1aef1395f66b5303bb5d6f1bf9d61a353fa53f73f8ac9973fa9f6848461097688610a80565b6002546001600160a01b031681565b6003546001600160a01b031681565b6001600160a01b031660009081526005602052604090205490565b610aa3610c36565b610aac57600080fd5b600080546040516001600160a01b03909116907f8be0079c531659141344cd1fd0a4f28419497f9722a3daafe3b4186f6b6457e0908390a3600080546001600160a01b0319169055565b6000806000808451604114610b115760009350505050610703565b50505060208201516040830151604184015160ff16601b811015610b3357601b015b8060ff16601b14158015610b4b57508060ff16601c14155b15610b5c5760009350505050610703565b6040805160008152602080820180845289905260ff8416828401526060820186905260808201859052915160019260a0808401939192601f1981019281900390910190855afa158015610bb3573d6000803e3d6000fd5b5050604051601f1901519450506001600160a01b038416610c1e5760408051600160e51b62461bcd02815260206004820152601260248201527f4572726f7220696e2065637265636f7665720000000000000000000000000000604482015290519081900360640190fd5b50505092915050565b6000546001600160a01b031690565b6000546001600160a01b0316331490565b600a8054604080516020601f60026000196101006001881615020190951694909404938401819004810282018101909252828152606093909290918301828280156106e85780601f106106bd576101008083540402835291602001916106e8565b3360008181526006602090815260408083206001600160a01b038716845290915281205490916106ff9185906108fa908663ffffffff6110fa16565b6002546000906001600160a01b031615801590610d89575060025460408051600160e01b631ffb811f0281523360048201526001600160a01b0386811660248301526044820186905291519190921691631ffb811f9160648083019260209291908290030181600087803b158015610d5b57600080fd5b505af1158015610d6f573d6000803e3d6000fd5b505050506040513d6020811015610d8557600080fd5b5051155b15610d9657506000610703565b6106ff338484610f8d565b6040518060800160405280605b81526020016113cb605b91396040516020018082805190602001908083835b60208310610dec5780518252601f199092019160209182019101610dcd565b6001836020036101000a0380198251168184511680821785525050505050509050019150506040516020818303038152906040528051906020012081565b60046020526000908152604090205460ff1681565b6000610e55610e508686868661127b565b611334565b95945050505050565b6001600160a01b03918216600090815260066020908152604080832093909416825291909152205490565b60085481565b6040518060800160405280604981526020016114266049913960405160200180828051906020019080838360208310610dec5780518252601f199092019160209182019101610dcd565b610ee1610c36565b610eea57600080fd5b610ef38161135c565b50565b6001546001600160a01b031681565b6001600160a01b038216610f1857600080fd5b6001600160a01b038316610f2b57600080fd5b6001600160a01b03808416600081815260066020908152604080832094871680845294825291829020859055815185815291517f8c5be1e5ebec7d5bd14f71427d1e84f3dd0314c0f7b2291e5b200ac8c7c3b9259281900390910190a3505050565b6000610f9884610a80565b90506000610fa584610a80565b9050610fb285858561102d565b6001546001600160a01b038086169187821691167fe6497e3ee548a3372136af2fcb0696db31fc6cf20260707645068bd3fe97f3c4868686610ff38c610a80565b610ffc8c610a80565b6040805195865260208601949094528484019290925260608401526080830152519081900360a00190a45050505050565b6001600160a01b03821661104057600080fd5b6001600160a01b038316600090815260056020526040902054611069908263ffffffff6110fa16565b6001600160a01b03808516600090815260056020526040808220939093559084168152205461109e908263ffffffff6111b816565b6001600160a01b0380841660008181526005602090815260409182902094909455805185815290519193928716927fddf252ad1be2c89b69c2b068fc378daa952ba7f163c4a11628f55a4df523b3ef92918290030190a3505050565b60008282111561110957600080fd5b50900390565b6001600160a01b03821661112257600080fd5b600754611135908263ffffffff6110fa16565b6007556001600160a01b038216600090815260056020526040902054611161908263ffffffff6110fa16565b6001600160a01b0383166000818152600560209081526040808320949094558351858152935191937fddf252ad1be2c89b69c2b068fc378daa952ba7f163c4a11628f55a4df523b3ef929081900390910190a35050565b6000828201838110156111ca57600080fd5b9392505050565b6001600160a01b0382166111e457600080fd5b6007546111f7908263ffffffff6111b816565b6007556001600160a01b038216600090815260056020526040902054611223908263ffffffff6111b816565b6001600160a01b03831660008181526005602090815260408083209490945583518581529351929391927fddf252ad1be2c89b69c2b068fc378daa952ba7f163c4a11628f55a4df523b3ef9281900390910190a35050565b6000806040518060800160405280605b81526020016113cb605b91396040516020018082805190602001908083835b602083106112c95780518252601f1990920191602091820191016112aa565b51815160209384036101000a60001901801990921691161790526040805192909401828103601f1901835280855282519282019290922082526001600160a01b039b909b169a81019a909a5250880196909652505050606084019190915260808301525060a0902090565b600854604051600160f01b611901028152600281019190915260228101919091526042902090565b6001600160a01b03811661136f57600080fd5b600080546040516001600160a01b03808516939216917f8be0079c531659141344cd1fd0a4f28419497f9722a3daafe3b4186f6b6457e091a3600080546001600160a01b0319166001600160a01b039290921691909117905556fe546f6b656e5472616e736665724f726465722861646472657373207370656e6465722c75696e7432353620746f6b656e49644f72416d6f756e742c6279746573333220646174612c75696e743235362065787069726174696f6e29454950373132446f6d61696e28737472696e67206e616d652c737472696e672076657273696f6e2c75696e7432353620636861696e49642c6164647265737320636f6e747261637429a165627a7a72305820ac7a987e39c2dc7118617a113ccaa7d822c805b8de8827ce3586b7c947aceda40029454950373132446f6d61696e28737472696e67206e616d652c737472696e672076657273696f6e2c75696e7432353620636861696e49642c6164647265737320636f6e74726163742953746174652073796e6365723a2063616c6c6572206973206e6f74207468652073746174652073796e63657220636f6e747261637453746174652073796e6365723a206e65772073746174652073796e636572206164647265737320697320746865207a65726f2061646472657373a165627a7a723058204ca7dfb64c7685a0b6835cd5c401c977c6114a7ce0a36d1b6f061a2a5ff204b10029",
  "source": "pragma solidity ^0.5.2;\n\nimport { Ownable } from \"openzeppelin-solidity/contracts/ownership/Ownable.sol\";\n\nimport { StateSyncerVerifier } from \"./bor/StateSyncerVerifier.sol\";\nimport { StateReceiver } from \"./bor/StateReceiver.sol\";\n\nimport \"./ChildToken.sol\";\nimport \"./ChildERC20.sol\";\nimport \"./ChildERC721.sol\";\n\n\ncontract ChildChain is Ownable, StateSyncerVerifier, StateReceiver {\n\n  // mapping for (root token => child token)\n  mapping(address => address) public tokens;\n  mapping(address => bool) public isERC721;\n  mapping(uint256 => bool) public deposits;\n  mapping(uint256 => bool) public withdraws;\n\n  event NewToken(\n    address indexed rootToken,\n    address indexed token,\n    uint8 _decimals\n  );\n\n  event TokenDeposited(\n    address indexed rootToken,\n    address indexed childToken,\n    address indexed user,\n    uint256 amount,\n    uint256 depositCount\n  );\n\n  event TokenWithdrawn(\n    address indexed rootToken,\n    address indexed childToken,\n    address indexed user,\n    uint256 amount,\n    uint256 withrawCount\n  );\n\n  constructor () public {}\n\n  function addToken(\n    address _owner,\n    address _rootToken,\n    string memory _name,\n    string memory _symbol,\n    uint8 _decimals,\n    bool _isERC721\n  ) public onlyOwner returns (address token) {\n    // check if root token already exists\n    require(tokens[_rootToken] == address(0x0));\n\n    // create new token contract\n    if (_isERC721) {\n      token = address(new ChildERC721(_owner, _rootToken, _name, _symbol));\n      isERC721[_rootToken] = true;\n    } else {\n      token = address(new ChildERC20(_owner, _rootToken, _name, _symbol, _decimals));\n    }\n\n    // add mapping with root token\n    tokens[_rootToken] = token;\n\n    // broadcast new token's event\n    emit NewToken(_rootToken, token, _decimals);\n  }\n\n  function mapToken(address rootToken, address token, bool isErc721) public onlyOwner {\n    tokens[rootToken] = token;\n    isERC721[rootToken] = isErc721;\n  }\n\n  function onStateReceive(\n    uint256 /* id */,\n    bytes calldata data\n  ) external onlyStateSyncer {\n    (address user, address rootToken, uint256 amountOrTokenId, uint256 depositId) = abi.decode(data, (address, address, uint256, uint256));\n    depositTokens(rootToken, user, amountOrTokenId, depositId);\n  }\n\n  function depositTokens(\n    address rootToken,\n    address user,\n    uint256 amountOrTokenId,\n    uint256 depositId\n  ) internal {\n    // check if deposit happens only once\n    require(deposits[depositId] == false);\n\n    // set deposit flag\n    deposits[depositId] = true;\n\n    // retrieve child tokens\n    address childToken = tokens[rootToken];\n\n    // check if child token is mapped\n    require(childToken != address(0x0));\n\n    ChildToken obj;\n\n    if (isERC721[rootToken]) {\n      obj = ChildERC721(childToken);\n    } else {\n      obj = ChildERC20(childToken);\n    }\n\n    // deposit tokens\n    obj.deposit(user, amountOrTokenId);\n\n    // Emit TokenDeposited event\n    emit TokenDeposited(rootToken, childToken, user, amountOrTokenId, depositId);\n  }\n\n  function withdrawTokens(\n    address rootToken,\n    address user,\n    uint256 amountOrTokenId,\n    uint256 withdrawCount\n  ) public onlyOwner {\n    // check if withdrawal happens only once\n    require(withdraws[withdrawCount] == false);\n\n    // set withdrawal flag\n    withdraws[withdrawCount] = true;\n\n    // retrieve child tokens\n    address childToken = tokens[rootToken];\n\n    // check if child token is mapped\n    require(childToken != address(0x0));\n\n    ChildToken obj;\n\n    if (isERC721[rootToken]) {\n      obj = ChildERC721(childToken);\n    } else {\n      obj = ChildERC20(childToken);\n    }\n    // withdraw tokens\n    obj.withdraw(amountOrTokenId);\n\n    // Emit TokenWithdrawn event\n    emit TokenWithdrawn(rootToken, childToken, user, amountOrTokenId, withdrawCount);\n  }\n}\n",
  "sourcePath": "/Users/arpit/projects/contracts/contracts/child/ChildChain.sol",
  "compiler": {
    "name": "solc",
    "version": "0.5.7+commit.6da8b019.Emscripten.clang"
  },
  "schemaVersion": "3.0.14",
  "updatedAt": "2019-11-13T10:42:44.251Z",
  "devdoc": {
    "methods": {
      "isOnlyStateSyncerContract()": {
        "details": "Returns true if the caller is the state syncer contract"
      },
      "isOwner()": {
        "return": "true if `msg.sender` is the owner of the contract."
      },
      "owner()": {
        "return": "the address of the owner."
      },
      "renounceOwnership()": {
        "details": "Allows the current owner to relinquish control of the contract. It will not be possible to call the functions with the `onlyOwner` modifier anymore."
      },
      "transferOwnership(address)": {
        "details": "Allows the current owner to transfer control of the contract to a newOwner.",
        "params": {
          "newOwner": "The address to transfer ownership to."
        }
      }
    }
  },
  "userdoc": {
    "methods": {
      "renounceOwnership()": {
        "notice": "Renouncing ownership will leave the contract without an owner, thereby removing any functionality that is only available to the owner."
      }
    }
  }
}