{
  "contractName": "ChildERC721Mintable",
  "abi": [
    {
      "constant": true,
      "inputs": [
        {
          "name": "interfaceId",
          "type": "bytes4"
        }
      ],
      "name": "supportsInterface",
      "outputs": [
        {
          "name": "",
          "type": "bool"
        }
      ],
      "payable": false,
      "stateMutability": "view",
      "type": "function"
    },
    {
      "constant": true,
      "inputs": [],
      "name": "name",
      "outputs": [
        {
          "name": "",
          "type": "string"
        }
      ],
      "payable": false,
      "stateMutability": "view",
      "type": "function"
    },
    {
      "constant": true,
      "inputs": [
        {
          "name": "tokenId",
          "type": "uint256"
        }
      ],
      "name": "getApproved",
      "outputs": [
        {
          "name": "",
          "type": "address"
        }
      ],
      "payable": false,
      "stateMutability": "view",
      "type": "function"
    },
    {
      "constant": false,
      "inputs": [
        {
          "name": "to",
          "type": "address"
        },
        {
          "name": "tokenId",
          "type": "uint256"
        }
      ],
      "name": "approve",
      "outputs": [],
      "payable": false,
      "stateMutability": "nonpayable",
      "type": "function"
    },
    {
      "constant": false,
      "inputs": [
        {
          "name": "_parent",
          "type": "address"
        }
      ],
      "name": "setParent",
      "outputs": [],
      "payable": false,
      "stateMutability": "nonpayable",
      "type": "function"
    },
    {
      "constant": true,
      "inputs": [],
      "name": "totalSupply",
      "outputs": [
        {
          "name": "",
          "type": "uint256"
        }
      ],
      "payable": false,
      "stateMutability": "view",
      "type": "function"
    },
    {
      "constant": false,
      "inputs": [
        {
          "name": "sig",
          "type": "bytes"
        },
        {
          "name": "tokenId",
          "type": "uint256"
        },
        {
          "name": "data",
          "type": "bytes32"
        },
        {
          "name": "expiration",
          "type": "uint256"
        },
        {
          "name": "to",
          "type": "address"
        }
      ],
      "name": "transferWithSig",
      "outputs": [
        {
          "name": "",
          "type": "address"
        }
      ],
      "payable": false,
      "stateMutability": "nonpayable",
      "type": "function"
    },
    {
      "constant": false,
      "inputs": [
        {
          "name": "from",
          "type": "address"
        },
        {
          "name": "to",
          "type": "address"
        },
        {
          "name": "tokenId",
          "type": "uint256"
        }
      ],
      "name": "transferFrom",
      "outputs": [],
      "payable": false,
      "stateMutability": "nonpayable",
      "type": "function"
    },
    {
      "constant": false,
      "inputs": [
        {
          "name": "tokenId",
          "type": "uint256"
        }
      ],
      "name": "withdraw",
      "outputs": [],
      "payable": false,
      "stateMutability": "nonpayable",
      "type": "function"
    },
    {
      "constant": true,
      "inputs": [
        {
          "name": "owner",
          "type": "address"
        },
        {
          "name": "index",
          "type": "uint256"
        }
      ],
      "name": "tokenOfOwnerByIndex",
      "outputs": [
        {
          "name": "",
          "type": "uint256"
        }
      ],
      "payable": false,
      "stateMutability": "view",
      "type": "function"
    },
    {
      "constant": false,
      "inputs": [
        {
          "name": "to",
          "type": "address"
        },
        {
          "name": "tokenId",
          "type": "uint256"
        }
      ],
      "name": "mint",
      "outputs": [
        {
          "name": "",
          "type": "bool"
        }
      ],
      "payable": false,
      "stateMutability": "nonpayable",
      "type": "function"
    },
    {
      "constant": false,
      "inputs": [
        {
          "name": "from",
          "type": "address"
        },
        {
          "name": "to",
          "type": "address"
        },
        {
          "name": "tokenId",
          "type": "uint256"
        }
      ],
      "name": "safeTransferFrom",
      "outputs": [],
      "payable": false,
      "stateMutability": "nonpayable",
      "type": "function"
    },
    {
      "constant": false,
      "inputs": [
        {
          "name": "user",
          "type": "address"
        },
        {
          "name": "tokenId",
          "type": "uint256"
        }
      ],
      "name": "deposit",
      "outputs": [],
      "payable": false,
      "stateMutability": "nonpayable",
      "type": "function"
    },
    {
      "constant": true,
      "inputs": [
        {
          "name": "index",
          "type": "uint256"
        }
      ],
      "name": "tokenByIndex",
      "outputs": [
        {
          "name": "",
          "type": "uint256"
        }
      ],
      "payable": false,
      "stateMutability": "view",
      "type": "function"
    },
    {
      "constant": true,
      "inputs": [],
      "name": "parent",
      "outputs": [
        {
          "name": "",
          "type": "address"
        }
      ],
      "payable": false,
      "stateMutability": "view",
      "type": "function"
    },
    {
      "constant": true,
      "inputs": [
        {
          "name": "tokenId",
          "type": "uint256"
        }
      ],
      "name": "ownerOf",
      "outputs": [
        {
          "name": "",
          "type": "address"
        }
      ],
      "payable": false,
      "stateMutability": "view",
      "type": "function"
    },
    {
      "constant": true,
      "inputs": [],
      "name": "parentOwner",
      "outputs": [
        {
          "name": "",
          "type": "address"
        }
      ],
      "payable": false,
      "stateMutability": "view",
      "type": "function"
    },
    {
      "constant": true,
      "inputs": [
        {
          "name": "owner",
          "type": "address"
        }
      ],
      "name": "balanceOf",
      "outputs": [
        {
          "name": "",
          "type": "uint256"
        }
      ],
      "payable": false,
      "stateMutability": "view",
      "type": "function"
    },
    {
      "constant": false,
      "inputs": [],
      "name": "renounceOwnership",
      "outputs": [],
      "payable": false,
      "stateMutability": "nonpayable",
      "type": "function"
    },
    {
      "constant": true,
      "inputs": [
        {
          "name": "hash",
          "type": "bytes32"
        },
        {
          "name": "sig",
          "type": "bytes"
        }
      ],
      "name": "ecrecovery",
      "outputs": [
        {
          "name": "result",
          "type": "address"
        }
      ],
      "payable": false,
      "stateMutability": "pure",
      "type": "function"
    },
    {
      "constant": true,
      "inputs": [],
      "name": "owner",
      "outputs": [
        {
          "name": "",
          "type": "address"
        }
      ],
      "payable": false,
      "stateMutability": "view",
      "type": "function"
    },
    {
      "constant": true,
      "inputs": [],
      "name": "isOwner",
      "outputs": [
        {
          "name": "",
          "type": "bool"
        }
      ],
      "payable": false,
      "stateMutability": "view",
      "type": "function"
    },
    {
      "constant": true,
      "inputs": [],
      "name": "symbol",
      "outputs": [
        {
          "name": "",
          "type": "string"
        }
      ],
      "payable": false,
      "stateMutability": "view",
      "type": "function"
    },
    {
      "constant": false,
      "inputs": [
        {
          "name": "account",
          "type": "address"
        }
      ],
      "name": "addMinter",
      "outputs": [],
      "payable": false,
      "stateMutability": "nonpayable",
      "type": "function"
    },
    {
      "constant": false,
      "inputs": [],
      "name": "renounceMinter",
      "outputs": [],
      "payable": false,
      "stateMutability": "nonpayable",
      "type": "function"
    },
    {
      "constant": false,
      "inputs": [
        {
          "name": "to",
          "type": "address"
        },
        {
          "name": "approved",
          "type": "bool"
        }
      ],
      "name": "setApprovalForAll",
      "outputs": [],
      "payable": false,
      "stateMutability": "nonpayable",
      "type": "function"
    },
    {
      "constant": true,
      "inputs": [
        {
          "name": "account",
          "type": "address"
        }
      ],
      "name": "isMinter",
      "outputs": [
        {
          "name": "",
          "type": "bool"
        }
      ],
      "payable": false,
      "stateMutability": "view",
      "type": "function"
    },
    {
      "constant": true,
      "inputs": [],
      "name": "EIP712_TOKEN_TRANSFER_ORDER_SCHEMA_HASH",
      "outputs": [
        {
          "name": "",
          "type": "bytes32"
        }
      ],
      "payable": false,
      "stateMutability": "view",
      "type": "function"
    },
    {
      "constant": true,
      "inputs": [
        {
          "name": "",
          "type": "bytes32"
        }
      ],
      "name": "disabledHashes",
      "outputs": [
        {
          "name": "",
          "type": "bool"
        }
      ],
      "payable": false,
      "stateMutability": "view",
      "type": "function"
    },
    {
      "constant": true,
      "inputs": [
        {
          "name": "spender",
          "type": "address"
        },
        {
          "name": "tokenIdOrAmount",
          "type": "uint256"
        },
        {
          "name": "data",
          "type": "bytes32"
        },
        {
          "name": "expiration",
          "type": "uint256"
        }
      ],
      "name": "getTokenTransferOrderHash",
      "outputs": [
        {
          "name": "orderHash",
          "type": "bytes32"
        }
      ],
      "payable": false,
      "stateMutability": "view",
      "type": "function"
    },
    {
      "constant": false,
      "inputs": [
        {
          "name": "from",
          "type": "address"
        },
        {
          "name": "to",
          "type": "address"
        },
        {
          "name": "tokenId",
          "type": "uint256"
        },
        {
          "name": "_data",
          "type": "bytes"
        }
      ],
      "name": "safeTransferFrom",
      "outputs": [],
      "payable": false,
      "stateMutability": "nonpayable",
      "type": "function"
    },
    {
      "constant": true,
      "inputs": [
        {
          "name": "tokenId",
          "type": "uint256"
        }
      ],
      "name": "tokenURI",
      "outputs": [
        {
          "name": "",
          "type": "string"
        }
      ],
      "payable": false,
      "stateMutability": "view",
      "type": "function"
    },
    {
      "constant": true,
      "inputs": [],
      "name": "EIP712_DOMAIN_HASH",
      "outputs": [
        {
          "name": "",
          "type": "bytes32"
        }
      ],
      "payable": false,
      "stateMutability": "view",
      "type": "function"
    },
    {
      "constant": true,
      "inputs": [],
      "name": "EIP712_DOMAIN_SCHEMA_HASH",
      "outputs": [
        {
          "name": "",
          "type": "bytes32"
        }
      ],
      "payable": false,
      "stateMutability": "view",
      "type": "function"
    },
    {
      "constant": true,
      "inputs": [
        {
          "name": "owner",
          "type": "address"
        },
        {
          "name": "operator",
          "type": "address"
        }
      ],
      "name": "isApprovedForAll",
      "outputs": [
        {
          "name": "",
          "type": "bool"
        }
      ],
      "payable": false,
      "stateMutability": "view",
      "type": "function"
    },
    {
      "constant": false,
      "inputs": [
        {
          "name": "newOwner",
          "type": "address"
        }
      ],
      "name": "transferOwnership",
      "outputs": [],
      "payable": false,
      "stateMutability": "nonpayable",
      "type": "function"
    },
    {
      "constant": true,
      "inputs": [],
      "name": "token",
      "outputs": [
        {
          "name": "",
          "type": "address"
        }
      ],
      "payable": false,
      "stateMutability": "view",
      "type": "function"
    },
    {
      "inputs": [
        {
          "name": "rootToken",
          "type": "address"
        }
      ],
      "payable": false,
      "stateMutability": "nonpayable",
      "type": "constructor"
    },
    {
      "anonymous": false,
      "inputs": [
        {
          "indexed": true,
          "name": "account",
          "type": "address"
        }
      ],
      "name": "MinterAdded",
      "type": "event"
    },
    {
      "anonymous": false,
      "inputs": [
        {
          "indexed": true,
          "name": "account",
          "type": "address"
        }
      ],
      "name": "MinterRemoved",
      "type": "event"
    },
    {
      "anonymous": false,
      "inputs": [
        {
          "indexed": true,
          "name": "token",
          "type": "address"
        },
        {
          "indexed": true,
          "name": "from",
          "type": "address"
        },
        {
          "indexed": false,
          "name": "tokenId",
          "type": "uint256"
        }
      ],
      "name": "Deposit",
      "type": "event"
    },
    {
      "anonymous": false,
      "inputs": [
        {
          "indexed": true,
          "name": "token",
          "type": "address"
        },
        {
          "indexed": true,
          "name": "from",
          "type": "address"
        },
        {
          "indexed": false,
          "name": "tokenId",
          "type": "uint256"
        }
      ],
      "name": "Withdraw",
      "type": "event"
    },
    {
      "anonymous": false,
      "inputs": [
        {
          "indexed": true,
          "name": "token",
          "type": "address"
        },
        {
          "indexed": true,
          "name": "from",
          "type": "address"
        },
        {
          "indexed": true,
          "name": "to",
          "type": "address"
        },
        {
          "indexed": false,
          "name": "tokenId",
          "type": "uint256"
        }
      ],
      "name": "LogTransfer",
      "type": "event"
    },
    {
      "anonymous": false,
      "inputs": [
        {
          "indexed": true,
          "name": "from",
          "type": "address"
        },
        {
          "indexed": true,
          "name": "to",
          "type": "address"
        },
        {
          "indexed": true,
          "name": "tokenId",
          "type": "uint256"
        }
      ],
      "name": "Transfer",
      "type": "event"
    },
    {
      "anonymous": false,
      "inputs": [
        {
          "indexed": true,
          "name": "owner",
          "type": "address"
        },
        {
          "indexed": true,
          "name": "approved",
          "type": "address"
        },
        {
          "indexed": true,
          "name": "tokenId",
          "type": "uint256"
        }
      ],
      "name": "Approval",
      "type": "event"
    },
    {
      "anonymous": false,
      "inputs": [
        {
          "indexed": true,
          "name": "owner",
          "type": "address"
        },
        {
          "indexed": true,
          "name": "operator",
          "type": "address"
        },
        {
          "indexed": false,
          "name": "approved",
          "type": "bool"
        }
      ],
      "name": "ApprovalForAll",
      "type": "event"
    },
    {
      "anonymous": false,
      "inputs": [
        {
          "indexed": true,
          "name": "previousOwner",
          "type": "address"
        },
        {
          "indexed": true,
          "name": "newOwner",
          "type": "address"
        }
      ],
      "name": "OwnershipTransferred",
      "type": "event"
    }
  ],
  "bytecode": "0x60806040523480156200001157600080fd5b50604051602080620024e7833981018060405260208110156200003357600080fd5b5051604080518082018252600c81527f4d696e7461626c6520373231000000000000000000000000000000000000000060208281019190915282518084018452600481527f4d3732310000000000000000000000000000000000000000000000000000000091810191909152600080546001600160a01b03191633908117808355945190948694939284928492849284926001600160a01b0392909216917f8be0079c531659141344cd1fd0a4f28419497f9722a3daafe3b4186f6b6457e0908290a36040518060800160405280604981526020016200249e604991396040516020018082805190602001908083835b60208310620001445780518252601f19909201916020918201910162000123565b51815160209384036101000a60001901801990921691161790526040805192909401828103601f190183528085528251928201929092208285018552600d83527f4d61746963204e6574776f726b000000000000000000000000000000000000009282019290925283518085018552600181527f3100000000000000000000000000000000000000000000000000000000000000908201528351808201929092527fd26430275d0d30693378daeb558f6ed30c3a48ba5d665f52c16608e1c41b5cd7828501527fc89efdaa54c0f20c7adf612882df0950f5a951637e0307cdcb4c672f298b8bc66060830152613a9960808301523060a0808401919091528451808403909101815260c0909201909352805190830120600555506200029192507f01ffc9a70000000000000000000000000000000000000000000000000000000091506200037b811b901c565b620002a96380ac58cd60e01b6200037b60201b60201c565b620002c163780e9d6360e01b6200037b60201b60201c565b8151620002d690600f906020850190620004c6565b508051620002ec906010906020840190620004c6565b5062000305635b5e139f60e01b6200037b60201b60201c565b505050506001600160a01b038316158015906200032a57506001600160a01b03841615155b6200033457600080fd5b5050600380546001600160a01b039384166001600160a01b031991821617909155600180549290931691161790556200037433620003e8602090811b901c565b506200056b565b7fffffffff000000000000000000000000000000000000000000000000000000008082161415620003ab57600080fd5b7fffffffff00000000000000000000000000000000000000000000000000000000166000908152600660205260409020805460ff19166001179055565b620004038160126200043a60201b620019b71790919060201c565b6040516001600160a01b038216907f6ae172837ea30b801fbfcdd4108aa1d5bf8ff775444fd70256b44e6bf3dfc3f690600090a250565b6001600160a01b0381166200044e57600080fd5b6200046082826200049060201b60201c565b156200046b57600080fd5b6001600160a01b0316600090815260209190915260409020805460ff19166001179055565b60006001600160a01b038216620004a657600080fd5b506001600160a01b03166000908152602091909152604090205460ff1690565b828054600181600116156101000203166002900490600052602060002090601f016020900481019282601f106200050957805160ff191683800117855562000539565b8280016001018555821562000539579182015b82811115620005395782518255916020019190600101906200051c565b50620005479291506200054b565b5090565b6200056891905b8082111562000547576000815560010162000552565b90565b611f23806200057b6000396000f3fe608060405234801561001057600080fd5b50600436106102275760003560e01c8063715018a611610130578063abceeba2116100b8578063e306f7791161007c578063e306f77914610822578063e614d0d61461082a578063e985e9c514610832578063f2fde38b14610860578063fc0c546a1461088657610227565b8063abceeba2146106e2578063acd06cb3146106ea578063b789543c14610707578063b88d4fde1461073f578063c87b56dd1461080557610227565b806395d89b41116100ff57806395d89b4114610658578063983b2d56146106605780639865027514610686578063a22cb4651461068e578063aa271e1a146106bc57610227565b8063715018a61461059357806377d32e941461059b5780638da5cb5b146106485780638f32d59b1461065057610227565b80632f745c59116101b35780634f6ccce7116101825780634f6ccce71461052357806360f96a8f146105405780636352211e146105485780637019d41a1461056557806370a082311461056d57610227565b80632f745c591461046957806340c10f191461049557806342842e0e146104c157806347e7ef24146104f757610227565b80631499c592116101fa5780631499c5921461034b57806318160ddd1461037157806319d27d9c1461038b57806323b872dd146104165780632e1a7d4d1461044c57610227565b806301ffc9a71461022c57806306fdde0314610267578063081812fc146102e4578063095ea7b31461031d575b600080fd5b6102536004803603602081101561024257600080fd5b50356001600160e01b03191661088e565b604080519115158252519081900360200190f35b61026f6108ad565b6040805160208082528351818301528351919283929083019185019080838360005b838110156102a9578181015183820152602001610291565b50505050905090810190601f1680156102d65780820380516001836020036101000a031916815260200191505b509250505060405180910390f35b610301600480360360208110156102fa57600080fd5b5035610944565b604080516001600160a01b039092168252519081900360200190f35b6103496004803603604081101561033357600080fd5b506001600160a01b038135169060200135610974565b005b6103496004803603602081101561036157600080fd5b50356001600160a01b0316610a21565b610379610a6d565b60408051918252519081900360200190f35b610301600480360360a08110156103a157600080fd5b8101906020810181356401000000008111156103bc57600080fd5b8201836020820111156103ce57600080fd5b803590602001918460018302840111640100000000831117156103f057600080fd5b9193509150803590602081013590604081013590606001356001600160a01b0316610a73565b6103496004803603606081101561042c57600080fd5b506001600160a01b03813581169160208101359091169060400135610c2e565b6103496004803603602081101561046257600080fd5b5035610cea565b6103796004803603604081101561047f57600080fd5b506001600160a01b038135169060200135610d57565b610253600480360360408110156104ab57600080fd5b506001600160a01b038135169060200135610da5565b610349600480360360608110156104d757600080fd5b506001600160a01b03813581169160208101359091169060400135610dcc565b6103496004803603604081101561050d57600080fd5b506001600160a01b038135169060200135610de7565b6103796004803603602081101561053957600080fd5b5035610e5e565b610301610e92565b6103016004803603602081101561055e57600080fd5b5035610ea1565b610301610ec3565b6103796004803603602081101561058357600080fd5b50356001600160a01b0316610ed2565b610349610f08565b610301600480360360408110156105b157600080fd5b813591908101906040810160208201356401000000008111156105d357600080fd5b8201836020820111156105e557600080fd5b8035906020019184600183028401116401000000008311171561060757600080fd5b91908080601f016020809104026020016040519081016040528093929190818152602001838380828437600092019190915250929550610f63945050505050565b610301611094565b6102536110a3565b61026f6110b4565b6103496004803603602081101561067657600080fd5b50356001600160a01b0316611115565b610349611133565b610349600480360360408110156106a457600080fd5b506001600160a01b038135169060200135151561113e565b610253600480360360208110156106d257600080fd5b50356001600160a01b03166111c2565b6103796111d5565b6102536004803603602081101561070057600080fd5b503561125e565b6103796004803603608081101561071d57600080fd5b506001600160a01b038135169060208101359060408101359060600135611273565b6103496004803603608081101561075557600080fd5b6001600160a01b0382358116926020810135909116916040820135919081019060808101606082013564010000000081111561079057600080fd5b8201836020820111156107a257600080fd5b803590602001918460018302840111640100000000831117156107c457600080fd5b91908080601f016020809104026020016040519081016040528093929190818152602001838380828437600092019190915250929550611292945050505050565b61026f6004803603602081101561081b57600080fd5b50356112b8565b61037961136b565b610379611371565b6102536004803603604081101561084857600080fd5b506001600160a01b03813581169160200135166113bb565b6103496004803603602081101561087657600080fd5b50356001600160a01b03166113e9565b610301611403565b6001600160e01b03191660009081526006602052604090205460ff1690565b600f8054604080516020601f60026000196101006001881615020190951694909404938401819004810282018101909252828152606093909290918301828280156109395780601f1061090e57610100808354040283529160200191610939565b820191906000526020600020905b81548152906001019060200180831161091c57829003601f168201915b505050505090505b90565b600061094f82611412565b61095857600080fd5b506000908152600860205260409020546001600160a01b031690565b600061097f82610ea1565b9050806001600160a01b0316836001600160a01b031614156109a057600080fd5b336001600160a01b03821614806109bc57506109bc81336113bb565b6109c557600080fd5b60008281526008602052604080822080546001600160a01b0319166001600160a01b0387811691821790925591518593918516917f8c5be1e5ebec7d5bd14f71427d1e84f3dd0314c0f7b2291e5b200ac8c7c3b92591a4505050565b6003546001600160a01b03163314610a3857600080fd5b6001600160a01b038116610a4b57600080fd5b600280546001600160a01b0319166001600160a01b0392909216919091179055565b600d5490565b6000821580610a825750824311155b610ad65760408051600160e51b62461bcd02815260206004820152601460248201527f5369676e61747572652069732065787069726564000000000000000000000000604482015290519081900360640190fd5b6000610ae433878787611273565b60008181526004602052604090205490915060ff1615610b4e5760408051600160e51b62461bcd02815260206004820152600f60248201527f5369672064656163746976617465640000000000000000000000000000000000604482015290519081900360640190fd5b6000818152600460209081526040808320805460ff191660011790558051601f8b01839004830281018301909152898152610ba6918491908c908c9081908401838280828437600092019190915250610f6392505050565b9050610bb381858961142f565b610bce81858960405180602001604052806000815250611488565b610c225760408051600160e51b62461bcd02815260206004820152601d60248201527f5f636865636b4f6e4552433732315265636569766564206661696c6564000000604482015290519081900360640190fd5b98975050505050505050565b6002546001600160a01b031615801590610cd0575060025460408051600160e01b631ffb811f0281523360048201526001600160a01b0385811660248301526044820185905291519190921691631ffb811f9160648083019260209291908290030181600087803b158015610ca257600080fd5b505af1158015610cb6573d6000803e3d6000fd5b505050506040513d6020811015610ccc57600080fd5b5051155b15610cda57610ce5565b610ce583838361142f565b505050565b33610cf482610ea1565b6001600160a01b031614610d0757600080fd5b610d1133826115c2565b60015460408051838152905133926001600160a01b0316917f9b1bfa7fa9ee420a16e124f794c35ac9f90472acc99140eb2f6447c714cad8eb919081900360200190a350565b6000610d6283610ed2565b8210610d6d57600080fd5b6001600160a01b0383166000908152600b60205260409020805483908110610d9157fe5b906000526020600020015490505b92915050565b6000610db0336111c2565b610db957600080fd5b610dc3838361160e565b50600192915050565b610ce583838360405180602001604052806000815250611292565b610def6110a3565b610df857600080fd5b6001600160a01b038216610e0b57600080fd5b610e15828261160e565b6001546040805183815290516001600160a01b038086169316917f5548c837ab068cf56a2c2479df0882a4922fd203edb7517321831d95078c5f62919081900360200190a35050565b6000610e68610a6d565b8210610e7357600080fd5b600d8281548110610e8057fe5b90600052602060002001549050919050565b6002546001600160a01b031681565b6000818152600760205260408120546001600160a01b031680610d9f57600080fd5b6003546001600160a01b031681565b60006001600160a01b038216610ee757600080fd5b6001600160a01b0382166000908152600960205260409020610d9f9061162b565b610f106110a3565b610f1957600080fd5b600080546040516001600160a01b03909116907f8be0079c531659141344cd1fd0a4f28419497f9722a3daafe3b4186f6b6457e0908390a3600080546001600160a01b0319169055565b6000806000808451604114610f7e5760009350505050610d9f565b50505060208201516040830151604184015160ff16601b811015610fa057601b015b8060ff16601b14158015610fb857508060ff16601c14155b15610fc95760009350505050610d9f565b6040805160008152602080820180845289905260ff8416828401526060820186905260808201859052915160019260a0808401939192601f1981019281900390910190855afa158015611020573d6000803e3d6000fd5b5050604051601f1901519450506001600160a01b03841661108b5760408051600160e51b62461bcd02815260206004820152601260248201527f4572726f7220696e2065637265636f7665720000000000000000000000000000604482015290519081900360640190fd5b50505092915050565b6000546001600160a01b031690565b6000546001600160a01b0316331490565b60108054604080516020601f60026000196101006001881615020190951694909404938401819004810282018101909252828152606093909290918301828280156109395780601f1061090e57610100808354040283529160200191610939565b61111e336111c2565b61112757600080fd5b6111308161162f565b50565b61113c33611677565b565b6001600160a01b03821633141561115457600080fd5b336000818152600a602090815260408083206001600160a01b03871680855290835292819020805460ff1916861515908117909155815190815290519293927f17307eab39ab6107e8899845ad3d59bd9653f200f220920489ca2b5937696c31929181900390910190a35050565b6000610d9f60128363ffffffff6116bf16565b6040518060800160405280605b8152602001611e54605b91396040516020018082805190602001908083835b602083106112205780518252601f199092019160209182019101611201565b6001836020036101000a0380198251168184511680821785525050505050509050019150506040516020818303038152906040528051906020012081565b60046020526000908152604090205460ff1681565b6000611289611284868686866116f4565b6117ad565b95945050505050565b61129d848484610c2e565b6112a984848484611488565b6112b257600080fd5b50505050565b60606112c382611412565b6112cc57600080fd5b60008281526011602090815260409182902080548351601f60026000196101006001861615020190931692909204918201849004840281018401909452808452909183018282801561135f5780601f106113345761010080835404028352916020019161135f565b820191906000526020600020905b81548152906001019060200180831161134257829003601f168201915b50505050509050919050565b60055481565b604051806080016040528060498152602001611eaf60499139604051602001808280519060200190808383602083106112205780518252601f199092019160209182019101611201565b6001600160a01b039182166000908152600a6020908152604080832093909416825291909152205460ff1690565b6113f16110a3565b6113fa57600080fd5b611130816117d5565b6001546001600160a01b031681565b6000908152600760205260409020546001600160a01b0316151590565b61143a838383611843565b6001546040805183815290516001600160a01b0380861693878216939116917f6eabe333476233fd382224f233210cb808a7bc4c4de64f9d76628bf63c677b1a9181900360200190a4505050565b600061149c846001600160a01b0316611862565b6114a8575060016115ba565b604051600160e11b630a85bd0102815233600482018181526001600160a01b03888116602485015260448401879052608060648501908152865160848601528651600095928a169463150b7a029490938c938b938b939260a4019060208501908083838e5b8381101561152557818101518382015260200161150d565b50505050905090810190601f1680156115525780820380516001836020036101000a031916815260200191505b5095505050505050602060405180830381600087803b15801561157457600080fd5b505af1158015611588573d6000803e3d6000fd5b505050506040513d602081101561159e57600080fd5b50516001600160e01b031916600160e11b630a85bd0102149150505b949350505050565b6115cc8282611868565b600081815260116020526040902054600260001961010060018416150201909116041561160a57600081815260116020526040812061160a91611dd1565b5050565b6116188282611894565b6116228282611935565b61160a81611973565b5490565b61164060128263ffffffff6119b716565b6040516001600160a01b038216907f6ae172837ea30b801fbfcdd4108aa1d5bf8ff775444fd70256b44e6bf3dfc3f690600090a250565b61168860128263ffffffff611a0316565b6040516001600160a01b038216907fe94479a9f7e1952cc78f2d6baab678adc1b772d936c6583def489e524cb6669290600090a250565b60006001600160a01b0382166116d457600080fd5b506001600160a01b03166000908152602091909152604090205460ff1690565b6000806040518060800160405280605b8152602001611e54605b91396040516020018082805190602001908083835b602083106117425780518252601f199092019160209182019101611723565b51815160209384036101000a60001901801990921691161790526040805192909401828103601f1901835280855282519282019290922082526001600160a01b039b909b169a81019a909a5250880196909652505050606084019190915260808301525060a0902090565b600554604051600160f01b611901028152600281019190915260228101919091526042902090565b6001600160a01b0381166117e857600080fd5b600080546040516001600160a01b03808516939216917f8be0079c531659141344cd1fd0a4f28419497f9722a3daafe3b4186f6b6457e091a3600080546001600160a01b0319166001600160a01b0392909216919091179055565b61184e838383611a4b565b6118588382611b2b565b610ce58282611935565b3b151590565b6118728282611c20565b61187c8282611b2b565b6000818152600c602052604081205561160a81611cc5565b6001600160a01b0382166118a757600080fd5b6118b081611412565b156118ba57600080fd5b600081815260076020908152604080832080546001600160a01b0319166001600160a01b0387169081179091558352600990915290206118f990611d61565b60405181906001600160a01b038416906000907fddf252ad1be2c89b69c2b068fc378daa952ba7f163c4a11628f55a4df523b3ef908290a45050565b6001600160a01b039091166000908152600b602081815260408084208054868652600c84529185208290559282526001810183559183529091200155565b600d80546000838152600e60205260408120829055600182018355919091527fd7b6990105719101dabeb77144f2a3385c8033acd3af97e9423a695e81ad1eb50155565b6001600160a01b0381166119ca57600080fd5b6119d482826116bf565b156119de57600080fd5b6001600160a01b0316600090815260209190915260409020805460ff19166001179055565b6001600160a01b038116611a1657600080fd5b611a2082826116bf565b611a2957600080fd5b6001600160a01b0316600090815260209190915260409020805460ff19169055565b826001600160a01b0316611a5e82610ea1565b6001600160a01b031614611a7157600080fd5b6001600160a01b038216611a8457600080fd5b611a8d81611d6a565b6001600160a01b0383166000908152600960205260409020611aae90611da5565b6001600160a01b0382166000908152600960205260409020611acf90611d61565b60008181526007602052604080822080546001600160a01b0319166001600160a01b0386811691821790925591518493918716917fddf252ad1be2c89b69c2b068fc378daa952ba7f163c4a11628f55a4df523b3ef91a4505050565b6001600160a01b0382166000908152600b6020526040812054611b5590600163ffffffff611dbc16565b6000838152600c6020526040902054909150808214611bf0576001600160a01b0384166000908152600b60205260408120805484908110611b9257fe5b9060005260206000200154905080600b6000876001600160a01b03166001600160a01b031681526020019081526020016000208381548110611bd057fe5b6000918252602080832090910192909255918252600c9052604090208190555b6001600160a01b0384166000908152600b60205260409020805490611c19906000198301611e15565b5050505050565b816001600160a01b0316611c3382610ea1565b6001600160a01b031614611c4657600080fd5b611c4f81611d6a565b6001600160a01b0382166000908152600960205260409020611c7090611da5565b60008181526007602052604080822080546001600160a01b0319169055518291906001600160a01b038516907fddf252ad1be2c89b69c2b068fc378daa952ba7f163c4a11628f55a4df523b3ef908390a45050565b600d54600090611cdc90600163ffffffff611dbc16565b6000838152600e6020526040812054600d8054939450909284908110611cfe57fe5b9060005260206000200154905080600d8381548110611d1957fe5b6000918252602080832090910192909255828152600e90915260409020829055600d805490611d4c906000198301611e15565b505050600091825250600e6020526040812055565b80546001019055565b6000818152600860205260409020546001600160a01b03161561113057600090815260086020526040902080546001600160a01b0319169055565b8054611db890600163ffffffff611dbc16565b9055565b600082821115611dcb57600080fd5b50900390565b50805460018160011615610100020316600290046000825580601f10611df75750611130565b601f0160209004906000526020600020908101906111309190611e35565b815481835581811115610ce557600083815260209020610ce59181019083015b61094191905b80821115611e4f5760008155600101611e3b565b509056fe546f6b656e5472616e736665724f726465722861646472657373207370656e6465722c75696e7432353620746f6b656e49644f72416d6f756e742c6279746573333220646174612c75696e743235362065787069726174696f6e29454950373132446f6d61696e28737472696e67206e616d652c737472696e672076657273696f6e2c75696e7432353620636861696e49642c6164647265737320636f6e747261637429a165627a7a7230582063e0cd9a7de574a1cb6ebfa46dda70485be75c8b4aa0c62e31b673316d95a0e70029454950373132446f6d61696e28737472696e67206e616d652c737472696e672076657273696f6e2c75696e7432353620636861696e49642c6164647265737320636f6e747261637429",
  "source": "pragma solidity ^0.5.2;\n\nimport { ChildERC721 } from \"./ChildERC721.sol\";\nimport { ERC721Mintable } from \"openzeppelin-solidity/contracts/token/ERC721/ERC721Mintable.sol\";\n\ncontract ChildERC721Mintable is ChildERC721, ERC721Mintable {\n  constructor (address rootToken)\n    ChildERC721(msg.sender, rootToken, \"Mintable 721\", \"M721\")\n    public {}\n}\n",
  "sourcePath": "/Users/arpit/projects/contracts/contracts/child/ChildERC721Mintable.sol",
  "compiler": {
    "name": "solc",
    "version": "0.5.7+commit.6da8b019.Emscripten.clang"
  },
  "schemaVersion": "3.0.16",
  "updatedAt": "2019-09-21T10:53:38.823Z",
  "devdoc": {
    "methods": {
      "approve(address,uint256)": {
        "details": "Approves another address to transfer the given token ID The zero address indicates there is no approved address. There can only be one approved address per token at a given time. Can only be called by the token owner or an approved operator.",
        "params": {
          "to": "address to be approved for the given token ID",
          "tokenId": "uint256 ID of the token to be approved"
        }
      },
      "balanceOf(address)": {
        "details": "Gets the balance of the specified address",
        "params": {
          "owner": "address to query the balance of"
        },
        "return": "uint256 representing the amount owned by the passed address"
      },
      "deposit(address,uint256)": {
        "params": {
          "tokenId": "tokenId to mint to user's account",
          "user": "address for deposit"
        }
      },
      "getApproved(uint256)": {
        "details": "Gets the approved address for a token ID, or zero if no address set Reverts if the token ID does not exist.",
        "params": {
          "tokenId": "uint256 ID of the token to query the approval of"
        },
        "return": "address currently approved for the given token ID"
      },
      "isApprovedForAll(address,address)": {
        "details": "Tells whether an operator is approved by a given owner",
        "params": {
          "operator": "operator address which you want to query the approval of",
          "owner": "owner address which you want to query the approval of"
        },
        "return": "bool whether the given operator is approved by the given owner"
      },
      "isOwner()": {
        "return": "true if `msg.sender` is the owner of the contract."
      },
      "mint(address,uint256)": {
        "details": "Function to mint tokens",
        "params": {
          "to": "The address that will receive the minted tokens.",
          "tokenId": "The token id to mint."
        },
        "return": "A boolean that indicates if the operation was successful."
      },
      "name()": {
        "details": "Gets the token name",
        "return": "string representing the token name"
      },
      "owner()": {
        "return": "the address of the owner."
      },
      "ownerOf(uint256)": {
        "details": "Gets the owner of the specified token ID",
        "params": {
          "tokenId": "uint256 ID of the token to query the owner of"
        },
        "return": "address currently marked as the owner of the given token ID"
      },
      "renounceOwnership()": {
        "details": "Allows the current owner to relinquish control of the contract. It will not be possible to call the functions with the `onlyOwner` modifier anymore."
      },
      "safeTransferFrom(address,address,uint256)": {
        "details": "Safely transfers the ownership of a given token ID to another address If the target address is a contract, it must implement `onERC721Received`, which is called upon a safe transfer, and return the magic value `bytes4(keccak256(\"onERC721Received(address,address,uint256,bytes)\"))`; otherwise, the transfer is reverted. Requires the msg.sender to be the owner, approved, or operator",
        "params": {
          "from": "current owner of the token",
          "to": "address to receive the ownership of the given token ID",
          "tokenId": "uint256 ID of the token to be transferred"
        }
      },
      "safeTransferFrom(address,address,uint256,bytes)": {
        "details": "Safely transfers the ownership of a given token ID to another address If the target address is a contract, it must implement `onERC721Received`, which is called upon a safe transfer, and return the magic value `bytes4(keccak256(\"onERC721Received(address,address,uint256,bytes)\"))`; otherwise, the transfer is reverted. Requires the msg.sender to be the owner, approved, or operator",
        "params": {
          "_data": "bytes data to send along with a safe transfer check",
          "from": "current owner of the token",
          "to": "address to receive the ownership of the given token ID",
          "tokenId": "uint256 ID of the token to be transferred"
        }
      },
      "setApprovalForAll(address,bool)": {
        "details": "Sets or unsets the approval of a given operator An operator is allowed to transfer all tokens of the sender on their behalf",
        "params": {
          "approved": "representing the status of the approval to be set",
          "to": "operator address to set the approval"
        }
      },
      "supportsInterface(bytes4)": {
        "details": "implement supportsInterface(bytes4) using a lookup table"
      },
      "symbol()": {
        "details": "Gets the token symbol",
        "return": "string representing the token symbol"
      },
      "tokenByIndex(uint256)": {
        "details": "Gets the token ID at a given index of all the tokens in this contract Reverts if the index is greater or equal to the total number of tokens",
        "params": {
          "index": "uint256 representing the index to be accessed of the tokens list"
        },
        "return": "uint256 token ID at the given index of the tokens list"
      },
      "tokenOfOwnerByIndex(address,uint256)": {
        "details": "Gets the token ID at a given index of the tokens list of the requested owner",
        "params": {
          "index": "uint256 representing the index to be accessed of the requested tokens list",
          "owner": "address owning the tokens list to be accessed"
        },
        "return": "uint256 token ID at the given index of the tokens list owned by the requested address"
      },
      "tokenURI(uint256)": {
        "details": "Returns an URI for a given token ID Throws if the token ID does not exist. May return an empty string.",
        "params": {
          "tokenId": "uint256 ID of the token to query"
        }
      },
      "totalSupply()": {
        "details": "Gets the total amount of tokens stored by the contract",
        "return": "uint256 representing the total amount of tokens"
      },
      "transferFrom(address,address,uint256)": {
        "details": "Overriding the inherited method so that it emits LogTransfer"
      },
      "transferOwnership(address)": {
        "details": "Allows the current owner to transfer control of the contract to a newOwner.",
        "params": {
          "newOwner": "The address to transfer ownership to."
        }
      },
      "withdraw(uint256)": {
        "params": {
          "tokenId": "tokenId of the token to be withdrawn"
        }
      }
    }
  },
  "userdoc": {
    "methods": {
      "deposit(address,uint256)": {
        "notice": "Deposit tokens"
      },
      "renounceOwnership()": {
        "notice": "Renouncing ownership will leave the contract without an owner, thereby removing any functionality that is only available to the owner."
      },
      "withdraw(uint256)": {
        "notice": "Withdraw tokens"
      }
    }
  }
}