{
  "contractName": "Common",
  "abi": [
    {
      "constant": true,
      "inputs": [
        {
          "internalType": "bytes",
          "name": "v",
          "type": "bytes"
        },
        {
          "internalType": "uint16",
          "name": "chainId",
          "type": "uint16"
        }
      ],
      "name": "getV",
      "outputs": [
        {
          "internalType": "uint8",
          "name": "",
          "type": "uint8"
        }
      ],
      "payable": false,
      "stateMutability": "pure",
      "type": "function"
    },
    {
      "constant": true,
      "inputs": [
        {
          "internalType": "address",
          "name": "_addr",
          "type": "address"
        }
      ],
      "name": "isContract",
      "outputs": [
        {
          "internalType": "bool",
          "name": "",
          "type": "bool"
        }
      ],
      "payable": false,
      "stateMutability": "view",
      "type": "function"
    },
    {
      "constant": true,
      "inputs": [
        {
          "internalType": "uint256",
          "name": "_num",
          "type": "uint256"
        }
      ],
      "name": "toBytes",
      "outputs": [
        {
          "internalType": "bytes",
          "name": "_ret",
          "type": "bytes"
        }
      ],
      "payable": false,
      "stateMutability": "pure",
      "type": "function"
    },
    {
      "constant": true,
      "inputs": [
        {
          "internalType": "bytes",
          "name": "_arg",
          "type": "bytes"
        }
      ],
      "name": "toUint8",
      "outputs": [
        {
          "internalType": "uint8",
          "name": "",
          "type": "uint8"
        }
      ],
      "payable": false,
      "stateMutability": "pure",
      "type": "function"
    },
    {
      "constant": true,
      "inputs": [
        {
          "internalType": "bytes",
          "name": "_arg",
          "type": "bytes"
        }
      ],
      "name": "toUint16",
      "outputs": [
        {
          "internalType": "uint16",
          "name": "",
          "type": "uint16"
        }
      ],
      "payable": false,
      "stateMutability": "pure",
      "type": "function"
    }
  ],
  "bytecode": "0x610528610026600b82828239805160001a60731461001957fe5b30600052607381538281f3fe73000000000000000000000000000000000000000030146080604052600436106100615760003560e01c806316279055146100665780634d66a2ae146100a0578063775a8f5e1461015d5780637ae93b19146101ef578063b40b539b146102ab575b600080fd5b61008c6004803603602081101561007c57600080fd5b50356001600160a01b0316610357565b604080519115158252519081900360200190f35b610146600480360360208110156100b657600080fd5b8101906020810181356401000000008111156100d157600080fd5b8201836020820111156100e357600080fd5b8035906020019184600183028401116401000000008311171561010557600080fd5b91908080601f01602080910402602001604051908101604052809392919081815260200183838082843760009201919091525092955061035d945050505050565b6040805161ffff9092168252519081900360200190f35b61017a6004803603602081101561017357600080fd5b503561039e565b6040805160208082528351818301528351919283929083019185019080838360005b838110156101b457818101518382015260200161019c565b50505050905090810190601f1680156101e15780820380516001836020036101000a031916815260200191505b509250505060405180910390f35b6102956004803603602081101561020557600080fd5b81019060208101813564010000000081111561022057600080fd5b82018360208201111561023257600080fd5b8035906020019184600183028401116401000000008311171561025457600080fd5b91908080601f0160208091040260200160405190810160405280939291908181526020018383808284376000920191909152509295506103af945050505050565b6040805160ff9092168252519081900360200190f35b610295600480360360408110156102c157600080fd5b8101906020810181356401000000008111156102dc57600080fd5b8201836020820111156102ee57600080fd5b8035906020019184600183028401116401000000008311171561031057600080fd5b91908080601f0160208091040260200160405190810160405280939291908181526020018383808284376000920191909152509295505050903561ffff1691506103cd9050565b3b151590565b60008160018151811061036c57fe5b602001015160f81c60f81b60f81c60ff1660088360008151811061038c57fe5b016020015160f81c901b179050919050565b601051602080825281019190915290565b6000816000815181106103be57fe5b016020015160f81c9050919050565b600061ffff8216156103ff5760088260020261ffff166103f66103ef86610414565b600061045a565b0303905061040e565b61040b6103ef84610414565b90505b92915050565b60608082516020036040519080825280601f01601f191660200182016040528015610446576020820181803883390190505b5090506104538184610476565b9392505050565b6000816020018351101561046d57600080fd5b50016020015190565b6060806040519050835180825260208201818101602087015b818310156104a757805183526020928301920161048f565b50855184518101855292509050808201602086015b818310156104d45780518352602092830192016104bc565b508651929092011591909101601f01601f19166040525090509291505056fea265627a7a72315820b1256ba836547dc355d1c943f4f45ae80141b56d5e86f939639384a6282f7c9d64736f6c634300050b0032",
  "source": "pragma solidity ^0.5.2;\n\nimport \"./BytesLib.sol\";\n\n\nlibrary Common {\n  function getV(bytes memory v, uint16 chainId) public pure returns (uint8) {\n    if (chainId > 0) {\n      return uint8(BytesLib.toUint(BytesLib.leftPad(v), 0) - (chainId * 2) - 8);\n    } else {\n      return uint8(BytesLib.toUint(BytesLib.leftPad(v), 0));\n    }\n  }\n\n  //assemble the given address bytecode. If bytecode exists then the _addr is a contract.\n  function isContract(address _addr) public view returns (bool) {\n    uint length;\n    assembly {\n      //retrieve the size of the code on target address, this needs assembly\n      length := extcodesize(_addr)\n    }\n    return (length > 0);\n  }\n\n  // convert uint256 to bytes\n  function toBytes(uint256 _num) public pure returns (bytes memory _ret) {\n    assembly {\n      _ret := mload(0x10)\n      mstore(_ret, 0x20)\n      mstore(add(_ret, 0x20), _num)\n    }\n  }\n\n  // convert bytes to uint8\n  function toUint8(bytes memory _arg) public pure returns (uint8) {\n    return uint8(_arg[0]);\n  }\n\n  function toUint16(bytes memory _arg) public pure returns (uint16) {\n    return (uint16(uint8(_arg[0])) << 8) | uint16(uint8(_arg[1]));\n  }\n}\n",
  "sourcePath": "/Users/atvanguard/matic/contracts/contracts/common/lib/Common.sol",
  "compiler": {
    "name": "solc",
    "version": "0.5.11+commit.c082d0b4.Emscripten.clang"
  },
  "schemaVersion": "3.0.14",
  "updatedAt": "2019-12-17T06:31:17.924Z",
  "devdoc": {
    "methods": {}
  },
  "userdoc": {
    "methods": {}
  }
}