{
  "contractName": "DelegationManager",
  "abi": [
    {
      "constant": true,
      "inputs": [
        {
          "internalType": "bytes4",
          "name": "interfaceId",
          "type": "bytes4"
        }
      ],
      "name": "supportsInterface",
      "outputs": [
        {
          "internalType": "bool",
          "name": "",
          "type": "bool"
        }
      ],
      "payable": false,
      "stateMutability": "view",
      "type": "function"
    },
    {
      "constant": true,
      "inputs": [],
      "name": "name",
      "outputs": [
        {
          "internalType": "string",
          "name": "",
          "type": "string"
        }
      ],
      "payable": false,
      "stateMutability": "view",
      "type": "function"
    },
    {
      "constant": true,
      "inputs": [
        {
          "internalType": "uint256",
          "name": "tokenId",
          "type": "uint256"
        }
      ],
      "name": "getApproved",
      "outputs": [
        {
          "internalType": "address",
          "name": "",
          "type": "address"
        }
      ],
      "payable": false,
      "stateMutability": "view",
      "type": "function"
    },
    {
      "constant": false,
      "inputs": [
        {
          "internalType": "address",
          "name": "to",
          "type": "address"
        },
        {
          "internalType": "uint256",
          "name": "tokenId",
          "type": "uint256"
        }
      ],
      "name": "approve",
      "outputs": [],
      "payable": false,
      "stateMutability": "nonpayable",
      "type": "function"
    },
    {
      "constant": true,
      "inputs": [],
      "name": "WITHDRAWAL_DELAY",
      "outputs": [
        {
          "internalType": "uint256",
          "name": "",
          "type": "uint256"
        }
      ],
      "payable": false,
      "stateMutability": "view",
      "type": "function"
    },
    {
      "constant": true,
      "inputs": [],
      "name": "totalSupply",
      "outputs": [
        {
          "internalType": "uint256",
          "name": "",
          "type": "uint256"
        }
      ],
      "payable": false,
      "stateMutability": "view",
      "type": "function"
    },
    {
      "constant": false,
      "inputs": [
        {
          "internalType": "address",
          "name": "from",
          "type": "address"
        },
        {
          "internalType": "address",
          "name": "to",
          "type": "address"
        },
        {
          "internalType": "uint256",
          "name": "tokenId",
          "type": "uint256"
        }
      ],
      "name": "transferFrom",
      "outputs": [],
      "payable": false,
      "stateMutability": "nonpayable",
      "type": "function"
    },
    {
      "constant": true,
      "inputs": [],
      "name": "MIN_DEPOSIT_SIZE",
      "outputs": [
        {
          "internalType": "uint256",
          "name": "",
          "type": "uint256"
        }
      ],
      "payable": false,
      "stateMutability": "view",
      "type": "function"
    },
    {
      "constant": true,
      "inputs": [
        {
          "internalType": "address",
          "name": "owner",
          "type": "address"
        },
        {
          "internalType": "uint256",
          "name": "index",
          "type": "uint256"
        }
      ],
      "name": "tokenOfOwnerByIndex",
      "outputs": [
        {
          "internalType": "uint256",
          "name": "",
          "type": "uint256"
        }
      ],
      "payable": false,
      "stateMutability": "view",
      "type": "function"
    },
    {
      "constant": false,
      "inputs": [
        {
          "internalType": "address",
          "name": "from",
          "type": "address"
        },
        {
          "internalType": "address",
          "name": "to",
          "type": "address"
        },
        {
          "internalType": "uint256",
          "name": "tokenId",
          "type": "uint256"
        }
      ],
      "name": "safeTransferFrom",
      "outputs": [],
      "payable": false,
      "stateMutability": "nonpayable",
      "type": "function"
    },
    {
      "constant": true,
      "inputs": [
        {
          "internalType": "uint256",
          "name": "index",
          "type": "uint256"
        }
      ],
      "name": "tokenByIndex",
      "outputs": [
        {
          "internalType": "uint256",
          "name": "",
          "type": "uint256"
        }
      ],
      "payable": false,
      "stateMutability": "view",
      "type": "function"
    },
    {
      "constant": true,
      "inputs": [],
      "name": "NFTCounter",
      "outputs": [
        {
          "internalType": "uint256",
          "name": "",
          "type": "uint256"
        }
      ],
      "payable": false,
      "stateMutability": "view",
      "type": "function"
    },
    {
      "constant": true,
      "inputs": [
        {
          "internalType": "uint256",
          "name": "",
          "type": "uint256"
        }
      ],
      "name": "delegators",
      "outputs": [
        {
          "internalType": "uint256",
          "name": "deactivationEpoch",
          "type": "uint256"
        },
        {
          "internalType": "uint256",
          "name": "delegationStartEpoch",
          "type": "uint256"
        },
        {
          "internalType": "uint256",
          "name": "delegationStopEpoch",
          "type": "uint256"
        },
        {
          "internalType": "uint256",
          "name": "lastValidatorEpoch",
          "type": "uint256"
        },
        {
          "internalType": "uint256",
          "name": "amount",
          "type": "uint256"
        },
        {
          "internalType": "uint256",
          "name": "reward",
          "type": "uint256"
        },
        {
          "internalType": "uint256",
          "name": "bondedTo",
          "type": "uint256"
        }
      ],
      "payable": false,
      "stateMutability": "view",
      "type": "function"
    },
    {
      "constant": true,
      "inputs": [
        {
          "internalType": "uint256",
          "name": "tokenId",
          "type": "uint256"
        }
      ],
      "name": "ownerOf",
      "outputs": [
        {
          "internalType": "address",
          "name": "",
          "type": "address"
        }
      ],
      "payable": false,
      "stateMutability": "view",
      "type": "function"
    },
    {
      "constant": true,
      "inputs": [
        {
          "internalType": "address",
          "name": "owner",
          "type": "address"
        }
      ],
      "name": "balanceOf",
      "outputs": [
        {
          "internalType": "uint256",
          "name": "",
          "type": "uint256"
        }
      ],
      "payable": false,
      "stateMutability": "view",
      "type": "function"
    },
    {
      "constant": false,
      "inputs": [],
      "name": "renounceOwnership",
      "outputs": [],
      "payable": false,
      "stateMutability": "nonpayable",
      "type": "function"
    },
    {
      "constant": true,
      "inputs": [],
      "name": "registry",
      "outputs": [
        {
          "internalType": "contract Registry",
          "name": "",
          "type": "address"
        }
      ],
      "payable": false,
      "stateMutability": "view",
      "type": "function"
    },
    {
      "constant": true,
      "inputs": [],
      "name": "totalStaked",
      "outputs": [
        {
          "internalType": "uint256",
          "name": "",
          "type": "uint256"
        }
      ],
      "payable": false,
      "stateMutability": "view",
      "type": "function"
    },
    {
      "constant": true,
      "inputs": [],
      "name": "validatorHopLimit",
      "outputs": [
        {
          "internalType": "uint256",
          "name": "",
          "type": "uint256"
        }
      ],
      "payable": false,
      "stateMutability": "view",
      "type": "function"
    },
    {
      "constant": true,
      "inputs": [],
      "name": "owner",
      "outputs": [
        {
          "internalType": "address",
          "name": "",
          "type": "address"
        }
      ],
      "payable": false,
      "stateMutability": "view",
      "type": "function"
    },
    {
      "constant": true,
      "inputs": [],
      "name": "isOwner",
      "outputs": [
        {
          "internalType": "bool",
          "name": "",
          "type": "bool"
        }
      ],
      "payable": false,
      "stateMutability": "view",
      "type": "function"
    },
    {
      "constant": true,
      "inputs": [],
      "name": "symbol",
      "outputs": [
        {
          "internalType": "string",
          "name": "",
          "type": "string"
        }
      ],
      "payable": false,
      "stateMutability": "view",
      "type": "function"
    },
    {
      "constant": false,
      "inputs": [
        {
          "internalType": "address",
          "name": "to",
          "type": "address"
        },
        {
          "internalType": "bool",
          "name": "approved",
          "type": "bool"
        }
      ],
      "name": "setApprovalForAll",
      "outputs": [],
      "payable": false,
      "stateMutability": "nonpayable",
      "type": "function"
    },
    {
      "constant": false,
      "inputs": [],
      "name": "unlock",
      "outputs": [],
      "payable": false,
      "stateMutability": "nonpayable",
      "type": "function"
    },
    {
      "constant": false,
      "inputs": [
        {
          "internalType": "address",
          "name": "from",
          "type": "address"
        },
        {
          "internalType": "address",
          "name": "to",
          "type": "address"
        },
        {
          "internalType": "uint256",
          "name": "tokenId",
          "type": "uint256"
        },
        {
          "internalType": "bytes",
          "name": "_data",
          "type": "bytes"
        }
      ],
      "name": "safeTransferFrom",
      "outputs": [],
      "payable": false,
      "stateMutability": "nonpayable",
      "type": "function"
    },
    {
      "constant": true,
      "inputs": [
        {
          "internalType": "uint256",
          "name": "tokenId",
          "type": "uint256"
        }
      ],
      "name": "tokenURI",
      "outputs": [
        {
          "internalType": "string",
          "name": "",
          "type": "string"
        }
      ],
      "payable": false,
      "stateMutability": "view",
      "type": "function"
    },
    {
      "constant": true,
      "inputs": [],
      "name": "locked",
      "outputs": [
        {
          "internalType": "bool",
          "name": "",
          "type": "bool"
        }
      ],
      "payable": false,
      "stateMutability": "view",
      "type": "function"
    },
    {
      "constant": true,
      "inputs": [
        {
          "internalType": "address",
          "name": "owner",
          "type": "address"
        },
        {
          "internalType": "address",
          "name": "operator",
          "type": "address"
        }
      ],
      "name": "isApprovedForAll",
      "outputs": [
        {
          "internalType": "bool",
          "name": "",
          "type": "bool"
        }
      ],
      "payable": false,
      "stateMutability": "view",
      "type": "function"
    },
    {
      "constant": false,
      "inputs": [
        {
          "internalType": "address",
          "name": "newOwner",
          "type": "address"
        }
      ],
      "name": "transferOwnership",
      "outputs": [],
      "payable": false,
      "stateMutability": "nonpayable",
      "type": "function"
    },
    {
      "constant": false,
      "inputs": [],
      "name": "lock",
      "outputs": [],
      "payable": false,
      "stateMutability": "nonpayable",
      "type": "function"
    },
    {
      "constant": true,
      "inputs": [],
      "name": "token",
      "outputs": [
        {
          "internalType": "contract IERC20",
          "name": "",
          "type": "address"
        }
      ],
      "payable": false,
      "stateMutability": "view",
      "type": "function"
    },
    {
      "inputs": [
        {
          "internalType": "contract Registry",
          "name": "_registry",
          "type": "address"
        }
      ],
      "payable": false,
      "stateMutability": "nonpayable",
      "type": "constructor"
    },
    {
      "anonymous": false,
      "inputs": [
        {
          "indexed": true,
          "internalType": "address",
          "name": "previousOwner",
          "type": "address"
        },
        {
          "indexed": true,
          "internalType": "address",
          "name": "newOwner",
          "type": "address"
        }
      ],
      "name": "OwnershipTransferred",
      "type": "event"
    },
    {
      "anonymous": false,
      "inputs": [
        {
          "indexed": true,
          "internalType": "address",
          "name": "from",
          "type": "address"
        },
        {
          "indexed": true,
          "internalType": "address",
          "name": "to",
          "type": "address"
        },
        {
          "indexed": true,
          "internalType": "uint256",
          "name": "tokenId",
          "type": "uint256"
        }
      ],
      "name": "Transfer",
      "type": "event"
    },
    {
      "anonymous": false,
      "inputs": [
        {
          "indexed": true,
          "internalType": "address",
          "name": "owner",
          "type": "address"
        },
        {
          "indexed": true,
          "internalType": "address",
          "name": "approved",
          "type": "address"
        },
        {
          "indexed": true,
          "internalType": "uint256",
          "name": "tokenId",
          "type": "uint256"
        }
      ],
      "name": "Approval",
      "type": "event"
    },
    {
      "anonymous": false,
      "inputs": [
        {
          "indexed": true,
          "internalType": "address",
          "name": "owner",
          "type": "address"
        },
        {
          "indexed": true,
          "internalType": "address",
          "name": "operator",
          "type": "address"
        },
        {
          "indexed": false,
          "internalType": "bool",
          "name": "approved",
          "type": "bool"
        }
      ],
      "name": "ApprovalForAll",
      "type": "event"
    },
    {
      "anonymous": false,
      "inputs": [
        {
          "indexed": true,
          "internalType": "address",
          "name": "user",
          "type": "address"
        },
        {
          "indexed": true,
          "internalType": "uint256",
          "name": "delegatorId",
          "type": "uint256"
        },
        {
          "indexed": true,
          "internalType": "uint256",
          "name": "activatonEpoch",
          "type": "uint256"
        },
        {
          "indexed": false,
          "internalType": "uint256",
          "name": "amount",
          "type": "uint256"
        },
        {
          "indexed": false,
          "internalType": "uint256",
          "name": "total",
          "type": "uint256"
        }
      ],
      "name": "Staked",
      "type": "event"
    },
    {
      "anonymous": false,
      "inputs": [
        {
          "indexed": true,
          "internalType": "address",
          "name": "user",
          "type": "address"
        },
        {
          "indexed": true,
          "internalType": "uint256",
          "name": "delegatorId",
          "type": "uint256"
        },
        {
          "indexed": false,
          "internalType": "uint256",
          "name": "amount",
          "type": "uint256"
        },
        {
          "indexed": false,
          "internalType": "uint256",
          "name": "total",
          "type": "uint256"
        }
      ],
      "name": "Unstaked",
      "type": "event"
    },
    {
      "anonymous": false,
      "inputs": [
        {
          "indexed": true,
          "internalType": "uint256",
          "name": "delegatorId",
          "type": "uint256"
        },
        {
          "indexed": true,
          "internalType": "uint256",
          "name": "validatorId",
          "type": "uint256"
        },
        {
          "indexed": true,
          "internalType": "address",
          "name": "validatorContract",
          "type": "address"
        }
      ],
      "name": "Bonding",
      "type": "event"
    },
    {
      "anonymous": false,
      "inputs": [
        {
          "indexed": true,
          "internalType": "uint256",
          "name": "delegatorId",
          "type": "uint256"
        },
        {
          "indexed": true,
          "internalType": "uint256",
          "name": "validatorId",
          "type": "uint256"
        }
      ],
      "name": "UnBonding",
      "type": "event"
    },
    {
      "anonymous": false,
      "inputs": [
        {
          "indexed": true,
          "internalType": "uint256",
          "name": "delegatorId",
          "type": "uint256"
        },
        {
          "indexed": true,
          "internalType": "uint256",
          "name": "amount",
          "type": "uint256"
        },
        {
          "indexed": false,
          "internalType": "uint256",
          "name": "total",
          "type": "uint256"
        }
      ],
      "name": "ReStaked",
      "type": "event"
    },
    {
      "constant": false,
      "inputs": [
        {
          "internalType": "contract IERC20",
          "name": "_token",
          "type": "address"
        }
      ],
      "name": "setToken",
      "outputs": [],
      "payable": false,
      "stateMutability": "nonpayable",
      "type": "function"
    },
    {
      "constant": false,
      "inputs": [
        {
          "internalType": "uint256",
          "name": "delegatorId",
          "type": "uint256"
        }
      ],
      "name": "claimRewards",
      "outputs": [],
      "payable": false,
      "stateMutability": "nonpayable",
      "type": "function"
    },
    {
      "constant": false,
      "inputs": [
        {
          "internalType": "uint256",
          "name": "delegatorId",
          "type": "uint256"
        },
        {
          "internalType": "uint256",
          "name": "validatorId",
          "type": "uint256"
        }
      ],
      "name": "bond",
      "outputs": [],
      "payable": false,
      "stateMutability": "nonpayable",
      "type": "function"
    },
    {
      "constant": false,
      "inputs": [
        {
          "internalType": "uint256",
          "name": "delegatorId",
          "type": "uint256"
        },
        {
          "internalType": "uint256",
          "name": "index",
          "type": "uint256"
        }
      ],
      "name": "unBond",
      "outputs": [],
      "payable": false,
      "stateMutability": "nonpayable",
      "type": "function"
    },
    {
      "constant": false,
      "inputs": [
        {
          "internalType": "uint256[]",
          "name": "_delegators",
          "type": "uint256[]"
        },
        {
          "internalType": "uint256",
          "name": "epoch",
          "type": "uint256"
        },
        {
          "internalType": "address",
          "name": "validator",
          "type": "address"
        }
      ],
      "name": "unBondLazy",
      "outputs": [
        {
          "internalType": "uint256",
          "name": "",
          "type": "uint256"
        }
      ],
      "payable": false,
      "stateMutability": "nonpayable",
      "type": "function"
    },
    {
      "constant": false,
      "inputs": [
        {
          "internalType": "uint256[]",
          "name": "_delegators",
          "type": "uint256[]"
        },
        {
          "internalType": "uint256",
          "name": "epoch",
          "type": "uint256"
        },
        {
          "internalType": "address",
          "name": "validator",
          "type": "address"
        }
      ],
      "name": "revertLazyUnBond",
      "outputs": [
        {
          "internalType": "uint256",
          "name": "",
          "type": "uint256"
        }
      ],
      "payable": false,
      "stateMutability": "nonpayable",
      "type": "function"
    },
    {
      "constant": false,
      "inputs": [
        {
          "internalType": "uint256",
          "name": "delegatorId",
          "type": "uint256"
        },
        {
          "internalType": "uint256",
          "name": "amount",
          "type": "uint256"
        },
        {
          "internalType": "bool",
          "name": "stakeRewards",
          "type": "bool"
        }
      ],
      "name": "reStake",
      "outputs": [],
      "payable": false,
      "stateMutability": "nonpayable",
      "type": "function"
    },
    {
      "constant": false,
      "inputs": [
        {
          "internalType": "uint256",
          "name": "amount",
          "type": "uint256"
        }
      ],
      "name": "stake",
      "outputs": [],
      "payable": false,
      "stateMutability": "nonpayable",
      "type": "function"
    },
    {
      "constant": false,
      "inputs": [
        {
          "internalType": "address",
          "name": "user",
          "type": "address"
        },
        {
          "internalType": "uint256",
          "name": "amount",
          "type": "uint256"
        }
      ],
      "name": "stakeFor",
      "outputs": [],
      "payable": false,
      "stateMutability": "nonpayable",
      "type": "function"
    },
    {
      "constant": false,
      "inputs": [
        {
          "internalType": "uint256",
          "name": "delegatorId",
          "type": "uint256"
        },
        {
          "internalType": "uint256",
          "name": "index",
          "type": "uint256"
        }
      ],
      "name": "unstake",
      "outputs": [],
      "payable": false,
      "stateMutability": "nonpayable",
      "type": "function"
    },
    {
      "constant": false,
      "inputs": [
        {
          "internalType": "uint256",
          "name": "delegatorId",
          "type": "uint256"
        }
      ],
      "name": "unstakeClaim",
      "outputs": [],
      "payable": false,
      "stateMutability": "nonpayable",
      "type": "function"
    },
    {
      "constant": false,
      "inputs": [
        {
          "internalType": "uint256[]",
          "name": "_delegators",
          "type": "uint256[]"
        },
        {
          "internalType": "uint256",
          "name": "slashRate",
          "type": "uint256"
        }
      ],
      "name": "slash",
      "outputs": [],
      "payable": false,
      "stateMutability": "nonpayable",
      "type": "function"
    }
  ],
  "bytecode": "0x60806040526001600f556000601055600260125560006013553480156200002557600080fd5b506040516200353c3803806200353c833981810160405260208110156200004b57600080fd5b5051604080518082018252600f81527f4d617469632044656c656761746f7200000000000000000000000000000000006020828101919091528251808401909352600283527f4d4400000000000000000000000000000000000000000000000000000000000090830152908181620000ec7f01ffc9a7000000000000000000000000000000000000000000000000000000006001600160e01b036200022a16565b620001207f80ac58cd000000000000000000000000000000000000000000000000000000006001600160e01b036200022a16565b620001547f780e9d63000000000000000000000000000000000000000000000000000000006001600160e01b036200022a16565b81516200016990600990602085019062000297565b5080516200017f90600a90602084019062000297565b50620001b47f5b5e139f000000000000000000000000000000000000000000000000000000006001600160e01b036200022a16565b5050600c80546001600160a01b0319163317908190556040516001600160a01b03919091169250600091507f8be0079c531659141344cd1fd0a4f28419497f9722a3daafe3b4186f6b6457e0908290a3600e80546001600160a01b0319166001600160a01b03929092169190911790556200033c565b7fffffffff0000000000000000000000000000000000000000000000000000000080821614156200025a57600080fd5b7fffffffff00000000000000000000000000000000000000000000000000000000166000908152602081905260409020805460ff19166001179055565b828054600181600116156101000203166002900490600052602060002090601f016020900481019282601f10620002da57805160ff19168380011785556200030a565b828001600101855582156200030a579182015b828111156200030a578251825591602001919060010190620002ed565b50620003189291506200031c565b5090565b6200033991905b8082111562000318576000815560010162000323565b90565b6131f0806200034c6000396000f3fe608060405234801561001057600080fd5b50600436106102695760003560e01c8063715018a611610151578063a69df4b5116100c3578063cf30901211610087578063cf3090121461097c578063d86d53e714610984578063e985e9c5146109a1578063f2fde38b146109cf578063f83d08ba146109f5578063fc0c546a146109fd57610269565b8063a69df4b514610741578063b0cd600114610749578063b88d4fde146107f8578063c87b56dd146108bc578063ce5d67d9146108d957610269565b80638f32d59b116101155780638f32d59b146106a057806395d89b41146106a85780639ad3b5d5146106b05780639e2c8a5b146106d3578063a22cb465146106f6578063a694fc3a1461072457610269565b8063715018a6146106785780637b10399914610680578063817b1cd2146106885780638c9c856e146106905780638da5cb5b1461069857610269565b806323b872dd116101ea5780634f6ccce7116101ae5780634f6ccce71461050c5780635508d8e1146105295780635be612c7146105315780636352211e146105865780636a2aebd7146105a357806370a082311461065257610269565b806323b872dd1461044057806326c0817e146104765780632ee409081461047e5780632f745c59146104aa57806342842e0e146104d657610269565b80630b350d03116102315780630b350d03146103aa5780630ba74b2f146103d55780630ebb172a146103f8578063144fa6d71461041257806318160ddd1461043857610269565b806301ffc9a71461026e57806306fdde03146102a9578063081812fc14610326578063095ea7b31461035f5780630962ef791461038d575b600080fd5b6102956004803603602081101561028457600080fd5b50356001600160e01b031916610a05565b604080519115158252519081900360200190f35b6102b1610a24565b6040805160208082528351818301528351919283929083019185019080838360005b838110156102eb5781810151838201526020016102d3565b50505050905090810190601f1680156103185780820380516001836020036101000a031916815260200191505b509250505060405180910390f35b6103436004803603602081101561033c57600080fd5b5035610abb565b604080516001600160a01b039092168252519081900360200190f35b61038b6004803603604081101561037557600080fd5b506001600160a01b038135169060200135610aeb565b005b61038b600480360360208110156103a357600080fd5b5035610b98565b61038b600480360360608110156103c057600080fd5b50803590602081013590604001351515610cc1565b61038b600480360360408110156103eb57600080fd5b5080359060200135610e60565b61040061128e565b60408051918252519081900360200190f35b61038b6004803603602081101561042857600080fd5b50356001600160a01b0316611294565b6104006112c7565b61038b6004803603606081101561045657600080fd5b506001600160a01b038135811691602081013590911690604001356112cd565b6104006112f0565b61038b6004803603604081101561049457600080fd5b506001600160a01b0381351690602001356112f6565b610400600480360360408110156104c057600080fd5b506001600160a01b03813516906020013561161c565b61038b600480360360608110156104ec57600080fd5b506001600160a01b0381358116916020810135909116906040013561166a565b6104006004803603602081101561052257600080fd5b5035611685565b6104006116b9565b61054e6004803603602081101561054757600080fd5b50356116bf565b604080519788526020880196909652868601949094526060860192909252608085015260a084015260c0830152519081900360e00190f35b6103436004803603602081101561059c57600080fd5b50356116fc565b610400600480360360608110156105b957600080fd5b810190602081018135600160201b8111156105d357600080fd5b8201836020820111156105e557600080fd5b803590602001918460208302840111600160201b8311171561060657600080fd5b91908080602002602001604051908101604052809392919081815260200183836020028082843760009201919091525092955050823593505050602001356001600160a01b031661171e565b6104006004803603602081101561066857600080fd5b50356001600160a01b03166118ba565b61038b6118f0565b61034361194b565b61040061195a565b610400611960565b610343611966565b610295611975565b6102b1611986565b61038b600480360360408110156106c657600080fd5b50803590602001356119e7565b61038b600480360360408110156106e957600080fd5b5080359060200135611cfa565b61038b6004803603604081101561070c57600080fd5b506001600160a01b0381351690602001351515611e4e565b61038b6004803603602081101561073a57600080fd5b5035611ed2565b61038b611edf565b6104006004803603606081101561075f57600080fd5b810190602081018135600160201b81111561077957600080fd5b82018360208201111561078b57600080fd5b803590602001918460208302840111600160201b831117156107ac57600080fd5b91908080602002602001604051908101604052809392919081815260200183836020028082843760009201919091525092955050823593505050602001356001600160a01b0316611eff565b61038b6004803603608081101561080e57600080fd5b6001600160a01b03823581169260208101359091169160408201359190810190608081016060820135600160201b81111561084857600080fd5b82018360208201111561085a57600080fd5b803590602001918460018302840111600160201b8311171561087b57600080fd5b91908080601f0160208091040260200160405190810160405280939291908181526020018383808284376000920191909152509295506120a8945050505050565b6102b1600480360360208110156108d257600080fd5b50356120ce565b61038b600480360360408110156108ef57600080fd5b810190602081018135600160201b81111561090957600080fd5b82018360208201111561091b57600080fd5b803590602001918460208302840111600160201b8311171561093c57600080fd5b9190808060200260200160405190810160405280939291908181526020018383602002808284376000920191909152509295505091359250612181915050565b610295612336565b61038b6004803603602081101561099a57600080fd5b5035612346565b610295600480360360408110156109b757600080fd5b506001600160a01b0381358116916020013516612637565b61038b600480360360208110156109e557600080fd5b50356001600160a01b0316612665565b61038b61267f565b6103436126a5565b6001600160e01b03191660009081526020819052604090205460ff1690565b60098054604080516020601f6002600019610100600188161502019095169490940493840181900481028201810190925282815260609390929091830182828015610ab05780601f10610a8557610100808354040283529160200191610ab0565b820191906000526020600020905b815481529060010190602001808311610a9357829003601f168201915b505050505090505b90565b6000610ac6826126b4565b610acf57600080fd5b506000908152600260205260409020546001600160a01b031690565b6000610af6826116fc565b9050806001600160a01b0316836001600160a01b03161415610b1757600080fd5b336001600160a01b0382161480610b335750610b338133612637565b610b3c57600080fd5b60008281526002602052604080822080546001600160a01b0319166001600160a01b0387811691821790925591518593918516917f8c5be1e5ebec7d5bd14f71427d1e84f3dd0314c0f7b2291e5b200ac8c7c3b92591a4505050565b8033610ba3826116fc565b6001600160a01b031614610bb657600080fd5b610bbf826126d1565b600082815260146020908152604080832060050154600e548251630a1ef8f960e21b815292519194936001600160a01b039091169263287be3e49260048083019392829003018186803b158015610c1557600080fd5b505afa158015610c29573d6000803e3d6000fd5b505050506040513d6020811015610c3f57600080fd5b50516000858152601460205260408082206005018290558051637eb80a7360e01b81526004810186905233602482015290519293506001600160a01b03841692637eb80a739260448084019391929182900301818387803b158015610ca357600080fd5b505af1158015610cb7573d6000803e3d6000fd5b5050505050505050565b8233610ccc826116fc565b6001600160a01b031614610cdf57600080fd5b60008481526014602052604090206006015415610cff57610cff846126d1565b8215610dcd57600d54604080516323b872dd60e01b81523360048201523060248201526044810186905290516001600160a01b03909216916323b872dd916064808201926020929091908290030181600087803b158015610d5f57600080fd5b505af1158015610d73573d6000803e3d6000fd5b505050506040513d6020811015610d8957600080fd5b5051610dcd576040805162461bcd60e51b815260206004820152600e60248201526d5472616e73666572207374616b6560901b604482015290519081900360640190fd5b8115610def576000848152601460205260408120600501805491905592909201915b601154610e02908463ffffffff61292916565b6011908155600085815260146020908152604091829020600401805487019055915481519081529051859287927f9cc0e589f20d3310eb2ad571b23529003bd46048d0d1af29277dcf0aa3c398ce929081900390910190a350505050565b8133610e6b826116fc565b6001600160a01b031614610e7e57600080fd5b600e5460408051630a1ef8f960e21b815290516000926001600160a01b03169163287be3e4916004808301926020929190829003018186803b158015610ec357600080fd5b505afa158015610ed7573d6000803e3d6000fd5b505050506040513d6020811015610eed57600080fd5b505160408051630ecce30160e31b815290519192506000916001600160a01b038416916376671808916004808301926020929190829003018186803b158015610f3557600080fd5b505afa158015610f49573d6000803e3d6000fd5b505050506040513d6020811015610f5f57600080fd5b505160008681526014602052604090206003810154919250901580610f9c575081610f99601254836003015461292990919063ffffffff16565b11155b610fed576040805162461bcd60e51b815260206004820152601860248201527f44656c65676174696f6e5f4c696d69745f526561636865640000000000000000604482015290519081900360640190fd5b6000836001600160a01b03166335aa2e44876040518263ffffffff1660e01b8152600401808281526020019150506101206040518083038186803b15801561103457600080fd5b505afa158015611048573d6000803e3d6000fd5b505050506040513d61012081101561105f57600080fd5b5060e0015190506001600160a01b0381166110ab5760405162461bcd60e51b815260040180806020018281038252603b815260200180613181603b913960400191505060405180910390fd5b6002820154158015906110c15750828260020154105b156110e2576110cf876126d1565b6000600283018190556001830155611153565b60028201541580156110f657506001820154155b80156111115750600087815260146020526040902060060154155b611153576040805162461bcd60e51b815260206004820152600e60248201526d105b1c9958591e57d09bdb99195960921b604482015290519081900360640190fd5b806001600160a01b03166319480af8888460040154866040518463ffffffff1660e01b8152600401808481526020018381526020018281526020019350505050600060405180830381600087803b1580156111ad57600080fd5b505af11580156111c1573d6000803e3d6000fd5b5050505060018201839055600682018690556004808301546040805163a968882f60e01b8152928301899052602483018690526044830191909152516001600160a01b0386169163a968882f91606480830192600092919082900301818387803b15801561122e57600080fd5b505af1158015611242573d6000803e3d6000fd5b50505050600382018390556040516001600160a01b03821690879089907f21154cfd7fee3d8f9af211016deb6b904aceba0e819cc3e15c4f40b1e955ce6490600090a450505050505050565b60135481565b61129c611975565b6112a557600080fd5b600d80546001600160a01b0319166001600160a01b0392909216919091179055565b60075490565b6112d73382612942565b6112e057600080fd5b6112eb8383836129a1565b505050565b60105481565b600c54600160a01b900460ff161561130d57600080fd5b611316826118ba565b15611361576040805162461bcd60e51b81526020600482015260166024820152754e6f207365636f6e642074696d65207374616b696e6760501b604482015290519081900360640190fd5b60105481101561137057600080fd5b600d54604080516323b872dd60e01b81523360048201523060248201526044810184905290516001600160a01b03909216916323b872dd916064808201926020929091908290030181600087803b1580156113ca57600080fd5b505af11580156113de573d6000803e3d6000fd5b505050506040513d60208110156113f457600080fd5b5051611438576040805162461bcd60e51b815260206004820152600e60248201526d5472616e73666572207374616b6560901b604482015290519081900360640190fd5b600e5460408051630a1ef8f960e21b815290516000926001600160a01b03169163287be3e4916004808301926020929190829003018186803b15801561147d57600080fd5b505afa158015611491573d6000803e3d6000fd5b505050506040513d60208110156114a757600080fd5b50516011549091506114bf908363ffffffff61292916565b6011819055506000816001600160a01b031663766718086040518163ffffffff1660e01b815260040160206040518083038186803b15801561150057600080fd5b505afa158015611514573d6000803e3d6000fd5b505050506040513d602081101561152a57600080fd5b50516040805160e0810182526000808252602082810182815283850183815260608501848152608086018b815260a0870186815260c08801878152600f80548952601490975298909620965187559251600187015590516002860155516003850155516004840155905160058301559151600690910155549091506115b09085906129c0565b80600f54856001600160a01b03167f9cfd25589d1eb8ad71e342a86a8524e83522e3936c0803048c08f6d9ad974f4086601154604051808381526020018281526020019250505060405180910390a4600f5461161390600163ffffffff61292916565b600f5550505050565b6000611627836118ba565b821061163257600080fd5b6001600160a01b038316600090815260056020526040902080548390811061165657fe5b906000526020600020015490505b92915050565b6112eb838383604051806020016040528060008152506120a8565b600061168f6112c7565b821061169a57600080fd5b600782815481106116a757fe5b90600052602060002001549050919050565b600f5481565b6014602052600090815260409020805460018201546002830154600384015460048501546005860154600690960154949593949293919290919087565b6000818152600160205260408120546001600160a01b03168061166457600080fd5b60008360008151811061172d57fe5b60200260200101516000600e60009054906101000a90046001600160a01b03166001600160a01b031663287be3e46040518163ffffffff1660e01b815260040160206040518083038186803b15801561178557600080fd5b505afa158015611799573d6000803e3d6000fd5b505050506040513d60208110156117af57600080fd5b505160008381526014602090815260409182902060060154825163158d0b6360e21b81526004810191909152915192935033926001600160a01b038516926356342d8c926024808301939192829003018186803b15801561180f57600080fd5b505afa158015611823573d6000803e3d6000fd5b505050506040513d602081101561183957600080fd5b50516001600160a01b03161461184e57600080fd5b60008060005b88518110156118ad5788818151811061186957fe5b602090810291909101810151600081815260149092526040909120600281018a9055600401549092506118a390849063ffffffff61292916565b9250600101611854565b5090979650505050505050565b60006001600160a01b0382166118cf57600080fd5b6001600160a01b0382166000908152600360205260409020611664906129e1565b6118f8611975565b61190157600080fd5b600c546040516000916001600160a01b0316907f8be0079c531659141344cd1fd0a4f28419497f9722a3daafe3b4186f6b6457e0908390a3600c80546001600160a01b0319169055565b600e546001600160a01b031681565b60115481565b60125481565b600c546001600160a01b031690565b600c546001600160a01b0316331490565b600a8054604080516020601f6002600019610100600188161502019095169490940493840181900481028201810190925282815260609390929091830182828015610ab05780601f10610a8557610100808354040283529160200191610ab0565b81336119f2826116fc565b6001600160a01b031614611a0557600080fd5b600080600e60009054906101000a90046001600160a01b03166001600160a01b031663287be3e46040518163ffffffff1660e01b815260040160206040518083038186803b158015611a5657600080fd5b505afa158015611a6a573d6000803e3d6000fd5b505050506040513d6020811015611a8057600080fd5b50519050611a8d856126d1565b6000816001600160a01b031663766718086040518163ffffffff1660e01b815260040160206040518083038186803b158015611ac857600080fd5b505afa158015611adc573d6000803e3d6000fd5b505050506040513d6020811015611af257600080fd5b505160008781526014602052604090819020600601548151630d6a8b9160e21b8152600481019190915290519192506001600160a01b038416916335aa2e449160248082019261012092909190829003018186803b158015611b5357600080fd5b505afa158015611b67573d6000803e3d6000fd5b505050506040513d610120811015611b7e57600080fd5b5060e00151600087815260146020526040808220600490810154825163cfe0a45360e01b81529182018b9052602482018a905260448201526064810185905290519295506001600160a01b0386169263cfe0a4539260848084019391929182900301818387803b158015611bf157600080fd5b505af1158015611c05573d6000803e3d6000fd5b5050506000878152601460205260408082206006810154600491820154835163a968882f60e01b815292830191909152602482018690528303604482015290516001600160a01b038616935063a968882f9260648084019391929182900301818387803b158015611c7557600080fd5b505af1158015611c89573d6000803e3d6000fd5b50505060008781526014602052604080822060060154905190925088917f2325edda12819f74fa130d3724468d4e2fb928318dfb2d139cf7d183262380ca91a36000958652601460205260408620600381019190915560028101869055600181018690556006019490945550505050565b8133611d05826116fc565b6001600160a01b031614611d1857600080fd5b60008381526014602052604090206006015415611d3957611d3983836119e7565b60008381526014602052604090205415611d5257600080fd5b600e5460408051630a1ef8f960e21b815290516000926001600160a01b03169163287be3e4916004808301926020929190829003018186803b158015611d9757600080fd5b505afa158015611dab573d6000803e3d6000fd5b505050506040513d6020811015611dc157600080fd5b505160408051630ecce30160e31b815290519192506000916001600160a01b038416916376671808916004808301926020929190829003018186803b158015611e0957600080fd5b505afa158015611e1d573d6000803e3d6000fd5b505050506040513d6020811015611e3357600080fd5b50516000958652601460205260409095209490945550505050565b6001600160a01b038216331415611e6457600080fd5b3360008181526004602090815260408083206001600160a01b03871680855290835292819020805460ff1916861515908117909155815190815290519293927f17307eab39ab6107e8899845ad3d59bd9653f200f220920489ca2b5937696c31929181900390910190a35050565b611edc33826112f6565b50565b611ee7611975565b611ef057600080fd5b600c805460ff60a01b19169055565b600083600081518110611f0e57fe5b60200260200101516000600e60009054906101000a90046001600160a01b03166001600160a01b031663287be3e46040518163ffffffff1660e01b815260040160206040518083038186803b158015611f6657600080fd5b505afa158015611f7a573d6000803e3d6000fd5b505050506040513d6020811015611f9057600080fd5b505160008381526014602090815260409182902060060154825163158d0b6360e21b81526004810191909152915192935033926001600160a01b038516926356342d8c926024808301939192829003018186803b158015611ff057600080fd5b505afa158015612004573d6000803e3d6000fd5b505050506040513d602081101561201a57600080fd5b50516001600160a01b03161461202f57600080fd5b60008060005b88518110156118ad5788818151811061204a57fe5b6020026020010151915087601460008481526020019081526020016000206002015414156120a057600082815260146020526040812060028101919091556004015461209d90849063ffffffff61292916565b92505b600101612035565b6120b38484846112cd565b6120bf848484846129e5565b6120c857600080fd5b50505050565b60606120d9826126b4565b6120e257600080fd5b6000828152600b602090815260409182902080548351601f6002600019610100600186161502019093169290920491820184900484028101840190945280845290918301828280156121755780601f1061214a57610100808354040283529160200191612175565b820191906000526020600020905b81548152906001019060200180831161215857829003601f168201915b50505050509050919050565b8160008151811061218e57fe5b60200260200101516000600e60009054906101000a90046001600160a01b03166001600160a01b031663287be3e46040518163ffffffff1660e01b815260040160206040518083038186803b1580156121e657600080fd5b505afa1580156121fa573d6000803e3d6000fd5b505050506040513d602081101561221057600080fd5b505160008381526014602090815260409182902060060154825163158d0b6360e21b81526004810191909152915192935033926001600160a01b038516926356342d8c926024808301939192829003018186803b15801561227057600080fd5b505afa158015612284573d6000803e3d6000fd5b505050506040513d602081101561229a57600080fd5b50516001600160a01b0316146122af57600080fd5b60005b845181101561232f576000601460008784815181106122cd57fe5b6020026020010151815260200190815260200160002090506123216123106064612304888560040154612b1890919063ffffffff16565b9063ffffffff612b3f16565b60048301549063ffffffff612b6116565b6004909101556001016122b2565b5050505050565b600c54600160a01b900460ff1681565b8033612351826116fc565b6001600160a01b03161461236457600080fd5b600e5460408051630a1ef8f960e21b815290516000926001600160a01b03169163287be3e4916004808301926020929190829003018186803b1580156123a957600080fd5b505afa1580156123bd573d6000803e3d6000fd5b505050506040513d60208110156123d357600080fd5b5051600084815260146020526040902054909150158015906124e45750806001600160a01b031663766718086040518163ffffffff1660e01b815260040160206040518083038186803b15801561242957600080fd5b505afa15801561243d573d6000803e3d6000fd5b505050506040513d602081101561245357600080fd5b50516040805163075d8b9560e11b815290516124e1916001600160a01b03851691630ebb172a91600480820192602092909190829003018186803b15801561249a57600080fd5b505afa1580156124ae573d6000803e3d6000fd5b505050506040513d60208110156124c457600080fd5b50516000868152601460205260409020549063ffffffff61292916565b11155b6124ed57600080fd5b600083815260146020526040902060040154601154612512908263ffffffff612b6116565b60115561251e84612b76565b600d54600085815260146020908152604080832060050154815163a9059cbb60e01b8152336004820152908601602482015290516001600160a01b039094169363a9059cbb93604480840194938390030190829087803b15801561258157600080fd5b505af1158015612595573d6000803e3d6000fd5b505050506040513d60208110156125ab57600080fd5b50516125b657600080fd5b60008481526014602090815260408083208381556001810184905560028101849055600381018490556004810184905560058101849055600601929092556011548251848152918201528151869233927f204fccf0d92ed8d48f204adb39b2e81e92bad0dedb93f5716ca9478cfb57de00929081900390910190a350505050565b6001600160a01b03918216600090815260046020908152604080832093909416825291909152205460ff1690565b61266d611975565b61267657600080fd5b611edc81612b88565b612687611975565b61269057600080fd5b600c805460ff60a01b1916600160a01b179055565b600d546001600160a01b031681565b6000908152600160205260409020546001600160a01b0316151590565b600080600e60009054906101000a90046001600160a01b03166001600160a01b031663287be3e46040518163ffffffff1660e01b815260040160206040518083038186803b15801561272257600080fd5b505afa158015612736573d6000803e3d6000fd5b505050506040513d602081101561274c57600080fd5b505160408051630ecce30160e31b815290519192506000916001600160a01b038416916376671808916004808301926020929190829003018186803b15801561279457600080fd5b505afa1580156127a8573d6000803e3d6000fd5b505050506040513d60208110156127be57600080fd5b505160008581526014602052604090819020600601548151630d6a8b9160e21b8152600481019190915290519192506001600160a01b038416916335aa2e449160248082019261012092909190829003018186803b15801561281f57600080fd5b505afa158015612833573d6000803e3d6000fd5b505050506040513d61012081101561284a57600080fd5b5060e0015160008581526014602090815260409182902060048082015460018301546002909301548551636b74912960e01b81529283018b90526024830191909152604482019290925260648101919091526084810185905291519295506001600160a01b03861692636b7491299260a4808201939291829003018186803b1580156128d557600080fd5b505afa1580156128e9573d6000803e3d6000fd5b505050506040513d60208110156128ff57600080fd5b50516000948552601460205260409094206005810180549095019094556001909301929092555050565b60008282018381101561293b57600080fd5b9392505050565b60008061294e836116fc565b9050806001600160a01b0316846001600160a01b031614806129895750836001600160a01b031661297e84610abb565b6001600160a01b0316145b8061299957506129998185612637565b949350505050565b6129ac838383612bf7565b6129b68382612cd7565b6112eb8282612dc5565b6129ca8282612e03565b6129d48282612dc5565b6129dd81612ea4565b5050565b5490565b60006129f9846001600160a01b0316612ee8565b612a0557506001612999565b604051630a85bd0160e11b815233600482018181526001600160a01b03888116602485015260448401879052608060648501908152865160848601528651600095928a169463150b7a029490938c938b938b939260a4019060208501908083838e5b83811015612a7f578181015183820152602001612a67565b50505050905090810190601f168015612aac5780820380516001836020036101000a031916815260200191505b5095505050505050602060405180830381600087803b158015612ace57600080fd5b505af1158015612ae2573d6000803e3d6000fd5b505050506040513d6020811015612af857600080fd5b50516001600160e01b031916630a85bd0160e11b14915050949350505050565b600082612b2757506000611664565b82820282848281612b3457fe5b041461293b57600080fd5b6000808211612b4d57600080fd5b6000828481612b5857fe5b04949350505050565b600082821115612b7057600080fd5b50900390565b611edc612b82826116fc565b82612eee565b6001600160a01b038116612b9b57600080fd5b600c546040516001600160a01b038084169216907f8be0079c531659141344cd1fd0a4f28419497f9722a3daafe3b4186f6b6457e090600090a3600c80546001600160a01b0319166001600160a01b0392909216919091179055565b826001600160a01b0316612c0a826116fc565b6001600160a01b031614612c1d57600080fd5b6001600160a01b038216612c3057600080fd5b612c3981612f36565b6001600160a01b0383166000908152600360205260409020612c5a90612f71565b6001600160a01b0382166000908152600360205260409020612c7b90612f88565b60008181526001602052604080822080546001600160a01b0319166001600160a01b0386811691821790925591518493918716917fddf252ad1be2c89b69c2b068fc378daa952ba7f163c4a11628f55a4df523b3ef91a4505050565b6001600160a01b038216600090815260056020526040812054612d0190600163ffffffff612b6116565b600083815260066020526040902054909150808214612d9c576001600160a01b0384166000908152600560205260408120805484908110612d3e57fe5b906000526020600020015490508060056000876001600160a01b03166001600160a01b031681526020019081526020016000208381548110612d7c57fe5b600091825260208083209091019290925591825260069052604090208190555b6001600160a01b038416600090815260056020526040902080549061232f9060001983016130fe565b6001600160a01b0390911660009081526005602081815260408084208054868652600684529185208290559282526001810183559183529091200155565b6001600160a01b038216612e1657600080fd5b612e1f816126b4565b15612e2957600080fd5b600081815260016020908152604080832080546001600160a01b0319166001600160a01b038716908117909155835260039091529020612e6890612f88565b60405181906001600160a01b038416906000907fddf252ad1be2c89b69c2b068fc378daa952ba7f163c4a11628f55a4df523b3ef908290a45050565b600780546000838152600860205260408120829055600182018355919091527fa66cc928b5edb82af9bd49922954155ab7b0942694bea4ce44661d9a8736c6880155565b3b151590565b612ef88282612f91565b6000818152600b602052604090205460026000196101006001841615020190911604156129dd576000818152600b602052604081206129dd91613122565b6000818152600260205260409020546001600160a01b031615611edc57600090815260026020526040902080546001600160a01b0319169055565b8054612f8490600163ffffffff612b6116565b9055565b80546001019055565b612f9b8282612fbd565b612fa58282612cd7565b6000818152600660205260408120556129dd81613062565b816001600160a01b0316612fd0826116fc565b6001600160a01b031614612fe357600080fd5b612fec81612f36565b6001600160a01b038216600090815260036020526040902061300d90612f71565b60008181526001602052604080822080546001600160a01b0319169055518291906001600160a01b038516907fddf252ad1be2c89b69c2b068fc378daa952ba7f163c4a11628f55a4df523b3ef908390a45050565b60075460009061307990600163ffffffff612b6116565b6000838152600860205260408120546007805493945090928490811061309b57fe5b9060005260206000200154905080600783815481106130b657fe5b600091825260208083209091019290925582815260089091526040902082905560078054906130e99060001983016130fe565b50505060009182525060086020526040812055565b8154818355818111156112eb576000838152602090206112eb918101908301613162565b50805460018160011615610100020316600290046000825580601f106131485750611edc565b601f016020900490600052602060002090810190611edc91905b610ab891905b8082111561317c5760008155600101613168565b509056fe556e6b6e6f776e2076616c696461746f724964206f722076616c696461746f7220646f65736e2774206578706563742064656c65676174696f6e73a265627a7a72315820e3d640a2066155a9063ea4a7d63a66a471e85424b9a5e57014d593599885b66a64736f6c634300050b0032",
  "source": "pragma solidity ^0.5.2;\n\nimport \"openzeppelin-solidity/contracts/token/ERC721/ERC721Full.sol\";\nimport { IERC20 } from \"openzeppelin-solidity/contracts/token/ERC20/IERC20.sol\";\nimport { SafeMath } from \"openzeppelin-solidity/contracts/math/SafeMath.sol\";\n\nimport { StakeManager } from \"./StakeManager.sol\";\nimport { Registry } from \"../common/Registry.sol\";\nimport { IDelegationManager } from \"./IDelegationManager.sol\";\nimport { Lockable } from \"../common/mixin/Lockable.sol\";\nimport { ValidatorContract } from \"./Validator.sol\";\n\n\ncontract DelegationManager is IDelegationManager, ERC721Full, Lockable {\n  using SafeMath for uint256;\n\n  IERC20 public token;\n  Registry public registry;\n  uint256 public NFTCounter = 1;\n  uint256 public MIN_DEPOSIT_SIZE = 0;\n  uint256 public totalStaked;\n  uint256 public validatorHopLimit = 2; // checkpoint/epochs\n  uint256 public WITHDRAWAL_DELAY = 0; // todo: remove if not needed use from stakeManager\n\n  struct Delegator {\n    // unstaking delegator\n    uint256 deactivationEpoch;\n    uint256 delegationStartEpoch;\n    uint256 delegationStopEpoch;\n    // to keep track of validators hops\n    uint256 lastValidatorEpoch;\n    uint256 amount;\n    uint256 reward;\n    uint256 bondedTo; // validatorId\n  }\n\n  // Delegator metadata\n  mapping (uint256 => Delegator) public delegators;\n\n  modifier onlyDelegator(uint256 delegatorId) {\n    require(ownerOf(delegatorId) == msg.sender);\n    _;\n  }\n\n  modifier onlyValidatorContract(uint256 delegatorId) {\n    StakeManager stakeManager = StakeManager(registry.getStakeManagerAddress());\n    require(stakeManager.getValidatorContract(delegators[delegatorId].bondedTo) == msg.sender);\n    _;\n  }\n\n  constructor (Registry _registry) ERC721Full(\"Matic Delegator\", \"MD\") public {\n    registry = _registry;\n  }\n\n  function setToken(IERC20 _token) public onlyOwner {\n    token = _token;\n  }\n\n  function claimRewards(uint256 delegatorId) public onlyDelegator(delegatorId) {\n    _claimRewards(delegatorId);\n    uint256 amount = delegators[delegatorId].reward;\n    StakeManager stakeManager = StakeManager(registry.getStakeManagerAddress());\n    delegators[delegatorId].reward = 0;\n    stakeManager.delegationTransfer(amount, msg.sender);\n  }\n\n  function _claimRewards(uint256 delegatorId) internal {\n    address validator;\n    StakeManager stakeManager = StakeManager(registry.getStakeManagerAddress());\n    uint256 currentEpoch = stakeManager.currentEpoch();\n    (,,,,,,,validator,) = stakeManager.validators(delegators[delegatorId].bondedTo);\n    delegators[delegatorId].reward += ValidatorContract(validator).calculateRewards(\n      delegatorId,\n      delegators[delegatorId].amount,\n      delegators[delegatorId].delegationStartEpoch,\n      delegators[delegatorId].delegationStopEpoch,\n      currentEpoch);\n    delegators[delegatorId].delegationStartEpoch = currentEpoch;\n  }\n\n  function bond(uint256 delegatorId, uint256 validatorId) public onlyDelegator(delegatorId) {\n    StakeManager stakeManager = StakeManager(registry.getStakeManagerAddress());\n    uint256 currentEpoch = stakeManager.currentEpoch(); //TODO add 1\n    Delegator storage delegator = delegators[delegatorId];\n\n    require(delegator.lastValidatorEpoch == 0 || delegator.lastValidatorEpoch.add(validatorHopLimit) <= currentEpoch, \"Delegation_Limit_Reached\");\n\n    address validator;\n    (,,,,,,,validator,) = stakeManager.validators(validatorId);\n    require(validator != address(0x0), \"Unknown validatorId or validator doesn't expect delegations\");\n\n    // for lazy unbonding\n    if (delegator.delegationStopEpoch != 0 && delegator.delegationStopEpoch < currentEpoch ) {\n      _claimRewards(delegatorId);\n      delegator.delegationStopEpoch = 0;\n      delegator.delegationStartEpoch = 0;\n    } else {\n      require((delegator.delegationStopEpoch == 0 && // TODO: handle !0\n        delegator.delegationStartEpoch == 0) &&\n        delegators[delegatorId].bondedTo == 0,\n        \"Already_Bonded\");\n    }\n\n    ValidatorContract(validator).bond(delegatorId, delegator.amount, currentEpoch);\n    delegator.delegationStartEpoch = currentEpoch;\n    delegator.bondedTo = validatorId;\n    stakeManager.updateValidatorState(validatorId, currentEpoch, int(delegator.amount));\n    delegator.lastValidatorEpoch = currentEpoch;\n    emit Bonding(delegatorId, validatorId, validator);\n  }\n\n  function unBond(uint256 delegatorId, uint256 index) public onlyDelegator(delegatorId) {\n    address validator;\n    StakeManager stakeManager = StakeManager(registry.getStakeManagerAddress());\n    _claimRewards(delegatorId);\n    uint256 currentEpoch = stakeManager.currentEpoch();\n    (,,,,,,,validator,) = stakeManager.validators(delegators[delegatorId].bondedTo);\n    ValidatorContract(validator).unBond(delegatorId, index, delegators[delegatorId].amount, currentEpoch);\n    stakeManager.updateValidatorState(delegators[delegatorId].bondedTo, currentEpoch, -int(delegators[delegatorId].amount));\n    emit UnBonding(delegatorId, delegators[delegatorId].bondedTo);\n    delegators[delegatorId].lastValidatorEpoch = currentEpoch;\n    delegators[delegatorId].delegationStopEpoch = 0;\n    delegators[delegatorId].delegationStartEpoch = 0;\n    delegators[delegatorId].bondedTo = 0;\n  }\n\n  function unBondLazy(uint256[] memory _delegators, uint256 epoch, address validator) public onlyValidatorContract(_delegators[0]) returns(uint256) {\n    uint256 amount;\n    uint256 delegatorId;\n    for (uint256 i; i < _delegators.length; i++) {\n      delegatorId = _delegators[i];\n      delegators[delegatorId].delegationStopEpoch = epoch;\n      amount = amount.add(delegators[delegatorId].amount);\n    }\n    return amount;\n  }\n\n  function revertLazyUnBond(uint256[] memory _delegators, uint256 epoch, address validator) public onlyValidatorContract(_delegators[0]) returns(uint256) {\n    uint256 amount;\n    uint256 delegatorId;\n    for (uint256 i; i < _delegators.length; i++) {\n      delegatorId = _delegators[i];\n        if (delegators[delegatorId].delegationStopEpoch == epoch) {\n          delegators[delegatorId].delegationStopEpoch = 0;\n          amount = amount.add(delegators[delegatorId].amount);\n       }\n    }\n    return amount;\n  }\n\n  function reStake(uint256 delegatorId, uint256 amount, bool stakeRewards) public onlyDelegator(delegatorId) {\n    if (delegators[delegatorId].bondedTo != 0) {\n      // Todo before getting rewards update validator state\n      _claimRewards(delegatorId);\n    }\n    if (amount > 0) {\n      require(token.transferFrom(msg.sender, address(this), amount), \"Transfer stake\");\n    }\n    if (stakeRewards) {\n      amount += delegators[delegatorId].reward;\n      delegators[delegatorId].reward = 0;\n    }\n    totalStaked = totalStaked.add(amount);\n\n    delegators[delegatorId].amount += amount;\n    emit ReStaked(delegatorId, amount, totalStaked);\n  }\n\n  function stake(uint256 amount) public {\n    stakeFor(msg.sender, amount);\n  }\n\n  function stakeFor(address user, uint256 amount) public onlyWhenUnlocked {\n    require(balanceOf(user) == 0, \"No second time staking\");\n    require(amount >= MIN_DEPOSIT_SIZE);\n    require(token.transferFrom(msg.sender, address(this), amount), \"Transfer stake\");\n    StakeManager stakeManager = StakeManager(registry.getStakeManagerAddress());\n\n    totalStaked = totalStaked.add(amount);\n    uint256 currentEpoch = stakeManager.currentEpoch();\n\n    delegators[NFTCounter] = Delegator({\n      deactivationEpoch: 0,\n      delegationStartEpoch: 0,\n      delegationStopEpoch: 0,\n      lastValidatorEpoch: 0,\n      amount: amount,\n      reward: 0,\n      bondedTo: 0\n      });\n\n    _mint(user, NFTCounter);\n    emit Staked(user, NFTCounter, currentEpoch, amount, totalStaked);\n    NFTCounter = NFTCounter.add(1);\n  }\n\n  function unstake(uint256 delegatorId, uint256 index) public onlyDelegator(delegatorId) {\n    if (delegators[delegatorId].bondedTo != 0) {\n      unBond(delegatorId, index);\n    }\n    require(delegators[delegatorId].deactivationEpoch == 0);\n    StakeManager stakeManager = StakeManager(registry.getStakeManagerAddress());\n    uint256 currentEpoch = stakeManager.currentEpoch();\n    delegators[delegatorId].deactivationEpoch = currentEpoch;\n  }\n\n  // after unstaking wait for WITHDRAWAL_DELAY, in order to claim stake back\n  function unstakeClaim(uint256 delegatorId) public onlyDelegator(delegatorId) {\n    StakeManager stakeManager = StakeManager(registry.getStakeManagerAddress());\n    // WITHDRAWAL_DELAY should match with validator's WITHDRAWAL_DELAY for perfect slashing\n    require(delegators[delegatorId].deactivationEpoch > 0 && delegators[delegatorId].deactivationEpoch.add(stakeManager.WITHDRAWAL_DELAY()) <= stakeManager.currentEpoch());\n    uint256 amount = delegators[delegatorId].amount;\n    totalStaked = totalStaked.sub(amount);\n\n    // TODO :add slashing\n    _burn(delegatorId);\n\n    require(token.transfer(msg.sender, amount + delegators[delegatorId].reward));\n    delete delegators[delegatorId];\n    emit Unstaked(msg.sender, delegatorId, amount, totalStaked);\n  }\n\n  function slash(uint256[] memory _delegators, uint256 slashRate) public onlyValidatorContract(_delegators[0]) {\n      for (uint256 i; i < _delegators.length; i++) {\n        Delegator storage delegator = delegators[_delegators[i]];\n        delegator.amount = delegator.amount.sub(delegator.amount.mul(slashRate).div(100));\n      }\n  }\n\n}\n",
  "sourcePath": "/Users/atvanguard/matic/contracts/contracts/staking/DelegationManager.sol",
  "compiler": {
    "name": "solc",
    "version": "0.5.11+commit.c082d0b4.Emscripten.clang"
  },
  "schemaVersion": "3.0.14",
  "updatedAt": "2019-12-17T06:31:18.137Z",
  "devdoc": {
    "methods": {
      "approve(address,uint256)": {
        "details": "Approves another address to transfer the given token ID The zero address indicates there is no approved address. There can only be one approved address per token at a given time. Can only be called by the token owner or an approved operator.",
        "params": {
          "to": "address to be approved for the given token ID",
          "tokenId": "uint256 ID of the token to be approved"
        }
      },
      "balanceOf(address)": {
        "details": "Gets the balance of the specified address",
        "params": {
          "owner": "address to query the balance of"
        },
        "return": "uint256 representing the amount owned by the passed address"
      },
      "getApproved(uint256)": {
        "details": "Gets the approved address for a token ID, or zero if no address set Reverts if the token ID does not exist.",
        "params": {
          "tokenId": "uint256 ID of the token to query the approval of"
        },
        "return": "address currently approved for the given token ID"
      },
      "isApprovedForAll(address,address)": {
        "details": "Tells whether an operator is approved by a given owner",
        "params": {
          "operator": "operator address which you want to query the approval of",
          "owner": "owner address which you want to query the approval of"
        },
        "return": "bool whether the given operator is approved by the given owner"
      },
      "isOwner()": {
        "return": "true if `msg.sender` is the owner of the contract."
      },
      "name()": {
        "details": "Gets the token name",
        "return": "string representing the token name"
      },
      "owner()": {
        "return": "the address of the owner."
      },
      "ownerOf(uint256)": {
        "details": "Gets the owner of the specified token ID",
        "params": {
          "tokenId": "uint256 ID of the token to query the owner of"
        },
        "return": "address currently marked as the owner of the given token ID"
      },
      "renounceOwnership()": {
        "details": "Allows the current owner to relinquish control of the contract. It will not be possible to call the functions with the `onlyOwner` modifier anymore."
      },
      "safeTransferFrom(address,address,uint256)": {
        "details": "Safely transfers the ownership of a given token ID to another address If the target address is a contract, it must implement `onERC721Received`, which is called upon a safe transfer, and return the magic value `bytes4(keccak256(\"onERC721Received(address,address,uint256,bytes)\"))`; otherwise, the transfer is reverted. Requires the msg.sender to be the owner, approved, or operator",
        "params": {
          "from": "current owner of the token",
          "to": "address to receive the ownership of the given token ID",
          "tokenId": "uint256 ID of the token to be transferred"
        }
      },
      "safeTransferFrom(address,address,uint256,bytes)": {
        "details": "Safely transfers the ownership of a given token ID to another address If the target address is a contract, it must implement `onERC721Received`, which is called upon a safe transfer, and return the magic value `bytes4(keccak256(\"onERC721Received(address,address,uint256,bytes)\"))`; otherwise, the transfer is reverted. Requires the msg.sender to be the owner, approved, or operator",
        "params": {
          "_data": "bytes data to send along with a safe transfer check",
          "from": "current owner of the token",
          "to": "address to receive the ownership of the given token ID",
          "tokenId": "uint256 ID of the token to be transferred"
        }
      },
      "setApprovalForAll(address,bool)": {
        "details": "Sets or unsets the approval of a given operator An operator is allowed to transfer all tokens of the sender on their behalf",
        "params": {
          "approved": "representing the status of the approval to be set",
          "to": "operator address to set the approval"
        }
      },
      "supportsInterface(bytes4)": {
        "details": "implement supportsInterface(bytes4) using a lookup table"
      },
      "symbol()": {
        "details": "Gets the token symbol",
        "return": "string representing the token symbol"
      },
      "tokenByIndex(uint256)": {
        "details": "Gets the token ID at a given index of all the tokens in this contract Reverts if the index is greater or equal to the total number of tokens",
        "params": {
          "index": "uint256 representing the index to be accessed of the tokens list"
        },
        "return": "uint256 token ID at the given index of the tokens list"
      },
      "tokenOfOwnerByIndex(address,uint256)": {
        "details": "Gets the token ID at a given index of the tokens list of the requested owner",
        "params": {
          "index": "uint256 representing the index to be accessed of the requested tokens list",
          "owner": "address owning the tokens list to be accessed"
        },
        "return": "uint256 token ID at the given index of the tokens list owned by the requested address"
      },
      "tokenURI(uint256)": {
        "details": "Returns an URI for a given token ID Throws if the token ID does not exist. May return an empty string.",
        "params": {
          "tokenId": "uint256 ID of the token to query"
        }
      },
      "totalSupply()": {
        "details": "Gets the total amount of tokens stored by the contract",
        "return": "uint256 representing the total amount of tokens"
      },
      "transferFrom(address,address,uint256)": {
        "details": "Transfers the ownership of a given token ID to another address Usage of this method is discouraged, use `safeTransferFrom` whenever possible Requires the msg.sender to be the owner, approved, or operator",
        "params": {
          "from": "current owner of the token",
          "to": "address to receive the ownership of the given token ID",
          "tokenId": "uint256 ID of the token to be transferred"
        }
      },
      "transferOwnership(address)": {
        "details": "Allows the current owner to transfer control of the contract to a newOwner.",
        "params": {
          "newOwner": "The address to transfer ownership to."
        }
      }
    }
  },
  "userdoc": {
    "methods": {
      "renounceOwnership()": {
        "notice": "Renouncing ownership will leave the contract without an owner, thereby removing any functionality that is only available to the owner."
      }
    }
  }
}