{
  "contractName": "DelegationManager",
  "abi": [
    {
      "constant": true,
      "inputs": [
        {
          "name": "interfaceId",
          "type": "bytes4"
        }
      ],
      "name": "supportsInterface",
      "outputs": [
        {
          "name": "",
          "type": "bool"
        }
      ],
      "payable": false,
      "stateMutability": "view",
      "type": "function"
    },
    {
      "constant": true,
      "inputs": [],
      "name": "name",
      "outputs": [
        {
          "name": "",
          "type": "string"
        }
      ],
      "payable": false,
      "stateMutability": "view",
      "type": "function"
    },
    {
      "constant": true,
      "inputs": [
        {
          "name": "tokenId",
          "type": "uint256"
        }
      ],
      "name": "getApproved",
      "outputs": [
        {
          "name": "",
          "type": "address"
        }
      ],
      "payable": false,
      "stateMutability": "view",
      "type": "function"
    },
    {
      "constant": false,
      "inputs": [
        {
          "name": "to",
          "type": "address"
        },
        {
          "name": "tokenId",
          "type": "uint256"
        }
      ],
      "name": "approve",
      "outputs": [],
      "payable": false,
      "stateMutability": "nonpayable",
      "type": "function"
    },
    {
      "constant": true,
      "inputs": [],
      "name": "WITHDRAWAL_DELAY",
      "outputs": [
        {
          "name": "",
          "type": "uint256"
        }
      ],
      "payable": false,
      "stateMutability": "view",
      "type": "function"
    },
    {
      "constant": true,
      "inputs": [],
      "name": "totalSupply",
      "outputs": [
        {
          "name": "",
          "type": "uint256"
        }
      ],
      "payable": false,
      "stateMutability": "view",
      "type": "function"
    },
    {
      "constant": false,
      "inputs": [
        {
          "name": "from",
          "type": "address"
        },
        {
          "name": "to",
          "type": "address"
        },
        {
          "name": "tokenId",
          "type": "uint256"
        }
      ],
      "name": "transferFrom",
      "outputs": [],
      "payable": false,
      "stateMutability": "nonpayable",
      "type": "function"
    },
    {
      "constant": true,
      "inputs": [],
      "name": "MIN_DEPOSIT_SIZE",
      "outputs": [
        {
          "name": "",
          "type": "uint256"
        }
      ],
      "payable": false,
      "stateMutability": "view",
      "type": "function"
    },
    {
      "constant": true,
      "inputs": [
        {
          "name": "owner",
          "type": "address"
        },
        {
          "name": "index",
          "type": "uint256"
        }
      ],
      "name": "tokenOfOwnerByIndex",
      "outputs": [
        {
          "name": "",
          "type": "uint256"
        }
      ],
      "payable": false,
      "stateMutability": "view",
      "type": "function"
    },
    {
      "constant": false,
      "inputs": [
        {
          "name": "from",
          "type": "address"
        },
        {
          "name": "to",
          "type": "address"
        },
        {
          "name": "tokenId",
          "type": "uint256"
        }
      ],
      "name": "safeTransferFrom",
      "outputs": [],
      "payable": false,
      "stateMutability": "nonpayable",
      "type": "function"
    },
    {
      "constant": true,
      "inputs": [
        {
          "name": "index",
          "type": "uint256"
        }
      ],
      "name": "tokenByIndex",
      "outputs": [
        {
          "name": "",
          "type": "uint256"
        }
      ],
      "payable": false,
      "stateMutability": "view",
      "type": "function"
    },
    {
      "constant": true,
      "inputs": [],
      "name": "NFTCounter",
      "outputs": [
        {
          "name": "",
          "type": "uint256"
        }
      ],
      "payable": false,
      "stateMutability": "view",
      "type": "function"
    },
    {
      "constant": true,
      "inputs": [
        {
          "name": "",
          "type": "uint256"
        }
      ],
      "name": "delegators",
      "outputs": [
        {
          "name": "deactivationEpoch",
          "type": "uint256"
        },
        {
          "name": "delegationStartEpoch",
          "type": "uint256"
        },
        {
          "name": "delegationStopEpoch",
          "type": "uint256"
        },
        {
          "name": "lastValidatorEpoch",
          "type": "uint256"
        },
        {
          "name": "amount",
          "type": "uint256"
        },
        {
          "name": "reward",
          "type": "uint256"
        },
        {
          "name": "bondedTo",
          "type": "uint256"
        }
      ],
      "payable": false,
      "stateMutability": "view",
      "type": "function"
    },
    {
      "constant": true,
      "inputs": [
        {
          "name": "tokenId",
          "type": "uint256"
        }
      ],
      "name": "ownerOf",
      "outputs": [
        {
          "name": "",
          "type": "address"
        }
      ],
      "payable": false,
      "stateMutability": "view",
      "type": "function"
    },
    {
      "constant": true,
      "inputs": [
        {
          "name": "owner",
          "type": "address"
        }
      ],
      "name": "balanceOf",
      "outputs": [
        {
          "name": "",
          "type": "uint256"
        }
      ],
      "payable": false,
      "stateMutability": "view",
      "type": "function"
    },
    {
      "constant": false,
      "inputs": [],
      "name": "renounceOwnership",
      "outputs": [],
      "payable": false,
      "stateMutability": "nonpayable",
      "type": "function"
    },
    {
      "constant": true,
      "inputs": [],
      "name": "registry",
      "outputs": [
        {
          "name": "",
          "type": "address"
        }
      ],
      "payable": false,
      "stateMutability": "view",
      "type": "function"
    },
    {
      "constant": true,
      "inputs": [],
      "name": "totalStaked",
      "outputs": [
        {
          "name": "",
          "type": "uint256"
        }
      ],
      "payable": false,
      "stateMutability": "view",
      "type": "function"
    },
    {
      "constant": true,
      "inputs": [],
      "name": "validatorHopLimit",
      "outputs": [
        {
          "name": "",
          "type": "uint256"
        }
      ],
      "payable": false,
      "stateMutability": "view",
      "type": "function"
    },
    {
      "constant": true,
      "inputs": [],
      "name": "owner",
      "outputs": [
        {
          "name": "",
          "type": "address"
        }
      ],
      "payable": false,
      "stateMutability": "view",
      "type": "function"
    },
    {
      "constant": true,
      "inputs": [],
      "name": "isOwner",
      "outputs": [
        {
          "name": "",
          "type": "bool"
        }
      ],
      "payable": false,
      "stateMutability": "view",
      "type": "function"
    },
    {
      "constant": true,
      "inputs": [],
      "name": "symbol",
      "outputs": [
        {
          "name": "",
          "type": "string"
        }
      ],
      "payable": false,
      "stateMutability": "view",
      "type": "function"
    },
    {
      "constant": false,
      "inputs": [
        {
          "name": "to",
          "type": "address"
        },
        {
          "name": "approved",
          "type": "bool"
        }
      ],
      "name": "setApprovalForAll",
      "outputs": [],
      "payable": false,
      "stateMutability": "nonpayable",
      "type": "function"
    },
    {
      "constant": false,
      "inputs": [],
      "name": "unlock",
      "outputs": [],
      "payable": false,
      "stateMutability": "nonpayable",
      "type": "function"
    },
    {
      "constant": false,
      "inputs": [
        {
          "name": "from",
          "type": "address"
        },
        {
          "name": "to",
          "type": "address"
        },
        {
          "name": "tokenId",
          "type": "uint256"
        },
        {
          "name": "_data",
          "type": "bytes"
        }
      ],
      "name": "safeTransferFrom",
      "outputs": [],
      "payable": false,
      "stateMutability": "nonpayable",
      "type": "function"
    },
    {
      "constant": true,
      "inputs": [
        {
          "name": "tokenId",
          "type": "uint256"
        }
      ],
      "name": "tokenURI",
      "outputs": [
        {
          "name": "",
          "type": "string"
        }
      ],
      "payable": false,
      "stateMutability": "view",
      "type": "function"
    },
    {
      "constant": true,
      "inputs": [],
      "name": "locked",
      "outputs": [
        {
          "name": "",
          "type": "bool"
        }
      ],
      "payable": false,
      "stateMutability": "view",
      "type": "function"
    },
    {
      "constant": true,
      "inputs": [
        {
          "name": "owner",
          "type": "address"
        },
        {
          "name": "operator",
          "type": "address"
        }
      ],
      "name": "isApprovedForAll",
      "outputs": [
        {
          "name": "",
          "type": "bool"
        }
      ],
      "payable": false,
      "stateMutability": "view",
      "type": "function"
    },
    {
      "constant": false,
      "inputs": [
        {
          "name": "newOwner",
          "type": "address"
        }
      ],
      "name": "transferOwnership",
      "outputs": [],
      "payable": false,
      "stateMutability": "nonpayable",
      "type": "function"
    },
    {
      "constant": false,
      "inputs": [],
      "name": "lock",
      "outputs": [],
      "payable": false,
      "stateMutability": "nonpayable",
      "type": "function"
    },
    {
      "constant": true,
      "inputs": [],
      "name": "token",
      "outputs": [
        {
          "name": "",
          "type": "address"
        }
      ],
      "payable": false,
      "stateMutability": "view",
      "type": "function"
    },
    {
      "inputs": [
        {
          "name": "_registry",
          "type": "address"
        }
      ],
      "payable": false,
      "stateMutability": "nonpayable",
      "type": "constructor"
    },
    {
      "anonymous": false,
      "inputs": [
        {
          "indexed": true,
          "name": "previousOwner",
          "type": "address"
        },
        {
          "indexed": true,
          "name": "newOwner",
          "type": "address"
        }
      ],
      "name": "OwnershipTransferred",
      "type": "event"
    },
    {
      "anonymous": false,
      "inputs": [
        {
          "indexed": true,
          "name": "from",
          "type": "address"
        },
        {
          "indexed": true,
          "name": "to",
          "type": "address"
        },
        {
          "indexed": true,
          "name": "tokenId",
          "type": "uint256"
        }
      ],
      "name": "Transfer",
      "type": "event"
    },
    {
      "anonymous": false,
      "inputs": [
        {
          "indexed": true,
          "name": "owner",
          "type": "address"
        },
        {
          "indexed": true,
          "name": "approved",
          "type": "address"
        },
        {
          "indexed": true,
          "name": "tokenId",
          "type": "uint256"
        }
      ],
      "name": "Approval",
      "type": "event"
    },
    {
      "anonymous": false,
      "inputs": [
        {
          "indexed": true,
          "name": "owner",
          "type": "address"
        },
        {
          "indexed": true,
          "name": "operator",
          "type": "address"
        },
        {
          "indexed": false,
          "name": "approved",
          "type": "bool"
        }
      ],
      "name": "ApprovalForAll",
      "type": "event"
    },
    {
      "anonymous": false,
      "inputs": [
        {
          "indexed": true,
          "name": "user",
          "type": "address"
        },
        {
          "indexed": true,
          "name": "delegatorId",
          "type": "uint256"
        },
        {
          "indexed": true,
          "name": "activatonEpoch",
          "type": "uint256"
        },
        {
          "indexed": false,
          "name": "amount",
          "type": "uint256"
        },
        {
          "indexed": false,
          "name": "total",
          "type": "uint256"
        }
      ],
      "name": "Staked",
      "type": "event"
    },
    {
      "anonymous": false,
      "inputs": [
        {
          "indexed": true,
          "name": "user",
          "type": "address"
        },
        {
          "indexed": true,
          "name": "delegatorId",
          "type": "uint256"
        },
        {
          "indexed": false,
          "name": "amount",
          "type": "uint256"
        },
        {
          "indexed": false,
          "name": "total",
          "type": "uint256"
        }
      ],
      "name": "Unstaked",
      "type": "event"
    },
    {
      "anonymous": false,
      "inputs": [
        {
          "indexed": true,
          "name": "delegatorId",
          "type": "uint256"
        },
        {
          "indexed": true,
          "name": "validatorId",
          "type": "uint256"
        },
        {
          "indexed": true,
          "name": "validatorContract",
          "type": "address"
        }
      ],
      "name": "Bonding",
      "type": "event"
    },
    {
      "anonymous": false,
      "inputs": [
        {
          "indexed": true,
          "name": "delegatorId",
          "type": "uint256"
        },
        {
          "indexed": true,
          "name": "validatorId",
          "type": "uint256"
        }
      ],
      "name": "UnBonding",
      "type": "event"
    },
    {
      "anonymous": false,
      "inputs": [
        {
          "indexed": true,
          "name": "delegatorId",
          "type": "uint256"
        },
        {
          "indexed": true,
          "name": "amount",
          "type": "uint256"
        },
        {
          "indexed": false,
          "name": "total",
          "type": "uint256"
        }
      ],
      "name": "ReStaked",
      "type": "event"
    },
    {
      "constant": false,
      "inputs": [
        {
          "name": "_token",
          "type": "address"
        }
      ],
      "name": "setToken",
      "outputs": [],
      "payable": false,
      "stateMutability": "nonpayable",
      "type": "function"
    },
    {
      "constant": false,
      "inputs": [
        {
          "name": "delegatorId",
          "type": "uint256"
        }
      ],
      "name": "claimRewards",
      "outputs": [],
      "payable": false,
      "stateMutability": "nonpayable",
      "type": "function"
    },
    {
      "constant": false,
      "inputs": [
        {
          "name": "delegatorId",
          "type": "uint256"
        },
        {
          "name": "validatorId",
          "type": "uint256"
        }
      ],
      "name": "bond",
      "outputs": [],
      "payable": false,
      "stateMutability": "nonpayable",
      "type": "function"
    },
    {
      "constant": false,
      "inputs": [
        {
          "name": "delegatorId",
          "type": "uint256"
        },
        {
          "name": "index",
          "type": "uint256"
        }
      ],
      "name": "unBond",
      "outputs": [],
      "payable": false,
      "stateMutability": "nonpayable",
      "type": "function"
    },
    {
      "constant": false,
      "inputs": [
        {
          "name": "_delegators",
          "type": "uint256[]"
        },
        {
          "name": "epoch",
          "type": "uint256"
        },
        {
          "name": "validator",
          "type": "address"
        }
      ],
      "name": "unBondLazy",
      "outputs": [
        {
          "name": "",
          "type": "uint256"
        }
      ],
      "payable": false,
      "stateMutability": "nonpayable",
      "type": "function"
    },
    {
      "constant": false,
      "inputs": [
        {
          "name": "_delegators",
          "type": "uint256[]"
        },
        {
          "name": "epoch",
          "type": "uint256"
        },
        {
          "name": "validator",
          "type": "address"
        }
      ],
      "name": "revertLazyUnBond",
      "outputs": [
        {
          "name": "",
          "type": "uint256"
        }
      ],
      "payable": false,
      "stateMutability": "nonpayable",
      "type": "function"
    },
    {
      "constant": false,
      "inputs": [
        {
          "name": "delegatorId",
          "type": "uint256"
        },
        {
          "name": "amount",
          "type": "uint256"
        },
        {
          "name": "stakeRewards",
          "type": "bool"
        }
      ],
      "name": "reStake",
      "outputs": [],
      "payable": false,
      "stateMutability": "nonpayable",
      "type": "function"
    },
    {
      "constant": false,
      "inputs": [
        {
          "name": "amount",
          "type": "uint256"
        }
      ],
      "name": "stake",
      "outputs": [],
      "payable": false,
      "stateMutability": "nonpayable",
      "type": "function"
    },
    {
      "constant": false,
      "inputs": [
        {
          "name": "user",
          "type": "address"
        },
        {
          "name": "amount",
          "type": "uint256"
        }
      ],
      "name": "stakeFor",
      "outputs": [],
      "payable": false,
      "stateMutability": "nonpayable",
      "type": "function"
    },
    {
      "constant": false,
      "inputs": [
        {
          "name": "delegatorId",
          "type": "uint256"
        },
        {
          "name": "index",
          "type": "uint256"
        }
      ],
      "name": "unstake",
      "outputs": [],
      "payable": false,
      "stateMutability": "nonpayable",
      "type": "function"
    },
    {
      "constant": false,
      "inputs": [
        {
          "name": "delegatorId",
          "type": "uint256"
        }
      ],
      "name": "unstakeClaim",
      "outputs": [],
      "payable": false,
      "stateMutability": "nonpayable",
      "type": "function"
    },
    {
      "constant": false,
      "inputs": [
        {
          "name": "_delegators",
          "type": "uint256[]"
        },
        {
          "name": "slashRate",
          "type": "uint256"
        }
      ],
      "name": "slash",
      "outputs": [],
      "payable": false,
      "stateMutability": "nonpayable",
      "type": "function"
    }
  ],
  "bytecode": "0x60806040526001600f556000601055600260125560006013553480156200002557600080fd5b50604051602080620034f3833981018060405260208110156200004757600080fd5b5051604080518082018252600f81527f4d617469632044656c656761746f7200000000000000000000000000000000006020828101919091528251808401909352600283527f4d440000000000000000000000000000000000000000000000000000000000008382015290919082908290620000e9907f01ffc9a70000000000000000000000000000000000000000000000000000000090620001d3811b901c565b620001016380ac58cd60e01b620001d360201b60201c565b6200011963780e9d6360e01b620001d360201b60201c565b81516200012e90600990602085019062000240565b5080516200014490600a90602084019062000240565b506200015d635b5e139f60e01b620001d360201b60201c565b5050600c80546001600160a01b0319163317908190556040516001600160a01b03919091169250600091507f8be0079c531659141344cd1fd0a4f28419497f9722a3daafe3b4186f6b6457e0908290a3600e80546001600160a01b0319166001600160a01b0392909216919091179055620002e5565b7fffffffff0000000000000000000000000000000000000000000000000000000080821614156200020357600080fd5b7fffffffff00000000000000000000000000000000000000000000000000000000166000908152602081905260409020805460ff19166001179055565b828054600181600116156101000203166002900490600052602060002090601f016020900481019282601f106200028357805160ff1916838001178555620002b3565b82800160010185558215620002b3579182015b82811115620002b357825182559160200191906001019062000296565b50620002c1929150620002c5565b5090565b620002e291905b80821115620002c15760008155600101620002cc565b90565b6131fe80620002f56000396000f3fe608060405234801561001057600080fd5b50600436106102695760003560e01c8063715018a611610151578063a69df4b5116100c3578063cf30901211610087578063cf3090121461097c578063d86d53e714610984578063e985e9c5146109a1578063f2fde38b146109cf578063f83d08ba146109f5578063fc0c546a146109fd57610269565b8063a69df4b514610741578063b0cd600114610749578063b88d4fde146107f8578063c87b56dd146108bc578063ce5d67d9146108d957610269565b80638f32d59b116101155780638f32d59b146106a057806395d89b41146106a85780639ad3b5d5146106b05780639e2c8a5b146106d3578063a22cb465146106f6578063a694fc3a1461072457610269565b8063715018a6146106785780637b10399914610680578063817b1cd2146106885780638c9c856e146106905780638da5cb5b1461069857610269565b806323b872dd116101ea5780634f6ccce7116101ae5780634f6ccce71461050c5780635508d8e1146105295780635be612c7146105315780636352211e146105865780636a2aebd7146105a357806370a082311461065257610269565b806323b872dd1461044057806326c0817e146104765780632ee409081461047e5780632f745c59146104aa57806342842e0e146104d657610269565b80630b350d03116102315780630b350d03146103aa5780630ba74b2f146103d55780630ebb172a146103f8578063144fa6d71461041257806318160ddd1461043857610269565b806301ffc9a71461026e57806306fdde03146102a9578063081812fc14610326578063095ea7b31461035f5780630962ef791461038d575b600080fd5b6102956004803603602081101561028457600080fd5b50356001600160e01b031916610a05565b604080519115158252519081900360200190f35b6102b1610a24565b6040805160208082528351818301528351919283929083019185019080838360005b838110156102eb5781810151838201526020016102d3565b50505050905090810190601f1680156103185780820380516001836020036101000a031916815260200191505b509250505060405180910390f35b6103436004803603602081101561033c57600080fd5b5035610abb565b604080516001600160a01b039092168252519081900360200190f35b61038b6004803603604081101561037557600080fd5b506001600160a01b038135169060200135610aeb565b005b61038b600480360360208110156103a357600080fd5b5035610b98565b61038b600480360360608110156103c057600080fd5b50803590602081013590604001351515610c67565b61038b600480360360408110156103eb57600080fd5b5080359060200135610e0f565b61040061125e565b60408051918252519081900360200190f35b61038b6004803603602081101561042857600080fd5b50356001600160a01b0316611264565b610400611297565b61038b6004803603606081101561045657600080fd5b506001600160a01b0381358116916020810135909116906040013561129d565b6104006112bb565b61038b6004803603604081101561049457600080fd5b506001600160a01b0381351690602001356112c1565b610400600480360360408110156104c057600080fd5b506001600160a01b0381351690602001356115fd565b61038b600480360360608110156104ec57600080fd5b506001600160a01b0381358116916020810135909116906040013561164b565b6104006004803603602081101561052257600080fd5b5035611666565b61040061169a565b61054e6004803603602081101561054757600080fd5b50356116a0565b604080519788526020880196909652868601949094526060860192909252608085015260a084015260c0830152519081900360e00190f35b6103436004803603602081101561059c57600080fd5b50356116dd565b610400600480360360608110156105b957600080fd5b810190602081018135600160201b8111156105d357600080fd5b8201836020820111156105e557600080fd5b803590602001918460208302840111600160201b8311171561060657600080fd5b91908080602002602001604051908101604052809392919081815260200183836020028082843760009201919091525092955050823593505050602001356001600160a01b03166116ff565b6104006004803603602081101561066857600080fd5b50356001600160a01b031661189e565b61038b6118d4565b61034361192f565b61040061193e565b610400611944565b61034361194a565b610295611959565b6102b161196a565b61038b600480360360408110156106c657600080fd5b50803590602001356119cb565b61038b600480360360408110156106e957600080fd5b5080359060200135611ce7565b61038b6004803603604081101561070c57600080fd5b506001600160a01b0381351690602001351515611e41565b61038b6004803603602081101561073a57600080fd5b5035611ec5565b61038b611ed2565b6104006004803603606081101561075f57600080fd5b810190602081018135600160201b81111561077957600080fd5b82018360208201111561078b57600080fd5b803590602001918460208302840111600160201b831117156107ac57600080fd5b91908080602002602001604051908101604052809392919081815260200183836020028082843760009201919091525092955050823593505050602001356001600160a01b0316611ef5565b61038b6004803603608081101561080e57600080fd5b6001600160a01b03823581169260208101359091169160408201359190810190608081016060820135600160201b81111561084857600080fd5b82018360208201111561085a57600080fd5b803590602001918460018302840111600160201b8311171561087b57600080fd5b91908080601f0160208091040260200160405190810160405280939291908181526020018383808284376000920191909152509295506120a1945050505050565b6102b1600480360360208110156108d257600080fd5b50356120c7565b61038b600480360360408110156108ef57600080fd5b810190602081018135600160201b81111561090957600080fd5b82018360208201111561091b57600080fd5b803590602001918460208302840111600160201b8311171561093c57600080fd5b919080806020026020016040519081016040528093929190818152602001838360200280828437600092019190915250929550509135925061217a915050565b610295612332565b61038b6004803603602081101561099a57600080fd5b5035612342565b610295600480360360408110156109b757600080fd5b506001600160a01b038135811691602001351661263c565b61038b600480360360208110156109e557600080fd5b50356001600160a01b031661266a565b61038b612684565b6103436126ad565b6001600160e01b03191660009081526020819052604090205460ff1690565b60098054604080516020601f6002600019610100600188161502019095169490940493840181900481028201810190925282815260609390929091830182828015610ab05780601f10610a8557610100808354040283529160200191610ab0565b820191906000526020600020905b815481529060010190602001808311610a9357829003601f168201915b505050505090505b90565b6000610ac6826126bc565b610acf57600080fd5b506000908152600260205260409020546001600160a01b031690565b6000610af6826116dd565b9050806001600160a01b0316836001600160a01b03161415610b1757600080fd5b336001600160a01b0382161480610b335750610b33813361263c565b610b3c57600080fd5b60008281526002602052604080822080546001600160a01b0319166001600160a01b0387811691821790925591518593918516917f8c5be1e5ebec7d5bd14f71427d1e84f3dd0314c0f7b2291e5b200ac8c7c3b92591a4505050565b8033610ba3826116dd565b6001600160a01b031614610bb657600080fd5b610bbf826126d9565b6000828152601460209081526040808320600501805490849055600d548251600160e01b63a9059cbb02815233600482015260248101839052925191946001600160a01b039091169363a9059cbb936044808201949293918390030190829087803b158015610c2d57600080fd5b505af1158015610c41573d6000803e3d6000fd5b505050506040513d6020811015610c5757600080fd5b5051610c6257600080fd5b505050565b8233610c72826116dd565b6001600160a01b031614610c8557600080fd5b60008481526014602052604090206006015415610ca557610ca5846126d9565b8215610d7c57600d5460408051600160e01b6323b872dd0281523360048201523060248201526044810186905290516001600160a01b03909216916323b872dd916064808201926020929091908290030181600087803b158015610d0857600080fd5b505af1158015610d1c573d6000803e3d6000fd5b505050506040513d6020811015610d3257600080fd5b5051610d7c5760408051600160e51b62461bcd02815260206004820152600e6024820152600160901b6d5472616e73666572207374616b6502604482015290519081900360640190fd5b8115610d9e576000848152601460205260408120600501805491905592909201915b601154610db1908463ffffffff61293a16565b6011908155600085815260146020908152604091829020600401805487019055915481519081529051859287927f9cc0e589f20d3310eb2ad571b23529003bd46048d0d1af29277dcf0aa3c398ce929081900390910190a350505050565b8133610e1a826116dd565b6001600160a01b031614610e2d57600080fd5b600e5460408051600160e21b630a1ef8f902815290516000926001600160a01b03169163287be3e4916004808301926020929190829003018186803b158015610e7557600080fd5b505afa158015610e89573d6000803e3d6000fd5b505050506040513d6020811015610e9f57600080fd5b505160408051600160e31b630ecce30102815290519192506000916001600160a01b038416916376671808916004808301926020929190829003018186803b158015610eea57600080fd5b505afa158015610efe573d6000803e3d6000fd5b505050506040513d6020811015610f1457600080fd5b505160008681526014602052604090206003810154919250901580610f51575081610f4e601254836003015461293a90919063ffffffff16565b11155b610fa55760408051600160e51b62461bcd02815260206004820152601860248201527f44656c65676174696f6e5f4c696d69745f526561636865640000000000000000604482015290519081900360640190fd5b6000836001600160a01b03166335aa2e44876040518263ffffffff1660e01b8152600401808281526020019150506101006040518083038186803b158015610fec57600080fd5b505afa158015611000573d6000803e3d6000fd5b505050506040513d61010081101561101757600080fd5b5060c0015190506001600160a01b03811661106657604051600160e51b62461bcd02815260040180806020018281038252603b815260200180613198603b913960400191505060405180910390fd5b60028201541580159061107c5750828260020154105b1561109d5761108a876126d9565b6000600283018190556001830155611120565b60028201541580156110b157506001820154155b80156110cc5750600087815260146020526040902060060154155b6111205760408051600160e51b62461bcd02815260206004820152600e60248201527f416c72656164795f426f6e646564000000000000000000000000000000000000604482015290519081900360640190fd5b806001600160a01b03166319480af8888460040154866040518463ffffffff1660e01b8152600401808481526020018381526020018281526020019350505050600060405180830381600087803b15801561117a57600080fd5b505af115801561118e573d6000803e3d6000fd5b50505050600182018390556006820186905560048083015460408051600160e01b63a968882f028152928301899052602483018690526044830191909152516001600160a01b0386169163a968882f91606480830192600092919082900301818387803b1580156111fe57600080fd5b505af1158015611212573d6000803e3d6000fd5b50505050600382018390556040516001600160a01b03821690879089907f21154cfd7fee3d8f9af211016deb6b904aceba0e819cc3e15c4f40b1e955ce6490600090a450505050505050565b60135481565b61126c611959565b61127557600080fd5b600d80546001600160a01b0319166001600160a01b0392909216919091179055565b60075490565b6112a73382612953565b6112b057600080fd5b610c628383836129b2565b60105481565b600c54600160a01b900460ff16156112d857600080fd5b6112e18261189e565b156113365760408051600160e51b62461bcd02815260206004820152601660248201527f4e6f207365636f6e642074696d65207374616b696e6700000000000000000000604482015290519081900360640190fd5b60105481101561134557600080fd5b600d5460408051600160e01b6323b872dd0281523360048201523060248201526044810184905290516001600160a01b03909216916323b872dd916064808201926020929091908290030181600087803b1580156113a257600080fd5b505af11580156113b6573d6000803e3d6000fd5b505050506040513d60208110156113cc57600080fd5b50516114165760408051600160e51b62461bcd02815260206004820152600e6024820152600160901b6d5472616e73666572207374616b6502604482015290519081900360640190fd5b600e5460408051600160e21b630a1ef8f902815290516000926001600160a01b03169163287be3e4916004808301926020929190829003018186803b15801561145e57600080fd5b505afa158015611472573d6000803e3d6000fd5b505050506040513d602081101561148857600080fd5b50516011549091506114a0908363ffffffff61293a16565b6011819055506000816001600160a01b031663766718086040518163ffffffff1660e01b815260040160206040518083038186803b1580156114e157600080fd5b505afa1580156114f5573d6000803e3d6000fd5b505050506040513d602081101561150b57600080fd5b50516040805160e0810182526000808252602082810182815283850183815260608501848152608086018b815260a0870186815260c08801878152600f80548952601490975298909620965187559251600187015590516002860155516003850155516004840155905160058301559151600690910155549091506115919085906129d1565b80600f54856001600160a01b03167f9cfd25589d1eb8ad71e342a86a8524e83522e3936c0803048c08f6d9ad974f4086601154604051808381526020018281526020019250505060405180910390a4600f546115f490600163ffffffff61293a16565b600f5550505050565b60006116088361189e565b821061161357600080fd5b6001600160a01b038316600090815260056020526040902080548390811061163757fe5b906000526020600020015490505b92915050565b610c62838383604051806020016040528060008152506120a1565b6000611670611297565b821061167b57600080fd5b6007828154811061168857fe5b90600052602060002001549050919050565b600f5481565b6014602052600090815260409020805460018201546002830154600384015460048501546005860154600690960154949593949293919290919087565b6000818152600160205260408120546001600160a01b03168061164557600080fd5b60008360008151811061170e57fe5b60200260200101516000600e60009054906101000a90046001600160a01b03166001600160a01b031663287be3e46040518163ffffffff1660e01b815260040160206040518083038186803b15801561176657600080fd5b505afa15801561177a573d6000803e3d6000fd5b505050506040513d602081101561179057600080fd5b5051600083815260146020908152604091829020600601548251600160e21b63158d0b630281526004810191909152915192935033926001600160a01b038516926356342d8c926024808301939192829003018186803b1580156117f357600080fd5b505afa158015611807573d6000803e3d6000fd5b505050506040513d602081101561181d57600080fd5b50516001600160a01b03161461183257600080fd5b60008060005b88518110156118915788818151811061184d57fe5b602090810291909101810151600081815260149092526040909120600281018a90556004015490925061188790849063ffffffff61293a16565b9250600101611838565b5090979650505050505050565b60006001600160a01b0382166118b357600080fd5b6001600160a01b0382166000908152600360205260409020611645906129f2565b6118dc611959565b6118e557600080fd5b600c546040516000916001600160a01b0316907f8be0079c531659141344cd1fd0a4f28419497f9722a3daafe3b4186f6b6457e0908390a3600c80546001600160a01b0319169055565b600e546001600160a01b031681565b60115481565b60125481565b600c546001600160a01b031690565b600c546001600160a01b0316331490565b600a8054604080516020601f6002600019610100600188161502019095169490940493840181900481028201810190925282815260609390929091830182828015610ab05780601f10610a8557610100808354040283529160200191610ab0565b81336119d6826116dd565b6001600160a01b0316146119e957600080fd5b600080600e60009054906101000a90046001600160a01b03166001600160a01b031663287be3e46040518163ffffffff1660e01b815260040160206040518083038186803b158015611a3a57600080fd5b505afa158015611a4e573d6000803e3d6000fd5b505050506040513d6020811015611a6457600080fd5b50519050611a71856126d9565b6000816001600160a01b031663766718086040518163ffffffff1660e01b815260040160206040518083038186803b158015611aac57600080fd5b505afa158015611ac0573d6000803e3d6000fd5b505050506040513d6020811015611ad657600080fd5b505160008781526014602052604090819020600601548151600160e21b630d6a8b91028152600481019190915290519192506001600160a01b038416916335aa2e449160248082019261010092909190829003018186803b158015611b3a57600080fd5b505afa158015611b4e573d6000803e3d6000fd5b505050506040513d610100811015611b6557600080fd5b5060c001516000878152601460205260408082206004908101548251600160e01b63cfe0a4530281529182018b9052602482018a905260448201526064810185905290519295506001600160a01b0386169263cfe0a4539260848084019391929182900301818387803b158015611bdb57600080fd5b505af1158015611bef573d6000803e3d6000fd5b50505060008781526014602052604080822060068101546004918201548351600160e01b63a968882f02815292830191909152602482018690528303604482015290516001600160a01b038616935063a968882f9260648084019391929182900301818387803b158015611c6257600080fd5b505af1158015611c76573d6000803e3d6000fd5b50505060008781526014602052604080822060060154905190925088917f2325edda12819f74fa130d3724468d4e2fb928318dfb2d139cf7d183262380ca91a36000958652601460205260408620600381019190915560028101869055600181018690556006019490945550505050565b8133611cf2826116dd565b6001600160a01b031614611d0557600080fd5b60008381526014602052604090206006015415611d2657611d2683836119cb565b60008381526014602052604090205415611d3f57600080fd5b600e5460408051600160e21b630a1ef8f902815290516000926001600160a01b03169163287be3e4916004808301926020929190829003018186803b158015611d8757600080fd5b505afa158015611d9b573d6000803e3d6000fd5b505050506040513d6020811015611db157600080fd5b505160408051600160e31b630ecce30102815290519192506000916001600160a01b038416916376671808916004808301926020929190829003018186803b158015611dfc57600080fd5b505afa158015611e10573d6000803e3d6000fd5b505050506040513d6020811015611e2657600080fd5b50516000958652601460205260409095209490945550505050565b6001600160a01b038216331415611e5757600080fd5b3360008181526004602090815260408083206001600160a01b03871680855290835292819020805460ff1916861515908117909155815190815290519293927f17307eab39ab6107e8899845ad3d59bd9653f200f220920489ca2b5937696c31929181900390910190a35050565b611ecf33826112c1565b50565b611eda611959565b611ee357600080fd5b600c8054600160a01b60ff0219169055565b600083600081518110611f0457fe5b60200260200101516000600e60009054906101000a90046001600160a01b03166001600160a01b031663287be3e46040518163ffffffff1660e01b815260040160206040518083038186803b158015611f5c57600080fd5b505afa158015611f70573d6000803e3d6000fd5b505050506040513d6020811015611f8657600080fd5b5051600083815260146020908152604091829020600601548251600160e21b63158d0b630281526004810191909152915192935033926001600160a01b038516926356342d8c926024808301939192829003018186803b158015611fe957600080fd5b505afa158015611ffd573d6000803e3d6000fd5b505050506040513d602081101561201357600080fd5b50516001600160a01b03161461202857600080fd5b60008060005b88518110156118915788818151811061204357fe5b60200260200101519150876014600084815260200190815260200160002060020154141561209957600082815260146020526040812060028101919091556004015461209690849063ffffffff61293a16565b92505b60010161202e565b6120ac84848461129d565b6120b8848484846129f6565b6120c157600080fd5b50505050565b60606120d2826126bc565b6120db57600080fd5b6000828152600b602090815260409182902080548351601f60026000196101006001861615020190931692909204918201849004840281018401909452808452909183018282801561216e5780601f106121435761010080835404028352916020019161216e565b820191906000526020600020905b81548152906001019060200180831161215157829003601f168201915b50505050509050919050565b8160008151811061218757fe5b60200260200101516000600e60009054906101000a90046001600160a01b03166001600160a01b031663287be3e46040518163ffffffff1660e01b815260040160206040518083038186803b1580156121df57600080fd5b505afa1580156121f3573d6000803e3d6000fd5b505050506040513d602081101561220957600080fd5b5051600083815260146020908152604091829020600601548251600160e21b63158d0b630281526004810191909152915192935033926001600160a01b038516926356342d8c926024808301939192829003018186803b15801561226c57600080fd5b505afa158015612280573d6000803e3d6000fd5b505050506040513d602081101561229657600080fd5b50516001600160a01b0316146122ab57600080fd5b60005b845181101561232b576000601460008784815181106122c957fe5b60200260200101518152602001908152602001600020905061231d61230c6064612300888560040154612b2f90919063ffffffff16565b9063ffffffff612b5616565b60048301549063ffffffff612b7816565b6004909101556001016122ae565b5050505050565b600c54600160a01b900460ff1681565b803361234d826116dd565b6001600160a01b03161461236057600080fd5b600e5460408051600160e21b630a1ef8f902815290516000926001600160a01b03169163287be3e4916004808301926020929190829003018186803b1580156123a857600080fd5b505afa1580156123bc573d6000803e3d6000fd5b505050506040513d60208110156123d257600080fd5b5051600084815260146020526040902054909150158015906124e65750806001600160a01b031663766718086040518163ffffffff1660e01b815260040160206040518083038186803b15801561242857600080fd5b505afa15801561243c573d6000803e3d6000fd5b505050506040513d602081101561245257600080fd5b505160408051600160e11b63075d8b9502815290516124e3916001600160a01b03851691630ebb172a91600480820192602092909190829003018186803b15801561249c57600080fd5b505afa1580156124b0573d6000803e3d6000fd5b505050506040513d60208110156124c657600080fd5b50516000868152601460205260409020549063ffffffff61293a16565b11155b6124ef57600080fd5b600083815260146020526040902060040154601154612514908263ffffffff612b7816565b60115561252084612b8d565b600d546000858152601460209081526040808320600501548151600160e01b63a9059cbb028152336004820152908601602482015290516001600160a01b039094169363a9059cbb93604480840194938390030190829087803b15801561258657600080fd5b505af115801561259a573d6000803e3d6000fd5b505050506040513d60208110156125b057600080fd5b50516125bb57600080fd5b60008481526014602090815260408083208381556001810184905560028101849055600381018490556004810184905560058101849055600601929092556011548251848152918201528151869233927f204fccf0d92ed8d48f204adb39b2e81e92bad0dedb93f5716ca9478cfb57de00929081900390910190a350505050565b6001600160a01b03918216600090815260046020908152604080832093909416825291909152205460ff1690565b612672611959565b61267b57600080fd5b611ecf81612b9f565b61268c611959565b61269557600080fd5b600c8054600160a01b60ff021916600160a01b179055565b600d546001600160a01b031681565b6000908152600160205260409020546001600160a01b0316151590565b600080600e60009054906101000a90046001600160a01b03166001600160a01b031663287be3e46040518163ffffffff1660e01b815260040160206040518083038186803b15801561272a57600080fd5b505afa15801561273e573d6000803e3d6000fd5b505050506040513d602081101561275457600080fd5b505160408051600160e31b630ecce30102815290519192506000916001600160a01b038416916376671808916004808301926020929190829003018186803b15801561279f57600080fd5b505afa1580156127b3573d6000803e3d6000fd5b505050506040513d60208110156127c957600080fd5b505160008581526014602052604090819020600601548151600160e21b630d6a8b91028152600481019190915290519192506001600160a01b038416916335aa2e449160248082019261010092909190829003018186803b15801561282d57600080fd5b505afa158015612841573d6000803e3d6000fd5b505050506040513d61010081101561285857600080fd5b5060c0015160008581526014602090815260409182902060048082015460018301546002909301548551600160e01b636b7491290281529283018b90526024830191909152604482019290925260648101919091526084810185905291519295506001600160a01b03861692636b7491299260a4808201939291829003018186803b1580156128e657600080fd5b505afa1580156128fa573d6000803e3d6000fd5b505050506040513d602081101561291057600080fd5b50516000948552601460205260409094206005810180549095019094556001909301929092555050565b60008282018381101561294c57600080fd5b9392505050565b60008061295f836116dd565b9050806001600160a01b0316846001600160a01b0316148061299a5750836001600160a01b031661298f84610abb565b6001600160a01b0316145b806129aa57506129aa818561263c565b949350505050565b6129bd838383612c0e565b6129c78382612cee565b610c628282612ddc565b6129db8282612e1a565b6129e58282612ddc565b6129ee81612ebb565b5050565b5490565b6000612a0a846001600160a01b0316612eff565b612a16575060016129aa565b604051600160e11b630a85bd0102815233600482018181526001600160a01b03888116602485015260448401879052608060648501908152865160848601528651600095928a169463150b7a029490938c938b938b939260a4019060208501908083838e5b83811015612a93578181015183820152602001612a7b565b50505050905090810190601f168015612ac05780820380516001836020036101000a031916815260200191505b5095505050505050602060405180830381600087803b158015612ae257600080fd5b505af1158015612af6573d6000803e3d6000fd5b505050506040513d6020811015612b0c57600080fd5b50516001600160e01b031916600160e11b630a85bd010214915050949350505050565b600082612b3e57506000611645565b82820282848281612b4b57fe5b041461294c57600080fd5b6000808211612b6457600080fd5b6000828481612b6f57fe5b04949350505050565b600082821115612b8757600080fd5b50900390565b611ecf612b99826116dd565b82612f05565b6001600160a01b038116612bb257600080fd5b600c546040516001600160a01b038084169216907f8be0079c531659141344cd1fd0a4f28419497f9722a3daafe3b4186f6b6457e090600090a3600c80546001600160a01b0319166001600160a01b0392909216919091179055565b826001600160a01b0316612c21826116dd565b6001600160a01b031614612c3457600080fd5b6001600160a01b038216612c4757600080fd5b612c5081612f4d565b6001600160a01b0383166000908152600360205260409020612c7190612f88565b6001600160a01b0382166000908152600360205260409020612c9290612f9f565b60008181526001602052604080822080546001600160a01b0319166001600160a01b0386811691821790925591518493918716917fddf252ad1be2c89b69c2b068fc378daa952ba7f163c4a11628f55a4df523b3ef91a4505050565b6001600160a01b038216600090815260056020526040812054612d1890600163ffffffff612b7816565b600083815260066020526040902054909150808214612db3576001600160a01b0384166000908152600560205260408120805484908110612d5557fe5b906000526020600020015490508060056000876001600160a01b03166001600160a01b031681526020019081526020016000208381548110612d9357fe5b600091825260208083209091019290925591825260069052604090208190555b6001600160a01b038416600090815260056020526040902080549061232b906000198301613115565b6001600160a01b0390911660009081526005602081815260408084208054868652600684529185208290559282526001810183559183529091200155565b6001600160a01b038216612e2d57600080fd5b612e36816126bc565b15612e4057600080fd5b600081815260016020908152604080832080546001600160a01b0319166001600160a01b038716908117909155835260039091529020612e7f90612f9f565b60405181906001600160a01b038416906000907fddf252ad1be2c89b69c2b068fc378daa952ba7f163c4a11628f55a4df523b3ef908290a45050565b600780546000838152600860205260408120829055600182018355919091527fa66cc928b5edb82af9bd49922954155ab7b0942694bea4ce44661d9a8736c6880155565b3b151590565b612f0f8282612fa8565b6000818152600b602052604090205460026000196101006001841615020190911604156129ee576000818152600b602052604081206129ee91613139565b6000818152600260205260409020546001600160a01b031615611ecf57600090815260026020526040902080546001600160a01b0319169055565b8054612f9b90600163ffffffff612b7816565b9055565b80546001019055565b612fb28282612fd4565b612fbc8282612cee565b6000818152600660205260408120556129ee81613079565b816001600160a01b0316612fe7826116dd565b6001600160a01b031614612ffa57600080fd5b61300381612f4d565b6001600160a01b038216600090815260036020526040902061302490612f88565b60008181526001602052604080822080546001600160a01b0319169055518291906001600160a01b038516907fddf252ad1be2c89b69c2b068fc378daa952ba7f163c4a11628f55a4df523b3ef908390a45050565b60075460009061309090600163ffffffff612b7816565b600083815260086020526040812054600780549394509092849081106130b257fe5b9060005260206000200154905080600783815481106130cd57fe5b60009182526020808320909101929092558281526008909152604090208290556007805490613100906000198301613115565b50505060009182525060086020526040812055565b815481835581811115610c6257600083815260209020610c62918101908301613179565b50805460018160011615610100020316600290046000825580601f1061315f5750611ecf565b601f016020900490600052602060002090810190611ecf91905b610ab891905b80821115613193576000815560010161317f565b509056fe556e6b6e6f776e2076616c696461746f724964206f722076616c696461746f7220646f65736e2774206578706563742064656c65676174696f6e73a165627a7a72305820b59c7c3a5e10f59eb4e7ec19c66b8f21ba8086c4f091240717d72be8f93f8c9d0029",
  "source": "pragma solidity ^0.5.2;\n\nimport \"openzeppelin-solidity/contracts/token/ERC721/ERC721Full.sol\";\nimport { IERC20 } from \"openzeppelin-solidity/contracts/token/ERC20/IERC20.sol\";\nimport { SafeMath } from \"openzeppelin-solidity/contracts/math/SafeMath.sol\";\n\nimport { StakeManager } from \"./StakeManager.sol\";\nimport { Registry } from \"../common/Registry.sol\";\nimport { IDelegationManager } from \"./IDelegationManager.sol\";\nimport { Lockable } from \"../common/mixin/Lockable.sol\";\nimport { ValidatorContract } from \"./Validator.sol\";\n\n\ncontract DelegationManager is IDelegationManager, ERC721Full, Lockable {\n  using SafeMath for uint256;\n\n  IERC20 public token;\n  Registry public registry;\n  uint256 public NFTCounter = 1;\n  uint256 public MIN_DEPOSIT_SIZE = 0;\n  uint256 public totalStaked;\n  uint256 public validatorHopLimit = 2; // checkpoint/epochs\n  uint256 public WITHDRAWAL_DELAY = 0; // todo: remove if not needed use from stakeManager\n\n  struct Delegator {\n    // unstaking delegator\n    uint256 deactivationEpoch;\n    uint256 delegationStartEpoch;\n    uint256 delegationStopEpoch;\n    // to keep track of validators hops\n    uint256 lastValidatorEpoch;\n    uint256 amount;\n    uint256 reward;\n    uint256 bondedTo; // validatorId\n  }\n\n  // Delegator metadata\n  mapping (uint256 => Delegator) public delegators;\n\n  modifier onlyDelegator(uint256 delegatorId) {\n    require(ownerOf(delegatorId) == msg.sender);\n    _;\n  }\n\n  modifier onlyValidatorContract(uint256 delegatorId) {\n    StakeManager stakeManager = StakeManager(registry.getStakeManagerAddress());\n    require(stakeManager.getValidatorContract(delegators[delegatorId].bondedTo) == msg.sender);\n    _;\n  }\n\n  constructor (Registry _registry) ERC721Full(\"Matic Delegator\", \"MD\") public {\n    registry = _registry;\n  }\n\n  function setToken(IERC20 _token) public onlyOwner {\n    token = _token;\n  }\n\n  function claimRewards(uint256 delegatorId) public onlyDelegator(delegatorId) {\n    _claimRewards(delegatorId);\n    uint256 amount = delegators[delegatorId].reward;\n    delegators[delegatorId].reward = 0;\n    require(token.transfer(msg.sender, amount));\n  }\n\n  function _claimRewards(uint256 delegatorId) internal {\n    address validator;\n    StakeManager stakeManager = StakeManager(registry.getStakeManagerAddress());\n    uint256 currentEpoch = stakeManager.currentEpoch();\n    (,,,,,,validator,) = stakeManager.validators(delegators[delegatorId].bondedTo);\n    delegators[delegatorId].reward += ValidatorContract(validator).calculateRewards(\n      delegatorId,\n      delegators[delegatorId].amount,\n      delegators[delegatorId].delegationStartEpoch,\n      delegators[delegatorId].delegationStopEpoch,\n      currentEpoch);\n    delegators[delegatorId].delegationStartEpoch = currentEpoch;\n  }\n\n  function bond(uint256 delegatorId, uint256 validatorId) public onlyDelegator(delegatorId) {\n    StakeManager stakeManager = StakeManager(registry.getStakeManagerAddress());\n    uint256 currentEpoch = stakeManager.currentEpoch(); //TODO add 1\n    Delegator storage delegator = delegators[delegatorId];\n\n    require(delegator.lastValidatorEpoch == 0 || delegator.lastValidatorEpoch.add(validatorHopLimit) <= currentEpoch, \"Delegation_Limit_Reached\");\n\n    address validator;\n    (,,,,,,validator,) = stakeManager.validators(validatorId);\n    require(validator != address(0x0), \"Unknown validatorId or validator doesn't expect delegations\");\n\n    // for lazy unbonding\n    if (delegator.delegationStopEpoch != 0 && delegator.delegationStopEpoch < currentEpoch ) {\n      _claimRewards(delegatorId);\n      delegator.delegationStopEpoch = 0;\n      delegator.delegationStartEpoch = 0;\n    } else {\n      require((delegator.delegationStopEpoch == 0 && // TODO: handle !0\n        delegator.delegationStartEpoch == 0) &&\n        delegators[delegatorId].bondedTo == 0,\n        \"Already_Bonded\");\n    }\n\n    ValidatorContract(validator).bond(delegatorId, delegator.amount, currentEpoch);\n    delegator.delegationStartEpoch = currentEpoch;\n    delegator.bondedTo = validatorId;\n    stakeManager.updateValidatorState(validatorId, currentEpoch, int(delegator.amount));\n    delegator.lastValidatorEpoch = currentEpoch;\n    emit Bonding(delegatorId, validatorId, validator);\n  }\n\n  function unBond(uint256 delegatorId, uint256 index) public onlyDelegator(delegatorId) {\n    address validator;\n    StakeManager stakeManager = StakeManager(registry.getStakeManagerAddress());\n    _claimRewards(delegatorId);\n    uint256 currentEpoch = stakeManager.currentEpoch();\n    (,,,,,,validator,) = stakeManager.validators(delegators[delegatorId].bondedTo);\n    ValidatorContract(validator).unBond(delegatorId, index, delegators[delegatorId].amount, currentEpoch);\n    stakeManager.updateValidatorState(delegators[delegatorId].bondedTo, currentEpoch, -int(delegators[delegatorId].amount));\n    emit UnBonding(delegatorId, delegators[delegatorId].bondedTo);\n    delegators[delegatorId].lastValidatorEpoch = currentEpoch;\n    delegators[delegatorId].delegationStopEpoch = 0;\n    delegators[delegatorId].delegationStartEpoch = 0;\n    delegators[delegatorId].bondedTo = 0;\n  }\n\n  function unBondLazy(uint256[] memory _delegators, uint256 epoch, address validator) public onlyValidatorContract(_delegators[0]) returns(uint256) {\n    uint256 amount;\n    uint256 delegatorId;\n    for (uint256 i; i < _delegators.length; i++) {\n      delegatorId = _delegators[i];\n      delegators[delegatorId].delegationStopEpoch = epoch;\n      amount = amount.add(delegators[delegatorId].amount);\n    }\n    return amount;\n  }\n\n  function revertLazyUnBond(uint256[] memory _delegators, uint256 epoch, address validator) public onlyValidatorContract(_delegators[0]) returns(uint256) {\n    uint256 amount;\n    uint256 delegatorId;\n    for (uint256 i; i < _delegators.length; i++) {\n      delegatorId = _delegators[i];\n        if (delegators[delegatorId].delegationStopEpoch == epoch) {\n          delegators[delegatorId].delegationStopEpoch = 0;\n          amount = amount.add(delegators[delegatorId].amount);\n       }\n    }\n    return amount;\n  }\n\n  function reStake(uint256 delegatorId, uint256 amount, bool stakeRewards) public onlyDelegator(delegatorId) {\n    if (delegators[delegatorId].bondedTo != 0) {\n      // Todo before getting rewards update validator state\n      _claimRewards(delegatorId);\n    }\n    if (amount > 0) {\n      require(token.transferFrom(msg.sender, address(this), amount), \"Transfer stake\");\n    }\n    if (stakeRewards) {\n      amount += delegators[delegatorId].reward;\n      delegators[delegatorId].reward = 0;\n    }\n    totalStaked = totalStaked.add(amount);\n\n    delegators[delegatorId].amount += amount;\n    emit ReStaked(delegatorId, amount, totalStaked);\n  }\n\n  function stake(uint256 amount) public {\n    stakeFor(msg.sender, amount);\n  }\n\n  function stakeFor(address user, uint256 amount) public onlyWhenUnlocked {\n    require(balanceOf(user) == 0, \"No second time staking\");\n    require(amount >= MIN_DEPOSIT_SIZE);\n    require(token.transferFrom(msg.sender, address(this), amount), \"Transfer stake\");\n    StakeManager stakeManager = StakeManager(registry.getStakeManagerAddress());\n\n    totalStaked = totalStaked.add(amount);\n    uint256 currentEpoch = stakeManager.currentEpoch();\n\n    delegators[NFTCounter] = Delegator({\n      deactivationEpoch: 0,\n      delegationStartEpoch: 0,\n      delegationStopEpoch: 0,\n      lastValidatorEpoch: 0,\n      amount: amount,\n      reward: 0,\n      bondedTo: 0\n      });\n\n    _mint(user, NFTCounter);\n    emit Staked(user, NFTCounter, currentEpoch, amount, totalStaked);\n    NFTCounter = NFTCounter.add(1);\n  }\n\n  function unstake(uint256 delegatorId, uint256 index) public onlyDelegator(delegatorId) {\n    if (delegators[delegatorId].bondedTo != 0) {\n      unBond(delegatorId, index);\n    }\n    require(delegators[delegatorId].deactivationEpoch == 0);\n    StakeManager stakeManager = StakeManager(registry.getStakeManagerAddress());\n    uint256 currentEpoch = stakeManager.currentEpoch();\n    delegators[delegatorId].deactivationEpoch = currentEpoch;\n  }\n\n  // after unstaking wait for WITHDRAWAL_DELAY, in order to claim stake back\n  function unstakeClaim(uint256 delegatorId) public onlyDelegator(delegatorId) {\n    StakeManager stakeManager = StakeManager(registry.getStakeManagerAddress());\n    // WITHDRAWAL_DELAY should match with validator's WITHDRAWAL_DELAY for perfect slashing\n    require(delegators[delegatorId].deactivationEpoch > 0 && delegators[delegatorId].deactivationEpoch.add(stakeManager.WITHDRAWAL_DELAY()) <= stakeManager.currentEpoch());\n    uint256 amount = delegators[delegatorId].amount;\n    totalStaked = totalStaked.sub(amount);\n\n    // TODO :add slashing\n    _burn(delegatorId);\n\n    require(token.transfer(msg.sender, amount + delegators[delegatorId].reward));\n    delete delegators[delegatorId];\n    emit Unstaked(msg.sender, delegatorId, amount, totalStaked);\n  }\n\n  function slash(uint256[] memory _delegators, uint256 slashRate) public onlyValidatorContract(_delegators[0]) {\n      for (uint256 i; i < _delegators.length; i++) {\n        Delegator storage delegator = delegators[_delegators[i]];\n        delegator.amount = delegator.amount.sub(delegator.amount.mul(slashRate).div(100));\n      }\n  }\n\n}\n",
  "sourcePath": "/Users/arpit/projects/contracts/contracts/staking/DelegationManager.sol",
  "compiler": {
    "name": "solc",
    "version": "0.5.7+commit.6da8b019.Emscripten.clang"
  },
  "schemaVersion": "3.0.14",
  "updatedAt": "2019-11-13T10:42:44.658Z",
  "devdoc": {
    "methods": {
      "approve(address,uint256)": {
        "details": "Approves another address to transfer the given token ID The zero address indicates there is no approved address. There can only be one approved address per token at a given time. Can only be called by the token owner or an approved operator.",
        "params": {
          "to": "address to be approved for the given token ID",
          "tokenId": "uint256 ID of the token to be approved"
        }
      },
      "balanceOf(address)": {
        "details": "Gets the balance of the specified address",
        "params": {
          "owner": "address to query the balance of"
        },
        "return": "uint256 representing the amount owned by the passed address"
      },
      "getApproved(uint256)": {
        "details": "Gets the approved address for a token ID, or zero if no address set Reverts if the token ID does not exist.",
        "params": {
          "tokenId": "uint256 ID of the token to query the approval of"
        },
        "return": "address currently approved for the given token ID"
      },
      "isApprovedForAll(address,address)": {
        "details": "Tells whether an operator is approved by a given owner",
        "params": {
          "operator": "operator address which you want to query the approval of",
          "owner": "owner address which you want to query the approval of"
        },
        "return": "bool whether the given operator is approved by the given owner"
      },
      "isOwner()": {
        "return": "true if `msg.sender` is the owner of the contract."
      },
      "name()": {
        "details": "Gets the token name",
        "return": "string representing the token name"
      },
      "owner()": {
        "return": "the address of the owner."
      },
      "ownerOf(uint256)": {
        "details": "Gets the owner of the specified token ID",
        "params": {
          "tokenId": "uint256 ID of the token to query the owner of"
        },
        "return": "address currently marked as the owner of the given token ID"
      },
      "renounceOwnership()": {
        "details": "Allows the current owner to relinquish control of the contract. It will not be possible to call the functions with the `onlyOwner` modifier anymore."
      },
      "safeTransferFrom(address,address,uint256)": {
        "details": "Safely transfers the ownership of a given token ID to another address If the target address is a contract, it must implement `onERC721Received`, which is called upon a safe transfer, and return the magic value `bytes4(keccak256(\"onERC721Received(address,address,uint256,bytes)\"))`; otherwise, the transfer is reverted. Requires the msg.sender to be the owner, approved, or operator",
        "params": {
          "from": "current owner of the token",
          "to": "address to receive the ownership of the given token ID",
          "tokenId": "uint256 ID of the token to be transferred"
        }
      },
      "safeTransferFrom(address,address,uint256,bytes)": {
        "details": "Safely transfers the ownership of a given token ID to another address If the target address is a contract, it must implement `onERC721Received`, which is called upon a safe transfer, and return the magic value `bytes4(keccak256(\"onERC721Received(address,address,uint256,bytes)\"))`; otherwise, the transfer is reverted. Requires the msg.sender to be the owner, approved, or operator",
        "params": {
          "_data": "bytes data to send along with a safe transfer check",
          "from": "current owner of the token",
          "to": "address to receive the ownership of the given token ID",
          "tokenId": "uint256 ID of the token to be transferred"
        }
      },
      "setApprovalForAll(address,bool)": {
        "details": "Sets or unsets the approval of a given operator An operator is allowed to transfer all tokens of the sender on their behalf",
        "params": {
          "approved": "representing the status of the approval to be set",
          "to": "operator address to set the approval"
        }
      },
      "supportsInterface(bytes4)": {
        "details": "implement supportsInterface(bytes4) using a lookup table"
      },
      "symbol()": {
        "details": "Gets the token symbol",
        "return": "string representing the token symbol"
      },
      "tokenByIndex(uint256)": {
        "details": "Gets the token ID at a given index of all the tokens in this contract Reverts if the index is greater or equal to the total number of tokens",
        "params": {
          "index": "uint256 representing the index to be accessed of the tokens list"
        },
        "return": "uint256 token ID at the given index of the tokens list"
      },
      "tokenOfOwnerByIndex(address,uint256)": {
        "details": "Gets the token ID at a given index of the tokens list of the requested owner",
        "params": {
          "index": "uint256 representing the index to be accessed of the requested tokens list",
          "owner": "address owning the tokens list to be accessed"
        },
        "return": "uint256 token ID at the given index of the tokens list owned by the requested address"
      },
      "tokenURI(uint256)": {
        "details": "Returns an URI for a given token ID Throws if the token ID does not exist. May return an empty string.",
        "params": {
          "tokenId": "uint256 ID of the token to query"
        }
      },
      "totalSupply()": {
        "details": "Gets the total amount of tokens stored by the contract",
        "return": "uint256 representing the total amount of tokens"
      },
      "transferFrom(address,address,uint256)": {
        "details": "Transfers the ownership of a given token ID to another address Usage of this method is discouraged, use `safeTransferFrom` whenever possible Requires the msg.sender to be the owner, approved, or operator",
        "params": {
          "from": "current owner of the token",
          "to": "address to receive the ownership of the given token ID",
          "tokenId": "uint256 ID of the token to be transferred"
        }
      },
      "transferOwnership(address)": {
        "details": "Allows the current owner to transfer control of the contract to a newOwner.",
        "params": {
          "newOwner": "The address to transfer ownership to."
        }
      }
    }
  },
  "userdoc": {
    "methods": {
      "renounceOwnership()": {
        "notice": "Renouncing ownership will leave the contract without an owner, thereby removing any functionality that is only available to the owner."
      }
    }
  }
}