{
  "contractName": "DepositManagerMock",
  "abi": [
    {
      "constant": true,
      "inputs": [
        {
          "name": "currentHeaderBlock",
          "type": "uint256"
        }
      ],
      "name": "nextDepositBlock",
      "outputs": [
        {
          "name": "",
          "type": "uint256"
        }
      ],
      "payable": false,
      "stateMutability": "view",
      "type": "function"
    },
    {
      "constant": true,
      "inputs": [],
      "name": "roundType",
      "outputs": [
        {
          "name": "",
          "type": "bytes32"
        }
      ],
      "payable": false,
      "stateMutability": "view",
      "type": "function"
    },
    {
      "constant": true,
      "inputs": [],
      "name": "depositCount",
      "outputs": [
        {
          "name": "",
          "type": "uint256"
        }
      ],
      "payable": false,
      "stateMutability": "view",
      "type": "function"
    },
    {
      "constant": true,
      "inputs": [
        {
          "name": "_depositCount",
          "type": "uint256"
        }
      ],
      "name": "depositBlock",
      "outputs": [
        {
          "name": "_header",
          "type": "uint256"
        },
        {
          "name": "_owner",
          "type": "address"
        },
        {
          "name": "_token",
          "type": "address"
        },
        {
          "name": "_amountOrTokenId",
          "type": "uint256"
        },
        {
          "name": "_createdAt",
          "type": "uint256"
        }
      ],
      "payable": false,
      "stateMutability": "view",
      "type": "function"
    },
    {
      "constant": true,
      "inputs": [
        {
          "name": "",
          "type": "address"
        }
      ],
      "name": "reverseTokens",
      "outputs": [
        {
          "name": "",
          "type": "address"
        }
      ],
      "payable": false,
      "stateMutability": "view",
      "type": "function"
    },
    {
      "constant": false,
      "inputs": [
        {
          "name": "_nftContract",
          "type": "address"
        }
      ],
      "name": "setExitNFTContract",
      "outputs": [],
      "payable": false,
      "stateMutability": "nonpayable",
      "type": "function"
    },
    {
      "constant": false,
      "inputs": [
        {
          "name": "_currentHeaderBlock",
          "type": "uint256"
        },
        {
          "name": "_token",
          "type": "address"
        },
        {
          "name": "_user",
          "type": "address"
        },
        {
          "name": "_amountOrTokenId",
          "type": "uint256"
        }
      ],
      "name": "createDepositBlock",
      "outputs": [],
      "payable": false,
      "stateMutability": "nonpayable",
      "type": "function"
    },
    {
      "constant": true,
      "inputs": [],
      "name": "wethToken",
      "outputs": [
        {
          "name": "",
          "type": "address"
        }
      ],
      "payable": false,
      "stateMutability": "view",
      "type": "function"
    },
    {
      "constant": false,
      "inputs": [],
      "name": "renounceOwnership",
      "outputs": [],
      "payable": false,
      "stateMutability": "nonpayable",
      "type": "function"
    },
    {
      "constant": true,
      "inputs": [],
      "name": "voteType",
      "outputs": [
        {
          "name": "",
          "type": "bytes1"
        }
      ],
      "payable": false,
      "stateMutability": "view",
      "type": "function"
    },
    {
      "constant": true,
      "inputs": [],
      "name": "owner",
      "outputs": [
        {
          "name": "",
          "type": "address"
        }
      ],
      "payable": false,
      "stateMutability": "view",
      "type": "function"
    },
    {
      "constant": true,
      "inputs": [],
      "name": "isOwner",
      "outputs": [
        {
          "name": "",
          "type": "bool"
        }
      ],
      "payable": false,
      "stateMutability": "view",
      "type": "function"
    },
    {
      "constant": true,
      "inputs": [],
      "name": "networkId",
      "outputs": [
        {
          "name": "",
          "type": "bytes"
        }
      ],
      "payable": false,
      "stateMutability": "view",
      "type": "function"
    },
    {
      "constant": true,
      "inputs": [],
      "name": "rootChain",
      "outputs": [
        {
          "name": "",
          "type": "address"
        }
      ],
      "payable": false,
      "stateMutability": "view",
      "type": "function"
    },
    {
      "constant": true,
      "inputs": [],
      "name": "CHILD_BLOCK_INTERVAL",
      "outputs": [
        {
          "name": "",
          "type": "uint256"
        }
      ],
      "payable": false,
      "stateMutability": "view",
      "type": "function"
    },
    {
      "constant": true,
      "inputs": [
        {
          "name": "",
          "type": "uint256"
        }
      ],
      "name": "deposits",
      "outputs": [
        {
          "name": "header",
          "type": "uint256"
        },
        {
          "name": "owner",
          "type": "address"
        },
        {
          "name": "token",
          "type": "address"
        },
        {
          "name": "amountOrTokenId",
          "type": "uint256"
        },
        {
          "name": "createdAt",
          "type": "uint256"
        }
      ],
      "payable": false,
      "stateMutability": "view",
      "type": "function"
    },
    {
      "constant": false,
      "inputs": [
        {
          "name": "_token",
          "type": "address"
        }
      ],
      "name": "setWETHToken",
      "outputs": [],
      "payable": false,
      "stateMutability": "nonpayable",
      "type": "function"
    },
    {
      "constant": true,
      "inputs": [],
      "name": "chain",
      "outputs": [
        {
          "name": "",
          "type": "bytes32"
        }
      ],
      "payable": false,
      "stateMutability": "view",
      "type": "function"
    },
    {
      "constant": true,
      "inputs": [
        {
          "name": "",
          "type": "address"
        }
      ],
      "name": "isERC721",
      "outputs": [
        {
          "name": "",
          "type": "bool"
        }
      ],
      "payable": false,
      "stateMutability": "view",
      "type": "function"
    },
    {
      "constant": false,
      "inputs": [
        {
          "name": "_rootToken",
          "type": "address"
        },
        {
          "name": "_childToken",
          "type": "address"
        },
        {
          "name": "_isERC721",
          "type": "bool"
        }
      ],
      "name": "mapToken",
      "outputs": [],
      "payable": false,
      "stateMutability": "nonpayable",
      "type": "function"
    },
    {
      "constant": true,
      "inputs": [
        {
          "name": "",
          "type": "address"
        }
      ],
      "name": "tokens",
      "outputs": [
        {
          "name": "",
          "type": "address"
        }
      ],
      "payable": false,
      "stateMutability": "view",
      "type": "function"
    },
    {
      "constant": false,
      "inputs": [
        {
          "name": "newRootChain",
          "type": "address"
        }
      ],
      "name": "changeRootChain",
      "outputs": [],
      "payable": false,
      "stateMutability": "nonpayable",
      "type": "function"
    },
    {
      "constant": false,
      "inputs": [
        {
          "name": "newOwner",
          "type": "address"
        }
      ],
      "name": "transferOwnership",
      "outputs": [],
      "payable": false,
      "stateMutability": "nonpayable",
      "type": "function"
    },
    {
      "constant": false,
      "inputs": [
        {
          "name": "_currentHeaderBlock",
          "type": "uint256"
        }
      ],
      "name": "finalizeCommit",
      "outputs": [],
      "payable": false,
      "stateMutability": "nonpayable",
      "type": "function"
    },
    {
      "payable": true,
      "stateMutability": "payable",
      "type": "fallback"
    },
    {
      "anonymous": false,
      "inputs": [
        {
          "indexed": true,
          "name": "_user",
          "type": "address"
        },
        {
          "indexed": true,
          "name": "_token",
          "type": "address"
        },
        {
          "indexed": false,
          "name": "_amountOrTokenId",
          "type": "uint256"
        },
        {
          "indexed": false,
          "name": "_depositCount",
          "type": "uint256"
        }
      ],
      "name": "Deposit",
      "type": "event"
    },
    {
      "anonymous": false,
      "inputs": [
        {
          "indexed": true,
          "name": "previousRootChain",
          "type": "address"
        },
        {
          "indexed": true,
          "name": "newRootChain",
          "type": "address"
        }
      ],
      "name": "RootChainChanged",
      "type": "event"
    },
    {
      "anonymous": false,
      "inputs": [
        {
          "indexed": true,
          "name": "previousOwner",
          "type": "address"
        },
        {
          "indexed": true,
          "name": "newOwner",
          "type": "address"
        }
      ],
      "name": "OwnershipTransferred",
      "type": "event"
    },
    {
      "anonymous": false,
      "inputs": [
        {
          "indexed": true,
          "name": "_rootToken",
          "type": "address"
        },
        {
          "indexed": true,
          "name": "_childToken",
          "type": "address"
        }
      ],
      "name": "TokenMapped",
      "type": "event"
    }
  ],
  "bytecode": "0x6080604081905260048054600160a060020a031916331790819055600160a060020a0316906000907f8be0079c531659141344cd1fd0a4f28419497f9722a3daafe3b4186f6b6457e0908290a36001600755610e98806100606000396000f3006080604052600436106101245763ffffffff60e060020a6000350416630472bc3c81146102385780632c2d1a3b146102625780632dfdf0b514610277578063325906541461028c57806340828ebf146102db57806346e11a8d14610318578063494f2a781461033b5780634b57b0be14610368578063715018a61461037d5780637d1a3d37146103925780638da5cb5b146103dc5780638f32d59b146103f15780639025e64c1461041a578063987ab9db146104a4578063a831fa07146104b9578063b02c43d0146104ce578063b45d1f68146104e6578063c763e5a114610507578063daa09e541461051c578063e117694b1461053d578063e486033914610569578063e8afa8e81461058a578063f2fde38b146105ab578063fb0df30f146105cc575b600354604080517fd0e30db000000000000000000000000000000000000000000000000000000000815290513492600160a060020a031691829163d0e30db0918591600480830192600092919082900301818588803b15801561018657600080fd5b505af115801561019a573d6000803e3d6000fd5b5050505050610234600560009054906101000a9004600160a060020a0316600160a060020a031663ec7e48556040518163ffffffff1660e060020a028152600401602060405180830381600087803b1580156101f557600080fd5b505af1158015610209573d6000803e3d6000fd5b505050506040513d602081101561021f57600080fd5b5051600354600160a060020a031633856105e4565b5050005b34801561024457600080fd5b50610250600435610902565b60408051918252519081900360200190f35b34801561026e57600080fd5b50610250610930565b34801561028357600080fd5b50610250610965565b34801561029857600080fd5b506102a460043561096b565b60408051958652600160a060020a039485166020870152929093168483015260608401526080830191909152519081900360a00190f35b3480156102e757600080fd5b506102fc600160a060020a03600435166109e4565b60408051600160a060020a039092168252519081900360200190f35b34801561032457600080fd5b50610339600160a060020a03600435166109ff565b005b34801561034757600080fd5b50610339600435600160a060020a03602435811690604435166064356105e4565b34801561037457600080fd5b506102fc610a02565b34801561038957600080fd5b50610339610a11565b34801561039e57600080fd5b506103a7610a7b565b604080517fff000000000000000000000000000000000000000000000000000000000000009092168252519081900360200190f35b3480156103e857600080fd5b506102fc610a9f565b3480156103fd57600080fd5b50610406610aae565b604080519115158252519081900360200190f35b34801561042657600080fd5b5061042f610abf565b6040805160208082528351818301528351919283929083019185019080838360005b83811015610469578181015183820152602001610451565b50505050905090810190601f1680156104965780820380516001836020036101000a031916815260200191505b509250505060405180910390f35b3480156104b057600080fd5b506102fc610af6565b3480156104c557600080fd5b50610250610b05565b3480156104da57600080fd5b506102a4600435610b0b565b3480156104f257600080fd5b50610339600160a060020a0360043516610b46565b34801561051357600080fd5b50610250610b8a565b34801561052857600080fd5b50610406600160a060020a0360043516610bbf565b34801561054957600080fd5b50610339600160a060020a03600435811690602435166044351515610bd4565b34801561057557600080fd5b506102fc600160a060020a0360043516610be4565b34801561059657600080fd5b50610339600160a060020a0360043516610bff565b3480156105b757600080fd5b50610339600160a060020a0360043516610c90565b3480156105d857600080fd5b50610339600435610cac565b600073__Common________________________________6316279055846040518263ffffffff1660e060020a0281526004018082600160a060020a0316600160a060020a0316815260200191505060206040518083038186803b15801561064a57600080fd5b505af415801561065e573d6000803e3d6000fd5b505050506040513d602081101561067457600080fd5b50511561068057600080fd5b600160a060020a03841660009081526002602052604090205460ff16806106a75750600082115b15156106b257600080fd5b600160a060020a03841660009081526002602052604090205460ff1615156107db5783600160a060020a031663313ce5676040518163ffffffff1660e060020a028152600401602060405180830381600087803b15801561071257600080fd5b505af1158015610726573d6000803e3d6000fd5b505050506040513d602081101561073c57600080fd5b505160ff16600a90810a028211156107db57604080517f08c379a000000000000000000000000000000000000000000000000000000000815260206004820152602360248201527f4d6178206465706f736974206f6620313020746f6b656e7320697320616c6c6f60448201527f7765640000000000000000000000000000000000000000000000000000000000606482015290519081900360840190fd5b6107e484610cb4565b15156107ef57600080fd5b600754612710116107ff57600080fd5b61080885610902565b60408051848152602081018390528151929350600160a060020a0380881693908716927fdcbc1c05240f31ff3ad067ef1ee35ce4997762752e3a095284754544f4c709d7928290030190a36040805160a081018252868152600160a060020a03808616602080840191825288831684860190815260608501888152426080870190815260008981526006909452969092209451855591516001808601805492861673ffffffffffffffffffffffffffffffffffffffff199384161790559251600286018054919095169116179092559051600383015591516004909101556007546108f89163ffffffff610cea16565b6007555050505050565b60075460009061092a9061091e8461271063ffffffff610d0316565b9063ffffffff610cea16565b92915050565b604080517f766f7465000000000000000000000000000000000000000000000000000000008152905190819003600401902081565b60075481565b600080600080600061097b610e2a565b5050506000938452505060066020908152604092839020835160a08101855281548082526001830154600160a060020a03908116948301859052600284015416958201869052600383015460608301819052600490930154608090920182905295929493509091565b600160205260009081526040902054600160a060020a031681565b50565b600354600160a060020a031681565b610a19610aae565b1515610a2457600080fd5b600454604051600091600160a060020a0316907f8be0079c531659141344cd1fd0a4f28419497f9722a3daafe3b4186f6b6457e0908390a36004805473ffffffffffffffffffffffffffffffffffffffff19169055565b7f020000000000000000000000000000000000000000000000000000000000000081565b600454600160a060020a031690565b600454600160a060020a0316331490565b60408051808201909152600281527f1212000000000000000000000000000000000000000000000000000000000000602082015281565b600554600160a060020a031681565b61271081565b600660205260009081526040902080546001820154600283015460038401546004909401549293600160a060020a0392831693929091169185565b600160a060020a0381161515610b5b57600080fd5b6003805473ffffffffffffffffffffffffffffffffffffffff1916600160a060020a0392909216919091179055565b604080517f6865696d64616c6c2d39337251774b00000000000000000000000000000000008152905190819003600f01902081565b60026020526000908152604090205460ff1681565b610bdf838383610d1a565b505050565b600060208190529081526040902054600160a060020a031681565b610c07610aae565b1515610c1257600080fd5b600160a060020a0381161515610c2757600080fd5b600554604051600160a060020a038084169216907f211c9015fc81c0dbd45bd99f0f29fc1c143bfd53442d5ffd722bbbef7a887fe990600090a36005805473ffffffffffffffffffffffffffffffffffffffff1916600160a060020a0392909216919091179055565b610c98610aae565b1515610ca357600080fd5b6109ff81610dac565b506001600755565b6000600160a060020a0382161580159061092a575050600160a060020a0390811660009081526020819052604090205416151590565b600082820183811015610cfc57600080fd5b9392505050565b60008083831115610d1357600080fd5b5050900390565b600160a060020a03838116600081815260208181526040808320805473ffffffffffffffffffffffffffffffffffffffff19908116968916968717909155858452600183528184208054909116851790558383526002909152808220805460ff1916861515179055517f85920d35e6c72f6b2affffa04298b0cecfeba86e4a9f407df661f1cb8ab5e6179190a3505050565b600160a060020a0381161515610dc157600080fd5b600454604051600160a060020a038084169216907f8be0079c531659141344cd1fd0a4f28419497f9722a3daafe3b4186f6b6457e090600090a36004805473ffffffffffffffffffffffffffffffffffffffff1916600160a060020a0392909216919091179055565b60a060405190810160405280600081526020016000600160a060020a031681526020016000600160a060020a03168152602001600081526020016000815250905600a165627a7a7230582020e0edd2b93dd94beb470c7cc72cd65cb4f176b5411d49a97483d5ccdf12f2650029",
  "source": "pragma solidity ^0.4.24;\n\nimport { Ownable } from \"openzeppelin-solidity/contracts/ownership/Ownable.sol\";\nimport { TokenManagerMock } from \"./TokenManagerMock.sol\";\n\nimport { IRootChain } from \"../root/IRootChain.sol\";\nimport { WETH } from \"../token/WETH.sol\";\nimport { DepositManager } from \"../root/DepositManager.sol\";\n\n\ncontract DepositManagerMock is DepositManager, TokenManagerMock {\n  \n  // only root chain\n  modifier onlyRootChain() {\n    _;\n  }\n  \n  // deposit ETH by sending to this contract\n  function () public payable {\n    // retrieve ether amount\n    uint256 _amount = msg.value;\n\n    // transfer ethers to this contract (through WETH)\n    WETH t = WETH(wethToken);\n    t.deposit.value(_amount)();\n\n    // create deposit block\n    createDepositBlock(IRootChain(rootChain).currentHeaderBlock(), wethToken, msg.sender, _amount);\n  }\n}\n",
  "sourcePath": "/Users/atvanguard/matic/contracts/contracts/mocks/DepositManagerMock.sol",
  "compiler": {
    "name": "solc",
    "version": "0.4.24+commit.e67f0147.Emscripten.clang"
  },
  "schemaVersion": "2.0.1",
  "updatedAt": "2019-12-07T09:11:33.302Z"
}