{
  "contractName": "DepositValidator",
  "abi": [
    {
      "constant": true,
      "inputs": [
        {
          "name": "headerNumber",
          "type": "uint256"
        },
        {
          "name": "headerProof",
          "type": "bytes"
        },
        {
          "name": "blockNumber",
          "type": "uint256"
        },
        {
          "name": "blockTime",
          "type": "uint256"
        },
        {
          "name": "txRoot",
          "type": "bytes32"
        },
        {
          "name": "receiptRoot",
          "type": "bytes32"
        },
        {
          "name": "path",
          "type": "bytes"
        },
        {
          "name": "txBytes",
          "type": "bytes"
        },
        {
          "name": "txProof",
          "type": "bytes"
        }
      ],
      "name": "validateTxExistence",
      "outputs": [
        {
          "name": "",
          "type": "bool"
        }
      ],
      "payable": false,
      "stateMutability": "view",
      "type": "function"
    },
    {
      "constant": false,
      "inputs": [
        {
          "name": "_withdrawManager",
          "type": "address"
        }
      ],
      "name": "setWithdrawManager",
      "outputs": [],
      "payable": false,
      "stateMutability": "nonpayable",
      "type": "function"
    },
    {
      "constant": false,
      "inputs": [
        {
          "name": "_depositManager",
          "type": "address"
        }
      ],
      "name": "setDepositManager",
      "outputs": [],
      "payable": false,
      "stateMutability": "nonpayable",
      "type": "function"
    },
    {
      "constant": true,
      "inputs": [],
      "name": "childChainContract",
      "outputs": [
        {
          "name": "",
          "type": "address"
        }
      ],
      "payable": false,
      "stateMutability": "view",
      "type": "function"
    },
    {
      "constant": true,
      "inputs": [],
      "name": "DEPOSIT_EVENT_SIGNATURE",
      "outputs": [
        {
          "name": "",
          "type": "bytes32"
        }
      ],
      "payable": false,
      "stateMutability": "view",
      "type": "function"
    },
    {
      "constant": true,
      "inputs": [],
      "name": "depositManager",
      "outputs": [
        {
          "name": "",
          "type": "address"
        }
      ],
      "payable": false,
      "stateMutability": "view",
      "type": "function"
    },
    {
      "constant": true,
      "inputs": [
        {
          "name": "headerNumber",
          "type": "uint256"
        },
        {
          "name": "headerProof",
          "type": "bytes"
        },
        {
          "name": "blockNumber",
          "type": "uint256"
        },
        {
          "name": "blockTime",
          "type": "uint256"
        },
        {
          "name": "txRoot",
          "type": "bytes32"
        },
        {
          "name": "receiptRoot",
          "type": "bytes32"
        },
        {
          "name": "path",
          "type": "bytes"
        },
        {
          "name": "txBytes",
          "type": "bytes"
        },
        {
          "name": "txProof",
          "type": "bytes"
        },
        {
          "name": "receiptBytes",
          "type": "bytes"
        },
        {
          "name": "receiptProof",
          "type": "bytes"
        }
      ],
      "name": "validateTx",
      "outputs": [
        {
          "name": "",
          "type": "bool"
        }
      ],
      "payable": false,
      "stateMutability": "view",
      "type": "function"
    },
    {
      "constant": false,
      "inputs": [],
      "name": "renounceOwnership",
      "outputs": [],
      "payable": false,
      "stateMutability": "nonpayable",
      "type": "function"
    },
    {
      "constant": true,
      "inputs": [],
      "name": "TOKEN_DEPOSITED_EVENT_SIGNATURE",
      "outputs": [
        {
          "name": "",
          "type": "bytes32"
        }
      ],
      "payable": false,
      "stateMutability": "view",
      "type": "function"
    },
    {
      "constant": true,
      "inputs": [],
      "name": "DEPOSIT_TOKENS_SIGNATURE",
      "outputs": [
        {
          "name": "",
          "type": "bytes4"
        }
      ],
      "payable": false,
      "stateMutability": "view",
      "type": "function"
    },
    {
      "constant": true,
      "inputs": [],
      "name": "owner",
      "outputs": [
        {
          "name": "",
          "type": "address"
        }
      ],
      "payable": false,
      "stateMutability": "view",
      "type": "function"
    },
    {
      "constant": true,
      "inputs": [],
      "name": "isOwner",
      "outputs": [
        {
          "name": "",
          "type": "bool"
        }
      ],
      "payable": false,
      "stateMutability": "view",
      "type": "function"
    },
    {
      "constant": true,
      "inputs": [],
      "name": "rootChain",
      "outputs": [
        {
          "name": "",
          "type": "address"
        }
      ],
      "payable": false,
      "stateMutability": "view",
      "type": "function"
    },
    {
      "constant": false,
      "inputs": [],
      "name": "unlock",
      "outputs": [],
      "payable": false,
      "stateMutability": "nonpayable",
      "type": "function"
    },
    {
      "constant": true,
      "inputs": [],
      "name": "locked",
      "outputs": [
        {
          "name": "",
          "type": "bool"
        }
      ],
      "payable": false,
      "stateMutability": "view",
      "type": "function"
    },
    {
      "constant": true,
      "inputs": [
        {
          "name": "headerNumber",
          "type": "uint256"
        },
        {
          "name": "headerProof",
          "type": "bytes"
        },
        {
          "name": "blockNumber",
          "type": "uint256"
        },
        {
          "name": "blockTime",
          "type": "uint256"
        },
        {
          "name": "txRoot",
          "type": "bytes32"
        },
        {
          "name": "receiptRoot",
          "type": "bytes32"
        },
        {
          "name": "path",
          "type": "bytes"
        },
        {
          "name": "txBytes",
          "type": "bytes"
        },
        {
          "name": "txProof",
          "type": "bytes"
        },
        {
          "name": "receiptBytes",
          "type": "bytes"
        },
        {
          "name": "receiptProof",
          "type": "bytes"
        }
      ],
      "name": "validateTxReceiptExistence",
      "outputs": [
        {
          "name": "",
          "type": "bool"
        }
      ],
      "payable": false,
      "stateMutability": "view",
      "type": "function"
    },
    {
      "constant": false,
      "inputs": [
        {
          "name": "newRootChain",
          "type": "address"
        }
      ],
      "name": "changeRootChain",
      "outputs": [],
      "payable": false,
      "stateMutability": "nonpayable",
      "type": "function"
    },
    {
      "constant": true,
      "inputs": [],
      "name": "withdrawManager",
      "outputs": [
        {
          "name": "",
          "type": "address"
        }
      ],
      "payable": false,
      "stateMutability": "view",
      "type": "function"
    },
    {
      "constant": false,
      "inputs": [
        {
          "name": "newOwner",
          "type": "address"
        }
      ],
      "name": "transferOwnership",
      "outputs": [],
      "payable": false,
      "stateMutability": "nonpayable",
      "type": "function"
    },
    {
      "constant": false,
      "inputs": [
        {
          "name": "_childChainContract",
          "type": "address"
        }
      ],
      "name": "setChildChainContract",
      "outputs": [],
      "payable": false,
      "stateMutability": "nonpayable",
      "type": "function"
    },
    {
      "constant": false,
      "inputs": [],
      "name": "lock",
      "outputs": [],
      "payable": false,
      "stateMutability": "nonpayable",
      "type": "function"
    },
    {
      "anonymous": false,
      "inputs": [
        {
          "indexed": true,
          "name": "previousRootChain",
          "type": "address"
        },
        {
          "indexed": true,
          "name": "newRootChain",
          "type": "address"
        }
      ],
      "name": "RootChainChanged",
      "type": "event"
    },
    {
      "anonymous": false,
      "inputs": [
        {
          "indexed": true,
          "name": "previousOwner",
          "type": "address"
        },
        {
          "indexed": true,
          "name": "newOwner",
          "type": "address"
        }
      ],
      "name": "OwnershipTransferred",
      "type": "event"
    },
    {
      "constant": false,
      "inputs": [
        {
          "name": "depositTx",
          "type": "bytes"
        }
      ],
      "name": "validateDepositTx",
      "outputs": [],
      "payable": false,
      "stateMutability": "nonpayable",
      "type": "function"
    },
    {
      "constant": false,
      "inputs": [
        {
          "name": "tx1",
          "type": "bytes"
        },
        {
          "name": "tx2",
          "type": "bytes"
        }
      ],
      "name": "validateDuplicateDepositTx",
      "outputs": [],
      "payable": false,
      "stateMutability": "nonpayable",
      "type": "function"
    }
  ],
  "bytecode": "0x6080604081905260008054600160a060020a0319163317808255600160a060020a0316917f8be0079c531659141344cd1fd0a4f28419497f9722a3daafe3b4186f6b6457e0908290a36125fa806100576000396000f3006080604052600436106101195763ffffffff60e060020a6000350416630b3fa78c811461011e57806317e3e2e814610262578063228d71a914610285578063242fbb04146102a65780634ef68cb4146102d75780636308063d146102fe5780636c7ac9d8146103575780636d4babac1461036c578063715018a6146105185780637b43d26a1461052d57806382ff9aae146105425780638da5cb5b146105895780638f32d59b1461059e578063987ab9db146105b3578063a69df4b5146105c8578063cf309012146105dd578063cf8cec02146105f2578063d9bcb33514610689578063e8afa8e814610835578063ec3e9da514610856578063f2fde38b1461086b578063f3b57e611461088c578063f83d08ba146108ad575b600080fd5b34801561012a57600080fd5b5060408051602060046024803582810135601f810185900485028601850190965285855261024e95833595369560449491939091019190819084018382808284375050604080516020601f60808a01358b0180359182018390048302840183018552818452989b8a359b838c01359b958601359a60608701359a50919850965060a09094019450919281019190819084018382808284375050604080516020601f89358b018035918201839004830284018301909452808352979a99988101979196509182019450925082915084018382808284375050604080516020601f89358b018035918201839004830284018301909452808352979a9998810197919650918201945092508291508401838280828437509497506108c29650505050505050565b604080519115158252519081900360200190f35b34801561026e57600080fd5b50610283600160a060020a0360043516610cb6565b005b34801561029157600080fd5b50610283600160a060020a0360043516610d0d565b3480156102b257600080fd5b506102bb610d64565b60408051600160a060020a039092168252519081900360200190f35b3480156102e357600080fd5b506102ec610d73565b60408051918252519081900360200190f35b34801561030a57600080fd5b506040805160206004803580820135601f8101849004840285018401909552848452610283943694929360249392840191908190840183828082843750949750610d979650505050505050565b34801561036357600080fd5b506102bb610f54565b34801561037857600080fd5b5060408051602060046024803582810135601f810185900485028601850190965285855261024e95833595369560449491939091019190819084018382808284375050604080516020601f60808a01358b0180359182018390048302840183018552818452989b8a359b838c01359b958601359a60608701359a50919850965060a09094019450919281019190819084018382808284375050604080516020601f89358b018035918201839004830284018301909452808352979a99988101979196509182019450925082915084018382808284375050604080516020601f89358b018035918201839004830284018301909452808352979a99988101979196509182019450925082915084018382808284375050604080516020601f89358b018035918201839004830284018301909452808352979a99988101979196509182019450925082915084018382808284375050604080516020601f89358b018035918201839004830284018301909452808352979a999881019791965091820194509250829150840183828082843750949750610f639650505050505050565b34801561052457600080fd5b50610283611141565b34801561053957600080fd5b506102ec6111ab565b34801561054e57600080fd5b506105576111cf565b604080517bffffffffffffffffffffffffffffffffffffffffffffffffffffffff199092168252519081900360200190f35b34801561059557600080fd5b506102bb6111dd565b3480156105aa57600080fd5b5061024e6111ec565b3480156105bf57600080fd5b506102bb6111fd565b3480156105d457600080fd5b5061028361120c565b3480156105e957600080fd5b5061024e61123f565b3480156105fe57600080fd5b506040805160206004803580820135601f810184900484028501840190955284845261028394369492936024939284019190819084018382808284375050604080516020601f89358b018035918201839004830284018301909452808352979a9998810197919650918201945092508291508401838280828437509497506112609650505050505050565b34801561069557600080fd5b5060408051602060046024803582810135601f810185900485028601850190965285855261024e95833595369560449491939091019190819084018382808284375050604080516020601f60808a01358b0180359182018390048302840183018552818452989b8a359b838c01359b958601359a60608701359a50919850965060a09094019450919281019190819084018382808284375050604080516020601f89358b018035918201839004830284018301909452808352979a99988101979196509182019450925082915084018382808284375050604080516020601f89358b018035918201839004830284018301909452808352979a99988101979196509182019450925082915084018382808284375050604080516020601f89358b018035918201839004830284018301909452808352979a99988101979196509182019450925082915084018382808284375050604080516020601f89358b018035918201839004830284018301909452808352979a9998810197919650918201945092508291508401838280828437509497506116e59650505050505050565b34801561084157600080fd5b50610283600160a060020a0360043516611781565b34801561086257600080fd5b506102bb611812565b34801561087757600080fd5b50610283600160a060020a0360043516611821565b34801561089857600080fd5b50610283600160a060020a0360043516611840565b3480156108b957600080fd5b50610283611897565b600154604080517f61bbd461000000000000000000000000000000000000000000000000000000008152600481018c9052905160009283928392600160a060020a03909216916361bbd4619160248082019260809290919082900301818787803b15801561092f57600080fd5b505af1158015610943573d6000803e3d6000fd5b505050506040513d608081101561095957600080fd5b8101908080519060200190929190805190602001909291908051906020019092919080519060200190929190505050905050809250819350505089898989604051808581526020018481526020018360001916600019168152602001826000191660001916815260200194505050505060405180910390206000191673__Merkle________________________________636c8f455c9091838d03858f6040518563ffffffff1660e060020a028152600401808560001916600019168152602001848152602001836000191660001916815260200180602001828103825283818151815260200191508051906020019080838360005b83811015610a67578181015183820152602001610a4f565b50505050905090810190601f168015610a945780820380516001836020036101000a031916815260200191505b509550505050505060206040518083038186803b158015610ab457600080fd5b505af4158015610ac8573d6000803e3d6000fd5b505050506040513d6020811015610ade57600080fd5b50518015610ca6575073__MerklePatriciaProof___________________6379d1d4fa8688878c6040518563ffffffff1660e060020a028152600401808060200180602001806020018560001916600019168152602001848103845288818151815260200191508051906020019080838360005b83811015610b6a578181015183820152602001610b52565b50505050905090810190601f168015610b975780820380516001836020036101000a031916815260200191505b50848103835287518152875160209182019189019080838360005b83811015610bca578181015183820152602001610bb2565b50505050905090810190601f168015610bf75780820380516001836020036101000a031916815260200191505b50848103825286518152865160209182019188019080838360005b83811015610c2a578181015183820152602001610c12565b50505050905090810190601f168015610c575780820380516001836020036101000a031916815260200191505b5097505050505050505060206040518083038186803b158015610c7957600080fd5b505af4158015610c8d573d6000803e3d6000fd5b505050506040513d6020811015610ca357600080fd5b50515b9c9b505050505050505050505050565b610cbe6111ec565b1515610cc957600080fd5b600160a060020a0381161515610cde57600080fd5b6003805473ffffffffffffffffffffffffffffffffffffffff1916600160a060020a0392909216919091179055565b610d156111ec565b1515610d2057600080fd5b600160a060020a0381161515610d3557600080fd5b6002805473ffffffffffffffffffffffffffffffffffffffff1916600160a060020a0392909216919091179055565b600454600160a060020a031681565b7f4e2ca0515ed1aef1395f66b5303bb5d6f1bf9d61a353fa53f73f8ac9973fa9f681565b6060610daa610da5836118e1565b611934565b9050610ea7610dd0826000815181101515610dc157fe5b906020019060200201516119e9565b610df1836001815181101515610de257fe5b90602001906020020151611a32565b610e03846002815181101515610dc157fe5b610e15856003815181101515610dc157fe5b610e36866004815181101515610e2757fe5b90602001906020020151611a94565b610e48876005815181101515610e2757fe5b610e5a886006815181101515610de257fe5b610e6c896007815181101515610de257fe5b610e7e8a6008815181101515610de257fe5b610e908b6009815181101515610de257fe5b610ea28c600a815181101515610de257fe5b6116e5565b1515610eb257600080fd5b610ede610ec7826007815181101515610de257fe5b610ed9836009815181101515610de257fe5b611aa5565b1515610f5057600160009054906101000a9004600160a060020a0316600160a060020a0316632da25de36040518163ffffffff1660e060020a028152600401600060405180830381600087803b158015610f3757600080fd5b505af1158015610f4b573d6000803e3d6000fd5b505050505b5050565b600254600160a060020a031681565b6000610f6d612596565b60606000610f848f8f8f8f8f8f8f8f8f8f8f6116e5565b1580610f8f57508751155b80610f9957508551155b15610fa7576000935061112f565b610fb0886118e1565b9250610fbb83611d44565b1580610fd15750610fcb83611934565b51600914155b15610fdf576000935061112f565b610fe8866118e1565b9250610ff383611d44565b1515611002576000935061112f565b61100b83611934565b91508151600414158061103c575061103a82600381518110151561102b57fe5b90602001906020020151611d44565b155b1561104a576000935061112f565b61106b82600381518110151561105c57fe5b90602001906020020151611934565b915060008251111561112a575060005b81518160ff16101561112a5761109b828260ff1681518110151561102b57fe5b15806110bb575060026110b8838360ff1681518110151561105c57fe5b51105b806110e757506110e56110d8838360ff1681518110151561105c57fe5b8051600190811061102b57fe5b155b806111145750611111611104838360ff1681518110151561105c57fe5b8051600190811061105c57fe5b51155b15611122576000935061112f565b60010161107b565b600193505b5050509b9a5050505050505050505050565b6111496111ec565b151561115457600080fd5b60008054604051600160a060020a03909116907f8be0079c531659141344cd1fd0a4f28419497f9722a3daafe3b4186f6b6457e0908390a36000805473ffffffffffffffffffffffffffffffffffffffff19169055565b7fec3afb067bce33c5a294470ec5b29e6759301cd3928550490c6d48816cdc2f5d81565b60e060020a63487cda0d0281565b600054600160a060020a031690565b600054600160a060020a0316331490565b600154600160a060020a031681565b6112146111ec565b151561121f57600080fd5b6001805474ff000000000000000000000000000000000000000019169055565b60015474010000000000000000000000000000000000000000900460ff1681565b6060806060806000856040518082805190602001908083835b602083106112985780518252601f199092019160209182019101611279565b51815160209384036101000a60001901801990921691161790526040519190930181900381208c519095508c945090928392508401908083835b602083106112f15780518252601f1990920191602091820191016112d2565b6001836020036101000a0380198251168184511680821785525050505050509050019150506040518091039020600019161415151561132f57600080fd5b61133b610da5886118e1565b94506113e7611352866000815181101515610dc157fe5b611364876001815181101515610de257fe5b611376886002815181101515610dc157fe5b611388896003815181101515610dc157fe5b61139a8a6004815181101515610e2757fe5b6113ac8b6005815181101515610e2757fe5b6113be8c6006815181101515610de257fe5b6113d08d6007815181101515610de257fe5b6113e28e6008815181101515610de257fe5b6108c2565b15156113f257600080fd5b611404856007815181101515610de257fe5b9350611412610da5856118e1565b9250611426836005815181101515610de257fe5b915061144983600381518110151561143a57fe5b90602001906020020151611d76565b600454600160a060020a0390811691161480156114a2575060e060020a63487cda0d0261148161147c8460006004611da3565b611e24565b7bffffffffffffffffffffffffffffffffffffffffffffffffffffffff1916145b15156114ad57600080fd5b6114b8826064611e2b565b90506114c6610da5876118e1565b94506114dd611352866000815181101515610dc157fe5b15156114e857600080fd5b6114fa856007815181101515610de257fe5b9350611508610da5856118e1565b925061151c836005815181101515610de257fe5b915061153083600381518110151561143a57fe5b600454600160a060020a0390811691161480156115c2575060e060020a63487cda0d026115608360006004611da3565b6040518082805190602001908083835b6020831061158f5780518252601f199092019160209182019101611570565b6001836020036101000a038019825116818451168082178552505050505050905001915050604051809103902060001916145b15156115cd57600080fd5b806115d9836064611e2b565b141561164f57600160009054906101000a9004600160a060020a0316600160a060020a0316632da25de36040518163ffffffff1660e060020a028152600401600060405180830381600087803b15801561163257600080fd5b505af1158015611646573d6000803e3d6000fd5b505050506116dc565b604080517f08c379a000000000000000000000000000000000000000000000000000000000815260206004820152602360248201527f496e76616c6964206465706f736974206475706c6963617465206368616c6c6560448201527f6e67650000000000000000000000000000000000000000000000000000000000606482015290519081900360840190fd5b50505050505050565b60006116f88c8c8c8c8c8c8c8c8c6108c2565b8015610ca6575073__MerklePatriciaProof___________________6379d1d4fa8488858b6040518563ffffffff1660e060020a0281526004018080602001806020018060200185600019166000191681526020018481038452888181518152602001915080519060200190808383600083811015610b6a578181015183820152602001610b52565b6117896111ec565b151561179457600080fd5b600160a060020a03811615156117a957600080fd5b600154604051600160a060020a038084169216907f211c9015fc81c0dbd45bd99f0f29fc1c143bfd53442d5ffd722bbbef7a887fe990600090a36001805473ffffffffffffffffffffffffffffffffffffffff1916600160a060020a0392909216919091179055565b600354600160a060020a031681565b6118296111ec565b151561183457600080fd5b61183d81611e4b565b50565b6118486111ec565b151561185357600080fd5b600160a060020a038116151561186857600080fd5b6004805473ffffffffffffffffffffffffffffffffffffffff1916600160a060020a0392909216919091179055565b61189f6111ec565b15156118aa57600080fd5b6001805474ff0000000000000000000000000000000000000000191674010000000000000000000000000000000000000000179055565b6118e9612596565b8151600081151561190f576040805180820190915260008082526020820152925061192d565b60208401905060408051908101604052808281526020018381525092505b5050919050565b606060006119406125ad565b600061194b85611d44565b151561195657600080fd5b61195f85611ec8565b92508260405190808252806020026020018201604052801561199b57816020015b611988612596565b8152602001906001900390816119805790505b5093506119a785611f38565b91505b6119b382611f71565b156119e1576119c182611f90565b84828151811015156119cf57fe5b602090810290910101526001016119aa565b505050919050565b60008060006119f784611fd2565b1515611a0257600080fd5b611a0b84611ffb565b90925090506020811115611a1e57600080fd5b806020036101000a82510492505050919050565b6060600080611a4084611fd2565b1515611a4b57600080fd5b611a5484611ffb565b91509150806040519080825280601f01601f191660200182016040528015611a86578160200160208202803883390190505b50925061192d828483612078565b6000611a9f826119e9565b92915050565b60006060806000806000806000611abe610da58b6118e1565b8051909750600914611acf57600080fd5b611ae187600381518110151561143a57fe5b600454600160a060020a03908116911614611afb57600080fd5b611b0d876005815181101515610de257fe5b955060e060020a63487cda0d02611b278760006004611da3565b6040518082805190602001908083835b60208310611b565780518252601f199092019160209182019101611b37565b6001836020036101000a038019825116818451168082178552505050505050905001915050604051809103902060001916141515611b9357600080fd5b8551608414611ba55760009750611d37565b611bb08660106120b8565b9450611bbd8660306120b8565b9350611bca866044611e2b565b9250611bd7866064611e2b565b600254604080517fe4860339000000000000000000000000000000000000000000000000000000008152600160a060020a038981166004830152915193955091169163e4860339916024808201926020929091908290030181600087803b158015611c4157600080fd5b505af1158015611c55573d6000803e3d6000fd5b505050506040513d6020811015611c6b57600080fd5b50519050611c7b610da58a6118e1565b9650600160a060020a03811615801590611c96575086516004145b8015611cb45750611caf87600381518110151561105c57fe5b516003145b8015611cc75750611cc7828686866120e8565b8015611cef5750611cef611ce661110489600381518110151561105c57fe5b868387876121ec565b8015611d245750611d24611d1b611d0e89600381518110151561105c57fe5b8051600290811061105c57fe5b8683878761231d565b15611d325760019750611d37565b600097505b5050505050505092915050565b600080826020015160001415611d5d5760009150611d70565b8260000151905060c0815160001a101591505b50919050565b600080611d8283611ffb565b9150506014811115611d9357600080fd5b611d9c836119e9565b9392505050565b606080828401855110151515611db857600080fd5b82158015611dd157604051915060208201604052611e1b565b6040519150601f8416801560200281840101858101878315602002848b0101015b81831015611e0a578051835260209283019201611df2565b5050858452601f01601f1916604052505b50949350505050565b6020015190565b60008082602001845110151515611e4157600080fd5b5050016020015190565b600160a060020a0381161515611e6057600080fd5b60008054604051600160a060020a03808516939216917f8be0079c531659141344cd1fd0a4f28419497f9722a3daafe3b4186f6b6457e091a36000805473ffffffffffffffffffffffffffffffffffffffff1916600160a060020a0392909216919091179055565b600080600080600080611eda87611d44565b1515611ee95760009550611f2e565b8651805160001a95509350611efd87612477565b840192506001876020015185010391505b818311611f2a57611f1e836124f7565b90920191600101611f0e565b8095505b5050505050919050565b611f406125ad565b6000611f4b83611d44565b1515611f5657600080fd5b611f5f83612477565b83519383529092016020820152919050565b6000611f7b612596565b50508051602080820151915192015191011190565b611f98612596565b600080611fa484611f71565b156101195783602001519150611fb9826124f7565b828452602080850182905283820190860152905061192d565b600080826020015160001415611feb5760009150611d70565b5050515160c060009190911a1090565b600080600080600061200c86611fd2565b151561201757600080fd5b8551805160001a9350915060808310156120375781945060019350612070565b60b88310156120555760018660200151039350816001019450612070565b60b78303905080600187602001510303935080820160010194505b505050915091565b60006020601f83010484602085015b8284146120a557602084028281015190820152600190930192612087565b6000865160200187015250505050505050565b600080826014018451101515156120ce57600080fd5b505001602001516c01000000000000000000000000900490565b600154604080517f32590654000000000000000000000000000000000000000000000000000000008152600481018790529051600092839283928392600160a060020a03169163325906549160248083019260a092919082900301818787803b15801561215457600080fd5b505af1158015612168573d6000803e3d6000fd5b505050506040513d60a081101561217e57600080fd5b50602081015160408201516060909201519094509092509050600160a060020a038084169088161480156121c3575085600160a060020a031682600160a060020a0316145b80156121ce57508481145b156121dc57600193506121e1565b600093505b505050949350505050565b60006060865160031415156122045760009150612313565b61221687600181518110151561105c57fe5b90508051600114801561224b575084600160a060020a031661224088600081518110151561143a57fe5b600160a060020a0316145b8015612289575080517f4e2ca0515ed1aef1395f66b5303bb5d6f1bf9d61a353fa53f73f8ac9973fa9f6906122879083906000908110610e2757fe5b145b80156122af5750826122ad6122a6896002815181101515610de257fe5b6000611e2b565b145b801561230057506122d26122cb886002815181101515610de257fe5b6040611e2b565b6122fe846122f26122eb8b6002815181101515610de257fe5b6020611e2b565b9063ffffffff61258416565b145b1561230e5760019150612313565b600091505b5095945050505050565b60006060865160031415156123355760009150612313565b61234787600181518110151561105c57fe5b90508051600414801561238257506004548751600160a060020a0390911690612377908990600090811061143a57fe5b600160a060020a0316145b80156123c0575080517fec3afb067bce33c5a294470ec5b29e6759301cd3928550490c6d48816cdc2f5d906123be9083906000908110610e2757fe5b145b80156123f8575085600160a060020a03166123ed6123e6836001815181101515610de257fe5b600c6120b8565b600160a060020a0316145b8015612429575084600160a060020a031661241e6123e6836002815181101515610de257fe5b600160a060020a0316145b801561245a575083600160a060020a031661244f6123e6836003815181101515610de257fe5b600160a060020a0316145b80156123005750826122fe6122a6896002815181101515610de257fe5b6000806000836020015160001415612492576000925061192d565b50508151805160001a9060808210156124ae576000925061192d565b60b88210806124c9575060c082101580156124c9575060f882105b156124d7576001925061192d565b60c08210156124ec5760b5198201925061192d565b5060f5190192915050565b8051600090811a60808110156125105760019150611d70565b60b881101561252557607e1981019150611d70565b60c081101561254e57600183015160b76020839003016101000a9004810160b519019150611d70565b60f88110156125635760be1981019150611d70565b6001929092015160f76020849003016101000a900490910160f51901919050565b600082820183811015611d9c57600080fd5b604080518082019091526000808252602082015290565b6060604051908101604052806125c1612596565b81526020016000815250905600a165627a7a723058209de8f0d226ed362362262dae58d7cb3f9be6f6802231a476baa619fcaa44e2130029",
  "source": "pragma solidity ^0.4.24;\n\nimport { SafeMath } from \"openzeppelin-solidity/contracts/math/SafeMath.sol\";\n\nimport { RLP } from \"../lib/RLP.sol\";\nimport { BytesLib } from \"../lib/BytesLib.sol\";\n\nimport { RootChainValidator } from \"../mixin/RootChainValidator.sol\";\nimport { IRootChain } from \"../root/IRootChain.sol\";\n\n\ncontract DepositValidator is RootChainValidator {\n  using SafeMath for uint256;\n  using RLP for bytes;\n  using RLP for RLP.RLPItem;\n  using RLP for RLP.Iterator;\n\n    // 0x487cda0d = keccak256('depositTokens(address,address,uint256,uint256)')\n  bytes4 constant public DEPOSIT_TOKENS_SIGNATURE = 0x487cda0d;\n  // keccak256('TokenDeposited(address,address,address,uint256,uint256)')\n  bytes32 constant public TOKEN_DEPOSITED_EVENT_SIGNATURE = 0xec3afb067bce33c5a294470ec5b29e6759301cd3928550490c6d48816cdc2f5d;\n  // keccak256('Deposit(address,address,uint256,uint256,uint256)')\n  bytes32 constant public DEPOSIT_EVENT_SIGNATURE = 0x4e2ca0515ed1aef1395f66b5303bb5d6f1bf9d61a353fa53f73f8ac9973fa9f6;\n\n  // validate deposit\n  function validateDepositTx(\n    bytes depositTx\n  ) public {\n    // validate first transaction\n    RLP.RLPItem[] memory txData = depositTx.toRLPItem().toList();\n    // validate tx receipt existence\n    require(\n      validateTxReceiptExistence(\n        txData[0].toUint(), // headerNumber\n        txData[1].toData(), // headerProof,\n\n        txData[2].toUint(), // blockNumber,\n        txData[3].toUint(), // blockTime,\n\n        txData[4].toBytes32(), // txRoot,\n        txData[5].toBytes32(), // receiptRoot,\n        txData[6].toData(), // path,\n\n        txData[7].toData(), // txBytes,\n        txData[8].toData(), // txProof\n\n        txData[9].toData(), // receiptBytes,\n        txData[10].toData() // receiptProof\n      )\n    );\n\n    // actual validation\n    if (!_validateDepositTx(txData[7].toData(), txData[9].toData())) {\n      IRootChain(rootChain).slash();\n    }\n  }\n\n  function validateDuplicateDepositTx(\n    bytes tx1,\n    bytes tx2\n  ) public {\n    // check if both transactions are not same\n    require(keccak256(tx1) != keccak256(tx2));\n\n    // validate first transaction\n    RLP.RLPItem[] memory txData = tx1.toRLPItem().toList();\n    require(\n      validateTxExistence(\n        txData[0].toUint(), // headerNumber\n        txData[1].toData(), // headerProof,\n\n        txData[2].toUint(), // blockNumber,\n        txData[3].toUint(), // blockTime,\n\n        txData[4].toBytes32(), // txRoot,\n        txData[5].toBytes32(), // receiptRoot,\n        txData[6].toData(), // path,\n\n        txData[7].toData(), // txBytes,\n        txData[8].toData() // txProof\n      )\n    );\n\n    bytes memory txBytes = txData[7].toData(); // fetch tx bytes\n    RLP.RLPItem[] memory items = txBytes.toRLPItem().toList(); // fetch tx items\n    bytes memory dataField = items[5].toData(); // fetch data field\n    // check if `to` field is child root contract and see if tx is deposit tx\n    require(\n      childChainContract == items[3].toAddress() &&\n      BytesLib.toBytes4(BytesLib.slice(dataField, 0, 4)) == DEPOSIT_TOKENS_SIGNATURE\n    );\n    uint256 depositCount1 = BytesLib.toUint(dataField, 100); // store depositCount from tx1\n\n    //\n    // Check for second tx\n    //\n\n    // validate second transaction\n    txData = tx2.toRLPItem().toList();\n\n    // validate tx receipt existence\n    require(\n      validateTxExistence(\n        txData[0].toUint(), // headerNumber\n        txData[1].toData(), // headerProof,\n\n        txData[2].toUint(), // blockNumber,\n        txData[3].toUint(), // blockTime,\n\n        txData[4].toBytes32(), // txRoot,\n        txData[5].toBytes32(), // receiptRoot,\n        txData[6].toData(), // path,\n\n        txData[7].toData(), // txBytes,\n        txData[8].toData() // txProof\n      )\n    );\n\n    txBytes = txData[7].toData();\n    items = txBytes.toRLPItem().toList();\n    dataField = items[5].toData();\n    require(\n      childChainContract == items[3].toAddress() &&\n      keccak256(BytesLib.slice(dataField, 0, 4)) == DEPOSIT_TOKENS_SIGNATURE\n    );\n\n    // check if both depositCounts are same\n    if (BytesLib.toUint(dataField, 100) == depositCount1) {\n      IRootChain(rootChain).slash();\n      return;\n    }\n\n    // revert if challenge is not valid\n    revert(\"Invalid deposit duplicate challenge\");\n  }\n\n  //\n  // Internal functions\n  //\n\n  // validate deposit\n  function _validateDepositTx(bytes txData, bytes receiptData) internal returns (bool) {\n    // check transaction\n    RLP.RLPItem[] memory items = txData.toRLPItem().toList();\n    require(items.length == 9);\n\n    // check if `to` field is child root contract\n    require(childChainContract == items[3].toAddress());\n\n    // check if transaction is depositTokens tx\n    // <4 bytes depositTokens signature, root token address(32 bytes), user address (32 bytes), amount (32 bytes), depositCount (32 bytes)>\n    bytes memory dataField = items[5].toData();\n    require(keccak256(BytesLib.slice(dataField, 0, 4)) == DEPOSIT_TOKENS_SIGNATURE);\n\n    // check data length\n    if (dataField.length != 132) {\n      return false;\n    }\n\n    address rootToken = BytesLib.toAddress(dataField, 16);\n    address depositor = BytesLib.toAddress(dataField, 48);\n    uint256 amount = BytesLib.toUint(dataField, 68);\n    uint256 depositCount = BytesLib.toUint(dataField, 100);\n    address childToken = depositManager.tokens(rootToken);\n\n    // get receipt data\n    items = receiptData.toRLPItem().toList();\n\n    /*\n      check receipt and data field\n      Receipt -->\n        [0]\n        [1]\n        [2]\n        [3]-> [\n          [child token address, [DEPOSIT_EVENT_SIGNATURE, rootToken, depositor], <amount>],\n          [child token address, [LOG_DEPOSIT_EVENT_SIGNATURE], <amount,input1,output1>]\n          [child root contract address, [TOKEN_DEPOSITED_EVENT_SIGNATURE, rootToken, childToken, depositor], <amount,depositCount>]\n        ]\n    */\n    if (\n      childToken != address(0) &&\n      items.length == 4 &&\n      items[3].toList().length == 3 &&\n      _validateDataField(depositCount, rootToken, depositor, amount) &&\n      _validateDepositEvent(items[3].toList()[1].toList(), rootToken, childToken, depositor, amount) &&\n      _validateTokenDepositedEvent(items[3].toList()[2].toList(), rootToken, childToken, depositor, amount)\n    ) {\n      return true;\n    }\n\n    return false;\n  }\n\n  function _validateDataField(\n    uint256 depositCount,\n    address rootToken,\n    address depositor,\n    uint256 amount\n  ) internal returns (bool) {\n    address _rootToken;\n    address _depositor;\n    uint256 _amount;\n\n    // fetch deposit block\n    (,_rootToken, _depositor, _amount,) = IRootChain(rootChain).depositBlock(depositCount);\n\n    if (\n      _rootToken == rootToken &&\n      _depositor == depositor &&\n      _amount == amount\n    ) {\n      return true;\n    }\n    return false;\n  }\n\n  function _validateDepositEvent(\n    RLP.RLPItem[] items,\n    address rootToken,\n    address childToken,\n    address depositor,\n    uint256 amount\n  ) internal returns (bool) {\n    if (items.length != 3) {\n      return false;\n    }\n\n    RLP.RLPItem[] memory topics = items[1].toList();\n    if (\n      topics.length == 1 &&\n      items[0].toAddress() == childToken &&\n      topics[0].toBytes32() == DEPOSIT_EVENT_SIGNATURE &&\n      BytesLib.toUint(items[2].toData(), 0) == amount &&\n      BytesLib.toUint(items[2].toData(), 32).add(amount) == BytesLib.toUint(items[2].toData(), 64)\n    ) {\n      return true;\n    }\n\n    return false;\n  }\n\n  function _validateTokenDepositedEvent(\n    RLP.RLPItem[] items,\n    address rootToken,\n    address childToken,\n    address depositor,\n    uint256 amount\n  ) internal returns (bool) {\n    if (items.length != 3) {\n      return false;\n    }\n\n    RLP.RLPItem[] memory topics = items[1].toList();\n    if (\n      topics.length == 4 &&\n      items[0].toAddress() == childChainContract &&\n      topics[0].toBytes32() == TOKEN_DEPOSITED_EVENT_SIGNATURE &&\n      BytesLib.toAddress(topics[1].toData(), 12) == rootToken &&\n      BytesLib.toAddress(topics[2].toData(), 12) == childToken &&\n      BytesLib.toAddress(topics[3].toData(), 12) == depositor &&\n      BytesLib.toUint(items[2].toData(), 0) == amount\n    ) {\n      return true;\n    }\n\n    return false;\n  }\n}\n",
  "sourcePath": "/Users/atvanguard/matic/contracts/contracts/proofs/DepositValidator.sol",
  "compiler": {
    "name": "solc",
    "version": "0.4.24+commit.e67f0147.Emscripten.clang"
  },
  "schemaVersion": "2.0.1",
  "updatedAt": "2019-12-07T09:11:33.311Z"
}