{
  "contractName": "DepositManagerProxy",
  "abi": [
    {
      "constant": false,
      "inputs": [
        {
          "name": "_newProxyTo",
          "type": "address"
        }
      ],
      "name": "updateImplementation",
      "outputs": [],
      "payable": false,
      "stateMutability": "nonpayable",
      "type": "function"
    },
    {
      "constant": true,
      "inputs": [],
      "name": "childChain",
      "outputs": [
        {
          "name": "",
          "type": "address"
        }
      ],
      "payable": false,
      "stateMutability": "view",
      "type": "function"
    },
    {
      "constant": true,
      "inputs": [],
      "name": "proxyType",
      "outputs": [
        {
          "name": "proxyTypeId",
          "type": "uint256"
        }
      ],
      "payable": false,
      "stateMutability": "pure",
      "type": "function"
    },
    {
      "constant": true,
      "inputs": [],
      "name": "implementation",
      "outputs": [
        {
          "name": "",
          "type": "address"
        }
      ],
      "payable": false,
      "stateMutability": "view",
      "type": "function"
    },
    {
      "constant": false,
      "inputs": [],
      "name": "renounceOwnership",
      "outputs": [],
      "payable": false,
      "stateMutability": "nonpayable",
      "type": "function"
    },
    {
      "constant": true,
      "inputs": [],
      "name": "owner",
      "outputs": [
        {
          "name": "",
          "type": "address"
        }
      ],
      "payable": false,
      "stateMutability": "view",
      "type": "function"
    },
    {
      "constant": true,
      "inputs": [],
      "name": "isOwner",
      "outputs": [
        {
          "name": "",
          "type": "bool"
        }
      ],
      "payable": false,
      "stateMutability": "view",
      "type": "function"
    },
    {
      "constant": true,
      "inputs": [
        {
          "name": "",
          "type": "uint256"
        }
      ],
      "name": "deposits",
      "outputs": [
        {
          "name": "depositHash",
          "type": "bytes32"
        },
        {
          "name": "createdAt",
          "type": "uint256"
        }
      ],
      "payable": false,
      "stateMutability": "view",
      "type": "function"
    },
    {
      "constant": true,
      "inputs": [],
      "name": "stateSender",
      "outputs": [
        {
          "name": "",
          "type": "address"
        }
      ],
      "payable": false,
      "stateMutability": "view",
      "type": "function"
    },
    {
      "constant": false,
      "inputs": [
        {
          "name": "newOwner",
          "type": "address"
        }
      ],
      "name": "transferOwnership",
      "outputs": [],
      "payable": false,
      "stateMutability": "nonpayable",
      "type": "function"
    },
    {
      "inputs": [
        {
          "name": "_proxyTo",
          "type": "address"
        },
        {
          "name": "_registry",
          "type": "address"
        },
        {
          "name": "_rootChain",
          "type": "address"
        }
      ],
      "payable": false,
      "stateMutability": "nonpayable",
      "type": "constructor"
    },
    {
      "payable": true,
      "stateMutability": "payable",
      "type": "fallback"
    },
    {
      "anonymous": false,
      "inputs": [
        {
          "indexed": true,
          "name": "owner",
          "type": "address"
        },
        {
          "indexed": true,
          "name": "token",
          "type": "address"
        },
        {
          "indexed": false,
          "name": "amountOrNFTId",
          "type": "uint256"
        },
        {
          "indexed": false,
          "name": "depositBlockId",
          "type": "uint256"
        }
      ],
      "name": "NewDepositBlock",
      "type": "event"
    },
    {
      "anonymous": false,
      "inputs": [
        {
          "indexed": true,
          "name": "_new",
          "type": "address"
        },
        {
          "indexed": true,
          "name": "_old",
          "type": "address"
        }
      ],
      "name": "ProxyUpdated",
      "type": "event"
    },
    {
      "anonymous": false,
      "inputs": [
        {
          "indexed": false,
          "name": "_prevOwner",
          "type": "address"
        },
        {
          "indexed": false,
          "name": "_newOwner",
          "type": "address"
        }
      ],
      "name": "OwnerUpdate",
      "type": "event"
    },
    {
      "anonymous": false,
      "inputs": [
        {
          "indexed": true,
          "name": "previousOwner",
          "type": "address"
        },
        {
          "indexed": true,
          "name": "newOwner",
          "type": "address"
        }
      ],
      "name": "OwnershipTransferred",
      "type": "event"
    }
  ],
  "bytecode": "0x608060405234801561001057600080fd5b506040516060806107e08339810180604052606081101561003057600080fd5b5080516020820151604092830151600080546001600160a01b0319163317808255945193949293919285926001600160a01b039190911691907f8be0079c531659141344cd1fd0a4f28419497f9722a3daafe3b4186f6b6457e0908290a361009d816100d060201b60201c565b50600280546001600160a01b039384166001600160a01b0319918216179091556003805492909316911617905550610251565b6100de61021d60201b60201c565b6100e757600080fd5b6001600160a01b03811661015c57604080517f08c379a000000000000000000000000000000000000000000000000000000000815260206004820152601560248201527f494e56414c49445f50524f58595f414444524553530000000000000000000000604482015290519081900360640190fd5b61016b8161022e60201b60201c565b6101c0576040517f08c379a00000000000000000000000000000000000000000000000000000000081526004018080602001828103825260258152602001806107bb6025913960400191505060405180910390fd5b6001546040516001600160a01b03918216918316907fd32d24edea94f55e932d9a008afc425a8561462d1b1f57bc6e508e9a6b9509e190600090a3600180546001600160a01b0319166001600160a01b0392909216919091179055565b6000546001600160a01b0316331490565b60006001600160a01b0382166102465750600061024c565b50803b15155b919050565b61055b806102606000396000f3fe6080604052600436106100915760003560e01c80638da5cb5b116100595780638da5cb5b146101925780638f32d59b146101a7578063b02c43d0146101d0578063cb10f94c14610213578063f2fde38b1461022857610091565b8063025b22bc146100dd57806342fc47fb146101105780634555d5c9146101415780635c60da1b14610168578063715018a61461017d575b60015460408051602036601f81018290048202830182019093528282526100db936001600160a01b0316926000918190840183828082843760009201919091525061025b92505050565b005b3480156100e957600080fd5b506100db6004803603602081101561010057600080fd5b50356001600160a01b0316610283565b34801561011c57600080fd5b50610125610396565b604080516001600160a01b039092168252519081900360200190f35b34801561014d57600080fd5b506101566103a5565b60408051918252519081900360200190f35b34801561017457600080fd5b506101256103aa565b34801561018957600080fd5b506100db6103b9565b34801561019e57600080fd5b50610125610414565b3480156101b357600080fd5b506101bc610423565b604080519115158252519081900360200190f35b3480156101dc57600080fd5b506101fa600480360360208110156101f357600080fd5b5035610434565b6040805192835260208301919091528051918290030190f35b34801561021f57600080fd5b5061012561044d565b34801561023457600080fd5b506100db6004803603602081101561024b57600080fd5b50356001600160a01b031661045c565b600080825160208401856127105a03f43d604051816000823e82801561027f578282f35b8282fd5b61028b610423565b61029457600080fd5b6001600160a01b0381166102f25760408051600160e51b62461bcd02815260206004820152601560248201527f494e56414c49445f50524f58595f414444524553530000000000000000000000604482015290519081900360640190fd5b6102fb81610479565b61033957604051600160e51b62461bcd02815260040180806020018281038252602581526020018061050b6025913960400191505060405180910390fd5b6001546040516001600160a01b03918216918316907fd32d24edea94f55e932d9a008afc425a8561462d1b1f57bc6e508e9a6b9509e190600090a3600180546001600160a01b0319166001600160a01b0392909216919091179055565b6006546001600160a01b031681565b600290565b6001546001600160a01b031690565b6103c1610423565b6103ca57600080fd5b600080546040516001600160a01b03909116907f8be0079c531659141344cd1fd0a4f28419497f9722a3daafe3b4186f6b6457e0908390a3600080546001600160a01b0319169055565b6000546001600160a01b031690565b6000546001600160a01b0316331490565b6005602052600090815260409020805460019091015482565b6004546001600160a01b031681565b610464610423565b61046d57600080fd5b6104768161049c565b50565b60006001600160a01b03821661049157506000610497565b50803b15155b919050565b6001600160a01b0381166104af57600080fd5b600080546040516001600160a01b03808516939216917f8be0079c531659141344cd1fd0a4f28419497f9722a3daafe3b4186f6b6457e091a3600080546001600160a01b0319166001600160a01b039290921691909117905556fe44455354494e4154494f4e5f414444524553535f49535f4e4f545f415f434f4e5452414354a165627a7a7230582073d2e216b80a0926cd3d6bf6e4f34cfbf29d062449193f10fec88c24574e756f002944455354494e4154494f4e5f414444524553535f49535f4e4f545f415f434f4e5452414354",
  "source": "pragma solidity ^0.5.2;\n\nimport { DepositManagerStorage } from \"./DepositManagerStorage.sol\";\nimport { Proxy } from \"../../common/misc/Proxy.sol\";\nimport { Registry } from \"../../common/Registry.sol\";\nimport { RootChain } from \"../RootChain.sol\";\n\n\ncontract DepositManagerProxy is Proxy, DepositManagerStorage {\n  constructor(address _proxyTo, address _registry, address _rootChain)\n    public\n    Proxy(_proxyTo)\n  {\n    registry = Registry(_registry);\n    rootChain = RootChain(_rootChain);\n  }\n}\n",
  "sourcePath": "/Users/arpit/projects/contracts/contracts/root/depositManager/DepositManagerProxy.sol",
  "compiler": {
    "name": "solc",
    "version": "0.5.7+commit.6da8b019.Emscripten.clang"
  },
  "schemaVersion": "3.0.16",
  "updatedAt": "2019-09-21T10:53:39.103Z",
  "devdoc": {
    "methods": {
      "isOwner()": {
        "return": "true if `msg.sender` is the owner of the contract."
      },
      "owner()": {
        "return": "the address of the owner."
      },
      "renounceOwnership()": {
        "details": "Allows the current owner to relinquish control of the contract. It will not be possible to call the functions with the `onlyOwner` modifier anymore."
      },
      "transferOwnership(address)": {
        "details": "Allows the current owner to transfer control of the contract to a newOwner.",
        "params": {
          "newOwner": "The address to transfer ownership to."
        }
      }
    }
  },
  "userdoc": {
    "methods": {
      "renounceOwnership()": {
        "notice": "Renouncing ownership will leave the contract without an owner, thereby removing any functionality that is only available to the owner."
      }
    }
  }
}