{
  "contractName": "DepositManager",
  "abi": [
    {
      "constant": true,
      "inputs": [],
      "name": "childChain",
      "outputs": [
        {
          "name": "",
          "type": "address"
        }
      ],
      "payable": false,
      "stateMutability": "view",
      "type": "function"
    },
    {
      "constant": false,
      "inputs": [],
      "name": "renounceOwnership",
      "outputs": [],
      "payable": false,
      "stateMutability": "nonpayable",
      "type": "function"
    },
    {
      "constant": true,
      "inputs": [],
      "name": "owner",
      "outputs": [
        {
          "name": "",
          "type": "address"
        }
      ],
      "payable": false,
      "stateMutability": "view",
      "type": "function"
    },
    {
      "constant": true,
      "inputs": [],
      "name": "isOwner",
      "outputs": [
        {
          "name": "",
          "type": "bool"
        }
      ],
      "payable": false,
      "stateMutability": "view",
      "type": "function"
    },
    {
      "constant": true,
      "inputs": [
        {
          "name": "",
          "type": "uint256"
        }
      ],
      "name": "deposits",
      "outputs": [
        {
          "name": "depositHash",
          "type": "bytes32"
        },
        {
          "name": "createdAt",
          "type": "uint256"
        }
      ],
      "payable": false,
      "stateMutability": "view",
      "type": "function"
    },
    {
      "constant": true,
      "inputs": [],
      "name": "stateSender",
      "outputs": [
        {
          "name": "",
          "type": "address"
        }
      ],
      "payable": false,
      "stateMutability": "view",
      "type": "function"
    },
    {
      "constant": false,
      "inputs": [
        {
          "name": "newOwner",
          "type": "address"
        }
      ],
      "name": "transferOwnership",
      "outputs": [],
      "payable": false,
      "stateMutability": "nonpayable",
      "type": "function"
    },
    {
      "payable": true,
      "stateMutability": "payable",
      "type": "fallback"
    },
    {
      "anonymous": false,
      "inputs": [
        {
          "indexed": true,
          "name": "owner",
          "type": "address"
        },
        {
          "indexed": true,
          "name": "token",
          "type": "address"
        },
        {
          "indexed": false,
          "name": "amountOrNFTId",
          "type": "uint256"
        },
        {
          "indexed": false,
          "name": "depositBlockId",
          "type": "uint256"
        }
      ],
      "name": "NewDepositBlock",
      "type": "event"
    },
    {
      "anonymous": false,
      "inputs": [
        {
          "indexed": true,
          "name": "previousOwner",
          "type": "address"
        },
        {
          "indexed": true,
          "name": "newOwner",
          "type": "address"
        }
      ],
      "name": "OwnershipTransferred",
      "type": "event"
    },
    {
      "constant": false,
      "inputs": [],
      "name": "updateChildChainAndStateSender",
      "outputs": [],
      "payable": false,
      "stateMutability": "nonpayable",
      "type": "function"
    },
    {
      "constant": false,
      "inputs": [
        {
          "name": "_token",
          "type": "address"
        },
        {
          "name": "_user",
          "type": "address"
        },
        {
          "name": "_amountOrNFTId",
          "type": "uint256"
        }
      ],
      "name": "transferAssets",
      "outputs": [],
      "payable": false,
      "stateMutability": "nonpayable",
      "type": "function"
    },
    {
      "constant": false,
      "inputs": [
        {
          "name": "_token",
          "type": "address"
        },
        {
          "name": "_amount",
          "type": "uint256"
        }
      ],
      "name": "depositERC20",
      "outputs": [],
      "payable": false,
      "stateMutability": "nonpayable",
      "type": "function"
    },
    {
      "constant": false,
      "inputs": [
        {
          "name": "_token",
          "type": "address"
        },
        {
          "name": "_tokenId",
          "type": "uint256"
        }
      ],
      "name": "depositERC721",
      "outputs": [],
      "payable": false,
      "stateMutability": "nonpayable",
      "type": "function"
    },
    {
      "constant": false,
      "inputs": [
        {
          "name": "_tokens",
          "type": "address[]"
        },
        {
          "name": "_amountOrTokens",
          "type": "uint256[]"
        },
        {
          "name": "_user",
          "type": "address"
        }
      ],
      "name": "depositBulk",
      "outputs": [],
      "payable": false,
      "stateMutability": "nonpayable",
      "type": "function"
    },
    {
      "constant": false,
      "inputs": [
        {
          "name": "_token",
          "type": "address"
        },
        {
          "name": "_user",
          "type": "address"
        },
        {
          "name": "_amount",
          "type": "uint256"
        }
      ],
      "name": "depositERC20ForUser",
      "outputs": [],
      "payable": false,
      "stateMutability": "nonpayable",
      "type": "function"
    },
    {
      "constant": false,
      "inputs": [
        {
          "name": "_token",
          "type": "address"
        },
        {
          "name": "_user",
          "type": "address"
        },
        {
          "name": "_tokenId",
          "type": "uint256"
        }
      ],
      "name": "depositERC721ForUser",
      "outputs": [],
      "payable": false,
      "stateMutability": "nonpayable",
      "type": "function"
    },
    {
      "constant": false,
      "inputs": [],
      "name": "depositEther",
      "outputs": [],
      "payable": true,
      "stateMutability": "payable",
      "type": "function"
    },
    {
      "constant": false,
      "inputs": [
        {
          "name": "",
          "type": "address"
        },
        {
          "name": "_user",
          "type": "address"
        },
        {
          "name": "_tokenId",
          "type": "uint256"
        },
        {
          "name": "",
          "type": "bytes"
        }
      ],
      "name": "onERC721Received",
      "outputs": [
        {
          "name": "",
          "type": "bytes4"
        }
      ],
      "payable": false,
      "stateMutability": "nonpayable",
      "type": "function"
    },
    {
      "constant": false,
      "inputs": [
        {
          "name": "_user",
          "type": "address"
        },
        {
          "name": "_amount",
          "type": "uint256"
        },
        {
          "name": "",
          "type": "bytes"
        }
      ],
      "name": "tokenFallback",
      "outputs": [],
      "payable": false,
      "stateMutability": "nonpayable",
      "type": "function"
    }
  ],
  "bytecode": "0x60806040819052600080546001600160a01b03191633178082556001600160a01b0316917f8be0079c531659141344cd1fd0a4f28419497f9722a3daafe3b4186f6b6457e0908290a36115fb806100576000396000f3fe6080604052600436106100fe5760003560e01c80638da5cb5b11610095578063b02c43d011610064578063b02c43d014610465578063c0ee0b8a146104a8578063cb10f94c1461056e578063d29a4bf614610583578063f2fde38b146105bc576100fe565b80638da5cb5b146103ee5780638f32d59b1461040357806397feb9261461042c57806398ea5fca146100fe576100fe565b806349f4cc17116100d157806349f4cc171461027f578063715018a6146102c25780637b1f7117146102d75780638b9e4f93146103ab576100fe565b8063072b153514610108578063150b7a021461014b57806342be83791461023957806342fc47fb1461024e575b6101066105ef565b005b34801561011457600080fd5b506101066004803603606081101561012b57600080fd5b506001600160a01b038135811691602081013590911690604001356106d7565b34801561015757600080fd5b5061021c6004803603608081101561016e57600080fd5b6001600160a01b03823581169260208101359091169160408201359190810190608081016060820135600160201b8111156101a857600080fd5b8201836020820111156101ba57600080fd5b803590602001918460018302840111600160201b831117156101db57600080fd5b91908080601f016020809104026020016040519081016040528093929190818152602001838380828437600092019190915250929550610756945050505050565b604080516001600160e01b03199092168252519081900360200190f35b34801561024557600080fd5b50610106610777565b34801561025a57600080fd5b5061026361088e565b604080516001600160a01b039092168252519081900360200190f35b34801561028b57600080fd5b50610106600480360360608110156102a257600080fd5b506001600160a01b0381358116916020810135909116906040013561089d565b3480156102ce57600080fd5b50610106610c40565b3480156102e357600080fd5b50610106600480360360608110156102fa57600080fd5b810190602081018135600160201b81111561031457600080fd5b82018360208201111561032657600080fd5b803590602001918460208302840111600160201b8311171561034757600080fd5b919390929091602081019035600160201b81111561036457600080fd5b82018360208201111561037657600080fd5b803590602001918460208302840111600160201b8311171561039757600080fd5b9193509150356001600160a01b0316610c9b565b3480156103b757600080fd5b50610106600480360360608110156103ce57600080fd5b506001600160a01b03813581169160208101359091169060400135611067565b3480156103fa57600080fd5b5061026361114a565b34801561040f57600080fd5b50610418611159565b604080519115158252519081900360200190f35b34801561043857600080fd5b506101066004803603604081101561044f57600080fd5b506001600160a01b03813516906020013561116a565b34801561047157600080fd5b5061048f6004803603602081101561048857600080fd5b5035611175565b6040805192835260208301919091528051918290030190f35b3480156104b457600080fd5b50610106600480360360608110156104cb57600080fd5b6001600160a01b0382351691602081013591810190606081016040820135600160201b8111156104fa57600080fd5b82018360208201111561050c57600080fd5b803590602001918460018302840111600160201b8311171561052d57600080fd5b91908080601f01602080910402602001604051908101604052809392919081815260200183838082843760009201919091525092955061118e945050505050565b34801561057a57600080fd5b50610263611199565b34801561058f57600080fd5b50610106600480360360408110156105a657600080fd5b506001600160a01b0381351690602001356111a8565b3480156105c857600080fd5b50610106600480360360208110156105df57600080fd5b50356001600160a01b03166111b3565b60025460408051600160e01b638b9c948902815290516000926001600160a01b031691638b9c9489916004808301926020929190829003018186803b15801561063757600080fd5b505afa15801561064b573d6000803e3d6000fd5b505050506040513d602081101561066157600080fd5b505160408051600160e41b630d0e30db028152905191925082916001600160a01b0383169163d0e30db091349160048082019260009290919082900301818588803b1580156106af57600080fd5b505af11580156106c3573d6000803e3d6000fd5b50505050506106d33383346111d0565b5050565b60408051600160e01b6323b872dd0281523360048201523060248201526044810183905290516001600160a01b038516916323b872dd91606480830192600092919082900301818387803b15801561072e57600080fd5b505af1158015610742573d6000803e3d6000fd5b505050506107518284836111d0565b505050565b60006107638433856111d0565b50600160e11b630a85bd0102949350505050565b60025460408051600160e31b630c91702f028152815160009384936001600160a01b039091169263648b81789260048083019392829003018186803b1580156107bf57600080fd5b505afa1580156107d3573d6000803e3d6000fd5b505050506040513d60408110156107e957600080fd5b50805160209091015160045491935091506001600160a01b03808316911614158061082257506006546001600160a01b03838116911614155b61086057604051600160e51b62461bcd02815260040180806020018281038252603e815260200180611592603e913960400191505060405180910390fd5b600680546001600160a01b039384166001600160a01b03199182161790915560048054929093169116179055565b6006546001600160a01b031681565b600260009054906101000a90046001600160a01b03166001600160a01b031663930df82e6040518163ffffffff1660e01b815260040160206040518083038186803b1580156108eb57600080fd5b505afa1580156108ff573d6000803e3d6000fd5b505050506040513d602081101561091557600080fd5b50516001600160a01b0316331461096057604051600160e51b62461bcd0281526004018080602001828103825260228152602001806115706022913960400191505060405180910390fd5b60025460408051600160e01b638b9c948902815290516000926001600160a01b031691638b9c9489916004808301926020929190829003018186803b1580156109a857600080fd5b505afa1580156109bc573d6000803e3d6000fd5b505050506040513d60208110156109d257600080fd5b505160025460408051600160e21b6336a827950281526001600160a01b038881166004830152915193945091169163daa09e5491602480820192602092909190829003018186803b158015610a2657600080fd5b505afa158015610a3a573d6000803e3d6000fd5b505050506040513d6020811015610a5057600080fd5b505115610acf5760408051600160e01b6323b872dd0281523060048201526001600160a01b038581166024830152604482018590529151918616916323b872dd9160648082019260009290919082900301818387803b158015610ab257600080fd5b505af1158015610ac6573d6000803e3d6000fd5b50505050610c3a565b806001600160a01b0316846001600160a01b03161415610b5a5760408051600160e11b627b8a67028152600481018490526001600160a01b0385811660248301529151869283169162f714ce91604480830192600092919082900301818387803b158015610b3c57600080fd5b505af1158015610b50573d6000803e3d6000fd5b5050505050610c3a565b836001600160a01b031663a9059cbb84846040518363ffffffff1660e01b815260040180836001600160a01b03166001600160a01b0316815260200182815260200192505050602060405180830381600087803b158015610bba57600080fd5b505af1158015610bce573d6000803e3d6000fd5b505050506040513d6020811015610be457600080fd5b5051610c3a5760408051600160e51b62461bcd02815260206004820152600f60248201527f5452414e534645525f4641494c45440000000000000000000000000000000000604482015290519081900360640190fd5b50505050565b610c48611159565b610c5157600080fd5b600080546040516001600160a01b03909116907f8be0079c531659141344cd1fd0a4f28419497f9722a3daafe3b4186f6b6457e0908390a3600080546001600160a01b0319169055565b838214610cf25760408051600160e51b62461bcd02815260206004820152600d60248201527f496e76616c696420496e70757400000000000000000000000000000000000000604482015290519081900360640190fd5b60035460408051600160e01b635391f4830281526004810187905290516000926001600160a01b031691635391f48391602480830192602092919082900301818787803b158015610d4257600080fd5b505af1158015610d56573d6000803e3d6000fd5b505050506040513d6020811015610d6c57600080fd5b5051905060005b8581101561105e576002546001600160a01b03166301f07db5888884818110610d9857fe5b905060200201356001600160a01b03166040518263ffffffff1660e01b815260040180826001600160a01b03166001600160a01b0316815260200191505060206040518083038186803b158015610dee57600080fd5b505afa158015610e02573d6000803e3d6000fd5b505050506040513d6020811015610e1857600080fd5b505115610ee357868682818110610e2b57fe5b905060200201356001600160a01b03166001600160a01b03166323b872dd3330888886818110610e5757fe5b905060200201356040518463ffffffff1660e01b815260040180846001600160a01b03166001600160a01b03168152602001836001600160a01b03166001600160a01b031681526020018281526020019350505050600060405180830381600087803b158015610ec657600080fd5b505af1158015610eda573d6000803e3d6000fd5b5050505061100a565b868682818110610eef57fe5b905060200201356001600160a01b03166001600160a01b03166323b872dd3330888886818110610f1b57fe5b905060200201356040518463ffffffff1660e01b815260040180846001600160a01b03166001600160a01b03168152602001836001600160a01b03166001600160a01b031681526020018281526020019350505050602060405180830381600087803b158015610f8a57600080fd5b505af1158015610f9e573d6000803e3d6000fd5b505050506040513d6020811015610fb457600080fd5b505161100a5760408051600160e51b62461bcd02815260206004820152601560248201527f544f4b454e5f5452414e534645525f4641494c45440000000000000000000000604482015290519081900360640190fd5b6110438388888481811061101a57fe5b905060200201356001600160a01b031687878581811061103657fe5b9050602002013585611328565b61105482600163ffffffff6114e816565b9150600101610d73565b50505050505050565b60408051600160e01b6323b872dd0281523360048201523060248201526044810183905290516001600160a01b038516916323b872dd9160648083019260209291908290030181600087803b1580156110bf57600080fd5b505af11580156110d3573d6000803e3d6000fd5b505050506040513d60208110156110e957600080fd5b505161113f5760408051600160e51b62461bcd02815260206004820152601560248201527f544f4b454e5f5452414e534645525f4641494c45440000000000000000000000604482015290519081900360640190fd5b6107518284836111d0565b6000546001600160a01b031690565b6000546001600160a01b0316331490565b6106d3823383611067565b6005602052600090815260409020805460019091015482565b6107518333846111d0565b6004546001600160a01b031681565b6106d38233836106d7565b6111bb611159565b6111c457600080fd5b6111cd81611501565b50565b60025460408051600160e01b636416c1830281526001600160a01b038086166004830152915185939290921691636416c18391602480820192602092909190829003018186803b15801561122357600080fd5b505afa158015611237573d6000803e3d6000fd5b505050506040513d602081101561124d57600080fd5b50516112a35760408051600160e51b62461bcd02815260206004820152601360248201527f544f4b454e5f4e4f545f535550504f5254454400000000000000000000000000604482015290519081900360640190fd5b60035460408051600160e01b635391f483028152600160048201529051610c3a928792879287926001600160a01b031691635391f4839160248083019260209291908290030181600087803b1580156112fb57600080fd5b505af115801561130f573d6000803e3d6000fd5b505050506040513d602081101561132557600080fd5b50515b6040805180820182526001600160a01b03808716606081811b8185015282881680821b607486015260888086018990528651808703909101815260a88601875280516020918201208652428187019081526000898152600583528881209751885590516001909701969096556004546006548851808401969096528589019390935292840189905260808085018990528751808603909101815260a08501808952600160e01b6316f1983102905291851660a4850181815260c48601988952835160e4870152835194909616976316f1983197919693959394909361010401928601918190849084905b8381101561142a578181015183820152602001611412565b50505050905090810190601f1680156114575780820380516001836020036101000a031916815260200191505b509350505050600060405180830381600087803b15801561147757600080fd5b505af115801561148b573d6000803e3d6000fd5b50505050826001600160a01b0316846001600160a01b03167f1dadc8d0683c6f9824e885935c1bec6f76816730dcec148dda8cf25a7b9f797b8484604051808381526020018281526020019250505060405180910390a350505050565b6000828201838110156114fa57600080fd5b9392505050565b6001600160a01b03811661151457600080fd5b600080546040516001600160a01b03808516939216917f8be0079c531659141344cd1fd0a4f28419497f9722a3daafe3b4186f6b6457e091a3600080546001600160a01b0319166001600160a01b039290921691909117905556fe554e415554484f52495a45445f57495448445241575f4d414e414745525f4f4e4c5941746c65617374206f6e65206f6620737461746553656e646572206f72206368696c64436861696e20616464726573732073686f756c64206368616e6765a165627a7a723058206b764e76cf6642462e9b2d872db622e05cbf8047f9e487fd323368100327fdf60029",
  "source": "pragma solidity ^0.5.2;\n\nimport { IERC721Receiver } from \"openzeppelin-solidity/contracts/token/ERC721/IERC721Receiver.sol\";\nimport { IERC20 } from \"openzeppelin-solidity/contracts/token/ERC20/IERC20.sol\";\nimport { IERC721 } from \"openzeppelin-solidity/contracts/token/ERC721/IERC721.sol\";\nimport { SafeMath } from \"openzeppelin-solidity/contracts/math/SafeMath.sol\";\n\nimport { ContractReceiver } from \"../../common/misc/ContractReceiver.sol\";\nimport { Registry } from \"../../common/Registry.sol\";\nimport { WETH } from \"../../common/tokens/WETH.sol\";\nimport { IDepositManager } from \"./IDepositManager.sol\";\nimport { DepositManagerStorage } from \"./DepositManagerStorage.sol\";\nimport { StateSender } from \"../stateSyncer/StateSender.sol\";\n\n\ncontract DepositManager is DepositManagerStorage, IDepositManager, IERC721Receiver, ContractReceiver {\n  using SafeMath for uint256;\n\n  modifier isTokenMapped(address _token) {\n    require(registry.isTokenMapped(_token), \"TOKEN_NOT_SUPPORTED\");\n    _;\n  }\n\n  modifier onlyWithdrawManager() {\n    require(\n      msg.sender == registry.getWithdrawManagerAddress(),\n      \"UNAUTHORIZED_WITHDRAW_MANAGER_ONLY\"\n    );\n    _;\n  }\n\n  // deposit ETH by sending to this contract\n  function () external payable {\n    depositEther();\n  }\n\n  /**\n   * @dev Caches childChain and stateSender (frequently used variables) from registry\n   */\n  function updateChildChainAndStateSender() public {\n    (address _childChain, address _stateSender) = registry.getChildChainAndStateSender();\n    require(\n      _stateSender != address(stateSender) || _childChain != childChain,\n      \"Atleast one of stateSender or childChain address should change\"\n    );\n    childChain = _childChain;\n    stateSender = StateSender(_stateSender);\n  }\n\n  function transferAssets(address _token, address _user, uint256 _amountOrNFTId)\n    external\n    onlyWithdrawManager\n  {\n    address wethToken = registry.getWethTokenAddress();\n    if (registry.isERC721(_token)) {\n      IERC721(_token).transferFrom(address(this), _user, _amountOrNFTId);\n    } else if (_token == wethToken) {\n      WETH t = WETH(_token);\n      t.withdraw(_amountOrNFTId, _user);\n    } else {\n      require(\n        IERC20(_token).transfer(_user, _amountOrNFTId),\n        \"TRANSFER_FAILED\"\n      );\n    }\n  }\n\n  function depositERC20(address _token, uint256 _amount)\n    external\n  {\n    depositERC20ForUser(_token, msg.sender, _amount);\n  }\n\n  function depositERC721(address _token, uint256 _tokenId)\n    external\n  {\n    depositERC721ForUser(_token, msg.sender, _tokenId);\n  }\n\n  function depositBulk(address[] calldata _tokens, uint256[] calldata _amountOrTokens, address _user)\n    external\n  {\n    require(\n      _tokens.length == _amountOrTokens.length,\n      \"Invalid Input\"\n    );\n    uint256 depositId = rootChain.updateDepositId(_tokens.length);\n\n    for (uint256 i = 0; i < _tokens.length; i++) {\n      // will revert if token is not mapped\n      if (registry.isTokenMappedAndIsErc721(_tokens[i])) {\n        IERC721(_tokens[i]).transferFrom(msg.sender, address(this), _amountOrTokens[i]);\n      } else {\n        require(\n          IERC20(_tokens[i]).transferFrom(msg.sender, address(this), _amountOrTokens[i]),\n          \"TOKEN_TRANSFER_FAILED\"\n        );\n      }\n      _createDepositBlock(_user, _tokens[i], _amountOrTokens[i], depositId);\n      depositId = depositId.add(1);\n    }\n  }\n\n  function depositERC20ForUser(address _token, address _user, uint256 _amount)\n    public\n  {\n    require(\n      IERC20(_token).transferFrom(msg.sender, address(this), _amount),\n      \"TOKEN_TRANSFER_FAILED\"\n    );\n    _safeCreateDepositBlock(_user, _token, _amount);\n  }\n\n  function depositERC721ForUser(address _token, address _user, uint256 _tokenId)\n    public\n  {\n    IERC721(_token).transferFrom(msg.sender, address(this), _tokenId);\n    _safeCreateDepositBlock(_user, _token, _tokenId);\n  }\n\n  // @todo: write depositEtherForUser\n  function depositEther()\n    public\n    payable\n  {\n    address wethToken = registry.getWethTokenAddress();\n    WETH t = WETH(wethToken);\n    t.deposit.value(msg.value)();\n    _safeCreateDepositBlock(msg.sender, wethToken, msg.value);\n  }\n\n  /**\n   * @notice This will be invoked when safeTransferFrom is called on the token contract to deposit tokens to this contract\n     without directly interacting with it\n   * @dev msg.sender is the token contract\n   * _operator The address which called `safeTransferFrom` function on the token contract\n   * @param _user The address which previously owned the token\n   * @param _tokenId The NFT identifier which is being transferred\n   * _data Additional data with no specified format\n   * @return `bytes4(keccak256(\"onERC721Received(address,address,uint256,bytes)\"))`\n   */\n  function onERC721Received(address /* _operator */, address _user, uint256 _tokenId, bytes memory /* _data */)\n    public\n    returns (bytes4)\n  {\n    // the ERC721 contract address is the message sender\n    _safeCreateDepositBlock(_user, msg.sender /* token */, _tokenId);\n    return 0x150b7a02;\n  }\n\n  // See https://github.com/ethereum/EIPs/issues/223\n  function tokenFallback(address _user, uint256 _amount, bytes memory /* _data */)\n  public\n  {\n    _safeCreateDepositBlock(_user, msg.sender /* token */, _amount);\n  }\n\n  function _safeCreateDepositBlock(address _user, address _token, uint256 _amountOrToken)\n    internal\n    isTokenMapped(_token)\n  {\n    _createDepositBlock(_user, _token, _amountOrToken, rootChain.updateDepositId(1) /* returns _depositId */);\n  }\n\n  function _createDepositBlock(address _user, address _token, uint256 _amountOrToken, uint256 _depositId)\n    internal\n  {\n    deposits[_depositId] = DepositBlock(keccak256(abi.encodePacked(_user, _token, _amountOrToken)), now);\n    stateSender.syncState(childChain, abi.encode(_user, _token, _amountOrToken, _depositId));\n    emit NewDepositBlock(_user, _token, _amountOrToken, _depositId);\n  }\n}\n",
  "sourcePath": "/Users/arpit/projects/contracts/contracts/root/depositManager/DepositManager.sol",
  "compiler": {
    "name": "solc",
    "version": "0.5.7+commit.6da8b019.Emscripten.clang"
  },
  "schemaVersion": "3.0.14",
  "updatedAt": "2019-11-13T10:42:44.484Z",
  "devdoc": {
    "methods": {
      "isOwner()": {
        "return": "true if `msg.sender` is the owner of the contract."
      },
      "onERC721Received(address,address,uint256,bytes)": {
        "details": "msg.sender is the token contract _operator The address which called `safeTransferFrom` function on the token contract",
        "params": {
          "_tokenId": "The NFT identifier which is being transferred _data Additional data with no specified format",
          "_user": "The address which previously owned the token"
        },
        "return": "`bytes4(keccak256(\"onERC721Received(address,address,uint256,bytes)\"))`"
      },
      "owner()": {
        "return": "the address of the owner."
      },
      "renounceOwnership()": {
        "details": "Allows the current owner to relinquish control of the contract. It will not be possible to call the functions with the `onlyOwner` modifier anymore."
      },
      "transferOwnership(address)": {
        "details": "Allows the current owner to transfer control of the contract to a newOwner.",
        "params": {
          "newOwner": "The address to transfer ownership to."
        }
      },
      "updateChildChainAndStateSender()": {
        "details": "Caches childChain and stateSender (frequently used variables) from registry"
      }
    }
  },
  "userdoc": {
    "methods": {
      "onERC721Received(address,address,uint256,bytes)": {
        "notice": "This will be invoked when safeTransferFrom is called on the token contract to deposit tokens to this contract without directly interacting with it"
      },
      "renounceOwnership()": {
        "notice": "Renouncing ownership will leave the contract without an owner, thereby removing any functionality that is only available to the owner."
      }
    }
  }
}