{
  "contractName": "ERC20ValidatorMock",
  "abi": [
    {
      "constant": true,
      "inputs": [
        {
          "name": "headerNumber",
          "type": "uint256"
        },
        {
          "name": "headerProof",
          "type": "bytes"
        },
        {
          "name": "blockNumber",
          "type": "uint256"
        },
        {
          "name": "blockTime",
          "type": "uint256"
        },
        {
          "name": "txRoot",
          "type": "bytes32"
        },
        {
          "name": "receiptRoot",
          "type": "bytes32"
        },
        {
          "name": "path",
          "type": "bytes"
        },
        {
          "name": "txBytes",
          "type": "bytes"
        },
        {
          "name": "txProof",
          "type": "bytes"
        }
      ],
      "name": "validateTxExistence",
      "outputs": [
        {
          "name": "",
          "type": "bool"
        }
      ],
      "payable": false,
      "stateMutability": "view",
      "type": "function"
    },
    {
      "constant": false,
      "inputs": [
        {
          "name": "_withdrawManager",
          "type": "address"
        }
      ],
      "name": "setWithdrawManager",
      "outputs": [],
      "payable": false,
      "stateMutability": "nonpayable",
      "type": "function"
    },
    {
      "constant": false,
      "inputs": [
        {
          "name": "_depositManager",
          "type": "address"
        }
      ],
      "name": "setDepositManager",
      "outputs": [],
      "payable": false,
      "stateMutability": "nonpayable",
      "type": "function"
    },
    {
      "constant": true,
      "inputs": [],
      "name": "childChainContract",
      "outputs": [
        {
          "name": "",
          "type": "address"
        }
      ],
      "payable": false,
      "stateMutability": "view",
      "type": "function"
    },
    {
      "constant": true,
      "inputs": [],
      "name": "DEPOSIT_EVENT_SIGNATURE",
      "outputs": [
        {
          "name": "",
          "type": "bytes32"
        }
      ],
      "payable": false,
      "stateMutability": "view",
      "type": "function"
    },
    {
      "constant": true,
      "inputs": [],
      "name": "LOG_TRANSFER_EVENT_SIGNATURE",
      "outputs": [
        {
          "name": "",
          "type": "bytes32"
        }
      ],
      "payable": false,
      "stateMutability": "view",
      "type": "function"
    },
    {
      "constant": false,
      "inputs": [
        {
          "name": "transferTx",
          "type": "bytes"
        }
      ],
      "name": "validateTransferTx",
      "outputs": [],
      "payable": false,
      "stateMutability": "nonpayable",
      "type": "function"
    },
    {
      "constant": true,
      "inputs": [],
      "name": "depositManager",
      "outputs": [
        {
          "name": "",
          "type": "address"
        }
      ],
      "payable": false,
      "stateMutability": "view",
      "type": "function"
    },
    {
      "constant": true,
      "inputs": [
        {
          "name": "headerNumber",
          "type": "uint256"
        },
        {
          "name": "headerProof",
          "type": "bytes"
        },
        {
          "name": "blockNumber",
          "type": "uint256"
        },
        {
          "name": "blockTime",
          "type": "uint256"
        },
        {
          "name": "txRoot",
          "type": "bytes32"
        },
        {
          "name": "receiptRoot",
          "type": "bytes32"
        },
        {
          "name": "path",
          "type": "bytes"
        },
        {
          "name": "txBytes",
          "type": "bytes"
        },
        {
          "name": "txProof",
          "type": "bytes"
        },
        {
          "name": "receiptBytes",
          "type": "bytes"
        },
        {
          "name": "receiptProof",
          "type": "bytes"
        }
      ],
      "name": "validateTx",
      "outputs": [
        {
          "name": "",
          "type": "bool"
        }
      ],
      "payable": false,
      "stateMutability": "view",
      "type": "function"
    },
    {
      "constant": false,
      "inputs": [],
      "name": "renounceOwnership",
      "outputs": [],
      "payable": false,
      "stateMutability": "nonpayable",
      "type": "function"
    },
    {
      "constant": true,
      "inputs": [],
      "name": "owner",
      "outputs": [
        {
          "name": "",
          "type": "address"
        }
      ],
      "payable": false,
      "stateMutability": "view",
      "type": "function"
    },
    {
      "constant": true,
      "inputs": [],
      "name": "isOwner",
      "outputs": [
        {
          "name": "",
          "type": "bool"
        }
      ],
      "payable": false,
      "stateMutability": "view",
      "type": "function"
    },
    {
      "constant": true,
      "inputs": [],
      "name": "rootChain",
      "outputs": [
        {
          "name": "",
          "type": "address"
        }
      ],
      "payable": false,
      "stateMutability": "view",
      "type": "function"
    },
    {
      "constant": false,
      "inputs": [],
      "name": "unlock",
      "outputs": [],
      "payable": false,
      "stateMutability": "nonpayable",
      "type": "function"
    },
    {
      "constant": true,
      "inputs": [],
      "name": "APPROVAL_EVENT_SIGNATURE",
      "outputs": [
        {
          "name": "",
          "type": "bytes32"
        }
      ],
      "payable": false,
      "stateMutability": "view",
      "type": "function"
    },
    {
      "constant": true,
      "inputs": [],
      "name": "locked",
      "outputs": [
        {
          "name": "",
          "type": "bool"
        }
      ],
      "payable": false,
      "stateMutability": "view",
      "type": "function"
    },
    {
      "constant": true,
      "inputs": [
        {
          "name": "headerNumber",
          "type": "uint256"
        },
        {
          "name": "headerProof",
          "type": "bytes"
        },
        {
          "name": "blockNumber",
          "type": "uint256"
        },
        {
          "name": "blockTime",
          "type": "uint256"
        },
        {
          "name": "txRoot",
          "type": "bytes32"
        },
        {
          "name": "receiptRoot",
          "type": "bytes32"
        },
        {
          "name": "path",
          "type": "bytes"
        },
        {
          "name": "txBytes",
          "type": "bytes"
        },
        {
          "name": "txProof",
          "type": "bytes"
        },
        {
          "name": "receiptBytes",
          "type": "bytes"
        },
        {
          "name": "receiptProof",
          "type": "bytes"
        }
      ],
      "name": "validateTxReceiptExistence",
      "outputs": [
        {
          "name": "",
          "type": "bool"
        }
      ],
      "payable": false,
      "stateMutability": "view",
      "type": "function"
    },
    {
      "constant": true,
      "inputs": [],
      "name": "TRANSFER_SIGNATURE",
      "outputs": [
        {
          "name": "",
          "type": "bytes4"
        }
      ],
      "payable": false,
      "stateMutability": "view",
      "type": "function"
    },
    {
      "constant": false,
      "inputs": [
        {
          "name": "newRootChain",
          "type": "address"
        }
      ],
      "name": "changeRootChain",
      "outputs": [],
      "payable": false,
      "stateMutability": "nonpayable",
      "type": "function"
    },
    {
      "constant": true,
      "inputs": [],
      "name": "TRANSFER_EVENT_SIGNATURE",
      "outputs": [
        {
          "name": "",
          "type": "bytes32"
        }
      ],
      "payable": false,
      "stateMutability": "view",
      "type": "function"
    },
    {
      "constant": true,
      "inputs": [],
      "name": "withdrawManager",
      "outputs": [
        {
          "name": "",
          "type": "address"
        }
      ],
      "payable": false,
      "stateMutability": "view",
      "type": "function"
    },
    {
      "constant": false,
      "inputs": [
        {
          "name": "newOwner",
          "type": "address"
        }
      ],
      "name": "transferOwnership",
      "outputs": [],
      "payable": false,
      "stateMutability": "nonpayable",
      "type": "function"
    },
    {
      "constant": false,
      "inputs": [
        {
          "name": "_childChainContract",
          "type": "address"
        }
      ],
      "name": "setChildChainContract",
      "outputs": [],
      "payable": false,
      "stateMutability": "nonpayable",
      "type": "function"
    },
    {
      "constant": false,
      "inputs": [],
      "name": "lock",
      "outputs": [],
      "payable": false,
      "stateMutability": "nonpayable",
      "type": "function"
    },
    {
      "anonymous": false,
      "inputs": [
        {
          "indexed": true,
          "name": "previousRootChain",
          "type": "address"
        },
        {
          "indexed": true,
          "name": "newRootChain",
          "type": "address"
        }
      ],
      "name": "RootChainChanged",
      "type": "event"
    },
    {
      "anonymous": false,
      "inputs": [
        {
          "indexed": true,
          "name": "previousOwner",
          "type": "address"
        },
        {
          "indexed": true,
          "name": "newOwner",
          "type": "address"
        }
      ],
      "name": "OwnershipTransferred",
      "type": "event"
    },
    {
      "constant": false,
      "inputs": [
        {
          "name": "transferTx",
          "type": "bytes"
        }
      ],
      "name": "validateERC20Tx",
      "outputs": [],
      "payable": false,
      "stateMutability": "nonpayable",
      "type": "function"
    }
  ],
  "bytecode": "0x6080604081905260008054600160a060020a0319163317808255600160a060020a0316917f8be0079c531659141344cd1fd0a4f28419497f9722a3daafe3b4186f6b6457e0908290a3612912806100576000396000f30060806040526004361061012f5763ffffffff60e060020a6000350416630b3fa78c811461013457806317e3e2e814610278578063228d71a91461029b578063242fbb04146102bc5780633f23d48a146102ed5780634ef68cb4146103465780635159a7551461036d5780635327e645146103825780636c7ac9d8146103db5780636d4babac146103f0578063715018a61461059c5780638da5cb5b146105b15780638f32d59b146105c6578063987ab9db146105db578063a69df4b5146105f0578063b2bc668214610605578063cf3090121461061a578063d9bcb3351461062f578063e0310e52146107db578063e8afa8e814610822578063eab15c4214610843578063ec3e9da514610858578063f2fde38b1461086d578063f3b57e611461088e578063f83d08ba146108af575b600080fd5b34801561014057600080fd5b5060408051602060046024803582810135601f810185900485028601850190965285855261026495833595369560449491939091019190819084018382808284375050604080516020601f60808a01358b0180359182018390048302840183018552818452989b8a359b838c01359b958601359a60608701359a50919850965060a09094019450919281019190819084018382808284375050604080516020601f89358b018035918201839004830284018301909452808352979a99988101979196509182019450925082915084018382808284375050604080516020601f89358b018035918201839004830284018301909452808352979a9998810197919650918201945092508291508401838280828437509497506108c49650505050505050565b604080519115158252519081900360200190f35b34801561028457600080fd5b50610299600160a060020a0360043516610cb8565b005b3480156102a757600080fd5b50610299600160a060020a0360043516610d0f565b3480156102c857600080fd5b506102d1610d66565b60408051600160a060020a039092168252519081900360200190f35b3480156102f957600080fd5b506040805160206004803580820135601f8101849004840285018401909552848452610299943694929360249392840191908190840183828082843750949750610d759650505050505050565b34801561035257600080fd5b5061035b610da2565b60408051918252519081900360200190f35b34801561037957600080fd5b5061035b610dc6565b34801561038e57600080fd5b506040805160206004803580820135601f8101849004840285018401909552848452610299943694929360249392840191908190840183828082843750949750610dea9650505050505050565b3480156103e757600080fd5b506102d1610e78565b3480156103fc57600080fd5b5060408051602060046024803582810135601f810185900485028601850190965285855261026495833595369560449491939091019190819084018382808284375050604080516020601f60808a01358b0180359182018390048302840183018552818452989b8a359b838c01359b958601359a60608701359a50919850965060a09094019450919281019190819084018382808284375050604080516020601f89358b018035918201839004830284018301909452808352979a99988101979196509182019450925082915084018382808284375050604080516020601f89358b018035918201839004830284018301909452808352979a99988101979196509182019450925082915084018382808284375050604080516020601f89358b018035918201839004830284018301909452808352979a99988101979196509182019450925082915084018382808284375050604080516020601f89358b018035918201839004830284018301909452808352979a999881019791965091820194509250829150840183828082843750949750610e879650505050505050565b3480156105a857600080fd5b50610299611065565b3480156105bd57600080fd5b506102d16110cf565b3480156105d257600080fd5b506102646110de565b3480156105e757600080fd5b506102d16110ef565b3480156105fc57600080fd5b506102996110fe565b34801561061157600080fd5b5061035b611131565b34801561062657600080fd5b50610264611155565b34801561063b57600080fd5b5060408051602060046024803582810135601f810185900485028601850190965285855261026495833595369560449491939091019190819084018382808284375050604080516020601f60808a01358b0180359182018390048302840183018552818452989b8a359b838c01359b958601359a60608701359a50919850965060a09094019450919281019190819084018382808284375050604080516020601f89358b018035918201839004830284018301909452808352979a99988101979196509182019450925082915084018382808284375050604080516020601f89358b018035918201839004830284018301909452808352979a99988101979196509182019450925082915084018382808284375050604080516020601f89358b018035918201839004830284018301909452808352979a99988101979196509182019450925082915084018382808284375050604080516020601f89358b018035918201839004830284018301909452808352979a9998810197919650918201945092508291508401838280828437509497506111769650505050505050565b3480156107e757600080fd5b506107f0611212565b604080517bffffffffffffffffffffffffffffffffffffffffffffffffffffffff199092168252519081900360200190f35b34801561082e57600080fd5b50610299600160a060020a0360043516611236565b34801561084f57600080fd5b5061035b6112c7565b34801561086457600080fd5b506102d16112eb565b34801561087957600080fd5b50610299600160a060020a03600435166112fa565b34801561089a57600080fd5b50610299600160a060020a0360043516611319565b3480156108bb57600080fd5b50610299611370565b600154604080517f61bbd461000000000000000000000000000000000000000000000000000000008152600481018c9052905160009283928392600160a060020a03909216916361bbd4619160248082019260809290919082900301818787803b15801561093157600080fd5b505af1158015610945573d6000803e3d6000fd5b505050506040513d608081101561095b57600080fd5b8101908080519060200190929190805190602001909291908051906020019092919080519060200190929190505050905050809250819350505089898989604051808581526020018481526020018360001916600019168152602001826000191660001916815260200194505050505060405180910390206000191673__Merkle________________________________636c8f455c9091838d03858f6040518563ffffffff1660e060020a028152600401808560001916600019168152602001848152602001836000191660001916815260200180602001828103825283818151815260200191508051906020019080838360005b83811015610a69578181015183820152602001610a51565b50505050905090810190601f168015610a965780820380516001836020036101000a031916815260200191505b509550505050505060206040518083038186803b158015610ab657600080fd5b505af4158015610aca573d6000803e3d6000fd5b505050506040513d6020811015610ae057600080fd5b50518015610ca8575073__MerklePatriciaProof___________________6379d1d4fa8688878c6040518563ffffffff1660e060020a028152600401808060200180602001806020018560001916600019168152602001848103845288818151815260200191508051906020019080838360005b83811015610b6c578181015183820152602001610b54565b50505050905090810190601f168015610b995780820380516001836020036101000a031916815260200191505b50848103835287518152875160209182019189019080838360005b83811015610bcc578181015183820152602001610bb4565b50505050905090810190601f168015610bf95780820380516001836020036101000a031916815260200191505b50848103825286518152865160209182019188019080838360005b83811015610c2c578181015183820152602001610c14565b50505050905090810190601f168015610c595780820380516001836020036101000a031916815260200191505b5097505050505050505060206040518083038186803b158015610c7b57600080fd5b505af4158015610c8f573d6000803e3d6000fd5b505050506040513d6020811015610ca557600080fd5b50515b9c9b505050505050505050505050565b610cc06110de565b1515610ccb57600080fd5b600160a060020a0381161515610ce057600080fd5b6003805473ffffffffffffffffffffffffffffffffffffffff1916600160a060020a0392909216919091179055565b610d176110de565b1515610d2257600080fd5b600160a060020a0381161515610d3757600080fd5b6002805473ffffffffffffffffffffffffffffffffffffffff1916600160a060020a0392909216919091179055565b600454600160a060020a031681565b6060610d88610d83836113ba565b61140d565b9050610d93816114c2565b1515610d9e57600080fd5b5050565b7f4e2ca0515ed1aef1395f66b5303bb5d6f1bf9d61a353fa53f73f8ac9973fa9f681565b7fe6497e3ee548a3372136af2fcb0696db31fc6cf20260707645068bd3fe97f3c481565b6060610df8610d83836113ba565b9050610e03816114c2565b1515610d9e57600160009054906101000a9004600160a060020a0316600160a060020a0316632da25de36040518163ffffffff1660e060020a028152600401600060405180830381600087803b158015610e5c57600080fd5b505af1158015610e70573d6000803e3d6000fd5b505050505050565b600254600160a060020a031681565b6000610e916128ae565b60606000610ea88f8f8f8f8f8f8f8f8f8f8f611176565b1580610eb357508751155b80610ebd57508551155b15610ecb5760009350611053565b610ed4886113ba565b9250610edf836115fc565b1580610ef55750610eef8361140d565b51600914155b15610f035760009350611053565b610f0c866113ba565b9250610f17836115fc565b1515610f265760009350611053565b610f2f8361140d565b915081516004141580610f605750610f5e826003815181101515610f4f57fe5b906020019060200201516115fc565b155b15610f6e5760009350611053565b610f8f826003815181101515610f8057fe5b9060200190602002015161140d565b915060008251111561104e575060005b81518160ff16101561104e57610fbf828260ff16815181101515610f4f57fe5b1580610fdf57506002610fdc838360ff16815181101515610f8057fe5b51105b8061100b5750611009610ffc838360ff16815181101515610f8057fe5b80516001908110610f4f57fe5b155b806110385750611035611028838360ff16815181101515610f8057fe5b80516001908110610f8057fe5b51155b156110465760009350611053565b600101610f9f565b600193505b5050509b9a5050505050505050505050565b61106d6110de565b151561107857600080fd5b60008054604051600160a060020a03909116907f8be0079c531659141344cd1fd0a4f28419497f9722a3daafe3b4186f6b6457e0908390a36000805473ffffffffffffffffffffffffffffffffffffffff19169055565b600054600160a060020a031690565b600054600160a060020a0316331490565b600154600160a060020a031681565b6111066110de565b151561111157600080fd5b6001805474ff000000000000000000000000000000000000000019169055565b7f8c5be1e5ebec7d5bd14f71427d1e84f3dd0314c0f7b2291e5b200ac8c7c3b92581565b60015474010000000000000000000000000000000000000000900460ff1681565b60006111898c8c8c8c8c8c8c8c8c6108c4565b8015610ca8575073__MerklePatriciaProof___________________6379d1d4fa8488858b6040518563ffffffff1660e060020a0281526004018080602001806020018060200185600019166000191681526020018481038452888181518152602001915080519060200190808383600083811015610b6c578181015183820152602001610b54565b7fa9059cbb0000000000000000000000000000000000000000000000000000000081565b61123e6110de565b151561124957600080fd5b600160a060020a038116151561125e57600080fd5b600154604051600160a060020a038084169216907f211c9015fc81c0dbd45bd99f0f29fc1c143bfd53442d5ffd722bbbef7a887fe990600090a36001805473ffffffffffffffffffffffffffffffffffffffff1916600160a060020a0392909216919091179055565b7fddf252ad1be2c89b69c2b068fc378daa952ba7f163c4a11628f55a4df523b3ef81565b600354600160a060020a031681565b6113026110de565b151561130d57600080fd5b6113168161162e565b50565b6113216110de565b151561132c57600080fd5b600160a060020a038116151561134157600080fd5b6004805473ffffffffffffffffffffffffffffffffffffffff1916600160a060020a0392909216919091179055565b6113786110de565b151561138357600080fd5b6001805474ff0000000000000000000000000000000000000000191674010000000000000000000000000000000000000000179055565b6113c26128ae565b815160008115156113e85760408051808201909152600080825260208201529250611406565b60208401905060408051908101604052808281526020018381525092505b5050919050565b606060006114196128c5565b6000611424856115fc565b151561142f57600080fd5b611438856116ab565b92508260405190808252806020026020018201604052801561147457816020015b6114616128ae565b8152602001906001900390816114595790505b5093506114808561171b565b91505b61148c82611754565b156114ba5761149a82611773565b84828151811015156114a857fe5b60209081029091010152600101611483565b505050919050565b60006115bf6114e88360008151811015156114d957fe5b906020019060200201516117b5565b6115098460018151811015156114fa57fe5b906020019060200201516117fe565b61151b8560028151811015156114d957fe5b61152d8660038151811015156114d957fe5b61154e87600481518110151561153f57fe5b90602001906020020151611860565b61156088600581518110151561153f57fe5b6115728960068151811015156114fa57fe5b6115848a60078151811015156114fa57fe5b6115968b60088151811015156114fa57fe5b6115a88c60098151811015156114fa57fe5b6115ba8d600a8151811015156114fa57fe5b611176565b15156115ca57600080fd5b6115f66115df8360078151811015156114fa57fe5b6115f18460098151811015156114fa57fe5b61186b565b92915050565b6000808260200151600014156116155760009150611628565b8260000151905060c0815160001a101591505b50919050565b600160a060020a038116151561164357600080fd5b60008054604051600160a060020a03808516939216917f8be0079c531659141344cd1fd0a4f28419497f9722a3daafe3b4186f6b6457e091a36000805473ffffffffffffffffffffffffffffffffffffffff1916600160a060020a0392909216919091179055565b6000806000806000806116bd876115fc565b15156116cc5760009550611711565b8651805160001a955093506116e087611ac3565b840192506001876020015185010391505b81831161170d5761170183611b43565b909201916001016116f1565b8095505b5050505050919050565b6117236128c5565b600061172e836115fc565b151561173957600080fd5b61174283611ac3565b83519383529092016020820152919050565b600061175e6128ae565b50508051602080820151915192015191011190565b61177b6128ae565b60008061178784611754565b1561012f578360200151915061179c82611b43565b8284526020808501829052838201908601529050611406565b60008060006117c384611bd0565b15156117ce57600080fd5b6117d784611bf9565b909250905060208111156117ea57600080fd5b806020036101000a82510492505050919050565b606060008061180c84611bd0565b151561181757600080fd5b61182084611bf9565b91509150806040519080825280601f01601f191660200182016040528015611852578160200160208202803883390190505b509250611406828483611c76565b60006115f6826117b5565b60006060600060606000611881610d83886113ba565b805190945060091461189257600080fd5b6118b38460038151811015156118a457fe5b90602001906020020151611cb6565b600254604080517f40828ebf000000000000000000000000000000000000000000000000000000008152600160a060020a038481166004830152915193965060009391909216916340828ebf91602480830192602092919082900301818787803b15801561192057600080fd5b505af1158015611934573d6000803e3d6000fd5b505050506040513d602081101561194a57600080fd5b5051600160a060020a0316141561196057600080fd5b6119728460058151811015156114fa57fe5b91507fa9059cbb000000000000000000000000000000000000000000000000000000006119aa6119a58460006004611ce3565b611d64565b7bffffffffffffffffffffffffffffffffffffffffffffffffffffffff1916146119d357600080fd5b81516044146119e55760009450611ab9565b6119ee84611d6b565b90506119fc610d83876113ba565b935083516004148015611a215750611a1c846003815181101515610f8057fe5b516002145b8015611a6a5750611a6a8382611a38856010612251565b611a43866024612281565b611a65611a588a6003815181101515610f8057fe5b80516000908110610f8057fe5b6122a1565b8015611aa65750611aa68382611a81856010612251565b611a8c866024612281565b611aa16110288a6003815181101515610f8057fe5b6123ea565b15611ab45760019450611ab9565b600094505b5050505092915050565b6000806000836020015160001415611ade5760009250611406565b50508151805160001a906080821015611afa5760009250611406565b60b8821080611b15575060c08210158015611b15575060f882105b15611b235760019250611406565b60c0821015611b385760b51982019250611406565b5060f5190192915050565b8051600090811a6080811015611b5c5760019150611628565b60b8811015611b7157607e1981019150611628565b60c0811015611b9a57600183015160b76020839003016101000a9004810160b519019150611628565b60f8811015611baf5760be1981019150611628565b6001929092015160f76020849003016101000a900490910160f51901919050565b600080826020015160001415611be95760009150611628565b5050515160c060009190911a1090565b6000806000806000611c0a86611bd0565b1515611c1557600080fd5b8551805160001a935091506080831015611c355781945060019350611c6e565b60b8831015611c535760018660200151039350816001019450611c6e565b60b78303905080600187602001510303935080820160010194505b505050915091565b60006020601f83010484602085015b828414611ca357602084028281015190820152600190930192611c85565b6000865160200187015250505050505050565b600080611cc283611bf9565b9150506014811115611cd357600080fd5b611cdc836117b5565b9392505050565b606080828401855110151515611cf857600080fd5b82158015611d1157604051915060208201604052611d5b565b6040519150601f8416801560200281840101858101878315602002848b0101015b81831015611d4a578051835260209283019201611d32565b5050858452601f01601f1916604052505b50949350505050565b6020015190565b60408051600980825261014082019092526000916060918391816020015b6060815260200190600190039081611d89579050509150600090505b600560ff821611611de757611dc4848260ff168151811015156114fa57fe5b828260ff16815181101515611dd557fe5b60209081029091010152600101611da5565b604080516020810190915260008152825183906004908110611e0557fe5b60209081029091010152600154604080517f9025e64c0000000000000000000000000000000000000000000000000000000081529051600160a060020a0390921691639025e64c9160048082019260009290919082900301818387803b158015611e6e57600080fd5b505af1158015611e82573d6000803e3d6000fd5b505050506040513d6000823e601f3d908101601f191682016040526020811015611eab57600080fd5b810190808051640100000000811115611ec357600080fd5b82016020810184811115611ed657600080fd5b8151640100000000811182820187101715611ef057600080fd5b50508551909350859250600691508110611f0657fe5b906020019060200201819052506020604051908101604052806000815250826007815181101515611f3357fe5b906020019060200201819052506020604051908101604052806000815250826008815181101515611f6057fe5b602090810290910101526001611f75836125d1565b6040518082805190602001908083835b60208310611fa45780518252601f199092019160209182019101611f85565b6001836020036101000a038019825116818451168082178552505050505050905001915050604051809103902073__Common________________________________63261737b2611ffd8860068151811015156114fa57fe5b73__Common________________________________637ae93b1988600681518110151561202657fe5b906020019060200201516040518263ffffffff1660e060020a0281526004018080602001828103825283818151815260200191508051906020019080838360005b8381101561207f578181015183820152602001612067565b50505050905090810190601f1680156120ac5780820380516001836020036101000a031916815260200191505b509250505060206040518083038186803b1580156120c957600080fd5b505af41580156120dd573d6000803e3d6000fd5b505050506040513d60208110156120f357600080fd5b50516040805160e060020a63ffffffff861602815260ff8316602482015260048101918252835160448201528351829160640190602086019080838360005b8381101561214a578181015183820152602001612132565b50505050905090810190601f1680156121775780820380516001836020036101000a031916815260200191505b50935050505060206040518083038186803b15801561219557600080fd5b505af41580156121a9573d6000803e3d6000fd5b505050506040513d60208110156121bf57600080fd5b505186516121d4908890600790811061153f57fe5b6121e688600881518110151561153f57fe5b60408051600080825260208083018085529790975260ff90951681830152606081019390935260808301919091525160a08083019493601f198301938390039091019190865af115801561223e573d6000803e3d6000fd5b5050604051601f19015195945050505050565b6000808260140184511015151561226757600080fd5b505001602001516c01000000000000000000000000900490565b6000808260200184511015151561229757600080fd5b5050016020015190565b60006060825160031415156122b957600091506123e0565b6122cb836001815181101515610f8057fe5b905080516003148015612300575086600160a060020a03166122f58460008151811015156118a457fe5b600160a060020a0316145b801561233e575080517fddf252ad1be2c89b69c2b068fc378daa952ba7f163c4a11628f55a4df523b3ef9061233c908390600090811061153f57fe5b145b8015612376575085600160a060020a031661236b6123648360018151811015156114fa57fe5b600c612251565b600160a060020a0316145b80156123a7575084600160a060020a031661239c6123648360028151811015156114fa57fe5b600160a060020a0316145b80156123cd5750836123cb6123c48560028151811015156114fa57fe5b6000612281565b145b156123db57600191506123e0565b600091505b5095945050505050565b60008060608351600314151561240357600092506125c6565b85600160a060020a031687600160a060020a0316146124225784612425565b60005b9150612439846001815181101515610f8057fe5b90508051600414801561246e575087600160a060020a03166124638560008151811015156118a457fe5b600160a060020a0316145b80156124ac575080517fe6497e3ee548a3372136af2fcb0696db31fc6cf20260707645068bd3fe97f3c4906124aa908390600090811061153f57fe5b145b80156124dd575086600160a060020a03166124d26123648360028151811015156114fa57fe5b600160a060020a0316145b801561250e575085600160a060020a03166125036123648360038151811015156114fa57fe5b600160a060020a0316145b801561252d57508461252b6123c48660028151811015156114fa57fe5b145b801561257057508161255161254a8660028151811015156114fa57fe5b6060612281565b61256d6125668760028151811015156114fa57fe5b6020612281565b03145b80156125b357508161259461258d8660028151811015156114fa57fe5b6040612281565b6125b06125a98760028151811015156114fa57fe5b6080612281565b03145b156125c157600192506125c6565b600092505b505095945050505050565b60608060005b8351811015612613576126098261260486848151811015156125f557fe5b90602001906020020151612630565b6126a0565b91506001016125d7565b612628612622835160c061271b565b836126a0565b949350505050565b606080825160011480156126635750608083600081518110151561265057fe5b016020015160f860020a90819004810204105b1561268f576040805160018082528183019092529060208083019080388339508593506115f692505050565b611cdc61269e8451608061271b565b845b6060806040519050835180825260208201818101602087015b818310156126d15780518352602092830192016126b9565b50855184518101855292509050808201602086015b818310156126fe5780518352602092830192016126e6565b509551919091011594909401601f01601f19166040529392505050565b606080600080606080603888101561279d57604080516001808252818301909252906020808301908038833901905050945086880160f860020a0285600081518110151561276557fe5b9060200101907effffffffffffffffffffffffffffffffffffffffffffffffffffffffffffff1916908160001a9053508495506127ee565b600192505b82888115156127ad57fe5b04156127c65760019093019261010092909202916127a2565b6127d48488603701016127f9565b91506127df886127f9565b90506127eb82826126a0565b95505b505050505092915050565b60606001600060ff84111561280d57600291505b816040519080825280601f01601f19166020018201604052801561283b578160200160208202803883390190505b509250600090505b818110156114065780600183030360080260020a8481151561286157fe5b0460f860020a02838281518110151561287657fe5b9060200101907effffffffffffffffffffffffffffffffffffffffffffffffffffffffffffff1916908160001a905350600101612843565b604080518082019091526000808252602082015290565b6060604051908101604052806128d96128ae565b81526020016000815250905600a165627a7a72305820c90c29d896936a20f760083304b324a5e5134ef26299edf7150cc18fb0cac5b30029",
  "source": "pragma solidity ^0.4.24;\n\nimport { RLP } from \"../../lib/RLP.sol\";\nimport { ERC20Validator } from \"../../proofs/ERC20Validator.sol\";\n\n\ncontract ERC20ValidatorMock is ERC20Validator {\n\n  // validate ERC20 TX\n  function validateERC20Tx (\n    bytes transferTx\n  ) public {\n    // validate transfer tx\n    RLP.RLPItem[] memory txData = transferTx.toRLPItem().toList();\n\n    // validate ERC20 transfer tx\n    require(_validateTransferTx(txData));\n  }\n}\n",
  "sourcePath": "/Users/atvanguard/matic/contracts/contracts/mocks/proofs/ERC20ValidatorMock.sol",
  "compiler": {
    "name": "solc",
    "version": "0.4.24+commit.e67f0147.Emscripten.clang"
  },
  "schemaVersion": "2.0.1",
  "updatedAt": "2019-12-07T09:11:33.310Z"
}