{
  "contractName": "ERC20Validator",
  "abi": [
    {
      "constant": true,
      "inputs": [
        {
          "name": "headerNumber",
          "type": "uint256"
        },
        {
          "name": "headerProof",
          "type": "bytes"
        },
        {
          "name": "blockNumber",
          "type": "uint256"
        },
        {
          "name": "blockTime",
          "type": "uint256"
        },
        {
          "name": "txRoot",
          "type": "bytes32"
        },
        {
          "name": "receiptRoot",
          "type": "bytes32"
        },
        {
          "name": "path",
          "type": "bytes"
        },
        {
          "name": "txBytes",
          "type": "bytes"
        },
        {
          "name": "txProof",
          "type": "bytes"
        }
      ],
      "name": "validateTxExistence",
      "outputs": [
        {
          "name": "",
          "type": "bool"
        }
      ],
      "payable": false,
      "stateMutability": "view",
      "type": "function"
    },
    {
      "constant": false,
      "inputs": [
        {
          "name": "_withdrawManager",
          "type": "address"
        }
      ],
      "name": "setWithdrawManager",
      "outputs": [],
      "payable": false,
      "stateMutability": "nonpayable",
      "type": "function"
    },
    {
      "constant": false,
      "inputs": [
        {
          "name": "_depositManager",
          "type": "address"
        }
      ],
      "name": "setDepositManager",
      "outputs": [],
      "payable": false,
      "stateMutability": "nonpayable",
      "type": "function"
    },
    {
      "constant": true,
      "inputs": [],
      "name": "childChainContract",
      "outputs": [
        {
          "name": "",
          "type": "address"
        }
      ],
      "payable": false,
      "stateMutability": "view",
      "type": "function"
    },
    {
      "constant": true,
      "inputs": [],
      "name": "DEPOSIT_EVENT_SIGNATURE",
      "outputs": [
        {
          "name": "",
          "type": "bytes32"
        }
      ],
      "payable": false,
      "stateMutability": "view",
      "type": "function"
    },
    {
      "constant": true,
      "inputs": [],
      "name": "LOG_TRANSFER_EVENT_SIGNATURE",
      "outputs": [
        {
          "name": "",
          "type": "bytes32"
        }
      ],
      "payable": false,
      "stateMutability": "view",
      "type": "function"
    },
    {
      "constant": true,
      "inputs": [],
      "name": "depositManager",
      "outputs": [
        {
          "name": "",
          "type": "address"
        }
      ],
      "payable": false,
      "stateMutability": "view",
      "type": "function"
    },
    {
      "constant": true,
      "inputs": [
        {
          "name": "headerNumber",
          "type": "uint256"
        },
        {
          "name": "headerProof",
          "type": "bytes"
        },
        {
          "name": "blockNumber",
          "type": "uint256"
        },
        {
          "name": "blockTime",
          "type": "uint256"
        },
        {
          "name": "txRoot",
          "type": "bytes32"
        },
        {
          "name": "receiptRoot",
          "type": "bytes32"
        },
        {
          "name": "path",
          "type": "bytes"
        },
        {
          "name": "txBytes",
          "type": "bytes"
        },
        {
          "name": "txProof",
          "type": "bytes"
        },
        {
          "name": "receiptBytes",
          "type": "bytes"
        },
        {
          "name": "receiptProof",
          "type": "bytes"
        }
      ],
      "name": "validateTx",
      "outputs": [
        {
          "name": "",
          "type": "bool"
        }
      ],
      "payable": false,
      "stateMutability": "view",
      "type": "function"
    },
    {
      "constant": false,
      "inputs": [],
      "name": "renounceOwnership",
      "outputs": [],
      "payable": false,
      "stateMutability": "nonpayable",
      "type": "function"
    },
    {
      "constant": true,
      "inputs": [],
      "name": "owner",
      "outputs": [
        {
          "name": "",
          "type": "address"
        }
      ],
      "payable": false,
      "stateMutability": "view",
      "type": "function"
    },
    {
      "constant": true,
      "inputs": [],
      "name": "isOwner",
      "outputs": [
        {
          "name": "",
          "type": "bool"
        }
      ],
      "payable": false,
      "stateMutability": "view",
      "type": "function"
    },
    {
      "constant": true,
      "inputs": [],
      "name": "rootChain",
      "outputs": [
        {
          "name": "",
          "type": "address"
        }
      ],
      "payable": false,
      "stateMutability": "view",
      "type": "function"
    },
    {
      "constant": false,
      "inputs": [],
      "name": "unlock",
      "outputs": [],
      "payable": false,
      "stateMutability": "nonpayable",
      "type": "function"
    },
    {
      "constant": true,
      "inputs": [],
      "name": "APPROVAL_EVENT_SIGNATURE",
      "outputs": [
        {
          "name": "",
          "type": "bytes32"
        }
      ],
      "payable": false,
      "stateMutability": "view",
      "type": "function"
    },
    {
      "constant": true,
      "inputs": [],
      "name": "locked",
      "outputs": [
        {
          "name": "",
          "type": "bool"
        }
      ],
      "payable": false,
      "stateMutability": "view",
      "type": "function"
    },
    {
      "constant": true,
      "inputs": [
        {
          "name": "headerNumber",
          "type": "uint256"
        },
        {
          "name": "headerProof",
          "type": "bytes"
        },
        {
          "name": "blockNumber",
          "type": "uint256"
        },
        {
          "name": "blockTime",
          "type": "uint256"
        },
        {
          "name": "txRoot",
          "type": "bytes32"
        },
        {
          "name": "receiptRoot",
          "type": "bytes32"
        },
        {
          "name": "path",
          "type": "bytes"
        },
        {
          "name": "txBytes",
          "type": "bytes"
        },
        {
          "name": "txProof",
          "type": "bytes"
        },
        {
          "name": "receiptBytes",
          "type": "bytes"
        },
        {
          "name": "receiptProof",
          "type": "bytes"
        }
      ],
      "name": "validateTxReceiptExistence",
      "outputs": [
        {
          "name": "",
          "type": "bool"
        }
      ],
      "payable": false,
      "stateMutability": "view",
      "type": "function"
    },
    {
      "constant": true,
      "inputs": [],
      "name": "TRANSFER_SIGNATURE",
      "outputs": [
        {
          "name": "",
          "type": "bytes4"
        }
      ],
      "payable": false,
      "stateMutability": "view",
      "type": "function"
    },
    {
      "constant": false,
      "inputs": [
        {
          "name": "newRootChain",
          "type": "address"
        }
      ],
      "name": "changeRootChain",
      "outputs": [],
      "payable": false,
      "stateMutability": "nonpayable",
      "type": "function"
    },
    {
      "constant": true,
      "inputs": [],
      "name": "TRANSFER_EVENT_SIGNATURE",
      "outputs": [
        {
          "name": "",
          "type": "bytes32"
        }
      ],
      "payable": false,
      "stateMutability": "view",
      "type": "function"
    },
    {
      "constant": true,
      "inputs": [],
      "name": "withdrawManager",
      "outputs": [
        {
          "name": "",
          "type": "address"
        }
      ],
      "payable": false,
      "stateMutability": "view",
      "type": "function"
    },
    {
      "constant": false,
      "inputs": [
        {
          "name": "newOwner",
          "type": "address"
        }
      ],
      "name": "transferOwnership",
      "outputs": [],
      "payable": false,
      "stateMutability": "nonpayable",
      "type": "function"
    },
    {
      "constant": false,
      "inputs": [
        {
          "name": "_childChainContract",
          "type": "address"
        }
      ],
      "name": "setChildChainContract",
      "outputs": [],
      "payable": false,
      "stateMutability": "nonpayable",
      "type": "function"
    },
    {
      "constant": false,
      "inputs": [],
      "name": "lock",
      "outputs": [],
      "payable": false,
      "stateMutability": "nonpayable",
      "type": "function"
    },
    {
      "anonymous": false,
      "inputs": [
        {
          "indexed": true,
          "name": "previousRootChain",
          "type": "address"
        },
        {
          "indexed": true,
          "name": "newRootChain",
          "type": "address"
        }
      ],
      "name": "RootChainChanged",
      "type": "event"
    },
    {
      "anonymous": false,
      "inputs": [
        {
          "indexed": true,
          "name": "previousOwner",
          "type": "address"
        },
        {
          "indexed": true,
          "name": "newOwner",
          "type": "address"
        }
      ],
      "name": "OwnershipTransferred",
      "type": "event"
    },
    {
      "constant": false,
      "inputs": [
        {
          "name": "transferTx",
          "type": "bytes"
        }
      ],
      "name": "validateTransferTx",
      "outputs": [],
      "payable": false,
      "stateMutability": "nonpayable",
      "type": "function"
    }
  ],
  "bytecode": "0x6080604081905260008054600160a060020a0319163317808255600160a060020a0316917f8be0079c531659141344cd1fd0a4f28419497f9722a3daafe3b4186f6b6457e0908290a3612887806100576000396000f3006080604052600436106101245763ffffffff60e060020a6000350416630b3fa78c811461012957806317e3e2e81461026d578063228d71a914610290578063242fbb04146102b15780634ef68cb4146102e25780635159a755146103095780635327e6451461031e5780636c7ac9d8146103775780636d4babac1461038c578063715018a6146105385780638da5cb5b1461054d5780638f32d59b14610562578063987ab9db14610577578063a69df4b51461058c578063b2bc6682146105a1578063cf309012146105b6578063d9bcb335146105cb578063e0310e5214610777578063e8afa8e8146107be578063eab15c42146107df578063ec3e9da5146107f4578063f2fde38b14610809578063f3b57e611461082a578063f83d08ba1461084b575b600080fd5b34801561013557600080fd5b5060408051602060046024803582810135601f810185900485028601850190965285855261025995833595369560449491939091019190819084018382808284375050604080516020601f60808a01358b0180359182018390048302840183018552818452989b8a359b838c01359b958601359a60608701359a50919850965060a09094019450919281019190819084018382808284375050604080516020601f89358b018035918201839004830284018301909452808352979a99988101979196509182019450925082915084018382808284375050604080516020601f89358b018035918201839004830284018301909452808352979a9998810197919650918201945092508291508401838280828437509497506108609650505050505050565b604080519115158252519081900360200190f35b34801561027957600080fd5b5061028e600160a060020a0360043516610c54565b005b34801561029c57600080fd5b5061028e600160a060020a0360043516610cab565b3480156102bd57600080fd5b506102c6610d02565b60408051600160a060020a039092168252519081900360200190f35b3480156102ee57600080fd5b506102f7610d11565b60408051918252519081900360200190f35b34801561031557600080fd5b506102f7610d35565b34801561032a57600080fd5b506040805160206004803580820135601f810184900484028501840190955284845261028e943694929360249392840191908190840183828082843750949750610d599650505050505050565b34801561038357600080fd5b506102c6610ded565b34801561039857600080fd5b5060408051602060046024803582810135601f810185900485028601850190965285855261025995833595369560449491939091019190819084018382808284375050604080516020601f60808a01358b0180359182018390048302840183018552818452989b8a359b838c01359b958601359a60608701359a50919850965060a09094019450919281019190819084018382808284375050604080516020601f89358b018035918201839004830284018301909452808352979a99988101979196509182019450925082915084018382808284375050604080516020601f89358b018035918201839004830284018301909452808352979a99988101979196509182019450925082915084018382808284375050604080516020601f89358b018035918201839004830284018301909452808352979a99988101979196509182019450925082915084018382808284375050604080516020601f89358b018035918201839004830284018301909452808352979a999881019791965091820194509250829150840183828082843750949750610dfc9650505050505050565b34801561054457600080fd5b5061028e610fda565b34801561055957600080fd5b506102c6611044565b34801561056e57600080fd5b50610259611053565b34801561058357600080fd5b506102c6611064565b34801561059857600080fd5b5061028e611073565b3480156105ad57600080fd5b506102f76110a6565b3480156105c257600080fd5b506102596110ca565b3480156105d757600080fd5b5060408051602060046024803582810135601f810185900485028601850190965285855261025995833595369560449491939091019190819084018382808284375050604080516020601f60808a01358b0180359182018390048302840183018552818452989b8a359b838c01359b958601359a60608701359a50919850965060a09094019450919281019190819084018382808284375050604080516020601f89358b018035918201839004830284018301909452808352979a99988101979196509182019450925082915084018382808284375050604080516020601f89358b018035918201839004830284018301909452808352979a99988101979196509182019450925082915084018382808284375050604080516020601f89358b018035918201839004830284018301909452808352979a99988101979196509182019450925082915084018382808284375050604080516020601f89358b018035918201839004830284018301909452808352979a9998810197919650918201945092508291508401838280828437509497506110eb9650505050505050565b34801561078357600080fd5b5061078c611187565b604080517bffffffffffffffffffffffffffffffffffffffffffffffffffffffff199092168252519081900360200190f35b3480156107ca57600080fd5b5061028e600160a060020a03600435166111ab565b3480156107eb57600080fd5b506102f761123c565b34801561080057600080fd5b506102c6611260565b34801561081557600080fd5b5061028e600160a060020a036004351661126f565b34801561083657600080fd5b5061028e600160a060020a036004351661128e565b34801561085757600080fd5b5061028e6112e5565b600154604080517f61bbd461000000000000000000000000000000000000000000000000000000008152600481018c9052905160009283928392600160a060020a03909216916361bbd4619160248082019260809290919082900301818787803b1580156108cd57600080fd5b505af11580156108e1573d6000803e3d6000fd5b505050506040513d60808110156108f757600080fd5b8101908080519060200190929190805190602001909291908051906020019092919080519060200190929190505050905050809250819350505089898989604051808581526020018481526020018360001916600019168152602001826000191660001916815260200194505050505060405180910390206000191673__Merkle________________________________636c8f455c9091838d03858f6040518563ffffffff1660e060020a028152600401808560001916600019168152602001848152602001836000191660001916815260200180602001828103825283818151815260200191508051906020019080838360005b83811015610a055781810151838201526020016109ed565b50505050905090810190601f168015610a325780820380516001836020036101000a031916815260200191505b509550505050505060206040518083038186803b158015610a5257600080fd5b505af4158015610a66573d6000803e3d6000fd5b505050506040513d6020811015610a7c57600080fd5b50518015610c44575073__MerklePatriciaProof___________________6379d1d4fa8688878c6040518563ffffffff1660e060020a028152600401808060200180602001806020018560001916600019168152602001848103845288818151815260200191508051906020019080838360005b83811015610b08578181015183820152602001610af0565b50505050905090810190601f168015610b355780820380516001836020036101000a031916815260200191505b50848103835287518152875160209182019189019080838360005b83811015610b68578181015183820152602001610b50565b50505050905090810190601f168015610b955780820380516001836020036101000a031916815260200191505b50848103825286518152865160209182019188019080838360005b83811015610bc8578181015183820152602001610bb0565b50505050905090810190601f168015610bf55780820380516001836020036101000a031916815260200191505b5097505050505050505060206040518083038186803b158015610c1757600080fd5b505af4158015610c2b573d6000803e3d6000fd5b505050506040513d6020811015610c4157600080fd5b50515b9c9b505050505050505050505050565b610c5c611053565b1515610c6757600080fd5b600160a060020a0381161515610c7c57600080fd5b6003805473ffffffffffffffffffffffffffffffffffffffff1916600160a060020a0392909216919091179055565b610cb3611053565b1515610cbe57600080fd5b600160a060020a0381161515610cd357600080fd5b6002805473ffffffffffffffffffffffffffffffffffffffff1916600160a060020a0392909216919091179055565b600454600160a060020a031681565b7f4e2ca0515ed1aef1395f66b5303bb5d6f1bf9d61a353fa53f73f8ac9973fa9f681565b7fe6497e3ee548a3372136af2fcb0696db31fc6cf20260707645068bd3fe97f3c481565b6060610d6c610d678361132f565b611382565b9050610d7781611437565b1515610de957600160009054906101000a9004600160a060020a0316600160a060020a0316632da25de36040518163ffffffff1660e060020a028152600401600060405180830381600087803b158015610dd057600080fd5b505af1158015610de4573d6000803e3d6000fd5b505050505b5050565b600254600160a060020a031681565b6000610e06612823565b60606000610e1d8f8f8f8f8f8f8f8f8f8f8f6110eb565b1580610e2857508751155b80610e3257508551155b15610e405760009350610fc8565b610e498861132f565b9250610e5483611571565b1580610e6a5750610e6483611382565b51600914155b15610e785760009350610fc8565b610e818661132f565b9250610e8c83611571565b1515610e9b5760009350610fc8565b610ea483611382565b915081516004141580610ed55750610ed3826003815181101515610ec457fe5b90602001906020020151611571565b155b15610ee35760009350610fc8565b610f04826003815181101515610ef557fe5b90602001906020020151611382565b9150600082511115610fc3575060005b81518160ff161015610fc357610f34828260ff16815181101515610ec457fe5b1580610f5457506002610f51838360ff16815181101515610ef557fe5b51105b80610f805750610f7e610f71838360ff16815181101515610ef557fe5b80516001908110610ec457fe5b155b80610fad5750610faa610f9d838360ff16815181101515610ef557fe5b80516001908110610ef557fe5b51155b15610fbb5760009350610fc8565b600101610f14565b600193505b5050509b9a5050505050505050505050565b610fe2611053565b1515610fed57600080fd5b60008054604051600160a060020a03909116907f8be0079c531659141344cd1fd0a4f28419497f9722a3daafe3b4186f6b6457e0908390a36000805473ffffffffffffffffffffffffffffffffffffffff19169055565b600054600160a060020a031690565b600054600160a060020a0316331490565b600154600160a060020a031681565b61107b611053565b151561108657600080fd5b6001805474ff000000000000000000000000000000000000000019169055565b7f8c5be1e5ebec7d5bd14f71427d1e84f3dd0314c0f7b2291e5b200ac8c7c3b92581565b60015474010000000000000000000000000000000000000000900460ff1681565b60006110fe8c8c8c8c8c8c8c8c8c610860565b8015610c44575073__MerklePatriciaProof___________________6379d1d4fa8488858b6040518563ffffffff1660e060020a0281526004018080602001806020018060200185600019166000191681526020018481038452888181518152602001915080519060200190808383600083811015610b08578181015183820152602001610af0565b7fa9059cbb0000000000000000000000000000000000000000000000000000000081565b6111b3611053565b15156111be57600080fd5b600160a060020a03811615156111d357600080fd5b600154604051600160a060020a038084169216907f211c9015fc81c0dbd45bd99f0f29fc1c143bfd53442d5ffd722bbbef7a887fe990600090a36001805473ffffffffffffffffffffffffffffffffffffffff1916600160a060020a0392909216919091179055565b7fddf252ad1be2c89b69c2b068fc378daa952ba7f163c4a11628f55a4df523b3ef81565b600354600160a060020a031681565b611277611053565b151561128257600080fd5b61128b816115a3565b50565b611296611053565b15156112a157600080fd5b600160a060020a03811615156112b657600080fd5b6004805473ffffffffffffffffffffffffffffffffffffffff1916600160a060020a0392909216919091179055565b6112ed611053565b15156112f857600080fd5b6001805474ff0000000000000000000000000000000000000000191674010000000000000000000000000000000000000000179055565b611337612823565b8151600081151561135d576040805180820190915260008082526020820152925061137b565b60208401905060408051908101604052808281526020018381525092505b5050919050565b6060600061138e61283a565b600061139985611571565b15156113a457600080fd5b6113ad85611620565b9250826040519080825280602002602001820160405280156113e957816020015b6113d6612823565b8152602001906001900390816113ce5790505b5093506113f585611690565b91505b611401826116c9565b1561142f5761140f826116e8565b848281518110151561141d57fe5b602090810290910101526001016113f8565b505050919050565b600061153461145d83600081518110151561144e57fe5b9060200190602002015161172a565b61147e84600181518110151561146f57fe5b90602001906020020151611773565b61149085600281518110151561144e57fe5b6114a286600381518110151561144e57fe5b6114c38760048151811015156114b457fe5b906020019060200201516117d5565b6114d58860058151811015156114b457fe5b6114e789600681518110151561146f57fe5b6114f98a600781518110151561146f57fe5b61150b8b600881518110151561146f57fe5b61151d8c600981518110151561146f57fe5b61152f8d600a81518110151561146f57fe5b6110eb565b151561153f57600080fd5b61156b61155483600781518110151561146f57fe5b61156684600981518110151561146f57fe5b6117e0565b92915050565b60008082602001516000141561158a576000915061159d565b8260000151905060c0815160001a101591505b50919050565b600160a060020a03811615156115b857600080fd5b60008054604051600160a060020a03808516939216917f8be0079c531659141344cd1fd0a4f28419497f9722a3daafe3b4186f6b6457e091a36000805473ffffffffffffffffffffffffffffffffffffffff1916600160a060020a0392909216919091179055565b60008060008060008061163287611571565b15156116415760009550611686565b8651805160001a9550935061165587611a38565b840192506001876020015185010391505b8183116116825761167683611ab8565b90920191600101611666565b8095505b5050505050919050565b61169861283a565b60006116a383611571565b15156116ae57600080fd5b6116b783611a38565b83519383529092016020820152919050565b60006116d3612823565b50508051602080820151915192015191011190565b6116f0612823565b6000806116fc846116c9565b15610124578360200151915061171182611ab8565b828452602080850182905283820190860152905061137b565b600080600061173884611b45565b151561174357600080fd5b61174c84611b6e565b9092509050602081111561175f57600080fd5b806020036101000a82510492505050919050565b606060008061178184611b45565b151561178c57600080fd5b61179584611b6e565b91509150806040519080825280601f01601f1916602001820160405280156117c7578160200160208202803883390190505b50925061137b828483611beb565b600061156b8261172a565b600060606000606060006117f6610d678861132f565b805190945060091461180757600080fd5b61182884600381518110151561181957fe5b90602001906020020151611c2b565b600254604080517f40828ebf000000000000000000000000000000000000000000000000000000008152600160a060020a038481166004830152915193965060009391909216916340828ebf91602480830192602092919082900301818787803b15801561189557600080fd5b505af11580156118a9573d6000803e3d6000fd5b505050506040513d60208110156118bf57600080fd5b5051600160a060020a031614156118d557600080fd5b6118e784600581518110151561146f57fe5b91507fa9059cbb0000000000000000000000000000000000000000000000000000000061191f61191a8460006004611c58565b611cd9565b7bffffffffffffffffffffffffffffffffffffffffffffffffffffffff19161461194857600080fd5b815160441461195a5760009450611a2e565b61196384611ce0565b9050611971610d678761132f565b9350835160041480156119965750611991846003815181101515610ef557fe5b516002145b80156119df57506119df83826119ad8560106121c6565b6119b88660246121f6565b6119da6119cd8a6003815181101515610ef557fe5b80516000908110610ef557fe5b612216565b8015611a1b5750611a1b83826119f68560106121c6565b611a018660246121f6565b611a16610f9d8a6003815181101515610ef557fe5b61235f565b15611a295760019450611a2e565b600094505b5050505092915050565b6000806000836020015160001415611a53576000925061137b565b50508151805160001a906080821015611a6f576000925061137b565b60b8821080611a8a575060c08210158015611a8a575060f882105b15611a98576001925061137b565b60c0821015611aad5760b5198201925061137b565b5060f5190192915050565b8051600090811a6080811015611ad1576001915061159d565b60b8811015611ae657607e198101915061159d565b60c0811015611b0f57600183015160b76020839003016101000a9004810160b51901915061159d565b60f8811015611b245760be198101915061159d565b6001929092015160f76020849003016101000a900490910160f51901919050565b600080826020015160001415611b5e576000915061159d565b5050515160c060009190911a1090565b6000806000806000611b7f86611b45565b1515611b8a57600080fd5b8551805160001a935091506080831015611baa5781945060019350611be3565b60b8831015611bc85760018660200151039350816001019450611be3565b60b78303905080600187602001510303935080820160010194505b505050915091565b60006020601f83010484602085015b828414611c1857602084028281015190820152600190930192611bfa565b6000865160200187015250505050505050565b600080611c3783611b6e565b9150506014811115611c4857600080fd5b611c518361172a565b9392505050565b606080828401855110151515611c6d57600080fd5b82158015611c8657604051915060208201604052611cd0565b6040519150601f8416801560200281840101858101878315602002848b0101015b81831015611cbf578051835260209283019201611ca7565b5050858452601f01601f1916604052505b50949350505050565b6020015190565b60408051600980825261014082019092526000916060918391816020015b6060815260200190600190039081611cfe579050509150600090505b600560ff821611611d5c57611d39848260ff1681518110151561146f57fe5b828260ff16815181101515611d4a57fe5b60209081029091010152600101611d1a565b604080516020810190915260008152825183906004908110611d7a57fe5b60209081029091010152600154604080517f9025e64c0000000000000000000000000000000000000000000000000000000081529051600160a060020a0390921691639025e64c9160048082019260009290919082900301818387803b158015611de357600080fd5b505af1158015611df7573d6000803e3d6000fd5b505050506040513d6000823e601f3d908101601f191682016040526020811015611e2057600080fd5b810190808051640100000000811115611e3857600080fd5b82016020810184811115611e4b57600080fd5b8151640100000000811182820187101715611e6557600080fd5b50508551909350859250600691508110611e7b57fe5b906020019060200201819052506020604051908101604052806000815250826007815181101515611ea857fe5b906020019060200201819052506020604051908101604052806000815250826008815181101515611ed557fe5b602090810290910101526001611eea83612546565b6040518082805190602001908083835b60208310611f195780518252601f199092019160209182019101611efa565b6001836020036101000a038019825116818451168082178552505050505050905001915050604051809103902073__Common________________________________63261737b2611f7288600681518110151561146f57fe5b73__Common________________________________637ae93b19886006815181101515611f9b57fe5b906020019060200201516040518263ffffffff1660e060020a0281526004018080602001828103825283818151815260200191508051906020019080838360005b83811015611ff4578181015183820152602001611fdc565b50505050905090810190601f1680156120215780820380516001836020036101000a031916815260200191505b509250505060206040518083038186803b15801561203e57600080fd5b505af4158015612052573d6000803e3d6000fd5b505050506040513d602081101561206857600080fd5b50516040805160e060020a63ffffffff861602815260ff8316602482015260048101918252835160448201528351829160640190602086019080838360005b838110156120bf5781810151838201526020016120a7565b50505050905090810190601f1680156120ec5780820380516001836020036101000a031916815260200191505b50935050505060206040518083038186803b15801561210a57600080fd5b505af415801561211e573d6000803e3d6000fd5b505050506040513d602081101561213457600080fd5b5051865161214990889060079081106114b457fe5b61215b8860088151811015156114b457fe5b60408051600080825260208083018085529790975260ff90951681830152606081019390935260808301919091525160a08083019493601f198301938390039091019190865af11580156121b3573d6000803e3d6000fd5b5050604051601f19015195945050505050565b600080826014018451101515156121dc57600080fd5b505001602001516c01000000000000000000000000900490565b6000808260200184511015151561220c57600080fd5b5050016020015190565b600060608251600314151561222e5760009150612355565b612240836001815181101515610ef557fe5b905080516003148015612275575086600160a060020a031661226a84600081518110151561181957fe5b600160a060020a0316145b80156122b3575080517fddf252ad1be2c89b69c2b068fc378daa952ba7f163c4a11628f55a4df523b3ef906122b190839060009081106114b457fe5b145b80156122eb575085600160a060020a03166122e06122d983600181518110151561146f57fe5b600c6121c6565b600160a060020a0316145b801561231c575084600160a060020a03166123116122d983600281518110151561146f57fe5b600160a060020a0316145b801561234257508361234061233985600281518110151561146f57fe5b60006121f6565b145b156123505760019150612355565b600091505b5095945050505050565b600080606083516003141515612378576000925061253b565b85600160a060020a031687600160a060020a031614612397578461239a565b60005b91506123ae846001815181101515610ef557fe5b9050805160041480156123e3575087600160a060020a03166123d885600081518110151561181957fe5b600160a060020a0316145b8015612421575080517fe6497e3ee548a3372136af2fcb0696db31fc6cf20260707645068bd3fe97f3c49061241f90839060009081106114b457fe5b145b8015612452575086600160a060020a03166124476122d983600281518110151561146f57fe5b600160a060020a0316145b8015612483575085600160a060020a03166124786122d983600381518110151561146f57fe5b600160a060020a0316145b80156124a25750846124a061233986600281518110151561146f57fe5b145b80156124e55750816124c66124bf86600281518110151561146f57fe5b60606121f6565b6124e26124db87600281518110151561146f57fe5b60206121f6565b03145b801561252857508161250961250286600281518110151561146f57fe5b60406121f6565b61252561251e87600281518110151561146f57fe5b60806121f6565b03145b15612536576001925061253b565b600092505b505095945050505050565b60608060005b83518110156125885761257e82612579868481518110151561256a57fe5b906020019060200201516125a5565b612615565b915060010161254c565b61259d612597835160c0612690565b83612615565b949350505050565b606080825160011480156125d8575060808360008151811015156125c557fe5b016020015160f860020a90819004810204105b156126045760408051600180825281830190925290602080830190803883395085935061156b92505050565b611c5161261384516080612690565b845b6060806040519050835180825260208201818101602087015b8183101561264657805183526020928301920161262e565b50855184518101855292509050808201602086015b8183101561267357805183526020928301920161265b565b509551919091011594909401601f01601f19166040529392505050565b606080600080606080603888101561271257604080516001808252818301909252906020808301908038833901905050945086880160f860020a028560008151811015156126da57fe5b9060200101907effffffffffffffffffffffffffffffffffffffffffffffffffffffffffffff1916908160001a905350849550612763565b600192505b828881151561272257fe5b041561273b576001909301926101009290920291612717565b61274984886037010161276e565b91506127548861276e565b90506127608282612615565b95505b505050505092915050565b60606001600060ff84111561278257600291505b816040519080825280601f01601f1916602001820160405280156127b0578160200160208202803883390190505b509250600090505b8181101561137b5780600183030360080260020a848115156127d657fe5b0460f860020a0283828151811015156127eb57fe5b9060200101907effffffffffffffffffffffffffffffffffffffffffffffffffffffffffffff1916908160001a9053506001016127b8565b604080518082019091526000808252602082015290565b60606040519081016040528061284e612823565b81526020016000815250905600a165627a7a72305820a200ee9893115c12df090814c7d4d702069d7ec33d6c10794be48d5df8059ad30029",
  "source": "pragma solidity ^0.4.24;\n\nimport { RLP } from \"../lib/RLP.sol\";\nimport { BytesLib } from \"../lib/BytesLib.sol\";\n\nimport { RootChainValidator } from \"../mixin/RootChainValidator.sol\";\nimport { IRootChain } from \"../root/IRootChain.sol\";\n\n\ncontract ERC20Validator is RootChainValidator {\n  using RLP for bytes;\n  using RLP for RLP.RLPItem;\n  using RLP for RLP.Iterator;\n\n  // TODO optimize signatures (gas optimization while deploying the contract)\n\n  // 0xa9059cbb = keccak256('transfer(address,uint256)')\n  bytes4 constant public TRANSFER_SIGNATURE = 0xa9059cbb;\n\n  // keccak256('Transfer(address,address,uint256)')\n  bytes32 constant public TRANSFER_EVENT_SIGNATURE = 0xddf252ad1be2c89b69c2b068fc378daa952ba7f163c4a11628f55a4df523b3ef;\n  // keccak256('Approval(address,address,uint256)')\n  bytes32 constant public APPROVAL_EVENT_SIGNATURE = 0x8c5be1e5ebec7d5bd14f71427d1e84f3dd0314c0f7b2291e5b200ac8c7c3b925;\n  // keccak256('Deposit(address,address,uint256,uint256,uint256)')\n  bytes32 constant public DEPOSIT_EVENT_SIGNATURE = 0x4e2ca0515ed1aef1395f66b5303bb5d6f1bf9d61a353fa53f73f8ac9973fa9f6;\n  // keccak256('Withdraw(address,address,uint256,uint256,uint256)')\n  bytes32 constant private WITHDRAW_EVENT_SIGNATURE = 0xebff2602b3f468259e1e99f613fed6691f3a6526effe6ef3e768ba7ae7a36c4f;\n\n  // keccak256('LogTransfer(address,address,address,uint256,uint256,uint256,uint256,uint256)')\n  bytes32 constant public LOG_TRANSFER_EVENT_SIGNATURE = 0xe6497e3ee548a3372136af2fcb0696db31fc6cf20260707645068bd3fe97f3c4;\n\n  // validate ERC20 TX\n  function validateTransferTx(\n    bytes transferTx\n  ) public {\n    // validate transfer tx\n    RLP.RLPItem[] memory txData = transferTx.toRLPItem().toList();\n\n    // validate ERC20 transfer tx\n    if (!_validateTransferTx(txData)) {\n      IRootChain(rootChain).slash();\n    }\n  }\n\n  function _validateTransferTx(\n    RLP.RLPItem[] memory txData\n  ) internal returns (bool) {\n    // validate tx receipt existence\n    require(\n      validateTxReceiptExistence(\n        txData[0].toUint(), // headerNumber\n        txData[1].toData(), // headerProof,\n\n        txData[2].toUint(), // blockNumber,\n        txData[3].toUint(), // blockTime,\n\n        txData[4].toBytes32(), // txRoot,\n        txData[5].toBytes32(), // receiptRoot,\n        txData[6].toData(), // path,\n\n        txData[7].toData(), // txBytes,\n        txData[8].toData(), // txProof\n\n        txData[9].toData(), // receiptBytes,\n        txData[10].toData() // receiptProof\n      )\n    );\n\n    return _validateTransferTx(txData[7].toData(), txData[9].toData());\n  }\n\n  function _validateTransferTx(\n    bytes txData,\n    bytes receiptData\n  ) internal returns (bool) {\n    // check transaction\n    RLP.RLPItem[] memory items = txData.toRLPItem().toList();\n    require(items.length == 9);\n\n    // check if child token is mapped with root tokens\n    address childToken = items[3].toAddress();\n    require(depositManager.reverseTokens(childToken) != address(0));\n\n    // check if transaction is transfer tx\n    // <4 bytes transfer event,address (32 bytes),amount (32 bytes)>\n    bytes memory dataField = items[5].toData();\n    require(BytesLib.toBytes4(BytesLib.slice(dataField, 0, 4)) == TRANSFER_SIGNATURE);\n\n    // if data field is not 68 bytes, return\n    if (dataField.length != 68) {\n      return false;\n    }\n\n    // sender\n    address sender = getTxSender(items);\n\n    /*\n      check receipt and data field\n      Receipt -->\n        [0]\n        [1]\n        [2]\n        [3]-> [\n          [child token address, [TRANSFER_EVENT_SIGNATURE, from, to], <amount>],\n          [child token address, [LOG_TRANSFER_EVENT_SIGNATURE,token,from,to], <amount,input1,input2,output1,output2>]\n        ]\n    */\n    items = receiptData.toRLPItem().toList();\n    if (\n      items.length == 4 &&\n      items[3].toList().length == 2 &&\n      _validateTransferEvent(\n        childToken,\n        sender,\n        BytesLib.toAddress(dataField, 16),\n        BytesLib.toUint(dataField, 36),\n        items[3].toList()[0].toList()\n      ) &&\n      _validateLogTransferEvent(\n        childToken,\n        sender,\n        BytesLib.toAddress(dataField, 16),\n        BytesLib.toUint(dataField, 36),\n        items[3].toList()[1].toList()\n      )\n    ) {\n      return true;\n    }\n\n    return false;\n  }\n\n  function _validateTransferEvent(\n    address childToken,\n    address from,\n    address to,\n    uint256 amount,\n    RLP.RLPItem[] items // [child token address, [TRANSFER_EVENT_SIGNATURE, from, to], <amount>]\n  ) internal view returns (bool) {\n    if (items.length != 3) {\n      return false;\n    }\n\n    RLP.RLPItem[] memory topics = items[1].toList();\n    if (\n      topics.length == 3 &&\n      items[0].toAddress() == childToken &&\n      topics[0].toBytes32() == TRANSFER_EVENT_SIGNATURE &&\n      BytesLib.toAddress(topics[1].toData(), 12) == from &&\n      BytesLib.toAddress(topics[2].toData(), 12) == to &&\n      BytesLib.toUint(items[2].toData(), 0) == amount\n    ) {\n      return true;\n    }\n\n    return false;\n  }\n\n  function _validateLogTransferEvent(\n    address childToken,\n    address from,\n    address to,\n    uint256 amount,\n    RLP.RLPItem[] items // [child token address, [LOG_TRANSFER_EVENT_SIGNATURE,token,from,to], <amount,input1,input2,output1,output2>]\n  ) internal view returns (bool) {\n    if (items.length != 3) {\n      return false;\n    }\n\n    uint256 diff = from == to ? 0 : amount;\n    RLP.RLPItem[] memory topics = items[1].toList();\n    if (\n      topics.length == 4 &&\n      items[0].toAddress() == childToken &&\n      topics[0].toBytes32() == LOG_TRANSFER_EVENT_SIGNATURE &&\n      BytesLib.toAddress(topics[2].toData(), 12) == from &&\n      BytesLib.toAddress(topics[3].toData(), 12) == to &&\n      BytesLib.toUint(items[2].toData(), 0) == amount &&\n      (BytesLib.toUint(items[2].toData(), 32) - BytesLib.toUint(items[2].toData(), 96)) == diff &&\n      (BytesLib.toUint(items[2].toData(), 128) - BytesLib.toUint(items[2].toData(), 64)) == diff\n    ) {\n      return true;\n    }\n\n    return false;\n  }\n}\n",
  "sourcePath": "/Users/atvanguard/matic/contracts/contracts/proofs/ERC20Validator.sol",
  "compiler": {
    "name": "solc",
    "version": "0.4.24+commit.e67f0147.Emscripten.clang"
  },
  "schemaVersion": "2.0.1",
  "updatedAt": "2019-12-07T09:11:33.315Z"
}