{
  "contractName": "ERC721ValidatorMock",
  "abi": [
    {
      "constant": true,
      "inputs": [
        {
          "name": "headerNumber",
          "type": "uint256"
        },
        {
          "name": "headerProof",
          "type": "bytes"
        },
        {
          "name": "blockNumber",
          "type": "uint256"
        },
        {
          "name": "blockTime",
          "type": "uint256"
        },
        {
          "name": "txRoot",
          "type": "bytes32"
        },
        {
          "name": "receiptRoot",
          "type": "bytes32"
        },
        {
          "name": "path",
          "type": "bytes"
        },
        {
          "name": "txBytes",
          "type": "bytes"
        },
        {
          "name": "txProof",
          "type": "bytes"
        }
      ],
      "name": "validateTxExistence",
      "outputs": [
        {
          "name": "",
          "type": "bool"
        }
      ],
      "payable": false,
      "stateMutability": "view",
      "type": "function"
    },
    {
      "constant": false,
      "inputs": [
        {
          "name": "_withdrawManager",
          "type": "address"
        }
      ],
      "name": "setWithdrawManager",
      "outputs": [],
      "payable": false,
      "stateMutability": "nonpayable",
      "type": "function"
    },
    {
      "constant": false,
      "inputs": [
        {
          "name": "_depositManager",
          "type": "address"
        }
      ],
      "name": "setDepositManager",
      "outputs": [],
      "payable": false,
      "stateMutability": "nonpayable",
      "type": "function"
    },
    {
      "constant": true,
      "inputs": [],
      "name": "childChainContract",
      "outputs": [
        {
          "name": "",
          "type": "address"
        }
      ],
      "payable": false,
      "stateMutability": "view",
      "type": "function"
    },
    {
      "constant": true,
      "inputs": [],
      "name": "DEPOSIT_EVENT_SIGNATURE",
      "outputs": [
        {
          "name": "",
          "type": "bytes32"
        }
      ],
      "payable": false,
      "stateMutability": "view",
      "type": "function"
    },
    {
      "constant": true,
      "inputs": [],
      "name": "LOG_TRANSFER_EVENT_SIGNATURE",
      "outputs": [
        {
          "name": "",
          "type": "bytes32"
        }
      ],
      "payable": false,
      "stateMutability": "view",
      "type": "function"
    },
    {
      "constant": false,
      "inputs": [
        {
          "name": "transferTx",
          "type": "bytes"
        }
      ],
      "name": "validateTransferTx",
      "outputs": [],
      "payable": false,
      "stateMutability": "nonpayable",
      "type": "function"
    },
    {
      "constant": true,
      "inputs": [],
      "name": "depositManager",
      "outputs": [
        {
          "name": "",
          "type": "address"
        }
      ],
      "payable": false,
      "stateMutability": "view",
      "type": "function"
    },
    {
      "constant": true,
      "inputs": [
        {
          "name": "headerNumber",
          "type": "uint256"
        },
        {
          "name": "headerProof",
          "type": "bytes"
        },
        {
          "name": "blockNumber",
          "type": "uint256"
        },
        {
          "name": "blockTime",
          "type": "uint256"
        },
        {
          "name": "txRoot",
          "type": "bytes32"
        },
        {
          "name": "receiptRoot",
          "type": "bytes32"
        },
        {
          "name": "path",
          "type": "bytes"
        },
        {
          "name": "txBytes",
          "type": "bytes"
        },
        {
          "name": "txProof",
          "type": "bytes"
        },
        {
          "name": "receiptBytes",
          "type": "bytes"
        },
        {
          "name": "receiptProof",
          "type": "bytes"
        }
      ],
      "name": "validateTx",
      "outputs": [
        {
          "name": "",
          "type": "bool"
        }
      ],
      "payable": false,
      "stateMutability": "view",
      "type": "function"
    },
    {
      "constant": false,
      "inputs": [],
      "name": "renounceOwnership",
      "outputs": [],
      "payable": false,
      "stateMutability": "nonpayable",
      "type": "function"
    },
    {
      "constant": true,
      "inputs": [],
      "name": "owner",
      "outputs": [
        {
          "name": "",
          "type": "address"
        }
      ],
      "payable": false,
      "stateMutability": "view",
      "type": "function"
    },
    {
      "constant": true,
      "inputs": [],
      "name": "isOwner",
      "outputs": [
        {
          "name": "",
          "type": "bool"
        }
      ],
      "payable": false,
      "stateMutability": "view",
      "type": "function"
    },
    {
      "constant": true,
      "inputs": [],
      "name": "rootChain",
      "outputs": [
        {
          "name": "",
          "type": "address"
        }
      ],
      "payable": false,
      "stateMutability": "view",
      "type": "function"
    },
    {
      "constant": false,
      "inputs": [],
      "name": "unlock",
      "outputs": [],
      "payable": false,
      "stateMutability": "nonpayable",
      "type": "function"
    },
    {
      "constant": true,
      "inputs": [],
      "name": "APPROVAL_EVENT_SIGNATURE",
      "outputs": [
        {
          "name": "",
          "type": "bytes32"
        }
      ],
      "payable": false,
      "stateMutability": "view",
      "type": "function"
    },
    {
      "constant": true,
      "inputs": [],
      "name": "locked",
      "outputs": [
        {
          "name": "",
          "type": "bool"
        }
      ],
      "payable": false,
      "stateMutability": "view",
      "type": "function"
    },
    {
      "constant": true,
      "inputs": [
        {
          "name": "headerNumber",
          "type": "uint256"
        },
        {
          "name": "headerProof",
          "type": "bytes"
        },
        {
          "name": "blockNumber",
          "type": "uint256"
        },
        {
          "name": "blockTime",
          "type": "uint256"
        },
        {
          "name": "txRoot",
          "type": "bytes32"
        },
        {
          "name": "receiptRoot",
          "type": "bytes32"
        },
        {
          "name": "path",
          "type": "bytes"
        },
        {
          "name": "txBytes",
          "type": "bytes"
        },
        {
          "name": "txProof",
          "type": "bytes"
        },
        {
          "name": "receiptBytes",
          "type": "bytes"
        },
        {
          "name": "receiptProof",
          "type": "bytes"
        }
      ],
      "name": "validateTxReceiptExistence",
      "outputs": [
        {
          "name": "",
          "type": "bool"
        }
      ],
      "payable": false,
      "stateMutability": "view",
      "type": "function"
    },
    {
      "constant": true,
      "inputs": [],
      "name": "TRANSFER_SIGNATURE",
      "outputs": [
        {
          "name": "",
          "type": "bytes4"
        }
      ],
      "payable": false,
      "stateMutability": "view",
      "type": "function"
    },
    {
      "constant": false,
      "inputs": [
        {
          "name": "newRootChain",
          "type": "address"
        }
      ],
      "name": "changeRootChain",
      "outputs": [],
      "payable": false,
      "stateMutability": "nonpayable",
      "type": "function"
    },
    {
      "constant": true,
      "inputs": [],
      "name": "TRANSFER_EVENT_SIGNATURE",
      "outputs": [
        {
          "name": "",
          "type": "bytes32"
        }
      ],
      "payable": false,
      "stateMutability": "view",
      "type": "function"
    },
    {
      "constant": true,
      "inputs": [],
      "name": "withdrawManager",
      "outputs": [
        {
          "name": "",
          "type": "address"
        }
      ],
      "payable": false,
      "stateMutability": "view",
      "type": "function"
    },
    {
      "constant": false,
      "inputs": [
        {
          "name": "newOwner",
          "type": "address"
        }
      ],
      "name": "transferOwnership",
      "outputs": [],
      "payable": false,
      "stateMutability": "nonpayable",
      "type": "function"
    },
    {
      "constant": false,
      "inputs": [
        {
          "name": "_childChainContract",
          "type": "address"
        }
      ],
      "name": "setChildChainContract",
      "outputs": [],
      "payable": false,
      "stateMutability": "nonpayable",
      "type": "function"
    },
    {
      "constant": false,
      "inputs": [],
      "name": "lock",
      "outputs": [],
      "payable": false,
      "stateMutability": "nonpayable",
      "type": "function"
    },
    {
      "anonymous": false,
      "inputs": [
        {
          "indexed": true,
          "name": "previousRootChain",
          "type": "address"
        },
        {
          "indexed": true,
          "name": "newRootChain",
          "type": "address"
        }
      ],
      "name": "RootChainChanged",
      "type": "event"
    },
    {
      "anonymous": false,
      "inputs": [
        {
          "indexed": true,
          "name": "previousOwner",
          "type": "address"
        },
        {
          "indexed": true,
          "name": "newOwner",
          "type": "address"
        }
      ],
      "name": "OwnershipTransferred",
      "type": "event"
    },
    {
      "constant": false,
      "inputs": [
        {
          "name": "transferTx",
          "type": "bytes"
        }
      ],
      "name": "validateERC721Tx",
      "outputs": [],
      "payable": false,
      "stateMutability": "nonpayable",
      "type": "function"
    }
  ],
  "bytecode": "0x60806040819052600480547723b872dd000000000000000000000000000000000000000060a060020a63ffffffff02199091161790557f6eabe333476233fd382224f233210cb808a7bc4c4de64f9d76628bf63c677b1a60055560008054600160a060020a0319163317808255600160a060020a0316917f8be0079c531659141344cd1fd0a4f28419497f9722a3daafe3b4186f6b6457e0908290a36127ef806100aa6000396000f30060806040526004361061012f5763ffffffff60e060020a6000350416630b3fa78c811461013457806317e3e2e814610278578063228d71a91461029b578063242fbb04146102bc5780634ef68cb4146102ed5780635159a755146103145780635327e6451461032957806356382b53146103825780636c7ac9d8146103db5780636d4babac146103f0578063715018a61461059c5780638da5cb5b146105b15780638f32d59b146105c6578063987ab9db146105db578063a69df4b5146105f0578063b2bc668214610605578063cf3090121461061a578063d9bcb3351461062f578063e0310e52146107db578063e8afa8e814610822578063eab15c4214610843578063ec3e9da514610858578063f2fde38b1461086d578063f3b57e611461088e578063f83d08ba146108af575b600080fd5b34801561014057600080fd5b5060408051602060046024803582810135601f810185900485028601850190965285855261026495833595369560449491939091019190819084018382808284375050604080516020601f60808a01358b0180359182018390048302840183018552818452989b8a359b838c01359b958601359a60608701359a50919850965060a09094019450919281019190819084018382808284375050604080516020601f89358b018035918201839004830284018301909452808352979a99988101979196509182019450925082915084018382808284375050604080516020601f89358b018035918201839004830284018301909452808352979a9998810197919650918201945092508291508401838280828437509497506108c49650505050505050565b604080519115158252519081900360200190f35b34801561028457600080fd5b50610299600160a060020a0360043516610cb8565b005b3480156102a757600080fd5b50610299600160a060020a0360043516610d0f565b3480156102c857600080fd5b506102d1610d66565b60408051600160a060020a039092168252519081900360200190f35b3480156102f957600080fd5b50610302610d75565b60408051918252519081900360200190f35b34801561032057600080fd5b50610302610d99565b34801561033557600080fd5b506040805160206004803580820135601f8101849004840285018401909552848452610299943694929360249392840191908190840183828082843750949750610d9f9650505050505050565b34801561038e57600080fd5b506040805160206004803580820135601f8101849004840285018401909552848452610299943694929360249392840191908190840183828082843750949750610e339650505050505050565b3480156103e757600080fd5b506102d1610e57565b3480156103fc57600080fd5b5060408051602060046024803582810135601f810185900485028601850190965285855261026495833595369560449491939091019190819084018382808284375050604080516020601f60808a01358b0180359182018390048302840183018552818452989b8a359b838c01359b958601359a60608701359a50919850965060a09094019450919281019190819084018382808284375050604080516020601f89358b018035918201839004830284018301909452808352979a99988101979196509182019450925082915084018382808284375050604080516020601f89358b018035918201839004830284018301909452808352979a99988101979196509182019450925082915084018382808284375050604080516020601f89358b018035918201839004830284018301909452808352979a99988101979196509182019450925082915084018382808284375050604080516020601f89358b018035918201839004830284018301909452808352979a999881019791965091820194509250829150840183828082843750949750610e669650505050505050565b3480156105a857600080fd5b50610299611044565b3480156105bd57600080fd5b506102d16110ae565b3480156105d257600080fd5b506102646110bd565b3480156105e757600080fd5b506102d16110ce565b3480156105fc57600080fd5b506102996110dd565b34801561061157600080fd5b50610302611110565b34801561062657600080fd5b50610264611134565b34801561063b57600080fd5b5060408051602060046024803582810135601f810185900485028601850190965285855261026495833595369560449491939091019190819084018382808284375050604080516020601f60808a01358b0180359182018390048302840183018552818452989b8a359b838c01359b958601359a60608701359a50919850965060a09094019450919281019190819084018382808284375050604080516020601f89358b018035918201839004830284018301909452808352979a99988101979196509182019450925082915084018382808284375050604080516020601f89358b018035918201839004830284018301909452808352979a99988101979196509182019450925082915084018382808284375050604080516020601f89358b018035918201839004830284018301909452808352979a99988101979196509182019450925082915084018382808284375050604080516020601f89358b018035918201839004830284018301909452808352979a9998810197919650918201945092508291508401838280828437509497506111559650505050505050565b3480156107e757600080fd5b506107f06111f1565b604080517bffffffffffffffffffffffffffffffffffffffffffffffffffffffff199092168252519081900360200190f35b34801561082e57600080fd5b50610299600160a060020a0360043516611215565b34801561084f57600080fd5b506103026112a6565b34801561086457600080fd5b506102d16112ca565b34801561087957600080fd5b50610299600160a060020a03600435166112d9565b34801561089a57600080fd5b50610299600160a060020a03600435166112f8565b3480156108bb57600080fd5b5061029961134f565b600154604080517f61bbd461000000000000000000000000000000000000000000000000000000008152600481018c9052905160009283928392600160a060020a03909216916361bbd4619160248082019260809290919082900301818787803b15801561093157600080fd5b505af1158015610945573d6000803e3d6000fd5b505050506040513d608081101561095b57600080fd5b8101908080519060200190929190805190602001909291908051906020019092919080519060200190929190505050905050809250819350505089898989604051808581526020018481526020018360001916600019168152602001826000191660001916815260200194505050505060405180910390206000191673__Merkle________________________________636c8f455c9091838d03858f6040518563ffffffff1660e060020a028152600401808560001916600019168152602001848152602001836000191660001916815260200180602001828103825283818151815260200191508051906020019080838360005b83811015610a69578181015183820152602001610a51565b50505050905090810190601f168015610a965780820380516001836020036101000a031916815260200191505b509550505050505060206040518083038186803b158015610ab657600080fd5b505af4158015610aca573d6000803e3d6000fd5b505050506040513d6020811015610ae057600080fd5b50518015610ca8575073__MerklePatriciaProof___________________6379d1d4fa8688878c6040518563ffffffff1660e060020a028152600401808060200180602001806020018560001916600019168152602001848103845288818151815260200191508051906020019080838360005b83811015610b6c578181015183820152602001610b54565b50505050905090810190601f168015610b995780820380516001836020036101000a031916815260200191505b50848103835287518152875160209182019189019080838360005b83811015610bcc578181015183820152602001610bb4565b50505050905090810190601f168015610bf95780820380516001836020036101000a031916815260200191505b50848103825286518152865160209182019188019080838360005b83811015610c2c578181015183820152602001610c14565b50505050905090810190601f168015610c595780820380516001836020036101000a031916815260200191505b5097505050505050505060206040518083038186803b158015610c7b57600080fd5b505af4158015610c8f573d6000803e3d6000fd5b505050506040513d6020811015610ca557600080fd5b50515b9c9b505050505050505050505050565b610cc06110bd565b1515610ccb57600080fd5b600160a060020a0381161515610ce057600080fd5b6003805473ffffffffffffffffffffffffffffffffffffffff1916600160a060020a0392909216919091179055565b610d176110bd565b1515610d2257600080fd5b600160a060020a0381161515610d3757600080fd5b6002805473ffffffffffffffffffffffffffffffffffffffff1916600160a060020a0392909216919091179055565b600454600160a060020a031681565b7f4e2ca0515ed1aef1395f66b5303bb5d6f1bf9d61a353fa53f73f8ac9973fa9f681565b60055481565b6060610db2610dad83611399565b6113ec565b9050610dbd816114a1565b1515610e2f57600160009054906101000a9004600160a060020a0316600160a060020a0316632da25de36040518163ffffffff1660e060020a028152600401600060405180830381600087803b158015610e1657600080fd5b505af1158015610e2a573d6000803e3d6000fd5b505050505b5050565b6060610e41610dad83611399565b9050610e4c816114a1565b1515610e2f57600080fd5b600254600160a060020a031681565b6000610e7061278b565b60606000610e878f8f8f8f8f8f8f8f8f8f8f611155565b1580610e9257508751155b80610e9c57508551155b15610eaa5760009350611032565b610eb388611399565b9250610ebe836115db565b1580610ed45750610ece836113ec565b51600914155b15610ee25760009350611032565b610eeb86611399565b9250610ef6836115db565b1515610f055760009350611032565b610f0e836113ec565b915081516004141580610f3f5750610f3d826003815181101515610f2e57fe5b906020019060200201516115db565b155b15610f4d5760009350611032565b610f6e826003815181101515610f5f57fe5b906020019060200201516113ec565b915060008251111561102d575060005b81518160ff16101561102d57610f9e828260ff16815181101515610f2e57fe5b1580610fbe57506002610fbb838360ff16815181101515610f5f57fe5b51105b80610fea5750610fe8610fdb838360ff16815181101515610f5f57fe5b80516001908110610f2e57fe5b155b806110175750611014611007838360ff16815181101515610f5f57fe5b80516001908110610f5f57fe5b51155b156110255760009350611032565b600101610f7e565b600193505b5050509b9a5050505050505050505050565b61104c6110bd565b151561105757600080fd5b60008054604051600160a060020a03909116907f8be0079c531659141344cd1fd0a4f28419497f9722a3daafe3b4186f6b6457e0908390a36000805473ffffffffffffffffffffffffffffffffffffffff19169055565b600054600160a060020a031690565b600054600160a060020a0316331490565b600154600160a060020a031681565b6110e56110bd565b15156110f057600080fd5b6001805474ff000000000000000000000000000000000000000019169055565b7f8c5be1e5ebec7d5bd14f71427d1e84f3dd0314c0f7b2291e5b200ac8c7c3b92581565b60015474010000000000000000000000000000000000000000900460ff1681565b60006111688c8c8c8c8c8c8c8c8c6108c4565b8015610ca8575073__MerklePatriciaProof___________________6379d1d4fa8488858b6040518563ffffffff1660e060020a0281526004018080602001806020018060200185600019166000191681526020018481038452888181518152602001915080519060200190808383600083811015610b6c578181015183820152602001610b54565b60045474010000000000000000000000000000000000000000900460e060020a0281565b61121d6110bd565b151561122857600080fd5b600160a060020a038116151561123d57600080fd5b600154604051600160a060020a038084169216907f211c9015fc81c0dbd45bd99f0f29fc1c143bfd53442d5ffd722bbbef7a887fe990600090a36001805473ffffffffffffffffffffffffffffffffffffffff1916600160a060020a0392909216919091179055565b7fddf252ad1be2c89b69c2b068fc378daa952ba7f163c4a11628f55a4df523b3ef81565b600354600160a060020a031681565b6112e16110bd565b15156112ec57600080fd5b6112f58161160d565b50565b6113006110bd565b151561130b57600080fd5b600160a060020a038116151561132057600080fd5b6004805473ffffffffffffffffffffffffffffffffffffffff1916600160a060020a0392909216919091179055565b6113576110bd565b151561136257600080fd5b6001805474ff0000000000000000000000000000000000000000191674010000000000000000000000000000000000000000179055565b6113a161278b565b815160008115156113c757604080518082019091526000808252602082015292506113e5565b60208401905060408051908101604052808281526020018381525092505b5050919050565b606060006113f86127a2565b6000611403856115db565b151561140e57600080fd5b6114178561168a565b92508260405190808252806020026020018201604052801561145357816020015b61144061278b565b8152602001906001900390816114385790505b50935061145f856116fa565b91505b61146b82611733565b156114995761147982611752565b848281518110151561148757fe5b60209081029091010152600101611462565b505050919050565b600061159e6114c78360008151811015156114b857fe5b90602001906020020151611794565b6114e88460018151811015156114d957fe5b906020019060200201516117dd565b6114fa8560028151811015156114b857fe5b61150c8660038151811015156114b857fe5b61152d87600481518110151561151e57fe5b9060200190602002015161183f565b61153f88600581518110151561151e57fe5b6115518960068151811015156114d957fe5b6115638a60078151811015156114d957fe5b6115758b60088151811015156114d957fe5b6115878c60098151811015156114d957fe5b6115998d600a8151811015156114d957fe5b611155565b15156115a957600080fd5b6115d56115be8360078151811015156114d957fe5b6115d08460098151811015156114d957fe5b61184a565b92915050565b6000808260200151600014156115f45760009150611607565b8260000151905060c0815160001a101591505b50919050565b600160a060020a038116151561162257600080fd5b60008054604051600160a060020a03808516939216917f8be0079c531659141344cd1fd0a4f28419497f9722a3daafe3b4186f6b6457e091a36000805473ffffffffffffffffffffffffffffffffffffffff1916600160a060020a0392909216919091179055565b60008060008060008061169c876115db565b15156116ab57600095506116f0565b8651805160001a955093506116bf87611ab3565b840192506001876020015185010391505b8183116116ec576116e083611b33565b909201916001016116d0565b8095505b5050505050919050565b6117026127a2565b600061170d836115db565b151561171857600080fd5b61172183611ab3565b83519383529092016020820152919050565b600061173d61278b565b50508051602080820151915192015191011190565b61175a61278b565b60008061176684611733565b1561012f578360200151915061177b82611b33565b82845260208085018290528382019086015290506113e5565b60008060006117a284611bc0565b15156117ad57600080fd5b6117b684611be9565b909250905060208111156117c957600080fd5b806020036101000a82510492505050919050565b60606000806117eb84611bc0565b15156117f657600080fd5b6117ff84611be9565b91509150806040519080825280601f01601f191660200182016040528015611831578160200160208202803883390190505b5092506113e5828483611c66565b60006115d582611794565b60006060600060606000611860610dad88611399565b805190945060091461187157600080fd5b61189284600381518110151561188357fe5b90602001906020020151611ca6565b600254604080517f40828ebf000000000000000000000000000000000000000000000000000000008152600160a060020a038481166004830152915193965060009391909216916340828ebf91602480830192602092919082900301818787803b1580156118ff57600080fd5b505af1158015611913573d6000803e3d6000fd5b505050506040513d602081101561192957600080fd5b5051600160a060020a0316141561193f57600080fd5b6119518460058151811015156114d957fe5b9150600460149054906101000a900460e060020a027bffffffffffffffffffffffffffffffffffffffffffffffffffffffff191661199a6119958460006004611cd3565b611d54565b7bffffffffffffffffffffffffffffffffffffffffffffffffffffffff1916146119c357600080fd5b81516064146119d55760009450611aa9565b6119de84611d5b565b90506119ec610dad87611399565b935083516004148015611a115750611a0c846003815181101515610f5f57fe5b516002145b8015611a5a5750611a5a8382611a28856024612241565b611a33866044612241565b611a55611a488a6003815181101515610f5f57fe5b80516000908110610f5f57fe5b612261565b8015611a965750611a968382611a71856024612241565b611a7c866044612241565b611a916110078a6003815181101515610f5f57fe5b612393565b15611aa45760019450611aa9565b600094505b5050505092915050565b6000806000836020015160001415611ace57600092506113e5565b50508151805160001a906080821015611aea57600092506113e5565b60b8821080611b05575060c08210158015611b05575060f882105b15611b1357600192506113e5565b60c0821015611b285760b519820192506113e5565b5060f5190192915050565b8051600090811a6080811015611b4c5760019150611607565b60b8811015611b6157607e1981019150611607565b60c0811015611b8a57600183015160b76020839003016101000a9004810160b519019150611607565b60f8811015611b9f5760be1981019150611607565b6001929092015160f76020849003016101000a900490910160f51901919050565b600080826020015160001415611bd95760009150611607565b5050515160c060009190911a1090565b6000806000806000611bfa86611bc0565b1515611c0557600080fd5b8551805160001a935091506080831015611c255781945060019350611c5e565b60b8831015611c435760018660200151039350816001019450611c5e565b60b78303905080600187602001510303935080820160010194505b505050915091565b60006020601f83010484602085015b828414611c9357602084028281015190820152600190930192611c75565b6000865160200187015250505050505050565b600080611cb283611be9565b9150506014811115611cc357600080fd5b611ccc83611794565b9392505050565b606080828401855110151515611ce857600080fd5b82158015611d0157604051915060208201604052611d4b565b6040519150601f8416801560200281840101858101878315602002848b0101015b81831015611d3a578051835260209283019201611d22565b5050858452601f01601f1916604052505b50949350505050565b6020015190565b60408051600980825261014082019092526000916060918391816020015b6060815260200190600190039081611d79579050509150600090505b600560ff821611611dd757611db4848260ff168151811015156114d957fe5b828260ff16815181101515611dc557fe5b60209081029091010152600101611d95565b604080516020810190915260008152825183906004908110611df557fe5b60209081029091010152600154604080517f9025e64c0000000000000000000000000000000000000000000000000000000081529051600160a060020a0390921691639025e64c9160048082019260009290919082900301818387803b158015611e5e57600080fd5b505af1158015611e72573d6000803e3d6000fd5b505050506040513d6000823e601f3d908101601f191682016040526020811015611e9b57600080fd5b810190808051640100000000811115611eb357600080fd5b82016020810184811115611ec657600080fd5b8151640100000000811182820187101715611ee057600080fd5b50508551909350859250600691508110611ef657fe5b906020019060200201819052506020604051908101604052806000815250826007815181101515611f2357fe5b906020019060200201819052506020604051908101604052806000815250826008815181101515611f5057fe5b602090810290910101526001611f65836124ae565b6040518082805190602001908083835b60208310611f945780518252601f199092019160209182019101611f75565b6001836020036101000a038019825116818451168082178552505050505050905001915050604051809103902073__Common________________________________63261737b2611fed8860068151811015156114d957fe5b73__Common________________________________637ae93b1988600681518110151561201657fe5b906020019060200201516040518263ffffffff1660e060020a0281526004018080602001828103825283818151815260200191508051906020019080838360005b8381101561206f578181015183820152602001612057565b50505050905090810190601f16801561209c5780820380516001836020036101000a031916815260200191505b509250505060206040518083038186803b1580156120b957600080fd5b505af41580156120cd573d6000803e3d6000fd5b505050506040513d60208110156120e357600080fd5b50516040805160e060020a63ffffffff861602815260ff8316602482015260048101918252835160448201528351829160640190602086019080838360005b8381101561213a578181015183820152602001612122565b50505050905090810190601f1680156121675780820380516001836020036101000a031916815260200191505b50935050505060206040518083038186803b15801561218557600080fd5b505af4158015612199573d6000803e3d6000fd5b505050506040513d60208110156121af57600080fd5b505186516121c4908890600790811061151e57fe5b6121d688600881518110151561151e57fe5b60408051600080825260208083018085529790975260ff90951681830152606081019390935260808301919091525160a08083019493601f198301938390039091019190865af115801561222e573d6000803e3d6000fd5b5050604051601f19015195945050505050565b6000808260200184511015151561225757600080fd5b5050016020015190565b60006060825160031415156122795760009150612389565b61228b836001815181101515610f5f57fe5b9050805160041480156122c0575086600160a060020a03166122b584600081518110151561188357fe5b600160a060020a0316145b80156122fe575080517fddf252ad1be2c89b69c2b068fc378daa952ba7f163c4a11628f55a4df523b3ef906122fc908390600090811061151e57fe5b145b801561232c575085600160a060020a03166123218260018151811015156114b857fe5b600160a060020a0316145b801561235a575084600160a060020a031661234f8260028151811015156114b857fe5b600160a060020a0316145b80156123765750836123748260038151811015156114b857fe5b145b156123845760019150612389565b600091505b5095945050505050565b60006060825160031415156123ab5760009150612389565b6123bd836001815181101515610f5f57fe5b9050805160041480156123f2575086600160a060020a03166123e784600081518110151561188357fe5b600160a060020a0316145b80156124115750600554815161240f908390600090811061151e57fe5b145b801561243f575085600160a060020a03166124348260028151811015156114b857fe5b600160a060020a0316145b801561246d575084600160a060020a03166124628260038151811015156114b857fe5b600160a060020a0316145b801561249357508361249161248a8560028151811015156114d957fe5b6000612241565b145b156124a15760019150612389565b5060019695505050505050565b60608060005b83518110156124f0576124e6826124e186848151811015156124d257fe5b9060200190602002015161250d565b61257d565b91506001016124b4565b6125056124ff835160c06125f8565b8361257d565b949350505050565b606080825160011480156125405750608083600081518110151561252d57fe5b016020015160f860020a90819004810204105b1561256c576040805160018082528183019092529060208083019080388339508593506115d592505050565b611ccc61257b845160806125f8565b845b6060806040519050835180825260208201818101602087015b818310156125ae578051835260209283019201612596565b50855184518101855292509050808201602086015b818310156125db5780518352602092830192016125c3565b509551919091011594909401601f01601f19166040529392505050565b606080600080606080603888101561267a57604080516001808252818301909252906020808301908038833901905050945086880160f860020a0285600081518110151561264257fe5b9060200101907effffffffffffffffffffffffffffffffffffffffffffffffffffffffffffff1916908160001a9053508495506126cb565b600192505b828881151561268a57fe5b04156126a357600190930192610100929092029161267f565b6126b18488603701016126d6565b91506126bc886126d6565b90506126c8828261257d565b95505b505050505092915050565b60606001600060ff8411156126ea57600291505b816040519080825280601f01601f191660200182016040528015612718578160200160208202803883390190505b509250600090505b818110156113e55780600183030360080260020a8481151561273e57fe5b0460f860020a02838281518110151561275357fe5b9060200101907effffffffffffffffffffffffffffffffffffffffffffffffffffffffffffff1916908160001a905350600101612720565b604080518082019091526000808252602082015290565b6060604051908101604052806127b661278b565b81526020016000815250905600a165627a7a72305820f6f47d045d71d846be39d583a52ac9bf4ea181f27e056e42fe218f6ed7d01fd50029",
  "source": "pragma solidity ^0.4.24;\n\nimport { RLP } from \"../../lib/RLP.sol\";\n\nimport { ERC721Validator } from \"../../proofs/ERC721Validator.sol\";\n\n\ncontract ERC721ValidatorMock is ERC721Validator {\n\n  // validate ERC721 TX\n  function validateERC721Tx (\n    bytes transferTx\n  ) public {\n    // validate transfer tx\n    RLP.RLPItem[] memory txData = transferTx.toRLPItem().toList();\n    // validate ERC721 transfer tx\n    require(_validateTransferTx(txData));\n  }\n}\n",
  "sourcePath": "/Users/atvanguard/matic/contracts/contracts/mocks/proofs/ERC721ValidatorMock.sol",
  "compiler": {
    "name": "solc",
    "version": "0.4.24+commit.e67f0147.Emscripten.clang"
  },
  "schemaVersion": "2.0.1",
  "updatedAt": "2019-12-07T09:11:33.310Z"
}