{
  "contractName": "ERC721Validator",
  "abi": [
    {
      "constant": true,
      "inputs": [
        {
          "name": "headerNumber",
          "type": "uint256"
        },
        {
          "name": "headerProof",
          "type": "bytes"
        },
        {
          "name": "blockNumber",
          "type": "uint256"
        },
        {
          "name": "blockTime",
          "type": "uint256"
        },
        {
          "name": "txRoot",
          "type": "bytes32"
        },
        {
          "name": "receiptRoot",
          "type": "bytes32"
        },
        {
          "name": "path",
          "type": "bytes"
        },
        {
          "name": "txBytes",
          "type": "bytes"
        },
        {
          "name": "txProof",
          "type": "bytes"
        }
      ],
      "name": "validateTxExistence",
      "outputs": [
        {
          "name": "",
          "type": "bool"
        }
      ],
      "payable": false,
      "stateMutability": "view",
      "type": "function"
    },
    {
      "constant": false,
      "inputs": [
        {
          "name": "_withdrawManager",
          "type": "address"
        }
      ],
      "name": "setWithdrawManager",
      "outputs": [],
      "payable": false,
      "stateMutability": "nonpayable",
      "type": "function"
    },
    {
      "constant": false,
      "inputs": [
        {
          "name": "_depositManager",
          "type": "address"
        }
      ],
      "name": "setDepositManager",
      "outputs": [],
      "payable": false,
      "stateMutability": "nonpayable",
      "type": "function"
    },
    {
      "constant": true,
      "inputs": [],
      "name": "childChainContract",
      "outputs": [
        {
          "name": "",
          "type": "address"
        }
      ],
      "payable": false,
      "stateMutability": "view",
      "type": "function"
    },
    {
      "constant": true,
      "inputs": [],
      "name": "DEPOSIT_EVENT_SIGNATURE",
      "outputs": [
        {
          "name": "",
          "type": "bytes32"
        }
      ],
      "payable": false,
      "stateMutability": "view",
      "type": "function"
    },
    {
      "constant": true,
      "inputs": [],
      "name": "LOG_TRANSFER_EVENT_SIGNATURE",
      "outputs": [
        {
          "name": "",
          "type": "bytes32"
        }
      ],
      "payable": false,
      "stateMutability": "view",
      "type": "function"
    },
    {
      "constant": true,
      "inputs": [],
      "name": "depositManager",
      "outputs": [
        {
          "name": "",
          "type": "address"
        }
      ],
      "payable": false,
      "stateMutability": "view",
      "type": "function"
    },
    {
      "constant": true,
      "inputs": [
        {
          "name": "headerNumber",
          "type": "uint256"
        },
        {
          "name": "headerProof",
          "type": "bytes"
        },
        {
          "name": "blockNumber",
          "type": "uint256"
        },
        {
          "name": "blockTime",
          "type": "uint256"
        },
        {
          "name": "txRoot",
          "type": "bytes32"
        },
        {
          "name": "receiptRoot",
          "type": "bytes32"
        },
        {
          "name": "path",
          "type": "bytes"
        },
        {
          "name": "txBytes",
          "type": "bytes"
        },
        {
          "name": "txProof",
          "type": "bytes"
        },
        {
          "name": "receiptBytes",
          "type": "bytes"
        },
        {
          "name": "receiptProof",
          "type": "bytes"
        }
      ],
      "name": "validateTx",
      "outputs": [
        {
          "name": "",
          "type": "bool"
        }
      ],
      "payable": false,
      "stateMutability": "view",
      "type": "function"
    },
    {
      "constant": false,
      "inputs": [],
      "name": "renounceOwnership",
      "outputs": [],
      "payable": false,
      "stateMutability": "nonpayable",
      "type": "function"
    },
    {
      "constant": true,
      "inputs": [],
      "name": "owner",
      "outputs": [
        {
          "name": "",
          "type": "address"
        }
      ],
      "payable": false,
      "stateMutability": "view",
      "type": "function"
    },
    {
      "constant": true,
      "inputs": [],
      "name": "isOwner",
      "outputs": [
        {
          "name": "",
          "type": "bool"
        }
      ],
      "payable": false,
      "stateMutability": "view",
      "type": "function"
    },
    {
      "constant": true,
      "inputs": [],
      "name": "rootChain",
      "outputs": [
        {
          "name": "",
          "type": "address"
        }
      ],
      "payable": false,
      "stateMutability": "view",
      "type": "function"
    },
    {
      "constant": false,
      "inputs": [],
      "name": "unlock",
      "outputs": [],
      "payable": false,
      "stateMutability": "nonpayable",
      "type": "function"
    },
    {
      "constant": true,
      "inputs": [],
      "name": "APPROVAL_EVENT_SIGNATURE",
      "outputs": [
        {
          "name": "",
          "type": "bytes32"
        }
      ],
      "payable": false,
      "stateMutability": "view",
      "type": "function"
    },
    {
      "constant": true,
      "inputs": [],
      "name": "locked",
      "outputs": [
        {
          "name": "",
          "type": "bool"
        }
      ],
      "payable": false,
      "stateMutability": "view",
      "type": "function"
    },
    {
      "constant": true,
      "inputs": [
        {
          "name": "headerNumber",
          "type": "uint256"
        },
        {
          "name": "headerProof",
          "type": "bytes"
        },
        {
          "name": "blockNumber",
          "type": "uint256"
        },
        {
          "name": "blockTime",
          "type": "uint256"
        },
        {
          "name": "txRoot",
          "type": "bytes32"
        },
        {
          "name": "receiptRoot",
          "type": "bytes32"
        },
        {
          "name": "path",
          "type": "bytes"
        },
        {
          "name": "txBytes",
          "type": "bytes"
        },
        {
          "name": "txProof",
          "type": "bytes"
        },
        {
          "name": "receiptBytes",
          "type": "bytes"
        },
        {
          "name": "receiptProof",
          "type": "bytes"
        }
      ],
      "name": "validateTxReceiptExistence",
      "outputs": [
        {
          "name": "",
          "type": "bool"
        }
      ],
      "payable": false,
      "stateMutability": "view",
      "type": "function"
    },
    {
      "constant": true,
      "inputs": [],
      "name": "TRANSFER_SIGNATURE",
      "outputs": [
        {
          "name": "",
          "type": "bytes4"
        }
      ],
      "payable": false,
      "stateMutability": "view",
      "type": "function"
    },
    {
      "constant": false,
      "inputs": [
        {
          "name": "newRootChain",
          "type": "address"
        }
      ],
      "name": "changeRootChain",
      "outputs": [],
      "payable": false,
      "stateMutability": "nonpayable",
      "type": "function"
    },
    {
      "constant": true,
      "inputs": [],
      "name": "TRANSFER_EVENT_SIGNATURE",
      "outputs": [
        {
          "name": "",
          "type": "bytes32"
        }
      ],
      "payable": false,
      "stateMutability": "view",
      "type": "function"
    },
    {
      "constant": true,
      "inputs": [],
      "name": "withdrawManager",
      "outputs": [
        {
          "name": "",
          "type": "address"
        }
      ],
      "payable": false,
      "stateMutability": "view",
      "type": "function"
    },
    {
      "constant": false,
      "inputs": [
        {
          "name": "newOwner",
          "type": "address"
        }
      ],
      "name": "transferOwnership",
      "outputs": [],
      "payable": false,
      "stateMutability": "nonpayable",
      "type": "function"
    },
    {
      "constant": false,
      "inputs": [
        {
          "name": "_childChainContract",
          "type": "address"
        }
      ],
      "name": "setChildChainContract",
      "outputs": [],
      "payable": false,
      "stateMutability": "nonpayable",
      "type": "function"
    },
    {
      "constant": false,
      "inputs": [],
      "name": "lock",
      "outputs": [],
      "payable": false,
      "stateMutability": "nonpayable",
      "type": "function"
    },
    {
      "anonymous": false,
      "inputs": [
        {
          "indexed": true,
          "name": "previousRootChain",
          "type": "address"
        },
        {
          "indexed": true,
          "name": "newRootChain",
          "type": "address"
        }
      ],
      "name": "RootChainChanged",
      "type": "event"
    },
    {
      "anonymous": false,
      "inputs": [
        {
          "indexed": true,
          "name": "previousOwner",
          "type": "address"
        },
        {
          "indexed": true,
          "name": "newOwner",
          "type": "address"
        }
      ],
      "name": "OwnershipTransferred",
      "type": "event"
    },
    {
      "constant": false,
      "inputs": [
        {
          "name": "transferTx",
          "type": "bytes"
        }
      ],
      "name": "validateTransferTx",
      "outputs": [],
      "payable": false,
      "stateMutability": "nonpayable",
      "type": "function"
    }
  ],
  "bytecode": "0x60806040819052600480547723b872dd000000000000000000000000000000000000000060a060020a63ffffffff02199091161790557f6eabe333476233fd382224f233210cb808a7bc4c4de64f9d76628bf63c677b1a60055560008054600160a060020a0319163317808255600160a060020a0316917f8be0079c531659141344cd1fd0a4f28419497f9722a3daafe3b4186f6b6457e0908290a3612767806100aa6000396000f3006080604052600436106101245763ffffffff60e060020a6000350416630b3fa78c811461012957806317e3e2e81461026d578063228d71a914610290578063242fbb04146102b15780634ef68cb4146102e25780635159a755146103095780635327e6451461031e5780636c7ac9d8146103775780636d4babac1461038c578063715018a6146105385780638da5cb5b1461054d5780638f32d59b14610562578063987ab9db14610577578063a69df4b51461058c578063b2bc6682146105a1578063cf309012146105b6578063d9bcb335146105cb578063e0310e5214610777578063e8afa8e8146107be578063eab15c42146107df578063ec3e9da5146107f4578063f2fde38b14610809578063f3b57e611461082a578063f83d08ba1461084b575b600080fd5b34801561013557600080fd5b5060408051602060046024803582810135601f810185900485028601850190965285855261025995833595369560449491939091019190819084018382808284375050604080516020601f60808a01358b0180359182018390048302840183018552818452989b8a359b838c01359b958601359a60608701359a50919850965060a09094019450919281019190819084018382808284375050604080516020601f89358b018035918201839004830284018301909452808352979a99988101979196509182019450925082915084018382808284375050604080516020601f89358b018035918201839004830284018301909452808352979a9998810197919650918201945092508291508401838280828437509497506108609650505050505050565b604080519115158252519081900360200190f35b34801561027957600080fd5b5061028e600160a060020a0360043516610c54565b005b34801561029c57600080fd5b5061028e600160a060020a0360043516610cab565b3480156102bd57600080fd5b506102c6610d02565b60408051600160a060020a039092168252519081900360200190f35b3480156102ee57600080fd5b506102f7610d11565b60408051918252519081900360200190f35b34801561031557600080fd5b506102f7610d35565b34801561032a57600080fd5b506040805160206004803580820135601f810184900484028501840190955284845261028e943694929360249392840191908190840183828082843750949750610d3b9650505050505050565b34801561038357600080fd5b506102c6610dcf565b34801561039857600080fd5b5060408051602060046024803582810135601f810185900485028601850190965285855261025995833595369560449491939091019190819084018382808284375050604080516020601f60808a01358b0180359182018390048302840183018552818452989b8a359b838c01359b958601359a60608701359a50919850965060a09094019450919281019190819084018382808284375050604080516020601f89358b018035918201839004830284018301909452808352979a99988101979196509182019450925082915084018382808284375050604080516020601f89358b018035918201839004830284018301909452808352979a99988101979196509182019450925082915084018382808284375050604080516020601f89358b018035918201839004830284018301909452808352979a99988101979196509182019450925082915084018382808284375050604080516020601f89358b018035918201839004830284018301909452808352979a999881019791965091820194509250829150840183828082843750949750610dde9650505050505050565b34801561054457600080fd5b5061028e610fbc565b34801561055957600080fd5b506102c6611026565b34801561056e57600080fd5b50610259611035565b34801561058357600080fd5b506102c6611046565b34801561059857600080fd5b5061028e611055565b3480156105ad57600080fd5b506102f7611088565b3480156105c257600080fd5b506102596110ac565b3480156105d757600080fd5b5060408051602060046024803582810135601f810185900485028601850190965285855261025995833595369560449491939091019190819084018382808284375050604080516020601f60808a01358b0180359182018390048302840183018552818452989b8a359b838c01359b958601359a60608701359a50919850965060a09094019450919281019190819084018382808284375050604080516020601f89358b018035918201839004830284018301909452808352979a99988101979196509182019450925082915084018382808284375050604080516020601f89358b018035918201839004830284018301909452808352979a99988101979196509182019450925082915084018382808284375050604080516020601f89358b018035918201839004830284018301909452808352979a99988101979196509182019450925082915084018382808284375050604080516020601f89358b018035918201839004830284018301909452808352979a9998810197919650918201945092508291508401838280828437509497506110cd9650505050505050565b34801561078357600080fd5b5061078c611169565b604080517bffffffffffffffffffffffffffffffffffffffffffffffffffffffff199092168252519081900360200190f35b3480156107ca57600080fd5b5061028e600160a060020a036004351661118d565b3480156107eb57600080fd5b506102f761121e565b34801561080057600080fd5b506102c6611242565b34801561081557600080fd5b5061028e600160a060020a0360043516611251565b34801561083657600080fd5b5061028e600160a060020a0360043516611270565b34801561085757600080fd5b5061028e6112c7565b600154604080517f61bbd461000000000000000000000000000000000000000000000000000000008152600481018c9052905160009283928392600160a060020a03909216916361bbd4619160248082019260809290919082900301818787803b1580156108cd57600080fd5b505af11580156108e1573d6000803e3d6000fd5b505050506040513d60808110156108f757600080fd5b8101908080519060200190929190805190602001909291908051906020019092919080519060200190929190505050905050809250819350505089898989604051808581526020018481526020018360001916600019168152602001826000191660001916815260200194505050505060405180910390206000191673__Merkle________________________________636c8f455c9091838d03858f6040518563ffffffff1660e060020a028152600401808560001916600019168152602001848152602001836000191660001916815260200180602001828103825283818151815260200191508051906020019080838360005b83811015610a055781810151838201526020016109ed565b50505050905090810190601f168015610a325780820380516001836020036101000a031916815260200191505b509550505050505060206040518083038186803b158015610a5257600080fd5b505af4158015610a66573d6000803e3d6000fd5b505050506040513d6020811015610a7c57600080fd5b50518015610c44575073__MerklePatriciaProof___________________6379d1d4fa8688878c6040518563ffffffff1660e060020a028152600401808060200180602001806020018560001916600019168152602001848103845288818151815260200191508051906020019080838360005b83811015610b08578181015183820152602001610af0565b50505050905090810190601f168015610b355780820380516001836020036101000a031916815260200191505b50848103835287518152875160209182019189019080838360005b83811015610b68578181015183820152602001610b50565b50505050905090810190601f168015610b955780820380516001836020036101000a031916815260200191505b50848103825286518152865160209182019188019080838360005b83811015610bc8578181015183820152602001610bb0565b50505050905090810190601f168015610bf55780820380516001836020036101000a031916815260200191505b5097505050505050505060206040518083038186803b158015610c1757600080fd5b505af4158015610c2b573d6000803e3d6000fd5b505050506040513d6020811015610c4157600080fd5b50515b9c9b505050505050505050505050565b610c5c611035565b1515610c6757600080fd5b600160a060020a0381161515610c7c57600080fd5b6003805473ffffffffffffffffffffffffffffffffffffffff1916600160a060020a0392909216919091179055565b610cb3611035565b1515610cbe57600080fd5b600160a060020a0381161515610cd357600080fd5b6002805473ffffffffffffffffffffffffffffffffffffffff1916600160a060020a0392909216919091179055565b600454600160a060020a031681565b7f4e2ca0515ed1aef1395f66b5303bb5d6f1bf9d61a353fa53f73f8ac9973fa9f681565b60055481565b6060610d4e610d4983611311565b611364565b9050610d5981611419565b1515610dcb57600160009054906101000a9004600160a060020a0316600160a060020a0316632da25de36040518163ffffffff1660e060020a028152600401600060405180830381600087803b158015610db257600080fd5b505af1158015610dc6573d6000803e3d6000fd5b505050505b5050565b600254600160a060020a031681565b6000610de8612703565b60606000610dff8f8f8f8f8f8f8f8f8f8f8f6110cd565b1580610e0a57508751155b80610e1457508551155b15610e225760009350610faa565b610e2b88611311565b9250610e3683611553565b1580610e4c5750610e4683611364565b51600914155b15610e5a5760009350610faa565b610e6386611311565b9250610e6e83611553565b1515610e7d5760009350610faa565b610e8683611364565b915081516004141580610eb75750610eb5826003815181101515610ea657fe5b90602001906020020151611553565b155b15610ec55760009350610faa565b610ee6826003815181101515610ed757fe5b90602001906020020151611364565b9150600082511115610fa5575060005b81518160ff161015610fa557610f16828260ff16815181101515610ea657fe5b1580610f3657506002610f33838360ff16815181101515610ed757fe5b51105b80610f625750610f60610f53838360ff16815181101515610ed757fe5b80516001908110610ea657fe5b155b80610f8f5750610f8c610f7f838360ff16815181101515610ed757fe5b80516001908110610ed757fe5b51155b15610f9d5760009350610faa565b600101610ef6565b600193505b5050509b9a5050505050505050505050565b610fc4611035565b1515610fcf57600080fd5b60008054604051600160a060020a03909116907f8be0079c531659141344cd1fd0a4f28419497f9722a3daafe3b4186f6b6457e0908390a36000805473ffffffffffffffffffffffffffffffffffffffff19169055565b600054600160a060020a031690565b600054600160a060020a0316331490565b600154600160a060020a031681565b61105d611035565b151561106857600080fd5b6001805474ff000000000000000000000000000000000000000019169055565b7f8c5be1e5ebec7d5bd14f71427d1e84f3dd0314c0f7b2291e5b200ac8c7c3b92581565b60015474010000000000000000000000000000000000000000900460ff1681565b60006110e08c8c8c8c8c8c8c8c8c610860565b8015610c44575073__MerklePatriciaProof___________________6379d1d4fa8488858b6040518563ffffffff1660e060020a0281526004018080602001806020018060200185600019166000191681526020018481038452888181518152602001915080519060200190808383600083811015610b08578181015183820152602001610af0565b60045474010000000000000000000000000000000000000000900460e060020a0281565b611195611035565b15156111a057600080fd5b600160a060020a03811615156111b557600080fd5b600154604051600160a060020a038084169216907f211c9015fc81c0dbd45bd99f0f29fc1c143bfd53442d5ffd722bbbef7a887fe990600090a36001805473ffffffffffffffffffffffffffffffffffffffff1916600160a060020a0392909216919091179055565b7fddf252ad1be2c89b69c2b068fc378daa952ba7f163c4a11628f55a4df523b3ef81565b600354600160a060020a031681565b611259611035565b151561126457600080fd5b61126d81611585565b50565b611278611035565b151561128357600080fd5b600160a060020a038116151561129857600080fd5b6004805473ffffffffffffffffffffffffffffffffffffffff1916600160a060020a0392909216919091179055565b6112cf611035565b15156112da57600080fd5b6001805474ff0000000000000000000000000000000000000000191674010000000000000000000000000000000000000000179055565b611319612703565b8151600081151561133f576040805180820190915260008082526020820152925061135d565b60208401905060408051908101604052808281526020018381525092505b5050919050565b6060600061137061271a565b600061137b85611553565b151561138657600080fd5b61138f85611602565b9250826040519080825280602002602001820160405280156113cb57816020015b6113b8612703565b8152602001906001900390816113b05790505b5093506113d785611672565b91505b6113e3826116ab565b15611411576113f1826116ca565b84828151811015156113ff57fe5b602090810290910101526001016113da565b505050919050565b600061151661143f83600081518110151561143057fe5b9060200190602002015161170c565b61146084600181518110151561145157fe5b90602001906020020151611755565b61147285600281518110151561143057fe5b61148486600381518110151561143057fe5b6114a587600481518110151561149657fe5b906020019060200201516117b7565b6114b788600581518110151561149657fe5b6114c989600681518110151561145157fe5b6114db8a600781518110151561145157fe5b6114ed8b600881518110151561145157fe5b6114ff8c600981518110151561145157fe5b6115118d600a81518110151561145157fe5b6110cd565b151561152157600080fd5b61154d61153683600781518110151561145157fe5b61154884600981518110151561145157fe5b6117c2565b92915050565b60008082602001516000141561156c576000915061157f565b8260000151905060c0815160001a101591505b50919050565b600160a060020a038116151561159a57600080fd5b60008054604051600160a060020a03808516939216917f8be0079c531659141344cd1fd0a4f28419497f9722a3daafe3b4186f6b6457e091a36000805473ffffffffffffffffffffffffffffffffffffffff1916600160a060020a0392909216919091179055565b60008060008060008061161487611553565b15156116235760009550611668565b8651805160001a9550935061163787611a2b565b840192506001876020015185010391505b8183116116645761165883611aab565b90920191600101611648565b8095505b5050505050919050565b61167a61271a565b600061168583611553565b151561169057600080fd5b61169983611a2b565b83519383529092016020820152919050565b60006116b5612703565b50508051602080820151915192015191011190565b6116d2612703565b6000806116de846116ab565b1561012457836020015191506116f382611aab565b828452602080850182905283820190860152905061135d565b600080600061171a84611b38565b151561172557600080fd5b61172e84611b61565b9092509050602081111561174157600080fd5b806020036101000a82510492505050919050565b606060008061176384611b38565b151561176e57600080fd5b61177784611b61565b91509150806040519080825280601f01601f1916602001820160405280156117a9578160200160208202803883390190505b50925061135d828483611bde565b600061154d8261170c565b600060606000606060006117d8610d4988611311565b80519094506009146117e957600080fd5b61180a8460038151811015156117fb57fe5b90602001906020020151611c1e565b600254604080517f40828ebf000000000000000000000000000000000000000000000000000000008152600160a060020a038481166004830152915193965060009391909216916340828ebf91602480830192602092919082900301818787803b15801561187757600080fd5b505af115801561188b573d6000803e3d6000fd5b505050506040513d60208110156118a157600080fd5b5051600160a060020a031614156118b757600080fd5b6118c984600581518110151561145157fe5b9150600460149054906101000a900460e060020a027bffffffffffffffffffffffffffffffffffffffffffffffffffffffff191661191261190d8460006004611c4b565b611ccc565b7bffffffffffffffffffffffffffffffffffffffffffffffffffffffff19161461193b57600080fd5b815160641461194d5760009450611a21565b61195684611cd3565b9050611964610d4987611311565b9350835160041480156119895750611984846003815181101515610ed757fe5b516002145b80156119d257506119d283826119a08560246121b9565b6119ab8660446121b9565b6119cd6119c08a6003815181101515610ed757fe5b80516000908110610ed757fe5b6121d9565b8015611a0e5750611a0e83826119e98560246121b9565b6119f48660446121b9565b611a09610f7f8a6003815181101515610ed757fe5b61230b565b15611a1c5760019450611a21565b600094505b5050505092915050565b6000806000836020015160001415611a46576000925061135d565b50508151805160001a906080821015611a62576000925061135d565b60b8821080611a7d575060c08210158015611a7d575060f882105b15611a8b576001925061135d565b60c0821015611aa05760b5198201925061135d565b5060f5190192915050565b8051600090811a6080811015611ac4576001915061157f565b60b8811015611ad957607e198101915061157f565b60c0811015611b0257600183015160b76020839003016101000a9004810160b51901915061157f565b60f8811015611b175760be198101915061157f565b6001929092015160f76020849003016101000a900490910160f51901919050565b600080826020015160001415611b51576000915061157f565b5050515160c060009190911a1090565b6000806000806000611b7286611b38565b1515611b7d57600080fd5b8551805160001a935091506080831015611b9d5781945060019350611bd6565b60b8831015611bbb5760018660200151039350816001019450611bd6565b60b78303905080600187602001510303935080820160010194505b505050915091565b60006020601f83010484602085015b828414611c0b57602084028281015190820152600190930192611bed565b6000865160200187015250505050505050565b600080611c2a83611b61565b9150506014811115611c3b57600080fd5b611c448361170c565b9392505050565b606080828401855110151515611c6057600080fd5b82158015611c7957604051915060208201604052611cc3565b6040519150601f8416801560200281840101858101878315602002848b0101015b81831015611cb2578051835260209283019201611c9a565b5050858452601f01601f1916604052505b50949350505050565b6020015190565b60408051600980825261014082019092526000916060918391816020015b6060815260200190600190039081611cf1579050509150600090505b600560ff821611611d4f57611d2c848260ff1681518110151561145157fe5b828260ff16815181101515611d3d57fe5b60209081029091010152600101611d0d565b604080516020810190915260008152825183906004908110611d6d57fe5b60209081029091010152600154604080517f9025e64c0000000000000000000000000000000000000000000000000000000081529051600160a060020a0390921691639025e64c9160048082019260009290919082900301818387803b158015611dd657600080fd5b505af1158015611dea573d6000803e3d6000fd5b505050506040513d6000823e601f3d908101601f191682016040526020811015611e1357600080fd5b810190808051640100000000811115611e2b57600080fd5b82016020810184811115611e3e57600080fd5b8151640100000000811182820187101715611e5857600080fd5b50508551909350859250600691508110611e6e57fe5b906020019060200201819052506020604051908101604052806000815250826007815181101515611e9b57fe5b906020019060200201819052506020604051908101604052806000815250826008815181101515611ec857fe5b602090810290910101526001611edd83612426565b6040518082805190602001908083835b60208310611f0c5780518252601f199092019160209182019101611eed565b6001836020036101000a038019825116818451168082178552505050505050905001915050604051809103902073__Common________________________________63261737b2611f6588600681518110151561145157fe5b73__Common________________________________637ae93b19886006815181101515611f8e57fe5b906020019060200201516040518263ffffffff1660e060020a0281526004018080602001828103825283818151815260200191508051906020019080838360005b83811015611fe7578181015183820152602001611fcf565b50505050905090810190601f1680156120145780820380516001836020036101000a031916815260200191505b509250505060206040518083038186803b15801561203157600080fd5b505af4158015612045573d6000803e3d6000fd5b505050506040513d602081101561205b57600080fd5b50516040805160e060020a63ffffffff861602815260ff8316602482015260048101918252835160448201528351829160640190602086019080838360005b838110156120b257818101518382015260200161209a565b50505050905090810190601f1680156120df5780820380516001836020036101000a031916815260200191505b50935050505060206040518083038186803b1580156120fd57600080fd5b505af4158015612111573d6000803e3d6000fd5b505050506040513d602081101561212757600080fd5b5051865161213c908890600790811061149657fe5b61214e88600881518110151561149657fe5b60408051600080825260208083018085529790975260ff90951681830152606081019390935260808301919091525160a08083019493601f198301938390039091019190865af11580156121a6573d6000803e3d6000fd5b5050604051601f19015195945050505050565b600080826020018451101515156121cf57600080fd5b5050016020015190565b60006060825160031415156121f15760009150612301565b612203836001815181101515610ed757fe5b905080516004148015612238575086600160a060020a031661222d8460008151811015156117fb57fe5b600160a060020a0316145b8015612276575080517fddf252ad1be2c89b69c2b068fc378daa952ba7f163c4a11628f55a4df523b3ef90612274908390600090811061149657fe5b145b80156122a4575085600160a060020a031661229982600181518110151561143057fe5b600160a060020a0316145b80156122d2575084600160a060020a03166122c782600281518110151561143057fe5b600160a060020a0316145b80156122ee5750836122ec82600381518110151561143057fe5b145b156122fc5760019150612301565b600091505b5095945050505050565b60006060825160031415156123235760009150612301565b612335836001815181101515610ed757fe5b90508051600414801561236a575086600160a060020a031661235f8460008151811015156117fb57fe5b600160a060020a0316145b801561238957506005548151612387908390600090811061149657fe5b145b80156123b7575085600160a060020a03166123ac82600281518110151561143057fe5b600160a060020a0316145b80156123e5575084600160a060020a03166123da82600381518110151561143057fe5b600160a060020a0316145b801561240b57508361240961240285600281518110151561145157fe5b60006121b9565b145b156124195760019150612301565b5060019695505050505050565b60608060005b83518110156124685761245e82612459868481518110151561244a57fe5b90602001906020020151612485565b6124f5565b915060010161242c565b61247d612477835160c0612570565b836124f5565b949350505050565b606080825160011480156124b8575060808360008151811015156124a557fe5b016020015160f860020a90819004810204105b156124e45760408051600180825281830190925290602080830190803883395085935061154d92505050565b611c446124f384516080612570565b845b6060806040519050835180825260208201818101602087015b8183101561252657805183526020928301920161250e565b50855184518101855292509050808201602086015b8183101561255357805183526020928301920161253b565b509551919091011594909401601f01601f19166040529392505050565b60608060008060608060388810156125f257604080516001808252818301909252906020808301908038833901905050945086880160f860020a028560008151811015156125ba57fe5b9060200101907effffffffffffffffffffffffffffffffffffffffffffffffffffffffffffff1916908160001a905350849550612643565b600192505b828881151561260257fe5b041561261b5760019093019261010092909202916125f7565b61262984886037010161264e565b91506126348861264e565b905061264082826124f5565b95505b505050505092915050565b60606001600060ff84111561266257600291505b816040519080825280601f01601f191660200182016040528015612690578160200160208202803883390190505b509250600090505b8181101561135d5780600183030360080260020a848115156126b657fe5b0460f860020a0283828151811015156126cb57fe5b9060200101907effffffffffffffffffffffffffffffffffffffffffffffffffffffffffffff1916908160001a905350600101612698565b604080518082019091526000808252602082015290565b60606040519081016040528061272e612703565b81526020016000815250905600a165627a7a723058202fc6f721b514d8dc4197079a38428fc314c6282d864780e4aeb55ee85b3105a00029",
  "source": "pragma solidity ^0.4.24;\n\nimport { RLP } from \"../lib/RLP.sol\";\nimport { BytesLib } from \"../lib/BytesLib.sol\";\n\nimport { RootChainValidator } from \"../mixin/RootChainValidator.sol\";\nimport { IRootChain } from \"../root/IRootChain.sol\";\n\n\ncontract ERC721Validator is RootChainValidator {\n  using RLP for bytes;\n  using RLP for RLP.RLPItem;\n  using RLP for RLP.Iterator;\n\n  // 0xa0cda4eb = keccak256('transferFrom(address,adress,uint256)')\n  bytes4 public TRANSFER_SIGNATURE = 0x23b872dd;\n\n  // TODO optimize signatures (gas optimization while deploying the contract)\n\n  // keccak256('Transfer(address,address,uint256)')\n  bytes32 constant public TRANSFER_EVENT_SIGNATURE = 0xddf252ad1be2c89b69c2b068fc378daa952ba7f163c4a11628f55a4df523b3ef;\n  // keccak256('Approval(address,address,uint256)')\n  bytes32 constant public APPROVAL_EVENT_SIGNATURE = 0x8c5be1e5ebec7d5bd14f71427d1e84f3dd0314c0f7b2291e5b200ac8c7c3b925;\n  // keccak256('Deposit(address,address,uint256,uint256,uint256)')\n  bytes32 constant public DEPOSIT_EVENT_SIGNATURE = 0x4e2ca0515ed1aef1395f66b5303bb5d6f1bf9d61a353fa53f73f8ac9973fa9f6;\n  // keccak256('Withdraw(address,address,uint256,uint256,uint256)')\n  bytes32 constant private WITHDRAW_EVENT_SIGNATURE = 0xebff2602b3f468259e1e99f613fed6691f3a6526effe6ef3e768ba7ae7a36c4f;\n  // keccak256('LogTransfer(address,address,address,uint256)') ERC721 log transfer\n  bytes32 public LOG_TRANSFER_EVENT_SIGNATURE = 0x6eabe333476233fd382224f233210cb808a7bc4c4de64f9d76628bf63c677b1a;\n\n  // validate ERC20 TX\n  function validateTransferTx(\n    bytes transferTx\n  ) public {\n    // validate transfer tx\n    RLP.RLPItem[] memory txData = transferTx.toRLPItem().toList();\n\n    // validate ERC20 transfer tx\n    if (!_validateTransferTx(txData)) {\n      IRootChain(rootChain).slash();\n    }\n  }\n\n  function _validateTransferTx(\n    RLP.RLPItem[] memory txData\n  ) internal returns (bool) {\n    // validate tx receipt existence\n    require(\n      validateTxReceiptExistence(\n        txData[0].toUint(), // headerNumber\n        txData[1].toData(), // headerProof,\n\n        txData[2].toUint(), // blockNumber,\n        txData[3].toUint(), // blockTime,\n\n        txData[4].toBytes32(), // txRoot,\n        txData[5].toBytes32(), // receiptRoot,\n        txData[6].toData(), // path,\n\n        txData[7].toData(), // txBytes,\n        txData[8].toData(), // txProof\n\n        txData[9].toData(), // receiptBytes,\n        txData[10].toData() // receiptProof\n      )\n    );\n    return _validateTransferTx(txData[7].toData(), txData[9].toData());\n  }\n  \n  function _validateTransferTx(\n    bytes txData,\n    bytes receiptData\n  ) internal returns (bool) {\n    // check transaction\n    RLP.RLPItem[] memory items = txData.toRLPItem().toList();\n    require(items.length == 9);\n\n    // check if child token is mapped with root tokens\n    address childToken = items[3].toAddress();\n    require(depositManager.reverseTokens(childToken) != address(0));\n\n    // check if transaction is transfer tx\n    // <4 bytes transfer event,address (32 bytes),address (32 bytes), tokenId (32 bytes)>\n    bytes memory dataField = items[5].toData();\n    require(BytesLib.toBytes4(BytesLib.slice(dataField, 0, 4)) == TRANSFER_SIGNATURE);\n\n    // if data field is not 100(4+32+32+32) bytes, return\n    if (dataField.length != 100) {\n      return false;\n    }\n    // sender\n    address sender = getTxSender(items);\n\n    /*\n      check receipt and data field\n      Receipt -->\n        [0]\n        [1]\n        [2]\n        [3]-> [\n          [child token address, [TRANSFER_EVENT_SIGNATURE, from, to, tokenId], <>],\n          [child token address, [LOG_TRANSFER_EVENT_SIGNATURE,token,from,to], <tokenId>]\n        ]\n    */\n    items = receiptData.toRLPItem().toList();\n    if (\n      items.length == 4 &&\n      items[3].toList().length == 2 &&\n      _validateTransferEvent(\n        childToken,\n        sender,\n        address(BytesLib.toUint(dataField, 36)),\n        BytesLib.toUint(dataField, 68),\n        items[3].toList()[0].toList()\n      ) &&\n      _validateLogTransferEvent(\n        childToken,\n        sender,\n        address(BytesLib.toUint(dataField, 36)),\n        BytesLib.toUint(dataField, 68),\n        items[3].toList()[1].toList()\n      )\n    ) {\n      return true;\n    }\n\n    return false;\n  }\n\n  function _validateTransferEvent(\n    address childToken,\n    address from,\n    address to,\n    uint256 tokenId,\n    RLP.RLPItem[] items // [child token address, [TRANSFER_EVENT_SIGNATURE, from, to, tokenId], <>]\n  ) internal view returns (bool) {\n    if (items.length != 3) {\n      return false;\n    }\n    RLP.RLPItem[] memory topics = items[1].toList();\n\n\n    if (\n      topics.length == 4 &&\n      items[0].toAddress() == childToken  &&\n      topics[0].toBytes32() == TRANSFER_EVENT_SIGNATURE  &&\n      address(topics[1].toUint())==from &&\n      address(topics[2].toUint())==to &&\n      topics[3].toUint() == tokenId\n    ) {\n      return true;\n    }\n\n    return false;\n  }\n\n  function _validateLogTransferEvent(\n    address childToken,\n    address from,\n    address to,\n    uint256 tokenId,\n    RLP.RLPItem[] items // [child token address, [LOG_TRANSFER_EVENT_SIGNATURE,token,from,to], <tokenId>]\n  ) internal view returns (bool) {\n    if (items.length != 3) {\n      return false;\n    }\n\n    RLP.RLPItem[] memory topics = items[1].toList();\n    if (\n      topics.length == 4 &&\n      items[0].toAddress() == childToken &&\n      topics[0].toBytes32() == LOG_TRANSFER_EVENT_SIGNATURE &&\n      address(topics[2].toUint()) == from &&\n      address(topics[3].toUint()) == to &&\n      BytesLib.toUint(items[2].toData(),0) == tokenId\n    ) {\n      return true;\n    }\n\n    return true;\n  }\n}\n",
  "sourcePath": "/Users/atvanguard/matic/contracts/contracts/proofs/ERC721Validator.sol",
  "compiler": {
    "name": "solc",
    "version": "0.4.24+commit.e67f0147.Emscripten.clang"
  },
  "schemaVersion": "2.0.1",
  "updatedAt": "2019-12-07T09:11:33.318Z"
}