{
  "contractName": "ERC721Predicate",
  "abi": [
    {
      "inputs": [
        {
          "name": "_withdrawManager",
          "type": "address"
        },
        {
          "name": "_depositManager",
          "type": "address"
        }
      ],
      "payable": false,
      "stateMutability": "nonpayable",
      "type": "constructor"
    },
    {
      "constant": false,
      "inputs": [
        {
          "name": "data",
          "type": "bytes"
        },
        {
          "name": "exitTx",
          "type": "bytes"
        }
      ],
      "name": "startExit",
      "outputs": [
        {
          "name": "",
          "type": "address"
        },
        {
          "name": "",
          "type": "uint256"
        }
      ],
      "payable": true,
      "stateMutability": "payable",
      "type": "function"
    },
    {
      "constant": false,
      "inputs": [
        {
          "name": "data",
          "type": "bytes"
        },
        {
          "name": "mintTx",
          "type": "bytes"
        }
      ],
      "name": "startExitWithBurntTokens",
      "outputs": [],
      "payable": false,
      "stateMutability": "nonpayable",
      "type": "function"
    },
    {
      "constant": false,
      "inputs": [
        {
          "name": "data",
          "type": "bytes"
        }
      ],
      "name": "startExitWithBurntTokens",
      "outputs": [
        {
          "name": "rootToken",
          "type": "address"
        },
        {
          "name": "tokenId",
          "type": "uint256"
        }
      ],
      "payable": false,
      "stateMutability": "nonpayable",
      "type": "function"
    },
    {
      "constant": false,
      "inputs": [
        {
          "name": "data",
          "type": "bytes"
        },
        {
          "name": "mintTx",
          "type": "bytes"
        }
      ],
      "name": "startExitForMintWithTokenURITokens",
      "outputs": [],
      "payable": false,
      "stateMutability": "nonpayable",
      "type": "function"
    },
    {
      "constant": false,
      "inputs": [
        {
          "name": "_withdrawls",
          "type": "bytes"
        },
        {
          "name": "_mintTxs",
          "type": "bytes"
        }
      ],
      "name": "startBulkExitForMintWithTokenURITokens",
      "outputs": [],
      "payable": false,
      "stateMutability": "nonpayable",
      "type": "function"
    },
    {
      "constant": false,
      "inputs": [
        {
          "name": "data",
          "type": "bytes"
        },
        {
          "name": "exitTx",
          "type": "bytes"
        },
        {
          "name": "mintTx",
          "type": "bytes"
        }
      ],
      "name": "startExitAndMint",
      "outputs": [],
      "payable": true,
      "stateMutability": "payable",
      "type": "function"
    },
    {
      "constant": false,
      "inputs": [
        {
          "name": "exit",
          "type": "bytes"
        },
        {
          "name": "inputUtxo",
          "type": "bytes"
        },
        {
          "name": "challengeData",
          "type": "bytes"
        }
      ],
      "name": "verifyDeprecation",
      "outputs": [
        {
          "name": "",
          "type": "bool"
        }
      ],
      "payable": false,
      "stateMutability": "nonpayable",
      "type": "function"
    },
    {
      "constant": true,
      "inputs": [
        {
          "name": "state",
          "type": "bytes"
        }
      ],
      "name": "interpretStateUpdate",
      "outputs": [
        {
          "name": "b",
          "type": "bytes"
        }
      ],
      "payable": false,
      "stateMutability": "view",
      "type": "function"
    }
  ],
  "bytecode": "0x608060405234801561001057600080fd5b506040516040806139698339810180604052604081101561003057600080fd5b508051602090910151600080546001600160a01b039384166001600160a01b031991821617909155600180549390921692169190911790556138f2806100776000396000f3fe60806040526004361061007b5760003560e01c8063985d4f6e1161004e578063985d4f6e1461043a578063a9e2914a14610505578063ebff0abc14610613578063ec58410c146106de5761007b565b80630650238e1461008057806328b4b53d1461014d5780637c5264b41461029957806382e3464c1461034a575b600080fd5b34801561008c57600080fd5b5061014b600480360360408110156100a357600080fd5b810190602081018135600160201b8111156100bd57600080fd5b8201836020820111156100cf57600080fd5b803590602001918460018302840111600160201b831117156100f057600080fd5b919390929091602081019035600160201b81111561010d57600080fd5b82018360208201111561011f57600080fd5b803590602001918460018302840111600160201b8311171561014057600080fd5b50909250905061080d565b005b6102766004803603604081101561016357600080fd5b810190602081018135600160201b81111561017d57600080fd5b82018360208201111561018f57600080fd5b803590602001918460018302840111600160201b831117156101b057600080fd5b91908080601f0160208091040260200160405190810160405280939291908181526020018383808284376000920191909152509295949360208101935035915050600160201b81111561020257600080fd5b82018360208201111561021457600080fd5b803590602001918460018302840111600160201b8311171561023557600080fd5b91908080601f01602080910402602001604051908101604052809392919081815260200183838082843760009201919091525092955061089e945050505050565b604080516001600160a01b03909316835260208301919091528051918290030190f35b3480156102a557600080fd5b50610276600480360360208110156102bc57600080fd5b810190602081018135600160201b8111156102d657600080fd5b8201836020820111156102e857600080fd5b803590602001918460018302840111600160201b8311171561030957600080fd5b91908080601f016020809104026020016040519081016040528093929190818152602001838380828437600092019190915250929550610c8e945050505050565b34801561035657600080fd5b506103c56004803603602081101561036d57600080fd5b810190602081018135600160201b81111561038757600080fd5b82018360208201111561039957600080fd5b803590602001918460018302840111600160201b831117156103ba57600080fd5b509092509050611049565b6040805160208082528351818301528351919283929083019185019080838360005b838110156103ff5781810151838201526020016103e7565b50505050905090810190601f16801561042c5780820380516001836020036101000a031916815260200191505b509250505060405180910390f35b34801561044657600080fd5b5061014b6004803603604081101561045d57600080fd5b810190602081018135600160201b81111561047757600080fd5b82018360208201111561048957600080fd5b803590602001918460018302840111600160201b831117156104aa57600080fd5b919390929091602081019035600160201b8111156104c757600080fd5b8201836020820111156104d957600080fd5b803590602001918460018302840111600160201b831117156104fa57600080fd5b5090925090506113ab565b61014b6004803603606081101561051b57600080fd5b810190602081018135600160201b81111561053557600080fd5b82018360208201111561054757600080fd5b803590602001918460018302840111600160201b8311171561056857600080fd5b919390929091602081019035600160201b81111561058557600080fd5b82018360208201111561059757600080fd5b803590602001918460018302840111600160201b831117156105b857600080fd5b919390929091602081019035600160201b8111156105d557600080fd5b8201836020820111156105e757600080fd5b803590602001918460018302840111600160201b8311171561060857600080fd5b509092509050611434565b34801561061f57600080fd5b5061014b6004803603604081101561063657600080fd5b810190602081018135600160201b81111561065057600080fd5b82018360208201111561066257600080fd5b803590602001918460018302840111600160201b8311171561068357600080fd5b919390929091602081019035600160201b8111156106a057600080fd5b8201836020820111156106b257600080fd5b803590602001918460018302840111600160201b831117156106d357600080fd5b50909250905061155a565b3480156106ea57600080fd5b506107f96004803603606081101561070157600080fd5b810190602081018135600160201b81111561071b57600080fd5b82018360208201111561072d57600080fd5b803590602001918460018302840111600160201b8311171561074e57600080fd5b919390929091602081019035600160201b81111561076b57600080fd5b82018360208201111561077d57600080fd5b803590602001918460018302840111600160201b8311171561079e57600080fd5b919390929091602081019035600160201b8111156107bb57600080fd5b8201836020820111156107cd57600080fd5b803590602001918460018302840111600160201b831117156107ee57600080fd5b509092509050611698565b604080519115158252519081900360200190f35b60008061084f86868080601f016020809104026020016040519081016040528093929190818152602001838380828437600092019190915250610c8e92505050565b9150915061089684848080601f0160208091040260200160405190810160405280939291908181526020018383808284376000920191909152508692508591506119f39050565b505050505050565b60008067016345785d8a000034146109005760408051600160e51b62461bcd02815260206004820152601360248201527f496e76616c696420426f6e6420616d6f756e7400000000000000000000000000604482015290519081900360640190fd5b606061091361090e86611d05565b611d2b565b905061091d6135dd565b61092685611dfc565b905060008061097b61094b8560068151811061093e57fe5b6020026020010151611f54565b6109688660098151811061095b57fe5b6020026020010151611fcd565b606086015160408701518751600061202b565b915091506109876121ca565b6000610ac782610abb6109b1600a6109a58a60098151811061095b57fe5b9063ffffffff61220916565b6000809054906101000a90046001600160a01b03166001600160a01b031663ad1d80698e6000806040518463ffffffff1660e01b815260040180806020018460ff16815260200183151515158152602001828103825285818151815260200191508051906020019080838360005b83811015610a37578181015183820152602001610a1f565b50505050905090810190601f168015610a645780820380516001836020036101000a031916815260200191505b5094505050505060206040518083038186803b158015610a8357600080fd5b505afa158015610a97573d6000803e3d6000fd5b505050506040513d6020811015610aad57600080fd5b50519063ffffffff61223716565b9063ffffffff61223716565b60008054604080880151885160208a01518351600160e01b63d931a8690281523360048201526001600160a01b0393841660248201528a841660448201526064810192909252608482015260a48101859052600186901b60c482018190529251959650919492169263d931a8699260e48084019382900301818387803b158015610b5057600080fd5b505af1158015610b64573d6000803e3d6000fd5b505060008054606089015160408051600160e01b6322f192af02815260048101889052602481018990526001600160a01b0392831660448201528a8316606482015290519190921694506322f192af93506084808301939282900301818387803b158015610bd157600080fd5b505af1158015610be5573d6000803e3d6000fd5b50506000546001600160a01b031691506322f192af905082610c0e85600163ffffffff61224916565b6040805163ffffffff851660e01b8152600481019390935260248301919091523360448301526001600160a01b038816606483015251608480830192600092919082900301818387803b158015610c6457600080fd5b505af1158015610c78573d6000803e3d6000fd5b50509551949b949a509398505050505050505050565b6000806060610c9f61090e85611d05565b90506060610cb38260068151811061093e57fe5b90506060610cc361090e83611d05565b60008054604051600160e01b63ad1d806902815260248101839052604481018390526060600482019081528a5160648301528a5194955092936001600160a01b039092169263ad1d8069928b9286928392909182916084909101906020870190808383885b83811015610d40578181015183820152602001610d28565b50505050905090810190601f168015610d6d5780820380516001836020036101000a031916815260200191505b5094505050505060206040518083038186803b158015610d8c57600080fd5b505afa158015610da0573d6000803e3d6000fd5b505050506040513d6020811015610db657600080fd5b50518451909150600090610dd1908690600990811061095b57fe5b9050600a8110610e2b5760408051600160e51b62461bcd02815260206004820152601b60248201527f537570706f7274696e672061206d6178206f66203130206c6f67730000000000604482015290519081900360640190fd5b610e56610e4b84600381518110610e3e57fe5b6020026020010151611d2b565b8281518110610e3e57fe5b92506000610e7784600081518110610e6a57fe5b602002602001015161225e565b90506060610e8b8560028151811061093e57fe5b9050610e9d85600181518110610e3e57fe5b94507f9b1bfa7fa9ee420a16e124f794c35ac9f90472acc99140eb2f6447c714cad8eb60001b610ed38660008151811061095b57fe5b14610f285760408051600160e51b62461bcd02815260206004820152601e60248201527f4e6f742061207769746864726177206576656e74207369676e61747572650000604482015290519081900360640190fd5b610f388560018151811061095b57fe5b9850610f4a8560028151811061095b57fe5b6001600160a01b0316336001600160a01b031614610f9c57604051600160e51b62461bcd0281526004018080602001828103825260288152602001806137d66028913960400191505060405180910390fd5b610fa7816000612278565b6000805460408051600160e01b63d931a8690281523360048201526001600160a01b0387811660248301528e811660448301526064820186905260848201859052600160a483018190528a901b60c48301529151949c5091169263d931a8699260e48084019391929182900301818387803b15801561102557600080fd5b505af1158015611039573d6000803e3d6000fd5b5050505050505050505050915091565b60608060008060008686608081101561106157600080fd5b810190602081018135600160201b81111561107b57600080fd5b82018360208201111561108d57600080fd5b803590602001918460018302840111600160201b831117156110ae57600080fd5b91908080601f016020809104026020016040519081016040528093929190818152602001838380828437600092019190915250929950506001600160a01b0383351697505050602081013515159450604001351515925060609150611117905061090e86611d05565b9050606061112b8260068151811061093e57fe5b9050600061113f8360098151811061095b57fe5b9050600a81106111995760408051600160e51b62461bcd02815260206004820152601b60248201527f537570706f7274696e672061206d6178206f66203130206c6f67730000000000604482015290519081900360640190fd5b60606111a761090e84611d05565b90506111c76111bc82600381518110610e3e57fe5b8381518110610e3e57fe5b90506111d1613609565b6111e182600081518110610e6a57fe5b6001600160a01b031660408201528151606090611205908490600290811061093e57fe5b905061121783600181518110610e3e57fe5b92506112298360018151811061095b57fe5b6001600160a01b03166060830152611242816000612278565b8252861561125957611254838a612294565b611269565b611263838a61239a565b60208301525b61128e61127d85600a63ffffffff61220916565b60208401519063ffffffff61223716565b6020830152871561132c5761132682602001516000809054906101000a90046001600160a01b03166001600160a01b031663ad1d80698d6000806040518463ffffffff1660e01b815260040180806020018460ff168152602001831515151581526020018281038252858181518152602001915080519060200190808383600083811015610a37578181015183820152602001610a1f565b60208301525b816000015182602001518360400151846060015160405160200180858152602001848152602001836001600160a01b03166001600160a01b03168152602001826001600160a01b03166001600160a01b031681526020019450505050506040516020818303038152906040529a50505050505050505050505b92915050565b6000806113ed86868080601f016020809104026020016040519081016040528093929190818152602001838380828437600092019190915250610c8e92505050565b9150915061089684848080601f0160208091040260200160405190810160405280939291908181526020018383808284376000920191909152508692508591506124de9050565b67016345785d8a000034146114935760408051600160e51b62461bcd02815260206004820152601360248201527f496e76616c696420426f6e6420616d6f756e7400000000000000000000000000604482015290519081900360640190fd5b60008061150988888080601f01602080910402602001604051908101604052809392919081815260200183838082843760009201919091525050604080516020601f8c018190048102820181019092528a815292508a915089908190840183828082843760009201919091525061089e92505050565b9150915061155084848080601f0160208091040260200160405190810160405280939291908181526020018383808284376000920191909152508692508591506119f39050565b5050505050505050565b606061159e61090e86868080601f016020809104026020016040519081016040528093929190818152602001838380828437600092019190915250611d0592505050565b905060606115e461090e85858080601f016020809104026020016040519081016040528093929190818152602001838380828437600092019190915250611d0592505050565b9050805182511461163f5760408051600160e51b62461bcd02815260206004820152601760248201527f41727261792073697a657320646f6e2774206d61746368000000000000000000604482015290519081900360640190fd5b600080805b845181101561168d5761166461165f86838151811061093e57fe5b610c8e565b809350819450505061168561167e85838151811061093e57fe5b84846124de565b600101611644565b505050505050505050565b60006116a2613643565b6116e188888080601f0160208091040260200160405190810160405280939291908181526020018383808284376000920191909152506127f592505050565b905060008061172588888080601f01602080910402602001604051908101604052809392919081815260200183838082843760009201919091525061287292505050565b505091509150606061176f61090e88888080601f016020809104026020016040519081016040528093929190818152602001838380828437600092019190915250611d0592505050565b90506117796135dd565b61179161178c83600a8151811061093e57fe5b6128af565b9050826001600160a01b031681606001516001600160a01b0316146117ea57604051600160e51b62461bcd02815260040180806020018281038252604a8152602001806136dc604a913960600191505060405180910390fd5b80604001516001600160a01b031685606001516001600160a01b03161461184557604051600160e51b62461bcd02815260040180806020018281038252602f8152602001806136ad602f913960400191505060405180910390fd5b80602001518560200151141561188f57604051600160e51b62461bcd02815260040180806020018281038252602181526020018061375f6021913960400191505060405180910390fd5b80518551146118e85760408051600160e51b62461bcd02815260206004820152601560248201527f746f6b656e496420646f65736e2774206d617463680000000000000000000000604482015290519081900360640190fd5b60008054604051600160e01b63ad1d806902815260248101839052600160448201819052606060048301908152606483018c90526001600160a01b039093169263ad1d8069928d928d9287928190608401868680828437600081840152601f19601f8201169050808301925050509550505050505060206040518083038186803b15801561197557600080fd5b505afa158015611989573d6000803e3d6000fd5b505050506040513d602081101561199f57600080fd5b505183519091506119de906119bb908590600690811061093e57fe5b6119cb8560098151811061095b57fe5b606085015160408601518651600161202b565b5050939093119b9a5050505050505050505050565b6060611a0161090e85611d05565b90506000611ae3826000809054906101000a90046001600160a01b03166001600160a01b0316639025e64c6040518163ffffffff1660e01b815260040160006040518083038186803b158015611a5657600080fd5b505afa158015611a6a573d6000803e3d6000fd5b505050506040513d6000823e601f3d908101601f191682016040526020811015611a9357600080fd5b810190808051600160201b811115611aaa57600080fd5b82016020810184811115611abd57600080fd5b8151600160201b811182820187101715611ad657600080fd5b50509291905050506129b6565b5090506000849050806001600160a01b031663aa271e1a836040518263ffffffff1660e01b815260040180826001600160a01b03166001600160a01b0316815260200191505060206040518083038186803b158015611b4157600080fd5b505afa158015611b55573d6000803e3d6000fd5b505050506040513d6020811015611b6b57600080fd5b5051611bc15760408051600160e51b62461bcd02815260206004820152601660248201527f4e6f7420617574686f72697a656420746f206d696e7400000000000000000000604482015290519081900360640190fd5b806001600160a01b0316634f558e79856040518263ffffffff1660e01b81526004018082815260200191505060206040518083038186803b158015611c0557600080fd5b505afa158015611c19573d6000803e3d6000fd5b505050506040513d6020811015611c2f57600080fd5b50516108965760015460408051600160e01b6340c10f190281526001600160a01b039283166004820152602481018790529051918316916340c10f19916044808201926020929091908290030181600087803b158015611c8e57600080fd5b505af1158015611ca2573d6000803e3d6000fd5b505050506040513d6020811015611cb857600080fd5b50516108965760408051600160e51b62461bcd02815260206004820152601160248201526001607a1b701513d2d15397d352539517d1905253115102604482015290519081900360640190fd5b611d0d613671565b5060408051808201909152815181526020828101908201525b919050565b6060611d3682612d3a565b611d3f57600080fd5b6000611d4a83612d74565b9050606081604051908082528060200260200182016040528015611d8857816020015b611d75613671565b815260200190600190039081611d6d5790505b5090506000611d9a8560200151612dd0565b60208601510190506000805b84811015611df157611db783612e33565b9150604051806040016040528083815260200184815250848281518110611dda57fe5b602090810291909101015291810191600101611da6565b509195945050505050565b611e046135dd565b6060611e1261090e84611d05565b90508051600914611e6d5760408051600160e51b62461bcd02815260206004820152601560248201527f4d414c464f524d45445f57495448445241575f54580000000000000000000000604482015290519081900360640190fd5b611e7d81600381518110610e6a57fe5b6001600160a01b03908116604080850191909152600080548251600160e21b63240979930281529251611ed0948694921692639025e64c9260048082019391829003018186803b158015611a5657600080fd5b60208401526001600160a01b031660608301819052331415611f2c57611f04611eff8260058151811061093e57fe5b612ecc565b8360808101826003811115611f1557fe5b6003811115611f2057fe5b90529190915250611f4e565b611f44611f3f8260058151811061093e57fe5b613034565b8252600260808301525b50919050565b8051606090611f6257600080fd5b6000611f718360200151612dd0565b83516040805191839003808352601f19601f8201168301602001909152919250606090828015611fa8576020820181803883390190505b5090506000816020019050611fc4848760200151018285613150565b50949350505050565b805160009015801590611fe257508151602110155b611feb57600080fd5b6000611ffa8360200151612dd0565b83516020808601518301805193945091849003929190831015611fc457506020919091036101000a90049392505050565b600080600a87106120865760408051600160e51b62461bcd02815260206004820152601b60248201527f537570706f7274696e672061206d6178206f66203130206c6f67730000000000604482015290519081900360640190fd5b606061209461090e8a611d05565b90506120b46120a982600381518110610e3e57fe5b8981518110610e3e57fe5b90506120c681600081518110610e6a57fe5b6001600160a01b0316866001600160a01b03161461211857604051600160e51b62461bcd0281526004018080602001828103825260398152602001806137266039913960400191505060405180910390fd5b606061212a8260028151811061093e57fe5b905061213c82600181518110610e3e57fe5b915061214e8260018151811061095b57fe5b93508415612165576121608289612294565b612172565b61216f828961239a565b92505b61217d816000612278565b86146121bd57604051600160e51b62461bcd02815260040180806020018281038252602a815260200180613825602a913960400191505060405180910390fd5b5050965096945050505050565b600080546040516001600160a01b03909116919067016345785d8a00009082818181858883f19350505050158015612206573d6000803e3d6000fd5b50565b600082612218575060006113a5565b8282028284828161222557fe5b041461223057600080fd5b9392505050565b60008282018381101561223057600080fd5b60008282111561225857600080fd5b50900390565b805160009060151461226f57600080fd5b6113a582611fcd565b6000816020018351101561228b57600080fd5b50016020015190565b60006122a68360008151811061095b57fe5b90507f9b1bfa7fa9ee420a16e124f794c35ac9f90472acc99140eb2f6447c714cad8eb8114806122f557507f6eabe333476233fd382224f233210cb808a7bc4c4de64f9d76628bf63c677b1a81145b61233357604051600160e51b62461bcd02815260040180806020018281038252602d815260200180613780602d913960400191505060405180910390fd5b6123438360028151811061095b57fe5b6001600160a01b0316826001600160a01b03161461239557604051600160e51b62461bcd02815260040180806020018281038252602a815260200180613876602a913960400191505060405180910390fd5b505050565b6000806123ad8460008151811061095b57fe5b905060007f5548c837ab068cf56a2c2479df0882a4922fd203edb7517321831d95078c5f628214156123f0576123e98560028151811061095b57fe5b9050612483565b7f6eabe333476233fd382224f233210cb808a7bc4c4de64f9d76628bf63c677b1a821415612433576124288560038151811061095b57fe5b905060019250612483565b60408051600160e51b62461bcd02815260206004820152601760248201527f457869742074797065206e6f7420737570706f72746564000000000000000000604482015290519081900360640190fd5b806001600160a01b0316846001600160a01b0316146124d657604051600160e51b62461bcd0281526004018080602001828103825260278152602001806137fe6027913960400191505060405180910390fd5b505092915050565b60606124ec61090e85611d05565b90506000612541826000809054906101000a90046001600160a01b03166001600160a01b0316639025e64c6040518163ffffffff1660e01b815260040160006040518083038186803b158015611a5657600080fd5b5090506000849050806001600160a01b031663aa271e1a836040518263ffffffff1660e01b815260040180826001600160a01b03166001600160a01b0316815260200191505060206040518083038186803b15801561259f57600080fd5b505afa1580156125b3573d6000803e3d6000fd5b505050506040513d60208110156125c957600080fd5b505161261f5760408051600160e51b62461bcd02815260206004820152601660248201527f4e6f7420617574686f72697a656420746f206d696e7400000000000000000000604482015290519081900360640190fd5b606061263a6126348560058151811061093e57fe5b8661319b565b9050816001600160a01b0316634f558e79866040518263ffffffff1660e01b81526004018082815260200191505060206040518083038186803b15801561268057600080fd5b505afa158015612694573d6000803e3d6000fd5b505050506040513d60208110156126aa57600080fd5b50516127ec57600154604051600160e01b6350bb4e7f0281526001600160a01b039182166004820181815260248301899052606060448401908152855160648501528551948716946350bb4e7f948b9388939092909160840190602085019080838360005b8381101561272757818101518382015260200161270f565b50505050905090810190601f1680156127545780820380516001836020036101000a031916815260200191505b50945050505050602060405180830381600087803b15801561277557600080fd5b505af1158015612789573d6000803e3d6000fd5b505050506040513d602081101561279f57600080fd5b50516127ec5760408051600160e51b62461bcd02815260206004820152601160248201526001607a1b701513d2d15397d352539517d1905253115102604482015290519081900360640190fd5b50505050505050565b6127fd613643565b60008060008060008680602001905160a081101561281a57600080fd5b508051602080830151604080850151606080870151608097880151845160a081018652938452958301526001600160a01b03958616928201929092529390911690830152151591810191909152979650505050505050565b60008060008084806020019051608081101561288d57600080fd5b5080516020820151604083015160609093015191989097509195509350915050565b6128b76135dd565b60606128c561090e84611d05565b905080516009146129205760408051600160e51b62461bcd02815260206004820152601560248201527f4d414c464f524d45445f57495448445241575f54580000000000000000000000604482015290519081900360640190fd5b61293081600381518110610e6a57fe5b6001600160a01b03908116604080850191909152600080548251600160e21b63240979930281529251612983948694921692639025e64c9260048082019391829003018186803b158015611a5657600080fd5b60208401526001600160a01b0316606083015280516129ad90611eff908390600590811061093e57fe5b50825250919050565b60408051600980825261014082019092526000918291606091816020015b60608152602001906001900390816129d457905050905060005b60058160ff1611612a2d57612a0b868260ff168151811061093e57fe5b828260ff1681518110612a1a57fe5b60209081029190910101526001016129ee565b506040518060200160405280600081525081600481518110612a4b57fe5b60200260200101819052508381600681518110612a6457fe5b60200260200101819052506040518060200160405280600081525081600781518110612a8c57fe5b60200260200101819052506040518060200160405280600081525081600881518110612ab457fe5b6020026020010181905250612ac8816132cb565b80519060200120915060018273__Common________________________________63b40b539b612afe8960068151811061093e57fe5b604051600160e11b6326b351570281526020600482018181528b5160248401528b5173__Common________________________________93634d66a2ae938e939283926044019185019080838360005b83811015612b66578181015183820152602001612b4e565b50505050905090810190601f168015612b935780820380516001836020036101000a031916815260200191505b509250505060206040518083038186803b158015612bb057600080fd5b505af4158015612bc4573d6000803e3d6000fd5b505050506040513d6020811015612bda57600080fd5b50516040805163ffffffff851660e01b815261ffff8316602482015260048101918252835160448201528351829160640190602086019080838360005b83811015612c2f578181015183820152602001612c17565b50505050905090810190601f168015612c5c5780820380516001836020036101000a031916815260200191505b50935050505060206040518083038186803b158015612c7a57600080fd5b505af4158015612c8e573d6000803e3d6000fd5b505050506040513d6020811015612ca457600080fd5b50518751612cb9908990600790811061095b57fe5b60001b612ccc8960088151811061095b57fe5b60001b60405160008152602001604052604051808581526020018460ff1660ff1681526020018381526020018281526020019450505050506020604051602081039080840390855afa158015612d26573d6000803e3d6000fd5b505050602060405103519250509250929050565b8051600090612d4b57506000611d26565b6020820151805160001a9060c0821015612d6a57600092505050611d26565b5060019392505050565b8051600090612d8557506000611d26565b60008090506000612d998460200151612dd0565b602085015185519181019250015b80821015612dc757612db882612e33565b60019093019290910190612da7565b50909392505050565b8051600090811a6080811015612dea576000915050611d26565b60b8811080612e05575060c08110801590612e05575060f881105b15612e14576001915050611d26565b60c0811015612e285760b519019050611d26565b60f519019050611d26565b80516000908190811a6080811015612e4e5760019150612ec5565b60b8811015612e6357607e1981019150612ec5565b60c0811015612e905760b78103600185019450806020036101000a85510460018201810193505050612ec5565b60f8811015612ea55760be1981019150612ec5565b60f78103600185019450806020036101000a855104600182018101935050505b5092915050565b6000806000612ee6612ee1856000600461331f565b61339e565b90506001600160e01b03198116600160e01b632e1a7d4d021415612f63578351602414612f4d5760408051600160e51b62461bcd02815260206004820152600a6024820152600160b31b69092dcecc2d8d2c840e8f02604482015290519081900360640190fd5b612f58846004612278565b92506003915061302e565b6001600160e01b03198116600160e01b6323b872dd021415612fde578351606414612fc85760408051600160e51b62461bcd02815260206004820152600a6024820152600160b31b69092dcecc2d8d2c840e8f02604482015290519081900360640190fd5b612fd3846044612278565b92506001915061302e565b60408051600160e51b62461bcd02815260206004820152601a60248201527f457869742074782074797065206e6f7420737570706f72746564000000000000604482015290519081900360640190fd5b50915091565b6000815160641461307f5760408051600160e51b62461bcd02815260206004820152600a6024820152600160b31b69092dcecc2d8d2c840e8f02604482015290519081900360640190fd5b6000613091612ee1846000600461331f565b90506001600160e01b03198116600160e01b6323b872dd02146130e857604051600160e51b62461bcd02815260040180806020018281038252602781526020018061384f6027913960400191505060405180910390fd5b6130f3836024612278565b6001600160a01b0316336001600160a01b03161461314557604051600160e51b62461bcd02815260040180806020018281038252602181526020018061368c6021913960400191505060405180910390fd5b612230836044612278565b8061315a57612395565b5b6020811061317a578251825260209283019290910190601f190161315b565b915181516020939093036101000a6000190180199091169216919091179052565b606060006131af612ee1856000600461331f565b9050600160e01b6350bb4e7f026001600160e01b031982161461320657604051600160e51b62461bcd0281526004018080602001828103825260278152602001806138a06027913960400191505060405180910390fd5b60006132178560048088510361331f565b806020019051606081101561322b57600080fd5b8151602083015160408401805192949193820192600160201b81111561325057600080fd5b8201602081018481111561326357600080fd5b8151600160201b81118282018710171561327c57600080fd5b50909850939550505086841492506124d691505057604051600160e51b62461bcd0281526004018080602001828103825260298152602001806137ad6029913960400191505060405180910390fd5b60608060005b8351811015613309576132ff826132fa8684815181106132ed57fe5b60200260200101516133a5565b613418565b91506001016132d1565b50612230613319825160c0613495565b82613418565b60608183018451101561333157600080fd5b60608215801561334c57604051915060208201604052611fc4565b6040519150601f8416801560200281840101858101878315602002848b0101015b8183101561338557805183526020928301920161336d565b5050858452601f01601f19166040525050949350505050565b6020015190565b606080825160011480156133dc57506080836000815181106133c357fe5b602001015160f81c60f81b60ff60f81b1660f81c60ff16105b156134075760408051600180825281830190925290602082018180388339508593506113a592505050565b61223061341684516080613495565b845b6060806040519050835180825260208201818101602087015b81831015613449578051835260209283019201613431565b50855184518101855292509050808201602086015b8183101561347657805183526020928301920161345e565b508651929092011591909101601f01601f191660405250905092915050565b606060388310156134f25760408051600180825281830190925260609160208201818038833901905050905082840160f81b816000815181106134d457fe5b60200101906001600160f81b031916908160001a90535090506113a5565b600060015b80858161350057fe5b041561351557600190910190610100026134f7565b6060613525838660370101613549565b9050606061353287613549565b905061353e8282613418565b9450505050506113a5565b6060600160ff83111561355a575060025b806040519080825280601f01601f191660200182016040528015613585576020820181803883390190505b50915060005b818110156135d65780600183030360080260020a84816135a757fe5b0460f81b8382815181106135b757fe5b60200101906001600160f81b031916908160001a90535060010161358b565b5050919050565b6040805160a0810182526000808252602082018190529181018290526060810182905290608082015290565b6040518060800160405280600081526020016000815260200160006001600160a01b0316815260200160006001600160a01b031681525090565b6040805160a08101825260008082526020820181905291810182905260608101829052608081019190915290565b60405180604001604052806000815260200160008152509056fe4578697420747820646f65736e7420636f6e6365726e2074686520657869746f724368616c6c656e676520747820746f6b656e20646f65736e74206d617463682077697468206578697420746f6b656e4368616c6c656e6765207478206e6f74207369676e6564206279207468652070617274792077686f207369676e65642074686520696e707574205554584f20746f2074686520657869745265666572656e636520616e64206578697420747820646f206e6f7420636f72726573706f6e6420746f207468652073616d6520746f6b656e43616e6e6f74206368616c6c656e676520776974682074686520657869742074784c6f67207369676e617475726520646f65736e74207175616c69667920617320612076616c6964207370656e64546f6b656e49647320696e206578697420616e64206d696e7420747820646f206e6f74206d617463685769746864726177657220616e64206275726e206578697420747820646f206e6f74206d617463687478202f206c6f6720646f65736e7420636f6e6365726e20746865207061727469636970616e74546f6b656e496420696e2074686520747820616e64206c6f674461746120646f206e6f74206d617463684f6e6c7920737570706f7274732065786974696e672066726f6d207472616e73666572207478737061727469636970616e7420616e64207265666572656e63656420747820646f206e6f74206d6174636866756e6353696720646f6573206e6f74206d61746368206d696e7457697468546f6b656e555249a165627a7a72305820e530a0579faf53b9090f62dd4ec5dcbe95644f3a658f82cb3105264a5dac998e0029",
  "source": "pragma solidity ^0.5.2;\n\nimport { BytesLib } from \"../../common/lib/BytesLib.sol\";\nimport { Common } from \"../../common/lib/Common.sol\";\nimport { RLPEncode } from \"../../common/lib/RLPEncode.sol\";\nimport { RLPReader } from \"solidity-rlp/contracts/RLPReader.sol\";\nimport { SafeMath } from \"openzeppelin-solidity/contracts/math/SafeMath.sol\";\n\nimport { ERC721PlasmaMintable, ERC721PlasmaMetadataMintable } from \"../../common/tokens/ERC721PlasmaMintable.sol\";\nimport { IErcPredicate } from \"./IPredicate.sol\";\n\ncontract ERC721Predicate is IErcPredicate {\n  using RLPReader for bytes;\n  using RLPReader for RLPReader.RLPItem;\n  using SafeMath for uint256;\n\n  // keccak256('Deposit(address,address,uint256)')\n  bytes32 constant DEPOSIT_EVENT_SIG = 0x5548c837ab068cf56a2c2479df0882a4922fd203edb7517321831d95078c5f62;\n  // keccak256('Withdraw(address,address,uint256)')\n  bytes32 constant WITHDRAW_EVENT_SIG = 0x9b1bfa7fa9ee420a16e124f794c35ac9f90472acc99140eb2f6447c714cad8eb;\n  // keccak256('LogTransfer(address,address,address,uint256)')\n  bytes32 constant E721_LOG_TRANSFER_EVENT_SIG = 0x6eabe333476233fd382224f233210cb808a7bc4c4de64f9d76628bf63c677b1a;\n  // keccak256('withdraw(uint256)').slice(0, 4)\n  bytes4 constant WITHDRAW_FUNC_SIG = 0x2e1a7d4d;\n  // keccak256('transferFrom(address,address,uint256)').slice(0, 4)\n  bytes4 constant TRANSFER_FROM_FUNC_SIG = 0x23b872dd;\n\n  constructor(address _withdrawManager, address _depositManager)\n    IErcPredicate(_withdrawManager, _depositManager)\n    public {}\n\n  function startExitWithBurntTokens(bytes memory data)\n    public\n    returns(address rootToken, uint256 tokenId)\n  {\n    RLPReader.RLPItem[] memory referenceTxData = data.toRlpItem().toList();\n    bytes memory receipt = referenceTxData[6].toBytes();\n    RLPReader.RLPItem[] memory inputItems = receipt.toRlpItem().toList();\n    uint256 age = withdrawManager.verifyInclusion(data, 0 /* offset */, false /* verifyTxInclusion */);\n    uint256 logIndex = referenceTxData[9].toUint();\n    require(logIndex < MAX_LOGS, \"Supporting a max of 10 logs\");\n    inputItems = inputItems[3].toList()[logIndex].toList(); // select log based on given logIndex\n\n    // \"address\" (contract address that emitted the log) field in the receipt\n    address childToken = RLPReader.toAddress(inputItems[0]);\n    bytes memory logData = inputItems[2].toBytes();\n    inputItems = inputItems[1].toList(); // topics\n    // now, inputItems[i] refers to i-th (0-based) topic in the topics array\n    // event Withdraw(address indexed token, address indexed from, uint256 amountOrTokenId, uint256 input1, uint256 output1)\n    require(\n      bytes32(inputItems[0].toUint()) == WITHDRAW_EVENT_SIG,\n      \"Not a withdraw event signature\"\n    );\n    rootToken = address(RLPReader.toUint(inputItems[1]));\n    require(\n      msg.sender == address(inputItems[2].toUint()), // from\n      \"Withdrawer and burn exit tx do not match\"\n    );\n    tokenId = BytesLib.toUint(logData, 0);\n    withdrawManager.addExitToQueue(\n      msg.sender, childToken, rootToken,\n      tokenId, bytes32(0x0) /* txHash */, true /* isRegularExit */, age << 1\n    );\n  }\n\n  /**\n   * @notice Start an exit by referencing the preceding (reference) transaction\n   * @param data RLP encoded data of the reference tx(s) that encodes the following fields for each tx\n      * headerNumber Header block number of which the reference tx was a part of\n      * blockProof Proof that the block header (in the child chain) is a leaf in the submitted merkle root\n      * blockNumber Block number of which the reference tx is a part of\n      * blockTime Reference tx block time\n      * blocktxRoot Transactions root of block\n      * blockReceiptsRoot Receipts root of block\n      * receipt Receipt of the reference transaction\n      * receiptProof Merkle proof of the reference receipt\n      * branchMask Merkle proof branchMask for the receipt\n      * logIndex Log Index to read from the receipt\n   * @param exitTx Signed exit transaction\n   * @return address rootToken that the exit corresponds to\n   * @return uint256 tokenId of the token that is being exited\n   */\n  function startExit(bytes memory data, bytes memory exitTx)\n    public\n    payable\n    isBondProvided\n    returns(address /* rootToken */, uint256 /* tokenId */)\n  {\n    // referenceTx is a proof-of-funds of the party who signed the exit tx\n    RLPReader.RLPItem[] memory referenceTxData = data.toRlpItem().toList();\n\n    // Validate the exitTx - This may be an in-flight tx, so inclusion will not be checked\n    ExitTxData memory exitTxData = processExitTx(exitTx);\n\n    // process the receipt of the referenced tx\n    (address rootToken, uint256 oIndex) = processReferenceTx(\n      referenceTxData[6].toBytes(), // receipt\n      referenceTxData[9].toUint(), // logIndex\n      exitTxData.signer,\n      exitTxData.childToken,\n      exitTxData.amountOrToken,\n      false // isChallenge\n    );\n\n    sendBond(); // send BOND_AMOUNT to withdrawManager\n\n    // verifyInclusion returns the position of the receipt in child chain\n    uint256 ageOfUtxo = withdrawManager.verifyInclusion(data, 0 /* offset */, false /* verifyTxInclusion */)\n      .add(referenceTxData[9].toUint().mul(MAX_LOGS)) // logIndex * MAX_LOGS\n      .add(oIndex); // whether exitTxData.signer is a sender or receiver in the referenced receipt\n    uint256 exitId = ageOfUtxo << 1; // last bit is reserved for housekeeping in erc20Predicate\n    withdrawManager.addExitToQueue(msg.sender, exitTxData.childToken, rootToken, exitTxData.amountOrToken, exitTxData.txHash, false /* isRegularExit */, exitId);\n    withdrawManager.addInput(exitId, ageOfUtxo, exitTxData.signer, rootToken);\n    // Adding a dummy input, owner being the exitor to challenge spends that the exitor made after the transaction being exited from\n    withdrawManager.addInput(exitId, ageOfUtxo.sub(1), msg.sender, rootToken);\n    return (rootToken, exitTxData.amountOrToken);\n  }\n\n  /**\n   * @notice Start an exit for a token that was minted and burnt on the side chain\n   * @param data RLP encoded data of the burn tx\n   * @param mintTx Signed mint transaction\n   */\n  function startExitWithBurntTokens(bytes calldata data, bytes calldata mintTx)\n    external\n  {\n    (address rootToken, uint256 tokenId) = startExitWithBurntTokens(data);\n    processMintTx(mintTx, rootToken, tokenId);\n  }\n\n  function startExitForMintWithTokenURITokens(bytes calldata data, bytes calldata mintTx)\n    external\n  {\n    (address rootToken, uint256 tokenId) = startExitWithBurntTokens(data);\n    processMintWithTokenURI(mintTx, rootToken, tokenId);\n  }\n\n  function startBulkExitForMintWithTokenURITokens(bytes calldata _withdrawls, bytes calldata _mintTxs)\n    external\n  {\n    RLPReader.RLPItem[] memory withdrawls = _withdrawls.toRlpItem().toList();\n    RLPReader.RLPItem[] memory mintTxs = _mintTxs.toRlpItem().toList();\n    require(withdrawls.length == mintTxs.length, \"Array sizes don't match\");\n    address rootToken;\n    uint256 tokenId;\n    for(uint256 i = 0; i < withdrawls.length; i++) {\n      (rootToken, tokenId) = startExitWithBurntTokens(withdrawls[i].toBytes());\n      processMintWithTokenURI(mintTxs[i].toBytes(), rootToken, tokenId);\n    }\n  }\n\n  /**\n   * @notice Start a MoreVP style exit for a token that was minted on the side chain\n   * @param data RLP encoded data of the reference tx(s)\n   * @param exitTx Signed exit transaction\n   * @param mintTx Signed mint transaction\n   */\n  function startExitAndMint(bytes calldata data, bytes calldata exitTx, bytes calldata mintTx)\n    external\n    payable\n    isBondProvided\n  {\n    (address rootToken, uint256 tokenId) = startExit(data, exitTx);\n    processMintTx(mintTx, rootToken, tokenId);\n  }\n\n  /**\n   * @notice Verify the deprecation of a state update\n   * @param exit ABI encoded PlasmaExit data\n   * @param inputUtxo ABI encoded Input UTXO data\n   * @param challengeData RLP encoded data of the challenge reference tx that encodes the following fields\n      * headerNumber Header block number of which the reference tx was a part of\n      * blockProof Proof that the block header (in the child chain) is a leaf in the submitted merkle root\n      * blockNumber Block number of which the reference tx is a part of\n      * blockTime Reference tx block time\n      * blocktxRoot Transactions root of block\n      * blockReceiptsRoot Receipts root of block\n      * receipt Receipt of the reference transaction\n      * receiptProof Merkle proof of the reference receipt\n      * branchMask Merkle proof branchMask for the receipt\n      * logIndex Log Index to read from the receipt\n      * tx Challenge transaction\n      * txProof Merkle proof of the challenge tx\n   * @return Whether or not the state is deprecated\n   */\n  function verifyDeprecation(bytes calldata exit, bytes calldata inputUtxo, bytes calldata challengeData)\n    external\n    returns (bool)\n  {\n    PlasmaExit memory _exit = decodeExit(exit);\n    (uint256 age, address signer,,) = decodeInputUtxo(inputUtxo);\n    RLPReader.RLPItem[] memory referenceTxData = challengeData.toRlpItem().toList();\n\n    ExitTxData memory challengeTxData = processChallengeTx(referenceTxData[10].toBytes());\n    require(\n      challengeTxData.signer == signer,\n      \"Challenge tx not signed by the party who signed the input UTXO to the exit\"\n    );\n    require(\n      _exit.token == challengeTxData.childToken,\n      \"Challenge tx token doesnt match with exit token\"\n    );\n    require(\n      _exit.txHash != challengeTxData.txHash,\n      \"Cannot challenge with the exit tx\"\n    );\n    require(\n      _exit.receiptAmountOrNFTId == challengeTxData.amountOrToken,\n      \"tokenId doesn't match\"\n    );\n    uint256 ageOfChallengeTx = withdrawManager.verifyInclusion(challengeData, 0, true /* verifyTxInclusion */);\n    processReferenceTx(\n      referenceTxData[6].toBytes(), // receipt\n      referenceTxData[9].toUint(), // logIndex\n      challengeTxData.signer,\n      challengeTxData.childToken,\n      challengeTxData.amountOrToken,\n      true // isChallenge\n    );\n    return ageOfChallengeTx > age;\n  }\n\n  // function onFinalizeExit(address exitor, address token, uint256 tokenId)\n  //   external\n  //   onlyWithdrawManager\n  // {\n  //   depositManager.transferAssets(token, exitor, tokenId);\n  // }\n\n  function interpretStateUpdate(bytes calldata state)\n    external\n    view\n    returns (bytes memory b)\n  {\n    (bytes memory _data, address participant, bool verifyInclusion, bool isChallenge) = abi.decode(state, (bytes, address, bool, bool));\n    RLPReader.RLPItem[] memory referenceTx = _data.toRlpItem().toList();\n    bytes memory receipt = referenceTx[6].toBytes();\n    uint256 logIndex = referenceTx[9].toUint();\n    require(logIndex < MAX_LOGS, \"Supporting a max of 10 logs\");\n    RLPReader.RLPItem[] memory inputItems = receipt.toRlpItem().toList();\n    inputItems = inputItems[3].toList()[logIndex].toList(); // select log based on given logIndex\n    ReferenceTxData memory data;\n    data.childToken = RLPReader.toAddress(inputItems[0]); // \"address\" (contract address that emitted the log) field in the receipt\n    bytes memory logData = inputItems[2].toBytes();\n    inputItems = inputItems[1].toList(); // topics\n    data.rootToken = address(RLPReader.toUint(inputItems[1]));\n    // event LogTransfer(address indexed token, address indexed from, address indexed to, uint256 tokenId);\n    data.closingBalance = BytesLib.toUint(logData, 0); // first un-indexed param in LogTransfer\n    if (isChallenge) {\n      processChallenge(inputItems, participant);\n    } else {\n      data.age = processStateUpdate(inputItems, participant);\n    }\n    data.age = data.age.add(logIndex.mul(MAX_LOGS));\n    if (verifyInclusion) {\n      data.age = withdrawManager.verifyInclusion(_data, 0, false /* verifyTxInclusion */).add(data.age);\n    }\n    return abi.encode(data.closingBalance, data.age, data.childToken, data.rootToken);\n  }\n\n  /**\n   * @notice Process the reference tx to start a MoreVP style exit\n   * @param receipt Receipt of the reference transaction\n   * @param logIndex Log Index to read from the receipt\n   * @param participant Either of exitor or a counterparty depending on the type of exit\n   */\n  function processReferenceTx(\n    bytes memory receipt,\n    uint256 logIndex,\n    address participant,\n    address childToken,\n    uint256 tokenId,\n    bool isChallenge)\n    internal\n    pure\n    returns(address rootToken, uint256 oIndex)\n  {\n    require(logIndex < 10, \"Supporting a max of 10 logs\");\n    RLPReader.RLPItem[] memory inputItems = receipt.toRlpItem().toList();\n    inputItems = inputItems[3].toList()[logIndex].toList(); // select log based on given logIndex\n    require(\n      childToken == RLPReader.toAddress(inputItems[0]), // \"address\" (contract address that emitted the log) field in the receipt\n      \"Reference and exit tx do not correspond to the same token\"\n    );\n    bytes memory logData = inputItems[2].toBytes();\n    inputItems = inputItems[1].toList(); // topics\n    // now, inputItems[i] refers to i-th (0-based) topic in the topics array\n    // inputItems[0] is the event signature\n    rootToken = address(RLPReader.toUint(inputItems[1]));\n    if (isChallenge) {\n      processChallenge(inputItems, participant);\n    } else {\n      oIndex = processStateUpdate(inputItems, participant);\n    }\n    // tokenId is the first param in logData in all 3 of Deposit, Withdraw and LogTransfer\n    require(\n      tokenId == BytesLib.toUint(logData, 0),\n      \"TokenId in the tx and logData do not match\"\n    );\n  }\n\n  /**\n   * @notice Parse the state update and check if this predicate recognizes it\n   * @param inputItems inputItems[i] refers to i-th (0-based) topic in the topics array in the log\n   */\n  function processStateUpdate(\n    RLPReader.RLPItem[] memory inputItems,\n    address participant)\n    internal\n    pure\n    returns (uint256 oIndex)\n  {\n    bytes32 eventSignature = bytes32(inputItems[0].toUint());\n    address _participant;\n    if (eventSignature == DEPOSIT_EVENT_SIG) {\n      // event Deposit(address indexed token, address indexed from, uint256 amountOrTokenId, uint256 input1, uint256 output1)\n      _participant = address(inputItems[2].toUint()); // from\n    } else if (eventSignature == E721_LOG_TRANSFER_EVENT_SIG) {\n      // event LogTransfer(\n      //   address indexed token, address indexed from, address indexed to,\n      //   uint256 amountOrTokenId);\n      // Only makes sense to reference an incoming transfer, unlike erc20 where outgoing transfer also makes sense\n      _participant = address(inputItems[3].toUint()); // to\n      oIndex = 1;\n    } else {\n      revert(\"Exit type not supported\");\n    }\n    require(\n      participant == _participant,\n      \"tx / log doesnt concern the participant\"\n    );\n  }\n\n  /**\n   * @notice Parse the state update and check if this predicate recognizes it\n   * @param inputItems inputItems[i] refers to i-th (0-based) topic in the topics array in the log\n   */\n  function processChallenge(\n    RLPReader.RLPItem[] memory inputItems,\n    address participant)\n    internal\n    pure\n  {\n    bytes32 eventSignature = bytes32(inputItems[0].toUint());\n    // event Withdraw(address indexed token, address indexed from, uint256 amountOrTokenId, uint256 input1, uint256 output1)\n    // event LogTransfer(\n    //   address indexed token, address indexed from, address indexed to,\n    //   uint256 amountOrTokenId, uint256 input1, uint256 input2, uint256 output1, uint256 output2)\n    require(\n      eventSignature == WITHDRAW_EVENT_SIG || eventSignature == E721_LOG_TRANSFER_EVENT_SIG,\n      \"Log signature doesnt qualify as a valid spend\"\n    );\n    require(\n      participant == address(inputItems[2].toUint()), // from\n      \"participant and referenced tx do not match\"\n    );\n    // oIndex is always 0 for the 2 scenarios above, hence not returning it\n  }\n\n  /**\n   * @notice Process the transaction to start a MoreVP style exit from\n   * @param exitTx Signed exit transaction\n   */\n  function processExitTx(bytes memory exitTx)\n    internal\n    view\n    returns(ExitTxData memory txData)\n  {\n    RLPReader.RLPItem[] memory txList = exitTx.toRlpItem().toList();\n    require(txList.length == 9, \"MALFORMED_WITHDRAW_TX\");\n    txData.childToken = RLPReader.toAddress(txList[3]); // corresponds to \"to\" field in tx\n    (txData.signer, txData.txHash) = getAddressFromTx(txList, withdrawManager.networkId());\n    if (txData.signer == msg.sender) { // exit tx is signed by exitor himself\n      (txData.amountOrToken, txData.exitType) = processExitTxSender(RLPReader.toBytes(txList[5]));\n    } else {\n      // exitor is a counterparty in the provided tx\n      txData.amountOrToken = processExitTxCounterparty(RLPReader.toBytes(txList[5]));\n      txData.exitType = ExitType.IncomingTransfer;\n    }\n  }\n\n  /**\n   * @notice Process the challenge transaction\n   * @param challengeTx Challenge transaction\n   * @return ExitTxData Parsed challenge transaction data\n   */\n  function processChallengeTx(bytes memory challengeTx)\n    internal\n    view\n    returns(ExitTxData memory txData)\n  {\n    RLPReader.RLPItem[] memory txList = challengeTx.toRlpItem().toList();\n    require(txList.length == 9, \"MALFORMED_WITHDRAW_TX\");\n    txData.childToken = RLPReader.toAddress(txList[3]); // corresponds to \"to\" field in tx\n    (txData.signer, txData.txHash) = getAddressFromTx(txList, withdrawManager.networkId());\n    // during a challenge, the tx signer must be the first party\n    (txData.amountOrToken,) = processExitTxSender(RLPReader.toBytes(txList[5]));\n  }\n\n  function processExitTxSender(bytes memory txData)\n    internal\n    pure\n    returns (uint256 tokenId, ExitType exitType)\n  {\n    bytes4 funcSig = BytesLib.toBytes4(BytesLib.slice(txData, 0, 4));\n    if (funcSig == WITHDRAW_FUNC_SIG) {\n      // function withdraw(uint256 tokenId)\n      require(txData.length == 36, \"Invalid tx\"); // 4 bytes for funcSig and a single bytes32 parameter\n      tokenId = BytesLib.toUint(txData, 4);\n      exitType = ExitType.Burnt;\n    } else if (funcSig == TRANSFER_FROM_FUNC_SIG) {\n      // function transferFrom(address from, address to, uint256 tokenId)\n      require(txData.length == 100, \"Invalid tx\"); // 4 bytes for funcSig and a 3 bytes32 parameters (from, to, tokenId)\n      tokenId = BytesLib.toUint(txData, 68);\n      exitType = ExitType.OutgoingTransfer;\n    } else {\n      revert(\"Exit tx type not supported\");\n    }\n  }\n\n  function processExitTxCounterparty(bytes memory txData)\n    internal\n    view\n    returns (uint256 tokenId)\n  {\n    require(txData.length == 100, \"Invalid tx\"); // 4 bytes for funcSig and a 2 bytes32 parameters (to, value)\n    bytes4 funcSig = BytesLib.toBytes4(BytesLib.slice(txData, 0, 4));\n    require(funcSig == TRANSFER_FROM_FUNC_SIG, \"Only supports exiting from transfer txs\");\n    require(\n      msg.sender == address(BytesLib.toUint(txData, 36)), // to\n      \"Exit tx doesnt concern the exitor\"\n    );\n    tokenId = BytesLib.toUint(txData, 68); // NFT ID\n  }\n\n  function processMintTx(bytes memory mintTx, address rootToken, uint256 tokenId)\n    internal\n  {\n    RLPReader.RLPItem[] memory txList = mintTx.toRlpItem().toList();\n    (address minter,) = getAddressFromTx(txList, withdrawManager.networkId());\n    ERC721PlasmaMintable token = ERC721PlasmaMintable(rootToken);\n    require(\n      token.isMinter(minter),\n      \"Not authorized to mint\"\n    );\n    if (!token.exists(tokenId)) {\n      // this predicate contract should have been added to the token minter role\n      require(\n        token.mint(address(depositManager), tokenId),\n        \"TOKEN_MINT_FAILED\"\n      );\n    }\n  }\n\n  function processMintWithTokenURI(bytes memory mintTx, address rootToken, uint256 tokenId)\n    internal\n  {\n    RLPReader.RLPItem[] memory txList = mintTx.toRlpItem().toList();\n    (address minter,) = getAddressFromTx(txList, withdrawManager.networkId());\n    ERC721PlasmaMetadataMintable token = ERC721PlasmaMetadataMintable(rootToken);\n    require(\n      token.isMinter(minter),\n      \"Not authorized to mint\"\n    );\n    string memory uri = _processRawMintWithTokenURI(RLPReader.toBytes(txList[5]), tokenId);\n    if (!token.exists(tokenId)) {\n      // this predicate contract should have been added to the token minter role\n      require(\n        token.mintWithTokenURI(address(depositManager), tokenId, uri),\n        \"TOKEN_MINT_FAILED\"\n      );\n    }\n  }\n\n  function _processRawMintWithTokenURI(bytes memory txData, uint256 tokenId) internal returns (string memory uri) {\n    bytes4 funcSig = BytesLib.toBytes4(BytesLib.slice(txData, 0, 4));\n    require(\n      funcSig == 0x50bb4e7f,\n      \"funcSig does not match mintWithTokenURI\"\n    );\n    uint256 _tokenId;\n    (,_tokenId, uri) = abi.decode(\n      BytesLib.slice(txData, 4, txData.length - 4),\n      (address, uint256, string)\n    );\n    require(_tokenId == tokenId, \"TokenIds in exit and mint tx do not match\");\n  }\n}\n",
  "sourcePath": "/Users/arpit/projects/contracts/contracts/root/predicates/ERC721Predicate.sol",
  "compiler": {
    "name": "solc",
    "version": "0.5.7+commit.6da8b019.Emscripten.clang"
  },
  "schemaVersion": "3.0.14",
  "updatedAt": "2019-11-13T10:42:44.531Z",
  "devdoc": {
    "methods": {
      "startExit(bytes,bytes)": {
        "params": {
          "data": "RLP encoded data of the reference tx(s) that encodes the following fields for each tx headerNumber Header block number of which the reference tx was a part of blockProof Proof that the block header (in the child chain) is a leaf in the submitted merkle root blockNumber Block number of which the reference tx is a part of blockTime Reference tx block time blocktxRoot Transactions root of block blockReceiptsRoot Receipts root of block receipt Receipt of the reference transaction receiptProof Merkle proof of the reference receipt branchMask Merkle proof branchMask for the receipt logIndex Log Index to read from the receipt",
          "exitTx": "Signed exit transaction"
        },
        "return": "address rootToken that the exit corresponds touint256 tokenId of the token that is being exited"
      },
      "startExitAndMint(bytes,bytes,bytes)": {
        "params": {
          "data": "RLP encoded data of the reference tx(s)",
          "exitTx": "Signed exit transaction",
          "mintTx": "Signed mint transaction"
        }
      },
      "startExitWithBurntTokens(bytes,bytes)": {
        "params": {
          "data": "RLP encoded data of the burn tx",
          "mintTx": "Signed mint transaction"
        }
      },
      "verifyDeprecation(bytes,bytes,bytes)": {
        "params": {
          "challengeData": "RLP encoded data of the challenge reference tx that encodes the following fields headerNumber Header block number of which the reference tx was a part of blockProof Proof that the block header (in the child chain) is a leaf in the submitted merkle root blockNumber Block number of which the reference tx is a part of blockTime Reference tx block time blocktxRoot Transactions root of block blockReceiptsRoot Receipts root of block receipt Receipt of the reference transaction receiptProof Merkle proof of the reference receipt branchMask Merkle proof branchMask for the receipt logIndex Log Index to read from the receipt tx Challenge transaction txProof Merkle proof of the challenge tx",
          "exit": "ABI encoded PlasmaExit data",
          "inputUtxo": "ABI encoded Input UTXO data"
        },
        "return": "Whether or not the state is deprecated"
      }
    }
  },
  "userdoc": {
    "methods": {
      "startExit(bytes,bytes)": {
        "notice": "Start an exit by referencing the preceding (reference) transaction"
      },
      "startExitAndMint(bytes,bytes,bytes)": {
        "notice": "Start a MoreVP style exit for a token that was minted on the side chain"
      },
      "startExitWithBurntTokens(bytes,bytes)": {
        "notice": "Start an exit for a token that was minted and burnt on the side chain"
      },
      "verifyDeprecation(bytes,bytes,bytes)": {
        "notice": "Verify the deprecation of a state update"
      }
    }
  }
}