{
  "contractName": "ExitManager",
  "abi": [
    {
      "constant": true,
      "inputs": [
        {
          "name": "",
          "type": "uint256"
        }
      ],
      "name": "exits",
      "outputs": [
        {
          "name": "owner",
          "type": "address"
        },
        {
          "name": "token",
          "type": "address"
        },
        {
          "name": "amountOrTokenId",
          "type": "uint256"
        },
        {
          "name": "burnt",
          "type": "bool"
        }
      ],
      "payable": false,
      "stateMutability": "view",
      "type": "function"
    },
    {
      "constant": true,
      "inputs": [],
      "name": "wethToken",
      "outputs": [
        {
          "name": "",
          "type": "address"
        }
      ],
      "payable": false,
      "stateMutability": "view",
      "type": "function"
    },
    {
      "constant": true,
      "inputs": [
        {
          "name": "",
          "type": "bytes32"
        }
      ],
      "name": "ownerExits",
      "outputs": [
        {
          "name": "",
          "type": "uint256"
        }
      ],
      "payable": false,
      "stateMutability": "view",
      "type": "function"
    },
    {
      "constant": true,
      "inputs": [],
      "name": "depositManager",
      "outputs": [
        {
          "name": "",
          "type": "address"
        }
      ],
      "payable": false,
      "stateMutability": "view",
      "type": "function"
    },
    {
      "constant": false,
      "inputs": [],
      "name": "renounceOwnership",
      "outputs": [],
      "payable": false,
      "stateMutability": "nonpayable",
      "type": "function"
    },
    {
      "constant": true,
      "inputs": [],
      "name": "owner",
      "outputs": [
        {
          "name": "",
          "type": "address"
        }
      ],
      "payable": false,
      "stateMutability": "view",
      "type": "function"
    },
    {
      "constant": true,
      "inputs": [],
      "name": "isOwner",
      "outputs": [
        {
          "name": "",
          "type": "bool"
        }
      ],
      "payable": false,
      "stateMutability": "view",
      "type": "function"
    },
    {
      "constant": true,
      "inputs": [],
      "name": "rootChain",
      "outputs": [
        {
          "name": "",
          "type": "address"
        }
      ],
      "payable": false,
      "stateMutability": "view",
      "type": "function"
    },
    {
      "constant": true,
      "inputs": [
        {
          "name": "",
          "type": "address"
        }
      ],
      "name": "exitsQueues",
      "outputs": [
        {
          "name": "",
          "type": "address"
        }
      ],
      "payable": false,
      "stateMutability": "view",
      "type": "function"
    },
    {
      "constant": false,
      "inputs": [
        {
          "name": "newRootChain",
          "type": "address"
        }
      ],
      "name": "changeRootChain",
      "outputs": [],
      "payable": false,
      "stateMutability": "nonpayable",
      "type": "function"
    },
    {
      "constant": false,
      "inputs": [
        {
          "name": "newOwner",
          "type": "address"
        }
      ],
      "name": "transferOwnership",
      "outputs": [],
      "payable": false,
      "stateMutability": "nonpayable",
      "type": "function"
    },
    {
      "constant": true,
      "inputs": [],
      "name": "exitNFTContract",
      "outputs": [
        {
          "name": "",
          "type": "address"
        }
      ],
      "payable": false,
      "stateMutability": "view",
      "type": "function"
    },
    {
      "anonymous": false,
      "inputs": [
        {
          "indexed": true,
          "name": "user",
          "type": "address"
        },
        {
          "indexed": true,
          "name": "token",
          "type": "address"
        },
        {
          "indexed": false,
          "name": "amount",
          "type": "uint256"
        }
      ],
      "name": "Withdraw",
      "type": "event"
    },
    {
      "anonymous": false,
      "inputs": [
        {
          "indexed": true,
          "name": "exitor",
          "type": "address"
        },
        {
          "indexed": true,
          "name": "utxoPos",
          "type": "uint256"
        },
        {
          "indexed": true,
          "name": "token",
          "type": "address"
        },
        {
          "indexed": false,
          "name": "amount",
          "type": "uint256"
        }
      ],
      "name": "ExitStarted",
      "type": "event"
    },
    {
      "anonymous": false,
      "inputs": [
        {
          "indexed": true,
          "name": "previousRootChain",
          "type": "address"
        },
        {
          "indexed": true,
          "name": "newRootChain",
          "type": "address"
        }
      ],
      "name": "RootChainChanged",
      "type": "event"
    },
    {
      "anonymous": false,
      "inputs": [
        {
          "indexed": true,
          "name": "previousOwner",
          "type": "address"
        },
        {
          "indexed": true,
          "name": "newOwner",
          "type": "address"
        }
      ],
      "name": "OwnershipTransferred",
      "type": "event"
    },
    {
      "constant": true,
      "inputs": [
        {
          "name": "_utxoPos",
          "type": "uint256"
        }
      ],
      "name": "getExit",
      "outputs": [
        {
          "name": "",
          "type": "address"
        },
        {
          "name": "",
          "type": "address"
        },
        {
          "name": "",
          "type": "uint256"
        },
        {
          "name": "",
          "type": "bool"
        }
      ],
      "payable": false,
      "stateMutability": "view",
      "type": "function"
    },
    {
      "constant": true,
      "inputs": [
        {
          "name": "_token",
          "type": "address"
        }
      ],
      "name": "getNextExit",
      "outputs": [
        {
          "name": "",
          "type": "uint256"
        },
        {
          "name": "",
          "type": "uint256"
        }
      ],
      "payable": false,
      "stateMutability": "view",
      "type": "function"
    },
    {
      "constant": true,
      "inputs": [
        {
          "name": "_token",
          "type": "address"
        },
        {
          "name": "_owner",
          "type": "address"
        },
        {
          "name": "_tokenId",
          "type": "uint256"
        }
      ],
      "name": "getExitId",
      "outputs": [
        {
          "name": "",
          "type": "uint256"
        }
      ],
      "payable": false,
      "stateMutability": "view",
      "type": "function"
    }
  ],
  "bytecode": "0x6080604081905260008054600160a060020a0319163317808255600160a060020a0316917f8be0079c531659141344cd1fd0a4f28419497f9722a3daafe3b4186f6b6457e0908290a3610790806100576000396000f3006080604052600436106100da5763ffffffff7c01000000000000000000000000000000000000000000000000000000006000350416630941b5ed81146100df578063342de1791461011b5780634b57b0be14610167578063661429c8146101985780636c7ac9d8146101b0578063715018a6146101c55780638bfe0aec146101dc5780638da5cb5b146102165780638f32d59b1461022b578063987ab9db14610254578063d11f045c14610269578063e60f1ff11461028a578063e8afa8e8146102a2578063f2fde38b146102c3578063f6713743146102e4575b600080fd5b3480156100eb57600080fd5b50610109600160a060020a03600435811690602435166044356102f9565b60408051918252519081900360200190f35b34801561012757600080fd5b5061013360043561042b565b60408051600160a060020a039586168152939094166020840152828401919091521515606082015290519081900360800190f35b34801561017357600080fd5b5061017c610464565b60408051600160a060020a039092168252519081900360200190f35b3480156101a457600080fd5b50610109600435610473565b3480156101bc57600080fd5b5061017c610485565b3480156101d157600080fd5b506101da610494565b005b3480156101e857600080fd5b506101fd600160a060020a03600435166104fe565b6040805192835260208301919091528051918290030190f35b34801561022257600080fd5b5061017c6105a5565b34801561023757600080fd5b506102406105b4565b604080519115158252519081900360200190f35b34801561026057600080fd5b5061017c6105c5565b34801561027557600080fd5b5061017c600160a060020a03600435166105d4565b34801561029657600080fd5b506101336004356105ef565b3480156102ae57600080fd5b506101da600160a060020a0360043516610628565b3480156102cf57600080fd5b506101da600160a060020a03600435166106b9565b3480156102f057600080fd5b5061017c6106d8565b600254604080517fdaa09e54000000000000000000000000000000000000000000000000000000008152600160a060020a0386811660048301529151600093929092169163daa09e549160248082019260209290919082900301818787803b15801561036457600080fd5b505af1158015610378573d6000803e3d6000fd5b505050506040513d602081101561038e57600080fd5b5051156103e25750604080516c01000000000000000000000000600160a060020a03808716820283528516026014820152602881018390528151908190036048019020600090815260046020522054610424565b50604080516c01000000000000000000000000600160a060020a0380871682028352851602601482015281519081900360280190206000908152600460205220545b9392505050565b60036020819052600091825260409091208054600182015460028301549290930154600160a060020a0391821693909116919060ff1684565b600754600160a060020a031681565b60046020526000908152604090205481565b600254600160a060020a031681565b61049c6105b4565b15156104a757600080fd5b60008054604051600160a060020a03909116907f8be0079c531659141344cd1fd0a4f28419497f9722a3daafe3b4186f6b6457e0908390a36000805473ffffffffffffffffffffffffffffffffffffffff19169055565b600160a060020a038082166000908152600560205260408082205481517fd6362e9700000000000000000000000000000000000000000000000000000000815282519394859492169263d6362e979260048084019382900301818787803b15801561056857600080fd5b505af115801561057c573d6000803e3d6000fd5b505050506040513d604081101561059257600080fd5b5080516020909101519092509050915091565b600054600160a060020a031690565b600054600160a060020a0316331490565b600154600160a060020a031681565b600560205260009081526040902054600160a060020a031681565b60009081526003602081905260409091208054600182015460028301549290930154600160a060020a0391821694919093169260ff1690565b6106306105b4565b151561063b57600080fd5b600160a060020a038116151561065057600080fd5b600154604051600160a060020a038084169216907f211c9015fc81c0dbd45bd99f0f29fc1c143bfd53442d5ffd722bbbef7a887fe990600090a36001805473ffffffffffffffffffffffffffffffffffffffff1916600160a060020a0392909216919091179055565b6106c16105b4565b15156106cc57600080fd5b6106d5816106e7565b50565b600654600160a060020a031681565b600160a060020a03811615156106fc57600080fd5b60008054604051600160a060020a03808516939216917f8be0079c531659141344cd1fd0a4f28419497f9722a3daafe3b4186f6b6457e091a36000805473ffffffffffffffffffffffffffffffffffffffff1916600160a060020a03929092169190911790555600a165627a7a723058201dae8051166ecc87766404b61b7cd45bfb4f4a4b3559fae8e23302cd7a4796e60029",
  "source": "pragma solidity ^0.4.24;\n\nimport { ERC20 } from \"openzeppelin-solidity/contracts/token/ERC20/ERC20.sol\";\nimport { Math } from \"openzeppelin-solidity/contracts/math/Math.sol\";\n\nimport { RLP } from \"../lib/RLP.sol\";\nimport { Merkle } from \"../lib/Merkle.sol\";\nimport { PriorityQueue } from \"../lib/PriorityQueue.sol\";\nimport { ExitNFT } from \"../token/ExitNFT.sol\";\nimport { WETH } from \"../token/WETH.sol\";\nimport { RootChainable } from \"../mixin/RootChainable.sol\";\n\nimport { IRootChain } from \"./IRootChain.sol\";\nimport { DepositManager } from \"./DepositManager.sol\";\n\n\ncontract ExitManager is RootChainable {\n  using Merkle for bytes32;\n  using RLP for bytes;\n  using RLP for RLP.RLPItem;\n  using RLP for RLP.Iterator;\n\n  //\n  // Storage\n  //\n\n  DepositManager public depositManager;\n\n  // structure for plasma exit\n  struct PlasmaExit {\n    address owner;\n    address token;\n    uint256 amountOrTokenId;\n    bool burnt;\n  }\n\n  // all plasma exits\n  mapping (uint256 => PlasmaExit) public exits;\n\n  // mapping with token => (owner => exitId) keccak(token+owner) keccak(token+owner+tokenId)\n  mapping (bytes32 => uint256) public ownerExits;\n\n\n  // exit queue for each token\n  mapping (address => address) public exitsQueues;\n\n  // exit NFT contract\n  address public exitNFTContract;\n\n  // WETH address\n  address public wethToken;\n\n  //\n  // Events\n  //\n\n  event Withdraw(\n    address indexed user,\n    address indexed token,\n    uint256 amount\n  );\n\n  event ExitStarted(\n    address indexed exitor,\n    uint256 indexed utxoPos,\n    address indexed token,\n    uint256 amount\n  );\n\n  //\n  // Public functions\n  //\n\n  /**\n  * @dev Returns information about an exit.\n  * @param _utxoPos Position of the UTXO in the chain.\n  * @return A tuple representing the active exit for the given UTXO.\n  */\n  function getExit(uint256 _utxoPos)\n    public\n    view\n    returns (address, address, uint256, bool)\n  {\n    return (\n      exits[_utxoPos].owner,\n      exits[_utxoPos].token,\n      exits[_utxoPos].amountOrTokenId,\n      exits[_utxoPos].burnt\n    );\n  }\n\n  /**\n  * @dev Determines the next exit to be processed.\n  * @param _token Asset type to be exited.\n  * @return A tuple of the position and time when this exit can be processed.\n  */\n  function getNextExit(address _token)\n    public\n    view\n    returns (uint256, uint256)\n  {\n    return PriorityQueue(exitsQueues[_token]).getMin();\n  }\n\n  function getExitId(address _token, address _owner, uint256 _tokenId) public view returns (uint256) {\n    if (depositManager.isERC721(_token)) {\n      return ownerExits[keccak256(_token, _owner, _tokenId)];\n    }\n    return ownerExits[keccak256(_token, _owner)];\n  }\n\n  //\n  // Internal functions\n  //\n\n  // Exit NFT\n  function _setExitNFTContract(address _nftContract) internal {\n    require(_nftContract != address(0));\n    exitNFTContract = _nftContract;\n  }\n\n  // set WETH\n  function _setWETHToken(address _token) internal {\n    require(_token != address(0));\n\n    // create weth contract\n    wethToken = _token;\n\n    // weth token queue\n    exitsQueues[_token] = address(new PriorityQueue());\n  }\n\n  // map child token to root token\n  function _mapToken(address _rootToken, address _childToken, bool _isERC721) internal {\n    // create exit queue\n    exitsQueues[_rootToken] = address(new PriorityQueue());\n  }\n\n  // delete exit\n  function _deleteExit(uint256 exitId) internal {\n    ExitNFT exitNFT = ExitNFT(exitNFTContract);\n    address owner = exitNFT.ownerOf(exitId);\n    exitNFT.burn(owner, exitId);\n  }\n\n  /**\n  * @dev Processes any exits that have completed the exit period.\n  */\n  function _processExits(address _token) internal {\n    uint256 exitableAt;\n    uint256 utxoPos;\n\n    // retrieve priority queue\n    PriorityQueue exitQueue = PriorityQueue(exitsQueues[_token]);\n\n    // Iterate while the queue is not empty.\n    while (exitQueue.currentSize() > 0) {\n      (exitableAt, utxoPos) = getNextExit(_token);\n\n      // Check if this exit has finished its challenge period.\n      if (exitableAt > block.timestamp) {\n        return;\n      }\n\n      // get withdraw block\n      PlasmaExit memory currentExit = exits[utxoPos];\n\n      // process if NFT exists\n      // If an exit was successfully challenged, owner would be address(0).\n      address exitOwner = ExitNFT(exitNFTContract).ownerOf(utxoPos);\n      if (exitOwner != address(0)) {\n        // burn NFT first\n        ExitNFT(exitNFTContract).burn(exitOwner, utxoPos);\n\n        // delete current exit if exit was \"burnt\"\n        if (currentExit.burnt) {\n          delete ownerExits[keccak256(_token, currentExit.owner)];\n        }\n\n        IRootChain(rootChain).transferAmount(_token, exitOwner, currentExit.amountOrTokenId);\n\n        // broadcast withdraw events\n        emit Withdraw(exitOwner, _token, currentExit.amountOrTokenId);\n\n        // Delete owner but keep amount to prevent another exit from the same UTXO.\n        // delete exits[utxoPos].owner;\n      }\n\n      // exit queue\n      exitQueue.delMin();\n    }\n  }\n\n  /**\n  * @dev Adds an exit to the exit queue.\n  * @param _exitObject Exit plasma object\n  * @param _utxoPos Position of the UTXO in the child chain (blockNumber, txIndex, oIndex)\n  * @param _createdAt Time when the UTXO was created.\n  */\n  function _addExitToQueue(\n    PlasmaExit _exitObject,\n    uint256 _utxoPos,\n    uint256 _createdAt\n  ) internal {\n    // Check that we're exiting a known token.\n    require(exitsQueues[_exitObject.token] != address(0));\n    bytes32 key;\n    if (depositManager.isERC721(_exitObject.token)) {\n      key = keccak256(_exitObject.token, _exitObject.owner, _exitObject.amountOrTokenId);\n    } else {\n      // validate amount\n      require(_exitObject.amountOrTokenId > 0);\n      key = keccak256(_exitObject.token, _exitObject.owner);\n    }\n    // validate token exit\n    require(ownerExits[key] == 0);\n    uint256 exitableAt = block.timestamp + 5 minutes;\n\n    // Check exit is valid and doesn't already exist.\n    require(exits[_utxoPos].token == address(0x0));\n\n    PriorityQueue queue = PriorityQueue(exitsQueues[_exitObject.token]);\n    queue.insert(exitableAt, _utxoPos);\n\n    // create NFT for exit UTXO\n    ExitNFT(exitNFTContract).mint(_exitObject.owner, _utxoPos);\n    exits[_utxoPos] = _exitObject;\n\n    // set current exit\n    ownerExits[key] = _utxoPos;\n\n    // emit exit started event\n    emit ExitStarted(_exitObject.owner, _utxoPos, _exitObject.token, _exitObject.amountOrTokenId);\n  }\n}\n",
  "sourcePath": "/Users/atvanguard/matic/contracts/contracts/root/ExitManager.sol",
  "compiler": {
    "name": "solc",
    "version": "0.4.24+commit.e67f0147.Emscripten.clang"
  },
  "schemaVersion": "2.0.1",
  "updatedAt": "2019-12-07T09:11:33.326Z"
}