{
  "contractName": "ExitNFT",
  "abi": [
    {
      "constant": true,
      "inputs": [
        {
          "name": "interfaceId",
          "type": "bytes4"
        }
      ],
      "name": "supportsInterface",
      "outputs": [
        {
          "name": "",
          "type": "bool"
        }
      ],
      "payable": false,
      "stateMutability": "view",
      "type": "function"
    },
    {
      "constant": true,
      "inputs": [
        {
          "name": "tokenId",
          "type": "uint256"
        }
      ],
      "name": "getApproved",
      "outputs": [
        {
          "name": "",
          "type": "address"
        }
      ],
      "payable": false,
      "stateMutability": "view",
      "type": "function"
    },
    {
      "constant": false,
      "inputs": [
        {
          "name": "to",
          "type": "address"
        },
        {
          "name": "tokenId",
          "type": "uint256"
        }
      ],
      "name": "approve",
      "outputs": [],
      "payable": false,
      "stateMutability": "nonpayable",
      "type": "function"
    },
    {
      "constant": false,
      "inputs": [
        {
          "name": "from",
          "type": "address"
        },
        {
          "name": "to",
          "type": "address"
        },
        {
          "name": "tokenId",
          "type": "uint256"
        }
      ],
      "name": "transferFrom",
      "outputs": [],
      "payable": false,
      "stateMutability": "nonpayable",
      "type": "function"
    },
    {
      "constant": false,
      "inputs": [
        {
          "name": "from",
          "type": "address"
        },
        {
          "name": "to",
          "type": "address"
        },
        {
          "name": "tokenId",
          "type": "uint256"
        }
      ],
      "name": "safeTransferFrom",
      "outputs": [],
      "payable": false,
      "stateMutability": "nonpayable",
      "type": "function"
    },
    {
      "constant": true,
      "inputs": [
        {
          "name": "tokenId",
          "type": "uint256"
        }
      ],
      "name": "ownerOf",
      "outputs": [
        {
          "name": "",
          "type": "address"
        }
      ],
      "payable": false,
      "stateMutability": "view",
      "type": "function"
    },
    {
      "constant": true,
      "inputs": [
        {
          "name": "owner",
          "type": "address"
        }
      ],
      "name": "balanceOf",
      "outputs": [
        {
          "name": "",
          "type": "uint256"
        }
      ],
      "payable": false,
      "stateMutability": "view",
      "type": "function"
    },
    {
      "constant": false,
      "inputs": [
        {
          "name": "to",
          "type": "address"
        },
        {
          "name": "approved",
          "type": "bool"
        }
      ],
      "name": "setApprovalForAll",
      "outputs": [],
      "payable": false,
      "stateMutability": "nonpayable",
      "type": "function"
    },
    {
      "constant": false,
      "inputs": [
        {
          "name": "from",
          "type": "address"
        },
        {
          "name": "to",
          "type": "address"
        },
        {
          "name": "tokenId",
          "type": "uint256"
        },
        {
          "name": "_data",
          "type": "bytes"
        }
      ],
      "name": "safeTransferFrom",
      "outputs": [],
      "payable": false,
      "stateMutability": "nonpayable",
      "type": "function"
    },
    {
      "constant": true,
      "inputs": [
        {
          "name": "owner",
          "type": "address"
        },
        {
          "name": "operator",
          "type": "address"
        }
      ],
      "name": "isApprovedForAll",
      "outputs": [
        {
          "name": "",
          "type": "bool"
        }
      ],
      "payable": false,
      "stateMutability": "view",
      "type": "function"
    },
    {
      "inputs": [
        {
          "name": "_registry",
          "type": "address"
        }
      ],
      "payable": false,
      "stateMutability": "nonpayable",
      "type": "constructor"
    },
    {
      "anonymous": false,
      "inputs": [
        {
          "indexed": true,
          "name": "from",
          "type": "address"
        },
        {
          "indexed": true,
          "name": "to",
          "type": "address"
        },
        {
          "indexed": true,
          "name": "tokenId",
          "type": "uint256"
        }
      ],
      "name": "Transfer",
      "type": "event"
    },
    {
      "anonymous": false,
      "inputs": [
        {
          "indexed": true,
          "name": "owner",
          "type": "address"
        },
        {
          "indexed": true,
          "name": "approved",
          "type": "address"
        },
        {
          "indexed": true,
          "name": "tokenId",
          "type": "uint256"
        }
      ],
      "name": "Approval",
      "type": "event"
    },
    {
      "anonymous": false,
      "inputs": [
        {
          "indexed": true,
          "name": "owner",
          "type": "address"
        },
        {
          "indexed": true,
          "name": "operator",
          "type": "address"
        },
        {
          "indexed": false,
          "name": "approved",
          "type": "bool"
        }
      ],
      "name": "ApprovalForAll",
      "type": "event"
    },
    {
      "constant": false,
      "inputs": [
        {
          "name": "_owner",
          "type": "address"
        },
        {
          "name": "_tokenId",
          "type": "uint256"
        }
      ],
      "name": "mint",
      "outputs": [],
      "payable": false,
      "stateMutability": "nonpayable",
      "type": "function"
    },
    {
      "constant": false,
      "inputs": [
        {
          "name": "_tokenId",
          "type": "uint256"
        }
      ],
      "name": "burn",
      "outputs": [],
      "payable": false,
      "stateMutability": "nonpayable",
      "type": "function"
    },
    {
      "constant": true,
      "inputs": [
        {
          "name": "tokenId",
          "type": "uint256"
        }
      ],
      "name": "exists",
      "outputs": [
        {
          "name": "",
          "type": "bool"
        }
      ],
      "payable": false,
      "stateMutability": "view",
      "type": "function"
    }
  ],
  "bytecode": "0x608060405234801561001057600080fd5b50604051602080610da78339810180604052602081101561003057600080fd5b50516100627f01ffc9a70000000000000000000000000000000000000000000000000000000061009d602090811b901c565b6100786380ac58cd60e01b61009d60201b60201c565b600580546001600160a01b0319166001600160a01b0392909216919091179055610109565b7fffffffff0000000000000000000000000000000000000000000000000000000080821614156100cc57600080fd5b7fffffffff00000000000000000000000000000000000000000000000000000000166000908152602081905260409020805460ff19166001179055565b610c8f806101186000396000f3fe608060405234801561001057600080fd5b50600436106100cf5760003560e01c806342966c681161008c57806370a082311161006657806370a0823114610265578063a22cb4651461029d578063b88d4fde146102cb578063e985e9c514610391576100cf565b806342966c681461020e5780634f558e791461022b5780636352211e14610248576100cf565b806301ffc9a7146100d4578063081812fc1461010f578063095ea7b31461014857806323b872dd1461017657806340c10f19146101ac57806342842e0e146101d8575b600080fd5b6100fb600480360360208110156100ea57600080fd5b50356001600160e01b0319166103bf565b604080519115158252519081900360200190f35b61012c6004803603602081101561012557600080fd5b50356103de565b604080516001600160a01b039092168252519081900360200190f35b6101746004803603604081101561015e57600080fd5b506001600160a01b03813516906020013561040e565b005b6101746004803603606081101561018c57600080fd5b506001600160a01b038135811691602081013590911690604001356104bb565b610174600480360360408110156101c257600080fd5b506001600160a01b0381351690602001356104de565b610174600480360360608110156101ee57600080fd5b506001600160a01b038135811691602081013590911690604001356105af565b6101746004803603602081101561022457600080fd5b50356105ca565b6100fb6004803603602081101561024157600080fd5b5035610699565b61012c6004803603602081101561025e57600080fd5b50356106aa565b61028b6004803603602081101561027b57600080fd5b50356001600160a01b03166106cc565b60408051918252519081900360200190f35b610174600480360360408110156102b357600080fd5b506001600160a01b0381351690602001351515610702565b610174600480360360808110156102e157600080fd5b6001600160a01b0382358116926020810135909116916040820135919081019060808101606082013564010000000081111561031c57600080fd5b82018360208201111561032e57600080fd5b8035906020019184600183028401116401000000008311171561035057600080fd5b91908080601f016020809104026020016040519081016040528093929190818152602001838380828437600092019190915250929550610786945050505050565b6100fb600480360360408110156103a757600080fd5b506001600160a01b03813581169160200135166107ac565b6001600160e01b03191660009081526020819052604090205460ff1690565b60006103e9826107da565b6103f257600080fd5b506000908152600260205260409020546001600160a01b031690565b6000610419826106aa565b9050806001600160a01b0316836001600160a01b0316141561043a57600080fd5b336001600160a01b0382161480610456575061045681336107ac565b61045f57600080fd5b60008281526002602052604080822080546001600160a01b0319166001600160a01b0387811691821790925591518593918516917f8c5be1e5ebec7d5bd14f71427d1e84f3dd0314c0f7b2291e5b200ac8c7c3b92591a4505050565b6104c533826107f7565b6104ce57600080fd5b6104d9838383610856565b505050565b600560009054906101000a90046001600160a01b03166001600160a01b031663930df82e6040518163ffffffff1660e01b815260040160206040518083038186803b15801561052c57600080fd5b505afa158015610540573d6000803e3d6000fd5b505050506040513d602081101561055657600080fd5b50516001600160a01b031633146105a157604051600160e51b62461bcd028152600401808060200182810382526022815260200180610c426022913960400191505060405180910390fd5b6105ab8282610936565b5050565b6104d983838360405180602001604052806000815250610786565b600560009054906101000a90046001600160a01b03166001600160a01b031663930df82e6040518163ffffffff1660e01b815260040160206040518083038186803b15801561061857600080fd5b505afa15801561062c573d6000803e3d6000fd5b505050506040513d602081101561064257600080fd5b50516001600160a01b0316331461068d57604051600160e51b62461bcd028152600401808060200182810382526022815260200180610c426022913960400191505060405180910390fd5b610696816109d7565b50565b60006106a4826107da565b92915050565b6000818152600160205260408120546001600160a01b0316806106a457600080fd5b60006001600160a01b0382166106e157600080fd5b6001600160a01b03821660009081526003602052604090206106a4906109e9565b6001600160a01b03821633141561071857600080fd5b3360008181526004602090815260408083206001600160a01b03871680855290835292819020805460ff1916861515908117909155815190815290519293927f17307eab39ab6107e8899845ad3d59bd9653f200f220920489ca2b5937696c31929181900390910190a35050565b6107918484846104bb565b61079d848484846109ed565b6107a657600080fd5b50505050565b6001600160a01b03918216600090815260046020908152604080832093909416825291909152205460ff1690565b6000908152600160205260409020546001600160a01b0316151590565b600080610803836106aa565b9050806001600160a01b0316846001600160a01b0316148061083e5750836001600160a01b0316610833846103de565b6001600160a01b0316145b8061084e575061084e81856107ac565b949350505050565b826001600160a01b0316610869826106aa565b6001600160a01b03161461087c57600080fd5b6001600160a01b03821661088f57600080fd5b61089881610b26565b6001600160a01b03831660009081526003602052604090206108b990610b61565b6001600160a01b03821660009081526003602052604090206108da90610b78565b60008181526001602052604080822080546001600160a01b0319166001600160a01b0386811691821790925591518493918716917fddf252ad1be2c89b69c2b068fc378daa952ba7f163c4a11628f55a4df523b3ef91a4505050565b6001600160a01b03821661094957600080fd5b610952816107da565b1561095c57600080fd5b600081815260016020908152604080832080546001600160a01b0319166001600160a01b03871690811790915583526003909152902061099b90610b78565b60405181906001600160a01b038416906000907fddf252ad1be2c89b69c2b068fc378daa952ba7f163c4a11628f55a4df523b3ef908290a45050565b6106966109e3826106aa565b82610b81565b5490565b6000610a01846001600160a01b0316610c26565b610a0d5750600161084e565b604051600160e11b630a85bd0102815233600482018181526001600160a01b03888116602485015260448401879052608060648501908152865160848601528651600095928a169463150b7a029490938c938b938b939260a4019060208501908083838e5b83811015610a8a578181015183820152602001610a72565b50505050905090810190601f168015610ab75780820380516001836020036101000a031916815260200191505b5095505050505050602060405180830381600087803b158015610ad957600080fd5b505af1158015610aed573d6000803e3d6000fd5b505050506040513d6020811015610b0357600080fd5b50516001600160e01b031916600160e11b630a85bd010214915050949350505050565b6000818152600260205260409020546001600160a01b03161561069657600090815260026020526040902080546001600160a01b0319169055565b8054610b7490600163ffffffff610c2c16565b9055565b80546001019055565b816001600160a01b0316610b94826106aa565b6001600160a01b031614610ba757600080fd5b610bb081610b26565b6001600160a01b0382166000908152600360205260409020610bd190610b61565b60008181526001602052604080822080546001600160a01b0319169055518291906001600160a01b038516907fddf252ad1be2c89b69c2b068fc378daa952ba7f163c4a11628f55a4df523b3ef908390a45050565b3b151590565b600082821115610c3b57600080fd5b5090039056fe554e415554484f52495a45445f57495448445241575f4d414e414745525f4f4e4c59a165627a7a7230582060a40eecf8232851a02ef654b31c653b8616d555b2484ada2a50cb210622cbad0029",
  "source": "pragma solidity ^0.5.2;\n\nimport { ERC721 } from \"openzeppelin-solidity/contracts/token/ERC721/ERC721.sol\";\nimport { Registry } from \"../../common/Registry.sol\";\n\n\ncontract ExitNFT is ERC721 {\n  Registry internal registry;\n\n  modifier onlyWithdrawManager() {\n    require(\n      msg.sender == registry.getWithdrawManagerAddress(),\n      \"UNAUTHORIZED_WITHDRAW_MANAGER_ONLY\"\n    );\n    _;\n  }\n\n  constructor(address _registry)\n    public\n  {\n    registry = Registry(_registry);\n  }\n\n  function mint(address _owner, uint256 _tokenId) external onlyWithdrawManager {\n    _mint(_owner, _tokenId);\n  }\n\n  function burn(uint256 _tokenId) external onlyWithdrawManager {\n    _burn(_tokenId);\n  }\n\n  function exists(uint256 tokenId) public view returns (bool) {\n    return _exists(tokenId);\n  }\n}\n",
  "sourcePath": "/Users/arpit/projects/contracts/contracts/root/withdrawManager/ExitNFT.sol",
  "compiler": {
    "name": "solc",
    "version": "0.5.7+commit.6da8b019.Emscripten.clang"
  },
  "schemaVersion": "3.0.14",
  "updatedAt": "2019-11-13T10:42:44.621Z",
  "devdoc": {
    "methods": {
      "approve(address,uint256)": {
        "details": "Approves another address to transfer the given token ID The zero address indicates there is no approved address. There can only be one approved address per token at a given time. Can only be called by the token owner or an approved operator.",
        "params": {
          "to": "address to be approved for the given token ID",
          "tokenId": "uint256 ID of the token to be approved"
        }
      },
      "balanceOf(address)": {
        "details": "Gets the balance of the specified address",
        "params": {
          "owner": "address to query the balance of"
        },
        "return": "uint256 representing the amount owned by the passed address"
      },
      "getApproved(uint256)": {
        "details": "Gets the approved address for a token ID, or zero if no address set Reverts if the token ID does not exist.",
        "params": {
          "tokenId": "uint256 ID of the token to query the approval of"
        },
        "return": "address currently approved for the given token ID"
      },
      "isApprovedForAll(address,address)": {
        "details": "Tells whether an operator is approved by a given owner",
        "params": {
          "operator": "operator address which you want to query the approval of",
          "owner": "owner address which you want to query the approval of"
        },
        "return": "bool whether the given operator is approved by the given owner"
      },
      "ownerOf(uint256)": {
        "details": "Gets the owner of the specified token ID",
        "params": {
          "tokenId": "uint256 ID of the token to query the owner of"
        },
        "return": "address currently marked as the owner of the given token ID"
      },
      "safeTransferFrom(address,address,uint256)": {
        "details": "Safely transfers the ownership of a given token ID to another address If the target address is a contract, it must implement `onERC721Received`, which is called upon a safe transfer, and return the magic value `bytes4(keccak256(\"onERC721Received(address,address,uint256,bytes)\"))`; otherwise, the transfer is reverted. Requires the msg.sender to be the owner, approved, or operator",
        "params": {
          "from": "current owner of the token",
          "to": "address to receive the ownership of the given token ID",
          "tokenId": "uint256 ID of the token to be transferred"
        }
      },
      "safeTransferFrom(address,address,uint256,bytes)": {
        "details": "Safely transfers the ownership of a given token ID to another address If the target address is a contract, it must implement `onERC721Received`, which is called upon a safe transfer, and return the magic value `bytes4(keccak256(\"onERC721Received(address,address,uint256,bytes)\"))`; otherwise, the transfer is reverted. Requires the msg.sender to be the owner, approved, or operator",
        "params": {
          "_data": "bytes data to send along with a safe transfer check",
          "from": "current owner of the token",
          "to": "address to receive the ownership of the given token ID",
          "tokenId": "uint256 ID of the token to be transferred"
        }
      },
      "setApprovalForAll(address,bool)": {
        "details": "Sets or unsets the approval of a given operator An operator is allowed to transfer all tokens of the sender on their behalf",
        "params": {
          "approved": "representing the status of the approval to be set",
          "to": "operator address to set the approval"
        }
      },
      "supportsInterface(bytes4)": {
        "details": "implement supportsInterface(bytes4) using a lookup table"
      },
      "transferFrom(address,address,uint256)": {
        "details": "Transfers the ownership of a given token ID to another address Usage of this method is discouraged, use `safeTransferFrom` whenever possible Requires the msg.sender to be the owner, approved, or operator",
        "params": {
          "from": "current owner of the token",
          "to": "address to receive the ownership of the given token ID",
          "tokenId": "uint256 ID of the token to be transferred"
        }
      }
    }
  },
  "userdoc": {
    "methods": {}
  }
}