{
  "contractName": "ExitValidator",
  "abi": [
    {
      "constant": true,
      "inputs": [
        {
          "name": "headerNumber",
          "type": "uint256"
        },
        {
          "name": "headerProof",
          "type": "bytes"
        },
        {
          "name": "blockNumber",
          "type": "uint256"
        },
        {
          "name": "blockTime",
          "type": "uint256"
        },
        {
          "name": "txRoot",
          "type": "bytes32"
        },
        {
          "name": "receiptRoot",
          "type": "bytes32"
        },
        {
          "name": "path",
          "type": "bytes"
        },
        {
          "name": "txBytes",
          "type": "bytes"
        },
        {
          "name": "txProof",
          "type": "bytes"
        }
      ],
      "name": "validateTxExistence",
      "outputs": [
        {
          "name": "",
          "type": "bool"
        }
      ],
      "payable": false,
      "stateMutability": "view",
      "type": "function"
    },
    {
      "constant": false,
      "inputs": [
        {
          "name": "_withdrawManager",
          "type": "address"
        }
      ],
      "name": "setWithdrawManager",
      "outputs": [],
      "payable": false,
      "stateMutability": "nonpayable",
      "type": "function"
    },
    {
      "constant": false,
      "inputs": [
        {
          "name": "_depositManager",
          "type": "address"
        }
      ],
      "name": "setDepositManager",
      "outputs": [],
      "payable": false,
      "stateMutability": "nonpayable",
      "type": "function"
    },
    {
      "constant": true,
      "inputs": [],
      "name": "childChainContract",
      "outputs": [
        {
          "name": "",
          "type": "address"
        }
      ],
      "payable": false,
      "stateMutability": "view",
      "type": "function"
    },
    {
      "constant": true,
      "inputs": [],
      "name": "depositManager",
      "outputs": [
        {
          "name": "",
          "type": "address"
        }
      ],
      "payable": false,
      "stateMutability": "view",
      "type": "function"
    },
    {
      "constant": true,
      "inputs": [
        {
          "name": "headerNumber",
          "type": "uint256"
        },
        {
          "name": "headerProof",
          "type": "bytes"
        },
        {
          "name": "blockNumber",
          "type": "uint256"
        },
        {
          "name": "blockTime",
          "type": "uint256"
        },
        {
          "name": "txRoot",
          "type": "bytes32"
        },
        {
          "name": "receiptRoot",
          "type": "bytes32"
        },
        {
          "name": "path",
          "type": "bytes"
        },
        {
          "name": "txBytes",
          "type": "bytes"
        },
        {
          "name": "txProof",
          "type": "bytes"
        },
        {
          "name": "receiptBytes",
          "type": "bytes"
        },
        {
          "name": "receiptProof",
          "type": "bytes"
        }
      ],
      "name": "validateTx",
      "outputs": [
        {
          "name": "",
          "type": "bool"
        }
      ],
      "payable": false,
      "stateMutability": "view",
      "type": "function"
    },
    {
      "constant": false,
      "inputs": [],
      "name": "renounceOwnership",
      "outputs": [],
      "payable": false,
      "stateMutability": "nonpayable",
      "type": "function"
    },
    {
      "constant": true,
      "inputs": [],
      "name": "owner",
      "outputs": [
        {
          "name": "",
          "type": "address"
        }
      ],
      "payable": false,
      "stateMutability": "view",
      "type": "function"
    },
    {
      "constant": true,
      "inputs": [],
      "name": "isOwner",
      "outputs": [
        {
          "name": "",
          "type": "bool"
        }
      ],
      "payable": false,
      "stateMutability": "view",
      "type": "function"
    },
    {
      "constant": true,
      "inputs": [],
      "name": "rootChain",
      "outputs": [
        {
          "name": "",
          "type": "address"
        }
      ],
      "payable": false,
      "stateMutability": "view",
      "type": "function"
    },
    {
      "constant": false,
      "inputs": [],
      "name": "unlock",
      "outputs": [],
      "payable": false,
      "stateMutability": "nonpayable",
      "type": "function"
    },
    {
      "constant": true,
      "inputs": [],
      "name": "locked",
      "outputs": [
        {
          "name": "",
          "type": "bool"
        }
      ],
      "payable": false,
      "stateMutability": "view",
      "type": "function"
    },
    {
      "constant": true,
      "inputs": [
        {
          "name": "headerNumber",
          "type": "uint256"
        },
        {
          "name": "headerProof",
          "type": "bytes"
        },
        {
          "name": "blockNumber",
          "type": "uint256"
        },
        {
          "name": "blockTime",
          "type": "uint256"
        },
        {
          "name": "txRoot",
          "type": "bytes32"
        },
        {
          "name": "receiptRoot",
          "type": "bytes32"
        },
        {
          "name": "path",
          "type": "bytes"
        },
        {
          "name": "txBytes",
          "type": "bytes"
        },
        {
          "name": "txProof",
          "type": "bytes"
        },
        {
          "name": "receiptBytes",
          "type": "bytes"
        },
        {
          "name": "receiptProof",
          "type": "bytes"
        }
      ],
      "name": "validateTxReceiptExistence",
      "outputs": [
        {
          "name": "",
          "type": "bool"
        }
      ],
      "payable": false,
      "stateMutability": "view",
      "type": "function"
    },
    {
      "constant": false,
      "inputs": [
        {
          "name": "newRootChain",
          "type": "address"
        }
      ],
      "name": "changeRootChain",
      "outputs": [],
      "payable": false,
      "stateMutability": "nonpayable",
      "type": "function"
    },
    {
      "constant": true,
      "inputs": [],
      "name": "withdrawManager",
      "outputs": [
        {
          "name": "",
          "type": "address"
        }
      ],
      "payable": false,
      "stateMutability": "view",
      "type": "function"
    },
    {
      "constant": false,
      "inputs": [
        {
          "name": "newOwner",
          "type": "address"
        }
      ],
      "name": "transferOwnership",
      "outputs": [],
      "payable": false,
      "stateMutability": "nonpayable",
      "type": "function"
    },
    {
      "constant": false,
      "inputs": [
        {
          "name": "_childChainContract",
          "type": "address"
        }
      ],
      "name": "setChildChainContract",
      "outputs": [],
      "payable": false,
      "stateMutability": "nonpayable",
      "type": "function"
    },
    {
      "constant": false,
      "inputs": [],
      "name": "lock",
      "outputs": [],
      "payable": false,
      "stateMutability": "nonpayable",
      "type": "function"
    },
    {
      "anonymous": false,
      "inputs": [
        {
          "indexed": true,
          "name": "previousRootChain",
          "type": "address"
        },
        {
          "indexed": true,
          "name": "newRootChain",
          "type": "address"
        }
      ],
      "name": "RootChainChanged",
      "type": "event"
    },
    {
      "anonymous": false,
      "inputs": [
        {
          "indexed": true,
          "name": "previousOwner",
          "type": "address"
        },
        {
          "indexed": true,
          "name": "newOwner",
          "type": "address"
        }
      ],
      "name": "OwnershipTransferred",
      "type": "event"
    },
    {
      "constant": false,
      "inputs": [
        {
          "name": "exitId",
          "type": "uint256"
        },
        {
          "name": "headerNumber",
          "type": "uint256"
        },
        {
          "name": "headerProof",
          "type": "bytes"
        },
        {
          "name": "blockNumber",
          "type": "uint256"
        },
        {
          "name": "blockTime",
          "type": "uint256"
        },
        {
          "name": "txRoot",
          "type": "bytes32"
        },
        {
          "name": "receiptRoot",
          "type": "bytes32"
        },
        {
          "name": "path",
          "type": "bytes"
        },
        {
          "name": "txBytes",
          "type": "bytes"
        },
        {
          "name": "txProof",
          "type": "bytes"
        }
      ],
      "name": "challengeExit",
      "outputs": [],
      "payable": false,
      "stateMutability": "nonpayable",
      "type": "function"
    }
  ],
  "bytecode": "0x6080604081905260008054600160a060020a0319163317808255600160a060020a0316917f8be0079c531659141344cd1fd0a4f28419497f9722a3daafe3b4186f6b6457e0908290a36121c6806100576000396000f3006080604052600436106100ed5763ffffffff60e060020a6000350416630b3fa78c81146100f257806317e3e2e814610236578063228d71a914610259578063242fbb041461027a5780635b4fe910146102ab5780636c7ac9d8146103dd5780636d4babac146103f2578063715018a61461059e5780638da5cb5b146105b35780638f32d59b146105c8578063987ab9db146105dd578063a69df4b5146105f2578063cf30901214610607578063d9bcb3351461061c578063e8afa8e8146107c8578063ec3e9da5146107e9578063f2fde38b146107fe578063f3b57e611461081f578063f83d08ba14610840575b600080fd5b3480156100fe57600080fd5b5060408051602060046024803582810135601f810185900485028601850190965285855261022295833595369560449491939091019190819084018382808284375050604080516020601f60808a01358b0180359182018390048302840183018552818452989b8a359b838c01359b958601359a60608701359a50919850965060a09094019450919281019190819084018382808284375050604080516020601f89358b018035918201839004830284018301909452808352979a99988101979196509182019450925082915084018382808284375050604080516020601f89358b018035918201839004830284018301909452808352979a9998810197919650918201945092508291508401838280828437509497506108559650505050505050565b604080519115158252519081900360200190f35b34801561024257600080fd5b50610257600160a060020a0360043516610c49565b005b34801561026557600080fd5b50610257600160a060020a0360043516610ca0565b34801561028657600080fd5b5061028f610cf7565b60408051600160a060020a039092168252519081900360200190f35b3480156102b757600080fd5b50604080516020600460443581810135601f810184900484028501840190955284845261025794823594602480359536959460649492019190819084018382808284375050604080516020601f60808a01358b0180359182018390048302840183018552818452989b8a359b838c01359b958601359a60608701359a50919850965060a09094019450919281019190819084018382808284375050604080516020601f89358b018035918201839004830284018301909452808352979a99988101979196509182019450925082915084018382808284375050604080516020601f89358b018035918201839004830284018301909452808352979a999881019791965091820194509250829150840183828082843750949750610d069650505050505050565b3480156103e957600080fd5b5061028f610e32565b3480156103fe57600080fd5b5060408051602060046024803582810135601f810185900485028601850190965285855261022295833595369560449491939091019190819084018382808284375050604080516020601f60808a01358b0180359182018390048302840183018552818452989b8a359b838c01359b958601359a60608701359a50919850965060a09094019450919281019190819084018382808284375050604080516020601f89358b018035918201839004830284018301909452808352979a99988101979196509182019450925082915084018382808284375050604080516020601f89358b018035918201839004830284018301909452808352979a99988101979196509182019450925082915084018382808284375050604080516020601f89358b018035918201839004830284018301909452808352979a99988101979196509182019450925082915084018382808284375050604080516020601f89358b018035918201839004830284018301909452808352979a999881019791965091820194509250829150840183828082843750949750610e419650505050505050565b3480156105aa57600080fd5b5061025761101f565b3480156105bf57600080fd5b5061028f611089565b3480156105d457600080fd5b50610222611098565b3480156105e957600080fd5b5061028f6110a9565b3480156105fe57600080fd5b506102576110b8565b34801561061357600080fd5b506102226110eb565b34801561062857600080fd5b5060408051602060046024803582810135601f810185900485028601850190965285855261022295833595369560449491939091019190819084018382808284375050604080516020601f60808a01358b0180359182018390048302840183018552818452989b8a359b838c01359b958601359a60608701359a50919850965060a09094019450919281019190819084018382808284375050604080516020601f89358b018035918201839004830284018301909452808352979a99988101979196509182019450925082915084018382808284375050604080516020601f89358b018035918201839004830284018301909452808352979a99988101979196509182019450925082915084018382808284375050604080516020601f89358b018035918201839004830284018301909452808352979a99988101979196509182019450925082915084018382808284375050604080516020601f89358b018035918201839004830284018301909452808352979a99988101979196509182019450925082915084018382808284375094975061110c9650505050505050565b3480156107d457600080fd5b50610257600160a060020a03600435166111a8565b3480156107f557600080fd5b5061028f611239565b34801561080a57600080fd5b50610257600160a060020a0360043516611248565b34801561082b57600080fd5b50610257600160a060020a0360043516611267565b34801561084c57600080fd5b506102576112be565b600154604080517f61bbd461000000000000000000000000000000000000000000000000000000008152600481018c9052905160009283928392600160a060020a03909216916361bbd4619160248082019260809290919082900301818787803b1580156108c257600080fd5b505af11580156108d6573d6000803e3d6000fd5b505050506040513d60808110156108ec57600080fd5b8101908080519060200190929190805190602001909291908051906020019092919080519060200190929190505050905050809250819350505089898989604051808581526020018481526020018360001916600019168152602001826000191660001916815260200194505050505060405180910390206000191673__Merkle________________________________636c8f455c9091838d03858f6040518563ffffffff1660e060020a028152600401808560001916600019168152602001848152602001836000191660001916815260200180602001828103825283818151815260200191508051906020019080838360005b838110156109fa5781810151838201526020016109e2565b50505050905090810190601f168015610a275780820380516001836020036101000a031916815260200191505b509550505050505060206040518083038186803b158015610a4757600080fd5b505af4158015610a5b573d6000803e3d6000fd5b505050506040513d6020811015610a7157600080fd5b50518015610c39575073__MerklePatriciaProof___________________6379d1d4fa8688878c6040518563ffffffff1660e060020a028152600401808060200180602001806020018560001916600019168152602001848103845288818151815260200191508051906020019080838360005b83811015610afd578181015183820152602001610ae5565b50505050905090810190601f168015610b2a5780820380516001836020036101000a031916815260200191505b50848103835287518152875160209182019189019080838360005b83811015610b5d578181015183820152602001610b45565b50505050905090810190601f168015610b8a5780820380516001836020036101000a031916815260200191505b50848103825286518152865160209182019188019080838360005b83811015610bbd578181015183820152602001610ba5565b50505050905090810190601f168015610bea5780820380516001836020036101000a031916815260200191505b5097505050505050505060206040518083038186803b158015610c0c57600080fd5b505af4158015610c20573d6000803e3d6000fd5b505050506040513d6020811015610c3657600080fd5b50515b9c9b505050505050505050505050565b610c51611098565b1515610c5c57600080fd5b600160a060020a0381161515610c7157600080fd5b6003805473ffffffffffffffffffffffffffffffffffffffff1916600160a060020a0392909216919091179055565b610ca8611098565b1515610cb357600080fd5b600160a060020a0381161515610cc857600080fd5b6002805473ffffffffffffffffffffffffffffffffffffffff1916600160a060020a0392909216919091179055565b600454600160a060020a031681565b600080610d128c611308565b9150610d258b8b8b8b8b8b8b8b8b610855565b1515610d3057600080fd5b81600160a060020a0316610d43856113ed565b600160a060020a031614610d5657600080fd5b610d77610d72610d6d610d6888611416565b611469565b611416565b6114cb565b620186a0028964e8d4a51000028c6c0c9f2c9cd04674edea4000000002010190508b81111515610da657600080fd5b600154604080517f50c30308000000000000000000000000000000000000000000000000000000008152600481018f90529051600160a060020a03909216916350c303089160248082019260009290919082900301818387803b158015610e0c57600080fd5b505af1158015610e20573d6000803e3d6000fd5b50505050505050505050505050505050565b600254600160a060020a031681565b6000610e4b612162565b60606000610e628f8f8f8f8f8f8f8f8f8f8f61110c565b1580610e6d57508751155b80610e7757508551155b15610e85576000935061100d565b610e8e88611416565b9250610e9983611514565b1580610eaf5750610ea98361153e565b51600914155b15610ebd576000935061100d565b610ec686611416565b9250610ed183611514565b1515610ee0576000935061100d565b610ee98361153e565b915081516004141580610f1a5750610f18826003815181101515610f0957fe5b90602001906020020151611514565b155b15610f28576000935061100d565b610f49826003815181101515610f3a57fe5b9060200190602002015161153e565b9150600082511115611008575060005b81518160ff16101561100857610f79828260ff16815181101515610f0957fe5b1580610f9957506002610f96838360ff16815181101515610f3a57fe5b51105b80610fc55750610fc3610fb6838360ff16815181101515610f3a57fe5b80516001908110610f0957fe5b155b80610ff25750610fef610fe2838360ff16815181101515610f3a57fe5b80516001908110610f3a57fe5b51155b15611000576000935061100d565b600101610f59565b600193505b5050509b9a5050505050505050505050565b611027611098565b151561103257600080fd5b60008054604051600160a060020a03909116907f8be0079c531659141344cd1fd0a4f28419497f9722a3daafe3b4186f6b6457e0908390a36000805473ffffffffffffffffffffffffffffffffffffffff19169055565b600054600160a060020a031690565b600054600160a060020a0316331490565b600154600160a060020a031681565b6110c0611098565b15156110cb57600080fd5b6001805474ff000000000000000000000000000000000000000019169055565b60015474010000000000000000000000000000000000000000900460ff1681565b600061111f8c8c8c8c8c8c8c8c8c610855565b8015610c39575073__MerklePatriciaProof___________________6379d1d4fa8488858b6040518563ffffffff1660e060020a0281526004018080602001806020018060200185600019166000191681526020018481038452888181518152602001915080519060200190808383600083811015610afd578181015183820152602001610ae5565b6111b0611098565b15156111bb57600080fd5b600160a060020a03811615156111d057600080fd5b600154604051600160a060020a038084169216907f211c9015fc81c0dbd45bd99f0f29fc1c143bfd53442d5ffd722bbbef7a887fe990600090a36001805473ffffffffffffffffffffffffffffffffffffffff1916600160a060020a0392909216919091179055565b600354600160a060020a031681565b611250611098565b151561125b57600080fd5b611264816115eb565b50565b61126f611098565b151561127a57600080fd5b600160a060020a038116151561128f57600080fd5b6004805473ffffffffffffffffffffffffffffffffffffffff1916600160a060020a0392909216919091179055565b6112c6611098565b15156112d157600080fd5b6001805474ff0000000000000000000000000000000000000000191674010000000000000000000000000000000000000000179055565b600354604080517fe60f1ff1000000000000000000000000000000000000000000000000000000008152600481018490529051600092839283928392600160a060020a03169163e60f1ff191602480830192608092919082900301818787803b15801561137457600080fd5b505af1158015611388573d6000803e3d6000fd5b505050506040513d608081101561139e57600080fd5b50805160408201516060909201519094509092509050801580156113c25750600082115b80156113d65750600160a060020a03831615155b15156113e157600080fd5b8293505b505050919050565b600060606114026113fd84611416565b61153e565b905061140d81611668565b91505b50919050565b61141e612162565b815160008115156114445760408051808201909152600080825260208201529250611462565b60208401905060408051908101604052808281526020018381525092505b5050919050565b606060008061147784611b6c565b151561148257600080fd5b61148b84611b95565b91509150806040519080825280601f01601f1916602001820160405280156114bd578160200160208202803883390190505b509250611462828483611c12565b60008060006114d984611b6c565b15156114e457600080fd5b6114ed84611b95565b9092509050602081111561150057600080fd5b806020036101000a82510492505050919050565b60008082602001516000141561152d5760009150611410565b5050515160c060009190911a101590565b6060600061154a612179565b600061155585611514565b151561156057600080fd5b61156985611c52565b9250826040519080825280602002602001820160405280156115a557816020015b611592612162565b81526020019060019003908161158a5790505b5093506115b185611cc2565b91505b6115bd82611cfb565b156113e5576115cb82611d1a565b84828151811015156115d957fe5b602090810290910101526001016115b4565b600160a060020a038116151561160057600080fd5b60008054604051600160a060020a03808516939216917f8be0079c531659141344cd1fd0a4f28419497f9722a3daafe3b4186f6b6457e091a36000805473ffffffffffffffffffffffffffffffffffffffff1916600160a060020a0392909216919091179055565b60408051600980825261014082019092526000916060918391816020015b6060815260200190600190039081611686579050509150600090505b600560ff8216116116f3576116d0848260ff168151811015156116c157fe5b90602001906020020151611469565b828260ff168151811015156116e157fe5b602090810290910101526001016116a2565b60408051602081019091526000815282518390600490811061171157fe5b60209081029091010152600154604080517f9025e64c0000000000000000000000000000000000000000000000000000000081529051600160a060020a0390921691639025e64c9160048082019260009290919082900301818387803b15801561177a57600080fd5b505af115801561178e573d6000803e3d6000fd5b505050506040513d6000823e601f3d908101601f1916820160405260208110156117b757600080fd5b8101908080516401000000008111156117cf57600080fd5b820160208101848111156117e257600080fd5b81516401000000008111828201871017156117fc57600080fd5b5050855190935085925060069150811061181257fe5b90602001906020020181905250602060405190810160405280600081525082600781518110151561183f57fe5b90602001906020020181905250602060405190810160405280600081525082600881518110151561186c57fe5b60209081029091010152600161188183611d5c565b6040518082805190602001908083835b602083106118b05780518252601f199092019160209182019101611891565b6001836020036101000a038019825116818451168082178552505050505050905001915050604051809103902073__Common________________________________63261737b26119098860068151811015156116c157fe5b73__Common________________________________637ae93b1988600681518110151561193257fe5b906020019060200201516040518263ffffffff1660e060020a0281526004018080602001828103825283818151815260200191508051906020019080838360005b8381101561198b578181015183820152602001611973565b50505050905090810190601f1680156119b85780820380516001836020036101000a031916815260200191505b509250505060206040518083038186803b1580156119d557600080fd5b505af41580156119e9573d6000803e3d6000fd5b505050506040513d60208110156119ff57600080fd5b50516040805160e060020a63ffffffff861602815260ff8316602482015260048101918252835160448201528351829160640190602086019080838360005b83811015611a56578181015183820152602001611a3e565b50505050905090810190601f168015611a835780820380516001836020036101000a031916815260200191505b50935050505060206040518083038186803b158015611aa157600080fd5b505af4158015611ab5573d6000803e3d6000fd5b505050506040513d6020811015611acb57600080fd5b50518651611aef9088906007908110611ae057fe5b90602001906020020151611dbb565b611b01886008815181101515611ae057fe5b60408051600080825260208083018085529790975260ff90951681830152606081019390935260808301919091525160a08083019493601f198301938390039091019190865af1158015611b59573d6000803e3d6000fd5b5050604051601f19015195945050505050565b600080826020015160001415611b855760009150611410565b5050515160c060009190911a1090565b6000806000806000611ba686611b6c565b1515611bb157600080fd5b8551805160001a935091506080831015611bd15781945060019350611c0a565b60b8831015611bef5760018660200151039350816001019450611c0a565b60b78303905080600187602001510303935080820160010194505b505050915091565b60006020601f83010484602085015b828414611c3f57602084028281015190820152600190930192611c21565b6000865160200187015250505050505050565b600080600080600080611c6487611514565b1515611c735760009550611cb8565b8651805160001a95509350611c8787611dcc565b840192506001876020015185010391505b818311611cb457611ca883611e4c565b90920191600101611c98565b8095505b5050505050919050565b611cca612179565b6000611cd583611514565b1515611ce057600080fd5b611ce983611dcc565b83519383529092016020820152919050565b6000611d05612162565b50508051602080820151915192015191011190565b611d22612162565b600080611d2e84611cfb565b156100ed5783602001519150611d4382611e4c565b8284526020808501829052838201908601529050611462565b60608060005b8351811015611d9e57611d9482611d8f8684815181101515611d8057fe5b90602001906020020151611ed9565b611f54565b9150600101611d62565b611db3611dad835160c0611fcf565b83611f54565b949350505050565b6000611dc6826114cb565b92915050565b6000806000836020015160001415611de75760009250611462565b50508151805160001a906080821015611e035760009250611462565b60b8821080611e1e575060c08210158015611e1e575060f882105b15611e2c5760019250611462565b60c0821015611e415760b51982019250611462565b5060f5190192915050565b8051600090811a6080811015611e655760019150611410565b60b8811015611e7a57607e1981019150611410565b60c0811015611ea357600183015160b76020839003016101000a9004810160b519019150611410565b60f8811015611eb85760be1981019150611410565b6001929092015160f76020849003016101000a900490910160f51901919050565b60608082516001148015611f0c57506080836000815181101515611ef957fe5b016020015160f860020a90819004810204105b15611f3857604080516001808252818301909252906020808301908038833950859350611dc692505050565b611f4d611f4784516080611fcf565b84611f54565b9392505050565b6060806040519050835180825260208201818101602087015b81831015611f85578051835260209283019201611f6d565b50855184518101855292509050808201602086015b81831015611fb2578051835260209283019201611f9a565b509551919091011594909401601f01601f19166040529392505050565b606080600080606080603888101561205157604080516001808252818301909252906020808301908038833901905050945086880160f860020a0285600081518110151561201957fe5b9060200101907effffffffffffffffffffffffffffffffffffffffffffffffffffffffffffff1916908160001a9053508495506120a2565b600192505b828881151561206157fe5b041561207a576001909301926101009290920291612056565b6120888488603701016120ad565b9150612093886120ad565b905061209f8282611f54565b95505b505050505092915050565b60606001600060ff8411156120c157600291505b816040519080825280601f01601f1916602001820160405280156120ef578160200160208202803883390190505b509250600090505b818110156114625780600183030360080260020a8481151561211557fe5b0460f860020a02838281518110151561212a57fe5b9060200101907effffffffffffffffffffffffffffffffffffffffffffffffffffffffffffff1916908160001a9053506001016120f7565b604080518082019091526000808252602082015290565b60606040519081016040528061218d612162565b81526020016000815250905600a165627a7a723058208fd2720e2361adfa1fcfc70d6ebb4cf5d3bb35070966b48566244f301cd5bd2d0029",
  "source": "pragma solidity ^0.4.24;\n\nimport { RootChainValidator } from \"../mixin/RootChainValidator.sol\";\nimport { RootChain } from \"../root/RootChain.sol\";\n\n\ncontract ExitValidator is RootChainValidator {\n  // challenge exit\n  function challengeExit(\n    uint256 exitId,\n\n    uint256 headerNumber,\n    bytes headerProof,\n\n    uint256 blockNumber,\n    uint256 blockTime,\n    bytes32 txRoot,\n    bytes32 receiptRoot,\n    bytes path,\n\n    bytes txBytes,\n    bytes txProof\n  ) public {\n    // validate exit id and get owner\n    address owner = validateExitId(exitId);\n\n    // validate tx\n    require(\n      validateTxExistence(\n        headerNumber,\n        headerProof,\n\n        blockNumber,\n        blockTime,\n        txRoot,\n        receiptRoot,\n        path,\n\n        txBytes,\n        txProof\n      )\n    );\n\n    // check if owner is same\n    require(getTxSender(txBytes) == owner);\n\n    // check if tx happened after exit\n    uint256 exitId2 = (\n      headerNumber * 1000000000000000000000000000000 +\n      blockNumber * 1000000000000 +\n      path.toRLPItem().toData().toRLPItem().toUint() * 100000\n    );\n\n    // check if second transaction is after exiting tx\n    require(exitId2 > exitId);\n\n    // burn nft without transferring money\n    RootChain(rootChain).deleteExit(exitId);\n  }\n\n  //\n  // Internal methods\n  //\n\n  function validateExitId(uint256 exitId) internal view returns (address) {\n    address owner;\n    uint256 amount;\n    bool burnt;\n    (owner,,amount, burnt) = withdrawManager.getExit(exitId);\n\n    // check if already burnt\n    require(burnt == false && amount > 0 && owner != address(0));\n\n    // return owner\n    return owner;\n  }\n}\n",
  "sourcePath": "/Users/atvanguard/matic/contracts/contracts/proofs/ExitValidator.sol",
  "compiler": {
    "name": "solc",
    "version": "0.4.24+commit.e67f0147.Emscripten.clang"
  },
  "schemaVersion": "2.0.1",
  "updatedAt": "2019-12-07T09:11:33.321Z"
}