{
  "contractName": "LibEIP712Domain",
  "abi": [
    {
      "constant": true,
      "inputs": [],
      "name": "EIP712_DOMAIN_HASH",
      "outputs": [
        {
          "name": "",
          "type": "bytes32"
        }
      ],
      "payable": false,
      "stateMutability": "view",
      "type": "function"
    },
    {
      "constant": true,
      "inputs": [],
      "name": "EIP712_DOMAIN_SCHEMA_HASH",
      "outputs": [
        {
          "name": "",
          "type": "bytes32"
        }
      ],
      "payable": false,
      "stateMutability": "view",
      "type": "function"
    },
    {
      "inputs": [],
      "payable": false,
      "stateMutability": "nonpayable",
      "type": "constructor"
    }
  ],
  "bytecode": "0x608060405234801561001057600080fd5b506040518060800160405280604981526020016102ed604991396040516020018082805190602001908083835b6020831061005c5780518252601f19909201916020918201910161003d565b51815160209384036101000a60001901801990921691161790526040805192909401828103601f190183528085528251928201929092208285018552600d83527f4d61746963204e6574776f726b000000000000000000000000000000000000009282019290925283518085018552600181527f3100000000000000000000000000000000000000000000000000000000000000908201528351808201929092527fd26430275d0d30693378daeb558f6ed30c3a48ba5d665f52c16608e1c41b5cd7828501527fc89efdaa54c0f20c7adf612882df0950f5a951637e0307cdcb4c672f298b8bc66060830152613a9960808301523060a0808401919091528451808403909101815260c090920190935280519201919091206000908155610161935083925061018c9150396000f3fe608060405234801561001057600080fd5b50600436106100365760003560e01c8063e306f7791461003b578063e614d0d614610055575b600080fd5b61004361005d565b60408051918252519081900360200190f35b610043610063565b60005481565b6040518060800160405280604981526020016100ed604991396040516020018082805190602001908083835b602083106100ae5780518252601f19909201916020918201910161008f565b6001836020036101000a038019825116818451168082178552505050505050905001915050604051602081830303815290604052805190602001208156fe454950373132446f6d61696e28737472696e67206e616d652c737472696e672076657273696f6e2c75696e7432353620636861696e49642c6164647265737320636f6e747261637429a165627a7a723058206edadd173a694e65248c17f6ccfb42e4b6042534b732b09784300d9ad34bd0770029454950373132446f6d61696e28737472696e67206e616d652c737472696e672076657273696f6e2c75696e7432353620636861696e49642c6164647265737320636f6e747261637429",
  "source": "pragma solidity ^0.5.2;\n\ncontract LibEIP712Domain {\n  string constant internal EIP712_DOMAIN_SCHEMA = \"EIP712Domain(string name,string version,uint256 chainId,address contract)\";\n  bytes32 constant public EIP712_DOMAIN_SCHEMA_HASH = keccak256(abi.encodePacked(EIP712_DOMAIN_SCHEMA));\n\n  string constant internal EIP712_DOMAIN_NAME = \"Matic Network\";\n  string constant internal EIP712_DOMAIN_VERSION = \"1\";\n  uint256 constant internal EIP712_DOMAIN_CHAINID = 15001;\n\n  bytes32 public EIP712_DOMAIN_HASH;\n\n  constructor () public {\n    EIP712_DOMAIN_HASH = keccak256(abi.encode(\n      EIP712_DOMAIN_SCHEMA_HASH,\n      keccak256(bytes(EIP712_DOMAIN_NAME)),\n      keccak256(bytes(EIP712_DOMAIN_VERSION)),\n      EIP712_DOMAIN_CHAINID,\n      address(this)\n    ));\n  }\n\n  function hashEIP712Message(bytes32 hashStruct) internal view returns (bytes32 result) {\n    bytes32 domainHash = EIP712_DOMAIN_HASH;\n\n    // Assembly for more efficient computing:\n    // keccak256(abi.encode(\n    //     EIP191_HEADER,\n    //     domainHash,\n    //     hashStruct\n    // ));\n\n    assembly {\n      // Load free memory pointer\n      let memPtr := mload(64)\n\n      mstore(memPtr, 0x1901000000000000000000000000000000000000000000000000000000000000)  // EIP191 header\n      mstore(add(memPtr, 2), domainHash)                                          // EIP712 domain hash\n      mstore(add(memPtr, 34), hashStruct)                                                 // Hash of struct\n\n      // Compute hash\n      result := keccak256(memPtr, 66)\n    }\n    return result;\n  }\n}\n",
  "sourcePath": "/Users/arpit/projects/contracts/contracts/child/misc/EIP712.sol",
  "compiler": {
    "name": "solc",
    "version": "0.5.7+commit.6da8b019.Emscripten.clang"
  },
  "schemaVersion": "3.0.16",
  "updatedAt": "2019-09-21T10:53:38.837Z",
  "devdoc": {
    "methods": {}
  },
  "userdoc": {
    "methods": {}
  }
}