{
  "contractName": "LibTokenTransferOrder",
  "abi": [
    {
      "constant": true,
      "inputs": [],
      "name": "EIP712_TOKEN_TRANSFER_ORDER_SCHEMA_HASH",
      "outputs": [
        {
          "name": "",
          "type": "bytes32"
        }
      ],
      "payable": false,
      "stateMutability": "view",
      "type": "function"
    },
    {
      "constant": true,
      "inputs": [],
      "name": "EIP712_DOMAIN_HASH",
      "outputs": [
        {
          "name": "",
          "type": "bytes32"
        }
      ],
      "payable": false,
      "stateMutability": "view",
      "type": "function"
    },
    {
      "constant": true,
      "inputs": [],
      "name": "EIP712_DOMAIN_SCHEMA_HASH",
      "outputs": [
        {
          "name": "",
          "type": "bytes32"
        }
      ],
      "payable": false,
      "stateMutability": "view",
      "type": "function"
    },
    {
      "constant": true,
      "inputs": [
        {
          "name": "spender",
          "type": "address"
        },
        {
          "name": "tokenIdOrAmount",
          "type": "uint256"
        },
        {
          "name": "data",
          "type": "bytes32"
        },
        {
          "name": "expiration",
          "type": "uint256"
        }
      ],
      "name": "getTokenTransferOrderHash",
      "outputs": [
        {
          "name": "orderHash",
          "type": "bytes32"
        }
      ],
      "payable": false,
      "stateMutability": "view",
      "type": "function"
    }
  ],
  "bytecode": "0x61010060405260496080818152906104d160a0396040516020018082805190602001908083835b602083106100455780518252601f199092019160209182019101610026565b51815160209384036101000a60001901801990921691161790526040805192909401828103601f190183528085528251928201929092208285018552600d83527f4d61746963204e6574776f726b000000000000000000000000000000000000009282019290925283518085018552600181527f3100000000000000000000000000000000000000000000000000000000000000908201528351808201929092527fd26430275d0d30693378daeb558f6ed30c3a48ba5d665f52c16608e1c41b5cd7828501527fc89efdaa54c0f20c7adf612882df0950f5a951637e0307cdcb4c672f298b8bc66060830152613a9960808301523060a0808401919091528451808403909101815260c09092019093528051920191909120600090815561035c93508392506101759150396000f3fe608060405234801561001057600080fd5b506004361061004c5760003560e01c8063abceeba214610051578063b789543c1461006b578063e306f779146100a3578063e614d0d6146100ab575b600080fd5b6100596100b3565b60408051918252519081900360200190f35b6100596004803603608081101561008157600080fd5b506001600160a01b03813516906020810135906040810135906060013561013c565b61005961015b565b610059610161565b6040518060800160405280605b815260200161028d605b91396040516020018082805190602001908083835b602083106100fe5780518252601f1990920191602091820191016100df565b6001836020036101000a0380198251168184511680821785525050505050509050019150506040516020818303038152906040528051906020012081565b600061015261014d868686866101ab565b610264565b95945050505050565b60005481565b6040518060800160405280604981526020016102e860499139604051602001808280519060200190808383602083106100fe5780518252601f1990920191602091820191016100df565b6000806040518060800160405280605b815260200161028d605b91396040516020018082805190602001908083835b602083106101f95780518252601f1990920191602091820191016101da565b51815160209384036101000a60001901801990921691161790526040805192909401828103601f1901835280855282519282019290922082526001600160a01b039b909b169a81019a909a5250880196909652505050606084019190915260808301525060a0902090565b600054604051600160f01b61190102815260028101919091526022810191909152604290209056fe546f6b656e5472616e736665724f726465722861646472657373207370656e6465722c75696e7432353620746f6b656e49644f72416d6f756e742c6279746573333220646174612c75696e743235362065787069726174696f6e29454950373132446f6d61696e28737472696e67206e616d652c737472696e672076657273696f6e2c75696e7432353620636861696e49642c6164647265737320636f6e747261637429a165627a7a723058204815d5fa2769ebe926e6c49eb96510c6093e80c403ee62e01fa9e85a55492f1a0029454950373132446f6d61696e28737472696e67206e616d652c737472696e672076657273696f6e2c75696e7432353620636861696e49642c6164647265737320636f6e747261637429",
  "source": "pragma solidity ^0.5.2;\n\nimport { LibEIP712Domain } from \"./EIP712.sol\";\n\n\ncontract LibTokenTransferOrder is LibEIP712Domain {\n  string constant internal EIP712_TOKEN_TRANSFER_ORDER_SCHEMA = \"TokenTransferOrder(address spender,uint256 tokenIdOrAmount,bytes32 data,uint256 expiration)\";\n  bytes32 constant public EIP712_TOKEN_TRANSFER_ORDER_SCHEMA_HASH = keccak256(abi.encodePacked(EIP712_TOKEN_TRANSFER_ORDER_SCHEMA));\n\n  struct TokenTransferOrder {\n    address spender;\n    uint256 tokenIdOrAmount;\n    bytes32 data;\n    uint256 expiration;\n  }\n\n  function getTokenTransferOrderHash(address spender, uint256 tokenIdOrAmount, bytes32 data, uint256 expiration)\n    public\n    view\n    returns (bytes32 orderHash)\n  {\n    orderHash = hashEIP712Message(hashTokenTransferOrder(spender, tokenIdOrAmount, data, expiration));\n  }\n\n  function hashTokenTransferOrder(address spender, uint256 tokenIdOrAmount, bytes32 data, uint256 expiration)\n    internal\n    pure\n    returns (bytes32 result)\n  {\n    bytes32 schemaHash = EIP712_TOKEN_TRANSFER_ORDER_SCHEMA_HASH;\n\n    // Assembly for more efficiently computing:\n    // return keccak256(abi.encode(\n    //   schemaHash,\n    //   spender,\n    //   tokenIdOrAmount,\n    //   data,\n    //   expiration\n    // ));\n\n    assembly {\n      // Load free memory pointer\n      let memPtr := mload(64)\n\n      mstore(memPtr, schemaHash)                                                         // hash of schema\n      mstore(add(memPtr, 32), and(spender, 0xffffffffffffffffffffffffffffffffffffffff))  // spender\n      mstore(add(memPtr, 64), tokenIdOrAmount)                                           // tokenIdOrAmount\n      mstore(add(memPtr, 96), data)                                                      // hash of data\n      mstore(add(memPtr, 128), expiration)                                               // expiration\n\n      // Compute hash\n      result := keccak256(memPtr, 160)\n    }\n    return result;\n  }\n}\n",
  "sourcePath": "/Users/arpit/projects/contracts/contracts/child/misc/LibTokenTransferOrder.sol",
  "compiler": {
    "name": "solc",
    "version": "0.5.7+commit.6da8b019.Emscripten.clang"
  },
  "schemaVersion": "3.0.16",
  "updatedAt": "2019-09-21T10:53:38.845Z",
  "devdoc": {
    "methods": {}
  },
  "userdoc": {
    "methods": {}
  }
}