{
  "contractName": "LibTokenTransferOrder",
  "abi": [
    {
      "constant": true,
      "inputs": [],
      "name": "networkId",
      "outputs": [
        {
          "internalType": "bytes",
          "name": "",
          "type": "bytes"
        }
      ],
      "payable": false,
      "stateMutability": "view",
      "type": "function"
    },
    {
      "constant": true,
      "inputs": [],
      "name": "EIP712_TOKEN_TRANSFER_ORDER_SCHEMA_HASH",
      "outputs": [
        {
          "internalType": "bytes32",
          "name": "",
          "type": "bytes32"
        }
      ],
      "payable": false,
      "stateMutability": "view",
      "type": "function"
    },
    {
      "constant": true,
      "inputs": [],
      "name": "CHAINID",
      "outputs": [
        {
          "internalType": "uint256",
          "name": "",
          "type": "uint256"
        }
      ],
      "payable": false,
      "stateMutability": "view",
      "type": "function"
    },
    {
      "constant": true,
      "inputs": [],
      "name": "EIP712_DOMAIN_HASH",
      "outputs": [
        {
          "internalType": "bytes32",
          "name": "",
          "type": "bytes32"
        }
      ],
      "payable": false,
      "stateMutability": "view",
      "type": "function"
    },
    {
      "constant": true,
      "inputs": [],
      "name": "EIP712_DOMAIN_SCHEMA_HASH",
      "outputs": [
        {
          "internalType": "bytes32",
          "name": "",
          "type": "bytes32"
        }
      ],
      "payable": false,
      "stateMutability": "view",
      "type": "function"
    },
    {
      "constant": true,
      "inputs": [
        {
          "internalType": "address",
          "name": "spender",
          "type": "address"
        },
        {
          "internalType": "uint256",
          "name": "tokenIdOrAmount",
          "type": "uint256"
        },
        {
          "internalType": "bytes32",
          "name": "data",
          "type": "bytes32"
        },
        {
          "internalType": "uint256",
          "name": "expiration",
          "type": "uint256"
        }
      ],
      "name": "getTokenTransferOrderHash",
      "outputs": [
        {
          "internalType": "bytes32",
          "name": "orderHash",
          "type": "bytes32"
        }
      ],
      "payable": false,
      "stateMutability": "view",
      "type": "function"
    }
  ],
  "bytecode": "0x610100604052604960808181529061059660a0396040516020018082805190602001908083835b602083106100455780518252601f199092019160209182019101610026565b51815160209384036101000a60001901801990921691161790526040805192909401828103601f190183528085528251928201929092208285018552600d83527f4d61746963204e6574776f726b000000000000000000000000000000000000009282019290925283518085018552600181527f3100000000000000000000000000000000000000000000000000000000000000908201528351808201929092527fd26430275d0d30693378daeb558f6ed30c3a48ba5d665f52c16608e1c41b5cd7828501527fc89efdaa54c0f20c7adf612882df0950f5a951637e0307cdcb4c672f298b8bc66060830152613eee60808301523060a0808401919091528451808403909101815260c09092019093528051920191909120600090815561042193508392506101759150396000f3fe608060405234801561001057600080fd5b50600436106100625760003560e01c80639025e64c14610067578063abceeba2146100e4578063b789543c146100fe578063cc79f97b14610136578063e306f7791461013e578063e614d0d614610146575b600080fd5b61006f61014e565b6040805160208082528351818301528351919283929083019185019080838360005b838110156100a9578181015183820152602001610091565b50505050905090810190601f1680156100d65780820380516001836020036101000a031916815260200191505b509250505060405180910390f35b6100ec61016c565b60408051918252519081900360200190f35b6100ec6004803603608081101561011457600080fd5b506001600160a01b0381351690602081013590604081013590606001356101f5565b6100ec610214565b6100ec61021a565b6100ec610220565b604051806040016040528060028152602001611f7760f11b81525081565b6040518060800160405280605b8152602001610349605b91396040516020018082805190602001908083835b602083106101b75780518252601f199092019160209182019101610198565b6001836020036101000a0380198251168184511680821785525050505050509050019150506040516020818303038152906040528051906020012081565b600061020b6102068686868661026a565b610323565b95945050505050565b613eee81565b60005481565b6040518060800160405280604981526020016103a460499139604051602001808280519060200190808383602083106101b75780518252601f199092019160209182019101610198565b6000806040518060800160405280605b8152602001610349605b91396040516020018082805190602001908083835b602083106102b85780518252601f199092019160209182019101610299565b51815160209384036101000a60001901801990921691161790526040805192909401828103601f1901835280855282519282019290922082526001600160a01b039b909b169a81019a909a5250880196909652505050606084019190915260808301525060a0902090565b60005460405161190160f01b815260028101919091526022810191909152604290209056fe546f6b656e5472616e736665724f726465722861646472657373207370656e6465722c75696e7432353620746f6b656e49644f72416d6f756e742c6279746573333220646174612c75696e743235362065787069726174696f6e29454950373132446f6d61696e28737472696e67206e616d652c737472696e672076657273696f6e2c75696e7432353620636861696e49642c6164647265737320636f6e747261637429a265627a7a723158205697365db305b95a34586decdec76de5abc649da1b5e6228ff095ea317fb78be64736f6c634300050b0032454950373132446f6d61696e28737472696e67206e616d652c737472696e672076657273696f6e2c75696e7432353620636861696e49642c6164647265737320636f6e747261637429",
  "source": "pragma solidity ^0.5.2;\n\nimport { LibEIP712Domain } from \"./EIP712.sol\";\n\n\ncontract LibTokenTransferOrder is LibEIP712Domain {\n  string constant internal EIP712_TOKEN_TRANSFER_ORDER_SCHEMA = \"TokenTransferOrder(address spender,uint256 tokenIdOrAmount,bytes32 data,uint256 expiration)\";\n  bytes32 constant public EIP712_TOKEN_TRANSFER_ORDER_SCHEMA_HASH = keccak256(abi.encodePacked(EIP712_TOKEN_TRANSFER_ORDER_SCHEMA));\n\n  struct TokenTransferOrder {\n    address spender;\n    uint256 tokenIdOrAmount;\n    bytes32 data;\n    uint256 expiration;\n  }\n\n  function getTokenTransferOrderHash(address spender, uint256 tokenIdOrAmount, bytes32 data, uint256 expiration)\n    public\n    view\n    returns (bytes32 orderHash)\n  {\n    orderHash = hashEIP712Message(hashTokenTransferOrder(spender, tokenIdOrAmount, data, expiration));\n  }\n\n  function hashTokenTransferOrder(address spender, uint256 tokenIdOrAmount, bytes32 data, uint256 expiration)\n    internal\n    pure\n    returns (bytes32 result)\n  {\n    bytes32 schemaHash = EIP712_TOKEN_TRANSFER_ORDER_SCHEMA_HASH;\n\n    // Assembly for more efficiently computing:\n    // return keccak256(abi.encode(\n    //   schemaHash,\n    //   spender,\n    //   tokenIdOrAmount,\n    //   data,\n    //   expiration\n    // ));\n\n    assembly {\n      // Load free memory pointer\n      let memPtr := mload(64)\n\n      mstore(memPtr, schemaHash)                                                         // hash of schema\n      mstore(add(memPtr, 32), and(spender, 0xffffffffffffffffffffffffffffffffffffffff))  // spender\n      mstore(add(memPtr, 64), tokenIdOrAmount)                                           // tokenIdOrAmount\n      mstore(add(memPtr, 96), data)                                                      // hash of data\n      mstore(add(memPtr, 128), expiration)                                               // expiration\n\n      // Compute hash\n      result := keccak256(memPtr, 160)\n    }\n    return result;\n  }\n}\n",
  "sourcePath": "/Users/atvanguard/matic/contracts/contracts/child/misc/LibTokenTransferOrder.sol",
  "compiler": {
    "name": "solc",
    "version": "0.5.11+commit.c082d0b4.Emscripten.clang"
  },
  "schemaVersion": "3.0.14",
  "updatedAt": "2019-12-18T15:44:20.902Z",
  "devdoc": {
    "methods": {}
  },
  "userdoc": {
    "methods": {}
  }
}