{
  "contractName": "MarketplacePredicateTest",
  "abi": [
    {
      "constant": false,
      "inputs": [
        {
          "name": "data",
          "type": "bytes"
        },
        {
          "name": "exitTx",
          "type": "bytes"
        }
      ],
      "name": "startExit",
      "outputs": [],
      "payable": true,
      "stateMutability": "payable",
      "type": "function"
    },
    {
      "constant": true,
      "inputs": [],
      "name": "NETWORK_ID",
      "outputs": [
        {
          "name": "",
          "type": "bytes"
        }
      ],
      "payable": false,
      "stateMutability": "view",
      "type": "function"
    },
    {
      "constant": true,
      "inputs": [],
      "name": "registry",
      "outputs": [
        {
          "name": "",
          "type": "address"
        }
      ],
      "payable": false,
      "stateMutability": "view",
      "type": "function"
    },
    {
      "constant": true,
      "inputs": [],
      "name": "rootChain",
      "outputs": [
        {
          "name": "",
          "type": "address"
        }
      ],
      "payable": false,
      "stateMutability": "view",
      "type": "function"
    },
    {
      "constant": true,
      "inputs": [
        {
          "name": "exit",
          "type": "bytes"
        },
        {
          "name": "inputUtxo",
          "type": "bytes"
        },
        {
          "name": "challengeData",
          "type": "bytes"
        }
      ],
      "name": "verifyDeprecation",
      "outputs": [
        {
          "name": "",
          "type": "bool"
        }
      ],
      "payable": false,
      "stateMutability": "view",
      "type": "function"
    },
    {
      "inputs": [],
      "payable": false,
      "stateMutability": "nonpayable",
      "type": "constructor"
    },
    {
      "constant": true,
      "inputs": [
        {
          "name": "predicate",
          "type": "address"
        },
        {
          "name": "data",
          "type": "bytes"
        },
        {
          "name": "participant",
          "type": "address"
        }
      ],
      "name": "processLogTransferReceiptTest",
      "outputs": [
        {
          "name": "b",
          "type": "bytes"
        }
      ],
      "payable": false,
      "stateMutability": "view",
      "type": "function"
    },
    {
      "constant": true,
      "inputs": [
        {
          "name": "exitTx",
          "type": "bytes"
        }
      ],
      "name": "processExitTx",
      "outputs": [
        {
          "name": "b",
          "type": "bytes"
        }
      ],
      "payable": false,
      "stateMutability": "view",
      "type": "function"
    },
    {
      "constant": true,
      "inputs": [
        {
          "name": "exitTx",
          "type": "bytes"
        }
      ],
      "name": "testGetAddressFromTx",
      "outputs": [
        {
          "name": "signer",
          "type": "address"
        },
        {
          "name": "txHash",
          "type": "bytes32"
        }
      ],
      "payable": false,
      "stateMutability": "pure",
      "type": "function"
    }
  ],
  "bytecode": "0x608060405234801561001057600080fd5b50600080546001600160a01b0319908116909155600380548216905560028054909116905561317f806100446000396000f3fe60806040526004361061007b5760003560e01c8063987ab9db1161004e578063987ab9db146102cf578063dc989e00146102e4578063ec58410c14610395578063ef472d69146104c45761007b565b806328b4b53d1461008057806328ce8b31146101405780633abb8086146101ca5780637b1039991461029e575b600080fd5b61013e6004803603604081101561009657600080fd5b810190602081018135600160201b8111156100b057600080fd5b8201836020820111156100c257600080fd5b803590602001918460018302840111600160201b831117156100e357600080fd5b919390929091602081019035600160201b81111561010057600080fd5b82018360208201111561011257600080fd5b803590602001918460018302840111600160201b8311171561013357600080fd5b509092509050610590565b005b34801561014c57600080fd5b50610155610fe8565b6040805160208082528351818301528351919283929083019185019080838360005b8381101561018f578181015183820152602001610177565b50505050905090810190601f1680156101bc5780820380516001836020036101000a031916815260200191505b509250505060405180910390f35b3480156101d657600080fd5b5061027b600480360360208110156101ed57600080fd5b810190602081018135600160201b81111561020757600080fd5b82018360208201111561021957600080fd5b803590602001918460018302840111600160201b8311171561023a57600080fd5b91908080601f016020809104026020016040519081016040528093929190818152602001838380828437600092019190915250929550611009945050505050565b604080516001600160a01b03909316835260208301919091528051918290030190f35b3480156102aa57600080fd5b506102b361104e565b604080516001600160a01b039092168252519081900360200190f35b3480156102db57600080fd5b506102b361105d565b3480156102f057600080fd5b506101556004803603602081101561030757600080fd5b810190602081018135600160201b81111561032157600080fd5b82018360208201111561033357600080fd5b803590602001918460018302840111600160201b8311171561035457600080fd5b91908080601f01602080910402602001604051908101604052809392919081815260200183838082843760009201919091525092955061106c945050505050565b3480156103a157600080fd5b506104b0600480360360608110156103b857600080fd5b810190602081018135600160201b8111156103d257600080fd5b8201836020820111156103e457600080fd5b803590602001918460018302840111600160201b8311171561040557600080fd5b919390929091602081019035600160201b81111561042257600080fd5b82018360208201111561043457600080fd5b803590602001918460018302840111600160201b8311171561045557600080fd5b919390929091602081019035600160201b81111561047257600080fd5b82018360208201111561048457600080fd5b803590602001918460018302840111600160201b831117156104a557600080fd5b509092509050611132565b604080519115158252519081900360200190f35b3480156104d057600080fd5b50610155600480360360608110156104e757600080fd5b6001600160a01b038235169190810190604081016020820135600160201b81111561051157600080fd5b82018360208201111561052357600080fd5b803590602001918460018302840111600160201b8311171561054457600080fd5b91908080601f016020809104026020016040519081016040528093929190818152602001838380828437600092019190915250929550505090356001600160a01b0316915061159a9050565b67016345785d8a000034146105ef5760408051600160e51b62461bcd02815260206004820152601360248201527f496e76616c696420426f6e6420616d6f756e7400000000000000000000000000604482015290519081900360640190fd5b606061063861063386868080601f01602080910402602001604051908101604052809392919081815260200183838082843760009201919091525061162a92505050565b611650565b90506000606061065b8360008151811061064e57fe5b6020026020010151611721565b806020019051604081101561066f57600080fd5b815160208301805191939283019291600160201b81111561068f57600080fd5b820160208101848111156106a257600080fd5b8151600160201b8111828201871017156106bb57600080fd5b505060025460408051600160e01b6337b1d5850281526001600160a01b038089166004830152915197995092975016946337b1d585945060248083019450602093509091829003018186803b15801561071357600080fd5b505afa158015610727573d6000803e3d6000fd5b505050506040513d602081101561073d57600080fd5b5051600381111561074a57fe5b60ff166107a15760408051600160e51b62461bcd02815260206004820152601560248201527f4e6f7420612076616c6964207072656469636174650000000000000000000000604482015290519081900360640190fd5b6107a9612e22565b6108b186868080601f0160208091040260200160405190810160405280939291908181526020018383808284376000920182905250805460408051600160e21b632409799302815290516001600160a01b039092169550639025e64c94506004808201945090829003018186803b15801561082357600080fd5b505afa158015610837573d6000803e3d6000fd5b505050506040513d6000823e601f3d908101601f19168201604052602081101561086057600080fd5b810190808051600160201b81111561087757600080fd5b8201602081018481111561088a57600080fd5b8151600160201b8111828201871017156108a357600080fd5b50509291905050503361179a565b9050600360009054906101000a90046001600160a01b03166001600160a01b031663b87e1b666040518163ffffffff1660e01b815260040160206040518083038186803b15801561090157600080fd5b505afa158015610915573d6000803e3d6000fd5b505050506040513d602081101561092b57600080fd5b505160c08201511161097157604051600160e51b62461bcd0281526004018080602001828103825260498152602001806130c36049913960600191505060405180910390fd5b610979612e5e565b610988848433600160006118e7565b60408082015190840151825185519394506109a293611b2c565b6109b28560018151811061064e57fe5b80602001905160408110156109c657600080fd5b815160208301805191939283019291600160201b8111156109e657600080fd5b820160208101848111156109f957600080fd5b8151600160201b811182820187101715610a1257600080fd5b505060025460408051600160e01b6337b1d5850281526001600160a01b0380891660048301529151979b5092995016946337b1d585945060248083019450602093509091829003018186803b158015610a6a57600080fd5b505afa158015610a7e573d6000803e3d6000fd5b505050506040513d6020811015610a9457600080fd5b50516003811115610aa157fe5b60ff16610af85760408051600160e51b62461bcd02815260206004820152601560248201527f4e6f7420612076616c6964207072656469636174650000000000000000000000604482015290519081900360640190fd5b610b00612e5e565b610b1385858560800151600160006118e7565b9050610b318160400151846060015183600001518660200151611b2c565b6000610b5387600189510381518110610b4657fe5b6020026020010151611ca4565b9050610b5d612e5e565b875160041415610c6757610b778860038151811061064e57fe5b8060200190516040811015610b8b57600080fd5b815160208301805191939283019291600160201b811115610bab57600080fd5b82016020810184811115610bbe57600080fd5b8151600160201b811182820187101715610bd757600080fd5b50949b509950610bf493508a9250899150339050600160006118e7565b905080604001516001600160a01b031683604001516001600160a01b031614610c675760408051600160e51b62461bcd02815260206004820152601860248201527f4368696c6420746f6b656e20646f65736e74206d617463680000000000000000604482015290519081900360640190fd5b610c6f611d02565b60006001610c92610c8887602001518760200151611d41565b8460200151611d41565b901b905084604001516001600160a01b0316836001600160a01b03161415610d73576000546060860151875187516001600160a01b039093169263d931a8699233928892610ce59163ffffffff611d5c16565b60a08c01516040805163ffffffff881660e01b81526001600160a01b039687166004820152948616602486015292909416604484015260648301526084820192909252600060a4820181905260c48201869052915160e4808301939282900301818387803b158015610d5657600080fd5b505af1158015610d6a573d6000803e3d6000fd5b50505050610e4f565b83604001516001600160a01b0316836001600160a01b03161415610e4f576000546060850151835160208901516001600160a01b039093169263d931a8699233928892610dc59163ffffffff611d7116565b60a08c01516040805163ffffffff881660e01b81526001600160a01b039687166004820152948616602486015292909416604484015260648301526084820192909252600060a4820181905260c48201869052915160e4808301939282900301818387803b158015610e3657600080fd5b505af1158015610e4a573d6000803e3d6000fd5b505050505b600080546020870151606088015160408051600160e01b6322f192af0281526004810187905260248101939093523360448401526001600160a01b039182166064840152519216926322f192af9260848084019382900301818387803b158015610eb857600080fd5b505af1158015610ecc573d6000803e3d6000fd5b505060008054602088015160808b015160608a015160408051600160e01b6322f192af028152600481018a905260248101949094526001600160a01b039283166044850152908216606484015251921694506322f192af9350608480820193929182900301818387803b158015610f4257600080fd5b505af1158015610f56573d6000803e3d6000fd5b505060008054606086015160408051600160e01b6322f192af02815260048101889052602481018590523360448201526001600160a01b03928316606482015290519190921694506322f192af93506084808301939282900301818387803b158015610fc157600080fd5b505af1158015610fd5573d6000803e3d6000fd5b5050505050505050505050505050505050565b604051806040016040528060028152602001600160f01b613a990281525081565b600080606061101a6106338561162a565b905061104381604051806040016040528060028152602001600160f01b613a9902815250611d83565b909590945092505050565b6002546001600160a01b031681565b6003546001600160a01b031681565b6060611076612e22565b61109e83604051806040016040528060028152602001600160f01b613a99028152503361179a565b90508060000151816020015182604001518360600151846080015160405160200180868152602001858152602001846001600160a01b03166001600160a01b03168152602001836001600160a01b03166001600160a01b03168152602001826001600160a01b03166001600160a01b0316815260200195505050505050604051602081830303815290604052915050919050565b600061113c612e98565b61117b88888080601f01602080910402602001604051908101604052809392919081815260200183838082843760009201919091525061210792505050565b90506000806000806111c28a8a8080601f01602080910402602001604051908101604052809392919081815260200183838082843760009201919091525061218492505050565b9350935093509350606061120e6106338a8a8080601f01602080910402602001604051908101604052809392919081815260200183838082843760009201919091525061162a92505050565b9050611218612e22565b6112fc61122b83600a8151811061064e57fe5b6000805460408051600160e21b632409799302815290516001600160a01b0390921692639025e64c92600480840193829003018186803b15801561126e57600080fd5b505afa158015611282573d6000803e3d6000fd5b505050506040513d6000823e601f3d908101601f1916820160405260208110156112ab57600080fd5b810190808051600160201b8111156112c257600080fd5b820160208101848111156112d557600080fd5b8151600160201b8111828201871017156112ee57600080fd5b50509291905050508761179a565b9050611306612e5e565b61134c858c8c8080601f0160208091040260200160405190810160405280939291908181526020018383808284376000920191909152508b9250600191508190506118e7565b90506002805460408051600160e01b6337b1d5850281526001600160a01b038981166004830152915191909216916337b1d585916024808301926020929190829003018186803b15801561139f57600080fd5b505afa1580156113b3573d6000803e3d6000fd5b505050506040513d60208110156113c957600080fd5b505160038111156113d657fe5b141561142c57875181511480156113ee575087518251145b61142c57604051600160e51b62461bcd02815260040180806020018281038252604881526020018061310c6048913960600191505060405180910390fd5b8160c0015161143e82602001516121c1565b111561147e57604051600160e51b62461bcd0281526004018080602001828103825260368152602001806130416036913960400191505060405180910390fd5b836001600160a01b031681604001516001600160a01b03161480156114b85750836001600160a01b031682604001516001600160a01b0316145b6114f657604051600160e51b62461bcd02815260040180806020018281038252604c815260200180613077604c913960600191505060405180910390fd5b87602001518260a00151141561154057604051600160e51b62461bcd028152600401808060200182810382526021815260200180612fc06021913960400191505060405180910390fd5b8681602001511161158557604051600160e51b62461bcd028152600401808060200182810382526056815260200180612f6a6056913960600191505060405180910390fd5b5060019e9d5050505050505050505050505050565b60606115a4612e5e565b6115b28585856000806118e7565b9050806000015181602001518260400151836060015160405160200180858152602001848152602001836001600160a01b03166001600160a01b03168152602001826001600160a01b03166001600160a01b031681526020019450505050506040516020818303038152906040529150509392505050565b611632612ec6565b5060408051808201909152815181526020828101908201525b919050565b606061165b826121ca565b61166457600080fd5b600061166f83612204565b90506060816040519080825280602002602001820160405280156116ad57816020015b61169a612ec6565b8152602001906001900390816116925790505b50905060006116bf8560200151612260565b60208601510190506000805b84811015611716576116dc836122c3565b91506040518060400160405280838152602001848152508482815181106116ff57fe5b6020908102919091010152918101916001016116cb565b509195945050505050565b805160609061172f57600080fd5b600061173e8360200151612260565b83516040805191839003808352601f19601f8201168301602001909152919250606090828015611775576020820181803883390190505b509050600081602001905061179184876020015101828561235c565b50949350505050565b6117a2612e22565b60606117b06106338661162a565b9050805160091461180b5760408051600160e51b62461bcd02815260206004820152601560248201527f4d414c464f524d45445f57495448445241575f54580000000000000000000000604482015290519081900360640190fd5b600061182a8260038151811061181d57fe5b60200260200101516123a7565b90506000611836612ee0565b61184e6118498560058151811061064e57fe5b6123c1565b90925090506001600160e01b03198216600160e21b6339982e7902146118be5760408051600160e51b62461bcd02815260206004820152601c60248201527f4e6f7420657865637574654f72646572207472616e73616374696f6e00000000604482015290519081900360640190fd5b6118c9818488612465565b94506118d58488611d83565b60a08701525093979650505050505050565b6118ef612e5e565b6060866001600160a01b03166382e3464c878787876040516020018080602001856001600160a01b03166001600160a01b031681526020018415151515815260200183151515158152602001828103825286818151815260200191508051906020019080838360005b83811015611970578181015183820152602001611958565b50505050905090810190601f16801561199d5780820380516001836020036101000a031916815260200191505b50955050505050506040516020818303038152906040526040518263ffffffff1660e01b81526004018080602001828103825283818151815260200191508051906020019080838360005b83811015611a005781810151838201526020016119e8565b50505050905090810190601f168015611a2d5780820380516001836020036101000a031916815260200191505b509250505060006040518083038186803b158015611a4a57600080fd5b505afa158015611a5e573d6000803e3d6000fd5b505050506040513d6000823e601f3d908101601f191682016040526020811015611a8757600080fd5b810190808051600160201b811115611a9e57600080fd5b82016020810184811115611ab157600080fd5b8151600160201b811182820187101715611aca57600080fd5b505080519094506020850193509150506080811015611ae857600080fd5b5080516020808301516040808501516060958601516001600160a01b0390811696890196909652949094169386019390935284019190915282525095945050505050565b826001600160a01b0316846001600160a01b031614611b955760408051600160e51b62461bcd02815260206004820152601960248201527f4368696c6420746f6b656e7320646f206e6f74206d6174636800000000000000604482015290519081900360640190fd5b60025460408051600160e01b63bbfe7cd30281526001600160a01b0387811660048301529151919092169163bbfe7cd3916024808301926020929190829003018186803b158015611be557600080fd5b505afa158015611bf9573d6000803e3d6000fd5b505050506040513d6020811015611c0f57600080fd5b505115611c5c57808214611c5757604051600160e51b62461bcd028152600401808060200182810382526024815260200180612f466024913960400191505060405180910390fd5b611c9e565b80821015611c9e57604051600160e51b62461bcd028152600401808060200182810382526028815260200180612fe16028913960400191505060405180910390fd5b50505050565b805160009015801590611cb957508151602110155b611cc257600080fd5b6000611cd18360200151612260565b8351602080860151830180519394509184900392919083101561179157506020919091036101000a90049392505050565b600080546040516001600160a01b03909116919067016345785d8a00009082818181858883f19350505050158015611d3e573d6000803e3d6000fd5b50565b600081831015611d515781611d53565b825b90505b92915050565b600082821115611d6b57600080fd5b50900390565b600082820183811015611d5357600080fd5b60408051600980825261014082019092526000918291606091816020015b6060815260200190600190039081611da157905050905060005b60058160ff1611611dfa57611dd8868260ff168151811061064e57fe5b828260ff1681518110611de757fe5b6020908102919091010152600101611dbb565b506040518060200160405280600081525081600481518110611e1857fe5b60200260200101819052508381600681518110611e3157fe5b60200260200101819052506040518060200160405280600081525081600781518110611e5957fe5b60200260200101819052506040518060200160405280600081525081600881518110611e8157fe5b6020026020010181905250611e9581612a68565b80519060200120915060018273__Common________________________________63b40b539b611ecb8960068151811061064e57fe5b604051600160e11b6326b351570281526020600482018181528b5160248401528b5173__Common________________________________93634d66a2ae938e939283926044019185019080838360005b83811015611f33578181015183820152602001611f1b565b50505050905090810190601f168015611f605780820380516001836020036101000a031916815260200191505b509250505060206040518083038186803b158015611f7d57600080fd5b505af4158015611f91573d6000803e3d6000fd5b505050506040513d6020811015611fa757600080fd5b50516040805163ffffffff851660e01b815261ffff8316602482015260048101918252835160448201528351829160640190602086019080838360005b83811015611ffc578181015183820152602001611fe4565b50505050905090810190601f1680156120295780820380516001836020036101000a031916815260200191505b50935050505060206040518083038186803b15801561204757600080fd5b505af415801561205b573d6000803e3d6000fd5b505050506040513d602081101561207157600080fd5b505187516120869089906007908110610b4657fe5b60001b61209989600881518110610b4657fe5b60001b60405160008152602001604052604051808581526020018460ff1660ff1681526020018381526020018281526020019450505050506020604051602081039080840390855afa1580156120f3573d6000803e3d6000fd5b505050602060405103519250509250929050565b61210f612e98565b60008060008060008680602001905160a081101561212c57600080fd5b508051602080830151604080850151606080870151608097880151845160a081018652938452958301526001600160a01b03958616928201929092529390911690830152151591810191909152979650505050505050565b60008060008084806020019051608081101561219f57600080fd5b5080516020820151604083015160609093015191989097509195509350915050565b60811b60a11c90565b80516000906121db5750600061164b565b6020820151805160001a9060c08210156121fa5760009250505061164b565b5060019392505050565b80516000906122155750600061164b565b600080905060006122298460200151612260565b602085015185519181019250015b8082101561225757612248826122c3565b60019093019290910190612237565b50909392505050565b8051600090811a608081101561227a57600091505061164b565b60b8811080612295575060c08110801590612295575060f881105b156122a457600191505061164b565b60c08110156122b85760b51901905061164b565b60f51901905061164b565b80516000908190811a60808110156122de5760019150612355565b60b88110156122f357607e1981019150612355565b60c08110156123205760b78103600185019450806020036101000a85510460018201810193505050612355565b60f88110156123355760be1981019150612355565b60f78103600185019450806020036101000a855104600182018101935050505b5092915050565b80612366576123a2565b5b60208110612386578251825260209283019290910190601f1901612367565b8251825160208390036101000a60001901801990921691161782525b505050565b80516000906015146123b857600080fd5b611d5682611ca4565b60006123cb612ee0565b6123e06123db8460006004612abc565b612b3b565b91506123ed836044612b42565b60408201526123fd836064612b42565b606082015261240d836084612b42565b6001600160a01b0316608082015260006124288460a4612b42565b90506124368460c483612abc565b825260c481016124468582612b42565b9150612456858260200184612abc565b83602001819052505050915091565b61246d612e22565b612475612f1b565b845161248090612b5e565b905061248a612f1b565b6124978660200151612b5e565b9050600073__TransferWithSigUtils__________________63250e38bf84600001518886604001518b604001518760000151886040015160405160200180848152602001836001600160a01b03166001600160a01b031660601b81526014018281526020019350505050604051602081830303815290604052805190602001208c606001516040518663ffffffff1660e01b815260040180866001600160a01b03166001600160a01b03168152602001856001600160a01b03166001600160a01b031681526020018481526020018381526020018281526020019550505050505060206040518083038186803b15801561259157600080fd5b505af41580156125a5573d6000803e3d6000fd5b505050506040513d60208110156125bb57600080fd5b505160208481015160408051600160e21b631df4cba5028152600481018581526024820192835283516044830152835195965060009573__ECVerify______________________________956377d32e94958995909490926064909101918501908083838c5b83811015612639578181015183820152602001612621565b50505050905090810190601f1680156126665780820380516001836020036101000a031916815260200191505b50935050505060206040518083038186803b15801561268457600080fd5b505af4158015612698573d6000803e3d6000fd5b505050506040513d60208110156126ae57600080fd5b8101908080519060200190929190505050905073__TransferWithSigUtils__________________63250e38bf84600001518986604001518c6040015189600001518a6040015160405160200180848152602001836001600160a01b03166001600160a01b031660601b81526014018281526020019350505050604051602081830303815290604052805190602001208d606001516040518663ffffffff1660e01b815260040180866001600160a01b03166001600160a01b03168152602001856001600160a01b03166001600160a01b031681526020018481526020018381526020018281526020019550505050505060206040518083038186803b1580156127b757600080fd5b505af41580156127cb573d6000803e3d6000fd5b505050506040513d60208110156127e157600080fd5b505160208481015160408051600160e21b631df4cba5028152600481018581526024820192835283516044830152835195975060009573__ECVerify______________________________956377d32e94958a95909490926064909101918501908083838c5b8381101561285f578181015183820152602001612847565b50505050905090810190601f16801561288c5780820380516001836020036101000a031916815260200191505b50935050505060206040518083038186803b1580156128aa57600080fd5b505af41580156128be573d6000803e3d6000fd5b505050506040513d60208110156128d457600080fd5b505160808a01519091506001600160a01b038083169116146129405760408051600160e51b62461bcd02815260206004820152601c60248201527f4f726465727320617265206e6f7420636f6d706c696d656e7461727900000000604482015290519081900360640190fd5b866001600160a01b0316826001600160a01b031614156129b3576040805160e08101825286820151815285820151602082015295516001600160a01b039081169187019190915293518416606080870191909152931660808501525050600060a083015285015160c08201529050612a61565b866001600160a01b0316816001600160a01b03161415612a2757506040805160e08101825284820151815285820151602082015293516001600160a01b0390811691850191909152935184166060808501919091529316608083015250600060a08201529085015160c08201529050612a61565b604051600160e51b62461bcd0281526004018080602001828103825260388152602001806130096038913960400191505060405180910390fd5b9392505050565b60608060005b8351811015612aa657612a9c82612a97868481518110612a8a57fe5b6020026020010151612bea565b612c5d565b9150600101612a6e565b50612a61612ab6825160c0612cda565b82612c5d565b606081830184511015612ace57600080fd5b606082158015612ae957604051915060208201604052611791565b6040519150601f8416801560200281840101858101878315602002848b0101015b81831015612b22578051835260209283019201612b0a565b5050858452601f01601f19166040525050949350505050565b6020015190565b60008160200183511015612b5557600080fd5b50016020015190565b612b66612f1b565b818060200190516060811015612b7b57600080fd5b815160208301805191939283019291600160201b811115612b9b57600080fd5b82016020810184811115612bae57600080fd5b8151600160201b811182820187101715612bc757600080fd5b505060209182015160408701529085015250506001600160a01b03168152919050565b60608082516001148015612c215750608083600081518110612c0857fe5b602001015160f81c60f81b60ff60f81b1660f81c60ff16105b15612c4c576040805160018082528183019092529060208201818038833950859350611d5692505050565b611d53612c5b84516080612cda565b845b6060806040519050835180825260208201818101602087015b81831015612c8e578051835260209283019201612c76565b50855184518101855292509050808201602086015b81831015612cbb578051835260209283019201612ca3565b508651929092011591909101601f01601f191660405250905092915050565b60606038831015612d375760408051600180825281830190925260609160208201818038833901905050905082840160f81b81600081518110612d1957fe5b60200101906001600160f81b031916908160001a9053509050611d56565b600060015b808581612d4557fe5b0415612d5a5760019091019061010002612d3c565b6060612d6a838660370101612d8e565b90506060612d7787612d8e565b9050612d838282612c5d565b945050505050611d56565b6060600160ff831115612d9f575060025b806040519080825280601f01601f191660200182016040528015612dca576020820181803883390190505b50915060005b81811015612e1b5780600183030360080260020a8481612dec57fe5b0460f81b838281518110612dfc57fe5b60200101906001600160f81b031916908160001a905350600101612dd0565b5050919050565b6040805160e081018252600080825260208201819052918101829052606081018290526080810182905260a0810182905260c081019190915290565b6040518060800160405280600081526020016000815260200160006001600160a01b0316815260200160006001600160a01b031681525090565b6040805160a08101825260008082526020820181905291810182905260608101829052608081019190915290565b604051806040016040528060008152602001600081525090565b6040518060a001604052806060815260200160608152602001600080191681526020016000815260200160006001600160a01b031681525090565b604051806060016040528060006001600160a01b031681526020016060815260200160008152509056fe53616d652065726337323120746f6b656e20776173206e6f74207265666572656e636564416765206f66206368616c6c656e6765206c6f6720696e207468652072656365697074206e6565647320746f206265206d6f726520726563656e74207468616e205574786f206265696e67206368616c6c656e67656443616e6e6f74206368616c6c656e6765207769746820746865206578697420747845786974696e672077697468206d6f726520746f6b656e73207468616e207265666572656e63656450726f766964656420747820646f65736e7420636f6e6365726e2074686520657869746f72202874726164655061727469636970616e7429546865206d61726b6574706c616365206f72646572207761732065787069726564207768656e2069742077617320696e636c756465644c6f675472616e73666572526563656970742c206368616c6c656e6765547820746f6b656e20616e64206368616c6c656e676564207574786f20746f6b656e20646f206e6f74206d6174636854686520696e666c696768742065786974206973206e6f742076616c69642c206265636175736520746865206d61726b6574706c616365206f726465722068617320657870697265644c6f675472616e73666572526563656970742c206368616c6c656e67655478204e465420616e64206368616c6c656e676564207574786f204e465420646f206e6f74206d61746368a165627a7a723058204b2d2014cd7ef0e543ef48f24265fd410981a0d09a1c84a7e0b0959e6832ad2c0029",
  "source": "pragma solidity ^0.5.2;\n\nimport { RLPReader } from \"solidity-rlp/contracts/RLPReader.sol\";\n\nimport { MarketplacePredicate } from \"../root/predicates/MarketplacePredicate.sol\";\nimport { ERC20Predicate } from \"../root/predicates/ERC20Predicate.sol\";\n\ncontract MarketplacePredicateTest is MarketplacePredicate {\n  bytes constant public NETWORK_ID = hex\"3A99\";\n\n  constructor()\n    MarketplacePredicate(address(0x0), address(0x0), address(0x0))\n    public {}\n\n  function processLogTransferReceiptTest(\n    address predicate,\n    bytes memory data,\n    address participant)\n    public\n    view\n    returns(bytes memory b)\n  {\n    ReferenceTxData memory _referenceTx = super.processLogTransferReceipt(predicate, data, participant, false, false);\n    b = abi.encode(_referenceTx.closingBalance, _referenceTx.age, _referenceTx.childToken, _referenceTx.rootToken);\n  }\n\n  function processExitTx(bytes memory exitTx)\n    public\n    view\n    returns(bytes memory b)\n  {\n    ExitTxData memory txData = super.processExitTx(exitTx, NETWORK_ID, msg.sender);\n    b = abi.encode(txData.amount1, txData.amount2, txData.token1, txData.token2, txData.counterParty);\n  }\n\n  function testGetAddressFromTx(bytes memory exitTx)\n    public\n    pure\n    returns (address signer, bytes32 txHash)\n  {\n    RLPReader.RLPItem[] memory txList = exitTx.toRlpItem().toList();\n    (signer, txHash) = getAddressFromTx(txList, NETWORK_ID);\n  }\n\n  function decodeExitTx(bytes memory exitTx)\n    internal\n    pure\n    returns(ExitTxData memory txData)\n  {\n    (txData.amount1, txData.amount2, txData.token1, txData.token2, txData.counterParty) = abi.decode(\n      exitTx, (uint256, uint256, address, address, address));\n  }\n}\n",
  "sourcePath": "/Users/arpit/projects/contracts/contracts/test/MarketplacePredicateTest.sol",
  "compiler": {
    "name": "solc",
    "version": "0.5.7+commit.6da8b019.Emscripten.clang"
  },
  "schemaVersion": "3.0.14",
  "updatedAt": "2019-11-13T10:42:44.746Z",
  "devdoc": {
    "methods": {
      "startExit(bytes,bytes)": {
        "params": {
          "data": "RLP encoded array of input utxos data[n] ( 1 < n <= 3) is abi encoded as (predicateAddress, RLP encoded reference tx) data[n][1] is RLP encoded reference tx that encodes the following fields headerNumber Header block number of which the reference tx was a part of blockProof Proof that the block header (in the child chain) is a leaf in the submitted merkle root blockNumber Block number of which the reference tx is a part of blockTime Reference tx block time blocktxRoot Transactions root of block blockReceiptsRoot Receipts root of block receipt Receipt of the reference transaction receiptProof Merkle proof of the reference receipt branchMask Merkle proof branchMask for the receipt logIndex Log Index to read from the receipt data[2] is the child token that the user wishes to start an exit for",
          "exitTx": "Signed (marketplace.executeOrder) exit transaction"
        }
      },
      "verifyDeprecation(bytes,bytes,bytes)": {
        "params": {
          "challengeData": "RLP encoded data of the challenge reference tx that encodes the following fields headerNumber Header block number of which the reference tx was a part of blockProof Proof that the block header (in the child chain) is a leaf in the submitted merkle root blockNumber Block number of which the reference tx is a part of blockTime Reference tx block time blocktxRoot Transactions root of block blockReceiptsRoot Receipts root of block receipt Receipt of the reference transaction receiptProof Merkle proof of the reference receipt branchMask Merkle proof branchMask for the receipt logIndex Log Index to read from the receipt tx Challenge transaction txProof Merkle proof of the challenge tx",
          "exit": "ABI encoded PlasmaExit data",
          "inputUtxo": "ABI encoded Input UTXO data"
        },
        "return": "Whether or not the state is deprecated"
      }
    }
  },
  "userdoc": {
    "methods": {
      "startExit(bytes,bytes)": {
        "notice": "Start an exit from in-flight marketplace tx"
      },
      "verifyDeprecation(bytes,bytes,bytes)": {
        "notice": "Verify the deprecation of a state update"
      }
    }
  }
}