{
  "contractName": "MaticChildERC20",
  "abi": [
    {
      "constant": false,
      "inputs": [
        {
          "internalType": "bytes",
          "name": "sig",
          "type": "bytes"
        },
        {
          "internalType": "uint256",
          "name": "amount",
          "type": "uint256"
        },
        {
          "internalType": "bytes32",
          "name": "data",
          "type": "bytes32"
        },
        {
          "internalType": "uint256",
          "name": "expiration",
          "type": "uint256"
        },
        {
          "internalType": "address",
          "name": "to",
          "type": "address"
        }
      ],
      "name": "transferWithSig",
      "outputs": [
        {
          "internalType": "address",
          "name": "from",
          "type": "address"
        }
      ],
      "payable": false,
      "stateMutability": "nonpayable",
      "type": "function"
    },
    {
      "constant": true,
      "inputs": [],
      "name": "parent",
      "outputs": [
        {
          "internalType": "address",
          "name": "",
          "type": "address"
        }
      ],
      "payable": false,
      "stateMutability": "view",
      "type": "function"
    },
    {
      "constant": true,
      "inputs": [],
      "name": "parentOwner",
      "outputs": [
        {
          "internalType": "address",
          "name": "",
          "type": "address"
        }
      ],
      "payable": false,
      "stateMutability": "view",
      "type": "function"
    },
    {
      "constant": false,
      "inputs": [],
      "name": "renounceOwnership",
      "outputs": [],
      "payable": false,
      "stateMutability": "nonpayable",
      "type": "function"
    },
    {
      "constant": true,
      "inputs": [],
      "name": "currentSupply",
      "outputs": [
        {
          "internalType": "uint256",
          "name": "",
          "type": "uint256"
        }
      ],
      "payable": false,
      "stateMutability": "view",
      "type": "function"
    },
    {
      "constant": true,
      "inputs": [
        {
          "internalType": "bytes32",
          "name": "hash",
          "type": "bytes32"
        },
        {
          "internalType": "bytes",
          "name": "sig",
          "type": "bytes"
        }
      ],
      "name": "ecrecovery",
      "outputs": [
        {
          "internalType": "address",
          "name": "result",
          "type": "address"
        }
      ],
      "payable": false,
      "stateMutability": "pure",
      "type": "function"
    },
    {
      "constant": true,
      "inputs": [],
      "name": "owner",
      "outputs": [
        {
          "internalType": "address",
          "name": "",
          "type": "address"
        }
      ],
      "payable": false,
      "stateMutability": "view",
      "type": "function"
    },
    {
      "constant": true,
      "inputs": [],
      "name": "isOwner",
      "outputs": [
        {
          "internalType": "bool",
          "name": "",
          "type": "bool"
        }
      ],
      "payable": false,
      "stateMutability": "view",
      "type": "function"
    },
    {
      "constant": true,
      "inputs": [],
      "name": "networkId",
      "outputs": [
        {
          "internalType": "bytes",
          "name": "",
          "type": "bytes"
        }
      ],
      "payable": false,
      "stateMutability": "view",
      "type": "function"
    },
    {
      "constant": true,
      "inputs": [],
      "name": "EIP712_TOKEN_TRANSFER_ORDER_SCHEMA_HASH",
      "outputs": [
        {
          "internalType": "bytes32",
          "name": "",
          "type": "bytes32"
        }
      ],
      "payable": false,
      "stateMutability": "view",
      "type": "function"
    },
    {
      "constant": true,
      "inputs": [
        {
          "internalType": "bytes32",
          "name": "",
          "type": "bytes32"
        }
      ],
      "name": "disabledHashes",
      "outputs": [
        {
          "internalType": "bool",
          "name": "",
          "type": "bool"
        }
      ],
      "payable": false,
      "stateMutability": "view",
      "type": "function"
    },
    {
      "constant": true,
      "inputs": [
        {
          "internalType": "address",
          "name": "spender",
          "type": "address"
        },
        {
          "internalType": "uint256",
          "name": "tokenIdOrAmount",
          "type": "uint256"
        },
        {
          "internalType": "bytes32",
          "name": "data",
          "type": "bytes32"
        },
        {
          "internalType": "uint256",
          "name": "expiration",
          "type": "uint256"
        }
      ],
      "name": "getTokenTransferOrderHash",
      "outputs": [
        {
          "internalType": "bytes32",
          "name": "orderHash",
          "type": "bytes32"
        }
      ],
      "payable": false,
      "stateMutability": "view",
      "type": "function"
    },
    {
      "constant": true,
      "inputs": [],
      "name": "CHAINID",
      "outputs": [
        {
          "internalType": "uint256",
          "name": "",
          "type": "uint256"
        }
      ],
      "payable": false,
      "stateMutability": "view",
      "type": "function"
    },
    {
      "constant": true,
      "inputs": [],
      "name": "EIP712_DOMAIN_HASH",
      "outputs": [
        {
          "internalType": "bytes32",
          "name": "",
          "type": "bytes32"
        }
      ],
      "payable": false,
      "stateMutability": "view",
      "type": "function"
    },
    {
      "constant": true,
      "inputs": [],
      "name": "EIP712_DOMAIN_SCHEMA_HASH",
      "outputs": [
        {
          "internalType": "bytes32",
          "name": "",
          "type": "bytes32"
        }
      ],
      "payable": false,
      "stateMutability": "view",
      "type": "function"
    },
    {
      "constant": false,
      "inputs": [
        {
          "internalType": "address",
          "name": "newOwner",
          "type": "address"
        }
      ],
      "name": "transferOwnership",
      "outputs": [],
      "payable": false,
      "stateMutability": "nonpayable",
      "type": "function"
    },
    {
      "constant": true,
      "inputs": [],
      "name": "token",
      "outputs": [
        {
          "internalType": "address",
          "name": "",
          "type": "address"
        }
      ],
      "payable": false,
      "stateMutability": "view",
      "type": "function"
    },
    {
      "inputs": [],
      "payable": false,
      "stateMutability": "nonpayable",
      "type": "constructor"
    },
    {
      "anonymous": false,
      "inputs": [
        {
          "indexed": true,
          "internalType": "address",
          "name": "from",
          "type": "address"
        },
        {
          "indexed": true,
          "internalType": "address",
          "name": "to",
          "type": "address"
        },
        {
          "indexed": false,
          "internalType": "uint256",
          "name": "value",
          "type": "uint256"
        }
      ],
      "name": "Transfer",
      "type": "event"
    },
    {
      "anonymous": false,
      "inputs": [
        {
          "indexed": true,
          "internalType": "address",
          "name": "token",
          "type": "address"
        },
        {
          "indexed": true,
          "internalType": "address",
          "name": "from",
          "type": "address"
        },
        {
          "indexed": false,
          "internalType": "uint256",
          "name": "amount",
          "type": "uint256"
        },
        {
          "indexed": false,
          "internalType": "uint256",
          "name": "input1",
          "type": "uint256"
        },
        {
          "indexed": false,
          "internalType": "uint256",
          "name": "output1",
          "type": "uint256"
        }
      ],
      "name": "Deposit",
      "type": "event"
    },
    {
      "anonymous": false,
      "inputs": [
        {
          "indexed": true,
          "internalType": "address",
          "name": "token",
          "type": "address"
        },
        {
          "indexed": true,
          "internalType": "address",
          "name": "from",
          "type": "address"
        },
        {
          "indexed": false,
          "internalType": "uint256",
          "name": "amount",
          "type": "uint256"
        },
        {
          "indexed": false,
          "internalType": "uint256",
          "name": "input1",
          "type": "uint256"
        },
        {
          "indexed": false,
          "internalType": "uint256",
          "name": "output1",
          "type": "uint256"
        }
      ],
      "name": "Withdraw",
      "type": "event"
    },
    {
      "anonymous": false,
      "inputs": [
        {
          "indexed": true,
          "internalType": "address",
          "name": "token",
          "type": "address"
        },
        {
          "indexed": true,
          "internalType": "address",
          "name": "from",
          "type": "address"
        },
        {
          "indexed": true,
          "internalType": "address",
          "name": "to",
          "type": "address"
        },
        {
          "indexed": false,
          "internalType": "uint256",
          "name": "amount",
          "type": "uint256"
        },
        {
          "indexed": false,
          "internalType": "uint256",
          "name": "input1",
          "type": "uint256"
        },
        {
          "indexed": false,
          "internalType": "uint256",
          "name": "input2",
          "type": "uint256"
        },
        {
          "indexed": false,
          "internalType": "uint256",
          "name": "output1",
          "type": "uint256"
        },
        {
          "indexed": false,
          "internalType": "uint256",
          "name": "output2",
          "type": "uint256"
        }
      ],
      "name": "LogTransfer",
      "type": "event"
    },
    {
      "anonymous": false,
      "inputs": [
        {
          "indexed": true,
          "internalType": "address",
          "name": "token",
          "type": "address"
        },
        {
          "indexed": true,
          "internalType": "address",
          "name": "from",
          "type": "address"
        },
        {
          "indexed": true,
          "internalType": "address",
          "name": "to",
          "type": "address"
        },
        {
          "indexed": false,
          "internalType": "uint256",
          "name": "amount",
          "type": "uint256"
        },
        {
          "indexed": false,
          "internalType": "uint256",
          "name": "input1",
          "type": "uint256"
        },
        {
          "indexed": false,
          "internalType": "uint256",
          "name": "input2",
          "type": "uint256"
        },
        {
          "indexed": false,
          "internalType": "uint256",
          "name": "output1",
          "type": "uint256"
        },
        {
          "indexed": false,
          "internalType": "uint256",
          "name": "output2",
          "type": "uint256"
        }
      ],
      "name": "LogFeeTransfer",
      "type": "event"
    },
    {
      "anonymous": false,
      "inputs": [
        {
          "indexed": true,
          "internalType": "address",
          "name": "previousOwner",
          "type": "address"
        },
        {
          "indexed": true,
          "internalType": "address",
          "name": "newOwner",
          "type": "address"
        }
      ],
      "name": "OwnershipTransferred",
      "type": "event"
    },
    {
      "constant": false,
      "inputs": [
        {
          "internalType": "address",
          "name": "_childChain",
          "type": "address"
        },
        {
          "internalType": "address",
          "name": "_token",
          "type": "address"
        }
      ],
      "name": "initialize",
      "outputs": [],
      "payable": false,
      "stateMutability": "nonpayable",
      "type": "function"
    },
    {
      "constant": false,
      "inputs": [
        {
          "internalType": "address",
          "name": "",
          "type": "address"
        }
      ],
      "name": "setParent",
      "outputs": [],
      "payable": false,
      "stateMutability": "nonpayable",
      "type": "function"
    },
    {
      "constant": false,
      "inputs": [
        {
          "internalType": "address",
          "name": "user",
          "type": "address"
        },
        {
          "internalType": "uint256",
          "name": "amount",
          "type": "uint256"
        }
      ],
      "name": "deposit",
      "outputs": [],
      "payable": false,
      "stateMutability": "nonpayable",
      "type": "function"
    },
    {
      "constant": false,
      "inputs": [
        {
          "internalType": "uint256",
          "name": "amount",
          "type": "uint256"
        }
      ],
      "name": "withdraw",
      "outputs": [],
      "payable": true,
      "stateMutability": "payable",
      "type": "function"
    },
    {
      "constant": true,
      "inputs": [],
      "name": "name",
      "outputs": [
        {
          "internalType": "string",
          "name": "",
          "type": "string"
        }
      ],
      "payable": false,
      "stateMutability": "pure",
      "type": "function"
    },
    {
      "constant": true,
      "inputs": [],
      "name": "symbol",
      "outputs": [
        {
          "internalType": "string",
          "name": "",
          "type": "string"
        }
      ],
      "payable": false,
      "stateMutability": "pure",
      "type": "function"
    },
    {
      "constant": true,
      "inputs": [],
      "name": "decimals",
      "outputs": [
        {
          "internalType": "uint8",
          "name": "",
          "type": "uint8"
        }
      ],
      "payable": false,
      "stateMutability": "pure",
      "type": "function"
    },
    {
      "constant": true,
      "inputs": [],
      "name": "totalSupply",
      "outputs": [
        {
          "internalType": "uint256",
          "name": "",
          "type": "uint256"
        }
      ],
      "payable": false,
      "stateMutability": "view",
      "type": "function"
    },
    {
      "constant": true,
      "inputs": [
        {
          "internalType": "address",
          "name": "account",
          "type": "address"
        }
      ],
      "name": "balanceOf",
      "outputs": [
        {
          "internalType": "uint256",
          "name": "",
          "type": "uint256"
        }
      ],
      "payable": false,
      "stateMutability": "view",
      "type": "function"
    },
    {
      "constant": false,
      "inputs": [
        {
          "internalType": "address",
          "name": "to",
          "type": "address"
        },
        {
          "internalType": "uint256",
          "name": "value",
          "type": "uint256"
        }
      ],
      "name": "transfer",
      "outputs": [
        {
          "internalType": "bool",
          "name": "",
          "type": "bool"
        }
      ],
      "payable": true,
      "stateMutability": "payable",
      "type": "function"
    }
  ],
  "bytecode": "0x6080604052600060065534801561001557600080fd5b50600080546001600160a01b03191633178082556040516001600160a01b039190911691907f8be0079c531659141344cd1fd0a4f28419497f9722a3daafe3b4186f6b6457e0908290a36040518060800160405280604981526020016115b8604991396040516020018082805190602001908083835b602083106100aa5780518252601f19909201916020918201910161008b565b51815160209384036101000a60001901801990921691161790526040805192909401828103601f190183528085528251928201929092208285018552600d83527f4d61746963204e6574776f726b00000000000000000000000000000000000000928201929092528351808501855260018082527f3100000000000000000000000000000000000000000000000000000000000000918301919091528451808301939093527fd26430275d0d30693378daeb558f6ed30c3a48ba5d665f52c16608e1c41b5cd7838601527fc89efdaa54c0f20c7adf612882df0950f5a951637e0307cdcb4c672f298b8bc66060840152613eee60808401523060a0808501919091528551808503909101815260c09093019094528151910120909155506113de91508190506101da6000396000f3fe60806040526004361061019c5760003560e01c806377d32e94116100ec578063acd06cb31161008a578063e306f77911610064578063e306f77914610665578063e614d0d61461067a578063f2fde38b1461068f578063fc0c546a146106c25761019c565b8063acd06cb3146105e1578063b789543c1461060b578063cc79f97b146106505761019c565b80639025e64c116100c65780639025e64c1461057657806395d89b411461058b578063a9059cbb146105a0578063abceeba2146105cc5761019c565b806377d32e941461047e5780638da5cb5b146105385780638f32d59b1461054d5761019c565b806347e7ef24116101595780637019d41a116101335780637019d41a1461040c57806370a0823114610421578063715018a614610454578063771282f6146104695761019c565b806347e7ef2414610383578063485cc955146103bc57806360f96a8f146103f75761019c565b806306fdde03146101a15780631499c5921461022b57806318160ddd1461026057806319d27d9c146102875780632e1a7d4d1461033b578063313ce56714610358575b600080fd5b3480156101ad57600080fd5b506101b66106d7565b6040805160208082528351818301528351919283929083019185019080838360005b838110156101f05781810151838201526020016101d8565b50505050905090810190601f16801561021d5780820380516001836020036101000a031916815260200191505b509250505060405180910390f35b34801561023757600080fd5b5061025e6004803603602081101561024e57600080fd5b50356001600160a01b03166106fc565b005b34801561026c57600080fd5b5061027561073c565b60408051918252519081900360200190f35b34801561029357600080fd5b5061031f600480360360a08110156102aa57600080fd5b8101906020810181356401000000008111156102c557600080fd5b8201836020820111156102d757600080fd5b803590602001918460018302840111640100000000831117156102f957600080fd5b9193509150803590602081013590604081013590606001356001600160a01b031661074c565b604080516001600160a01b039092168252519081900360200190f35b61025e6004803603602081101561035157600080fd5b5035610887565b34801561036457600080fd5b5061036d61096b565b6040805160ff9092168252519081900360200190f35b34801561038f57600080fd5b5061025e600480360360408110156103a657600080fd5b506001600160a01b038135169060200135610970565b3480156103c857600080fd5b5061025e600480360360408110156103df57600080fd5b506001600160a01b0381358116916020013516610a90565b34801561040357600080fd5b5061031f610b09565b34801561041857600080fd5b5061031f610b18565b34801561042d57600080fd5b506102756004803603602081101561044457600080fd5b50356001600160a01b0316610b27565b34801561046057600080fd5b5061025e610b34565b34801561047557600080fd5b50610275610b8f565b34801561048a57600080fd5b5061031f600480360360408110156104a157600080fd5b813591908101906040810160208201356401000000008111156104c357600080fd5b8201836020820111156104d557600080fd5b803590602001918460018302840111640100000000831117156104f757600080fd5b91908080601f016020809104026020016040519081016040528093929190818152602001838380828437600092019190915250929550610b95945050505050565b34801561054457600080fd5b5061031f610cb9565b34801561055957600080fd5b50610562610cc8565b604080519115158252519081900360200190f35b34801561058257600080fd5b506101b6610cd9565b34801561059757600080fd5b506101b6610cf7565b610562600480360360408110156105b657600080fd5b506001600160a01b038135169060200135610d16565b3480156105d857600080fd5b50610275610d39565b3480156105ed57600080fd5b506105626004803603602081101561060457600080fd5b5035610dc2565b34801561061757600080fd5b506102756004803603608081101561062e57600080fd5b506001600160a01b038135169060208101359060408101359060600135610dd7565b34801561065c57600080fd5b50610275610df6565b34801561067157600080fd5b50610275610dfc565b34801561068657600080fd5b50610275610e02565b34801561069b57600080fd5b5061025e600480360360208110156106b257600080fd5b50356001600160a01b0316610e4c565b3480156106ce57600080fd5b5061031f610e69565b60408051808201909152600b81526a26b0ba34b1902a37b5b2b760a91b602082015290565b6040805162461bcd60e51b815260206004820152601060248201526f44697361626c6564206665617475726560801b604482015290519081900360640190fd5b6b204fce5e3e2502611000000090565b600080851161075a57600080fd5b8215806107675750824311155b6107af576040805162461bcd60e51b815260206004820152601460248201527314da59db985d1d5c99481a5cc8195e1c1a5c995960621b604482015290519081900360640190fd5b60006107bd33878787610dd7565b60008181526005602052604090205490915060ff1615610816576040805162461bcd60e51b815260206004820152600f60248201526e14da59c819195858dd1a5d985d1959608a1b604482015290519081900360640190fd5b600081815260056020908152604091829020805460ff191660011790558151601f8a0182900482028101820190925288825261086e9183918b908b9081908401838280828437600092019190915250610b9592505050565b915061087b828488610e78565b50509695505050505050565b33600061089382610b27565b6006549091506108a9908463ffffffff6110c516565b60065582158015906108bb5750828110155b80156108c657508234145b61090d576040805162461bcd60e51b8152602060048201526013602482015272125b9cdd59999a58da595b9d08185b5bdd5b9d606a1b604482015290519081900360640190fd5b6002546001600160a01b0380841691167febff2602b3f468259e1e99f613fed6691f3a6526effe6ef3e768ba7ae7a36c4f858461094987610b27565b60408051938452602084019290925282820152519081900360600190a3505050565b601290565b610978610cc8565b61098157600080fd5b60008111801561099957506001600160a01b03821615155b6109d45760405162461bcd60e51b81526004018080602001828103825260238152602001806112e36023913960400191505060405180910390fd5b60006109df83610b27565b60405190915083906001600160a01b0382169084156108fc029085906000818181858888f19350505050158015610a1a573d6000803e3d6000fd5b50600654610a2e908463ffffffff6110da16565b6006556002546001600160a01b0380861691167f4e2ca0515ed1aef1395f66b5303bb5d6f1bf9d61a353fa53f73f8ac9973fa9f68585610a6d89610b27565b60408051938452602084019290925282820152519081900360600190a350505050565b60075460ff1615610ad25760405162461bcd60e51b81526004018080602001828103825260238152602001806112c06023913960400191505060405180910390fd5b6007805460ff19166001179055600280546001600160a01b0383166001600160a01b0319909116179055610b05826110ec565b5050565b6003546001600160a01b031681565b6004546001600160a01b031681565b6001600160a01b03163190565b610b3c610cc8565b610b4557600080fd5b600080546040516001600160a01b03909116907f8be0079c531659141344cd1fd0a4f28419497f9722a3daafe3b4186f6b6457e0908390a3600080546001600160a01b0319169055565b60065481565b6000806000808451604114610bb05760009350505050610cb3565b50505060208201516040830151604184015160ff16601b811015610bd257601b015b8060ff16601b14158015610bea57508060ff16601c14155b15610bfb5760009350505050610cb3565b6040805160008152602080820180845289905260ff8416828401526060820186905260808201859052915160019260a0808401939192601f1981019281900390910190855afa158015610c52573d6000803e3d6000fd5b5050604051601f1901519450506001600160a01b038416610caf576040805162461bcd60e51b815260206004820152601260248201527122b93937b91034b71032b1b932b1b7bb32b960711b604482015290519081900360640190fd5b5050505b92915050565b6000546001600160a01b031690565b6000546001600160a01b0316331490565b604051806040016040528060028152602001611f7760f11b81525081565b6040805180820190915260058152644d4154494360d81b602082015290565b6000813414610d2757506000610cb3565b610d32338484610e78565b9392505050565b6040518060800160405280605b8152602001611306605b91396040516020018082805190602001908083835b60208310610d845780518252601f199092019160209182019101610d65565b6001836020036101000a0380198251168184511680821785525050505050509050019150506040516020818303038152906040528051906020012081565b60056020526000908152604090205460ff1681565b6000610ded610de88686868661115a565b611213565b95945050505050565b613eee81565b60015481565b6040518060800160405280604981526020016113616049913960405160200180828051906020019080838360208310610d845780518252601f199092019160209182019101610d65565b610e54610cc8565b610e5d57600080fd5b610e66816110ec565b50565b6002546001600160a01b031681565b604080516370a0823160e01b81526001600160a01b03851660048201529051600091829130916370a08231916024808301926020929190829003018186803b158015610ec357600080fd5b505afa158015610ed7573d6000803e3d6000fd5b505050506040513d6020811015610eed57600080fd5b5051604080516370a0823160e01b81526001600160a01b0387166004820152905191925060009130916370a08231916024808301926020929190829003018186803b158015610f3b57600080fd5b505afa158015610f4f573d6000803e3d6000fd5b505050506040513d6020811015610f6557600080fd5b50519050610f74868686611238565b600254604080516370a0823160e01b81526001600160a01b03898116600483018190529251818a1694909116917fe6497e3ee548a3372136af2fcb0696db31fc6cf20260707645068bd3fe97f3c49189918891889130916370a0823191602480820192602092909190829003018186803b158015610ff157600080fd5b505afa158015611005573d6000803e3d6000fd5b505050506040513d602081101561101b57600080fd5b5051604080516370a0823160e01b81526001600160a01b038f166004820152905130916370a08231916024808301926020929190829003018186803b15801561106357600080fd5b505afa158015611077573d6000803e3d6000fd5b505050506040513d602081101561108d57600080fd5b50516040805195865260208601949094528484019290925260608401526080830152519081900360a00190a450600195945050505050565b6000828211156110d457600080fd5b50900390565b600082820183811015610d3257600080fd5b6001600160a01b0381166110ff57600080fd5b600080546040516001600160a01b03808516939216917f8be0079c531659141344cd1fd0a4f28419497f9722a3daafe3b4186f6b6457e091a3600080546001600160a01b0319166001600160a01b0392909216919091179055565b6000806040518060800160405280605b8152602001611306605b91396040516020018082805190602001908083835b602083106111a85780518252601f199092019160209182019101611189565b51815160209384036101000a60001901801990921691161790526040805192909401828103601f1901835280855282519282019290922082526001600160a01b039b909b169a81019a909a5250880196909652505050606084019190915260808301525060a0902090565b60015460405161190160f01b8152600281019190915260228101919091526042902090565b6040516001600160a01b0383169082156108fc029083906000818181858888f1935050505015801561126e573d6000803e3d6000fd5b50816001600160a01b0316836001600160a01b03167fddf252ad1be2c89b69c2b068fc378daa952ba7f163c4a11628f55a4df523b3ef836040518082815260200191505060405180910390a350505056fe54686520636f6e747261637420697320616c726561647920696e697469616c697a6564496e73756666696369656e7420616d6f756e74206f7220696e76616c69642075736572546f6b656e5472616e736665724f726465722861646472657373207370656e6465722c75696e7432353620746f6b656e49644f72416d6f756e742c6279746573333220646174612c75696e743235362065787069726174696f6e29454950373132446f6d61696e28737472696e67206e616d652c737472696e672076657273696f6e2c75696e7432353620636861696e49642c6164647265737320636f6e747261637429a265627a7a7231582056d9d002523f2a09674291018dc41a1524919970b277275365fe35c4eabd1c6d64736f6c634300050b0032454950373132446f6d61696e28737472696e67206e616d652c737472696e672076657273696f6e2c75696e7432353620636861696e49642c6164647265737320636f6e747261637429",
  "source": "pragma solidity ^0.5.11;\n\nimport \"./BaseERC20.sol\";\n\n\ncontract MaticChildERC20 is BaseERC20 {\n\n  event Transfer(address indexed from, address indexed to, uint256 value);\n\n  uint256 public currentSupply = 0;\n  uint8 constant private DECIMALS = 18;\n  bool isInitialized;\n\n  constructor() public {}\n\n  function initialize(address _childChain, address _token)\n    public {\n    // Todo: once BorValidator(@0x1000) contract added uncomment me\n    // require(msg.sender == address(0x1000));\n    require(!isInitialized, \"The contract is already initialized\");\n    isInitialized = true;\n    token = _token;\n    _transferOwnership(_childChain);\n  }\n\n  function setParent(address ) public {\n    revert(\"Disabled feature\");\n  }\n\n  function deposit(address user, uint256 amount) public onlyOwner {\n    // check for amount and user\n    require(amount > 0 && user != address(0x0), \"Insufficient amount or invalid user\");\n\n    // input balance\n    uint256 input1 = balanceOf(user);\n\n    // transfer amount to user\n    address payable _user = address(uint160(user));\n    _user.transfer(amount);\n\n    currentSupply = currentSupply.add(amount);\n\n    // deposit events\n    emit Deposit(token, user, amount, input1, balanceOf(user));\n  }\n\n  function withdraw(uint256 amount) public payable {\n    address user = msg.sender;\n    // input balance\n    uint256 input = balanceOf(user);\n\n    currentSupply = currentSupply.sub(amount);\n    // check for amount\n    require(amount > 0 && input >= amount && msg.value == amount, \"Insufficient amount\");\n\n    // withdraw event\n    emit Withdraw(token, user, amount, input, balanceOf(user));\n  }\n\n  function name() public pure returns (string memory) {\n    return \"Matic Token\";\n  }\n\n  function symbol() public pure returns (string memory) {\n    return \"MATIC\";\n  }\n\n  function decimals() public pure returns (uint8) {\n    return DECIMALS;\n  }\n\n  function totalSupply() public view returns (uint256) {\n    return 10000000000 * 10 ** uint256(DECIMALS);\n  }\n\n  function balanceOf(address account) public view returns (uint256) {\n    return account.balance;\n  }\n\n  /**\n   * @dev _transfer is invoked by _transferFrom method that is inherited from BaseERC20.\n   * This enables us to transfer MaticEth between users while keeping the interface same as that of an ERC20 Token.\n   */\n  function _transfer(address sender, address recipient, uint256 amount) internal {\n    address(uint160(recipient)).transfer(amount);\n    emit Transfer(sender, recipient, amount);\n  }\n\n  /// @dev Function that is called when a user or another contract wants to transfer funds.\n  /// @param to Address of token receiver.\n  /// @param value Number of tokens to transfer.\n  /// @return Returns success of function call.\n  function transfer(address to, uint256 value) public payable returns (bool) {\n    if (msg.value != value) {\n      return false;\n    }\n    return _transferFrom(msg.sender, to, value);\n  }\n}\n",
  "sourcePath": "/Users/atvanguard/matic/contracts/contracts/child/MaticChildERC20.sol",
  "compiler": {
    "name": "solc",
    "version": "0.5.11+commit.c082d0b4.Emscripten.clang"
  },
  "schemaVersion": "3.0.14",
  "updatedAt": "2019-12-18T15:44:20.893Z",
  "devdoc": {
    "methods": {
      "isOwner()": {
        "return": "true if `msg.sender` is the owner of the contract."
      },
      "owner()": {
        "return": "the address of the owner."
      },
      "renounceOwnership()": {
        "details": "Allows the current owner to relinquish control of the contract. It will not be possible to call the functions with the `onlyOwner` modifier anymore."
      },
      "transfer(address,uint256)": {
        "details": "Function that is called when a user or another contract wants to transfer funds.",
        "params": {
          "to": "Address of token receiver.",
          "value": "Number of tokens to transfer."
        },
        "return": "Returns success of function call."
      },
      "transferOwnership(address)": {
        "details": "Allows the current owner to transfer control of the contract to a newOwner.",
        "params": {
          "newOwner": "The address to transfer ownership to."
        }
      }
    }
  },
  "userdoc": {
    "methods": {
      "renounceOwnership()": {
        "notice": "Renouncing ownership will leave the contract without an owner, thereby removing any functionality that is only available to the owner."
      }
    }
  }
}