{
  "contractName": "Merkle",
  "abi": [
    {
      "constant": true,
      "inputs": [
        {
          "name": "leaf",
          "type": "bytes32"
        },
        {
          "name": "mainIndex",
          "type": "uint256"
        },
        {
          "name": "rootHash",
          "type": "bytes32"
        },
        {
          "name": "proof",
          "type": "bytes"
        }
      ],
      "name": "checkMembership",
      "outputs": [
        {
          "name": "",
          "type": "bool"
        }
      ],
      "payable": false,
      "stateMutability": "pure",
      "type": "function"
    }
  ],
  "bytecode": "0x6101ed610026600b82828239805160001a60731461001957fe5b30600052607381538281f3fe73000000000000000000000000000000000000000030146080604052600436106100355760003560e01c80636c8f455c1461003a575b600080fd5b6100f36004803603608081101561005057600080fd5b8135916020810135916040820135919081019060808101606082013564010000000081111561007e57600080fd5b82018360208201111561009057600080fd5b803590602001918460018302840111640100000000831117156100b257600080fd5b91908080601f016020809104026020016040519081016040528093929190818152602001838380828437600092019190915250929550610107945050505050565b604080519115158252519081900360200190f35b60008060008690506000602085518161011c57fe5b046020908102915087905b8281116101b2578681015194506002820661017257838560405160200180838152602001828152602001925050506040516020818303038152906040528051906020012093506101a4565b848460405160200180838152602001828152602001925050506040516020818303038152906040528051906020012093505b600282049150602001610127565b5050509093149594505050505056fea165627a7a7230582015815c265570112ff4d520f0b617c6bdcf2a0986bf0c96e50bcb950357d5df1d0029",
  "source": "pragma solidity ^0.5.2;\n\n\nlibrary Merkle {\n  function checkMembership(\n    bytes32 leaf,\n    uint256 mainIndex,\n    bytes32 rootHash,\n    bytes memory proof\n  ) public pure returns (bool) {\n    bytes32 proofElement;\n    bytes32 computedHash = leaf;\n    uint256 len = (proof.length / 32) * 32;\n\n    uint256 index = mainIndex;\n    for (uint256 i = 32; i <= len; i += 32) {\n      assembly {\n        proofElement := mload(add(proof, i))\n      }\n\n      if (index % 2 == 0) {\n        computedHash = keccak256(abi.encodePacked(computedHash, proofElement));\n      } else {\n        computedHash = keccak256(abi.encodePacked(proofElement, computedHash));\n      }\n\n      index = index / 2;\n    }\n    return computedHash == rootHash;\n  }\n}\n",
  "sourcePath": "/Users/arpit/projects/contracts/contracts/common/lib/Merkle.sol",
  "compiler": {
    "name": "solc",
    "version": "0.5.7+commit.6da8b019.Emscripten.clang"
  },
  "schemaVersion": "3.0.16",
  "updatedAt": "2019-09-21T10:53:38.892Z",
  "devdoc": {
    "methods": {}
  },
  "userdoc": {
    "methods": {}
  }
}