{
  "contractName": "NonceValidator",
  "abi": [
    {
      "constant": true,
      "inputs": [
        {
          "name": "headerNumber",
          "type": "uint256"
        },
        {
          "name": "headerProof",
          "type": "bytes"
        },
        {
          "name": "blockNumber",
          "type": "uint256"
        },
        {
          "name": "blockTime",
          "type": "uint256"
        },
        {
          "name": "txRoot",
          "type": "bytes32"
        },
        {
          "name": "receiptRoot",
          "type": "bytes32"
        },
        {
          "name": "path",
          "type": "bytes"
        },
        {
          "name": "txBytes",
          "type": "bytes"
        },
        {
          "name": "txProof",
          "type": "bytes"
        }
      ],
      "name": "validateTxExistence",
      "outputs": [
        {
          "name": "",
          "type": "bool"
        }
      ],
      "payable": false,
      "stateMutability": "view",
      "type": "function"
    },
    {
      "constant": false,
      "inputs": [
        {
          "name": "_withdrawManager",
          "type": "address"
        }
      ],
      "name": "setWithdrawManager",
      "outputs": [],
      "payable": false,
      "stateMutability": "nonpayable",
      "type": "function"
    },
    {
      "constant": false,
      "inputs": [
        {
          "name": "_depositManager",
          "type": "address"
        }
      ],
      "name": "setDepositManager",
      "outputs": [],
      "payable": false,
      "stateMutability": "nonpayable",
      "type": "function"
    },
    {
      "constant": true,
      "inputs": [],
      "name": "childChainContract",
      "outputs": [
        {
          "name": "",
          "type": "address"
        }
      ],
      "payable": false,
      "stateMutability": "view",
      "type": "function"
    },
    {
      "constant": true,
      "inputs": [],
      "name": "depositManager",
      "outputs": [
        {
          "name": "",
          "type": "address"
        }
      ],
      "payable": false,
      "stateMutability": "view",
      "type": "function"
    },
    {
      "constant": true,
      "inputs": [
        {
          "name": "headerNumber",
          "type": "uint256"
        },
        {
          "name": "headerProof",
          "type": "bytes"
        },
        {
          "name": "blockNumber",
          "type": "uint256"
        },
        {
          "name": "blockTime",
          "type": "uint256"
        },
        {
          "name": "txRoot",
          "type": "bytes32"
        },
        {
          "name": "receiptRoot",
          "type": "bytes32"
        },
        {
          "name": "path",
          "type": "bytes"
        },
        {
          "name": "txBytes",
          "type": "bytes"
        },
        {
          "name": "txProof",
          "type": "bytes"
        },
        {
          "name": "receiptBytes",
          "type": "bytes"
        },
        {
          "name": "receiptProof",
          "type": "bytes"
        }
      ],
      "name": "validateTx",
      "outputs": [
        {
          "name": "",
          "type": "bool"
        }
      ],
      "payable": false,
      "stateMutability": "view",
      "type": "function"
    },
    {
      "constant": false,
      "inputs": [],
      "name": "renounceOwnership",
      "outputs": [],
      "payable": false,
      "stateMutability": "nonpayable",
      "type": "function"
    },
    {
      "constant": true,
      "inputs": [],
      "name": "owner",
      "outputs": [
        {
          "name": "",
          "type": "address"
        }
      ],
      "payable": false,
      "stateMutability": "view",
      "type": "function"
    },
    {
      "constant": true,
      "inputs": [],
      "name": "isOwner",
      "outputs": [
        {
          "name": "",
          "type": "bool"
        }
      ],
      "payable": false,
      "stateMutability": "view",
      "type": "function"
    },
    {
      "constant": true,
      "inputs": [],
      "name": "rootChain",
      "outputs": [
        {
          "name": "",
          "type": "address"
        }
      ],
      "payable": false,
      "stateMutability": "view",
      "type": "function"
    },
    {
      "constant": false,
      "inputs": [],
      "name": "unlock",
      "outputs": [],
      "payable": false,
      "stateMutability": "nonpayable",
      "type": "function"
    },
    {
      "constant": true,
      "inputs": [],
      "name": "locked",
      "outputs": [
        {
          "name": "",
          "type": "bool"
        }
      ],
      "payable": false,
      "stateMutability": "view",
      "type": "function"
    },
    {
      "constant": true,
      "inputs": [
        {
          "name": "headerNumber",
          "type": "uint256"
        },
        {
          "name": "headerProof",
          "type": "bytes"
        },
        {
          "name": "blockNumber",
          "type": "uint256"
        },
        {
          "name": "blockTime",
          "type": "uint256"
        },
        {
          "name": "txRoot",
          "type": "bytes32"
        },
        {
          "name": "receiptRoot",
          "type": "bytes32"
        },
        {
          "name": "path",
          "type": "bytes"
        },
        {
          "name": "txBytes",
          "type": "bytes"
        },
        {
          "name": "txProof",
          "type": "bytes"
        },
        {
          "name": "receiptBytes",
          "type": "bytes"
        },
        {
          "name": "receiptProof",
          "type": "bytes"
        }
      ],
      "name": "validateTxReceiptExistence",
      "outputs": [
        {
          "name": "",
          "type": "bool"
        }
      ],
      "payable": false,
      "stateMutability": "view",
      "type": "function"
    },
    {
      "constant": false,
      "inputs": [
        {
          "name": "newRootChain",
          "type": "address"
        }
      ],
      "name": "changeRootChain",
      "outputs": [],
      "payable": false,
      "stateMutability": "nonpayable",
      "type": "function"
    },
    {
      "constant": true,
      "inputs": [],
      "name": "withdrawManager",
      "outputs": [
        {
          "name": "",
          "type": "address"
        }
      ],
      "payable": false,
      "stateMutability": "view",
      "type": "function"
    },
    {
      "constant": false,
      "inputs": [
        {
          "name": "newOwner",
          "type": "address"
        }
      ],
      "name": "transferOwnership",
      "outputs": [],
      "payable": false,
      "stateMutability": "nonpayable",
      "type": "function"
    },
    {
      "constant": false,
      "inputs": [
        {
          "name": "_childChainContract",
          "type": "address"
        }
      ],
      "name": "setChildChainContract",
      "outputs": [],
      "payable": false,
      "stateMutability": "nonpayable",
      "type": "function"
    },
    {
      "constant": false,
      "inputs": [],
      "name": "lock",
      "outputs": [],
      "payable": false,
      "stateMutability": "nonpayable",
      "type": "function"
    },
    {
      "anonymous": false,
      "inputs": [
        {
          "indexed": true,
          "name": "previousRootChain",
          "type": "address"
        },
        {
          "indexed": true,
          "name": "newRootChain",
          "type": "address"
        }
      ],
      "name": "RootChainChanged",
      "type": "event"
    },
    {
      "anonymous": false,
      "inputs": [
        {
          "indexed": true,
          "name": "previousOwner",
          "type": "address"
        },
        {
          "indexed": true,
          "name": "newOwner",
          "type": "address"
        }
      ],
      "name": "OwnershipTransferred",
      "type": "event"
    },
    {
      "constant": false,
      "inputs": [
        {
          "name": "tx1",
          "type": "bytes"
        },
        {
          "name": "tx2",
          "type": "bytes"
        }
      ],
      "name": "validateMisMatchedNonce",
      "outputs": [],
      "payable": false,
      "stateMutability": "nonpayable",
      "type": "function"
    }
  ],
  "bytecode": "0x6080604081905260008054600160a060020a0319163317808255600160a060020a0316917f8be0079c531659141344cd1fd0a4f28419497f9722a3daafe3b4186f6b6457e0908290a361235d806100576000396000f3006080604052600436106100ed5763ffffffff60e060020a6000350416630b3fa78c81146100f257806317e3e2e814610236578063228d71a914610259578063242fbb041461027a5780635a2ae14f146102ab5780636c7ac9d8146103425780636d4babac14610357578063715018a6146105035780638da5cb5b146105185780638f32d59b1461052d578063987ab9db14610542578063a69df4b514610557578063cf3090121461056c578063d9bcb33514610581578063e8afa8e81461072d578063ec3e9da51461074e578063f2fde38b14610763578063f3b57e6114610784578063f83d08ba146107a5575b600080fd5b3480156100fe57600080fd5b5060408051602060046024803582810135601f810185900485028601850190965285855261022295833595369560449491939091019190819084018382808284375050604080516020601f60808a01358b0180359182018390048302840183018552818452989b8a359b838c01359b958601359a60608701359a50919850965060a09094019450919281019190819084018382808284375050604080516020601f89358b018035918201839004830284018301909452808352979a99988101979196509182019450925082915084018382808284375050604080516020601f89358b018035918201839004830284018301909452808352979a9998810197919650918201945092508291508401838280828437509497506107ba9650505050505050565b604080519115158252519081900360200190f35b34801561024257600080fd5b50610257600160a060020a0360043516610bae565b005b34801561026557600080fd5b50610257600160a060020a0360043516610c05565b34801561028657600080fd5b5061028f610c5c565b60408051600160a060020a039092168252519081900360200190f35b3480156102b757600080fd5b506040805160206004803580820135601f810184900484028501840190955284845261025794369492936024939284019190819084018382808284375050604080516020601f89358b018035918201839004830284018301909452808352979a999881019791965091820194509250829150840183828082843750949750610c6b9650505050505050565b34801561034e57600080fd5b5061028f611067565b34801561036357600080fd5b5060408051602060046024803582810135601f810185900485028601850190965285855261022295833595369560449491939091019190819084018382808284375050604080516020601f60808a01358b0180359182018390048302840183018552818452989b8a359b838c01359b958601359a60608701359a50919850965060a09094019450919281019190819084018382808284375050604080516020601f89358b018035918201839004830284018301909452808352979a99988101979196509182019450925082915084018382808284375050604080516020601f89358b018035918201839004830284018301909452808352979a99988101979196509182019450925082915084018382808284375050604080516020601f89358b018035918201839004830284018301909452808352979a99988101979196509182019450925082915084018382808284375050604080516020601f89358b018035918201839004830284018301909452808352979a9998810197919650918201945092508291508401838280828437509497506110769650505050505050565b34801561050f57600080fd5b50610257611245565b34801561052457600080fd5b5061028f6112af565b34801561053957600080fd5b506102226112be565b34801561054e57600080fd5b5061028f6112cf565b34801561056357600080fd5b506102576112de565b34801561057857600080fd5b50610222611311565b34801561058d57600080fd5b5060408051602060046024803582810135601f810185900485028601850190965285855261022295833595369560449491939091019190819084018382808284375050604080516020601f60808a01358b0180359182018390048302840183018552818452989b8a359b838c01359b958601359a60608701359a50919850965060a09094019450919281019190819084018382808284375050604080516020601f89358b018035918201839004830284018301909452808352979a99988101979196509182019450925082915084018382808284375050604080516020601f89358b018035918201839004830284018301909452808352979a99988101979196509182019450925082915084018382808284375050604080516020601f89358b018035918201839004830284018301909452808352979a99988101979196509182019450925082915084018382808284375050604080516020601f89358b018035918201839004830284018301909452808352979a9998810197919650918201945092508291508401838280828437509497506113329650505050505050565b34801561073957600080fd5b50610257600160a060020a03600435166113ce565b34801561075a57600080fd5b5061028f61145f565b34801561076f57600080fd5b50610257600160a060020a036004351661146e565b34801561079057600080fd5b50610257600160a060020a036004351661148d565b3480156107b157600080fd5b506102576114e4565b600154604080517f61bbd461000000000000000000000000000000000000000000000000000000008152600481018c9052905160009283928392600160a060020a03909216916361bbd4619160248082019260809290919082900301818787803b15801561082757600080fd5b505af115801561083b573d6000803e3d6000fd5b505050506040513d608081101561085157600080fd5b8101908080519060200190929190805190602001909291908051906020019092919080519060200190929190505050905050809250819350505089898989604051808581526020018481526020018360001916600019168152602001826000191660001916815260200194505050505060405180910390206000191673__Merkle________________________________636c8f455c9091838d03858f6040518563ffffffff1660e060020a028152600401808560001916600019168152602001848152602001836000191660001916815260200180602001828103825283818151815260200191508051906020019080838360005b8381101561095f578181015183820152602001610947565b50505050905090810190601f16801561098c5780820380516001836020036101000a031916815260200191505b509550505050505060206040518083038186803b1580156109ac57600080fd5b505af41580156109c0573d6000803e3d6000fd5b505050506040513d60208110156109d657600080fd5b50518015610b9e575073__MerklePatriciaProof___________________6379d1d4fa8688878c6040518563ffffffff1660e060020a028152600401808060200180602001806020018560001916600019168152602001848103845288818151815260200191508051906020019080838360005b83811015610a62578181015183820152602001610a4a565b50505050905090810190601f168015610a8f5780820380516001836020036101000a031916815260200191505b50848103835287518152875160209182019189019080838360005b83811015610ac2578181015183820152602001610aaa565b50505050905090810190601f168015610aef5780820380516001836020036101000a031916815260200191505b50848103825286518152865160209182019188019080838360005b83811015610b22578181015183820152602001610b0a565b50505050905090810190601f168015610b4f5780820380516001836020036101000a031916815260200191505b5097505050505050505060206040518083038186803b158015610b7157600080fd5b505af4158015610b85573d6000803e3d6000fd5b505050506040513d6020811015610b9b57600080fd5b50515b9c9b505050505050505050505050565b610bb66112be565b1515610bc157600080fd5b600160a060020a0381161515610bd657600080fd5b6003805473ffffffffffffffffffffffffffffffffffffffff1916600160a060020a0392909216919091179055565b610c0d6112be565b1515610c1857600080fd5b600160a060020a0381161515610c2d57600080fd5b6002805473ffffffffffffffffffffffffffffffffffffffff1916600160a060020a0392909216919091179055565b600454600160a060020a031681565b60606000806000846040518082805190602001908083835b60208310610ca25780518252601f199092019160209182019101610c83565b51815160209384036101000a60001901801990921691161790526040519190930181900381208b519095508b945090928392508401908083835b60208310610cfb5780518252601f199092019160209182019101610cdc565b6001836020036101000a03801982511681845116808217855250505050505090500191505060405180910390206000191614151515610d3957600080fd5b610d4a610d458761152e565b611581565b9350610e23610d70856000815181101515610d6157fe5b90602001906020020151611636565b610d91866001815181101515610d8257fe5b9060200190602002015161167f565b610da3876002815181101515610d6157fe5b610db5886003815181101515610d6157fe5b610dd6896004815181101515610dc757fe5b906020019060200201516116e1565b610de88a6005815181101515610dc757fe5b610dfa8b6006815181101515610d8257fe5b610e0c8c6007815181101515610d8257fe5b610e1e8d6008815181101515610d8257fe5b6107ba565b1515610e2e57600080fd5b610e48610e43856007815181101515610d8257fe5b6116f2565b9250610e7b610e6e856007815181101515610e5f57fe5b90602001906020020151611581565b80516000908110610d6157fe5b9150610ed2610ea1856006815181101515610e9257fe5b90602001906020020151611716565b610ec662989680610eba886002815181101515610d6157fe5b9063ffffffff61173c16565b9063ffffffff61177516565b9050610ee0610d458661152e565b9350610ef7610d70856000815181101515610d6157fe5b1515610f0257600080fd5b82600160a060020a0316610f21610e43866007815181101515610d8257fe5b600160a060020a031614610f3457600080fd5b80610f63610f4a866006815181101515610e9257fe5b610ec662989680610eba896002815181101515610d6157fe5b11610f6d57600080fd5b81610f83610e6e866007815181101515610e5f57fe5b11610ff857600160009054906101000a9004600160a060020a0316600160a060020a0316632da25de36040518163ffffffff1660e060020a028152600401600060405180830381600087803b158015610fdb57600080fd5b505af1158015610fef573d6000803e3d6000fd5b5050505061105f565b604080517f08c379a000000000000000000000000000000000000000000000000000000000815260206004820152601760248201527f496e76616c6964206e6f6e6365206368616c6c656e6765000000000000000000604482015290519081900360640190fd5b505050505050565b600254600160a060020a031681565b60006110806122f9565b606060006110978f8f8f8f8f8f8f8f8f8f8f611332565b15806110a257508751155b806110ac57508551155b156110ba5760009350611233565b6110c38861152e565b92506110ce83611787565b15806110e457506110de83611581565b51600914155b156110f25760009350611233565b6110fb8661152e565b925061110683611787565b15156111155760009350611233565b61111e83611581565b91508151600414158061114f575061114d82600381518110151561113e57fe5b90602001906020020151611787565b155b1561115d5760009350611233565b61116f826003815181101515610e5f57fe5b915060008251111561122e575060005b81518160ff16101561122e5761119f828260ff1681518110151561113e57fe5b15806111bf575060026111bc838360ff16815181101515610e5f57fe5b51105b806111eb57506111e96111dc838360ff16815181101515610e5f57fe5b8051600190811061113e57fe5b155b806112185750611215611208838360ff16815181101515610e5f57fe5b80516001908110610e5f57fe5b51155b156112265760009350611233565b60010161117f565b600193505b5050509b9a5050505050505050505050565b61124d6112be565b151561125857600080fd5b60008054604051600160a060020a03909116907f8be0079c531659141344cd1fd0a4f28419497f9722a3daafe3b4186f6b6457e0908390a36000805473ffffffffffffffffffffffffffffffffffffffff19169055565b600054600160a060020a031690565b600054600160a060020a0316331490565b600154600160a060020a031681565b6112e66112be565b15156112f157600080fd5b6001805474ff000000000000000000000000000000000000000019169055565b60015474010000000000000000000000000000000000000000900460ff1681565b60006113458c8c8c8c8c8c8c8c8c6107ba565b8015610b9e575073__MerklePatriciaProof___________________6379d1d4fa8488858b6040518563ffffffff1660e060020a0281526004018080602001806020018060200185600019166000191681526020018481038452888181518152602001915080519060200190808383600083811015610a62578181015183820152602001610a4a565b6113d66112be565b15156113e157600080fd5b600160a060020a03811615156113f657600080fd5b600154604051600160a060020a038084169216907f211c9015fc81c0dbd45bd99f0f29fc1c143bfd53442d5ffd722bbbef7a887fe990600090a36001805473ffffffffffffffffffffffffffffffffffffffff1916600160a060020a0392909216919091179055565b600354600160a060020a031681565b6114766112be565b151561148157600080fd5b61148a816117b1565b50565b6114956112be565b15156114a057600080fd5b600160a060020a03811615156114b557600080fd5b6004805473ffffffffffffffffffffffffffffffffffffffff1916600160a060020a0392909216919091179055565b6114ec6112be565b15156114f757600080fd5b6001805474ff0000000000000000000000000000000000000000191674010000000000000000000000000000000000000000179055565b6115366122f9565b8151600081151561155c576040805180820190915260008082526020820152925061157a565b60208401905060408051908101604052808281526020018381525092505b5050919050565b6060600061158d612310565b600061159885611787565b15156115a357600080fd5b6115ac8561182e565b9250826040519080825280602002602001820160405280156115e857816020015b6115d56122f9565b8152602001906001900390816115cd5790505b5093506115f48561189e565b91505b611600826118d7565b1561162e5761160e826118f6565b848281518110151561161c57fe5b602090810290910101526001016115f7565b505050919050565b600080600061164484611938565b151561164f57600080fd5b61165884611961565b9092509050602081111561166b57600080fd5b806020036101000a82510492505050919050565b606060008061168d84611938565b151561169857600080fd5b6116a184611961565b91509150806040519080825280601f01601f1916602001820160405280156116d3578160200160208202803883390190505b50925061157a8284836119de565b60006116ec82611636565b92915050565b60006060611702610d458461152e565b905061170d81611a1e565b91505b50919050565b60006116ec61173761172d61173261172d8661167f565b61152e565b61167f565b611636565b60008083151561174f576000915061176e565b5082820282848281151561175f57fe5b041461176a57600080fd5b8091505b5092915050565b60008282018381101561176a57600080fd5b6000808260200151600014156117a05760009150611710565b5050515160c060009190911a101590565b600160a060020a03811615156117c657600080fd5b60008054604051600160a060020a03808516939216917f8be0079c531659141344cd1fd0a4f28419497f9722a3daafe3b4186f6b6457e091a36000805473ffffffffffffffffffffffffffffffffffffffff1916600160a060020a0392909216919091179055565b60008060008060008061184087611787565b151561184f5760009550611894565b8651805160001a9550935061186387611f04565b840192506001876020015185010391505b8183116118905761188483611f84565b90920191600101611874565b8095505b5050505050919050565b6118a6612310565b60006118b183611787565b15156118bc57600080fd5b6118c583611f04565b83519383529092016020820152919050565b60006118e16122f9565b50508051602080820151915192015191011190565b6118fe6122f9565b60008061190a846118d7565b156100ed578360200151915061191f82611f84565b828452602080850182905283820190860152905061157a565b6000808260200151600014156119515760009150611710565b5050515160c060009190911a1090565b600080600080600061197286611938565b151561197d57600080fd5b8551805160001a93509150608083101561199d57819450600193506119d6565b60b88310156119bb57600186602001510393508160010194506119d6565b60b78303905080600187602001510303935080820160010194505b505050915091565b60006020601f83010484602085015b828414611a0b576020840282810151908201526001909301926119ed565b6000865160200187015250505050505050565b60408051600980825261014082019092526000916060918391816020015b6060815260200190600190039081611a3c579050509150600090505b600560ff821611611a9a57611a77848260ff16815181101515610d8257fe5b828260ff16815181101515611a8857fe5b60209081029091010152600101611a58565b604080516020810190915260008152825183906004908110611ab857fe5b60209081029091010152600154604080517f9025e64c0000000000000000000000000000000000000000000000000000000081529051600160a060020a0390921691639025e64c9160048082019260009290919082900301818387803b158015611b2157600080fd5b505af1158015611b35573d6000803e3d6000fd5b505050506040513d6000823e601f3d908101601f191682016040526020811015611b5e57600080fd5b810190808051640100000000811115611b7657600080fd5b82016020810184811115611b8957600080fd5b8151640100000000811182820187101715611ba357600080fd5b50508551909350859250600691508110611bb957fe5b906020019060200201819052506020604051908101604052806000815250826007815181101515611be657fe5b906020019060200201819052506020604051908101604052806000815250826008815181101515611c1357fe5b602090810290910101526001611c2883612011565b6040518082805190602001908083835b60208310611c575780518252601f199092019160209182019101611c38565b6001836020036101000a038019825116818451168082178552505050505050905001915050604051809103902073__Common________________________________63261737b2611cb0886006815181101515610d8257fe5b73__Common________________________________637ae93b19886006815181101515611cd957fe5b906020019060200201516040518263ffffffff1660e060020a0281526004018080602001828103825283818151815260200191508051906020019080838360005b83811015611d32578181015183820152602001611d1a565b50505050905090810190601f168015611d5f5780820380516001836020036101000a031916815260200191505b509250505060206040518083038186803b158015611d7c57600080fd5b505af4158015611d90573d6000803e3d6000fd5b505050506040513d6020811015611da657600080fd5b50516040805160e060020a63ffffffff861602815260ff8316602482015260048101918252835160448201528351829160640190602086019080838360005b83811015611dfd578181015183820152602001611de5565b50505050905090810190601f168015611e2a5780820380516001836020036101000a031916815260200191505b50935050505060206040518083038186803b158015611e4857600080fd5b505af4158015611e5c573d6000803e3d6000fd5b505050506040513d6020811015611e7257600080fd5b50518651611e879088906007908110610dc757fe5b611e99886008815181101515610dc757fe5b60408051600080825260208083018085529790975260ff90951681830152606081019390935260808301919091525160a08083019493601f198301938390039091019190865af1158015611ef1573d6000803e3d6000fd5b5050604051601f19015195945050505050565b6000806000836020015160001415611f1f576000925061157a565b50508151805160001a906080821015611f3b576000925061157a565b60b8821080611f56575060c08210158015611f56575060f882105b15611f64576001925061157a565b60c0821015611f795760b5198201925061157a565b5060f5190192915050565b8051600090811a6080811015611f9d5760019150611710565b60b8811015611fb257607e1981019150611710565b60c0811015611fdb57600183015160b76020839003016101000a9004810160b519019150611710565b60f8811015611ff05760be1981019150611710565b6001929092015160f76020849003016101000a900490910160f51901919050565b60608060005b83518110156120535761204982612044868481518110151561203557fe5b90602001906020020151612070565b6120eb565b9150600101612017565b612068612062835160c0612166565b836120eb565b949350505050565b606080825160011480156120a35750608083600081518110151561209057fe5b016020015160f860020a90819004810204105b156120cf576040805160018082528183019092529060208083019080388339508593506116ec92505050565b6120e46120de84516080612166565b846120eb565b9392505050565b6060806040519050835180825260208201818101602087015b8183101561211c578051835260209283019201612104565b50855184518101855292509050808201602086015b81831015612149578051835260209283019201612131565b509551919091011594909401601f01601f19166040529392505050565b60608060008060608060388810156121e857604080516001808252818301909252906020808301908038833901905050945086880160f860020a028560008151811015156121b057fe5b9060200101907effffffffffffffffffffffffffffffffffffffffffffffffffffffffffffff1916908160001a905350849550612239565b600192505b82888115156121f857fe5b04156122115760019093019261010092909202916121ed565b61221f848860370101612244565b915061222a88612244565b905061223682826120eb565b95505b505050505092915050565b60606001600060ff84111561225857600291505b816040519080825280601f01601f191660200182016040528015612286578160200160208202803883390190505b509250600090505b8181101561157a5780600183030360080260020a848115156122ac57fe5b0460f860020a0283828151811015156122c157fe5b9060200101907effffffffffffffffffffffffffffffffffffffffffffffffffffffffffffff1916908160001a90535060010161228e565b604080518082019091526000808252602082015290565b6060604051908101604052806123246122f9565b81526020016000815250905600a165627a7a723058208518ba787784692c1a6bcd1fad5e631c5dbc34c5f5c9d17b287afeac61d579bf0029",
  "source": "pragma solidity ^0.4.24;\n\nimport { SafeMath } from \"openzeppelin-solidity/contracts/math/SafeMath.sol\";\n\nimport { RLP } from \"../lib/RLP.sol\";\n\nimport { RootChainValidator } from \"../mixin/RootChainValidator.sol\";\nimport { IRootChain } from \"../root/IRootChain.sol\";\n\n\ncontract NonceValidator is RootChainValidator {\n  using SafeMath for uint256;\n  using RLP for bytes;\n  using RLP for RLP.RLPItem;\n  using RLP for RLP.Iterator;\n\n  function validateMisMatchedNonce(\n    bytes tx1,\n    bytes tx2\n  ) public {\n    // check if both transactions are not same\n    require(keccak256(tx1) != keccak256(tx2));\n\n    // validate first transaction\n    RLP.RLPItem[] memory txData = tx1.toRLPItem().toList();\n    require(\n      validateTxExistence(\n        txData[0].toUint(), // headerNumber\n        txData[1].toData(), // headerProof,\n\n        txData[2].toUint(), // blockNumber,\n        txData[3].toUint(), // blockTime,\n\n        txData[4].toBytes32(), // txRoot,\n        txData[5].toBytes32(), // receiptRoot,\n        txData[6].toData(), // path,\n\n        txData[7].toData(), // txBytes,\n        txData[8].toData() // txProof\n      )\n    );\n\n    address sender = getTxSender(txData[7].toData());\n    uint256 nonce = txData[7].toList()[0].toUint(); // fetch nonce\n    uint256 txIndex = txData[2].toUint().mul(10000000).add(getPathInt(txData[6])); // blockNumber * 10000000 + tx index in block\n\n    // validate second transaction\n    txData = tx2.toRLPItem().toList();\n    require(\n      validateTxExistence(\n        txData[0].toUint(), // headerNumber\n        txData[1].toData(), // headerProof,\n\n        txData[2].toUint(), // blockNumber,\n        txData[3].toUint(), // blockTime,\n\n        txData[4].toBytes32(), // txRoot,\n        txData[5].toBytes32(), // receiptRoot,\n        txData[6].toData(), // path,\n\n        txData[7].toData(), // txBytes,\n        txData[8].toData() // txProof\n      )\n    );\n\n    // check if sender is the same in both transactions\n    require(getTxSender(txData[7].toData()) == sender);\n    // make sure tx2 is included after tx1\n    require (\n      txData[2].toUint().mul(10000000).add(getPathInt(txData[6])) > txIndex\n    );\n\n    // check if both nonce values are same or nonce2 < nonce1, just call slasher\n    if (txData[7].toList()[0].toUint() <= nonce) {\n      IRootChain(rootChain).slash();\n      return;\n    }\n\n    // revert the operation\n    revert(\"Invalid nonce challenge\");\n  }\n\n  function getPathInt(RLP.RLPItem path) internal view returns (uint256) {\n    return path.toData().toRLPItem().toData().toRLPItem().toUint();\n  }\n}\n",
  "sourcePath": "/Users/atvanguard/matic/contracts/contracts/proofs/NonceValidator.sol",
  "compiler": {
    "name": "solc",
    "version": "0.4.24+commit.e67f0147.Emscripten.clang"
  },
  "schemaVersion": "2.0.1",
  "updatedAt": "2019-12-07T09:11:33.322Z"
}