{
  "contractName": "PredicateUtils",
  "abi": [
    {
      "constant": true,
      "inputs": [],
      "name": "networkId",
      "outputs": [
        {
          "internalType": "bytes",
          "name": "",
          "type": "bytes"
        }
      ],
      "payable": false,
      "stateMutability": "view",
      "type": "function"
    },
    {
      "constant": true,
      "inputs": [],
      "name": "CHAINID",
      "outputs": [
        {
          "internalType": "uint256",
          "name": "",
          "type": "uint256"
        }
      ],
      "payable": false,
      "stateMutability": "view",
      "type": "function"
    },
    {
      "constant": false,
      "inputs": [
        {
          "internalType": "bytes",
          "name": "data",
          "type": "bytes"
        }
      ],
      "name": "onFinalizeExit",
      "outputs": [],
      "payable": false,
      "stateMutability": "nonpayable",
      "type": "function"
    }
  ],
  "bytecode": "0x608060405234801561001057600080fd5b50610303806100206000396000f3fe608060405234801561001057600080fd5b50600436106100415760003560e01c80637bd94e03146100465780639025e64c146100b8578063cc79f97b14610135575b600080fd5b6100b66004803603602081101561005c57600080fd5b81019060208101813564010000000081111561007757600080fd5b82018360208201111561008957600080fd5b803590602001918460018302840111640100000000831117156100ab57600080fd5b50909250905061014f565b005b6100c061026d565b6040805160208082528351818301528351919283929083019185019080838360005b838110156100fa5781810151838201526020016100e2565b50505050905090810190601f1680156101275780820380516001836020036101000a031916815260200191505b509250505060405180910390f35b61013d61028b565b60408051918252519081900360200190f35b6000546001600160a01b031633146101a6576040805162461bcd60e51b815260206004820152601560248201527427a7262cafaba4aa24222920abafa6a0a720a3a2a960591b604482015290519081900360640190fd5b60008060006101ea85858080601f01602080910402602001604051908101604052809392919081815260200183838082843760009201919091525061029192505050565b600154604080516349f4cc1760e01b81526001600160a01b03808716600483015280861660248301526044820185905291519599509397509195501692506349f4cc1791606480830192600092919082900301818387803b15801561024e57600080fd5b505af1158015610262573d6000803e3d6000fd5b505050505050505050565b604051806040016040528060028152602001611f7760f11b81525081565b613eee81565b6000806000808480602001905160808110156102ac57600080fd5b508051602082015160408301516060909301519198909750919550935091505056fea265627a7a72315820af660dd116b9d0ad6dae1dd8c86a79561bf873091ee78d769cc8e4edc4e8145064736f6c634300050b0032",
  "source": "pragma solidity ^0.5.2;\n\nimport { Common } from \"../../common/lib/Common.sol\";\nimport { RLPEncode } from \"../../common/lib/RLPEncode.sol\";\nimport { RLPReader } from \"solidity-rlp/contracts/RLPReader.sol\";\nimport { IWithdrawManager } from \"../withdrawManager/IWithdrawManager.sol\";\nimport { IDepositManager } from \"../depositManager/IDepositManager.sol\";\nimport { ExitsDataStructure } from \"../withdrawManager/WithdrawManagerStorage.sol\";\nimport { ChainIdMixin } from \"../../common/mixin/ChainIdMixin.sol\";\n\ninterface IPredicate {\n  /**\n   * @notice Verify the deprecation of a state update\n   * @param exit ABI encoded PlasmaExit data\n   * @param inputUtxo ABI encoded Input UTXO data\n   * @param challengeData RLP encoded data of the challenge reference tx that encodes the following fields\n   * headerNumber Header block number of which the reference tx was a part of\n   * blockProof Proof that the block header (in the child chain) is a leaf in the submitted merkle root\n   * blockNumber Block number of which the reference tx is a part of\n   * blockTime Reference tx block time\n   * blocktxRoot Transactions root of block\n   * blockReceiptsRoot Receipts root of block\n   * receipt Receipt of the reference transaction\n   * receiptProof Merkle proof of the reference receipt\n   * branchMask Merkle proof branchMask for the receipt\n   * logIndex Log Index to read from the receipt\n   * tx Challenge transaction\n   * txProof Merkle proof of the challenge tx\n   * @return Whether or not the state is deprecated\n   */\n  function verifyDeprecation(bytes calldata exit, bytes calldata inputUtxo, bytes calldata challengeData) external returns (bool);\n\n  function interpretStateUpdate(bytes calldata state) external view returns (bytes memory);\n  function onFinalizeExit(bytes calldata data) external;\n}\n\ncontract PredicateUtils is ExitsDataStructure, ChainIdMixin {\n  using RLPReader for RLPReader.RLPItem;\n\n  // Bonded exits collaterized at 0.1 ETH\n  uint256 constant private BOND_AMOUNT = 10 ** 17;\n\n  IWithdrawManager internal withdrawManager;\n  IDepositManager internal depositManager;\n\n  modifier onlyWithdrawManager() {\n    require(\n      msg.sender == address(withdrawManager),\n      \"ONLY_WITHDRAW_MANAGER\"\n    );\n    _;\n  }\n\n  modifier isBondProvided() {\n    require(\n      msg.value == BOND_AMOUNT,\n      \"Invalid Bond amount\"\n    );\n    _;\n  }\n\n  function sendBond() internal {\n    address(uint160(address(withdrawManager))).transfer(BOND_AMOUNT);\n  }\n\n  function onFinalizeExit(bytes calldata data)\n    external\n    onlyWithdrawManager\n  {\n    (, address token, address exitor, uint256 tokenId) = decodeExitForProcessExit(data);\n    depositManager.transferAssets(token, exitor, tokenId);\n  }\n\n  function getAddressFromTx(RLPReader.RLPItem[] memory txList)\n    internal\n    pure\n    returns (address signer, bytes32 txHash)\n  {\n    bytes[] memory rawTx = new bytes[](9);\n    for (uint8 i = 0; i <= 5; i++) {\n      rawTx[i] = txList[i].toBytes();\n    }\n    rawTx[6] = networkId;\n    rawTx[7] = hex\"\"; // [7] and [8] have something to do with v, r, s values\n    rawTx[8] = hex\"\";\n\n    txHash = keccak256(RLPEncode.encodeList(rawTx));\n    signer = ecrecover(\n      txHash,\n      Common.getV(txList[6].toBytes(), Common.toUint16(networkId)),\n      bytes32(txList[7].toUint()),\n      bytes32(txList[8].toUint())\n    );\n  }\n\n  function decodeExit(bytes memory data)\n    internal\n    pure\n    returns (PlasmaExit memory)\n  {\n    (address owner, address token, uint256 amountOrTokenId, bytes32 txHash, bool isRegularExit) = abi.decode(data, (address, address, uint256, bytes32, bool));\n    return PlasmaExit(amountOrTokenId, txHash, owner, token, isRegularExit, address(0) /* predicate value is not required */);\n  }\n\n  function decodeExitForProcessExit(bytes memory data)\n    internal\n    pure\n    returns (uint256 exitId, address token, address exitor, uint256 tokenId)\n  {\n    (exitId, token, exitor, tokenId) = abi.decode(\n      data, (uint256, address, address, uint256)\n    );\n  }\n\n  function decodeInputUtxo(bytes memory data)\n    internal\n    pure\n    returns (uint256 age, address signer, address predicate, address token)\n  {\n    (age, signer, predicate, token) = abi.decode(data, (uint256, address, address, address));\n  }\n}\n\ncontract IErcPredicate is IPredicate, PredicateUtils {\n  enum ExitType { Invalid, OutgoingTransfer, IncomingTransfer, Burnt }\n\n  struct ExitTxData {\n    uint256 amountOrToken;\n    bytes32 txHash;\n    address childToken;\n    address signer;\n    ExitType exitType;\n  }\n\n  struct ReferenceTxData {\n    uint256 closingBalance;\n    uint256 age;\n    address childToken;\n    address rootToken;\n  }\n\n  uint256 constant internal MAX_LOGS = 10;\n\n  constructor(address _withdrawManager, address _depositManager) public {\n    withdrawManager = IWithdrawManager(_withdrawManager);\n    depositManager = IDepositManager(_depositManager);\n  }\n}\n",
  "sourcePath": "/Users/atvanguard/matic/contracts/contracts/root/predicates/IPredicate.sol",
  "compiler": {
    "name": "solc",
    "version": "0.5.11+commit.c082d0b4.Emscripten.clang"
  },
  "schemaVersion": "3.0.14",
  "updatedAt": "2019-12-18T15:44:21.003Z",
  "devdoc": {
    "methods": {}
  },
  "userdoc": {
    "methods": {}
  }
}