{
  "contractName": "Registry",
  "abi": [
    {
      "constant": true,
      "inputs": [
        {
          "name": "",
          "type": "address"
        }
      ],
      "name": "predicates",
      "outputs": [
        {
          "name": "_type",
          "type": "uint8"
        }
      ],
      "payable": false,
      "stateMutability": "view",
      "type": "function"
    },
    {
      "constant": true,
      "inputs": [
        {
          "name": "",
          "type": "address"
        }
      ],
      "name": "childToRootToken",
      "outputs": [
        {
          "name": "",
          "type": "address"
        }
      ],
      "payable": false,
      "stateMutability": "view",
      "type": "function"
    },
    {
      "constant": false,
      "inputs": [],
      "name": "renounceOwnership",
      "outputs": [],
      "payable": false,
      "stateMutability": "nonpayable",
      "type": "function"
    },
    {
      "constant": true,
      "inputs": [],
      "name": "owner",
      "outputs": [
        {
          "name": "",
          "type": "address"
        }
      ],
      "payable": false,
      "stateMutability": "view",
      "type": "function"
    },
    {
      "constant": true,
      "inputs": [],
      "name": "isOwner",
      "outputs": [
        {
          "name": "",
          "type": "bool"
        }
      ],
      "payable": false,
      "stateMutability": "view",
      "type": "function"
    },
    {
      "constant": true,
      "inputs": [],
      "name": "networkId",
      "outputs": [
        {
          "name": "",
          "type": "bytes"
        }
      ],
      "payable": false,
      "stateMutability": "view",
      "type": "function"
    },
    {
      "constant": true,
      "inputs": [],
      "name": "erc20Predicate",
      "outputs": [
        {
          "name": "",
          "type": "address"
        }
      ],
      "payable": false,
      "stateMutability": "view",
      "type": "function"
    },
    {
      "constant": true,
      "inputs": [
        {
          "name": "",
          "type": "address"
        }
      ],
      "name": "proofValidatorContracts",
      "outputs": [
        {
          "name": "",
          "type": "bool"
        }
      ],
      "payable": false,
      "stateMutability": "view",
      "type": "function"
    },
    {
      "constant": true,
      "inputs": [],
      "name": "erc721Predicate",
      "outputs": [
        {
          "name": "",
          "type": "address"
        }
      ],
      "payable": false,
      "stateMutability": "view",
      "type": "function"
    },
    {
      "constant": true,
      "inputs": [
        {
          "name": "",
          "type": "address"
        }
      ],
      "name": "isERC721",
      "outputs": [
        {
          "name": "",
          "type": "bool"
        }
      ],
      "payable": false,
      "stateMutability": "view",
      "type": "function"
    },
    {
      "constant": true,
      "inputs": [
        {
          "name": "",
          "type": "address"
        }
      ],
      "name": "rootToChildToken",
      "outputs": [
        {
          "name": "",
          "type": "address"
        }
      ],
      "payable": false,
      "stateMutability": "view",
      "type": "function"
    },
    {
      "constant": false,
      "inputs": [
        {
          "name": "newOwner",
          "type": "address"
        }
      ],
      "name": "transferOwnership",
      "outputs": [],
      "payable": false,
      "stateMutability": "nonpayable",
      "type": "function"
    },
    {
      "anonymous": false,
      "inputs": [
        {
          "indexed": true,
          "name": "rootToken",
          "type": "address"
        },
        {
          "indexed": true,
          "name": "childToken",
          "type": "address"
        }
      ],
      "name": "TokenMapped",
      "type": "event"
    },
    {
      "anonymous": false,
      "inputs": [
        {
          "indexed": true,
          "name": "validator",
          "type": "address"
        },
        {
          "indexed": true,
          "name": "from",
          "type": "address"
        }
      ],
      "name": "ProofValidatorAdded",
      "type": "event"
    },
    {
      "anonymous": false,
      "inputs": [
        {
          "indexed": true,
          "name": "validator",
          "type": "address"
        },
        {
          "indexed": true,
          "name": "from",
          "type": "address"
        }
      ],
      "name": "ProofValidatorRemoved",
      "type": "event"
    },
    {
      "anonymous": false,
      "inputs": [
        {
          "indexed": true,
          "name": "predicate",
          "type": "address"
        },
        {
          "indexed": true,
          "name": "from",
          "type": "address"
        }
      ],
      "name": "PredicateAdded",
      "type": "event"
    },
    {
      "anonymous": false,
      "inputs": [
        {
          "indexed": true,
          "name": "predicate",
          "type": "address"
        },
        {
          "indexed": true,
          "name": "from",
          "type": "address"
        }
      ],
      "name": "PredicateRemoved",
      "type": "event"
    },
    {
      "anonymous": false,
      "inputs": [
        {
          "indexed": true,
          "name": "key",
          "type": "bytes32"
        },
        {
          "indexed": true,
          "name": "previousContract",
          "type": "address"
        },
        {
          "indexed": true,
          "name": "newContract",
          "type": "address"
        }
      ],
      "name": "ContractMapUpdated",
      "type": "event"
    },
    {
      "anonymous": false,
      "inputs": [
        {
          "indexed": true,
          "name": "previousOwner",
          "type": "address"
        },
        {
          "indexed": true,
          "name": "newOwner",
          "type": "address"
        }
      ],
      "name": "OwnershipTransferred",
      "type": "event"
    },
    {
      "constant": false,
      "inputs": [
        {
          "name": "_key",
          "type": "bytes32"
        },
        {
          "name": "_address",
          "type": "address"
        }
      ],
      "name": "updateContractMap",
      "outputs": [],
      "payable": false,
      "stateMutability": "nonpayable",
      "type": "function"
    },
    {
      "constant": false,
      "inputs": [
        {
          "name": "_rootToken",
          "type": "address"
        },
        {
          "name": "_childToken",
          "type": "address"
        },
        {
          "name": "_isERC721",
          "type": "bool"
        }
      ],
      "name": "mapToken",
      "outputs": [],
      "payable": false,
      "stateMutability": "nonpayable",
      "type": "function"
    },
    {
      "constant": false,
      "inputs": [
        {
          "name": "_validator",
          "type": "address"
        }
      ],
      "name": "addProofValidator",
      "outputs": [],
      "payable": false,
      "stateMutability": "nonpayable",
      "type": "function"
    },
    {
      "constant": false,
      "inputs": [
        {
          "name": "predicate",
          "type": "address"
        }
      ],
      "name": "addErc20Predicate",
      "outputs": [],
      "payable": false,
      "stateMutability": "nonpayable",
      "type": "function"
    },
    {
      "constant": false,
      "inputs": [
        {
          "name": "predicate",
          "type": "address"
        }
      ],
      "name": "addErc721Predicate",
      "outputs": [],
      "payable": false,
      "stateMutability": "nonpayable",
      "type": "function"
    },
    {
      "constant": false,
      "inputs": [
        {
          "name": "predicate",
          "type": "address"
        },
        {
          "name": "_type",
          "type": "uint8"
        }
      ],
      "name": "addPredicate",
      "outputs": [],
      "payable": false,
      "stateMutability": "nonpayable",
      "type": "function"
    },
    {
      "constant": false,
      "inputs": [
        {
          "name": "predicate",
          "type": "address"
        }
      ],
      "name": "removePredicate",
      "outputs": [],
      "payable": false,
      "stateMutability": "nonpayable",
      "type": "function"
    },
    {
      "constant": false,
      "inputs": [
        {
          "name": "_validator",
          "type": "address"
        }
      ],
      "name": "removeProofValidator",
      "outputs": [],
      "payable": false,
      "stateMutability": "nonpayable",
      "type": "function"
    },
    {
      "constant": true,
      "inputs": [],
      "name": "getDelegationManagerAddress",
      "outputs": [
        {
          "name": "",
          "type": "address"
        }
      ],
      "payable": false,
      "stateMutability": "view",
      "type": "function"
    },
    {
      "constant": true,
      "inputs": [],
      "name": "getWethTokenAddress",
      "outputs": [
        {
          "name": "",
          "type": "address"
        }
      ],
      "payable": false,
      "stateMutability": "view",
      "type": "function"
    },
    {
      "constant": true,
      "inputs": [],
      "name": "getDepositManagerAddress",
      "outputs": [
        {
          "name": "",
          "type": "address"
        }
      ],
      "payable": false,
      "stateMutability": "view",
      "type": "function"
    },
    {
      "constant": true,
      "inputs": [],
      "name": "getStakeManagerAddress",
      "outputs": [
        {
          "name": "",
          "type": "address"
        }
      ],
      "payable": false,
      "stateMutability": "view",
      "type": "function"
    },
    {
      "constant": true,
      "inputs": [],
      "name": "getSlashingManagerAddress",
      "outputs": [
        {
          "name": "",
          "type": "address"
        }
      ],
      "payable": false,
      "stateMutability": "view",
      "type": "function"
    },
    {
      "constant": true,
      "inputs": [],
      "name": "getWithdrawManagerAddress",
      "outputs": [
        {
          "name": "",
          "type": "address"
        }
      ],
      "payable": false,
      "stateMutability": "view",
      "type": "function"
    },
    {
      "constant": true,
      "inputs": [],
      "name": "getChildChainAndStateSender",
      "outputs": [
        {
          "name": "",
          "type": "address"
        },
        {
          "name": "",
          "type": "address"
        }
      ],
      "payable": false,
      "stateMutability": "view",
      "type": "function"
    },
    {
      "constant": true,
      "inputs": [
        {
          "name": "_token",
          "type": "address"
        }
      ],
      "name": "isTokenMapped",
      "outputs": [
        {
          "name": "",
          "type": "bool"
        }
      ],
      "payable": false,
      "stateMutability": "view",
      "type": "function"
    },
    {
      "constant": true,
      "inputs": [
        {
          "name": "_token",
          "type": "address"
        }
      ],
      "name": "isTokenMappedAndIsErc721",
      "outputs": [
        {
          "name": "",
          "type": "bool"
        }
      ],
      "payable": false,
      "stateMutability": "view",
      "type": "function"
    },
    {
      "constant": true,
      "inputs": [
        {
          "name": "_token",
          "type": "address"
        }
      ],
      "name": "isTokenMappedAndGetPredicate",
      "outputs": [
        {
          "name": "",
          "type": "address"
        }
      ],
      "payable": false,
      "stateMutability": "view",
      "type": "function"
    },
    {
      "constant": true,
      "inputs": [
        {
          "name": "childToken",
          "type": "address"
        }
      ],
      "name": "isChildTokenErc721",
      "outputs": [
        {
          "name": "",
          "type": "bool"
        }
      ],
      "payable": false,
      "stateMutability": "view",
      "type": "function"
    }
  ],
  "bytecode": "0x60806040819052600080546001600160a01b03191633178082556001600160a01b0316917f8be0079c531659141344cd1fd0a4f28419497f9722a3daafe3b4186f6b6457e0908290a361108e806100576000396000f3fe608060405234801561001057600080fd5b50600436106101e55760003560e01c80638b9c94891161010f578063c881560f116100a2578063daa09e5411610071578063daa09e5414610566578063e117694b1461058c578063ea60c7c4146105c4578063f2fde38b146105ea576101e5565b8063c881560f1461050a578063ce26118614610512578063d060828b14610538578063d580b4181461055e576101e5565b8063930df82e116100de578063930df82e146104ae578063b6864976146104b6578063bbfe7cd3146104be578063c4b875d3146104e4576101e5565b80638b9c9489146104195780638da5cb5b146104215780638f32d59b146104295780639025e64c14610431576101e5565b806337b1d585116101875780636416c183116101565780636416c18314610397578063648b8178146103bd5780636e86b770146103eb578063715018a614610411576101e5565b806337b1d585146102d25780633af395e51461031c578063609dc55a1461034b578063627942da14610371576101e5565b80632026cfdc116101c35780632026cfdc14610270578063253006b11461029c578063287be3e4146102a45780632d4e1dc7146102ac576101e5565b806301f07db5146101ea57806305f20595146102245780630c9effd01461024c575b600080fd5b6102106004803603602081101561020057600080fd5b50356001600160a01b0316610610565b604080519115158252519081900360200190f35b61024a6004803603602081101561023a57600080fd5b50356001600160a01b0316610692565b005b6102546106ee565b604080516001600160a01b039092168252519081900360200190f35b61024a6004803603604081101561028657600080fd5b50803590602001356001600160a01b0316610738565b6102546107be565b610254610808565b61024a600480360360208110156102c257600080fd5b50356001600160a01b0316610852565b6102f8600480360360208110156102e857600080fd5b50356001600160a01b031661088c565b6040518082600381111561030857fe5b60ff16815260200191505060405180910390f35b61024a6004803603604081101561033257600080fd5b5080356001600160a01b0316906020013560ff166108a1565b61024a6004803603602081101561036157600080fd5b50356001600160a01b031661099c565b6102546004803603602081101561038757600080fd5b50356001600160a01b0316610a2e565b610210600480360360208110156103ad57600080fd5b50356001600160a01b0316610a61565b6103c5610a81565b604080516001600160a01b03938416815291909216602082015281519081900390910190f35b6102546004803603602081101561040157600080fd5b50356001600160a01b0316610aec565b61024a610b07565b610254610b62565b610254610b9b565b610210610baa565b610439610bbb565b6040805160208082528351818301528351919283929083019185019080838360005b8381101561047357818101518382015260200161045b565b50505050905090810190601f1680156104a05780820380516001836020036101000a031916815260200191505b509250505060405180910390f35b610254610bdc565b610254610c1b565b610210600480360360208110156104d457600080fd5b50356001600160a01b0316610c2a565b610210600480360360208110156104fa57600080fd5b50356001600160a01b0316610cbd565b610254610cd2565b61024a6004803603602081101561052857600080fd5b50356001600160a01b0316610ce1565b61024a6004803603602081101561054e57600080fd5b50356001600160a01b0316610d18565b610254610dc2565b6102106004803603602081101561057c57600080fd5b50356001600160a01b0316610e0c565b61024a600480360360608110156105a257600080fd5b506001600160a01b038135811691602081013590911690604001351515610e21565b610254600480360360208110156105da57600080fd5b50356001600160a01b0316610fc4565b61024a6004803603602081101561060057600080fd5b50356001600160a01b0316610fdf565b600061061b82610a61565b61066f5760408051600160e51b62461bcd02815260206004820152601060248201527f544f4b454e5f4e4f545f4d415050454400000000000000000000000000000000604482015290519081900360640190fd5b506001600160a01b03811660009081526007602052604090205460ff165b919050565b61069a610baa565b6106a357600080fd5b6001600160a01b038116600081815260086020526040808220805460ff19169055513392917fd8b3c0235cefc5e19393dedb56c1ece6b41447ef932d7c6b34eb150a4b5d5f4991a350565b604080517f6465706f7369744d616e616765720000000000000000000000000000000000008152815190819003600e0190206000908152600360205220546001600160a01b031690565b610740610baa565b61074957600080fd5b6000828152600360205260408082205490516001600160a01b038085169392169185917fffb8cfd9cecbede837eec100fb8e17560ea22bf018e065366ee5e2ff5e0bd10c9190a460009182526003602052604090912080546001600160a01b0319166001600160a01b03909216919091179055565b604080517f64656c65676174696f6e4d616e61676572000000000000000000000000000000815281519081900360110190206000908152600360205220546001600160a01b031690565b604080517f7374616b654d616e6167657200000000000000000000000000000000000000008152815190819003600c0190206000908152600360205220546001600160a01b031690565b61085a610baa565b61086357600080fd5b600180546001600160a01b0319166001600160a01b0383161781556108899082906108a1565b50565b60086020526000908152604090205460ff1681565b6108a9610baa565b6108b257600080fd5b6001600160a01b03821660009081526008602052604081205460ff1660038111156108d957fe5b1461092e5760408051600160e51b62461bcd02815260206004820152601760248201527f50726564696361746520616c7265616479206164646564000000000000000000604482015290519081900360640190fd5b6001600160a01b0382166000908152600860205260409020805482919060ff1916600183600381111561095d57fe5b021790555060405133906001600160a01b038416907f0ea727f9bef04eb9a0e0da4d8fbb5b5319ddac03834baded53f84e0dcdddfedf90600090a35050565b6109a4610baa565b6109ad57600080fd5b6001600160a01b03811660009081526006602052604090205460ff1615156001146109d757600080fd5b60405133906001600160a01b038316907f96bedef125d36a85bf369db1f6ac9d7487d9daf6d4c22539249f1bf94a11e11990600090a36001600160a01b03166000908152600660205260409020805460ff19169055565b6000610a3982610610565b15610a5057506002546001600160a01b031661068d565b50506001546001600160a01b031690565b6001600160a01b0390811660009081526004602052604090205416151590565b60408051600160b11b6931b434b63221b430b4b7028152815190819003600a01812060009081526003602081815284832054600160a91b6a39ba30ba32a9b2b73232b9028552855194859003600b0190942083525291909120546001600160a01b0391821691169091565b6005602052600090815260409020546001600160a01b031681565b610b0f610baa565b610b1857600080fd5b600080546040516001600160a01b03909116907f8be0079c531659141344cd1fd0a4f28419497f9722a3daafe3b4186f6b6457e0908390a3600080546001600160a01b0319169055565b60408051600160b91b683bb2ba342a37b5b2b702815281519081900360090190206000908152600360205220546001600160a01b031690565b6000546001600160a01b031690565b6000546001600160a01b0316331490565b604051806040016040528060028152602001600160f01b613a990281525081565b60408051600160891b6e3bb4ba34323930bba6b0b730b3b2b9028152815190819003600f0190206000908152600360205220546001600160a01b031690565b6001546001600160a01b031681565b6001600160a01b0380821660009081526005602052604081205490911680610c9c5760408051600160e51b62461bcd02815260206004820152601960248201527f4368696c6420746f6b656e206973206e6f74206d617070656400000000000000604482015290519081900360640190fd5b6001600160a01b031660009081526007602052604090205460ff1692915050565b60066020526000908152604090205460ff1681565b6002546001600160a01b031681565b610ce9610baa565b610cf257600080fd5b600280546001600160a01b0319166001600160a01b0383161781556108899082906108a1565b610d20610baa565b610d2957600080fd5b6001600160a01b03811615801590610d5f57506001600160a01b03811660009081526006602052604090205460ff161515600114155b610d6857600080fd5b60405133906001600160a01b038316907f3dc12d30280bcd33917d2b84141129635923441ba7e6b388b946b41f5ace697d90600090a36001600160a01b03166000908152600660205260409020805460ff19166001179055565b604080517f736c617368696e674d616e6167657200000000000000000000000000000000008152815190819003600f0190206000908152600360205220546001600160a01b031690565b60076020526000908152604090205460ff1681565b610e29610baa565b610e3257600080fd5b6001600160a01b03831615801590610e5257506001600160a01b03821615155b610ea65760408051600160e51b62461bcd02815260206004820152601560248201527f494e56414c49445f544f4b454e5f414444524553530000000000000000000000604482015290519081900360640190fd5b6001600160a01b0380841660008181526004602081815260408084208054878a166001600160a01b031991821681179092559085526005835281852080549091168617905584845260078252808420805488151560ff199091161790558051600160891b6e3bb4ba34323930bba6b0b730b3b2b9028152815190819003600f0181208552600390925280842054600160e01b639145e6df028352928201949094529251931692639145e6df92602480820193929182900301818387803b158015610f6f57600080fd5b505af1158015610f83573d6000803e3d6000fd5b50506040516001600160a01b038086169350861691507f85920d35e6c72f6b2affffa04298b0cecfeba86e4a9f407df661f1cb8ab5e61790600090a3505050565b6004602052600090815260409020546001600160a01b031681565b610fe7610baa565b610ff057600080fd5b610889816001600160a01b03811661100757600080fd5b600080546040516001600160a01b03808516939216917f8be0079c531659141344cd1fd0a4f28419497f9722a3daafe3b4186f6b6457e091a3600080546001600160a01b0319166001600160a01b039290921691909117905556fea165627a7a723058200d644f483c49d782734560fc742871cfd532a016dbd47b73def92cd04bc547380029",
  "source": "pragma solidity ^0.5.2;\n\nimport { Ownable } from \"openzeppelin-solidity/contracts/ownership/Ownable.sol\";\nimport { IWithdrawManager } from \"../root/withdrawManager/IWithdrawManager.sol\";\n\ncontract Registry is Ownable {\n  // @todo hardcode constants\n  bytes32 constant private WETH_TOKEN = keccak256(\"wethToken\");\n  bytes32 constant private DEPOSIT_MANAGER = keccak256(\"depositManager\");\n  bytes32 constant private STAKE_MANAGER = keccak256(\"stakeManager\");\n  bytes32 constant private DELEGATION_MANAGER = keccak256(\"delegationManager\");\n  bytes32 constant private WITHDRAW_MANAGER = keccak256(\"withdrawManager\");\n  bytes32 constant private CHILD_CHAIN = keccak256(\"childChain\");\n  bytes32 constant private STATE_SENDER = keccak256(\"stateSender\");\n  bytes32 constant private SLASHING_MANAGER = keccak256(\"slashingManager\");\n  bytes constant public networkId = hex\"3A99\";\n\n  address public erc20Predicate;\n  address public erc721Predicate;\n\n  mapping(bytes32 => address) contractMap;\n  mapping(address => address) public rootToChildToken;\n  mapping(address => address) public childToRootToken;\n  // @todo we can think of one function from the registry which returns both (childToken,isERC721) if we are using it frequently together.\n  mapping(address => bool) public proofValidatorContracts;\n  mapping(address => bool) public isERC721;\n\n  enum Type { Invalid, ERC20, ERC721, Custom }\n  struct Predicate {\n    Type _type;\n  }\n  mapping(address => Predicate) public predicates;\n\n  event TokenMapped(address indexed rootToken, address indexed childToken);\n  event ProofValidatorAdded(address indexed validator, address indexed from);\n  event ProofValidatorRemoved(address indexed validator, address indexed from);\n  event PredicateAdded(address indexed predicate, address indexed from);\n  event PredicateRemoved(address indexed predicate, address indexed from);\n  event ContractMapUpdated(\n   bytes32 indexed key,\n   address indexed previousContract,\n   address indexed newContract\n  );\n\n  function updateContractMap(bytes32 _key, address _address)\n    external\n    onlyOwner\n  {\n    emit ContractMapUpdated(_key, contractMap[_key], _address);\n    contractMap[_key] = _address;\n  }\n\n  /**\n   * @dev Map root token to child token\n   * @param _rootToken Token address on the root chain\n   * @param _childToken Token address on the child chain\n   * @param _isERC721 Is the token being mapped ERC721\n   */\n  function mapToken(address _rootToken, address _childToken, bool _isERC721)\n    external\n    onlyOwner\n  {\n    require(\n      _rootToken != address(0x0) && _childToken != address(0x0),\n      \"INVALID_TOKEN_ADDRESS\"\n    );\n    rootToChildToken[_rootToken] = _childToken;\n    childToRootToken[_childToken] = _rootToken;\n    isERC721[_rootToken] = _isERC721;\n    IWithdrawManager(contractMap[WITHDRAW_MANAGER]).createExitQueue(_rootToken);\n    emit TokenMapped(_rootToken, _childToken);\n  }\n\n  function addProofValidator(address _validator) public onlyOwner {\n    require(_validator != address(0) && proofValidatorContracts[_validator] != true);\n    emit ProofValidatorAdded(_validator, msg.sender);\n    proofValidatorContracts[_validator] = true;\n  }\n\n  function addErc20Predicate(address predicate) public onlyOwner {\n    erc20Predicate = predicate;\n    addPredicate(predicate, Type.ERC20);\n  }\n\n  function addErc721Predicate(address predicate) public onlyOwner {\n    erc721Predicate = predicate;\n    addPredicate(predicate, Type.ERC721);\n  }\n\n  function addPredicate(address predicate, Type _type) public onlyOwner\n  {\n    require(predicates[predicate]._type == Type.Invalid, \"Predicate already added\");\n    predicates[predicate]._type = _type;\n    emit PredicateAdded(predicate, msg.sender);\n  }\n\n  function removePredicate(address predicate) public onlyOwner\n  {\n    delete predicates[predicate];\n    emit PredicateRemoved(predicate, msg.sender);\n  }\n\n  function removeProofValidator(address _validator) public onlyOwner {\n    require(proofValidatorContracts[_validator] == true);\n    emit ProofValidatorRemoved(_validator, msg.sender);\n    delete proofValidatorContracts[_validator];\n  }\n\n  function getDelegationManagerAddress() public view returns(address) {\n    return contractMap[DELEGATION_MANAGER];\n  }\n\n  function getWethTokenAddress() public view returns(address) {\n    return contractMap[WETH_TOKEN];\n  }\n\n  function getDepositManagerAddress() public view returns(address) {\n    return contractMap[DEPOSIT_MANAGER];\n  }\n\n  function getStakeManagerAddress() public view returns(address) {\n    return contractMap[STAKE_MANAGER];\n  }\n\n  function getSlashingManagerAddress() public view returns(address) {\n    return contractMap[SLASHING_MANAGER];\n  }\n\n  function getWithdrawManagerAddress() public view returns(address) {\n    return contractMap[WITHDRAW_MANAGER];\n  }\n\n  function getChildChainAndStateSender() public view returns(address, address) {\n    return (contractMap[CHILD_CHAIN], contractMap[STATE_SENDER]);\n  }\n\n  function isTokenMapped(address _token) public view returns (bool) {\n    return rootToChildToken[_token] != address(0x0);\n  }\n\n  function isTokenMappedAndIsErc721(address _token) public view returns (bool) {\n    require(isTokenMapped(_token), \"TOKEN_NOT_MAPPED\");\n    return isERC721[_token];\n  }\n\n  function isTokenMappedAndGetPredicate(address _token) public view returns (address) {\n    if (isTokenMappedAndIsErc721(_token)) {\n      return erc721Predicate;\n    }\n    return erc20Predicate;\n  }\n\n  function isChildTokenErc721(address childToken) public view returns(bool) {\n    address rootToken = childToRootToken[childToken];\n    require(rootToken != address(0x0), \"Child token is not mapped\");\n    return isERC721[rootToken];\n  }\n}\n",
  "sourcePath": "/Users/arpit/projects/contracts/contracts/common/Registry.sol",
  "compiler": {
    "name": "solc",
    "version": "0.5.7+commit.6da8b019.Emscripten.clang"
  },
  "schemaVersion": "3.0.16",
  "updatedAt": "2019-09-21T10:53:38.858Z",
  "devdoc": {
    "methods": {
      "isOwner()": {
        "return": "true if `msg.sender` is the owner of the contract."
      },
      "mapToken(address,address,bool)": {
        "details": "Map root token to child token",
        "params": {
          "_childToken": "Token address on the child chain",
          "_isERC721": "Is the token being mapped ERC721",
          "_rootToken": "Token address on the root chain"
        }
      },
      "owner()": {
        "return": "the address of the owner."
      },
      "renounceOwnership()": {
        "details": "Allows the current owner to relinquish control of the contract. It will not be possible to call the functions with the `onlyOwner` modifier anymore."
      },
      "transferOwnership(address)": {
        "details": "Allows the current owner to transfer control of the contract to a newOwner.",
        "params": {
          "newOwner": "The address to transfer ownership to."
        }
      }
    }
  },
  "userdoc": {
    "methods": {
      "renounceOwnership()": {
        "notice": "Renouncing ownership will leave the contract without an owner, thereby removing any functionality that is only available to the owner."
      }
    }
  }
}