{
  "contractName": "RootChainValidator",
  "abi": [
    {
      "constant": true,
      "inputs": [],
      "name": "childChainContract",
      "outputs": [
        {
          "name": "",
          "type": "address"
        }
      ],
      "payable": false,
      "stateMutability": "view",
      "type": "function"
    },
    {
      "constant": true,
      "inputs": [],
      "name": "depositManager",
      "outputs": [
        {
          "name": "",
          "type": "address"
        }
      ],
      "payable": false,
      "stateMutability": "view",
      "type": "function"
    },
    {
      "constant": false,
      "inputs": [],
      "name": "renounceOwnership",
      "outputs": [],
      "payable": false,
      "stateMutability": "nonpayable",
      "type": "function"
    },
    {
      "constant": true,
      "inputs": [],
      "name": "owner",
      "outputs": [
        {
          "name": "",
          "type": "address"
        }
      ],
      "payable": false,
      "stateMutability": "view",
      "type": "function"
    },
    {
      "constant": true,
      "inputs": [],
      "name": "isOwner",
      "outputs": [
        {
          "name": "",
          "type": "bool"
        }
      ],
      "payable": false,
      "stateMutability": "view",
      "type": "function"
    },
    {
      "constant": true,
      "inputs": [],
      "name": "rootChain",
      "outputs": [
        {
          "name": "",
          "type": "address"
        }
      ],
      "payable": false,
      "stateMutability": "view",
      "type": "function"
    },
    {
      "constant": false,
      "inputs": [],
      "name": "unlock",
      "outputs": [],
      "payable": false,
      "stateMutability": "nonpayable",
      "type": "function"
    },
    {
      "constant": true,
      "inputs": [],
      "name": "locked",
      "outputs": [
        {
          "name": "",
          "type": "bool"
        }
      ],
      "payable": false,
      "stateMutability": "view",
      "type": "function"
    },
    {
      "constant": false,
      "inputs": [
        {
          "name": "newRootChain",
          "type": "address"
        }
      ],
      "name": "changeRootChain",
      "outputs": [],
      "payable": false,
      "stateMutability": "nonpayable",
      "type": "function"
    },
    {
      "constant": true,
      "inputs": [],
      "name": "withdrawManager",
      "outputs": [
        {
          "name": "",
          "type": "address"
        }
      ],
      "payable": false,
      "stateMutability": "view",
      "type": "function"
    },
    {
      "constant": false,
      "inputs": [
        {
          "name": "newOwner",
          "type": "address"
        }
      ],
      "name": "transferOwnership",
      "outputs": [],
      "payable": false,
      "stateMutability": "nonpayable",
      "type": "function"
    },
    {
      "constant": false,
      "inputs": [],
      "name": "lock",
      "outputs": [],
      "payable": false,
      "stateMutability": "nonpayable",
      "type": "function"
    },
    {
      "anonymous": false,
      "inputs": [
        {
          "indexed": true,
          "name": "previousRootChain",
          "type": "address"
        },
        {
          "indexed": true,
          "name": "newRootChain",
          "type": "address"
        }
      ],
      "name": "RootChainChanged",
      "type": "event"
    },
    {
      "anonymous": false,
      "inputs": [
        {
          "indexed": true,
          "name": "previousOwner",
          "type": "address"
        },
        {
          "indexed": true,
          "name": "newOwner",
          "type": "address"
        }
      ],
      "name": "OwnershipTransferred",
      "type": "event"
    },
    {
      "constant": false,
      "inputs": [
        {
          "name": "_depositManager",
          "type": "address"
        }
      ],
      "name": "setDepositManager",
      "outputs": [],
      "payable": false,
      "stateMutability": "nonpayable",
      "type": "function"
    },
    {
      "constant": false,
      "inputs": [
        {
          "name": "_withdrawManager",
          "type": "address"
        }
      ],
      "name": "setWithdrawManager",
      "outputs": [],
      "payable": false,
      "stateMutability": "nonpayable",
      "type": "function"
    },
    {
      "constant": false,
      "inputs": [
        {
          "name": "_childChainContract",
          "type": "address"
        }
      ],
      "name": "setChildChainContract",
      "outputs": [],
      "payable": false,
      "stateMutability": "nonpayable",
      "type": "function"
    },
    {
      "constant": true,
      "inputs": [
        {
          "name": "headerNumber",
          "type": "uint256"
        },
        {
          "name": "headerProof",
          "type": "bytes"
        },
        {
          "name": "blockNumber",
          "type": "uint256"
        },
        {
          "name": "blockTime",
          "type": "uint256"
        },
        {
          "name": "txRoot",
          "type": "bytes32"
        },
        {
          "name": "receiptRoot",
          "type": "bytes32"
        },
        {
          "name": "path",
          "type": "bytes"
        },
        {
          "name": "txBytes",
          "type": "bytes"
        },
        {
          "name": "txProof",
          "type": "bytes"
        }
      ],
      "name": "validateTxExistence",
      "outputs": [
        {
          "name": "",
          "type": "bool"
        }
      ],
      "payable": false,
      "stateMutability": "view",
      "type": "function"
    },
    {
      "constant": true,
      "inputs": [
        {
          "name": "headerNumber",
          "type": "uint256"
        },
        {
          "name": "headerProof",
          "type": "bytes"
        },
        {
          "name": "blockNumber",
          "type": "uint256"
        },
        {
          "name": "blockTime",
          "type": "uint256"
        },
        {
          "name": "txRoot",
          "type": "bytes32"
        },
        {
          "name": "receiptRoot",
          "type": "bytes32"
        },
        {
          "name": "path",
          "type": "bytes"
        },
        {
          "name": "txBytes",
          "type": "bytes"
        },
        {
          "name": "txProof",
          "type": "bytes"
        },
        {
          "name": "receiptBytes",
          "type": "bytes"
        },
        {
          "name": "receiptProof",
          "type": "bytes"
        }
      ],
      "name": "validateTxReceiptExistence",
      "outputs": [
        {
          "name": "",
          "type": "bool"
        }
      ],
      "payable": false,
      "stateMutability": "view",
      "type": "function"
    },
    {
      "constant": true,
      "inputs": [
        {
          "name": "headerNumber",
          "type": "uint256"
        },
        {
          "name": "headerProof",
          "type": "bytes"
        },
        {
          "name": "blockNumber",
          "type": "uint256"
        },
        {
          "name": "blockTime",
          "type": "uint256"
        },
        {
          "name": "txRoot",
          "type": "bytes32"
        },
        {
          "name": "receiptRoot",
          "type": "bytes32"
        },
        {
          "name": "path",
          "type": "bytes"
        },
        {
          "name": "txBytes",
          "type": "bytes"
        },
        {
          "name": "txProof",
          "type": "bytes"
        },
        {
          "name": "receiptBytes",
          "type": "bytes"
        },
        {
          "name": "receiptProof",
          "type": "bytes"
        }
      ],
      "name": "validateTx",
      "outputs": [
        {
          "name": "",
          "type": "bool"
        }
      ],
      "payable": false,
      "stateMutability": "view",
      "type": "function"
    }
  ],
  "bytecode": "0x6080604081905260008054600160a060020a0319163317808255600160a060020a0316917f8be0079c531659141344cd1fd0a4f28419497f9722a3daafe3b4186f6b6457e0908290a36114d1806100576000396000f3006080604052600436106100e25763ffffffff60e060020a6000350416630b3fa78c81146100e757806317e3e2e81461022b578063228d71a91461024e578063242fbb041461026f5780636c7ac9d8146102a05780636d4babac146102b5578063715018a6146104615780638da5cb5b146104765780638f32d59b1461048b578063987ab9db146104a0578063a69df4b5146104b5578063cf309012146104ca578063d9bcb335146104df578063e8afa8e81461068b578063ec3e9da5146106ac578063f2fde38b146106c1578063f3b57e61146106e2578063f83d08ba14610703575b600080fd5b3480156100f357600080fd5b5060408051602060046024803582810135601f810185900485028601850190965285855261021795833595369560449491939091019190819084018382808284375050604080516020601f60808a01358b0180359182018390048302840183018552818452989b8a359b838c01359b958601359a60608701359a50919850965060a09094019450919281019190819084018382808284375050604080516020601f89358b018035918201839004830284018301909452808352979a99988101979196509182019450925082915084018382808284375050604080516020601f89358b018035918201839004830284018301909452808352979a9998810197919650918201945092508291508401838280828437509497506107189650505050505050565b604080519115158252519081900360200190f35b34801561023757600080fd5b5061024c600160a060020a0360043516610b0c565b005b34801561025a57600080fd5b5061024c600160a060020a0360043516610b63565b34801561027b57600080fd5b50610284610bba565b60408051600160a060020a039092168252519081900360200190f35b3480156102ac57600080fd5b50610284610bc9565b3480156102c157600080fd5b5060408051602060046024803582810135601f810185900485028601850190965285855261021795833595369560449491939091019190819084018382808284375050604080516020601f60808a01358b0180359182018390048302840183018552818452989b8a359b838c01359b958601359a60608701359a50919850965060a09094019450919281019190819084018382808284375050604080516020601f89358b018035918201839004830284018301909452808352979a99988101979196509182019450925082915084018382808284375050604080516020601f89358b018035918201839004830284018301909452808352979a99988101979196509182019450925082915084018382808284375050604080516020601f89358b018035918201839004830284018301909452808352979a99988101979196509182019450925082915084018382808284375050604080516020601f89358b018035918201839004830284018301909452808352979a999881019791965091820194509250829150840183828082843750949750610bd89650505050505050565b34801561046d57600080fd5b5061024c610db6565b34801561048257600080fd5b50610284610e20565b34801561049757600080fd5b50610217610e2f565b3480156104ac57600080fd5b50610284610e40565b3480156104c157600080fd5b5061024c610e4f565b3480156104d657600080fd5b50610217610e82565b3480156104eb57600080fd5b5060408051602060046024803582810135601f810185900485028601850190965285855261021795833595369560449491939091019190819084018382808284375050604080516020601f60808a01358b0180359182018390048302840183018552818452989b8a359b838c01359b958601359a60608701359a50919850965060a09094019450919281019190819084018382808284375050604080516020601f89358b018035918201839004830284018301909452808352979a99988101979196509182019450925082915084018382808284375050604080516020601f89358b018035918201839004830284018301909452808352979a99988101979196509182019450925082915084018382808284375050604080516020601f89358b018035918201839004830284018301909452808352979a99988101979196509182019450925082915084018382808284375050604080516020601f89358b018035918201839004830284018301909452808352979a999881019791965091820194509250829150840183828082843750949750610ea39650505050505050565b34801561069757600080fd5b5061024c600160a060020a0360043516610f3f565b3480156106b857600080fd5b50610284610fd0565b3480156106cd57600080fd5b5061024c600160a060020a0360043516610fdf565b3480156106ee57600080fd5b5061024c600160a060020a0360043516610ffe565b34801561070f57600080fd5b5061024c611055565b600154604080517f61bbd461000000000000000000000000000000000000000000000000000000008152600481018c9052905160009283928392600160a060020a03909216916361bbd4619160248082019260809290919082900301818787803b15801561078557600080fd5b505af1158015610799573d6000803e3d6000fd5b505050506040513d60808110156107af57600080fd5b8101908080519060200190929190805190602001909291908051906020019092919080519060200190929190505050905050809250819350505089898989604051808581526020018481526020018360001916600019168152602001826000191660001916815260200194505050505060405180910390206000191673__Merkle________________________________636c8f455c9091838d03858f6040518563ffffffff1660e060020a028152600401808560001916600019168152602001848152602001836000191660001916815260200180602001828103825283818151815260200191508051906020019080838360005b838110156108bd5781810151838201526020016108a5565b50505050905090810190601f1680156108ea5780820380516001836020036101000a031916815260200191505b509550505050505060206040518083038186803b15801561090a57600080fd5b505af415801561091e573d6000803e3d6000fd5b505050506040513d602081101561093457600080fd5b50518015610afc575073__MerklePatriciaProof___________________6379d1d4fa8688878c6040518563ffffffff1660e060020a028152600401808060200180602001806020018560001916600019168152602001848103845288818151815260200191508051906020019080838360005b838110156109c05781810151838201526020016109a8565b50505050905090810190601f1680156109ed5780820380516001836020036101000a031916815260200191505b50848103835287518152875160209182019189019080838360005b83811015610a20578181015183820152602001610a08565b50505050905090810190601f168015610a4d5780820380516001836020036101000a031916815260200191505b50848103825286518152865160209182019188019080838360005b83811015610a80578181015183820152602001610a68565b50505050905090810190601f168015610aad5780820380516001836020036101000a031916815260200191505b5097505050505050505060206040518083038186803b158015610acf57600080fd5b505af4158015610ae3573d6000803e3d6000fd5b505050506040513d6020811015610af957600080fd5b50515b9c9b505050505050505050505050565b610b14610e2f565b1515610b1f57600080fd5b600160a060020a0381161515610b3457600080fd5b6003805473ffffffffffffffffffffffffffffffffffffffff1916600160a060020a0392909216919091179055565b610b6b610e2f565b1515610b7657600080fd5b600160a060020a0381161515610b8b57600080fd5b6002805473ffffffffffffffffffffffffffffffffffffffff1916600160a060020a0392909216919091179055565b600454600160a060020a031681565b600254600160a060020a031681565b6000610be261146d565b60606000610bf98f8f8f8f8f8f8f8f8f8f8f610ea3565b1580610c0457508751155b80610c0e57508551155b15610c1c5760009350610da4565b610c258861109f565b9250610c30836110f2565b1580610c465750610c4083611124565b51600914155b15610c545760009350610da4565b610c5d8661109f565b9250610c68836110f2565b1515610c775760009350610da4565b610c8083611124565b915081516004141580610cb15750610caf826003815181101515610ca057fe5b906020019060200201516110f2565b155b15610cbf5760009350610da4565b610ce0826003815181101515610cd157fe5b90602001906020020151611124565b9150600082511115610d9f575060005b81518160ff161015610d9f57610d10828260ff16815181101515610ca057fe5b1580610d3057506002610d2d838360ff16815181101515610cd157fe5b51105b80610d5c5750610d5a610d4d838360ff16815181101515610cd157fe5b80516001908110610ca057fe5b155b80610d895750610d86610d79838360ff16815181101515610cd157fe5b80516001908110610cd157fe5b51155b15610d975760009350610da4565b600101610cf0565b600193505b5050509b9a5050505050505050505050565b610dbe610e2f565b1515610dc957600080fd5b60008054604051600160a060020a03909116907f8be0079c531659141344cd1fd0a4f28419497f9722a3daafe3b4186f6b6457e0908390a36000805473ffffffffffffffffffffffffffffffffffffffff19169055565b600054600160a060020a031690565b600054600160a060020a0316331490565b600154600160a060020a031681565b610e57610e2f565b1515610e6257600080fd5b6001805474ff000000000000000000000000000000000000000019169055565b60015474010000000000000000000000000000000000000000900460ff1681565b6000610eb68c8c8c8c8c8c8c8c8c610718565b8015610afc575073__MerklePatriciaProof___________________6379d1d4fa8488858b6040518563ffffffff1660e060020a02815260040180806020018060200180602001856000191660001916815260200184810384528881815181526020019150805190602001908083836000838110156109c05781810151838201526020016109a8565b610f47610e2f565b1515610f5257600080fd5b600160a060020a0381161515610f6757600080fd5b600154604051600160a060020a038084169216907f211c9015fc81c0dbd45bd99f0f29fc1c143bfd53442d5ffd722bbbef7a887fe990600090a36001805473ffffffffffffffffffffffffffffffffffffffff1916600160a060020a0392909216919091179055565b600354600160a060020a031681565b610fe7610e2f565b1515610ff257600080fd5b610ffb816111d9565b50565b611006610e2f565b151561101157600080fd5b600160a060020a038116151561102657600080fd5b6004805473ffffffffffffffffffffffffffffffffffffffff1916600160a060020a0392909216919091179055565b61105d610e2f565b151561106857600080fd5b6001805474ff0000000000000000000000000000000000000000191674010000000000000000000000000000000000000000179055565b6110a761146d565b815160008115156110cd57604080518082019091526000808252602082015292506110eb565b60208401905060408051908101604052808281526020018381525092505b5050919050565b60008082602001516000141561110b576000915061111e565b8260000151905060c0815160001a101591505b50919050565b60606000611130611484565b600061113b856110f2565b151561114657600080fd5b61114f85611256565b92508260405190808252806020026020018201604052801561118b57816020015b61117861146d565b8152602001906001900390816111705790505b509350611197856112c6565b91505b6111a3826112ff565b156111d1576111b18261131e565b84828151811015156111bf57fe5b6020908102909101015260010161119a565b505050919050565b600160a060020a03811615156111ee57600080fd5b60008054604051600160a060020a03808516939216917f8be0079c531659141344cd1fd0a4f28419497f9722a3daafe3b4186f6b6457e091a36000805473ffffffffffffffffffffffffffffffffffffffff1916600160a060020a0392909216919091179055565b600080600080600080611268876110f2565b151561127757600095506112bc565b8651805160001a9550935061128b87611360565b840192506001876020015185010391505b8183116112b8576112ac836113e0565b9092019160010161129c565b8095505b5050505050919050565b6112ce611484565b60006112d9836110f2565b15156112e457600080fd5b6112ed83611360565b83519383529092016020820152919050565b600061130961146d565b50508051602080820151915192015191011190565b61132661146d565b600080611332846112ff565b156100e25783602001519150611347826113e0565b82845260208085018290528382019086015290506110eb565b600080600083602001516000141561137b57600092506110eb565b50508151805160001a90608082101561139757600092506110eb565b60b88210806113b2575060c082101580156113b2575060f882105b156113c057600192506110eb565b60c08210156113d55760b519820192506110eb565b5060f5190192915050565b8051600090811a60808110156113f9576001915061111e565b60b881101561140e57607e198101915061111e565b60c081101561143757600183015160b76020839003016101000a9004810160b51901915061111e565b60f881101561144c5760be198101915061111e565b6001929092015160f76020849003016101000a900490910160f51901919050565b604080518082019091526000808252602082015290565b60606040519081016040528061149861146d565b81526020016000815250905600a165627a7a72305820e9b4366ddae4cdd8caf98b9c4b98e8af9c09b2b69bb484e2a1a631c4f569e6a30029",
  "source": "pragma solidity ^0.4.24;\n\nimport { Merkle } from \"../lib/Merkle.sol\";\nimport { MerklePatriciaProof } from \"../lib/MerklePatriciaProof.sol\";\nimport { RLP } from \"../lib/RLP.sol\";\nimport { Common } from \"../lib/Common.sol\";\nimport { RLPEncode } from \"../lib/RLPEncode.sol\";\nimport { IRootChain } from \"../root/IRootChain.sol\";\nimport { WithdrawManager } from \"../root/WithdrawManager.sol\";\nimport { DepositManager } from \"../root/DepositManager.sol\";\n\nimport { Lockable } from \"./Lockable.sol\";\nimport { RootChainable } from \"./RootChainable.sol\";\n\n\n/**\n * @title RootChainValidator\n */\ncontract RootChainValidator is RootChainable, Lockable {\n  using Merkle for bytes32;\n  using RLP for bytes;\n  using RLP for RLP.RLPItem;\n  using RLP for RLP.Iterator;\n\n  // managers\n  DepositManager public depositManager;\n  WithdrawManager public withdrawManager;\n\n  // child chain contract\n  address public childChainContract;\n\n  // set deposit manager\n  function setDepositManager(address _depositManager) public onlyOwner {\n    require(_depositManager != address(0));\n    depositManager = DepositManager(_depositManager);\n  }\n\n  // set withdraw manager\n  function setWithdrawManager(address _withdrawManager) public onlyOwner {\n    require(_withdrawManager != address(0));\n    withdrawManager = WithdrawManager(_withdrawManager);\n  }\n\n  // set child chain contract\n  function setChildChainContract(address _childChainContract) public onlyOwner {\n    require(_childChainContract != address(0));\n    childChainContract = _childChainContract;\n  }\n\n  // validate transaction\n  function validateTxExistence(\n    uint256 headerNumber,\n    bytes headerProof,\n\n    uint256 blockNumber,\n    uint256 blockTime,\n\n    bytes32 txRoot,\n    bytes32 receiptRoot,\n    bytes path,\n\n    bytes txBytes,\n    bytes txProof\n  ) public view returns (bool) {\n    // fetch header block\n    bytes32 headerRoot;\n    uint256 start;\n    (headerRoot, start,,) = IRootChain(rootChain).headerBlock(headerNumber);\n\n    // check if tx's block is included in header and tx is in block\n    return keccak256(blockNumber, blockTime, txRoot, receiptRoot)\n      .checkMembership(blockNumber - start, headerRoot, headerProof) &&\n    MerklePatriciaProof.verify(txBytes, path, txProof, txRoot);\n  }\n\n  // validate transaction & receipt\n  function validateTxReceiptExistence(\n    uint256 headerNumber,\n    bytes headerProof,\n\n    uint256 blockNumber,\n    uint256 blockTime,\n\n    bytes32 txRoot,\n    bytes32 receiptRoot,\n    bytes path,\n\n    bytes txBytes,\n    bytes txProof,\n\n    bytes receiptBytes,\n    bytes receiptProof\n  )\n    public\n    view\n    returns (bool)\n  {\n    // validate tx existance and receipt\n    return validateTxExistence(\n      headerNumber,\n      headerProof,\n      blockNumber,\n      blockTime,\n      txRoot,\n      receiptRoot,\n      path,\n      txBytes,\n      txProof\n    ) && MerklePatriciaProof.verify(receiptBytes, path, receiptProof, receiptRoot);\n  }\n\n  // validate tx\n  function validateTx(\n    uint256 headerNumber,\n    bytes headerProof,\n\n    uint256 blockNumber,\n    uint256 blockTime,\n\n    bytes32 txRoot,\n    bytes32 receiptRoot,\n    bytes path,\n\n    bytes txBytes,\n    bytes txProof,\n\n    bytes receiptBytes,\n    bytes receiptProof\n  )\n    public\n    view\n    returns (bool)\n  {\n    if (\n      !validateTxReceiptExistence(\n        headerNumber,\n        headerProof,\n        blockNumber,\n        blockTime,\n        txRoot,\n        receiptRoot,\n        path,\n        txBytes,\n        txProof,\n        receiptBytes,\n        receiptProof\n      ) ||\n      txBytes.length == 0 ||\n      receiptBytes.length == 0\n    ) {\n      return false;\n    }\n\n    RLP.RLPItem memory rlpItem = txBytes.toRLPItem();\n    if (!rlpItem.isList() || rlpItem.toList().length != 9) {\n      return false;\n    }\n\n    // receipt check\n    rlpItem = receiptBytes.toRLPItem();\n    if (!rlpItem.isList()) {\n      return false;\n    }\n\n    RLP.RLPItem[] memory items = rlpItem.toList();\n    if (items.length != 4 || !items[3].isList()) {\n      return false;\n    }\n\n    // topics\n    items = items[3].toList();\n    if (items.length > 0) {\n      // iterate through topic\n      for (uint8 i = 0; i < items.length; i++) {\n        if (!items[i].isList() ||\n          items[i].toList().length < 2 ||\n          !items[i].toList()[1].isList() ||\n          items[i].toList()[1].toList().length == 0\n        ) {\n          return false;\n        }\n      }\n    }\n\n    return true;\n  }\n\n  // get tx sender\n  function getTxSender(bytes txBytes) internal view returns (address) {\n    // check tx\n    RLP.RLPItem[] memory txList = txBytes.toRLPItem().toList();\n\n    // get tx sender\n    return getTxSender(txList);\n  }\n\n  // get tx sender\n  function getTxSender(RLP.RLPItem[] txList) internal view returns (address) {\n    // raw tx\n    bytes[] memory rawTx = new bytes[](9);\n    for (uint8 i = 0; i <= 5; i++) {\n      rawTx[i] = txList[i].toData();\n    }\n    rawTx[4] = hex\"\";\n    rawTx[6] = IRootChain(rootChain).networkId();\n    rawTx[7] = hex\"\";\n    rawTx[8] = hex\"\";\n\n    // recover tx sender\n    return ecrecover(\n      keccak256(RLPEncode.encodeList(rawTx)),\n      Common.getV(txList[6].toData(), Common.toUint8(rawTx[6])),\n      txList[7].toBytes32(),\n      txList[8].toBytes32()\n    );\n  }\n}\n",
  "sourcePath": "/Users/atvanguard/matic/contracts/contracts/mixin/RootChainValidator.sol",
  "compiler": {
    "name": "solc",
    "version": "0.4.24+commit.e67f0147.Emscripten.clang"
  },
  "schemaVersion": "2.0.1",
  "updatedAt": "2019-12-07T09:11:33.298Z"
}