{
  "contractName": "RootChainStorage",
  "abi": [
    {
      "constant": true,
      "inputs": [
        {
          "internalType": "uint256",
          "name": "",
          "type": "uint256"
        }
      ],
      "name": "headerBlocks",
      "outputs": [
        {
          "internalType": "bytes32",
          "name": "root",
          "type": "bytes32"
        },
        {
          "internalType": "uint256",
          "name": "start",
          "type": "uint256"
        },
        {
          "internalType": "uint256",
          "name": "end",
          "type": "uint256"
        },
        {
          "internalType": "uint256",
          "name": "createdAt",
          "type": "uint256"
        },
        {
          "internalType": "address",
          "name": "proposer",
          "type": "address"
        }
      ],
      "payable": false,
      "stateMutability": "view",
      "type": "function"
    },
    {
      "constant": false,
      "inputs": [],
      "name": "renounceOwnership",
      "outputs": [],
      "payable": false,
      "stateMutability": "nonpayable",
      "type": "function"
    },
    {
      "constant": true,
      "inputs": [],
      "name": "owner",
      "outputs": [
        {
          "internalType": "address",
          "name": "",
          "type": "address"
        }
      ],
      "payable": false,
      "stateMutability": "view",
      "type": "function"
    },
    {
      "constant": true,
      "inputs": [],
      "name": "isOwner",
      "outputs": [
        {
          "internalType": "bool",
          "name": "",
          "type": "bool"
        }
      ],
      "payable": false,
      "stateMutability": "view",
      "type": "function"
    },
    {
      "constant": true,
      "inputs": [],
      "name": "VOTE_TYPE",
      "outputs": [
        {
          "internalType": "uint8",
          "name": "",
          "type": "uint8"
        }
      ],
      "payable": false,
      "stateMutability": "view",
      "type": "function"
    },
    {
      "constant": false,
      "inputs": [
        {
          "internalType": "address",
          "name": "newOwner",
          "type": "address"
        }
      ],
      "name": "transferOwnership",
      "outputs": [],
      "payable": false,
      "stateMutability": "nonpayable",
      "type": "function"
    },
    {
      "constant": true,
      "inputs": [],
      "name": "heimdallId",
      "outputs": [
        {
          "internalType": "bytes32",
          "name": "",
          "type": "bytes32"
        }
      ],
      "payable": false,
      "stateMutability": "view",
      "type": "function"
    },
    {
      "anonymous": false,
      "inputs": [
        {
          "indexed": true,
          "internalType": "address",
          "name": "proposer",
          "type": "address"
        },
        {
          "indexed": true,
          "internalType": "uint256",
          "name": "headerBlockId",
          "type": "uint256"
        },
        {
          "indexed": true,
          "internalType": "uint256",
          "name": "reward",
          "type": "uint256"
        },
        {
          "indexed": false,
          "internalType": "uint256",
          "name": "start",
          "type": "uint256"
        },
        {
          "indexed": false,
          "internalType": "uint256",
          "name": "end",
          "type": "uint256"
        },
        {
          "indexed": false,
          "internalType": "bytes32",
          "name": "root",
          "type": "bytes32"
        }
      ],
      "name": "NewHeaderBlock",
      "type": "event"
    },
    {
      "anonymous": false,
      "inputs": [
        {
          "indexed": true,
          "internalType": "address",
          "name": "previousOwner",
          "type": "address"
        },
        {
          "indexed": true,
          "internalType": "address",
          "name": "newOwner",
          "type": "address"
        }
      ],
      "name": "OwnershipTransferred",
      "type": "event"
    }
  ],
  "bytecode": "0x608060408190526127106003556001600455600080546001600160a01b03191633178082556001600160a01b0316917f8be0079c531659141344cd1fd0a4f28419497f9722a3daafe3b4186f6b6457e0908290a36102f9806100626000396000f3fe608060405234801561001057600080fd5b506004361061007d5760003560e01c80638f32d59b1161005b5780638f32d59b14610101578063d5b844eb1461011d578063f2fde38b1461013b578063fbc3dd36146101615761007d565b806341539d4a14610082578063715018a6146100d35780638da5cb5b146100dd575b600080fd5b61009f6004803603602081101561009857600080fd5b503561017b565b6040805195865260208601949094528484019290925260608401526001600160a01b03166080830152519081900360a00190f35b6100db6101b3565b005b6100e561020e565b604080516001600160a01b039092168252519081900360200190f35b61010961021d565b604080519115158252519081900360200190f35b61012561022e565b6040805160ff9092168252519081900360200190f35b6100db6004803603602081101561015157600080fd5b50356001600160a01b0316610233565b610169610250565b60408051918252519081900360200190f35b60056020526000908152604090208054600182015460028301546003840154600490940154929391929091906001600160a01b031685565b6101bb61021d565b6101c457600080fd5b600080546040516001600160a01b03909116907f8be0079c531659141344cd1fd0a4f28419497f9722a3daafe3b4186f6b6457e0908390a3600080546001600160a01b0319169055565b6000546001600160a01b031690565b6000546001600160a01b0316331490565b600281565b61023b61021d565b61024457600080fd5b61024d81610256565b50565b60025481565b6001600160a01b03811661026957600080fd5b600080546040516001600160a01b03808516939216917f8be0079c531659141344cd1fd0a4f28419497f9722a3daafe3b4186f6b6457e091a3600080546001600160a01b0319166001600160a01b039290921691909117905556fea265627a7a723158207d05793caac9579701b3781ce3a404796b7688689983f27b8856d528e4749eb064736f6c634300050b0032",
  "source": "pragma solidity ^0.5.2;\n\nimport { Registry } from \"../common/Registry.sol\";\nimport { ProxyStorage } from \"../common/misc/ProxyStorage.sol\";\n\n\ncontract RootChainHeader {\n  event NewHeaderBlock(\n    address indexed proposer,\n    uint256 indexed headerBlockId,\n    uint256 indexed reward,\n    uint256 start,\n    uint256 end,\n    bytes32 root\n  );\n\n  struct HeaderBlock {\n    bytes32 root;\n    uint256 start;\n    uint256 end;\n    uint256 createdAt;\n    address proposer;\n  }\n}\n\ncontract RootChainStorage is ProxyStorage, RootChainHeader {\n  bytes32 public heimdallId;\n  uint8 public constant VOTE_TYPE = 2;\n\n  uint16 internal constant MAX_DEPOSITS = 10000;\n  uint256 internal _nextHeaderBlock = MAX_DEPOSITS;\n  uint256 internal _blockDepositId = 1;\n  mapping(uint256 => HeaderBlock) public headerBlocks;\n  Registry internal registry;\n}\n",
  "sourcePath": "/Users/atvanguard/matic/contracts/contracts/root/RootChainStorage.sol",
  "compiler": {
    "name": "solc",
    "version": "0.5.11+commit.c082d0b4.Emscripten.clang"
  },
  "schemaVersion": "3.0.14",
  "updatedAt": "2019-12-17T06:13:10.758Z",
  "devdoc": {
    "methods": {
      "isOwner()": {
        "return": "true if `msg.sender` is the owner of the contract."
      },
      "owner()": {
        "return": "the address of the owner."
      },
      "renounceOwnership()": {
        "details": "Allows the current owner to relinquish control of the contract. It will not be possible to call the functions with the `onlyOwner` modifier anymore."
      },
      "transferOwnership(address)": {
        "details": "Allows the current owner to transfer control of the contract to a newOwner.",
        "params": {
          "newOwner": "The address to transfer ownership to."
        }
      }
    }
  },
  "userdoc": {
    "methods": {
      "renounceOwnership()": {
        "notice": "Renouncing ownership will leave the contract without an owner, thereby removing any functionality that is only available to the owner."
      }
    }
  }
}