{
  "contractName": "RootChain",
  "abi": [
    {
      "constant": true,
      "inputs": [
        {
          "name": "",
          "type": "uint256"
        }
      ],
      "name": "headerBlocks",
      "outputs": [
        {
          "name": "root",
          "type": "bytes32"
        },
        {
          "name": "start",
          "type": "uint256"
        },
        {
          "name": "end",
          "type": "uint256"
        },
        {
          "name": "createdAt",
          "type": "uint256"
        },
        {
          "name": "proposer",
          "type": "address"
        }
      ],
      "payable": false,
      "stateMutability": "view",
      "type": "function"
    },
    {
      "constant": true,
      "inputs": [],
      "name": "HEIMDALL_ID",
      "outputs": [
        {
          "name": "",
          "type": "bytes32"
        }
      ],
      "payable": false,
      "stateMutability": "view",
      "type": "function"
    },
    {
      "constant": false,
      "inputs": [],
      "name": "renounceOwnership",
      "outputs": [],
      "payable": false,
      "stateMutability": "nonpayable",
      "type": "function"
    },
    {
      "constant": true,
      "inputs": [],
      "name": "owner",
      "outputs": [
        {
          "name": "",
          "type": "address"
        }
      ],
      "payable": false,
      "stateMutability": "view",
      "type": "function"
    },
    {
      "constant": true,
      "inputs": [],
      "name": "isOwner",
      "outputs": [
        {
          "name": "",
          "type": "bool"
        }
      ],
      "payable": false,
      "stateMutability": "view",
      "type": "function"
    },
    {
      "constant": true,
      "inputs": [],
      "name": "VOTE_TYPE",
      "outputs": [
        {
          "name": "",
          "type": "uint8"
        }
      ],
      "payable": false,
      "stateMutability": "view",
      "type": "function"
    },
    {
      "constant": false,
      "inputs": [
        {
          "name": "newOwner",
          "type": "address"
        }
      ],
      "name": "transferOwnership",
      "outputs": [],
      "payable": false,
      "stateMutability": "nonpayable",
      "type": "function"
    },
    {
      "inputs": [
        {
          "name": "_registry",
          "type": "address"
        }
      ],
      "payable": false,
      "stateMutability": "nonpayable",
      "type": "constructor"
    },
    {
      "anonymous": false,
      "inputs": [
        {
          "indexed": true,
          "name": "proposer",
          "type": "address"
        },
        {
          "indexed": true,
          "name": "headerBlockId",
          "type": "uint256"
        },
        {
          "indexed": false,
          "name": "start",
          "type": "uint256"
        },
        {
          "indexed": false,
          "name": "end",
          "type": "uint256"
        },
        {
          "indexed": false,
          "name": "root",
          "type": "bytes32"
        }
      ],
      "name": "NewHeaderBlock",
      "type": "event"
    },
    {
      "anonymous": false,
      "inputs": [
        {
          "indexed": true,
          "name": "previousOwner",
          "type": "address"
        },
        {
          "indexed": true,
          "name": "newOwner",
          "type": "address"
        }
      ],
      "name": "OwnershipTransferred",
      "type": "event"
    },
    {
      "constant": false,
      "inputs": [
        {
          "name": "vote",
          "type": "bytes"
        },
        {
          "name": "sigs",
          "type": "bytes"
        },
        {
          "name": "txData",
          "type": "bytes"
        }
      ],
      "name": "submitHeaderBlock",
      "outputs": [],
      "payable": false,
      "stateMutability": "nonpayable",
      "type": "function"
    },
    {
      "constant": false,
      "inputs": [
        {
          "name": "numDeposits",
          "type": "uint256"
        }
      ],
      "name": "updateDepositId",
      "outputs": [
        {
          "name": "depositId",
          "type": "uint256"
        }
      ],
      "payable": false,
      "stateMutability": "nonpayable",
      "type": "function"
    },
    {
      "constant": true,
      "inputs": [],
      "name": "currentHeaderBlock",
      "outputs": [
        {
          "name": "",
          "type": "uint256"
        }
      ],
      "payable": false,
      "stateMutability": "view",
      "type": "function"
    },
    {
      "constant": true,
      "inputs": [],
      "name": "getLastChildBlock",
      "outputs": [
        {
          "name": "",
          "type": "uint256"
        }
      ],
      "payable": false,
      "stateMutability": "view",
      "type": "function"
    },
    {
      "constant": false,
      "inputs": [],
      "name": "slash",
      "outputs": [],
      "payable": false,
      "stateMutability": "nonpayable",
      "type": "function"
    }
  ],
  "bytecode": "0x6080604052612710600255600160035534801561001b57600080fd5b506040516020806111b88339810180604052602081101561003b57600080fd5b5051600080546001600160a01b03191633178082556040516001600160a01b039190911691907f8be0079c531659141344cd1fd0a4f28419497f9722a3daafe3b4186f6b6457e0908290a3600580546001600160a01b0319166001600160a01b0392909216919091179055611103806100b56000396000f3fe608060405234801561001057600080fd5b50600436106100b45760003560e01c80638f32d59b116100715780638f32d59b14610177578063b87e1b6614610193578063d5b844eb1461019b578063ec7e4855146101b9578063ec83d3ba146101c1578063f2fde38b146102d5576100b4565b80632da25de3146100b957806341539d4a146100c35780635391f483146101145780636d378b0c14610143578063715018a61461014b5780638da5cb5b14610153575b600080fd5b6100c16102fb565b005b6100e0600480360360208110156100d957600080fd5b50356102fd565b6040805195865260208601949094528484019290925260608401526001600160a01b03166080830152519081900360a00190f35b6101316004803603602081101561012a57600080fd5b5035610336565b60408051918252519081900360200190f35b610131610485565b6100c16104af565b61015b61050a565b604080516001600160a01b039092168252519081900360200190f35b61017f610519565b604080519115158252519081900360200190f35b61013161052a565b6101a361054f565b6040805160ff9092168252519081900360200190f35b610131610554565b6100c1600480360360608110156101d757600080fd5b8101906020810181356401000000008111156101f257600080fd5b82018360208201111561020457600080fd5b8035906020019184600183028401116401000000008311171561022657600080fd5b91939092909160208101903564010000000081111561024457600080fd5b82018360208201111561025657600080fd5b8035906020019184600183028401116401000000008311171561027857600080fd5b91939092909160208101903564010000000081111561029657600080fd5b8201836020820111156102a857600080fd5b803590602001918460018302840111640100000000831117156102ca57600080fd5b509092509050610571565b6100c1600480360360208110156102eb57600080fd5b50356001600160a01b0316610a1e565b565b6004602081905260009182526040909120805460018201546002830154600384015493909401549193909290916001600160a01b031685565b60055460408051600160e41b62c9effd02815290516000926001600160a01b031691630c9effd0916004808301926020929190829003018186803b15801561037d57600080fd5b505afa158015610391573d6000803e3d6000fd5b505050506040513d60208110156103a757600080fd5b50516001600160a01b031633146103f257604051600160e51b62461bcd0281526004018080602001828103825260218152602001806110b76021913960400191505060405180910390fd5b61040c600354610400610554565b9063ffffffff610a3b16565b600354909150610422908363ffffffff610a3b16565b600381905561271010156104805760408051600160e51b62461bcd02815260206004820152601160248201527f544f4f5f4d414e595f4445504f53495453000000000000000000000000000000604482015290519081900360640190fd5b919050565b60408051600160881b6e6865696d64616c6c2d503572587767028152905190819003600f01902081565b6104b7610519565b6104c057600080fd5b600080546040516001600160a01b03909116907f8be0079c531659141344cd1fd0a4f28419497f9722a3daafe3b4186f6b6457e0908390a3600080546001600160a01b0319169055565b6000546001600160a01b031690565b6000546001600160a01b0316331490565b600060046000610538610554565b815260200190815260200160002060020154905090565b600281565b60025460009061056c9061271063ffffffff610a5416565b905090565b60606105ba6105b588888080601f016020809104026020016040519081016040528093929190818152602001838380828437600092019190915250610a6992505050565b610a8e565b90506040518080600160881b6e6865696d64616c6c2d50357258776702815250600f0190506040518091039020610604826000815181106105f757fe5b6020026020010151610b5f565b80519060200120146106605760408051600160e51b62461bcd02815260206004820152601360248201527f436861696e20494420697320696e76616c696400000000000000000000000000604482015290519081900360640190fd5b600260ff166106828260018151811061067557fe5b6020026020010151610bd8565b146106d75760408051600160e51b62461bcd02815260206004820152601460248201527f566f7465207479706520697320696e76616c6964000000000000000000000000604482015290519081900360640190fd5b600283836040518083838082843760405192019450602093509091505080830381855afa15801561070c573d6000803e3d6000fd5b5050506040513d602081101561072157600080fd5b5051604080516020818101939093528151808203840181529082019091528051910120815161075790839060049081106105f757fe5b80519060200120146107b35760408051600160e51b62461bcd02815260206004820152601560248201527f4578747261206461746120697320696e76616c69640000000000000000000000604482015290519081900360640190fd5b6107bb611061565b6107fa84848080601f016020809104026020016040519081016040528093929190818152602001838380828437600092019190915250610c3692505050565b60028054600090815260046020818152604080842086518155868301516001820155868201519581019590955560608601516003860155608086015194830180546001600160a01b0319166001600160a01b039687161790556005548151600160e21b630a1ef8f902815291519697509395939094169363287be3e493818401939091829003018186803b15801561089157600080fd5b505afa1580156108a5573d6000803e3d6000fd5b505050506040513d60208110156108bb57600080fd5b50516040519091506001600160a01b03821690632e9cac4c908b908b908083838082843780830192505050925050506040518091039020898986608001516040518563ffffffff1660e01b81526004018085815260200180602001836001600160a01b03166001600160a01b031681526020018281038252858582818152602001925080828437600081840152601f19601f82011690508083019250505095505050505050600060405180830381600087803b15801561097a57600080fd5b505af115801561098e573d6000803e3d6000fd5b5050505060025482608001516001600160a01b03167ff146921b854b787ba7d6045e8a8054731dc62430ae16c4bf08147539b1b6ef8f84602001518560400151866000015160405180848152602001838152602001828152602001935050505060405180910390a3600254610a0b9061271063ffffffff610a3b16565b6002555050600160035550505050505050565b610a26610519565b610a2f57600080fd5b610a3881610dd9565b50565b600082820183811015610a4d57600080fd5b9392505050565b600082821115610a6357600080fd5b50900390565b610a7161109c565b506040805180820190915281518152602082810190820152919050565b6060610a9982610e47565b610aa257600080fd5b6000610aad83610e81565b9050606081604051908082528060200260200182016040528015610aeb57816020015b610ad861109c565b815260200190600190039081610ad05790505b5090506000610afd8560200151610edd565b60208601510190506000805b84811015610b5457610b1a83610f40565b9150604051806040016040528083815260200184815250848281518110610b3d57fe5b602090810291909101015291810191600101610b09565b509195945050505050565b8051606090610b6d57600080fd5b6000610b7c8360200151610edd565b83516040805191839003808352601f19601f8201168301602001909152919250606090828015610bb3576020820181803883390190505b5090506000816020019050610bcf848760200151018285610fd9565b50949350505050565b805160009015801590610bed57508151602110155b610bf657600080fd5b6000610c058360200151610edd565b83516020808601518301805193945091849003929190831015610bcf57506020919091036101000a90049392505050565b610c3e611061565b6060610c4c6105b584610a69565b9050610c6b81600081518110610c5e57fe5b6020026020010151610a8e565b9050610c8a81600081518110610c7d57fe5b6020026020010151611024565b6001600160a01b031660808301526002546000906127101015610ccb5760046000610cb3610554565b81526020019081526020016000206002015460010190505b610cdb8260018151811061067557fe5b8114610d315760408051600160e51b62461bcd02815260206004820152601560248201527f494e434f52524543545f53544152545f424c4f434b0000000000000000000000604482015290519081900360640190fd5b80836020018181525050610d4b8260028151811061067557fe5b6040840181905260208401511115610dad5760408051600160e51b62461bcd02815260206004820152601160248201527f4e4f545f414444494e475f424c4f434b53000000000000000000000000000000604482015290519081900360640190fd5b610dca82600381518110610dbd57fe5b6020026020010151611044565b83525050426060820152919050565b6001600160a01b038116610dec57600080fd5b600080546040516001600160a01b03808516939216917f8be0079c531659141344cd1fd0a4f28419497f9722a3daafe3b4186f6b6457e091a3600080546001600160a01b0319166001600160a01b0392909216919091179055565b8051600090610e5857506000610480565b6020820151805160001a9060c0821015610e7757600092505050610480565b5060019392505050565b8051600090610e9257506000610480565b60008090506000610ea68460200151610edd565b602085015185519181019250015b80821015610ed457610ec582610f40565b60019093019290910190610eb4565b50909392505050565b8051600090811a6080811015610ef7576000915050610480565b60b8811080610f12575060c08110801590610f12575060f881105b15610f21576001915050610480565b60c0811015610f355760b519019050610480565b60f519019050610480565b80516000908190811a6080811015610f5b5760019150610fd2565b60b8811015610f7057607e1981019150610fd2565b60c0811015610f9d5760b78103600185019450806020036101000a85510460018201810193505050610fd2565b60f8811015610fb25760be1981019150610fd2565b60f78103600185019450806020036101000a855104600182018101935050505b5092915050565b80610fe35761101f565b5b60208110611003578251825260209283019290910190601f1901610fe4565b8251825160208390036101000a60001901801990921691161782525b505050565b805160009060151461103557600080fd5b61103e82610bd8565b92915050565b805160009060211461105557600080fd5b50602001516001015190565b6040518060a001604052806000801916815260200160008152602001600081526020016000815260200160006001600160a01b031681525090565b60405180604001604052806000815260200160008152509056fe554e415554484f52495a45445f4445504f5349545f4d414e414745525f4f4e4c59a165627a7a723058203109a20f20c162a7fad8a7410c5be31976bb27d8134e5cabb8b200ea5944a8ec0029",
  "source": "pragma solidity ^0.5.2;\n\nimport { RLPReader } from \"solidity-rlp/contracts/RLPReader.sol\";\nimport { Ownable } from \"openzeppelin-solidity/contracts/ownership/Ownable.sol\";\nimport { SafeMath } from \"openzeppelin-solidity/contracts/math/SafeMath.sol\";\n\nimport { RootChainHeader, RootChainStorage } from \"./RootChainStorage.sol\";\nimport { IStakeManager } from \"../staking/IStakeManager.sol\";\nimport { IRootChain } from \"./IRootChain.sol\";\nimport { Registry } from \"../common/Registry.sol\";\n\n\ncontract RootChain is RootChainStorage, IRootChain {\n  using SafeMath for uint256;\n  using RLPReader for bytes;\n  using RLPReader for RLPReader.RLPItem;\n\n  modifier onlyDepositManager() {\n    require(\n      msg.sender == registry.getDepositManagerAddress(),\n      \"UNAUTHORIZED_DEPOSIT_MANAGER_ONLY\"\n    );\n    _;\n  }\n\n  constructor (address _registry) public {\n    registry = Registry(_registry);\n  }\n\n  function submitHeaderBlock(\n    bytes calldata vote,\n    bytes calldata sigs,\n    bytes calldata txData)\n    external\n  {\n    RLPReader.RLPItem[] memory dataList = vote.toRlpItem().toList();\n    require(keccak256(dataList[0].toBytes()) == HEIMDALL_ID, \"Chain ID is invalid\");\n    require(dataList[1].toUint() == VOTE_TYPE, \"Vote type is invalid\");\n\n    // validate hash of txData was signed as part of the vote\n    require(keccak256(dataList[4].toBytes()) == keccak256(abi.encodePacked(sha256(txData))), \"Extra data is invalid\");\n\n    RootChainHeader.HeaderBlock memory headerBlock = _buildHeaderBlock(txData);\n    headerBlocks[_nextHeaderBlock] = headerBlock;\n\n    // check if it is better to keep it in local storage instead\n    IStakeManager stakeManager = IStakeManager(registry.getStakeManagerAddress());\n    stakeManager.checkSignatures(keccak256(vote), sigs, headerBlock.proposer);\n\n    emit NewHeaderBlock(headerBlock.proposer, _nextHeaderBlock, headerBlock.start, headerBlock.end, headerBlock.root);\n    _nextHeaderBlock = _nextHeaderBlock.add(MAX_DEPOSITS);\n    _blockDepositId = 1;\n  }\n\n  function updateDepositId(uint256 numDeposits)\n    external\n    onlyDepositManager\n    returns(uint256 depositId)\n  {\n    depositId = currentHeaderBlock().add(_blockDepositId);\n    // deposit ids will be (_blockDepositId, _blockDepositId + 1, .... _blockDepositId + numDeposits - 1)\n    _blockDepositId = _blockDepositId.add(numDeposits);\n    require(\n      // Since _blockDepositId is initialized to 1; only (MAX_DEPOSITS - 1) deposits per header block are allowed\n      _blockDepositId <= MAX_DEPOSITS,\n      \"TOO_MANY_DEPOSITS\"\n    );\n  }\n\n  function currentHeaderBlock() public view returns(uint256) {\n    return _nextHeaderBlock.sub(MAX_DEPOSITS);\n  }\n\n  function getLastChildBlock() external view returns(uint256) {\n    return headerBlocks[currentHeaderBlock()].end;\n  }\n\n  function slash() external {\n    //TODO: future implementation\n  }\n\n  function _buildHeaderBlock(bytes memory data)\n    private\n    view\n    returns(HeaderBlock memory headerBlock)\n  {\n    RLPReader.RLPItem[] memory dataList = data.toRlpItem().toList();\n    dataList = dataList[0].toList();\n\n    headerBlock.proposer = dataList[0].toAddress();\n    // Is this required? Why does a proposer need to be the sender? Think validator relay networks\n    // require(msg.sender == dataList[0].toAddress(), \"Invalid proposer\");\n\n    uint256 nextChildBlock;\n    /*\n    The ID of the 1st header block is MAX_DEPOSITS.\n    if _nextHeaderBlock == MAX_DEPOSITS, then the first header block is yet to be submitted, hence nextChildBlock = 0\n    */\n    if (_nextHeaderBlock > MAX_DEPOSITS) {\n      nextChildBlock = headerBlocks[currentHeaderBlock()].end + 1;\n    }\n    require(\n      nextChildBlock == dataList[1].toUint(),\n      \"INCORRECT_START_BLOCK\"\n    );\n    headerBlock.start = nextChildBlock;\n    headerBlock.end = dataList[2].toUint();\n    require(\n      headerBlock.end >= headerBlock.start,\n      \"NOT_ADDING_BLOCKS\"\n    );\n\n    // toUintStrict returns the encoded uint. Encoded data must be padded to 32 bytes.\n    headerBlock.root = bytes32(dataList[3].toUintStrict());\n    headerBlock.createdAt = now;\n  }\n}\n",
  "sourcePath": "/Users/arpit/projects/contracts/contracts/root/RootChain.sol",
  "compiler": {
    "name": "solc",
    "version": "0.5.7+commit.6da8b019.Emscripten.clang"
  },
  "schemaVersion": "3.0.16",
  "updatedAt": "2019-09-21T10:53:39.029Z",
  "devdoc": {
    "methods": {
      "isOwner()": {
        "return": "true if `msg.sender` is the owner of the contract."
      },
      "owner()": {
        "return": "the address of the owner."
      },
      "renounceOwnership()": {
        "details": "Allows the current owner to relinquish control of the contract. It will not be possible to call the functions with the `onlyOwner` modifier anymore."
      },
      "transferOwnership(address)": {
        "details": "Allows the current owner to transfer control of the contract to a newOwner.",
        "params": {
          "newOwner": "The address to transfer ownership to."
        }
      }
    }
  },
  "userdoc": {
    "methods": {
      "renounceOwnership()": {
        "notice": "Renouncing ownership will leave the contract without an owner, thereby removing any functionality that is only available to the owner."
      }
    }
  }
}