{
  "contractName": "RootChainStorage",
  "abi": [
    {
      "constant": true,
      "inputs": [
        {
          "name": "",
          "type": "uint256"
        }
      ],
      "name": "headerBlocks",
      "outputs": [
        {
          "name": "root",
          "type": "bytes32"
        },
        {
          "name": "start",
          "type": "uint256"
        },
        {
          "name": "end",
          "type": "uint256"
        },
        {
          "name": "createdAt",
          "type": "uint256"
        },
        {
          "name": "proposer",
          "type": "address"
        }
      ],
      "payable": false,
      "stateMutability": "view",
      "type": "function"
    },
    {
      "constant": true,
      "inputs": [],
      "name": "HEIMDALL_ID",
      "outputs": [
        {
          "name": "",
          "type": "bytes32"
        }
      ],
      "payable": false,
      "stateMutability": "view",
      "type": "function"
    },
    {
      "constant": false,
      "inputs": [],
      "name": "renounceOwnership",
      "outputs": [],
      "payable": false,
      "stateMutability": "nonpayable",
      "type": "function"
    },
    {
      "constant": true,
      "inputs": [],
      "name": "owner",
      "outputs": [
        {
          "name": "",
          "type": "address"
        }
      ],
      "payable": false,
      "stateMutability": "view",
      "type": "function"
    },
    {
      "constant": true,
      "inputs": [],
      "name": "isOwner",
      "outputs": [
        {
          "name": "",
          "type": "bool"
        }
      ],
      "payable": false,
      "stateMutability": "view",
      "type": "function"
    },
    {
      "constant": true,
      "inputs": [],
      "name": "VOTE_TYPE",
      "outputs": [
        {
          "name": "",
          "type": "uint8"
        }
      ],
      "payable": false,
      "stateMutability": "view",
      "type": "function"
    },
    {
      "constant": false,
      "inputs": [
        {
          "name": "newOwner",
          "type": "address"
        }
      ],
      "name": "transferOwnership",
      "outputs": [],
      "payable": false,
      "stateMutability": "nonpayable",
      "type": "function"
    },
    {
      "anonymous": false,
      "inputs": [
        {
          "indexed": true,
          "name": "proposer",
          "type": "address"
        },
        {
          "indexed": true,
          "name": "headerBlockId",
          "type": "uint256"
        },
        {
          "indexed": false,
          "name": "start",
          "type": "uint256"
        },
        {
          "indexed": false,
          "name": "end",
          "type": "uint256"
        },
        {
          "indexed": false,
          "name": "root",
          "type": "bytes32"
        }
      ],
      "name": "NewHeaderBlock",
      "type": "event"
    },
    {
      "anonymous": false,
      "inputs": [
        {
          "indexed": true,
          "name": "previousOwner",
          "type": "address"
        },
        {
          "indexed": true,
          "name": "newOwner",
          "type": "address"
        }
      ],
      "name": "OwnershipTransferred",
      "type": "event"
    }
  ],
  "bytecode": "0x608060408190526127106002556001600355600080546001600160a01b03191633178082556001600160a01b0316917f8be0079c531659141344cd1fd0a4f28419497f9722a3daafe3b4186f6b6457e0908290a3610320806100626000396000f3fe608060405234801561001057600080fd5b506004361061007d5760003560e01c80638da5cb5b1161005b5780638da5cb5b146100f75780638f32d59b1461011b578063d5b844eb14610137578063f2fde38b146101555761007d565b806341539d4a146100825780636d378b0c146100d3578063715018a6146100ed575b600080fd5b61009f6004803603602081101561009857600080fd5b503561017b565b6040805195865260208601949094528484019290925260608401526001600160a01b03166080830152519081900360a00190f35b6100db6101b4565b60408051918252519081900360200190f35b6100f56101e9565b005b6100ff610244565b604080516001600160a01b039092168252519081900360200190f35b610123610253565b604080519115158252519081900360200190f35b61013f610264565b6040805160ff9092168252519081900360200190f35b6100f56004803603602081101561016b57600080fd5b50356001600160a01b0316610269565b6004602081905260009182526040909120805460018201546002830154600384015493909401549193909290916001600160a01b031685565b604080517f6865696d64616c6c2d50357258776700000000000000000000000000000000008152905190819003600f01902081565b6101f1610253565b6101fa57600080fd5b600080546040516001600160a01b03909116907f8be0079c531659141344cd1fd0a4f28419497f9722a3daafe3b4186f6b6457e0908390a3600080546001600160a01b0319169055565b6000546001600160a01b031690565b6000546001600160a01b0316331490565b600281565b610271610253565b61027a57600080fd5b61028381610286565b50565b6001600160a01b03811661029957600080fd5b600080546040516001600160a01b03808516939216917f8be0079c531659141344cd1fd0a4f28419497f9722a3daafe3b4186f6b6457e091a3600080546001600160a01b0319166001600160a01b039290921691909117905556fea165627a7a72305820e48a5785f236e5896125ca3fab9fd832fbcafbdd6504900af775e98c43b7f3a30029",
  "source": "pragma solidity ^0.5.2;\n\nimport { Registry } from \"../common/Registry.sol\";\nimport { ProxyStorage } from \"../common/misc/ProxyStorage.sol\";\n\n\ncontract RootChainHeader {\n  event NewHeaderBlock(\n    address indexed proposer,\n    uint256 indexed headerBlockId,\n    uint256 start,\n    uint256 end,\n    bytes32 root\n  );\n\n  struct HeaderBlock {\n    bytes32 root;\n    uint256 start;\n    uint256 end;\n    uint256 createdAt;\n    address proposer;\n  }\n}\n\ncontract RootChainStorage is ProxyStorage, RootChainHeader {\n  // @todo hardcode constants\n  bytes32 public constant HEIMDALL_ID = keccak256(\"heimdall-P5rXwg\");\n  // bytes32 public constant BOR_ID = keccak256(\"15001\");\n  uint8 public constant VOTE_TYPE = 2;\n\n  uint16 internal constant MAX_DEPOSITS = 10000;\n  uint256 internal _nextHeaderBlock = MAX_DEPOSITS;\n  uint256 internal _blockDepositId = 1;\n  mapping(uint256 => HeaderBlock) public headerBlocks;\n  Registry internal registry;\n}\n",
  "sourcePath": "/Users/arpit/projects/contracts/contracts/root/RootChainStorage.sol",
  "compiler": {
    "name": "solc",
    "version": "0.5.7+commit.6da8b019.Emscripten.clang"
  },
  "schemaVersion": "3.0.16",
  "updatedAt": "2019-09-21T10:53:39.072Z",
  "devdoc": {
    "methods": {
      "isOwner()": {
        "return": "true if `msg.sender` is the owner of the contract."
      },
      "owner()": {
        "return": "the address of the owner."
      },
      "renounceOwnership()": {
        "details": "Allows the current owner to relinquish control of the contract. It will not be possible to call the functions with the `onlyOwner` modifier anymore."
      },
      "transferOwnership(address)": {
        "details": "Allows the current owner to transfer control of the contract to a newOwner.",
        "params": {
          "newOwner": "The address to transfer ownership to."
        }
      }
    }
  },
  "userdoc": {
    "methods": {
      "renounceOwnership()": {
        "notice": "Renouncing ownership will leave the contract without an owner, thereby removing any functionality that is only available to the owner."
      }
    }
  }
}