{
  "contractName": "RootERC721",
  "abi": [
    {
      "constant": true,
      "inputs": [
        {
          "name": "interfaceId",
          "type": "bytes4"
        }
      ],
      "name": "supportsInterface",
      "outputs": [
        {
          "name": "",
          "type": "bool"
        }
      ],
      "payable": false,
      "stateMutability": "view",
      "type": "function"
    },
    {
      "constant": true,
      "inputs": [],
      "name": "name",
      "outputs": [
        {
          "name": "",
          "type": "string"
        }
      ],
      "payable": false,
      "stateMutability": "view",
      "type": "function"
    },
    {
      "constant": true,
      "inputs": [
        {
          "name": "tokenId",
          "type": "uint256"
        }
      ],
      "name": "getApproved",
      "outputs": [
        {
          "name": "",
          "type": "address"
        }
      ],
      "payable": false,
      "stateMutability": "view",
      "type": "function"
    },
    {
      "constant": false,
      "inputs": [
        {
          "name": "to",
          "type": "address"
        },
        {
          "name": "tokenId",
          "type": "uint256"
        }
      ],
      "name": "approve",
      "outputs": [],
      "payable": false,
      "stateMutability": "nonpayable",
      "type": "function"
    },
    {
      "constant": true,
      "inputs": [],
      "name": "totalSupply",
      "outputs": [
        {
          "name": "",
          "type": "uint256"
        }
      ],
      "payable": false,
      "stateMutability": "view",
      "type": "function"
    },
    {
      "constant": false,
      "inputs": [
        {
          "name": "from",
          "type": "address"
        },
        {
          "name": "to",
          "type": "address"
        },
        {
          "name": "tokenId",
          "type": "uint256"
        }
      ],
      "name": "transferFrom",
      "outputs": [],
      "payable": false,
      "stateMutability": "nonpayable",
      "type": "function"
    },
    {
      "constant": true,
      "inputs": [
        {
          "name": "owner",
          "type": "address"
        },
        {
          "name": "index",
          "type": "uint256"
        }
      ],
      "name": "tokenOfOwnerByIndex",
      "outputs": [
        {
          "name": "",
          "type": "uint256"
        }
      ],
      "payable": false,
      "stateMutability": "view",
      "type": "function"
    },
    {
      "constant": false,
      "inputs": [
        {
          "name": "from",
          "type": "address"
        },
        {
          "name": "to",
          "type": "address"
        },
        {
          "name": "tokenId",
          "type": "uint256"
        }
      ],
      "name": "safeTransferFrom",
      "outputs": [],
      "payable": false,
      "stateMutability": "nonpayable",
      "type": "function"
    },
    {
      "constant": true,
      "inputs": [
        {
          "name": "index",
          "type": "uint256"
        }
      ],
      "name": "tokenByIndex",
      "outputs": [
        {
          "name": "",
          "type": "uint256"
        }
      ],
      "payable": false,
      "stateMutability": "view",
      "type": "function"
    },
    {
      "constant": true,
      "inputs": [
        {
          "name": "tokenId",
          "type": "uint256"
        }
      ],
      "name": "ownerOf",
      "outputs": [
        {
          "name": "",
          "type": "address"
        }
      ],
      "payable": false,
      "stateMutability": "view",
      "type": "function"
    },
    {
      "constant": true,
      "inputs": [
        {
          "name": "owner",
          "type": "address"
        }
      ],
      "name": "balanceOf",
      "outputs": [
        {
          "name": "",
          "type": "uint256"
        }
      ],
      "payable": false,
      "stateMutability": "view",
      "type": "function"
    },
    {
      "constant": true,
      "inputs": [],
      "name": "symbol",
      "outputs": [
        {
          "name": "",
          "type": "string"
        }
      ],
      "payable": false,
      "stateMutability": "view",
      "type": "function"
    },
    {
      "constant": false,
      "inputs": [
        {
          "name": "to",
          "type": "address"
        },
        {
          "name": "approved",
          "type": "bool"
        }
      ],
      "name": "setApprovalForAll",
      "outputs": [],
      "payable": false,
      "stateMutability": "nonpayable",
      "type": "function"
    },
    {
      "constant": false,
      "inputs": [
        {
          "name": "from",
          "type": "address"
        },
        {
          "name": "to",
          "type": "address"
        },
        {
          "name": "tokenId",
          "type": "uint256"
        },
        {
          "name": "_data",
          "type": "bytes"
        }
      ],
      "name": "safeTransferFrom",
      "outputs": [],
      "payable": false,
      "stateMutability": "nonpayable",
      "type": "function"
    },
    {
      "constant": true,
      "inputs": [
        {
          "name": "tokenId",
          "type": "uint256"
        }
      ],
      "name": "tokenURI",
      "outputs": [
        {
          "name": "",
          "type": "string"
        }
      ],
      "payable": false,
      "stateMutability": "view",
      "type": "function"
    },
    {
      "constant": true,
      "inputs": [
        {
          "name": "owner",
          "type": "address"
        },
        {
          "name": "operator",
          "type": "address"
        }
      ],
      "name": "isApprovedForAll",
      "outputs": [
        {
          "name": "",
          "type": "bool"
        }
      ],
      "payable": false,
      "stateMutability": "view",
      "type": "function"
    },
    {
      "inputs": [
        {
          "name": "name",
          "type": "string"
        },
        {
          "name": "symbol",
          "type": "string"
        }
      ],
      "payable": false,
      "stateMutability": "nonpayable",
      "type": "constructor"
    },
    {
      "anonymous": false,
      "inputs": [
        {
          "indexed": true,
          "name": "from",
          "type": "address"
        },
        {
          "indexed": true,
          "name": "to",
          "type": "address"
        },
        {
          "indexed": true,
          "name": "tokenId",
          "type": "uint256"
        }
      ],
      "name": "Transfer",
      "type": "event"
    },
    {
      "anonymous": false,
      "inputs": [
        {
          "indexed": true,
          "name": "owner",
          "type": "address"
        },
        {
          "indexed": true,
          "name": "approved",
          "type": "address"
        },
        {
          "indexed": true,
          "name": "tokenId",
          "type": "uint256"
        }
      ],
      "name": "Approval",
      "type": "event"
    },
    {
      "anonymous": false,
      "inputs": [
        {
          "indexed": true,
          "name": "owner",
          "type": "address"
        },
        {
          "indexed": true,
          "name": "operator",
          "type": "address"
        },
        {
          "indexed": false,
          "name": "approved",
          "type": "bool"
        }
      ],
      "name": "ApprovalForAll",
      "type": "event"
    },
    {
      "constant": false,
      "inputs": [
        {
          "name": "tokenId",
          "type": "uint256"
        }
      ],
      "name": "mint",
      "outputs": [],
      "payable": false,
      "stateMutability": "nonpayable",
      "type": "function"
    }
  ],
  "bytecode": "0x60806040523480156200001157600080fd5b50604051620011b5380380620011b5833981018060405260408110156200003757600080fd5b8101908080516401000000008111156200005057600080fd5b820160208101848111156200006457600080fd5b81516401000000008111828201871017156200007f57600080fd5b505092919060200180516401000000008111156200009c57600080fd5b82016020810184811115620000b057600080fd5b8151640100000000811182820187101715620000cb57600080fd5b505092919050505081818181620000ef6301ffc9a760e01b6200016f60201b60201c565b620001076380ac58cd60e01b6200016f60201b60201c565b6200011f63780e9d6360e01b6200016f60201b60201c565b815162000134906009906020850190620001dc565b5080516200014a90600a906020840190620001dc565b5062000163635b5e139f60e01b6200016f60201b60201c565b50505050505062000281565b7fffffffff0000000000000000000000000000000000000000000000000000000080821614156200019f57600080fd5b7fffffffff00000000000000000000000000000000000000000000000000000000166000908152602081905260409020805460ff19166001179055565b828054600181600116156101000203166002900490600052602060002090601f016020900481019282601f106200021f57805160ff19168380011785556200024f565b828001600101855582156200024f579182015b828111156200024f57825182559160200191906001019062000232565b506200025d92915062000261565b5090565b6200027e91905b808211156200025d576000815560010162000268565b90565b610f2480620002916000396000f3fe608060405234801561001057600080fd5b506004361061010b5760003560e01c80634f6ccce7116100a2578063a0712d6811610071578063a0712d6814610349578063a22cb46514610366578063b88d4fde14610394578063c87b56dd1461045a578063e985e9c5146104775761010b565b80634f6ccce7146102e15780636352211e146102fe57806370a082311461031b57806395d89b41146103415761010b565b806318160ddd116100de57806318160ddd1461022f57806323b872dd146102495780632f745c591461027f57806342842e0e146102ab5761010b565b806301ffc9a71461011057806306fdde031461014b578063081812fc146101c8578063095ea7b314610201575b600080fd5b6101376004803603602081101561012657600080fd5b50356001600160e01b0319166104a5565b604080519115158252519081900360200190f35b6101536104c4565b6040805160208082528351818301528351919283929083019185019080838360005b8381101561018d578181015183820152602001610175565b50505050905090810190601f1680156101ba5780820380516001836020036101000a031916815260200191505b509250505060405180910390f35b6101e5600480360360208110156101de57600080fd5b503561055b565b604080516001600160a01b039092168252519081900360200190f35b61022d6004803603604081101561021757600080fd5b506001600160a01b03813516906020013561058b565b005b610237610638565b60408051918252519081900360200190f35b61022d6004803603606081101561025f57600080fd5b506001600160a01b0381358116916020810135909116906040013561063e565b6102376004803603604081101561029557600080fd5b506001600160a01b038135169060200135610661565b61022d600480360360608110156102c157600080fd5b506001600160a01b038135811691602081013590911690604001356106ae565b610237600480360360208110156102f757600080fd5b50356106c9565b6101e56004803603602081101561031457600080fd5b50356106fd565b6102376004803603602081101561033157600080fd5b50356001600160a01b0316610725565b61015361075b565b61022d6004803603602081101561035f57600080fd5b50356107bc565b61022d6004803603604081101561037c57600080fd5b506001600160a01b03813516906020013515156107c9565b61022d600480360360808110156103aa57600080fd5b6001600160a01b038235811692602081013590911691604082013591908101906080810160608201356401000000008111156103e557600080fd5b8201836020820111156103f757600080fd5b8035906020019184600183028401116401000000008311171561041957600080fd5b91908080601f01602080910402602001604051908101604052809392919081815260200183838082843760009201919091525092955061084d945050505050565b6101536004803603602081101561047057600080fd5b5035610873565b6101376004803603604081101561048d57600080fd5b506001600160a01b0381358116916020013516610926565b6001600160e01b03191660009081526020819052604090205460ff1690565b60098054604080516020601f60026000196101006001881615020190951694909404938401819004810282018101909252828152606093909290918301828280156105505780601f1061052557610100808354040283529160200191610550565b820191906000526020600020905b81548152906001019060200180831161053357829003601f168201915b505050505090505b90565b600061056682610954565b61056f57600080fd5b506000908152600260205260409020546001600160a01b031690565b6000610596826106fd565b9050806001600160a01b0316836001600160a01b031614156105b757600080fd5b336001600160a01b03821614806105d357506105d38133610926565b6105dc57600080fd5b60008281526002602052604080822080546001600160a01b0319166001600160a01b0387811691821790925591518593918516917f8c5be1e5ebec7d5bd14f71427d1e84f3dd0314c0f7b2291e5b200ac8c7c3b92591a4505050565b60075490565b6106483382610971565b61065157600080fd5b61065c8383836109d0565b505050565b600061066c83610725565b821061067757600080fd5b6001600160a01b038316600090815260056020526040902080548390811061069b57fe5b9060005260206000200154905092915050565b61065c8383836040518060200160405280600081525061084d565b60006106d3610638565b82106106de57600080fd5b600782815481106106eb57fe5b90600052602060002001549050919050565b6000818152600160205260408120546001600160a01b03168061071f57600080fd5b92915050565b60006001600160a01b03821661073a57600080fd5b6001600160a01b038216600090815260036020526040902061071f906109ef565b600a8054604080516020601f60026000196101006001881615020190951694909404938401819004810282018101909252828152606093909290918301828280156105505780601f1061052557610100808354040283529160200191610550565b6107c633826109f3565b50565b6001600160a01b0382163314156107df57600080fd5b3360008181526004602090815260408083206001600160a01b03871680855290835292819020805460ff1916861515908117909155815190815290519293927f17307eab39ab6107e8899845ad3d59bd9653f200f220920489ca2b5937696c31929181900390910190a35050565b61085884848461063e565b61086484848484610a14565b61086d57600080fd5b50505050565b606061087e82610954565b61088757600080fd5b6000828152600b602090815260409182902080548351601f60026000196101006001861615020190931692909204918201849004840281018401909452808452909183018282801561091a5780601f106108ef5761010080835404028352916020019161091a565b820191906000526020600020905b8154815290600101906020018083116108fd57829003601f168201915b50505050509050919050565b6001600160a01b03918216600090815260046020908152604080832093909416825291909152205460ff1690565b6000908152600160205260409020546001600160a01b0316151590565b60008061097d836106fd565b9050806001600160a01b0316846001600160a01b031614806109b85750836001600160a01b03166109ad8461055b565b6001600160a01b0316145b806109c857506109c88185610926565b949350505050565b6109db838383610b4d565b6109e58382610c2d565b61065c8282610d22565b5490565b6109fd8282610d60565b610a078282610d22565b610a1081610e01565b5050565b6000610a28846001600160a01b0316610e45565b610a34575060016109c8565b604051600160e11b630a85bd0102815233600482018181526001600160a01b03888116602485015260448401879052608060648501908152865160848601528651600095928a169463150b7a029490938c938b938b939260a4019060208501908083838e5b83811015610ab1578181015183820152602001610a99565b50505050905090810190601f168015610ade5780820380516001836020036101000a031916815260200191505b5095505050505050602060405180830381600087803b158015610b0057600080fd5b505af1158015610b14573d6000803e3d6000fd5b505050506040513d6020811015610b2a57600080fd5b50516001600160e01b031916600160e11b630a85bd010214915050949350505050565b826001600160a01b0316610b60826106fd565b6001600160a01b031614610b7357600080fd5b6001600160a01b038216610b8657600080fd5b610b8f81610e4b565b6001600160a01b0383166000908152600360205260409020610bb090610e86565b6001600160a01b0382166000908152600360205260409020610bd190610e9d565b60008181526001602052604080822080546001600160a01b0319166001600160a01b0386811691821790925591518493918716917fddf252ad1be2c89b69c2b068fc378daa952ba7f163c4a11628f55a4df523b3ef91a4505050565b6001600160a01b038216600090815260056020526040812054610c5790600163ffffffff610ea616565b600083815260066020526040902054909150808214610cf2576001600160a01b0384166000908152600560205260408120805484908110610c9457fe5b906000526020600020015490508060056000876001600160a01b03166001600160a01b031681526020019081526020016000208381548110610cd257fe5b600091825260208083209091019290925591825260069052604090208190555b6001600160a01b0384166000908152600560205260409020805490610d1b906000198301610ebb565b5050505050565b6001600160a01b0390911660009081526005602081815260408084208054868652600684529185208290559282526001810183559183529091200155565b6001600160a01b038216610d7357600080fd5b610d7c81610954565b15610d8657600080fd5b600081815260016020908152604080832080546001600160a01b0319166001600160a01b038716908117909155835260039091529020610dc590610e9d565b60405181906001600160a01b038416906000907fddf252ad1be2c89b69c2b068fc378daa952ba7f163c4a11628f55a4df523b3ef908290a45050565b600780546000838152600860205260408120829055600182018355919091527fa66cc928b5edb82af9bd49922954155ab7b0942694bea4ce44661d9a8736c6880155565b3b151590565b6000818152600260205260409020546001600160a01b0316156107c657600090815260026020526040902080546001600160a01b0319169055565b8054610e9990600163ffffffff610ea616565b9055565b80546001019055565b600082821115610eb557600080fd5b50900390565b81548183558181111561065c5760008381526020902061065c91810190830161055891905b80821115610ef45760008155600101610ee0565b509056fea165627a7a7230582009d3d10be3d581e9814c94f7c1ee89405fe7bdb495210370c32c0e1e9a3dc8d60029",
  "source": "pragma solidity ^0.5.2;\n\nimport { ERC721Full } from \"openzeppelin-solidity/contracts/token/ERC721/ERC721Full.sol\";\n\n\ncontract RootERC721 is ERC721Full {\n  constructor (string memory name, string memory symbol) ERC721Full(name, symbol)\n    public \n    {\n  }\n\n  function mint(uint256 tokenId) public {\n    _mint(msg.sender, tokenId);\n  }\n}\n",
  "sourcePath": "/Users/arpit/projects/contracts/contracts/common/tokens/RootERC721.sol",
  "compiler": {
    "name": "solc",
    "version": "0.5.7+commit.6da8b019.Emscripten.clang"
  },
  "schemaVersion": "3.0.16",
  "updatedAt": "2019-09-21T10:53:39.021Z",
  "devdoc": {
    "methods": {
      "approve(address,uint256)": {
        "details": "Approves another address to transfer the given token ID The zero address indicates there is no approved address. There can only be one approved address per token at a given time. Can only be called by the token owner or an approved operator.",
        "params": {
          "to": "address to be approved for the given token ID",
          "tokenId": "uint256 ID of the token to be approved"
        }
      },
      "balanceOf(address)": {
        "details": "Gets the balance of the specified address",
        "params": {
          "owner": "address to query the balance of"
        },
        "return": "uint256 representing the amount owned by the passed address"
      },
      "getApproved(uint256)": {
        "details": "Gets the approved address for a token ID, or zero if no address set Reverts if the token ID does not exist.",
        "params": {
          "tokenId": "uint256 ID of the token to query the approval of"
        },
        "return": "address currently approved for the given token ID"
      },
      "isApprovedForAll(address,address)": {
        "details": "Tells whether an operator is approved by a given owner",
        "params": {
          "operator": "operator address which you want to query the approval of",
          "owner": "owner address which you want to query the approval of"
        },
        "return": "bool whether the given operator is approved by the given owner"
      },
      "name()": {
        "details": "Gets the token name",
        "return": "string representing the token name"
      },
      "ownerOf(uint256)": {
        "details": "Gets the owner of the specified token ID",
        "params": {
          "tokenId": "uint256 ID of the token to query the owner of"
        },
        "return": "address currently marked as the owner of the given token ID"
      },
      "safeTransferFrom(address,address,uint256)": {
        "details": "Safely transfers the ownership of a given token ID to another address If the target address is a contract, it must implement `onERC721Received`, which is called upon a safe transfer, and return the magic value `bytes4(keccak256(\"onERC721Received(address,address,uint256,bytes)\"))`; otherwise, the transfer is reverted. Requires the msg.sender to be the owner, approved, or operator",
        "params": {
          "from": "current owner of the token",
          "to": "address to receive the ownership of the given token ID",
          "tokenId": "uint256 ID of the token to be transferred"
        }
      },
      "safeTransferFrom(address,address,uint256,bytes)": {
        "details": "Safely transfers the ownership of a given token ID to another address If the target address is a contract, it must implement `onERC721Received`, which is called upon a safe transfer, and return the magic value `bytes4(keccak256(\"onERC721Received(address,address,uint256,bytes)\"))`; otherwise, the transfer is reverted. Requires the msg.sender to be the owner, approved, or operator",
        "params": {
          "_data": "bytes data to send along with a safe transfer check",
          "from": "current owner of the token",
          "to": "address to receive the ownership of the given token ID",
          "tokenId": "uint256 ID of the token to be transferred"
        }
      },
      "setApprovalForAll(address,bool)": {
        "details": "Sets or unsets the approval of a given operator An operator is allowed to transfer all tokens of the sender on their behalf",
        "params": {
          "approved": "representing the status of the approval to be set",
          "to": "operator address to set the approval"
        }
      },
      "supportsInterface(bytes4)": {
        "details": "implement supportsInterface(bytes4) using a lookup table"
      },
      "symbol()": {
        "details": "Gets the token symbol",
        "return": "string representing the token symbol"
      },
      "tokenByIndex(uint256)": {
        "details": "Gets the token ID at a given index of all the tokens in this contract Reverts if the index is greater or equal to the total number of tokens",
        "params": {
          "index": "uint256 representing the index to be accessed of the tokens list"
        },
        "return": "uint256 token ID at the given index of the tokens list"
      },
      "tokenOfOwnerByIndex(address,uint256)": {
        "details": "Gets the token ID at a given index of the tokens list of the requested owner",
        "params": {
          "index": "uint256 representing the index to be accessed of the requested tokens list",
          "owner": "address owning the tokens list to be accessed"
        },
        "return": "uint256 token ID at the given index of the tokens list owned by the requested address"
      },
      "tokenURI(uint256)": {
        "details": "Returns an URI for a given token ID Throws if the token ID does not exist. May return an empty string.",
        "params": {
          "tokenId": "uint256 ID of the token to query"
        }
      },
      "totalSupply()": {
        "details": "Gets the total amount of tokens stored by the contract",
        "return": "uint256 representing the total amount of tokens"
      },
      "transferFrom(address,address,uint256)": {
        "details": "Transfers the ownership of a given token ID to another address Usage of this method is discouraged, use `safeTransferFrom` whenever possible Requires the msg.sender to be the owner, approved, or operator",
        "params": {
          "from": "current owner of the token",
          "to": "address to receive the ownership of the given token ID",
          "tokenId": "uint256 ID of the token to be transferred"
        }
      }
    }
  },
  "userdoc": {
    "methods": {}
  }
}