{
  "contractName": "RootChainValidator",
  "abi": [
    {
      "constant": false,
      "inputs": [],
      "name": "renounceOwnership",
      "outputs": [],
      "payable": false,
      "stateMutability": "nonpayable",
      "type": "function"
    },
    {
      "constant": true,
      "inputs": [],
      "name": "owner",
      "outputs": [
        {
          "name": "",
          "type": "address"
        }
      ],
      "payable": false,
      "stateMutability": "view",
      "type": "function"
    },
    {
      "constant": true,
      "inputs": [],
      "name": "isOwner",
      "outputs": [
        {
          "name": "",
          "type": "bool"
        }
      ],
      "payable": false,
      "stateMutability": "view",
      "type": "function"
    },
    {
      "constant": true,
      "inputs": [],
      "name": "rootChain",
      "outputs": [
        {
          "name": "",
          "type": "address"
        }
      ],
      "payable": false,
      "stateMutability": "view",
      "type": "function"
    },
    {
      "constant": false,
      "inputs": [],
      "name": "unlock",
      "outputs": [],
      "payable": false,
      "stateMutability": "nonpayable",
      "type": "function"
    },
    {
      "constant": true,
      "inputs": [],
      "name": "locked",
      "outputs": [
        {
          "name": "",
          "type": "bool"
        }
      ],
      "payable": false,
      "stateMutability": "view",
      "type": "function"
    },
    {
      "constant": false,
      "inputs": [
        {
          "name": "newRootChain",
          "type": "address"
        }
      ],
      "name": "changeRootChain",
      "outputs": [],
      "payable": false,
      "stateMutability": "nonpayable",
      "type": "function"
    },
    {
      "constant": false,
      "inputs": [
        {
          "name": "newOwner",
          "type": "address"
        }
      ],
      "name": "transferOwnership",
      "outputs": [],
      "payable": false,
      "stateMutability": "nonpayable",
      "type": "function"
    },
    {
      "constant": false,
      "inputs": [],
      "name": "lock",
      "outputs": [],
      "payable": false,
      "stateMutability": "nonpayable",
      "type": "function"
    },
    {
      "inputs": [
        {
          "name": "_registry",
          "type": "address"
        },
        {
          "name": "_rootChain",
          "type": "address"
        }
      ],
      "payable": false,
      "stateMutability": "nonpayable",
      "type": "constructor"
    },
    {
      "anonymous": false,
      "inputs": [
        {
          "indexed": true,
          "name": "previousRootChain",
          "type": "address"
        },
        {
          "indexed": true,
          "name": "newRootChain",
          "type": "address"
        }
      ],
      "name": "RootChainChanged",
      "type": "event"
    },
    {
      "anonymous": false,
      "inputs": [
        {
          "indexed": true,
          "name": "previousOwner",
          "type": "address"
        },
        {
          "indexed": true,
          "name": "newOwner",
          "type": "address"
        }
      ],
      "name": "OwnershipTransferred",
      "type": "event"
    },
    {
      "constant": true,
      "inputs": [
        {
          "name": "headerNumber",
          "type": "uint256"
        },
        {
          "name": "headerProof",
          "type": "bytes"
        },
        {
          "name": "blockNumber",
          "type": "uint256"
        },
        {
          "name": "blockTime",
          "type": "uint256"
        },
        {
          "name": "txRoot",
          "type": "bytes32"
        },
        {
          "name": "receiptRoot",
          "type": "bytes32"
        },
        {
          "name": "path",
          "type": "bytes"
        },
        {
          "name": "txBytes",
          "type": "bytes"
        },
        {
          "name": "txProof",
          "type": "bytes"
        }
      ],
      "name": "validateTxExistence",
      "outputs": [
        {
          "name": "",
          "type": "bool"
        }
      ],
      "payable": false,
      "stateMutability": "view",
      "type": "function"
    },
    {
      "constant": true,
      "inputs": [
        {
          "name": "headerNumber",
          "type": "uint256"
        },
        {
          "name": "headerProof",
          "type": "bytes"
        },
        {
          "name": "blockNumber",
          "type": "uint256"
        },
        {
          "name": "blockTime",
          "type": "uint256"
        },
        {
          "name": "txRoot",
          "type": "bytes32"
        },
        {
          "name": "receiptRoot",
          "type": "bytes32"
        },
        {
          "name": "path",
          "type": "bytes"
        },
        {
          "name": "txBytes",
          "type": "bytes"
        },
        {
          "name": "txProof",
          "type": "bytes"
        },
        {
          "name": "receiptBytes",
          "type": "bytes"
        },
        {
          "name": "receiptProof",
          "type": "bytes"
        }
      ],
      "name": "validateTxReceiptExistence",
      "outputs": [
        {
          "name": "",
          "type": "bool"
        }
      ],
      "payable": false,
      "stateMutability": "view",
      "type": "function"
    },
    {
      "constant": true,
      "inputs": [
        {
          "name": "headerNumber",
          "type": "uint256"
        },
        {
          "name": "headerProof",
          "type": "bytes"
        },
        {
          "name": "blockNumber",
          "type": "uint256"
        },
        {
          "name": "blockTime",
          "type": "uint256"
        },
        {
          "name": "txRoot",
          "type": "bytes32"
        },
        {
          "name": "receiptRoot",
          "type": "bytes32"
        },
        {
          "name": "path",
          "type": "bytes"
        },
        {
          "name": "txBytes",
          "type": "bytes"
        },
        {
          "name": "txProof",
          "type": "bytes"
        },
        {
          "name": "receiptBytes",
          "type": "bytes"
        },
        {
          "name": "receiptProof",
          "type": "bytes"
        }
      ],
      "name": "validateTx",
      "outputs": [
        {
          "name": "",
          "type": "bool"
        }
      ],
      "payable": false,
      "stateMutability": "view",
      "type": "function"
    }
  ],
  "bytecode": "0x608060405234801561001057600080fd5b506040516040806119f28339810180604052604081101561003057600080fd5b508051602090910151600080546001600160a01b03191633178082556040516001600160a01b039190911691907f8be0079c531659141344cd1fd0a4f28419497f9722a3daafe3b4186f6b6457e0908290a3600280546001600160a01b039384166001600160a01b03199182161790915560038054929093169116179055611935806100bd6000396000f3fe608060405234801561001057600080fd5b50600436106100b45760003560e01c8063a69df4b511610071578063a69df4b5146106bb578063cf309012146106c3578063d9bcb335146106cb578063e8afa8e814610a28578063f2fde38b14610a4e578063f83d08ba14610a74576100b4565b80630b3fa78c146100b95780636d4babac14610320578063715018a61461067d5780638da5cb5b146106875780638f32d59b146106ab578063987ab9db146106b3575b600080fd5b61030c60048036036101208110156100d057600080fd5b81359190810190604081016020820135600160201b8111156100f157600080fd5b82018360208201111561010357600080fd5b803590602001918460018302840111600160201b8311171561012457600080fd5b91908080601f016020809104026020016040519081016040528093929190818152602001838380828437600092019190915250929584359560208601359560408101359550606081013594509192509060a081019060800135600160201b81111561018e57600080fd5b8201836020820111156101a057600080fd5b803590602001918460018302840111600160201b831117156101c157600080fd5b91908080601f0160208091040260200160405190810160405280939291908181526020018383808284376000920191909152509295949360208101935035915050600160201b81111561021357600080fd5b82018360208201111561022557600080fd5b803590602001918460018302840111600160201b8311171561024657600080fd5b91908080601f0160208091040260200160405190810160405280939291908181526020018383808284376000920191909152509295949360208101935035915050600160201b81111561029857600080fd5b8201836020820111156102aa57600080fd5b803590602001918460018302840111600160201b831117156102cb57600080fd5b91908080601f016020809104026020016040519081016040528093929190818152602001838380828437600092019190915250929550610a7c945050505050565b604080519115158252519081900360200190f35b61030c600480360361016081101561033757600080fd5b81359190810190604081016020820135600160201b81111561035857600080fd5b82018360208201111561036a57600080fd5b803590602001918460018302840111600160201b8311171561038b57600080fd5b91908080601f016020809104026020016040519081016040528093929190818152602001838380828437600092019190915250929584359560208601359560408101359550606081013594509192509060a081019060800135600160201b8111156103f557600080fd5b82018360208201111561040757600080fd5b803590602001918460018302840111600160201b8311171561042857600080fd5b91908080601f0160208091040260200160405190810160405280939291908181526020018383808284376000920191909152509295949360208101935035915050600160201b81111561047a57600080fd5b82018360208201111561048c57600080fd5b803590602001918460018302840111600160201b831117156104ad57600080fd5b91908080601f0160208091040260200160405190810160405280939291908181526020018383808284376000920191909152509295949360208101935035915050600160201b8111156104ff57600080fd5b82018360208201111561051157600080fd5b803590602001918460018302840111600160201b8311171561053257600080fd5b91908080601f0160208091040260200160405190810160405280939291908181526020018383808284376000920191909152509295949360208101935035915050600160201b81111561058457600080fd5b82018360208201111561059657600080fd5b803590602001918460018302840111600160201b831117156105b757600080fd5b91908080601f0160208091040260200160405190810160405280939291908181526020018383808284376000920191909152509295949360208101935035915050600160201b81111561060957600080fd5b82018360208201111561061b57600080fd5b803590602001918460018302840111600160201b8311171561063c57600080fd5b91908080601f016020809104026020016040519081016040528093929190818152602001838380828437600092019190915250929550610c9d945050505050565b610685610e69565b005b61068f610ec4565b604080516001600160a01b039092168252519081900360200190f35b61030c610ed3565b61068f610ee4565b610685610ef3565b61030c610f16565b61030c60048036036101608110156106e257600080fd5b81359190810190604081016020820135600160201b81111561070357600080fd5b82018360208201111561071557600080fd5b803590602001918460018302840111600160201b8311171561073657600080fd5b91908080601f016020809104026020016040519081016040528093929190818152602001838380828437600092019190915250929584359560208601359560408101359550606081013594509192509060a081019060800135600160201b8111156107a057600080fd5b8201836020820111156107b257600080fd5b803590602001918460018302840111600160201b831117156107d357600080fd5b91908080601f0160208091040260200160405190810160405280939291908181526020018383808284376000920191909152509295949360208101935035915050600160201b81111561082557600080fd5b82018360208201111561083757600080fd5b803590602001918460018302840111600160201b8311171561085857600080fd5b91908080601f0160208091040260200160405190810160405280939291908181526020018383808284376000920191909152509295949360208101935035915050600160201b8111156108aa57600080fd5b8201836020820111156108bc57600080fd5b803590602001918460018302840111600160201b831117156108dd57600080fd5b91908080601f0160208091040260200160405190810160405280939291908181526020018383808284376000920191909152509295949360208101935035915050600160201b81111561092f57600080fd5b82018360208201111561094157600080fd5b803590602001918460018302840111600160201b8311171561096257600080fd5b91908080601f0160208091040260200160405190810160405280939291908181526020018383808284376000920191909152509295949360208101935035915050600160201b8111156109b457600080fd5b8201836020820111156109c657600080fd5b803590602001918460018302840111600160201b831117156109e757600080fd5b91908080601f016020809104026020016040519081016040528093929190818152602001838380828437600092019190915250929550610f26945050505050565b61068560048036036020811015610a3e57600080fd5b50356001600160a01b0316610f4c565b61068560048036036020811015610a6457600080fd5b50356001600160a01b0316610fcc565b610685610fe9565b60035460408051600160e11b6320a9cea5028152600481018c90529051600092839283926001600160a01b03909216916341539d4a9160248082019260a092909190829003018186803b158015610ad257600080fd5b505afa158015610ae6573d6000803e3d6000fd5b505050506040513d60a0811015610afc57600080fd5b810190808051906020019092919080519060200190929190805190602001909291908051906020019092919080519060200190929190505050909150905050809250819350505089898989604051602001808581526020018481526020018381526020018281526020019450505050506040516020818303038152906040528051906020012073__Merkle________________________________636c8f455c9091838d03858f6040518563ffffffff1660e01b81526004018085815260200184815260200183815260200180602001828103825283818151815260200191508051906020019080838360005b83811015610c01578181015183820152602001610be9565b50505050905090810190601f168015610c2e5780820380516001836020036101000a031916815260200191505b509550505050505060206040518083038186803b158015610c4e57600080fd5b505af4158015610c62573d6000803e3d6000fd5b505050506040513d6020811015610c7857600080fd5b50518015610c8d5750610c8d8587868b611012565b9c9b505050505050505050505050565b6000610cb28c8c8c8c8c8c8c8c8c8c8c610f26565b1580610cbd57508451155b80610cc757508251155b15610cd457506000610e5a565b610cdc6118ef565b610ce586611241565b9050610cf081611267565b1580610d065750610d00816112a1565b51600914155b15610d15576000915050610e5a565b610d1e84611241565b9050610d2981611267565b610d37576000915050610e5a565b6060610d42826112a1565b905080516004141580610d6f5750610d6d81600381518110610d6057fe5b6020026020010151611267565b155b15610d7f57600092505050610e5a565b610d9c81600381518110610d8f57fe5b60200260200101516112a1565b805190915015610e535760005b81518160ff161015610e5157610dc7828260ff1681518110610d6057fe5b1580610de557506002610de2838360ff1681518110610d8f57fe5b51105b80610e0e5750610e0c610e00838360ff1681518110610d8f57fe5b600181518110610d6057fe5b155b80610e385750610e35610e29838360ff1681518110610d8f57fe5b600181518110610d8f57fe5b51155b15610e495760009350505050610e5a565b600101610da9565b505b6001925050505b9b9a5050505050505050505050565b610e71610ed3565b610e7a57600080fd5b600080546040516001600160a01b03909116907f8be0079c531659141344cd1fd0a4f28419497f9722a3daafe3b4186f6b6457e0908390a3600080546001600160a01b0319169055565b6000546001600160a01b031690565b6000546001600160a01b0316331490565b6001546001600160a01b031681565b610efb610ed3565b610f0457600080fd5b60018054600160a01b60ff0219169055565b600154600160a01b900460ff1681565b6000610f398c8c8c8c8c8c8c8c8c610a7c565b8015610c8d5750610c8d8387848a611012565b610f54610ed3565b610f5d57600080fd5b6001600160a01b038116610f7057600080fd5b6001546040516001600160a01b038084169216907f211c9015fc81c0dbd45bd99f0f29fc1c143bfd53442d5ffd722bbbef7a887fe990600090a3600180546001600160a01b0319166001600160a01b0392909216919091179055565b610fd4610ed3565b610fdd57600080fd5b610fe681611372565b50565b610ff1610ed3565b610ffa57600080fd5b60018054600160a01b60ff021916600160a01b179055565b600061101c6118ef565b61102584611241565b90506060611032826112a1565b9050606080856000826110448b6113e0565b9050805160001415611060576000975050505050505050611239565b60005b865181101561123057815183111561108657600098505050505050505050611239565b6110a287828151811061109557fe5b602002602001015161151c565b9550858051906020012084146110c357600098505050505050505050611239565b6110d2878281518110610d8f57fe5b94508451601114156111a557815183141561113b578c8051906020012061110c866010815181106110ff57fe5b6020026020010151611584565b80519060200120141561112a57600198505050505050505050611239565b600098505050505050505050611239565b600082848151811061114957fe5b602001015160f81c60f81b60f81c905060108160ff1611156111775760009950505050505050505050611239565b611196868260ff168151811061118957fe5b60200260200101516115fd565b94505060019290920191611228565b84516002141561112a576111c96111c2866000815181106110ff57fe5b838561161a565b82519301928314156111ed578c8051906020012061110c866001815181106110ff57fe5b6112006111c2866000815181106110ff57fe5b61121557600098505050505050505050611239565b6112258560018151811061118957fe5b93505b600101611063565b50505050505050505b949350505050565b6112496118ef565b5060408051808201909152815181526020828101908201525b919050565b805160009061127857506000611262565b6020820151805160001a9060c082101561129757600092505050611262565b5060019392505050565b60606112ac82611267565b6112b557600080fd5b60006112c0836116e2565b90506060816040519080825280602002602001820160405280156112fe57816020015b6112eb6118ef565b8152602001906001900390816112e35790505b5090506000611310856020015161173e565b60208601510190506000805b848110156113675761132d836117a1565b915060405180604001604052808381526020018481525084828151811061135057fe5b60209081029190910101529181019160010161131c565b509195945050505050565b6001600160a01b03811661138557600080fd5b600080546040516001600160a01b03808516939216917f8be0079c531659141344cd1fd0a4f28419497f9722a3daafe3b4186f6b6457e091a3600080546001600160a01b0319166001600160a01b0392909216919091179055565b606080600083511115611516576000806113fb600086611835565b60f81c90508060ff166001148061141557508060ff166003145b1561148d5760018551600202036040519080825280601f01601f19166020018201604052801561144c576020820181803883390190505b509250600061145c600187611835565b9050808460008151811061146c57fe5b60200101906001600160f81b031916908160001a90535060019250506114c7565b60028551600202036040519080825280601f01601f1916602001820160405280156114bf576020820181803883390190505b509250600091505b60ff82165b8351811015611512576114e78360ff16820360020187611835565b8482815181106114f357fe5b60200101906001600160f81b031916908160001a9053506001016114cc565b5050505b92915050565b60608082600001516040519080825280601f01601f19166020018201604052801561154e576020820181803883390190505b509050805160001415611562579050611262565b600081602001905061157d84602001518286600001516118a4565b5092915050565b805160609061159257600080fd5b60006115a1836020015161173e565b83516040805191839003808352601f19601f82011683016020019091529192506060908280156115d8576020820181803883390190505b50905060008160200190506115f48487602001510182856118a4565b50949350505050565b805160009060211461160e57600080fd5b50602001516001015190565b6000806060611628866113e0565b9050606081516040519080825280601f01601f191660200182016040528015611658576020820181803883390190505b509050845b825186018110156116b257600087828151811061167657fe5b602001015160f81c60f81b905080838884038151811061169257fe5b60200101906001600160f81b031916908160001a9053505060010161165d565b508080519060200120828051906020012014156116d257815192506116d7565b600092505b509095945050505050565b80516000906116f357506000611262565b60008090506000611707846020015161173e565b602085015185519181019250015b8082101561173557611726826117a1565b60019093019290910190611715565b50909392505050565b8051600090811a6080811015611758576000915050611262565b60b8811080611773575060c08110801590611773575060f881105b15611782576001915050611262565b60c08110156117965760b519019050611262565b60f519019050611262565b80516000908190811a60808110156117bc576001915061157d565b60b88110156117d157607e198101915061157d565b60c08110156117fe5760b78103600185019450806020036101000a8551046001820181019350505061157d565b60f88110156118135760be198101915061157d565b60019390930151602084900360f7016101000a900490920160f5190192915050565b6000600283061561186f57601082600285048151811061185157fe5b602001015160f81c60f81b60f81c60ff168161186957fe5b0661189a565b601082600285048151811061188057fe5b602001015160f81c60f81b60f81c60ff168161189857fe5b045b60f81b9392505050565b806118ae576118ea565b5b602081106118ce578251825260209283019290910190601f19016118af565b8251825160208390036101000a60001901801990921691161782525b505050565b60405180604001604052806000815260200160008152509056fea165627a7a723058200bb024a7eb5225af5f4acbc7b9059218190b7313fa6dfa39d73ae440a96779ec0029",
  "source": "pragma solidity ^0.5.2;\n\nimport { RLPReader } from \"solidity-rlp/contracts/RLPReader.sol\";\n\nimport { Common } from \"../lib/Common.sol\";\nimport { Merkle } from \"../lib/Merkle.sol\";\nimport { MerklePatriciaProof } from \"../lib/MerklePatriciaProof.sol\";\nimport { RLPEncode } from \"../lib/RLPEncode.sol\";\nimport { Lockable } from \"./Lockable.sol\";\n\nimport { RootChain } from \"../../root/RootChain.sol\";\nimport { RootChainHeader } from \"../../root/RootChainStorage.sol\";\nimport { IWithdrawManager } from \"../../root/withdrawManager/IWithdrawManager.sol\";\nimport { Registry } from \"../Registry.sol\";\nimport { RootChainable } from \"./RootChainable.sol\";\n\n\ncontract RootChainValidator is RootChainable, Lockable {\n  using RLPReader for bytes;\n  using RLPReader for RLPReader.RLPItem;\n  using Merkle for bytes32;\n\n  Registry internal registry;\n  RootChain internal rootChain;\n\n  constructor(Registry _registry, address _rootChain)\n    public\n  {\n    registry = _registry;\n    rootChain = RootChain(_rootChain);\n  }\n\n  // validate transaction\n  function validateTxExistence(\n    uint256 headerNumber,\n    bytes memory headerProof,\n\n    uint256 blockNumber,\n    uint256 blockTime,\n\n    bytes32 txRoot,\n    bytes32 receiptRoot,\n    bytes memory path,\n\n    bytes memory txBytes,\n    bytes memory txProof\n  ) public view returns (bool) {\n    // fetch header block\n    bytes32 headerRoot;\n    uint256 start;\n    (headerRoot, start, ,,) = rootChain.headerBlocks(headerNumber);\n    // check if tx's block is included in header and tx is in block\n    return keccak256(abi.encodePacked(blockNumber, blockTime, txRoot, receiptRoot))\n      .checkMembership(blockNumber - start, headerRoot, headerProof) &&\n    MerklePatriciaProof.verify(txBytes, path, txProof, txRoot);\n  }\n\n  // validate transaction & receipt\n  function validateTxReceiptExistence(\n    uint256 headerNumber,\n    bytes memory headerProof,\n\n    uint256 blockNumber,\n    uint256 blockTime,\n\n    bytes32 txRoot,\n    bytes32 receiptRoot,\n    bytes memory path,\n\n    bytes memory txBytes,\n    bytes memory txProof,\n\n    bytes memory receiptBytes,\n    bytes memory receiptProof\n  )\n    public\n    view\n    returns (bool)\n  {\n    // validate tx existance and receipt\n    return validateTxExistence(\n      headerNumber,\n      headerProof,\n      blockNumber,\n      blockTime,\n      txRoot,\n      receiptRoot,\n      path,\n      txBytes,\n      txProof\n    ) && MerklePatriciaProof.verify(receiptBytes, path, receiptProof, receiptRoot);\n  }\n\n  // validate tx\n  function validateTx(\n    uint256 headerNumber,\n    bytes memory headerProof,\n\n    uint256 blockNumber,\n    uint256 blockTime,\n\n    bytes32 txRoot,\n    bytes32 receiptRoot,\n    bytes memory path,\n\n    bytes memory txBytes,\n    bytes memory txProof,\n\n    bytes memory receiptBytes,\n    bytes memory receiptProof\n  )\n    public\n    view\n    returns (bool)\n  {\n    if (\n      !validateTxReceiptExistence(\n        headerNumber,\n        headerProof,\n        blockNumber,\n        blockTime,\n        txRoot,\n        receiptRoot,\n        path,\n        txBytes,\n        txProof,\n        receiptBytes,\n        receiptProof\n      ) ||\n      txBytes.length == 0 ||\n      receiptBytes.length == 0\n    ) {\n      return false;\n    }\n\n    RLPReader.RLPItem memory rlpItem = txBytes.toRlpItem();\n    if (!rlpItem.isList() || rlpItem.toList().length != 9) {\n      return false;\n    }\n\n    // receipt check\n    rlpItem = receiptBytes.toRlpItem();\n    if (!rlpItem.isList()) {\n      return false;\n    }\n\n    RLPReader.RLPItem[] memory items = rlpItem.toList();\n    if (items.length != 4 || !items[3].isList()) {\n      return false;\n    }\n\n    // topics\n    items = items[3].toList();\n    if (items.length > 0) {\n      // iterate through topic\n      for (uint8 i = 0; i < items.length; i++) {\n        if (!items[i].isList() ||\n          items[i].toList().length < 2 ||\n          !items[i].toList()[1].isList() ||\n          items[i].toList()[1].toList().length == 0\n        ) {\n          return false;\n        }\n      }\n    }\n\n    return true;\n  }\n\n  // get tx sender\n  function getTxSender(bytes memory txBytes) internal view returns (address) {\n    // check tx\n    RLPReader.RLPItem[] memory txList = txBytes.toRlpItem().toList();\n\n    // get tx sender\n    return getTxSender(txList);\n  }\n\n  // get tx sender\n  function getTxSender(RLPReader.RLPItem[] memory txList) internal view returns (address) {\n    // raw tx\n    bytes[] memory rawTx = new bytes[](9);\n    for (uint8 i = 0; i <= 5; i++) {\n      rawTx[i] = txList[i].toBytes();\n    }\n\n    rawTx[4] = hex\"\";\n    rawTx[6] = registry.networkId();\n    rawTx[7] = hex\"\";\n    rawTx[8] = hex\"\";\n\n    // recover tx sender\n    return ecrecover(\n      keccak256(RLPEncode.encodeList(rawTx)),\n      Common.getV(txList[6].toBytes(), Common.toUint8(rawTx[6])),\n      bytes32(txList[7].toUint()),\n      bytes32(txList[8].toUint())\n    );\n  }\n}\n",
  "sourcePath": "/Users/arpit/projects/contracts/contracts/common/mixin/RootChainValidator.sol",
  "compiler": {
    "name": "solc",
    "version": "0.5.7+commit.6da8b019.Emscripten.clang"
  },
  "schemaVersion": "3.0.14",
  "updatedAt": "2019-11-13T10:42:44.392Z",
  "devdoc": {
    "methods": {
      "changeRootChain(address)": {
        "details": "Allows the current owner to change root chain address.",
        "params": {
          "newRootChain": "The address to new rootchain."
        }
      },
      "isOwner()": {
        "return": "true if `msg.sender` is the owner of the contract."
      },
      "owner()": {
        "return": "the address of the owner."
      },
      "renounceOwnership()": {
        "details": "Allows the current owner to relinquish control of the contract. It will not be possible to call the functions with the `onlyOwner` modifier anymore."
      },
      "transferOwnership(address)": {
        "details": "Allows the current owner to transfer control of the contract to a newOwner.",
        "params": {
          "newOwner": "The address to transfer ownership to."
        }
      }
    }
  },
  "userdoc": {
    "methods": {
      "renounceOwnership()": {
        "notice": "Renouncing ownership will leave the contract without an owner, thereby removing any functionality that is only available to the owner."
      }
    }
  }
}