{
  "contractName": "RootChainMock",
  "abi": [
    {
      "constant": false,
      "inputs": [
        {
          "name": "_token",
          "type": "address"
        },
        {
          "name": "_user",
          "type": "address"
        },
        {
          "name": "_amount",
          "type": "uint256"
        }
      ],
      "name": "transferAmount",
      "outputs": [
        {
          "name": "",
          "type": "bool"
        }
      ],
      "payable": false,
      "stateMutability": "nonpayable",
      "type": "function"
    },
    {
      "constant": false,
      "inputs": [
        {
          "name": "_stakeManager",
          "type": "address"
        }
      ],
      "name": "setStakeManager",
      "outputs": [],
      "payable": false,
      "stateMutability": "nonpayable",
      "type": "function"
    },
    {
      "constant": false,
      "inputs": [
        {
          "name": "operator",
          "type": "address"
        },
        {
          "name": "from",
          "type": "address"
        },
        {
          "name": "tokenId",
          "type": "uint256"
        },
        {
          "name": "data",
          "type": "bytes"
        }
      ],
      "name": "onERC721Received",
      "outputs": [
        {
          "name": "",
          "type": "bytes4"
        }
      ],
      "payable": false,
      "stateMutability": "nonpayable",
      "type": "function"
    },
    {
      "constant": false,
      "inputs": [
        {
          "name": "_withdrawManager",
          "type": "address"
        }
      ],
      "name": "setWithdrawManager",
      "outputs": [],
      "payable": false,
      "stateMutability": "nonpayable",
      "type": "function"
    },
    {
      "constant": false,
      "inputs": [
        {
          "name": "_depositManager",
          "type": "address"
        }
      ],
      "name": "setDepositManager",
      "outputs": [],
      "payable": false,
      "stateMutability": "nonpayable",
      "type": "function"
    },
    {
      "constant": true,
      "inputs": [],
      "name": "childChainContract",
      "outputs": [
        {
          "name": "",
          "type": "address"
        }
      ],
      "payable": false,
      "stateMutability": "view",
      "type": "function"
    },
    {
      "constant": true,
      "inputs": [],
      "name": "roundType",
      "outputs": [
        {
          "name": "",
          "type": "bytes32"
        }
      ],
      "payable": false,
      "stateMutability": "view",
      "type": "function"
    },
    {
      "constant": false,
      "inputs": [],
      "name": "slash",
      "outputs": [],
      "payable": false,
      "stateMutability": "nonpayable",
      "type": "function"
    },
    {
      "constant": true,
      "inputs": [
        {
          "name": "_depositCount",
          "type": "uint256"
        }
      ],
      "name": "depositBlock",
      "outputs": [
        {
          "name": "",
          "type": "uint256"
        },
        {
          "name": "",
          "type": "address"
        },
        {
          "name": "",
          "type": "address"
        },
        {
          "name": "",
          "type": "uint256"
        },
        {
          "name": "",
          "type": "uint256"
        }
      ],
      "payable": false,
      "stateMutability": "view",
      "type": "function"
    },
    {
      "constant": false,
      "inputs": [
        {
          "name": "_token",
          "type": "address"
        },
        {
          "name": "_user",
          "type": "address"
        },
        {
          "name": "_tokenId",
          "type": "uint256"
        }
      ],
      "name": "depositERC721",
      "outputs": [],
      "payable": false,
      "stateMutability": "nonpayable",
      "type": "function"
    },
    {
      "constant": true,
      "inputs": [
        {
          "name": "",
          "type": "uint256"
        }
      ],
      "name": "headerBlocks",
      "outputs": [
        {
          "name": "root",
          "type": "bytes32"
        },
        {
          "name": "start",
          "type": "uint256"
        },
        {
          "name": "end",
          "type": "uint256"
        },
        {
          "name": "createdAt",
          "type": "uint256"
        },
        {
          "name": "proposer",
          "type": "address"
        }
      ],
      "payable": false,
      "stateMutability": "view",
      "type": "function"
    },
    {
      "constant": false,
      "inputs": [
        {
          "name": "_nftContract",
          "type": "address"
        }
      ],
      "name": "setExitNFTContract",
      "outputs": [],
      "payable": false,
      "stateMutability": "nonpayable",
      "type": "function"
    },
    {
      "constant": false,
      "inputs": [
        {
          "name": "exitId",
          "type": "uint256"
        }
      ],
      "name": "deleteExit",
      "outputs": [],
      "payable": false,
      "stateMutability": "nonpayable",
      "type": "function"
    },
    {
      "constant": false,
      "inputs": [
        {
          "name": "_validator",
          "type": "address"
        }
      ],
      "name": "removeProofValidator",
      "outputs": [],
      "payable": false,
      "stateMutability": "nonpayable",
      "type": "function"
    },
    {
      "constant": true,
      "inputs": [],
      "name": "depositManager",
      "outputs": [
        {
          "name": "",
          "type": "address"
        }
      ],
      "payable": false,
      "stateMutability": "view",
      "type": "function"
    },
    {
      "constant": false,
      "inputs": [],
      "name": "renounceOwnership",
      "outputs": [],
      "payable": false,
      "stateMutability": "nonpayable",
      "type": "function"
    },
    {
      "constant": true,
      "inputs": [],
      "name": "stakeManager",
      "outputs": [
        {
          "name": "",
          "type": "address"
        }
      ],
      "payable": false,
      "stateMutability": "view",
      "type": "function"
    },
    {
      "constant": true,
      "inputs": [],
      "name": "voteType",
      "outputs": [
        {
          "name": "",
          "type": "bytes1"
        }
      ],
      "payable": false,
      "stateMutability": "view",
      "type": "function"
    },
    {
      "constant": false,
      "inputs": [
        {
          "name": "_token",
          "type": "address"
        },
        {
          "name": "_user",
          "type": "address"
        },
        {
          "name": "_amount",
          "type": "uint256"
        }
      ],
      "name": "deposit",
      "outputs": [],
      "payable": false,
      "stateMutability": "nonpayable",
      "type": "function"
    },
    {
      "constant": true,
      "inputs": [],
      "name": "owner",
      "outputs": [
        {
          "name": "",
          "type": "address"
        }
      ],
      "payable": false,
      "stateMutability": "view",
      "type": "function"
    },
    {
      "constant": true,
      "inputs": [],
      "name": "isOwner",
      "outputs": [
        {
          "name": "",
          "type": "bool"
        }
      ],
      "payable": false,
      "stateMutability": "view",
      "type": "function"
    },
    {
      "constant": true,
      "inputs": [],
      "name": "networkId",
      "outputs": [
        {
          "name": "",
          "type": "bytes"
        }
      ],
      "payable": false,
      "stateMutability": "view",
      "type": "function"
    },
    {
      "constant": true,
      "inputs": [],
      "name": "CHILD_BLOCK_INTERVAL",
      "outputs": [
        {
          "name": "",
          "type": "uint256"
        }
      ],
      "payable": false,
      "stateMutability": "view",
      "type": "function"
    },
    {
      "constant": false,
      "inputs": [
        {
          "name": "_token",
          "type": "address"
        }
      ],
      "name": "setWETHToken",
      "outputs": [],
      "payable": false,
      "stateMutability": "nonpayable",
      "type": "function"
    },
    {
      "constant": false,
      "inputs": [
        {
          "name": "_user",
          "type": "address"
        },
        {
          "name": "_amount",
          "type": "uint256"
        },
        {
          "name": "_data",
          "type": "bytes"
        }
      ],
      "name": "tokenFallback",
      "outputs": [],
      "payable": false,
      "stateMutability": "nonpayable",
      "type": "function"
    },
    {
      "constant": true,
      "inputs": [
        {
          "name": "",
          "type": "address"
        }
      ],
      "name": "proofValidatorContracts",
      "outputs": [
        {
          "name": "",
          "type": "bool"
        }
      ],
      "payable": false,
      "stateMutability": "view",
      "type": "function"
    },
    {
      "constant": true,
      "inputs": [],
      "name": "chain",
      "outputs": [
        {
          "name": "",
          "type": "bytes32"
        }
      ],
      "payable": false,
      "stateMutability": "view",
      "type": "function"
    },
    {
      "constant": false,
      "inputs": [
        {
          "name": "_validator",
          "type": "address"
        }
      ],
      "name": "addProofValidator",
      "outputs": [],
      "payable": false,
      "stateMutability": "nonpayable",
      "type": "function"
    },
    {
      "constant": false,
      "inputs": [
        {
          "name": "_rootToken",
          "type": "address"
        },
        {
          "name": "_childToken",
          "type": "address"
        },
        {
          "name": "_isERC721",
          "type": "bool"
        }
      ],
      "name": "mapToken",
      "outputs": [],
      "payable": false,
      "stateMutability": "nonpayable",
      "type": "function"
    },
    {
      "constant": true,
      "inputs": [],
      "name": "withdrawManager",
      "outputs": [
        {
          "name": "",
          "type": "address"
        }
      ],
      "payable": false,
      "stateMutability": "view",
      "type": "function"
    },
    {
      "constant": true,
      "inputs": [],
      "name": "currentHeaderBlock",
      "outputs": [
        {
          "name": "",
          "type": "uint256"
        }
      ],
      "payable": false,
      "stateMutability": "view",
      "type": "function"
    },
    {
      "constant": false,
      "inputs": [
        {
          "name": "vote",
          "type": "bytes"
        },
        {
          "name": "sigs",
          "type": "bytes"
        },
        {
          "name": "extradata",
          "type": "bytes"
        }
      ],
      "name": "submitHeaderBlock",
      "outputs": [],
      "payable": false,
      "stateMutability": "nonpayable",
      "type": "function"
    },
    {
      "constant": false,
      "inputs": [
        {
          "name": "newOwner",
          "type": "address"
        }
      ],
      "name": "transferOwnership",
      "outputs": [],
      "payable": false,
      "stateMutability": "nonpayable",
      "type": "function"
    },
    {
      "constant": false,
      "inputs": [],
      "name": "depositEthers",
      "outputs": [],
      "payable": true,
      "stateMutability": "payable",
      "type": "function"
    },
    {
      "constant": false,
      "inputs": [
        {
          "name": "newChildChain",
          "type": "address"
        }
      ],
      "name": "setChildContract",
      "outputs": [],
      "payable": false,
      "stateMutability": "nonpayable",
      "type": "function"
    },
    {
      "constant": false,
      "inputs": [
        {
          "name": "",
          "type": "uint256"
        }
      ],
      "name": "finalizeCommit",
      "outputs": [],
      "payable": false,
      "stateMutability": "nonpayable",
      "type": "function"
    },
    {
      "inputs": [],
      "payable": false,
      "stateMutability": "nonpayable",
      "type": "constructor"
    },
    {
      "payable": true,
      "stateMutability": "payable",
      "type": "fallback"
    },
    {
      "anonymous": false,
      "inputs": [
        {
          "indexed": true,
          "name": "previousChildChain",
          "type": "address"
        },
        {
          "indexed": true,
          "name": "newChildChain",
          "type": "address"
        }
      ],
      "name": "ChildChainChanged",
      "type": "event"
    },
    {
      "anonymous": false,
      "inputs": [
        {
          "indexed": true,
          "name": "validator",
          "type": "address"
        },
        {
          "indexed": true,
          "name": "from",
          "type": "address"
        }
      ],
      "name": "ProofValidatorAdded",
      "type": "event"
    },
    {
      "anonymous": false,
      "inputs": [
        {
          "indexed": true,
          "name": "validator",
          "type": "address"
        },
        {
          "indexed": true,
          "name": "from",
          "type": "address"
        }
      ],
      "name": "ProofValidatorRemoved",
      "type": "event"
    },
    {
      "anonymous": false,
      "inputs": [
        {
          "indexed": true,
          "name": "proposer",
          "type": "address"
        },
        {
          "indexed": true,
          "name": "number",
          "type": "uint256"
        },
        {
          "indexed": false,
          "name": "start",
          "type": "uint256"
        },
        {
          "indexed": false,
          "name": "end",
          "type": "uint256"
        },
        {
          "indexed": false,
          "name": "root",
          "type": "bytes32"
        }
      ],
      "name": "NewHeaderBlock",
      "type": "event"
    },
    {
      "anonymous": false,
      "inputs": [
        {
          "indexed": true,
          "name": "previousOwner",
          "type": "address"
        },
        {
          "indexed": true,
          "name": "newOwner",
          "type": "address"
        }
      ],
      "name": "OwnershipTransferred",
      "type": "event"
    },
    {
      "constant": true,
      "inputs": [],
      "name": "currentChildBlock",
      "outputs": [
        {
          "name": "",
          "type": "uint256"
        }
      ],
      "payable": false,
      "stateMutability": "view",
      "type": "function"
    },
    {
      "constant": false,
      "inputs": [
        {
          "name": "_c",
          "type": "uint256"
        }
      ],
      "name": "setCurrentHeaderBlock",
      "outputs": [],
      "payable": false,
      "stateMutability": "nonpayable",
      "type": "function"
    },
    {
      "constant": false,
      "inputs": [
        {
          "name": "_c",
          "type": "uint256"
        }
      ],
      "name": "setCurrentChildBlock",
      "outputs": [],
      "payable": false,
      "stateMutability": "nonpayable",
      "type": "function"
    },
    {
      "constant": true,
      "inputs": [
        {
          "name": "_headerNumber",
          "type": "uint256"
        }
      ],
      "name": "headerBlock",
      "outputs": [
        {
          "name": "_root",
          "type": "bytes32"
        },
        {
          "name": "_start",
          "type": "uint256"
        },
        {
          "name": "_end",
          "type": "uint256"
        },
        {
          "name": "_createdAt",
          "type": "uint256"
        }
      ],
      "payable": false,
      "stateMutability": "view",
      "type": "function"
    },
    {
      "constant": false,
      "inputs": [
        {
          "name": "_headerNumber",
          "type": "uint256"
        },
        {
          "name": "root",
          "type": "bytes32"
        },
        {
          "name": "start",
          "type": "uint256"
        },
        {
          "name": "end",
          "type": "uint256"
        },
        {
          "name": "createdAt",
          "type": "uint256"
        }
      ],
      "name": "setHeaderBlock",
      "outputs": [],
      "payable": false,
      "stateMutability": "nonpayable",
      "type": "function"
    }
  ],
  "bytecode": "0x608060405234801561001057600080fd5b5060008054600160a060020a0319163317808255604051600160a060020a039190911691907f8be0079c531659141344cd1fd0a4f28419497f9722a3daafe3b4186f6b6457e0908290a36127106004556128f38061006f6000396000f3006080604052600436106101df5763ffffffff60e060020a60003504166301f4747181146101e95780630e7c67fc14610227578063150b7a021461024857806317e3e2e8146102ec578063228d71a91461030d578063242fbb041461032e5780632c2d1a3b1461035f5780632da25de314610386578063325906541461039b578063331ded1a146103ea57806341539d4a1461041457806346e11a8d1461046057806350c3030814610481578063609dc55a1461049957806361bbd461146104ba5780636c7ac9d8146104f85780636fe176d51461050d578063715018a6146105255780637542ff951461053a5780637a95f1e81461054f5780637d1a3d37146105645780638340f549146105ae5780638da5cb5b146105d85780638ef56857146105ed5780638f32d59b146106055780639025e64c1461061a57806391c425f0146106a4578063a831fa07146106c8578063b45d1f68146106dd578063c0ee0b8a146106fe578063c4b875d314610767578063c763e5a114610788578063d060828b1461079d578063e117694b146107be578063ec3e9da5146107ea578063ec7e4855146107ff578063ec83d3ba14610814578063f2fde38b1461084c578063f477a6b7146101df578063f8d86e181461086d578063fb0df30f1461088e575b6101e76108a6565b005b3480156101f557600080fd5b50610213600160a060020a03600435811690602435166044356108cc565b604080519115158252519081900360200190f35b34801561023357600080fd5b506101e7600160a060020a0360043516610bbc565b34801561025457600080fd5b50604080516020601f6064356004818101359283018490048402850184019095528184526102b794600160a060020a038135811695602480359092169560443595369560849401918190840183828082843750949750610c069650505050505050565b604080517fffffffff000000000000000000000000000000000000000000000000000000009092168252519081900360200190f35b3480156102f857600080fd5b506101e7600160a060020a0360043516610cb3565b34801561031957600080fd5b506101e7600160a060020a0360043516610cfd565b34801561033a57600080fd5b50610343610d47565b60408051600160a060020a039092168252519081900360200190f35b34801561036b57600080fd5b50610374610d56565b60408051918252519081900360200190f35b34801561039257600080fd5b506101e7610d8b565b3480156103a757600080fd5b506103b3600435610db0565b60408051958652600160a060020a039485166020870152929093168483015260608401526080830191909152519081900360a00190f35b3480156103f657600080fd5b506101e7600160a060020a0360043581169060243516604435610e69565b34801561042057600080fd5b5061042c600435610f58565b604080519586526020860194909452848401929092526060840152600160a060020a03166080830152519081900360a00190f35b34801561046c57600080fd5b506101e7600160a060020a0360043516610f91565b34801561048d57600080fd5b506101e7600435611026565b3480156104a557600080fd5b506101e7600160a060020a03600435166110ca565b3480156104c657600080fd5b506104d260043561115f565b604080519485526020850193909352838301919091526060830152519081900360800190f35b34801561050457600080fd5b506103436111cf565b34801561051957600080fd5b506101e76004356111de565b34801561053157600080fd5b506101e76111e3565b34801561054657600080fd5b50610343611240565b34801561055b57600080fd5b5061037461124f565b34801561057057600080fd5b50610579611255565b604080517fff000000000000000000000000000000000000000000000000000000000000009092168252519081900360200190f35b3480156105ba57600080fd5b506101e7600160a060020a0360043581169060243516604435611279565b3480156105e457600080fd5b50610343611388565b3480156105f957600080fd5b506101e7600435611397565b34801561061157600080fd5b5061021361139c565b34801561062657600080fd5b5061062f6113ad565b6040805160208082528351818301528351919283929083019185019080838360005b83811015610669578181015183820152602001610651565b50505050905090810190601f1680156106965780820380516001836020036101000a031916815260200191505b509250505060405180910390f35b3480156106b057600080fd5b506101e76004356024356044356064356084356113e4565b3480156106d457600080fd5b5061037461145d565b3480156106e957600080fd5b506101e7600160a060020a0360043516611463565b34801561070a57600080fd5b50604080516020600460443581810135601f81018490048402850184019095528484526101e7948235600160a060020a031694602480359536959460649492019190819084018382808284375094975061155c9650505050505050565b34801561077357600080fd5b50610213600160a060020a03600435166115e7565b34801561079457600080fd5b506103746115fc565b3480156107a957600080fd5b506101e7600160a060020a0360043516611631565b3480156107ca57600080fd5b506101e7600160a060020a036004358116906024351660443515156116e3565b3480156107f657600080fd5b506103436117fc565b34801561080b57600080fd5b5061037461180b565b34801561082057600080fd5b506101e76024600480358281019290820135918135808301929082013591604435918201910135611811565b34801561085857600080fd5b506101e7600160a060020a03600435166121b6565b34801561087957600080fd5b506101e7600160a060020a03600435166121d2565b34801561089a57600080fd5b506101e7600435610dad565b60008080600080fd5b505af11580156108c3573d6000803e3d6000fd5b50505050505050565b60065460009081908190600160a060020a031633146108ea57600080fd5b600760009054906101000a9004600160a060020a0316600160a060020a0316634b57b0be6040518163ffffffff1660e060020a028152600401602060405180830381600087803b15801561093d57600080fd5b505af1158015610951573d6000803e3d6000fd5b505050506040513d602081101561096757600080fd5b5051600754604080517fdaa09e54000000000000000000000000000000000000000000000000000000008152600160a060020a038a81166004830152915193955091169163daa09e54916024808201926020929091908290030181600087803b1580156109d357600080fd5b505af11580156109e7573d6000803e3d6000fd5b505050506040513d60208110156109fd57600080fd5b505115610a9257604080517f23b872dd000000000000000000000000000000000000000000000000000000008152306004820152600160a060020a038781166024830152604482018790529151918816916323b872dd9160648082019260009290919082900301818387803b158015610a7557600080fd5b505af1158015610a89573d6000803e3d6000fd5b50505050610bb0565b81600160a060020a031686600160a060020a03161415610b165750604080517ef714ce00000000000000000000000000000000000000000000000000000000815260048101859052600160a060020a0386811660248301529151879283169162f714ce91604480830192600092919082900301818387803b158015610a7557600080fd5b85600160a060020a031663a9059cbb86866040518363ffffffff1660e060020a0281526004018083600160a060020a0316600160a060020a0316815260200182815260200192505050602060405180830381600087803b158015610b7957600080fd5b505af1158015610b8d573d6000803e3d6000fd5b505050506040513d6020811015610ba357600080fd5b50511515610bb057600080fd5b50600195945050505050565b610bc461139c565b1515610bcf57600080fd5b600160a060020a0381161515610be457600080fd5b60058054600160a060020a031916600160a060020a0392909216919091179055565b600754600480546040805160e360020a630929e54f02815292830191909152336024830152600160a060020a038681166044840152606483018690529051600093919091169163494f2a78916084808301928692919082900301818387803b158015610c7157600080fd5b505af1158015610c85573d6000803e3d6000fd5b507f150b7a020000000000000000000000000000000000000000000000000000000098975050505050505050565b610cbb61139c565b1515610cc657600080fd5b600160a060020a0381161515610cdb57600080fd5b60068054600160a060020a031916600160a060020a0392909216919091179055565b610d0561139c565b1515610d1057600080fd5b600160a060020a0381161515610d2557600080fd5b60078054600160a060020a031916600160a060020a0392909216919091179055565b600254600160a060020a031681565b604080517f766f7465000000000000000000000000000000000000000000000000000000008152905190819003600401902081565b3360008181526001602081905260409091205460ff16151514610dad57600080fd5b50565b6000806000806000600760009054906101000a9004600160a060020a0316600160a060020a03166332590654876040518263ffffffff1660e060020a0281526004018082815260200191505060a060405180830381600087803b158015610e1657600080fd5b505af1158015610e2a573d6000803e3d6000fd5b505050506040513d60a0811015610e4057600080fd5b508051602082015160408301516060840151608090940151929a91995097509195509350915050565b604080517f23b872dd000000000000000000000000000000000000000000000000000000008152336004820152306024820152604481018390529051600160a060020a038516916323b872dd91606480830192600092919082900301818387803b158015610ed657600080fd5b505af1158015610eea573d6000803e3d6000fd5b5050600754600480546040805160e360020a630929e54f02815292830191909152600160a060020a03888116602484015287811660448401526064830187905290519216935063494f2a78925060848082019260009290919082900301818387803b1580156108af57600080fd5b600360208190526000918252604090912080546001820154600283015493830154600490930154919390929091600160a060020a031685565b610f9961139c565b1515610fa457600080fd5b600654604080517f46e11a8d000000000000000000000000000000000000000000000000000000008152600160a060020a038481166004830152915191909216916346e11a8d91602480830192600092919082900301818387803b15801561100b57600080fd5b505af115801561101f573d6000803e3d6000fd5b5050505050565b3360008181526001602081905260409091205460ff1615151461104857600080fd5b600654604080517f50c30308000000000000000000000000000000000000000000000000000000008152600481018590529051600160a060020a03909216916350c303089160248082019260009290919082900301818387803b1580156110ae57600080fd5b505af11580156110c2573d6000803e3d6000fd5b505050505050565b6110d261139c565b15156110dd57600080fd5b600160a060020a03811660009081526001602081905260409091205460ff1615151461110857600080fd5b6040513390600160a060020a038316907f96bedef125d36a85bf369db1f6ac9d7487d9daf6d4c22539249f1bf94a11e11990600090a3600160a060020a03166000908152600160205260409020805460ff19169055565b60008060008061116d612861565b5050506000928352505060036020818152604092839020835160a0810185528154808252600183015493820184905260028301549582018690529382015460608201819052600490920154600160a060020a0316608090910152919390929190565b600754600160a060020a031681565b600955565b6111eb61139c565b15156111f657600080fd5b60008054604051600160a060020a03909116907f8be0079c531659141344cd1fd0a4f28419497f9722a3daafe3b4186f6b6457e0908390a360008054600160a060020a0319169055565b600554600160a060020a031681565b60095490565b7f020000000000000000000000000000000000000000000000000000000000000081565b604080517f23b872dd000000000000000000000000000000000000000000000000000000008152336004820152306024820152604481018390529051600160a060020a038516916323b872dd9160648083019260209291908290030181600087803b1580156112e757600080fd5b505af11580156112fb573d6000803e3d6000fd5b505050506040513d602081101561131157600080fd5b5051151561131e57600080fd5b600754600480546040805160e360020a630929e54f02815292830191909152600160a060020a038681166024840152858116604484015260648301859052905192169163494f2a789160848082019260009290919082900301818387803b1580156108af57600080fd5b600054600160a060020a031690565b600855565b600054600160a060020a0316331490565b60408051808201909152600281527f1212000000000000000000000000000000000000000000000000000000000000602082015281565b6040805160a08101825294855260208086019485528582019384526060860192835233608087019081526000978852600391829052919096209451855592516001850155905160028401555192820192909255905160049091018054600160a060020a031916600160a060020a03909216919091179055565b61271081565b61146b61139c565b151561147657600080fd5b600754604080517fb45d1f68000000000000000000000000000000000000000000000000000000008152600160a060020a0384811660048301529151919092169163b45d1f6891602480830192600092919082900301818387803b1580156114dd57600080fd5b505af11580156114f1573d6000803e3d6000fd5b5050600654604080517fb45d1f68000000000000000000000000000000000000000000000000000000008152600160a060020a038681166004830152915191909216935063b45d1f689250602480830192600092919082900301818387803b15801561100b57600080fd5b600754600480546040805160e360020a630929e54f028152928301919091523360248301819052600160a060020a0387811660448501526064840187905291519093919091169163494f2a7891608480830192600092919082900301818387803b1580156115c957600080fd5b505af11580156115dd573d6000803e3d6000fd5b5050505050505050565b60016020526000908152604090205460ff1681565b604080517f6865696d64616c6c2d39337251774b00000000000000000000000000000000008152905190819003600f01902081565b61163961139c565b151561164457600080fd5b600160a060020a0381161580159061167b5750600160a060020a03811660009081526001602081905260409091205460ff16151514155b151561168657600080fd5b6040513390600160a060020a038316907f3dc12d30280bcd33917d2b84141129635923441ba7e6b388b946b41f5ace697d90600090a3600160a060020a03166000908152600160208190526040909120805460ff19169091179055565b6116eb61139c565b15156116f657600080fd5b600754604080517fe117694b000000000000000000000000000000000000000000000000000000008152600160a060020a038681166004830152858116602483015284151560448301529151919092169163e117694b91606480830192600092919082900301818387803b15801561176d57600080fd5b505af1158015611781573d6000803e3d6000fd5b5050600654604080517fe117694b000000000000000000000000000000000000000000000000000000008152600160a060020a03888116600483015287811660248301528615156044830152915191909216935063e117694b9250606480830192600092919082900301818387803b1580156108af57600080fd5b600654600160a060020a031681565b60045490565b60606000806000611820612861565b61186161185c8c8c8080601f01602080910402602001604051908101604052809392919081815260200183838082843750612256945050505050565b6122a9565b604080517f6865696d64616c6c2d39337251774b00000000000000000000000000000000008152905190819003600f0190208151919650906118b990879060009081106118aa57fe5b9060200190602002015161235e565b6040518082805190602001908083835b602083106118e85780518252601f1990920191602091820191016118c9565b6001836020036101000a038019825116818451168082178552505050505050905001915050604051809103902060001916141515611970576040805160e560020a62461bcd02815260206004820152601160248201527f436861696e204944206e6f742073616d65000000000000000000000000000000604482015290519081900360640190fd5b604080517f766f7465000000000000000000000000000000000000000000000000000000008152905190819003600401902085516119b590879060019081106118aa57fe5b6040518082805190602001908083835b602083106119e45780518252601f1990920191602091820191016119c5565b6001836020036101000a038019825116818451168082178552505050505050905001915050604051809103902060001916141515611a6c576040805160e560020a62461bcd02815260206004820152601460248201527f526f756e642074797065206e6f742073616d6520000000000000000000000000604482015290519081900360640190fd5b84517f020000000000000000000000000000000000000000000000000000000000000090611ab09087906004908110611aa157fe5b906020019060200201516123c0565b7fff000000000000000000000000000000000000000000000000000000000000001614611b27576040805160e560020a62461bcd02815260206004820152601260248201527f566f74652074797065206e6f742073616d650000000000000000000000000000604482015290519081900360640190fd5b60028787604051808383808284378201915050925050506020604051808303816000865af1158015611b5d573d6000803e3d6000fd5b5050506040513d6020811015611b7257600080fd5b5051604080516bffffffffffffffffffffffff199092168252519081900360140190208551611ba890879060059081106118aa57fe5b6040518082805190602001908083835b60208310611bd75780518252601f199092019160209182019101611bb8565b6001836020036101000a038019825116818451168082178552505050505050905001915050604051809103902060001916141515611c5f576040805160e560020a62461bcd02815260206004820152601560248201527f4578747261206461746120697320696e76616c69640000000000000000000000604482015290519081900360640190fd5b611c9b61185c88888080601f01602080910402602001604051908101604052809392919081815260200183838082843750612256945050505050565b9450611cbe856000815181101515611caf57fe5b90602001906020020151612423565b600160a060020a03163314611d1d576040805160e560020a62461bcd02815260206004820152601060248201527f496e76616c69642070726f706f73657200000000000000000000000000000000604482015290519081900360640190fd5b611d2561124f565b93506000841115611d4457611d4184600163ffffffff61245216565b93505b611d65856001815181101515611d5657fe5b9060200190602002015161246b565b8414611dbb576040805160e560020a62461bcd02815260206004820152601960248201527f537461727420626c6f636b20646f65736e2774206d6174636800000000000000604482015290519081900360640190fd5b611dcd856002815181101515611d5657fe5b9250611df0856003815181101515611de157fe5b906020019060200201516124b4565b9150838311611e49576040805160e560020a62461bcd02815260206004820152601160248201527f4e6f7420616464696e6720626c6f636b73000000000000000000000000000000604482015290519081900360640190fd5b600554604051600160a060020a039091169063ed516d51908d908d908083838082843782019150509250505060405180910390208b8b6040518463ffffffff1660e060020a0281526004018084600019166000191681526020018060200182810382528484828181526020019250808284378201915050945050505050602060405180830381600087803b158015611ee057600080fd5b505af1158015611ef4573d6000803e3d6000fd5b505050506040513d6020811015611f0a57600080fd5b50511515611f62576040805160e560020a62461bcd02815260206004820152601060248201527f536967732061726520696e76616c696400000000000000000000000000000000604482015290519081900360640190fd5b506040805160a081018252828152602080820186815282840186815242606080860191825233608087018181526004805460009081526003808a52908b90208a51815597516001890181905596516002890181905595519088015590519581018054600160a060020a031916600160a060020a0390971696909617909555935487519384529483019190915281860187905294519394929391927ff146921b854b787ba7d6045e8a8054731dc62430ae16c4bf08147539b1b6ef8f92918290030190a360045461203a9061271063ffffffff61245216565b6004818155600754604080517ffb0df30f000000000000000000000000000000000000000000000000000000008152928301939093529151600160a060020a039092169163fb0df30f9160248082019260009290919082900301818387803b1580156120a557600080fd5b505af11580156120b9573d6000803e3d6000fd5b505060065460048054604080517ffb0df30f0000000000000000000000000000000000000000000000000000000081529283019190915251600160a060020a03909216935063fb0df30f925060248082019260009290919082900301818387803b15801561212657600080fd5b505af115801561213a573d6000803e3d6000fd5b50505050600560009054906101000a9004600160a060020a0316600160a060020a03166335dda4986040518163ffffffff1660e060020a028152600401600060405180830381600087803b15801561219157600080fd5b505af11580156121a5573d6000803e3d6000fd5b505050505050505050505050505050565b6121be61139c565b15156121c957600080fd5b610dad816124c5565b6121da61139c565b15156121e557600080fd5b600160a060020a03811615156121fa57600080fd5b600254604051600160a060020a038084169216907f1f9f3556dd336016cdf20adaead7d5c73665dba664b60e8c17e9a4eb91ce1d3990600090a360028054600160a060020a031916600160a060020a0392909216919091179055565b61225e61288f565b8151600081151561228457604080518082019091526000808252602082015292506122a2565b60208401905060408051908101604052808281526020018381525092505b5050919050565b606060006122b56128a6565b60006122c085612535565b15156122cb57600080fd5b6122d48561255f565b92508260405190808252806020026020018201604052801561231057816020015b6122fd61288f565b8152602001906001900390816122f55790505b50935061231c856125cf565b91505b61232882612608565b156123565761233682612627565b848281518110151561234457fe5b6020908102909101015260010161231f565b505050919050565b606060008061236c8461266e565b151561237757600080fd5b61238084612697565b91509150806040519080825280601f01601f1916602001820160405280156123b2578160200160208202803883390190505b5092506122a2828483612714565b6000806000806123cf8561266e565b15156123da57600080fd5b6123e385612697565b9093509150600182146123f557600080fd5b50505160001a7f01000000000000000000000000000000000000000000000000000000000000000292915050565b60008061242f83612697565b915050601481111561244057600080fd5b6124498361246b565b91505b50919050565b60008282018381101561246457600080fd5b9392505050565b60008060006124798461266e565b151561248457600080fd5b61248d84612697565b909250905060208111156124a057600080fd5b806020036101000a82510492505050919050565b60006124bf8261246b565b92915050565b600160a060020a03811615156124da57600080fd5b60008054604051600160a060020a03808516939216917f8be0079c531659141344cd1fd0a4f28419497f9722a3daafe3b4186f6b6457e091a360008054600160a060020a031916600160a060020a0392909216919091179055565b60008082602001516000141561254e576000915061244c565b5050515160c060009190911a101590565b60008060008060008061257187612535565b151561258057600095506125c5565b8651805160001a9550935061259487612754565b840192506001876020015185010391505b8183116125c1576125b5836127d4565b909201916001016125a5565b8095505b5050505050919050565b6125d76128a6565b60006125e283612535565b15156125ed57600080fd5b6125f683612754565b83519383529092016020820152919050565b600061261261288f565b50508051602080820151915192015191011190565b61262f61288f565b60008061263b84612608565b156126695783602001519150612650826127d4565b82845260208085018290528382019086015290506122a2565b600080fd5b600080826020015160001415612687576000915061244c565b5050515160c060009190911a1090565b60008060008060006126a88661266e565b15156126b357600080fd5b8551805160001a9350915060808310156126d3578194506001935061270c565b60b88310156126f1576001866020015103935081600101945061270c565b60b78303905080600187602001510303935080820160010194505b505050915091565b60006020601f83010484602085015b82841461274157602084028281015190820152600190930192612723565b6000865160200187015250505050505050565b600080600083602001516000141561276f57600092506122a2565b50508151805160001a90608082101561278b57600092506122a2565b60b88210806127a6575060c082101580156127a6575060f882105b156127b457600192506122a2565b60c08210156127c95760b519820192506122a2565b5060f5190192915050565b8051600090811a60808110156127ed576001915061244c565b60b881101561280257607e198101915061244c565b60c081101561282b57600183015160b76020839003016101000a9004810160b51901915061244c565b60f88110156128405760be198101915061244c565b6001929092015160f76020849003016101000a900490910160f51901919050565b6040805160a08101825260008082526020820181905291810182905260608101829052608081019190915290565b604080518082019091526000808252602082015290565b6060604051908101604052806128ba61288f565b81526020016000815250905600a165627a7a723058209b8d4894e0ec3a341dac29c26059f25a56747677054688dd55c40ee6946530fa0029",
  "source": "pragma solidity ^0.4.24;\n\nimport { RootChain } from \"../root/RootChain.sol\";\nimport { DepositManager } from \"../root/DepositManager.sol\";\n\n\ncontract RootChainMock is RootChain {\n  uint256 private _currentHeaderBlock;\n  uint256 private _currentChildBlock;\n\n  constructor () RootChain public {\n  }\n\n  // retrieve current child block\n  function currentChildBlock() public view returns(uint256) {\n    return _currentChildBlock;\n  }\n  \n  function setCurrentHeaderBlock(uint256 _c) public {\n    _currentHeaderBlock = _c;\n  }\n\n  function setCurrentChildBlock(uint256 _c) public {\n    _currentChildBlock = _c;\n  }\n\n  // get flat header block\n  function headerBlock(uint256 _headerNumber) public view returns (\n    bytes32 _root,\n    uint256 _start,\n    uint256 _end,\n    uint256 _createdAt\n  ) {\n    HeaderBlock memory _headerBlock = headerBlocks[_headerNumber];\n\n    _root = _headerBlock.root;\n    _start = _headerBlock.start;\n    _end = _headerBlock.end;\n    _createdAt = _headerBlock.createdAt;\n  }\n\n  //\n  // Internal methods\n  //\n\n  // set header block\n  function setHeaderBlock(\n    uint256 _headerNumber,\n    bytes32 root,\n    uint256 start,\n    uint256 end,\n    uint256 createdAt\n  ) public {\n    headerBlocks[_headerNumber] = HeaderBlock({\n      root: root,\n      start: start,\n      end: end,\n      createdAt: createdAt,\n      proposer: msg.sender\n    });\n  }\n}\n",
  "sourcePath": "/Users/atvanguard/matic/contracts/contracts/mocks/RootChainMock.sol",
  "compiler": {
    "name": "solc",
    "version": "0.4.24+commit.e67f0147.Emscripten.clang"
  },
  "schemaVersion": "2.0.1",
  "updatedAt": "2019-12-07T09:11:33.302Z"
}