{
  "contractName": "RootChain",
  "abi": [
    {
      "constant": true,
      "inputs": [
        {
          "internalType": "uint256",
          "name": "",
          "type": "uint256"
        }
      ],
      "name": "headerBlocks",
      "outputs": [
        {
          "internalType": "bytes32",
          "name": "root",
          "type": "bytes32"
        },
        {
          "internalType": "uint256",
          "name": "start",
          "type": "uint256"
        },
        {
          "internalType": "uint256",
          "name": "end",
          "type": "uint256"
        },
        {
          "internalType": "uint256",
          "name": "createdAt",
          "type": "uint256"
        },
        {
          "internalType": "address",
          "name": "proposer",
          "type": "address"
        }
      ],
      "payable": false,
      "stateMutability": "view",
      "type": "function"
    },
    {
      "constant": false,
      "inputs": [],
      "name": "renounceOwnership",
      "outputs": [],
      "payable": false,
      "stateMutability": "nonpayable",
      "type": "function"
    },
    {
      "constant": true,
      "inputs": [],
      "name": "owner",
      "outputs": [
        {
          "internalType": "address",
          "name": "",
          "type": "address"
        }
      ],
      "payable": false,
      "stateMutability": "view",
      "type": "function"
    },
    {
      "constant": true,
      "inputs": [],
      "name": "isOwner",
      "outputs": [
        {
          "internalType": "bool",
          "name": "",
          "type": "bool"
        }
      ],
      "payable": false,
      "stateMutability": "view",
      "type": "function"
    },
    {
      "constant": true,
      "inputs": [],
      "name": "VOTE_TYPE",
      "outputs": [
        {
          "internalType": "uint8",
          "name": "",
          "type": "uint8"
        }
      ],
      "payable": false,
      "stateMutability": "view",
      "type": "function"
    },
    {
      "constant": false,
      "inputs": [
        {
          "internalType": "address",
          "name": "newOwner",
          "type": "address"
        }
      ],
      "name": "transferOwnership",
      "outputs": [],
      "payable": false,
      "stateMutability": "nonpayable",
      "type": "function"
    },
    {
      "constant": true,
      "inputs": [],
      "name": "heimdallId",
      "outputs": [
        {
          "internalType": "bytes32",
          "name": "",
          "type": "bytes32"
        }
      ],
      "payable": false,
      "stateMutability": "view",
      "type": "function"
    },
    {
      "inputs": [
        {
          "internalType": "address",
          "name": "_registry",
          "type": "address"
        },
        {
          "internalType": "string",
          "name": "_heimdallId",
          "type": "string"
        }
      ],
      "payable": false,
      "stateMutability": "nonpayable",
      "type": "constructor"
    },
    {
      "anonymous": false,
      "inputs": [
        {
          "indexed": true,
          "internalType": "address",
          "name": "proposer",
          "type": "address"
        },
        {
          "indexed": true,
          "internalType": "uint256",
          "name": "headerBlockId",
          "type": "uint256"
        },
        {
          "indexed": true,
          "internalType": "uint256",
          "name": "reward",
          "type": "uint256"
        },
        {
          "indexed": false,
          "internalType": "uint256",
          "name": "start",
          "type": "uint256"
        },
        {
          "indexed": false,
          "internalType": "uint256",
          "name": "end",
          "type": "uint256"
        },
        {
          "indexed": false,
          "internalType": "bytes32",
          "name": "root",
          "type": "bytes32"
        }
      ],
      "name": "NewHeaderBlock",
      "type": "event"
    },
    {
      "anonymous": false,
      "inputs": [
        {
          "indexed": true,
          "internalType": "address",
          "name": "previousOwner",
          "type": "address"
        },
        {
          "indexed": true,
          "internalType": "address",
          "name": "newOwner",
          "type": "address"
        }
      ],
      "name": "OwnershipTransferred",
      "type": "event"
    },
    {
      "constant": false,
      "inputs": [
        {
          "internalType": "bytes",
          "name": "vote",
          "type": "bytes"
        },
        {
          "internalType": "bytes",
          "name": "sigs",
          "type": "bytes"
        },
        {
          "internalType": "bytes",
          "name": "txData",
          "type": "bytes"
        }
      ],
      "name": "submitHeaderBlock",
      "outputs": [],
      "payable": false,
      "stateMutability": "nonpayable",
      "type": "function"
    },
    {
      "constant": false,
      "inputs": [
        {
          "internalType": "uint256",
          "name": "numDeposits",
          "type": "uint256"
        }
      ],
      "name": "updateDepositId",
      "outputs": [
        {
          "internalType": "uint256",
          "name": "depositId",
          "type": "uint256"
        }
      ],
      "payable": false,
      "stateMutability": "nonpayable",
      "type": "function"
    },
    {
      "constant": true,
      "inputs": [],
      "name": "currentHeaderBlock",
      "outputs": [
        {
          "internalType": "uint256",
          "name": "",
          "type": "uint256"
        }
      ],
      "payable": false,
      "stateMutability": "view",
      "type": "function"
    },
    {
      "constant": true,
      "inputs": [],
      "name": "getLastChildBlock",
      "outputs": [
        {
          "internalType": "uint256",
          "name": "",
          "type": "uint256"
        }
      ],
      "payable": false,
      "stateMutability": "view",
      "type": "function"
    },
    {
      "constant": false,
      "inputs": [],
      "name": "slash",
      "outputs": [],
      "payable": false,
      "stateMutability": "nonpayable",
      "type": "function"
    }
  ],
  "bytecode": "0x6080604052612710600355600160045534801561001b57600080fd5b5060405161122d38038061122d8339818101604052604081101561003e57600080fd5b81516020830180516040519294929383019291908464010000000082111561006557600080fd5b90830190602082018581111561007a57600080fd5b825164010000000081118282018810171561009457600080fd5b82525081516020918201929091019080838360005b838110156100c15781810151838201526020016100a9565b50505050905090810190601f1680156100ee5780820380516001836020036101000a031916815260200191505b506040819052600080546001600160a01b03191633178082556001600160a01b0316945092507f8be0079c531659141344cd1fd0a4f28419497f9722a3daafe3b4186f6b6457e091508290a3600680546001600160a01b0319166001600160a01b0384161790556040518151829160209081019182918401908083835b6020831061018a5780518252601f19909201916020918201910161016b565b6001836020036101000a038019825116818451168082178552505050505050905001915050604051602081830303815290604052805190602001206002819055505050611051806101dc6000396000f3fe608060405234801561001057600080fd5b50600436106100b45760003560e01c8063b87e1b6611610071578063b87e1b661461018b578063d5b844eb14610193578063ec7e4855146101b1578063ec83d3ba146101b9578063f2fde38b146102cd578063fbc3dd36146102f3576100b4565b80632da25de3146100b957806341539d4a146100c35780635391f48314610114578063715018a6146101435780638da5cb5b1461014b5780638f32d59b1461016f575b600080fd5b6100c16102fb565b005b6100e0600480360360208110156100d957600080fd5b50356102fd565b6040805195865260208601949094528484019290925260608401526001600160a01b03166080830152519081900360a00190f35b6101316004803603602081101561012a57600080fd5b5035610335565b60408051918252519081900360200190f35b6100c161046f565b6101536104ca565b604080516001600160a01b039092168252519081900360200190f35b6101776104d9565b604080519115158252519081900360200190f35b6101316104ea565b61019b61050f565b6040805160ff9092168252519081900360200190f35b610131610514565b6100c1600480360360608110156101cf57600080fd5b8101906020810181356401000000008111156101ea57600080fd5b8201836020820111156101fc57600080fd5b8035906020019184600183028401116401000000008311171561021e57600080fd5b91939092909160208101903564010000000081111561023c57600080fd5b82018360208201111561024e57600080fd5b8035906020019184600183028401116401000000008311171561027057600080fd5b91939092909160208101903564010000000081111561028e57600080fd5b8201836020820111156102a057600080fd5b803590602001918460018302840111640100000000831117156102c257600080fd5b509092509050610531565b6100c1600480360360208110156102e357600080fd5b50356001600160a01b03166109f2565b610131610a0f565b565b60056020526000908152604090208054600182015460028301546003840154600490940154929391929091906001600160a01b031685565b6006546040805162c9effd60e41b815290516000926001600160a01b031691630c9effd0916004808301926020929190829003018186803b15801561037957600080fd5b505afa15801561038d573d6000803e3d6000fd5b505050506040513d60208110156103a357600080fd5b50516001600160a01b031633146103eb5760405162461bcd60e51b8152600401808060200182810382526021815260200180610ffc6021913960400191505060405180910390fd5b6104056004546103f9610514565b9063ffffffff610a1516565b60045490915061041b908363ffffffff610a1516565b6004819055612710101561046a576040805162461bcd60e51b8152602060048201526011602482015270544f4f5f4d414e595f4445504f5349545360781b604482015290519081900360640190fd5b919050565b6104776104d9565b61048057600080fd5b600080546040516001600160a01b03909116907f8be0079c531659141344cd1fd0a4f28419497f9722a3daafe3b4186f6b6457e0908390a3600080546001600160a01b0319169055565b6000546001600160a01b031690565b6000546001600160a01b0316331490565b6000600560006104f8610514565b815260200190815260200160002060020154905090565b600281565b60035460009061052c9061271063ffffffff610a2e16565b905090565b606061057a61057588888080601f016020809104026020016040519081016040528093929190818152602001838380828437600092019190915250610a4392505050565b610a68565b905060025461059c8260008151811061058f57fe5b6020026020010151610b39565b80519060200120146105eb576040805162461bcd60e51b815260206004820152601360248201527210da185a5b881251081a5cc81a5b9d985b1a59606a1b604482015290519081900360640190fd5b600260ff1661060d8260018151811061060057fe5b6020026020010151610bb2565b14610656576040805162461bcd60e51b8152602060048201526014602482015273159bdd19481d1e5c19481a5cc81a5b9d985b1a5960621b604482015290519081900360640190fd5b600283836040518083838082843760405192019450602093509091505080830381855afa15801561068b573d6000803e3d6000fd5b5050506040513d60208110156106a057600080fd5b505160408051602081810193909352815180820384018152908201909152805191012081516106d6908390600490811061058f57fe5b8051906020012014610727576040805162461bcd60e51b8152602060048201526015602482015274115e1d1c984819185d18481a5cc81a5b9d985b1a59605a1b604482015290519081900360640190fd5b606061076b61057585858080601f016020809104026020016040519081016040528093929190818152602001838380828437600092019190915250610a4392505050565b905061078a8160008151811061077d57fe5b6020026020010151610a68565b9050610794610fa6565b61079d82610c10565b600380546000908152600560209081526040808320855181558583015160018201558582015160028201556060860151948101949094556080850151600494850180546001600160a01b0319166001600160a01b039283161790556006548251630a1ef8f960e21b81529251969750939593169363287be3e4938282019392909190829003018186803b15801561083357600080fd5b505afa158015610847573d6000803e3d6000fd5b505050506040513d602081101561085d57600080fd5b5051602083015160408401519192506000916001600160a01b03841691635aac52f59161088f9163ffffffff610a2e16565b8d8d60405180838380828437808301925050509250505060405180910390206108be8860048151811061060057fe5b60001b8d8d6040518663ffffffff1660e01b815260040180868152602001858152602001848152602001806020018281038252848482818152602001925080828437600081840152601f19601f8201169050808301925050509650505050505050602060405180830381600087803b15801561093957600080fd5b505af115801561094d573d6000803e3d6000fd5b505050506040513d602081101561096357600080fd5b50516003546080850151602086810151604080890151895182519384529383015281810192909252905193945084936001600160a01b03909216917fba5de06d22af2685c6c7765f60067f7d2b08c2d29f53cdf14d67f6d1c9bfb5279181900360600190a46003546109dd9061271063ffffffff610a1516565b60035550506001600455505050505050505050565b6109fa6104d9565b610a0357600080fd5b610a0c81610d1e565b50565b60025481565b600082820183811015610a2757600080fd5b9392505050565b600082821115610a3d57600080fd5b50900390565b610a4b610fe1565b506040805180820190915281518152602082810190820152919050565b6060610a7382610d8c565b610a7c57600080fd5b6000610a8783610dc6565b9050606081604051908082528060200260200182016040528015610ac557816020015b610ab2610fe1565b815260200190600190039081610aaa5790505b5090506000610ad78560200151610e22565b60208601510190506000805b84811015610b2e57610af483610e85565b9150604051806040016040528083815260200184815250848281518110610b1757fe5b602090810291909101015291810191600101610ae3565b509195945050505050565b8051606090610b4757600080fd5b6000610b568360200151610e22565b83516040805191839003808352601f19601f8201168301602001909152919250606090828015610b8d576020820181803883390190505b5090506000816020019050610ba9848760200151018285610f1e565b50949350505050565b805160009015801590610bc757508151602110155b610bd057600080fd5b6000610bdf8360200151610e22565b83516020808601518301805193945091849003929190831015610ba957506020919091036101000a90049392505050565b610c18610fa6565b610c3582600081518110610c2857fe5b6020026020010151610f69565b6001600160a01b031660808201526003546000906127101015610c765760056000610c5e610514565b81526020019081526020016000206002015460010190505b610c868360018151811061060057fe5b8114610cd1576040805162461bcd60e51b8152602060048201526015602482015274494e434f52524543545f53544152545f424c4f434b60581b604482015290519081900360640190fd5b80826020018181525050610ceb8360028151811061060057fe5b60408301528251610d109084906003908110610d0357fe5b6020026020010151610f89565b825250426060820152919050565b6001600160a01b038116610d3157600080fd5b600080546040516001600160a01b03808516939216917f8be0079c531659141344cd1fd0a4f28419497f9722a3daafe3b4186f6b6457e091a3600080546001600160a01b0319166001600160a01b0392909216919091179055565b8051600090610d9d5750600061046a565b6020820151805160001a9060c0821015610dbc5760009250505061046a565b5060019392505050565b8051600090610dd75750600061046a565b60008090506000610deb8460200151610e22565b602085015185519181019250015b80821015610e1957610e0a82610e85565b60019093019290910190610df9565b50909392505050565b8051600090811a6080811015610e3c57600091505061046a565b60b8811080610e57575060c08110801590610e57575060f881105b15610e6657600191505061046a565b60c0811015610e7a5760b51901905061046a565b60f51901905061046a565b80516000908190811a6080811015610ea05760019150610f17565b60b8811015610eb557607e1981019150610f17565b60c0811015610ee25760b78103600185019450806020036101000a85510460018201810193505050610f17565b60f8811015610ef75760be1981019150610f17565b60f78103600185019450806020036101000a855104600182018101935050505b5092915050565b80610f2857610f64565b5b60208110610f48578251825260209283019290910190601f1901610f29565b8251825160208390036101000a60001901801990921691161782525b505050565b8051600090601514610f7a57600080fd5b610f8382610bb2565b92915050565b8051600090602114610f9a57600080fd5b50602001516001015190565b6040518060a001604052806000801916815260200160008152602001600081526020016000815260200160006001600160a01b031681525090565b60405180604001604052806000815260200160008152509056fe554e415554484f52495a45445f4445504f5349545f4d414e414745525f4f4e4c59a265627a7a72315820c2ba4e06d07da42625449877f346066353dae51be6d5c8c14d7161e2931edc3564736f6c634300050b0032",
  "source": "pragma solidity ^0.5.2;\n\nimport { RLPReader } from \"solidity-rlp/contracts/RLPReader.sol\";\nimport { Ownable } from \"openzeppelin-solidity/contracts/ownership/Ownable.sol\";\nimport { SafeMath } from \"openzeppelin-solidity/contracts/math/SafeMath.sol\";\n\nimport { RootChainHeader, RootChainStorage } from \"./RootChainStorage.sol\";\nimport { IStakeManager } from \"../staking/IStakeManager.sol\";\nimport { IRootChain } from \"./IRootChain.sol\";\nimport { Registry } from \"../common/Registry.sol\";\n\n\ncontract RootChain is RootChainStorage, IRootChain {\n  using SafeMath for uint256;\n  using RLPReader for bytes;\n  using RLPReader for RLPReader.RLPItem;\n\n  modifier onlyDepositManager() {\n    require(\n      msg.sender == registry.getDepositManagerAddress(),\n      \"UNAUTHORIZED_DEPOSIT_MANAGER_ONLY\"\n    );\n    _;\n  }\n\n  constructor (address _registry, string memory _heimdallId) public {\n    registry = Registry(_registry);\n    heimdallId = keccak256(abi.encodePacked(_heimdallId));\n  }\n\n  function submitHeaderBlock(\n    bytes calldata vote,\n    bytes calldata sigs,\n    bytes calldata txData)\n    external\n  {\n    RLPReader.RLPItem[] memory dataList = vote.toRlpItem().toList();\n    require(keccak256(dataList[0].toBytes()) == heimdallId, \"Chain ID is invalid\");\n    require(dataList[1].toUint() == VOTE_TYPE, \"Vote type is invalid\");\n\n    // validate hash of txData was signed as part of the vote\n    require(keccak256(dataList[4].toBytes()) == keccak256(abi.encodePacked(sha256(txData))), \"Extra data is invalid\");\n\n    RLPReader.RLPItem[] memory extraData = txData.toRlpItem().toList();\n    extraData = extraData[0].toList();\n    RootChainHeader.HeaderBlock memory headerBlock = _buildHeaderBlock(extraData);\n    headerBlocks[_nextHeaderBlock] = headerBlock;\n    // check if it is better to keep it in local storage instead\n    IStakeManager stakeManager = IStakeManager(registry.getStakeManagerAddress());\n    uint256 _reward = stakeManager.checkSignatures(headerBlock.end.sub(headerBlock.start), keccak256(vote), bytes32(extraData[4].toUint()), sigs);\n\n    emit NewHeaderBlock(headerBlock.proposer, _nextHeaderBlock, _reward, headerBlock.start, headerBlock.end, headerBlock.root);\n    _nextHeaderBlock = _nextHeaderBlock.add(MAX_DEPOSITS);\n    _blockDepositId = 1;\n  }\n\n  function updateDepositId(uint256 numDeposits)\n    external\n    onlyDepositManager\n    returns(uint256 depositId)\n  {\n    depositId = currentHeaderBlock().add(_blockDepositId);\n    // deposit ids will be (_blockDepositId, _blockDepositId + 1, .... _blockDepositId + numDeposits - 1)\n    _blockDepositId = _blockDepositId.add(numDeposits);\n    require(\n      // Since _blockDepositId is initialized to 1; only (MAX_DEPOSITS - 1) deposits per header block are allowed\n      _blockDepositId <= MAX_DEPOSITS,\n      \"TOO_MANY_DEPOSITS\"\n    );\n  }\n\n  function currentHeaderBlock() public view returns(uint256) {\n    return _nextHeaderBlock.sub(MAX_DEPOSITS);\n  }\n\n  function getLastChildBlock() external view returns(uint256) {\n    return headerBlocks[currentHeaderBlock()].end;\n  }\n\n  function slash() external {\n    //TODO: future implementation\n  }\n\n  function _buildHeaderBlock(RLPReader.RLPItem[] memory dataList)\n    private\n    view\n    returns(HeaderBlock memory headerBlock)\n  {\n    headerBlock.proposer = dataList[0].toAddress();\n    // Is this required? Why does a proposer need to be the sender? Think validator relay networks\n    // require(msg.sender == dataList[0].toAddress(), \"Invalid proposer\");\n\n    uint256 nextChildBlock;\n    /*\n    The ID of the 1st header block is MAX_DEPOSITS.\n    if _nextHeaderBlock == MAX_DEPOSITS, then the first header block is yet to be submitted, hence nextChildBlock = 0\n    */\n    if (_nextHeaderBlock > MAX_DEPOSITS) {\n      nextChildBlock = headerBlocks[currentHeaderBlock()].end + 1;\n    }\n    require(\n      nextChildBlock == dataList[1].toUint(),\n      \"INCORRECT_START_BLOCK\"\n    );\n    headerBlock.start = nextChildBlock;\n    headerBlock.end = dataList[2].toUint();\n\n    // toUintStrict returns the encoded uint. Encoded data must be padded to 32 bytes.\n    headerBlock.root = bytes32(dataList[3].toUintStrict());\n    headerBlock.createdAt = now;\n  }\n}\n",
  "sourcePath": "/Users/atvanguard/matic/contracts/contracts/root/RootChain.sol",
  "compiler": {
    "name": "solc",
    "version": "0.5.11+commit.c082d0b4.Emscripten.clang"
  },
  "schemaVersion": "3.0.14",
  "updatedAt": "2019-12-17T06:31:17.986Z",
  "devdoc": {
    "methods": {
      "isOwner()": {
        "return": "true if `msg.sender` is the owner of the contract."
      },
      "owner()": {
        "return": "the address of the owner."
      },
      "renounceOwnership()": {
        "details": "Allows the current owner to relinquish control of the contract. It will not be possible to call the functions with the `onlyOwner` modifier anymore."
      },
      "transferOwnership(address)": {
        "details": "Allows the current owner to transfer control of the contract to a newOwner.",
        "params": {
          "newOwner": "The address to transfer ownership to."
        }
      }
    }
  },
  "userdoc": {
    "methods": {
      "renounceOwnership()": {
        "notice": "Renouncing ownership will leave the contract without an owner, thereby removing any functionality that is only available to the owner."
      }
    }
  }
}