{
  "contractName": "StakeManagerTest",
  "abi": [
    {
      "constant": true,
      "inputs": [
        {
          "name": "interfaceId",
          "type": "bytes4"
        }
      ],
      "name": "supportsInterface",
      "outputs": [
        {
          "name": "",
          "type": "bool"
        }
      ],
      "payable": false,
      "stateMutability": "view",
      "type": "function"
    },
    {
      "constant": true,
      "inputs": [],
      "name": "getCurrentValidatorSet",
      "outputs": [
        {
          "name": "",
          "type": "uint256[]"
        }
      ],
      "payable": false,
      "stateMutability": "view",
      "type": "function"
    },
    {
      "constant": true,
      "inputs": [],
      "name": "name",
      "outputs": [
        {
          "name": "",
          "type": "string"
        }
      ],
      "payable": false,
      "stateMutability": "view",
      "type": "function"
    },
    {
      "constant": true,
      "inputs": [
        {
          "name": "tokenId",
          "type": "uint256"
        }
      ],
      "name": "getApproved",
      "outputs": [
        {
          "name": "",
          "type": "address"
        }
      ],
      "payable": false,
      "stateMutability": "view",
      "type": "function"
    },
    {
      "constant": false,
      "inputs": [
        {
          "name": "to",
          "type": "address"
        },
        {
          "name": "tokenId",
          "type": "uint256"
        }
      ],
      "name": "approve",
      "outputs": [],
      "payable": false,
      "stateMutability": "nonpayable",
      "type": "function"
    },
    {
      "constant": true,
      "inputs": [],
      "name": "WITHDRAWAL_DELAY",
      "outputs": [
        {
          "name": "",
          "type": "uint256"
        }
      ],
      "payable": false,
      "stateMutability": "view",
      "type": "function"
    },
    {
      "constant": false,
      "inputs": [
        {
          "name": "_token",
          "type": "address"
        }
      ],
      "name": "setToken",
      "outputs": [],
      "payable": false,
      "stateMutability": "nonpayable",
      "type": "function"
    },
    {
      "constant": false,
      "inputs": [
        {
          "name": "newThreshold",
          "type": "uint256"
        }
      ],
      "name": "updateValidatorThreshold",
      "outputs": [],
      "payable": false,
      "stateMutability": "nonpayable",
      "type": "function"
    },
    {
      "constant": true,
      "inputs": [
        {
          "name": "user",
          "type": "address"
        }
      ],
      "name": "getValidatorId",
      "outputs": [
        {
          "name": "",
          "type": "uint256"
        }
      ],
      "payable": false,
      "stateMutability": "view",
      "type": "function"
    },
    {
      "constant": true,
      "inputs": [],
      "name": "totalSupply",
      "outputs": [
        {
          "name": "",
          "type": "uint256"
        }
      ],
      "payable": false,
      "stateMutability": "view",
      "type": "function"
    },
    {
      "constant": false,
      "inputs": [
        {
          "name": "from",
          "type": "address"
        },
        {
          "name": "to",
          "type": "address"
        },
        {
          "name": "tokenId",
          "type": "uint256"
        }
      ],
      "name": "transferFrom",
      "outputs": [],
      "payable": false,
      "stateMutability": "nonpayable",
      "type": "function"
    },
    {
      "constant": true,
      "inputs": [
        {
          "name": "validatorId",
          "type": "uint256"
        }
      ],
      "name": "isValidator",
      "outputs": [
        {
          "name": "",
          "type": "bool"
        }
      ],
      "payable": false,
      "stateMutability": "view",
      "type": "function"
    },
    {
      "constant": true,
      "inputs": [],
      "name": "MIN_DEPOSIT_SIZE",
      "outputs": [
        {
          "name": "",
          "type": "uint256"
        }
      ],
      "payable": false,
      "stateMutability": "view",
      "type": "function"
    },
    {
      "constant": false,
      "inputs": [
        {
          "name": "validatorId",
          "type": "uint256"
        },
        {
          "name": "amount",
          "type": "uint256"
        },
        {
          "name": "stakeRewards",
          "type": "bool"
        }
      ],
      "name": "restake",
      "outputs": [],
      "payable": false,
      "stateMutability": "nonpayable",
      "type": "function"
    },
    {
      "constant": false,
      "inputs": [
        {
          "name": "validatorId",
          "type": "uint256"
        }
      ],
      "name": "unstake",
      "outputs": [],
      "payable": false,
      "stateMutability": "nonpayable",
      "type": "function"
    },
    {
      "constant": true,
      "inputs": [
        {
          "name": "owner",
          "type": "address"
        },
        {
          "name": "index",
          "type": "uint256"
        }
      ],
      "name": "tokenOfOwnerByIndex",
      "outputs": [
        {
          "name": "",
          "type": "uint256"
        }
      ],
      "payable": false,
      "stateMutability": "view",
      "type": "function"
    },
    {
      "constant": true,
      "inputs": [
        {
          "name": "",
          "type": "uint256"
        }
      ],
      "name": "validators",
      "outputs": [
        {
          "name": "amount",
          "type": "uint256"
        },
        {
          "name": "reward",
          "type": "uint256"
        },
        {
          "name": "activationEpoch",
          "type": "uint256"
        },
        {
          "name": "deactivationEpoch",
          "type": "uint256"
        },
        {
          "name": "jailTime",
          "type": "uint256"
        },
        {
          "name": "signer",
          "type": "address"
        },
        {
          "name": "contractAddress",
          "type": "address"
        },
        {
          "name": "status",
          "type": "uint8"
        }
      ],
      "payable": false,
      "stateMutability": "view",
      "type": "function"
    },
    {
      "constant": false,
      "inputs": [],
      "name": "finalizeCommit",
      "outputs": [],
      "payable": false,
      "stateMutability": "nonpayable",
      "type": "function"
    },
    {
      "constant": true,
      "inputs": [
        {
          "name": "",
          "type": "address"
        }
      ],
      "name": "signerToValidator",
      "outputs": [
        {
          "name": "",
          "type": "uint256"
        }
      ],
      "payable": false,
      "stateMutability": "view",
      "type": "function"
    },
    {
      "constant": false,
      "inputs": [
        {
          "name": "validatorId",
          "type": "uint256"
        }
      ],
      "name": "unJail",
      "outputs": [],
      "payable": false,
      "stateMutability": "nonpayable",
      "type": "function"
    },
    {
      "constant": false,
      "inputs": [
        {
          "name": "from",
          "type": "address"
        },
        {
          "name": "to",
          "type": "address"
        },
        {
          "name": "tokenId",
          "type": "uint256"
        }
      ],
      "name": "safeTransferFrom",
      "outputs": [],
      "payable": false,
      "stateMutability": "nonpayable",
      "type": "function"
    },
    {
      "constant": true,
      "inputs": [],
      "name": "DYNASTY",
      "outputs": [
        {
          "name": "",
          "type": "uint256"
        }
      ],
      "payable": false,
      "stateMutability": "view",
      "type": "function"
    },
    {
      "constant": true,
      "inputs": [
        {
          "name": "user",
          "type": "address"
        }
      ],
      "name": "totalStakedFor",
      "outputs": [
        {
          "name": "",
          "type": "uint256"
        }
      ],
      "payable": false,
      "stateMutability": "view",
      "type": "function"
    },
    {
      "constant": true,
      "inputs": [
        {
          "name": "index",
          "type": "uint256"
        }
      ],
      "name": "tokenByIndex",
      "outputs": [
        {
          "name": "",
          "type": "uint256"
        }
      ],
      "payable": false,
      "stateMutability": "view",
      "type": "function"
    },
    {
      "constant": true,
      "inputs": [],
      "name": "validatorThreshold",
      "outputs": [
        {
          "name": "",
          "type": "uint256"
        }
      ],
      "payable": false,
      "stateMutability": "view",
      "type": "function"
    },
    {
      "constant": true,
      "inputs": [],
      "name": "NFTCounter",
      "outputs": [
        {
          "name": "",
          "type": "uint256"
        }
      ],
      "payable": false,
      "stateMutability": "view",
      "type": "function"
    },
    {
      "constant": true,
      "inputs": [
        {
          "name": "validatorId",
          "type": "uint256"
        }
      ],
      "name": "getValidatorContract",
      "outputs": [
        {
          "name": "",
          "type": "address"
        }
      ],
      "payable": false,
      "stateMutability": "view",
      "type": "function"
    },
    {
      "constant": true,
      "inputs": [
        {
          "name": "",
          "type": "uint256"
        }
      ],
      "name": "validatorState",
      "outputs": [
        {
          "name": "amount",
          "type": "int256"
        },
        {
          "name": "stakerCount",
          "type": "int256"
        }
      ],
      "payable": false,
      "stateMutability": "view",
      "type": "function"
    },
    {
      "constant": true,
      "inputs": [
        {
          "name": "tokenId",
          "type": "uint256"
        }
      ],
      "name": "ownerOf",
      "outputs": [
        {
          "name": "",
          "type": "address"
        }
      ],
      "payable": false,
      "stateMutability": "view",
      "type": "function"
    },
    {
      "constant": false,
      "inputs": [
        {
          "name": "validatorId",
          "type": "uint256"
        },
        {
          "name": "slashingRate",
          "type": "uint256"
        },
        {
          "name": "jailCheckpoints",
          "type": "uint256"
        }
      ],
      "name": "slash",
      "outputs": [],
      "payable": false,
      "stateMutability": "nonpayable",
      "type": "function"
    },
    {
      "constant": true,
      "inputs": [],
      "name": "supportsHistory",
      "outputs": [
        {
          "name": "",
          "type": "bool"
        }
      ],
      "payable": false,
      "stateMutability": "pure",
      "type": "function"
    },
    {
      "constant": true,
      "inputs": [
        {
          "name": "owner",
          "type": "address"
        }
      ],
      "name": "balanceOf",
      "outputs": [
        {
          "name": "",
          "type": "uint256"
        }
      ],
      "payable": false,
      "stateMutability": "view",
      "type": "function"
    },
    {
      "constant": false,
      "inputs": [],
      "name": "renounceOwnership",
      "outputs": [],
      "payable": false,
      "stateMutability": "nonpayable",
      "type": "function"
    },
    {
      "constant": true,
      "inputs": [],
      "name": "currentEpoch",
      "outputs": [
        {
          "name": "",
          "type": "uint256"
        }
      ],
      "payable": false,
      "stateMutability": "view",
      "type": "function"
    },
    {
      "constant": true,
      "inputs": [
        {
          "name": "validatorId",
          "type": "uint256"
        }
      ],
      "name": "getStakerDetails",
      "outputs": [
        {
          "name": "",
          "type": "uint256"
        },
        {
          "name": "",
          "type": "uint256"
        },
        {
          "name": "",
          "type": "uint256"
        },
        {
          "name": "",
          "type": "address"
        },
        {
          "name": "",
          "type": "uint256"
        }
      ],
      "payable": false,
      "stateMutability": "view",
      "type": "function"
    },
    {
      "constant": true,
      "inputs": [],
      "name": "registry",
      "outputs": [
        {
          "name": "",
          "type": "address"
        }
      ],
      "payable": false,
      "stateMutability": "view",
      "type": "function"
    },
    {
      "constant": true,
      "inputs": [],
      "name": "CHECKPOINT_REWARD",
      "outputs": [
        {
          "name": "",
          "type": "uint256"
        }
      ],
      "payable": false,
      "stateMutability": "view",
      "type": "function"
    },
    {
      "constant": false,
      "inputs": [
        {
          "name": "amount",
          "type": "uint256"
        },
        {
          "name": "signer",
          "type": "address"
        },
        {
          "name": "isContract",
          "type": "bool"
        }
      ],
      "name": "stake",
      "outputs": [],
      "payable": false,
      "stateMutability": "nonpayable",
      "type": "function"
    },
    {
      "constant": true,
      "inputs": [],
      "name": "currentValidatorSetSize",
      "outputs": [
        {
          "name": "",
          "type": "uint256"
        }
      ],
      "payable": false,
      "stateMutability": "view",
      "type": "function"
    },
    {
      "constant": true,
      "inputs": [],
      "name": "totalStaked",
      "outputs": [
        {
          "name": "",
          "type": "uint256"
        }
      ],
      "payable": false,
      "stateMutability": "view",
      "type": "function"
    },
    {
      "constant": true,
      "inputs": [],
      "name": "owner",
      "outputs": [
        {
          "name": "",
          "type": "address"
        }
      ],
      "payable": false,
      "stateMutability": "view",
      "type": "function"
    },
    {
      "constant": false,
      "inputs": [
        {
          "name": "validatorId",
          "type": "uint256"
        },
        {
          "name": "_signer",
          "type": "address"
        }
      ],
      "name": "updateSigner",
      "outputs": [],
      "payable": false,
      "stateMutability": "nonpayable",
      "type": "function"
    },
    {
      "constant": true,
      "inputs": [],
      "name": "isOwner",
      "outputs": [
        {
          "name": "",
          "type": "bool"
        }
      ],
      "payable": false,
      "stateMutability": "view",
      "type": "function"
    },
    {
      "constant": true,
      "inputs": [],
      "name": "symbol",
      "outputs": [
        {
          "name": "",
          "type": "string"
        }
      ],
      "payable": false,
      "stateMutability": "view",
      "type": "function"
    },
    {
      "constant": true,
      "inputs": [],
      "name": "rootChain",
      "outputs": [
        {
          "name": "",
          "type": "address"
        }
      ],
      "payable": false,
      "stateMutability": "view",
      "type": "function"
    },
    {
      "constant": false,
      "inputs": [
        {
          "name": "epochs",
          "type": "uint256"
        }
      ],
      "name": "updateMinLockInPeriod",
      "outputs": [],
      "payable": false,
      "stateMutability": "nonpayable",
      "type": "function"
    },
    {
      "constant": false,
      "inputs": [
        {
          "name": "to",
          "type": "address"
        },
        {
          "name": "approved",
          "type": "bool"
        }
      ],
      "name": "setApprovalForAll",
      "outputs": [],
      "payable": false,
      "stateMutability": "nonpayable",
      "type": "function"
    },
    {
      "constant": true,
      "inputs": [],
      "name": "currentValidatorSetTotalStake",
      "outputs": [
        {
          "name": "",
          "type": "uint256"
        }
      ],
      "payable": false,
      "stateMutability": "view",
      "type": "function"
    },
    {
      "constant": true,
      "inputs": [],
      "name": "minLockInPeriod",
      "outputs": [
        {
          "name": "",
          "type": "uint256"
        }
      ],
      "payable": false,
      "stateMutability": "view",
      "type": "function"
    },
    {
      "constant": false,
      "inputs": [],
      "name": "unlock",
      "outputs": [],
      "payable": false,
      "stateMutability": "nonpayable",
      "type": "function"
    },
    {
      "constant": false,
      "inputs": [
        {
          "name": "validatorId",
          "type": "uint256"
        },
        {
          "name": "epoch",
          "type": "uint256"
        },
        {
          "name": "amount",
          "type": "int256"
        }
      ],
      "name": "updateValidatorState",
      "outputs": [],
      "payable": false,
      "stateMutability": "nonpayable",
      "type": "function"
    },
    {
      "constant": true,
      "inputs": [],
      "name": "EPOCH_LENGTH",
      "outputs": [
        {
          "name": "",
          "type": "uint256"
        }
      ],
      "payable": false,
      "stateMutability": "view",
      "type": "function"
    },
    {
      "constant": false,
      "inputs": [
        {
          "name": "from",
          "type": "address"
        },
        {
          "name": "to",
          "type": "address"
        },
        {
          "name": "tokenId",
          "type": "uint256"
        },
        {
          "name": "_data",
          "type": "bytes"
        }
      ],
      "name": "safeTransferFrom",
      "outputs": [],
      "payable": false,
      "stateMutability": "nonpayable",
      "type": "function"
    },
    {
      "constant": false,
      "inputs": [
        {
          "name": "user",
          "type": "address"
        },
        {
          "name": "amount",
          "type": "uint256"
        },
        {
          "name": "signer",
          "type": "address"
        },
        {
          "name": "isContract",
          "type": "bool"
        }
      ],
      "name": "stakeFor",
      "outputs": [],
      "payable": false,
      "stateMutability": "nonpayable",
      "type": "function"
    },
    {
      "constant": true,
      "inputs": [
        {
          "name": "tokenId",
          "type": "uint256"
        }
      ],
      "name": "tokenURI",
      "outputs": [
        {
          "name": "",
          "type": "string"
        }
      ],
      "payable": false,
      "stateMutability": "view",
      "type": "function"
    },
    {
      "constant": false,
      "inputs": [
        {
          "name": "newReward",
          "type": "uint256"
        }
      ],
      "name": "updateCheckpointReward",
      "outputs": [],
      "payable": false,
      "stateMutability": "nonpayable",
      "type": "function"
    },
    {
      "constant": true,
      "inputs": [],
      "name": "locked",
      "outputs": [
        {
          "name": "",
          "type": "bool"
        }
      ],
      "payable": false,
      "stateMutability": "view",
      "type": "function"
    },
    {
      "constant": false,
      "inputs": [
        {
          "name": "validatorId",
          "type": "uint256"
        },
        {
          "name": "jailCheckpoints",
          "type": "uint256"
        }
      ],
      "name": "jail",
      "outputs": [],
      "payable": false,
      "stateMutability": "nonpayable",
      "type": "function"
    },
    {
      "constant": false,
      "inputs": [
        {
          "name": "validatorId",
          "type": "uint256"
        }
      ],
      "name": "unstakeClaim",
      "outputs": [],
      "payable": false,
      "stateMutability": "nonpayable",
      "type": "function"
    },
    {
      "constant": true,
      "inputs": [],
      "name": "UNSTAKE_DELAY",
      "outputs": [
        {
          "name": "",
          "type": "uint256"
        }
      ],
      "payable": false,
      "stateMutability": "view",
      "type": "function"
    },
    {
      "constant": false,
      "inputs": [
        {
          "name": "newDynasty",
          "type": "uint256"
        }
      ],
      "name": "updateDynastyValue",
      "outputs": [],
      "payable": false,
      "stateMutability": "nonpayable",
      "type": "function"
    },
    {
      "constant": false,
      "inputs": [
        {
          "name": "newRootChain",
          "type": "address"
        }
      ],
      "name": "changeRootChain",
      "outputs": [],
      "payable": false,
      "stateMutability": "nonpayable",
      "type": "function"
    },
    {
      "constant": true,
      "inputs": [
        {
          "name": "owner",
          "type": "address"
        },
        {
          "name": "operator",
          "type": "address"
        }
      ],
      "name": "isApprovedForAll",
      "outputs": [
        {
          "name": "",
          "type": "bool"
        }
      ],
      "payable": false,
      "stateMutability": "view",
      "type": "function"
    },
    {
      "constant": false,
      "inputs": [
        {
          "name": "newOwner",
          "type": "address"
        }
      ],
      "name": "transferOwnership",
      "outputs": [],
      "payable": false,
      "stateMutability": "nonpayable",
      "type": "function"
    },
    {
      "constant": false,
      "inputs": [],
      "name": "lock",
      "outputs": [],
      "payable": false,
      "stateMutability": "nonpayable",
      "type": "function"
    },
    {
      "constant": true,
      "inputs": [],
      "name": "token",
      "outputs": [
        {
          "name": "",
          "type": "address"
        }
      ],
      "payable": false,
      "stateMutability": "view",
      "type": "function"
    },
    {
      "inputs": [
        {
          "name": "_registry",
          "type": "address"
        },
        {
          "name": "_rootChain",
          "type": "address"
        }
      ],
      "payable": false,
      "stateMutability": "nonpayable",
      "type": "constructor"
    },
    {
      "anonymous": false,
      "inputs": [
        {
          "indexed": true,
          "name": "previousRootChain",
          "type": "address"
        },
        {
          "indexed": true,
          "name": "newRootChain",
          "type": "address"
        }
      ],
      "name": "RootChainChanged",
      "type": "event"
    },
    {
      "anonymous": false,
      "inputs": [
        {
          "indexed": true,
          "name": "previousOwner",
          "type": "address"
        },
        {
          "indexed": true,
          "name": "newOwner",
          "type": "address"
        }
      ],
      "name": "OwnershipTransferred",
      "type": "event"
    },
    {
      "anonymous": false,
      "inputs": [
        {
          "indexed": true,
          "name": "user",
          "type": "address"
        },
        {
          "indexed": true,
          "name": "validatorId",
          "type": "uint256"
        },
        {
          "indexed": true,
          "name": "activatonEpoch",
          "type": "uint256"
        },
        {
          "indexed": false,
          "name": "amount",
          "type": "uint256"
        },
        {
          "indexed": false,
          "name": "total",
          "type": "uint256"
        }
      ],
      "name": "Staked",
      "type": "event"
    },
    {
      "anonymous": false,
      "inputs": [
        {
          "indexed": true,
          "name": "user",
          "type": "address"
        },
        {
          "indexed": true,
          "name": "validatorId",
          "type": "uint256"
        },
        {
          "indexed": false,
          "name": "amount",
          "type": "uint256"
        },
        {
          "indexed": false,
          "name": "total",
          "type": "uint256"
        }
      ],
      "name": "Unstaked",
      "type": "event"
    },
    {
      "anonymous": false,
      "inputs": [
        {
          "indexed": true,
          "name": "user",
          "type": "address"
        },
        {
          "indexed": true,
          "name": "validatorId",
          "type": "uint256"
        },
        {
          "indexed": false,
          "name": "deactivationEpoch",
          "type": "uint256"
        },
        {
          "indexed": true,
          "name": "amount",
          "type": "uint256"
        }
      ],
      "name": "UnstakeInit",
      "type": "event"
    },
    {
      "anonymous": false,
      "inputs": [
        {
          "indexed": true,
          "name": "validatorId",
          "type": "uint256"
        },
        {
          "indexed": true,
          "name": "oldSigner",
          "type": "address"
        },
        {
          "indexed": true,
          "name": "newSigner",
          "type": "address"
        }
      ],
      "name": "SignerChange",
      "type": "event"
    },
    {
      "anonymous": false,
      "inputs": [
        {
          "indexed": true,
          "name": "validatorId",
          "type": "uint256"
        },
        {
          "indexed": false,
          "name": "amount",
          "type": "uint256"
        },
        {
          "indexed": false,
          "name": "total",
          "type": "uint256"
        }
      ],
      "name": "ReStaked",
      "type": "event"
    },
    {
      "anonymous": false,
      "inputs": [
        {
          "indexed": true,
          "name": "validatorId",
          "type": "uint256"
        },
        {
          "indexed": true,
          "name": "exitEpoch",
          "type": "uint256"
        }
      ],
      "name": "Jailed",
      "type": "event"
    },
    {
      "anonymous": false,
      "inputs": [
        {
          "indexed": false,
          "name": "newThreshold",
          "type": "uint256"
        },
        {
          "indexed": false,
          "name": "oldThreshold",
          "type": "uint256"
        }
      ],
      "name": "ThresholdChange",
      "type": "event"
    },
    {
      "anonymous": false,
      "inputs": [
        {
          "indexed": false,
          "name": "newDynasty",
          "type": "uint256"
        },
        {
          "indexed": false,
          "name": "oldDynasty",
          "type": "uint256"
        }
      ],
      "name": "DynastyValueChange",
      "type": "event"
    },
    {
      "anonymous": false,
      "inputs": [
        {
          "indexed": false,
          "name": "newReward",
          "type": "uint256"
        },
        {
          "indexed": false,
          "name": "oldReward",
          "type": "uint256"
        }
      ],
      "name": "RewardUpdate",
      "type": "event"
    },
    {
      "anonymous": false,
      "inputs": [
        {
          "indexed": true,
          "name": "validatorId",
          "type": "uint256"
        },
        {
          "indexed": true,
          "name": "oldAmount",
          "type": "uint256"
        },
        {
          "indexed": true,
          "name": "newAmount",
          "type": "uint256"
        }
      ],
      "name": "StakeUpdate",
      "type": "event"
    },
    {
      "anonymous": false,
      "inputs": [
        {
          "indexed": true,
          "name": "from",
          "type": "address"
        },
        {
          "indexed": true,
          "name": "to",
          "type": "address"
        },
        {
          "indexed": true,
          "name": "tokenId",
          "type": "uint256"
        }
      ],
      "name": "Transfer",
      "type": "event"
    },
    {
      "anonymous": false,
      "inputs": [
        {
          "indexed": true,
          "name": "owner",
          "type": "address"
        },
        {
          "indexed": true,
          "name": "approved",
          "type": "address"
        },
        {
          "indexed": true,
          "name": "tokenId",
          "type": "uint256"
        }
      ],
      "name": "Approval",
      "type": "event"
    },
    {
      "anonymous": false,
      "inputs": [
        {
          "indexed": true,
          "name": "owner",
          "type": "address"
        },
        {
          "indexed": true,
          "name": "operator",
          "type": "address"
        },
        {
          "indexed": false,
          "name": "approved",
          "type": "bool"
        }
      ],
      "name": "ApprovalForAll",
      "type": "event"
    },
    {
      "constant": false,
      "inputs": [
        {
          "name": "voteHash",
          "type": "bytes32"
        },
        {
          "name": "sigs",
          "type": "bytes"
        },
        {
          "name": "proposer",
          "type": "address"
        }
      ],
      "name": "checkSignatures",
      "outputs": [],
      "payable": false,
      "stateMutability": "nonpayable",
      "type": "function"
    }
  ],
  "bytecode": "0x6080604052611000600c55612000601155612710601255670de0b6b3a76400006013556101006014556200004560026011546200023560201b62002c611790919060201c565b601555600a6016556002601755600060185560016019556001601a553480156200006e57600080fd5b506040516040806200485a833981018060405260408110156200009057600080fd5b508051602091820151604080518082018252600f81527f4d617469632056616c696461746f720000000000000000000000000000000000818601528151808301909252600282527f4d5600000000000000000000000000000000000000000000000000000000000082860152929391928492849290829082906200013a907f01ffc9a7000000000000000000000000000000000000000000000000000000009062000269811b901c565b620001526380ac58cd60e01b6200026960201b60201c565b6200016a63780e9d6360e01b6200026960201b60201c565b81516200017f90600990602085019062000372565b5080516200019590600a90602084019062000372565b50620001ae635b5e139f60e01b6200026960201b60201c565b5050600d80546001600160a01b0319163317908190556040516001600160a01b03919091169250600091507f8be0079c531659141344cd1fd0a4f28419497f9722a3daafe3b4186f6b6457e0908290a3601080546001600160a01b0319166001600160a01b0384161790556200022b81620002d6602090811b901c565b5050505062000414565b600082620002465750600062000263565b828202828482816200025457fe5b04146200026057600080fd5b90505b92915050565b7fffffffff0000000000000000000000000000000000000000000000000000000080821614156200029957600080fd5b7fffffffff00000000000000000000000000000000000000000000000000000000166000908152602081905260409020805460ff19166001179055565b620002e66200036060201b60201c565b620002f057600080fd5b6001600160a01b0381166200030457600080fd5b600e546040516001600160a01b038084169216907f211c9015fc81c0dbd45bd99f0f29fc1c143bfd53442d5ffd722bbbef7a887fe990600090a3600e80546001600160a01b0319166001600160a01b0392909216919091179055565b600d546001600160a01b031633145b90565b828054600181600116156101000203166002900490600052602060002090601f016020900481019282601f10620003b557805160ff1916838001178555620003e5565b82800160010185558215620003e5579182015b82811115620003e5578251825591602001919060010190620003c8565b50620003f3929150620003f7565b5090565b6200036f91905b80821115620003f35760008155600101620003fe565b61443680620004246000396000f3fe60806040523480156200001157600080fd5b5060043610620004545760003560e01c8063715018a61162000249578063a69df4b51162000141578063d220376611620000c9578063e8afa8e81162000093578063e8afa8e81462000e05578063e985e9c51462000e2e578063f2fde38b1462000e5f578063f83d08ba1462000e88578063fc0c546a1462000e925762000454565b8063d22037661462000d95578063d86d53e71462000dbb578063e35e5d841462000ddb578063e6692f491462000de55762000454565b8063bd2fbd61116200010b578063bd2fbd611462000d0c578063c87b56dd1462000d4b578063cbf383d51462000d6b578063cf3090121462000d8b5762000454565b8063a69df4b51462000c00578063a968882f1462000c0a578063ac4746ab1462000c36578063b88d4fde1462000c405762000454565b80638da5cb5b11620001d1578063987ab9db116200019b578063987ab9db1462000b9157806398ee773b1462000b9b578063a22cb4651462000bbb578063a47690711462000bec578063a548c5471462000bf65762000454565b80638da5cb5b1462000b445780638f283a861462000b4e5780638f32d59b1462000b7d57806395d89b411462000b875762000454565b80637d66975211620002135780637d6697521462000aef5780637e9f2c841462000af95780637f952d951462000b30578063817b1cd21462000b3a5762000454565b8063715018a61462000a7d578063766718081462000a8757806378daaf691462000a915780637b1039991462000ae55762000454565b80632f745c59116200035d5780634f6ccce711620002e55780635c24885511620002af5780635c24885514620009c55780636352211e14620009fe5780636cbb60501462000a1e5780637033e4a61462000a4a57806370a082311462000a545762000454565b80634f6ccce714620009715780634fd101d714620009915780635508d8e1146200099b57806356342d8c14620009a55762000454565b80633d02455b11620003275780633d02455b14620008e557806342842e0e1462000905578063485f5b5d146200093e5780634b341aed14620009485762000454565b80632f745c5914620007e957806335aa2e44146200081857806335dda49814620008b25780633862da0b14620008bc5762000454565b8063174e683211620003e157806326c0817e11620003ab57806326c0817e14620006d357806328cc4e4114620006dd5780632e17de78146200070b5780632e9cac4c146200072b5762000454565b8063174e6832146200064757806318160ddd146200067057806323b872dd146200067a5780632649263a14620006b35762000454565b8063095ea7b31162000423578063095ea7b314620005b15780630ebb172a14620005e2578063144fa6d714620005fe57806316827b1b14620006275762000454565b806301ffc9a714620004595780630209fdd0146200049757806306fdde0314620004f3578063081812fc1462000575575b600080fd5b62000483600480360360208110156200047157600080fd5b50356001600160e01b03191662000e9c565b604080519115158252519081900360200190f35b620004a162000ebf565b60408051602080825283518183015283519192839290830191858101910280838360005b83811015620004df578181015183820152602001620004c5565b505050509050019250505060405180910390f35b620004fd62000f77565b6040805160208082528351818301528351919283929083019185019080838360005b83811015620005395781810151838201526020016200051f565b50505050905090810190601f168015620005675780820380516001836020036101000a031916815260200191505b509250505060405180910390f35b62000595600480360360208110156200058d57600080fd5b503562001011565b604080516001600160a01b039092168252519081900360200190f35b620005e060048036036040811015620005c957600080fd5b506001600160a01b03813516906020013562001044565b005b620005ec620010f8565b60408051918252519081900360200190f35b620005e0600480360360208110156200061657600080fd5b50356001600160a01b0316620010fe565b620005e0600480360360208110156200063f57600080fd5b503562001148565b620005ec600480360360208110156200065f57600080fd5b50356001600160a01b0316620011ad565b620005ec620011c2565b620005e0600480360360608110156200069257600080fd5b506001600160a01b03813581169160208101359091169060400135620011c8565b6200048360048036036020811015620006cb57600080fd5b5035620011f0565b620005ec620012af565b620005e060048036036060811015620006f557600080fd5b50803590602081013590604001351515620012b5565b620005e0600480360360208110156200072357600080fd5b503562001524565b620005e0600480360360608110156200074357600080fd5b813591908101906040810160208201356401000000008111156200076657600080fd5b8201836020820111156200077957600080fd5b803590602001918460018302840111640100000000831117156200079c57600080fd5b91908080601f016020809104026020016040519081016040528093929190818152602001838380828437600092019190915250929550505090356001600160a01b03169150620011eb9050565b620005ec600480360360408110156200080157600080fd5b506001600160a01b038135169060200135620016ee565b62000838600480360360208110156200083057600080fd5b50356200173f565b60405180898152602001888152602001878152602001868152602001858152602001846001600160a01b03166001600160a01b03168152602001836001600160a01b03166001600160a01b031681526020018260028111156200089757fe5b60ff1681526020019850505050505050505060405180910390f35b620005e062001795565b620005ec60048036036020811015620008d457600080fd5b50356001600160a01b0316620017f5565b620005e060048036036020811015620008fd57600080fd5b503562001807565b620005e0600480360360608110156200091d57600080fd5b506001600160a01b03813581169160208101359091169060400135620019be565b620005ec620019db565b620005ec600480360360208110156200096057600080fd5b50356001600160a01b0316620019e1565b620005ec600480360360208110156200098957600080fd5b503562001a39565b620005ec62001a71565b620005ec62001a77565b6200059560048036036020811015620009bd57600080fd5b503562001a7d565b620009e560048036036020811015620009dd57600080fd5b503562001a9b565b6040805192835260208301919091528051918290030190f35b620005956004803603602081101562000a1657600080fd5b503562001ab4565b620005e06004803603606081101562000a3657600080fd5b508035906020810135906040013562001ad7565b6200048362001ce7565b620005ec6004803603602081101562000a6c57600080fd5b50356001600160a01b031662001cec565b620005e062001d25565b620005ec62001d83565b62000ab16004803603602081101562000aa957600080fd5b503562001d89565b604080519586526020860194909452848401929092526001600160a01b031660608401526080830152519081900360a00190f35b6200059562001dee565b620005ec62001dfd565b620005e06004803603606081101562000b1157600080fd5b508035906001600160a01b036020820135169060400135151562001e03565b620005ec62001e11565b620005ec62001e29565b6200059562001e2f565b620005e06004803603604081101562000b6657600080fd5b50803590602001356001600160a01b031662001e3e565b6200048362001f36565b620004fd62001f47565b6200059562001fab565b620005e06004803603602081101562000bb357600080fd5b503562001fba565b620005e06004803603604081101562000bd357600080fd5b506001600160a01b038135169060200135151562001fd3565b620005ec62002058565b620005ec6200206d565b620005e062002073565b620005e06004803603606081101562000c2257600080fd5b508035906020810135906040013562002099565b620005ec62002197565b620005e06004803603608081101562000c5857600080fd5b6001600160a01b0382358116926020810135909116916040820135919081019060808101606082013564010000000081111562000c9457600080fd5b82018360208201111562000ca757600080fd5b8035906020019184600183028401116401000000008311171562000cca57600080fd5b91908080601f0160208091040260200160405190810160405280939291908181526020018383808284376000920191909152509295506200219d945050505050565b620005e06004803603608081101562000d2457600080fd5b506001600160a01b03813581169160208101359160408201351690606001351515620021c8565b620004fd6004803603602081101562000d6357600080fd5b50356200258c565b620005e06004803603602081101562000d8357600080fd5b503562002646565b62000483620026ab565b620005e06004803603604081101562000dad57600080fd5b5080359060200135620026bb565b620005e06004803603602081101562000dd357600080fd5b503562002812565b620005ec620029ba565b620005e06004803603602081101562000dfd57600080fd5b5035620029c0565b620005e06004803603602081101562000e1d57600080fd5b50356001600160a01b031662002a57565b620004836004803603604081101562000e4657600080fd5b506001600160a01b038135811691602001351662002adb565b620005e06004803603602081101562000e7757600080fd5b50356001600160a01b031662002b09565b620005e062002b2b565b6200059562002b57565b6001600160e01b0319811660009081526020819052604090205460ff165b919050565b60608060165460405190808252806020026020018201604052801562000eef578160200160208202803883390190505b509050600080805b62000f01620011c2565b816bffffffffffffffffffffffff16101562000f6d5762000f30816bffffffffffffffffffffffff1662001a39565b925062000f3d83620011f0565b1562000f64578284838060010194508151811062000f5757fe5b6020026020010181815250505b60010162000ef7565b5091925050505b90565b60098054604080516020601f6002600019610100600188161502019095169490940493840181900481028201810190925282815260609390929091830182828015620010075780601f1062000fdb5761010080835404028352916020019162001007565b820191906000526020600020905b81548152906001019060200180831162000fe957829003601f168201915b5050505050905090565b60006200101e8262002b66565b6200102857600080fd5b506000908152600260205260409020546001600160a01b031690565b6000620010518262001ab4565b9050806001600160a01b0316836001600160a01b031614156200107357600080fd5b336001600160a01b038216148062001092575062001092813362002adb565b6200109c57600080fd5b60008281526002602052604080822080546001600160a01b0319166001600160a01b0387811691821790925591518593918516917f8c5be1e5ebec7d5bd14f71427d1e84f3dd0314c0f7b2291e5b200ac8c7c3b92591a4505050565b600c5481565b6200110862001f36565b6200111257600080fd5b6001600160a01b0381166200112657600080fd5b600f80546001600160a01b0319166001600160a01b0392909216919091179055565b6200115262001f36565b6200115c57600080fd5b600081116200116a57600080fd5b60165460408051838152602081019290925280517f5d16a900896e1160c2033bc940e6b072d3dc3b6a996fefb9b3b9b9678841824c9281900390910190a1601655565b6000620011bc826000620016ee565b92915050565b60075490565b620011d4338262002b83565b620011de57600080fd5b620011eb83838362002bea565b505050565b6000818152601c6020526040812054158015906200123d57506000828152601c6020526040902060020154158015906200123d57506019546000838152601c602052604090206002015411155b80156200127657506000828152601c602052604090206003015415806200127657506019546000838152601c6020526040902060030154115b8015620011bc575060016000838152601c6020526040902060060154600160a01b900460ff166002811115620012a857fe5b1492915050565b60135481565b8233620012c28262001ab4565b6001600160a01b031614620012d657600080fd5b6019546000858152601c602052604090206003015410620013415760408051600160e51b62461bcd02815260206004820152601360248201527f4e6f20757365206f662072657374616b696e6700000000000000000000000000604482015290519081900360640190fd5b82156200142957600f5460408051600160e01b6323b872dd0281523360048201523060248201526044810186905290516001600160a01b03909216916323b872dd916064808201926020929091908290030181600087803b158015620013a657600080fd5b505af1158015620013bb573d6000803e3d6000fd5b505050506040513d6020811015620013d257600080fd5b5051620014295760408051600160e51b62461bcd02815260206004820152600e60248201527f5472616e73666572207374616b65000000000000000000000000000000000000604482015290519081900360640190fd5b81156200144c576000848152601c60205260408120600101805491905592909201915b60185462001461908463ffffffff62002c0f16565b6018556000848152601c602081815260408084208054880181556019548552601d8352908420805488019055928790525254620014a5818563ffffffff62002c2916565b60405186907f35af9eea1f0e7b300b0a14fae90139a072470e44daa3f14b5069bebbc1265bda90600090a46000848152601c602090815260409182902054601854835191825291810191909152815186927f9cc0e589f20d3310eb2ad571b23529003bd46048d0d1af29277dcf0aa3c398ce928290030190a250505050565b8033620015318262001ab4565b6001600160a01b0316146200154557600080fd5b6000828152601c6020526040902060020154158015906200157557506000828152601c6020526040902060030154155b8015620015a9575060016000838152601c6020526040902060060154600160a01b900460ff166002811115620015a757fe5b145b620015b357600080fd5b6000828152601c6020526040812054601554601954919291620015dc9163ffffffff62002c0f16565b6000858152601c602052604081206003810183905560060154919250906001600160a01b03161562001699576000858152601c60209081526040808320600601548151600160e21b63327093330281526004810187905291516001600160a01b039091169363c9c24ccc93602480850194919392918390030190829087803b1580156200166857600080fd5b505af11580156200167d573d6000803e3d6000fd5b505050506040513d60208110156200169457600080fd5b505190505b620016ad8282850160000360001962002c3f565b6040805183815290518491879133917f51ff6d8ad000896362d1a3c9de9ad835adb6da92ec3ddee44018ef64f3c8b561919081900360200190a45050505050565b6000620016fb8362001cec565b82106200170757600080fd5b6001600160a01b03831660009081526005602052604090208054839081106200172c57fe5b9060005260206000200154905092915050565b601c602052600090815260409020805460018201546002830154600384015460048501546005860154600690960154949593949293919290916001600160a01b039081169190811690600160a01b900460ff1688565b601954600090620017ae90600163ffffffff62002c0f16565b6000818152601d6020526040808220805460198054855283852054909101825560019182018054825486528486208401540190558054845291832083815501919091555550565b601b6020526000908152604090205481565b8033620018148262001ab4565b6001600160a01b0316146200182857600080fd5b6019546000838152601c60205260409020600301541180156200185e57506019546000838152601c602052604090206004015411155b801562001892575060026000838152601c6020526040902060060154600160a01b900460ff1660028111156200189057fe5b145b6200189c57600080fd5b6000828152601c6020526040902054601354811015620018bb57600080fd5b6000838152601c6020526040812060038101546006909101549091906001600160a01b03161562001977576000858152601c60209081526040808320600601548151600160e21b633f5cc2470281526004810187905291516001600160a01b039091169363fd73091c93602480850194919392918390030190829087803b1580156200194657600080fd5b505af11580156200195b573d6000803e3d6000fd5b505050506040513d60208110156200197257600080fd5b505190505b6200198782828501600162002c3f565b505050600091825250601c6020526040812060038101829055600681018054600160a01b60ff021916600160a01b17905560040155565b620011eb838383604051806020016040528060008152506200219d565b60115481565b60006001600160a01b038216158062001a02575062001a008262001cec565b155b1562001a115750600062000eba565b601c600062001a22846000620016ee565b815260208101919091526040016000205492915050565b600062001a45620011c2565b821062001a5157600080fd5b6007828154811062001a5f57fe5b90600052602060002001549050919050565b60165481565b601a5481565b6000908152601c60205260409020600601546001600160a01b031690565b601d602052600090815260409020805460019091015482565b6000818152600160205260408120546001600160a01b031680620011bc57600080fd5b60105460408051600160e31b631ab01683028152905133926001600160a01b03169163d580b418916004808301926020929190829003018186803b15801562001b1f57600080fd5b505afa15801562001b34573d6000803e3d6000fd5b505050506040513d602081101562001b4b57600080fd5b50516001600160a01b03161462001b6157600080fd5b6000838152601c60205260409020600601546001600160a01b03161562001c08576000838152601c6020526040808220600601546019548251600160e41b6306cbb6050281526004810187905260248101829052604481019190915291516001600160a01b0390911692636cbb6050926064808201939182900301818387803b15801562001bee57600080fd5b505af115801562001c03573d6000803e3d6000fd5b505050505b6000838152601c602052604081205462001c3e9060649062001c31908663ffffffff62002c6116565b9063ffffffff62002c8c16565b6000858152601c602052604090205490915062001c62908263ffffffff62002c2916565b6000858152601c60205260409020819055601354118062001c835750600082115b1562001c955762001c958483620026bb565b6000848152601c602052604090205462001cb6818363ffffffff62002c0f16565b60405186907f35af9eea1f0e7b300b0a14fae90139a072470e44daa3f14b5069bebbc1265bda90600090a450505050565b600090565b60006001600160a01b03821662001d0257600080fd5b6001600160a01b0382166000908152600360205260409020620011bc9062002cb0565b62001d2f62001f36565b62001d3957600080fd5b600d546040516000916001600160a01b0316907f8be0079c531659141344cd1fd0a4f28419497f9722a3daafe3b4186f6b6457e0908390a3600d80546001600160a01b0319169055565b60195481565b6000818152601c6020526040812080546002808301546003840154600585015460069095015486958695869586959194919391926001600160a01b031691600160a01b900460ff169081111562001ddc57fe5b939a9299509097509550909350915050565b6010546001600160a01b031681565b60125481565b620011eb33848484620021c8565b6019546000908152601d602052604090206001015490565b60185481565b600d546001600160a01b031690565b813362001e4b8262001ab4565b6001600160a01b03161462001e5f57600080fd5b6001600160a01b0382161580159062001e8e57506001600160a01b0382166000908152601b6020526040902054155b62001e9857600080fd5b6000838152601c60205260408082206005015490516001600160a01b038086169392169186917f7dfd3bad1e3cac97d3b89ff06d78394523c4f08fdee4daa71a59160003240c899190a4506000828152601c6020818152604080842060050180546001600160a01b039081168652601b84528286208690559590951680855290842086905594909252905280546001600160a01b0319169091179055565b600d546001600160a01b0316331490565b600a8054604080516020601f6002600019610100600188161502019095169490940493840181900481028201810190925282815260609390929091830182828015620010075780601f1062000fdb5761010080835404028352916020019162001007565b600e546001600160a01b031681565b62001fc462001f36565b62001fce57600080fd5b601755565b6001600160a01b03821633141562001fea57600080fd5b3360008181526004602090815260408083206001600160a01b03871680855290835292819020805460ff1916861515908117909155815190815290519293927f17307eab39ab6107e8899845ad3d59bd9653f200f220920489ca2b5937696c31929181900390910190a35050565b6019546000908152601d602052604090205490565b60175481565b6200207d62001f36565b6200208757600080fd5b600e8054600160a01b60ff0219169055565b60105460408051600160e01b63253006b1028152905133926001600160a01b03169163253006b1916004808301926020929190829003018186803b158015620020e157600080fd5b505afa158015620020f6573d6000803e3d6000fd5b505050506040513d60208110156200210d57600080fd5b50516001600160a01b0316146200212357600080fd5b6019548210156200217e5760408051600160e51b62461bcd02815260206004820152601160248201527f43616e2774206368616e67652070617374000000000000000000000000000000604482015290519081900360640190fd5b6000918252601d60205260409091208054909101905550565b60145481565b620021aa848484620011c8565b620021b88484848462002cb4565b620021c257600080fd5b50505050565b600e54600160a01b900460ff1615620021e057600080fd5b601654620021ed62001e11565b10620021f857600080fd5b620022038462001cec565b15620022595760408051600160e51b62461bcd02815260206004820181905260248201527f4f6e6c79206f6e652074696d65207374616b696e6720697320616c6c6f776564604482015290519081900360640190fd5b60135483116200226857600080fd5b6001600160a01b0382166000908152601b6020526040902054156200228c57600080fd5b600f5460408051600160e01b6323b872dd0281523360048201523060248201526044810186905290516001600160a01b03909216916323b872dd916064808201926020929091908290030181600087803b158015620022ea57600080fd5b505af1158015620022ff573d6000803e3d6000fd5b505050506040513d60208110156200231657600080fd5b50516200236d5760408051600160e51b62461bcd02815260206004820152601560248201527f5472616e73666572207374616b65206661696c65640000000000000000000000604482015290519081900360640190fd5b60185462002382908463ffffffff62002c0f16565b6018819055506040518061010001604052808481526020016000815260200160195481526020016000815260200160008152602001836001600160a01b0316815260200182620023d457600062002427565b60105460405187916001600160a01b031690620023f190620033e4565b6001600160a01b03928316815291166020820152604080519182900301906000f08015801562002425573d6000803e3d6000fd5b505b6001600160a01b0316815260200160019052601a546000908152601c60209081526040918290208351815590830151600182015590820151600280830191909155606083015160038301556080830151600483015560a08301516005830180546001600160a01b039283166001600160a01b03199182161790915560c08501516006850180549190931691161780825560e085015192600160a01b60ff021990911690600160a01b908490811115620024dc57fe5b0217905550905050620024f284601a5462002df7565b601a546001600160a01b0383166000908152601b60205260409020556019546200251f9084600162002c3f565b601954601a5460185460408051878152602081019290925280516001600160a01b038916927f9cfd25589d1eb8ad71e342a86a8524e83522e3936c0803048c08f6d9ad974f4092908290030190a4601a546200258390600163ffffffff62002c0f16565b601a5550505050565b6060620025998262002b66565b620025a357600080fd5b6000828152600b602090815260409182902080548351601f6002600019610100600186161502019093169290920491820184900484028101840190945280845290918301828280156200263a5780601f106200260e576101008083540402835291602001916200263a565b820191906000526020600020905b8154815290600101906020018083116200261c57829003601f168201915b50505050509050919050565b6200265062001f36565b6200265a57600080fd5b600081116200266857600080fd5b60125460408051838152602081019290925280517ff67f33e8589d3ea0356303c0f9a8e764873692159f777ff79e4fc523d389dfcd9281900390910190a1601255565b600e54600160a01b900460ff1681565b6000828152601c6020526040812054601554601954919291620026e49163ffffffff62002c0f16565b6000858152601c602052604081206004810186905560060154919250906001600160a01b031615620027a1576000858152601c60209081526040808320600601548151600160e21b63327093330281526004810187905291516001600160a01b039091169363c9c24ccc93602480850194919392918390030190829087803b1580156200277057600080fd5b505af115801562002785573d6000803e3d6000fd5b505050506040513d60208110156200279c57600080fd5b505190505b620027b58282850160000360001962002c3f565b6000858152601c6020526040808220600381018590556006018054600160a01b60ff021916600160a11b17905551839187917fa1735a3843d9467dd849a217582720a8af66b9d034712e0b21b0f5ece80670cd9190a35050505050565b80336200281f8262001ab4565b6001600160a01b0316146200283357600080fd5b6000828152601c6020526040902060030154158015906200287b5750601954600c546000848152601c6020526040902060030154620028789163ffffffff62002c0f16565b11155b6200288557600080fd5b6000828152601c6020526040902054601854620028a9908263ffffffff62002c2916565b601855620028b78362002e1e565b6000838152601c6020818152604080842060058101546001600160a01b039081168652601b8452828620869055600f548987529484526001909101548251600160e01b63a9059cbb0281523360048201529087016024820152915193169363a9059cbb93604480840194939192918390030190829087803b1580156200293c57600080fd5b505af115801562002951573d6000803e3d6000fd5b505050506040513d60208110156200296857600080fd5b50516200297457600080fd5b6018546040805183815260208101929092528051859233927f204fccf0d92ed8d48f204adb39b2e81e92bad0dedb93f5716ca9478cfb57de0092918290030190a3505050565b60155481565b620029ca62001f36565b620029d457600080fd5b60008111620029e257600080fd5b60115460408051838152602081019290925280517f9444bfcfa6aed72a15da73de1220dcc07d7864119c44abfec0037bbcacefda989281900390910190a1601181905562002a3881600263ffffffff62002c8c16565b60155560115462002a5190600263ffffffff62002c6116565b600c5550565b62002a6162001f36565b62002a6b57600080fd5b6001600160a01b03811662002a7f57600080fd5b600e546040516001600160a01b038084169216907f211c9015fc81c0dbd45bd99f0f29fc1c143bfd53442d5ffd722bbbef7a887fe990600090a3600e80546001600160a01b0319166001600160a01b0392909216919091179055565b6001600160a01b03918216600090815260046020908152604080832093909416825291909152205460ff1690565b62002b1362001f36565b62002b1d57600080fd5b62002b288162002e34565b50565b62002b3562001f36565b62002b3f57600080fd5b600e8054600160a01b60ff021916600160a01b179055565b600f546001600160a01b031681565b6000908152600160205260409020546001600160a01b0316151590565b60008062002b918362001ab4565b9050806001600160a01b0316846001600160a01b0316148062002bcf5750836001600160a01b031662002bc48462001011565b6001600160a01b0316145b8062002be2575062002be2818562002adb565b949350505050565b62002bf783838362002ea4565b62002c03838262002f8e565b620011eb82826200308a565b60008282018381101562002c2257600080fd5b9392505050565b60008282111562002c3957600080fd5b50900390565b6000928352601d60205260409092208054909101815560010180549091019055565b60008262002c7257506000620011bc565b8282028284828162002c8057fe5b041462002c2257600080fd5b600080821162002c9b57600080fd5b600082848162002ca757fe5b04949350505050565b5490565b600062002cca846001600160a01b0316620030c8565b62002cd85750600162002be2565b604051600160e11b630a85bd0102815233600482018181526001600160a01b03888116602485015260448401879052608060648501908152865160848601528651600095928a169463150b7a029490938c938b938b939260a4019060208501908083838e5b8381101562002d5757818101518382015260200162002d3d565b50505050905090810190601f16801562002d855780820380516001836020036101000a031916815260200191505b5095505050505050602060405180830381600087803b15801562002da857600080fd5b505af115801562002dbd573d6000803e3d6000fd5b505050506040513d602081101562002dd457600080fd5b50516001600160e01b031916600160e11b630a85bd010214915050949350505050565b62002e038282620030ce565b62002e0f82826200308a565b62002e1a8162003175565b5050565b62002b2862002e2d8262001ab4565b82620031b9565b6001600160a01b03811662002e4857600080fd5b600d546040516001600160a01b038084169216907f8be0079c531659141344cd1fd0a4f28419497f9722a3daafe3b4186f6b6457e090600090a3600d80546001600160a01b0319166001600160a01b0392909216919091179055565b826001600160a01b031662002eb98262001ab4565b6001600160a01b03161462002ecd57600080fd5b6001600160a01b03821662002ee157600080fd5b62002eec8162003206565b6001600160a01b038316600090815260036020526040902062002f0f9062003242565b6001600160a01b038216600090815260036020526040902062002f32906200325b565b60008181526001602052604080822080546001600160a01b0319166001600160a01b0386811691821790925591518493918716917fddf252ad1be2c89b69c2b068fc378daa952ba7f163c4a11628f55a4df523b3ef91a4505050565b6001600160a01b03821660009081526005602052604081205462002fba90600163ffffffff62002c2916565b60008381526006602052604090205490915080821462003058576001600160a01b038416600090815260056020526040812080548490811062002ff957fe5b906000526020600020015490508060056000876001600160a01b03166001600160a01b0316815260200190815260200160002083815481106200303857fe5b600091825260208083209091019290925591825260069052604090208190555b6001600160a01b038416600090815260056020526040902080549062003083906000198301620033f2565b5050505050565b6001600160a01b0390911660009081526005602081815260408084208054868652600684529185208290559282526001810183559183529091200155565b3b151590565b6001600160a01b038216620030e257600080fd5b620030ed8162002b66565b15620030f857600080fd5b600081815260016020908152604080832080546001600160a01b0319166001600160a01b03871690811790915583526003909152902062003139906200325b565b60405181906001600160a01b038416906000907fddf252ad1be2c89b69c2b068fc378daa952ba7f163c4a11628f55a4df523b3ef908290a45050565b600780546000838152600860205260408120829055600182018355919091527fa66cc928b5edb82af9bd49922954155ab7b0942694bea4ce44661d9a8736c6880155565b620031c5828262003264565b6000818152600b6020526040902054600260001961010060018416150201909116041562002e1a576000818152600b6020526040812062002e1a9162003419565b6000818152600260205260409020546001600160a01b03161562002b2857600090815260026020526040902080546001600160a01b0319169055565b80546200325790600163ffffffff62002c2916565b9055565b80546001019055565b62003270828262003296565b6200327c828262002f8e565b60008181526006602052604081205562002e1a8162003342565b816001600160a01b0316620032ab8262001ab4565b6001600160a01b031614620032bf57600080fd5b620032ca8162003206565b6001600160a01b0382166000908152600360205260409020620032ed9062003242565b60008181526001602052604080822080546001600160a01b0319169055518291906001600160a01b038516907fddf252ad1be2c89b69c2b068fc378daa952ba7f163c4a11628f55a4df523b3ef908390a45050565b6007546000906200335b90600163ffffffff62002c2916565b600083815260086020526040812054600780549394509092849081106200337e57fe5b9060005260206000200154905080600783815481106200339a57fe5b60009182526020808320909101929092558281526008909152604090208290556007805490620033cf906000198301620033f2565b50505060009182525060086020526040812055565b610f8d806200347e83390190565b815481835581811115620011eb57600083815260209020620011eb9181019083016200345c565b50805460018160011615610100020316600290046000825580601f1062003441575062002b28565b601f01602090049060005260206000209081019062002b2891905b62000f7491905b8082111562003479576000815560010162003463565b509056fe608060405260006003819055600481905560055560078054600160a01b60ff02191674010000000000000000000000000000000000000000179055600a60095534801561004b57600080fd5b50604051604080610f8d8339810180604052604081101561006b57600080fd5b508051602090910151600080546001600160a01b03191633178082556040516001600160a01b039190911691907f8be0079c531659141344cd1fd0a4f28419497f9722a3daafe3b4186f6b6457e0908290a3600680546001600160a01b039384166001600160a01b03199182161790915560078054929093169116179055610e95806100f86000396000f3fe608060405234801561001057600080fd5b50600436106101425760003560e01c80638da5cb5b116100b8578063b37f25901161007c578063b37f2590146102d8578063c9c24ccc14610301578063cfe0a4531461031e578063e655842f1461034d578063f2fde38b14610355578063fd73091c1461037b57610142565b80638da5cb5b146102815780638f32d59b146102895780638f546b09146102a55780639ec5a894146102ad578063a32dd342146102b557610142565b80636b7491291161010a5780636b749129146101d55780636cbb60501461020a578063713f774314610233578063715018a61461023b5780637b103999146102435780638a2747201461024b57610142565b806319480af8146101475780633a5381b5146101725780635be612c7146101965780635d1e3616146101c5578063646033bc146101cd575b600080fd5b6101706004803603606081101561015d57600080fd5b5080359060208101359060400135610398565b005b61017a61052f565b604080516001600160a01b039092168252519081900360200190f35b6101b3600480360360208110156101ac57600080fd5b503561053e565b60408051918252519081900360200190f35b6101b361055c565b6101b3610562565b6101b3600480360360a08110156101eb57600080fd5b5080359060208101359060408101359060608101359060800135610568565b6101706004803603606081101561022057600080fd5b50803590602081013590604001356105d2565b6101b3610765565b61017061076c565b61017a6107c7565b6102686004803603602081101561026157600080fd5b50356107d6565b6040805192835260208301919091528051918290030190f35b61017a6107ef565b6102916107fe565b604080519115158252519081900360200190f35b6101b361080f565b6101b3610815565b6101b3600480360360408110156102cb57600080fd5b508035906020013561081b565b610170600480360360608110156102ee57600080fd5b508035906020810135906040013561083d565b6101b36004803603602081101561031757600080fd5b50356108c4565b6101706004803603608081101561033457600080fd5b5080359060208101359060408101359060600135610a88565b6101b3610bbb565b6101706004803603602081101561036b57600080fd5b50356001600160a01b0316610bc1565b6101b36004803603602081101561039157600080fd5b5035610bde565b60075460408051600160e01b63253006b1028152905133926001600160a01b03169163253006b1916004808301926020929190829003018186803b1580156103df57600080fd5b505afa1580156103f3573d6000803e3d6000fd5b505050506040513d602081101561040957600080fd5b50516001600160a01b03161461041e57600080fd5b600754600160a01b900460ff1661043457600080fd5b60008381526008602052604090206001015415806104de57506104c96104586107ef565b6001600160a01b0316630ebb172a6040518163ffffffff1660e01b815260040160206040518083038186803b15801561049057600080fd5b505afa1580156104a4573d6000803e3d6000fd5b505050506040513d60208110156104ba57600080fd5b5051829063ffffffff610d4a16565b60008481526008602052604090206001015411155b6104e757600080fd5b6002805460018082019092557f405787fa12a823e0f2b7631cc41b3ba8828b3321ca811111fa75cd3aa3bb5ace01849055600093845260086020526040909320558154019055565b6006546001600160a01b031681565b6002818154811061054b57fe5b600091825260209091200154905081565b60045481565b60095481565b60008083610574578293505b845b848110156105c7576000818152600a6020526040902054156105bf576000818152600a60205260409020600181015490546105ba919089029063ffffffff610d6416565b820191505b600101610576565b509695505050505050565b6105da6107fe565b6105e357600080fd5b60075460408051600160e01b63253006b102815290516000926001600160a01b03169163253006b1916004808301926020929190829003018186803b15801561062b57600080fd5b505afa15801561063f573d6000803e3d6000fd5b505050506040513d602081101561065557600080fd5b505190508282141561075f57606060028054806020026020016040519081016040528092919081815260200182805480156106af57602002820191906000526020600020905b81548152602001906001019080831161069b575b505060408051600160e01b63ce5d67d9028152602481018b9052600481019182528551604482015285519596506001600160a01b0388169563ce5d67d995508794508b93508291606401906020808701910280838360005b8381101561071f578181015183820152602001610707565b505050509050019350505050600060405180830381600087803b15801561074557600080fd5b505af1158015610759573d6000803e3d6000fd5b50505050505b50505050565b6002545b90565b6107746107fe565b61077d57600080fd5b600080546040516001600160a01b03909116907f8be0079c531659141344cd1fd0a4f28419497f9722a3daafe3b4186f6b6457e0908390a3600080546001600160a01b0319169055565b6007546001600160a01b031681565b600a602052600090815260409020805460019091015482565b6000546001600160a01b031690565b6000546001600160a01b0316331490565b60055481565b60035481565b6008602052816000526040600020816002811061083457fe5b01549150829050565b6108456107fe565b61084e57600080fd5b6000610876606461086a60095487610d8690919063ffffffff16565b9063ffffffff610d6416565b9050600154820182828603028161088957fe5b6004805492909104929092019081019091556003805491909403908101909355506000908152600a6020526040902090815560018054910155565b60006108ce6107fe565b6108d757600080fd5b60078054600160a01b60ff0219811690915560408051600160e01b63253006b102815290516000926001600160a01b03169163253006b1916004808301926020929190829003018186803b15801561092e57600080fd5b505afa158015610942573d6000803e3d6000fd5b505050506040513d602081101561095857600080fd5b505160028054604080516020838102820181019092528281529394506060939291908301828280156109a957602002820191906000526020600020905b815481526020019060010190808311610995575b5050600654604051600160e01b636a2aebd7028152602481018a90526001600160a01b039182166044820181905260606004830190815287516064840152875197985092891696636a2aebd796508895508b945090929182916084909101906020808801910280838360005b83811015610a2d578181015183820152602001610a15565b50505050905001945050505050602060405180830381600087803b158015610a5457600080fd5b505af1158015610a68573d6000803e3d6000fd5b505050506040513d6020811015610a7e57600080fd5b5051949350505050565b60075460408051600160e01b63253006b1028152905133926001600160a01b03169163253006b1916004808301926020929190829003018186803b158015610acf57600080fd5b505afa158015610ae3573d6000803e3d6000fd5b505050506040513d6020811015610af957600080fd5b50516001600160a01b031614610b0e57600080fd5b8360028481548110610b1c57fe5b906000526020600020015414610b3157600080fd5b6000848152600860205260409020819060010155600180548390039055600280546000198101908110610b6057fe5b906000526020600020015460028481548110610b7857fe5b600091825260209091200155600280546000198101908110610b9657fe5b60009182526020822001556002805490610bb4906000198301610e22565b5050505050565b60015481565b610bc96107fe565b610bd257600080fd5b610bdb81610db4565b50565b6000610be86107fe565b610bf157600080fd5b60078054600160a01b60ff021916600160a01b179081905560408051600160e01b63253006b102815290516000926001600160a01b03169163253006b1916004808301926020929190829003018186803b158015610c4e57600080fd5b505afa158015610c62573d6000803e3d6000fd5b505050506040513d6020811015610c7857600080fd5b50516002805460408051602083810282018101909252828152939450606093929190830182828015610cc957602002820191906000526020600020905b815481526020019060010190808311610cb5575b5050600654604051600160e01b63b0cd6001028152602481018a90526001600160a01b03918216604482018190526060600483019081528751606484015287519798509289169663b0cd600196508895508b945090929182916084909101906020878101910280838360008315610a2d578181015183820152602001610a15565b600082821115610d5957600080fd5b508082035b92915050565b6000808211610d7257600080fd5b6000828481610d7d57fe5b04949350505050565b600082610d9557506000610d5e565b82820282848281610da257fe5b0414610dad57600080fd5b9392505050565b6001600160a01b038116610dc757600080fd5b600080546040516001600160a01b03808516939216917f8be0079c531659141344cd1fd0a4f28419497f9722a3daafe3b4186f6b6457e091a3600080546001600160a01b0319166001600160a01b0392909216919091179055565b815481835581811115610e4657600083815260209020610e46918101908301610e4b565b505050565b61076991905b80821115610e655760008155600101610e51565b509056fea165627a7a72305820d05ed2d6e4558626ebeab11949efa2b3ed187a9d29318d354a1e4697d6fa447e0029a165627a7a72305820a4c5f0ec67e63474ac3045852f8d10aa77e523b12f8cff84ec87e4012e95bd1d0029",
  "source": "pragma solidity ^0.5.2;\n\nimport { StakeManager } from \"../staking/StakeManager.sol\";\n\n\ncontract StakeManagerTest is StakeManager {\n  modifier onlyRootChain() {\n    _;\n  }\n\n  constructor (address _registry, address _rootChain) StakeManager(_registry, _rootChain) public {\n  }\n\n  function checkSignatures(bytes32 voteHash, bytes memory sigs, address proposer) public onlyRootChain {\n    return;\n  }\n}\n",
  "sourcePath": "/Users/arpit/projects/contracts/contracts/test/StakeManagerTest.sol",
  "compiler": {
    "name": "solc",
    "version": "0.5.7+commit.6da8b019.Emscripten.clang"
  },
  "schemaVersion": "3.0.16",
  "updatedAt": "2019-09-21T10:53:39.342Z",
  "devdoc": {
    "methods": {
      "approve(address,uint256)": {
        "details": "Approves another address to transfer the given token ID The zero address indicates there is no approved address. There can only be one approved address per token at a given time. Can only be called by the token owner or an approved operator.",
        "params": {
          "to": "address to be approved for the given token ID",
          "tokenId": "uint256 ID of the token to be approved"
        }
      },
      "balanceOf(address)": {
        "details": "Gets the balance of the specified address",
        "params": {
          "owner": "address to query the balance of"
        },
        "return": "uint256 representing the amount owned by the passed address"
      },
      "changeRootChain(address)": {
        "details": "Allows the current owner to change root chain address.",
        "params": {
          "newRootChain": "The address to new rootchain."
        }
      },
      "getApproved(uint256)": {
        "details": "Gets the approved address for a token ID, or zero if no address set Reverts if the token ID does not exist.",
        "params": {
          "tokenId": "uint256 ID of the token to query the approval of"
        },
        "return": "address currently approved for the given token ID"
      },
      "isApprovedForAll(address,address)": {
        "details": "Tells whether an operator is approved by a given owner",
        "params": {
          "operator": "operator address which you want to query the approval of",
          "owner": "owner address which you want to query the approval of"
        },
        "return": "bool whether the given operator is approved by the given owner"
      },
      "isOwner()": {
        "return": "true if `msg.sender` is the owner of the contract."
      },
      "name()": {
        "details": "Gets the token name",
        "return": "string representing the token name"
      },
      "owner()": {
        "return": "the address of the owner."
      },
      "ownerOf(uint256)": {
        "details": "Gets the owner of the specified token ID",
        "params": {
          "tokenId": "uint256 ID of the token to query the owner of"
        },
        "return": "address currently marked as the owner of the given token ID"
      },
      "renounceOwnership()": {
        "details": "Allows the current owner to relinquish control of the contract. It will not be possible to call the functions with the `onlyOwner` modifier anymore."
      },
      "safeTransferFrom(address,address,uint256)": {
        "details": "Safely transfers the ownership of a given token ID to another address If the target address is a contract, it must implement `onERC721Received`, which is called upon a safe transfer, and return the magic value `bytes4(keccak256(\"onERC721Received(address,address,uint256,bytes)\"))`; otherwise, the transfer is reverted. Requires the msg.sender to be the owner, approved, or operator",
        "params": {
          "from": "current owner of the token",
          "to": "address to receive the ownership of the given token ID",
          "tokenId": "uint256 ID of the token to be transferred"
        }
      },
      "safeTransferFrom(address,address,uint256,bytes)": {
        "details": "Safely transfers the ownership of a given token ID to another address If the target address is a contract, it must implement `onERC721Received`, which is called upon a safe transfer, and return the magic value `bytes4(keccak256(\"onERC721Received(address,address,uint256,bytes)\"))`; otherwise, the transfer is reverted. Requires the msg.sender to be the owner, approved, or operator",
        "params": {
          "_data": "bytes data to send along with a safe transfer check",
          "from": "current owner of the token",
          "to": "address to receive the ownership of the given token ID",
          "tokenId": "uint256 ID of the token to be transferred"
        }
      },
      "setApprovalForAll(address,bool)": {
        "details": "Sets or unsets the approval of a given operator An operator is allowed to transfer all tokens of the sender on their behalf",
        "params": {
          "approved": "representing the status of the approval to be set",
          "to": "operator address to set the approval"
        }
      },
      "supportsInterface(bytes4)": {
        "details": "implement supportsInterface(bytes4) using a lookup table"
      },
      "symbol()": {
        "details": "Gets the token symbol",
        "return": "string representing the token symbol"
      },
      "tokenByIndex(uint256)": {
        "details": "Gets the token ID at a given index of all the tokens in this contract Reverts if the index is greater or equal to the total number of tokens",
        "params": {
          "index": "uint256 representing the index to be accessed of the tokens list"
        },
        "return": "uint256 token ID at the given index of the tokens list"
      },
      "tokenOfOwnerByIndex(address,uint256)": {
        "details": "Gets the token ID at a given index of the tokens list of the requested owner",
        "params": {
          "index": "uint256 representing the index to be accessed of the requested tokens list",
          "owner": "address owning the tokens list to be accessed"
        },
        "return": "uint256 token ID at the given index of the tokens list owned by the requested address"
      },
      "tokenURI(uint256)": {
        "details": "Returns an URI for a given token ID Throws if the token ID does not exist. May return an empty string.",
        "params": {
          "tokenId": "uint256 ID of the token to query"
        }
      },
      "totalSupply()": {
        "details": "Gets the total amount of tokens stored by the contract",
        "return": "uint256 representing the total amount of tokens"
      },
      "transferFrom(address,address,uint256)": {
        "details": "Transfers the ownership of a given token ID to another address Usage of this method is discouraged, use `safeTransferFrom` whenever possible Requires the msg.sender to be the owner, approved, or operator",
        "params": {
          "from": "current owner of the token",
          "to": "address to receive the ownership of the given token ID",
          "tokenId": "uint256 ID of the token to be transferred"
        }
      },
      "transferOwnership(address)": {
        "details": "Allows the current owner to transfer control of the contract to a newOwner.",
        "params": {
          "newOwner": "The address to transfer ownership to."
        }
      }
    }
  },
  "userdoc": {
    "methods": {
      "renounceOwnership()": {
        "notice": "Renouncing ownership will leave the contract without an owner, thereby removing any functionality that is only available to the owner."
      }
    }
  }
}