{
  "contractName": "StakeManagerTest",
  "abi": [
    {
      "constant": true,
      "inputs": [
        {
          "name": "interfaceId",
          "type": "bytes4"
        }
      ],
      "name": "supportsInterface",
      "outputs": [
        {
          "name": "",
          "type": "bool"
        }
      ],
      "payable": false,
      "stateMutability": "view",
      "type": "function"
    },
    {
      "constant": true,
      "inputs": [],
      "name": "getCurrentValidatorSet",
      "outputs": [
        {
          "name": "",
          "type": "uint256[]"
        }
      ],
      "payable": false,
      "stateMutability": "view",
      "type": "function"
    },
    {
      "constant": true,
      "inputs": [],
      "name": "name",
      "outputs": [
        {
          "name": "",
          "type": "string"
        }
      ],
      "payable": false,
      "stateMutability": "view",
      "type": "function"
    },
    {
      "constant": true,
      "inputs": [
        {
          "name": "tokenId",
          "type": "uint256"
        }
      ],
      "name": "getApproved",
      "outputs": [
        {
          "name": "",
          "type": "address"
        }
      ],
      "payable": false,
      "stateMutability": "view",
      "type": "function"
    },
    {
      "constant": false,
      "inputs": [
        {
          "name": "to",
          "type": "address"
        },
        {
          "name": "tokenId",
          "type": "uint256"
        }
      ],
      "name": "approve",
      "outputs": [],
      "payable": false,
      "stateMutability": "nonpayable",
      "type": "function"
    },
    {
      "constant": true,
      "inputs": [],
      "name": "WITHDRAWAL_DELAY",
      "outputs": [
        {
          "name": "",
          "type": "uint256"
        }
      ],
      "payable": false,
      "stateMutability": "view",
      "type": "function"
    },
    {
      "constant": false,
      "inputs": [
        {
          "name": "_token",
          "type": "address"
        }
      ],
      "name": "setToken",
      "outputs": [],
      "payable": false,
      "stateMutability": "nonpayable",
      "type": "function"
    },
    {
      "constant": false,
      "inputs": [
        {
          "name": "newThreshold",
          "type": "uint256"
        }
      ],
      "name": "updateValidatorThreshold",
      "outputs": [],
      "payable": false,
      "stateMutability": "nonpayable",
      "type": "function"
    },
    {
      "constant": true,
      "inputs": [
        {
          "name": "user",
          "type": "address"
        }
      ],
      "name": "getValidatorId",
      "outputs": [
        {
          "name": "",
          "type": "uint256"
        }
      ],
      "payable": false,
      "stateMutability": "view",
      "type": "function"
    },
    {
      "constant": true,
      "inputs": [],
      "name": "totalSupply",
      "outputs": [
        {
          "name": "",
          "type": "uint256"
        }
      ],
      "payable": false,
      "stateMutability": "view",
      "type": "function"
    },
    {
      "constant": false,
      "inputs": [
        {
          "name": "from",
          "type": "address"
        },
        {
          "name": "to",
          "type": "address"
        },
        {
          "name": "tokenId",
          "type": "uint256"
        }
      ],
      "name": "transferFrom",
      "outputs": [],
      "payable": false,
      "stateMutability": "nonpayable",
      "type": "function"
    },
    {
      "constant": true,
      "inputs": [
        {
          "name": "validatorId",
          "type": "uint256"
        }
      ],
      "name": "isValidator",
      "outputs": [
        {
          "name": "",
          "type": "bool"
        }
      ],
      "payable": false,
      "stateMutability": "view",
      "type": "function"
    },
    {
      "constant": true,
      "inputs": [],
      "name": "MIN_DEPOSIT_SIZE",
      "outputs": [
        {
          "name": "",
          "type": "uint256"
        }
      ],
      "payable": false,
      "stateMutability": "view",
      "type": "function"
    },
    {
      "constant": false,
      "inputs": [
        {
          "name": "validatorId",
          "type": "uint256"
        },
        {
          "name": "amount",
          "type": "uint256"
        },
        {
          "name": "stakeRewards",
          "type": "bool"
        }
      ],
      "name": "restake",
      "outputs": [],
      "payable": false,
      "stateMutability": "nonpayable",
      "type": "function"
    },
    {
      "constant": false,
      "inputs": [
        {
          "name": "validatorId",
          "type": "uint256"
        }
      ],
      "name": "unstake",
      "outputs": [],
      "payable": false,
      "stateMutability": "nonpayable",
      "type": "function"
    },
    {
      "constant": true,
      "inputs": [
        {
          "name": "owner",
          "type": "address"
        },
        {
          "name": "index",
          "type": "uint256"
        }
      ],
      "name": "tokenOfOwnerByIndex",
      "outputs": [
        {
          "name": "",
          "type": "uint256"
        }
      ],
      "payable": false,
      "stateMutability": "view",
      "type": "function"
    },
    {
      "constant": true,
      "inputs": [
        {
          "name": "",
          "type": "uint256"
        }
      ],
      "name": "validators",
      "outputs": [
        {
          "name": "amount",
          "type": "uint256"
        },
        {
          "name": "reward",
          "type": "uint256"
        },
        {
          "name": "activationEpoch",
          "type": "uint256"
        },
        {
          "name": "deactivationEpoch",
          "type": "uint256"
        },
        {
          "name": "jailTime",
          "type": "uint256"
        },
        {
          "name": "signer",
          "type": "address"
        },
        {
          "name": "contractAddress",
          "type": "address"
        },
        {
          "name": "status",
          "type": "uint8"
        }
      ],
      "payable": false,
      "stateMutability": "view",
      "type": "function"
    },
    {
      "constant": true,
      "inputs": [
        {
          "name": "",
          "type": "address"
        }
      ],
      "name": "signerToValidator",
      "outputs": [
        {
          "name": "",
          "type": "uint256"
        }
      ],
      "payable": false,
      "stateMutability": "view",
      "type": "function"
    },
    {
      "constant": false,
      "inputs": [
        {
          "name": "validatorId",
          "type": "uint256"
        }
      ],
      "name": "unJail",
      "outputs": [],
      "payable": false,
      "stateMutability": "nonpayable",
      "type": "function"
    },
    {
      "constant": false,
      "inputs": [
        {
          "name": "from",
          "type": "address"
        },
        {
          "name": "to",
          "type": "address"
        },
        {
          "name": "tokenId",
          "type": "uint256"
        }
      ],
      "name": "safeTransferFrom",
      "outputs": [],
      "payable": false,
      "stateMutability": "nonpayable",
      "type": "function"
    },
    {
      "constant": true,
      "inputs": [],
      "name": "DYNASTY",
      "outputs": [
        {
          "name": "",
          "type": "uint256"
        }
      ],
      "payable": false,
      "stateMutability": "view",
      "type": "function"
    },
    {
      "constant": true,
      "inputs": [
        {
          "name": "user",
          "type": "address"
        }
      ],
      "name": "totalStakedFor",
      "outputs": [
        {
          "name": "",
          "type": "uint256"
        }
      ],
      "payable": false,
      "stateMutability": "view",
      "type": "function"
    },
    {
      "constant": true,
      "inputs": [
        {
          "name": "index",
          "type": "uint256"
        }
      ],
      "name": "tokenByIndex",
      "outputs": [
        {
          "name": "",
          "type": "uint256"
        }
      ],
      "payable": false,
      "stateMutability": "view",
      "type": "function"
    },
    {
      "constant": true,
      "inputs": [],
      "name": "validatorThreshold",
      "outputs": [
        {
          "name": "",
          "type": "uint256"
        }
      ],
      "payable": false,
      "stateMutability": "view",
      "type": "function"
    },
    {
      "constant": true,
      "inputs": [],
      "name": "NFTCounter",
      "outputs": [
        {
          "name": "",
          "type": "uint256"
        }
      ],
      "payable": false,
      "stateMutability": "view",
      "type": "function"
    },
    {
      "constant": true,
      "inputs": [
        {
          "name": "validatorId",
          "type": "uint256"
        }
      ],
      "name": "getValidatorContract",
      "outputs": [
        {
          "name": "",
          "type": "address"
        }
      ],
      "payable": false,
      "stateMutability": "view",
      "type": "function"
    },
    {
      "constant": true,
      "inputs": [
        {
          "name": "",
          "type": "uint256"
        }
      ],
      "name": "validatorState",
      "outputs": [
        {
          "name": "amount",
          "type": "int256"
        },
        {
          "name": "stakerCount",
          "type": "int256"
        }
      ],
      "payable": false,
      "stateMutability": "view",
      "type": "function"
    },
    {
      "constant": true,
      "inputs": [
        {
          "name": "tokenId",
          "type": "uint256"
        }
      ],
      "name": "ownerOf",
      "outputs": [
        {
          "name": "",
          "type": "address"
        }
      ],
      "payable": false,
      "stateMutability": "view",
      "type": "function"
    },
    {
      "constant": false,
      "inputs": [
        {
          "name": "validatorId",
          "type": "uint256"
        },
        {
          "name": "slashingRate",
          "type": "uint256"
        },
        {
          "name": "jailCheckpoints",
          "type": "uint256"
        }
      ],
      "name": "slash",
      "outputs": [],
      "payable": false,
      "stateMutability": "nonpayable",
      "type": "function"
    },
    {
      "constant": true,
      "inputs": [],
      "name": "supportsHistory",
      "outputs": [
        {
          "name": "",
          "type": "bool"
        }
      ],
      "payable": false,
      "stateMutability": "pure",
      "type": "function"
    },
    {
      "constant": true,
      "inputs": [
        {
          "name": "owner",
          "type": "address"
        }
      ],
      "name": "balanceOf",
      "outputs": [
        {
          "name": "",
          "type": "uint256"
        }
      ],
      "payable": false,
      "stateMutability": "view",
      "type": "function"
    },
    {
      "constant": false,
      "inputs": [],
      "name": "renounceOwnership",
      "outputs": [],
      "payable": false,
      "stateMutability": "nonpayable",
      "type": "function"
    },
    {
      "constant": true,
      "inputs": [],
      "name": "currentEpoch",
      "outputs": [
        {
          "name": "",
          "type": "uint256"
        }
      ],
      "payable": false,
      "stateMutability": "view",
      "type": "function"
    },
    {
      "constant": true,
      "inputs": [
        {
          "name": "validatorId",
          "type": "uint256"
        }
      ],
      "name": "getStakerDetails",
      "outputs": [
        {
          "name": "",
          "type": "uint256"
        },
        {
          "name": "",
          "type": "uint256"
        },
        {
          "name": "",
          "type": "uint256"
        },
        {
          "name": "",
          "type": "address"
        },
        {
          "name": "",
          "type": "uint256"
        }
      ],
      "payable": false,
      "stateMutability": "view",
      "type": "function"
    },
    {
      "constant": true,
      "inputs": [],
      "name": "registry",
      "outputs": [
        {
          "name": "",
          "type": "address"
        }
      ],
      "payable": false,
      "stateMutability": "view",
      "type": "function"
    },
    {
      "constant": true,
      "inputs": [],
      "name": "CHECKPOINT_REWARD",
      "outputs": [
        {
          "name": "",
          "type": "uint256"
        }
      ],
      "payable": false,
      "stateMutability": "view",
      "type": "function"
    },
    {
      "constant": false,
      "inputs": [
        {
          "name": "amount",
          "type": "uint256"
        },
        {
          "name": "signer",
          "type": "address"
        },
        {
          "name": "isContract",
          "type": "bool"
        }
      ],
      "name": "stake",
      "outputs": [],
      "payable": false,
      "stateMutability": "nonpayable",
      "type": "function"
    },
    {
      "constant": true,
      "inputs": [],
      "name": "currentValidatorSetSize",
      "outputs": [
        {
          "name": "",
          "type": "uint256"
        }
      ],
      "payable": false,
      "stateMutability": "view",
      "type": "function"
    },
    {
      "constant": true,
      "inputs": [],
      "name": "totalStaked",
      "outputs": [
        {
          "name": "",
          "type": "uint256"
        }
      ],
      "payable": false,
      "stateMutability": "view",
      "type": "function"
    },
    {
      "constant": true,
      "inputs": [],
      "name": "owner",
      "outputs": [
        {
          "name": "",
          "type": "address"
        }
      ],
      "payable": false,
      "stateMutability": "view",
      "type": "function"
    },
    {
      "constant": false,
      "inputs": [
        {
          "name": "validatorId",
          "type": "uint256"
        },
        {
          "name": "_signer",
          "type": "address"
        }
      ],
      "name": "updateSigner",
      "outputs": [],
      "payable": false,
      "stateMutability": "nonpayable",
      "type": "function"
    },
    {
      "constant": true,
      "inputs": [],
      "name": "isOwner",
      "outputs": [
        {
          "name": "",
          "type": "bool"
        }
      ],
      "payable": false,
      "stateMutability": "view",
      "type": "function"
    },
    {
      "constant": true,
      "inputs": [],
      "name": "symbol",
      "outputs": [
        {
          "name": "",
          "type": "string"
        }
      ],
      "payable": false,
      "stateMutability": "view",
      "type": "function"
    },
    {
      "constant": true,
      "inputs": [],
      "name": "rootChain",
      "outputs": [
        {
          "name": "",
          "type": "address"
        }
      ],
      "payable": false,
      "stateMutability": "view",
      "type": "function"
    },
    {
      "constant": false,
      "inputs": [
        {
          "name": "epochs",
          "type": "uint256"
        }
      ],
      "name": "updateMinLockInPeriod",
      "outputs": [],
      "payable": false,
      "stateMutability": "nonpayable",
      "type": "function"
    },
    {
      "constant": false,
      "inputs": [
        {
          "name": "to",
          "type": "address"
        },
        {
          "name": "approved",
          "type": "bool"
        }
      ],
      "name": "setApprovalForAll",
      "outputs": [],
      "payable": false,
      "stateMutability": "nonpayable",
      "type": "function"
    },
    {
      "constant": true,
      "inputs": [],
      "name": "currentValidatorSetTotalStake",
      "outputs": [
        {
          "name": "",
          "type": "uint256"
        }
      ],
      "payable": false,
      "stateMutability": "view",
      "type": "function"
    },
    {
      "constant": true,
      "inputs": [],
      "name": "minLockInPeriod",
      "outputs": [
        {
          "name": "",
          "type": "uint256"
        }
      ],
      "payable": false,
      "stateMutability": "view",
      "type": "function"
    },
    {
      "constant": false,
      "inputs": [],
      "name": "unlock",
      "outputs": [],
      "payable": false,
      "stateMutability": "nonpayable",
      "type": "function"
    },
    {
      "constant": false,
      "inputs": [
        {
          "name": "validatorId",
          "type": "uint256"
        },
        {
          "name": "epoch",
          "type": "uint256"
        },
        {
          "name": "amount",
          "type": "int256"
        }
      ],
      "name": "updateValidatorState",
      "outputs": [],
      "payable": false,
      "stateMutability": "nonpayable",
      "type": "function"
    },
    {
      "constant": true,
      "inputs": [],
      "name": "EPOCH_LENGTH",
      "outputs": [
        {
          "name": "",
          "type": "uint256"
        }
      ],
      "payable": false,
      "stateMutability": "view",
      "type": "function"
    },
    {
      "constant": false,
      "inputs": [
        {
          "name": "from",
          "type": "address"
        },
        {
          "name": "to",
          "type": "address"
        },
        {
          "name": "tokenId",
          "type": "uint256"
        },
        {
          "name": "_data",
          "type": "bytes"
        }
      ],
      "name": "safeTransferFrom",
      "outputs": [],
      "payable": false,
      "stateMutability": "nonpayable",
      "type": "function"
    },
    {
      "constant": false,
      "inputs": [
        {
          "name": "user",
          "type": "address"
        },
        {
          "name": "amount",
          "type": "uint256"
        },
        {
          "name": "signer",
          "type": "address"
        },
        {
          "name": "isContract",
          "type": "bool"
        }
      ],
      "name": "stakeFor",
      "outputs": [],
      "payable": false,
      "stateMutability": "nonpayable",
      "type": "function"
    },
    {
      "constant": true,
      "inputs": [
        {
          "name": "tokenId",
          "type": "uint256"
        }
      ],
      "name": "tokenURI",
      "outputs": [
        {
          "name": "",
          "type": "string"
        }
      ],
      "payable": false,
      "stateMutability": "view",
      "type": "function"
    },
    {
      "constant": false,
      "inputs": [
        {
          "name": "newReward",
          "type": "uint256"
        }
      ],
      "name": "updateCheckpointReward",
      "outputs": [],
      "payable": false,
      "stateMutability": "nonpayable",
      "type": "function"
    },
    {
      "constant": true,
      "inputs": [],
      "name": "locked",
      "outputs": [
        {
          "name": "",
          "type": "bool"
        }
      ],
      "payable": false,
      "stateMutability": "view",
      "type": "function"
    },
    {
      "constant": false,
      "inputs": [
        {
          "name": "validatorId",
          "type": "uint256"
        },
        {
          "name": "jailCheckpoints",
          "type": "uint256"
        }
      ],
      "name": "jail",
      "outputs": [],
      "payable": false,
      "stateMutability": "nonpayable",
      "type": "function"
    },
    {
      "constant": false,
      "inputs": [
        {
          "name": "validatorId",
          "type": "uint256"
        }
      ],
      "name": "unstakeClaim",
      "outputs": [],
      "payable": false,
      "stateMutability": "nonpayable",
      "type": "function"
    },
    {
      "constant": true,
      "inputs": [],
      "name": "UNSTAKE_DELAY",
      "outputs": [
        {
          "name": "",
          "type": "uint256"
        }
      ],
      "payable": false,
      "stateMutability": "view",
      "type": "function"
    },
    {
      "constant": false,
      "inputs": [
        {
          "name": "newDynasty",
          "type": "uint256"
        }
      ],
      "name": "updateDynastyValue",
      "outputs": [],
      "payable": false,
      "stateMutability": "nonpayable",
      "type": "function"
    },
    {
      "constant": false,
      "inputs": [
        {
          "name": "newRootChain",
          "type": "address"
        }
      ],
      "name": "changeRootChain",
      "outputs": [],
      "payable": false,
      "stateMutability": "nonpayable",
      "type": "function"
    },
    {
      "constant": true,
      "inputs": [
        {
          "name": "owner",
          "type": "address"
        },
        {
          "name": "operator",
          "type": "address"
        }
      ],
      "name": "isApprovedForAll",
      "outputs": [
        {
          "name": "",
          "type": "bool"
        }
      ],
      "payable": false,
      "stateMutability": "view",
      "type": "function"
    },
    {
      "constant": false,
      "inputs": [
        {
          "name": "newOwner",
          "type": "address"
        }
      ],
      "name": "transferOwnership",
      "outputs": [],
      "payable": false,
      "stateMutability": "nonpayable",
      "type": "function"
    },
    {
      "constant": false,
      "inputs": [],
      "name": "lock",
      "outputs": [],
      "payable": false,
      "stateMutability": "nonpayable",
      "type": "function"
    },
    {
      "constant": true,
      "inputs": [],
      "name": "token",
      "outputs": [
        {
          "name": "",
          "type": "address"
        }
      ],
      "payable": false,
      "stateMutability": "view",
      "type": "function"
    },
    {
      "inputs": [
        {
          "name": "_registry",
          "type": "address"
        },
        {
          "name": "_rootChain",
          "type": "address"
        }
      ],
      "payable": false,
      "stateMutability": "nonpayable",
      "type": "constructor"
    },
    {
      "anonymous": false,
      "inputs": [
        {
          "indexed": true,
          "name": "previousRootChain",
          "type": "address"
        },
        {
          "indexed": true,
          "name": "newRootChain",
          "type": "address"
        }
      ],
      "name": "RootChainChanged",
      "type": "event"
    },
    {
      "anonymous": false,
      "inputs": [
        {
          "indexed": true,
          "name": "previousOwner",
          "type": "address"
        },
        {
          "indexed": true,
          "name": "newOwner",
          "type": "address"
        }
      ],
      "name": "OwnershipTransferred",
      "type": "event"
    },
    {
      "anonymous": false,
      "inputs": [
        {
          "indexed": true,
          "name": "signer",
          "type": "address"
        },
        {
          "indexed": true,
          "name": "validatorId",
          "type": "uint256"
        },
        {
          "indexed": true,
          "name": "activatonEpoch",
          "type": "uint256"
        },
        {
          "indexed": false,
          "name": "amount",
          "type": "uint256"
        },
        {
          "indexed": false,
          "name": "total",
          "type": "uint256"
        }
      ],
      "name": "Staked",
      "type": "event"
    },
    {
      "anonymous": false,
      "inputs": [
        {
          "indexed": true,
          "name": "user",
          "type": "address"
        },
        {
          "indexed": true,
          "name": "validatorId",
          "type": "uint256"
        },
        {
          "indexed": false,
          "name": "amount",
          "type": "uint256"
        },
        {
          "indexed": false,
          "name": "total",
          "type": "uint256"
        }
      ],
      "name": "Unstaked",
      "type": "event"
    },
    {
      "anonymous": false,
      "inputs": [
        {
          "indexed": true,
          "name": "user",
          "type": "address"
        },
        {
          "indexed": true,
          "name": "validatorId",
          "type": "uint256"
        },
        {
          "indexed": false,
          "name": "deactivationEpoch",
          "type": "uint256"
        },
        {
          "indexed": true,
          "name": "amount",
          "type": "uint256"
        }
      ],
      "name": "UnstakeInit",
      "type": "event"
    },
    {
      "anonymous": false,
      "inputs": [
        {
          "indexed": true,
          "name": "validatorId",
          "type": "uint256"
        },
        {
          "indexed": true,
          "name": "oldSigner",
          "type": "address"
        },
        {
          "indexed": true,
          "name": "newSigner",
          "type": "address"
        }
      ],
      "name": "SignerChange",
      "type": "event"
    },
    {
      "anonymous": false,
      "inputs": [
        {
          "indexed": true,
          "name": "validatorId",
          "type": "uint256"
        },
        {
          "indexed": false,
          "name": "amount",
          "type": "uint256"
        },
        {
          "indexed": false,
          "name": "total",
          "type": "uint256"
        }
      ],
      "name": "ReStaked",
      "type": "event"
    },
    {
      "anonymous": false,
      "inputs": [
        {
          "indexed": true,
          "name": "validatorId",
          "type": "uint256"
        },
        {
          "indexed": true,
          "name": "exitEpoch",
          "type": "uint256"
        }
      ],
      "name": "Jailed",
      "type": "event"
    },
    {
      "anonymous": false,
      "inputs": [
        {
          "indexed": false,
          "name": "newThreshold",
          "type": "uint256"
        },
        {
          "indexed": false,
          "name": "oldThreshold",
          "type": "uint256"
        }
      ],
      "name": "ThresholdChange",
      "type": "event"
    },
    {
      "anonymous": false,
      "inputs": [
        {
          "indexed": false,
          "name": "newDynasty",
          "type": "uint256"
        },
        {
          "indexed": false,
          "name": "oldDynasty",
          "type": "uint256"
        }
      ],
      "name": "DynastyValueChange",
      "type": "event"
    },
    {
      "anonymous": false,
      "inputs": [
        {
          "indexed": false,
          "name": "newReward",
          "type": "uint256"
        },
        {
          "indexed": false,
          "name": "oldReward",
          "type": "uint256"
        }
      ],
      "name": "RewardUpdate",
      "type": "event"
    },
    {
      "anonymous": false,
      "inputs": [
        {
          "indexed": true,
          "name": "validatorId",
          "type": "uint256"
        },
        {
          "indexed": true,
          "name": "oldAmount",
          "type": "uint256"
        },
        {
          "indexed": true,
          "name": "newAmount",
          "type": "uint256"
        }
      ],
      "name": "StakeUpdate",
      "type": "event"
    },
    {
      "anonymous": false,
      "inputs": [
        {
          "indexed": true,
          "name": "from",
          "type": "address"
        },
        {
          "indexed": true,
          "name": "to",
          "type": "address"
        },
        {
          "indexed": true,
          "name": "tokenId",
          "type": "uint256"
        }
      ],
      "name": "Transfer",
      "type": "event"
    },
    {
      "anonymous": false,
      "inputs": [
        {
          "indexed": true,
          "name": "owner",
          "type": "address"
        },
        {
          "indexed": true,
          "name": "approved",
          "type": "address"
        },
        {
          "indexed": true,
          "name": "tokenId",
          "type": "uint256"
        }
      ],
      "name": "Approval",
      "type": "event"
    },
    {
      "anonymous": false,
      "inputs": [
        {
          "indexed": true,
          "name": "owner",
          "type": "address"
        },
        {
          "indexed": true,
          "name": "operator",
          "type": "address"
        },
        {
          "indexed": false,
          "name": "approved",
          "type": "bool"
        }
      ],
      "name": "ApprovalForAll",
      "type": "event"
    },
    {
      "constant": false,
      "inputs": [
        {
          "name": "voteHash",
          "type": "bytes32"
        },
        {
          "name": "sigs",
          "type": "bytes"
        },
        {
          "name": "proposer",
          "type": "address"
        }
      ],
      "name": "checkSignatures",
      "outputs": [],
      "payable": false,
      "stateMutability": "nonpayable",
      "type": "function"
    }
  ],
  "bytecode": "0x6080604052611000600c55612000601155612710601255670de0b6b3a76400006013556101006014556200004560026011546200023560201b62002beb1790919060201c565b601555600a6016556002601755600060185560016019556001601a553480156200006e57600080fd5b50604051604080620047e4833981018060405260408110156200009057600080fd5b508051602091820151604080518082018252600f81527f4d617469632056616c696461746f720000000000000000000000000000000000818601528151808301909252600282527f4d5600000000000000000000000000000000000000000000000000000000000082860152929391928492849290829082906200013a907f01ffc9a7000000000000000000000000000000000000000000000000000000009062000269811b901c565b620001526380ac58cd60e01b6200026960201b60201c565b6200016a63780e9d6360e01b6200026960201b60201c565b81516200017f90600990602085019062000372565b5080516200019590600a90602084019062000372565b50620001ae635b5e139f60e01b6200026960201b60201c565b5050600d80546001600160a01b0319163317908190556040516001600160a01b03919091169250600091507f8be0079c531659141344cd1fd0a4f28419497f9722a3daafe3b4186f6b6457e0908290a3601080546001600160a01b0319166001600160a01b0384161790556200022b81620002d6602090811b901c565b5050505062000414565b600082620002465750600062000263565b828202828482816200025457fe5b04146200026057600080fd5b90505b92915050565b7fffffffff0000000000000000000000000000000000000000000000000000000080821614156200029957600080fd5b7fffffffff00000000000000000000000000000000000000000000000000000000166000908152602081905260409020805460ff19166001179055565b620002e66200036060201b60201c565b620002f057600080fd5b6001600160a01b0381166200030457600080fd5b600e546040516001600160a01b038084169216907f211c9015fc81c0dbd45bd99f0f29fc1c143bfd53442d5ffd722bbbef7a887fe990600090a3600e80546001600160a01b0319166001600160a01b0392909216919091179055565b600d546001600160a01b031633145b90565b828054600181600116156101000203166002900490600052602060002090601f016020900481019282601f10620003b557805160ff1916838001178555620003e5565b82800160010185558215620003e5579182015b82811115620003e5578251825591602001919060010190620003c8565b50620003f3929150620003f7565b5090565b6200036f91905b80821115620003f35760008155600101620003fe565b6143c080620004246000396000f3fe60806040523480156200001157600080fd5b5060043610620004485760003560e01c806376671808116200023d578063a69df4b51162000141578063d220376611620000c9578063e8afa8e81162000093578063e8afa8e81462000def578063e985e9c51462000e18578063f2fde38b1462000e49578063f83d08ba1462000e72578063fc0c546a1462000e7c5762000448565b8063d22037661462000d7f578063d86d53e71462000da5578063e35e5d841462000dc5578063e6692f491462000dcf5762000448565b8063bd2fbd61116200010b578063bd2fbd611462000cf6578063c87b56dd1462000d35578063cbf383d51462000d55578063cf3090121462000d755762000448565b8063a69df4b51462000bea578063a968882f1462000bf4578063ac4746ab1462000c20578063b88d4fde1462000c2a5762000448565b80638f283a8611620001c557806398ee773b116200018f57806398ee773b1462000b85578063a22cb4651462000ba5578063a47690711462000bd6578063a548c5471462000be05762000448565b80638f283a861462000b385780638f32d59b1462000b6757806395d89b411462000b71578063987ab9db1462000b7b5762000448565b80637e9f2c8411620002075780637e9f2c841462000ae35780637f952d951462000b1a578063817b1cd21462000b245780638da5cb5b1462000b2e5762000448565b8063766718081462000a7157806378daaf691462000a7b5780637b1039991462000acf5780637d6697521462000ad95762000448565b80632f745c5911620003515780634fd101d711620002d95780636352211e11620002a35780636352211e14620009e85780636cbb60501462000a085780637033e4a61462000a3457806370a082311462000a3e578063715018a61462000a675762000448565b80634fd101d7146200097b5780635508d8e1146200098557806356342d8c146200098f5780635c24885514620009af5762000448565b806342842e0e116200031b57806342842e0e14620008ef578063485f5b5d14620009285780634b341aed14620009325780634f6ccce7146200095b5762000448565b80632f745c5914620007dd57806335aa2e44146200080c5780633862da0b14620008a65780633d02455b14620008cf5762000448565b8063174e683211620003d557806326c0817e116200039f57806326c0817e14620006c757806328cc4e4114620006d15780632e17de7814620006ff5780632e9cac4c146200071f5762000448565b8063174e6832146200063b57806318160ddd146200066457806323b872dd146200066e5780632649263a14620006a75762000448565b8063095ea7b31162000417578063095ea7b314620005a55780630ebb172a14620005d6578063144fa6d714620005f257806316827b1b146200061b5762000448565b806301ffc9a7146200044d5780630209fdd0146200048b57806306fdde0314620004e7578063081812fc1462000569575b600080fd5b62000477600480360360208110156200046557600080fd5b50356001600160e01b03191662000e86565b604080519115158252519081900360200190f35b6200049562000ea9565b60408051602080825283518183015283519192839290830191858101910280838360005b83811015620004d3578181015183820152602001620004b9565b505050509050019250505060405180910390f35b620004f162000f61565b6040805160208082528351818301528351919283929083019185019080838360005b838110156200052d57818101518382015260200162000513565b50505050905090810190601f1680156200055b5780820380516001836020036101000a031916815260200191505b509250505060405180910390f35b62000589600480360360208110156200058157600080fd5b503562000ffb565b604080516001600160a01b039092168252519081900360200190f35b620005d460048036036040811015620005bd57600080fd5b506001600160a01b0381351690602001356200102e565b005b620005e0620010e2565b60408051918252519081900360200190f35b620005d4600480360360208110156200060a57600080fd5b50356001600160a01b0316620010e8565b620005d4600480360360208110156200063357600080fd5b503562001132565b620005e0600480360360208110156200065357600080fd5b50356001600160a01b031662001197565b620005e0620011ac565b620005d4600480360360608110156200068657600080fd5b506001600160a01b03813581169160208101359091169060400135620011b2565b6200047760048036036020811015620006bf57600080fd5b5035620011da565b620005e062001299565b620005d460048036036060811015620006e957600080fd5b508035906020810135906040013515156200129f565b620005d4600480360360208110156200071757600080fd5b50356200150e565b620005d4600480360360608110156200073757600080fd5b813591908101906040810160208201356401000000008111156200075a57600080fd5b8201836020820111156200076d57600080fd5b803590602001918460018302840111640100000000831117156200079057600080fd5b91908080601f016020809104026020016040519081016040528093929190818152602001838380828437600092019190915250929550505090356001600160a01b03169150620011d59050565b620005e060048036036040811015620007f557600080fd5b506001600160a01b038135169060200135620016d8565b6200082c600480360360208110156200082457600080fd5b503562001729565b60405180898152602001888152602001878152602001868152602001858152602001846001600160a01b03166001600160a01b03168152602001836001600160a01b03166001600160a01b031681526020018260028111156200088b57fe5b60ff1681526020019850505050505050505060405180910390f35b620005e060048036036020811015620008be57600080fd5b50356001600160a01b03166200177f565b620005d460048036036020811015620008e757600080fd5b503562001791565b620005d4600480360360608110156200090757600080fd5b506001600160a01b0381358116916020810135909116906040013562001948565b620005e062001965565b620005e0600480360360208110156200094a57600080fd5b50356001600160a01b03166200196b565b620005e0600480360360208110156200097357600080fd5b5035620019c3565b620005e0620019fb565b620005e062001a01565b6200058960048036036020811015620009a757600080fd5b503562001a07565b620009cf60048036036020811015620009c757600080fd5b503562001a25565b6040805192835260208301919091528051918290030190f35b620005896004803603602081101562000a0057600080fd5b503562001a3e565b620005d46004803603606081101562000a2057600080fd5b508035906020810135906040013562001a61565b6200047762001c71565b620005e06004803603602081101562000a5657600080fd5b50356001600160a01b031662001c76565b620005d462001caf565b620005e062001d0d565b62000a9b6004803603602081101562000a9357600080fd5b503562001d13565b604080519586526020860194909452848401929092526001600160a01b031660608401526080830152519081900360a00190f35b6200058962001d78565b620005e062001d87565b620005d46004803603606081101562000afb57600080fd5b508035906001600160a01b036020820135169060400135151562001d8d565b620005e062001d9b565b620005e062001db3565b6200058962001db9565b620005d46004803603604081101562000b5057600080fd5b50803590602001356001600160a01b031662001dc8565b6200047762001ec0565b620004f162001ed1565b6200058962001f35565b620005d46004803603602081101562000b9d57600080fd5b503562001f44565b620005d46004803603604081101562000bbd57600080fd5b506001600160a01b038135169060200135151562001f5d565b620005e062001fe2565b620005e062001ff7565b620005d462001ffd565b620005d46004803603606081101562000c0c57600080fd5b508035906020810135906040013562002023565b620005e062002121565b620005d46004803603608081101562000c4257600080fd5b6001600160a01b0382358116926020810135909116916040820135919081019060808101606082013564010000000081111562000c7e57600080fd5b82018360208201111562000c9157600080fd5b8035906020019184600183028401116401000000008311171562000cb457600080fd5b91908080601f01602080910402602001604051908101604052809392919081815260200183838082843760009201919091525092955062002127945050505050565b620005d46004803603608081101562000d0e57600080fd5b506001600160a01b0381358116916020810135916040820135169060600135151562002152565b620004f16004803603602081101562000d4d57600080fd5b503562002516565b620005d46004803603602081101562000d6d57600080fd5b5035620025d0565b6200047762002635565b620005d46004803603604081101562000d9757600080fd5b508035906020013562002645565b620005d46004803603602081101562000dbd57600080fd5b50356200279c565b620005e062002944565b620005d46004803603602081101562000de757600080fd5b50356200294a565b620005d46004803603602081101562000e0757600080fd5b50356001600160a01b0316620029e1565b620004776004803603604081101562000e3057600080fd5b506001600160a01b038135811691602001351662002a65565b620005d46004803603602081101562000e6157600080fd5b50356001600160a01b031662002a93565b620005d462002ab5565b6200058962002ae1565b6001600160e01b0319811660009081526020819052604090205460ff165b919050565b60608060165460405190808252806020026020018201604052801562000ed9578160200160208202803883390190505b509050600080805b62000eeb620011ac565b816bffffffffffffffffffffffff16101562000f575762000f1a816bffffffffffffffffffffffff16620019c3565b925062000f2783620011da565b1562000f4e578284838060010194508151811062000f4157fe5b6020026020010181815250505b60010162000ee1565b5091925050505b90565b60098054604080516020601f600260001961010060018816150201909516949094049384018190048102820181019092528281526060939092909183018282801562000ff15780601f1062000fc55761010080835404028352916020019162000ff1565b820191906000526020600020905b81548152906001019060200180831162000fd357829003601f168201915b5050505050905090565b6000620010088262002af0565b6200101257600080fd5b506000908152600260205260409020546001600160a01b031690565b60006200103b8262001a3e565b9050806001600160a01b0316836001600160a01b031614156200105d57600080fd5b336001600160a01b03821614806200107c57506200107c813362002a65565b6200108657600080fd5b60008281526002602052604080822080546001600160a01b0319166001600160a01b0387811691821790925591518593918516917f8c5be1e5ebec7d5bd14f71427d1e84f3dd0314c0f7b2291e5b200ac8c7c3b92591a4505050565b600c5481565b620010f262001ec0565b620010fc57600080fd5b6001600160a01b0381166200111057600080fd5b600f80546001600160a01b0319166001600160a01b0392909216919091179055565b6200113c62001ec0565b6200114657600080fd5b600081116200115457600080fd5b60165460408051838152602081019290925280517f5d16a900896e1160c2033bc940e6b072d3dc3b6a996fefb9b3b9b9678841824c9281900390910190a1601655565b6000620011a6826000620016d8565b92915050565b60075490565b620011be338262002b0d565b620011c857600080fd5b620011d583838362002b74565b505050565b6000818152601c6020526040812054158015906200122757506000828152601c6020526040902060020154158015906200122757506019546000838152601c602052604090206002015411155b80156200126057506000828152601c602052604090206003015415806200126057506019546000838152601c6020526040902060030154115b8015620011a6575060016000838152601c6020526040902060060154600160a01b900460ff1660028111156200129257fe5b1492915050565b60135481565b8233620012ac8262001a3e565b6001600160a01b031614620012c057600080fd5b6019546000858152601c6020526040902060030154106200132b5760408051600160e51b62461bcd02815260206004820152601360248201527f4e6f20757365206f662072657374616b696e6700000000000000000000000000604482015290519081900360640190fd5b82156200141357600f5460408051600160e01b6323b872dd0281523360048201523060248201526044810186905290516001600160a01b03909216916323b872dd916064808201926020929091908290030181600087803b1580156200139057600080fd5b505af1158015620013a5573d6000803e3d6000fd5b505050506040513d6020811015620013bc57600080fd5b5051620014135760408051600160e51b62461bcd02815260206004820152600e60248201527f5472616e73666572207374616b65000000000000000000000000000000000000604482015290519081900360640190fd5b811562001436576000848152601c60205260408120600101805491905592909201915b6018546200144b908463ffffffff62002b9916565b6018556000848152601c602081815260408084208054880181556019548552601d83529084208054880190559287905252546200148f818563ffffffff62002bb316565b60405186907f35af9eea1f0e7b300b0a14fae90139a072470e44daa3f14b5069bebbc1265bda90600090a46000848152601c602090815260409182902054601854835191825291810191909152815186927f9cc0e589f20d3310eb2ad571b23529003bd46048d0d1af29277dcf0aa3c398ce928290030190a250505050565b80336200151b8262001a3e565b6001600160a01b0316146200152f57600080fd5b6000828152601c6020526040902060020154158015906200155f57506000828152601c6020526040902060030154155b801562001593575060016000838152601c6020526040902060060154600160a01b900460ff1660028111156200159157fe5b145b6200159d57600080fd5b6000828152601c6020526040812054601554601954919291620015c69163ffffffff62002b9916565b6000858152601c602052604081206003810183905560060154919250906001600160a01b03161562001683576000858152601c60209081526040808320600601548151600160e21b63327093330281526004810187905291516001600160a01b039091169363c9c24ccc93602480850194919392918390030190829087803b1580156200165257600080fd5b505af115801562001667573d6000803e3d6000fd5b505050506040513d60208110156200167e57600080fd5b505190505b620016978282850160000360001962002bc9565b6040805183815290518491879133917f51ff6d8ad000896362d1a3c9de9ad835adb6da92ec3ddee44018ef64f3c8b561919081900360200190a45050505050565b6000620016e58362001c76565b8210620016f157600080fd5b6001600160a01b03831660009081526005602052604090208054839081106200171657fe5b9060005260206000200154905092915050565b601c602052600090815260409020805460018201546002830154600384015460048501546005860154600690960154949593949293919290916001600160a01b039081169190811690600160a01b900460ff1688565b601b6020526000908152604090205481565b80336200179e8262001a3e565b6001600160a01b031614620017b257600080fd5b6019546000838152601c6020526040902060030154118015620017e857506019546000838152601c602052604090206004015411155b80156200181c575060026000838152601c6020526040902060060154600160a01b900460ff1660028111156200181a57fe5b145b6200182657600080fd5b6000828152601c60205260409020546013548110156200184557600080fd5b6000838152601c6020526040812060038101546006909101549091906001600160a01b03161562001901576000858152601c60209081526040808320600601548151600160e21b633f5cc2470281526004810187905291516001600160a01b039091169363fd73091c93602480850194919392918390030190829087803b158015620018d057600080fd5b505af1158015620018e5573d6000803e3d6000fd5b505050506040513d6020811015620018fc57600080fd5b505190505b6200191182828501600162002bc9565b505050600091825250601c6020526040812060038101829055600681018054600160a01b60ff021916600160a01b17905560040155565b620011d58383836040518060200160405280600081525062002127565b60115481565b60006001600160a01b03821615806200198c57506200198a8262001c76565b155b156200199b5750600062000ea4565b601c6000620019ac846000620016d8565b815260208101919091526040016000205492915050565b6000620019cf620011ac565b8210620019db57600080fd5b60078281548110620019e957fe5b90600052602060002001549050919050565b60165481565b601a5481565b6000908152601c60205260409020600601546001600160a01b031690565b601d602052600090815260409020805460019091015482565b6000818152600160205260408120546001600160a01b031680620011a657600080fd5b60105460408051600160e31b631ab01683028152905133926001600160a01b03169163d580b418916004808301926020929190829003018186803b15801562001aa957600080fd5b505afa15801562001abe573d6000803e3d6000fd5b505050506040513d602081101562001ad557600080fd5b50516001600160a01b03161462001aeb57600080fd5b6000838152601c60205260409020600601546001600160a01b03161562001b92576000838152601c6020526040808220600601546019548251600160e41b6306cbb6050281526004810187905260248101829052604481019190915291516001600160a01b0390911692636cbb6050926064808201939182900301818387803b15801562001b7857600080fd5b505af115801562001b8d573d6000803e3d6000fd5b505050505b6000838152601c602052604081205462001bc89060649062001bbb908663ffffffff62002beb16565b9063ffffffff62002c1616565b6000858152601c602052604090205490915062001bec908263ffffffff62002bb316565b6000858152601c60205260409020819055601354118062001c0d5750600082115b1562001c1f5762001c1f848362002645565b6000848152601c602052604090205462001c40818363ffffffff62002b9916565b60405186907f35af9eea1f0e7b300b0a14fae90139a072470e44daa3f14b5069bebbc1265bda90600090a450505050565b600090565b60006001600160a01b03821662001c8c57600080fd5b6001600160a01b0382166000908152600360205260409020620011a69062002c3a565b62001cb962001ec0565b62001cc357600080fd5b600d546040516000916001600160a01b0316907f8be0079c531659141344cd1fd0a4f28419497f9722a3daafe3b4186f6b6457e0908390a3600d80546001600160a01b0319169055565b60195481565b6000818152601c6020526040812080546002808301546003840154600585015460069095015486958695869586959194919391926001600160a01b031691600160a01b900460ff169081111562001d6657fe5b939a9299509097509550909350915050565b6010546001600160a01b031681565b60125481565b620011d53384848462002152565b6019546000908152601d602052604090206001015490565b60185481565b600d546001600160a01b031690565b813362001dd58262001a3e565b6001600160a01b03161462001de957600080fd5b6001600160a01b0382161580159062001e1857506001600160a01b0382166000908152601b6020526040902054155b62001e2257600080fd5b6000838152601c60205260408082206005015490516001600160a01b038086169392169186917f7dfd3bad1e3cac97d3b89ff06d78394523c4f08fdee4daa71a59160003240c899190a4506000828152601c6020818152604080842060050180546001600160a01b039081168652601b84528286208690559590951680855290842086905594909252905280546001600160a01b0319169091179055565b600d546001600160a01b0316331490565b600a8054604080516020601f600260001961010060018816150201909516949094049384018190048102820181019092528281526060939092909183018282801562000ff15780601f1062000fc55761010080835404028352916020019162000ff1565b600e546001600160a01b031681565b62001f4e62001ec0565b62001f5857600080fd5b601755565b6001600160a01b03821633141562001f7457600080fd5b3360008181526004602090815260408083206001600160a01b03871680855290835292819020805460ff1916861515908117909155815190815290519293927f17307eab39ab6107e8899845ad3d59bd9653f200f220920489ca2b5937696c31929181900390910190a35050565b6019546000908152601d602052604090205490565b60175481565b6200200762001ec0565b6200201157600080fd5b600e8054600160a01b60ff0219169055565b60105460408051600160e01b63253006b1028152905133926001600160a01b03169163253006b1916004808301926020929190829003018186803b1580156200206b57600080fd5b505afa15801562002080573d6000803e3d6000fd5b505050506040513d60208110156200209757600080fd5b50516001600160a01b031614620020ad57600080fd5b601954821015620021085760408051600160e51b62461bcd02815260206004820152601160248201527f43616e2774206368616e67652070617374000000000000000000000000000000604482015290519081900360640190fd5b6000918252601d60205260409091208054909101905550565b60145481565b62002134848484620011b2565b620021428484848462002c3e565b6200214c57600080fd5b50505050565b600e54600160a01b900460ff16156200216a57600080fd5b6016546200217762001d9b565b106200218257600080fd5b6200218d8462001c76565b15620021e35760408051600160e51b62461bcd02815260206004820181905260248201527f4f6e6c79206f6e652074696d65207374616b696e6720697320616c6c6f776564604482015290519081900360640190fd5b6013548311620021f257600080fd5b6001600160a01b0382166000908152601b6020526040902054156200221657600080fd5b600f5460408051600160e01b6323b872dd0281523360048201523060248201526044810186905290516001600160a01b03909216916323b872dd916064808201926020929091908290030181600087803b1580156200227457600080fd5b505af115801562002289573d6000803e3d6000fd5b505050506040513d6020811015620022a057600080fd5b5051620022f75760408051600160e51b62461bcd02815260206004820152601560248201527f5472616e73666572207374616b65206661696c65640000000000000000000000604482015290519081900360640190fd5b6018546200230c908463ffffffff62002b9916565b6018819055506040518061010001604052808481526020016000815260200160195481526020016000815260200160008152602001836001600160a01b03168152602001826200235e576000620023b1565b60105460405187916001600160a01b0316906200237b906200336e565b6001600160a01b03928316815291166020820152604080519182900301906000f080158015620023af573d6000803e3d6000fd5b505b6001600160a01b0316815260200160019052601a546000908152601c60209081526040918290208351815590830151600182015590820151600280830191909155606083015160038301556080830151600483015560a08301516005830180546001600160a01b039283166001600160a01b03199182161790915560c08501516006850180549190931691161780825560e085015192600160a01b60ff021990911690600160a01b9084908111156200246657fe5b02179055509050506200247c84601a5462002d81565b601a546001600160a01b0383166000908152601b6020526040902055601954620024a99084600162002bc9565b601954601a5460185460408051878152602081019290925280516001600160a01b038716927f9cfd25589d1eb8ad71e342a86a8524e83522e3936c0803048c08f6d9ad974f4092908290030190a4601a546200250d90600163ffffffff62002b9916565b601a5550505050565b6060620025238262002af0565b6200252d57600080fd5b6000828152600b602090815260409182902080548351601f600260001961010060018616150201909316929092049182018490048402810184019094528084529091830182828015620025c45780601f106200259857610100808354040283529160200191620025c4565b820191906000526020600020905b815481529060010190602001808311620025a657829003601f168201915b50505050509050919050565b620025da62001ec0565b620025e457600080fd5b60008111620025f257600080fd5b60125460408051838152602081019290925280517ff67f33e8589d3ea0356303c0f9a8e764873692159f777ff79e4fc523d389dfcd9281900390910190a1601255565b600e54600160a01b900460ff1681565b6000828152601c60205260408120546015546019549192916200266e9163ffffffff62002b9916565b6000858152601c602052604081206004810186905560060154919250906001600160a01b0316156200272b576000858152601c60209081526040808320600601548151600160e21b63327093330281526004810187905291516001600160a01b039091169363c9c24ccc93602480850194919392918390030190829087803b158015620026fa57600080fd5b505af11580156200270f573d6000803e3d6000fd5b505050506040513d60208110156200272657600080fd5b505190505b6200273f8282850160000360001962002bc9565b6000858152601c6020526040808220600381018590556006018054600160a01b60ff021916600160a11b17905551839187917fa1735a3843d9467dd849a217582720a8af66b9d034712e0b21b0f5ece80670cd9190a35050505050565b8033620027a98262001a3e565b6001600160a01b031614620027bd57600080fd5b6000828152601c602052604090206003015415801590620028055750601954600c546000848152601c6020526040902060030154620028029163ffffffff62002b9916565b11155b6200280f57600080fd5b6000828152601c602052604090205460185462002833908263ffffffff62002bb316565b601855620028418362002da8565b6000838152601c6020818152604080842060058101546001600160a01b039081168652601b8452828620869055600f548987529484526001909101548251600160e01b63a9059cbb0281523360048201529087016024820152915193169363a9059cbb93604480840194939192918390030190829087803b158015620028c657600080fd5b505af1158015620028db573d6000803e3d6000fd5b505050506040513d6020811015620028f257600080fd5b5051620028fe57600080fd5b6018546040805183815260208101929092528051859233927f204fccf0d92ed8d48f204adb39b2e81e92bad0dedb93f5716ca9478cfb57de0092918290030190a3505050565b60155481565b6200295462001ec0565b6200295e57600080fd5b600081116200296c57600080fd5b60115460408051838152602081019290925280517f9444bfcfa6aed72a15da73de1220dcc07d7864119c44abfec0037bbcacefda989281900390910190a16011819055620029c281600263ffffffff62002c1616565b601555601154620029db90600263ffffffff62002beb16565b600c5550565b620029eb62001ec0565b620029f557600080fd5b6001600160a01b03811662002a0957600080fd5b600e546040516001600160a01b038084169216907f211c9015fc81c0dbd45bd99f0f29fc1c143bfd53442d5ffd722bbbef7a887fe990600090a3600e80546001600160a01b0319166001600160a01b0392909216919091179055565b6001600160a01b03918216600090815260046020908152604080832093909416825291909152205460ff1690565b62002a9d62001ec0565b62002aa757600080fd5b62002ab28162002dbe565b50565b62002abf62001ec0565b62002ac957600080fd5b600e8054600160a01b60ff021916600160a01b179055565b600f546001600160a01b031681565b6000908152600160205260409020546001600160a01b0316151590565b60008062002b1b8362001a3e565b9050806001600160a01b0316846001600160a01b0316148062002b595750836001600160a01b031662002b4e8462000ffb565b6001600160a01b0316145b8062002b6c575062002b6c818562002a65565b949350505050565b62002b8183838362002e2e565b62002b8d838262002f18565b620011d5828262003014565b60008282018381101562002bac57600080fd5b9392505050565b60008282111562002bc357600080fd5b50900390565b6000928352601d60205260409092208054909101815560010180549091019055565b60008262002bfc57506000620011a6565b8282028284828162002c0a57fe5b041462002bac57600080fd5b600080821162002c2557600080fd5b600082848162002c3157fe5b04949350505050565b5490565b600062002c54846001600160a01b031662003052565b62002c625750600162002b6c565b604051600160e11b630a85bd0102815233600482018181526001600160a01b03888116602485015260448401879052608060648501908152865160848601528651600095928a169463150b7a029490938c938b938b939260a4019060208501908083838e5b8381101562002ce157818101518382015260200162002cc7565b50505050905090810190601f16801562002d0f5780820380516001836020036101000a031916815260200191505b5095505050505050602060405180830381600087803b15801562002d3257600080fd5b505af115801562002d47573d6000803e3d6000fd5b505050506040513d602081101562002d5e57600080fd5b50516001600160e01b031916600160e11b630a85bd010214915050949350505050565b62002d8d828262003058565b62002d99828262003014565b62002da481620030ff565b5050565b62002ab262002db78262001a3e565b8262003143565b6001600160a01b03811662002dd257600080fd5b600d546040516001600160a01b038084169216907f8be0079c531659141344cd1fd0a4f28419497f9722a3daafe3b4186f6b6457e090600090a3600d80546001600160a01b0319166001600160a01b0392909216919091179055565b826001600160a01b031662002e438262001a3e565b6001600160a01b03161462002e5757600080fd5b6001600160a01b03821662002e6b57600080fd5b62002e768162003190565b6001600160a01b038316600090815260036020526040902062002e9990620031cc565b6001600160a01b038216600090815260036020526040902062002ebc90620031e5565b60008181526001602052604080822080546001600160a01b0319166001600160a01b0386811691821790925591518493918716917fddf252ad1be2c89b69c2b068fc378daa952ba7f163c4a11628f55a4df523b3ef91a4505050565b6001600160a01b03821660009081526005602052604081205462002f4490600163ffffffff62002bb316565b60008381526006602052604090205490915080821462002fe2576001600160a01b038416600090815260056020526040812080548490811062002f8357fe5b906000526020600020015490508060056000876001600160a01b03166001600160a01b03168152602001908152602001600020838154811062002fc257fe5b600091825260208083209091019290925591825260069052604090208190555b6001600160a01b03841660009081526005602052604090208054906200300d9060001983016200337c565b5050505050565b6001600160a01b0390911660009081526005602081815260408084208054868652600684529185208290559282526001810183559183529091200155565b3b151590565b6001600160a01b0382166200306c57600080fd5b620030778162002af0565b156200308257600080fd5b600081815260016020908152604080832080546001600160a01b0319166001600160a01b038716908117909155835260039091529020620030c390620031e5565b60405181906001600160a01b038416906000907fddf252ad1be2c89b69c2b068fc378daa952ba7f163c4a11628f55a4df523b3ef908290a45050565b600780546000838152600860205260408120829055600182018355919091527fa66cc928b5edb82af9bd49922954155ab7b0942694bea4ce44661d9a8736c6880155565b6200314f8282620031ee565b6000818152600b6020526040902054600260001961010060018416150201909116041562002da4576000818152600b6020526040812062002da491620033a3565b6000818152600260205260409020546001600160a01b03161562002ab257600090815260026020526040902080546001600160a01b0319169055565b8054620031e190600163ffffffff62002bb316565b9055565b80546001019055565b620031fa828262003220565b62003206828262002f18565b60008181526006602052604081205562002da481620032cc565b816001600160a01b0316620032358262001a3e565b6001600160a01b0316146200324957600080fd5b620032548162003190565b6001600160a01b03821660009081526003602052604090206200327790620031cc565b60008181526001602052604080822080546001600160a01b0319169055518291906001600160a01b038516907fddf252ad1be2c89b69c2b068fc378daa952ba7f163c4a11628f55a4df523b3ef908390a45050565b600754600090620032e590600163ffffffff62002bb316565b600083815260086020526040812054600780549394509092849081106200330857fe5b9060005260206000200154905080600783815481106200332457fe5b60009182526020808320909101929092558281526008909152604090208290556007805490620033599060001983016200337c565b50505060009182525060086020526040812055565b610f8d806200340883390190565b815481835581811115620011d557600083815260209020620011d5918101908301620033e6565b50805460018160011615610100020316600290046000825580601f10620033cb575062002ab2565b601f01602090049060005260206000209081019062002ab291905b62000f5e91905b80821115620034035760008155600101620033ed565b509056fe608060405260006003819055600481905560055560078054600160a01b60ff02191674010000000000000000000000000000000000000000179055600a60095534801561004b57600080fd5b50604051604080610f8d8339810180604052604081101561006b57600080fd5b508051602090910151600080546001600160a01b03191633178082556040516001600160a01b039190911691907f8be0079c531659141344cd1fd0a4f28419497f9722a3daafe3b4186f6b6457e0908290a3600680546001600160a01b039384166001600160a01b03199182161790915560078054929093169116179055610e95806100f86000396000f3fe608060405234801561001057600080fd5b50600436106101425760003560e01c80638da5cb5b116100b8578063b37f25901161007c578063b37f2590146102d8578063c9c24ccc14610301578063cfe0a4531461031e578063e655842f1461034d578063f2fde38b14610355578063fd73091c1461037b57610142565b80638da5cb5b146102815780638f32d59b146102895780638f546b09146102a55780639ec5a894146102ad578063a32dd342146102b557610142565b80636b7491291161010a5780636b749129146101d55780636cbb60501461020a578063713f774314610233578063715018a61461023b5780637b103999146102435780638a2747201461024b57610142565b806319480af8146101475780633a5381b5146101725780635be612c7146101965780635d1e3616146101c5578063646033bc146101cd575b600080fd5b6101706004803603606081101561015d57600080fd5b5080359060208101359060400135610398565b005b61017a61052f565b604080516001600160a01b039092168252519081900360200190f35b6101b3600480360360208110156101ac57600080fd5b503561053e565b60408051918252519081900360200190f35b6101b361055c565b6101b3610562565b6101b3600480360360a08110156101eb57600080fd5b5080359060208101359060408101359060608101359060800135610568565b6101706004803603606081101561022057600080fd5b50803590602081013590604001356105d2565b6101b3610765565b61017061076c565b61017a6107c7565b6102686004803603602081101561026157600080fd5b50356107d6565b6040805192835260208301919091528051918290030190f35b61017a6107ef565b6102916107fe565b604080519115158252519081900360200190f35b6101b361080f565b6101b3610815565b6101b3600480360360408110156102cb57600080fd5b508035906020013561081b565b610170600480360360608110156102ee57600080fd5b508035906020810135906040013561083d565b6101b36004803603602081101561031757600080fd5b50356108c4565b6101706004803603608081101561033457600080fd5b5080359060208101359060408101359060600135610a88565b6101b3610bbb565b6101706004803603602081101561036b57600080fd5b50356001600160a01b0316610bc1565b6101b36004803603602081101561039157600080fd5b5035610bde565b60075460408051600160e01b63253006b1028152905133926001600160a01b03169163253006b1916004808301926020929190829003018186803b1580156103df57600080fd5b505afa1580156103f3573d6000803e3d6000fd5b505050506040513d602081101561040957600080fd5b50516001600160a01b03161461041e57600080fd5b600754600160a01b900460ff1661043457600080fd5b60008381526008602052604090206001015415806104de57506104c96104586107ef565b6001600160a01b0316630ebb172a6040518163ffffffff1660e01b815260040160206040518083038186803b15801561049057600080fd5b505afa1580156104a4573d6000803e3d6000fd5b505050506040513d60208110156104ba57600080fd5b5051829063ffffffff610d4a16565b60008481526008602052604090206001015411155b6104e757600080fd5b6002805460018082019092557f405787fa12a823e0f2b7631cc41b3ba8828b3321ca811111fa75cd3aa3bb5ace01849055600093845260086020526040909320558154019055565b6006546001600160a01b031681565b6002818154811061054b57fe5b600091825260209091200154905081565b60045481565b60095481565b60008083610574578293505b845b848110156105c7576000818152600a6020526040902054156105bf576000818152600a60205260409020600181015490546105ba919089029063ffffffff610d6416565b820191505b600101610576565b509695505050505050565b6105da6107fe565b6105e357600080fd5b60075460408051600160e01b63253006b102815290516000926001600160a01b03169163253006b1916004808301926020929190829003018186803b15801561062b57600080fd5b505afa15801561063f573d6000803e3d6000fd5b505050506040513d602081101561065557600080fd5b505190508282141561075f57606060028054806020026020016040519081016040528092919081815260200182805480156106af57602002820191906000526020600020905b81548152602001906001019080831161069b575b505060408051600160e01b63ce5d67d9028152602481018b9052600481019182528551604482015285519596506001600160a01b0388169563ce5d67d995508794508b93508291606401906020808701910280838360005b8381101561071f578181015183820152602001610707565b505050509050019350505050600060405180830381600087803b15801561074557600080fd5b505af1158015610759573d6000803e3d6000fd5b50505050505b50505050565b6002545b90565b6107746107fe565b61077d57600080fd5b600080546040516001600160a01b03909116907f8be0079c531659141344cd1fd0a4f28419497f9722a3daafe3b4186f6b6457e0908390a3600080546001600160a01b0319169055565b6007546001600160a01b031681565b600a602052600090815260409020805460019091015482565b6000546001600160a01b031690565b6000546001600160a01b0316331490565b60055481565b60035481565b6008602052816000526040600020816002811061083457fe5b01549150829050565b6108456107fe565b61084e57600080fd5b6000610876606461086a60095487610d8690919063ffffffff16565b9063ffffffff610d6416565b9050600154820182828603028161088957fe5b6004805492909104929092019081019091556003805491909403908101909355506000908152600a6020526040902090815560018054910155565b60006108ce6107fe565b6108d757600080fd5b60078054600160a01b60ff0219811690915560408051600160e01b63253006b102815290516000926001600160a01b03169163253006b1916004808301926020929190829003018186803b15801561092e57600080fd5b505afa158015610942573d6000803e3d6000fd5b505050506040513d602081101561095857600080fd5b505160028054604080516020838102820181019092528281529394506060939291908301828280156109a957602002820191906000526020600020905b815481526020019060010190808311610995575b5050600654604051600160e01b636a2aebd7028152602481018a90526001600160a01b039182166044820181905260606004830190815287516064840152875197985092891696636a2aebd796508895508b945090929182916084909101906020808801910280838360005b83811015610a2d578181015183820152602001610a15565b50505050905001945050505050602060405180830381600087803b158015610a5457600080fd5b505af1158015610a68573d6000803e3d6000fd5b505050506040513d6020811015610a7e57600080fd5b5051949350505050565b60075460408051600160e01b63253006b1028152905133926001600160a01b03169163253006b1916004808301926020929190829003018186803b158015610acf57600080fd5b505afa158015610ae3573d6000803e3d6000fd5b505050506040513d6020811015610af957600080fd5b50516001600160a01b031614610b0e57600080fd5b8360028481548110610b1c57fe5b906000526020600020015414610b3157600080fd5b6000848152600860205260409020819060010155600180548390039055600280546000198101908110610b6057fe5b906000526020600020015460028481548110610b7857fe5b600091825260209091200155600280546000198101908110610b9657fe5b60009182526020822001556002805490610bb4906000198301610e22565b5050505050565b60015481565b610bc96107fe565b610bd257600080fd5b610bdb81610db4565b50565b6000610be86107fe565b610bf157600080fd5b60078054600160a01b60ff021916600160a01b179081905560408051600160e01b63253006b102815290516000926001600160a01b03169163253006b1916004808301926020929190829003018186803b158015610c4e57600080fd5b505afa158015610c62573d6000803e3d6000fd5b505050506040513d6020811015610c7857600080fd5b50516002805460408051602083810282018101909252828152939450606093929190830182828015610cc957602002820191906000526020600020905b815481526020019060010190808311610cb5575b5050600654604051600160e01b63b0cd6001028152602481018a90526001600160a01b03918216604482018190526060600483019081528751606484015287519798509289169663b0cd600196508895508b945090929182916084909101906020878101910280838360008315610a2d578181015183820152602001610a15565b600082821115610d5957600080fd5b508082035b92915050565b6000808211610d7257600080fd5b6000828481610d7d57fe5b04949350505050565b600082610d9557506000610d5e565b82820282848281610da257fe5b0414610dad57600080fd5b9392505050565b6001600160a01b038116610dc757600080fd5b600080546040516001600160a01b03808516939216917f8be0079c531659141344cd1fd0a4f28419497f9722a3daafe3b4186f6b6457e091a3600080546001600160a01b0319166001600160a01b0392909216919091179055565b815481835581811115610e4657600083815260209020610e46918101908301610e4b565b505050565b61076991905b80821115610e655760008155600101610e51565b509056fea165627a7a723058209215440db692a308ff0cd33c048366bd9a4d9c63980f9f8b8e620653155d22070029a165627a7a72305820d76edc4492195e62f918452eaeba0108db424d09a31bec29b81413e067b691f60029",
  "source": "pragma solidity ^0.5.2;\n\nimport { StakeManager } from \"../staking/StakeManager.sol\";\n\n\ncontract StakeManagerTest is StakeManager {\n  modifier onlyRootChain() {\n    _;\n  }\n\n  constructor (address _registry, address _rootChain) StakeManager(_registry, _rootChain) public {\n  }\n\n  function checkSignatures(bytes32 voteHash, bytes memory sigs, address proposer) public onlyRootChain {\n    return;\n  }\n}\n",
  "sourcePath": "/Users/arpit/projects/contracts/contracts/test/StakeManagerTest.sol",
  "compiler": {
    "name": "solc",
    "version": "0.5.7+commit.6da8b019.Emscripten.clang"
  },
  "schemaVersion": "3.0.14",
  "updatedAt": "2019-11-13T10:42:44.755Z",
  "devdoc": {
    "methods": {
      "approve(address,uint256)": {
        "details": "Approves another address to transfer the given token ID The zero address indicates there is no approved address. There can only be one approved address per token at a given time. Can only be called by the token owner or an approved operator.",
        "params": {
          "to": "address to be approved for the given token ID",
          "tokenId": "uint256 ID of the token to be approved"
        }
      },
      "balanceOf(address)": {
        "details": "Gets the balance of the specified address",
        "params": {
          "owner": "address to query the balance of"
        },
        "return": "uint256 representing the amount owned by the passed address"
      },
      "changeRootChain(address)": {
        "details": "Allows the current owner to change root chain address.",
        "params": {
          "newRootChain": "The address to new rootchain."
        }
      },
      "getApproved(uint256)": {
        "details": "Gets the approved address for a token ID, or zero if no address set Reverts if the token ID does not exist.",
        "params": {
          "tokenId": "uint256 ID of the token to query the approval of"
        },
        "return": "address currently approved for the given token ID"
      },
      "isApprovedForAll(address,address)": {
        "details": "Tells whether an operator is approved by a given owner",
        "params": {
          "operator": "operator address which you want to query the approval of",
          "owner": "owner address which you want to query the approval of"
        },
        "return": "bool whether the given operator is approved by the given owner"
      },
      "isOwner()": {
        "return": "true if `msg.sender` is the owner of the contract."
      },
      "name()": {
        "details": "Gets the token name",
        "return": "string representing the token name"
      },
      "owner()": {
        "return": "the address of the owner."
      },
      "ownerOf(uint256)": {
        "details": "Gets the owner of the specified token ID",
        "params": {
          "tokenId": "uint256 ID of the token to query the owner of"
        },
        "return": "address currently marked as the owner of the given token ID"
      },
      "renounceOwnership()": {
        "details": "Allows the current owner to relinquish control of the contract. It will not be possible to call the functions with the `onlyOwner` modifier anymore."
      },
      "safeTransferFrom(address,address,uint256)": {
        "details": "Safely transfers the ownership of a given token ID to another address If the target address is a contract, it must implement `onERC721Received`, which is called upon a safe transfer, and return the magic value `bytes4(keccak256(\"onERC721Received(address,address,uint256,bytes)\"))`; otherwise, the transfer is reverted. Requires the msg.sender to be the owner, approved, or operator",
        "params": {
          "from": "current owner of the token",
          "to": "address to receive the ownership of the given token ID",
          "tokenId": "uint256 ID of the token to be transferred"
        }
      },
      "safeTransferFrom(address,address,uint256,bytes)": {
        "details": "Safely transfers the ownership of a given token ID to another address If the target address is a contract, it must implement `onERC721Received`, which is called upon a safe transfer, and return the magic value `bytes4(keccak256(\"onERC721Received(address,address,uint256,bytes)\"))`; otherwise, the transfer is reverted. Requires the msg.sender to be the owner, approved, or operator",
        "params": {
          "_data": "bytes data to send along with a safe transfer check",
          "from": "current owner of the token",
          "to": "address to receive the ownership of the given token ID",
          "tokenId": "uint256 ID of the token to be transferred"
        }
      },
      "setApprovalForAll(address,bool)": {
        "details": "Sets or unsets the approval of a given operator An operator is allowed to transfer all tokens of the sender on their behalf",
        "params": {
          "approved": "representing the status of the approval to be set",
          "to": "operator address to set the approval"
        }
      },
      "supportsInterface(bytes4)": {
        "details": "implement supportsInterface(bytes4) using a lookup table"
      },
      "symbol()": {
        "details": "Gets the token symbol",
        "return": "string representing the token symbol"
      },
      "tokenByIndex(uint256)": {
        "details": "Gets the token ID at a given index of all the tokens in this contract Reverts if the index is greater or equal to the total number of tokens",
        "params": {
          "index": "uint256 representing the index to be accessed of the tokens list"
        },
        "return": "uint256 token ID at the given index of the tokens list"
      },
      "tokenOfOwnerByIndex(address,uint256)": {
        "details": "Gets the token ID at a given index of the tokens list of the requested owner",
        "params": {
          "index": "uint256 representing the index to be accessed of the requested tokens list",
          "owner": "address owning the tokens list to be accessed"
        },
        "return": "uint256 token ID at the given index of the tokens list owned by the requested address"
      },
      "tokenURI(uint256)": {
        "details": "Returns an URI for a given token ID Throws if the token ID does not exist. May return an empty string.",
        "params": {
          "tokenId": "uint256 ID of the token to query"
        }
      },
      "totalSupply()": {
        "details": "Gets the total amount of tokens stored by the contract",
        "return": "uint256 representing the total amount of tokens"
      },
      "transferFrom(address,address,uint256)": {
        "details": "Transfers the ownership of a given token ID to another address Usage of this method is discouraged, use `safeTransferFrom` whenever possible Requires the msg.sender to be the owner, approved, or operator",
        "params": {
          "from": "current owner of the token",
          "to": "address to receive the ownership of the given token ID",
          "tokenId": "uint256 ID of the token to be transferred"
        }
      },
      "transferOwnership(address)": {
        "details": "Allows the current owner to transfer control of the contract to a newOwner.",
        "params": {
          "newOwner": "The address to transfer ownership to."
        }
      }
    }
  },
  "userdoc": {
    "methods": {
      "renounceOwnership()": {
        "notice": "Renouncing ownership will leave the contract without an owner, thereby removing any functionality that is only available to the owner."
      }
    }
  }
}