{
  "contractName": "StakeManagerMock",
  "abi": [
    {
      "constant": true,
      "inputs": [
        {
          "name": "interfaceId",
          "type": "bytes4"
        }
      ],
      "name": "supportsInterface",
      "outputs": [
        {
          "name": "",
          "type": "bool"
        }
      ],
      "payable": false,
      "stateMutability": "view",
      "type": "function"
    },
    {
      "constant": true,
      "inputs": [],
      "name": "getCurrentValidatorSet",
      "outputs": [
        {
          "name": "",
          "type": "uint256[]"
        }
      ],
      "payable": false,
      "stateMutability": "view",
      "type": "function"
    },
    {
      "constant": true,
      "inputs": [],
      "name": "name",
      "outputs": [
        {
          "name": "",
          "type": "string"
        }
      ],
      "payable": false,
      "stateMutability": "view",
      "type": "function"
    },
    {
      "constant": true,
      "inputs": [
        {
          "name": "tokenId",
          "type": "uint256"
        }
      ],
      "name": "getApproved",
      "outputs": [
        {
          "name": "",
          "type": "address"
        }
      ],
      "payable": false,
      "stateMutability": "view",
      "type": "function"
    },
    {
      "constant": false,
      "inputs": [
        {
          "name": "to",
          "type": "address"
        },
        {
          "name": "tokenId",
          "type": "uint256"
        }
      ],
      "name": "approve",
      "outputs": [],
      "payable": false,
      "stateMutability": "nonpayable",
      "type": "function"
    },
    {
      "constant": true,
      "inputs": [],
      "name": "WITHDRAWAL_DELAY",
      "outputs": [
        {
          "name": "",
          "type": "uint256"
        }
      ],
      "payable": false,
      "stateMutability": "view",
      "type": "function"
    },
    {
      "constant": false,
      "inputs": [
        {
          "name": "_token",
          "type": "address"
        }
      ],
      "name": "setToken",
      "outputs": [],
      "payable": false,
      "stateMutability": "nonpayable",
      "type": "function"
    },
    {
      "constant": false,
      "inputs": [
        {
          "name": "newThreshold",
          "type": "uint256"
        }
      ],
      "name": "updateValidatorThreshold",
      "outputs": [],
      "payable": false,
      "stateMutability": "nonpayable",
      "type": "function"
    },
    {
      "constant": true,
      "inputs": [
        {
          "name": "user",
          "type": "address"
        }
      ],
      "name": "getValidatorId",
      "outputs": [
        {
          "name": "",
          "type": "uint256"
        }
      ],
      "payable": false,
      "stateMutability": "view",
      "type": "function"
    },
    {
      "constant": true,
      "inputs": [],
      "name": "totalSupply",
      "outputs": [
        {
          "name": "",
          "type": "uint256"
        }
      ],
      "payable": false,
      "stateMutability": "view",
      "type": "function"
    },
    {
      "constant": false,
      "inputs": [
        {
          "name": "from",
          "type": "address"
        },
        {
          "name": "to",
          "type": "address"
        },
        {
          "name": "tokenId",
          "type": "uint256"
        }
      ],
      "name": "transferFrom",
      "outputs": [],
      "payable": false,
      "stateMutability": "nonpayable",
      "type": "function"
    },
    {
      "constant": true,
      "inputs": [
        {
          "name": "validatorId",
          "type": "uint256"
        }
      ],
      "name": "isValidator",
      "outputs": [
        {
          "name": "",
          "type": "bool"
        }
      ],
      "payable": false,
      "stateMutability": "view",
      "type": "function"
    },
    {
      "constant": true,
      "inputs": [],
      "name": "MIN_DEPOSIT_SIZE",
      "outputs": [
        {
          "name": "",
          "type": "uint256"
        }
      ],
      "payable": false,
      "stateMutability": "view",
      "type": "function"
    },
    {
      "constant": false,
      "inputs": [
        {
          "name": "validatorId",
          "type": "uint256"
        }
      ],
      "name": "unstake",
      "outputs": [],
      "payable": false,
      "stateMutability": "nonpayable",
      "type": "function"
    },
    {
      "constant": true,
      "inputs": [
        {
          "name": "owner",
          "type": "address"
        },
        {
          "name": "index",
          "type": "uint256"
        }
      ],
      "name": "tokenOfOwnerByIndex",
      "outputs": [
        {
          "name": "",
          "type": "uint256"
        }
      ],
      "payable": false,
      "stateMutability": "view",
      "type": "function"
    },
    {
      "constant": true,
      "inputs": [
        {
          "name": "",
          "type": "uint256"
        }
      ],
      "name": "validators",
      "outputs": [
        {
          "name": "epoch",
          "type": "uint256"
        },
        {
          "name": "amount",
          "type": "uint256"
        },
        {
          "name": "reward",
          "type": "uint256"
        },
        {
          "name": "activationEpoch",
          "type": "uint256"
        },
        {
          "name": "deactivationEpoch",
          "type": "uint256"
        },
        {
          "name": "signer",
          "type": "address"
        }
      ],
      "payable": false,
      "stateMutability": "view",
      "type": "function"
    },
    {
      "constant": false,
      "inputs": [],
      "name": "finalizeCommit",
      "outputs": [],
      "payable": false,
      "stateMutability": "nonpayable",
      "type": "function"
    },
    {
      "constant": true,
      "inputs": [
        {
          "name": "",
          "type": "address"
        }
      ],
      "name": "signerToValidator",
      "outputs": [
        {
          "name": "",
          "type": "uint256"
        }
      ],
      "payable": false,
      "stateMutability": "view",
      "type": "function"
    },
    {
      "constant": false,
      "inputs": [
        {
          "name": "from",
          "type": "address"
        },
        {
          "name": "to",
          "type": "address"
        },
        {
          "name": "tokenId",
          "type": "uint256"
        }
      ],
      "name": "safeTransferFrom",
      "outputs": [],
      "payable": false,
      "stateMutability": "nonpayable",
      "type": "function"
    },
    {
      "constant": true,
      "inputs": [],
      "name": "DYNASTY",
      "outputs": [
        {
          "name": "",
          "type": "uint256"
        }
      ],
      "payable": false,
      "stateMutability": "view",
      "type": "function"
    },
    {
      "constant": true,
      "inputs": [
        {
          "name": "user",
          "type": "address"
        }
      ],
      "name": "totalStakedFor",
      "outputs": [
        {
          "name": "",
          "type": "uint256"
        }
      ],
      "payable": false,
      "stateMutability": "view",
      "type": "function"
    },
    {
      "constant": true,
      "inputs": [
        {
          "name": "index",
          "type": "uint256"
        }
      ],
      "name": "tokenByIndex",
      "outputs": [
        {
          "name": "",
          "type": "uint256"
        }
      ],
      "payable": false,
      "stateMutability": "view",
      "type": "function"
    },
    {
      "constant": true,
      "inputs": [],
      "name": "validatorThreshold",
      "outputs": [
        {
          "name": "",
          "type": "uint256"
        }
      ],
      "payable": false,
      "stateMutability": "view",
      "type": "function"
    },
    {
      "constant": true,
      "inputs": [],
      "name": "NFTCounter",
      "outputs": [
        {
          "name": "",
          "type": "uint256"
        }
      ],
      "payable": false,
      "stateMutability": "view",
      "type": "function"
    },
    {
      "constant": true,
      "inputs": [
        {
          "name": "",
          "type": "uint256"
        }
      ],
      "name": "validatorState",
      "outputs": [
        {
          "name": "amount",
          "type": "int256"
        },
        {
          "name": "stakerCount",
          "type": "int256"
        }
      ],
      "payable": false,
      "stateMutability": "view",
      "type": "function"
    },
    {
      "constant": true,
      "inputs": [
        {
          "name": "tokenId",
          "type": "uint256"
        }
      ],
      "name": "ownerOf",
      "outputs": [
        {
          "name": "",
          "type": "address"
        }
      ],
      "payable": false,
      "stateMutability": "view",
      "type": "function"
    },
    {
      "constant": true,
      "inputs": [],
      "name": "supportsHistory",
      "outputs": [
        {
          "name": "",
          "type": "bool"
        }
      ],
      "payable": false,
      "stateMutability": "pure",
      "type": "function"
    },
    {
      "constant": true,
      "inputs": [
        {
          "name": "owner",
          "type": "address"
        }
      ],
      "name": "balanceOf",
      "outputs": [
        {
          "name": "",
          "type": "uint256"
        }
      ],
      "payable": false,
      "stateMutability": "view",
      "type": "function"
    },
    {
      "constant": false,
      "inputs": [],
      "name": "renounceOwnership",
      "outputs": [],
      "payable": false,
      "stateMutability": "nonpayable",
      "type": "function"
    },
    {
      "constant": true,
      "inputs": [],
      "name": "currentEpoch",
      "outputs": [
        {
          "name": "",
          "type": "uint256"
        }
      ],
      "payable": false,
      "stateMutability": "view",
      "type": "function"
    },
    {
      "constant": true,
      "inputs": [
        {
          "name": "validatorId",
          "type": "uint256"
        }
      ],
      "name": "getStakerDetails",
      "outputs": [
        {
          "name": "",
          "type": "uint256"
        },
        {
          "name": "",
          "type": "uint256"
        },
        {
          "name": "",
          "type": "uint256"
        },
        {
          "name": "",
          "type": "address"
        }
      ],
      "payable": false,
      "stateMutability": "view",
      "type": "function"
    },
    {
      "constant": false,
      "inputs": [
        {
          "name": "amount",
          "type": "uint256"
        },
        {
          "name": "signer",
          "type": "address"
        }
      ],
      "name": "stake",
      "outputs": [],
      "payable": false,
      "stateMutability": "nonpayable",
      "type": "function"
    },
    {
      "constant": true,
      "inputs": [],
      "name": "currentValidatorSetSize",
      "outputs": [
        {
          "name": "",
          "type": "uint256"
        }
      ],
      "payable": false,
      "stateMutability": "view",
      "type": "function"
    },
    {
      "constant": true,
      "inputs": [],
      "name": "totalStaked",
      "outputs": [
        {
          "name": "",
          "type": "uint256"
        }
      ],
      "payable": false,
      "stateMutability": "view",
      "type": "function"
    },
    {
      "constant": true,
      "inputs": [],
      "name": "owner",
      "outputs": [
        {
          "name": "",
          "type": "address"
        }
      ],
      "payable": false,
      "stateMutability": "view",
      "type": "function"
    },
    {
      "constant": false,
      "inputs": [
        {
          "name": "validatorId",
          "type": "uint256"
        },
        {
          "name": "_signer",
          "type": "address"
        }
      ],
      "name": "updateSigner",
      "outputs": [],
      "payable": false,
      "stateMutability": "nonpayable",
      "type": "function"
    },
    {
      "constant": true,
      "inputs": [],
      "name": "isOwner",
      "outputs": [
        {
          "name": "",
          "type": "bool"
        }
      ],
      "payable": false,
      "stateMutability": "view",
      "type": "function"
    },
    {
      "constant": true,
      "inputs": [],
      "name": "symbol",
      "outputs": [
        {
          "name": "",
          "type": "string"
        }
      ],
      "payable": false,
      "stateMutability": "view",
      "type": "function"
    },
    {
      "constant": true,
      "inputs": [],
      "name": "rootChain",
      "outputs": [
        {
          "name": "",
          "type": "address"
        }
      ],
      "payable": false,
      "stateMutability": "view",
      "type": "function"
    },
    {
      "constant": false,
      "inputs": [
        {
          "name": "epochs",
          "type": "uint256"
        }
      ],
      "name": "updateMinLockInPeriod",
      "outputs": [],
      "payable": false,
      "stateMutability": "nonpayable",
      "type": "function"
    },
    {
      "constant": false,
      "inputs": [
        {
          "name": "user",
          "type": "address"
        },
        {
          "name": "amount",
          "type": "uint256"
        },
        {
          "name": "signer",
          "type": "address"
        }
      ],
      "name": "stakeFor",
      "outputs": [],
      "payable": false,
      "stateMutability": "nonpayable",
      "type": "function"
    },
    {
      "constant": false,
      "inputs": [
        {
          "name": "to",
          "type": "address"
        },
        {
          "name": "approved",
          "type": "bool"
        }
      ],
      "name": "setApprovalForAll",
      "outputs": [],
      "payable": false,
      "stateMutability": "nonpayable",
      "type": "function"
    },
    {
      "constant": true,
      "inputs": [],
      "name": "currentValidatorSetTotalStake",
      "outputs": [
        {
          "name": "",
          "type": "uint256"
        }
      ],
      "payable": false,
      "stateMutability": "view",
      "type": "function"
    },
    {
      "constant": true,
      "inputs": [],
      "name": "minLockInPeriod",
      "outputs": [
        {
          "name": "",
          "type": "uint256"
        }
      ],
      "payable": false,
      "stateMutability": "view",
      "type": "function"
    },
    {
      "constant": false,
      "inputs": [],
      "name": "unlock",
      "outputs": [],
      "payable": false,
      "stateMutability": "nonpayable",
      "type": "function"
    },
    {
      "constant": true,
      "inputs": [],
      "name": "EPOCH_LENGTH",
      "outputs": [
        {
          "name": "",
          "type": "uint256"
        }
      ],
      "payable": false,
      "stateMutability": "view",
      "type": "function"
    },
    {
      "constant": false,
      "inputs": [
        {
          "name": "from",
          "type": "address"
        },
        {
          "name": "to",
          "type": "address"
        },
        {
          "name": "tokenId",
          "type": "uint256"
        },
        {
          "name": "_data",
          "type": "bytes"
        }
      ],
      "name": "safeTransferFrom",
      "outputs": [],
      "payable": false,
      "stateMutability": "nonpayable",
      "type": "function"
    },
    {
      "constant": true,
      "inputs": [
        {
          "name": "tokenId",
          "type": "uint256"
        }
      ],
      "name": "tokenURI",
      "outputs": [
        {
          "name": "",
          "type": "string"
        }
      ],
      "payable": false,
      "stateMutability": "view",
      "type": "function"
    },
    {
      "constant": true,
      "inputs": [],
      "name": "locked",
      "outputs": [
        {
          "name": "",
          "type": "bool"
        }
      ],
      "payable": false,
      "stateMutability": "view",
      "type": "function"
    },
    {
      "constant": false,
      "inputs": [
        {
          "name": "validatorId",
          "type": "uint256"
        }
      ],
      "name": "unstakeClaim",
      "outputs": [],
      "payable": false,
      "stateMutability": "nonpayable",
      "type": "function"
    },
    {
      "constant": true,
      "inputs": [],
      "name": "UNSTAKE_DELAY",
      "outputs": [
        {
          "name": "",
          "type": "uint256"
        }
      ],
      "payable": false,
      "stateMutability": "view",
      "type": "function"
    },
    {
      "constant": false,
      "inputs": [
        {
          "name": "newRootChain",
          "type": "address"
        }
      ],
      "name": "changeRootChain",
      "outputs": [],
      "payable": false,
      "stateMutability": "nonpayable",
      "type": "function"
    },
    {
      "constant": true,
      "inputs": [
        {
          "name": "owner",
          "type": "address"
        },
        {
          "name": "operator",
          "type": "address"
        }
      ],
      "name": "isApprovedForAll",
      "outputs": [
        {
          "name": "",
          "type": "bool"
        }
      ],
      "payable": false,
      "stateMutability": "view",
      "type": "function"
    },
    {
      "constant": true,
      "inputs": [
        {
          "name": "voteHash",
          "type": "bytes32"
        },
        {
          "name": "sigs",
          "type": "bytes"
        }
      ],
      "name": "checkSignatures",
      "outputs": [
        {
          "name": "",
          "type": "bool"
        }
      ],
      "payable": false,
      "stateMutability": "view",
      "type": "function"
    },
    {
      "constant": false,
      "inputs": [
        {
          "name": "newOwner",
          "type": "address"
        }
      ],
      "name": "transferOwnership",
      "outputs": [],
      "payable": false,
      "stateMutability": "nonpayable",
      "type": "function"
    },
    {
      "constant": false,
      "inputs": [],
      "name": "lock",
      "outputs": [],
      "payable": false,
      "stateMutability": "nonpayable",
      "type": "function"
    },
    {
      "constant": true,
      "inputs": [],
      "name": "token",
      "outputs": [
        {
          "name": "",
          "type": "address"
        }
      ],
      "payable": false,
      "stateMutability": "view",
      "type": "function"
    },
    {
      "anonymous": false,
      "inputs": [
        {
          "indexed": false,
          "name": "newThreshold",
          "type": "uint256"
        },
        {
          "indexed": false,
          "name": "oldThreshold",
          "type": "uint256"
        }
      ],
      "name": "ThresholdChange",
      "type": "event"
    },
    {
      "anonymous": false,
      "inputs": [
        {
          "indexed": false,
          "name": "newDynasty",
          "type": "uint256"
        },
        {
          "indexed": false,
          "name": "oldDynasty",
          "type": "uint256"
        }
      ],
      "name": "DynastyValueChange",
      "type": "event"
    },
    {
      "anonymous": false,
      "inputs": [
        {
          "indexed": true,
          "name": "validatorId",
          "type": "uint256"
        },
        {
          "indexed": true,
          "name": "user",
          "type": "address"
        },
        {
          "indexed": true,
          "name": "amount",
          "type": "uint256"
        },
        {
          "indexed": false,
          "name": "deactivationEpoch",
          "type": "uint256"
        }
      ],
      "name": "UnstakeInit",
      "type": "event"
    },
    {
      "anonymous": false,
      "inputs": [
        {
          "indexed": true,
          "name": "validatorId",
          "type": "uint256"
        },
        {
          "indexed": true,
          "name": "oldSigner",
          "type": "address"
        },
        {
          "indexed": true,
          "name": "newSigner",
          "type": "address"
        }
      ],
      "name": "SignerChange",
      "type": "event"
    },
    {
      "anonymous": false,
      "inputs": [
        {
          "indexed": true,
          "name": "previousRootChain",
          "type": "address"
        },
        {
          "indexed": true,
          "name": "newRootChain",
          "type": "address"
        }
      ],
      "name": "RootChainChanged",
      "type": "event"
    },
    {
      "anonymous": false,
      "inputs": [
        {
          "indexed": true,
          "name": "previousOwner",
          "type": "address"
        },
        {
          "indexed": true,
          "name": "newOwner",
          "type": "address"
        }
      ],
      "name": "OwnershipTransferred",
      "type": "event"
    },
    {
      "anonymous": false,
      "inputs": [
        {
          "indexed": true,
          "name": "user",
          "type": "address"
        },
        {
          "indexed": true,
          "name": "validatorId",
          "type": "uint256"
        },
        {
          "indexed": true,
          "name": "activatonEpoch",
          "type": "uint256"
        },
        {
          "indexed": false,
          "name": "amount",
          "type": "uint256"
        },
        {
          "indexed": false,
          "name": "total",
          "type": "uint256"
        }
      ],
      "name": "Staked",
      "type": "event"
    },
    {
      "anonymous": false,
      "inputs": [
        {
          "indexed": true,
          "name": "user",
          "type": "address"
        },
        {
          "indexed": true,
          "name": "validatorId",
          "type": "uint256"
        },
        {
          "indexed": false,
          "name": "amount",
          "type": "uint256"
        },
        {
          "indexed": false,
          "name": "total",
          "type": "uint256"
        }
      ],
      "name": "Unstaked",
      "type": "event"
    },
    {
      "anonymous": false,
      "inputs": [
        {
          "indexed": true,
          "name": "from",
          "type": "address"
        },
        {
          "indexed": true,
          "name": "to",
          "type": "address"
        },
        {
          "indexed": true,
          "name": "tokenId",
          "type": "uint256"
        }
      ],
      "name": "Transfer",
      "type": "event"
    },
    {
      "anonymous": false,
      "inputs": [
        {
          "indexed": true,
          "name": "owner",
          "type": "address"
        },
        {
          "indexed": true,
          "name": "approved",
          "type": "address"
        },
        {
          "indexed": true,
          "name": "tokenId",
          "type": "uint256"
        }
      ],
      "name": "Approval",
      "type": "event"
    },
    {
      "anonymous": false,
      "inputs": [
        {
          "indexed": true,
          "name": "owner",
          "type": "address"
        },
        {
          "indexed": true,
          "name": "operator",
          "type": "address"
        },
        {
          "indexed": false,
          "name": "approved",
          "type": "bool"
        }
      ],
      "name": "ApprovalForAll",
      "type": "event"
    },
    {
      "constant": false,
      "inputs": [
        {
          "name": "newDynasty",
          "type": "uint256"
        }
      ],
      "name": "updateDynastyValue",
      "outputs": [],
      "payable": false,
      "stateMutability": "nonpayable",
      "type": "function"
    }
  ],
  "bytecode": "0x6080604052612000600f819055670de0b6b3a764000060105561010060115562000039906002640100000000620023a46200023f82021704565b601255600f546200005a906002640100000000620024476200026982021704565b601355600a60145560026015556000601655600160175560016018556040805190810160405280600f81526020017f4d617469632056616c696461746f7200000000000000000000000000000000008152506040805190810160405280600281526020017f4d560000000000000000000000000000000000000000000000000000000000008152508181620001216301ffc9a77c010000000000000000000000000000000000000000000000000000000002620002a2640100000000026401000000009004565b620001557f80ac58cd00000000000000000000000000000000000000000000000000000000640100000000620002a2810204565b620001897f780e9d6300000000000000000000000000000000000000000000000000000000640100000000620002a2810204565b81516200019e9060099060208501906200030f565b508051620001b490600a9060208401906200030f565b50620001e97f5b5e139f00000000000000000000000000000000000000000000000000000000640100000000620002a2810204565b5050600c8054600160a060020a031916331790819055604051600160a060020a03919091169250600091507f8be0079c531659141344cd1fd0a4f28419497f9722a3daafe3b4186f6b6457e0908290a3620003b4565b6000808083116200024f57600080fd5b82848115156200025b57fe5b0490508091505b5092915050565b6000808315156200027e576000915062000262565b508282028284828115156200028f57fe5b04146200029b57600080fd5b9392505050565b7fffffffff000000000000000000000000000000000000000000000000000000008082161415620002d257600080fd5b7fffffffff00000000000000000000000000000000000000000000000000000000166000908152602081905260409020805460ff19166001179055565b828054600181600116156101000203166002900490600052602060002090601f016020900481019282601f106200035257805160ff191683800117855562000382565b8280016001018555821562000382579182015b828111156200038257825182559160200191906001019062000365565b506200039092915062000394565b5090565b620003b191905b808211156200039057600081556001016200039b565b90565b61280f80620003c46000396000f3006080604052600436106102b35763ffffffff7c010000000000000000000000000000000000000000000000000000000060003504166301ffc9a781146102b85780630209fdd01461030357806306fdde0314610368578063081812fc146103f2578063095ea7b3146104265780630ebb172a1461044c578063144fa6d71461047357806316827b1b14610494578063174e6832146104ac57806318160ddd146104cd57806323b872dd146104e25780632649263a1461050c57806326c0817e146105245780632e17de78146105395780632f745c591461055157806335aa2e441461057557806335dda498146105c95780633862da0b146105de57806342842e0e146105ff578063485f5b5d146106295780634b341aed1461063e5780634f6ccce71461065f5780634fd101d7146106775780635508d8e11461068c5780635c248855146106a15780636352211e146106d25780637033e4a6146106ea57806370a08231146106ff578063715018a614610720578063766718081461073557806378daaf691461074a5780637acb7757146107915780637f952d95146107b5578063817b1cd2146107ca5780638da5cb5b146107df5780638f283a86146107f45780638f32d59b1461081857806395d89b411461082d578063987ab9db1461084257806398ee773b146108575780639b8f04b71461086f578063a22cb4651461089a578063a4769071146108c0578063a548c547146108d5578063a69df4b5146108ea578063ac4746ab146108ff578063b88d4fde14610914578063c87b56dd14610983578063cf3090121461099b578063d86d53e7146109b0578063e35e5d84146109c8578063e6692f49146109dd578063e8afa8e8146109f5578063e985e9c514610a16578063ed516d5114610a3d578063f2fde38b14610a9b578063f83d08ba14610abc578063fc0c546a14610ad1575b600080fd5b3480156102c457600080fd5b506102ef7bffffffffffffffffffffffffffffffffffffffffffffffffffffffff1960043516610ae6565b604080519115158252519081900360200190f35b34801561030f57600080fd5b50610318610b1e565b60408051602080825283518183015283519192839290830191858101910280838360005b8381101561035457818101518382015260200161033c565b505050509050019250505060405180910390f35b34801561037457600080fd5b5061037d610bd2565b6040805160208082528351818301528351919283929083019185019080838360005b838110156103b757818101518382015260200161039f565b50505050905090810190601f1680156103e45780820380516001836020036101000a031916815260200191505b509250505060405180910390f35b3480156103fe57600080fd5b5061040a600435610c69565b60408051600160a060020a039092168252519081900360200190f35b34801561043257600080fd5b5061044a600160a060020a0360043516602435610c9b565b005b34801561045857600080fd5b50610461610d44565b60408051918252519081900360200190f35b34801561047f57600080fd5b5061044a600160a060020a0360043516610d4a565b3480156104a057600080fd5b5061044a600435610d94565b3480156104b857600080fd5b50610461600160a060020a0360043516610df7565b3480156104d957600080fd5b50610461610e0a565b3480156104ee57600080fd5b5061044a600160a060020a0360043581169060243516604435610e10565b34801561051857600080fd5b506102ef600435610e9e565b34801561053057600080fd5b50610461610f27565b34801561054557600080fd5b5061044a600435610f2d565b34801561055d57600080fd5b50610461600160a060020a0360043516602435611025565b34801561058157600080fd5b5061058d600435611072565b6040805196875260208701959095528585019390935260608501919091526080840152600160a060020a031660a0830152519081900360c00190f35b3480156105d557600080fd5b5061044a6110b0565b3480156105ea57600080fd5b50610461600160a060020a036004351661110e565b34801561060b57600080fd5b5061044a600160a060020a0360043581169060243516604435611120565b34801561063557600080fd5b50610461611141565b34801561064a57600080fd5b50610461600160a060020a0360043516611147565b34801561066b57600080fd5b5061046160043561119a565b34801561068357600080fd5b506104616111cf565b34801561069857600080fd5b506104616111d5565b3480156106ad57600080fd5b506106b96004356111db565b6040805192835260208301919091528051918290030190f35b3480156106de57600080fd5b5061040a6004356111f4565b3480156106f657600080fd5b506102ef611218565b34801561070b57600080fd5b50610461600160a060020a036004351661121d565b34801561072c57600080fd5b5061044a611250565b34801561074157600080fd5b506104616112ad565b34801561075657600080fd5b506107626004356112b3565b60408051948552602085019390935283830191909152600160a060020a03166060830152519081900360800190f35b34801561079d57600080fd5b5061044a600435600160a060020a03602435166112e7565b3480156107c157600080fd5b506104616112f6565b3480156107d657600080fd5b5061046161130e565b3480156107eb57600080fd5b5061040a611314565b34801561080057600080fd5b5061044a600435600160a060020a0360243516611323565b34801561082457600080fd5b506102ef611418565b34801561083957600080fd5b5061037d611429565b34801561084e57600080fd5b5061040a61148a565b34801561086357600080fd5b5061044a600435611499565b34801561087b57600080fd5b5061044a600160a060020a0360043581169060243590604435166114b1565b3480156108a657600080fd5b5061044a600160a060020a03600435166024351515611801565b3480156108cc57600080fd5b50610461611885565b3480156108e157600080fd5b5061046161189a565b3480156108f657600080fd5b5061044a6118a0565b34801561090b57600080fd5b506104616118d3565b34801561092057600080fd5b50604080516020601f60643560048181013592830184900484028501840190955281845261044a94600160a060020a0381358116956024803590921695604435953695608494019181908401838280828437509497506118d99650505050505050565b34801561098f57600080fd5b5061037d600435611901565b3480156109a757600080fd5b506102ef6119b6565b3480156109bc57600080fd5b5061044a6004356119d7565b3480156109d457600080fd5b50610461611b75565b3480156109e957600080fd5b5061044a600435611b7b565b348015610a0157600080fd5b5061044a600160a060020a0360043516611bfa565b348015610a2257600080fd5b506102ef600160a060020a0360043581169060243516611c7e565b348015610a4957600080fd5b5060408051602060046024803582810135601f81018590048502860185019096528585526102ef958335953695604494919390910191908190840183828082843750949750611cac9650505050505050565b348015610aa757600080fd5b5061044a600160a060020a0360043516611eb3565b348015610ac857600080fd5b5061044a611ed2565b348015610add57600080fd5b5061040a611f1c565b7bffffffffffffffffffffffffffffffffffffffffffffffffffffffff19811660009081526020819052604090205460ff165b919050565b6060806000806000601454604051908082528060200260200182016040528015610b52578160200160208202803883390190505b50935060009150600090505b610b66610e0a565b816bffffffffffffffffffffffff161015610bc957610b92816bffffffffffffffffffffffff1661119a565b9250610b9d83610e9e565b15610bc1578351600183019284918691908110610bb657fe5b602090810290910101525b600101610b5e565b50919392505050565b60098054604080516020601f6002600019610100600188161502019095169490940493840181900481028201810190925282815260609390929091830182828015610c5e5780601f10610c3357610100808354040283529160200191610c5e565b820191906000526020600020905b815481529060010190602001808311610c4157829003601f168201915b505050505090505b90565b6000610c7482611f2b565b1515610c7f57600080fd5b50600090815260026020526040902054600160a060020a031690565b6000610ca6826111f4565b9050600160a060020a038381169082161415610cc157600080fd5b33600160a060020a0382161480610cdd5750610cdd8133611c7e565b1515610ce857600080fd5b6000828152600260205260408082208054600160a060020a031916600160a060020a0387811691821790925591518593918516917f8c5be1e5ebec7d5bd14f71427d1e84f3dd0314c0f7b2291e5b200ac8c7c3b92591a4505050565b60125481565b610d52611418565b1515610d5d57600080fd5b600160a060020a0381161515610d7257600080fd5b600e8054600160a060020a031916600160a060020a0392909216919091179055565b610d9c611418565b1515610da757600080fd5b60008111610db457600080fd5b60145460408051838152602081019290925280517f5d16a900896e1160c2033bc940e6b072d3dc3b6a996fefb9b3b9b9678841824c9281900390910190a1601455565b6000610e04826000611025565b92915050565b60075490565b610e1a3382611f48565b1515610e2557600080fd5b600160a060020a0382161515610e3a57600080fd5b610e448382611fa9565b610e4e838261200b565b610e588282612112565b8082600160a060020a031684600160a060020a03167fddf252ad1be2c89b69c2b068fc378daa952ba7f163c4a11628f55a4df523b3ef60405160405180910390a4505050565b6000818152601a602052604081206001015481108015610eec57506000828152601a602052604090206003015415801590610eec57506017546000838152601a602052604090206003015411155b8015610e0457506000828152601a60205260409020600401541580610e045750506017546000918252601a6020526040909120600401541190565b60105481565b6000808233610f3b826111f4565b600160a060020a031614610f4e57600080fd5b6000848152601a6020526040812060030154118015610f7c57506000848152601a6020526040902060040154155b1515610f8757600080fd5b6000848152601a6020526040902060010154601354601754919450610fb2919063ffffffff61215b16565b6000858152601a60209081526040808320600401849055838352601b825291829020805487900381556001018054600019019055815183815291519294508592339288927fa279613f0232ccbb11d60294ebc6318618f532ab3e9aeac28503595c467d068092918290030190a450505050565b60006110308361121d565b821061103b57600080fd5b600160a060020a038316600090815260056020526040902080548390811061105f57fe5b9060005260206000200154905092915050565b601a602052600090815260409020805460018201546002830154600384015460048501546005909501549394929391929091600160a060020a031686565b6017546000906110c790600163ffffffff61215b16565b6000818152601b6020526040808220805460178054855283852054909101825560019182018054825486528486208401540190558054845291832083815501919091555550565b60196020526000908152604090205481565b61113c83838360206040519081016040528060008152506118d9565b505050565b600f5481565b6000600160a060020a038216158061116557506111638261121d565b155b1561117257506000610b19565b601a6000611181846000611025565b8152602001908152602001600020600101549050919050565b60006111a4610e0a565b82106111af57600080fd5b60078054839081106111bd57fe5b90600052602060002001549050919050565b60145481565b60185481565b601b602052600090815260409020805460019091015482565b600081815260016020526040812054600160a060020a0316801515610e0457600080fd5b600090565b6000600160a060020a038216151561123457600080fd5b50600160a060020a031660009081526003602052604090205490565b611258611418565b151561126357600080fd5b600c54604051600091600160a060020a0316907f8be0079c531659141344cd1fd0a4f28419497f9722a3daafe3b4186f6b6457e0908390a3600c8054600160a060020a0319169055565b60175481565b6000908152601a602052604090206001810154600382015460048301546005909301549193909291600160a060020a031690565b6112f23383836114b1565b5050565b6017546000908152601b602052604090206001015490565b60165481565b600c54600160a060020a031690565b813361132e826111f4565b600160a060020a03161461134157600080fd5b600160a060020a0382161580159061136f5750600160a060020a038216600090815260196020526040902054155b151561137a57600080fd5b6000838152601a6020526040808220600501549051600160a060020a038086169392169186917f7dfd3bad1e3cac97d3b89ff06d78394523c4f08fdee4daa71a59160003240c899190a4506000828152601a602081815260408084206005018054600160a060020a03908116865260198452828620869055959095168085529084208690559490925290528054600160a060020a0319169091179055565b600c54600160a060020a0316331490565b600a8054604080516020601f6002600019610100600188161502019095169490940493840181900481028201810190925282815260609390929091830182828015610c5e5780601f10610c3357610100808354040283529160200191610c5e565b600d54600160a060020a031681565b6114a1611418565b15156114ac57600080fd5b601555565b600d5474010000000000000000000000000000000000000000900460ff16156114d957600080fd5b6014546114e46112f6565b106114ee57600080fd5b6114f78361121d565b1561156357604080517f08c379a000000000000000000000000000000000000000000000000000000000815260206004820152601660248201527f4e6f207365636f6e642074696d65207374616b696e6700000000000000000000604482015290519081900360640190fd5b60105482101561157257600080fd5b600160a060020a0381166000908152601960205260409020541561159557600080fd5b600e54604080517f23b872dd000000000000000000000000000000000000000000000000000000008152336004820152306024820152604481018590529051600160a060020a03909216916323b872dd916064808201926020929091908290030181600087803b15801561160857600080fd5b505af115801561161c573d6000803e3d6000fd5b505050506040513d602081101561163257600080fd5b505115156116a157604080517f08c379a000000000000000000000000000000000000000000000000000000000815260206004820152600e60248201527f5472616e73666572207374616b65000000000000000000000000000000000000604482015290519081900360640190fd5b6016546116b4908363ffffffff61215b16565b6016556040805160c081018252601754808252602080830186815260008486018181526060860194855260808601828152600160a060020a0389811660a08901908152601880548652601a90975298909320965187559251600187015551600286015592516003850155516004840155925160059092018054600160a060020a031916929091169190911790555461174d908490612174565b60188054600160a060020a03808416600090815260196020908152604080832094909455601780548352601b82528483208054890190555482528382206001908101805490910190559354808252601a85529083902060030154601654845188815295860152835190949193928816927f9cfd25589d1eb8ad71e342a86a8524e83522e3936c0803048c08f6d9ad974f40928290030190a46018546117f990600163ffffffff61215b16565b601855505050565b600160a060020a03821633141561181757600080fd5b336000818152600460209081526040808320600160a060020a03871680855290835292819020805460ff1916861515908117909155815190815290519293927f17307eab39ab6107e8899845ad3d59bd9653f200f220920489ca2b5937696c31929181900390910190a35050565b6017546000908152601b602052604090205490565b60155481565b6118a8611418565b15156118b357600080fd5b600d805474ff000000000000000000000000000000000000000019169055565b60115481565b6118e4848484610e10565b6118f0848484846121c3565b15156118fb57600080fd5b50505050565b606061190c82611f2b565b151561191757600080fd5b6000828152600b602090815260409182902080548351601f6002600019610100600186161502019093169290920491820184900484028101840190945280845290918301828280156119aa5780601f1061197f576101008083540402835291602001916119aa565b820191906000526020600020905b81548152906001019060200180831161198d57829003601f168201915b50505050509050919050565b600d5474010000000000000000000000000000000000000000900460ff1681565b600081336119e4826111f4565b600160a060020a0316146119f757600080fd5b6017546012546000858152601a6020526040902060040154611a1e9163ffffffff61215b16565b1115611a2957600080fd5b6000838152601a6020526040902060010154601654909250611a51908363ffffffff61234516565b601655611a5e338461235c565b6000838152601a602081815260408084206005810154600160a060020a03908116865260198452828620869055600e5489875294845260029091015482517fa9059cbb0000000000000000000000000000000000000000000000000000000081523360048201529088016024820152915193169363a9059cbb93604480840194939192918390030190829087803b158015611af857600080fd5b505af1158015611b0c573d6000803e3d6000fd5b505050506040513d6020811015611b2257600080fd5b50511515611b2f57600080fd5b6016546040805184815260208101929092528051859233927f204fccf0d92ed8d48f204adb39b2e81e92bad0dedb93f5716ca9478cfb57de0092918290030190a3505050565b60135481565b611b83611418565b1515611b8e57600080fd5b60008111611b9b57600080fd5b600f5460408051838152602081019290925280517f9444bfcfa6aed72a15da73de1220dcc07d7864119c44abfec0037bbcacefda989281900390910190a1600f819055611bef81600263ffffffff6123a416565b601355506000601255565b611c02611418565b1515611c0d57600080fd5b600160a060020a0381161515611c2257600080fd5b600d54604051600160a060020a038084169216907f211c9015fc81c0dbd45bd99f0f29fc1c143bfd53442d5ffd722bbbef7a887fe990600090a3600d8054600160a060020a031916600160a060020a0392909216919091179055565b600160a060020a03918216600090815260046020908152604080832093909416825291909152205460ff1690565b6000808080806060815b87518367ffffffffffffffff161015611e6857611cdf888467ffffffffffffffff1660416123c7565b604080517f77d32e94000000000000000000000000000000000000000000000000000000008152600481018c81526024820192835283516044830152835193955073__ECVerify______________________________936377d32e94938e93889392606490910190602085019080838360005b83811015611d6a578181015183820152602001611d52565b50505050905090810190601f168015611d975780820380516001836020036101000a031916815260200191505b50935050505060206040518083038186803b158015611db557600080fd5b505af4158015611dc9573d6000803e3d6000fd5b505050506040513d6020811015611ddf57600080fd5b5051600160a060020a03811660009081526019602052604090205495509050611e0785610e9e565b8015611e24575083600160a060020a031681600160a060020a0316115b15611e58576000858152601a60205260409020600101549093508390611e5190879063ffffffff61215b16565b9550611e5d565b611e68565b604183019250611cb6565b611ea36001611e976003611e8b6002611e7f611885565b9063ffffffff61244716565b9063ffffffff6123a416565b9063ffffffff61215b16565b9095101598975050505050505050565b611ebb611418565b1515611ec657600080fd5b611ecf81612475565b50565b611eda611418565b1515611ee557600080fd5b600d805474ff0000000000000000000000000000000000000000191674010000000000000000000000000000000000000000179055565b600e54600160a060020a031681565b600090815260016020526040902054600160a060020a0316151590565b600080611f54836111f4565b905080600160a060020a031684600160a060020a03161480611f8f575083600160a060020a0316611f8484610c69565b600160a060020a0316145b80611f9f5750611f9f8185611c7e565b91505b5092915050565b81600160a060020a0316611fbc826111f4565b600160a060020a031614611fcf57600080fd5b600081815260026020526040902054600160a060020a0316156112f25760009081526002602052604090208054600160a060020a031916905550565b600080600061201a85856124e6565b600084815260066020908152604080832054600160a060020a038916845260059092529091205490935061205590600163ffffffff61234516565b600160a060020a03861660009081526005602052604090208054919350908390811061207d57fe5b90600052602060002001549050806005600087600160a060020a0316600160a060020a03168152602001908152602001600020848154811015156120bd57fe5b6000918252602080832090910192909255600160a060020a03871681526005909152604090208054906120f4906000198301612761565b50600093845260066020526040808520859055908452909220555050565b600061211e838361256f565b50600160a060020a039091166000908152600560209081526040808320805460018101825590845282842081018590559383526006909152902055565b60008282018381101561216d57600080fd5b9392505050565b61217e82826125f2565b600780546000838152600860205260408120829055600182018355919091527fa66cc928b5edb82af9bd49922954155ab7b0942694bea4ce44661d9a8736c688015550565b6000806121d885600160a060020a031661264d565b15156121e7576001915061233c565b6040517f150b7a020000000000000000000000000000000000000000000000000000000081523360048201818152600160a060020a03898116602485015260448401889052608060648501908152875160848601528751918a169463150b7a0294938c938b938b93909160a490910190602085019080838360005b8381101561227a578181015183820152602001612262565b50505050905090810190601f1680156122a75780820380516001836020036101000a031916815260200191505b5095505050505050602060405180830381600087803b1580156122c957600080fd5b505af11580156122dd573d6000803e3d6000fd5b505050506040513d60208110156122f357600080fd5b50517bffffffffffffffffffffffffffffffffffffffffffffffffffffffff1981167f150b7a020000000000000000000000000000000000000000000000000000000014925090505b50949350505050565b6000808383111561235557600080fd5b5050900390565b6123668282612655565b6000818152600b602052604090205460026000196101006001841615020190911604156112f2576000818152600b602052604081206112f291612785565b6000808083116123b357600080fd5b82848115156123be57fe5b04949350505050565b6060808284018551101515156123dc57600080fd5b821580156123f55760405191506020820160405261233c565b6040519150601f8416801560200281840101858101878315602002848b0101015b8183101561242e578051835260209283019201612416565b5050858452601f01601f19166040525050949350505050565b60008083151561245a5760009150611fa2565b5082820282848281151561246a57fe5b041461216d57600080fd5b600160a060020a038116151561248a57600080fd5b600c54604051600160a060020a038084169216907f8be0079c531659141344cd1fd0a4f28419497f9722a3daafe3b4186f6b6457e090600090a3600c8054600160a060020a031916600160a060020a0392909216919091179055565b81600160a060020a03166124f9826111f4565b600160a060020a03161461250c57600080fd5b600160a060020a03821660009081526003602052604090205461253690600163ffffffff61234516565b600160a060020a039092166000908152600360209081526040808320949094559181526001909152208054600160a060020a0319169055565b600081815260016020526040902054600160a060020a03161561259157600080fd5b60008181526001602081815260408084208054600160a060020a031916600160a060020a03881690811790915584526003909152909120546125d29161215b565b600160a060020a0390921660009081526003602052604090209190915550565b600160a060020a038216151561260757600080fd5b6126118282612112565b6040518190600160a060020a038416906000907fddf252ad1be2c89b69c2b068fc378daa952ba7f163c4a11628f55a4df523b3ef908290a45050565b6000903b1190565b60008060006126648585612711565b60008481526008602052604090205460075490935061268a90600163ffffffff61234516565b915060078281548110151561269b57fe5b90600052602060002001549050806007848154811015156126b857fe5b600091825260208220019190915560078054849081106126d457fe5b60009182526020909120015560078054906126f3906000198301612761565b50600093845260086020526040808520859055908452909220555050565b61271b8282611fa9565b612725828261200b565b6040518190600090600160a060020a038516907fddf252ad1be2c89b69c2b068fc378daa952ba7f163c4a11628f55a4df523b3ef908390a45050565b81548183558181111561113c5760008381526020902061113c9181019083016127c5565b50805460018160011615610100020316600290046000825580601f106127ab5750611ecf565b601f016020900490600052602060002090810190611ecf91905b610c6691905b808211156127df57600081556001016127cb565b50905600a165627a7a72305820e2083c03138e02b045eeca4d1f8e2d9dc9783b9e7b16dd8093c4c6ca6dee13fe0029",
  "source": "pragma solidity ^0.4.24;\n\nimport { StakeManager } from \"../root/StakeManager.sol\";\n\n\ncontract StakeManagerMock is StakeManager {\n\n  modifier onlyRootChain() {\n    _;\n  }\n\n  function updateDynastyValue(uint256 newDynasty) public onlyOwner {\n    require(newDynasty > 0);\n    emit DynastyValueChange(newDynasty, DYNASTY);\n    DYNASTY = newDynasty;\n    UNSTAKE_DELAY = DYNASTY.div(2);\n    WITHDRAWAL_DELAY = 0;\n  }\n\n}\n",
  "sourcePath": "/Users/atvanguard/matic/contracts/contracts/mocks/StakeManagerMock.sol",
  "compiler": {
    "name": "solc",
    "version": "0.4.24+commit.e67f0147.Emscripten.clang"
  },
  "schemaVersion": "2.0.1",
  "updatedAt": "2019-12-07T09:11:33.303Z"
}