{
  "contractName": "StakeManager",
  "abi": [
    {
      "constant": true,
      "inputs": [
        {
          "internalType": "bytes4",
          "name": "interfaceId",
          "type": "bytes4"
        }
      ],
      "name": "supportsInterface",
      "outputs": [
        {
          "internalType": "bool",
          "name": "",
          "type": "bool"
        }
      ],
      "payable": false,
      "stateMutability": "view",
      "type": "function"
    },
    {
      "constant": true,
      "inputs": [],
      "name": "name",
      "outputs": [
        {
          "internalType": "string",
          "name": "",
          "type": "string"
        }
      ],
      "payable": false,
      "stateMutability": "view",
      "type": "function"
    },
    {
      "constant": true,
      "inputs": [
        {
          "internalType": "uint256",
          "name": "tokenId",
          "type": "uint256"
        }
      ],
      "name": "getApproved",
      "outputs": [
        {
          "internalType": "address",
          "name": "",
          "type": "address"
        }
      ],
      "payable": false,
      "stateMutability": "view",
      "type": "function"
    },
    {
      "constant": false,
      "inputs": [
        {
          "internalType": "address",
          "name": "to",
          "type": "address"
        },
        {
          "internalType": "uint256",
          "name": "tokenId",
          "type": "uint256"
        }
      ],
      "name": "approve",
      "outputs": [],
      "payable": false,
      "stateMutability": "nonpayable",
      "type": "function"
    },
    {
      "constant": true,
      "inputs": [],
      "name": "auctionPeriod",
      "outputs": [
        {
          "internalType": "uint256",
          "name": "",
          "type": "uint256"
        }
      ],
      "payable": false,
      "stateMutability": "view",
      "type": "function"
    },
    {
      "constant": true,
      "inputs": [],
      "name": "totalRewards",
      "outputs": [
        {
          "internalType": "uint256",
          "name": "",
          "type": "uint256"
        }
      ],
      "payable": false,
      "stateMutability": "view",
      "type": "function"
    },
    {
      "constant": true,
      "inputs": [],
      "name": "WITHDRAWAL_DELAY",
      "outputs": [
        {
          "internalType": "uint256",
          "name": "",
          "type": "uint256"
        }
      ],
      "payable": false,
      "stateMutability": "view",
      "type": "function"
    },
    {
      "constant": true,
      "inputs": [],
      "name": "accountStateRoot",
      "outputs": [
        {
          "internalType": "bytes32",
          "name": "",
          "type": "bytes32"
        }
      ],
      "payable": false,
      "stateMutability": "view",
      "type": "function"
    },
    {
      "constant": true,
      "inputs": [],
      "name": "totalSupply",
      "outputs": [
        {
          "internalType": "uint256",
          "name": "",
          "type": "uint256"
        }
      ],
      "payable": false,
      "stateMutability": "view",
      "type": "function"
    },
    {
      "constant": true,
      "inputs": [],
      "name": "proposerToSignerRewards",
      "outputs": [
        {
          "internalType": "uint256",
          "name": "",
          "type": "uint256"
        }
      ],
      "payable": false,
      "stateMutability": "view",
      "type": "function"
    },
    {
      "constant": false,
      "inputs": [
        {
          "internalType": "address",
          "name": "from",
          "type": "address"
        },
        {
          "internalType": "address",
          "name": "to",
          "type": "address"
        },
        {
          "internalType": "uint256",
          "name": "tokenId",
          "type": "uint256"
        }
      ],
      "name": "transferFrom",
      "outputs": [],
      "payable": false,
      "stateMutability": "nonpayable",
      "type": "function"
    },
    {
      "constant": true,
      "inputs": [],
      "name": "checkPointBlockInterval",
      "outputs": [
        {
          "internalType": "uint256",
          "name": "",
          "type": "uint256"
        }
      ],
      "payable": false,
      "stateMutability": "view",
      "type": "function"
    },
    {
      "constant": true,
      "inputs": [],
      "name": "MIN_DEPOSIT_SIZE",
      "outputs": [
        {
          "internalType": "uint256",
          "name": "",
          "type": "uint256"
        }
      ],
      "payable": false,
      "stateMutability": "view",
      "type": "function"
    },
    {
      "constant": true,
      "inputs": [
        {
          "internalType": "address",
          "name": "owner",
          "type": "address"
        },
        {
          "internalType": "uint256",
          "name": "index",
          "type": "uint256"
        }
      ],
      "name": "tokenOfOwnerByIndex",
      "outputs": [
        {
          "internalType": "uint256",
          "name": "",
          "type": "uint256"
        }
      ],
      "payable": false,
      "stateMutability": "view",
      "type": "function"
    },
    {
      "constant": true,
      "inputs": [
        {
          "internalType": "uint256",
          "name": "",
          "type": "uint256"
        }
      ],
      "name": "validators",
      "outputs": [
        {
          "internalType": "uint256",
          "name": "amount",
          "type": "uint256"
        },
        {
          "internalType": "uint256",
          "name": "reward",
          "type": "uint256"
        },
        {
          "internalType": "uint256",
          "name": "claimedRewards",
          "type": "uint256"
        },
        {
          "internalType": "uint256",
          "name": "activationEpoch",
          "type": "uint256"
        },
        {
          "internalType": "uint256",
          "name": "deactivationEpoch",
          "type": "uint256"
        },
        {
          "internalType": "uint256",
          "name": "jailTime",
          "type": "uint256"
        },
        {
          "internalType": "address",
          "name": "signer",
          "type": "address"
        },
        {
          "internalType": "address",
          "name": "contractAddress",
          "type": "address"
        },
        {
          "internalType": "enum StakeManager.Status",
          "name": "status",
          "type": "uint8"
        }
      ],
      "payable": false,
      "stateMutability": "view",
      "type": "function"
    },
    {
      "constant": true,
      "inputs": [
        {
          "internalType": "address",
          "name": "",
          "type": "address"
        }
      ],
      "name": "signerToValidator",
      "outputs": [
        {
          "internalType": "uint256",
          "name": "",
          "type": "uint256"
        }
      ],
      "payable": false,
      "stateMutability": "view",
      "type": "function"
    },
    {
      "constant": false,
      "inputs": [
        {
          "internalType": "address",
          "name": "from",
          "type": "address"
        },
        {
          "internalType": "address",
          "name": "to",
          "type": "address"
        },
        {
          "internalType": "uint256",
          "name": "tokenId",
          "type": "uint256"
        }
      ],
      "name": "safeTransferFrom",
      "outputs": [],
      "payable": false,
      "stateMutability": "nonpayable",
      "type": "function"
    },
    {
      "constant": true,
      "inputs": [
        {
          "internalType": "uint256",
          "name": "index",
          "type": "uint256"
        }
      ],
      "name": "tokenByIndex",
      "outputs": [
        {
          "internalType": "uint256",
          "name": "",
          "type": "uint256"
        }
      ],
      "payable": false,
      "stateMutability": "view",
      "type": "function"
    },
    {
      "constant": true,
      "inputs": [],
      "name": "validatorThreshold",
      "outputs": [
        {
          "internalType": "uint256",
          "name": "",
          "type": "uint256"
        }
      ],
      "payable": false,
      "stateMutability": "view",
      "type": "function"
    },
    {
      "constant": true,
      "inputs": [
        {
          "internalType": "uint256",
          "name": "",
          "type": "uint256"
        }
      ],
      "name": "validatorAuction",
      "outputs": [
        {
          "internalType": "uint256",
          "name": "amount",
          "type": "uint256"
        },
        {
          "internalType": "uint256",
          "name": "startEpoch",
          "type": "uint256"
        },
        {
          "internalType": "address",
          "name": "user",
          "type": "address"
        }
      ],
      "payable": false,
      "stateMutability": "view",
      "type": "function"
    },
    {
      "constant": true,
      "inputs": [],
      "name": "NFTCounter",
      "outputs": [
        {
          "internalType": "uint256",
          "name": "",
          "type": "uint256"
        }
      ],
      "payable": false,
      "stateMutability": "view",
      "type": "function"
    },
    {
      "constant": true,
      "inputs": [
        {
          "internalType": "uint256",
          "name": "",
          "type": "uint256"
        }
      ],
      "name": "validatorState",
      "outputs": [
        {
          "internalType": "int256",
          "name": "amount",
          "type": "int256"
        },
        {
          "internalType": "int256",
          "name": "stakerCount",
          "type": "int256"
        }
      ],
      "payable": false,
      "stateMutability": "view",
      "type": "function"
    },
    {
      "constant": true,
      "inputs": [
        {
          "internalType": "uint256",
          "name": "tokenId",
          "type": "uint256"
        }
      ],
      "name": "ownerOf",
      "outputs": [
        {
          "internalType": "address",
          "name": "",
          "type": "address"
        }
      ],
      "payable": false,
      "stateMutability": "view",
      "type": "function"
    },
    {
      "constant": true,
      "inputs": [],
      "name": "dynasty",
      "outputs": [
        {
          "internalType": "uint256",
          "name": "",
          "type": "uint256"
        }
      ],
      "payable": false,
      "stateMutability": "view",
      "type": "function"
    },
    {
      "constant": true,
      "inputs": [
        {
          "internalType": "address",
          "name": "owner",
          "type": "address"
        }
      ],
      "name": "balanceOf",
      "outputs": [
        {
          "internalType": "uint256",
          "name": "",
          "type": "uint256"
        }
      ],
      "payable": false,
      "stateMutability": "view",
      "type": "function"
    },
    {
      "constant": false,
      "inputs": [],
      "name": "renounceOwnership",
      "outputs": [],
      "payable": false,
      "stateMutability": "nonpayable",
      "type": "function"
    },
    {
      "constant": true,
      "inputs": [],
      "name": "currentEpoch",
      "outputs": [
        {
          "internalType": "uint256",
          "name": "",
          "type": "uint256"
        }
      ],
      "payable": false,
      "stateMutability": "view",
      "type": "function"
    },
    {
      "constant": true,
      "inputs": [],
      "name": "registry",
      "outputs": [
        {
          "internalType": "address",
          "name": "",
          "type": "address"
        }
      ],
      "payable": false,
      "stateMutability": "view",
      "type": "function"
    },
    {
      "constant": true,
      "inputs": [],
      "name": "totalStaked",
      "outputs": [
        {
          "internalType": "uint256",
          "name": "",
          "type": "uint256"
        }
      ],
      "payable": false,
      "stateMutability": "view",
      "type": "function"
    },
    {
      "constant": true,
      "inputs": [],
      "name": "owner",
      "outputs": [
        {
          "internalType": "address",
          "name": "",
          "type": "address"
        }
      ],
      "payable": false,
      "stateMutability": "view",
      "type": "function"
    },
    {
      "constant": true,
      "inputs": [],
      "name": "isOwner",
      "outputs": [
        {
          "internalType": "bool",
          "name": "",
          "type": "bool"
        }
      ],
      "payable": false,
      "stateMutability": "view",
      "type": "function"
    },
    {
      "constant": true,
      "inputs": [],
      "name": "symbol",
      "outputs": [
        {
          "internalType": "string",
          "name": "",
          "type": "string"
        }
      ],
      "payable": false,
      "stateMutability": "view",
      "type": "function"
    },
    {
      "constant": true,
      "inputs": [],
      "name": "rootChain",
      "outputs": [
        {
          "internalType": "address",
          "name": "",
          "type": "address"
        }
      ],
      "payable": false,
      "stateMutability": "view",
      "type": "function"
    },
    {
      "constant": false,
      "inputs": [
        {
          "internalType": "address",
          "name": "to",
          "type": "address"
        },
        {
          "internalType": "bool",
          "name": "approved",
          "type": "bool"
        }
      ],
      "name": "setApprovalForAll",
      "outputs": [],
      "payable": false,
      "stateMutability": "nonpayable",
      "type": "function"
    },
    {
      "constant": true,
      "inputs": [],
      "name": "minLockInPeriod",
      "outputs": [
        {
          "internalType": "uint256",
          "name": "",
          "type": "uint256"
        }
      ],
      "payable": false,
      "stateMutability": "view",
      "type": "function"
    },
    {
      "constant": false,
      "inputs": [],
      "name": "unlock",
      "outputs": [],
      "payable": false,
      "stateMutability": "nonpayable",
      "type": "function"
    },
    {
      "constant": true,
      "inputs": [],
      "name": "EPOCH_LENGTH",
      "outputs": [
        {
          "internalType": "uint256",
          "name": "",
          "type": "uint256"
        }
      ],
      "payable": false,
      "stateMutability": "view",
      "type": "function"
    },
    {
      "constant": false,
      "inputs": [
        {
          "internalType": "address",
          "name": "from",
          "type": "address"
        },
        {
          "internalType": "address",
          "name": "to",
          "type": "address"
        },
        {
          "internalType": "uint256",
          "name": "tokenId",
          "type": "uint256"
        },
        {
          "internalType": "bytes",
          "name": "_data",
          "type": "bytes"
        }
      ],
      "name": "safeTransferFrom",
      "outputs": [],
      "payable": false,
      "stateMutability": "nonpayable",
      "type": "function"
    },
    {
      "constant": true,
      "inputs": [
        {
          "internalType": "uint256",
          "name": "tokenId",
          "type": "uint256"
        }
      ],
      "name": "tokenURI",
      "outputs": [
        {
          "internalType": "string",
          "name": "",
          "type": "string"
        }
      ],
      "payable": false,
      "stateMutability": "view",
      "type": "function"
    },
    {
      "constant": true,
      "inputs": [],
      "name": "totalRewardsLiquidated",
      "outputs": [
        {
          "internalType": "uint256",
          "name": "",
          "type": "uint256"
        }
      ],
      "payable": false,
      "stateMutability": "view",
      "type": "function"
    },
    {
      "constant": true,
      "inputs": [],
      "name": "locked",
      "outputs": [
        {
          "internalType": "bool",
          "name": "",
          "type": "bool"
        }
      ],
      "payable": false,
      "stateMutability": "view",
      "type": "function"
    },
    {
      "constant": true,
      "inputs": [],
      "name": "checkpointReward",
      "outputs": [
        {
          "internalType": "uint256",
          "name": "",
          "type": "uint256"
        }
      ],
      "payable": false,
      "stateMutability": "view",
      "type": "function"
    },
    {
      "constant": true,
      "inputs": [],
      "name": "UNSTAKE_DELAY",
      "outputs": [
        {
          "internalType": "uint256",
          "name": "",
          "type": "uint256"
        }
      ],
      "payable": false,
      "stateMutability": "view",
      "type": "function"
    },
    {
      "constant": false,
      "inputs": [
        {
          "internalType": "address",
          "name": "newRootChain",
          "type": "address"
        }
      ],
      "name": "changeRootChain",
      "outputs": [],
      "payable": false,
      "stateMutability": "nonpayable",
      "type": "function"
    },
    {
      "constant": true,
      "inputs": [
        {
          "internalType": "address",
          "name": "owner",
          "type": "address"
        },
        {
          "internalType": "address",
          "name": "operator",
          "type": "address"
        }
      ],
      "name": "isApprovedForAll",
      "outputs": [
        {
          "internalType": "bool",
          "name": "",
          "type": "bool"
        }
      ],
      "payable": false,
      "stateMutability": "view",
      "type": "function"
    },
    {
      "constant": false,
      "inputs": [
        {
          "internalType": "address",
          "name": "newOwner",
          "type": "address"
        }
      ],
      "name": "transferOwnership",
      "outputs": [],
      "payable": false,
      "stateMutability": "nonpayable",
      "type": "function"
    },
    {
      "constant": false,
      "inputs": [],
      "name": "lock",
      "outputs": [],
      "payable": false,
      "stateMutability": "nonpayable",
      "type": "function"
    },
    {
      "constant": true,
      "inputs": [],
      "name": "token",
      "outputs": [
        {
          "internalType": "contract IERC20",
          "name": "",
          "type": "address"
        }
      ],
      "payable": false,
      "stateMutability": "view",
      "type": "function"
    },
    {
      "inputs": [
        {
          "internalType": "address",
          "name": "_registry",
          "type": "address"
        },
        {
          "internalType": "address",
          "name": "_rootchain",
          "type": "address"
        }
      ],
      "payable": false,
      "stateMutability": "nonpayable",
      "type": "constructor"
    },
    {
      "anonymous": false,
      "inputs": [
        {
          "indexed": true,
          "internalType": "address",
          "name": "previousRootChain",
          "type": "address"
        },
        {
          "indexed": true,
          "internalType": "address",
          "name": "newRootChain",
          "type": "address"
        }
      ],
      "name": "RootChainChanged",
      "type": "event"
    },
    {
      "anonymous": false,
      "inputs": [
        {
          "indexed": true,
          "internalType": "address",
          "name": "previousOwner",
          "type": "address"
        },
        {
          "indexed": true,
          "internalType": "address",
          "name": "newOwner",
          "type": "address"
        }
      ],
      "name": "OwnershipTransferred",
      "type": "event"
    },
    {
      "anonymous": false,
      "inputs": [
        {
          "indexed": true,
          "internalType": "address",
          "name": "signer",
          "type": "address"
        },
        {
          "indexed": true,
          "internalType": "uint256",
          "name": "validatorId",
          "type": "uint256"
        },
        {
          "indexed": true,
          "internalType": "uint256",
          "name": "activationEpoch",
          "type": "uint256"
        },
        {
          "indexed": false,
          "internalType": "uint256",
          "name": "amount",
          "type": "uint256"
        },
        {
          "indexed": false,
          "internalType": "uint256",
          "name": "total",
          "type": "uint256"
        }
      ],
      "name": "Staked",
      "type": "event"
    },
    {
      "anonymous": false,
      "inputs": [
        {
          "indexed": true,
          "internalType": "address",
          "name": "user",
          "type": "address"
        },
        {
          "indexed": true,
          "internalType": "uint256",
          "name": "validatorId",
          "type": "uint256"
        },
        {
          "indexed": false,
          "internalType": "uint256",
          "name": "amount",
          "type": "uint256"
        },
        {
          "indexed": false,
          "internalType": "uint256",
          "name": "total",
          "type": "uint256"
        }
      ],
      "name": "Unstaked",
      "type": "event"
    },
    {
      "anonymous": false,
      "inputs": [
        {
          "indexed": true,
          "internalType": "address",
          "name": "user",
          "type": "address"
        },
        {
          "indexed": true,
          "internalType": "uint256",
          "name": "validatorId",
          "type": "uint256"
        },
        {
          "indexed": false,
          "internalType": "uint256",
          "name": "deactivationEpoch",
          "type": "uint256"
        },
        {
          "indexed": true,
          "internalType": "uint256",
          "name": "amount",
          "type": "uint256"
        }
      ],
      "name": "UnstakeInit",
      "type": "event"
    },
    {
      "anonymous": false,
      "inputs": [
        {
          "indexed": true,
          "internalType": "uint256",
          "name": "validatorId",
          "type": "uint256"
        },
        {
          "indexed": true,
          "internalType": "address",
          "name": "oldSigner",
          "type": "address"
        },
        {
          "indexed": true,
          "internalType": "address",
          "name": "newSigner",
          "type": "address"
        }
      ],
      "name": "SignerChange",
      "type": "event"
    },
    {
      "anonymous": false,
      "inputs": [
        {
          "indexed": true,
          "internalType": "uint256",
          "name": "validatorId",
          "type": "uint256"
        },
        {
          "indexed": false,
          "internalType": "uint256",
          "name": "amount",
          "type": "uint256"
        },
        {
          "indexed": false,
          "internalType": "uint256",
          "name": "total",
          "type": "uint256"
        }
      ],
      "name": "ReStaked",
      "type": "event"
    },
    {
      "anonymous": false,
      "inputs": [
        {
          "indexed": true,
          "internalType": "uint256",
          "name": "validatorId",
          "type": "uint256"
        },
        {
          "indexed": true,
          "internalType": "uint256",
          "name": "exitEpoch",
          "type": "uint256"
        }
      ],
      "name": "Jailed",
      "type": "event"
    },
    {
      "anonymous": false,
      "inputs": [
        {
          "indexed": false,
          "internalType": "uint256",
          "name": "newThreshold",
          "type": "uint256"
        },
        {
          "indexed": false,
          "internalType": "uint256",
          "name": "oldThreshold",
          "type": "uint256"
        }
      ],
      "name": "ThresholdChange",
      "type": "event"
    },
    {
      "anonymous": false,
      "inputs": [
        {
          "indexed": false,
          "internalType": "uint256",
          "name": "newDynasty",
          "type": "uint256"
        },
        {
          "indexed": false,
          "internalType": "uint256",
          "name": "oldDynasty",
          "type": "uint256"
        }
      ],
      "name": "DynastyValueChange",
      "type": "event"
    },
    {
      "anonymous": false,
      "inputs": [
        {
          "indexed": false,
          "internalType": "uint256",
          "name": "newReward",
          "type": "uint256"
        },
        {
          "indexed": false,
          "internalType": "uint256",
          "name": "oldReward",
          "type": "uint256"
        }
      ],
      "name": "RewardUpdate",
      "type": "event"
    },
    {
      "anonymous": false,
      "inputs": [
        {
          "indexed": true,
          "internalType": "uint256",
          "name": "validatorId",
          "type": "uint256"
        },
        {
          "indexed": true,
          "internalType": "uint256",
          "name": "oldAmount",
          "type": "uint256"
        },
        {
          "indexed": true,
          "internalType": "uint256",
          "name": "newAmount",
          "type": "uint256"
        }
      ],
      "name": "StakeUpdate",
      "type": "event"
    },
    {
      "anonymous": false,
      "inputs": [
        {
          "indexed": true,
          "internalType": "uint256",
          "name": "validatorId",
          "type": "uint256"
        },
        {
          "indexed": true,
          "internalType": "uint256",
          "name": "amount",
          "type": "uint256"
        },
        {
          "indexed": true,
          "internalType": "uint256",
          "name": "totalAmount",
          "type": "uint256"
        }
      ],
      "name": "ClaimRewards",
      "type": "event"
    },
    {
      "anonymous": false,
      "inputs": [
        {
          "indexed": true,
          "internalType": "uint256",
          "name": "validatorId",
          "type": "uint256"
        },
        {
          "indexed": true,
          "internalType": "uint256",
          "name": "amount",
          "type": "uint256"
        },
        {
          "indexed": true,
          "internalType": "uint256",
          "name": "auctionAmount",
          "type": "uint256"
        }
      ],
      "name": "StartAuction",
      "type": "event"
    },
    {
      "anonymous": false,
      "inputs": [
        {
          "indexed": true,
          "internalType": "uint256",
          "name": "newValidatorId",
          "type": "uint256"
        },
        {
          "indexed": true,
          "internalType": "uint256",
          "name": "oldValidatorId",
          "type": "uint256"
        },
        {
          "indexed": true,
          "internalType": "uint256",
          "name": "amount",
          "type": "uint256"
        }
      ],
      "name": "ConfirmAuction",
      "type": "event"
    },
    {
      "anonymous": false,
      "inputs": [
        {
          "indexed": true,
          "internalType": "address",
          "name": "from",
          "type": "address"
        },
        {
          "indexed": true,
          "internalType": "address",
          "name": "to",
          "type": "address"
        },
        {
          "indexed": true,
          "internalType": "uint256",
          "name": "tokenId",
          "type": "uint256"
        }
      ],
      "name": "Transfer",
      "type": "event"
    },
    {
      "anonymous": false,
      "inputs": [
        {
          "indexed": true,
          "internalType": "address",
          "name": "owner",
          "type": "address"
        },
        {
          "indexed": true,
          "internalType": "address",
          "name": "approved",
          "type": "address"
        },
        {
          "indexed": true,
          "internalType": "uint256",
          "name": "tokenId",
          "type": "uint256"
        }
      ],
      "name": "Approval",
      "type": "event"
    },
    {
      "anonymous": false,
      "inputs": [
        {
          "indexed": true,
          "internalType": "address",
          "name": "owner",
          "type": "address"
        },
        {
          "indexed": true,
          "internalType": "address",
          "name": "operator",
          "type": "address"
        },
        {
          "indexed": false,
          "internalType": "bool",
          "name": "approved",
          "type": "bool"
        }
      ],
      "name": "ApprovalForAll",
      "type": "event"
    },
    {
      "constant": false,
      "inputs": [
        {
          "internalType": "uint256",
          "name": "amount",
          "type": "uint256"
        },
        {
          "internalType": "address",
          "name": "signer",
          "type": "address"
        },
        {
          "internalType": "bool",
          "name": "isContract",
          "type": "bool"
        }
      ],
      "name": "stake",
      "outputs": [],
      "payable": false,
      "stateMutability": "nonpayable",
      "type": "function"
    },
    {
      "constant": false,
      "inputs": [
        {
          "internalType": "address",
          "name": "user",
          "type": "address"
        },
        {
          "internalType": "uint256",
          "name": "amount",
          "type": "uint256"
        },
        {
          "internalType": "address",
          "name": "signer",
          "type": "address"
        },
        {
          "internalType": "bool",
          "name": "isContract",
          "type": "bool"
        }
      ],
      "name": "stakeFor",
      "outputs": [],
      "payable": false,
      "stateMutability": "nonpayable",
      "type": "function"
    },
    {
      "constant": false,
      "inputs": [
        {
          "internalType": "uint256",
          "name": "validatorId",
          "type": "uint256"
        },
        {
          "internalType": "uint256",
          "name": "amount",
          "type": "uint256"
        }
      ],
      "name": "startAuction",
      "outputs": [],
      "payable": false,
      "stateMutability": "nonpayable",
      "type": "function"
    },
    {
      "constant": false,
      "inputs": [
        {
          "internalType": "uint256",
          "name": "validatorId",
          "type": "uint256"
        },
        {
          "internalType": "address",
          "name": "signer",
          "type": "address"
        },
        {
          "internalType": "bool",
          "name": "isContract",
          "type": "bool"
        }
      ],
      "name": "confirmAuctionBid",
      "outputs": [],
      "payable": false,
      "stateMutability": "nonpayable",
      "type": "function"
    },
    {
      "constant": false,
      "inputs": [
        {
          "internalType": "uint256",
          "name": "validatorId",
          "type": "uint256"
        }
      ],
      "name": "unstake",
      "outputs": [],
      "payable": false,
      "stateMutability": "nonpayable",
      "type": "function"
    },
    {
      "constant": false,
      "inputs": [
        {
          "internalType": "uint256",
          "name": "validatorId",
          "type": "uint256"
        }
      ],
      "name": "unstakeClaim",
      "outputs": [],
      "payable": false,
      "stateMutability": "nonpayable",
      "type": "function"
    },
    {
      "constant": false,
      "inputs": [
        {
          "internalType": "uint256",
          "name": "validatorId",
          "type": "uint256"
        },
        {
          "internalType": "uint256",
          "name": "amount",
          "type": "uint256"
        },
        {
          "internalType": "bool",
          "name": "stakeRewards",
          "type": "bool"
        }
      ],
      "name": "restake",
      "outputs": [],
      "payable": false,
      "stateMutability": "nonpayable",
      "type": "function"
    },
    {
      "constant": false,
      "inputs": [
        {
          "internalType": "uint256",
          "name": "validatorId",
          "type": "uint256"
        },
        {
          "internalType": "uint256",
          "name": "accountBalance",
          "type": "uint256"
        },
        {
          "internalType": "uint256",
          "name": "index",
          "type": "uint256"
        },
        {
          "internalType": "bytes",
          "name": "proof",
          "type": "bytes"
        }
      ],
      "name": "claimRewards",
      "outputs": [],
      "payable": false,
      "stateMutability": "nonpayable",
      "type": "function"
    },
    {
      "constant": false,
      "inputs": [
        {
          "internalType": "uint256",
          "name": "validatorId",
          "type": "uint256"
        }
      ],
      "name": "withdrawRewards",
      "outputs": [],
      "payable": false,
      "stateMutability": "nonpayable",
      "type": "function"
    },
    {
      "constant": false,
      "inputs": [
        {
          "internalType": "uint256",
          "name": "amount",
          "type": "uint256"
        },
        {
          "internalType": "address",
          "name": "delegator",
          "type": "address"
        }
      ],
      "name": "delegationTransfer",
      "outputs": [],
      "payable": false,
      "stateMutability": "nonpayable",
      "type": "function"
    },
    {
      "constant": false,
      "inputs": [
        {
          "internalType": "uint256",
          "name": "validatorId",
          "type": "uint256"
        },
        {
          "internalType": "uint256",
          "name": "slashingRate",
          "type": "uint256"
        },
        {
          "internalType": "uint256",
          "name": "jailCheckpoints",
          "type": "uint256"
        }
      ],
      "name": "slash",
      "outputs": [],
      "payable": false,
      "stateMutability": "nonpayable",
      "type": "function"
    },
    {
      "constant": false,
      "inputs": [
        {
          "internalType": "uint256",
          "name": "validatorId",
          "type": "uint256"
        }
      ],
      "name": "unJail",
      "outputs": [],
      "payable": false,
      "stateMutability": "nonpayable",
      "type": "function"
    },
    {
      "constant": false,
      "inputs": [
        {
          "internalType": "uint256",
          "name": "validatorId",
          "type": "uint256"
        },
        {
          "internalType": "uint256",
          "name": "jailCheckpoints",
          "type": "uint256"
        }
      ],
      "name": "jail",
      "outputs": [],
      "payable": false,
      "stateMutability": "nonpayable",
      "type": "function"
    },
    {
      "constant": true,
      "inputs": [],
      "name": "getCurrentValidatorSet",
      "outputs": [
        {
          "internalType": "uint256[]",
          "name": "",
          "type": "uint256[]"
        }
      ],
      "payable": false,
      "stateMutability": "view",
      "type": "function"
    },
    {
      "constant": true,
      "inputs": [
        {
          "internalType": "uint256",
          "name": "validatorId",
          "type": "uint256"
        }
      ],
      "name": "getStakerDetails",
      "outputs": [
        {
          "internalType": "uint256",
          "name": "",
          "type": "uint256"
        },
        {
          "internalType": "uint256",
          "name": "",
          "type": "uint256"
        },
        {
          "internalType": "uint256",
          "name": "",
          "type": "uint256"
        },
        {
          "internalType": "address",
          "name": "",
          "type": "address"
        },
        {
          "internalType": "uint256",
          "name": "",
          "type": "uint256"
        }
      ],
      "payable": false,
      "stateMutability": "view",
      "type": "function"
    },
    {
      "constant": true,
      "inputs": [
        {
          "internalType": "address",
          "name": "user",
          "type": "address"
        }
      ],
      "name": "getValidatorId",
      "outputs": [
        {
          "internalType": "uint256",
          "name": "",
          "type": "uint256"
        }
      ],
      "payable": false,
      "stateMutability": "view",
      "type": "function"
    },
    {
      "constant": true,
      "inputs": [
        {
          "internalType": "address",
          "name": "user",
          "type": "address"
        }
      ],
      "name": "totalStakedFor",
      "outputs": [
        {
          "internalType": "uint256",
          "name": "",
          "type": "uint256"
        }
      ],
      "payable": false,
      "stateMutability": "view",
      "type": "function"
    },
    {
      "constant": true,
      "inputs": [],
      "name": "supportsHistory",
      "outputs": [
        {
          "internalType": "bool",
          "name": "",
          "type": "bool"
        }
      ],
      "payable": false,
      "stateMutability": "pure",
      "type": "function"
    },
    {
      "constant": false,
      "inputs": [
        {
          "internalType": "address",
          "name": "_token",
          "type": "address"
        }
      ],
      "name": "setToken",
      "outputs": [],
      "payable": false,
      "stateMutability": "nonpayable",
      "type": "function"
    },
    {
      "constant": false,
      "inputs": [
        {
          "internalType": "uint256",
          "name": "newThreshold",
          "type": "uint256"
        }
      ],
      "name": "updateValidatorThreshold",
      "outputs": [],
      "payable": false,
      "stateMutability": "nonpayable",
      "type": "function"
    },
    {
      "constant": false,
      "inputs": [
        {
          "internalType": "uint256",
          "name": "_blocks",
          "type": "uint256"
        }
      ],
      "name": "updateCheckPointBlockInterval",
      "outputs": [],
      "payable": false,
      "stateMutability": "nonpayable",
      "type": "function"
    },
    {
      "constant": false,
      "inputs": [
        {
          "internalType": "uint256",
          "name": "newReward",
          "type": "uint256"
        }
      ],
      "name": "updateCheckpointReward",
      "outputs": [],
      "payable": false,
      "stateMutability": "nonpayable",
      "type": "function"
    },
    {
      "constant": false,
      "inputs": [
        {
          "internalType": "uint256",
          "name": "validatorId",
          "type": "uint256"
        },
        {
          "internalType": "uint256",
          "name": "epoch",
          "type": "uint256"
        },
        {
          "internalType": "int256",
          "name": "amount",
          "type": "int256"
        }
      ],
      "name": "updateValidatorState",
      "outputs": [],
      "payable": false,
      "stateMutability": "nonpayable",
      "type": "function"
    },
    {
      "constant": false,
      "inputs": [
        {
          "internalType": "uint256",
          "name": "newDynasty",
          "type": "uint256"
        }
      ],
      "name": "updateDynastyValue",
      "outputs": [],
      "payable": false,
      "stateMutability": "nonpayable",
      "type": "function"
    },
    {
      "constant": false,
      "inputs": [
        {
          "internalType": "uint256",
          "name": "validatorId",
          "type": "uint256"
        },
        {
          "internalType": "address",
          "name": "_signer",
          "type": "address"
        }
      ],
      "name": "updateSigner",
      "outputs": [],
      "payable": false,
      "stateMutability": "nonpayable",
      "type": "function"
    },
    {
      "constant": false,
      "inputs": [
        {
          "internalType": "uint256",
          "name": "epochs",
          "type": "uint256"
        }
      ],
      "name": "updateMinLockInPeriod",
      "outputs": [],
      "payable": false,
      "stateMutability": "nonpayable",
      "type": "function"
    },
    {
      "constant": true,
      "inputs": [],
      "name": "currentValidatorSetSize",
      "outputs": [
        {
          "internalType": "uint256",
          "name": "",
          "type": "uint256"
        }
      ],
      "payable": false,
      "stateMutability": "view",
      "type": "function"
    },
    {
      "constant": true,
      "inputs": [],
      "name": "currentValidatorSetTotalStake",
      "outputs": [
        {
          "internalType": "uint256",
          "name": "",
          "type": "uint256"
        }
      ],
      "payable": false,
      "stateMutability": "view",
      "type": "function"
    },
    {
      "constant": true,
      "inputs": [
        {
          "internalType": "uint256",
          "name": "validatorId",
          "type": "uint256"
        }
      ],
      "name": "getValidatorContract",
      "outputs": [
        {
          "internalType": "address",
          "name": "",
          "type": "address"
        }
      ],
      "payable": false,
      "stateMutability": "view",
      "type": "function"
    },
    {
      "constant": true,
      "inputs": [
        {
          "internalType": "uint256",
          "name": "validatorId",
          "type": "uint256"
        }
      ],
      "name": "isValidator",
      "outputs": [
        {
          "internalType": "bool",
          "name": "",
          "type": "bool"
        }
      ],
      "payable": false,
      "stateMutability": "view",
      "type": "function"
    },
    {
      "constant": false,
      "inputs": [
        {
          "internalType": "uint256",
          "name": "blockInterval",
          "type": "uint256"
        },
        {
          "internalType": "bytes32",
          "name": "voteHash",
          "type": "bytes32"
        },
        {
          "internalType": "bytes32",
          "name": "stateRoot",
          "type": "bytes32"
        },
        {
          "internalType": "bytes",
          "name": "sigs",
          "type": "bytes"
        }
      ],
      "name": "checkSignatures",
      "outputs": [
        {
          "internalType": "uint256",
          "name": "",
          "type": "uint256"
        }
      ],
      "payable": false,
      "stateMutability": "nonpayable",
      "type": "function"
    },
    {
      "constant": true,
      "inputs": [
        {
          "internalType": "bytes32",
          "name": "voteHash",
          "type": "bytes32"
        },
        {
          "internalType": "bytes",
          "name": "sigs",
          "type": "bytes"
        }
      ],
      "name": "checkTwoByThreeMajority",
      "outputs": [
        {
          "internalType": "uint256",
          "name": "",
          "type": "uint256"
        },
        {
          "internalType": "uint256",
          "name": "",
          "type": "uint256"
        }
      ],
      "payable": false,
      "stateMutability": "view",
      "type": "function"
    },
    {
      "constant": false,
      "inputs": [
        {
          "internalType": "bytes",
          "name": "checkpointTx",
          "type": "bytes"
        }
      ],
      "name": "challangeStateRootUpdate",
      "outputs": [],
      "payable": false,
      "stateMutability": "nonpayable",
      "type": "function"
    }
  ],
  "bytecode": "0x6080604052611000600c5561200060115569021e19e0c9bab2400000601255670de0b6b3a76400006013556101006014556200004d6002601154620002b460201b62003f3d1790919060201c565b60155560ff601655600a601755600a60185560026019556001601b556001601c556200008b6004601154620002e860201b62003f811790919060201c565b601f553480156200009b57600080fd5b5060405162005f2c38038062005f2c83398181016040526040811015620000c157600080fd5b508051602091820151604080518082018252600f81527f4d617469632056616c696461746f720000000000000000000000000000000000818601528151808301909252600282527f4d56000000000000000000000000000000000000000000000000000000000000948201949094529192909181816200016a7f01ffc9a7000000000000000000000000000000000000000000000000000000006001600160e01b036200030c16565b6200019e7f80ac58cd000000000000000000000000000000000000000000000000000000006001600160e01b036200030c16565b620001d27f780e9d63000000000000000000000000000000000000000000000000000000006001600160e01b036200030c16565b8151620001e790600990602085019062000379565b508051620001fd90600a90602084019062000379565b50620002327f5b5e139f000000000000000000000000000000000000000000000000000000006001600160e01b036200030c16565b5050600d80546001600160a01b0319163317908190556040516001600160a01b03919091169250600091507f8be0079c531659141344cd1fd0a4f28419497f9722a3daafe3b4186f6b6457e0908290a3601080546001600160a01b039384166001600160a01b031991821617909155600e80549290931691161790556200041e565b600082620002c557506000620002e2565b82820282848281620002d357fe5b0414620002df57600080fd5b90505b92915050565b6000808211620002f757600080fd5b60008284816200030357fe5b04949350505050565b7fffffffff0000000000000000000000000000000000000000000000000000000080821614156200033c57600080fd5b7fffffffff00000000000000000000000000000000000000000000000000000000166000908152602081905260409020805460ff19166001179055565b828054600181600116156101000203166002900490600052602060002090601f016020900481019282601f10620003bc57805160ff1916838001178555620003ec565b82800160010185558215620003ec579182015b82811115620003ec578251825591602001919060010190620003cf565b50620003fa929150620003fe565b5090565b6200041b91905b80821115620003fa576000815560010162000405565b90565b615afe806200042e6000396000f3fe60806040523480156200001157600080fd5b5060043610620004fc5760003560e01c8063715018a6116200029d578063a47690711162000171578063cf30901211620000e1578063e6692f49116200009f578063e6692f4914620011ee578063e8afa8e8146200120e578063e985e9c51462001237578063f2fde38b1462001268578063f83d08ba1462001291578063fc0c546a146200129b57620004fc565b8063cf309012146200118a578063d22037661462001194578063d86d53e714620011ba578063da9c5cb514620011da578063e35e5d8414620011e457620004fc565b8063b88d4fde116200012f578063b88d4fde1462001037578063bd2fbd611462001101578063c87b56dd1462001140578063cbf383d51462001160578063cd6b8388146200118057620004fc565b8063a47690711462000fe3578063a548c5471462000fed578063a69df4b51462000ff7578063a968882f1462001001578063ac4746ab146200102d57620004fc565b80638da5cb5b116200020d578063987ab9db11620001cb578063987ab9db1462000eb757806398ee773b1462000ec1578063a062d09e1462000ee1578063a22cb4651462000f92578063a440ab1e1462000fc357620004fc565b80638da5cb5b1462000e4a5780638f283a861462000e545780638f32d59b1462000e835780639342c8f41462000e8d57806395d89b411462000ead57620004fc565b80637eb80a73116200025b5780637eb80a731462000ca05780637f5da7181462000ccf5780637f952d951462000d79578063817b1cd21462000d83578063839758bb1462000d8d57620004fc565b8063715018a61462000bf7578063766718081462000c0157806378daaf691462000c0b5780637b1039991462000c5f5780637e9f2c841462000c6957620004fc565b80632f745c5911620003d55780635508d8e111620003455780636352211e11620003035780636352211e1462000b6e5780636cbb60501462000b8e5780637033e4a61462000bba5780637060054d1462000bc457806370a082311462000bce57620004fc565b80635508d8e11462000a1757806356342d8c1462000a215780635aac52f51462000a415780635c2488551462000afe57806362c0c3fc1462000b3757620004fc565b80634b341aed11620003935780634b341aed14620009575780634f6ccce714620009805780634fd101d714620009a05780634fee13fc14620009aa5780635325e14414620009d057620004fc565b80632f745c59146200080557806335aa2e4414620008345780633862da0b14620008d55780633d02455b14620008fe57806342842e0e146200091e57620004fc565b8063174e6832116200047157806325316411116200042f5780632531641114620007835780632649263a146200078d57806326c0817e14620007ad57806328cc4e4114620007b75780632e17de7814620007e557620004fc565b8063174e6832146200070357806317c2b910146200072c57806318160ddd14620007365780631b3fa7ff146200074057806323b872dd146200074a57620004fc565b80630cccfc5811620004bf5780630cccfc58146200068a5780630e15561a14620006a65780630ebb172a14620006b0578063144fa6d714620006ba57806316827b1b14620006e357620004fc565b806301ffc9a714620005015780630209fdd0146200053f57806306fdde03146200059b578063081812fc146200061d578063095ea7b31462000659575b600080fd5b6200052b600480360360208110156200051957600080fd5b50356001600160e01b031916620012a5565b604080519115158252519081900360200190f35b62000549620012c8565b60408051602080825283518183015283519192839290830191858101910280838360005b83811015620005875781810151838201526020016200056d565b505050509050019250505060405180910390f35b620005a562001380565b6040805160208082528351818301528351919283929083019185019080838360005b83811015620005e1578181015183820152602001620005c7565b50505050905090810190601f1680156200060f5780820380516001836020036101000a031916815260200191505b509250505060405180910390f35b6200063d600480360360208110156200063557600080fd5b50356200141a565b604080516001600160a01b039092168252519081900360200190f35b62000688600480360360408110156200067157600080fd5b506001600160a01b0381351690602001356200144d565b005b6200069462001501565b60408051918252519081900360200190f35b6200069462001507565b620006946200150d565b6200068860048036036020811015620006d257600080fd5b50356001600160a01b031662001513565b6200068860048036036020811015620006fb57600080fd5b50356200155d565b62000694600480360360208110156200071b57600080fd5b50356001600160a01b0316620015c2565b62000694620015d7565b62000694620015dd565b62000694620015e3565b62000688600480360360608110156200076257600080fd5b506001600160a01b03813581169160208101359091169060400135620015e9565b6200069462001611565b6200052b60048036036020811015620007a557600080fd5b503562001617565b62000694620016d6565b6200068860048036036060811015620007cf57600080fd5b50803590602081013590604001351515620016dc565b6200068860048036036020811015620007fd57600080fd5b503562001929565b62000694600480360360408110156200081d57600080fd5b506001600160a01b03813516906020013562001a42565b62000854600480360360208110156200084c57600080fd5b503562001a93565b604051808a8152602001898152602001888152602001878152602001868152602001858152602001846001600160a01b03166001600160a01b03168152602001836001600160a01b03166001600160a01b03168152602001826002811115620008b957fe5b60ff168152602001995050505050505050505060405180910390f35b6200069460048036036020811015620008ed57600080fd5b50356001600160a01b031662001aef565b62000688600480360360208110156200091657600080fd5b503562001b01565b62000688600480360360608110156200093657600080fd5b506001600160a01b0381358116916020810135909116906040013562001cb2565b62000694600480360360208110156200096f57600080fd5b50356001600160a01b031662001ccf565b62000694600480360360208110156200099857600080fd5b503562001d27565b6200069462001d5f565b6200068860048036036040811015620009c257600080fd5b508035906020013562001d65565b620009f060048036036020811015620009e857600080fd5b5035620021c4565b6040805193845260208401929092526001600160a01b031682820152519081900360600190f35b62000694620021ee565b6200063d6004803603602081101562000a3957600080fd5b5035620021f4565b620006946004803603608081101562000a5957600080fd5b81359160208101359160408201359190810190608081016060820135600160201b81111562000a8757600080fd5b82018360208201111562000a9a57600080fd5b803590602001918460018302840111600160201b8311171562000abc57600080fd5b91908080601f01602080910402602001604051908101604052809392919081815260200183838082843760009201919091525092955062002212945050505050565b62000b1e6004803603602081101562000b1657600080fd5b5035620022cf565b6040805192835260208301919091528051918290030190f35b620006886004803603606081101562000b4f57600080fd5b508035906001600160a01b0360208201351690604001351515620022e8565b6200063d6004803603602081101562000b8657600080fd5b5035620025b0565b620006886004803603606081101562000ba657600080fd5b5080359060208101359060400135620025d3565b6200052b620027d0565b62000694620027d5565b620006946004803603602081101562000be657600080fd5b50356001600160a01b0316620027db565b6200068862002814565b6200069462002872565b62000c2b6004803603602081101562000c2357600080fd5b503562002878565b604080519586526020860194909452848401929092526001600160a01b031660608401526080830152519081900360a00190f35b6200063d620028db565b620006886004803603606081101562000c8157600080fd5b508035906001600160a01b0360208201351690604001351515620028ea565b620006886004803603604081101562000cb857600080fd5b50803590602001356001600160a01b0316620028f8565b620006886004803603602081101562000ce757600080fd5b810190602081018135600160201b81111562000d0257600080fd5b82018360208201111562000d1557600080fd5b803590602001918460018302840111600160201b8311171562000d3757600080fd5b91908080601f01602080910402602001604051908101604052809392919081815260200183838082843760009201919091525092955062002a50945050505050565b6200069462002a53565b6200069462002a6b565b620006886004803603608081101562000da557600080fd5b81359160208101359160408201359190810190608081016060820135600160201b81111562000dd357600080fd5b82018360208201111562000de657600080fd5b803590602001918460018302840111600160201b8311171562000e0857600080fd5b91908080601f01602080910402602001604051908101604052809392919081815260200183838082843760009201919091525092955062002a71945050505050565b6200063d62002d3d565b620006886004803603604081101562000e6c57600080fd5b50803590602001356001600160a01b031662002d4c565b6200052b62002e44565b620006886004803603602081101562000ea557600080fd5b503562002e55565b620005a562003002565b6200063d62003066565b620006886004803603602081101562000ed957600080fd5b503562003075565b62000b1e6004803603604081101562000ef957600080fd5b81359190810190604081016020820135600160201b81111562000f1b57600080fd5b82018360208201111562000f2e57600080fd5b803590602001918460018302840111600160201b8311171562000f5057600080fd5b91908080601f0160208091040260200160405190810160405280939291908181526020018383808284376000920191909152509295506200308e945050505050565b620006886004803603604081101562000faa57600080fd5b506001600160a01b03813516906020013515156200333f565b620006886004803603602081101562000fdb57600080fd5b5035620033c4565b6200069462003433565b6200069462003448565b620006886200344e565b62000688600480360360608110156200101957600080fd5b508035906020810135906040013562003471565b620006946200355d565b62000688600480360360808110156200104f57600080fd5b6001600160a01b03823581169260208101359091169160408201359190810190608081016060820135600160201b8111156200108a57600080fd5b8201836020820111156200109d57600080fd5b803590602001918460018302840111600160201b83111715620010bf57600080fd5b91908080601f01602080910402602001604051908101604052809392919081815260200183838082843760009201919091525092955062003563945050505050565b62000688600480360360808110156200111957600080fd5b506001600160a01b0381358116916020810135916040820135169060600135151562003588565b620005a5600480360360208110156200115857600080fd5b50356200372a565b62000688600480360360208110156200117857600080fd5b5035620037e4565b6200069462003849565b6200052b6200384f565b6200068860048036036040811015620011ac57600080fd5b50803590602001356200385f565b6200068860048036036020811015620011d257600080fd5b5035620039b0565b6200069462003b55565b6200069462003b5b565b62000688600480360360208110156200120657600080fd5b503562003b61565b62000688600480360360208110156200122657600080fd5b50356001600160a01b031662003c2a565b6200052b600480360360408110156200124f57600080fd5b506001600160a01b038135811691602001351662003cae565b62000688600480360360208110156200128057600080fd5b50356001600160a01b031662003cdc565b6200068862003cfb565b6200063d62003d24565b6001600160e01b0319811660009081526020819052604090205460ff165b919050565b606080601854604051908082528060200260200182016040528015620012f8578160200160208202803883390190505b509050600080805b6200130a620015dd565b816bffffffffffffffffffffffff161015620013765762001339816bffffffffffffffffffffffff1662001d27565b9250620013468362001617565b156200136d57828483806001019450815181106200136057fe5b6020026020010181815250505b60010162001300565b5091925050505b90565b60098054604080516020601f6002600019610100600188161502019095169490940493840181900481028201810190925282815260609390929091830182828015620014105780601f10620013e45761010080835404028352916020019162001410565b820191906000526020600020905b815481529060010190602001808311620013f257829003601f168201915b5050505050905090565b6000620014278262003d33565b6200143157600080fd5b506000908152600260205260409020546001600160a01b031690565b60006200145a82620025b0565b9050806001600160a01b0316836001600160a01b031614156200147c57600080fd5b336001600160a01b03821614806200149b57506200149b813362003cae565b620014a557600080fd5b60008281526002602052604080822080546001600160a01b0319166001600160a01b0387811691821790925591518593918516917f8c5be1e5ebec7d5bd14f71427d1e84f3dd0314c0f7b2291e5b200ac8c7c3b92591a4505050565b601f5481565b601d5481565b600c5481565b6200151d62002e44565b6200152757600080fd5b6001600160a01b0381166200153b57600080fd5b600f80546001600160a01b0319166001600160a01b0392909216919091179055565b6200156762002e44565b6200157157600080fd5b600081116200157f57600080fd5b60185460408051838152602081019290925280517f5d16a900896e1160c2033bc940e6b072d3dc3b6a996fefb9b3b9b9678841824c9281900390910190a1601855565b6000620015d182600062001a42565b92915050565b60205481565b60075490565b60175481565b620015f5338262003d50565b620015ff57600080fd5b6200160c83838362003daf565b505050565b60165481565b6000818152602360205260408120541580159062001664575060008281526023602052604090206003015415801590620016645750601b5460008381526023602052604090206003015411155b80156200169d575060008281526023602052604090206004015415806200169d5750601b54600083815260236020526040902060040154115b8015620015d157506001600083815260236020526040902060070154600160a01b900460ff166002811115620016cf57fe5b1492915050565b60135481565b8233620016e982620025b0565b6001600160a01b031614620016fd57600080fd5b601b54600085815260236020526040902060040154106200175b576040805162461bcd60e51b81526020600482015260136024820152724e6f20757365206f662072657374616b696e6760681b604482015290519081900360640190fd5b82156200182e57600f54604080516323b872dd60e01b81523360048201523060248201526044810186905290516001600160a01b03909216916323b872dd916064808201926020929091908290030181600087803b158015620017bd57600080fd5b505af1158015620017d2573d6000803e3d6000fd5b505050506040513d6020811015620017e957600080fd5b50516200182e576040805162461bcd60e51b815260206004820152600e60248201526d5472616e73666572207374616b6560901b604482015290519081900360640190fd5b811562001851576000848152602360205260408120600101805491905592909201915b601a5462001866908463ffffffff62003dd416565b601a556000848152602360208181526040808420805488018155601b54855260248352908420805488019055928790525254620018aa818563ffffffff62003dee16565b60405186907f35af9eea1f0e7b300b0a14fae90139a072470e44daa3f14b5069bebbc1265bda90600090a460008481526023602090815260409182902054601a54835191825291810191909152815186927f9cc0e589f20d3310eb2ad571b23529003bd46048d0d1af29277dcf0aa3c398ce928290030190a250505050565b80336200193682620025b0565b6001600160a01b0316146200194a57600080fd5b60008281526025602052604090205415620019ac576040805162461bcd60e51b815260206004820152601b60248201527f5761697420666f722061756374696f6e20636f6d706c6574696f6e0000000000604482015290519081900360640190fd5b601b54600090620019c590600163ffffffff62003dd416565b60008481526023602052604090206003015490915015801590620019f85750600083815260236020526040902060040154155b801562001a2c57506001600084815260236020526040902060070154600160a01b900460ff16600281111562001a2a57fe5b145b62001a3657600080fd5b6200160c838262003e04565b600062001a4f83620027db565b821062001a5b57600080fd5b6001600160a01b038316600090815260056020526040902080548390811062001a8057fe5b9060005260206000200154905092915050565b602360205260009081526040902080546001820154600283015460038401546004850154600586015460068701546007909701549596949593949293919290916001600160a01b0391821691811690600160a01b900460ff1689565b60226020526000908152604090205481565b803362001b0e82620025b0565b6001600160a01b03161462001b2257600080fd5b601b5460008381526023602052604090206004015411801562001b585750601b5460008381526023602052604090206005015411155b801562001b8c57506002600083815260236020526040902060070154600160a01b900460ff16600281111562001b8a57fe5b145b62001b9657600080fd5b60008281526023602052604090205460135481101562001bb557600080fd5b600083815260236020526040812060048101546007909101549091906001600160a01b03161562001c6e576000858152602360209081526040808320600701548151633f5cc24760e21b81526004810187905291516001600160a01b039091169363fd73091c93602480850194919392918390030190829087803b15801562001c3d57600080fd5b505af115801562001c52573d6000803e3d6000fd5b505050506040513d602081101562001c6957600080fd5b505190505b62001c7e82828501600162003f15565b5050506000918252506023602052604081206004810182905560078101805460ff60a01b1916600160a01b17905560050155565b6200160c8383836040518060200160405280600081525062003563565b60006001600160a01b038216158062001cf0575062001cee82620027db565b155b1562001cff57506000620012c3565b6023600062001d1084600062001a42565b815260208101919091526040016000205492915050565b600062001d33620015dd565b821062001d3f57600080fd5b6007828154811062001d4d57fe5b90600052602060002001549050919050565b60185481565b62001d708262001617565b62001d7a57600080fd5b602154158062001d8e5750601b5460215411155b62001dd3576040805162461bcd60e51b815260206004820152601060248201526f10dbdbdb08191bdddb881c195c9a5bd960821b604482015290519081900360640190fd5b600082815260256020526040902060010154601b5462001df99163ffffffff62003dee16565b601f54101562001e49576040805162461bcd60e51b8152602060048201526016602482015275125b9d985b1a5908185d58dd1a5bdb881c195c9a5bd960521b604482015290519081900360640190fd5b601154601f5462001e6290829063ffffffff62003dd416565b600084815260236020526040902060030154601b5462001e889163ffffffff62003dee16565b8162001e9057fe5b061162001eda576040805162461bcd60e51b81526020600482015260136024820152724e6f7420616e2061756374696f6e2074696d6560681b604482015290519081900360640190fd5b600f54604080516323b872dd60e01b81523360048201523060248201526044810184905290516001600160a01b03909216916323b872dd916064808201926020929091908290030181600087803b15801562001f3557600080fd5b505af115801562001f4a573d6000803e3d6000fd5b505050506040513d602081101562001f6157600080fd5b505162001fae576040805162461bcd60e51b8152602060048201526016602482015275151c985b9cd9995c88185b5bdd5b9d0819985a5b195960521b604482015290519081900360640190fd5b600062001fdb62001fbf8462003f37565b6000858152602360205260409020549063ffffffff62003f3d16565b60008481526025602052604090205490915062001ffa90829062003f68565b90508181106200204a576040805162461bcd60e51b8152602060048201526016602482015275135d5cdd08189a59081a1a59da195c88185b5bdd5b9d60521b604482015290519081900360640190fd5b600083815260256020526040902054620020be5760408051606081018252838152601b5460208083019182523383850190815260008881526025909252939020915182555160018201559051600290910180546001600160a01b0319166001600160a01b0390921691909117905562002179565b6000838152602560209081526040808320600f5460028201548254845163a9059cbb60e01b81526001600160a01b03928316600482015260248101919091529351929591169363a9059cbb936044808201949293918390030190829087803b1580156200212a57600080fd5b505af11580156200213f573d6000803e3d6000fd5b505050506040513d60208110156200215657600080fd5b50516200216257600080fd5b82815560020180546001600160a01b031916331790555b60008381526025602090815260408083205460239092528083205490519192909186917f683d0f47c7fa11331f4e9563b3f5a7fdc3d3c5b75c600357a91d991f5a13a43791a4505050565b6025602052600090815260409020805460018201546002909201549091906001600160a01b031683565b601c5481565b6000908152602360205260409020600701546001600160a01b031690565b600e546000906001600160a01b031633146200222d57600080fd5b6000806200223c86856200308e565b8092508193505050600062002271601654620022646012548b62003f3d90919063ffffffff16565b9063ffffffff62003f8116565b9050620022988262002264856200228b6012548662003fa5565b9063ffffffff62003f3d16565b601d54909150620022b0908263ffffffff62003dd416565b601d556020869055620022c262003fb6565b925050505b949350505050565b6024602052600090815260409020805460019091015482565b600e54600160a01b900460ff16156200230057600080fd5b6000838152602560209081526040808320602390925290912060028201546001600160a01b031633146200233357600080fd5b601b546001830154601f546200234f9163ffffffff62003dd416565b11156200238e5760405162461bcd60e51b815260040180806020018281038252603081526020018062005a9a6030913960400191505060405180910390fd5b6200239985620025b0565b60028301546001600160a01b03908116911614156200250f578054600f5460028401546040805163a9059cbb60e01b81526001600160a01b039283166004820152602481018590529051919092169163a9059cbb9160448083019260209291908290030181600087803b1580156200241057600080fd5b505af115801562002425573d6000803e3d6000fd5b505050506040513d60208110156200243c57600080fd5b50516200244857600080fd5b82548255600083556002830180546001600160a01b0319169055601154601b54620024799163ffffffff62003dd416565b60018401558154620024a79062002497908363ffffffff62003dee16565b601a549063ffffffff62003dd416565b601a558154604051829088907f35af9eea1f0e7b300b0a14fae90139a072470e44daa3f14b5069bebbc1265bda90600090a48154604051879081907f1002381ecf76700f6f0ab4c90b9f523e39df7b0482b71ec63cf62cf85412047090600090a450620025a9565b6200251d85601b5462003e04565b600282015482546200253b916001600160a01b031690868662004016565b8154601c5486906200255590600163ffffffff62003dee16565b6040517f1002381ecf76700f6f0ab4c90b9f523e39df7b0482b71ec63cf62cf85412047090600090a46000858152602560205260408120818155600181019190915560020180546001600160a01b03191690555b5050505050565b6000818152600160205260408120546001600160a01b031680620015d157600080fd5b60105460408051631ab0168360e31b8152905133926001600160a01b03169163d580b418916004808301926020929190829003018186803b1580156200261857600080fd5b505afa1580156200262d573d6000803e3d6000fd5b505050506040513d60208110156200264457600080fd5b50516001600160a01b0316146200265a57600080fd5b6000838152602360205260409020600701546001600160a01b031615620026fe5760008381526023602052604080822060070154601b5482516306cbb60560e41b81526004810187905260248101829052604481019190915291516001600160a01b0390911692636cbb6050926064808201939182900301818387803b158015620026e457600080fd5b505af1158015620026f9573d6000803e3d6000fd5b505050505b600083815260236020526040812054620027279060649062002264908663ffffffff62003f3d16565b6000858152602360205260409020549091506200274b908263ffffffff62003dee16565b600085815260236020526040902081905560135411806200276c5750600082115b156200277e576200277e84836200385f565b6000848152602360205260409020546200279f818363ffffffff62003dd416565b60405186907f35af9eea1f0e7b300b0a14fae90139a072470e44daa3f14b5069bebbc1265bda90600090a450505050565b600090565b60115481565b60006001600160a01b038216620027f157600080fd5b6001600160a01b0382166000908152600360205260409020620015d1906200427a565b6200281e62002e44565b6200282857600080fd5b600d546040516000916001600160a01b0316907f8be0079c531659141344cd1fd0a4f28419497f9722a3daafe3b4186f6b6457e0908390a3600d80546001600160a01b0319169055565b601b5481565b600081815260236020526040812080546003820154600483015460068401546007909401548594859485948594919390926001600160a01b031690600160a01b900460ff166002811115620028c957fe5b939a9299509097509550909350915050565b6010546001600160a01b031681565b6200160c3384848462003588565b6010546040805163253006b160e01b8152905133926001600160a01b03169163253006b1916004808301926020929190829003018186803b1580156200293d57600080fd5b505afa15801562002952573d6000803e3d6000fd5b505050506040513d60208110156200296957600080fd5b50516001600160a01b0316146200297f57600080fd5b600f546040805163a9059cbb60e01b81526001600160a01b038481166004830152602482018690529151919092169163a9059cbb9160448083019260209291908290030181600087803b158015620029d657600080fd5b505af1158015620029eb573d6000803e3d6000fd5b505050506040513d602081101562002a0257600080fd5b505162002a4c576040805162461bcd60e51b8152602060048201526013602482015272496e737566666963656e74207265776172647360681b604482015290519081900360640190fd5b5050565b50565b601b5460009081526024602052604090206001015490565b601a5481565b838360405160200180838152602001828152602001925050506040516020818303038152906040528051906020012073__Merkle________________________________636c8f455c909184602054856040518563ffffffff1660e01b81526004018085815260200184815260200183815260200180602001828103825283818151815260200191508051906020019080838360005b8381101562002b2157818101518382015260200162002b07565b50505050905090810190601f16801562002b4f5780820380516001836020036101000a031916815260200191505b509550505050505060206040518083038186803b15801562002b7057600080fd5b505af415801562002b85573d6000803e3d6000fd5b505050506040513d602081101562002b9c57600080fd5b505162002ba857600080fd5b60008481526023602052604081206002015462002bcd90859063ffffffff62003dee16565b6000868152602360205260409020600701549091506001600160a01b03168062002c2d5760008681526023602052604090206001015462002c15908363ffffffff62003dd416565b60008781526023602052604090206001015562002caa565b601b54600087815260236020526040808220548151630b37f25960e41b81526004810187905260248101949094526044840152516001600160a01b0384169263b37f259092606480830193919282900301818387803b15801562002c9057600080fd5b505af115801562002ca5573d6000803e3d6000fd5b505050505b601e8054830190819055601d54101562002cf65760405162461bcd60e51b815260040180806020018281038252603381526020018062005a676033913960400191505060405180910390fd5b600086815260236020526040808220600201879055518691849189917f41e5e4590cfcde2f03ee9281c54d03acad8adffb83f8310d66b894532470ba3591a4505050505050565b600d546001600160a01b031690565b813362002d5982620025b0565b6001600160a01b03161462002d6d57600080fd5b6001600160a01b0382161580159062002d9c57506001600160a01b038216600090815260226020526040902054155b62002da657600080fd5b6000838152602360205260408082206006015490516001600160a01b038086169392169186917f7dfd3bad1e3cac97d3b89ff06d78394523c4f08fdee4daa71a59160003240c899190a450600082815260236020818152604080842060060180546001600160a01b039081168652602284528286208690559590951680855290842086905594909252905280546001600160a01b0319169091179055565b600d546001600160a01b0316331490565b803362002e6282620025b0565b6001600160a01b03161462002e7657600080fd5b600082815260236020526040902060018101546007909101546001600160a01b0316801562002f1e5762002f1b816001600160a01b03166332ba2e536040518163ffffffff1660e01b8152600401602060405180830381600087803b15801562002edf57600080fd5b505af115801562002ef4573d6000803e3d6000fd5b505050506040513d602081101562002f0b57600080fd5b5051839063ffffffff62003dd416565b91505b6000848152602360209081526040808320600101839055600f54815163a9059cbb60e01b81523360048201526024810187905291516001600160a01b039091169363a9059cbb93604480850194919392918390030190829087803b15801562002f8657600080fd5b505af115801562002f9b573d6000803e3d6000fd5b505050506040513d602081101562002fb257600080fd5b505162002ffc576040805162461bcd60e51b8152602060048201526013602482015272496e737566666963656e74207265776172647360681b604482015290519081900360640190fd5b50505050565b600a8054604080516020601f6002600019610100600188161502019095169490940493840181900481028201810190925282815260609390929091830182828015620014105780601f10620013e45761010080835404028352916020019162001410565b600e546001600160a01b031681565b6200307f62002e44565b6200308957600080fd5b601955565b600080808080805b86518167ffffffffffffffff161015620032e9576060620030c4888367ffffffffffffffff1660416200427e565b60408051631df4cba560e21b8152600481018c81526024820192835283516044830152835193945060009373__ECVerify______________________________936377d32e94938f9388939092916064019060208501908083838c5b838110156200313a57818101518382015260200162003120565b50505050905090810190601f168015620031685780820380516001836020036101000a031916815260200191505b50935050505060206040518083038186803b1580156200318757600080fd5b505af41580156200319c573d6000803e3d6000fd5b505050506040513d6020811015620031b357600080fd5b50516001600160a01b03808216600081815260226020526040902054975091925085161415620031e5575050620032e9565b620031f08562001617565b80156200320e5750836001600160a01b0316816001600160a01b0316115b15620032de5760008581526023602052604090206007810154905491945084916001600160a01b03909116906200324d90889063ffffffff62003dd416565b96506001600160a01b03811615620032dc57620032d9816001600160a01b031663e655842f6040518163ffffffff1660e01b815260040160206040518083038186803b1580156200329d57600080fd5b505afa158015620032b2573d6000803e3d6000fd5b505050506040513d6020811015620032c957600080fd5b5051889063ffffffff62003dd416565b96505b505b505060410162003096565b506000620032f662003433565b90506200332460016200331760036200226485600263ffffffff62003f3d16565b9063ffffffff62003dd416565b8410156200333157600080fd5b929792965091945050505050565b6001600160a01b0382163314156200335657600080fd5b3360008181526004602090815260408083206001600160a01b03871680855290835292819020805460ff1916861515908117909155815190815290519293927f17307eab39ab6107e8899845ad3d59bd9653f200f220920489ca2b5937696c31929181900390910190a35050565b620033ce62002e44565b620033d857600080fd5b600081116200342e576040805162461bcd60e51b815260206004820181905260248201527f426c6f636b7320696e74657276616c206d757374206265206e6f6e2d7a65726f604482015290519081900360640190fd5b601655565b601b5460009081526024602052604090205490565b60195481565b6200345862002e44565b6200346257600080fd5b600e805460ff60a01b19169055565b6010546040805163253006b160e01b8152905133926001600160a01b03169163253006b1916004808301926020929190829003018186803b158015620034b657600080fd5b505afa158015620034cb573d6000803e3d6000fd5b505050506040513d6020811015620034e257600080fd5b50516001600160a01b031614620034f857600080fd5b601b5482101562003544576040805162461bcd60e51b815260206004820152601160248201527010d85b89dd0818da185b99d9481c185cdd607a1b604482015290519081900360640190fd5b6000918252602460205260409091208054909101905550565b60145481565b62003570848484620015e9565b6200357e8484848462004303565b62002ffc57600080fd5b600e54600160a01b900460ff1615620035a057600080fd5b601854620035ad62002a53565b10620035b857600080fd5b620035c384620027db565b1562003616576040805162461bcd60e51b815260206004820181905260248201527f4f6e6c79206f6e652074696d65207374616b696e6720697320616c6c6f776564604482015290519081900360640190fd5b60135483116200362557600080fd5b6001600160a01b038216600090815260226020526040902054156200364957600080fd5b600f54604080516323b872dd60e01b81523360048201523060248201526044810186905290516001600160a01b03909216916323b872dd916064808201926020929091908290030181600087803b158015620036a457600080fd5b505af1158015620036b9573d6000803e3d6000fd5b505050506040513d6020811015620036d057600080fd5b50516200371c576040805162461bcd60e51b8152602060048201526015602482015274151c985b9cd9995c881cdd185ad94819985a5b1959605a1b604482015290519081900360640190fd5b62002ffc8484848462004016565b6060620037378262003d33565b6200374157600080fd5b6000828152600b602090815260409182902080548351601f600260001961010060018616150201909316929092049182018490048402810184019094528084529091830182828015620037d85780601f10620037ac57610100808354040283529160200191620037d8565b820191906000526020600020905b815481529060010190602001808311620037ba57829003601f168201915b50505050509050919050565b620037ee62002e44565b620037f857600080fd5b600081116200380657600080fd5b60125460408051838152602081019290925280517ff67f33e8589d3ea0356303c0f9a8e764873692159f777ff79e4fc523d389dfcd9281900390910190a1601255565b601e5481565b600e54600160a01b900460ff1681565b600082815260236020526040812054601554601b54919291620038889163ffffffff62003dd416565b60008581526023602052604081206005810186905560070154919250906001600160a01b03161562003942576000858152602360209081526040808320600701548151633270933360e21b81526004810187905291516001600160a01b039091169363c9c24ccc93602480850194919392918390030190829087803b1580156200391157600080fd5b505af115801562003926573d6000803e3d6000fd5b505050506040513d60208110156200393d57600080fd5b505190505b620039568282850160000360001962003f15565b60008581526023602052604080822060048101859055600701805460ff60a01b1916600160a11b17905551839187917fa1735a3843d9467dd849a217582720a8af66b9d034712e0b21b0f5ece80670cd9190a35050505050565b8033620039bd82620025b0565b6001600160a01b031614620039d157600080fd5b6000828152602360205260409020600401541580159062003a195750601b54600c5460008481526023602052604090206004015462003a169163ffffffff62003dd416565b11155b62003a2357600080fd5b600082815260236020526040902054601a5462003a47908263ffffffff62003dee16565b601a5562003a558362004440565b600083815260236020818152604080842060068101546001600160a01b03908116865260228452828620869055600f54898752948452600190910154825163a9059cbb60e01b81523360048201529087016024820152915193169363a9059cbb93604480840194939192918390030190829087803b15801562003ad757600080fd5b505af115801562003aec573d6000803e3d6000fd5b505050506040513d602081101562003b0357600080fd5b505162003b0f57600080fd5b601a546040805183815260208101929092528051859233927f204fccf0d92ed8d48f204adb39b2e81e92bad0dedb93f5716ca9478cfb57de0092918290030190a3505050565b60125481565b60155481565b62003b6b62002e44565b62003b7557600080fd5b6000811162003b8357600080fd5b60115460408051838152602081019290925280517f9444bfcfa6aed72a15da73de1220dcc07d7864119c44abfec0037bbcacefda989281900390910190a1601181905562003bd981600263ffffffff62003f8116565b60155560115462003bf290600263ffffffff62003f3d16565b600c5560115462003c0b90600463ffffffff62003f8116565b601f819055601b5462003c249163ffffffff62003dd416565b60215550565b62003c3462002e44565b62003c3e57600080fd5b6001600160a01b03811662003c5257600080fd5b600e546040516001600160a01b038084169216907f211c9015fc81c0dbd45bd99f0f29fc1c143bfd53442d5ffd722bbbef7a887fe990600090a3600e80546001600160a01b0319166001600160a01b0392909216919091179055565b6001600160a01b03918216600090815260046020908152604080832093909416825291909152205460ff1690565b62003ce662002e44565b62003cf057600080fd5b62002a508162004456565b62003d0562002e44565b62003d0f57600080fd5b600e805460ff60a01b1916600160a01b179055565b600f546001600160a01b031681565b6000908152600160205260409020546001600160a01b0316151590565b60008062003d5e83620025b0565b9050806001600160a01b0316846001600160a01b0316148062003d9c5750836001600160a01b031662003d91846200141a565b6001600160a01b0316145b80620022c75750620022c7818562003cae565b62003dbc838383620044c6565b62003dc88382620045b0565b6200160c8282620046a5565b60008282018381101562003de757600080fd5b9392505050565b60008282111562003dfe57600080fd5b50900390565b60008281526023602052604081208054600482018490556007909101549091906001600160a01b03161562003ec1576000848152602360209081526040808320600701548151633270933360e21b81526004810188905291516001600160a01b039091169363c9c24ccc93602480850194919392918390030190829087803b15801562003e9057600080fd5b505af115801562003ea5573d6000803e3d6000fd5b505050506040513d602081101562003ebc57600080fd5b505190505b62003ed58382840160000360001962003f15565b6040805184815290518391869133917f51ff6d8ad000896362d1a3c9de9ad835adb6da92ec3ddee44018ef64f3c8b561919081900360200190a450505050565b6000928352602460205260409092208054909101815560010180549091019055565b50600190565b60008262003f4e57506000620015d1565b8282028284828162003f5c57fe5b041462003de757600080fd5b60008183101562003f7a578162003de7565b5090919050565b600080821162003f9057600080fd5b600082848162003f9c57fe5b04949350505050565b600081831062003f7a578162003de7565b601b5460009062003fcf90600163ffffffff62003dd416565b6000818152602460205260408082208054601b8054855283852054909101825560019182018054825486528486208401540190558054845291832083815501919091555550565b601a546200402b908463ffffffff62003dd416565b601a819055506040518061012001604052808481526020016000815260200160008152602001601b5481526020016000815260200160008152602001836001600160a01b031681526020018262004084576000620040d7565b60105460405187916001600160a01b031690620040a19062004a22565b6001600160a01b03928316815291166020820152604080519182900301906000f080158015620040d5573d6000803e3d6000fd5b505b6001600160a01b0316815260200160019052601c546000908152602360209081526040918290208351815590830151600182015590820151600280830191909155606083015160038301556080830151600483015560a0830151600583015560c08301516006830180546001600160a01b039283166001600160a01b03199182161790915560e0850151600785018054919093169116178082556101008501519260ff60a01b1990911690600160a01b9084908111156200419457fe5b0217905550905050620041aa84601c54620046e3565b601c546001600160a01b038316600090815260226020526040902055601b54620041d79084600162003f15565b601154601b54620041ee9163ffffffff62003dd416565b60256000601c54815260200190815260200160002060010181905550601b54601c54836001600160a01b03167f9cfd25589d1eb8ad71e342a86a8524e83522e3936c0803048c08f6d9ad974f4086601a54604051808381526020018281526020019250505060405180910390a4601c546200427190600163ffffffff62003dd416565b601c5550505050565b5490565b6060818301845110156200429157600080fd5b606082158015620042ae57604051915060208201604052620042fa565b6040519150601f8416801560200281840101858101878315602002848b0101015b81831015620042e9578051835260209283019201620042cf565b5050858452601f01601f1916604052505b50949350505050565b600062004319846001600160a01b031662004706565b6200432757506001620022c7565b604051630a85bd0160e11b815233600482018181526001600160a01b03888116602485015260448401879052608060648501908152865160848601528651600095928a169463150b7a029490938c938b938b939260a4019060208501908083838e5b83811015620043a357818101518382015260200162004389565b50505050905090810190601f168015620043d15780820380516001836020036101000a031916815260200191505b5095505050505050602060405180830381600087803b158015620043f457600080fd5b505af115801562004409573d6000803e3d6000fd5b505050506040513d60208110156200442057600080fd5b50516001600160e01b031916630a85bd0160e11b14915050949350505050565b62002a506200444f82620025b0565b826200470c565b6001600160a01b0381166200446a57600080fd5b600d546040516001600160a01b038084169216907f8be0079c531659141344cd1fd0a4f28419497f9722a3daafe3b4186f6b6457e090600090a3600d80546001600160a01b0319166001600160a01b0392909216919091179055565b826001600160a01b0316620044db82620025b0565b6001600160a01b031614620044ef57600080fd5b6001600160a01b0382166200450357600080fd5b6200450e8162004759565b6001600160a01b0383166000908152600360205260409020620045319062004795565b6001600160a01b03821660009081526003602052604090206200455490620047ae565b60008181526001602052604080822080546001600160a01b0319166001600160a01b0386811691821790925591518493918716917fddf252ad1be2c89b69c2b068fc378daa952ba7f163c4a11628f55a4df523b3ef91a4505050565b6001600160a01b038216600090815260056020526040812054620045dc90600163ffffffff62003dee16565b6000838152600660205260409020549091508082146200467a576001600160a01b03841660009081526005602052604081208054849081106200461b57fe5b906000526020600020015490508060056000876001600160a01b03166001600160a01b0316815260200190815260200160002083815481106200465a57fe5b600091825260208083209091019290925591825260069052604090208190555b6001600160a01b0384166000908152600560205260409020805490620025a990600019830162004a30565b6001600160a01b0390911660009081526005602081815260408084208054868652600684529185208290559282526001810183559183529091200155565b620046ef8282620047b7565b620046fb8282620046a5565b62002a4c816200485e565b3b151590565b620047188282620048a2565b6000818152600b6020526040902054600260001961010060018416150201909116041562002a4c576000818152600b6020526040812062002a4c9162004a57565b6000818152600260205260409020546001600160a01b03161562002a5057600090815260026020526040902080546001600160a01b0319169055565b8054620047aa90600163ffffffff62003dee16565b9055565b80546001019055565b6001600160a01b038216620047cb57600080fd5b620047d68162003d33565b15620047e157600080fd5b600081815260016020908152604080832080546001600160a01b0319166001600160a01b0387169081179091558352600390915290206200482290620047ae565b60405181906001600160a01b038416906000907fddf252ad1be2c89b69c2b068fc378daa952ba7f163c4a11628f55a4df523b3ef908290a45050565b600780546000838152600860205260408120829055600182018355919091527fa66cc928b5edb82af9bd49922954155ab7b0942694bea4ce44661d9a8736c6880155565b620048ae8282620048d4565b620048ba8282620045b0565b60008181526006602052604081205562002a4c8162004980565b816001600160a01b0316620048e982620025b0565b6001600160a01b031614620048fd57600080fd5b620049088162004759565b6001600160a01b03821660009081526003602052604090206200492b9062004795565b60008181526001602052604080822080546001600160a01b0319169055518291906001600160a01b038516907fddf252ad1be2c89b69c2b068fc378daa952ba7f163c4a11628f55a4df523b3ef908390a45050565b6007546000906200499990600163ffffffff62003dee16565b60008381526008602052604081205460078054939450909284908110620049bc57fe5b906000526020600020015490508060078381548110620049d857fe5b6000918252602080832090910192909255828152600890915260409020829055600780549062004a0d90600019830162004a30565b50505060009182525060086020526040812055565b610fab8062004abc83390190565b8154818355818111156200160c576000838152602090206200160c91810190830162004a9a565b50805460018160011615610100020316600290046000825580601f1062004a7f575062002a50565b601f01602090049060005260206000209081019062002a5091905b6200137d91905b8082111562004ab7576000815560010162004aa1565b509056fe60806040526000600381905560048190556005556007805460ff60a01b191674010000000000000000000000000000000000000000179055600a60095534801561004857600080fd5b50604051610fab380380610fab8339818101604052604081101561006b57600080fd5b508051602090910151600080546001600160a01b03191633178082556040516001600160a01b039190911691907f8be0079c531659141344cd1fd0a4f28419497f9722a3daafe3b4186f6b6457e0908290a3600680546001600160a01b039384166001600160a01b03199182161790915560078054929093169116179055610eb3806100f86000396000f3fe608060405234801561001057600080fd5b506004361061014d5760003560e01c80638a274720116100c3578063b37f25901161007c578063b37f2590146102eb578063c9c24ccc14610314578063cfe0a45314610331578063e655842f14610360578063f2fde38b14610368578063fd73091c1461038e5761014d565b80638a2747201461025e5780638da5cb5b146102945780638f32d59b1461029c5780638f546b09146102b85780639ec5a894146102c0578063a32dd342146102c85761014d565b8063646033bc11610115578063646033bc146101e05780636b749129146101e85780636cbb60501461021d578063713f774314610246578063715018a61461024e5780637b103999146102565761014d565b806319480af81461015257806332ba2e531461017d5780633a5381b5146101975780635be612c7146101bb5780635d1e3616146101d8575b600080fd5b61017b6004803603606081101561016857600080fd5b50803590602081013590604001356103ab565b005b61018561053f565b60408051918252519081900360200190f35b61019f61055f565b604080516001600160a01b039092168252519081900360200190f35b610185600480360360208110156101d157600080fd5b503561056e565b61018561058c565b610185610592565b610185600480360360a08110156101fe57600080fd5b5080359060208101359060408101359060608101359060800135610598565b61017b6004803603606081101561023357600080fd5b5080359060208101359060400135610602565b61018561078f565b61017b610796565b61019f6107f1565b61027b6004803603602081101561027457600080fd5b5035610800565b6040805192835260208301919091528051918290030190f35b61019f610819565b6102a4610828565b604080519115158252519081900360200190f35b610185610839565b61018561083f565b610185600480360360408110156102de57600080fd5b5080359060200135610845565b61017b6004803603606081101561030157600080fd5b5080359060208101359060400135610867565b6101856004803603602081101561032a57600080fd5b50356108ee565b61017b6004803603608081101561034757600080fd5b5080359060208101359060408101359060600135610aa9565b610185610bd9565b61017b6004803603602081101561037e57600080fd5b50356001600160a01b0316610bdf565b610185600480360360208110156103a457600080fd5b5035610bfc565b6007546040805163253006b160e01b8152905133926001600160a01b03169163253006b1916004808301926020929190829003018186803b1580156103ef57600080fd5b505afa158015610403573d6000803e3d6000fd5b505050506040513d602081101561041957600080fd5b50516001600160a01b03161461042e57600080fd5b600754600160a01b900460ff1661044457600080fd5b60008381526008602052604090206001015415806104ee57506104d9610468610819565b6001600160a01b0316630ebb172a6040518163ffffffff1660e01b815260040160206040518083038186803b1580156104a057600080fd5b505afa1580156104b4573d6000803e3d6000fd5b505050506040513d60208110156104ca57600080fd5b5051829063ffffffff610d5f16565b60008481526008602052604090206001015411155b6104f757600080fd5b6002805460018082019092557f405787fa12a823e0f2b7631cc41b3ba8828b3321ca811111fa75cd3aa3bb5ace01849055600093845260086020526040909320558154019055565b6000610549610828565b61055257600080fd5b5060048054600090915590565b6006546001600160a01b031681565b6002818154811061057b57fe5b600091825260209091200154905081565b60045481565b60095481565b600080836105a4578293505b845b848110156105f7576000818152600a6020526040902054156105ef576000818152600a60205260409020600181015490546105ea919089029063ffffffff610d7916565b820191505b6001016105a6565b509695505050505050565b61060a610828565b61061357600080fd5b6007546040805163253006b160e01b815290516000926001600160a01b03169163253006b1916004808301926020929190829003018186803b15801561065857600080fd5b505afa15801561066c573d6000803e3d6000fd5b505050506040513d602081101561068257600080fd5b505190508282141561078957606060028054806020026020016040519081016040528092919081815260200182805480156106dc57602002820191906000526020600020905b8154815260200190600101908083116106c8575b50506040805163ce5d67d960e01b8152602481018b9052600481019182528551604482015285519596506001600160a01b0388169563ce5d67d995508794508b93508291606401906020808701910280838360005b83811015610749578181015183820152602001610731565b505050509050019350505050600060405180830381600087803b15801561076f57600080fd5b505af1158015610783573d6000803e3d6000fd5b50505050505b50505050565b6002545b90565b61079e610828565b6107a757600080fd5b600080546040516001600160a01b03909116907f8be0079c531659141344cd1fd0a4f28419497f9722a3daafe3b4186f6b6457e0908390a3600080546001600160a01b0319169055565b6007546001600160a01b031681565b600a602052600090815260409020805460019091015482565b6000546001600160a01b031690565b6000546001600160a01b0316331490565b60055481565b60035481565b6008602052816000526040600020816002811061085e57fe5b01549150829050565b61086f610828565b61087857600080fd5b60006108a0606461089460095487610d9b90919063ffffffff16565b9063ffffffff610d7916565b905060015482018282860302816108b357fe5b6004805492909104929092019081019091556003805491909403908101909355506000908152600a6020526040902090815560018054910155565b60006108f8610828565b61090157600080fd5b6007805460ff60a01b1981169091556040805163253006b160e01b815290516000926001600160a01b03169163253006b1916004808301926020929190829003018186803b15801561095257600080fd5b505afa158015610966573d6000803e3d6000fd5b505050506040513d602081101561097c57600080fd5b505160028054604080516020838102820181019092528281529394506060939291908301828280156109cd57602002820191906000526020600020905b8154815260200190600101908083116109b9575b5050600654604051636a2aebd760e01b8152602481018a90526001600160a01b039182166044820181905260606004830190815287516064840152875197985092891696636a2aebd796508895508b945090929182916084909101906020808801910280838360005b83811015610a4e578181015183820152602001610a36565b50505050905001945050505050602060405180830381600087803b158015610a7557600080fd5b505af1158015610a89573d6000803e3d6000fd5b505050506040513d6020811015610a9f57600080fd5b5051949350505050565b6007546040805163253006b160e01b8152905133926001600160a01b03169163253006b1916004808301926020929190829003018186803b158015610aed57600080fd5b505afa158015610b01573d6000803e3d6000fd5b505050506040513d6020811015610b1757600080fd5b50516001600160a01b031614610b2c57600080fd5b8360028481548110610b3a57fe5b906000526020600020015414610b4f57600080fd5b6000848152600860205260409020819060010155600180548390039055600280546000198101908110610b7e57fe5b906000526020600020015460028481548110610b9657fe5b600091825260209091200155600280546000198101908110610bb457fe5b60009182526020822001556002805490610bd2906000198301610e37565b5050505050565b60015481565b610be7610828565b610bf057600080fd5b610bf981610dc9565b50565b6000610c06610828565b610c0f57600080fd5b6007805460ff60a01b1916600160a01b17908190556040805163253006b160e01b815290516000926001600160a01b03169163253006b1916004808301926020929190829003018186803b158015610c6657600080fd5b505afa158015610c7a573d6000803e3d6000fd5b505050506040513d6020811015610c9057600080fd5b50516002805460408051602083810282018101909252828152939450606093929190830182828015610ce157602002820191906000526020600020905b815481526020019060010190808311610ccd575b505060065460405163b0cd600160e01b8152602481018a90526001600160a01b03918216604482018190526060600483019081528751606484015287519798509289169663b0cd600196508895508b945090929182916084909101906020878101910280838360008315610a4e578181015183820152602001610a36565b600082821115610d6e57600080fd5b508082035b92915050565b6000808211610d8757600080fd5b6000828481610d9257fe5b04949350505050565b600082610daa57506000610d73565b82820282848281610db757fe5b0414610dc257600080fd5b9392505050565b6001600160a01b038116610ddc57600080fd5b600080546040516001600160a01b03808516939216917f8be0079c531659141344cd1fd0a4f28419497f9722a3daafe3b4186f6b6457e091a3600080546001600160a01b0319166001600160a01b0392909216919091179055565b815481835581811115610e5b57600083815260209020610e5b918101908301610e60565b505050565b61079391905b80821115610e7a5760008155600101610e66565b509056fea265627a7a723158206c199558dbda8ddc5add3cef07724832f0fd0a142ffcfef90e981d9ccc12b57764736f6c634300050b00324c69717569646174696e67206d6f72652072657761726473207468656e20636865636b706f696e7473207375626d6974746564436f6e6669726d6174696f6e206973206e6f7420616c6c6f776564206265666f72652061756374696f6e506572696f64a265627a7a723158209331e34223369fe5c80a5fe1082816d8a2e6e03727b15f7ceef4f881a2e4d69a64736f6c634300050b0032",
  "source": "pragma solidity ^0.5.2;\n\nimport { IERC20 } from \"openzeppelin-solidity/contracts/token/ERC20/IERC20.sol\";\nimport { ERC721Full } from \"openzeppelin-solidity/contracts/token/ERC721/ERC721Full.sol\";\nimport { Math } from \"openzeppelin-solidity/contracts/math/Math.sol\";\nimport { SafeMath } from \"openzeppelin-solidity/contracts/math/SafeMath.sol\";\n\nimport { BytesLib } from \"../common/lib/BytesLib.sol\";\nimport { ECVerify } from \"../common/lib/ECVerify.sol\";\nimport { Merkle } from \"../common/lib/Merkle.sol\";\nimport { Lockable } from \"../common/mixin/Lockable.sol\";\nimport { RootChainable } from \"../common/mixin/RootChainable.sol\";\nimport { Registry } from \"../common/Registry.sol\";\nimport { IStakeManager } from \"./IStakeManager.sol\";\nimport { Validator } from \"./Validator.sol\";\nimport { ValidatorContract } from \"./Validator.sol\";\n\n\ncontract StakeManager is Validator, IStakeManager, RootChainable, Lockable {\n  using SafeMath for uint256;\n  using ECVerify for bytes32;\n  using Merkle for bytes32;\n\n\n  IERC20 public token;\n  address public registry;\n  // genesis/governance variables\n  uint256 public dynasty = 2**13;  // unit: epoch 50 days\n  uint256 public checkpointReward = 10000 * (10**18); // @todo update according to Chain\n  uint256 public MIN_DEPOSIT_SIZE = (10**18);  // in ERC20 token\n  uint256 public EPOCH_LENGTH = 256; // unit : block\n  uint256 public UNSTAKE_DELAY = dynasty.mul(2); // unit: epoch\n  uint256 public checkPointBlockInterval = 255;\n\n  // TODO: add events and gov. based update function\n  uint256 public proposerToSignerRewards = 10; // will be used with fraud proof\n\n  uint256 public validatorThreshold = 10; //128\n  uint256 public minLockInPeriod = 2; // unit: dynasty\n  uint256 public totalStaked;\n  uint256 public currentEpoch = 1;\n  uint256 public NFTCounter = 1;\n  uint256 public totalRewards;\n  uint256 public totalRewardsLiquidated;\n  uint256 public auctionPeriod = dynasty.div(4); // 1 week in epochs\n  bytes32 public accountStateRoot;\n\n  // on dynasty update certain amount of cooldown period where there is no validator auction\n  uint256 replacementCoolDown;\n\n  enum Status { Inactive, Active, Locked }\n\n  struct Validator {\n    uint256 amount;\n    uint256 reward;\n    uint256 claimedRewards;\n    uint256 activationEpoch;\n    uint256 deactivationEpoch;\n    uint256 jailTime;\n    address signer;\n    address contractAddress;\n    Status status;\n  }\n\n  struct Auction {\n    uint256 amount;\n    uint256 startEpoch;\n    address user;\n  }\n\n  struct State {\n    int256 amount;\n    int256 stakerCount;\n  }\n\n  // signer to Validator mapping\n  mapping (address => uint256) public signerToValidator;\n  // validator metadata\n  mapping (uint256 => Validator) public validators;\n  //Mapping for epoch to totalStake for that epoch\n  mapping (uint256 => State) public validatorState;\n  //Ongoing auctions for validatorId\n  mapping (uint256 => Auction) public validatorAuction;\n\n  constructor (address _registry, address _rootchain) ERC721Full(\"Matic Validator\", \"MV\") public {\n    registry = _registry;\n    rootChain = _rootchain;\n  }\n\n  modifier onlyStaker(uint256 validatorId) {\n    require(ownerOf(validatorId) == msg.sender);\n    _;\n  }\n\n  modifier onlySlashingMananger() {\n    require(Registry(registry).getSlashingManagerAddress() == msg.sender);\n    _;\n  }\n\n  function stake(uint256 amount, address signer, bool isContract) external {\n    stakeFor(msg.sender, amount, signer, isContract);\n  }\n\n  function stakeFor(address user, uint256 amount, address signer, bool isContract) public onlyWhenUnlocked {\n    require(currentValidatorSetSize() < validatorThreshold);\n    require(balanceOf(user) == 0, \"Only one time staking is allowed\");\n    require(amount > MIN_DEPOSIT_SIZE);\n    require(signerToValidator[signer] == 0);\n\n    require(token.transferFrom(msg.sender, address(this), amount), \"Transfer stake failed\");\n    _stakeFor(user, amount, signer, isContract);\n  }\n\n  function _stakeFor(address user, uint256 amount, address signer, bool isContract) internal {\n    totalStaked = totalStaked.add(amount);\n\n    validators[NFTCounter] = Validator({\n      reward: 0,\n      amount: amount,\n      claimedRewards: 0,\n      activationEpoch: currentEpoch,\n      deactivationEpoch: 0,\n      jailTime: 0,\n      signer: signer,\n      contractAddress: isContract ? address(new ValidatorContract(user, registry)) : address(0x0),\n      status : Status.Active\n    });\n\n    _mint(user, NFTCounter);\n\n    signerToValidator[signer] = NFTCounter;\n    updateTimeLine(currentEpoch, int256(amount), 1);\n    // no Auctions for 1 dynasty\n    validatorAuction[NFTCounter].startEpoch = currentEpoch.add(dynasty);\n    emit Staked(signer, NFTCounter, currentEpoch, amount, totalStaked);\n    NFTCounter = NFTCounter.add(1);\n  }\n\n  function perceivedStakeFactor(uint256 validatorId) internal returns(uint256){\n    // TODO: use age, rewardRatio, and slashing/reward rate\n    return 1;\n  }\n\n  function startAuction(uint256 validatorId, uint256 amount) external {\n    require(isValidator(validatorId));\n    // when dynasty period is updated validators are in cool down period\n    require(replacementCoolDown == 0 || replacementCoolDown <= currentEpoch, \"Cool down period\");\n    require(auctionPeriod >= currentEpoch.sub(validatorAuction[validatorId].startEpoch), \"Invalid auction period\");\n    // (dynasty--auctionPeriod)--(dynasty--auctionPeriod)--(dynasty--auctionPeriod)\n    // if it's auctionPeriod then will get residue from (CurrentPeriod of validator )%(dynasty--auctionPeriod)\n    // make sure that its `auctionPeriod` window\n    // dynasty = 30, auctionPeriod = 7, activationEpoch = 1, currentEpoch = 39\n    // residue 1 = (39-1)% (30+7), if residue-dynasty  > 0 it's `auctionPeriod`\n    require((currentEpoch.sub(validators[validatorId].activationEpoch) % dynasty.add(auctionPeriod)) > dynasty, \"Not an auction time\");\n\n    require(token.transferFrom(msg.sender, address(this), amount), \"Transfer amount failed\");\n\n    uint256 perceivedStake = validators[validatorId].amount.mul(perceivedStakeFactor(validatorId));\n    perceivedStake = Math.max(perceivedStake, validatorAuction[validatorId].amount);\n\n    require(perceivedStake < amount, \"Must bid higher amount\");\n\n    // create new auction\n    if (validatorAuction[validatorId].amount == 0) {\n      validatorAuction[validatorId] = Auction({\n        amount: amount,\n        startEpoch: currentEpoch,\n        user: msg.sender\n      });\n    } else { //replace prev auction\n      Auction storage auction = validatorAuction[validatorId];\n      require(token.transfer(auction.user, auction.amount));\n      auction.amount = amount;\n      auction.user = msg.sender;\n    }\n    emit StartAuction(validatorId, validators[validatorId].amount, validatorAuction[validatorId].amount);\n  }\n\n  function confirmAuctionBid(uint256 validatorId, address signer, bool isContract) external onlyWhenUnlocked {\n    Auction storage auction = validatorAuction[validatorId];\n    Validator storage validator = validators[validatorId];\n    require(auction.user == msg.sender);\n    require(auctionPeriod.add(auction.startEpoch) <= currentEpoch, \"Confirmation is not allowed before auctionPeriod\");\n\n    // validator is last auctioner\n    if (auction.user == ownerOf(validatorId)) {\n      uint256 refund = validator.amount;\n      require(token.transfer(auction.user, refund));\n      validator.amount = auction.amount;\n\n      //cleanup auction data\n      auction.amount = 0;\n      auction.user = address(0x0);\n      auction.startEpoch = currentEpoch.add(dynasty);\n      //update total stake amount\n      totalStaked = totalStaked.add(validator.amount.sub(refund));\n      emit StakeUpdate(validatorId, refund, validator.amount);\n      emit ConfirmAuction(validatorId, validatorId, validator.amount);\n    } else {\n      // dethrone\n      _unstake(validatorId, currentEpoch);\n      _stakeFor(auction.user, auction.amount, signer, isContract);\n\n      emit ConfirmAuction(NFTCounter.sub(1), validatorId, auction.amount);\n      delete validatorAuction[validatorId];\n    }\n  }\n\n  function unstake(uint256 validatorId) external onlyStaker(validatorId) {\n    require(validatorAuction[validatorId].amount == 0, \"Wait for auction completion\");\n    uint256 exitEpoch = currentEpoch.add(1);// notice period\n    require(validators[validatorId].activationEpoch > 0 &&\n      validators[validatorId].deactivationEpoch == 0 &&\n      validators[validatorId].status == Status.Active);\n    _unstake(validatorId, exitEpoch);\n  }\n\n  function _unstake(uint256 validatorId, uint256 exitEpoch) internal {\n    //Todo: add state here consider jail\n    uint256 amount = validators[validatorId].amount;\n\n    validators[validatorId].deactivationEpoch = exitEpoch;\n\n    // unbond all delegators in future\n    int256 delegationAmount = 0;\n    if (validators[validatorId].contractAddress != address(0x0)) {\n      delegationAmount = ValidatorContract(validators[validatorId].contractAddress).unBondAllLazy(exitEpoch);\n    }\n\n    //  update future\n    updateTimeLine(exitEpoch,  -(int256(amount) + delegationAmount ), -1);\n\n    emit UnstakeInit(msg.sender, validatorId, exitEpoch, amount);\n  }\n\n  function unstakeClaim(uint256 validatorId) public onlyStaker(validatorId) {\n    // can only claim stake back after WITHDRAWAL_DELAY\n    require(validators[validatorId].deactivationEpoch > 0 && validators[validatorId].deactivationEpoch.add(WITHDRAWAL_DELAY) <= currentEpoch);\n    uint256 amount = validators[validatorId].amount;\n    totalStaked = totalStaked.sub(amount);\n\n    // TODO :add slashing here use soft slashing in slash amt variable\n    _burn(validatorId);\n    delete signerToValidator[validators[validatorId].signer];\n    // delete validators[validatorId];\n\n    require(token.transfer(msg.sender, amount + validators[validatorId].reward));\n    emit Unstaked(msg.sender, validatorId, amount, totalStaked);\n  }\n\n  // slashing and jail interface\n  function restake(uint256 validatorId, uint256 amount, bool stakeRewards) public onlyStaker(validatorId) {\n    require(validators[validatorId].deactivationEpoch < currentEpoch, \"No use of restaking\");\n\n    if (amount > 0) {\n      require(token.transferFrom(msg.sender, address(this), amount), \"Transfer stake\");\n    }\n    if (stakeRewards) {\n      amount += validators[validatorId].reward;\n      validators[validatorId].reward = 0;\n    }\n    totalStaked = totalStaked.add(amount);\n    validators[validatorId].amount += amount;\n    validatorState[currentEpoch].amount = (\n      validatorState[currentEpoch].amount + int256(amount));\n\n    emit StakeUpdate(validatorId, validators[validatorId].amount.sub(amount), validators[validatorId].amount);\n    emit ReStaked(validatorId, validators[validatorId].amount, totalStaked);\n  }\n\n  function claimRewards(uint256 validatorId, uint256 accountBalance, uint256 index, bytes memory proof) public /*onlyStaker(validatorId) */ {\n    // accountState = keccak256(abi.encodePacked(validatorId, accountBalance))\n    require(keccak256(abi.encodePacked(validatorId, accountBalance)).checkMembership(index, accountStateRoot, proof));\n    uint256 _reward = accountBalance.sub(validators[validatorId].claimedRewards);\n    address _contract = validators[validatorId].contractAddress;\n    if (_contract == address(0x0)) {\n      validators[validatorId].reward = validators[validatorId].reward.add(_reward);\n    }\n    else {\n      // TODO: delegator bond/share rate if return needs to be updated periodically\n      // otherwise validator can delay and get all the delegators reward\n      ValidatorContract(_contract).updateRewards(_reward, currentEpoch, validators[validatorId].amount);\n    }\n    totalRewardsLiquidated += _reward;\n    require(totalRewardsLiquidated <= totalRewards, \"Liquidating more rewards then checkpoints submitted\");// pos 2/3+1 is colluded\n    validators[validatorId].claimedRewards = accountBalance;\n    emit ClaimRewards(validatorId, _reward, accountBalance);\n  }\n\n  function withdrawRewards(uint256 validatorId) public onlyStaker(validatorId) {\n    uint256 amount = validators[validatorId].reward;\n    address _contract = validators[validatorId].contractAddress;\n    if (_contract != address(0x0)) {\n      amount = amount.add(ValidatorContract(_contract).withdrawRewardsValidator());\n    }\n    validators[validatorId].reward = 0;\n    require(token.transfer(msg.sender, amount), \"Insufficent rewards\");\n  }\n\n  function delegationTransfer(uint256 amount, address delegator) external {\n    require(Registry(registry).getDelegationManagerAddress() == msg.sender);\n    require(token.transfer(delegator, amount), \"Insufficent rewards\");\n  }\n\n  // if not jailed then in state of warning, else will be unstaking after x epoch\n  function slash(uint256 validatorId, uint256 slashingRate, uint256 jailCheckpoints) public onlySlashingMananger {\n    // if contract call contract.slash\n    if (validators[validatorId].contractAddress != address(0x0)) {\n      ValidatorContract(validators[validatorId].contractAddress).slash(slashingRate, currentEpoch, currentEpoch);\n    }\n    uint256 amount = validators[validatorId].amount.mul(slashingRate).div(100);\n    validators[validatorId].amount = validators[validatorId].amount.sub(amount);\n    if(validators[validatorId].amount < MIN_DEPOSIT_SIZE || jailCheckpoints > 0) {\n        jail(validatorId, jailCheckpoints);\n    }\n    // todo: slash event\n    emit StakeUpdate(validatorId, validators[validatorId].amount.add(amount), validators[validatorId].amount);\n  }\n\n  function unJail(uint256 validatorId) public onlyStaker(validatorId) {\n    require(validators[validatorId].deactivationEpoch > currentEpoch &&\n      validators[validatorId].jailTime <= currentEpoch &&\n      validators[validatorId].status == Status.Locked);\n\n    uint256 amount = validators[validatorId].amount;\n    require(amount >= MIN_DEPOSIT_SIZE);\n    uint256 exitEpoch = validators[validatorId].deactivationEpoch;\n\n    int256 delegationAmount = 0;\n    if (validators[validatorId].contractAddress != address(0x0)) {\n      delegationAmount = ValidatorContract(validators[validatorId].contractAddress).revertLazyUnBonding(exitEpoch);\n    }\n\n    // undo timline so that validator is normal validator\n    updateTimeLine(exitEpoch,  (int256(amount) + delegationAmount ), 1);\n\n    validators[validatorId].deactivationEpoch = 0;\n    validators[validatorId].status = Status.Active;\n    validators[validatorId].jailTime = 0;\n  }\n\n  // in context of slashing\n  function jail(uint256 validatorId, uint256 jailCheckpoints) public /** only*/ {\n    // Todo: requires and more conditions\n    uint256 amount = validators[validatorId].amount;\n    // should unbond instantly\n    uint256 exitEpoch = currentEpoch.add(UNSTAKE_DELAY);  // jail period\n\n    int256 delegationAmount = 0;\n    validators[validatorId].jailTime = jailCheckpoints;\n    if (validators[validatorId].contractAddress != address(0x0)) {\n      delegationAmount = ValidatorContract(validators[validatorId].contractAddress).unBondAllLazy(exitEpoch);\n    }\n    // update future in case of no `unJail`\n    updateTimeLine(exitEpoch,  -(int256(amount) + delegationAmount ), -1);\n    validators[validatorId].deactivationEpoch = exitEpoch;\n    validators[validatorId].status = Status.Locked;\n    emit Jailed(validatorId, exitEpoch);\n  }\n\n  function updateTimeLine(uint256 epoch, int256 amount, int256 stakerCount) private {\n    validatorState[epoch].amount += amount;\n    validatorState[epoch].stakerCount += stakerCount;\n  }\n\n  // returns valid validator for current epoch\n  function getCurrentValidatorSet() public view returns (uint256[] memory) {\n    uint256[] memory _validators = new uint256[](validatorThreshold);\n    uint256 validator;\n    uint256 k = 0;\n    for (uint96 i = 0;i < totalSupply() ;i++) {\n      validator = tokenByIndex(i);\n      if (isValidator(validator)) {\n        _validators[k++] = validator;\n      }\n    }\n    return _validators;\n  }\n\n  function getStakerDetails(uint256 validatorId) public view returns(uint256, uint256, uint256, address, uint256) {\n    return (\n      validators[validatorId].amount,\n      validators[validatorId].activationEpoch,\n      validators[validatorId].deactivationEpoch,\n      validators[validatorId].signer,\n      uint256(validators[validatorId].status)\n      );\n  }\n\n  function getValidatorId(address user) public view returns(uint256) {\n    return tokenOfOwnerByIndex(user, 0);\n  }\n\n  function totalStakedFor(address user) external view returns (uint256) {\n    if (user == address(0x0) || balanceOf(user) == 0) {\n      return 0;\n    }\n    return validators[tokenOfOwnerByIndex(user, 0)].amount;\n  }\n\n  function supportsHistory() external pure returns (bool) {\n    return false;\n  }\n\n  // set staking Token\n  function setToken(address _token) public onlyOwner {\n    require(_token != address(0x0));\n    token = IERC20(_token);\n  }\n\n  // Change the number of validators required to allow a passed header root\n  function updateValidatorThreshold(uint256 newThreshold) public onlyOwner {\n    require(newThreshold > 0);\n    emit ThresholdChange(newThreshold, validatorThreshold);\n    validatorThreshold = newThreshold;\n  }\n\n  function updateCheckPointBlockInterval(uint256 _blocks) public onlyOwner {\n    require(_blocks > 0, \"Blocks interval must be non-zero\");\n    checkPointBlockInterval = _blocks;\n  }\n\n  // Change reward for each checkpoint\n  function updateCheckpointReward(uint256 newReward) public onlyOwner {\n    require(newReward > 0);\n    emit RewardUpdate(newReward, checkpointReward);\n    checkpointReward = newReward;\n  }\n\n  function updateValidatorState(uint256 validatorId, uint256 epoch, int256 amount) public {\n    require(Registry(registry).getDelegationManagerAddress() == msg.sender);\n    require(epoch >= currentEpoch, \"Can't change past\");\n    validatorState[epoch].amount = (\n      validatorState[epoch].amount + amount\n    );\n  }\n\n  function updateDynastyValue(uint256 newDynasty) public onlyOwner {\n    require(newDynasty > 0);\n    emit DynastyValueChange(newDynasty, dynasty);\n    dynasty = newDynasty;\n    UNSTAKE_DELAY = dynasty.div(2);\n    WITHDRAWAL_DELAY = dynasty.mul(2);\n    auctionPeriod = dynasty.div(4);\n    // set cool down period\n    replacementCoolDown = currentEpoch.add(auctionPeriod);\n  }\n\n  function updateSigner(uint256 validatorId, address _signer) public onlyStaker(validatorId) {\n    require(_signer != address(0x0) && signerToValidator[_signer] == 0);\n\n    // update signer event\n    emit SignerChange(validatorId, validators[validatorId].signer, _signer);\n\n    delete signerToValidator[validators[validatorId].signer];\n    signerToValidator[_signer] = validatorId;\n    validators[validatorId].signer = _signer;\n  }\n\n  function finalizeCommit() internal {\n    uint256 nextEpoch = currentEpoch.add(1);\n    // update totalstake and validator count\n    validatorState[nextEpoch].amount = (\n      validatorState[currentEpoch].amount + validatorState[nextEpoch].amount\n    );\n    validatorState[nextEpoch].stakerCount = (\n      validatorState[currentEpoch].stakerCount + validatorState[nextEpoch].stakerCount\n    );\n\n    // erase old data/history\n    delete validatorState[currentEpoch];\n    currentEpoch = nextEpoch;\n  }\n\n  function updateMinLockInPeriod(uint256 epochs) public onlyOwner {\n    minLockInPeriod = epochs;\n  }\n\n  function currentValidatorSetSize() public view returns (uint256) {\n    return uint256(validatorState[currentEpoch].stakerCount);\n  }\n\n  function currentValidatorSetTotalStake() public view returns (uint256) {\n    return uint256(validatorState[currentEpoch].amount);\n  }\n\n  function getValidatorContract(uint256 validatorId) public view returns(address) {\n    return validators[validatorId].contractAddress;\n  }\n\n  function isValidator(uint256 validatorId) public view returns (bool) {\n    return (\n      validators[validatorId].amount > 0 &&\n      (validators[validatorId].activationEpoch != 0 &&\n      validators[validatorId].activationEpoch <= currentEpoch ) &&\n      (validators[validatorId].deactivationEpoch == 0 ||\n      validators[validatorId].deactivationEpoch > currentEpoch) &&\n      validators[validatorId].status == Status.Active // Todo: reduce logic\n    );\n  }\n\n  function checkSignatures(uint256 blockInterval, bytes32 voteHash, bytes32 stateRoot, bytes memory sigs) public onlyRootChain returns(uint256) {\n    uint256 stakePower;\n    uint256 _totalStake;\n    (stakePower, _totalStake) = checkTwoByThreeMajority(voteHash, sigs);\n    // checkpoint rewards are based on BlockInterval multiplied on `checkpointReward`\n    // with actual `blockInterval`\n    // eg. checkpointReward = 10 Tokens, checkPointBlockInterval = 250, blockInterval = 500 then reward\n    // for this checkpoint is 20 Tokens\n    uint256 _reward = blockInterval.mul(checkpointReward).div(checkPointBlockInterval);\n    _reward = Math.min(checkpointReward, _reward).mul(stakePower).div(_totalStake);\n    totalRewards = totalRewards.add(_reward);\n\n    // update stateMerkleTree root for accounts balance on heimdall chain\n    // for previous checkpoint rewards\n    accountStateRoot = stateRoot;\n    finalizeCommit();\n    return _reward;\n  }\n\n  function checkTwoByThreeMajority(bytes32 voteHash, bytes memory sigs) public view returns(uint256, uint256) {\n    // total voting power\n    uint256 stakePower;\n    uint256 validatorId;\n    address lastAdd = address(0x0); // cannot have address(0x0) as an owner\n    for (uint64 i = 0; i < sigs.length; i += 65) {\n      bytes memory sigElement = BytesLib.slice(sigs, i, 65);\n      address signer = voteHash.ecrecovery(sigElement);\n\n      validatorId = signerToValidator[signer];\n      // check if signer is stacker and not proposer\n      if (signer == lastAdd) {\n        break;\n      }\n      else if (\n        isValidator(validatorId) &&\n        signer > lastAdd\n      ) {\n        lastAdd = signer;\n        address _contract = validators[validatorId].contractAddress;\n        stakePower = stakePower.add(validators[validatorId].amount);\n        // add delegation power\n        if (_contract != address(0x0)) {\n          stakePower = stakePower.add(ValidatorContract(_contract).delegatedAmount());\n        }\n      }\n    }\n    uint256 _totalStake = currentValidatorSetTotalStake();\n    require(stakePower >= _totalStake.mul(2).div(3).add(1));\n    return (stakePower, _totalStake);\n  }\n\n  function challangeStateRootUpdate(bytes memory checkpointTx /* txData from submitCheckpoint */) public {\n    // TODO: check for 2/3+1 sig and validate non-inclusion in newStateUpdate\n  }\n\n}\n",
  "sourcePath": "/Users/atvanguard/matic/contracts/contracts/staking/StakeManager.sol",
  "compiler": {
    "name": "solc",
    "version": "0.5.11+commit.c082d0b4.Emscripten.clang"
  },
  "schemaVersion": "3.0.14",
  "updatedAt": "2019-12-17T06:31:18.083Z",
  "devdoc": {
    "methods": {
      "approve(address,uint256)": {
        "details": "Approves another address to transfer the given token ID The zero address indicates there is no approved address. There can only be one approved address per token at a given time. Can only be called by the token owner or an approved operator.",
        "params": {
          "to": "address to be approved for the given token ID",
          "tokenId": "uint256 ID of the token to be approved"
        }
      },
      "balanceOf(address)": {
        "details": "Gets the balance of the specified address",
        "params": {
          "owner": "address to query the balance of"
        },
        "return": "uint256 representing the amount owned by the passed address"
      },
      "changeRootChain(address)": {
        "details": "Allows the current owner to change root chain address.",
        "params": {
          "newRootChain": "The address to new rootchain."
        }
      },
      "getApproved(uint256)": {
        "details": "Gets the approved address for a token ID, or zero if no address set Reverts if the token ID does not exist.",
        "params": {
          "tokenId": "uint256 ID of the token to query the approval of"
        },
        "return": "address currently approved for the given token ID"
      },
      "isApprovedForAll(address,address)": {
        "details": "Tells whether an operator is approved by a given owner",
        "params": {
          "operator": "operator address which you want to query the approval of",
          "owner": "owner address which you want to query the approval of"
        },
        "return": "bool whether the given operator is approved by the given owner"
      },
      "isOwner()": {
        "return": "true if `msg.sender` is the owner of the contract."
      },
      "name()": {
        "details": "Gets the token name",
        "return": "string representing the token name"
      },
      "owner()": {
        "return": "the address of the owner."
      },
      "ownerOf(uint256)": {
        "details": "Gets the owner of the specified token ID",
        "params": {
          "tokenId": "uint256 ID of the token to query the owner of"
        },
        "return": "address currently marked as the owner of the given token ID"
      },
      "renounceOwnership()": {
        "details": "Allows the current owner to relinquish control of the contract. It will not be possible to call the functions with the `onlyOwner` modifier anymore."
      },
      "safeTransferFrom(address,address,uint256)": {
        "details": "Safely transfers the ownership of a given token ID to another address If the target address is a contract, it must implement `onERC721Received`, which is called upon a safe transfer, and return the magic value `bytes4(keccak256(\"onERC721Received(address,address,uint256,bytes)\"))`; otherwise, the transfer is reverted. Requires the msg.sender to be the owner, approved, or operator",
        "params": {
          "from": "current owner of the token",
          "to": "address to receive the ownership of the given token ID",
          "tokenId": "uint256 ID of the token to be transferred"
        }
      },
      "safeTransferFrom(address,address,uint256,bytes)": {
        "details": "Safely transfers the ownership of a given token ID to another address If the target address is a contract, it must implement `onERC721Received`, which is called upon a safe transfer, and return the magic value `bytes4(keccak256(\"onERC721Received(address,address,uint256,bytes)\"))`; otherwise, the transfer is reverted. Requires the msg.sender to be the owner, approved, or operator",
        "params": {
          "_data": "bytes data to send along with a safe transfer check",
          "from": "current owner of the token",
          "to": "address to receive the ownership of the given token ID",
          "tokenId": "uint256 ID of the token to be transferred"
        }
      },
      "setApprovalForAll(address,bool)": {
        "details": "Sets or unsets the approval of a given operator An operator is allowed to transfer all tokens of the sender on their behalf",
        "params": {
          "approved": "representing the status of the approval to be set",
          "to": "operator address to set the approval"
        }
      },
      "supportsInterface(bytes4)": {
        "details": "implement supportsInterface(bytes4) using a lookup table"
      },
      "symbol()": {
        "details": "Gets the token symbol",
        "return": "string representing the token symbol"
      },
      "tokenByIndex(uint256)": {
        "details": "Gets the token ID at a given index of all the tokens in this contract Reverts if the index is greater or equal to the total number of tokens",
        "params": {
          "index": "uint256 representing the index to be accessed of the tokens list"
        },
        "return": "uint256 token ID at the given index of the tokens list"
      },
      "tokenOfOwnerByIndex(address,uint256)": {
        "details": "Gets the token ID at a given index of the tokens list of the requested owner",
        "params": {
          "index": "uint256 representing the index to be accessed of the requested tokens list",
          "owner": "address owning the tokens list to be accessed"
        },
        "return": "uint256 token ID at the given index of the tokens list owned by the requested address"
      },
      "tokenURI(uint256)": {
        "details": "Returns an URI for a given token ID Throws if the token ID does not exist. May return an empty string.",
        "params": {
          "tokenId": "uint256 ID of the token to query"
        }
      },
      "totalSupply()": {
        "details": "Gets the total amount of tokens stored by the contract",
        "return": "uint256 representing the total amount of tokens"
      },
      "transferFrom(address,address,uint256)": {
        "details": "Transfers the ownership of a given token ID to another address Usage of this method is discouraged, use `safeTransferFrom` whenever possible Requires the msg.sender to be the owner, approved, or operator",
        "params": {
          "from": "current owner of the token",
          "to": "address to receive the ownership of the given token ID",
          "tokenId": "uint256 ID of the token to be transferred"
        }
      },
      "transferOwnership(address)": {
        "details": "Allows the current owner to transfer control of the contract to a newOwner.",
        "params": {
          "newOwner": "The address to transfer ownership to."
        }
      }
    }
  },
  "userdoc": {
    "methods": {
      "renounceOwnership()": {
        "notice": "Renouncing ownership will leave the contract without an owner, thereby removing any functionality that is only available to the owner."
      }
    }
  }
}