{
  "contractName": "StakeManager",
  "abi": [
    {
      "constant": true,
      "inputs": [
        {
          "name": "interfaceId",
          "type": "bytes4"
        }
      ],
      "name": "supportsInterface",
      "outputs": [
        {
          "name": "",
          "type": "bool"
        }
      ],
      "payable": false,
      "stateMutability": "view",
      "type": "function"
    },
    {
      "constant": true,
      "inputs": [],
      "name": "name",
      "outputs": [
        {
          "name": "",
          "type": "string"
        }
      ],
      "payable": false,
      "stateMutability": "view",
      "type": "function"
    },
    {
      "constant": true,
      "inputs": [
        {
          "name": "tokenId",
          "type": "uint256"
        }
      ],
      "name": "getApproved",
      "outputs": [
        {
          "name": "",
          "type": "address"
        }
      ],
      "payable": false,
      "stateMutability": "view",
      "type": "function"
    },
    {
      "constant": false,
      "inputs": [
        {
          "name": "to",
          "type": "address"
        },
        {
          "name": "tokenId",
          "type": "uint256"
        }
      ],
      "name": "approve",
      "outputs": [],
      "payable": false,
      "stateMutability": "nonpayable",
      "type": "function"
    },
    {
      "constant": true,
      "inputs": [],
      "name": "WITHDRAWAL_DELAY",
      "outputs": [
        {
          "name": "",
          "type": "uint256"
        }
      ],
      "payable": false,
      "stateMutability": "view",
      "type": "function"
    },
    {
      "constant": true,
      "inputs": [],
      "name": "totalSupply",
      "outputs": [
        {
          "name": "",
          "type": "uint256"
        }
      ],
      "payable": false,
      "stateMutability": "view",
      "type": "function"
    },
    {
      "constant": false,
      "inputs": [
        {
          "name": "from",
          "type": "address"
        },
        {
          "name": "to",
          "type": "address"
        },
        {
          "name": "tokenId",
          "type": "uint256"
        }
      ],
      "name": "transferFrom",
      "outputs": [],
      "payable": false,
      "stateMutability": "nonpayable",
      "type": "function"
    },
    {
      "constant": true,
      "inputs": [],
      "name": "MIN_DEPOSIT_SIZE",
      "outputs": [
        {
          "name": "",
          "type": "uint256"
        }
      ],
      "payable": false,
      "stateMutability": "view",
      "type": "function"
    },
    {
      "constant": true,
      "inputs": [
        {
          "name": "owner",
          "type": "address"
        },
        {
          "name": "index",
          "type": "uint256"
        }
      ],
      "name": "tokenOfOwnerByIndex",
      "outputs": [
        {
          "name": "",
          "type": "uint256"
        }
      ],
      "payable": false,
      "stateMutability": "view",
      "type": "function"
    },
    {
      "constant": true,
      "inputs": [
        {
          "name": "",
          "type": "uint256"
        }
      ],
      "name": "validators",
      "outputs": [
        {
          "name": "amount",
          "type": "uint256"
        },
        {
          "name": "reward",
          "type": "uint256"
        },
        {
          "name": "activationEpoch",
          "type": "uint256"
        },
        {
          "name": "deactivationEpoch",
          "type": "uint256"
        },
        {
          "name": "jailTime",
          "type": "uint256"
        },
        {
          "name": "signer",
          "type": "address"
        },
        {
          "name": "contractAddress",
          "type": "address"
        },
        {
          "name": "status",
          "type": "uint8"
        }
      ],
      "payable": false,
      "stateMutability": "view",
      "type": "function"
    },
    {
      "constant": true,
      "inputs": [
        {
          "name": "",
          "type": "address"
        }
      ],
      "name": "signerToValidator",
      "outputs": [
        {
          "name": "",
          "type": "uint256"
        }
      ],
      "payable": false,
      "stateMutability": "view",
      "type": "function"
    },
    {
      "constant": false,
      "inputs": [
        {
          "name": "from",
          "type": "address"
        },
        {
          "name": "to",
          "type": "address"
        },
        {
          "name": "tokenId",
          "type": "uint256"
        }
      ],
      "name": "safeTransferFrom",
      "outputs": [],
      "payable": false,
      "stateMutability": "nonpayable",
      "type": "function"
    },
    {
      "constant": true,
      "inputs": [],
      "name": "DYNASTY",
      "outputs": [
        {
          "name": "",
          "type": "uint256"
        }
      ],
      "payable": false,
      "stateMutability": "view",
      "type": "function"
    },
    {
      "constant": true,
      "inputs": [
        {
          "name": "index",
          "type": "uint256"
        }
      ],
      "name": "tokenByIndex",
      "outputs": [
        {
          "name": "",
          "type": "uint256"
        }
      ],
      "payable": false,
      "stateMutability": "view",
      "type": "function"
    },
    {
      "constant": true,
      "inputs": [],
      "name": "validatorThreshold",
      "outputs": [
        {
          "name": "",
          "type": "uint256"
        }
      ],
      "payable": false,
      "stateMutability": "view",
      "type": "function"
    },
    {
      "constant": true,
      "inputs": [],
      "name": "NFTCounter",
      "outputs": [
        {
          "name": "",
          "type": "uint256"
        }
      ],
      "payable": false,
      "stateMutability": "view",
      "type": "function"
    },
    {
      "constant": true,
      "inputs": [
        {
          "name": "",
          "type": "uint256"
        }
      ],
      "name": "validatorState",
      "outputs": [
        {
          "name": "amount",
          "type": "int256"
        },
        {
          "name": "stakerCount",
          "type": "int256"
        }
      ],
      "payable": false,
      "stateMutability": "view",
      "type": "function"
    },
    {
      "constant": true,
      "inputs": [
        {
          "name": "tokenId",
          "type": "uint256"
        }
      ],
      "name": "ownerOf",
      "outputs": [
        {
          "name": "",
          "type": "address"
        }
      ],
      "payable": false,
      "stateMutability": "view",
      "type": "function"
    },
    {
      "constant": true,
      "inputs": [
        {
          "name": "owner",
          "type": "address"
        }
      ],
      "name": "balanceOf",
      "outputs": [
        {
          "name": "",
          "type": "uint256"
        }
      ],
      "payable": false,
      "stateMutability": "view",
      "type": "function"
    },
    {
      "constant": false,
      "inputs": [],
      "name": "renounceOwnership",
      "outputs": [],
      "payable": false,
      "stateMutability": "nonpayable",
      "type": "function"
    },
    {
      "constant": true,
      "inputs": [],
      "name": "currentEpoch",
      "outputs": [
        {
          "name": "",
          "type": "uint256"
        }
      ],
      "payable": false,
      "stateMutability": "view",
      "type": "function"
    },
    {
      "constant": true,
      "inputs": [],
      "name": "registry",
      "outputs": [
        {
          "name": "",
          "type": "address"
        }
      ],
      "payable": false,
      "stateMutability": "view",
      "type": "function"
    },
    {
      "constant": true,
      "inputs": [],
      "name": "CHECKPOINT_REWARD",
      "outputs": [
        {
          "name": "",
          "type": "uint256"
        }
      ],
      "payable": false,
      "stateMutability": "view",
      "type": "function"
    },
    {
      "constant": true,
      "inputs": [],
      "name": "totalStaked",
      "outputs": [
        {
          "name": "",
          "type": "uint256"
        }
      ],
      "payable": false,
      "stateMutability": "view",
      "type": "function"
    },
    {
      "constant": true,
      "inputs": [],
      "name": "owner",
      "outputs": [
        {
          "name": "",
          "type": "address"
        }
      ],
      "payable": false,
      "stateMutability": "view",
      "type": "function"
    },
    {
      "constant": true,
      "inputs": [],
      "name": "isOwner",
      "outputs": [
        {
          "name": "",
          "type": "bool"
        }
      ],
      "payable": false,
      "stateMutability": "view",
      "type": "function"
    },
    {
      "constant": true,
      "inputs": [],
      "name": "symbol",
      "outputs": [
        {
          "name": "",
          "type": "string"
        }
      ],
      "payable": false,
      "stateMutability": "view",
      "type": "function"
    },
    {
      "constant": true,
      "inputs": [],
      "name": "rootChain",
      "outputs": [
        {
          "name": "",
          "type": "address"
        }
      ],
      "payable": false,
      "stateMutability": "view",
      "type": "function"
    },
    {
      "constant": false,
      "inputs": [
        {
          "name": "to",
          "type": "address"
        },
        {
          "name": "approved",
          "type": "bool"
        }
      ],
      "name": "setApprovalForAll",
      "outputs": [],
      "payable": false,
      "stateMutability": "nonpayable",
      "type": "function"
    },
    {
      "constant": true,
      "inputs": [],
      "name": "minLockInPeriod",
      "outputs": [
        {
          "name": "",
          "type": "uint256"
        }
      ],
      "payable": false,
      "stateMutability": "view",
      "type": "function"
    },
    {
      "constant": false,
      "inputs": [],
      "name": "unlock",
      "outputs": [],
      "payable": false,
      "stateMutability": "nonpayable",
      "type": "function"
    },
    {
      "constant": true,
      "inputs": [],
      "name": "EPOCH_LENGTH",
      "outputs": [
        {
          "name": "",
          "type": "uint256"
        }
      ],
      "payable": false,
      "stateMutability": "view",
      "type": "function"
    },
    {
      "constant": false,
      "inputs": [
        {
          "name": "from",
          "type": "address"
        },
        {
          "name": "to",
          "type": "address"
        },
        {
          "name": "tokenId",
          "type": "uint256"
        },
        {
          "name": "_data",
          "type": "bytes"
        }
      ],
      "name": "safeTransferFrom",
      "outputs": [],
      "payable": false,
      "stateMutability": "nonpayable",
      "type": "function"
    },
    {
      "constant": true,
      "inputs": [
        {
          "name": "tokenId",
          "type": "uint256"
        }
      ],
      "name": "tokenURI",
      "outputs": [
        {
          "name": "",
          "type": "string"
        }
      ],
      "payable": false,
      "stateMutability": "view",
      "type": "function"
    },
    {
      "constant": true,
      "inputs": [],
      "name": "locked",
      "outputs": [
        {
          "name": "",
          "type": "bool"
        }
      ],
      "payable": false,
      "stateMutability": "view",
      "type": "function"
    },
    {
      "constant": true,
      "inputs": [],
      "name": "UNSTAKE_DELAY",
      "outputs": [
        {
          "name": "",
          "type": "uint256"
        }
      ],
      "payable": false,
      "stateMutability": "view",
      "type": "function"
    },
    {
      "constant": false,
      "inputs": [
        {
          "name": "newRootChain",
          "type": "address"
        }
      ],
      "name": "changeRootChain",
      "outputs": [],
      "payable": false,
      "stateMutability": "nonpayable",
      "type": "function"
    },
    {
      "constant": true,
      "inputs": [
        {
          "name": "owner",
          "type": "address"
        },
        {
          "name": "operator",
          "type": "address"
        }
      ],
      "name": "isApprovedForAll",
      "outputs": [
        {
          "name": "",
          "type": "bool"
        }
      ],
      "payable": false,
      "stateMutability": "view",
      "type": "function"
    },
    {
      "constant": false,
      "inputs": [
        {
          "name": "newOwner",
          "type": "address"
        }
      ],
      "name": "transferOwnership",
      "outputs": [],
      "payable": false,
      "stateMutability": "nonpayable",
      "type": "function"
    },
    {
      "constant": false,
      "inputs": [],
      "name": "lock",
      "outputs": [],
      "payable": false,
      "stateMutability": "nonpayable",
      "type": "function"
    },
    {
      "constant": true,
      "inputs": [],
      "name": "token",
      "outputs": [
        {
          "name": "",
          "type": "address"
        }
      ],
      "payable": false,
      "stateMutability": "view",
      "type": "function"
    },
    {
      "inputs": [
        {
          "name": "_registry",
          "type": "address"
        },
        {
          "name": "_rootchain",
          "type": "address"
        }
      ],
      "payable": false,
      "stateMutability": "nonpayable",
      "type": "constructor"
    },
    {
      "anonymous": false,
      "inputs": [
        {
          "indexed": true,
          "name": "previousRootChain",
          "type": "address"
        },
        {
          "indexed": true,
          "name": "newRootChain",
          "type": "address"
        }
      ],
      "name": "RootChainChanged",
      "type": "event"
    },
    {
      "anonymous": false,
      "inputs": [
        {
          "indexed": true,
          "name": "previousOwner",
          "type": "address"
        },
        {
          "indexed": true,
          "name": "newOwner",
          "type": "address"
        }
      ],
      "name": "OwnershipTransferred",
      "type": "event"
    },
    {
      "anonymous": false,
      "inputs": [
        {
          "indexed": true,
          "name": "signer",
          "type": "address"
        },
        {
          "indexed": true,
          "name": "validatorId",
          "type": "uint256"
        },
        {
          "indexed": true,
          "name": "activatonEpoch",
          "type": "uint256"
        },
        {
          "indexed": false,
          "name": "amount",
          "type": "uint256"
        },
        {
          "indexed": false,
          "name": "total",
          "type": "uint256"
        }
      ],
      "name": "Staked",
      "type": "event"
    },
    {
      "anonymous": false,
      "inputs": [
        {
          "indexed": true,
          "name": "user",
          "type": "address"
        },
        {
          "indexed": true,
          "name": "validatorId",
          "type": "uint256"
        },
        {
          "indexed": false,
          "name": "amount",
          "type": "uint256"
        },
        {
          "indexed": false,
          "name": "total",
          "type": "uint256"
        }
      ],
      "name": "Unstaked",
      "type": "event"
    },
    {
      "anonymous": false,
      "inputs": [
        {
          "indexed": true,
          "name": "user",
          "type": "address"
        },
        {
          "indexed": true,
          "name": "validatorId",
          "type": "uint256"
        },
        {
          "indexed": false,
          "name": "deactivationEpoch",
          "type": "uint256"
        },
        {
          "indexed": true,
          "name": "amount",
          "type": "uint256"
        }
      ],
      "name": "UnstakeInit",
      "type": "event"
    },
    {
      "anonymous": false,
      "inputs": [
        {
          "indexed": true,
          "name": "validatorId",
          "type": "uint256"
        },
        {
          "indexed": true,
          "name": "oldSigner",
          "type": "address"
        },
        {
          "indexed": true,
          "name": "newSigner",
          "type": "address"
        }
      ],
      "name": "SignerChange",
      "type": "event"
    },
    {
      "anonymous": false,
      "inputs": [
        {
          "indexed": true,
          "name": "validatorId",
          "type": "uint256"
        },
        {
          "indexed": false,
          "name": "amount",
          "type": "uint256"
        },
        {
          "indexed": false,
          "name": "total",
          "type": "uint256"
        }
      ],
      "name": "ReStaked",
      "type": "event"
    },
    {
      "anonymous": false,
      "inputs": [
        {
          "indexed": true,
          "name": "validatorId",
          "type": "uint256"
        },
        {
          "indexed": true,
          "name": "exitEpoch",
          "type": "uint256"
        }
      ],
      "name": "Jailed",
      "type": "event"
    },
    {
      "anonymous": false,
      "inputs": [
        {
          "indexed": false,
          "name": "newThreshold",
          "type": "uint256"
        },
        {
          "indexed": false,
          "name": "oldThreshold",
          "type": "uint256"
        }
      ],
      "name": "ThresholdChange",
      "type": "event"
    },
    {
      "anonymous": false,
      "inputs": [
        {
          "indexed": false,
          "name": "newDynasty",
          "type": "uint256"
        },
        {
          "indexed": false,
          "name": "oldDynasty",
          "type": "uint256"
        }
      ],
      "name": "DynastyValueChange",
      "type": "event"
    },
    {
      "anonymous": false,
      "inputs": [
        {
          "indexed": false,
          "name": "newReward",
          "type": "uint256"
        },
        {
          "indexed": false,
          "name": "oldReward",
          "type": "uint256"
        }
      ],
      "name": "RewardUpdate",
      "type": "event"
    },
    {
      "anonymous": false,
      "inputs": [
        {
          "indexed": true,
          "name": "validatorId",
          "type": "uint256"
        },
        {
          "indexed": true,
          "name": "oldAmount",
          "type": "uint256"
        },
        {
          "indexed": true,
          "name": "newAmount",
          "type": "uint256"
        }
      ],
      "name": "StakeUpdate",
      "type": "event"
    },
    {
      "anonymous": false,
      "inputs": [
        {
          "indexed": true,
          "name": "from",
          "type": "address"
        },
        {
          "indexed": true,
          "name": "to",
          "type": "address"
        },
        {
          "indexed": true,
          "name": "tokenId",
          "type": "uint256"
        }
      ],
      "name": "Transfer",
      "type": "event"
    },
    {
      "anonymous": false,
      "inputs": [
        {
          "indexed": true,
          "name": "owner",
          "type": "address"
        },
        {
          "indexed": true,
          "name": "approved",
          "type": "address"
        },
        {
          "indexed": true,
          "name": "tokenId",
          "type": "uint256"
        }
      ],
      "name": "Approval",
      "type": "event"
    },
    {
      "anonymous": false,
      "inputs": [
        {
          "indexed": true,
          "name": "owner",
          "type": "address"
        },
        {
          "indexed": true,
          "name": "operator",
          "type": "address"
        },
        {
          "indexed": false,
          "name": "approved",
          "type": "bool"
        }
      ],
      "name": "ApprovalForAll",
      "type": "event"
    },
    {
      "constant": false,
      "inputs": [
        {
          "name": "amount",
          "type": "uint256"
        },
        {
          "name": "signer",
          "type": "address"
        },
        {
          "name": "isContract",
          "type": "bool"
        }
      ],
      "name": "stake",
      "outputs": [],
      "payable": false,
      "stateMutability": "nonpayable",
      "type": "function"
    },
    {
      "constant": false,
      "inputs": [
        {
          "name": "user",
          "type": "address"
        },
        {
          "name": "amount",
          "type": "uint256"
        },
        {
          "name": "signer",
          "type": "address"
        },
        {
          "name": "isContract",
          "type": "bool"
        }
      ],
      "name": "stakeFor",
      "outputs": [],
      "payable": false,
      "stateMutability": "nonpayable",
      "type": "function"
    },
    {
      "constant": false,
      "inputs": [
        {
          "name": "validatorId",
          "type": "uint256"
        }
      ],
      "name": "unstake",
      "outputs": [],
      "payable": false,
      "stateMutability": "nonpayable",
      "type": "function"
    },
    {
      "constant": false,
      "inputs": [
        {
          "name": "validatorId",
          "type": "uint256"
        }
      ],
      "name": "unstakeClaim",
      "outputs": [],
      "payable": false,
      "stateMutability": "nonpayable",
      "type": "function"
    },
    {
      "constant": false,
      "inputs": [
        {
          "name": "validatorId",
          "type": "uint256"
        },
        {
          "name": "amount",
          "type": "uint256"
        },
        {
          "name": "stakeRewards",
          "type": "bool"
        }
      ],
      "name": "restake",
      "outputs": [],
      "payable": false,
      "stateMutability": "nonpayable",
      "type": "function"
    },
    {
      "constant": false,
      "inputs": [
        {
          "name": "validatorId",
          "type": "uint256"
        },
        {
          "name": "slashingRate",
          "type": "uint256"
        },
        {
          "name": "jailCheckpoints",
          "type": "uint256"
        }
      ],
      "name": "slash",
      "outputs": [],
      "payable": false,
      "stateMutability": "nonpayable",
      "type": "function"
    },
    {
      "constant": false,
      "inputs": [
        {
          "name": "validatorId",
          "type": "uint256"
        }
      ],
      "name": "unJail",
      "outputs": [],
      "payable": false,
      "stateMutability": "nonpayable",
      "type": "function"
    },
    {
      "constant": false,
      "inputs": [
        {
          "name": "validatorId",
          "type": "uint256"
        },
        {
          "name": "jailCheckpoints",
          "type": "uint256"
        }
      ],
      "name": "jail",
      "outputs": [],
      "payable": false,
      "stateMutability": "nonpayable",
      "type": "function"
    },
    {
      "constant": true,
      "inputs": [],
      "name": "getCurrentValidatorSet",
      "outputs": [
        {
          "name": "",
          "type": "uint256[]"
        }
      ],
      "payable": false,
      "stateMutability": "view",
      "type": "function"
    },
    {
      "constant": true,
      "inputs": [
        {
          "name": "validatorId",
          "type": "uint256"
        }
      ],
      "name": "getStakerDetails",
      "outputs": [
        {
          "name": "",
          "type": "uint256"
        },
        {
          "name": "",
          "type": "uint256"
        },
        {
          "name": "",
          "type": "uint256"
        },
        {
          "name": "",
          "type": "address"
        },
        {
          "name": "",
          "type": "uint256"
        }
      ],
      "payable": false,
      "stateMutability": "view",
      "type": "function"
    },
    {
      "constant": true,
      "inputs": [
        {
          "name": "user",
          "type": "address"
        }
      ],
      "name": "getValidatorId",
      "outputs": [
        {
          "name": "",
          "type": "uint256"
        }
      ],
      "payable": false,
      "stateMutability": "view",
      "type": "function"
    },
    {
      "constant": true,
      "inputs": [
        {
          "name": "user",
          "type": "address"
        }
      ],
      "name": "totalStakedFor",
      "outputs": [
        {
          "name": "",
          "type": "uint256"
        }
      ],
      "payable": false,
      "stateMutability": "view",
      "type": "function"
    },
    {
      "constant": true,
      "inputs": [],
      "name": "supportsHistory",
      "outputs": [
        {
          "name": "",
          "type": "bool"
        }
      ],
      "payable": false,
      "stateMutability": "pure",
      "type": "function"
    },
    {
      "constant": false,
      "inputs": [
        {
          "name": "_token",
          "type": "address"
        }
      ],
      "name": "setToken",
      "outputs": [],
      "payable": false,
      "stateMutability": "nonpayable",
      "type": "function"
    },
    {
      "constant": false,
      "inputs": [
        {
          "name": "newThreshold",
          "type": "uint256"
        }
      ],
      "name": "updateValidatorThreshold",
      "outputs": [],
      "payable": false,
      "stateMutability": "nonpayable",
      "type": "function"
    },
    {
      "constant": false,
      "inputs": [
        {
          "name": "newReward",
          "type": "uint256"
        }
      ],
      "name": "updateCheckpointReward",
      "outputs": [],
      "payable": false,
      "stateMutability": "nonpayable",
      "type": "function"
    },
    {
      "constant": false,
      "inputs": [
        {
          "name": "validatorId",
          "type": "uint256"
        },
        {
          "name": "epoch",
          "type": "uint256"
        },
        {
          "name": "amount",
          "type": "int256"
        }
      ],
      "name": "updateValidatorState",
      "outputs": [],
      "payable": false,
      "stateMutability": "nonpayable",
      "type": "function"
    },
    {
      "constant": false,
      "inputs": [
        {
          "name": "newDynasty",
          "type": "uint256"
        }
      ],
      "name": "updateDynastyValue",
      "outputs": [],
      "payable": false,
      "stateMutability": "nonpayable",
      "type": "function"
    },
    {
      "constant": false,
      "inputs": [
        {
          "name": "validatorId",
          "type": "uint256"
        },
        {
          "name": "_signer",
          "type": "address"
        }
      ],
      "name": "updateSigner",
      "outputs": [],
      "payable": false,
      "stateMutability": "nonpayable",
      "type": "function"
    },
    {
      "constant": false,
      "inputs": [
        {
          "name": "epochs",
          "type": "uint256"
        }
      ],
      "name": "updateMinLockInPeriod",
      "outputs": [],
      "payable": false,
      "stateMutability": "nonpayable",
      "type": "function"
    },
    {
      "constant": true,
      "inputs": [],
      "name": "currentValidatorSetSize",
      "outputs": [
        {
          "name": "",
          "type": "uint256"
        }
      ],
      "payable": false,
      "stateMutability": "view",
      "type": "function"
    },
    {
      "constant": true,
      "inputs": [],
      "name": "currentValidatorSetTotalStake",
      "outputs": [
        {
          "name": "",
          "type": "uint256"
        }
      ],
      "payable": false,
      "stateMutability": "view",
      "type": "function"
    },
    {
      "constant": true,
      "inputs": [
        {
          "name": "validatorId",
          "type": "uint256"
        }
      ],
      "name": "getValidatorContract",
      "outputs": [
        {
          "name": "",
          "type": "address"
        }
      ],
      "payable": false,
      "stateMutability": "view",
      "type": "function"
    },
    {
      "constant": true,
      "inputs": [
        {
          "name": "validatorId",
          "type": "uint256"
        }
      ],
      "name": "isValidator",
      "outputs": [
        {
          "name": "",
          "type": "bool"
        }
      ],
      "payable": false,
      "stateMutability": "view",
      "type": "function"
    },
    {
      "constant": false,
      "inputs": [
        {
          "name": "voteHash",
          "type": "bytes32"
        },
        {
          "name": "sigs",
          "type": "bytes"
        },
        {
          "name": "proposer",
          "type": "address"
        }
      ],
      "name": "checkSignatures",
      "outputs": [],
      "payable": false,
      "stateMutability": "nonpayable",
      "type": "function"
    }
  ],
  "bytecode": "0x6080604052611000600c55612000601155612710601255670de0b6b3a76400006013556101006014556200004560026011546200022f60201b62002f5b1790919060201c565b601555600a6016556002601755600060185560016019556001601a553480156200006e57600080fd5b5060405160408062004c8d833981018060405260408110156200009057600080fd5b508051602091820151604080518082018252600f81527f4d617469632056616c696461746f720000000000000000000000000000000000818601528151808301909252600282527f4d560000000000000000000000000000000000000000000000000000000000008286015292939192918290829062000136907f01ffc9a7000000000000000000000000000000000000000000000000000000009062000263811b901c565b6200014e6380ac58cd60e01b6200026360201b60201c565b6200016663780e9d6360e01b6200026360201b60201c565b81516200017b9060099060208501906200036c565b5080516200019190600a9060208401906200036c565b50620001aa635b5e139f60e01b6200026360201b60201c565b5050600d80546001600160a01b0319163317908190556040516001600160a01b03919091169250600091507f8be0079c531659141344cd1fd0a4f28419497f9722a3daafe3b4186f6b6457e0908290a3601080546001600160a01b0319166001600160a01b0384161790556200022781620002d0602090811b901c565b50506200040e565b60008262000240575060006200025d565b828202828482816200024e57fe5b04146200025a57600080fd5b90505b92915050565b7fffffffff0000000000000000000000000000000000000000000000000000000080821614156200029357600080fd5b7fffffffff00000000000000000000000000000000000000000000000000000000166000908152602081905260409020805460ff19166001179055565b620002e06200035a60201b60201c565b620002ea57600080fd5b6001600160a01b038116620002fe57600080fd5b600e546040516001600160a01b038084169216907f211c9015fc81c0dbd45bd99f0f29fc1c143bfd53442d5ffd722bbbef7a887fe990600090a3600e80546001600160a01b0319166001600160a01b0392909216919091179055565b600d546001600160a01b031633145b90565b828054600181600116156101000203166002900490600052602060002090601f016020900481019282601f10620003af57805160ff1916838001178555620003df565b82800160010185558215620003df579182015b82811115620003df578251825591602001919060010190620003c2565b50620003ed929150620003f1565b5090565b6200036991905b80821115620003ed5760008155600101620003f8565b61486f806200041e6000396000f3fe60806040523480156200001157600080fd5b5060043610620004485760003560e01c806376671808116200023d578063a69df4b51162000141578063d220376611620000c9578063e8afa8e81162000093578063e8afa8e81462000def578063e985e9c51462000e18578063f2fde38b1462000e49578063f83d08ba1462000e72578063fc0c546a1462000e7c5762000448565b8063d22037661462000d7f578063d86d53e71462000da5578063e35e5d841462000dc5578063e6692f491462000dcf5762000448565b8063bd2fbd61116200010b578063bd2fbd611462000cf6578063c87b56dd1462000d35578063cbf383d51462000d55578063cf3090121462000d755762000448565b8063a69df4b51462000bea578063a968882f1462000bf4578063ac4746ab1462000c20578063b88d4fde1462000c2a5762000448565b80638f283a8611620001c557806398ee773b116200018f57806398ee773b1462000b85578063a22cb4651462000ba5578063a47690711462000bd6578063a548c5471462000be05762000448565b80638f283a861462000b385780638f32d59b1462000b6757806395d89b411462000b71578063987ab9db1462000b7b5762000448565b80637e9f2c8411620002075780637e9f2c841462000ae35780637f952d951462000b1a578063817b1cd21462000b245780638da5cb5b1462000b2e5762000448565b8063766718081462000a7157806378daaf691462000a7b5780637b1039991462000acf5780637d6697521462000ad95762000448565b80632f745c5911620003515780634fd101d711620002d95780636352211e11620002a35780636352211e14620009e85780636cbb60501462000a085780637033e4a61462000a3457806370a082311462000a3e578063715018a61462000a675762000448565b80634fd101d7146200097b5780635508d8e1146200098557806356342d8c146200098f5780635c24885514620009af5762000448565b806342842e0e116200031b57806342842e0e14620008ef578063485f5b5d14620009285780634b341aed14620009325780634f6ccce7146200095b5762000448565b80632f745c5914620007dd57806335aa2e44146200080c5780633862da0b14620008a65780633d02455b14620008cf5762000448565b8063174e683211620003d557806326c0817e116200039f57806326c0817e14620006c757806328cc4e4114620006d15780632e17de7814620006ff5780632e9cac4c146200071f5762000448565b8063174e6832146200063b57806318160ddd146200066457806323b872dd146200066e5780632649263a14620006a75762000448565b8063095ea7b31162000417578063095ea7b314620005a55780630ebb172a14620005d6578063144fa6d714620005f257806316827b1b146200061b5762000448565b806301ffc9a7146200044d5780630209fdd0146200048b57806306fdde0314620004e7578063081812fc1462000569575b600080fd5b62000477600480360360208110156200046557600080fd5b50356001600160e01b03191662000e86565b604080519115158252519081900360200190f35b6200049562000ea9565b60408051602080825283518183015283519192839290830191858101910280838360005b83811015620004d3578181015183820152602001620004b9565b505050509050019250505060405180910390f35b620004f162000f61565b6040805160208082528351818301528351919283929083019185019080838360005b838110156200052d57818101518382015260200162000513565b50505050905090810190601f1680156200055b5780820380516001836020036101000a031916815260200191505b509250505060405180910390f35b62000589600480360360208110156200058157600080fd5b503562000ffb565b604080516001600160a01b039092168252519081900360200190f35b620005d460048036036040811015620005bd57600080fd5b506001600160a01b0381351690602001356200102e565b005b620005e0620010e2565b60408051918252519081900360200190f35b620005d4600480360360208110156200060a57600080fd5b50356001600160a01b0316620010e8565b620005d4600480360360208110156200063357600080fd5b503562001132565b620005e0600480360360208110156200065357600080fd5b50356001600160a01b031662001197565b620005e0620011ac565b620005d4600480360360608110156200068657600080fd5b506001600160a01b03813581169160208101359091169060400135620011b2565b6200047760048036036020811015620006bf57600080fd5b5035620011da565b620005e062001299565b620005d460048036036060811015620006e957600080fd5b508035906020810135906040013515156200129f565b620005d4600480360360208110156200071757600080fd5b50356200150e565b620005d4600480360360608110156200073757600080fd5b813591908101906040810160208201356401000000008111156200075a57600080fd5b8201836020820111156200076d57600080fd5b803590602001918460018302840111640100000000831117156200079057600080fd5b91908080601f016020809104026020016040519081016040528093929190818152602001838380828437600092019190915250929550505090356001600160a01b03169150620016d89050565b620005e060048036036040811015620007f557600080fd5b506001600160a01b038135169060200135620019d0565b6200082c600480360360208110156200082457600080fd5b503562001a21565b60405180898152602001888152602001878152602001868152602001858152602001846001600160a01b03166001600160a01b03168152602001836001600160a01b03166001600160a01b031681526020018260028111156200088b57fe5b60ff1681526020019850505050505050505060405180910390f35b620005e060048036036020811015620008be57600080fd5b50356001600160a01b031662001a77565b620005d460048036036020811015620008e757600080fd5b503562001a89565b620005d4600480360360608110156200090757600080fd5b506001600160a01b0381358116916020810135909116906040013562001c40565b620005e062001c5d565b620005e0600480360360208110156200094a57600080fd5b50356001600160a01b031662001c63565b620005e0600480360360208110156200097357600080fd5b503562001cbb565b620005e062001cf3565b620005e062001cf9565b6200058960048036036020811015620009a757600080fd5b503562001cff565b620009cf60048036036020811015620009c757600080fd5b503562001d1d565b6040805192835260208301919091528051918290030190f35b620005896004803603602081101562000a0057600080fd5b503562001d36565b620005d46004803603606081101562000a2057600080fd5b508035906020810135906040013562001d59565b6200047762001f5c565b620005e06004803603602081101562000a5657600080fd5b50356001600160a01b031662001f61565b620005d462001f9a565b620005e062001ff8565b62000a9b6004803603602081101562000a9357600080fd5b503562001ffe565b604080519586526020860194909452848401929092526001600160a01b031660608401526080830152519081900360a00190f35b6200058962002063565b620005e062002072565b620005d46004803603606081101562000afb57600080fd5b508035906001600160a01b036020820135169060400135151562002078565b620005e062002086565b620005e06200209e565b62000589620020a4565b620005d46004803603604081101562000b5057600080fd5b50803590602001356001600160a01b0316620020b3565b62000477620021ab565b620004f1620021bc565b6200058962002220565b620005d46004803603602081101562000b9d57600080fd5b50356200222f565b620005d46004803603604081101562000bbd57600080fd5b506001600160a01b038135169060200135151562002248565b620005e0620022cd565b620005e0620022e2565b620005d4620022e8565b620005d46004803603606081101562000c0c57600080fd5b50803590602081013590604001356200230e565b620005e06200240c565b620005d46004803603608081101562000c4257600080fd5b6001600160a01b0382358116926020810135909116916040820135919081019060808101606082013564010000000081111562000c7e57600080fd5b82018360208201111562000c9157600080fd5b8035906020019184600183028401116401000000008311171562000cb457600080fd5b91908080601f01602080910402602001604051908101604052809392919081815260200183838082843760009201919091525092955062002412945050505050565b620005d46004803603608081101562000d0e57600080fd5b506001600160a01b038135811691602081013591604082013516906060013515156200243d565b620004f16004803603602081101562000d4d57600080fd5b503562002801565b620005d46004803603602081101562000d6d57600080fd5b5035620028bb565b6200047762002920565b620005d46004803603604081101562000d9757600080fd5b508035906020013562002930565b620005d46004803603602081101562000dbd57600080fd5b503562002a87565b620005e062002c2f565b620005d46004803603602081101562000de757600080fd5b503562002c35565b620005d46004803603602081101562000e0757600080fd5b50356001600160a01b031662002ccc565b620004776004803603604081101562000e3057600080fd5b506001600160a01b038135811691602001351662002d50565b620005d46004803603602081101562000e6157600080fd5b50356001600160a01b031662002d7e565b620005d462002da0565b6200058962002dcc565b6001600160e01b0319811660009081526020819052604090205460ff165b919050565b60608060165460405190808252806020026020018201604052801562000ed9578160200160208202803883390190505b509050600080805b62000eeb620011ac565b816bffffffffffffffffffffffff16101562000f575762000f1a816bffffffffffffffffffffffff1662001cbb565b925062000f2783620011da565b1562000f4e578284838060010194508151811062000f4157fe5b6020026020010181815250505b60010162000ee1565b5091925050505b90565b60098054604080516020601f600260001961010060018816150201909516949094049384018190048102820181019092528281526060939092909183018282801562000ff15780601f1062000fc55761010080835404028352916020019162000ff1565b820191906000526020600020905b81548152906001019060200180831162000fd357829003601f168201915b5050505050905090565b6000620010088262002ddb565b6200101257600080fd5b506000908152600260205260409020546001600160a01b031690565b60006200103b8262001d36565b9050806001600160a01b0316836001600160a01b031614156200105d57600080fd5b336001600160a01b03821614806200107c57506200107c813362002d50565b6200108657600080fd5b60008281526002602052604080822080546001600160a01b0319166001600160a01b0387811691821790925591518593918516917f8c5be1e5ebec7d5bd14f71427d1e84f3dd0314c0f7b2291e5b200ac8c7c3b92591a4505050565b600c5481565b620010f2620021ab565b620010fc57600080fd5b6001600160a01b0381166200111057600080fd5b600f80546001600160a01b0319166001600160a01b0392909216919091179055565b6200113c620021ab565b6200114657600080fd5b600081116200115457600080fd5b60165460408051838152602081019290925280517f5d16a900896e1160c2033bc940e6b072d3dc3b6a996fefb9b3b9b9678841824c9281900390910190a1601655565b6000620011a6826000620019d0565b92915050565b60075490565b620011be338262002df8565b620011c857600080fd5b620011d583838362002e5f565b505050565b6000818152601c6020526040812054158015906200122757506000828152601c6020526040902060020154158015906200122757506019546000838152601c602052604090206002015411155b80156200126057506000828152601c602052604090206003015415806200126057506019546000838152601c6020526040902060030154115b8015620011a6575060016000838152601c6020526040902060060154600160a01b900460ff1660028111156200129257fe5b1492915050565b60135481565b8233620012ac8262001d36565b6001600160a01b031614620012c057600080fd5b6019546000858152601c6020526040902060030154106200132b5760408051600160e51b62461bcd02815260206004820152601360248201527f4e6f20757365206f662072657374616b696e6700000000000000000000000000604482015290519081900360640190fd5b82156200141357600f5460408051600160e01b6323b872dd0281523360048201523060248201526044810186905290516001600160a01b03909216916323b872dd916064808201926020929091908290030181600087803b1580156200139057600080fd5b505af1158015620013a5573d6000803e3d6000fd5b505050506040513d6020811015620013bc57600080fd5b5051620014135760408051600160e51b62461bcd02815260206004820152600e60248201527f5472616e73666572207374616b65000000000000000000000000000000000000604482015290519081900360640190fd5b811562001436576000848152601c60205260408120600101805491905592909201915b6018546200144b908463ffffffff62002e8416565b6018556000848152601c602081815260408084208054880181556019548552601d83529084208054880190559287905252546200148f818563ffffffff62002e9e16565b60405186907f35af9eea1f0e7b300b0a14fae90139a072470e44daa3f14b5069bebbc1265bda90600090a46000848152601c602090815260409182902054601854835191825291810191909152815186927f9cc0e589f20d3310eb2ad571b23529003bd46048d0d1af29277dcf0aa3c398ce928290030190a250505050565b80336200151b8262001d36565b6001600160a01b0316146200152f57600080fd5b6000828152601c6020526040902060020154158015906200155f57506000828152601c6020526040902060030154155b801562001593575060016000838152601c6020526040902060060154600160a01b900460ff1660028111156200159157fe5b145b6200159d57600080fd5b6000828152601c6020526040812054601554601954919291620015c69163ffffffff62002e8416565b6000858152601c602052604081206003810183905560060154919250906001600160a01b03161562001683576000858152601c60209081526040808320600601548151600160e21b63327093330281526004810187905291516001600160a01b039091169363c9c24ccc93602480850194919392918390030190829087803b1580156200165257600080fd5b505af115801562001667573d6000803e3d6000fd5b505050506040513d60208110156200167e57600080fd5b505190505b620016978282850160000360001962002eb4565b6040805183815290518491879133917f51ff6d8ad000896362d1a3c9de9ad835adb6da92ec3ddee44018ef64f3c8b561919081900360200190a45050505050565b600e546001600160a01b03163314620016f057600080fd5b60008080805b85518167ffffffffffffffff1610156200194c57606062001724878367ffffffffffffffff16604162002ed6565b60408051600160e21b631df4cba5028152600481018b81526024820192835283516044830152835193945060009373__ECVerify______________________________936377d32e94938e9388939092916064019060208501908083838c5b838110156200179d57818101518382015260200162001783565b50505050905090810190601f168015620017cb5780820380516001836020036101000a031916815260200191505b50935050505060206040518083038186803b158015620017ea57600080fd5b505af4158015620017ff573d6000803e3d6000fd5b505050506040513d60208110156200181657600080fd5b50516001600160a01b038082166000818152601b6020526040902054975091925085161415620018485750506200194c565b6200185385620011da565b8015620018715750836001600160a01b0316816001600160a01b0316115b1562001941576000858152601c602052604090206006810154905491945084916001600160a01b0390911690620018b090889063ffffffff62002e8416565b96506001600160a01b038116156200193f576200193c816001600160a01b031663e655842f6040518163ffffffff1660e01b815260040160206040518083038186803b1580156200190057600080fd5b505afa15801562001915573d6000803e3d6000fd5b505050506040513d60208110156200192c57600080fd5b5051889063ffffffff62002e8416565b96505b505b5050604101620016f6565b506200195a846000620019d0565b9150600062001968620022cd565b9050620019a360016200199660036200198985600263ffffffff62002f5b16565b9063ffffffff62002f8616565b9063ffffffff62002e8416565b841015620019b057600080fd5b620019bd83858362002faa565b620019c762003090565b50505050505050565b6000620019dd8362001f61565b8210620019e957600080fd5b6001600160a01b038316600090815260056020526040902080548390811062001a0e57fe5b9060005260206000200154905092915050565b601c602052600090815260409020805460018201546002830154600384015460048501546005860154600690960154949593949293919290916001600160a01b039081169190811690600160a01b900460ff1688565b601b6020526000908152604090205481565b803362001a968262001d36565b6001600160a01b03161462001aaa57600080fd5b6019546000838152601c602052604090206003015411801562001ae057506019546000838152601c602052604090206004015411155b801562001b14575060026000838152601c6020526040902060060154600160a01b900460ff16600281111562001b1257fe5b145b62001b1e57600080fd5b6000828152601c602052604090205460135481101562001b3d57600080fd5b6000838152601c6020526040812060038101546006909101549091906001600160a01b03161562001bf9576000858152601c60209081526040808320600601548151600160e21b633f5cc2470281526004810187905291516001600160a01b039091169363fd73091c93602480850194919392918390030190829087803b15801562001bc857600080fd5b505af115801562001bdd573d6000803e3d6000fd5b505050506040513d602081101562001bf457600080fd5b505190505b62001c0982828501600162002eb4565b505050600091825250601c6020526040812060038101829055600681018054600160a01b60ff021916600160a01b17905560040155565b620011d58383836040518060200160405280600081525062002412565b60115481565b60006001600160a01b038216158062001c84575062001c828262001f61565b155b1562001c935750600062000ea4565b601c600062001ca4846000620019d0565b815260208101919091526040016000205492915050565b600062001cc7620011ac565b821062001cd357600080fd5b6007828154811062001ce157fe5b90600052602060002001549050919050565b60165481565b601a5481565b6000908152601c60205260409020600601546001600160a01b031690565b601d602052600090815260409020805460019091015482565b6000818152600160205260408120546001600160a01b031680620011a657600080fd5b60105460408051600160e31b631ab01683028152905133926001600160a01b03169163d580b418916004808301926020929190829003018186803b15801562001da157600080fd5b505afa15801562001db6573d6000803e3d6000fd5b505050506040513d602081101562001dcd57600080fd5b50516001600160a01b03161462001de357600080fd5b6000838152601c60205260409020600601546001600160a01b03161562001e8a576000838152601c6020526040808220600601546019548251600160e41b6306cbb6050281526004810187905260248101829052604481019190915291516001600160a01b0390911692636cbb6050926064808201939182900301818387803b15801562001e7057600080fd5b505af115801562001e85573d6000803e3d6000fd5b505050505b6000838152601c602052604081205462001eb39060649062001989908663ffffffff62002f5b16565b6000858152601c602052604090205490915062001ed7908263ffffffff62002e9e16565b6000858152601c60205260409020819055601354118062001ef85750600082115b1562001f0a5762001f0a848362002930565b6000848152601c602052604090205462001f2b818363ffffffff62002e8416565b60405186907f35af9eea1f0e7b300b0a14fae90139a072470e44daa3f14b5069bebbc1265bda90600090a450505050565b600090565b60006001600160a01b03821662001f7757600080fd5b6001600160a01b0382166000908152600360205260409020620011a690620030f0565b62001fa4620021ab565b62001fae57600080fd5b600d546040516000916001600160a01b0316907f8be0079c531659141344cd1fd0a4f28419497f9722a3daafe3b4186f6b6457e0908390a3600d80546001600160a01b0319169055565b60195481565b6000818152601c6020526040812080546002808301546003840154600585015460069095015486958695869586959194919391926001600160a01b031691600160a01b900460ff16908111156200205157fe5b939a9299509097509550909350915050565b6010546001600160a01b031681565b60125481565b620011d5338484846200243d565b6019546000908152601d602052604090206001015490565b60185481565b600d546001600160a01b031690565b8133620020c08262001d36565b6001600160a01b031614620020d457600080fd5b6001600160a01b038216158015906200210357506001600160a01b0382166000908152601b6020526040902054155b6200210d57600080fd5b6000838152601c60205260408082206005015490516001600160a01b038086169392169186917f7dfd3bad1e3cac97d3b89ff06d78394523c4f08fdee4daa71a59160003240c899190a4506000828152601c6020818152604080842060050180546001600160a01b039081168652601b84528286208690559590951680855290842086905594909252905280546001600160a01b0319169091179055565b600d546001600160a01b0316331490565b600a8054604080516020601f600260001961010060018816150201909516949094049384018190048102820181019092528281526060939092909183018282801562000ff15780601f1062000fc55761010080835404028352916020019162000ff1565b600e546001600160a01b031681565b62002239620021ab565b6200224357600080fd5b601755565b6001600160a01b0382163314156200225f57600080fd5b3360008181526004602090815260408083206001600160a01b03871680855290835292819020805460ff1916861515908117909155815190815290519293927f17307eab39ab6107e8899845ad3d59bd9653f200f220920489ca2b5937696c31929181900390910190a35050565b6019546000908152601d602052604090205490565b60175481565b620022f2620021ab565b620022fc57600080fd5b600e8054600160a01b60ff0219169055565b60105460408051600160e01b63253006b1028152905133926001600160a01b03169163253006b1916004808301926020929190829003018186803b1580156200235657600080fd5b505afa1580156200236b573d6000803e3d6000fd5b505050506040513d60208110156200238257600080fd5b50516001600160a01b0316146200239857600080fd5b601954821015620023f35760408051600160e51b62461bcd02815260206004820152601160248201527f43616e2774206368616e67652070617374000000000000000000000000000000604482015290519081900360640190fd5b6000918252601d60205260409091208054909101905550565b60145481565b6200241f848484620011b2565b6200242d84848484620030f4565b6200243757600080fd5b50505050565b600e54600160a01b900460ff16156200245557600080fd5b6016546200246262002086565b106200246d57600080fd5b620024788462001f61565b15620024ce5760408051600160e51b62461bcd02815260206004820181905260248201527f4f6e6c79206f6e652074696d65207374616b696e6720697320616c6c6f776564604482015290519081900360640190fd5b6013548311620024dd57600080fd5b6001600160a01b0382166000908152601b6020526040902054156200250157600080fd5b600f5460408051600160e01b6323b872dd0281523360048201523060248201526044810186905290516001600160a01b03909216916323b872dd916064808201926020929091908290030181600087803b1580156200255f57600080fd5b505af115801562002574573d6000803e3d6000fd5b505050506040513d60208110156200258b57600080fd5b5051620025e25760408051600160e51b62461bcd02815260206004820152601560248201527f5472616e73666572207374616b65206661696c65640000000000000000000000604482015290519081900360640190fd5b601854620025f7908463ffffffff62002e8416565b6018819055506040518061010001604052808481526020016000815260200160195481526020016000815260200160008152602001836001600160a01b0316815260200182620026495760006200269c565b60105460405187916001600160a01b03169062002666906200381d565b6001600160a01b03928316815291166020820152604080519182900301906000f0801580156200269a573d6000803e3d6000fd5b505b6001600160a01b0316815260200160019052601a546000908152601c60209081526040918290208351815590830151600182015590820151600280830191909155606083015160038301556080830151600483015560a08301516005830180546001600160a01b039283166001600160a01b03199182161790915560c08501516006850180549190931691161780825560e085015192600160a01b60ff021990911690600160a01b9084908111156200275157fe5b02179055509050506200276784601a5462003237565b601a546001600160a01b0383166000908152601b6020526040902055601954620027949084600162002eb4565b601954601a5460185460408051878152602081019290925280516001600160a01b038716927f9cfd25589d1eb8ad71e342a86a8524e83522e3936c0803048c08f6d9ad974f4092908290030190a4601a54620027f890600163ffffffff62002e8416565b601a5550505050565b60606200280e8262002ddb565b6200281857600080fd5b6000828152600b602090815260409182902080548351601f600260001961010060018616150201909316929092049182018490048402810184019094528084529091830182828015620028af5780601f106200288357610100808354040283529160200191620028af565b820191906000526020600020905b8154815290600101906020018083116200289157829003601f168201915b50505050509050919050565b620028c5620021ab565b620028cf57600080fd5b60008111620028dd57600080fd5b60125460408051838152602081019290925280517ff67f33e8589d3ea0356303c0f9a8e764873692159f777ff79e4fc523d389dfcd9281900390910190a1601255565b600e54600160a01b900460ff1681565b6000828152601c6020526040812054601554601954919291620029599163ffffffff62002e8416565b6000858152601c602052604081206004810186905560060154919250906001600160a01b03161562002a16576000858152601c60209081526040808320600601548151600160e21b63327093330281526004810187905291516001600160a01b039091169363c9c24ccc93602480850194919392918390030190829087803b158015620029e557600080fd5b505af1158015620029fa573d6000803e3d6000fd5b505050506040513d602081101562002a1157600080fd5b505190505b62002a2a8282850160000360001962002eb4565b6000858152601c6020526040808220600381018590556006018054600160a01b60ff021916600160a11b17905551839187917fa1735a3843d9467dd849a217582720a8af66b9d034712e0b21b0f5ece80670cd9190a35050505050565b803362002a948262001d36565b6001600160a01b03161462002aa857600080fd5b6000828152601c60205260409020600301541580159062002af05750601954600c546000848152601c602052604090206003015462002aed9163ffffffff62002e8416565b11155b62002afa57600080fd5b6000828152601c602052604090205460185462002b1e908263ffffffff62002e9e16565b60185562002b2c836200325e565b6000838152601c6020818152604080842060058101546001600160a01b039081168652601b8452828620869055600f548987529484526001909101548251600160e01b63a9059cbb0281523360048201529087016024820152915193169363a9059cbb93604480840194939192918390030190829087803b15801562002bb157600080fd5b505af115801562002bc6573d6000803e3d6000fd5b505050506040513d602081101562002bdd57600080fd5b505162002be957600080fd5b6018546040805183815260208101929092528051859233927f204fccf0d92ed8d48f204adb39b2e81e92bad0dedb93f5716ca9478cfb57de0092918290030190a3505050565b60155481565b62002c3f620021ab565b62002c4957600080fd5b6000811162002c5757600080fd5b60115460408051838152602081019290925280517f9444bfcfa6aed72a15da73de1220dcc07d7864119c44abfec0037bbcacefda989281900390910190a1601181905562002cad81600263ffffffff62002f8616565b60155560115462002cc690600263ffffffff62002f5b16565b600c5550565b62002cd6620021ab565b62002ce057600080fd5b6001600160a01b03811662002cf457600080fd5b600e546040516001600160a01b038084169216907f211c9015fc81c0dbd45bd99f0f29fc1c143bfd53442d5ffd722bbbef7a887fe990600090a3600e80546001600160a01b0319166001600160a01b0392909216919091179055565b6001600160a01b03918216600090815260046020908152604080832093909416825291909152205460ff1690565b62002d88620021ab565b62002d9257600080fd5b62002d9d8162003274565b50565b62002daa620021ab565b62002db457600080fd5b600e8054600160a01b60ff021916600160a01b179055565b600f546001600160a01b031681565b6000908152600160205260409020546001600160a01b0316151590565b60008062002e068362001d36565b9050806001600160a01b0316846001600160a01b0316148062002e445750836001600160a01b031662002e398462000ffb565b6001600160a01b0316145b8062002e57575062002e57818562002d50565b949350505050565b62002e6c838383620032e4565b62002e788382620033ce565b620011d58282620034c3565b60008282018381101562002e9757600080fd5b9392505050565b60008282111562002eae57600080fd5b50900390565b6000928352601d60205260409092208054909101815560010180549091019055565b60608183018451101562002ee957600080fd5b60608215801562002f065760405191506020820160405262002f52565b6040519150601f8416801560200281840101858101878315602002848b0101015b8183101562002f4157805183526020928301920162002f27565b5050858452601f01601f1916604052505b50949350505050565b60008262002f6c57506000620011a6565b8282028284828162002f7a57fe5b041462002e9757600080fd5b600080821162002f9557600080fd5b600082848162002fa157fe5b04949350505050565b600062002fc883620019898460125462002f5b90919063ffffffff16565b6000858152601c60205260409020600601549091506001600160a01b03168062003009576000858152601c6020526040902060010180548301905562003089565b6019546000868152601c6020526040808220548151600160e41b630b37f2590281526004810187905260248101949094526044840152516001600160a01b0384169263b37f259092606480830193919282900301818387803b1580156200306f57600080fd5b505af115801562003084573d6000803e3d6000fd5b505050505b5050505050565b601954600090620030a990600163ffffffff62002e8416565b6000818152601d6020526040808220805460198054855283852054909101825560019182018054825486528486208401540190558054845291832083815501919091555550565b5490565b60006200310a846001600160a01b031662003501565b620031185750600162002e57565b604051600160e11b630a85bd0102815233600482018181526001600160a01b03888116602485015260448401879052608060648501908152865160848601528651600095928a169463150b7a029490938c938b938b939260a4019060208501908083838e5b83811015620031975781810151838201526020016200317d565b50505050905090810190601f168015620031c55780820380516001836020036101000a031916815260200191505b5095505050505050602060405180830381600087803b158015620031e857600080fd5b505af1158015620031fd573d6000803e3d6000fd5b505050506040513d60208110156200321457600080fd5b50516001600160e01b031916600160e11b630a85bd010214915050949350505050565b62003243828262003507565b6200324f8282620034c3565b6200325a81620035ae565b5050565b62002d9d6200326d8262001d36565b82620035f2565b6001600160a01b0381166200328857600080fd5b600d546040516001600160a01b038084169216907f8be0079c531659141344cd1fd0a4f28419497f9722a3daafe3b4186f6b6457e090600090a3600d80546001600160a01b0319166001600160a01b0392909216919091179055565b826001600160a01b0316620032f98262001d36565b6001600160a01b0316146200330d57600080fd5b6001600160a01b0382166200332157600080fd5b6200332c816200363f565b6001600160a01b03831660009081526003602052604090206200334f906200367b565b6001600160a01b0382166000908152600360205260409020620033729062003694565b60008181526001602052604080822080546001600160a01b0319166001600160a01b0386811691821790925591518493918716917fddf252ad1be2c89b69c2b068fc378daa952ba7f163c4a11628f55a4df523b3ef91a4505050565b6001600160a01b038216600090815260056020526040812054620033fa90600163ffffffff62002e9e16565b60008381526006602052604090205490915080821462003498576001600160a01b03841660009081526005602052604081208054849081106200343957fe5b906000526020600020015490508060056000876001600160a01b03166001600160a01b0316815260200190815260200160002083815481106200347857fe5b600091825260208083209091019290925591825260069052604090208190555b6001600160a01b0384166000908152600560205260409020805490620030899060001983016200382b565b6001600160a01b0390911660009081526005602081815260408084208054868652600684529185208290559282526001810183559183529091200155565b3b151590565b6001600160a01b0382166200351b57600080fd5b620035268162002ddb565b156200353157600080fd5b600081815260016020908152604080832080546001600160a01b0319166001600160a01b038716908117909155835260039091529020620035729062003694565b60405181906001600160a01b038416906000907fddf252ad1be2c89b69c2b068fc378daa952ba7f163c4a11628f55a4df523b3ef908290a45050565b600780546000838152600860205260408120829055600182018355919091527fa66cc928b5edb82af9bd49922954155ab7b0942694bea4ce44661d9a8736c6880155565b620035fe82826200369d565b6000818152600b602052604090205460026000196101006001841615020190911604156200325a576000818152600b602052604081206200325a9162003852565b6000818152600260205260409020546001600160a01b03161562002d9d57600090815260026020526040902080546001600160a01b0319169055565b80546200369090600163ffffffff62002e9e16565b9055565b80546001019055565b620036a98282620036cf565b620036b58282620033ce565b6000818152600660205260408120556200325a816200377b565b816001600160a01b0316620036e48262001d36565b6001600160a01b031614620036f857600080fd5b62003703816200363f565b6001600160a01b038216600090815260036020526040902062003726906200367b565b60008181526001602052604080822080546001600160a01b0319169055518291906001600160a01b038516907fddf252ad1be2c89b69c2b068fc378daa952ba7f163c4a11628f55a4df523b3ef908390a45050565b6007546000906200379490600163ffffffff62002e9e16565b60008381526008602052604081205460078054939450909284908110620037b757fe5b906000526020600020015490508060078381548110620037d357fe5b60009182526020808320909101929092558281526008909152604090208290556007805490620038089060001983016200382b565b50505060009182525060086020526040812055565b610f8d80620038b783390190565b815481835581811115620011d557600083815260209020620011d591810190830162003895565b50805460018160011615610100020316600290046000825580601f106200387a575062002d9d565b601f01602090049060005260206000209081019062002d9d91905b62000f5e91905b80821115620038b257600081556001016200389c565b509056fe608060405260006003819055600481905560055560078054600160a01b60ff02191674010000000000000000000000000000000000000000179055600a60095534801561004b57600080fd5b50604051604080610f8d8339810180604052604081101561006b57600080fd5b508051602090910151600080546001600160a01b03191633178082556040516001600160a01b039190911691907f8be0079c531659141344cd1fd0a4f28419497f9722a3daafe3b4186f6b6457e0908290a3600680546001600160a01b039384166001600160a01b03199182161790915560078054929093169116179055610e95806100f86000396000f3fe608060405234801561001057600080fd5b50600436106101425760003560e01c80638da5cb5b116100b8578063b37f25901161007c578063b37f2590146102d8578063c9c24ccc14610301578063cfe0a4531461031e578063e655842f1461034d578063f2fde38b14610355578063fd73091c1461037b57610142565b80638da5cb5b146102815780638f32d59b146102895780638f546b09146102a55780639ec5a894146102ad578063a32dd342146102b557610142565b80636b7491291161010a5780636b749129146101d55780636cbb60501461020a578063713f774314610233578063715018a61461023b5780637b103999146102435780638a2747201461024b57610142565b806319480af8146101475780633a5381b5146101725780635be612c7146101965780635d1e3616146101c5578063646033bc146101cd575b600080fd5b6101706004803603606081101561015d57600080fd5b5080359060208101359060400135610398565b005b61017a61052f565b604080516001600160a01b039092168252519081900360200190f35b6101b3600480360360208110156101ac57600080fd5b503561053e565b60408051918252519081900360200190f35b6101b361055c565b6101b3610562565b6101b3600480360360a08110156101eb57600080fd5b5080359060208101359060408101359060608101359060800135610568565b6101706004803603606081101561022057600080fd5b50803590602081013590604001356105d2565b6101b3610765565b61017061076c565b61017a6107c7565b6102686004803603602081101561026157600080fd5b50356107d6565b6040805192835260208301919091528051918290030190f35b61017a6107ef565b6102916107fe565b604080519115158252519081900360200190f35b6101b361080f565b6101b3610815565b6101b3600480360360408110156102cb57600080fd5b508035906020013561081b565b610170600480360360608110156102ee57600080fd5b508035906020810135906040013561083d565b6101b36004803603602081101561031757600080fd5b50356108c4565b6101706004803603608081101561033457600080fd5b5080359060208101359060408101359060600135610a88565b6101b3610bbb565b6101706004803603602081101561036b57600080fd5b50356001600160a01b0316610bc1565b6101b36004803603602081101561039157600080fd5b5035610bde565b60075460408051600160e01b63253006b1028152905133926001600160a01b03169163253006b1916004808301926020929190829003018186803b1580156103df57600080fd5b505afa1580156103f3573d6000803e3d6000fd5b505050506040513d602081101561040957600080fd5b50516001600160a01b03161461041e57600080fd5b600754600160a01b900460ff1661043457600080fd5b60008381526008602052604090206001015415806104de57506104c96104586107ef565b6001600160a01b0316630ebb172a6040518163ffffffff1660e01b815260040160206040518083038186803b15801561049057600080fd5b505afa1580156104a4573d6000803e3d6000fd5b505050506040513d60208110156104ba57600080fd5b5051829063ffffffff610d4a16565b60008481526008602052604090206001015411155b6104e757600080fd5b6002805460018082019092557f405787fa12a823e0f2b7631cc41b3ba8828b3321ca811111fa75cd3aa3bb5ace01849055600093845260086020526040909320558154019055565b6006546001600160a01b031681565b6002818154811061054b57fe5b600091825260209091200154905081565b60045481565b60095481565b60008083610574578293505b845b848110156105c7576000818152600a6020526040902054156105bf576000818152600a60205260409020600181015490546105ba919089029063ffffffff610d6416565b820191505b600101610576565b509695505050505050565b6105da6107fe565b6105e357600080fd5b60075460408051600160e01b63253006b102815290516000926001600160a01b03169163253006b1916004808301926020929190829003018186803b15801561062b57600080fd5b505afa15801561063f573d6000803e3d6000fd5b505050506040513d602081101561065557600080fd5b505190508282141561075f57606060028054806020026020016040519081016040528092919081815260200182805480156106af57602002820191906000526020600020905b81548152602001906001019080831161069b575b505060408051600160e01b63ce5d67d9028152602481018b9052600481019182528551604482015285519596506001600160a01b0388169563ce5d67d995508794508b93508291606401906020808701910280838360005b8381101561071f578181015183820152602001610707565b505050509050019350505050600060405180830381600087803b15801561074557600080fd5b505af1158015610759573d6000803e3d6000fd5b50505050505b50505050565b6002545b90565b6107746107fe565b61077d57600080fd5b600080546040516001600160a01b03909116907f8be0079c531659141344cd1fd0a4f28419497f9722a3daafe3b4186f6b6457e0908390a3600080546001600160a01b0319169055565b6007546001600160a01b031681565b600a602052600090815260409020805460019091015482565b6000546001600160a01b031690565b6000546001600160a01b0316331490565b60055481565b60035481565b6008602052816000526040600020816002811061083457fe5b01549150829050565b6108456107fe565b61084e57600080fd5b6000610876606461086a60095487610d8690919063ffffffff16565b9063ffffffff610d6416565b9050600154820182828603028161088957fe5b6004805492909104929092019081019091556003805491909403908101909355506000908152600a6020526040902090815560018054910155565b60006108ce6107fe565b6108d757600080fd5b60078054600160a01b60ff0219811690915560408051600160e01b63253006b102815290516000926001600160a01b03169163253006b1916004808301926020929190829003018186803b15801561092e57600080fd5b505afa158015610942573d6000803e3d6000fd5b505050506040513d602081101561095857600080fd5b505160028054604080516020838102820181019092528281529394506060939291908301828280156109a957602002820191906000526020600020905b815481526020019060010190808311610995575b5050600654604051600160e01b636a2aebd7028152602481018a90526001600160a01b039182166044820181905260606004830190815287516064840152875197985092891696636a2aebd796508895508b945090929182916084909101906020808801910280838360005b83811015610a2d578181015183820152602001610a15565b50505050905001945050505050602060405180830381600087803b158015610a5457600080fd5b505af1158015610a68573d6000803e3d6000fd5b505050506040513d6020811015610a7e57600080fd5b5051949350505050565b60075460408051600160e01b63253006b1028152905133926001600160a01b03169163253006b1916004808301926020929190829003018186803b158015610acf57600080fd5b505afa158015610ae3573d6000803e3d6000fd5b505050506040513d6020811015610af957600080fd5b50516001600160a01b031614610b0e57600080fd5b8360028481548110610b1c57fe5b906000526020600020015414610b3157600080fd5b6000848152600860205260409020819060010155600180548390039055600280546000198101908110610b6057fe5b906000526020600020015460028481548110610b7857fe5b600091825260209091200155600280546000198101908110610b9657fe5b60009182526020822001556002805490610bb4906000198301610e22565b5050505050565b60015481565b610bc96107fe565b610bd257600080fd5b610bdb81610db4565b50565b6000610be86107fe565b610bf157600080fd5b60078054600160a01b60ff021916600160a01b179081905560408051600160e01b63253006b102815290516000926001600160a01b03169163253006b1916004808301926020929190829003018186803b158015610c4e57600080fd5b505afa158015610c62573d6000803e3d6000fd5b505050506040513d6020811015610c7857600080fd5b50516002805460408051602083810282018101909252828152939450606093929190830182828015610cc957602002820191906000526020600020905b815481526020019060010190808311610cb5575b5050600654604051600160e01b63b0cd6001028152602481018a90526001600160a01b03918216604482018190526060600483019081528751606484015287519798509289169663b0cd600196508895508b945090929182916084909101906020878101910280838360008315610a2d578181015183820152602001610a15565b600082821115610d5957600080fd5b508082035b92915050565b6000808211610d7257600080fd5b6000828481610d7d57fe5b04949350505050565b600082610d9557506000610d5e565b82820282848281610da257fe5b0414610dad57600080fd5b9392505050565b6001600160a01b038116610dc757600080fd5b600080546040516001600160a01b03808516939216917f8be0079c531659141344cd1fd0a4f28419497f9722a3daafe3b4186f6b6457e091a3600080546001600160a01b0319166001600160a01b0392909216919091179055565b815481835581811115610e4657600083815260209020610e46918101908301610e4b565b505050565b61076991905b80821115610e655760008155600101610e51565b509056fea165627a7a723058209215440db692a308ff0cd33c048366bd9a4d9c63980f9f8b8e620653155d22070029a165627a7a72305820c3e2f9404585b6e46cf532074a40cb1dc2552e893f7e4caf5fad4a629a5622f00029",
  "source": "pragma solidity ^0.5.2;\n\nimport { IERC20 } from \"openzeppelin-solidity/contracts/token/ERC20/IERC20.sol\";\nimport { ERC721Full } from \"openzeppelin-solidity/contracts/token/ERC721/ERC721Full.sol\";\nimport { Math } from \"openzeppelin-solidity/contracts/math/Math.sol\";\nimport { SafeMath } from \"openzeppelin-solidity/contracts/math/SafeMath.sol\";\n\nimport { BytesLib } from \"../common/lib/BytesLib.sol\";\nimport { ECVerify } from \"../common/lib/ECVerify.sol\";\nimport { Lockable } from \"../common/mixin/Lockable.sol\";\nimport { RootChainable } from \"../common/mixin/RootChainable.sol\";\nimport { Registry } from \"../common/Registry.sol\";\nimport { IStakeManager } from \"./IStakeManager.sol\";\nimport { Validator } from \"./Validator.sol\";\nimport { ValidatorContract } from \"./Validator.sol\";\n\n\ncontract StakeManager is Validator, IStakeManager, RootChainable, Lockable {\n  using SafeMath for uint256;\n  using ECVerify for bytes32;\n\n  IERC20 public token;\n  address public registry;\n  // genesis/governance variables\n  uint256 public DYNASTY = 2**13;  // unit: epoch 50 days\n  uint256 public CHECKPOINT_REWARD = 10000;\n  uint256 public MIN_DEPOSIT_SIZE = (10**18);  // in ERC20 token\n  uint256 public EPOCH_LENGTH = 256; // unit : block\n  uint256 public UNSTAKE_DELAY = DYNASTY.mul(2); // unit: epoch\n\n  uint256 public validatorThreshold = 10; //128\n  uint256 public minLockInPeriod = 2; // unit: DYNASTY\n  uint256 public totalStaked = 0;\n  uint256 public currentEpoch = 1;\n  uint256 public NFTCounter = 1;\n\n  enum Status { Inactive, Active, Locked }\n\n  struct Validator {\n    uint256 amount;\n    uint256 reward;\n    uint256 activationEpoch;\n    uint256 deactivationEpoch;\n    uint256 jailTime;\n    address signer;\n    address contractAddress;\n    Status status;\n  }\n\n  struct State {\n    int256 amount;\n    int256 stakerCount;\n  }\n\n  // signer to Validator mapping\n  mapping (address => uint256) public signerToValidator;\n  // validator metadata\n  mapping (uint256 => Validator) public validators;\n  //Mapping for epoch to totalStake for that epoch\n  mapping (uint256 => State) public validatorState;\n\n  constructor (address _registry, address _rootchain) ERC721Full(\"Matic Validator\", \"MV\") public {\n    registry = _registry;\n    changeRootChain(_rootchain);\n  }\n\n  modifier onlyStaker(uint256 validatorId) {\n    require(ownerOf(validatorId) == msg.sender);\n    _;\n  }\n\n  modifier onlySlashingMananger() {\n    require(Registry(registry).getSlashingManagerAddress() == msg.sender);\n    _;\n  }\n\n  function stake(uint256 amount, address signer, bool isContract) external {\n    stakeFor(msg.sender, amount, signer, isContract);\n  }\n\n  function stakeFor(address user, uint256 amount, address signer, bool isContract) public onlyWhenUnlocked {\n    require(currentValidatorSetSize() < validatorThreshold);\n    require(balanceOf(user) == 0, \"Only one time staking is allowed\");\n    require(amount > MIN_DEPOSIT_SIZE);\n    require(signerToValidator[signer] == 0);\n\n    require(token.transferFrom(msg.sender, address(this), amount), \"Transfer stake failed\");\n    totalStaked = totalStaked.add(amount);\n\n    validators[NFTCounter] = Validator({\n      reward: 0,\n      amount: amount,\n      activationEpoch: currentEpoch,\n      deactivationEpoch: 0,\n      jailTime: 0,\n      signer: signer,\n      contractAddress: isContract ? address(new ValidatorContract(user, registry)) :address(0x0),\n      status : Status.Active\n    });\n\n    _mint(user, NFTCounter);\n\n    signerToValidator[signer] = NFTCounter;\n    updateTimeLine(currentEpoch, int256(amount), 1);\n\n    emit Staked(signer, NFTCounter, currentEpoch, amount, totalStaked);\n    NFTCounter = NFTCounter.add(1);\n  }\n\n  function unstake(uint256 validatorId) external onlyStaker(validatorId) {\n    //Todo: add state here consider jail\n    require(validators[validatorId].activationEpoch > 0 &&\n      validators[validatorId].deactivationEpoch == 0 &&\n      validators[validatorId].status == Status.Active);\n\n    uint256 amount = validators[validatorId].amount;\n\n    uint256 exitEpoch = currentEpoch.add(UNSTAKE_DELAY);// notice period\n    validators[validatorId].deactivationEpoch = exitEpoch;\n\n    // unbond all delegators in future\n    int256 delegationAmount = 0;\n    if (validators[validatorId].contractAddress != address(0x0)) {\n      delegationAmount = ValidatorContract(validators[validatorId].contractAddress).unBondAllLazy(exitEpoch);\n    }\n\n    //  update future\n    updateTimeLine(exitEpoch,  -(int256(amount) + delegationAmount ), -1);\n\n    emit UnstakeInit(msg.sender, validatorId, exitEpoch, amount);\n  }\n\n  function unstakeClaim(uint256 validatorId) public onlyStaker(validatorId) {\n    // can only claim stake back after WITHDRAWAL_DELAY\n    require(validators[validatorId].deactivationEpoch > 0 && validators[validatorId].deactivationEpoch.add(WITHDRAWAL_DELAY) <= currentEpoch);\n    uint256 amount = validators[validatorId].amount;\n    totalStaked = totalStaked.sub(amount);\n\n    // TODO :add slashing here use soft slashing in slash amt variable\n    _burn(validatorId);\n    delete signerToValidator[validators[validatorId].signer];\n    // delete validators[validatorId];\n\n    require(token.transfer(msg.sender, amount + validators[validatorId].reward));\n    emit Unstaked(msg.sender, validatorId, amount, totalStaked);\n  }\n\n  // slashing and jail interface\n  function restake(uint256 validatorId, uint256 amount, bool stakeRewards) public onlyStaker(validatorId) {\n    require(validators[validatorId].deactivationEpoch < currentEpoch, \"No use of restaking\");\n\n    if (amount > 0) {\n      require(token.transferFrom(msg.sender, address(this), amount), \"Transfer stake\");\n    }\n    if (stakeRewards) {\n      amount += validators[validatorId].reward;\n      validators[validatorId].reward = 0;\n    }\n    totalStaked = totalStaked.add(amount);\n    validators[validatorId].amount += amount;\n    validatorState[currentEpoch].amount = (\n      validatorState[currentEpoch].amount + int256(amount));\n\n    emit StakeUpdate(validatorId, validators[validatorId].amount.sub(amount), validators[validatorId].amount);\n    emit ReStaked(validatorId, validators[validatorId].amount, totalStaked);\n  }\n\n  // if not jailed then in state of warning, else will be unstaking after x epoch\n  function slash(uint256 validatorId, uint256 slashingRate, uint256 jailCheckpoints) public onlySlashingMananger {\n    // if contract call contract.slash\n    if (validators[validatorId].contractAddress != address(0x0)) {\n      ValidatorContract(validators[validatorId].contractAddress).slash(slashingRate, currentEpoch, currentEpoch);\n    }\n    uint256 amount = validators[validatorId].amount.mul(slashingRate).div(100);\n    validators[validatorId].amount = validators[validatorId].amount.sub(amount);\n    if(validators[validatorId].amount < MIN_DEPOSIT_SIZE || jailCheckpoints > 0) {\n        jail(validatorId, jailCheckpoints);\n    }\n    // todo: slash event\n    emit StakeUpdate(validatorId, validators[validatorId].amount.add(amount), validators[validatorId].amount);\n  }\n\n  function unJail(uint256 validatorId) public onlyStaker(validatorId) {\n    require(validators[validatorId].deactivationEpoch > currentEpoch &&\n      validators[validatorId].jailTime <= currentEpoch &&\n      validators[validatorId].status == Status.Locked);\n\n    uint256 amount = validators[validatorId].amount;\n    require(amount >= MIN_DEPOSIT_SIZE);\n    uint256 exitEpoch = validators[validatorId].deactivationEpoch;\n\n    int256 delegationAmount = 0;\n    if (validators[validatorId].contractAddress != address(0x0)) {\n      delegationAmount = ValidatorContract(validators[validatorId].contractAddress).revertLazyUnBonding(exitEpoch);\n    }\n\n    // undo timline so that validator is normal validator\n    updateTimeLine(exitEpoch,  (int256(amount) + delegationAmount ), 1);\n\n    validators[validatorId].deactivationEpoch = 0;\n    validators[validatorId].status = Status.Active;\n    validators[validatorId].jailTime = 0;\n  }\n\n  // in context of slashing\n  function jail(uint256 validatorId, uint256 jailCheckpoints) public /** only*/ {\n    // Todo: requires and more conditions\n    uint256 amount = validators[validatorId].amount;\n    // should unbond instantly\n    uint256 exitEpoch = currentEpoch.add(UNSTAKE_DELAY);  // jail period\n\n    int256 delegationAmount = 0;\n    validators[validatorId].jailTime = jailCheckpoints;\n    if (validators[validatorId].contractAddress != address(0x0)) {\n      delegationAmount = ValidatorContract(validators[validatorId].contractAddress).unBondAllLazy(exitEpoch);\n    }\n    // update future in case of no `unJail`\n    updateTimeLine(exitEpoch,  -(int256(amount) + delegationAmount ), -1);\n    validators[validatorId].deactivationEpoch = exitEpoch;\n    validators[validatorId].status = Status.Locked;\n    emit Jailed(validatorId, exitEpoch);\n  }\n\n  function updateTimeLine(uint256 epoch, int256 amount, int256 stakerCount) private {\n    validatorState[epoch].amount += amount;\n    validatorState[epoch].stakerCount += stakerCount;\n  }\n\n  // returns valid validator for current epoch\n  function getCurrentValidatorSet() public view returns (uint256[] memory) {\n    uint256[] memory _validators = new uint256[](validatorThreshold);\n    uint256 validator;\n    uint256 k = 0;\n    for (uint96 i = 0;i < totalSupply() ;i++) {\n      validator = tokenByIndex(i);\n      if (isValidator(validator)) {\n        _validators[k++] = validator;\n      }\n    }\n    return _validators;\n  }\n\n  function getStakerDetails(uint256 validatorId) public view returns(uint256, uint256, uint256, address, uint256) {\n    return (\n      validators[validatorId].amount,\n      validators[validatorId].activationEpoch,\n      validators[validatorId].deactivationEpoch,\n      validators[validatorId].signer,\n      uint256(validators[validatorId].status)\n      );\n  }\n\n  function getValidatorId(address user) public view returns(uint256) {\n    return tokenOfOwnerByIndex(user, 0);\n  }\n\n  function totalStakedFor(address user) external view returns (uint256) {\n    if (user == address(0x0) || balanceOf(user) == 0) {\n      return 0;\n    }\n    return validators[tokenOfOwnerByIndex(user, 0)].amount;\n  }\n\n  function supportsHistory() external pure returns (bool) {\n    return false;\n  }\n\n  // set staking Token\n  function setToken(address _token) public onlyOwner {\n    require(_token != address(0x0));\n    token = IERC20(_token);\n  }\n\n  // Change the number of validators required to allow a passed header root\n  function updateValidatorThreshold(uint256 newThreshold) public onlyOwner {\n    require(newThreshold > 0);\n    emit ThresholdChange(newThreshold, validatorThreshold);\n    validatorThreshold = newThreshold;\n  }\n\n  // Change reward for each checkpoint\n  function updateCheckpointReward(uint256 newReward) public onlyOwner {\n    require(newReward > 0);\n    emit RewardUpdate(newReward, CHECKPOINT_REWARD);\n    CHECKPOINT_REWARD = newReward;\n  }\n\n  function updateValidatorState(uint256 validatorId, uint256 epoch, int256 amount) public {\n    require(Registry(registry).getDelegationManagerAddress() == msg.sender);\n    require(epoch >= currentEpoch, \"Can't change past\");\n    validatorState[epoch].amount = (\n      validatorState[epoch].amount + amount\n    );\n  }\n\n  function updateDynastyValue(uint256 newDynasty) public onlyOwner {\n    require(newDynasty > 0);\n    emit DynastyValueChange(newDynasty, DYNASTY);\n    DYNASTY = newDynasty;\n    UNSTAKE_DELAY = DYNASTY.div(2);\n    WITHDRAWAL_DELAY = DYNASTY.mul(2);\n  }\n\n  function updateSigner(uint256 validatorId, address _signer) public onlyStaker(validatorId) {\n    require(_signer != address(0x0) && signerToValidator[_signer] == 0);\n\n    // update signer event\n    emit SignerChange(validatorId, validators[validatorId].signer, _signer);\n\n    delete signerToValidator[validators[validatorId].signer];\n    signerToValidator[_signer] = validatorId;\n    validators[validatorId].signer = _signer;\n  }\n\n  function finalizeCommit() internal {\n    uint256 nextEpoch = currentEpoch.add(1);\n    // update totalstake and validator count\n    validatorState[nextEpoch].amount = (\n      validatorState[currentEpoch].amount + validatorState[nextEpoch].amount\n    );\n    validatorState[nextEpoch].stakerCount = (\n      validatorState[currentEpoch].stakerCount + validatorState[nextEpoch].stakerCount\n    );\n\n    // erase old data/history\n    delete validatorState[currentEpoch];\n    currentEpoch = nextEpoch;\n  }\n\n  function updateMinLockInPeriod(uint256 epochs) public onlyOwner {\n    minLockInPeriod = epochs;\n  }\n\n  function currentValidatorSetSize() public view returns (uint256) {\n    return uint256(validatorState[currentEpoch].stakerCount);\n  }\n\n  function currentValidatorSetTotalStake() public view returns (uint256) {\n    return uint256(validatorState[currentEpoch].amount);\n  }\n\n  function getValidatorContract(uint256 validatorId) public view returns(address) {\n    return validators[validatorId].contractAddress;\n  }\n\n  function isValidator(uint256 validatorId) public view returns (bool) {\n    return (\n      validators[validatorId].amount > 0 &&\n      (validators[validatorId].activationEpoch != 0 &&\n      validators[validatorId].activationEpoch <= currentEpoch ) &&\n      (validators[validatorId].deactivationEpoch == 0 ||\n      validators[validatorId].deactivationEpoch > currentEpoch) &&\n      validators[validatorId].status == Status.Active // Todo: reduce logic\n    );\n  }\n\n  function rewardValidator(uint256 validatorId, uint256 _totalStake, uint256 stakePower) internal {\n    uint256 _reward = CHECKPOINT_REWARD.mul(stakePower).div(_totalStake);\n    address _contract = validators[validatorId].contractAddress;\n    if (_contract == address(0x0)) {\n      validators[validatorId].reward += _reward;\n    }\n    else {\n      ValidatorContract(_contract).updateRewards(_reward, currentEpoch, validators[validatorId].amount);\n    }\n  }\n\n  function checkSignatures(bytes32 voteHash, bytes memory sigs, address proposer) public onlyRootChain {\n    // total voting power\n    uint256 stakePower = 0;\n    uint256 validatorId;\n    address lastAdd = address(0x0); // cannot have address(0x0) as an owner\n    for (uint64 i = 0; i < sigs.length; i += 65) {\n      bytes memory sigElement = BytesLib.slice(sigs, i, 65);\n      address signer = voteHash.ecrecovery(sigElement);\n\n      validatorId = signerToValidator[signer];\n      // check if signer is stacker and not proposer\n      if (signer == lastAdd) {\n        break;\n      }\n      else if (\n        isValidator(validatorId) &&\n        signer > lastAdd\n      ) {\n        lastAdd = signer;\n        address _contract = validators[validatorId].contractAddress;\n        stakePower = stakePower.add(validators[validatorId].amount);\n        // add delegation power\n        if (_contract != address(0x0)) {\n          stakePower = stakePower.add(ValidatorContract(_contract).delegatedAmount());\n        }\n      }\n    }\n\n    validatorId = tokenOfOwnerByIndex(proposer, 0);// get ValidatorId\n    uint256 _totalStake = currentValidatorSetTotalStake();\n    require(stakePower >= _totalStake.mul(2).div(3).add(1));\n    rewardValidator(validatorId, stakePower, _totalStake);\n    finalizeCommit();\n  }\n\n}\n",
  "sourcePath": "/Users/arpit/projects/contracts/contracts/staking/StakeManager.sol",
  "compiler": {
    "name": "solc",
    "version": "0.5.7+commit.6da8b019.Emscripten.clang"
  },
  "schemaVersion": "3.0.14",
  "updatedAt": "2019-11-13T10:42:44.691Z",
  "devdoc": {
    "methods": {
      "approve(address,uint256)": {
        "details": "Approves another address to transfer the given token ID The zero address indicates there is no approved address. There can only be one approved address per token at a given time. Can only be called by the token owner or an approved operator.",
        "params": {
          "to": "address to be approved for the given token ID",
          "tokenId": "uint256 ID of the token to be approved"
        }
      },
      "balanceOf(address)": {
        "details": "Gets the balance of the specified address",
        "params": {
          "owner": "address to query the balance of"
        },
        "return": "uint256 representing the amount owned by the passed address"
      },
      "changeRootChain(address)": {
        "details": "Allows the current owner to change root chain address.",
        "params": {
          "newRootChain": "The address to new rootchain."
        }
      },
      "getApproved(uint256)": {
        "details": "Gets the approved address for a token ID, or zero if no address set Reverts if the token ID does not exist.",
        "params": {
          "tokenId": "uint256 ID of the token to query the approval of"
        },
        "return": "address currently approved for the given token ID"
      },
      "isApprovedForAll(address,address)": {
        "details": "Tells whether an operator is approved by a given owner",
        "params": {
          "operator": "operator address which you want to query the approval of",
          "owner": "owner address which you want to query the approval of"
        },
        "return": "bool whether the given operator is approved by the given owner"
      },
      "isOwner()": {
        "return": "true if `msg.sender` is the owner of the contract."
      },
      "name()": {
        "details": "Gets the token name",
        "return": "string representing the token name"
      },
      "owner()": {
        "return": "the address of the owner."
      },
      "ownerOf(uint256)": {
        "details": "Gets the owner of the specified token ID",
        "params": {
          "tokenId": "uint256 ID of the token to query the owner of"
        },
        "return": "address currently marked as the owner of the given token ID"
      },
      "renounceOwnership()": {
        "details": "Allows the current owner to relinquish control of the contract. It will not be possible to call the functions with the `onlyOwner` modifier anymore."
      },
      "safeTransferFrom(address,address,uint256)": {
        "details": "Safely transfers the ownership of a given token ID to another address If the target address is a contract, it must implement `onERC721Received`, which is called upon a safe transfer, and return the magic value `bytes4(keccak256(\"onERC721Received(address,address,uint256,bytes)\"))`; otherwise, the transfer is reverted. Requires the msg.sender to be the owner, approved, or operator",
        "params": {
          "from": "current owner of the token",
          "to": "address to receive the ownership of the given token ID",
          "tokenId": "uint256 ID of the token to be transferred"
        }
      },
      "safeTransferFrom(address,address,uint256,bytes)": {
        "details": "Safely transfers the ownership of a given token ID to another address If the target address is a contract, it must implement `onERC721Received`, which is called upon a safe transfer, and return the magic value `bytes4(keccak256(\"onERC721Received(address,address,uint256,bytes)\"))`; otherwise, the transfer is reverted. Requires the msg.sender to be the owner, approved, or operator",
        "params": {
          "_data": "bytes data to send along with a safe transfer check",
          "from": "current owner of the token",
          "to": "address to receive the ownership of the given token ID",
          "tokenId": "uint256 ID of the token to be transferred"
        }
      },
      "setApprovalForAll(address,bool)": {
        "details": "Sets or unsets the approval of a given operator An operator is allowed to transfer all tokens of the sender on their behalf",
        "params": {
          "approved": "representing the status of the approval to be set",
          "to": "operator address to set the approval"
        }
      },
      "supportsInterface(bytes4)": {
        "details": "implement supportsInterface(bytes4) using a lookup table"
      },
      "symbol()": {
        "details": "Gets the token symbol",
        "return": "string representing the token symbol"
      },
      "tokenByIndex(uint256)": {
        "details": "Gets the token ID at a given index of all the tokens in this contract Reverts if the index is greater or equal to the total number of tokens",
        "params": {
          "index": "uint256 representing the index to be accessed of the tokens list"
        },
        "return": "uint256 token ID at the given index of the tokens list"
      },
      "tokenOfOwnerByIndex(address,uint256)": {
        "details": "Gets the token ID at a given index of the tokens list of the requested owner",
        "params": {
          "index": "uint256 representing the index to be accessed of the requested tokens list",
          "owner": "address owning the tokens list to be accessed"
        },
        "return": "uint256 token ID at the given index of the tokens list owned by the requested address"
      },
      "tokenURI(uint256)": {
        "details": "Returns an URI for a given token ID Throws if the token ID does not exist. May return an empty string.",
        "params": {
          "tokenId": "uint256 ID of the token to query"
        }
      },
      "totalSupply()": {
        "details": "Gets the total amount of tokens stored by the contract",
        "return": "uint256 representing the total amount of tokens"
      },
      "transferFrom(address,address,uint256)": {
        "details": "Transfers the ownership of a given token ID to another address Usage of this method is discouraged, use `safeTransferFrom` whenever possible Requires the msg.sender to be the owner, approved, or operator",
        "params": {
          "from": "current owner of the token",
          "to": "address to receive the ownership of the given token ID",
          "tokenId": "uint256 ID of the token to be transferred"
        }
      },
      "transferOwnership(address)": {
        "details": "Allows the current owner to transfer control of the contract to a newOwner.",
        "params": {
          "newOwner": "The address to transfer ownership to."
        }
      }
    }
  },
  "userdoc": {
    "methods": {
      "renounceOwnership()": {
        "notice": "Renouncing ownership will leave the contract without an owner, thereby removing any functionality that is only available to the owner."
      }
    }
  }
}