{
  "contractName": "StateSender",
  "abi": [
    {
      "constant": true,
      "inputs": [],
      "name": "counter",
      "outputs": [
        {
          "name": "",
          "type": "uint256"
        }
      ],
      "payable": false,
      "stateMutability": "view",
      "type": "function"
    },
    {
      "constant": false,
      "inputs": [],
      "name": "renounceOwnership",
      "outputs": [],
      "payable": false,
      "stateMutability": "nonpayable",
      "type": "function"
    },
    {
      "constant": true,
      "inputs": [],
      "name": "owner",
      "outputs": [
        {
          "name": "",
          "type": "address"
        }
      ],
      "payable": false,
      "stateMutability": "view",
      "type": "function"
    },
    {
      "constant": true,
      "inputs": [],
      "name": "isOwner",
      "outputs": [
        {
          "name": "",
          "type": "bool"
        }
      ],
      "payable": false,
      "stateMutability": "view",
      "type": "function"
    },
    {
      "constant": true,
      "inputs": [
        {
          "name": "",
          "type": "address"
        }
      ],
      "name": "registrations",
      "outputs": [
        {
          "name": "",
          "type": "address"
        }
      ],
      "payable": false,
      "stateMutability": "view",
      "type": "function"
    },
    {
      "constant": false,
      "inputs": [
        {
          "name": "newOwner",
          "type": "address"
        }
      ],
      "name": "transferOwnership",
      "outputs": [],
      "payable": false,
      "stateMutability": "nonpayable",
      "type": "function"
    },
    {
      "anonymous": false,
      "inputs": [
        {
          "indexed": true,
          "name": "user",
          "type": "address"
        },
        {
          "indexed": true,
          "name": "sender",
          "type": "address"
        },
        {
          "indexed": true,
          "name": "receiver",
          "type": "address"
        }
      ],
      "name": "NewRegistration",
      "type": "event"
    },
    {
      "anonymous": false,
      "inputs": [
        {
          "indexed": true,
          "name": "user",
          "type": "address"
        },
        {
          "indexed": true,
          "name": "sender",
          "type": "address"
        },
        {
          "indexed": true,
          "name": "receiver",
          "type": "address"
        }
      ],
      "name": "RegistrationUpdated",
      "type": "event"
    },
    {
      "anonymous": false,
      "inputs": [
        {
          "indexed": true,
          "name": "id",
          "type": "uint256"
        },
        {
          "indexed": true,
          "name": "contractAddress",
          "type": "address"
        },
        {
          "indexed": false,
          "name": "data",
          "type": "bytes"
        }
      ],
      "name": "StateSynced",
      "type": "event"
    },
    {
      "anonymous": false,
      "inputs": [
        {
          "indexed": true,
          "name": "previousOwner",
          "type": "address"
        },
        {
          "indexed": true,
          "name": "newOwner",
          "type": "address"
        }
      ],
      "name": "OwnershipTransferred",
      "type": "event"
    },
    {
      "constant": false,
      "inputs": [
        {
          "name": "sender",
          "type": "address"
        },
        {
          "name": "receiver",
          "type": "address"
        }
      ],
      "name": "register",
      "outputs": [],
      "payable": false,
      "stateMutability": "nonpayable",
      "type": "function"
    },
    {
      "constant": false,
      "inputs": [
        {
          "name": "receiver",
          "type": "address"
        },
        {
          "name": "data",
          "type": "bytes"
        }
      ],
      "name": "syncState",
      "outputs": [],
      "payable": false,
      "stateMutability": "nonpayable",
      "type": "function"
    }
  ],
  "bytecode": "0x60806040819052600080546001600160a01b03191633178082556001600160a01b0316917f8be0079c531659141344cd1fd0a4f28419497f9722a3daafe3b4186f6b6457e0908290a36105a2806100576000396000f3fe608060405234801561001057600080fd5b50600436106100885760003560e01c80638f32d59b1161005b5780638f32d59b14610155578063942e6bcf14610171578063aa67735414610197578063f2fde38b146101c557610088565b806316f198311461008d57806361bc221a1461010f578063715018a6146101295780638da5cb5b14610131575b600080fd5b61010d600480360360408110156100a357600080fd5b6001600160a01b0382351691908101906040810160208201356401000000008111156100ce57600080fd5b8201836020820111156100e057600080fd5b8035906020019184600183028401116401000000008311171561010257600080fd5b5090925090506101eb565b005b6101176102ea565b60408051918252519081900360200190f35b61010d6102f0565b61013961034b565b604080516001600160a01b039092168252519081900360200190f35b61015d61035a565b604080519115158252519081900360200190f35b6101396004803603602081101561018757600080fd5b50356001600160a01b031661036b565b61010d600480360360408110156101ad57600080fd5b506001600160a01b0381358116916020013516610386565b61010d600480360360208110156101db57600080fd5b50356001600160a01b03166104a2565b6001600160a01b03808416600090815260026020526040902054849116331461025e5760408051600160e51b62461bcd02815260206004820152600e60248201527f496e76616c69642073656e646572000000000000000000000000000000000000604482015290519081900360640190fd5b600180546102719163ffffffff6104bf16565b600181905550836001600160a01b03166001547f103fed9db65eac19c4d870f49ab7520fe03b99f1838e5996caf47e9e43308392858560405180806020018281038252848482818152602001925080828437600083820152604051601f909101601f19169092018290039550909350505050a350505050565b60015481565b6102f861035a565b61030157600080fd5b600080546040516001600160a01b03909116907f8be0079c531659141344cd1fd0a4f28419497f9722a3daafe3b4186f6b6457e0908390a3600080546001600160a01b0319169055565b6000546001600160a01b031690565b6000546001600160a01b0316331490565b6002602052600090815260409020546001600160a01b031681565b61038e61035a565b806103b257506001600160a01b038181166000908152600260205260409020541633145b6103f057604051600160e51b62461bcd0281526004018080602001828103825260308152602001806105476030913960400191505060405180910390fd5b6001600160a01b03818116600090815260026020526040902080546001600160a01b031916848316179081905516610462576040516001600160a01b03808316919084169033907f3f4512aacd7a664fdb321a48e8340120d63253a91c6367a143abd19ecf68aedd90600090a461049e565b6040516001600160a01b03808316919084169033907fc51cb1a93ec91e927852b3445875ec77b148271953e5c0b43698c968ad6fc47d90600090a45b5050565b6104aa61035a565b6104b357600080fd5b6104bc816104d8565b50565b6000828201838110156104d157600080fd5b9392505050565b6001600160a01b0381166104eb57600080fd5b600080546040516001600160a01b03808516939216917f8be0079c531659141344cd1fd0a4f28419497f9722a3daafe3b4186f6b6457e091a3600080546001600160a01b0319166001600160a01b039290921691909117905556fe537461746553656e6465722e72656769737465723a204e6f7420617574686f72697a656420746f207265676973746572a165627a7a72305820d7d523f1a82cfed21a79a311a6f34bbce401bd9f80bf7bddfe7a7b93ecda99130029",
  "source": "pragma solidity ^0.5.2;\n\nimport { Ownable } from \"openzeppelin-solidity/contracts/ownership/Ownable.sol\";\nimport { SafeMath } from \"openzeppelin-solidity/contracts/math/SafeMath.sol\";\n\ncontract StateSender is Ownable {\n  using SafeMath for uint256;\n\n  uint256 public counter;\n  mapping(address => address) public registrations;\n\n  event NewRegistration(address indexed user, address indexed sender, address indexed receiver);\n  event RegistrationUpdated(address indexed user, address indexed sender, address indexed receiver);\n  event StateSynced(uint256 indexed id, address indexed contractAddress, bytes data);\n\n  modifier onlyRegistered(address receiver) {\n    require(registrations[receiver] == msg.sender, \"Invalid sender\");\n    _;\n  }\n\n  // register new contract for state sync\n  function register(address sender, address receiver) public {\n    require(\n      isOwner() || registrations[receiver] == msg.sender,\n      \"StateSender.register: Not authorized to register\"\n    );\n    registrations[receiver] = sender;\n    if (registrations[receiver] == address(0)) {\n      emit NewRegistration(msg.sender, sender, receiver);\n    } else {\n      emit RegistrationUpdated(msg.sender, sender, receiver);\n    }\n  }\n\n  function syncState(address receiver, bytes calldata data) external onlyRegistered(receiver) {\n    counter = counter.add(1);\n    emit StateSynced(counter, receiver, data);\n  }\n}\n",
  "sourcePath": "/Users/arpit/projects/contracts/contracts/root/stateSyncer/StateSender.sol",
  "compiler": {
    "name": "solc",
    "version": "0.5.7+commit.6da8b019.Emscripten.clang"
  },
  "schemaVersion": "3.0.14",
  "updatedAt": "2019-11-13T10:42:44.617Z",
  "devdoc": {
    "methods": {
      "isOwner()": {
        "return": "true if `msg.sender` is the owner of the contract."
      },
      "owner()": {
        "return": "the address of the owner."
      },
      "renounceOwnership()": {
        "details": "Allows the current owner to relinquish control of the contract. It will not be possible to call the functions with the `onlyOwner` modifier anymore."
      },
      "transferOwnership(address)": {
        "details": "Allows the current owner to transfer control of the contract to a newOwner.",
        "params": {
          "newOwner": "The address to transfer ownership to."
        }
      }
    }
  },
  "userdoc": {
    "methods": {
      "renounceOwnership()": {
        "notice": "Renouncing ownership will leave the contract without an owner, thereby removing any functionality that is only available to the owner."
      }
    }
  }
}