{
  "contractName": "TokenManagerMock",
  "abi": [
    {
      "constant": true,
      "inputs": [
        {
          "name": "",
          "type": "address"
        }
      ],
      "name": "reverseTokens",
      "outputs": [
        {
          "name": "",
          "type": "address"
        }
      ],
      "payable": false,
      "stateMutability": "view",
      "type": "function"
    },
    {
      "constant": true,
      "inputs": [],
      "name": "wethToken",
      "outputs": [
        {
          "name": "",
          "type": "address"
        }
      ],
      "payable": false,
      "stateMutability": "view",
      "type": "function"
    },
    {
      "constant": false,
      "inputs": [],
      "name": "renounceOwnership",
      "outputs": [],
      "payable": false,
      "stateMutability": "nonpayable",
      "type": "function"
    },
    {
      "constant": true,
      "inputs": [],
      "name": "owner",
      "outputs": [
        {
          "name": "",
          "type": "address"
        }
      ],
      "payable": false,
      "stateMutability": "view",
      "type": "function"
    },
    {
      "constant": true,
      "inputs": [],
      "name": "isOwner",
      "outputs": [
        {
          "name": "",
          "type": "bool"
        }
      ],
      "payable": false,
      "stateMutability": "view",
      "type": "function"
    },
    {
      "constant": true,
      "inputs": [
        {
          "name": "",
          "type": "address"
        }
      ],
      "name": "isERC721",
      "outputs": [
        {
          "name": "",
          "type": "bool"
        }
      ],
      "payable": false,
      "stateMutability": "view",
      "type": "function"
    },
    {
      "constant": true,
      "inputs": [
        {
          "name": "",
          "type": "address"
        }
      ],
      "name": "tokens",
      "outputs": [
        {
          "name": "",
          "type": "address"
        }
      ],
      "payable": false,
      "stateMutability": "view",
      "type": "function"
    },
    {
      "constant": false,
      "inputs": [
        {
          "name": "newOwner",
          "type": "address"
        }
      ],
      "name": "transferOwnership",
      "outputs": [],
      "payable": false,
      "stateMutability": "nonpayable",
      "type": "function"
    },
    {
      "anonymous": false,
      "inputs": [
        {
          "indexed": true,
          "name": "previousOwner",
          "type": "address"
        },
        {
          "indexed": true,
          "name": "newOwner",
          "type": "address"
        }
      ],
      "name": "OwnershipTransferred",
      "type": "event"
    },
    {
      "anonymous": false,
      "inputs": [
        {
          "indexed": true,
          "name": "_rootToken",
          "type": "address"
        },
        {
          "indexed": true,
          "name": "_childToken",
          "type": "address"
        }
      ],
      "name": "TokenMapped",
      "type": "event"
    },
    {
      "constant": false,
      "inputs": [
        {
          "name": "_rootToken",
          "type": "address"
        },
        {
          "name": "_childToken",
          "type": "address"
        },
        {
          "name": "_isERC721",
          "type": "bool"
        }
      ],
      "name": "mapToken",
      "outputs": [],
      "payable": false,
      "stateMutability": "nonpayable",
      "type": "function"
    },
    {
      "constant": false,
      "inputs": [
        {
          "name": "_token",
          "type": "address"
        }
      ],
      "name": "setWETHToken",
      "outputs": [],
      "payable": false,
      "stateMutability": "nonpayable",
      "type": "function"
    }
  ],
  "bytecode": "0x6080604081905260048054600160a060020a031916331790819055600160a060020a0316906000907f8be0079c531659141344cd1fd0a4f28419497f9722a3daafe3b4186f6b6457e0908290a36104928061005b6000396000f3006080604052600436106100a35763ffffffff7c010000000000000000000000000000000000000000000000000000000060003504166340828ebf81146100a85780634b57b0be146100e5578063715018a6146100fa5780638da5cb5b146101115780638f32d59b14610126578063b45d1f681461014f578063daa09e5414610170578063e117694b14610191578063e4860339146101bd578063f2fde38b146101de575b600080fd5b3480156100b457600080fd5b506100c9600160a060020a03600435166101ff565b60408051600160a060020a039092168252519081900360200190f35b3480156100f157600080fd5b506100c961021a565b34801561010657600080fd5b5061010f610229565b005b34801561011d57600080fd5b506100c9610293565b34801561013257600080fd5b5061013b6102a2565b604080519115158252519081900360200190f35b34801561015b57600080fd5b5061010f600160a060020a03600435166102b3565b34801561017c57600080fd5b5061013b600160a060020a03600435166102f7565b34801561019d57600080fd5b5061010f600160a060020a0360043581169060243516604435151561030c565b3480156101c957600080fd5b506100c9600160a060020a036004351661031c565b3480156101ea57600080fd5b5061010f600160a060020a0360043516610337565b600160205260009081526040902054600160a060020a031681565b600354600160a060020a031681565b6102316102a2565b151561023c57600080fd5b600454604051600091600160a060020a0316907f8be0079c531659141344cd1fd0a4f28419497f9722a3daafe3b4186f6b6457e0908390a36004805473ffffffffffffffffffffffffffffffffffffffff19169055565b600454600160a060020a031690565b600454600160a060020a0316331490565b600160a060020a03811615156102c857600080fd5b6003805473ffffffffffffffffffffffffffffffffffffffff1916600160a060020a0392909216919091179055565b60026020526000908152604090205460ff1681565b610317838383610356565b505050565b600060208190529081526040902054600160a060020a031681565b61033f6102a2565b151561034a57600080fd5b610353816103e8565b50565b600160a060020a03838116600081815260208181526040808320805473ffffffffffffffffffffffffffffffffffffffff19908116968916968717909155858452600183528184208054909116851790558383526002909152808220805460ff1916861515179055517f85920d35e6c72f6b2affffa04298b0cecfeba86e4a9f407df661f1cb8ab5e6179190a3505050565b600160a060020a03811615156103fd57600080fd5b600454604051600160a060020a038084169216907f8be0079c531659141344cd1fd0a4f28419497f9722a3daafe3b4186f6b6457e090600090a36004805473ffffffffffffffffffffffffffffffffffffffff1916600160a060020a03929092169190911790555600a165627a7a72305820ed4af58600718d22694d91248f4ca96e6d778c8e47e2c9c9aa698baaa2dbb12e0029",
  "source": "pragma solidity ^0.4.24;\n\nimport { Ownable } from \"openzeppelin-solidity/contracts/ownership/Ownable.sol\";\nimport { TokenManager } from \"../root/TokenManager.sol\";\n\n\ncontract TokenManagerMock is TokenManager, Ownable {\n  // map child token to root token\n  function mapToken(address _rootToken, address _childToken, bool _isERC721) public  {\n    // map root token to child token\n    _mapToken(_rootToken, _childToken, _isERC721);\n  }\n\n  // set WETH\n  function setWETHToken(address _token) public {\n    require(_token != address(0));\n    wethToken = _token;\n  }\n}\n",
  "sourcePath": "/Users/atvanguard/matic/contracts/contracts/mocks/TokenManagerMock.sol",
  "compiler": {
    "name": "solc",
    "version": "0.4.24+commit.e67f0147.Emscripten.clang"
  },
  "schemaVersion": "2.0.1",
  "updatedAt": "2019-12-07T09:11:33.309Z"
}