{
  "contractName": "TokenManager",
  "abi": [
    {
      "constant": true,
      "inputs": [
        {
          "name": "",
          "type": "address"
        }
      ],
      "name": "reverseTokens",
      "outputs": [
        {
          "name": "",
          "type": "address"
        }
      ],
      "payable": false,
      "stateMutability": "view",
      "type": "function"
    },
    {
      "constant": true,
      "inputs": [],
      "name": "wethToken",
      "outputs": [
        {
          "name": "",
          "type": "address"
        }
      ],
      "payable": false,
      "stateMutability": "view",
      "type": "function"
    },
    {
      "constant": true,
      "inputs": [
        {
          "name": "",
          "type": "address"
        }
      ],
      "name": "isERC721",
      "outputs": [
        {
          "name": "",
          "type": "bool"
        }
      ],
      "payable": false,
      "stateMutability": "view",
      "type": "function"
    },
    {
      "constant": true,
      "inputs": [
        {
          "name": "",
          "type": "address"
        }
      ],
      "name": "tokens",
      "outputs": [
        {
          "name": "",
          "type": "address"
        }
      ],
      "payable": false,
      "stateMutability": "view",
      "type": "function"
    },
    {
      "anonymous": false,
      "inputs": [
        {
          "indexed": true,
          "name": "_rootToken",
          "type": "address"
        },
        {
          "indexed": true,
          "name": "_childToken",
          "type": "address"
        }
      ],
      "name": "TokenMapped",
      "type": "event"
    }
  ],
  "bytecode": "0x608060405234801561001057600080fd5b50610194806100206000396000f3006080604052600436106100615763ffffffff7c010000000000000000000000000000000000000000000000000000000060003504166340828ebf81146100665780634b57b0be146100a3578063daa09e54146100b8578063e4860339146100ed575b600080fd5b34801561007257600080fd5b50610087600160a060020a036004351661010e565b60408051600160a060020a039092168252519081900360200190f35b3480156100af57600080fd5b50610087610129565b3480156100c457600080fd5b506100d9600160a060020a0360043516610138565b604080519115158252519081900360200190f35b3480156100f957600080fd5b50610087600160a060020a036004351661014d565b600160205260009081526040902054600160a060020a031681565b600354600160a060020a031681565b60026020526000908152604090205460ff1681565b600060208190529081526040902054600160a060020a0316815600a165627a7a7230582093595ba466acdf75bc3f34ab54ad8971a0117ea69532d7d8b9bc9603ad66366a0029",
  "source": "pragma solidity ^0.4.24;\n\n\ncontract TokenManager {\n  // mapping for (root token => child token)\n  mapping(address => address) public tokens;\n\n  // mapping for (child token => root token)\n  mapping(address => address) public reverseTokens;\n\n  // mapping whether a token is erc721 or not\n  mapping(address => bool) public isERC721;\n\n  // weth token\n  address public wethToken;\n\n  //\n  // Events\n  //\n\n  event TokenMapped(address indexed _rootToken, address indexed _childToken);\n\n  //\n  // Internal methods\n  //\n\n  /**\n   * @dev Checks if token is mapped\n   */\n  function _isTokenMapped(address _token) internal view returns (bool) {\n    return _token != address(0x0) && tokens[_token] != address(0x0);\n  }\n\n  /**\n   * @dev Map root token to child token\n   */\n  function _mapToken(address _rootToken, address _childToken, bool _isERC721) internal {\n    // throw if token is already mapped\n    // require(!_isTokenMapped(_rootToken)); // Temp commented for experimental purpose\n\n    // map token\n    tokens[_rootToken] = _childToken;\n    reverseTokens[_childToken] = _rootToken;\n\n    isERC721[_rootToken] = _isERC721;\n\n    // emit token mapped event\n    emit TokenMapped(_rootToken, _childToken);\n  }\n}\n",
  "sourcePath": "/Users/atvanguard/matic/contracts/contracts/root/TokenManager.sol",
  "compiler": {
    "name": "solc",
    "version": "0.4.24+commit.e67f0147.Emscripten.clang"
  },
  "schemaVersion": "2.0.1",
  "updatedAt": "2019-12-07T09:11:33.346Z"
}