{
  "contractName": "TxValidator",
  "abi": [
    {
      "constant": true,
      "inputs": [
        {
          "name": "headerNumber",
          "type": "uint256"
        },
        {
          "name": "headerProof",
          "type": "bytes"
        },
        {
          "name": "blockNumber",
          "type": "uint256"
        },
        {
          "name": "blockTime",
          "type": "uint256"
        },
        {
          "name": "txRoot",
          "type": "bytes32"
        },
        {
          "name": "receiptRoot",
          "type": "bytes32"
        },
        {
          "name": "path",
          "type": "bytes"
        },
        {
          "name": "txBytes",
          "type": "bytes"
        },
        {
          "name": "txProof",
          "type": "bytes"
        }
      ],
      "name": "validateTxExistence",
      "outputs": [
        {
          "name": "",
          "type": "bool"
        }
      ],
      "payable": false,
      "stateMutability": "view",
      "type": "function"
    },
    {
      "constant": false,
      "inputs": [
        {
          "name": "_withdrawManager",
          "type": "address"
        }
      ],
      "name": "setWithdrawManager",
      "outputs": [],
      "payable": false,
      "stateMutability": "nonpayable",
      "type": "function"
    },
    {
      "constant": false,
      "inputs": [
        {
          "name": "_depositManager",
          "type": "address"
        }
      ],
      "name": "setDepositManager",
      "outputs": [],
      "payable": false,
      "stateMutability": "nonpayable",
      "type": "function"
    },
    {
      "constant": true,
      "inputs": [],
      "name": "childChainContract",
      "outputs": [
        {
          "name": "",
          "type": "address"
        }
      ],
      "payable": false,
      "stateMutability": "view",
      "type": "function"
    },
    {
      "constant": true,
      "inputs": [],
      "name": "depositManager",
      "outputs": [
        {
          "name": "",
          "type": "address"
        }
      ],
      "payable": false,
      "stateMutability": "view",
      "type": "function"
    },
    {
      "constant": true,
      "inputs": [
        {
          "name": "headerNumber",
          "type": "uint256"
        },
        {
          "name": "headerProof",
          "type": "bytes"
        },
        {
          "name": "blockNumber",
          "type": "uint256"
        },
        {
          "name": "blockTime",
          "type": "uint256"
        },
        {
          "name": "txRoot",
          "type": "bytes32"
        },
        {
          "name": "receiptRoot",
          "type": "bytes32"
        },
        {
          "name": "path",
          "type": "bytes"
        },
        {
          "name": "txBytes",
          "type": "bytes"
        },
        {
          "name": "txProof",
          "type": "bytes"
        },
        {
          "name": "receiptBytes",
          "type": "bytes"
        },
        {
          "name": "receiptProof",
          "type": "bytes"
        }
      ],
      "name": "validateTx",
      "outputs": [
        {
          "name": "",
          "type": "bool"
        }
      ],
      "payable": false,
      "stateMutability": "view",
      "type": "function"
    },
    {
      "constant": false,
      "inputs": [],
      "name": "renounceOwnership",
      "outputs": [],
      "payable": false,
      "stateMutability": "nonpayable",
      "type": "function"
    },
    {
      "constant": true,
      "inputs": [],
      "name": "owner",
      "outputs": [
        {
          "name": "",
          "type": "address"
        }
      ],
      "payable": false,
      "stateMutability": "view",
      "type": "function"
    },
    {
      "constant": true,
      "inputs": [],
      "name": "isOwner",
      "outputs": [
        {
          "name": "",
          "type": "bool"
        }
      ],
      "payable": false,
      "stateMutability": "view",
      "type": "function"
    },
    {
      "constant": true,
      "inputs": [],
      "name": "rootChain",
      "outputs": [
        {
          "name": "",
          "type": "address"
        }
      ],
      "payable": false,
      "stateMutability": "view",
      "type": "function"
    },
    {
      "constant": false,
      "inputs": [],
      "name": "unlock",
      "outputs": [],
      "payable": false,
      "stateMutability": "nonpayable",
      "type": "function"
    },
    {
      "constant": true,
      "inputs": [],
      "name": "locked",
      "outputs": [
        {
          "name": "",
          "type": "bool"
        }
      ],
      "payable": false,
      "stateMutability": "view",
      "type": "function"
    },
    {
      "constant": true,
      "inputs": [
        {
          "name": "headerNumber",
          "type": "uint256"
        },
        {
          "name": "headerProof",
          "type": "bytes"
        },
        {
          "name": "blockNumber",
          "type": "uint256"
        },
        {
          "name": "blockTime",
          "type": "uint256"
        },
        {
          "name": "txRoot",
          "type": "bytes32"
        },
        {
          "name": "receiptRoot",
          "type": "bytes32"
        },
        {
          "name": "path",
          "type": "bytes"
        },
        {
          "name": "txBytes",
          "type": "bytes"
        },
        {
          "name": "txProof",
          "type": "bytes"
        },
        {
          "name": "receiptBytes",
          "type": "bytes"
        },
        {
          "name": "receiptProof",
          "type": "bytes"
        }
      ],
      "name": "validateTxReceiptExistence",
      "outputs": [
        {
          "name": "",
          "type": "bool"
        }
      ],
      "payable": false,
      "stateMutability": "view",
      "type": "function"
    },
    {
      "constant": false,
      "inputs": [
        {
          "name": "newRootChain",
          "type": "address"
        }
      ],
      "name": "changeRootChain",
      "outputs": [],
      "payable": false,
      "stateMutability": "nonpayable",
      "type": "function"
    },
    {
      "constant": true,
      "inputs": [],
      "name": "withdrawManager",
      "outputs": [
        {
          "name": "",
          "type": "address"
        }
      ],
      "payable": false,
      "stateMutability": "view",
      "type": "function"
    },
    {
      "constant": false,
      "inputs": [
        {
          "name": "newOwner",
          "type": "address"
        }
      ],
      "name": "transferOwnership",
      "outputs": [],
      "payable": false,
      "stateMutability": "nonpayable",
      "type": "function"
    },
    {
      "constant": false,
      "inputs": [
        {
          "name": "_childChainContract",
          "type": "address"
        }
      ],
      "name": "setChildChainContract",
      "outputs": [],
      "payable": false,
      "stateMutability": "nonpayable",
      "type": "function"
    },
    {
      "constant": false,
      "inputs": [],
      "name": "lock",
      "outputs": [],
      "payable": false,
      "stateMutability": "nonpayable",
      "type": "function"
    },
    {
      "anonymous": false,
      "inputs": [
        {
          "indexed": true,
          "name": "previousRootChain",
          "type": "address"
        },
        {
          "indexed": true,
          "name": "newRootChain",
          "type": "address"
        }
      ],
      "name": "RootChainChanged",
      "type": "event"
    },
    {
      "anonymous": false,
      "inputs": [
        {
          "indexed": true,
          "name": "previousOwner",
          "type": "address"
        },
        {
          "indexed": true,
          "name": "newOwner",
          "type": "address"
        }
      ],
      "name": "OwnershipTransferred",
      "type": "event"
    },
    {
      "constant": false,
      "inputs": [
        {
          "name": "headerNumber",
          "type": "uint256"
        },
        {
          "name": "headerProof",
          "type": "bytes"
        },
        {
          "name": "blockNumber",
          "type": "uint256"
        },
        {
          "name": "blockTime",
          "type": "uint256"
        },
        {
          "name": "txRoot",
          "type": "bytes32"
        },
        {
          "name": "receiptRoot",
          "type": "bytes32"
        },
        {
          "name": "path",
          "type": "bytes"
        },
        {
          "name": "txBytes",
          "type": "bytes"
        },
        {
          "name": "txProof",
          "type": "bytes"
        },
        {
          "name": "receiptBytes",
          "type": "bytes"
        },
        {
          "name": "receiptProof",
          "type": "bytes"
        }
      ],
      "name": "validateTxAndSlash",
      "outputs": [],
      "payable": false,
      "stateMutability": "nonpayable",
      "type": "function"
    }
  ],
  "bytecode": "0x6080604081905260008054600160a060020a0319163317808255600160a060020a0316917f8be0079c531659141344cd1fd0a4f28419497f9722a3daafe3b4186f6b6457e0908290a3611785806100576000396000f3006080604052600436106100ed5763ffffffff60e060020a6000350416630b3fa78c81146100f257806317e3e2e814610236578063228d71a914610259578063242fbb041461027a5780636c7ac9d8146102ab5780636d4babac146102c0578063715018a61461046c5780638da5cb5b146104815780638f32d59b14610496578063987ab9db146104ab578063a69df4b5146104c0578063cf309012146104d5578063d9bcb335146104ea578063dfdae36514610696578063e8afa8e814610842578063ec3e9da514610863578063f2fde38b14610878578063f3b57e6114610899578063f83d08ba146108ba575b600080fd5b3480156100fe57600080fd5b5060408051602060046024803582810135601f810185900485028601850190965285855261022295833595369560449491939091019190819084018382808284375050604080516020601f60808a01358b0180359182018390048302840183018552818452989b8a359b838c01359b958601359a60608701359a50919850965060a09094019450919281019190819084018382808284375050604080516020601f89358b018035918201839004830284018301909452808352979a99988101979196509182019450925082915084018382808284375050604080516020601f89358b018035918201839004830284018301909452808352979a9998810197919650918201945092508291508401838280828437509497506108cf9650505050505050565b604080519115158252519081900360200190f35b34801561024257600080fd5b50610257600160a060020a0360043516610cc3565b005b34801561026557600080fd5b50610257600160a060020a0360043516610d1a565b34801561028657600080fd5b5061028f610d71565b60408051600160a060020a039092168252519081900360200190f35b3480156102b757600080fd5b5061028f610d80565b3480156102cc57600080fd5b5060408051602060046024803582810135601f810185900485028601850190965285855261022295833595369560449491939091019190819084018382808284375050604080516020601f60808a01358b0180359182018390048302840183018552818452989b8a359b838c01359b958601359a60608701359a50919850965060a09094019450919281019190819084018382808284375050604080516020601f89358b018035918201839004830284018301909452808352979a99988101979196509182019450925082915084018382808284375050604080516020601f89358b018035918201839004830284018301909452808352979a99988101979196509182019450925082915084018382808284375050604080516020601f89358b018035918201839004830284018301909452808352979a99988101979196509182019450925082915084018382808284375050604080516020601f89358b018035918201839004830284018301909452808352979a999881019791965091820194509250829150840183828082843750949750610d8f9650505050505050565b34801561047857600080fd5b50610257610f6d565b34801561048d57600080fd5b5061028f610fd7565b3480156104a257600080fd5b50610222610fe6565b3480156104b757600080fd5b5061028f610ff7565b3480156104cc57600080fd5b50610257611006565b3480156104e157600080fd5b50610222611039565b3480156104f657600080fd5b5060408051602060046024803582810135601f810185900485028601850190965285855261022295833595369560449491939091019190819084018382808284375050604080516020601f60808a01358b0180359182018390048302840183018552818452989b8a359b838c01359b958601359a60608701359a50919850965060a09094019450919281019190819084018382808284375050604080516020601f89358b018035918201839004830284018301909452808352979a99988101979196509182019450925082915084018382808284375050604080516020601f89358b018035918201839004830284018301909452808352979a99988101979196509182019450925082915084018382808284375050604080516020601f89358b018035918201839004830284018301909452808352979a99988101979196509182019450925082915084018382808284375050604080516020601f89358b018035918201839004830284018301909452808352979a99988101979196509182019450925082915084018382808284375094975061105a9650505050505050565b3480156106a257600080fd5b5060408051602060046024803582810135601f810185900485028601850190965285855261025795833595369560449491939091019190819084018382808284375050604080516020601f60808a01358b0180359182018390048302840183018552818452989b8a359b838c01359b958601359a60608701359a50919850965060a09094019450919281019190819084018382808284375050604080516020601f89358b018035918201839004830284018301909452808352979a99988101979196509182019450925082915084018382808284375050604080516020601f89358b018035918201839004830284018301909452808352979a99988101979196509182019450925082915084018382808284375050604080516020601f89358b018035918201839004830284018301909452808352979a99988101979196509182019450925082915084018382808284375050604080516020601f89358b018035918201839004830284018301909452808352979a9998810197919650918201945092508291508401838280828437509497506110f69650505050505050565b34801561084e57600080fd5b50610257600160a060020a03600435166111f3565b34801561086f57600080fd5b5061028f611284565b34801561088457600080fd5b50610257600160a060020a0360043516611293565b3480156108a557600080fd5b50610257600160a060020a03600435166112b2565b3480156108c657600080fd5b50610257611309565b600154604080517f61bbd461000000000000000000000000000000000000000000000000000000008152600481018c9052905160009283928392600160a060020a03909216916361bbd4619160248082019260809290919082900301818787803b15801561093c57600080fd5b505af1158015610950573d6000803e3d6000fd5b505050506040513d608081101561096657600080fd5b8101908080519060200190929190805190602001909291908051906020019092919080519060200190929190505050905050809250819350505089898989604051808581526020018481526020018360001916600019168152602001826000191660001916815260200194505050505060405180910390206000191673__Merkle________________________________636c8f455c9091838d03858f6040518563ffffffff1660e060020a028152600401808560001916600019168152602001848152602001836000191660001916815260200180602001828103825283818151815260200191508051906020019080838360005b83811015610a74578181015183820152602001610a5c565b50505050905090810190601f168015610aa15780820380516001836020036101000a031916815260200191505b509550505050505060206040518083038186803b158015610ac157600080fd5b505af4158015610ad5573d6000803e3d6000fd5b505050506040513d6020811015610aeb57600080fd5b50518015610cb3575073__MerklePatriciaProof___________________6379d1d4fa8688878c6040518563ffffffff1660e060020a028152600401808060200180602001806020018560001916600019168152602001848103845288818151815260200191508051906020019080838360005b83811015610b77578181015183820152602001610b5f565b50505050905090810190601f168015610ba45780820380516001836020036101000a031916815260200191505b50848103835287518152875160209182019189019080838360005b83811015610bd7578181015183820152602001610bbf565b50505050905090810190601f168015610c045780820380516001836020036101000a031916815260200191505b50848103825286518152865160209182019188019080838360005b83811015610c37578181015183820152602001610c1f565b50505050905090810190601f168015610c645780820380516001836020036101000a031916815260200191505b5097505050505050505060206040518083038186803b158015610c8657600080fd5b505af4158015610c9a573d6000803e3d6000fd5b505050506040513d6020811015610cb057600080fd5b50515b9c9b505050505050505050505050565b610ccb610fe6565b1515610cd657600080fd5b600160a060020a0381161515610ceb57600080fd5b6003805473ffffffffffffffffffffffffffffffffffffffff1916600160a060020a0392909216919091179055565b610d22610fe6565b1515610d2d57600080fd5b600160a060020a0381161515610d4257600080fd5b6002805473ffffffffffffffffffffffffffffffffffffffff1916600160a060020a0392909216919091179055565b600454600160a060020a031681565b600254600160a060020a031681565b6000610d99611721565b60606000610db08f8f8f8f8f8f8f8f8f8f8f61105a565b1580610dbb57508751155b80610dc557508551155b15610dd35760009350610f5b565b610ddc88611353565b9250610de7836113a6565b1580610dfd5750610df7836113d8565b51600914155b15610e0b5760009350610f5b565b610e1486611353565b9250610e1f836113a6565b1515610e2e5760009350610f5b565b610e37836113d8565b915081516004141580610e685750610e66826003815181101515610e5757fe5b906020019060200201516113a6565b155b15610e765760009350610f5b565b610e97826003815181101515610e8857fe5b906020019060200201516113d8565b9150600082511115610f56575060005b81518160ff161015610f5657610ec7828260ff16815181101515610e5757fe5b1580610ee757506002610ee4838360ff16815181101515610e8857fe5b51105b80610f135750610f11610f04838360ff16815181101515610e8857fe5b80516001908110610e5757fe5b155b80610f405750610f3d610f30838360ff16815181101515610e8857fe5b80516001908110610e8857fe5b51155b15610f4e5760009350610f5b565b600101610ea7565b600193505b5050509b9a5050505050505050505050565b610f75610fe6565b1515610f8057600080fd5b60008054604051600160a060020a03909116907f8be0079c531659141344cd1fd0a4f28419497f9722a3daafe3b4186f6b6457e0908390a36000805473ffffffffffffffffffffffffffffffffffffffff19169055565b600054600160a060020a031690565b600054600160a060020a0316331490565b600154600160a060020a031681565b61100e610fe6565b151561101957600080fd5b6001805474ff000000000000000000000000000000000000000019169055565b60015474010000000000000000000000000000000000000000900460ff1681565b600061106d8c8c8c8c8c8c8c8c8c6108cf565b8015610cb3575073__MerklePatriciaProof___________________6379d1d4fa8488858b6040518563ffffffff1660e060020a0281526004018080602001806020018060200185600019166000191681526020018481038452888181518152602001915080519060200190808383600083811015610b77578181015183820152602001610b5f565b6111098b8b8b8b8b8b8b8b8b8b8b610d8f565b151561117f57600160009054906101000a9004600160a060020a0316600160a060020a0316632da25de36040518163ffffffff1660e060020a028152600401600060405180830381600087803b15801561116257600080fd5b505af1158015611176573d6000803e3d6000fd5b505050506111e6565b604080517f08c379a000000000000000000000000000000000000000000000000000000000815260206004820152601460248201527f496e76616c6964207478206368616c6c656e6765000000000000000000000000604482015290519081900360640190fd5b5050505050505050505050565b6111fb610fe6565b151561120657600080fd5b600160a060020a038116151561121b57600080fd5b600154604051600160a060020a038084169216907f211c9015fc81c0dbd45bd99f0f29fc1c143bfd53442d5ffd722bbbef7a887fe990600090a36001805473ffffffffffffffffffffffffffffffffffffffff1916600160a060020a0392909216919091179055565b600354600160a060020a031681565b61129b610fe6565b15156112a657600080fd5b6112af8161148d565b50565b6112ba610fe6565b15156112c557600080fd5b600160a060020a03811615156112da57600080fd5b6004805473ffffffffffffffffffffffffffffffffffffffff1916600160a060020a0392909216919091179055565b611311610fe6565b151561131c57600080fd5b6001805474ff0000000000000000000000000000000000000000191674010000000000000000000000000000000000000000179055565b61135b611721565b81516000811515611381576040805180820190915260008082526020820152925061139f565b60208401905060408051908101604052808281526020018381525092505b5050919050565b6000808260200151600014156113bf57600091506113d2565b8260000151905060c0815160001a101591505b50919050565b606060006113e4611738565b60006113ef856113a6565b15156113fa57600080fd5b6114038561150a565b92508260405190808252806020026020018201604052801561143f57816020015b61142c611721565b8152602001906001900390816114245790505b50935061144b8561157a565b91505b611457826115b3565b1561148557611465826115d2565b848281518110151561147357fe5b6020908102909101015260010161144e565b505050919050565b600160a060020a03811615156114a257600080fd5b60008054604051600160a060020a03808516939216917f8be0079c531659141344cd1fd0a4f28419497f9722a3daafe3b4186f6b6457e091a36000805473ffffffffffffffffffffffffffffffffffffffff1916600160a060020a0392909216919091179055565b60008060008060008061151c876113a6565b151561152b5760009550611570565b8651805160001a9550935061153f87611614565b840192506001876020015185010391505b81831161156c5761156083611694565b90920191600101611550565b8095505b5050505050919050565b611582611738565b600061158d836113a6565b151561159857600080fd5b6115a183611614565b83519383529092016020820152919050565b60006115bd611721565b50508051602080820151915192015191011190565b6115da611721565b6000806115e6846115b3565b156100ed57836020015191506115fb82611694565b828452602080850182905283820190860152905061139f565b600080600083602001516000141561162f576000925061139f565b50508151805160001a90608082101561164b576000925061139f565b60b8821080611666575060c08210158015611666575060f882105b15611674576001925061139f565b60c08210156116895760b5198201925061139f565b5060f5190192915050565b8051600090811a60808110156116ad57600191506113d2565b60b88110156116c257607e19810191506113d2565b60c08110156116eb57600183015160b76020839003016101000a9004810160b5190191506113d2565b60f88110156117005760be19810191506113d2565b6001929092015160f76020849003016101000a900490910160f51901919050565b604080518082019091526000808252602082015290565b60606040519081016040528061174c611721565b81526020016000815250905600a165627a7a72305820b941c23c05dfb3f564a1eab97daca80f957540b7c6b0964994c50aa3742c18f90029",
  "source": "pragma solidity ^0.4.24;\n\nimport { RLP } from \"../lib/RLP.sol\";\nimport { Merkle } from \"../lib/Merkle.sol\";\nimport { RootChainValidator } from \"../mixin/RootChainValidator.sol\";\n\nimport { IRootChain } from \"../root/IRootChain.sol\";\n\n\ncontract TxValidator is RootChainValidator {\n  using Merkle for bytes32;\n  using RLP for bytes;\n  using RLP for RLP.RLPItem;\n  using RLP for RLP.Iterator;\n\n  // validate tx and slash\n  function validateTxAndSlash(\n    uint256 headerNumber,\n    bytes headerProof,\n\n    uint256 blockNumber,\n    uint256 blockTime,\n\n    bytes32 txRoot,\n    bytes32 receiptRoot,\n    bytes path,\n\n    bytes txBytes,\n    bytes txProof,\n\n    bytes receiptBytes,\n    bytes receiptProof\n  ) public\n  {\n    // validate tx\n    if (\n      !validateTx(\n        headerNumber,\n        headerProof,\n        blockNumber,\n        blockTime,\n        txRoot,\n        receiptRoot,\n        path,\n        txBytes,\n        txProof,\n        receiptBytes,\n        receiptProof\n      )\n    ) {\n      // slash if tx is not valid\n      IRootChain(rootChain).slash();\n      return;\n    }\n\n    revert(\"Invalid tx challenge\");\n  }\n}\n",
  "sourcePath": "/Users/atvanguard/matic/contracts/contracts/proofs/TxValidator.sol",
  "compiler": {
    "name": "solc",
    "version": "0.4.24+commit.e67f0147.Emscripten.clang"
  },
  "schemaVersion": "2.0.1",
  "updatedAt": "2019-12-07T09:11:33.324Z"
}