{
  "contractName": "ValidatorContract",
  "abi": [
    {
      "constant": true,
      "inputs": [],
      "name": "validator",
      "outputs": [
        {
          "name": "",
          "type": "address"
        }
      ],
      "payable": false,
      "stateMutability": "view",
      "type": "function"
    },
    {
      "constant": true,
      "inputs": [
        {
          "name": "",
          "type": "uint256"
        }
      ],
      "name": "delegators",
      "outputs": [
        {
          "name": "",
          "type": "uint256"
        }
      ],
      "payable": false,
      "stateMutability": "view",
      "type": "function"
    },
    {
      "constant": true,
      "inputs": [],
      "name": "validatorRewards",
      "outputs": [
        {
          "name": "",
          "type": "uint256"
        }
      ],
      "payable": false,
      "stateMutability": "view",
      "type": "function"
    },
    {
      "constant": true,
      "inputs": [],
      "name": "rewardRatio",
      "outputs": [
        {
          "name": "",
          "type": "uint256"
        }
      ],
      "payable": false,
      "stateMutability": "view",
      "type": "function"
    },
    {
      "constant": false,
      "inputs": [],
      "name": "renounceOwnership",
      "outputs": [],
      "payable": false,
      "stateMutability": "nonpayable",
      "type": "function"
    },
    {
      "constant": true,
      "inputs": [],
      "name": "registry",
      "outputs": [
        {
          "name": "",
          "type": "address"
        }
      ],
      "payable": false,
      "stateMutability": "view",
      "type": "function"
    },
    {
      "constant": true,
      "inputs": [
        {
          "name": "",
          "type": "uint256"
        }
      ],
      "name": "delegationState",
      "outputs": [
        {
          "name": "amount",
          "type": "uint256"
        },
        {
          "name": "totalStake",
          "type": "uint256"
        }
      ],
      "payable": false,
      "stateMutability": "view",
      "type": "function"
    },
    {
      "constant": true,
      "inputs": [],
      "name": "owner",
      "outputs": [
        {
          "name": "",
          "type": "address"
        }
      ],
      "payable": false,
      "stateMutability": "view",
      "type": "function"
    },
    {
      "constant": true,
      "inputs": [],
      "name": "isOwner",
      "outputs": [
        {
          "name": "",
          "type": "bool"
        }
      ],
      "payable": false,
      "stateMutability": "view",
      "type": "function"
    },
    {
      "constant": true,
      "inputs": [],
      "name": "delegationSlash",
      "outputs": [
        {
          "name": "",
          "type": "uint256"
        }
      ],
      "payable": false,
      "stateMutability": "view",
      "type": "function"
    },
    {
      "constant": true,
      "inputs": [],
      "name": "rewards",
      "outputs": [
        {
          "name": "",
          "type": "uint256"
        }
      ],
      "payable": false,
      "stateMutability": "view",
      "type": "function"
    },
    {
      "constant": true,
      "inputs": [
        {
          "name": "",
          "type": "uint256"
        },
        {
          "name": "",
          "type": "uint256"
        }
      ],
      "name": "delegatorHistory",
      "outputs": [
        {
          "name": "",
          "type": "uint256"
        }
      ],
      "payable": false,
      "stateMutability": "view",
      "type": "function"
    },
    {
      "constant": true,
      "inputs": [],
      "name": "delegatedAmount",
      "outputs": [
        {
          "name": "",
          "type": "uint256"
        }
      ],
      "payable": false,
      "stateMutability": "view",
      "type": "function"
    },
    {
      "constant": false,
      "inputs": [
        {
          "name": "newOwner",
          "type": "address"
        }
      ],
      "name": "transferOwnership",
      "outputs": [],
      "payable": false,
      "stateMutability": "nonpayable",
      "type": "function"
    },
    {
      "inputs": [
        {
          "name": "_validator",
          "type": "address"
        },
        {
          "name": "_registry",
          "type": "address"
        }
      ],
      "payable": false,
      "stateMutability": "nonpayable",
      "type": "constructor"
    },
    {
      "anonymous": false,
      "inputs": [
        {
          "indexed": true,
          "name": "previousOwner",
          "type": "address"
        },
        {
          "indexed": true,
          "name": "newOwner",
          "type": "address"
        }
      ],
      "name": "OwnershipTransferred",
      "type": "event"
    },
    {
      "constant": false,
      "inputs": [
        {
          "name": "amount",
          "type": "uint256"
        },
        {
          "name": "checkpoint",
          "type": "uint256"
        },
        {
          "name": "validatorStake",
          "type": "uint256"
        }
      ],
      "name": "updateRewards",
      "outputs": [],
      "payable": false,
      "stateMutability": "nonpayable",
      "type": "function"
    },
    {
      "constant": false,
      "inputs": [
        {
          "name": "delegatorId",
          "type": "uint256"
        },
        {
          "name": "amount",
          "type": "uint256"
        },
        {
          "name": "currentEpoch",
          "type": "uint256"
        }
      ],
      "name": "bond",
      "outputs": [],
      "payable": false,
      "stateMutability": "nonpayable",
      "type": "function"
    },
    {
      "constant": false,
      "inputs": [
        {
          "name": "delegatorId",
          "type": "uint256"
        },
        {
          "name": "index",
          "type": "uint256"
        },
        {
          "name": "amount",
          "type": "uint256"
        },
        {
          "name": "currentEpoch",
          "type": "uint256"
        }
      ],
      "name": "unBond",
      "outputs": [],
      "payable": false,
      "stateMutability": "nonpayable",
      "type": "function"
    },
    {
      "constant": false,
      "inputs": [
        {
          "name": "exitEpoch",
          "type": "uint256"
        }
      ],
      "name": "unBondAllLazy",
      "outputs": [
        {
          "name": "",
          "type": "int256"
        }
      ],
      "payable": false,
      "stateMutability": "nonpayable",
      "type": "function"
    },
    {
      "constant": false,
      "inputs": [
        {
          "name": "exitEpoch",
          "type": "uint256"
        }
      ],
      "name": "revertLazyUnBonding",
      "outputs": [
        {
          "name": "",
          "type": "int256"
        }
      ],
      "payable": false,
      "stateMutability": "nonpayable",
      "type": "function"
    },
    {
      "constant": true,
      "inputs": [
        {
          "name": "delegatorId",
          "type": "uint256"
        },
        {
          "name": "delegationAmount",
          "type": "uint256"
        },
        {
          "name": "startEpoch",
          "type": "uint256"
        },
        {
          "name": "endEpoch",
          "type": "uint256"
        },
        {
          "name": "currentEpoch",
          "type": "uint256"
        }
      ],
      "name": "calculateRewards",
      "outputs": [
        {
          "name": "",
          "type": "uint256"
        }
      ],
      "payable": false,
      "stateMutability": "view",
      "type": "function"
    },
    {
      "constant": true,
      "inputs": [],
      "name": "totalDelegators",
      "outputs": [
        {
          "name": "",
          "type": "uint256"
        }
      ],
      "payable": false,
      "stateMutability": "view",
      "type": "function"
    },
    {
      "constant": false,
      "inputs": [
        {
          "name": "slashRate",
          "type": "uint256"
        },
        {
          "name": "checkpoint",
          "type": "uint256"
        },
        {
          "name": "currentEpoch",
          "type": "uint256"
        }
      ],
      "name": "slash",
      "outputs": [],
      "payable": false,
      "stateMutability": "nonpayable",
      "type": "function"
    }
  ],
  "bytecode": "0x608060405260006003819055600481905560055560078054600160a01b60ff02191674010000000000000000000000000000000000000000179055600a60095534801561004b57600080fd5b50604051604080610f8d8339810180604052604081101561006b57600080fd5b508051602090910151600080546001600160a01b03191633178082556040516001600160a01b039190911691907f8be0079c531659141344cd1fd0a4f28419497f9722a3daafe3b4186f6b6457e0908290a3600680546001600160a01b039384166001600160a01b03199182161790915560078054929093169116179055610e95806100f86000396000f3fe608060405234801561001057600080fd5b50600436106101425760003560e01c80638da5cb5b116100b8578063b37f25901161007c578063b37f2590146102d8578063c9c24ccc14610301578063cfe0a4531461031e578063e655842f1461034d578063f2fde38b14610355578063fd73091c1461037b57610142565b80638da5cb5b146102815780638f32d59b146102895780638f546b09146102a55780639ec5a894146102ad578063a32dd342146102b557610142565b80636b7491291161010a5780636b749129146101d55780636cbb60501461020a578063713f774314610233578063715018a61461023b5780637b103999146102435780638a2747201461024b57610142565b806319480af8146101475780633a5381b5146101725780635be612c7146101965780635d1e3616146101c5578063646033bc146101cd575b600080fd5b6101706004803603606081101561015d57600080fd5b5080359060208101359060400135610398565b005b61017a61052f565b604080516001600160a01b039092168252519081900360200190f35b6101b3600480360360208110156101ac57600080fd5b503561053e565b60408051918252519081900360200190f35b6101b361055c565b6101b3610562565b6101b3600480360360a08110156101eb57600080fd5b5080359060208101359060408101359060608101359060800135610568565b6101706004803603606081101561022057600080fd5b50803590602081013590604001356105d2565b6101b3610765565b61017061076c565b61017a6107c7565b6102686004803603602081101561026157600080fd5b50356107d6565b6040805192835260208301919091528051918290030190f35b61017a6107ef565b6102916107fe565b604080519115158252519081900360200190f35b6101b361080f565b6101b3610815565b6101b3600480360360408110156102cb57600080fd5b508035906020013561081b565b610170600480360360608110156102ee57600080fd5b508035906020810135906040013561083d565b6101b36004803603602081101561031757600080fd5b50356108c4565b6101706004803603608081101561033457600080fd5b5080359060208101359060408101359060600135610a88565b6101b3610bbb565b6101706004803603602081101561036b57600080fd5b50356001600160a01b0316610bc1565b6101b36004803603602081101561039157600080fd5b5035610bde565b60075460408051600160e01b63253006b1028152905133926001600160a01b03169163253006b1916004808301926020929190829003018186803b1580156103df57600080fd5b505afa1580156103f3573d6000803e3d6000fd5b505050506040513d602081101561040957600080fd5b50516001600160a01b03161461041e57600080fd5b600754600160a01b900460ff1661043457600080fd5b60008381526008602052604090206001015415806104de57506104c96104586107ef565b6001600160a01b0316630ebb172a6040518163ffffffff1660e01b815260040160206040518083038186803b15801561049057600080fd5b505afa1580156104a4573d6000803e3d6000fd5b505050506040513d60208110156104ba57600080fd5b5051829063ffffffff610d4a16565b60008481526008602052604090206001015411155b6104e757600080fd5b6002805460018082019092557f405787fa12a823e0f2b7631cc41b3ba8828b3321ca811111fa75cd3aa3bb5ace01849055600093845260086020526040909320558154019055565b6006546001600160a01b031681565b6002818154811061054b57fe5b600091825260209091200154905081565b60045481565b60095481565b60008083610574578293505b845b848110156105c7576000818152600a6020526040902054156105bf576000818152600a60205260409020600181015490546105ba919089029063ffffffff610d6416565b820191505b600101610576565b509695505050505050565b6105da6107fe565b6105e357600080fd5b60075460408051600160e01b63253006b102815290516000926001600160a01b03169163253006b1916004808301926020929190829003018186803b15801561062b57600080fd5b505afa15801561063f573d6000803e3d6000fd5b505050506040513d602081101561065557600080fd5b505190508282141561075f57606060028054806020026020016040519081016040528092919081815260200182805480156106af57602002820191906000526020600020905b81548152602001906001019080831161069b575b505060408051600160e01b63ce5d67d9028152602481018b9052600481019182528551604482015285519596506001600160a01b0388169563ce5d67d995508794508b93508291606401906020808701910280838360005b8381101561071f578181015183820152602001610707565b505050509050019350505050600060405180830381600087803b15801561074557600080fd5b505af1158015610759573d6000803e3d6000fd5b50505050505b50505050565b6002545b90565b6107746107fe565b61077d57600080fd5b600080546040516001600160a01b03909116907f8be0079c531659141344cd1fd0a4f28419497f9722a3daafe3b4186f6b6457e0908390a3600080546001600160a01b0319169055565b6007546001600160a01b031681565b600a602052600090815260409020805460019091015482565b6000546001600160a01b031690565b6000546001600160a01b0316331490565b60055481565b60035481565b6008602052816000526040600020816002811061083457fe5b01549150829050565b6108456107fe565b61084e57600080fd5b6000610876606461086a60095487610d8690919063ffffffff16565b9063ffffffff610d6416565b9050600154820182828603028161088957fe5b6004805492909104929092019081019091556003805491909403908101909355506000908152600a6020526040902090815560018054910155565b60006108ce6107fe565b6108d757600080fd5b60078054600160a01b60ff0219811690915560408051600160e01b63253006b102815290516000926001600160a01b03169163253006b1916004808301926020929190829003018186803b15801561092e57600080fd5b505afa158015610942573d6000803e3d6000fd5b505050506040513d602081101561095857600080fd5b505160028054604080516020838102820181019092528281529394506060939291908301828280156109a957602002820191906000526020600020905b815481526020019060010190808311610995575b5050600654604051600160e01b636a2aebd7028152602481018a90526001600160a01b039182166044820181905260606004830190815287516064840152875197985092891696636a2aebd796508895508b945090929182916084909101906020808801910280838360005b83811015610a2d578181015183820152602001610a15565b50505050905001945050505050602060405180830381600087803b158015610a5457600080fd5b505af1158015610a68573d6000803e3d6000fd5b505050506040513d6020811015610a7e57600080fd5b5051949350505050565b60075460408051600160e01b63253006b1028152905133926001600160a01b03169163253006b1916004808301926020929190829003018186803b158015610acf57600080fd5b505afa158015610ae3573d6000803e3d6000fd5b505050506040513d6020811015610af957600080fd5b50516001600160a01b031614610b0e57600080fd5b8360028481548110610b1c57fe5b906000526020600020015414610b3157600080fd5b6000848152600860205260409020819060010155600180548390039055600280546000198101908110610b6057fe5b906000526020600020015460028481548110610b7857fe5b600091825260209091200155600280546000198101908110610b9657fe5b60009182526020822001556002805490610bb4906000198301610e22565b5050505050565b60015481565b610bc96107fe565b610bd257600080fd5b610bdb81610db4565b50565b6000610be86107fe565b610bf157600080fd5b60078054600160a01b60ff021916600160a01b179081905560408051600160e01b63253006b102815290516000926001600160a01b03169163253006b1916004808301926020929190829003018186803b158015610c4e57600080fd5b505afa158015610c62573d6000803e3d6000fd5b505050506040513d6020811015610c7857600080fd5b50516002805460408051602083810282018101909252828152939450606093929190830182828015610cc957602002820191906000526020600020905b815481526020019060010190808311610cb5575b5050600654604051600160e01b63b0cd6001028152602481018a90526001600160a01b03918216604482018190526060600483019081528751606484015287519798509289169663b0cd600196508895508b945090929182916084909101906020878101910280838360008315610a2d578181015183820152602001610a15565b600082821115610d5957600080fd5b508082035b92915050565b6000808211610d7257600080fd5b6000828481610d7d57fe5b04949350505050565b600082610d9557506000610d5e565b82820282848281610da257fe5b0414610dad57600080fd5b9392505050565b6001600160a01b038116610dc757600080fd5b600080546040516001600160a01b03808516939216917f8be0079c531659141344cd1fd0a4f28419497f9722a3daafe3b4186f6b6457e091a3600080546001600160a01b0319166001600160a01b0392909216919091179055565b815481835581811115610e4657600083815260209020610e46918101908301610e4b565b505050565b61076991905b80821115610e655760008155600101610e51565b509056fea165627a7a72305820d05ed2d6e4558626ebeab11949efa2b3ed187a9d29318d354a1e4697d6fa447e0029",
  "source": "pragma solidity ^0.5.2;\n\nimport { ERC721Full } from \"openzeppelin-solidity/contracts/token/ERC721/ERC721Full.sol\";\nimport { Ownable } from \"openzeppelin-solidity/contracts/ownership/Ownable.sol\";\nimport { SafeMath } from \"openzeppelin-solidity/contracts/math/SafeMath.sol\";\n\nimport { Registry } from \"../common/Registry.sol\";\nimport { IDelegationManager } from \"./IDelegationManager.sol\";\nimport { IStakeManager } from \"./IStakeManager.sol\";\n\n\ncontract Validator is ERC721Full {\n  // TODO: pull validator staking here\n  //\n  // Storage\n  //\n}\n\n\ncontract ValidatorContract is Ownable { // is rootchainable/stakeMgChainable\n  using SafeMath for uint256;\n\n  uint256 public delegatedAmount;\n  uint256[] public delegators;\n  uint256 public rewards = 0;\n  uint256 public validatorRewards = 0;\n  uint256 public delegationSlash = 0;\n  address public validator;\n  Registry public registry;\n  bool delegation = true;\n\n  // [delegatorId][0] = start, [delegatorId][1] = end\n  mapping (uint256 => uint256[2]) public delegatorHistory;\n\n  // will be reflected after one WITHDRAWAL_DELAY/(some Period + upper lower cap)\n  uint256 public rewardRatio = 10;\n\n  struct State {\n    uint256 amount;\n    uint256 totalStake;\n  }\n\n  // keep state of each checkpoint and rewards\n  mapping (uint256 => State) public delegationState;\n\n  constructor (address _validator, address _registry) public {\n    validator = _validator;\n    registry = Registry(_registry);\n  }\n\n  modifier onlyDelegatorContract() {\n    require(registry.getDelegationManagerAddress() == msg.sender);\n    _;\n  }\n\n  // on each checkpoint submitted by proposer, after taking validators cut\n  // amount is stored in rewards timeline\n  function updateRewards(uint256 amount, uint256 checkpoint, uint256 validatorStake) public onlyOwner {\n    // TODO: reduce logic\n    uint256 validatorReward = amount.mul(rewardRatio).div(100);\n    validatorReward += ((amount - validatorReward) * validatorStake)/(validatorStake + delegatedAmount);\n    validatorRewards += validatorReward;\n    amount -= validatorReward;\n    rewards += amount;\n    delegationState[checkpoint].amount = amount;\n    delegationState[checkpoint].totalStake = delegatedAmount;\n  }\n\n  function bond(uint256 delegatorId, uint256 amount, uint256 currentEpoch) public onlyDelegatorContract {\n    require(delegation);\n    require(delegatorHistory[delegatorId][1] == 0 ||\n      delegatorHistory[delegatorId][1] <= currentEpoch.sub(IStakeManager(owner()).WITHDRAWAL_DELAY()));\n\n    delegators.push(delegatorId);\n    delegatorHistory[delegatorId][0] = currentEpoch;\n    delegatedAmount += amount;\n  }\n\n  function unBond(uint256 delegatorId, uint256 index, uint256 amount, uint256 currentEpoch) public onlyDelegatorContract {\n    // update rewards according to rewardRatio\n    require(delegators[index] == delegatorId);\n    delegatorHistory[delegatorId][1] = currentEpoch;\n    delegatedAmount -= amount;\n    // start unbonding\n    delegators[index] = delegators[delegators.length-1];\n    delete delegators[delegators.length-1];\n    delegators.length--;\n  }\n\n  function unBondAllLazy(uint256 exitEpoch) public onlyOwner returns(int256) {\n    delegation = false; //  won't be accepting any new delegations\n    IDelegationManager delegationManager = IDelegationManager(registry.getDelegationManagerAddress());\n    uint256[] memory _delegators = delegators;\n    return int(delegationManager.unBondLazy(_delegators, exitEpoch, validator));\n  }\n\n  function revertLazyUnBonding(uint256 exitEpoch) public onlyOwner returns(int256) {\n    delegation = true;\n    IDelegationManager delegationManager = IDelegationManager(registry.getDelegationManagerAddress());\n    uint256[] memory _delegators = delegators;\n    return int(delegationManager.revertLazyUnBond(_delegators, exitEpoch, validator));\n  }\n\n  function calculateRewards(uint256 delegatorId, uint256 delegationAmount, uint256 startEpoch, uint256 endEpoch, uint256 currentEpoch) public view returns(uint256) {\n    // TODO: use struct as param\n    uint256 reward = 0;\n    if (endEpoch == 0) {\n      endEpoch = currentEpoch;\n    }\n    for (uint256 epoch = startEpoch; epoch < endEpoch; epoch++) {\n      if (delegationState[epoch].amount > 0) {\n        reward += (delegationState[epoch].amount * delegationAmount).div(delegationState[epoch].totalStake);\n      }\n    }\n    return reward;\n  }\n\n  function totalDelegators() public view returns(uint256) {\n    return delegators.length;\n  }\n\n  function slash(uint256 slashRate, uint256 checkpoint, uint256 currentEpoch) public onlyOwner {\n    IDelegationManager delegationManager = IDelegationManager(registry.getDelegationManagerAddress());\n    if (checkpoint == currentEpoch) {\n      uint256[] memory _delegators = delegators;\n      delegationManager.slash(_delegators, slashRate);\n    } else {\n      // TODO: add slashing for old delegators with Proofs\n    }\n  }\n\n}\n",
  "sourcePath": "/Users/arpit/projects/contracts/contracts/staking/Validator.sol",
  "compiler": {
    "name": "solc",
    "version": "0.5.7+commit.6da8b019.Emscripten.clang"
  },
  "schemaVersion": "3.0.16",
  "updatedAt": "2019-09-21T10:53:39.328Z",
  "devdoc": {
    "methods": {
      "isOwner()": {
        "return": "true if `msg.sender` is the owner of the contract."
      },
      "owner()": {
        "return": "the address of the owner."
      },
      "renounceOwnership()": {
        "details": "Allows the current owner to relinquish control of the contract. It will not be possible to call the functions with the `onlyOwner` modifier anymore."
      },
      "transferOwnership(address)": {
        "details": "Allows the current owner to transfer control of the contract to a newOwner.",
        "params": {
          "newOwner": "The address to transfer ownership to."
        }
      }
    }
  },
  "userdoc": {
    "methods": {
      "renounceOwnership()": {
        "notice": "Renouncing ownership will leave the contract without an owner, thereby removing any functionality that is only available to the owner."
      }
    }
  }
}