{
  "contractName": "ValidatorContract",
  "abi": [
    {
      "constant": true,
      "inputs": [],
      "name": "validator",
      "outputs": [
        {
          "internalType": "address",
          "name": "",
          "type": "address"
        }
      ],
      "payable": false,
      "stateMutability": "view",
      "type": "function"
    },
    {
      "constant": true,
      "inputs": [
        {
          "internalType": "uint256",
          "name": "",
          "type": "uint256"
        }
      ],
      "name": "delegators",
      "outputs": [
        {
          "internalType": "uint256",
          "name": "",
          "type": "uint256"
        }
      ],
      "payable": false,
      "stateMutability": "view",
      "type": "function"
    },
    {
      "constant": true,
      "inputs": [],
      "name": "validatorRewards",
      "outputs": [
        {
          "internalType": "uint256",
          "name": "",
          "type": "uint256"
        }
      ],
      "payable": false,
      "stateMutability": "view",
      "type": "function"
    },
    {
      "constant": true,
      "inputs": [],
      "name": "rewardRatio",
      "outputs": [
        {
          "internalType": "uint256",
          "name": "",
          "type": "uint256"
        }
      ],
      "payable": false,
      "stateMutability": "view",
      "type": "function"
    },
    {
      "constant": false,
      "inputs": [],
      "name": "renounceOwnership",
      "outputs": [],
      "payable": false,
      "stateMutability": "nonpayable",
      "type": "function"
    },
    {
      "constant": true,
      "inputs": [],
      "name": "registry",
      "outputs": [
        {
          "internalType": "contract Registry",
          "name": "",
          "type": "address"
        }
      ],
      "payable": false,
      "stateMutability": "view",
      "type": "function"
    },
    {
      "constant": true,
      "inputs": [
        {
          "internalType": "uint256",
          "name": "",
          "type": "uint256"
        }
      ],
      "name": "delegationState",
      "outputs": [
        {
          "internalType": "uint256",
          "name": "amount",
          "type": "uint256"
        },
        {
          "internalType": "uint256",
          "name": "totalStake",
          "type": "uint256"
        }
      ],
      "payable": false,
      "stateMutability": "view",
      "type": "function"
    },
    {
      "constant": true,
      "inputs": [],
      "name": "owner",
      "outputs": [
        {
          "internalType": "address",
          "name": "",
          "type": "address"
        }
      ],
      "payable": false,
      "stateMutability": "view",
      "type": "function"
    },
    {
      "constant": true,
      "inputs": [],
      "name": "isOwner",
      "outputs": [
        {
          "internalType": "bool",
          "name": "",
          "type": "bool"
        }
      ],
      "payable": false,
      "stateMutability": "view",
      "type": "function"
    },
    {
      "constant": true,
      "inputs": [],
      "name": "delegationSlash",
      "outputs": [
        {
          "internalType": "uint256",
          "name": "",
          "type": "uint256"
        }
      ],
      "payable": false,
      "stateMutability": "view",
      "type": "function"
    },
    {
      "constant": true,
      "inputs": [],
      "name": "rewards",
      "outputs": [
        {
          "internalType": "uint256",
          "name": "",
          "type": "uint256"
        }
      ],
      "payable": false,
      "stateMutability": "view",
      "type": "function"
    },
    {
      "constant": true,
      "inputs": [
        {
          "internalType": "uint256",
          "name": "",
          "type": "uint256"
        },
        {
          "internalType": "uint256",
          "name": "",
          "type": "uint256"
        }
      ],
      "name": "delegatorHistory",
      "outputs": [
        {
          "internalType": "uint256",
          "name": "",
          "type": "uint256"
        }
      ],
      "payable": false,
      "stateMutability": "view",
      "type": "function"
    },
    {
      "constant": true,
      "inputs": [],
      "name": "delegatedAmount",
      "outputs": [
        {
          "internalType": "uint256",
          "name": "",
          "type": "uint256"
        }
      ],
      "payable": false,
      "stateMutability": "view",
      "type": "function"
    },
    {
      "constant": false,
      "inputs": [
        {
          "internalType": "address",
          "name": "newOwner",
          "type": "address"
        }
      ],
      "name": "transferOwnership",
      "outputs": [],
      "payable": false,
      "stateMutability": "nonpayable",
      "type": "function"
    },
    {
      "inputs": [
        {
          "internalType": "address",
          "name": "_validator",
          "type": "address"
        },
        {
          "internalType": "address",
          "name": "_registry",
          "type": "address"
        }
      ],
      "payable": false,
      "stateMutability": "nonpayable",
      "type": "constructor"
    },
    {
      "anonymous": false,
      "inputs": [
        {
          "indexed": true,
          "internalType": "address",
          "name": "previousOwner",
          "type": "address"
        },
        {
          "indexed": true,
          "internalType": "address",
          "name": "newOwner",
          "type": "address"
        }
      ],
      "name": "OwnershipTransferred",
      "type": "event"
    },
    {
      "constant": false,
      "inputs": [
        {
          "internalType": "uint256",
          "name": "amount",
          "type": "uint256"
        },
        {
          "internalType": "uint256",
          "name": "checkpoint",
          "type": "uint256"
        },
        {
          "internalType": "uint256",
          "name": "validatorStake",
          "type": "uint256"
        }
      ],
      "name": "updateRewards",
      "outputs": [],
      "payable": false,
      "stateMutability": "nonpayable",
      "type": "function"
    },
    {
      "constant": false,
      "inputs": [
        {
          "internalType": "uint256",
          "name": "delegatorId",
          "type": "uint256"
        },
        {
          "internalType": "uint256",
          "name": "amount",
          "type": "uint256"
        },
        {
          "internalType": "uint256",
          "name": "currentEpoch",
          "type": "uint256"
        }
      ],
      "name": "bond",
      "outputs": [],
      "payable": false,
      "stateMutability": "nonpayable",
      "type": "function"
    },
    {
      "constant": false,
      "inputs": [
        {
          "internalType": "uint256",
          "name": "delegatorId",
          "type": "uint256"
        },
        {
          "internalType": "uint256",
          "name": "index",
          "type": "uint256"
        },
        {
          "internalType": "uint256",
          "name": "amount",
          "type": "uint256"
        },
        {
          "internalType": "uint256",
          "name": "currentEpoch",
          "type": "uint256"
        }
      ],
      "name": "unBond",
      "outputs": [],
      "payable": false,
      "stateMutability": "nonpayable",
      "type": "function"
    },
    {
      "constant": false,
      "inputs": [
        {
          "internalType": "uint256",
          "name": "exitEpoch",
          "type": "uint256"
        }
      ],
      "name": "unBondAllLazy",
      "outputs": [
        {
          "internalType": "int256",
          "name": "",
          "type": "int256"
        }
      ],
      "payable": false,
      "stateMutability": "nonpayable",
      "type": "function"
    },
    {
      "constant": false,
      "inputs": [
        {
          "internalType": "uint256",
          "name": "exitEpoch",
          "type": "uint256"
        }
      ],
      "name": "revertLazyUnBonding",
      "outputs": [
        {
          "internalType": "int256",
          "name": "",
          "type": "int256"
        }
      ],
      "payable": false,
      "stateMutability": "nonpayable",
      "type": "function"
    },
    {
      "constant": true,
      "inputs": [
        {
          "internalType": "uint256",
          "name": "delegatorId",
          "type": "uint256"
        },
        {
          "internalType": "uint256",
          "name": "delegationAmount",
          "type": "uint256"
        },
        {
          "internalType": "uint256",
          "name": "startEpoch",
          "type": "uint256"
        },
        {
          "internalType": "uint256",
          "name": "endEpoch",
          "type": "uint256"
        },
        {
          "internalType": "uint256",
          "name": "currentEpoch",
          "type": "uint256"
        }
      ],
      "name": "calculateRewards",
      "outputs": [
        {
          "internalType": "uint256",
          "name": "",
          "type": "uint256"
        }
      ],
      "payable": false,
      "stateMutability": "view",
      "type": "function"
    },
    {
      "constant": false,
      "inputs": [],
      "name": "withdrawRewardsValidator",
      "outputs": [
        {
          "internalType": "uint256",
          "name": "_rewards",
          "type": "uint256"
        }
      ],
      "payable": false,
      "stateMutability": "nonpayable",
      "type": "function"
    },
    {
      "constant": true,
      "inputs": [],
      "name": "totalDelegators",
      "outputs": [
        {
          "internalType": "uint256",
          "name": "",
          "type": "uint256"
        }
      ],
      "payable": false,
      "stateMutability": "view",
      "type": "function"
    },
    {
      "constant": false,
      "inputs": [
        {
          "internalType": "uint256",
          "name": "slashRate",
          "type": "uint256"
        },
        {
          "internalType": "uint256",
          "name": "checkpoint",
          "type": "uint256"
        },
        {
          "internalType": "uint256",
          "name": "currentEpoch",
          "type": "uint256"
        }
      ],
      "name": "slash",
      "outputs": [],
      "payable": false,
      "stateMutability": "nonpayable",
      "type": "function"
    }
  ],
  "bytecode": "0x60806040526000600381905560048190556005556007805460ff60a01b191674010000000000000000000000000000000000000000179055600a60095534801561004857600080fd5b50604051610fab380380610fab8339818101604052604081101561006b57600080fd5b508051602090910151600080546001600160a01b03191633178082556040516001600160a01b039190911691907f8be0079c531659141344cd1fd0a4f28419497f9722a3daafe3b4186f6b6457e0908290a3600680546001600160a01b039384166001600160a01b03199182161790915560078054929093169116179055610eb3806100f86000396000f3fe608060405234801561001057600080fd5b506004361061014d5760003560e01c80638a274720116100c3578063b37f25901161007c578063b37f2590146102eb578063c9c24ccc14610314578063cfe0a45314610331578063e655842f14610360578063f2fde38b14610368578063fd73091c1461038e5761014d565b80638a2747201461025e5780638da5cb5b146102945780638f32d59b1461029c5780638f546b09146102b85780639ec5a894146102c0578063a32dd342146102c85761014d565b8063646033bc11610115578063646033bc146101e05780636b749129146101e85780636cbb60501461021d578063713f774314610246578063715018a61461024e5780637b103999146102565761014d565b806319480af81461015257806332ba2e531461017d5780633a5381b5146101975780635be612c7146101bb5780635d1e3616146101d8575b600080fd5b61017b6004803603606081101561016857600080fd5b50803590602081013590604001356103ab565b005b61018561053f565b60408051918252519081900360200190f35b61019f61055f565b604080516001600160a01b039092168252519081900360200190f35b610185600480360360208110156101d157600080fd5b503561056e565b61018561058c565b610185610592565b610185600480360360a08110156101fe57600080fd5b5080359060208101359060408101359060608101359060800135610598565b61017b6004803603606081101561023357600080fd5b5080359060208101359060400135610602565b61018561078f565b61017b610796565b61019f6107f1565b61027b6004803603602081101561027457600080fd5b5035610800565b6040805192835260208301919091528051918290030190f35b61019f610819565b6102a4610828565b604080519115158252519081900360200190f35b610185610839565b61018561083f565b610185600480360360408110156102de57600080fd5b5080359060200135610845565b61017b6004803603606081101561030157600080fd5b5080359060208101359060400135610867565b6101856004803603602081101561032a57600080fd5b50356108ee565b61017b6004803603608081101561034757600080fd5b5080359060208101359060408101359060600135610aa9565b610185610bd9565b61017b6004803603602081101561037e57600080fd5b50356001600160a01b0316610bdf565b610185600480360360208110156103a457600080fd5b5035610bfc565b6007546040805163253006b160e01b8152905133926001600160a01b03169163253006b1916004808301926020929190829003018186803b1580156103ef57600080fd5b505afa158015610403573d6000803e3d6000fd5b505050506040513d602081101561041957600080fd5b50516001600160a01b03161461042e57600080fd5b600754600160a01b900460ff1661044457600080fd5b60008381526008602052604090206001015415806104ee57506104d9610468610819565b6001600160a01b0316630ebb172a6040518163ffffffff1660e01b815260040160206040518083038186803b1580156104a057600080fd5b505afa1580156104b4573d6000803e3d6000fd5b505050506040513d60208110156104ca57600080fd5b5051829063ffffffff610d5f16565b60008481526008602052604090206001015411155b6104f757600080fd5b6002805460018082019092557f405787fa12a823e0f2b7631cc41b3ba8828b3321ca811111fa75cd3aa3bb5ace01849055600093845260086020526040909320558154019055565b6000610549610828565b61055257600080fd5b5060048054600090915590565b6006546001600160a01b031681565b6002818154811061057b57fe5b600091825260209091200154905081565b60045481565b60095481565b600080836105a4578293505b845b848110156105f7576000818152600a6020526040902054156105ef576000818152600a60205260409020600181015490546105ea919089029063ffffffff610d7916565b820191505b6001016105a6565b509695505050505050565b61060a610828565b61061357600080fd5b6007546040805163253006b160e01b815290516000926001600160a01b03169163253006b1916004808301926020929190829003018186803b15801561065857600080fd5b505afa15801561066c573d6000803e3d6000fd5b505050506040513d602081101561068257600080fd5b505190508282141561078957606060028054806020026020016040519081016040528092919081815260200182805480156106dc57602002820191906000526020600020905b8154815260200190600101908083116106c8575b50506040805163ce5d67d960e01b8152602481018b9052600481019182528551604482015285519596506001600160a01b0388169563ce5d67d995508794508b93508291606401906020808701910280838360005b83811015610749578181015183820152602001610731565b505050509050019350505050600060405180830381600087803b15801561076f57600080fd5b505af1158015610783573d6000803e3d6000fd5b50505050505b50505050565b6002545b90565b61079e610828565b6107a757600080fd5b600080546040516001600160a01b03909116907f8be0079c531659141344cd1fd0a4f28419497f9722a3daafe3b4186f6b6457e0908390a3600080546001600160a01b0319169055565b6007546001600160a01b031681565b600a602052600090815260409020805460019091015482565b6000546001600160a01b031690565b6000546001600160a01b0316331490565b60055481565b60035481565b6008602052816000526040600020816002811061085e57fe5b01549150829050565b61086f610828565b61087857600080fd5b60006108a0606461089460095487610d9b90919063ffffffff16565b9063ffffffff610d7916565b905060015482018282860302816108b357fe5b6004805492909104929092019081019091556003805491909403908101909355506000908152600a6020526040902090815560018054910155565b60006108f8610828565b61090157600080fd5b6007805460ff60a01b1981169091556040805163253006b160e01b815290516000926001600160a01b03169163253006b1916004808301926020929190829003018186803b15801561095257600080fd5b505afa158015610966573d6000803e3d6000fd5b505050506040513d602081101561097c57600080fd5b505160028054604080516020838102820181019092528281529394506060939291908301828280156109cd57602002820191906000526020600020905b8154815260200190600101908083116109b9575b5050600654604051636a2aebd760e01b8152602481018a90526001600160a01b039182166044820181905260606004830190815287516064840152875197985092891696636a2aebd796508895508b945090929182916084909101906020808801910280838360005b83811015610a4e578181015183820152602001610a36565b50505050905001945050505050602060405180830381600087803b158015610a7557600080fd5b505af1158015610a89573d6000803e3d6000fd5b505050506040513d6020811015610a9f57600080fd5b5051949350505050565b6007546040805163253006b160e01b8152905133926001600160a01b03169163253006b1916004808301926020929190829003018186803b158015610aed57600080fd5b505afa158015610b01573d6000803e3d6000fd5b505050506040513d6020811015610b1757600080fd5b50516001600160a01b031614610b2c57600080fd5b8360028481548110610b3a57fe5b906000526020600020015414610b4f57600080fd5b6000848152600860205260409020819060010155600180548390039055600280546000198101908110610b7e57fe5b906000526020600020015460028481548110610b9657fe5b600091825260209091200155600280546000198101908110610bb457fe5b60009182526020822001556002805490610bd2906000198301610e37565b5050505050565b60015481565b610be7610828565b610bf057600080fd5b610bf981610dc9565b50565b6000610c06610828565b610c0f57600080fd5b6007805460ff60a01b1916600160a01b17908190556040805163253006b160e01b815290516000926001600160a01b03169163253006b1916004808301926020929190829003018186803b158015610c6657600080fd5b505afa158015610c7a573d6000803e3d6000fd5b505050506040513d6020811015610c9057600080fd5b50516002805460408051602083810282018101909252828152939450606093929190830182828015610ce157602002820191906000526020600020905b815481526020019060010190808311610ccd575b505060065460405163b0cd600160e01b8152602481018a90526001600160a01b03918216604482018190526060600483019081528751606484015287519798509289169663b0cd600196508895508b945090929182916084909101906020878101910280838360008315610a4e578181015183820152602001610a36565b600082821115610d6e57600080fd5b508082035b92915050565b6000808211610d8757600080fd5b6000828481610d9257fe5b04949350505050565b600082610daa57506000610d73565b82820282848281610db757fe5b0414610dc257600080fd5b9392505050565b6001600160a01b038116610ddc57600080fd5b600080546040516001600160a01b03808516939216917f8be0079c531659141344cd1fd0a4f28419497f9722a3daafe3b4186f6b6457e091a3600080546001600160a01b0319166001600160a01b0392909216919091179055565b815481835581811115610e5b57600083815260209020610e5b918101908301610e60565b505050565b61079391905b80821115610e7a5760008155600101610e66565b509056fea265627a7a723158206c199558dbda8ddc5add3cef07724832f0fd0a142ffcfef90e981d9ccc12b57764736f6c634300050b0032",
  "source": "pragma solidity ^0.5.2;\n\nimport { ERC721Full } from \"openzeppelin-solidity/contracts/token/ERC721/ERC721Full.sol\";\nimport { Ownable } from \"openzeppelin-solidity/contracts/ownership/Ownable.sol\";\nimport { SafeMath } from \"openzeppelin-solidity/contracts/math/SafeMath.sol\";\n\nimport { Registry } from \"../common/Registry.sol\";\nimport { IDelegationManager } from \"./IDelegationManager.sol\";\nimport { IStakeManager } from \"./IStakeManager.sol\";\n\n\ncontract Validator is ERC721Full {\n  // TODO: pull validator staking here\n  //\n  // Storage\n  //\n}\n\n\ncontract ValidatorContract is Ownable { // is rootchainable/stakeMgChainable\n  using SafeMath for uint256;\n\n  uint256 public delegatedAmount;\n  uint256[] public delegators;\n  uint256 public rewards = 0;\n  uint256 public validatorRewards = 0;\n  uint256 public delegationSlash = 0;\n  address public validator;\n  Registry public registry;\n  bool delegation = true;\n\n  // [delegatorId][0] = start, [delegatorId][1] = end\n  mapping (uint256 => uint256[2]) public delegatorHistory;\n\n  // will be reflected after one WITHDRAWAL_DELAY/(some Period + upper lower cap)\n  uint256 public rewardRatio = 10;\n\n  struct State {\n    uint256 amount;\n    uint256 totalStake;\n  }\n\n  // keep state of each checkpoint and rewards\n  mapping (uint256 => State) public delegationState;\n\n  constructor (address _validator, address _registry) public {\n    validator = _validator;\n    registry = Registry(_registry);\n  }\n\n  modifier onlyDelegatorContract() {\n    require(registry.getDelegationManagerAddress() == msg.sender);\n    _;\n  }\n\n  // on each checkpoint submitted by proposer, after taking validators cut\n  // amount is stored in rewards timeline\n  function updateRewards(uint256 amount, uint256 checkpoint, uint256 validatorStake) public onlyOwner {\n    // TODO: reduce logic\n    uint256 validatorReward = amount.mul(rewardRatio).div(100);\n    validatorReward += ((amount - validatorReward) * validatorStake)/(validatorStake + delegatedAmount);\n    validatorRewards += validatorReward;\n    amount -= validatorReward;\n    rewards += amount;\n    delegationState[checkpoint].amount = amount;\n    delegationState[checkpoint].totalStake = delegatedAmount;\n  }\n\n  function bond(uint256 delegatorId, uint256 amount, uint256 currentEpoch) public onlyDelegatorContract {\n    require(delegation);\n    require(delegatorHistory[delegatorId][1] == 0 ||\n      delegatorHistory[delegatorId][1] <= currentEpoch.sub(IStakeManager(owner()).WITHDRAWAL_DELAY()));\n\n    delegators.push(delegatorId);\n    delegatorHistory[delegatorId][0] = currentEpoch;\n    delegatedAmount += amount;\n  }\n\n  function unBond(uint256 delegatorId, uint256 index, uint256 amount, uint256 currentEpoch) public onlyDelegatorContract {\n    // update rewards according to rewardRatio\n    require(delegators[index] == delegatorId);\n    delegatorHistory[delegatorId][1] = currentEpoch;\n    delegatedAmount -= amount;\n    // start unbonding\n    delegators[index] = delegators[delegators.length-1];\n    delete delegators[delegators.length-1];\n    delegators.length--;\n  }\n\n  function unBondAllLazy(uint256 exitEpoch) public onlyOwner returns(int256) {\n    delegation = false; //  won't be accepting any new delegations\n    IDelegationManager delegationManager = IDelegationManager(registry.getDelegationManagerAddress());\n    uint256[] memory _delegators = delegators;\n    return int(delegationManager.unBondLazy(_delegators, exitEpoch, validator));\n  }\n\n  function revertLazyUnBonding(uint256 exitEpoch) public onlyOwner returns(int256) {\n    delegation = true;\n    IDelegationManager delegationManager = IDelegationManager(registry.getDelegationManagerAddress());\n    uint256[] memory _delegators = delegators;\n    return int(delegationManager.revertLazyUnBond(_delegators, exitEpoch, validator));\n  }\n\n  function calculateRewards(uint256 delegatorId, uint256 delegationAmount, uint256 startEpoch, uint256 endEpoch, uint256 currentEpoch) public view returns(uint256) {\n    // TODO: use struct as param\n    uint256 reward = 0;\n    if (endEpoch == 0) {\n      endEpoch = currentEpoch;\n    }\n    for (uint256 epoch = startEpoch; epoch < endEpoch; epoch++) {\n      if (delegationState[epoch].amount > 0) {\n        reward += (delegationState[epoch].amount * delegationAmount).div(delegationState[epoch].totalStake);\n      }\n    }\n    return reward;\n  }\n\n  function withdrawRewardsValidator() public onlyOwner returns(uint256 _rewards) {\n    _rewards = validatorRewards;\n    validatorRewards = 0;\n  }\n\n  function totalDelegators() public view returns(uint256) {\n    return delegators.length;\n  }\n\n  function slash(uint256 slashRate, uint256 checkpoint, uint256 currentEpoch) public onlyOwner {\n    IDelegationManager delegationManager = IDelegationManager(registry.getDelegationManagerAddress());\n    if (checkpoint == currentEpoch) {\n      uint256[] memory _delegators = delegators;\n      delegationManager.slash(_delegators, slashRate);\n    } else {\n      // TODO: add slashing for old delegators with Proofs\n    }\n  }\n\n}\n",
  "sourcePath": "/Users/atvanguard/matic/contracts/contracts/staking/Validator.sol",
  "compiler": {
    "name": "solc",
    "version": "0.5.11+commit.c082d0b4.Emscripten.clang"
  },
  "schemaVersion": "3.0.14",
  "updatedAt": "2019-12-17T06:31:18.121Z",
  "devdoc": {
    "methods": {
      "isOwner()": {
        "return": "true if `msg.sender` is the owner of the contract."
      },
      "owner()": {
        "return": "the address of the owner."
      },
      "renounceOwnership()": {
        "details": "Allows the current owner to relinquish control of the contract. It will not be possible to call the functions with the `onlyOwner` modifier anymore."
      },
      "transferOwnership(address)": {
        "details": "Allows the current owner to transfer control of the contract to a newOwner.",
        "params": {
          "newOwner": "The address to transfer ownership to."
        }
      }
    }
  },
  "userdoc": {
    "methods": {
      "renounceOwnership()": {
        "notice": "Renouncing ownership will leave the contract without an owner, thereby removing any functionality that is only available to the owner."
      }
    }
  }
}