{
  "contractName": "WithdrawManagerProxy",
  "abi": [
    {
      "constant": false,
      "inputs": [
        {
          "internalType": "address",
          "name": "_newProxyTo",
          "type": "address"
        }
      ],
      "name": "updateImplementation",
      "outputs": [],
      "payable": false,
      "stateMutability": "nonpayable",
      "type": "function"
    },
    {
      "constant": true,
      "inputs": [],
      "name": "exitWindow",
      "outputs": [
        {
          "internalType": "uint256",
          "name": "",
          "type": "uint256"
        }
      ],
      "payable": false,
      "stateMutability": "view",
      "type": "function"
    },
    {
      "constant": true,
      "inputs": [
        {
          "internalType": "uint256",
          "name": "",
          "type": "uint256"
        }
      ],
      "name": "exits",
      "outputs": [
        {
          "internalType": "uint256",
          "name": "receiptAmountOrNFTId",
          "type": "uint256"
        },
        {
          "internalType": "bytes32",
          "name": "txHash",
          "type": "bytes32"
        },
        {
          "internalType": "address",
          "name": "owner",
          "type": "address"
        },
        {
          "internalType": "address",
          "name": "token",
          "type": "address"
        },
        {
          "internalType": "bool",
          "name": "isRegularExit",
          "type": "bool"
        },
        {
          "internalType": "address",
          "name": "predicate",
          "type": "address"
        }
      ],
      "payable": false,
      "stateMutability": "view",
      "type": "function"
    },
    {
      "constant": true,
      "inputs": [],
      "name": "proxyType",
      "outputs": [
        {
          "internalType": "uint256",
          "name": "proxyTypeId",
          "type": "uint256"
        }
      ],
      "payable": false,
      "stateMutability": "pure",
      "type": "function"
    },
    {
      "constant": true,
      "inputs": [],
      "name": "implementation",
      "outputs": [
        {
          "internalType": "address",
          "name": "",
          "type": "address"
        }
      ],
      "payable": false,
      "stateMutability": "view",
      "type": "function"
    },
    {
      "constant": true,
      "inputs": [
        {
          "internalType": "bytes32",
          "name": "",
          "type": "bytes32"
        }
      ],
      "name": "ownerExits",
      "outputs": [
        {
          "internalType": "uint256",
          "name": "",
          "type": "uint256"
        }
      ],
      "payable": false,
      "stateMutability": "view",
      "type": "function"
    },
    {
      "constant": false,
      "inputs": [],
      "name": "renounceOwnership",
      "outputs": [],
      "payable": false,
      "stateMutability": "nonpayable",
      "type": "function"
    },
    {
      "constant": true,
      "inputs": [],
      "name": "owner",
      "outputs": [
        {
          "internalType": "address",
          "name": "",
          "type": "address"
        }
      ],
      "payable": false,
      "stateMutability": "view",
      "type": "function"
    },
    {
      "constant": true,
      "inputs": [],
      "name": "isOwner",
      "outputs": [
        {
          "internalType": "bool",
          "name": "",
          "type": "bool"
        }
      ],
      "payable": false,
      "stateMutability": "view",
      "type": "function"
    },
    {
      "constant": true,
      "inputs": [
        {
          "internalType": "address",
          "name": "",
          "type": "address"
        }
      ],
      "name": "exitsQueues",
      "outputs": [
        {
          "internalType": "address",
          "name": "",
          "type": "address"
        }
      ],
      "payable": false,
      "stateMutability": "view",
      "type": "function"
    },
    {
      "constant": true,
      "inputs": [],
      "name": "exitNft",
      "outputs": [
        {
          "internalType": "contract ExitNFT",
          "name": "",
          "type": "address"
        }
      ],
      "payable": false,
      "stateMutability": "view",
      "type": "function"
    },
    {
      "constant": false,
      "inputs": [
        {
          "internalType": "address",
          "name": "newOwner",
          "type": "address"
        }
      ],
      "name": "transferOwnership",
      "outputs": [],
      "payable": false,
      "stateMutability": "nonpayable",
      "type": "function"
    },
    {
      "inputs": [
        {
          "internalType": "address",
          "name": "_proxyTo",
          "type": "address"
        },
        {
          "internalType": "address",
          "name": "_registry",
          "type": "address"
        },
        {
          "internalType": "address",
          "name": "_rootChain",
          "type": "address"
        }
      ],
      "payable": false,
      "stateMutability": "nonpayable",
      "type": "constructor"
    },
    {
      "payable": true,
      "stateMutability": "payable",
      "type": "fallback"
    },
    {
      "anonymous": false,
      "inputs": [
        {
          "indexed": true,
          "internalType": "uint256",
          "name": "exitId",
          "type": "uint256"
        },
        {
          "indexed": true,
          "internalType": "address",
          "name": "user",
          "type": "address"
        },
        {
          "indexed": true,
          "internalType": "address",
          "name": "token",
          "type": "address"
        },
        {
          "indexed": false,
          "internalType": "uint256",
          "name": "amount",
          "type": "uint256"
        }
      ],
      "name": "Withdraw",
      "type": "event"
    },
    {
      "anonymous": false,
      "inputs": [
        {
          "indexed": true,
          "internalType": "address",
          "name": "exitor",
          "type": "address"
        },
        {
          "indexed": true,
          "internalType": "uint256",
          "name": "exitId",
          "type": "uint256"
        },
        {
          "indexed": true,
          "internalType": "address",
          "name": "token",
          "type": "address"
        },
        {
          "indexed": false,
          "internalType": "uint256",
          "name": "amount",
          "type": "uint256"
        },
        {
          "indexed": false,
          "internalType": "bool",
          "name": "isRegularExit",
          "type": "bool"
        }
      ],
      "name": "ExitStarted",
      "type": "event"
    },
    {
      "anonymous": false,
      "inputs": [
        {
          "indexed": true,
          "internalType": "uint256",
          "name": "exitId",
          "type": "uint256"
        },
        {
          "indexed": true,
          "internalType": "uint256",
          "name": "age",
          "type": "uint256"
        },
        {
          "indexed": false,
          "internalType": "address",
          "name": "signer",
          "type": "address"
        }
      ],
      "name": "ExitUpdated",
      "type": "event"
    },
    {
      "anonymous": false,
      "inputs": [
        {
          "indexed": true,
          "internalType": "uint256",
          "name": "exitId",
          "type": "uint256"
        }
      ],
      "name": "ExitCancelled",
      "type": "event"
    },
    {
      "anonymous": false,
      "inputs": [
        {
          "indexed": true,
          "internalType": "address",
          "name": "_new",
          "type": "address"
        },
        {
          "indexed": true,
          "internalType": "address",
          "name": "_old",
          "type": "address"
        }
      ],
      "name": "ProxyUpdated",
      "type": "event"
    },
    {
      "anonymous": false,
      "inputs": [
        {
          "indexed": false,
          "internalType": "address",
          "name": "_prevOwner",
          "type": "address"
        },
        {
          "indexed": false,
          "internalType": "address",
          "name": "_newOwner",
          "type": "address"
        }
      ],
      "name": "OwnerUpdate",
      "type": "event"
    },
    {
      "anonymous": false,
      "inputs": [
        {
          "indexed": true,
          "internalType": "address",
          "name": "previousOwner",
          "type": "address"
        },
        {
          "indexed": true,
          "internalType": "address",
          "name": "newOwner",
          "type": "address"
        }
      ],
      "name": "OwnershipTransferred",
      "type": "event"
    }
  ],
  "bytecode": "0x608060405234801561001057600080fd5b506040516108d53803806108d58339818101604052606081101561003357600080fd5b5080516020820151604092830151600080546001600160a01b0319163317808255945193949293919285926001600160a01b039190911691907f8be0079c531659141344cd1fd0a4f28419497f9722a3daafe3b4186f6b6457e0908290a36100a3816001600160e01b036100d616565b50600280546001600160a01b039384166001600160a01b031991821617909155600380549290931691161790555061025d565b6100e76001600160e01b0361022916565b6100f057600080fd5b6001600160a01b03811661016557604080517f08c379a000000000000000000000000000000000000000000000000000000000815260206004820152601560248201527f494e56414c49445f50524f58595f414444524553530000000000000000000000604482015290519081900360640190fd5b610177816001600160e01b0361023a16565b6101cc576040517f08c379a00000000000000000000000000000000000000000000000000000000081526004018080602001828103825260258152602001806108b06025913960400191505060405180910390fd5b6001546040516001600160a01b03918216918316907fd32d24edea94f55e932d9a008afc425a8561462d1b1f57bc6e508e9a6b9509e190600090a3600180546001600160a01b0319166001600160a01b0392909216919091179055565b6000546001600160a01b0316331490565b60006001600160a01b03821661025257506000610258565b50803b15155b919050565b6106448061026c6000396000f3fe6080604052600436106100a75760003560e01c8063715018a611610064578063715018a6146102255780638da5cb5b1461023a5780638f32d59b1461024f578063d11f045c14610278578063edeca09b146102ab578063f2fde38b146102c0576100a7565b8063025b22bc146100f35780631e29848b14610126578063342de1791461014d5780634555d5c9146101b55780635c60da1b146101ca578063661429c8146101fb575b60015460408051602036601f81018290048202830182019093528282526100f1936001600160a01b031692600091819084018382808284376000920191909152506102f392505050565b005b3480156100ff57600080fd5b506100f16004803603602081101561011657600080fd5b50356001600160a01b031661031b565b34801561013257600080fd5b5061013b610420565b60408051918252519081900360200190f35b34801561015957600080fd5b506101776004803603602081101561017057600080fd5b5035610426565b6040805196875260208701959095526001600160a01b03938416868601529183166060860152151560808501521660a0830152519081900360c00190f35b3480156101c157600080fd5b5061013b610471565b3480156101d657600080fd5b506101df610476565b604080516001600160a01b039092168252519081900360200190f35b34801561020757600080fd5b5061013b6004803603602081101561021e57600080fd5b5035610485565b34801561023157600080fd5b506100f1610497565b34801561024657600080fd5b506101df6104f2565b34801561025b57600080fd5b50610264610501565b604080519115158252519081900360200190f35b34801561028457600080fd5b506101df6004803603602081101561029b57600080fd5b50356001600160a01b0316610512565b3480156102b757600080fd5b506101df61052d565b3480156102cc57600080fd5b506100f1600480360360208110156102e357600080fd5b50356001600160a01b031661053c565b600080825160208401856127105a03f43d604051816000823e828015610317578282f35b8282fd5b610323610501565b61032c57600080fd5b6001600160a01b03811661037f576040805162461bcd60e51b8152602060048201526015602482015274494e56414c49445f50524f58595f4144445245535360581b604482015290519081900360640190fd5b61038881610559565b6103c35760405162461bcd60e51b81526004018080602001828103825260258152602001806105eb6025913960400191505060405180910390fd5b6001546040516001600160a01b03918216918316907fd32d24edea94f55e932d9a008afc425a8561462d1b1f57bc6e508e9a6b9509e190600090a3600180546001600160a01b0319166001600160a01b0392909216919091179055565b60085481565b600460208190526000918252604090912080546001820154600283015460038401549390940154919390926001600160a01b039182169282821692600160a01b90920460ff16911686565b600290565b6001546001600160a01b031690565b60056020526000908152604090205481565b61049f610501565b6104a857600080fd5b600080546040516001600160a01b03909116907f8be0079c531659141344cd1fd0a4f28419497f9722a3daafe3b4186f6b6457e0908390a3600080546001600160a01b0319169055565b6000546001600160a01b031690565b6000546001600160a01b0316331490565b6006602052600090815260409020546001600160a01b031681565b6007546001600160a01b031681565b610544610501565b61054d57600080fd5b6105568161057c565b50565b60006001600160a01b03821661057157506000610577565b50803b15155b919050565b6001600160a01b03811661058f57600080fd5b600080546040516001600160a01b03808516939216917f8be0079c531659141344cd1fd0a4f28419497f9722a3daafe3b4186f6b6457e091a3600080546001600160a01b0319166001600160a01b039290921691909117905556fe44455354494e4154494f4e5f414444524553535f49535f4e4f545f415f434f4e5452414354a265627a7a723158203c1b6e84b5bbaa25c5d9a7c3f9b6d2dac4a74ad7e5ef3c4af471a097511cf9d364736f6c634300050b003244455354494e4154494f4e5f414444524553535f49535f4e4f545f415f434f4e5452414354",
  "source": "pragma solidity ^0.5.2;\n\nimport { Registry } from \"../../common/Registry.sol\";\nimport { Proxy } from \"../../common/misc/Proxy.sol\";\nimport { WithdrawManagerStorage } from \"./WithdrawManagerStorage.sol\";\nimport { RootChain } from \"../RootChain.sol\";\n\n\ncontract WithdrawManagerProxy is Proxy, WithdrawManagerStorage {\n  constructor(address _proxyTo, address _registry, address _rootChain)\n    public\n    Proxy(_proxyTo)\n  {\n    registry = Registry(_registry);\n    rootChain = RootChain(_rootChain);\n  }\n}\n",
  "sourcePath": "/Users/atvanguard/matic/contracts/contracts/root/withdrawManager/WithdrawManagerProxy.sol",
  "compiler": {
    "name": "solc",
    "version": "0.5.11+commit.c082d0b4.Emscripten.clang"
  },
  "schemaVersion": "3.0.14",
  "updatedAt": "2019-12-17T06:13:10.897Z",
  "devdoc": {
    "methods": {
      "isOwner()": {
        "return": "true if `msg.sender` is the owner of the contract."
      },
      "owner()": {
        "return": "the address of the owner."
      },
      "renounceOwnership()": {
        "details": "Allows the current owner to relinquish control of the contract. It will not be possible to call the functions with the `onlyOwner` modifier anymore."
      },
      "transferOwnership(address)": {
        "details": "Allows the current owner to transfer control of the contract to a newOwner.",
        "params": {
          "newOwner": "The address to transfer ownership to."
        }
      }
    }
  },
  "userdoc": {
    "methods": {
      "renounceOwnership()": {
        "notice": "Renouncing ownership will leave the contract without an owner, thereby removing any functionality that is only available to the owner."
      }
    }
  }
}