{
  "contractName": "WithdrawManagerStorage",
  "abi": [
    {
      "constant": true,
      "inputs": [],
      "name": "exitWindow",
      "outputs": [
        {
          "name": "",
          "type": "uint256"
        }
      ],
      "payable": false,
      "stateMutability": "view",
      "type": "function"
    },
    {
      "constant": true,
      "inputs": [
        {
          "name": "",
          "type": "uint256"
        }
      ],
      "name": "exits",
      "outputs": [
        {
          "name": "receiptAmountOrNFTId",
          "type": "uint256"
        },
        {
          "name": "txHash",
          "type": "bytes32"
        },
        {
          "name": "owner",
          "type": "address"
        },
        {
          "name": "token",
          "type": "address"
        },
        {
          "name": "isRegularExit",
          "type": "bool"
        }
      ],
      "payable": false,
      "stateMutability": "view",
      "type": "function"
    },
    {
      "constant": true,
      "inputs": [
        {
          "name": "",
          "type": "bytes32"
        }
      ],
      "name": "ownerExits",
      "outputs": [
        {
          "name": "",
          "type": "uint256"
        }
      ],
      "payable": false,
      "stateMutability": "view",
      "type": "function"
    },
    {
      "constant": false,
      "inputs": [],
      "name": "renounceOwnership",
      "outputs": [],
      "payable": false,
      "stateMutability": "nonpayable",
      "type": "function"
    },
    {
      "constant": true,
      "inputs": [],
      "name": "owner",
      "outputs": [
        {
          "name": "",
          "type": "address"
        }
      ],
      "payable": false,
      "stateMutability": "view",
      "type": "function"
    },
    {
      "constant": true,
      "inputs": [],
      "name": "isOwner",
      "outputs": [
        {
          "name": "",
          "type": "bool"
        }
      ],
      "payable": false,
      "stateMutability": "view",
      "type": "function"
    },
    {
      "constant": true,
      "inputs": [],
      "name": "networkId",
      "outputs": [
        {
          "name": "",
          "type": "bytes"
        }
      ],
      "payable": false,
      "stateMutability": "view",
      "type": "function"
    },
    {
      "constant": true,
      "inputs": [
        {
          "name": "",
          "type": "address"
        }
      ],
      "name": "exitsQueues",
      "outputs": [
        {
          "name": "",
          "type": "address"
        }
      ],
      "payable": false,
      "stateMutability": "view",
      "type": "function"
    },
    {
      "constant": true,
      "inputs": [],
      "name": "exitNft",
      "outputs": [
        {
          "name": "",
          "type": "address"
        }
      ],
      "payable": false,
      "stateMutability": "view",
      "type": "function"
    },
    {
      "constant": false,
      "inputs": [
        {
          "name": "newOwner",
          "type": "address"
        }
      ],
      "name": "transferOwnership",
      "outputs": [],
      "payable": false,
      "stateMutability": "nonpayable",
      "type": "function"
    },
    {
      "anonymous": false,
      "inputs": [
        {
          "indexed": true,
          "name": "exitId",
          "type": "uint256"
        },
        {
          "indexed": true,
          "name": "user",
          "type": "address"
        },
        {
          "indexed": true,
          "name": "token",
          "type": "address"
        },
        {
          "indexed": false,
          "name": "amount",
          "type": "uint256"
        }
      ],
      "name": "Withdraw",
      "type": "event"
    },
    {
      "anonymous": false,
      "inputs": [
        {
          "indexed": true,
          "name": "exitor",
          "type": "address"
        },
        {
          "indexed": true,
          "name": "exitId",
          "type": "uint256"
        },
        {
          "indexed": true,
          "name": "token",
          "type": "address"
        },
        {
          "indexed": false,
          "name": "amount",
          "type": "uint256"
        },
        {
          "indexed": false,
          "name": "isRegularExit",
          "type": "bool"
        }
      ],
      "name": "ExitStarted",
      "type": "event"
    },
    {
      "anonymous": false,
      "inputs": [
        {
          "indexed": true,
          "name": "exitId",
          "type": "uint256"
        },
        {
          "indexed": true,
          "name": "age",
          "type": "uint256"
        },
        {
          "indexed": false,
          "name": "signer",
          "type": "address"
        }
      ],
      "name": "ExitUpdated",
      "type": "event"
    },
    {
      "anonymous": false,
      "inputs": [
        {
          "indexed": true,
          "name": "exitId",
          "type": "uint256"
        }
      ],
      "name": "ExitCancelled",
      "type": "event"
    },
    {
      "anonymous": false,
      "inputs": [
        {
          "indexed": true,
          "name": "previousOwner",
          "type": "address"
        },
        {
          "indexed": true,
          "name": "newOwner",
          "type": "address"
        }
      ],
      "name": "OwnershipTransferred",
      "type": "event"
    }
  ],
  "bytecode": "0x60806040819052600080546001600160a01b03191633178082556001600160a01b0316917f8be0079c531659141344cd1fd0a4f28419497f9722a3daafe3b4186f6b6457e0908290a361041e806100576000396000f3fe608060405234801561001057600080fd5b506004361061009e5760003560e01c80638f32d59b116100665780638f32d59b1461015c5780639025e64c14610178578063d11f045c146101f5578063edeca09b1461021b578063f2fde38b146102235761009e565b80631e29848b146100a3578063342de179146100bd578063661429c814610111578063715018a61461012e5780638da5cb5b14610138575b600080fd5b6100ab610249565b60408051918252519081900360200190f35b6100da600480360360208110156100d357600080fd5b503561024f565b6040805195865260208601949094526001600160a01b03928316858501529116606084015215156080830152519081900360a00190f35b6100ab6004803603602081101561012757600080fd5b503561028f565b6101366102a1565b005b6101406102fc565b604080516001600160a01b039092168252519081900360200190f35b61016461030b565b604080519115158252519081900360200190f35b61018061031c565b6040805160208082528351818301528351919283929083019185019080838360005b838110156101ba5781810151838201526020016101a2565b50505050905090810190601f1680156101e75780820380516001836020036101000a031916815260200191505b509250505060405180910390f35b6101406004803603602081101561020b57600080fd5b50356001600160a01b031661033d565b610140610358565b6101366004803603602081101561023957600080fd5b50356001600160a01b0316610367565b60085481565b6004602052600090815260409020805460018201546002830154600390930154919290916001600160a01b0391821691811690600160a01b900460ff1685565b60056020526000908152604090205481565b6102a961030b565b6102b257600080fd5b600080546040516001600160a01b03909116907f8be0079c531659141344cd1fd0a4f28419497f9722a3daafe3b4186f6b6457e0908390a3600080546001600160a01b0319169055565b6000546001600160a01b031690565b6000546001600160a01b0316331490565b604051806040016040528060028152602001600160f01b613a990281525081565b6006602052600090815260409020546001600160a01b031681565b6007546001600160a01b031681565b61036f61030b565b61037857600080fd5b61038181610384565b50565b6001600160a01b03811661039757600080fd5b600080546040516001600160a01b03808516939216917f8be0079c531659141344cd1fd0a4f28419497f9722a3daafe3b4186f6b6457e091a3600080546001600160a01b0319166001600160a01b039290921691909117905556fea165627a7a72305820878d5b51f08b3f7f71b2deb4d2c13dd8a06d15fcb225b9efd2646c74c54aca560029",
  "source": "pragma solidity ^0.5.2;\n\nimport { ProxyStorage } from \"../../common/misc/ProxyStorage.sol\";\nimport { Registry } from \"../../common/Registry.sol\";\nimport { RootChain } from \"../RootChain.sol\";\nimport { ExitNFT } from \"./ExitNFT.sol\";\n\ncontract ExitsDataStructure {\n  struct Input {\n    address utxoOwner;\n    address predicate;\n    address token;\n  }\n\n  struct PlasmaExit {\n    uint256 receiptAmountOrNFTId;\n    bytes32 txHash;\n    address owner;\n    address token;\n    bool isRegularExit;\n    // Mapping from age of input to Input\n    mapping(uint256 => Input) inputs;\n  }\n}\n\ncontract WithdrawManagerHeader is ExitsDataStructure {\n  event Withdraw(\n    uint256 indexed exitId,\n    address indexed user,\n    address indexed token,\n    uint256 amount\n  );\n\n  event ExitStarted(\n    address indexed exitor,\n    uint256 indexed exitId,\n    address indexed token,\n    uint256 amount,\n    bool isRegularExit\n  );\n\n  event ExitUpdated(\n    uint256 indexed exitId,\n    uint256 indexed age,\n    address signer\n  );\n\n  event ExitCancelled(uint256 indexed exitId);\n}\n\ncontract WithdrawManagerStorage is ProxyStorage, WithdrawManagerHeader {\n  uint256 internal constant HALF_EXIT_PERIOD = 1 weeks;\n\n  // Bonded exits collaterized at 0.1 ETH\n  uint256 constant internal BOND_AMOUNT = 10 ** 17;\n  bytes constant public networkId = hex\"3A99\";\n\n  Registry internal registry;\n  RootChain internal rootChain;\n\n  mapping (uint256 => PlasmaExit) public exits;\n  // mapping with token => (owner => exitId) keccak(token+owner) keccak(token+owner+tokenId)\n  mapping (bytes32 => uint256) public ownerExits;\n  mapping (address => address) public exitsQueues;\n  ExitNFT public exitNft;\n\n  // ERC721, ERC20 and Weth transfers require 155000, 100000, 52000 gas respectively\n  // Processing each exit in a while loop iteration requires ~52000 gas (@todo check if this changed)\n  // uint32 constant internal ITERATION_GAS = 52000;\n\n  // So putting an upper limit of 155000 + 52000 + leeway\n  uint32 constant internal ON_FINALIZE_GAS_LIMIT = 210000;\n\n  uint256 public exitWindow;\n}\n",
  "sourcePath": "/Users/arpit/projects/contracts/contracts/root/withdrawManager/WithdrawManagerStorage.sol",
  "compiler": {
    "name": "solc",
    "version": "0.5.7+commit.6da8b019.Emscripten.clang"
  },
  "schemaVersion": "3.0.14",
  "updatedAt": "2019-11-13T10:42:44.656Z",
  "devdoc": {
    "methods": {
      "isOwner()": {
        "return": "true if `msg.sender` is the owner of the contract."
      },
      "owner()": {
        "return": "the address of the owner."
      },
      "renounceOwnership()": {
        "details": "Allows the current owner to relinquish control of the contract. It will not be possible to call the functions with the `onlyOwner` modifier anymore."
      },
      "transferOwnership(address)": {
        "details": "Allows the current owner to transfer control of the contract to a newOwner.",
        "params": {
          "newOwner": "The address to transfer ownership to."
        }
      }
    }
  },
  "userdoc": {
    "methods": {
      "renounceOwnership()": {
        "notice": "Renouncing ownership will leave the contract without an owner, thereby removing any functionality that is only available to the owner."
      }
    }
  }
}