{
  "contractName": "WithdrawManagerMock",
  "abi": [
    {
      "constant": true,
      "inputs": [
        {
          "name": "_token",
          "type": "address"
        },
        {
          "name": "_owner",
          "type": "address"
        },
        {
          "name": "_tokenId",
          "type": "uint256"
        }
      ],
      "name": "getExitId",
      "outputs": [
        {
          "name": "",
          "type": "uint256"
        }
      ],
      "payable": false,
      "stateMutability": "view",
      "type": "function"
    },
    {
      "constant": false,
      "inputs": [
        {
          "name": "_token",
          "type": "address"
        }
      ],
      "name": "processExits",
      "outputs": [],
      "payable": false,
      "stateMutability": "nonpayable",
      "type": "function"
    },
    {
      "constant": false,
      "inputs": [
        {
          "name": "_depositManager",
          "type": "address"
        }
      ],
      "name": "setDepositManager",
      "outputs": [],
      "payable": false,
      "stateMutability": "nonpayable",
      "type": "function"
    },
    {
      "constant": true,
      "inputs": [],
      "name": "roundType",
      "outputs": [
        {
          "name": "",
          "type": "bytes32"
        }
      ],
      "payable": false,
      "stateMutability": "view",
      "type": "function"
    },
    {
      "constant": true,
      "inputs": [
        {
          "name": "",
          "type": "uint256"
        }
      ],
      "name": "exits",
      "outputs": [
        {
          "name": "owner",
          "type": "address"
        },
        {
          "name": "token",
          "type": "address"
        },
        {
          "name": "amountOrTokenId",
          "type": "uint256"
        },
        {
          "name": "burnt",
          "type": "bool"
        }
      ],
      "payable": false,
      "stateMutability": "view",
      "type": "function"
    },
    {
      "constant": false,
      "inputs": [
        {
          "name": "_nftContract",
          "type": "address"
        }
      ],
      "name": "setExitNFTContract",
      "outputs": [],
      "payable": false,
      "stateMutability": "nonpayable",
      "type": "function"
    },
    {
      "constant": true,
      "inputs": [],
      "name": "wethToken",
      "outputs": [
        {
          "name": "",
          "type": "address"
        }
      ],
      "payable": false,
      "stateMutability": "view",
      "type": "function"
    },
    {
      "constant": false,
      "inputs": [
        {
          "name": "exitId",
          "type": "uint256"
        }
      ],
      "name": "deleteExit",
      "outputs": [],
      "payable": false,
      "stateMutability": "nonpayable",
      "type": "function"
    },
    {
      "constant": false,
      "inputs": [
        {
          "name": "_depositCount",
          "type": "uint256"
        }
      ],
      "name": "withdrawDepositTokens",
      "outputs": [],
      "payable": false,
      "stateMutability": "nonpayable",
      "type": "function"
    },
    {
      "constant": true,
      "inputs": [
        {
          "name": "",
          "type": "bytes32"
        }
      ],
      "name": "ownerExits",
      "outputs": [
        {
          "name": "",
          "type": "uint256"
        }
      ],
      "payable": false,
      "stateMutability": "view",
      "type": "function"
    },
    {
      "constant": true,
      "inputs": [],
      "name": "depositManager",
      "outputs": [
        {
          "name": "",
          "type": "address"
        }
      ],
      "payable": false,
      "stateMutability": "view",
      "type": "function"
    },
    {
      "constant": false,
      "inputs": [],
      "name": "renounceOwnership",
      "outputs": [],
      "payable": false,
      "stateMutability": "nonpayable",
      "type": "function"
    },
    {
      "constant": false,
      "inputs": [
        {
          "name": "headerNumber",
          "type": "uint256"
        },
        {
          "name": "headerProof",
          "type": "bytes"
        },
        {
          "name": "blockNumber",
          "type": "uint256"
        },
        {
          "name": "blockTime",
          "type": "uint256"
        },
        {
          "name": "txRoot",
          "type": "bytes32"
        },
        {
          "name": "receiptRoot",
          "type": "bytes32"
        },
        {
          "name": "path",
          "type": "bytes"
        },
        {
          "name": "txBytes",
          "type": "bytes"
        },
        {
          "name": "txProof",
          "type": "bytes"
        },
        {
          "name": "receiptBytes",
          "type": "bytes"
        },
        {
          "name": "receiptProof",
          "type": "bytes"
        }
      ],
      "name": "withdrawBurntTokens",
      "outputs": [],
      "payable": false,
      "stateMutability": "nonpayable",
      "type": "function"
    },
    {
      "constant": false,
      "inputs": [
        {
          "name": "headerNumber",
          "type": "uint256"
        },
        {
          "name": "headerProof",
          "type": "bytes"
        },
        {
          "name": "blockNumber",
          "type": "uint256"
        },
        {
          "name": "blockTime",
          "type": "uint256"
        },
        {
          "name": "txRoot",
          "type": "bytes32"
        },
        {
          "name": "receiptRoot",
          "type": "bytes32"
        },
        {
          "name": "path",
          "type": "bytes"
        },
        {
          "name": "txBytes",
          "type": "bytes"
        },
        {
          "name": "txProof",
          "type": "bytes"
        },
        {
          "name": "receiptBytes",
          "type": "bytes"
        },
        {
          "name": "receiptProof",
          "type": "bytes"
        }
      ],
      "name": "withdrawTokens",
      "outputs": [],
      "payable": false,
      "stateMutability": "nonpayable",
      "type": "function"
    },
    {
      "constant": true,
      "inputs": [],
      "name": "voteType",
      "outputs": [
        {
          "name": "",
          "type": "bytes1"
        }
      ],
      "payable": false,
      "stateMutability": "view",
      "type": "function"
    },
    {
      "constant": true,
      "inputs": [
        {
          "name": "_token",
          "type": "address"
        }
      ],
      "name": "getNextExit",
      "outputs": [
        {
          "name": "",
          "type": "uint256"
        },
        {
          "name": "",
          "type": "uint256"
        }
      ],
      "payable": false,
      "stateMutability": "view",
      "type": "function"
    },
    {
      "constant": true,
      "inputs": [],
      "name": "owner",
      "outputs": [
        {
          "name": "",
          "type": "address"
        }
      ],
      "payable": false,
      "stateMutability": "view",
      "type": "function"
    },
    {
      "constant": true,
      "inputs": [],
      "name": "isOwner",
      "outputs": [
        {
          "name": "",
          "type": "bool"
        }
      ],
      "payable": false,
      "stateMutability": "view",
      "type": "function"
    },
    {
      "constant": true,
      "inputs": [],
      "name": "networkId",
      "outputs": [
        {
          "name": "",
          "type": "bytes"
        }
      ],
      "payable": false,
      "stateMutability": "view",
      "type": "function"
    },
    {
      "constant": true,
      "inputs": [],
      "name": "rootChain",
      "outputs": [
        {
          "name": "",
          "type": "address"
        }
      ],
      "payable": false,
      "stateMutability": "view",
      "type": "function"
    },
    {
      "constant": true,
      "inputs": [],
      "name": "CHILD_BLOCK_INTERVAL",
      "outputs": [
        {
          "name": "",
          "type": "uint256"
        }
      ],
      "payable": false,
      "stateMutability": "view",
      "type": "function"
    },
    {
      "constant": false,
      "inputs": [
        {
          "name": "_token",
          "type": "address"
        }
      ],
      "name": "setWETHToken",
      "outputs": [],
      "payable": false,
      "stateMutability": "nonpayable",
      "type": "function"
    },
    {
      "constant": true,
      "inputs": [],
      "name": "chain",
      "outputs": [
        {
          "name": "",
          "type": "bytes32"
        }
      ],
      "payable": false,
      "stateMutability": "view",
      "type": "function"
    },
    {
      "constant": true,
      "inputs": [
        {
          "name": "",
          "type": "address"
        }
      ],
      "name": "exitsQueues",
      "outputs": [
        {
          "name": "",
          "type": "address"
        }
      ],
      "payable": false,
      "stateMutability": "view",
      "type": "function"
    },
    {
      "constant": false,
      "inputs": [
        {
          "name": "_rootToken",
          "type": "address"
        },
        {
          "name": "_childToken",
          "type": "address"
        },
        {
          "name": "_isERC721",
          "type": "bool"
        }
      ],
      "name": "mapToken",
      "outputs": [],
      "payable": false,
      "stateMutability": "nonpayable",
      "type": "function"
    },
    {
      "constant": true,
      "inputs": [
        {
          "name": "_utxoPos",
          "type": "uint256"
        }
      ],
      "name": "getExit",
      "outputs": [
        {
          "name": "",
          "type": "address"
        },
        {
          "name": "",
          "type": "address"
        },
        {
          "name": "",
          "type": "uint256"
        },
        {
          "name": "",
          "type": "bool"
        }
      ],
      "payable": false,
      "stateMutability": "view",
      "type": "function"
    },
    {
      "constant": false,
      "inputs": [
        {
          "name": "newRootChain",
          "type": "address"
        }
      ],
      "name": "changeRootChain",
      "outputs": [],
      "payable": false,
      "stateMutability": "nonpayable",
      "type": "function"
    },
    {
      "constant": false,
      "inputs": [
        {
          "name": "newOwner",
          "type": "address"
        }
      ],
      "name": "transferOwnership",
      "outputs": [],
      "payable": false,
      "stateMutability": "nonpayable",
      "type": "function"
    },
    {
      "constant": true,
      "inputs": [],
      "name": "exitNFTContract",
      "outputs": [
        {
          "name": "",
          "type": "address"
        }
      ],
      "payable": false,
      "stateMutability": "view",
      "type": "function"
    },
    {
      "constant": false,
      "inputs": [
        {
          "name": "_currentHeaderBlock",
          "type": "uint256"
        }
      ],
      "name": "finalizeCommit",
      "outputs": [],
      "payable": false,
      "stateMutability": "nonpayable",
      "type": "function"
    },
    {
      "anonymous": false,
      "inputs": [
        {
          "indexed": true,
          "name": "user",
          "type": "address"
        },
        {
          "indexed": true,
          "name": "token",
          "type": "address"
        },
        {
          "indexed": false,
          "name": "amount",
          "type": "uint256"
        }
      ],
      "name": "Withdraw",
      "type": "event"
    },
    {
      "anonymous": false,
      "inputs": [
        {
          "indexed": true,
          "name": "exitor",
          "type": "address"
        },
        {
          "indexed": true,
          "name": "utxoPos",
          "type": "uint256"
        },
        {
          "indexed": true,
          "name": "token",
          "type": "address"
        },
        {
          "indexed": false,
          "name": "amount",
          "type": "uint256"
        }
      ],
      "name": "ExitStarted",
      "type": "event"
    },
    {
      "anonymous": false,
      "inputs": [
        {
          "indexed": true,
          "name": "previousRootChain",
          "type": "address"
        },
        {
          "indexed": true,
          "name": "newRootChain",
          "type": "address"
        }
      ],
      "name": "RootChainChanged",
      "type": "event"
    },
    {
      "anonymous": false,
      "inputs": [
        {
          "indexed": true,
          "name": "previousOwner",
          "type": "address"
        },
        {
          "indexed": true,
          "name": "newOwner",
          "type": "address"
        }
      ],
      "name": "OwnershipTransferred",
      "type": "event"
    }
  ],
  "bytecode": "0x6080604081905260008054600160a060020a0319163317808255600160a060020a0316917f8be0079c531659141344cd1fd0a4f28419497f9722a3daafe3b4186f6b6457e0908290a361464c806100576000396000f300608060405260043610620001855763ffffffff60e060020a6000350416630941b5ed81146200018a5780630f6795f214620001c9578063228d71a914620001ef5780632c2d1a3b1462000213578063342de179146200022b57806346e11a8d146200027a5780634b57b0be146200029e57806350c3030814620002d25780636346454114620002ed578063661429c814620003085780636c7ac9d81462000323578063715018a6146200033b57806377a7f06e1462000353578063791adeab14620005025780637d1a3d3714620006b15780638bfe0aec14620006fe5780638da5cb5b146200073b5780638f32d59b14620007535780639025e64c146200077f578063987ab9db146200080f578063a831fa071462000827578063b45d1f68146200083f578063c763e5a11462000863578063d11f045c146200087b578063e117694b146200089f578063e60f1ff114620008ce578063e8afa8e814620008e9578063f2fde38b146200090d578063f67137431462000931578063fb0df30f1462000949575b600080fd5b3480156200019757600080fd5b50620001b7600160a060020a036004358116906024351660443562000964565b60408051918252519081900360200190f35b348015620001d657600080fd5b50620001ed600160a060020a036004351662000a85565b005b348015620001fc57600080fd5b50620001ed600160a060020a036004351662000a93565b3480156200022057600080fd5b50620001b762000acb565b3480156200023857600080fd5b506200024660043562000b00565b60408051600160a060020a039586168152939094166020840152828401919091521515606082015290519081900360800190f35b3480156200028757600080fd5b50620001ed600160a060020a036004351662000b39565b348015620002ab57600080fd5b50620002b662000b44565b60408051600160a060020a039092168252519081900360200190f35b348015620002df57600080fd5b50620001ed60043562000b53565b348015620002fa57600080fd5b50620001ed60043562000b5e565b3480156200031557600080fd5b50620001b760043562000d50565b3480156200033057600080fd5b50620002b662000d62565b3480156200034857600080fd5b50620001ed62000d71565b3480156200036057600080fd5b5060408051602060046024803582810135601f8101859004850286018501909652858552620001ed95833595369560449491939091019190819084018382808284375050604080516020601f60808a01358b0180359182018390048302840183018552818452989b8a359b838c01359b958601359a60608701359a50919850965060a09094019450919281019190819084018382808284375050604080516020601f89358b018035918201839004830284018301909452808352979a99988101979196509182019450925082915084018382808284375050604080516020601f89358b018035918201839004830284018301909452808352979a99988101979196509182019450925082915084018382808284375050604080516020601f89358b018035918201839004830284018301909452808352979a99988101979196509182019450925082915084018382808284375050604080516020601f89358b018035918201839004830284018301909452808352979a99988101979196509182019450925082915084018382808284375094975062000dd19650505050505050565b3480156200050f57600080fd5b5060408051602060046024803582810135601f8101859004850286018501909652858552620001ed95833595369560449491939091019190819084018382808284375050604080516020601f60808a01358b0180359182018390048302840183018552818452989b8a359b838c01359b958601359a60608701359a50919850965060a09094019450919281019190819084018382808284375050604080516020601f89358b018035918201839004830284018301909452808352979a99988101979196509182019450925082915084018382808284375050604080516020601f89358b018035918201839004830284018301909452808352979a99988101979196509182019450925082915084018382808284375050604080516020601f89358b018035918201839004830284018301909452808352979a99988101979196509182019450925082915084018382808284375050604080516020601f89358b018035918201839004830284018301909452808352979a99988101979196509182019450925082915084018382808284375094975062000e519650505050505050565b348015620006be57600080fd5b50620006c96200126d565b604080517fff000000000000000000000000000000000000000000000000000000000000009092168252519081900360200190f35b3480156200070b57600080fd5b5062000722600160a060020a036004351662001291565b6040805192835260208301919091528051918290030190f35b3480156200074857600080fd5b50620002b66200133b565b3480156200076057600080fd5b506200076b6200134a565b604080519115158252519081900360200190f35b3480156200078c57600080fd5b50620007976200135b565b6040805160208082528351818301528351919283929083019185019080838360005b83811015620007d3578181015183820152602001620007b9565b50505050905090810190601f168015620008015780820380516001836020036101000a031916815260200191505b509250505060405180910390f35b3480156200081c57600080fd5b50620002b662001392565b3480156200083457600080fd5b50620001b7620013a1565b3480156200084c57600080fd5b50620001ed600160a060020a0360043516620013a7565b3480156200087057600080fd5b50620001b7620013b2565b3480156200088857600080fd5b50620002b6600160a060020a0360043516620013e7565b348015620008ac57600080fd5b50620001ed600160a060020a0360043581169060243516604435151562001402565b348015620008db57600080fd5b506200024660043562001414565b348015620008f657600080fd5b50620001ed600160a060020a03600435166200144d565b3480156200091a57600080fd5b50620001ed600160a060020a0360043516620014d5565b3480156200093e57600080fd5b50620002b6620014f6565b3480156200095657600080fd5b50620001ed60043562000a90565b6002546040805160e260020a6336a82795028152600160a060020a0386811660048301529151600093929092169163daa09e549160248082019260209290919082900301818787803b158015620009ba57600080fd5b505af1158015620009cf573d6000803e3d6000fd5b505050506040513d6020811015620009e657600080fd5b50511562000a3c5750604080516c01000000000000000000000000600160a060020a0380871682028352851602601482015260288101839052815190819003604801902060009081526004602052205462000a7e565b50604080516c01000000000000000000000000600160a060020a0380871682028352851602601482015281519081900360280190206000908152600460205220545b9392505050565b62000a908162001505565b50565b62000a9d6200134a565b151562000aa957600080fd5b60028054600160a060020a031916600160a060020a0392909216919091179055565b604080517f766f7465000000000000000000000000000000000000000000000000000000008152905190819003600401902081565b60036020819052600091825260409091208054600182015460028301549290930154600160a060020a0391821693909116919060ff1684565b62000a9081620018fa565b600754600160a060020a031681565b62000a908162001932565b60008060008060008062000b7162003cd1565b600254604080517fb02c43d0000000000000000000000000000000000000000000000000000000008152600481018b90529051600160a060020a039092169163b02c43d09160248082019260a0929091908290030181600087803b15801562000bd957600080fd5b505af115801562000bee573d6000803e3d6000fd5b505050506040513d60a081101562000c0557600080fd5b508051602082015160408301516060840151608090940151929a5090985096509094509250600160a060020a0385161580159062000c4b5750600160a060020a03861633145b151562000c5757600080fd5b600154604080517f61bbd461000000000000000000000000000000000000000000000000000000008152600481018a90529051600160a060020a03909216916361bbd461916024808201926080929091908290030181600087803b15801562000cbf57600080fd5b505af115801562000cd4573d6000803e3d6000fd5b505050506040513d608081101562000ceb57600080fd5b506040015191506000821162000d0057600080fd5b5060408051608081018252338152600160a060020a03861660208201529081018490526000606082015262000d46816c0c9f2c9cd04674edea400000008a028562001a59565b5050505050505050565b60046020526000908152604090205481565b600254600160a060020a031681565b62000d7b6200134a565b151562000d8757600080fd5b60008054604051600160a060020a03909116907f8be0079c531659141344cd1fd0a4f28419497f9722a3daafe3b4186f6b6457e0908390a360008054600160a060020a0319169055565b60008062000dde62003cd1565b62000ded8589868c3362001de4565b909350915062000e038789888d87873362002211565b5060408051608081018252338152600160a060020a03841660208201529081018290526001606082015262000e41818f8f8f8f8f8f8f600062002ad8565b5050505050505050505050505050565b60008062000e5e62003cd1565b73__MerklePatriciaProof___________________6379d1d4fa888a898e6040518563ffffffff1660e060020a028152600401808060200180602001806020018560001916600019168152602001848103845288818151815260200191508051906020019080838360005b8381101562000ee357818101518382015260200162000ec9565b50505050905090810190601f16801562000f115780820380516001836020036101000a031916815260200191505b50848103835287518152875160209182019189019080838360005b8381101562000f4657818101518382015260200162000f2c565b50505050905090810190601f16801562000f745780820380516001836020036101000a031916815260200191505b50848103825286518152865160209182019188019080838360005b8381101562000fa957818101518382015260200162000f8f565b50505050905090810190601f16801562000fd75780820380516001836020036101000a031916815260200191505b5097505050505050505060206040518083038186803b15801562000ffa57600080fd5b505af41580156200100f573d6000803e3d6000fd5b505050506040513d60208110156200102657600080fd5b505115156001146200103757600080fd5b73__MerklePatriciaProof___________________6379d1d4fa868a878d6040518563ffffffff1660e060020a028152600401808060200180602001806020018560001916600019168152602001848103845288818151815260200191508051906020019080838360005b83811015620010bc578181015183820152602001620010a2565b50505050905090810190601f168015620010ea5780820380516001836020036101000a031916815260200191505b50848103835287518152875160209182019189019080838360005b838110156200111f57818101518382015260200162001105565b50505050905090810190601f1680156200114d5780820380516001836020036101000a031916815260200191505b50848103825286518152865160209182019188019080838360005b838110156200118257818101518382015260200162001168565b50505050905090810190601f168015620011b05780820380516001836020036101000a031916815260200191505b5097505050505050505060206040518083038186803b158015620011d357600080fd5b505af4158015620011e8573d6000803e3d6000fd5b505050506040513d6020811015620011ff57600080fd5b505115156001146200121057600080fd5b6200121c853362002d75565b60408051608081019091523381529194509250602081016200123e8962002ffd565b600160a060020a03168152602081018590526000604090910152905062000e41818f8f8f8f8f8f8f8a62002ad8565b7f020000000000000000000000000000000000000000000000000000000000000081565b600160a060020a038082166000908152600560205260408082205481517fd6362e9700000000000000000000000000000000000000000000000000000000815282519394859492169263d6362e979260048084019382900301818787803b158015620012fc57600080fd5b505af115801562001311573d6000803e3d6000fd5b505050506040513d60408110156200132857600080fd5b5080516020909101519092509050915091565b600054600160a060020a031690565b600054600160a060020a0316331490565b60408051808201909152600281527f1212000000000000000000000000000000000000000000000000000000000000602082015281565b600154600160a060020a031681565b61271081565b62000a908162003226565b604080517f6865696d64616c6c2d39337251774b00000000000000000000000000000000008152905190819003600f01902081565b600560205260009081526040902054600160a060020a031681565b6200140f838383620032ad565b505050565b60009081526003602081905260409091208054600182015460028301549290930154600160a060020a0391821694919093169260ff1690565b620014576200134a565b15156200146357600080fd5b600160a060020a03811615156200147957600080fd5b600154604051600160a060020a038084169216907f211c9015fc81c0dbd45bd99f0f29fc1c143bfd53442d5ffd722bbbef7a887fe990600090a360018054600160a060020a031916600160a060020a0392909216919091179055565b620014df6200134a565b1515620014eb57600080fd5b62000a908162003306565b600654600160a060020a031681565b60008060006200151462003cd1565b600160a060020a0380861660009081526005602052604081205490911692505b600083600160a060020a031663bda1504b6040518163ffffffff1660e060020a028152600401602060405180830381600087803b1580156200157557600080fd5b505af11580156200158a573d6000803e3d6000fd5b505050506040513d6020811015620015a157600080fd5b50511115620018f257620015b58662001291565b909550935042851115620015c957620018f2565b600084815260036020818152604080842081516080810183528154600160a060020a0390811682526001830154811682860152600283015482850152919094015460ff161515606085015260065482517f6352211e000000000000000000000000000000000000000000000000000000008152600481018b905292519497501693636352211e93602480840194939192918390030190829087803b1580156200167157600080fd5b505af115801562001686573d6000803e3d6000fd5b505050506040513d60208110156200169d57600080fd5b50519050600160a060020a038116156200187f57600654604080517f9dc29fac000000000000000000000000000000000000000000000000000000008152600160a060020a0384811660048301526024820188905291519190921691639dc29fac91604480830192600092919082900301818387803b1580156200172057600080fd5b505af115801562001735573d6000803e3d6000fd5b505050508160600151156200178d578151604080516c01000000000000000000000000600160a060020a03808b1682028352909316909202601483015280519182900360280190912060009081526004602052908120555b60015460408084015181517f01f47471000000000000000000000000000000000000000000000000000000008152600160a060020a038a811660048301528581166024830152604482019290925291519216916301f47471916064808201926020929091908290030181600087803b1580156200180957600080fd5b505af11580156200181e573d6000803e3d6000fd5b505050506040513d60208110156200183557600080fd5b505060408083015181519081529051600160a060020a0380891692908416917f9b1bfa7fa9ee420a16e124f794c35ac9f90472acc99140eb2f6447c714cad8eb9181900360200190a35b82600160a060020a031663b07576ac6040518163ffffffff1660e060020a0281526004016040805180830381600087803b158015620018bd57600080fd5b505af1158015620018d2573d6000803e3d6000fd5b505050506040513d6040811015620018e957600080fd5b50620015349050565b505050505050565b600160a060020a03811615156200191057600080fd5b60068054600160a060020a031916600160a060020a0392909216919091179055565b600654604080517f6352211e000000000000000000000000000000000000000000000000000000008152600481018490529051600160a060020a03909216916000918391636352211e9160248082019260209290919082900301818787803b1580156200199e57600080fd5b505af1158015620019b3573d6000803e3d6000fd5b505050506040513d6020811015620019ca57600080fd5b5051604080517f9dc29fac000000000000000000000000000000000000000000000000000000008152600160a060020a03808416600483015260248201879052915192935090841691639dc29fac9160448082019260009290919082900301818387803b15801562001a3b57600080fd5b505af115801562001a50573d6000803e3d6000fd5b50505050505050565b602080840151600160a060020a039081166000908152600590925260408220548291829116151562001a8a57600080fd5b6002546020808801516040805160e260020a6336a82795028152600160a060020a0392831660048201529051919093169263daa09e549260248083019391928290030181600087803b15801562001ae057600080fd5b505af115801562001af5573d6000803e3d6000fd5b505050506040513d602081101562001b0c57600080fd5b50511562001b67576020860151865160408089015181516c01000000000000000000000000600160a060020a039586168102825294909316909302601483015260288201929092529051908190036048019020925062001bbb565b604086015160001062001b7957600080fd5b60208601518651604080516c01000000000000000000000000600160a060020a0394851681028252939092169092026014820152905190819003602801902092505b6000838152600460205260409020541562001bd557600080fd5b60008581526003602052604090206001015461012c42019250600160a060020a03161562001c0257600080fd5b50602080860151600160a060020a039081166000908152600590925260408083205481517f1d834a1b000000000000000000000000000000000000000000000000000000008152600481018690526024810189905291519216928392631d834a1b92604480820193929182900301818387803b15801562001c8257600080fd5b505af115801562001c97573d6000803e3d6000fd5b50506006548851604080517f40c10f19000000000000000000000000000000000000000000000000000000008152600160a060020a039283166004820152602481018b905290519190921693506340c10f199250604480830192600092919082900301818387803b15801562001d0c57600080fd5b505af115801562001d21573d6000803e3d6000fd5b50505060008681526003602081815260408084208b518154600160a060020a0319908116600160a060020a039283161783558d85018051600185018054909316908416179091558d84018051600285015560608f015193909601805460ff19169315159390931790925589865260048452948290208b9055518b5193518251908152915190851695508a9493909316927ff0537507c0bb9b823a1e4f5522ed9f25512618d4d169c9eb70a5ee2e9fb8bd57929181900390910190a4505050505050565b6000806060600062001e0062001dfa8a62003377565b620033c3565b805190925060041462001e1257600080fd5b62001e4862001e3a83600381518110151562001e2a57fe5b90602001906020020151620033c3565b8051600190811062001e2a57fe5b805190925060031462001e5a57600080fd5b62001e7e82600081518110151562001e6e57fe5b906020019060200201516200348c565b905062001eb062001ea883600281518110151562001e9857fe5b90602001906020020151620034c0565b60006200352a565b925062001ec682600181518110151562001e2a57fe5b805190925060031462001ed857600080fd5b81517febff2602b3f468259e1e99f613fed6691f3a6526effe6ef3e768ba7ae7a36c4f9062001f1f908490600090811062001f0f57fe5b906020019060200201516200354b565b1462001f2a57600080fd5b62001f4a62001f4283600181518110151562001e9857fe5b600c6200355e565b600254604080517fe4860339000000000000000000000000000000000000000000000000000000008152600160a060020a038481166004830152915193975084821693919092169163e48603399160248083019260209291908290030181600087803b15801562001fba57600080fd5b505af115801562001fcf573d6000803e3d6000fd5b505050506040513d602081101562001fe657600080fd5b5051600160a060020a03161462001ffc57600080fd5b6200201462001f4283600281518110151562001e9857fe5b600160a060020a038681169116146200202c57600080fd5b73__MerklePatriciaProof___________________6379d1d4fa8a8a8a8a6040518563ffffffff1660e060020a028152600401808060200180602001806020018560001916600019168152602001848103845288818151815260200191508051906020019080838360005b83811015620020b157818101518382015260200162002097565b50505050905090810190601f168015620020df5780820380516001836020036101000a031916815260200191505b50848103835287518152875160209182019189019080838360005b8381101562002114578181015183820152602001620020fa565b50505050905090810190601f168015620021425780820380516001836020036101000a031916815260200191505b50848103825286518152865160209182019188019080838360005b83811015620021775781810151838201526020016200215d565b50505050905090810190601f168015620021a55780820380516001836020036101000a031916815260200191505b5097505050505050505060206040518083038186803b158015620021c857600080fd5b505af4158015620021dd573d6000803e3d6000fd5b505050506040513d6020811015620021f457600080fd5b505115156001146200220557600080fd5b50509550959350505050565b60608060006200222562001dfa8b62003377565b80519093506009146200223757600080fd5b6200224b83600381518110151562001e6e57fe5b600254604080517fe4860339000000000000000000000000000000000000000000000000000000008152600160a060020a038a81166004830152915193821693919092169163e48603399160248083019260209291908290030181600087803b158015620022b857600080fd5b505af1158015620022cd573d6000803e3d6000fd5b505050506040513d6020811015620022e457600080fd5b5051600160a060020a031614620022fa57600080fd5b6200230e83600581518110151562001e9857fe5b516024146200231c57600080fd5b82517f2e1a7d4d00000000000000000000000000000000000000000000000000000000906200236d9062002367906200235d908790600590811062001e9857fe5b600060046200358f565b62003615565b7bffffffffffffffffffffffffffffffffffffffffffffffffffffffff1916146200239757600080fd5b6002546040805160e260020a6336a82795028152600160a060020a0389811660048301529151919092169163daa09e549160248083019260209291908290030181600087803b158015620023ea57600080fd5b505af1158015620023ff573d6000803e3d6000fd5b505050506040513d60208110156200241657600080fd5b505180620024245750600085115b15156200243057600080fd5b620024506200244884600581518110151562001e9857fe5b60046200352a565b85146200245c57600080fd5b73__MerklePatriciaProof___________________6379d1d4fa8b8b8b8b6040518563ffffffff1660e060020a028152600401808060200180602001806020018560001916600019168152602001848103845288818151815260200191508051906020019080838360005b83811015620024e1578181015183820152602001620024c7565b50505050905090810190601f1680156200250f5780820380516001836020036101000a031916815260200191505b50848103835287518152875160209182019189019080838360005b83811015620025445781810151838201526020016200252a565b50505050905090810190601f168015620025725780820380516001836020036101000a031916815260200191505b50848103825286518152865160209182019188019080838360005b83811015620025a75781810151838201526020016200258d565b50505050905090810190601f168015620025d55780820380516001836020036101000a031916815260200191505b5097505050505050505060206040518083038186803b158015620025f857600080fd5b505af41580156200260d573d6000803e3d6000fd5b505050506040513d60208110156200262457600080fd5b505115156001146200263557600080fd5b604080516009808252610140820190925290816020015b60608152602001906001900390816200264c579050509150600090505b600560ff821611620026b0576200268b838260ff1681518110151562001e9857fe5b828260ff168151811015156200269d57fe5b6020908102909101015260010162002669565b604080516020810190915260008152825183906004908110620026cf57fe5b906020019060200201819052506040805190810160405280600281526020017f12120000000000000000000000000000000000000000000000000000000000008152508260068151811015156200272257fe5b9060200190602002018190525060206040519081016040528060008152508260078151811015156200275057fe5b9060200190602002018190525060206040519081016040528060008152508260088151811015156200277e57fe5b60209081029091010152600162002795836200361c565b6040518082805190602001908083835b60208310620027c65780518252601f199092019160209182019101620027a5565b6001836020036101000a038019825116818451168082178552505050505050905001915050604051809103902073__Common________________________________63261737b26200282187600681518110151562001e9857fe5b604080518082018252600281527f1212000000000000000000000000000000000000000000000000000000000000602080830191825292517f7ae93b190000000000000000000000000000000000000000000000000000000081526004810193845282516024820152825173__Common________________________________94637ae93b199493909283926044909101919080838360005b83811015620028d4578181015183820152602001620028ba565b50505050905090810190601f168015620029025780820380516001836020036101000a031916815260200191505b509250505060206040518083038186803b1580156200292057600080fd5b505af415801562002935573d6000803e3d6000fd5b505050506040513d60208110156200294c57600080fd5b50516040805160e060020a63ffffffff861602815260ff8316602482015260048101918252835160448201528351829160640190602086019080838360005b83811015620029a55781810151838201526020016200298b565b50505050905090810190601f168015620029d35780820380516001836020036101000a031916815260200191505b50935050505060206040518083038186803b158015620029f257600080fd5b505af415801562002a07573d6000803e3d6000fd5b505050506040513d602081101562002a1e57600080fd5b5051855162002a35908790600790811062001f0f57fe5b62002a4987600881518110151562001f0f57fe5b60408051600080825260208083018085529790975260ff90951681830152606081019390935260808301919091525160a08083019493601f198301938390039091019190865af115801562002aa2573d6000803e3d6000fd5b50505060206040510351600160a060020a031684600160a060020a031614151562002acc57600080fd5b50505050505050505050565b600154604080517f61bbd461000000000000000000000000000000000000000000000000000000008152600481018b9052905160009283928392600160a060020a03909216916361bbd4619160248082019260809290919082900301818787803b15801562002b4657600080fd5b505af115801562002b5b573d6000803e3d6000fd5b505050506040513d608081101562002b7257600080fd5b8101908080519060200190929190805190602001909291908051906020019092919080519060200190929190505050905050809450819350505088888888604051808581526020018481526020018360001916600019168152602001826000191660001916815260200194505050505060405180910390206000191673__Merkle________________________________636c8f455c9091858c03858e6040518563ffffffff1660e060020a028152600401808560001916600019168152602001848152602001836000191660001916815260200180602001828103825283818151815260200191508051906020019080838360005b8381101562002c8257818101518382015260200162002c68565b50505050905090810190601f16801562002cb05780820380516001836020036101000a031916815260200191505b509550505050505060206040518083038186803b15801562002cd157600080fd5b505af415801562002ce6573d6000803e3d6000fd5b505050506040513d602081101562002cfd57600080fd5b5051151562002d0b57600080fd5b8360ff1662002d3862002d3262002d2c62002d268962003377565b620034c0565b62003377565b62003686565b620186a0028a64e8d4a51000028d6c0c9f2c9cd04674edea4000000002010101905062002d678c828a62001a59565b505050505050505050505050565b60008060608060008062002d8d62001dfa8962003377565b805190945060041462002d9f57600080fd5b62002db762001e3a85600381518110151562001e2a57fe5b935062002dcd84600181518110151562001e2a57fe5b925062002de762001f4284600281518110151562001e9857fe5b915062002e0162001f4284600381518110151562001e9857fe5b6002548451919250600160a060020a03169063daa09e549062002e3c908690600190811062002e2c57fe5b9060200190602002015162003686565b6040518263ffffffff1660e060020a0281526004018082600160a060020a0316600160a060020a03168152602001915050602060405180830381600087803b15801562002e8857600080fd5b505af115801562002e9d573d6000803e3d6000fd5b505050506040513d602081101562002eb457600080fd5b50511562002f5b57600160a060020a038181169088161462002f3757604080517f08c379a000000000000000000000000000000000000000000000000000000000815260206004820152601e60248201527f43616e277420657869742077697468207472616e736665726564204e46540000604482015290519081900360640190fd5b62002f4f62001ea885600281518110151562001e9857fe5b95506000945062002ff2565b86600160a060020a031681600160a060020a0316141562002fa25762002f9662002f8e85600281518110151562001e9857fe5b60806200352a565b95506001945062002fe4565b86600160a060020a031682600160a060020a0316141562002fe45762002fdd62002fd585600281518110151562001e9857fe5b60606200352a565b9550600094505b6000861162002ff257600080fd5b505050509250929050565b6000606060006200301262001dfa8562003377565b80519092506009146200302457600080fd5b6002548251600160a060020a03909116906340828ebf906200304e908590600390811062001e6e57fe5b6040518263ffffffff1660e060020a0281526004018082600160a060020a0316600160a060020a03168152602001915050602060405180830381600087803b1580156200309a57600080fd5b505af1158015620030af573d6000803e3d6000fd5b505050506040513d6020811015620030c657600080fd5b50519250600160a060020a0383161515620030e057600080fd5b620030fc620023676200235d84600581518110151562001e9857fe5b90507bffffffffffffffffffffffffffffffffffffffffffffffffffffffff1981167fa9059cbb0000000000000000000000000000000000000000000000000000000014806200321357506002546040805160e260020a6336a82795028152600160a060020a0386811660048301529151919092169163daa09e549160248083019260209291908290030181600087803b1580156200319a57600080fd5b505af1158015620031af573d6000803e3d6000fd5b505050506040513d6020811015620031c657600080fd5b505180156200321357507bffffffffffffffffffffffffffffffffffffffffffffffffffffffff1981167f23b872dd00000000000000000000000000000000000000000000000000000000145b15156200321f57600080fd5b5050919050565b600160a060020a03811615156200323c57600080fd5b60078054600160a060020a031916600160a060020a0383161790556200326162003cf8565b604051809103906000f0801580156200327e573d6000803e3d6000fd5b50600160a060020a0391821660009081526005602052604090208054600160a060020a03191691909216179055565b620032b762003cf8565b604051809103906000f080158015620032d4573d6000803e3d6000fd5b50600160a060020a0393841660009081526005602052604090208054600160a060020a03191691909416179092555050565b600160a060020a03811615156200331c57600080fd5b60008054604051600160a060020a03808516939216917f8be0079c531659141344cd1fd0a4f28419497f9722a3daafe3b4186f6b6457e091a360008054600160a060020a031916600160a060020a0392909216919091179055565b6200338162003d09565b81516000811515620033a957604080518082019091526000808252602082015292506200321f565b506040805180820190915260209384018152928301525090565b60606000620033d162003d20565b6000620033de85620036d5565b1515620033ea57600080fd5b620033f58562003701565b9250826040519080825280602002602001820160405280156200343557816020015b6200342162003d09565b815260200190600190039081620034175790505b50935062003443856200377b565b91505b6200345182620037bb565b1562003484576200346282620037dc565b84828151811015156200347157fe5b6020908102909101015260010162003446565b505050919050565b6000806200349a8362003826565b9150506014811115620034ac57600080fd5b620034b78362003686565b91505b50919050565b6060600080620034d084620038aa565b1515620034dc57600080fd5b620034e78462003826565b91509150806040519080825280601f01601f1916602001820160405280156200351a578160200160208202803883390190505b5092506200321f828483620038d5565b600080826020018451101515156200354157600080fd5b5050016020015190565b6000620035588262003686565b92915050565b600080826014018451101515156200357557600080fd5b505001602001516c01000000000000000000000000900490565b606080828401855110151515620035a557600080fd5b82158015620035c0576040519150602082016040526200360c565b6040519150601f8416801560200281840101858101878315602002848b0101015b81831015620035fb578051835260209283019201620035e1565b5050858452601f01601f1916604052505b50949350505050565b6020015190565b60608060005b835181101562003665576200365a826200365486848151811015156200364457fe5b9060200190602002015162003917565b6200398e565b915060010162003622565b6200367e62003677835160c062003a0d565b836200398e565b949350505050565b60008060006200369684620038aa565b1515620036a257600080fd5b620036ad8462003826565b90925090506020811115620036c157600080fd5b806020036101000a82510492505050919050565b600080826020015160001415620036f05760009150620034ba565b5050515160c060009190911a101590565b6000806000806000806200371587620036d5565b151562003726576000955062003771565b8651805160001a955093506200373c8762003af7565b840192506001876020015185010391505b8183116200376d57620037608362003b81565b909201916001016200374d565b8095505b5050505050919050565b6200378562003d20565b60006200379283620036d5565b15156200379e57600080fd5b620037a98362003af7565b83519383529092016020820152919050565b6000620037c762003d09565b50508051602080820151915192015191011190565b620037e662003d09565b600080620037f484620037bb565b156200018557836020015191506200380c8262003b81565b82845260208085018290528382019086015290506200321f565b60008060008060006200383986620038aa565b15156200384557600080fd5b8551805160001a935091506080831015620038675781945060019350620038a2565b60b8831015620038875760018660200151039350816001019450620038a2565b60b78303905080600187602001510303935080820160010194505b505050915091565b600080826020015160001415620038c55760009150620034ba565b5050515160c060009190911a1090565b60006020601f83010484602085015b8284146200390457602084028281015190820152600190930192620038e4565b6000865160200187015250505050505050565b606080825160011480156200394c575060808360008151811015156200393957fe5b016020015160f860020a90819004810204105b156200397a576040805160018082528183019092529060208083019080388339508593506200355892505050565b62000a7e6200398c8451608062003a0d565b845b6060806040519050835180825260208201818101602087015b81831015620039c1578051835260209283019201620039a7565b50855184518101855292509050808201602086015b81831015620039f0578051835260209283019201620039d6565b509551919091011594909401601f01601f19166040529392505050565b606080600080606080603888101562003a9257604080516001808252818301909252906020808301908038833901905050945086880160f860020a0285600081518110151562003a5957fe5b9060200101907effffffffffffffffffffffffffffffffffffffffffffffffffffffffffffff1916908160001a90535084955062003aec565b600192505b828881151562003aa357fe5b041562003abe57600190930192610100929092029162003a97565b62003ace84886037010162003c16565b915062003adb8862003c16565b905062003ae982826200398e565b95505b505050505092915050565b600080600083602001516000141562003b1457600092506200321f565b50508151805160001a90608082101562003b3257600092506200321f565b60b882108062003b4f575060c0821015801562003b4f575060f882105b1562003b5f57600192506200321f565b60c082101562003b765760b519820192506200321f565b5060f5190192915050565b8051600090811a608081101562003b9c5760019150620034ba565b60b881101562003bb357607e1981019150620034ba565b60c081101562003bde57600183015160b76020839003016101000a9004810160b519019150620034ba565b60f881101562003bf55760be1981019150620034ba565b6001929092015160f76020849003016101000a900490910160f51901919050565b60606001600060ff84111562003c2b57600291505b816040519080825280601f01601f19166020018201604052801562003c5a578160200160208202803883390190505b509250600090505b818110156200321f5780600183030360080260020a8481151562003c8257fe5b0460f860020a02838281518110151562003c9857fe5b9060200101907effffffffffffffffffffffffffffffffffffffffffffffffffffffffffffff1916908160001a90535060010162003c62565b60408051608081018252600080825260208201819052918101829052606081019190915290565b6040516108dd8062003d4483390190565b604080518082019091526000808252602082015290565b60606040519081016040528062003d3662003d09565b81526020016000815250905600608060405234801561001057600080fd5b5060008054600160a060020a0319163317808255604051600160a060020a039190911691907f8be0079c531659141344cd1fd0a4f28419497f9722a3daafe3b4186f6b6457e0908290a36040805160208101909152600081526100769060019081610081565b5060006002556100ee565b8280548282559060005260206000209081019282156100c1579160200282015b828111156100c1578251829060ff169055916020019190600101906100a1565b506100cd9291506100d1565b5090565b6100eb91905b808211156100cd57600081556001016100d7565b90565b6107e0806100fd6000396000f30060806040526004361061008d5763ffffffff7c01000000000000000000000000000000000000000000000000000000006000350416631d834a1b8114610092578063715018a6146100af5780638da5cb5b146100c45780638f32d59b146100f5578063b07576ac1461011e578063bda1504b1461014c578063d6362e9714610173578063f2fde38b14610188575b600080fd5b34801561009e57600080fd5b506100ad6004356024356101a9565b005b3480156100bb57600080fd5b506100ad610232565b3480156100d057600080fd5b506100d961029c565b60408051600160a060020a039092168252519081900360200190f35b34801561010157600080fd5b5061010a6102ac565b604080519115158252519081900360200190f35b34801561012a57600080fd5b506101336102bd565b6040805192835260208301919091528051918290030190f35b34801561015857600080fd5b50610161610397565b60408051918252519081900360200190f35b34801561017f57600080fd5b5061013361039d565b34801561019457600080fd5b506100ad600160a060020a03600435166103ca565b60006101b36102ac565b15156101be57600080fd5b506001805480820182556000829052700100000000000000000000000000000000840283177fb10e2d527612073b26eecdfd717e6a320cf44b4afac2b0732d9fcbe2b7fa0cf6909101819055600254909161021f919063ffffffff6103e916565b600281905561022d90610403565b505050565b61023a6102ac565b151561024557600080fd5b60008054604051600160a060020a03909116907f8be0079c531659141344cd1fd0a4f28419497f9722a3daafe3b4186f6b6457e0908390a36000805473ffffffffffffffffffffffffffffffffffffffff19169055565b600054600160a060020a03165b90565b600054600160a060020a0316331490565b60008060006102ca6102ac565b15156102d557600080fd5b60018054819081106102e357fe5b90600052602060002001549050600160025481548110151561030157fe5b906000526020600020015460018081548110151561031b57fe5b9060005260206000200181905550600160025481548110151561033a57fe5b600091825260208220015560025461035990600163ffffffff6104db16565b60025561036660016104ed565b600180546103799163ffffffff6104db16565b610384600182610777565b5061038e816105bd565b92509250509091565b60025481565b6000806103c26001808154811015156103b257fe5b90600052602060002001546105bd565b915091509091565b6103d26102ac565b15156103dd57600080fd5b6103e6816105e9565b50565b6000828201838110156103f857fe5b8091505b5092915050565b6001805482918291600091908390811061041957fe5b906000526020600020015490505b600161043a84600263ffffffff61066616565b8154811061044457fe5b90600052602060002001548110156104b157600161046984600263ffffffff61066616565b8154811061047357fe5b906000526020600020015460018481548110151561048d57fe5b6000918252602090912001556104aa83600263ffffffff61066616565b9250610427565b8282146104d557806001848154811015156104c857fe5b6000918252602090912001555b50505050565b6000828211156104e757fe5b50900390565b600180548291829160009182918490811061050457fe5b9060005260206000200154915061051a8461067d565b90505b60025481111580156105465750600180548290811061053857fe5b906000526020600020015482115b1561059257600180548290811061055957fe5b906000526020600020015460018581548110151561057357fe5b60009182526020909120015592508261058b8161067d565b905061051d565b8383146105b657816001858154811015156105a957fe5b6000918252602090912001555b5050505050565b70010000000000000000000000000000000081046fffffffffffffffffffffffffffffffff8216915091565b600160a060020a03811615156105fe57600080fd5b60008054604051600160a060020a03808516939216917f8be0079c531659141344cd1fd0a4f28419497f9722a3daafe3b4186f6b6457e091a36000805473ffffffffffffffffffffffffffffffffffffffff1916600160a060020a0392909216919091179055565b600080828481151561067457fe5b04949350505050565b60006002546106a7600161069b60028661074c90919063ffffffff16565b9063ffffffff6103e916565b11156106c5576106be82600263ffffffff61074c16565b9050610747565b60016106dc8161069b85600263ffffffff61074c16565b815481106106e657fe5b600091825260209091200154600161070584600263ffffffff61074c16565b8154811061070f57fe5b90600052602060002001541015610731576106be82600263ffffffff61074c16565b6106be600161069b84600263ffffffff61074c16565b919050565b60008083151561075f57600091506103fc565b5082820282848281151561076f57fe5b04146103f857fe5b81548183558181111561022d5760008381526020902061022d9181019083016102a991905b808211156107b0576000815560010161079c565b50905600a165627a7a72305820a6e7479814d2d307a392da3f80e1fb5986fe0e001b9873f00945163eca432fa10029a165627a7a72305820f6e7e149c19de01c9129e82885e981e2d0bd8af007b653b3b0fd95cc00cfe5090029",
  "source": "pragma solidity ^0.4.24;\n\nimport { Ownable } from \"openzeppelin-solidity/contracts/ownership/Ownable.sol\";\n\nimport { ExitNFT } from \"../token/ExitNFT.sol\";\nimport { WithdrawManager } from \"../root/WithdrawManager.sol\";\nimport { PriorityQueue } from \"../lib/PriorityQueue.sol\";\n\n\ncontract WithdrawManagerMock is Ownable, WithdrawManager {\n  // only root chain\n  modifier onlyRootChain() {\n    _;\n  }\n}\n",
  "sourcePath": "/Users/atvanguard/matic/contracts/contracts/mocks/WithdrawManagerMock.sol",
  "compiler": {
    "name": "solc",
    "version": "0.4.24+commit.e67f0147.Emscripten.clang"
  },
  "schemaVersion": "2.0.1",
  "updatedAt": "2019-12-07T09:11:33.309Z"
}