{
  "contractName": "WithdrawManagerStorage",
  "abi": [
    {
      "constant": true,
      "inputs": [],
      "name": "exitWindow",
      "outputs": [
        {
          "internalType": "uint256",
          "name": "",
          "type": "uint256"
        }
      ],
      "payable": false,
      "stateMutability": "view",
      "type": "function"
    },
    {
      "constant": true,
      "inputs": [
        {
          "internalType": "uint256",
          "name": "",
          "type": "uint256"
        }
      ],
      "name": "exits",
      "outputs": [
        {
          "internalType": "uint256",
          "name": "receiptAmountOrNFTId",
          "type": "uint256"
        },
        {
          "internalType": "bytes32",
          "name": "txHash",
          "type": "bytes32"
        },
        {
          "internalType": "address",
          "name": "owner",
          "type": "address"
        },
        {
          "internalType": "address",
          "name": "token",
          "type": "address"
        },
        {
          "internalType": "bool",
          "name": "isRegularExit",
          "type": "bool"
        },
        {
          "internalType": "address",
          "name": "predicate",
          "type": "address"
        }
      ],
      "payable": false,
      "stateMutability": "view",
      "type": "function"
    },
    {
      "constant": true,
      "inputs": [
        {
          "internalType": "bytes32",
          "name": "",
          "type": "bytes32"
        }
      ],
      "name": "ownerExits",
      "outputs": [
        {
          "internalType": "uint256",
          "name": "",
          "type": "uint256"
        }
      ],
      "payable": false,
      "stateMutability": "view",
      "type": "function"
    },
    {
      "constant": false,
      "inputs": [],
      "name": "renounceOwnership",
      "outputs": [],
      "payable": false,
      "stateMutability": "nonpayable",
      "type": "function"
    },
    {
      "constant": true,
      "inputs": [],
      "name": "owner",
      "outputs": [
        {
          "internalType": "address",
          "name": "",
          "type": "address"
        }
      ],
      "payable": false,
      "stateMutability": "view",
      "type": "function"
    },
    {
      "constant": true,
      "inputs": [],
      "name": "isOwner",
      "outputs": [
        {
          "internalType": "bool",
          "name": "",
          "type": "bool"
        }
      ],
      "payable": false,
      "stateMutability": "view",
      "type": "function"
    },
    {
      "constant": true,
      "inputs": [
        {
          "internalType": "address",
          "name": "",
          "type": "address"
        }
      ],
      "name": "exitsQueues",
      "outputs": [
        {
          "internalType": "address",
          "name": "",
          "type": "address"
        }
      ],
      "payable": false,
      "stateMutability": "view",
      "type": "function"
    },
    {
      "constant": true,
      "inputs": [],
      "name": "exitNft",
      "outputs": [
        {
          "internalType": "contract ExitNFT",
          "name": "",
          "type": "address"
        }
      ],
      "payable": false,
      "stateMutability": "view",
      "type": "function"
    },
    {
      "constant": false,
      "inputs": [
        {
          "internalType": "address",
          "name": "newOwner",
          "type": "address"
        }
      ],
      "name": "transferOwnership",
      "outputs": [],
      "payable": false,
      "stateMutability": "nonpayable",
      "type": "function"
    },
    {
      "anonymous": false,
      "inputs": [
        {
          "indexed": true,
          "internalType": "uint256",
          "name": "exitId",
          "type": "uint256"
        },
        {
          "indexed": true,
          "internalType": "address",
          "name": "user",
          "type": "address"
        },
        {
          "indexed": true,
          "internalType": "address",
          "name": "token",
          "type": "address"
        },
        {
          "indexed": false,
          "internalType": "uint256",
          "name": "amount",
          "type": "uint256"
        }
      ],
      "name": "Withdraw",
      "type": "event"
    },
    {
      "anonymous": false,
      "inputs": [
        {
          "indexed": true,
          "internalType": "address",
          "name": "exitor",
          "type": "address"
        },
        {
          "indexed": true,
          "internalType": "uint256",
          "name": "exitId",
          "type": "uint256"
        },
        {
          "indexed": true,
          "internalType": "address",
          "name": "token",
          "type": "address"
        },
        {
          "indexed": false,
          "internalType": "uint256",
          "name": "amount",
          "type": "uint256"
        },
        {
          "indexed": false,
          "internalType": "bool",
          "name": "isRegularExit",
          "type": "bool"
        }
      ],
      "name": "ExitStarted",
      "type": "event"
    },
    {
      "anonymous": false,
      "inputs": [
        {
          "indexed": true,
          "internalType": "uint256",
          "name": "exitId",
          "type": "uint256"
        },
        {
          "indexed": true,
          "internalType": "uint256",
          "name": "age",
          "type": "uint256"
        },
        {
          "indexed": false,
          "internalType": "address",
          "name": "signer",
          "type": "address"
        }
      ],
      "name": "ExitUpdated",
      "type": "event"
    },
    {
      "anonymous": false,
      "inputs": [
        {
          "indexed": true,
          "internalType": "uint256",
          "name": "exitId",
          "type": "uint256"
        }
      ],
      "name": "ExitCancelled",
      "type": "event"
    },
    {
      "anonymous": false,
      "inputs": [
        {
          "indexed": true,
          "internalType": "address",
          "name": "previousOwner",
          "type": "address"
        },
        {
          "indexed": true,
          "internalType": "address",
          "name": "newOwner",
          "type": "address"
        }
      ],
      "name": "OwnershipTransferred",
      "type": "event"
    }
  ],
  "bytecode": "0x60806040819052600080546001600160a01b03191633178082556001600160a01b0316917f8be0079c531659141344cd1fd0a4f28419497f9722a3daafe3b4186f6b6457e0908290a3610390806100576000396000f3fe608060405234801561001057600080fd5b50600436106100935760003560e01c80638da5cb5b116100665780638da5cb5b146101345780638f32d59b14610158578063d11f045c14610174578063edeca09b1461019a578063f2fde38b146101a257610093565b80631e29848b14610098578063342de179146100b2578063661429c81461010d578063715018a61461012a575b600080fd5b6100a06101c8565b60408051918252519081900360200190f35b6100cf600480360360208110156100c857600080fd5b50356101ce565b6040805196875260208701959095526001600160a01b03938416868601529183166060860152151560808501521660a0830152519081900360c00190f35b6100a06004803603602081101561012357600080fd5b5035610219565b61013261022b565b005b61013c610286565b604080516001600160a01b039092168252519081900360200190f35b610160610295565b604080519115158252519081900360200190f35b61013c6004803603602081101561018a57600080fd5b50356001600160a01b03166102a6565b61013c6102c1565b610132600480360360208110156101b857600080fd5b50356001600160a01b03166102d0565b60085481565b600460208190526000918252604090912080546001820154600283015460038401549390940154919390926001600160a01b039182169282821692600160a01b90920460ff16911686565b60056020526000908152604090205481565b610233610295565b61023c57600080fd5b600080546040516001600160a01b03909116907f8be0079c531659141344cd1fd0a4f28419497f9722a3daafe3b4186f6b6457e0908390a3600080546001600160a01b0319169055565b6000546001600160a01b031690565b6000546001600160a01b0316331490565b6006602052600090815260409020546001600160a01b031681565b6007546001600160a01b031681565b6102d8610295565b6102e157600080fd5b6102ea816102ed565b50565b6001600160a01b03811661030057600080fd5b600080546040516001600160a01b03808516939216917f8be0079c531659141344cd1fd0a4f28419497f9722a3daafe3b4186f6b6457e091a3600080546001600160a01b0319166001600160a01b039290921691909117905556fea265627a7a723158200e8c8aa5e604d2c7a8f5d0ecc55ec1d11faf1e3c5bc3ab9a2cbe87cfd0a666dd64736f6c634300050b0032",
  "source": "pragma solidity ^0.5.2;\n\nimport { ProxyStorage } from \"../../common/misc/ProxyStorage.sol\";\nimport { Registry } from \"../../common/Registry.sol\";\nimport { RootChain } from \"../RootChain.sol\";\nimport { ExitNFT } from \"./ExitNFT.sol\";\n\ncontract ExitsDataStructure {\n  struct Input {\n    address utxoOwner;\n    address predicate;\n    address token;\n  }\n\n  struct PlasmaExit {\n    uint256 receiptAmountOrNFTId;\n    bytes32 txHash;\n    address owner;\n    address token;\n    bool isRegularExit;\n    address predicate;\n    // Mapping from age of input to Input\n    mapping(uint256 => Input) inputs;\n  }\n}\n\ncontract WithdrawManagerHeader is ExitsDataStructure {\n  event Withdraw(\n    uint256 indexed exitId,\n    address indexed user,\n    address indexed token,\n    uint256 amount\n  );\n\n  event ExitStarted(\n    address indexed exitor,\n    uint256 indexed exitId,\n    address indexed token,\n    uint256 amount,\n    bool isRegularExit\n  );\n\n  event ExitUpdated(\n    uint256 indexed exitId,\n    uint256 indexed age,\n    address signer\n  );\n\n  event ExitCancelled(uint256 indexed exitId);\n}\n\ncontract WithdrawManagerStorage is ProxyStorage, WithdrawManagerHeader {\n  uint256 internal constant HALF_EXIT_PERIOD = 1 weeks;\n\n  // Bonded exits collaterized at 0.1 ETH\n  uint256 constant internal BOND_AMOUNT = 10 ** 17;\n\n  Registry internal registry;\n  RootChain internal rootChain;\n\n  mapping (uint256 => PlasmaExit) public exits;\n  // mapping with token => (owner => exitId) keccak(token+owner) keccak(token+owner+tokenId)\n  mapping (bytes32 => uint256) public ownerExits;\n  mapping (address => address) public exitsQueues;\n  ExitNFT public exitNft;\n\n  // ERC721, ERC20 and Weth transfers require 155000, 100000, 52000 gas respectively\n  // Processing each exit in a while loop iteration requires ~52000 gas (@todo check if this changed)\n  // uint32 constant internal ITERATION_GAS = 52000;\n\n  // So putting an upper limit of 155000 + 52000 + leeway\n  uint32 constant internal ON_FINALIZE_GAS_LIMIT = 210000;\n\n  uint256 public exitWindow;\n}\n",
  "sourcePath": "/Users/atvanguard/matic/contracts/contracts/root/withdrawManager/WithdrawManagerStorage.sol",
  "compiler": {
    "name": "solc",
    "version": "0.5.11+commit.c082d0b4.Emscripten.clang"
  },
  "schemaVersion": "3.0.14",
  "updatedAt": "2019-12-17T06:13:10.901Z",
  "devdoc": {
    "methods": {
      "isOwner()": {
        "return": "true if `msg.sender` is the owner of the contract."
      },
      "owner()": {
        "return": "the address of the owner."
      },
      "renounceOwnership()": {
        "details": "Allows the current owner to relinquish control of the contract. It will not be possible to call the functions with the `onlyOwner` modifier anymore."
      },
      "transferOwnership(address)": {
        "details": "Allows the current owner to transfer control of the contract to a newOwner.",
        "params": {
          "newOwner": "The address to transfer ownership to."
        }
      }
    }
  },
  "userdoc": {
    "methods": {
      "renounceOwnership()": {
        "notice": "Renouncing ownership will leave the contract without an owner, thereby removing any functionality that is only available to the owner."
      }
    }
  }
}