{
  "contractName": "WithdrawManagerProxy",
  "abi": [
    {
      "constant": false,
      "inputs": [
        {
          "name": "_newProxyTo",
          "type": "address"
        }
      ],
      "name": "updateImplementation",
      "outputs": [],
      "payable": false,
      "stateMutability": "nonpayable",
      "type": "function"
    },
    {
      "constant": true,
      "inputs": [],
      "name": "exitWindow",
      "outputs": [
        {
          "name": "",
          "type": "uint256"
        }
      ],
      "payable": false,
      "stateMutability": "view",
      "type": "function"
    },
    {
      "constant": true,
      "inputs": [
        {
          "name": "",
          "type": "uint256"
        }
      ],
      "name": "exits",
      "outputs": [
        {
          "name": "receiptAmountOrNFTId",
          "type": "uint256"
        },
        {
          "name": "txHash",
          "type": "bytes32"
        },
        {
          "name": "owner",
          "type": "address"
        },
        {
          "name": "token",
          "type": "address"
        },
        {
          "name": "isRegularExit",
          "type": "bool"
        }
      ],
      "payable": false,
      "stateMutability": "view",
      "type": "function"
    },
    {
      "constant": true,
      "inputs": [],
      "name": "proxyType",
      "outputs": [
        {
          "name": "proxyTypeId",
          "type": "uint256"
        }
      ],
      "payable": false,
      "stateMutability": "pure",
      "type": "function"
    },
    {
      "constant": true,
      "inputs": [],
      "name": "implementation",
      "outputs": [
        {
          "name": "",
          "type": "address"
        }
      ],
      "payable": false,
      "stateMutability": "view",
      "type": "function"
    },
    {
      "constant": true,
      "inputs": [
        {
          "name": "",
          "type": "bytes32"
        }
      ],
      "name": "ownerExits",
      "outputs": [
        {
          "name": "",
          "type": "uint256"
        }
      ],
      "payable": false,
      "stateMutability": "view",
      "type": "function"
    },
    {
      "constant": false,
      "inputs": [],
      "name": "renounceOwnership",
      "outputs": [],
      "payable": false,
      "stateMutability": "nonpayable",
      "type": "function"
    },
    {
      "constant": true,
      "inputs": [],
      "name": "owner",
      "outputs": [
        {
          "name": "",
          "type": "address"
        }
      ],
      "payable": false,
      "stateMutability": "view",
      "type": "function"
    },
    {
      "constant": true,
      "inputs": [],
      "name": "isOwner",
      "outputs": [
        {
          "name": "",
          "type": "bool"
        }
      ],
      "payable": false,
      "stateMutability": "view",
      "type": "function"
    },
    {
      "constant": true,
      "inputs": [],
      "name": "networkId",
      "outputs": [
        {
          "name": "",
          "type": "bytes"
        }
      ],
      "payable": false,
      "stateMutability": "view",
      "type": "function"
    },
    {
      "constant": true,
      "inputs": [
        {
          "name": "",
          "type": "address"
        }
      ],
      "name": "exitsQueues",
      "outputs": [
        {
          "name": "",
          "type": "address"
        }
      ],
      "payable": false,
      "stateMutability": "view",
      "type": "function"
    },
    {
      "constant": true,
      "inputs": [],
      "name": "exitNft",
      "outputs": [
        {
          "name": "",
          "type": "address"
        }
      ],
      "payable": false,
      "stateMutability": "view",
      "type": "function"
    },
    {
      "constant": false,
      "inputs": [
        {
          "name": "newOwner",
          "type": "address"
        }
      ],
      "name": "transferOwnership",
      "outputs": [],
      "payable": false,
      "stateMutability": "nonpayable",
      "type": "function"
    },
    {
      "inputs": [
        {
          "name": "_proxyTo",
          "type": "address"
        },
        {
          "name": "_registry",
          "type": "address"
        },
        {
          "name": "_rootChain",
          "type": "address"
        }
      ],
      "payable": false,
      "stateMutability": "nonpayable",
      "type": "constructor"
    },
    {
      "payable": true,
      "stateMutability": "payable",
      "type": "fallback"
    },
    {
      "anonymous": false,
      "inputs": [
        {
          "indexed": true,
          "name": "exitId",
          "type": "uint256"
        },
        {
          "indexed": true,
          "name": "user",
          "type": "address"
        },
        {
          "indexed": true,
          "name": "token",
          "type": "address"
        },
        {
          "indexed": false,
          "name": "amount",
          "type": "uint256"
        }
      ],
      "name": "Withdraw",
      "type": "event"
    },
    {
      "anonymous": false,
      "inputs": [
        {
          "indexed": true,
          "name": "exitor",
          "type": "address"
        },
        {
          "indexed": true,
          "name": "exitId",
          "type": "uint256"
        },
        {
          "indexed": true,
          "name": "token",
          "type": "address"
        },
        {
          "indexed": false,
          "name": "amount",
          "type": "uint256"
        },
        {
          "indexed": false,
          "name": "isRegularExit",
          "type": "bool"
        }
      ],
      "name": "ExitStarted",
      "type": "event"
    },
    {
      "anonymous": false,
      "inputs": [
        {
          "indexed": true,
          "name": "exitId",
          "type": "uint256"
        },
        {
          "indexed": true,
          "name": "age",
          "type": "uint256"
        },
        {
          "indexed": false,
          "name": "signer",
          "type": "address"
        }
      ],
      "name": "ExitUpdated",
      "type": "event"
    },
    {
      "anonymous": false,
      "inputs": [
        {
          "indexed": true,
          "name": "exitId",
          "type": "uint256"
        }
      ],
      "name": "ExitCancelled",
      "type": "event"
    },
    {
      "anonymous": false,
      "inputs": [
        {
          "indexed": true,
          "name": "_new",
          "type": "address"
        },
        {
          "indexed": true,
          "name": "_old",
          "type": "address"
        }
      ],
      "name": "ProxyUpdated",
      "type": "event"
    },
    {
      "anonymous": false,
      "inputs": [
        {
          "indexed": false,
          "name": "_prevOwner",
          "type": "address"
        },
        {
          "indexed": false,
          "name": "_newOwner",
          "type": "address"
        }
      ],
      "name": "OwnerUpdate",
      "type": "event"
    },
    {
      "anonymous": false,
      "inputs": [
        {
          "indexed": true,
          "name": "previousOwner",
          "type": "address"
        },
        {
          "indexed": true,
          "name": "newOwner",
          "type": "address"
        }
      ],
      "name": "OwnershipTransferred",
      "type": "event"
    }
  ],
  "bytecode": "0x608060405234801561001057600080fd5b506040516060806109828339810180604052606081101561003057600080fd5b5080516020820151604092830151600080546001600160a01b0319163317808255945193949293919285926001600160a01b039190911691907f8be0079c531659141344cd1fd0a4f28419497f9722a3daafe3b4186f6b6457e0908290a361009d816100d060201b60201c565b50600280546001600160a01b039384166001600160a01b0319918216179091556003805492909316911617905550610251565b6100de61021d60201b60201c565b6100e757600080fd5b6001600160a01b03811661015c57604080517f08c379a000000000000000000000000000000000000000000000000000000000815260206004820152601560248201527f494e56414c49445f50524f58595f414444524553530000000000000000000000604482015290519081900360640190fd5b61016b8161022e60201b60201c565b6101c0576040517f08c379a000000000000000000000000000000000000000000000000000000000815260040180806020018281038252602581526020018061095d6025913960400191505060405180910390fd5b6001546040516001600160a01b03918216918316907fd32d24edea94f55e932d9a008afc425a8561462d1b1f57bc6e508e9a6b9509e190600090a3600180546001600160a01b0319166001600160a01b0392909216919091179055565b6000546001600160a01b0316331490565b60006001600160a01b0382166102465750600061024c565b50803b15155b919050565b6106fd806102606000396000f3fe6080604052600436106100c25760003560e01c8063715018a61161007f5780639025e64c116100595780639025e64c1461028c578063d11f045c14610316578063edeca09b14610349578063f2fde38b1461035e576100c2565b8063715018a6146102395780638da5cb5b1461024e5780638f32d59b14610263576100c2565b8063025b22bc1461010e5780631e29848b14610141578063342de179146101685780634555d5c9146101c95780635c60da1b146101de578063661429c81461020f575b60015460408051602036601f810182900482028301820190935282825261010c936001600160a01b0316926000918190840183828082843760009201919091525061039192505050565b005b34801561011a57600080fd5b5061010c6004803603602081101561013157600080fd5b50356001600160a01b03166103b9565b34801561014d57600080fd5b506101566104cc565b60408051918252519081900360200190f35b34801561017457600080fd5b506101926004803603602081101561018b57600080fd5b50356104d2565b6040805195865260208601949094526001600160a01b03928316858501529116606084015215156080830152519081900360a00190f35b3480156101d557600080fd5b50610156610512565b3480156101ea57600080fd5b506101f3610517565b604080516001600160a01b039092168252519081900360200190f35b34801561021b57600080fd5b506101566004803603602081101561023257600080fd5b5035610526565b34801561024557600080fd5b5061010c610538565b34801561025a57600080fd5b506101f3610593565b34801561026f57600080fd5b506102786105a2565b604080519115158252519081900360200190f35b34801561029857600080fd5b506102a16105b3565b6040805160208082528351818301528351919283929083019185019080838360005b838110156102db5781810151838201526020016102c3565b50505050905090810190601f1680156103085780820380516001836020036101000a031916815260200191505b509250505060405180910390f35b34801561032257600080fd5b506101f36004803603602081101561033957600080fd5b50356001600160a01b03166105d4565b34801561035557600080fd5b506101f36105ef565b34801561036a57600080fd5b5061010c6004803603602081101561038157600080fd5b50356001600160a01b03166105fe565b600080825160208401856127105a03f43d604051816000823e8280156103b5578282f35b8282fd5b6103c16105a2565b6103ca57600080fd5b6001600160a01b0381166104285760408051600160e51b62461bcd02815260206004820152601560248201527f494e56414c49445f50524f58595f414444524553530000000000000000000000604482015290519081900360640190fd5b6104318161061b565b61046f57604051600160e51b62461bcd0281526004018080602001828103825260258152602001806106ad6025913960400191505060405180910390fd5b6001546040516001600160a01b03918216918316907fd32d24edea94f55e932d9a008afc425a8561462d1b1f57bc6e508e9a6b9509e190600090a3600180546001600160a01b0319166001600160a01b0392909216919091179055565b60085481565b6004602052600090815260409020805460018201546002830154600390930154919290916001600160a01b0391821691811690600160a01b900460ff1685565b600290565b6001546001600160a01b031690565b60056020526000908152604090205481565b6105406105a2565b61054957600080fd5b600080546040516001600160a01b03909116907f8be0079c531659141344cd1fd0a4f28419497f9722a3daafe3b4186f6b6457e0908390a3600080546001600160a01b0319169055565b6000546001600160a01b031690565b6000546001600160a01b0316331490565b604051806040016040528060028152602001600160f01b613a990281525081565b6006602052600090815260409020546001600160a01b031681565b6007546001600160a01b031681565b6106066105a2565b61060f57600080fd5b6106188161063e565b50565b60006001600160a01b03821661063357506000610639565b50803b15155b919050565b6001600160a01b03811661065157600080fd5b600080546040516001600160a01b03808516939216917f8be0079c531659141344cd1fd0a4f28419497f9722a3daafe3b4186f6b6457e091a3600080546001600160a01b0319166001600160a01b039290921691909117905556fe44455354494e4154494f4e5f414444524553535f49535f4e4f545f415f434f4e5452414354a165627a7a723058206cb9a2f44bee81a3c47bb5bc7adcddbc24aca08839b64abefb247b0071dc3902002944455354494e4154494f4e5f414444524553535f49535f4e4f545f415f434f4e5452414354",
  "source": "pragma solidity ^0.5.2;\n\nimport { Registry } from \"../../common/Registry.sol\";\nimport { Proxy } from \"../../common/misc/Proxy.sol\";\nimport { WithdrawManagerStorage } from \"./WithdrawManagerStorage.sol\";\nimport { RootChain } from \"../RootChain.sol\";\n\n\ncontract WithdrawManagerProxy is Proxy, WithdrawManagerStorage {\n  constructor(address _proxyTo, address _registry, address _rootChain)\n    public\n    Proxy(_proxyTo)\n  {\n    registry = Registry(_registry);\n    rootChain = RootChain(_rootChain);\n  }\n}\n",
  "sourcePath": "/Users/arpit/projects/contracts/contracts/root/withdrawManager/WithdrawManagerProxy.sol",
  "compiler": {
    "name": "solc",
    "version": "0.5.7+commit.6da8b019.Emscripten.clang"
  },
  "schemaVersion": "3.0.16",
  "updatedAt": "2019-09-21T10:53:39.245Z",
  "devdoc": {
    "methods": {
      "isOwner()": {
        "return": "true if `msg.sender` is the owner of the contract."
      },
      "owner()": {
        "return": "the address of the owner."
      },
      "renounceOwnership()": {
        "details": "Allows the current owner to relinquish control of the contract. It will not be possible to call the functions with the `onlyOwner` modifier anymore."
      },
      "transferOwnership(address)": {
        "details": "Allows the current owner to transfer control of the contract to a newOwner.",
        "params": {
          "newOwner": "The address to transfer ownership to."
        }
      }
    }
  },
  "userdoc": {
    "methods": {
      "renounceOwnership()": {
        "notice": "Renouncing ownership will leave the contract without an owner, thereby removing any functionality that is only available to the owner."
      }
    }
  }
}