{
  "_format": "hh-sol-artifact-1",
  "contractName": "StakeManagerExtension",
  "sourceName": "contracts/staking/stakeManager/StakeManagerExtension.sol",
  "abi": [
    {
      "inputs": [],
      "payable": false,
      "stateMutability": "nonpayable",
      "type": "constructor"
    },
    {
      "anonymous": false,
      "inputs": [
        {
          "indexed": true,
          "internalType": "address",
          "name": "previousOwner",
          "type": "address"
        },
        {
          "indexed": true,
          "internalType": "address",
          "name": "newOwner",
          "type": "address"
        }
      ],
      "name": "OwnershipTransferred",
      "type": "event"
    },
    {
      "anonymous": false,
      "inputs": [
        {
          "indexed": true,
          "internalType": "address",
          "name": "previousRootChain",
          "type": "address"
        },
        {
          "indexed": true,
          "internalType": "address",
          "name": "newRootChain",
          "type": "address"
        }
      ],
      "name": "RootChainChanged",
      "type": "event"
    },
    {
      "constant": true,
      "inputs": [],
      "name": "CHECKPOINT_REWARD",
      "outputs": [
        {
          "internalType": "uint256",
          "name": "",
          "type": "uint256"
        }
      ],
      "payable": false,
      "stateMutability": "view",
      "type": "function"
    },
    {
      "constant": true,
      "inputs": [],
      "name": "NFTContract",
      "outputs": [
        {
          "internalType": "contract StakingNFT",
          "name": "",
          "type": "address"
        }
      ],
      "payable": false,
      "stateMutability": "view",
      "type": "function"
    },
    {
      "constant": true,
      "inputs": [],
      "name": "NFTCounter",
      "outputs": [
        {
          "internalType": "uint256",
          "name": "",
          "type": "uint256"
        }
      ],
      "payable": false,
      "stateMutability": "view",
      "type": "function"
    },
    {
      "constant": true,
      "inputs": [],
      "name": "WITHDRAWAL_DELAY",
      "outputs": [
        {
          "internalType": "uint256",
          "name": "",
          "type": "uint256"
        }
      ],
      "payable": false,
      "stateMutability": "view",
      "type": "function"
    },
    {
      "constant": true,
      "inputs": [],
      "name": "accountStateRoot",
      "outputs": [
        {
          "internalType": "bytes32",
          "name": "",
          "type": "bytes32"
        }
      ],
      "payable": false,
      "stateMutability": "view",
      "type": "function"
    },
    {
      "constant": true,
      "inputs": [],
      "name": "auctionPeriod",
      "outputs": [
        {
          "internalType": "uint256",
          "name": "",
          "type": "uint256"
        }
      ],
      "payable": false,
      "stateMutability": "view",
      "type": "function"
    },
    {
      "constant": false,
      "inputs": [
        {
          "internalType": "address",
          "name": "newRootChain",
          "type": "address"
        }
      ],
      "name": "changeRootChain",
      "outputs": [],
      "payable": false,
      "stateMutability": "nonpayable",
      "type": "function"
    },
    {
      "constant": true,
      "inputs": [],
      "name": "checkPointBlockInterval",
      "outputs": [
        {
          "internalType": "uint256",
          "name": "",
          "type": "uint256"
        }
      ],
      "payable": false,
      "stateMutability": "view",
      "type": "function"
    },
    {
      "constant": true,
      "inputs": [],
      "name": "checkpointRewardDelta",
      "outputs": [
        {
          "internalType": "uint256",
          "name": "",
          "type": "uint256"
        }
      ],
      "payable": false,
      "stateMutability": "view",
      "type": "function"
    },
    {
      "constant": false,
      "inputs": [
        {
          "internalType": "uint256",
          "name": "validatorId",
          "type": "uint256"
        },
        {
          "internalType": "uint256",
          "name": "heimdallFee",
          "type": "uint256"
        },
        {
          "internalType": "contract IStakeManager",
          "name": "stakeManager",
          "type": "address"
        }
      ],
      "name": "confirmAuctionBid",
      "outputs": [],
      "payable": false,
      "stateMutability": "nonpayable",
      "type": "function"
    },
    {
      "constant": true,
      "inputs": [],
      "name": "currentEpoch",
      "outputs": [
        {
          "internalType": "uint256",
          "name": "",
          "type": "uint256"
        }
      ],
      "payable": false,
      "stateMutability": "view",
      "type": "function"
    },
    {
      "constant": true,
      "inputs": [],
      "name": "delegationEnabled",
      "outputs": [
        {
          "internalType": "bool",
          "name": "",
          "type": "bool"
        }
      ],
      "payable": false,
      "stateMutability": "view",
      "type": "function"
    },
    {
      "constant": true,
      "inputs": [],
      "name": "dynasty",
      "outputs": [
        {
          "internalType": "uint256",
          "name": "",
          "type": "uint256"
        }
      ],
      "payable": false,
      "stateMutability": "view",
      "type": "function"
    },
    {
      "constant": true,
      "inputs": [],
      "name": "eventsHub",
      "outputs": [
        {
          "internalType": "address",
          "name": "",
          "type": "address"
        }
      ],
      "payable": false,
      "stateMutability": "view",
      "type": "function"
    },
    {
      "constant": true,
      "inputs": [],
      "name": "extensionCode",
      "outputs": [
        {
          "internalType": "address",
          "name": "",
          "type": "address"
        }
      ],
      "payable": false,
      "stateMutability": "view",
      "type": "function"
    },
    {
      "constant": true,
      "inputs": [],
      "name": "governance",
      "outputs": [
        {
          "internalType": "contract IGovernance",
          "name": "",
          "type": "address"
        }
      ],
      "payable": false,
      "stateMutability": "view",
      "type": "function"
    },
    {
      "constant": true,
      "inputs": [],
      "name": "isOwner",
      "outputs": [
        {
          "internalType": "bool",
          "name": "",
          "type": "bool"
        }
      ],
      "payable": false,
      "stateMutability": "view",
      "type": "function"
    },
    {
      "constant": true,
      "inputs": [
        {
          "internalType": "uint256",
          "name": "",
          "type": "uint256"
        }
      ],
      "name": "latestSignerUpdateEpoch",
      "outputs": [
        {
          "internalType": "uint256",
          "name": "",
          "type": "uint256"
        }
      ],
      "payable": false,
      "stateMutability": "view",
      "type": "function"
    },
    {
      "constant": false,
      "inputs": [],
      "name": "lock",
      "outputs": [],
      "payable": false,
      "stateMutability": "nonpayable",
      "type": "function"
    },
    {
      "constant": true,
      "inputs": [],
      "name": "locked",
      "outputs": [
        {
          "internalType": "bool",
          "name": "",
          "type": "bool"
        }
      ],
      "payable": false,
      "stateMutability": "view",
      "type": "function"
    },
    {
      "constant": true,
      "inputs": [],
      "name": "logger",
      "outputs": [
        {
          "internalType": "contract StakingInfo",
          "name": "",
          "type": "address"
        }
      ],
      "payable": false,
      "stateMutability": "view",
      "type": "function"
    },
    {
      "constant": true,
      "inputs": [],
      "name": "maxRewardedCheckpoints",
      "outputs": [
        {
          "internalType": "uint256",
          "name": "",
          "type": "uint256"
        }
      ],
      "payable": false,
      "stateMutability": "view",
      "type": "function"
    },
    {
      "constant": false,
      "inputs": [
        {
          "internalType": "uint256",
          "name": "validatorIdFrom",
          "type": "uint256"
        },
        {
          "internalType": "uint256",
          "name": "validatorIdTo",
          "type": "uint256"
        }
      ],
      "name": "migrateValidatorsData",
      "outputs": [],
      "payable": false,
      "stateMutability": "nonpayable",
      "type": "function"
    },
    {
      "constant": true,
      "inputs": [],
      "name": "minDeposit",
      "outputs": [
        {
          "internalType": "uint256",
          "name": "",
          "type": "uint256"
        }
      ],
      "payable": false,
      "stateMutability": "view",
      "type": "function"
    },
    {
      "constant": true,
      "inputs": [],
      "name": "minHeimdallFee",
      "outputs": [
        {
          "internalType": "uint256",
          "name": "",
          "type": "uint256"
        }
      ],
      "payable": false,
      "stateMutability": "view",
      "type": "function"
    },
    {
      "constant": true,
      "inputs": [],
      "name": "owner",
      "outputs": [
        {
          "internalType": "address",
          "name": "",
          "type": "address"
        }
      ],
      "payable": false,
      "stateMutability": "view",
      "type": "function"
    },
    {
      "constant": true,
      "inputs": [],
      "name": "prevBlockInterval",
      "outputs": [
        {
          "internalType": "uint256",
          "name": "",
          "type": "uint256"
        }
      ],
      "payable": false,
      "stateMutability": "view",
      "type": "function"
    },
    {
      "constant": true,
      "inputs": [],
      "name": "proposerBonus",
      "outputs": [
        {
          "internalType": "uint256",
          "name": "",
          "type": "uint256"
        }
      ],
      "payable": false,
      "stateMutability": "view",
      "type": "function"
    },
    {
      "constant": true,
      "inputs": [],
      "name": "registry",
      "outputs": [
        {
          "internalType": "address",
          "name": "",
          "type": "address"
        }
      ],
      "payable": false,
      "stateMutability": "view",
      "type": "function"
    },
    {
      "constant": false,
      "inputs": [],
      "name": "renounceOwnership",
      "outputs": [],
      "payable": false,
      "stateMutability": "nonpayable",
      "type": "function"
    },
    {
      "constant": true,
      "inputs": [],
      "name": "replacementCoolDown",
      "outputs": [
        {
          "internalType": "uint256",
          "name": "",
          "type": "uint256"
        }
      ],
      "payable": false,
      "stateMutability": "view",
      "type": "function"
    },
    {
      "constant": true,
      "inputs": [],
      "name": "rewardDecreasePerCheckpoint",
      "outputs": [
        {
          "internalType": "uint256",
          "name": "",
          "type": "uint256"
        }
      ],
      "payable": false,
      "stateMutability": "view",
      "type": "function"
    },
    {
      "constant": true,
      "inputs": [],
      "name": "rewardPerStake",
      "outputs": [
        {
          "internalType": "uint256",
          "name": "",
          "type": "uint256"
        }
      ],
      "payable": false,
      "stateMutability": "view",
      "type": "function"
    },
    {
      "constant": true,
      "inputs": [],
      "name": "rootChain",
      "outputs": [
        {
          "internalType": "address",
          "name": "",
          "type": "address"
        }
      ],
      "payable": false,
      "stateMutability": "view",
      "type": "function"
    },
    {
      "constant": true,
      "inputs": [
        {
          "internalType": "address",
          "name": "",
          "type": "address"
        }
      ],
      "name": "signerToValidator",
      "outputs": [
        {
          "internalType": "uint256",
          "name": "",
          "type": "uint256"
        }
      ],
      "payable": false,
      "stateMutability": "view",
      "type": "function"
    },
    {
      "constant": true,
      "inputs": [],
      "name": "signerUpdateLimit",
      "outputs": [
        {
          "internalType": "uint256",
          "name": "",
          "type": "uint256"
        }
      ],
      "payable": false,
      "stateMutability": "view",
      "type": "function"
    },
    {
      "constant": true,
      "inputs": [
        {
          "internalType": "uint256",
          "name": "",
          "type": "uint256"
        }
      ],
      "name": "signers",
      "outputs": [
        {
          "internalType": "address",
          "name": "",
          "type": "address"
        }
      ],
      "payable": false,
      "stateMutability": "view",
      "type": "function"
    },
    {
      "constant": false,
      "inputs": [
        {
          "internalType": "uint256",
          "name": "validatorId",
          "type": "uint256"
        },
        {
          "internalType": "uint256",
          "name": "amount",
          "type": "uint256"
        },
        {
          "internalType": "bool",
          "name": "_acceptDelegation",
          "type": "bool"
        },
        {
          "internalType": "bytes",
          "name": "_signerPubkey",
          "type": "bytes"
        }
      ],
      "name": "startAuction",
      "outputs": [],
      "payable": false,
      "stateMutability": "nonpayable",
      "type": "function"
    },
    {
      "constant": true,
      "inputs": [],
      "name": "token",
      "outputs": [
        {
          "internalType": "contract IERC20",
          "name": "",
          "type": "address"
        }
      ],
      "payable": false,
      "stateMutability": "view",
      "type": "function"
    },
    {
      "constant": true,
      "inputs": [],
      "name": "totalHeimdallFee",
      "outputs": [
        {
          "internalType": "uint256",
          "name": "",
          "type": "uint256"
        }
      ],
      "payable": false,
      "stateMutability": "view",
      "type": "function"
    },
    {
      "constant": true,
      "inputs": [],
      "name": "totalRewards",
      "outputs": [
        {
          "internalType": "uint256",
          "name": "",
          "type": "uint256"
        }
      ],
      "payable": false,
      "stateMutability": "view",
      "type": "function"
    },
    {
      "constant": true,
      "inputs": [],
      "name": "totalRewardsLiquidated",
      "outputs": [
        {
          "internalType": "uint256",
          "name": "",
          "type": "uint256"
        }
      ],
      "payable": false,
      "stateMutability": "view",
      "type": "function"
    },
    {
      "constant": true,
      "inputs": [],
      "name": "totalStaked",
      "outputs": [
        {
          "internalType": "uint256",
          "name": "",
          "type": "uint256"
        }
      ],
      "payable": false,
      "stateMutability": "view",
      "type": "function"
    },
    {
      "constant": false,
      "inputs": [
        {
          "internalType": "address",
          "name": "newOwner",
          "type": "address"
        }
      ],
      "name": "transferOwnership",
      "outputs": [],
      "payable": false,
      "stateMutability": "nonpayable",
      "type": "function"
    },
    {
      "constant": false,
      "inputs": [],
      "name": "unlock",
      "outputs": [],
      "payable": false,
      "stateMutability": "nonpayable",
      "type": "function"
    },
    {
      "constant": false,
      "inputs": [
        {
          "internalType": "uint256",
          "name": "_rewardDecreasePerCheckpoint",
          "type": "uint256"
        },
        {
          "internalType": "uint256",
          "name": "_maxRewardedCheckpoints",
          "type": "uint256"
        },
        {
          "internalType": "uint256",
          "name": "_checkpointRewardDelta",
          "type": "uint256"
        }
      ],
      "name": "updateCheckpointRewardParams",
      "outputs": [],
      "payable": false,
      "stateMutability": "nonpayable",
      "type": "function"
    },
    {
      "constant": false,
      "inputs": [
        {
          "internalType": "uint256",
          "name": "validatorId",
          "type": "uint256"
        },
        {
          "internalType": "uint256",
          "name": "newCommissionRate",
          "type": "uint256"
        }
      ],
      "name": "updateCommissionRate",
      "outputs": [],
      "payable": false,
      "stateMutability": "nonpayable",
      "type": "function"
    },
    {
      "constant": true,
      "inputs": [
        {
          "internalType": "address",
          "name": "",
          "type": "address"
        }
      ],
      "name": "userFeeExit",
      "outputs": [
        {
          "internalType": "uint256",
          "name": "",
          "type": "uint256"
        }
      ],
      "payable": false,
      "stateMutability": "view",
      "type": "function"
    },
    {
      "constant": true,
      "inputs": [
        {
          "internalType": "uint256",
          "name": "",
          "type": "uint256"
        }
      ],
      "name": "validatorAuction",
      "outputs": [
        {
          "internalType": "uint256",
          "name": "amount",
          "type": "uint256"
        },
        {
          "internalType": "uint256",
          "name": "startEpoch",
          "type": "uint256"
        },
        {
          "internalType": "address",
          "name": "user",
          "type": "address"
        },
        {
          "internalType": "bool",
          "name": "acceptDelegation",
          "type": "bool"
        },
        {
          "internalType": "bytes",
          "name": "signerPubkey",
          "type": "bytes"
        }
      ],
      "payable": false,
      "stateMutability": "view",
      "type": "function"
    },
    {
      "constant": true,
      "inputs": [],
      "name": "validatorShareFactory",
      "outputs": [
        {
          "internalType": "contract ValidatorShareFactory",
          "name": "",
          "type": "address"
        }
      ],
      "payable": false,
      "stateMutability": "view",
      "type": "function"
    },
    {
      "constant": true,
      "inputs": [],
      "name": "validatorState",
      "outputs": [
        {
          "internalType": "uint256",
          "name": "amount",
          "type": "uint256"
        },
        {
          "internalType": "uint256",
          "name": "stakerCount",
          "type": "uint256"
        }
      ],
      "payable": false,
      "stateMutability": "view",
      "type": "function"
    },
    {
      "constant": true,
      "inputs": [
        {
          "internalType": "uint256",
          "name": "",
          "type": "uint256"
        }
      ],
      "name": "validatorStateChanges",
      "outputs": [
        {
          "internalType": "int256",
          "name": "amount",
          "type": "int256"
        },
        {
          "internalType": "int256",
          "name": "stakerCount",
          "type": "int256"
        }
      ],
      "payable": false,
      "stateMutability": "view",
      "type": "function"
    },
    {
      "constant": true,
      "inputs": [],
      "name": "validatorThreshold",
      "outputs": [
        {
          "internalType": "uint256",
          "name": "",
          "type": "uint256"
        }
      ],
      "payable": false,
      "stateMutability": "view",
      "type": "function"
    },
    {
      "constant": true,
      "inputs": [
        {
          "internalType": "uint256",
          "name": "",
          "type": "uint256"
        }
      ],
      "name": "validators",
      "outputs": [
        {
          "internalType": "uint256",
          "name": "amount",
          "type": "uint256"
        },
        {
          "internalType": "uint256",
          "name": "reward",
          "type": "uint256"
        },
        {
          "internalType": "uint256",
          "name": "activationEpoch",
          "type": "uint256"
        },
        {
          "internalType": "uint256",
          "name": "deactivationEpoch",
          "type": "uint256"
        },
        {
          "internalType": "uint256",
          "name": "jailTime",
          "type": "uint256"
        },
        {
          "internalType": "address",
          "name": "signer",
          "type": "address"
        },
        {
          "internalType": "address",
          "name": "contractAddress",
          "type": "address"
        },
        {
          "internalType": "enum StakeManagerStorage.Status",
          "name": "status",
          "type": "uint8"
        },
        {
          "internalType": "uint256",
          "name": "commissionRate",
          "type": "uint256"
        },
        {
          "internalType": "uint256",
          "name": "lastCommissionUpdate",
          "type": "uint256"
        },
        {
          "internalType": "uint256",
          "name": "delegatorsReward",
          "type": "uint256"
        },
        {
          "internalType": "uint256",
          "name": "delegatedAmount",
          "type": "uint256"
        },
        {
          "internalType": "uint256",
          "name": "initialRewardPerStake",
          "type": "uint256"
        }
      ],
      "payable": false,
      "stateMutability": "view",
      "type": "function"
    }
  ],
  "bytecode": "0x60806040526000602360006101000a81548160ff02191690831515021790555034801561002b57600080fd5b5060008080600060016101000a81548173ffffffffffffffffffffffffffffffffffffffff021916908373ffffffffffffffffffffffffffffffffffffffff160217905550505033600160006101000a81548173ffffffffffffffffffffffffffffffffffffffff021916908373ffffffffffffffffffffffffffffffffffffffff160217905550600160009054906101000a900473ffffffffffffffffffffffffffffffffffffffff1673ffffffffffffffffffffffffffffffffffffffff16600073ffffffffffffffffffffffffffffffffffffffff167f8be0079c531659141344cd1fd0a4f28419497f9722a3daafe3b4186f6b6457e060405160405180910390a36131c18061013f6000396000f3fe608060405234801561001057600080fd5b50600436106103425760003560e01c80637c7eaf1a116101b8578063ac35ab9211610104578063e8afa8e8116100a2578063f83d08ba1161007c578063f83d08ba14610e8d578063f8a3176c14610e97578063fba58f3414610ee1578063fc0c546a14610eff57610342565b8063e8afa8e814610dbb578063f24ccbfe14610dff578063f2fde38b14610e4957610342565b8063d7f5549d116100de578063d7f5549d14610cfe578063dcd962b214610d40578063e568959a14610d78578063e59ee0c614610d9657610342565b8063ac35ab9214610c66578063cd6b838814610cbe578063cf30901214610cdc57610342565b806391f1a3a5116101715780639ddbbf851161014b5780639ddbbf8514610b6d578063a685487714610ba5578063a69df4b514610c3e578063a8dc889b14610c4857610342565b806391f1a3a514610ae7578063987ab9db14610b055780639a8a624314610b4f57610342565b80637c7eaf1a146109d75780637d669752146109f5578063817b1cd214610a13578063883b455f14610a315780638da5cb5b14610a7b5780638f32d59b14610ac557610342565b8063451b59851161029257806360c8d12211610230578063766718081161020a57806376671808146108f957806377939d101461091757806378f84a44146109355780637b1039991461098d57610342565b806360c8d1221461088f5780637060054d146108d1578063715018a6146108ef57610342565b80635325e1441161026c5780635325e1441461071257806354b8c601146108055780635508d8e1146108275780635aa6e6751461084557610342565b8063451b5985146106b85780634e3c83f1146106d65780634fd101d7146106f457610342565b806325316411116102ff57806334274586116102d9578063342745861461052857806335aa2e44146105465780633862da0b1461064257806341b3d1851461069a57610342565b8063253164111461047757806325726df21461049557806331c2273b146104de57610342565b80630cccfc58146103475780630e15561a146103655780630ebb172a1461038357806317c2b910146103a15780631ae4818f146103bf5780632079fb9a14610409575b600080fd5b61034f610f49565b6040518082815260200191505060405180910390f35b61036d610f4f565b6040518082815260200191505060405180910390f35b61038b610f55565b6040518082815260200191505060405180910390f35b6103a9610f5b565b6040518082815260200191505060405180910390f35b6103c7610f61565b604051808273ffffffffffffffffffffffffffffffffffffffff1673ffffffffffffffffffffffffffffffffffffffff16815260200191505060405180910390f35b6104356004803603602081101561041f57600080fd5b8101908080359060200190929190505050610f87565b604051808273ffffffffffffffffffffffffffffffffffffffff1673ffffffffffffffffffffffffffffffffffffffff16815260200191505060405180910390f35b61047f610fc3565b6040518082815260200191505060405180910390f35b6104c1600480360360208110156104ab57600080fd5b8101908080359060200190929190505050610fc9565b604051808381526020018281526020019250505060405180910390f35b6104e6610fed565b604051808273ffffffffffffffffffffffffffffffffffffffff1673ffffffffffffffffffffffffffffffffffffffff16815260200191505060405180910390f35b610530611013565b6040518082815260200191505060405180910390f35b6105726004803603602081101561055c57600080fd5b8101908080359060200190929190505050611019565b604051808e81526020018d81526020018c81526020018b81526020018a81526020018973ffffffffffffffffffffffffffffffffffffffff1673ffffffffffffffffffffffffffffffffffffffff1681526020018873ffffffffffffffffffffffffffffffffffffffff1673ffffffffffffffffffffffffffffffffffffffff16815260200187600381111561060457fe5b60ff1681526020018681526020018581526020018481526020018381526020018281526020019d505050505050505050505050505060405180910390f35b6106846004803603602081101561065857600080fd5b81019080803573ffffffffffffffffffffffffffffffffffffffff1690602001909291905050506110cc565b6040518082815260200191505060405180910390f35b6106a26110e4565b6040518082815260200191505060405180910390f35b6106c06110ea565b6040518082815260200191505060405180910390f35b6106de6110f0565b6040518082815260200191505060405180910390f35b6106fc6110f6565b6040518082815260200191505060405180910390f35b61073e6004803603602081101561072857600080fd5b81019080803590602001909291905050506110fc565b604051808681526020018581526020018473ffffffffffffffffffffffffffffffffffffffff1673ffffffffffffffffffffffffffffffffffffffff1681526020018315151515815260200180602001828103825283818151815260200191508051906020019080838360005b838110156107c65780820151818401526020810190506107ab565b50505050905090810190601f1680156107f35780820380516001836020036101000a031916815260200191505b50965050505050505060405180910390f35b61080d6111f6565b604051808215151515815260200191505060405180910390f35b61082f611209565b6040518082815260200191505060405180910390f35b61084d61120f565b604051808273ffffffffffffffffffffffffffffffffffffffff1673ffffffffffffffffffffffffffffffffffffffff16815260200191505060405180910390f35b6108cf600480360360608110156108a557600080fd5b81019080803590602001909291908035906020019092919080359060200190929190505050611235565b005b6108d96112ff565b6040518082815260200191505060405180910390f35b6108f7611305565b005b6109016113d7565b6040518082815260200191505060405180910390f35b61091f6113dd565b6040518082815260200191505060405180910390f35b6109776004803603602081101561094b57600080fd5b81019080803573ffffffffffffffffffffffffffffffffffffffff1690602001909291905050506113e3565b6040518082815260200191505060405180910390f35b6109956113fb565b604051808273ffffffffffffffffffffffffffffffffffffffff1673ffffffffffffffffffffffffffffffffffffffff16815260200191505060405180910390f35b6109df611421565b6040518082815260200191505060405180910390f35b6109fd611427565b6040518082815260200191505060405180910390f35b610a1b61142d565b6040518082815260200191505060405180910390f35b610a39611433565b604051808273ffffffffffffffffffffffffffffffffffffffff1673ffffffffffffffffffffffffffffffffffffffff16815260200191505060405180910390f35b610a83611459565b604051808273ffffffffffffffffffffffffffffffffffffffff1673ffffffffffffffffffffffffffffffffffffffff16815260200191505060405180910390f35b610acd611483565b604051808215151515815260200191505060405180910390f35b610aef6114db565b6040518082815260200191505060405180910390f35b610b0d6114e1565b604051808273ffffffffffffffffffffffffffffffffffffffff1673ffffffffffffffffffffffffffffffffffffffff16815260200191505060405180910390f35b610b57611507565b6040518082815260200191505060405180910390f35b610ba360048036036040811015610b8357600080fd5b81019080803590602001909291908035906020019092919050505061150d565b005b610c3c60048036036080811015610bbb57600080fd5b81019080803590602001909291908035906020019092919080351515906020019092919080359060200190640100000000811115610bf857600080fd5b820183602082011115610c0a57600080fd5b80359060200191846001830284011164010000000083111715610c2c57600080fd5b90919293919293905050506117e5565b005b610c466120aa565b005b610c506120bc565b6040518082815260200191505060405180910390f35b610cbc60048036036060811015610c7c57600080fd5b810190808035906020019092919080359060200190929190803573ffffffffffffffffffffffffffffffffffffffff1690602001909291905050506120c2565b005b610cc6612885565b6040518082815260200191505060405180910390f35b610ce461288b565b604051808215151515815260200191505060405180910390f35b610d2a60048036036020811015610d1457600080fd5b810190808035906020019092919050505061289d565b6040518082815260200191505060405180910390f35b610d7660048036036040811015610d5657600080fd5b8101908080359060200190929190803590602001909291905050506128b5565b005b610d80612ab7565b6040518082815260200191505060405180910390f35b610d9e612abd565b604051808381526020018281526020019250505060405180910390f35b610dfd60048036036020811015610dd157600080fd5b81019080803573ffffffffffffffffffffffffffffffffffffffff169060200190929190505050612acf565b005b610e07612bda565b604051808273ffffffffffffffffffffffffffffffffffffffff1673ffffffffffffffffffffffffffffffffffffffff16815260200191505060405180910390f35b610e8b60048036036020811015610e5f57600080fd5b81019080803573ffffffffffffffffffffffffffffffffffffffff169060200190929190505050612c00565b005b610e95612c1d565b005b610e9f612c2f565b604051808273ffffffffffffffffffffffffffffffffffffffff1673ffffffffffffffffffffffffffffffffffffffff16815260200191505060405180910390f35b610ee9612c55565b6040518082815260200191505060405180910390f35b610f07612c5b565b604051808273ffffffffffffffffffffffffffffffffffffffff1673ffffffffffffffffffffffffffffffffffffffff16815260200191505060405180910390f35b60155481565b60135481565b60085481565b60175481565b600760009054906101000a900473ffffffffffffffffffffffffffffffffffffffff1681565b60268181548110610f9457fe5b906000526020600020016000915054906101000a900473ffffffffffffffffffffffffffffffffffffffff1681565b600e5481565b601e6020528060005260406000206000915090508060000154908060010154905082565b600660009054906101000a900473ffffffffffffffffffffffffffffffffffffffff1681565b60165481565b601a6020528060005260406000206000915090508060000154908060010154908060020154908060030154908060040154908060050160009054906101000a900473ffffffffffffffffffffffffffffffffffffffff16908060060160009054906101000a900473ffffffffffffffffffffffffffffffffffffffff16908060060160149054906101000a900460ff169080600701549080600801549080600901549080600a01549080600b015490508d565b601b6020528060005260406000206000915090505481565b600c5481565b60295481565b600f5481565b60105481565b602080528060005260406000206000915090508060000154908060010154908060020160009054906101000a900473ffffffffffffffffffffffffffffffffffffffff16908060020160149054906101000a900460ff1690806003018054600181600116156101000203166002900480601f0160208091040260200160405190810160405280929190818152602001828054600181600116156101000203166002900480156111ec5780601f106111c1576101008083540402835291602001916111ec565b820191906000526020600020905b8154815290600101906020018083116111cf57829003601f168201915b5050505050905085565b601960009054906101000a900460ff1681565b60125481565b600060019054906101000a900473ffffffffffffffffffffffffffffffffffffffff1681565b606461124a8484612c8190919063ffffffff16565b111561125557600080fd5b606481111561126357600080fd5b826028819055508160298190555080602a81905550611280612cbb565b73ffffffffffffffffffffffffffffffffffffffff1663abf158d58484846040518463ffffffff1660e01b8152600401808481526020018381526020018281526020019350505050600060405180830381600087803b1580156112e257600080fd5b505af11580156112f6573d6000803e3d6000fd5b50505050505050565b600a5481565b61130d611483565b61131657600080fd5b600073ffffffffffffffffffffffffffffffffffffffff16600160009054906101000a900473ffffffffffffffffffffffffffffffffffffffff1673ffffffffffffffffffffffffffffffffffffffff167f8be0079c531659141344cd1fd0a4f28419497f9722a3daafe3b4186f6b6457e060405160405180910390a36000600160006101000a81548173ffffffffffffffffffffffffffffffffffffffff021916908373ffffffffffffffffffffffffffffffffffffffff160217905550565b60095481565b60185481565b601f6020528060005260406000206000915090505481565b600460009054906101000a900473ffffffffffffffffffffffffffffffffffffffff1681565b602a5481565b600b5481565b60115481565b602360019054906101000a900473ffffffffffffffffffffffffffffffffffffffff1681565b6000600160009054906101000a900473ffffffffffffffffffffffffffffffffffffffff16905090565b6000600160009054906101000a900473ffffffffffffffffffffffffffffffffffffffff1673ffffffffffffffffffffffffffffffffffffffff163373ffffffffffffffffffffffffffffffffffffffff1614905090565b60275481565b600260009054906101000a900473ffffffffffffffffffffffffffffffffffffffff1681565b60225481565b60008290505b818110156117e0576000601a600083815260200190815260200160002060060160009054906101000a900473ffffffffffffffffffffffffffffffffffffffff169050600073ffffffffffffffffffffffffffffffffffffffff168173ffffffffffffffffffffffffffffffffffffffff16146117735761161e60018273ffffffffffffffffffffffffffffffffffffffff166339c31e936040518163ffffffff1660e01b815260040160206040518083038186803b1580156115d557600080fd5b505afa1580156115e9573d6000803e3d6000fd5b505050506040513d60208110156115ff57600080fd5b8101908080519060200190929190505050612e4690919063ffffffff16565b601a6000848152602001908152602001600020600101819055508073ffffffffffffffffffffffffffffffffffffffff16633a09bf446040518163ffffffff1660e01b815260040160206040518083038186803b15801561167e57600080fd5b505afa158015611692573d6000803e3d6000fd5b505050506040513d60208110156116a857600080fd5b8101908080519060200190929190505050601a6000848152602001908152602001600020600a01819055508073ffffffffffffffffffffffffffffffffffffffff16638ccdd2896040518163ffffffff1660e01b815260040160206040518083038186803b15801561171957600080fd5b505afa15801561172d573d6000803e3d6000fd5b505050506040513d602081101561174357600080fd5b8101908080519060200190929190505050601a6000848152602001908152602001600020600701819055506117b8565b61179d6001601a600085815260200190815260200160002060010154612e4690919063ffffffff16565b601a6000848152602001908152602001600020600101819055505b6001601a60008481526020019081526020016000206009018190555050806001019050611513565b505050565b6000601a60008781526020019081526020016000206000015490506000601a600088815260200190815260200160002060030154148015611827575060008114155b611899576040517f08c379a00000000000000000000000000000000000000000000000000000000081526004018080602001828103825260208152602001807f496e76616c69642076616c696461746f7220666f7220616e2061756374696f6e81525060200191505060405180910390fd5b6000601b60003373ffffffffffffffffffffffffffffffffffffffff1673ffffffffffffffffffffffffffffffffffffffff1681526020019081526020016000205490506000600660009054906101000a900473ffffffffffffffffffffffffffffffffffffffff1673ffffffffffffffffffffffffffffffffffffffff166370a08231336040518263ffffffff1660e01b8152600401808273ffffffffffffffffffffffffffffffffffffffff1673ffffffffffffffffffffffffffffffffffffffff16815260200191505060206040518083038186803b15801561197e57600080fd5b505afa158015611992573d6000803e3d6000fd5b505050506040513d60208110156119a857600080fd5b81019080805190602001909291905050501480156119e657507fffffffffffffffffffffffffffffffffffffffffffffffffffffffffffffffff8114155b611a58576040517f08c379a00000000000000000000000000000000000000000000000000000000081526004018080602001828103825260148152602001807f416c72656164792075736564206164647265737300000000000000000000000081525060200191505060405180910390fd5b60006009549050600060185490506000811480611a755750818111155b611ae7576040517f08c379a000000000000000000000000000000000000000000000000000000000815260040180806020018281038252600f8152602001807f436f6f6c646f776e20706572696f64000000000000000000000000000000000081525060200191505060405180910390fd5b601554611b01601554600a54612e4690919063ffffffff16565b611b2a601a60008d81526020019081526020016000206002015485612e6590919063ffffffff16565b81611b3157fe5b0610611ba5576040517f08c379a00000000000000000000000000000000000000000000000000000000081526004018080602001828103825260168152602001807f496e76616c69642061756374696f6e20706572696f640000000000000000000081525060200191505060405180910390fd5b6000849050611bd3601a60008c8152602001908152602001600020600a015482612e4690919063ffffffff16565b90506000602060008c81526020019081526020016000209050600081600001549050611bff8382612e85565b92508a8310611c76576040517f08c379a000000000000000000000000000000000000000000000000000000000815260040180806020018281038252600f8152602001807f4d7573742062696420686967686572000000000000000000000000000000000081525060200191505060405180910390fd5b600360009054906101000a900473ffffffffffffffffffffffffffffffffffffffff1673ffffffffffffffffffffffffffffffffffffffff166323b872dd33308e6040518463ffffffff1660e01b8152600401808473ffffffffffffffffffffffffffffffffffffffff1673ffffffffffffffffffffffffffffffffffffffff1681526020018373ffffffffffffffffffffffffffffffffffffffff1673ffffffffffffffffffffffffffffffffffffffff1681526020018281526020019350505050602060405180830381600087803b158015611d5357600080fd5b505af1158015611d67573d6000803e3d6000fd5b505050506040513d6020811015611d7d57600080fd5b8101908080519060200190929190505050611e00576040517f08c379a000000000000000000000000000000000000000000000000000000000815260040180806020018281038252600f8152602001807f5472616e73666572206661696c6564000000000000000000000000000000000081525060200191505060405180910390fd5b60008114611f8357600360009054906101000a900473ffffffffffffffffffffffffffffffffffffffff1673ffffffffffffffffffffffffffffffffffffffff1663a9059cbb8360020160009054906101000a900473ffffffffffffffffffffffffffffffffffffffff16836040518363ffffffff1660e01b8152600401808373ffffffffffffffffffffffffffffffffffffffff1673ffffffffffffffffffffffffffffffffffffffff16815260200182815260200192505050602060405180830381600087803b158015611ed557600080fd5b505af1158015611ee9573d6000803e3d6000fd5b505050506040513d6020811015611eff57600080fd5b8101908080519060200190929190505050611f82576040517f08c379a00000000000000000000000000000000000000000000000000000000081526004018080602001828103825260118152602001807f4269642072657475726e206661696c656400000000000000000000000000000081525060200191505060405180910390fd5b5b8a8260000181905550338260020160006101000a81548173ffffffffffffffffffffffffffffffffffffffff021916908373ffffffffffffffffffffffffffffffffffffffff160217905550898260020160146101000a81548160ff0219169083151502179055508888836003019190611ffe929190613079565b50600560009054906101000a900473ffffffffffffffffffffffffffffffffffffffff1673ffffffffffffffffffffffffffffffffffffffff16630934a6df8d898e6040518463ffffffff1660e01b8152600401808481526020018381526020018281526020019350505050600060405180830381600087803b15801561208457600080fd5b505af1158015612098573d6000803e3d6000fd5b50505050505050505050505050505050565b6120b2612e9f565b6120ba612f47565b565b60245481565b600060206000858152602001908152602001600020905060008160020160009054906101000a900473ffffffffffffffffffffffffffffffffffffffff1690508073ffffffffffffffffffffffffffffffffffffffff163373ffffffffffffffffffffffffffffffffffffffff16148061221d575084600660009054906101000a900473ffffffffffffffffffffffffffffffffffffffff1673ffffffffffffffffffffffffffffffffffffffff16632f745c593360006040518363ffffffff1660e01b8152600401808373ffffffffffffffffffffffffffffffffffffffff1673ffffffffffffffffffffffffffffffffffffffff1681526020018281526020019250505060206040518083038186803b1580156121e057600080fd5b505afa1580156121f4573d6000803e3d6000fd5b505050506040513d602081101561220a57600080fd5b8101908080519060200190929190505050145b61228f576040517f08c379a00000000000000000000000000000000000000000000000000000000081526004018080602001828103825260178152602001807f4f6e6c79206269646465722063616e20636f6e6669726d00000000000000000081525060200191505060405180910390fd5b600060095490506015546122b0600a54601554612e4690919063ffffffff16565b6122c7856001015484612e6590919063ffffffff16565b816122ce57fe5b061015612343576040517f08c379a00000000000000000000000000000000000000000000000000000000081526004018080602001828103825260208152602001807f4e6f7420616c6c6f776564206265666f72652061756374696f6e506572696f6481525060200191505060405180910390fd5b600073ffffffffffffffffffffffffffffffffffffffff168360020160009054906101000a900473ffffffffffffffffffffffffffffffffffffffff1673ffffffffffffffffffffffffffffffffffffffff16141561240a576040517f08c379a000000000000000000000000000000000000000000000000000000000815260040180806020018281038252600f8152602001807f496e76616c69642061756374696f6e000000000000000000000000000000000081525060200191505060405180910390fd5b6000601a6000888152602001908152602001600020600001549050600081905060008560000154905061245c601a60008b8152602001908152602001600020600a015483612e4690919063ffffffff16565b915080821015801561248457506000601a60008b815260200190815260200160002060030154145b1561268a57600360009054906101000a900473ffffffffffffffffffffffffffffffffffffffff1673ffffffffffffffffffffffffffffffffffffffff1663a9059cbb86836040518363ffffffff1660e01b8152600401808373ffffffffffffffffffffffffffffffffffffffff1673ffffffffffffffffffffffffffffffffffffffff16815260200182815260200192505050602060405180830381600087803b15801561253257600080fd5b505af1158015612546573d6000803e3d6000fd5b505050506040513d602081101561255c57600080fd5b81019080805190602001909291905050506125df576040517f08c379a00000000000000000000000000000000000000000000000000000000081526004018080602001828103825260118152602001807f4269642072657475726e206661696c656400000000000000000000000000000081525060200191505060405180910390fd5b838660010181905550600560009054906101000a900473ffffffffffffffffffffffffffffffffffffffff1673ffffffffffffffffffffffffffffffffffffffff1663e12ab1af8a8b866040518463ffffffff1660e01b8152600401808481526020018381526020018281526020019350505050600060405180830381600087803b15801561266d57600080fd5b505af1158015612681573d6000803e3d6000fd5b505050506127e4565b8673ffffffffffffffffffffffffffffffffffffffff166352b8115d868a8c858b60020160149054906101000a900460ff168c6003016040518763ffffffff1660e01b8152600401808773ffffffffffffffffffffffffffffffffffffffff1673ffffffffffffffffffffffffffffffffffffffff16815260200186815260200185815260200184815260200183151515158152602001806020018281038252838181546001816001161561010002031660029004815260200191508054600181600116156101000203166002900480156127a65780601f1061277b576101008083540402835291602001916127a6565b820191906000526020600020905b81548152906001019060200180831161278957829003601f168201915b5050975050505050505050600060405180830381600087803b1580156127cb57600080fd5b505af11580156127df573d6000803e3d6000fd5b505050505b600086600101549050602060008b815260200190815260200160002060008082016000905560018201600090556002820160006101000a81549073ffffffffffffffffffffffffffffffffffffffff02191690556002820160146101000a81549060ff021916905560038201600061285c91906130f9565b505080602060008c81526020019081526020016000206001018190555050505050505050505050565b60145481565b6000809054906101000a900460ff1681565b60216020528060005260406000206000915090505481565b600060095490506000601a6000858152602001908152602001600020600801549050816128ed60085483612e4690919063ffffffff16565b1115806128fa5750600081145b61296c576040517f08c379a00000000000000000000000000000000000000000000000000000000081526004018080602001828103825260088152602001807f436f6f6c646f776e00000000000000000000000000000000000000000000000081525060200191505060405180910390fd5b60648311156129e3576040517f08c379a000000000000000000000000000000000000000000000000000000000815260040180806020018281038252600f8152602001807f496e636f72726563742076616c7565000000000000000000000000000000000081525060200191505060405180910390fd5b6129eb612cbb565b73ffffffffffffffffffffffffffffffffffffffff1663c98cc0028585601a6000898152602001908152602001600020600701546040518463ffffffff1660e01b8152600401808481526020018381526020018281526020019350505050600060405180830381600087803b158015612a6357600080fd5b505af1158015612a77573d6000803e3d6000fd5b5050505082601a60008681526020019081526020016000206007018190555081601a60008681526020019081526020016000206008018190555050505050565b60285481565b601c8060000154908060010154905082565b612ad7611483565b612ae057600080fd5b600073ffffffffffffffffffffffffffffffffffffffff168173ffffffffffffffffffffffffffffffffffffffff161415612b1a57600080fd5b8073ffffffffffffffffffffffffffffffffffffffff16600260009054906101000a900473ffffffffffffffffffffffffffffffffffffffff1673ffffffffffffffffffffffffffffffffffffffff167f211c9015fc81c0dbd45bd99f0f29fc1c143bfd53442d5ffd722bbbef7a887fe960405160405180910390a380600260006101000a81548173ffffffffffffffffffffffffffffffffffffffff021916908373ffffffffffffffffffffffffffffffffffffffff16021790555050565b600560009054906101000a900473ffffffffffffffffffffffffffffffffffffffff1681565b612c08611483565b612c1157600080fd5b612c1a81612f63565b50565b612c25612e9f565b612c2d61305d565b565b602560009054906101000a900473ffffffffffffffffffffffffffffffffffffffff1681565b600d5481565b600360009054906101000a900473ffffffffffffffffffffffffffffffffffffffff1681565b600080831415612c945760009050612cb5565b6000828402905082848281612ca557fe5b0414612cb057600080fd5b809150505b92915050565b600080602360019054906101000a900473ffffffffffffffffffffffffffffffffffffffff169050600073ffffffffffffffffffffffffffffffffffffffff168173ffffffffffffffffffffffffffffffffffffffff161415612e3f57600460009054906101000a900473ffffffffffffffffffffffffffffffffffffffff1673ffffffffffffffffffffffffffffffffffffffff1663cac39a0560405180807f6576656e74734875620000000000000000000000000000000000000000000000815250600901905060405180910390206040518263ffffffff1660e01b81526004018082815260200191505060206040518083038186803b158015612dc057600080fd5b505afa158015612dd4573d6000803e3d6000fd5b505050506040513d6020811015612dea57600080fd5b8101908080519060200190929190505050905080602360016101000a81548173ffffffffffffffffffffffffffffffffffffffff021916908373ffffffffffffffffffffffffffffffffffffffff1602179055505b8091505090565b600080828401905083811015612e5b57600080fd5b8091505092915050565b600082821115612e7457600080fd5b600082840390508091505092915050565b600081831015612e955781612e97565b825b905092915050565b600060019054906101000a900473ffffffffffffffffffffffffffffffffffffffff1673ffffffffffffffffffffffffffffffffffffffff163373ffffffffffffffffffffffffffffffffffffffff1614612f45576040517f08c379a00000000000000000000000000000000000000000000000000000000081526004018080602001828103825260268152602001806131676026913960400191505060405180910390fd5b565b60008060006101000a81548160ff021916908315150217905550565b600073ffffffffffffffffffffffffffffffffffffffff168173ffffffffffffffffffffffffffffffffffffffff161415612f9d57600080fd5b8073ffffffffffffffffffffffffffffffffffffffff16600160009054906101000a900473ffffffffffffffffffffffffffffffffffffffff1673ffffffffffffffffffffffffffffffffffffffff167f8be0079c531659141344cd1fd0a4f28419497f9722a3daafe3b4186f6b6457e060405160405180910390a380600160006101000a81548173ffffffffffffffffffffffffffffffffffffffff021916908373ffffffffffffffffffffffffffffffffffffffff16021790555050565b60016000806101000a81548160ff021916908315150217905550565b828054600181600116156101000203166002900490600052602060002090601f016020900481019282601f106130ba57803560ff19168380011785556130e8565b828001600101855582156130e8579182015b828111156130e75782358255916020019190600101906130cc565b5b5090506130f59190613141565b5090565b50805460018160011615610100020316600290046000825580601f1061311f575061313e565b601f01602090049060005260206000209081019061313d9190613141565b5b50565b61316391905b8082111561315f576000816000905550600101613147565b5090565b9056fe4f6e6c7920676f7665726e616e636520636f6e747261637420697320617574686f72697a6564a265627a7a72315820a7f922ca937ab9814aebe10c589d9eaf460fe87d45e85f61d3b27d3b8a9fecae64736f6c63430005110032",
  "linkReferences": {},
  "deployedLinkReferences": {}
}