{
  "_format": "hh-sol-artifact-1",
  "contractName": "MarketplacePredicateTest",
  "sourceName": "contracts/test/MarketplacePredicateTest.sol",
  "abi": [
    {
      "inputs": [],
      "payable": false,
      "stateMutability": "nonpayable",
      "type": "constructor"
    },
    {
      "constant": true,
      "inputs": [],
      "name": "CHAINID",
      "outputs": [
        {
          "internalType": "uint256",
          "name": "",
          "type": "uint256"
        }
      ],
      "payable": false,
      "stateMutability": "view",
      "type": "function"
    },
    {
      "constant": true,
      "inputs": [],
      "name": "networkId",
      "outputs": [
        {
          "internalType": "bytes",
          "name": "",
          "type": "bytes"
        }
      ],
      "payable": false,
      "stateMutability": "view",
      "type": "function"
    },
    {
      "constant": false,
      "inputs": [
        {
          "internalType": "bytes",
          "name": "data",
          "type": "bytes"
        }
      ],
      "name": "onFinalizeExit",
      "outputs": [],
      "payable": false,
      "stateMutability": "nonpayable",
      "type": "function"
    },
    {
      "constant": true,
      "inputs": [
        {
          "internalType": "bytes",
          "name": "exitTx",
          "type": "bytes"
        }
      ],
      "name": "processExitTx",
      "outputs": [
        {
          "internalType": "bytes",
          "name": "b",
          "type": "bytes"
        }
      ],
      "payable": false,
      "stateMutability": "view",
      "type": "function"
    },
    {
      "constant": true,
      "inputs": [
        {
          "internalType": "address",
          "name": "predicate",
          "type": "address"
        },
        {
          "internalType": "bytes",
          "name": "data",
          "type": "bytes"
        },
        {
          "internalType": "address",
          "name": "participant",
          "type": "address"
        }
      ],
      "name": "processLogTransferReceiptTest",
      "outputs": [
        {
          "internalType": "bytes",
          "name": "b",
          "type": "bytes"
        }
      ],
      "payable": false,
      "stateMutability": "view",
      "type": "function"
    },
    {
      "constant": true,
      "inputs": [],
      "name": "registry",
      "outputs": [
        {
          "internalType": "contract Registry",
          "name": "",
          "type": "address"
        }
      ],
      "payable": false,
      "stateMutability": "view",
      "type": "function"
    },
    {
      "constant": true,
      "inputs": [],
      "name": "rootChain",
      "outputs": [
        {
          "internalType": "contract IRootChain",
          "name": "",
          "type": "address"
        }
      ],
      "payable": false,
      "stateMutability": "view",
      "type": "function"
    },
    {
      "constant": false,
      "inputs": [
        {
          "internalType": "bytes",
          "name": "data",
          "type": "bytes"
        },
        {
          "internalType": "bytes",
          "name": "exitTx",
          "type": "bytes"
        }
      ],
      "name": "startExit",
      "outputs": [],
      "payable": true,
      "stateMutability": "payable",
      "type": "function"
    },
    {
      "constant": true,
      "inputs": [
        {
          "internalType": "bytes",
          "name": "exitTx",
          "type": "bytes"
        }
      ],
      "name": "testGetAddressFromTx",
      "outputs": [
        {
          "internalType": "address",
          "name": "signer",
          "type": "address"
        },
        {
          "internalType": "bytes32",
          "name": "txHash",
          "type": "bytes32"
        }
      ],
      "payable": false,
      "stateMutability": "pure",
      "type": "function"
    },
    {
      "constant": true,
      "inputs": [
        {
          "internalType": "bytes",
          "name": "exit",
          "type": "bytes"
        },
        {
          "internalType": "bytes",
          "name": "inputUtxo",
          "type": "bytes"
        },
        {
          "internalType": "bytes",
          "name": "challengeData",
          "type": "bytes"
        }
      ],
      "name": "verifyDeprecation",
      "outputs": [
        {
          "internalType": "bool",
          "name": "",
          "type": "bool"
        }
      ],
      "payable": false,
      "stateMutability": "view",
      "type": "function"
    }
  ],
  "bytecode": "0x608060405234801561001057600080fd5b506000806000816000806101000a81548173ffffffffffffffffffffffffffffffffffffffff021916908373ffffffffffffffffffffffffffffffffffffffff16021790555082600360006101000a81548173ffffffffffffffffffffffffffffffffffffffff021916908373ffffffffffffffffffffffffffffffffffffffff16021790555080600260006101000a81548173ffffffffffffffffffffffffffffffffffffffff021916908373ffffffffffffffffffffffffffffffffffffffff160217905550505050614628806100ea6000396000f3fe6080604052600436106100915760003560e01c8063987ab9db11610059578063987ab9db146103e0578063cc79f97b14610437578063dc989e0014610462578063ec58410c146105a3578063ef472d69146106eb57610091565b806328b4b53d146100965780633abb8086146101645780637b103999146102735780637bd94e03146102ca5780639025e64c14610350575b600080fd5b610162600480360360408110156100ac57600080fd5b81019080803590602001906401000000008111156100c957600080fd5b8201836020820111156100db57600080fd5b803590602001918460018302840111640100000000831117156100fd57600080fd5b90919293919293908035906020019064010000000081111561011e57600080fd5b82018360208201111561013057600080fd5b8035906020019184600183028401116401000000008311171561015257600080fd5b909192939192939050505061086c565b005b34801561017057600080fd5b5061022a6004803603602081101561018757600080fd5b81019080803590602001906401000000008111156101a457600080fd5b8201836020820111156101b657600080fd5b803590602001918460018302840111640100000000831117156101d857600080fd5b91908080601f016020809104026020016040519081016040528093929190818152602001838380828437600081840152601f19601f820116905080830192505050505050509192919290505050611849565b604051808373ffffffffffffffffffffffffffffffffffffffff1673ffffffffffffffffffffffffffffffffffffffff1681526020018281526020019250505060405180910390f35b34801561027f57600080fd5b50610288611878565b604051808273ffffffffffffffffffffffffffffffffffffffff1673ffffffffffffffffffffffffffffffffffffffff16815260200191505060405180910390f35b3480156102d657600080fd5b5061034e600480360360208110156102ed57600080fd5b810190808035906020019064010000000081111561030a57600080fd5b82018360208201111561031c57600080fd5b8035906020019184600183028401116401000000008311171561033e57600080fd5b909192939192939050505061189e565b005b34801561035c57600080fd5b50610365611ab5565b6040518080602001828103825283818151815260200191508051906020019080838360005b838110156103a557808201518184015260208101905061038a565b50505050905090810190601f1680156103d25780820380516001836020036101000a031916815260200191505b509250505060405180910390f35b3480156103ec57600080fd5b506103f5611aee565b604051808273ffffffffffffffffffffffffffffffffffffffff1673ffffffffffffffffffffffffffffffffffffffff16815260200191505060405180910390f35b34801561044357600080fd5b5061044c611b14565b6040518082815260200191505060405180910390f35b34801561046e57600080fd5b506105286004803603602081101561048557600080fd5b81019080803590602001906401000000008111156104a257600080fd5b8201836020820111156104b457600080fd5b803590602001918460018302840111640100000000831117156104d657600080fd5b91908080601f016020809104026020016040519081016040528093929190818152602001838380828437600081840152601f19601f820116905080830192505050505050509192919290505050611b1b565b6040518080602001828103825283818151815260200191508051906020019080838360005b8381101561056857808201518184015260208101905061054d565b50505050905090810190601f1680156105955780820380516001836020036101000a031916815260200191505b509250505060405180910390f35b3480156105af57600080fd5b506106d1600480360360608110156105c657600080fd5b81019080803590602001906401000000008111156105e357600080fd5b8201836020820111156105f557600080fd5b8035906020019184600183028401116401000000008311171561061757600080fd5b90919293919293908035906020019064010000000081111561063857600080fd5b82018360208201111561064a57600080fd5b8035906020019184600183028401116401000000008311171561066c57600080fd5b90919293919293908035906020019064010000000081111561068d57600080fd5b82018360208201111561069f57600080fd5b803590602001918460018302840111640100000000831117156106c157600080fd5b9091929391929390505050611c11565b604051808215151515815260200191505060405180910390f35b3480156106f757600080fd5b506107f16004803603606081101561070e57600080fd5b81019080803573ffffffffffffffffffffffffffffffffffffffff1690602001909291908035906020019064010000000081111561074b57600080fd5b82018360208201111561075d57600080fd5b8035906020019184600183028401116401000000008311171561077f57600080fd5b91908080601f016020809104026020016040519081016040528093929190818152602001838380828437600081840152601f19601f820116905080830192505050505050509192919290803573ffffffffffffffffffffffffffffffffffffffff169060200190929190505050612115565b6040518080602001828103825283818151815260200191508051906020019080838360005b83811015610831578082015181840152602081019050610816565b50505050905090810190601f16801561085e5780820380516001836020036101000a031916815260200191505b509250505060405180910390f35b67016345785d8a000034146108e9576040517f08c379a00000000000000000000000000000000000000000000000000000000081526004018080602001828103825260138152602001807f496e76616c696420426f6e6420616d6f756e740000000000000000000000000081525060200191505060405180910390fd5b606061094061093b86868080601f016020809104026020016040519081016040528093929190818152602001838380828437600081840152601f19601f820116905080830192505050505050506121d9565b612207565b9050600060606109638360008151811061095657fe5b60200260200101516122e4565b806020019051604081101561097757600080fd5b8101908080519060200190929190805160405193929190846401000000008211156109a157600080fd5b838201915060208201858111156109b757600080fd5b82518660018202830111640100000000821117156109d457600080fd5b8083526020830192505050908051906020019080838360005b83811015610a085780820151818401526020810190506109ed565b50505050905090810190601f168015610a355780820380516001836020036101000a031916815260200191505b50604052505050915091506000600260009054906101000a900473ffffffffffffffffffffffffffffffffffffffff1673ffffffffffffffffffffffffffffffffffffffff166337b1d585846040518263ffffffff1660e01b8152600401808273ffffffffffffffffffffffffffffffffffffffff1673ffffffffffffffffffffffffffffffffffffffff16815260200191505060206040518083038186803b158015610ae157600080fd5b505afa158015610af5573d6000803e3d6000fd5b505050506040513d6020811015610b0b57600080fd5b81019080805190602001909291905050506003811115610b2757fe5b60ff161415610b9e576040517f08c379a00000000000000000000000000000000000000000000000000000000081526004018080602001828103825260158152602001807f4e6f7420612076616c696420707265646963617465000000000000000000000081525060200191505060405180910390fd5b610ba66141df565b610bf486868080601f016020809104026020016040519081016040528093929190818152602001838380828437600081840152601f19601f820116905080830192505050505050503361235e565b9050600360009054906101000a900473ffffffffffffffffffffffffffffffffffffffff1673ffffffffffffffffffffffffffffffffffffffff1663b87e1b666040518163ffffffff1660e01b815260040160206040518083038186803b158015610c5e57600080fd5b505afa158015610c72573d6000803e3d6000fd5b505050506040513d6020811015610c8857600080fd5b81019080805190602001909291905050508160c0015111610cf4576040517f08c379a00000000000000000000000000000000000000000000000000000000081526004018080602001828103825260498152602001806145636049913960600191505060405180910390fd5b610cfc614261565b610d0b8484336001600061252b565b9050610d298160400151836040015183600001518560000151612886565b610d4685600181518110610d3957fe5b60200260200101516122e4565b8060200190516040811015610d5a57600080fd5b810190808051906020019092919080516040519392919084640100000000821115610d8457600080fd5b83820191506020820185811115610d9a57600080fd5b8251866001820283011164010000000082111715610db757600080fd5b8083526020830192505050908051906020019080838360005b83811015610deb578082015181840152602081019050610dd0565b50505050905090810190601f168015610e185780820380516001836020036101000a031916815260200191505b5060405250505081915080905080945081955050506000600260009054906101000a900473ffffffffffffffffffffffffffffffffffffffff1673ffffffffffffffffffffffffffffffffffffffff166337b1d585866040518263ffffffff1660e01b8152600401808273ffffffffffffffffffffffffffffffffffffffff1673ffffffffffffffffffffffffffffffffffffffff16815260200191505060206040518083038186803b158015610ece57600080fd5b505afa158015610ee2573d6000803e3d6000fd5b505050506040513d6020811015610ef857600080fd5b81019080805190602001909291905050506003811115610f1457fe5b60ff161415610f8b576040517f08c379a00000000000000000000000000000000000000000000000000000000081526004018080602001828103825260158152602001807f4e6f7420612076616c696420707265646963617465000000000000000000000081525060200191505060405180910390fd5b610f93614261565b610fa6858585608001516001600061252b565b9050610fc48160400151846060015183600001518660200151612886565b6000610fe687600189510381518110610fd957fe5b6020026020010151612ac3565b9050610ff0614261565b6004885114156111b9576110178860038151811061100a57fe5b60200260200101516122e4565b806020019051604081101561102b57600080fd5b81019080805190602001909291908051604051939291908464010000000082111561105557600080fd5b8382019150602082018581111561106b57600080fd5b825186600182028301116401000000008211171561108857600080fd5b8083526020830192505050908051906020019080838360005b838110156110bc5780820151818401526020810190506110a1565b50505050905090810190601f1680156110e95780820380516001836020036101000a031916815260200191505b50604052505050819150809050809750819850505061110d8787336001600061252b565b9050806040015173ffffffffffffffffffffffffffffffffffffffff16836040015173ffffffffffffffffffffffffffffffffffffffff16146111b8576040517f08c379a00000000000000000000000000000000000000000000000000000000081526004018080602001828103825260188152602001807f4368696c6420746f6b656e20646f65736e74206d61746368000000000000000081525060200191505060405180910390fd5b5b6111c1612b1d565b600060016111e46111da87602001518760200151612b8f565b8460200151612b8f565b901b9050846040015173ffffffffffffffffffffffffffffffffffffffff168373ffffffffffffffffffffffffffffffffffffffff16141561138c576000809054906101000a900473ffffffffffffffffffffffffffffffffffffffff1673ffffffffffffffffffffffffffffffffffffffff1663d931a8693385886060015161127f8b600001518b60000151612ba990919063ffffffff16565b8b60a001516000886040518863ffffffff1660e01b8152600401808873ffffffffffffffffffffffffffffffffffffffff1673ffffffffffffffffffffffffffffffffffffffff1681526020018773ffffffffffffffffffffffffffffffffffffffff1673ffffffffffffffffffffffffffffffffffffffff1681526020018673ffffffffffffffffffffffffffffffffffffffff1673ffffffffffffffffffffffffffffffffffffffff16815260200185815260200184815260200183151515158152602001828152602001975050505050505050600060405180830381600087803b15801561136f57600080fd5b505af1158015611383573d6000803e3d6000fd5b5050505061152d565b836040015173ffffffffffffffffffffffffffffffffffffffff168373ffffffffffffffffffffffffffffffffffffffff16141561152c576000809054906101000a900473ffffffffffffffffffffffffffffffffffffffff1673ffffffffffffffffffffffffffffffffffffffff1663d931a8693385876060015161142387600001518c60200151612bc990919063ffffffff16565b8b60a001516000886040518863ffffffff1660e01b8152600401808873ffffffffffffffffffffffffffffffffffffffff1673ffffffffffffffffffffffffffffffffffffffff1681526020018773ffffffffffffffffffffffffffffffffffffffff1673ffffffffffffffffffffffffffffffffffffffff1681526020018673ffffffffffffffffffffffffffffffffffffffff1673ffffffffffffffffffffffffffffffffffffffff16815260200185815260200184815260200183151515158152602001828152602001975050505050505050600060405180830381600087803b15801561151357600080fd5b505af1158015611527573d6000803e3d6000fd5b505050505b5b6000809054906101000a900473ffffffffffffffffffffffffffffffffffffffff1673ffffffffffffffffffffffffffffffffffffffff166322f192af8287602001513389606001516040518563ffffffff1660e01b8152600401808581526020018481526020018373ffffffffffffffffffffffffffffffffffffffff1673ffffffffffffffffffffffffffffffffffffffff1681526020018273ffffffffffffffffffffffffffffffffffffffff1673ffffffffffffffffffffffffffffffffffffffff168152602001945050505050600060405180830381600087803b15801561161957600080fd5b505af115801561162d573d6000803e3d6000fd5b505050506000809054906101000a900473ffffffffffffffffffffffffffffffffffffffff1673ffffffffffffffffffffffffffffffffffffffff166322f192af828660200151896080015188606001516040518563ffffffff1660e01b8152600401808581526020018481526020018373ffffffffffffffffffffffffffffffffffffffff1673ffffffffffffffffffffffffffffffffffffffff1681526020018273ffffffffffffffffffffffffffffffffffffffff1673ffffffffffffffffffffffffffffffffffffffff168152602001945050505050600060405180830381600087803b15801561172157600080fd5b505af1158015611735573d6000803e3d6000fd5b505050506000809054906101000a900473ffffffffffffffffffffffffffffffffffffffff1673ffffffffffffffffffffffffffffffffffffffff166322f192af8260003386606001516040518563ffffffff1660e01b8152600401808581526020018481526020018373ffffffffffffffffffffffffffffffffffffffff1673ffffffffffffffffffffffffffffffffffffffff1681526020018273ffffffffffffffffffffffffffffffffffffffff1673ffffffffffffffffffffffffffffffffffffffff168152602001945050505050600060405180830381600087803b15801561182257600080fd5b505af1158015611836573d6000803e3d6000fd5b5050505050505050505050505050505050565b600080606061185f61185a856121d9565b612207565b905061186a81612be8565b809350819450505050915091565b600260009054906101000a900473ffffffffffffffffffffffffffffffffffffffff1681565b6000809054906101000a900473ffffffffffffffffffffffffffffffffffffffff1673ffffffffffffffffffffffffffffffffffffffff163373ffffffffffffffffffffffffffffffffffffffff1614611960576040517f08c379a00000000000000000000000000000000000000000000000000000000081526004018080602001828103825260158152602001807f4f4e4c595f57495448445241575f4d414e41474552000000000000000000000081525060200191505060405180910390fd5b60008060006119b285858080601f016020809104026020016040519081016040528093929190818152602001838380828437600081840152601f19601f82011690508083019250505050505050613017565b93509350935050600160009054906101000a900473ffffffffffffffffffffffffffffffffffffffff1673ffffffffffffffffffffffffffffffffffffffff166349f4cc178484846040518463ffffffff1660e01b8152600401808473ffffffffffffffffffffffffffffffffffffffff1673ffffffffffffffffffffffffffffffffffffffff1681526020018373ffffffffffffffffffffffffffffffffffffffff1673ffffffffffffffffffffffffffffffffffffffff1681526020018281526020019350505050600060405180830381600087803b158015611a9657600080fd5b505af1158015611aaa573d6000803e3d6000fd5b505050505050505050565b6040518060400160405280600381526020017f013881000000000000000000000000000000000000000000000000000000000081525081565b600360009054906101000a900473ffffffffffffffffffffffffffffffffffffffff1681565b6201388181565b6060611b256141df565b611b2f833361235e565b905080600001518160200151826040015183606001518460800151604051602001808681526020018581526020018473ffffffffffffffffffffffffffffffffffffffff1673ffffffffffffffffffffffffffffffffffffffff1681526020018373ffffffffffffffffffffffffffffffffffffffff1673ffffffffffffffffffffffffffffffffffffffff1681526020018273ffffffffffffffffffffffffffffffffffffffff1673ffffffffffffffffffffffffffffffffffffffff16815260200195505050505050604051602081830303815290604052915050919050565b6000611c1b6142b5565b611c6888888080601f016020809104026020016040519081016040528093929190818152602001838380828437600081840152601f19601f8201169050808301925050505050505061307e565b9050600080600080611cbd8a8a8080601f016020809104026020016040519081016040528093929190818152602001838380828437600081840152601f19601f82011690508083019250505050505050613164565b93509350935093506060611d1c611d178a8a8080601f016020809104026020016040519081016040528093929190818152602001838380828437600081840152601f19601f820116905080830192505050505050506121d9565b612207565b9050611d266141df565b611d4c611d4683600a81518110611d3957fe5b60200260200101516122e4565b8661235e565b9050611d56614261565b611da8858c8c8080601f016020809104026020016040519081016040528093929190818152602001838380828437600081840152601f19601f820116905080830192505050505050508860018061252b565b905060026003811115611db757fe5b600260009054906101000a900473ffffffffffffffffffffffffffffffffffffffff1673ffffffffffffffffffffffffffffffffffffffff166337b1d585876040518263ffffffff1660e01b8152600401808273ffffffffffffffffffffffffffffffffffffffff1673ffffffffffffffffffffffffffffffffffffffff16815260200191505060206040518083038186803b158015611e5657600080fd5b505afa158015611e6a573d6000803e3d6000fd5b505050506040513d6020811015611e8057600080fd5b81019080805190602001909291905050506003811115611e9c57fe5b1415611f165787600001518160000151148015611ec0575087600001518260000151145b611f15576040517f08c379a00000000000000000000000000000000000000000000000000000000081526004018080602001828103825260488152602001806145ac6048913960600191505060405180910390fd5b5b8160c00151611f2882602001516131ce565b1115611f7f576040517f08c379a00000000000000000000000000000000000000000000000000000000081526004018080602001828103825260368152602001806144e16036913960400191505060405180910390fd5b8373ffffffffffffffffffffffffffffffffffffffff16816040015173ffffffffffffffffffffffffffffffffffffffff16148015611fed57508373ffffffffffffffffffffffffffffffffffffffff16826040015173ffffffffffffffffffffffffffffffffffffffff16145b612042576040517f08c379a000000000000000000000000000000000000000000000000000000000815260040180806020018281038252604c815260200180614517604c913960600191505060405180910390fd5b87602001518260a0015114156120a3576040517f08c379a00000000000000000000000000000000000000000000000000000000081526004018080602001828103825260218152602001806144606021913960400191505060405180910390fd5b868160200151116120ff576040517f08c379a000000000000000000000000000000000000000000000000000000000815260040180806020018281038252605681526020018061440a6056913960600191505060405180910390fd5b6001985050505050505050509695505050505050565b606061211f614261565b61212d85858560008061252b565b90508060000151816020015182604001518360600151604051602001808581526020018481526020018373ffffffffffffffffffffffffffffffffffffffff1673ffffffffffffffffffffffffffffffffffffffff1681526020018273ffffffffffffffffffffffffffffffffffffffff1673ffffffffffffffffffffffffffffffffffffffff1681526020019450505050506040516020818303038152906040529150509392505050565b6121e1614332565b600060208301905060405180604001604052808451815260200182815250915050919050565b6060612212826131e0565b61221b57600080fd5b60006122268361322e565b905060608160405190808252806020026020018201604052801561226457816020015b61225161434c565b8152602001906001900390816122495790505b5090506000612276856020015161329f565b8560200151019050600080600090505b848110156122d75761229783613328565b91506040518060400160405280838152602001848152508482815181106122ba57fe5b602002602001018190525081830192508080600101915050612286565b5082945050505050919050565b606060008260000151116122f757600080fd5b600080612303846133e0565b915091506060816040519080825280601f01601f19166020018201604052801561233c5781602001600182028038833980820191505090505b5090506000816020019050612352848285613418565b81945050505050919050565b6123666141df565b6060612379612374856121d9565b612207565b905060098151146123f2576040517f08c379a00000000000000000000000000000000000000000000000000000000081526004018080602001828103825260158152602001807f4d414c464f524d45445f57495448445241575f5458000000000000000000000081525060200191505060405180910390fd5b60006124118260038151811061240457fe5b6020026020010151613489565b9050600061241d614366565b61244261243d8560058151811061243057fe5b60200260200101516122e4565b6134ac565b9150915063e660b9e460e01b7bffffffffffffffffffffffffffffffffffffffffffffffffffffffff1916827bffffffffffffffffffffffffffffffffffffffffffffffffffffffff191614612500576040517f08c379a000000000000000000000000000000000000000000000000000000000815260040180806020018281038252601c8152602001807f4e6f7420657865637574654f72646572207472616e73616374696f6e0000000081525060200191505060405180910390fd5b61250b81848861358e565b945061251684612be8565b90508560a00181815250505050505092915050565b612533614261565b60608673ffffffffffffffffffffffffffffffffffffffff166382e3464c8787878760405160200180806020018573ffffffffffffffffffffffffffffffffffffffff1673ffffffffffffffffffffffffffffffffffffffff1681526020018415151515815260200183151515158152602001828103825286818151815260200191508051906020019080838360005b838110156125de5780820151818401526020810190506125c3565b50505050905090810190601f16801561260b5780820380516001836020036101000a031916815260200191505b50955050505050506040516020818303038152906040526040518263ffffffff1660e01b81526004018080602001828103825283818151815260200191508051906020019080838360005b83811015612671578082015181840152602081019050612656565b50505050905090810190601f16801561269e5780820380516001836020036101000a031916815260200191505b509250505060006040518083038186803b1580156126bb57600080fd5b505afa1580156126cf573d6000803e3d6000fd5b505050506040513d6000823e3d601f19601f8201168201806040525060208110156126f957600080fd5b810190808051604051939291908464010000000082111561271957600080fd5b8382019150602082018581111561272f57600080fd5b825186600182028301116401000000008211171561274c57600080fd5b8083526020830192505050908051906020019080838360005b83811015612780578082015181840152602081019050612765565b50505050905090810190601f1680156127ad5780820380516001836020036101000a031916815260200191505b5060405250505090508080602001905160808110156127cb57600080fd5b8101908080519060200190929190805190602001909291908051906020019092919080519060200190929190505050819150809050856000018660200187604001886060018473ffffffffffffffffffffffffffffffffffffffff1673ffffffffffffffffffffffffffffffffffffffff168152508473ffffffffffffffffffffffffffffffffffffffff1673ffffffffffffffffffffffffffffffffffffffff168152508481525084815250505050505095945050505050565b8273ffffffffffffffffffffffffffffffffffffffff168473ffffffffffffffffffffffffffffffffffffffff1614612927576040517f08c379a00000000000000000000000000000000000000000000000000000000081526004018080602001828103825260198152602001807f4368696c6420746f6b656e7320646f206e6f74206d617463680000000000000081525060200191505060405180910390fd5b600260009054906101000a900473ffffffffffffffffffffffffffffffffffffffff1673ffffffffffffffffffffffffffffffffffffffff1663bbfe7cd3856040518263ffffffff1660e01b8152600401808273ffffffffffffffffffffffffffffffffffffffff1673ffffffffffffffffffffffffffffffffffffffff16815260200191505060206040518083038186803b1580156129c657600080fd5b505afa1580156129da573d6000803e3d6000fd5b505050506040513d60208110156129f057600080fd5b810190808051906020019092919050505015612a6357808214612a5e576040517f08c379a00000000000000000000000000000000000000000000000000000000081526004018080602001828103825260248152602001806143e66024913960400191505060405180910390fd5b612abd565b80821015612abc576040517f08c379a00000000000000000000000000000000000000000000000000000000081526004018080602001828103825260288152602001806144816028913960400191505060405180910390fd5b5b50505050565b6000808260000151118015612add57506021826000015111155b612ae657600080fd5b600080612af2846133e0565b915091506000825190506020821015612b1257816020036101000a810490505b809350505050919050565b6000809054906101000a900473ffffffffffffffffffffffffffffffffffffffff1673ffffffffffffffffffffffffffffffffffffffff166108fc67016345785d8a00009081150290604051600060405180830381858888f19350505050158015612b8c573d6000803e3d6000fd5b50565b600081831015612b9f5781612ba1565b825b905092915050565b600082821115612bb857600080fd5b600082840390508091505092915050565b600080828401905083811015612bde57600080fd5b8091505092915050565b60008060606009604051908082528060200260200182016040528015612c2257816020015b6060815260200190600190039081612c0d5790505b50905060008090505b60058160ff1611612c7c57612c55858260ff1681518110612c4857fe5b60200260200101516122e4565b828260ff1681518110612c6457fe5b60200260200101819052508080600101915050612c2b565b506040518060400160405280600381526020017f013881000000000000000000000000000000000000000000000000000000000081525081600681518110612cc057fe5b60200260200101819052506040518060200160405280600081525081600781518110612ce857fe5b60200260200101819052506040518060200160405280600081525081600881518110612d1057fe5b6020026020010181905250612d2481613b81565b80519060200120915060018273__$d57268b4e4abe976846916e1669260f8d8$__63b40b539b612d6788600681518110612d5a57fe5b60200260200101516122e4565b73__$d57268b4e4abe976846916e1669260f8d8$__634d66a2ae6040518060400160405280600381526020017f01388100000000000000000000000000000000000000000000000000000000008152506040518263ffffffff1660e01b81526004018080602001828103825283818151815260200191508051906020019080838360005b83811015612e06578082015181840152602081019050612deb565b50505050905090810190601f168015612e335780820380516001836020036101000a031916815260200191505b509250505060206040518083038186803b158015612e5057600080fd5b505af4158015612e64573d6000803e3d6000fd5b505050506040513d6020811015612e7a57600080fd5b81019080805190602001909291905050506040518363ffffffff1660e01b815260040180806020018361ffff1661ffff168152602001828103825284818151815260200191508051906020019080838360005b83811015612ee8578082015181840152602081019050612ecd565b50505050905090810190601f168015612f155780820380516001836020036101000a031916815260200191505b50935050505060206040518083038186803b158015612f3357600080fd5b505af4158015612f47573d6000803e3d6000fd5b505050506040513d6020811015612f5d57600080fd5b8101908080519060200190929190505050612f8b87600781518110612f7e57fe5b6020026020010151612ac3565b60001b612fab88600881518110612f9e57fe5b6020026020010151612ac3565b60001b60405160008152602001604052604051808581526020018460ff1660ff1681526020018381526020018281526020019450505050506020604051602081039080840390855afa158015613005573d6000803e3d6000fd5b50505060206040510351925050915091565b60008060008084806020019051608081101561303257600080fd5b8101908080519060200190929190805190602001909291908051906020019092919080519060200190929190505050829250819150809450819550829650839750505050509193509193565b6130866142b5565b60008060008060008680602001905160a08110156130a357600080fd5b810190808051906020019092919080519060200190929190805190602001909291908051906020019092919080519060200190929190505050945094509450945094506040518060c001604052808481526020018381526020018673ffffffffffffffffffffffffffffffffffffffff1681526020018573ffffffffffffffffffffffffffffffffffffffff1681526020018215158152602001600073ffffffffffffffffffffffffffffffffffffffff1681525095505050505050919050565b60008060008084806020019051608081101561317f57600080fd5b8101908080519060200190929190805190602001909291908051906020019092919080519060200190929190505050829250819150809050809450819550829650839750505050509193509193565b600060a1608183901b901c9050919050565b600080826000015114156131f75760009050613229565b60008083602001519050805160001a915060c060ff168260ff16101561322257600092505050613229565b6001925050505b919050565b60008082600001511415613245576000905061329a565b60008090506000613259846020015161329f565b84602001510190506000846000015185602001510190505b808210156132935761328282613328565b820191508280600101935050613271565b8293505050505b919050565b600080825160001a9050608060ff168110156132bf576000915050613323565b60b860ff168110806132e4575060c060ff1681101580156132e3575060f860ff1681105b5b156132f3576001915050613323565b60c060ff168110156133135760018060b80360ff16820301915050613323565b60018060f80360ff168203019150505b919050565b6000806000835160001a9050608060ff1681101561334957600191506133d6565b60b860ff16811015613366576001608060ff1682030191506133d5565b60c060ff168110156133965760b78103600185019450806020036101000a855104600182018101935050506133d4565b60f860ff168110156133b357600160c060ff1682030191506133d3565b60f78103600185019450806020036101000a855104600182018101935050505b5b5b5b8192505050919050565b60008060006133f2846020015161329f565b905060008185602001510190506000828660000151039050818194509450505050915091565b600081141561342657613484565b5b602060ff1681106134565782518252602060ff1683019250602060ff1682019150602060ff1681039050613427565b6000811115613483576000600182602060ff16036101000a03905080198451168184511681811785525050505b5b505050565b6000601582600001511461349c57600080fd5b6134a582612ac3565b9050919050565b60006134b6614366565b6134cb6134c68460006004613be5565b613c71565b91506134d8836044613c7f565b60001b8160400181815250506134ef836064613c7f565b816060018181525050613503836084613c7f565b816080019073ffffffffffffffffffffffffffffffffffffffff16908173ffffffffffffffffffffffffffffffffffffffff168152505060006135478460a4613c7f565b90506135558460c483613be5565b826000018190525060008160c401905061356f8582613c7f565b915061357f856020830184613be5565b83602001819052505050915091565b6135966141df565b61359e6143ae565b6135ab8560000151613ca7565b90506135b56143ae565b6135c28660200151613ca7565b9050600073__$1589bce7f5321952abb8f3fc1f5105d4b4$__63250e38bf84600001518886604001518b6040015187600001518860400151604051602001808481526020018373ffffffffffffffffffffffffffffffffffffffff1673ffffffffffffffffffffffffffffffffffffffff1660601b81526014018281526020019350505050604051602081830303815290604052805190602001208c606001516040518663ffffffff1660e01b8152600401808673ffffffffffffffffffffffffffffffffffffffff1673ffffffffffffffffffffffffffffffffffffffff1681526020018573ffffffffffffffffffffffffffffffffffffffff1673ffffffffffffffffffffffffffffffffffffffff1681526020018481526020018381526020018281526020019550505050505060206040518083038186803b15801561370a57600080fd5b505af415801561371e573d6000803e3d6000fd5b505050506040513d602081101561373457600080fd5b810190808051906020019092919050505090506000613757828560200151613de4565b905073__$1589bce7f5321952abb8f3fc1f5105d4b4$__63250e38bf84600001518986604001518c6040015189600001518a60400151604051602001808481526020018373ffffffffffffffffffffffffffffffffffffffff1673ffffffffffffffffffffffffffffffffffffffff1660601b81526014018281526020019350505050604051602081830303815290604052805190602001208d606001516040518663ffffffff1660e01b8152600401808673ffffffffffffffffffffffffffffffffffffffff1673ffffffffffffffffffffffffffffffffffffffff1681526020018573ffffffffffffffffffffffffffffffffffffffff1673ffffffffffffffffffffffffffffffffffffffff1681526020018481526020018381526020018281526020019550505050505060206040518083038186803b15801561389d57600080fd5b505af41580156138b1573d6000803e3d6000fd5b505050506040513d60208110156138c757600080fd5b8101908080519060200190929190505050915060006138ea838560200151613de4565b90508073ffffffffffffffffffffffffffffffffffffffff16896080015173ffffffffffffffffffffffffffffffffffffffff1614613991576040517f08c379a000000000000000000000000000000000000000000000000000000000815260040180806020018281038252601c8152602001807f4f726465727320617265206e6f7420636f6d706c696d656e746172790000000081525060200191505060405180910390fd5b8673ffffffffffffffffffffffffffffffffffffffff168273ffffffffffffffffffffffffffffffffffffffff161415613a5d576040518060e001604052808660400151815260200185604001518152602001866000015173ffffffffffffffffffffffffffffffffffffffff168152602001856000015173ffffffffffffffffffffffffffffffffffffffff1681526020018273ffffffffffffffffffffffffffffffffffffffff1681526020016000801b81526020018a6060015181525095505050505050613b7a565b8673ffffffffffffffffffffffffffffffffffffffff168173ffffffffffffffffffffffffffffffffffffffff161415613b29576040518060e001604052808560400151815260200186604001518152602001856000015173ffffffffffffffffffffffffffffffffffffffff168152602001866000015173ffffffffffffffffffffffffffffffffffffffff1681526020018373ffffffffffffffffffffffffffffffffffffffff1681526020016000801b81526020018a6060015181525095505050505050613b7a565b6040517f08c379a00000000000000000000000000000000000000000000000000000000081526004018080602001828103825260388152602001806144a96038913960400191505060405180910390fd5b9392505050565b60608060008090505b8351811015613bc757613bb882613bb3868481518110613ba657fe5b6020026020010151613f06565b613fa2565b91508080600101915050613b8a565b50613bdd613bd7825160c061402c565b82613fa2565b915050919050565b606081830184511015613bf757600080fd5b6060821560008114613c1457604051915060208201604052613c65565b6040519150601f8416801560200281840101858101878315602002848b0101015b81831015613c525780518352602083019250602081019050613c35565b50868552601f19601f8301166040525050505b50809150509392505050565b600060208201519050919050565b60006020820183511015613c9257600080fd5b60008260208501015190508091505092915050565b613caf6143ae565b818060200190516060811015613cc457600080fd5b810190808051906020019092919080516040519392919084640100000000821115613cee57600080fd5b83820191506020820185811115613d0457600080fd5b8251866001820283011164010000000082111715613d2157600080fd5b8083526020830192505050908051906020019080838360005b83811015613d55578082015181840152602081019050613d3a565b50505050905090810190601f168015613d825780820380516001836020036101000a031916815260200191505b5060405260200180519060200190929190505050829250836000018460200185604001838152508390528373ffffffffffffffffffffffffffffffffffffffff1673ffffffffffffffffffffffffffffffffffffffff16815250505050919050565b6000806000806041855114613dff5760009350505050613f00565b602085015192506040850151915060ff6041860151169050601b8160ff161015613e2a57601b810190505b601b8160ff1614158015613e425750601c8160ff1614155b15613e535760009350505050613f00565b600060018783868660405160008152602001604052604051808581526020018460ff1660ff1681526020018381526020018281526020019450505050506020604051602081039080840390855afa158015613eb2573d6000803e3d6000fd5b505050602060405103519050600073ffffffffffffffffffffffffffffffffffffffff168173ffffffffffffffffffffffffffffffffffffffff161415613ef857600080fd5b809450505050505b92915050565b60608060018351148015613f3d5750608060ff60f81b84600081518110613f2957fe5b602001015160f81c60f81b1660f81c60ff16105b15613f815760016040519080825280601f01601f191660200182016040528015613f765781602001600182028038833980820191505090505b509050829050613f99565b613f96613f908451608061402c565b84613fa2565b90505b80915050919050565b6060806040519050835180825260208201818101602087015b81831015613fd85780518352602083019250602081019050613fbb565b50855192508351830184528091508282019050602086015b8183101561400d5780518352602083019250602081019050613ff0565b50601f19601f8851850115830101166040525050508091505092915050565b606060388310156140bb57606060016040519080825280601f01601f19166020018201604052801561406d5781602001600182028038833980820191505090505b50905082840160f81b8160008151811061408357fe5b60200101907effffffffffffffffffffffffffffffffffffffffffffffffffffffffffffff1916908160001a90535080915050614118565b600080600190505b60008186816140ce57fe5b04146140e8578180600101925050610100810290506140c3565b60606140f883603787010161411e565b905060606141058761411e565b90506141118282613fa2565b9450505050505b92915050565b606060006001905060ff83111561413457600290505b806040519080825280601f01601f1916602001820160405280156141675781602001600182028038833980820191505090505b50915060008090505b818110156141d85780600183030360080260020a848161418c57fe5b0460f81b83828151811061419c57fe5b60200101907effffffffffffffffffffffffffffffffffffffffffffffffffffffffffffff1916908160001a9053508080600101915050614170565b5050919050565b6040518060e001604052806000815260200160008152602001600073ffffffffffffffffffffffffffffffffffffffff168152602001600073ffffffffffffffffffffffffffffffffffffffff168152602001600073ffffffffffffffffffffffffffffffffffffffff16815260200160008019168152602001600081525090565b60405180608001604052806000815260200160008152602001600073ffffffffffffffffffffffffffffffffffffffff168152602001600073ffffffffffffffffffffffffffffffffffffffff1681525090565b6040518060c001604052806000815260200160008019168152602001600073ffffffffffffffffffffffffffffffffffffffff168152602001600073ffffffffffffffffffffffffffffffffffffffff168152602001600015158152602001600073ffffffffffffffffffffffffffffffffffffffff1681525090565b604051806040016040528060008152602001600081525090565b604051806040016040528060008152602001600081525090565b6040518060a0016040528060608152602001606081526020016000801916815260200160008152602001600073ffffffffffffffffffffffffffffffffffffffff1681525090565b6040518060600160405280600073ffffffffffffffffffffffffffffffffffffffff1681526020016060815260200160008152509056fe53616d652065726337323120746f6b656e20776173206e6f74207265666572656e636564416765206f66206368616c6c656e6765206c6f6720696e207468652072656365697074206e6565647320746f206265206d6f726520726563656e74207468616e205574786f206265696e67206368616c6c656e67656443616e6e6f74206368616c6c656e6765207769746820746865206578697420747845786974696e672077697468206d6f726520746f6b656e73207468616e207265666572656e63656450726f766964656420747820646f65736e7420636f6e6365726e2074686520657869746f72202874726164655061727469636970616e7429546865206d61726b6574706c616365206f72646572207761732065787069726564207768656e2069742077617320696e636c756465644c6f675472616e73666572526563656970742c206368616c6c656e6765547820746f6b656e20616e64206368616c6c656e676564207574786f20746f6b656e20646f206e6f74206d6174636854686520696e666c696768742065786974206973206e6f742076616c69642c206265636175736520746865206d61726b6574706c616365206f726465722068617320657870697265644c6f675472616e73666572526563656970742c206368616c6c656e67655478204e465420616e64206368616c6c656e676564207574786f204e465420646f206e6f74206d61746368a265627a7a72315820509089a8801620b712706b2686e2a68cff54003afe459010fa340b7482f4b52264736f6c63430005110032",
  "linkReferences": {
    "contracts/common/lib/Common.sol": {
      "Common": [
        {
          "length": 20,
          "start": 11804
        },
        {
          "length": 20,
          "start": 11859
        }
      ]
    },
    "contracts/root/predicates/TransferWithSigUtils.sol": {
      "TransferWithSigUtils": [
        {
          "length": 20,
          "start": 14002
        },
        {
          "length": 20,
          "start": 14405
        }
      ]
    }
  },
  "deployedLinkReferences": {
    "contracts/common/lib/Common.sol": {
      "Common": [
        {
          "length": 20,
          "start": 11570
        },
        {
          "length": 20,
          "start": 11625
        }
      ]
    },
    "contracts/root/predicates/TransferWithSigUtils.sol": {
      "TransferWithSigUtils": [
        {
          "length": 20,
          "start": 13768
        },
        {
          "length": 20,
          "start": 14171
        }
      ]
    }
  }
}