{
  "_format": "hh-sol-artifact-1",
  "contractName": "ChildERC721Mintable",
  "sourceName": "contracts/child/ChildERC721Mintable.sol",
  "abi": [
    {
      "inputs": [
        {
          "internalType": "address",
          "name": "rootToken",
          "type": "address"
        },
        {
          "internalType": "string",
          "name": "name",
          "type": "string"
        },
        {
          "internalType": "string",
          "name": "symbol",
          "type": "string"
        }
      ],
      "payable": false,
      "stateMutability": "nonpayable",
      "type": "constructor"
    },
    {
      "anonymous": false,
      "inputs": [
        {
          "indexed": true,
          "internalType": "address",
          "name": "owner",
          "type": "address"
        },
        {
          "indexed": true,
          "internalType": "address",
          "name": "approved",
          "type": "address"
        },
        {
          "indexed": true,
          "internalType": "uint256",
          "name": "tokenId",
          "type": "uint256"
        }
      ],
      "name": "Approval",
      "type": "event"
    },
    {
      "anonymous": false,
      "inputs": [
        {
          "indexed": true,
          "internalType": "address",
          "name": "owner",
          "type": "address"
        },
        {
          "indexed": true,
          "internalType": "address",
          "name": "operator",
          "type": "address"
        },
        {
          "indexed": false,
          "internalType": "bool",
          "name": "approved",
          "type": "bool"
        }
      ],
      "name": "ApprovalForAll",
      "type": "event"
    },
    {
      "anonymous": false,
      "inputs": [
        {
          "indexed": true,
          "internalType": "address",
          "name": "previousAddress",
          "type": "address"
        },
        {
          "indexed": true,
          "internalType": "address",
          "name": "newAddress",
          "type": "address"
        }
      ],
      "name": "ChildChainChanged",
      "type": "event"
    },
    {
      "anonymous": false,
      "inputs": [
        {
          "indexed": true,
          "internalType": "address",
          "name": "token",
          "type": "address"
        },
        {
          "indexed": true,
          "internalType": "address",
          "name": "from",
          "type": "address"
        },
        {
          "indexed": false,
          "internalType": "uint256",
          "name": "tokenId",
          "type": "uint256"
        }
      ],
      "name": "Deposit",
      "type": "event"
    },
    {
      "anonymous": false,
      "inputs": [
        {
          "indexed": true,
          "internalType": "address",
          "name": "token",
          "type": "address"
        },
        {
          "indexed": true,
          "internalType": "address",
          "name": "from",
          "type": "address"
        },
        {
          "indexed": true,
          "internalType": "address",
          "name": "to",
          "type": "address"
        },
        {
          "indexed": false,
          "internalType": "uint256",
          "name": "amount",
          "type": "uint256"
        },
        {
          "indexed": false,
          "internalType": "uint256",
          "name": "input1",
          "type": "uint256"
        },
        {
          "indexed": false,
          "internalType": "uint256",
          "name": "input2",
          "type": "uint256"
        },
        {
          "indexed": false,
          "internalType": "uint256",
          "name": "output1",
          "type": "uint256"
        },
        {
          "indexed": false,
          "internalType": "uint256",
          "name": "output2",
          "type": "uint256"
        }
      ],
      "name": "LogFeeTransfer",
      "type": "event"
    },
    {
      "anonymous": false,
      "inputs": [
        {
          "indexed": true,
          "internalType": "address",
          "name": "token",
          "type": "address"
        },
        {
          "indexed": true,
          "internalType": "address",
          "name": "from",
          "type": "address"
        },
        {
          "indexed": true,
          "internalType": "address",
          "name": "to",
          "type": "address"
        },
        {
          "indexed": false,
          "internalType": "uint256",
          "name": "tokenId",
          "type": "uint256"
        }
      ],
      "name": "LogTransfer",
      "type": "event"
    },
    {
      "anonymous": false,
      "inputs": [
        {
          "indexed": true,
          "internalType": "address",
          "name": "account",
          "type": "address"
        }
      ],
      "name": "MinterAdded",
      "type": "event"
    },
    {
      "anonymous": false,
      "inputs": [
        {
          "indexed": true,
          "internalType": "address",
          "name": "account",
          "type": "address"
        }
      ],
      "name": "MinterRemoved",
      "type": "event"
    },
    {
      "anonymous": false,
      "inputs": [
        {
          "indexed": true,
          "internalType": "address",
          "name": "previousOwner",
          "type": "address"
        },
        {
          "indexed": true,
          "internalType": "address",
          "name": "newOwner",
          "type": "address"
        }
      ],
      "name": "OwnershipTransferred",
      "type": "event"
    },
    {
      "anonymous": false,
      "inputs": [
        {
          "indexed": true,
          "internalType": "address",
          "name": "previousAddress",
          "type": "address"
        },
        {
          "indexed": true,
          "internalType": "address",
          "name": "newAddress",
          "type": "address"
        }
      ],
      "name": "ParentChanged",
      "type": "event"
    },
    {
      "anonymous": false,
      "inputs": [
        {
          "indexed": true,
          "internalType": "address",
          "name": "previousAddress",
          "type": "address"
        },
        {
          "indexed": true,
          "internalType": "address",
          "name": "newAddress",
          "type": "address"
        }
      ],
      "name": "StateSyncerAddressChanged",
      "type": "event"
    },
    {
      "anonymous": false,
      "inputs": [
        {
          "indexed": true,
          "internalType": "address",
          "name": "from",
          "type": "address"
        },
        {
          "indexed": true,
          "internalType": "address",
          "name": "to",
          "type": "address"
        },
        {
          "indexed": true,
          "internalType": "uint256",
          "name": "tokenId",
          "type": "uint256"
        }
      ],
      "name": "Transfer",
      "type": "event"
    },
    {
      "anonymous": false,
      "inputs": [
        {
          "indexed": true,
          "internalType": "address",
          "name": "token",
          "type": "address"
        },
        {
          "indexed": true,
          "internalType": "address",
          "name": "from",
          "type": "address"
        },
        {
          "indexed": false,
          "internalType": "uint256",
          "name": "tokenId",
          "type": "uint256"
        }
      ],
      "name": "Withdraw",
      "type": "event"
    },
    {
      "constant": true,
      "inputs": [],
      "name": "CHAINID",
      "outputs": [
        {
          "internalType": "uint256",
          "name": "",
          "type": "uint256"
        }
      ],
      "payable": false,
      "stateMutability": "view",
      "type": "function"
    },
    {
      "constant": true,
      "inputs": [],
      "name": "EIP712_DOMAIN_HASH",
      "outputs": [
        {
          "internalType": "bytes32",
          "name": "",
          "type": "bytes32"
        }
      ],
      "payable": false,
      "stateMutability": "view",
      "type": "function"
    },
    {
      "constant": true,
      "inputs": [],
      "name": "EIP712_DOMAIN_SCHEMA_HASH",
      "outputs": [
        {
          "internalType": "bytes32",
          "name": "",
          "type": "bytes32"
        }
      ],
      "payable": false,
      "stateMutability": "view",
      "type": "function"
    },
    {
      "constant": true,
      "inputs": [],
      "name": "EIP712_TOKEN_TRANSFER_ORDER_SCHEMA_HASH",
      "outputs": [
        {
          "internalType": "bytes32",
          "name": "",
          "type": "bytes32"
        }
      ],
      "payable": false,
      "stateMutability": "view",
      "type": "function"
    },
    {
      "constant": false,
      "inputs": [
        {
          "internalType": "address",
          "name": "account",
          "type": "address"
        }
      ],
      "name": "addMinter",
      "outputs": [],
      "payable": false,
      "stateMutability": "nonpayable",
      "type": "function"
    },
    {
      "constant": false,
      "inputs": [
        {
          "internalType": "address",
          "name": "to",
          "type": "address"
        },
        {
          "internalType": "uint256",
          "name": "tokenId",
          "type": "uint256"
        }
      ],
      "name": "approve",
      "outputs": [],
      "payable": false,
      "stateMutability": "nonpayable",
      "type": "function"
    },
    {
      "constant": true,
      "inputs": [
        {
          "internalType": "address",
          "name": "owner",
          "type": "address"
        }
      ],
      "name": "balanceOf",
      "outputs": [
        {
          "internalType": "uint256",
          "name": "",
          "type": "uint256"
        }
      ],
      "payable": false,
      "stateMutability": "view",
      "type": "function"
    },
    {
      "constant": false,
      "inputs": [
        {
          "internalType": "address",
          "name": "newAddress",
          "type": "address"
        }
      ],
      "name": "changeChildChain",
      "outputs": [],
      "payable": false,
      "stateMutability": "nonpayable",
      "type": "function"
    },
    {
      "constant": false,
      "inputs": [
        {
          "internalType": "address",
          "name": "newAddress",
          "type": "address"
        }
      ],
      "name": "changeStateSyncerAddress",
      "outputs": [],
      "payable": false,
      "stateMutability": "nonpayable",
      "type": "function"
    },
    {
      "constant": true,
      "inputs": [],
      "name": "childChain",
      "outputs": [
        {
          "internalType": "address",
          "name": "",
          "type": "address"
        }
      ],
      "payable": false,
      "stateMutability": "view",
      "type": "function"
    },
    {
      "constant": false,
      "inputs": [
        {
          "internalType": "address",
          "name": "user",
          "type": "address"
        },
        {
          "internalType": "uint256",
          "name": "tokenId",
          "type": "uint256"
        }
      ],
      "name": "deposit",
      "outputs": [],
      "payable": false,
      "stateMutability": "nonpayable",
      "type": "function"
    },
    {
      "constant": true,
      "inputs": [
        {
          "internalType": "bytes32",
          "name": "",
          "type": "bytes32"
        }
      ],
      "name": "disabledHashes",
      "outputs": [
        {
          "internalType": "bool",
          "name": "",
          "type": "bool"
        }
      ],
      "payable": false,
      "stateMutability": "view",
      "type": "function"
    },
    {
      "constant": true,
      "inputs": [
        {
          "internalType": "bytes32",
          "name": "hash",
          "type": "bytes32"
        },
        {
          "internalType": "bytes",
          "name": "sig",
          "type": "bytes"
        }
      ],
      "name": "ecrecovery",
      "outputs": [
        {
          "internalType": "address",
          "name": "result",
          "type": "address"
        }
      ],
      "payable": false,
      "stateMutability": "pure",
      "type": "function"
    },
    {
      "constant": true,
      "inputs": [
        {
          "internalType": "uint256",
          "name": "tokenId",
          "type": "uint256"
        }
      ],
      "name": "getApproved",
      "outputs": [
        {
          "internalType": "address",
          "name": "operator",
          "type": "address"
        }
      ],
      "payable": false,
      "stateMutability": "view",
      "type": "function"
    },
    {
      "constant": true,
      "inputs": [
        {
          "internalType": "address",
          "name": "spender",
          "type": "address"
        },
        {
          "internalType": "uint256",
          "name": "tokenIdOrAmount",
          "type": "uint256"
        },
        {
          "internalType": "bytes32",
          "name": "data",
          "type": "bytes32"
        },
        {
          "internalType": "uint256",
          "name": "expiration",
          "type": "uint256"
        }
      ],
      "name": "getTokenTransferOrderHash",
      "outputs": [
        {
          "internalType": "bytes32",
          "name": "orderHash",
          "type": "bytes32"
        }
      ],
      "payable": false,
      "stateMutability": "view",
      "type": "function"
    },
    {
      "constant": true,
      "inputs": [
        {
          "internalType": "address",
          "name": "owner",
          "type": "address"
        },
        {
          "internalType": "address",
          "name": "operator",
          "type": "address"
        }
      ],
      "name": "isApprovedForAll",
      "outputs": [
        {
          "internalType": "bool",
          "name": "",
          "type": "bool"
        }
      ],
      "payable": false,
      "stateMutability": "view",
      "type": "function"
    },
    {
      "constant": true,
      "inputs": [
        {
          "internalType": "address",
          "name": "account",
          "type": "address"
        }
      ],
      "name": "isMinter",
      "outputs": [
        {
          "internalType": "bool",
          "name": "",
          "type": "bool"
        }
      ],
      "payable": false,
      "stateMutability": "view",
      "type": "function"
    },
    {
      "constant": true,
      "inputs": [],
      "name": "isOnlyStateSyncerContract",
      "outputs": [
        {
          "internalType": "bool",
          "name": "",
          "type": "bool"
        }
      ],
      "payable": false,
      "stateMutability": "view",
      "type": "function"
    },
    {
      "constant": true,
      "inputs": [],
      "name": "isOwner",
      "outputs": [
        {
          "internalType": "bool",
          "name": "",
          "type": "bool"
        }
      ],
      "payable": false,
      "stateMutability": "view",
      "type": "function"
    },
    {
      "constant": false,
      "inputs": [
        {
          "internalType": "address",
          "name": "to",
          "type": "address"
        },
        {
          "internalType": "uint256",
          "name": "tokenId",
          "type": "uint256"
        }
      ],
      "name": "mint",
      "outputs": [
        {
          "internalType": "bool",
          "name": "",
          "type": "bool"
        }
      ],
      "payable": false,
      "stateMutability": "nonpayable",
      "type": "function"
    },
    {
      "constant": false,
      "inputs": [
        {
          "internalType": "address",
          "name": "to",
          "type": "address"
        },
        {
          "internalType": "uint256",
          "name": "tokenId",
          "type": "uint256"
        },
        {
          "internalType": "string",
          "name": "tokenURI",
          "type": "string"
        }
      ],
      "name": "mintWithTokenURI",
      "outputs": [
        {
          "internalType": "bool",
          "name": "",
          "type": "bool"
        }
      ],
      "payable": false,
      "stateMutability": "nonpayable",
      "type": "function"
    },
    {
      "constant": true,
      "inputs": [],
      "name": "name",
      "outputs": [
        {
          "internalType": "string",
          "name": "",
          "type": "string"
        }
      ],
      "payable": false,
      "stateMutability": "view",
      "type": "function"
    },
    {
      "constant": true,
      "inputs": [],
      "name": "networkId",
      "outputs": [
        {
          "internalType": "bytes",
          "name": "",
          "type": "bytes"
        }
      ],
      "payable": false,
      "stateMutability": "view",
      "type": "function"
    },
    {
      "constant": false,
      "inputs": [
        {
          "internalType": "uint256",
          "name": "",
          "type": "uint256"
        },
        {
          "internalType": "bytes",
          "name": "data",
          "type": "bytes"
        }
      ],
      "name": "onStateReceive",
      "outputs": [],
      "payable": false,
      "stateMutability": "nonpayable",
      "type": "function"
    },
    {
      "constant": true,
      "inputs": [],
      "name": "owner",
      "outputs": [
        {
          "internalType": "address",
          "name": "",
          "type": "address"
        }
      ],
      "payable": false,
      "stateMutability": "view",
      "type": "function"
    },
    {
      "constant": true,
      "inputs": [
        {
          "internalType": "uint256",
          "name": "tokenId",
          "type": "uint256"
        }
      ],
      "name": "ownerOf",
      "outputs": [
        {
          "internalType": "address",
          "name": "",
          "type": "address"
        }
      ],
      "payable": false,
      "stateMutability": "view",
      "type": "function"
    },
    {
      "constant": true,
      "inputs": [],
      "name": "parent",
      "outputs": [
        {
          "internalType": "address",
          "name": "",
          "type": "address"
        }
      ],
      "payable": false,
      "stateMutability": "view",
      "type": "function"
    },
    {
      "constant": false,
      "inputs": [],
      "name": "renounceMinter",
      "outputs": [],
      "payable": false,
      "stateMutability": "nonpayable",
      "type": "function"
    },
    {
      "constant": false,
      "inputs": [],
      "name": "renounceOwnership",
      "outputs": [],
      "payable": false,
      "stateMutability": "nonpayable",
      "type": "function"
    },
    {
      "constant": false,
      "inputs": [
        {
          "internalType": "address",
          "name": "from",
          "type": "address"
        },
        {
          "internalType": "address",
          "name": "to",
          "type": "address"
        },
        {
          "internalType": "uint256",
          "name": "tokenId",
          "type": "uint256"
        }
      ],
      "name": "safeTransferFrom",
      "outputs": [],
      "payable": false,
      "stateMutability": "nonpayable",
      "type": "function"
    },
    {
      "constant": false,
      "inputs": [
        {
          "internalType": "address",
          "name": "from",
          "type": "address"
        },
        {
          "internalType": "address",
          "name": "to",
          "type": "address"
        },
        {
          "internalType": "uint256",
          "name": "tokenId",
          "type": "uint256"
        },
        {
          "internalType": "bytes",
          "name": "_data",
          "type": "bytes"
        }
      ],
      "name": "safeTransferFrom",
      "outputs": [],
      "payable": false,
      "stateMutability": "nonpayable",
      "type": "function"
    },
    {
      "constant": false,
      "inputs": [
        {
          "internalType": "address",
          "name": "operator",
          "type": "address"
        },
        {
          "internalType": "bool",
          "name": "_approved",
          "type": "bool"
        }
      ],
      "name": "setApprovalForAll",
      "outputs": [],
      "payable": false,
      "stateMutability": "nonpayable",
      "type": "function"
    },
    {
      "constant": false,
      "inputs": [
        {
          "internalType": "address",
          "name": "newAddress",
          "type": "address"
        }
      ],
      "name": "setParent",
      "outputs": [],
      "payable": false,
      "stateMutability": "nonpayable",
      "type": "function"
    },
    {
      "constant": true,
      "inputs": [],
      "name": "stateSyncer",
      "outputs": [
        {
          "internalType": "address",
          "name": "",
          "type": "address"
        }
      ],
      "payable": false,
      "stateMutability": "view",
      "type": "function"
    },
    {
      "constant": true,
      "inputs": [
        {
          "internalType": "bytes4",
          "name": "interfaceId",
          "type": "bytes4"
        }
      ],
      "name": "supportsInterface",
      "outputs": [
        {
          "internalType": "bool",
          "name": "",
          "type": "bool"
        }
      ],
      "payable": false,
      "stateMutability": "view",
      "type": "function"
    },
    {
      "constant": true,
      "inputs": [],
      "name": "symbol",
      "outputs": [
        {
          "internalType": "string",
          "name": "",
          "type": "string"
        }
      ],
      "payable": false,
      "stateMutability": "view",
      "type": "function"
    },
    {
      "constant": true,
      "inputs": [],
      "name": "token",
      "outputs": [
        {
          "internalType": "address",
          "name": "",
          "type": "address"
        }
      ],
      "payable": false,
      "stateMutability": "view",
      "type": "function"
    },
    {
      "constant": true,
      "inputs": [
        {
          "internalType": "uint256",
          "name": "index",
          "type": "uint256"
        }
      ],
      "name": "tokenByIndex",
      "outputs": [
        {
          "internalType": "uint256",
          "name": "",
          "type": "uint256"
        }
      ],
      "payable": false,
      "stateMutability": "view",
      "type": "function"
    },
    {
      "constant": true,
      "inputs": [
        {
          "internalType": "address",
          "name": "owner",
          "type": "address"
        },
        {
          "internalType": "uint256",
          "name": "index",
          "type": "uint256"
        }
      ],
      "name": "tokenOfOwnerByIndex",
      "outputs": [
        {
          "internalType": "uint256",
          "name": "",
          "type": "uint256"
        }
      ],
      "payable": false,
      "stateMutability": "view",
      "type": "function"
    },
    {
      "constant": true,
      "inputs": [
        {
          "internalType": "uint256",
          "name": "tokenId",
          "type": "uint256"
        }
      ],
      "name": "tokenURI",
      "outputs": [
        {
          "internalType": "string",
          "name": "",
          "type": "string"
        }
      ],
      "payable": false,
      "stateMutability": "view",
      "type": "function"
    },
    {
      "constant": true,
      "inputs": [],
      "name": "totalSupply",
      "outputs": [
        {
          "internalType": "uint256",
          "name": "",
          "type": "uint256"
        }
      ],
      "payable": false,
      "stateMutability": "view",
      "type": "function"
    },
    {
      "constant": false,
      "inputs": [
        {
          "internalType": "address",
          "name": "from",
          "type": "address"
        },
        {
          "internalType": "address",
          "name": "to",
          "type": "address"
        },
        {
          "internalType": "uint256",
          "name": "tokenId",
          "type": "uint256"
        }
      ],
      "name": "transferFrom",
      "outputs": [],
      "payable": false,
      "stateMutability": "nonpayable",
      "type": "function"
    },
    {
      "constant": false,
      "inputs": [
        {
          "internalType": "address",
          "name": "newOwner",
          "type": "address"
        }
      ],
      "name": "transferOwnership",
      "outputs": [],
      "payable": false,
      "stateMutability": "nonpayable",
      "type": "function"
    },
    {
      "constant": false,
      "inputs": [
        {
          "internalType": "bytes",
          "name": "sig",
          "type": "bytes"
        },
        {
          "internalType": "uint256",
          "name": "tokenId",
          "type": "uint256"
        },
        {
          "internalType": "bytes32",
          "name": "data",
          "type": "bytes32"
        },
        {
          "internalType": "uint256",
          "name": "expiration",
          "type": "uint256"
        },
        {
          "internalType": "address",
          "name": "to",
          "type": "address"
        }
      ],
      "name": "transferWithSig",
      "outputs": [
        {
          "internalType": "address",
          "name": "",
          "type": "address"
        }
      ],
      "payable": false,
      "stateMutability": "nonpayable",
      "type": "function"
    },
    {
      "constant": false,
      "inputs": [
        {
          "internalType": "uint256",
          "name": "tokenId",
          "type": "uint256"
        }
      ],
      "name": "withdraw",
      "outputs": [],
      "payable": true,
      "stateMutability": "payable",
      "type": "function"
    }
  ],
  "bytecode": "0x60806040523480156200001157600080fd5b5060405162004cbd38038062004cbd833981810160405260608110156200003757600080fd5b8101908080519060200190929190805160405193929190846401000000008211156200006257600080fd5b838201915060208201858111156200007957600080fd5b82518660018202830111640100000000821117156200009757600080fd5b8083526020830192505050908051906020019080838360005b83811015620000cd578082015181840152602081019050620000b0565b50505050905090810190601f168015620000fb5780820380516001836020036101000a031916815260200191505b50604052602001805160405193929190846401000000008211156200011f57600080fd5b838201915060208201858111156200013657600080fd5b82518660018202830111640100000000821117156200015457600080fd5b8083526020830192505050908051906020019080838360005b838110156200018a5780820151818401526020810190506200016d565b50505050905090810190601f168015620001b85780820380516001836020036101000a031916815260200191505b506040525050503383838381818181336000806101000a81548173ffffffffffffffffffffffffffffffffffffffff021916908373ffffffffffffffffffffffffffffffffffffffff1602179055506000809054906101000a900473ffffffffffffffffffffffffffffffffffffffff1673ffffffffffffffffffffffffffffffffffffffff16600073ffffffffffffffffffffffffffffffffffffffff167f8be0079c531659141344cd1fd0a4f28419497f9722a3daafe3b4186f6b6457e060405160405180910390a360405180608001604052806052815260200162004c6b605291396040516020018082805190602001908083835b60208310620002d55780518252602082019150602081019050602083039250620002b0565b6001836020036101000a038019825116818451168082178552505050505050905001915050604051602081830303815290604052805190602001206040518060400160405280600d81526020017f4d61746963204e6574776f726b00000000000000000000000000000000000000815250805190602001206040518060400160405280600181526020017f3100000000000000000000000000000000000000000000000000000000000000815250805190602001206201388130604051602001808681526020018581526020018481526020018381526020018273ffffffffffffffffffffffffffffffffffffffff1673ffffffffffffffffffffffffffffffffffffffff16815260200195505050505050604051602081830303815290604052805190602001206001819055506200041b6301ffc9a760e01b620005f360201b60201c565b620004336380ac58cd60e01b620005f360201b60201c565b6200044b63780e9d6360e01b620005f360201b60201c565b81600f9080519060200190620004639291906200083e565b5080601090805190602001906200047c9291906200083e565b5062000495635b5e139f60e01b620005f360201b60201c565b50505050611001601260006101000a81548173ffffffffffffffffffffffffffffffffffffffff021916908373ffffffffffffffffffffffffffffffffffffffff160217905550601260009054906101000a900473ffffffffffffffffffffffffffffffffffffffff1673ffffffffffffffffffffffffffffffffffffffff16600073ffffffffffffffffffffffffffffffffffffffff167f98e6a46aa139a033b9c7f3ae4ad1c103ffdce3e7cf509326808ba8c4b5af11c060405160405180910390a3600073ffffffffffffffffffffffffffffffffffffffff168373ffffffffffffffffffffffffffffffffffffffff1614156200059457600080fd5b82600260006101000a81548173ffffffffffffffffffffffffffffffffffffffff021916908373ffffffffffffffffffffffffffffffffffffffff16021790555050505050620005ea336200069460201b60201c565b505050620008ed565b63ffffffff60e01b817bffffffffffffffffffffffffffffffffffffffffffffffffffffffff191614156200062757600080fd5b600160066000837bffffffffffffffffffffffffffffffffffffffffffffffffffffffff19167bffffffffffffffffffffffffffffffffffffffffffffffffffffffff1916815260200190815260200160002060006101000a81548160ff02191690831515021790555050565b620006af816013620006f560201b620038a01790919060201c565b8073ffffffffffffffffffffffffffffffffffffffff167f6ae172837ea30b801fbfcdd4108aa1d5bf8ff775444fd70256b44e6bf3dfc3f660405160405180910390a250565b600073ffffffffffffffffffffffffffffffffffffffff168173ffffffffffffffffffffffffffffffffffffffff1614156200073057600080fd5b620007428282620007ab60201b60201c565b156200074d57600080fd5b60018260000160008373ffffffffffffffffffffffffffffffffffffffff1673ffffffffffffffffffffffffffffffffffffffff16815260200190815260200160002060006101000a81548160ff0219169083151502179055505050565b60008073ffffffffffffffffffffffffffffffffffffffff168273ffffffffffffffffffffffffffffffffffffffff161415620007e757600080fd5b8260000160008373ffffffffffffffffffffffffffffffffffffffff1673ffffffffffffffffffffffffffffffffffffffff16815260200190815260200160002060009054906101000a900460ff16905092915050565b828054600181600116156101000203166002900490600052602060002090601f016020900481019282601f106200088157805160ff1916838001178555620008b2565b82800160010185558215620008b2579182015b82811115620008b157825182559160200191906001019062000894565b5b509050620008c19190620008c5565b5090565b620008ea91905b80821115620008e6576000816000905550600101620008cc565b5090565b90565b61436e80620008fd6000396000f3fe6080604052600436106102725760003560e01c806377d32e941161014f578063b789543c116100c1578063e614d0d61161007a578063e614d0d614611341578063e985e9c51461136c578063ed9ef524146113f5578063f2fde38b14611446578063f4ef4d6914611497578063fc0c546a146114ee57610272565b8063b789543c14611051578063b88d4fde146110d4578063c87b56dd146111e6578063cc79f97b1461129a578063df555007146112c5578063e306f7791461131657610272565b8063983b2d5611610113578063983b2d5614610ea55780639865027514610ef6578063a22cb46514610f0d578063aa271e1a14610f6a578063abceeba214610fd3578063acd06cb314610ffe57610272565b806377d32e9414610bed5780638da5cb5b14610cff5780638f32d59b14610d565780639025e64c14610d8557806395d89b4114610e1557610272565b806340c10f19116101e857806350bb4e7f116101ac57806350bb4e7f1461096657806355651f7114610a7057806360f96a8f14610a9f5780636352211e14610af657806370a0823114610b71578063715018a614610bd657610272565b806340c10f191461077757806342842e0e146107ea57806342fc47fb1461086557806347e7ef24146108bc5780634f6ccce71461091757610272565b806318160ddd1161023a57806318160ddd146104a057806319d27d9c146104cb57806323b872dd146105cf57806326c53bea1461064a5780632e1a7d4d146106da5780632f745c591461070857610272565b806301ffc9a71461027757806306fdde03146102e9578063081812fc14610379578063095ea7b3146103f45780631499c5921461044f575b600080fd5b34801561028357600080fd5b506102cf6004803603602081101561029a57600080fd5b8101908080357bffffffffffffffffffffffffffffffffffffffffffffffffffffffff19169060200190929190505050611545565b604051808215151515815260200191505060405180910390f35b3480156102f557600080fd5b506102fe6115ad565b6040518080602001828103825283818151815260200191508051906020019080838360005b8381101561033e578082015181840152602081019050610323565b50505050905090810190601f16801561036b5780820380516001836020036101000a031916815260200191505b509250505060405180910390f35b34801561038557600080fd5b506103b26004803603602081101561039c57600080fd5b810190808035906020019092919050505061164f565b604051808273ffffffffffffffffffffffffffffffffffffffff1673ffffffffffffffffffffffffffffffffffffffff16815260200191505060405180910390f35b34801561040057600080fd5b5061044d6004803603604081101561041757600080fd5b81019080803573ffffffffffffffffffffffffffffffffffffffff169060200190929190803590602001909291905050506116bf565b005b34801561045b57600080fd5b5061049e6004803603602081101561047257600080fd5b81019080803573ffffffffffffffffffffffffffffffffffffffff16906020019092919050505061172d565b005b3480156104ac57600080fd5b506104b5611884565b6040518082815260200191505060405180910390f35b3480156104d757600080fd5b5061058d600480360360a08110156104ee57600080fd5b810190808035906020019064010000000081111561050b57600080fd5b82018360208201111561051d57600080fd5b8035906020019184600183028401116401000000008311171561053f57600080fd5b9091929391929390803590602001909291908035906020019092919080359060200190929190803573ffffffffffffffffffffffffffffffffffffffff169060200190929190505050611891565b604051808273ffffffffffffffffffffffffffffffffffffffff1673ffffffffffffffffffffffffffffffffffffffff16815260200191505060405180910390f35b3480156105db57600080fd5b50610648600480360360608110156105f257600080fd5b81019080803573ffffffffffffffffffffffffffffffffffffffff169060200190929190803573ffffffffffffffffffffffffffffffffffffffff16906020019092919080359060200190929190505050611aeb565b005b34801561065657600080fd5b506106d86004803603604081101561066d57600080fd5b81019080803590602001909291908035906020019064010000000081111561069457600080fd5b8201836020820111156106a657600080fd5b803590602001918460018302840111640100000000831117156106c857600080fd5b9091929391929390505050611c7a565b005b610706600480360360208110156106f057600080fd5b8101908080359060200190929190505050611db7565b005b34801561071457600080fd5b506107616004803603604081101561072b57600080fd5b81019080803573ffffffffffffffffffffffffffffffffffffffff16906020019092919080359060200190929190505050611e8b565b6040518082815260200191505060405180910390f35b34801561078357600080fd5b506107d06004803603604081101561079a57600080fd5b81019080803573ffffffffffffffffffffffffffffffffffffffff16906020019092919080359060200190929190505050611efe565b604051808215151515815260200191505060405180910390f35b3480156107f657600080fd5b506108636004803603606081101561080d57600080fd5b81019080803573ffffffffffffffffffffffffffffffffffffffff169060200190929190803573ffffffffffffffffffffffffffffffffffffffff16906020019092919080359060200190929190505050611f26565b005b34801561087157600080fd5b5061087a611f46565b604051808273ffffffffffffffffffffffffffffffffffffffff1673ffffffffffffffffffffffffffffffffffffffff16815260200191505060405180910390f35b3480156108c857600080fd5b50610915600480360360408110156108df57600080fd5b81019080803573ffffffffffffffffffffffffffffffffffffffff16906020019092919080359060200190929190505050611f6c565b005b34801561092357600080fd5b506109506004803603602081101561093a57600080fd5b81019080803590602001909291905050506120e1565b6040518082815260200191505060405180910390f35b34801561097257600080fd5b50610a566004803603606081101561098957600080fd5b81019080803573ffffffffffffffffffffffffffffffffffffffff16906020019092919080359060200190929190803590602001906401000000008111156109d057600080fd5b8201836020820111156109e257600080fd5b80359060200191846001830284011164010000000083111715610a0457600080fd5b91908080601f016020809104026020016040519081016040528093929190818152602001838380828437600081840152601f19601f820116905080830192505050505050509192919290505050612115565b604051808215151515815260200191505060405180910390f35b348015610a7c57600080fd5b50610a85612148565b604051808215151515815260200191505060405180910390f35b348015610aab57600080fd5b50610ab46121a0565b604051808273ffffffffffffffffffffffffffffffffffffffff1673ffffffffffffffffffffffffffffffffffffffff16815260200191505060405180910390f35b348015610b0257600080fd5b50610b2f60048036036020811015610b1957600080fd5b81019080803590602001909291905050506121c6565b604051808273ffffffffffffffffffffffffffffffffffffffff1673ffffffffffffffffffffffffffffffffffffffff16815260200191505060405180910390f35b348015610b7d57600080fd5b50610bc060048036036020811015610b9457600080fd5b81019080803573ffffffffffffffffffffffffffffffffffffffff169060200190929190505050612242565b6040518082815260200191505060405180910390f35b348015610be257600080fd5b50610beb6122cb565b005b348015610bf957600080fd5b50610cbd60048036036040811015610c1057600080fd5b810190808035906020019092919080359060200190640100000000811115610c3757600080fd5b820183602082011115610c4957600080fd5b80359060200191846001830284011164010000000083111715610c6b57600080fd5b91908080601f016020809104026020016040519081016040528093929190818152602001838380828437600081840152601f19601f82011690508083019250505050505050919291929050505061239b565b604051808273ffffffffffffffffffffffffffffffffffffffff1673ffffffffffffffffffffffffffffffffffffffff16815260200191505060405180910390f35b348015610d0b57600080fd5b50610d14612520565b604051808273ffffffffffffffffffffffffffffffffffffffff1673ffffffffffffffffffffffffffffffffffffffff16815260200191505060405180910390f35b348015610d6257600080fd5b50610d6b612549565b604051808215151515815260200191505060405180910390f35b348015610d9157600080fd5b50610d9a6125a0565b6040518080602001828103825283818151815260200191508051906020019080838360005b83811015610dda578082015181840152602081019050610dbf565b50505050905090810190601f168015610e075780820380516001836020036101000a031916815260200191505b509250505060405180910390f35b348015610e2157600080fd5b50610e2a6125d9565b6040518080602001828103825283818151815260200191508051906020019080838360005b83811015610e6a578082015181840152602081019050610e4f565b50505050905090810190601f168015610e975780820380516001836020036101000a031916815260200191505b509250505060405180910390f35b348015610eb157600080fd5b50610ef460048036036020811015610ec857600080fd5b81019080803573ffffffffffffffffffffffffffffffffffffffff16906020019092919050505061267b565b005b348015610f0257600080fd5b50610f0b612699565b005b348015610f1957600080fd5b50610f6860048036036040811015610f3057600080fd5b81019080803573ffffffffffffffffffffffffffffffffffffffff1690602001909291908035151590602001909291905050506126a4565b005b348015610f7657600080fd5b50610fb960048036036020811015610f8d57600080fd5b81019080803573ffffffffffffffffffffffffffffffffffffffff169060200190929190505050612712565b604051808215151515815260200191505060405180910390f35b348015610fdf57600080fd5b50610fe861272f565b6040518082815260200191505060405180910390f35b34801561100a57600080fd5b506110376004803603602081101561102157600080fd5b81019080803590602001909291905050506127bc565b604051808215151515815260200191505060405180910390f35b34801561105d57600080fd5b506110be6004803603608081101561107457600080fd5b81019080803573ffffffffffffffffffffffffffffffffffffffff1690602001909291908035906020019092919080359060200190929190803590602001909291905050506127dc565b6040518082815260200191505060405180910390f35b3480156110e057600080fd5b506111e4600480360360808110156110f757600080fd5b81019080803573ffffffffffffffffffffffffffffffffffffffff169060200190929190803573ffffffffffffffffffffffffffffffffffffffff169060200190929190803590602001909291908035906020019064010000000081111561115e57600080fd5b82018360208201111561117057600080fd5b8035906020019184600183028401116401000000008311171561119257600080fd5b91908080601f016020809104026020016040519081016040528093929190818152602001838380828437600081840152601f19601f8201169050808301925050505050505091929192905050506127fc565b005b3480156111f257600080fd5b5061121f6004803603602081101561120957600080fd5b8101908080359060200190929190505050612822565b6040518080602001828103825283818151815260200191508051906020019080838360005b8381101561125f578082015181840152602081019050611244565b50505050905090810190601f16801561128c5780820380516001836020036101000a031916815260200191505b509250505060405180910390f35b3480156112a657600080fd5b506112af6128e9565b6040518082815260200191505060405180910390f35b3480156112d157600080fd5b50611314600480360360208110156112e857600080fd5b81019080803573ffffffffffffffffffffffffffffffffffffffff1690602001909291905050506128f0565b005b34801561132257600080fd5b5061132b612a47565b6040518082815260200191505060405180910390f35b34801561134d57600080fd5b50611356612a4d565b6040518082815260200191505060405180910390f35b34801561137857600080fd5b506113db6004803603604081101561138f57600080fd5b81019080803573ffffffffffffffffffffffffffffffffffffffff169060200190929190803573ffffffffffffffffffffffffffffffffffffffff169060200190929190505050612ada565b604051808215151515815260200191505060405180910390f35b34801561140157600080fd5b506114446004803603602081101561141857600080fd5b81019080803573ffffffffffffffffffffffffffffffffffffffff169060200190929190505050612b4a565b005b34801561145257600080fd5b506114956004803603602081101561146957600080fd5b81019080803573ffffffffffffffffffffffffffffffffffffffff169060200190929190505050612ca1565b005b3480156114a357600080fd5b506114ac612cbe565b604051808273ffffffffffffffffffffffffffffffffffffffff1673ffffffffffffffffffffffffffffffffffffffff16815260200191505060405180910390f35b3480156114fa57600080fd5b50611503612ce4565b604051808273ffffffffffffffffffffffffffffffffffffffff1673ffffffffffffffffffffffffffffffffffffffff16815260200191505060405180910390f35b600060066000837bffffffffffffffffffffffffffffffffffffffffffffffffffffffff19167bffffffffffffffffffffffffffffffffffffffffffffffffffffffff1916815260200190815260200160002060009054906101000a900460ff169050919050565b6060600f8054600181600116156101000203166002900480601f0160208091040260200160405190810160405280929190818152602001828054600181600116156101000203166002900480156116455780601f1061161a57610100808354040283529160200191611645565b820191906000526020600020905b81548152906001019060200180831161162857829003601f168201915b5050505050905090565b60006040517f08c379a00000000000000000000000000000000000000000000000000000000081526004018080602001828103825260108152602001807f44697361626c656420666561747572650000000000000000000000000000000081525060200191505060405180910390fd5b6040517f08c379a00000000000000000000000000000000000000000000000000000000081526004018080602001828103825260108152602001807f44697361626c656420666561747572650000000000000000000000000000000081525060200191505060405180910390fd5b611735612549565b61173e57600080fd5b600073ffffffffffffffffffffffffffffffffffffffff168173ffffffffffffffffffffffffffffffffffffffff1614156117c4576040517f08c379a00000000000000000000000000000000000000000000000000000000081526004018080602001828103825260338152602001806141866033913960400191505060405180910390fd5b8073ffffffffffffffffffffffffffffffffffffffff16600460009054906101000a900473ffffffffffffffffffffffffffffffffffffffff1673ffffffffffffffffffffffffffffffffffffffff167fc9e4c719f349d4c91a37138eb5cf0ba2670c592a764f8c0b18c603ba9178cc1d60405160405180910390a380600460006101000a81548173ffffffffffffffffffffffffffffffffffffffff021916908373ffffffffffffffffffffffffffffffffffffffff16021790555050565b6000600d80549050905090565b6000808314806118a15750824311155b611913576040517f08c379a00000000000000000000000000000000000000000000000000000000081526004018080602001828103825260148152602001807f5369676e6174757265206973206578706972656400000000000000000000000081525060200191505060405180910390fd5b600061192a61192433888888612d0a565b30612de0565b9050600015156005600083815260200190815260200160002060009054906101000a900460ff161515146119c6576040517f08c379a000000000000000000000000000000000000000000000000000000000815260040180806020018281038252600f8152602001807f536967206465616374697661746564000000000000000000000000000000000081525060200191505060405180910390fd5b60016005600083815260200190815260200160002060006101000a81548160ff0219169083151502179055506000611a42828a8a8080601f016020809104026020016040519081016040528093929190818152602001838380828437600081840152601f19601f8201169050808301925050505050505061239b565b9050611a4f818589612f6f565b611a6a8185896040518060200160405280600081525061301d565b611adc576040517f08c379a000000000000000000000000000000000000000000000000000000000815260040180806020018281038252601d8152602001807f5f636865636b4f6e4552433732315265636569766564206661696c656400000081525060200191505060405180910390fd5b80925050509695505050505050565b600073ffffffffffffffffffffffffffffffffffffffff16600460009054906101000a900473ffffffffffffffffffffffffffffffffffffffff1673ffffffffffffffffffffffffffffffffffffffff1614158015611c5f5750600460009054906101000a900473ffffffffffffffffffffffffffffffffffffffff1673ffffffffffffffffffffffffffffffffffffffff16631ffb811f3384846040518463ffffffff1660e01b8152600401808473ffffffffffffffffffffffffffffffffffffffff1673ffffffffffffffffffffffffffffffffffffffff1681526020018373ffffffffffffffffffffffffffffffffffffffff1673ffffffffffffffffffffffffffffffffffffffff1681526020018281526020019350505050602060405180830381600087803b158015611c2257600080fd5b505af1158015611c36573d6000803e3d6000fd5b505050506040513d6020811015611c4c57600080fd5b8101908080519060200190929190505050155b15611c6957611c75565b611c74838383612f6f565b5b505050565b611c82612148565b611cd7576040517f08c379a000000000000000000000000000000000000000000000000000000000815260040180806020018281038252603581526020018061420b6035913960400191505060405180910390fd5b60008083836040811015611cea57600080fd5b81019080803573ffffffffffffffffffffffffffffffffffffffff1690602001909291908035906020019092919050505091509150611d298282613206565b8173ffffffffffffffffffffffffffffffffffffffff16600260009054906101000a900473ffffffffffffffffffffffffffffffffffffffff1673ffffffffffffffffffffffffffffffffffffffff167f9b1bfa7fa9ee420a16e124f794c35ac9f90472acc99140eb2f6447c714cad8eb836040518082815260200191505060405180910390a35050505050565b3373ffffffffffffffffffffffffffffffffffffffff16611dd7826121c6565b73ffffffffffffffffffffffffffffffffffffffff1614611df757600080fd5b611e013382613206565b3373ffffffffffffffffffffffffffffffffffffffff16600260009054906101000a900473ffffffffffffffffffffffffffffffffffffffff1673ffffffffffffffffffffffffffffffffffffffff167f9b1bfa7fa9ee420a16e124f794c35ac9f90472acc99140eb2f6447c714cad8eb836040518082815260200191505060405180910390a350565b6000611e9683612242565b8210611ea157600080fd5b600b60008473ffffffffffffffffffffffffffffffffffffffff1673ffffffffffffffffffffffffffffffffffffffff1681526020019081526020016000208281548110611eeb57fe5b9060005260206000200154905092915050565b6000611f0933612712565b611f1257600080fd5b611f1c8383613263565b6001905092915050565b611f41838383604051806020016040528060008152506127fc565b505050565b600360009054906101000a900473ffffffffffffffffffffffffffffffffffffffff1681565b600360009054906101000a900473ffffffffffffffffffffffffffffffffffffffff1673ffffffffffffffffffffffffffffffffffffffff163373ffffffffffffffffffffffffffffffffffffffff1614612012576040517f08c379a00000000000000000000000000000000000000000000000000000000081526004018080602001828103825260338152602001806142cd6033913960400191505060405180910390fd5b600073ffffffffffffffffffffffffffffffffffffffff168273ffffffffffffffffffffffffffffffffffffffff16141561204c57600080fd5b6120568282613263565b8173ffffffffffffffffffffffffffffffffffffffff16600260009054906101000a900473ffffffffffffffffffffffffffffffffffffffff1673ffffffffffffffffffffffffffffffffffffffff167f5548c837ab068cf56a2c2479df0882a4922fd203edb7517321831d95078c5f62836040518082815260200191505060405180910390a35050565b60006120eb611884565b82106120f657600080fd5b600d828154811061210357fe5b90600052602060002001549050919050565b600061212033612712565b61212957600080fd5b6121338484613263565b61213d8383613284565b600190509392505050565b6000601260009054906101000a900473ffffffffffffffffffffffffffffffffffffffff1673ffffffffffffffffffffffffffffffffffffffff163373ffffffffffffffffffffffffffffffffffffffff1614905090565b600460009054906101000a900473ffffffffffffffffffffffffffffffffffffffff1681565b6000806007600084815260200190815260200160002060009054906101000a900473ffffffffffffffffffffffffffffffffffffffff169050600073ffffffffffffffffffffffffffffffffffffffff168173ffffffffffffffffffffffffffffffffffffffff16141561223957600080fd5b80915050919050565b60008073ffffffffffffffffffffffffffffffffffffffff168273ffffffffffffffffffffffffffffffffffffffff16141561227d57600080fd5b6122c4600960008473ffffffffffffffffffffffffffffffffffffffff1673ffffffffffffffffffffffffffffffffffffffff1681526020019081526020016000206132c2565b9050919050565b6122d3612549565b6122dc57600080fd5b600073ffffffffffffffffffffffffffffffffffffffff166000809054906101000a900473ffffffffffffffffffffffffffffffffffffffff1673ffffffffffffffffffffffffffffffffffffffff167f8be0079c531659141344cd1fd0a4f28419497f9722a3daafe3b4186f6b6457e060405160405180910390a360008060006101000a81548173ffffffffffffffffffffffffffffffffffffffff021916908373ffffffffffffffffffffffffffffffffffffffff160217905550565b60008060008060418551146123b6576000935050505061251a565b602085015192506040850151915060ff6041860151169050601b8160ff1610156123e157601b810190505b601b8160ff16141580156123f95750601c8160ff1614155b1561240a576000935050505061251a565b60018682858560405160008152602001604052604051808581526020018460ff1660ff1681526020018381526020018281526020019450505050506020604051602081039080840390855afa158015612467573d6000803e3d6000fd5b505050602060405103519350600073ffffffffffffffffffffffffffffffffffffffff168473ffffffffffffffffffffffffffffffffffffffff161415612516576040517f08c379a00000000000000000000000000000000000000000000000000000000081526004018080602001828103825260128152602001807f4572726f7220696e2065637265636f766572000000000000000000000000000081525060200191505060405180910390fd5b5050505b92915050565b60008060009054906101000a900473ffffffffffffffffffffffffffffffffffffffff16905090565b60008060009054906101000a900473ffffffffffffffffffffffffffffffffffffffff1673ffffffffffffffffffffffffffffffffffffffff163373ffffffffffffffffffffffffffffffffffffffff1614905090565b6040518060400160405280600381526020017f013881000000000000000000000000000000000000000000000000000000000081525081565b606060108054600181600116156101000203166002900480601f0160208091040260200160405190810160405280929190818152602001828054600181600116156101000203166002900480156126715780601f1061264657610100808354040283529160200191612671565b820191906000526020600020905b81548152906001019060200180831161265457829003601f168201915b5050505050905090565b61268433612712565b61268d57600080fd5b612696816132d0565b50565b6126a23361332a565b565b6040517f08c379a00000000000000000000000000000000000000000000000000000000081526004018080602001828103825260108152602001807f44697361626c656420666561747572650000000000000000000000000000000081525060200191505060405180910390fd5b600061272882601361338490919063ffffffff16565b9050919050565b6040518060800160405280605b8152602001614272605b91396040516020018082805190602001908083835b6020831061277e578051825260208201915060208101905060208303925061275b565b6001836020036101000a0380198251168184511680821785525050505050509050019150506040516020818303038152906040528051906020012081565b60056020528060005260406000206000915054906101000a900460ff1681565b60006127f26127ed86868686612d0a565b613416565b9050949350505050565b612807848484611aeb565b6128138484848461301d565b61281c57600080fd5b50505050565b606061282d8261342b565b61283657600080fd5b601160008381526020019081526020016000208054600181600116156101000203166002900480601f0160208091040260200160405190810160405280929190818152602001828054600181600116156101000203166002900480156128dd5780601f106128b2576101008083540402835291602001916128dd565b820191906000526020600020905b8154815290600101906020018083116128c057829003601f168201915b50505050509050919050565b6201388181565b6128f8612549565b61290157600080fd5b600073ffffffffffffffffffffffffffffffffffffffff168173ffffffffffffffffffffffffffffffffffffffff161415612987576040517f08c379a000000000000000000000000000000000000000000000000000000000815260040180806020018281038252603a815260200180614300603a913960400191505060405180910390fd5b8073ffffffffffffffffffffffffffffffffffffffff16601260009054906101000a900473ffffffffffffffffffffffffffffffffffffffff1673ffffffffffffffffffffffffffffffffffffffff167f98e6a46aa139a033b9c7f3ae4ad1c103ffdce3e7cf509326808ba8c4b5af11c060405160405180910390a380601260006101000a81548173ffffffffffffffffffffffffffffffffffffffff021916908373ffffffffffffffffffffffffffffffffffffffff16021790555050565b60015481565b6040518060800160405280605281526020016141b9605291396040516020018082805190602001908083835b60208310612a9c5780518252602082019150602081019050602083039250612a79565b6001836020036101000a0380198251168184511680821785525050505050509050019150506040516020818303038152906040528051906020012081565b60006040517f08c379a00000000000000000000000000000000000000000000000000000000081526004018080602001828103825260108152602001807f44697361626c656420666561747572650000000000000000000000000000000081525060200191505060405180910390fd5b612b52612549565b612b5b57600080fd5b600073ffffffffffffffffffffffffffffffffffffffff168173ffffffffffffffffffffffffffffffffffffffff161415612be1576040517f08c379a00000000000000000000000000000000000000000000000000000000081526004018080602001828103825260328152602001806142406032913960400191505060405180910390fd5b8073ffffffffffffffffffffffffffffffffffffffff16600360009054906101000a900473ffffffffffffffffffffffffffffffffffffffff1673ffffffffffffffffffffffffffffffffffffffff167f1f9f3556dd336016cdf20adaead7d5c73665dba664b60e8c17e9a4eb91ce1d3960405160405180910390a380600360006101000a81548173ffffffffffffffffffffffffffffffffffffffff021916908373ffffffffffffffffffffffffffffffffffffffff16021790555050565b612ca9612549565b612cb257600080fd5b612cbb8161349d565b50565b601260009054906101000a900473ffffffffffffffffffffffffffffffffffffffff1681565b600260009054906101000a900473ffffffffffffffffffffffffffffffffffffffff1681565b6000806040518060800160405280605b8152602001614272605b91396040516020018082805190602001908083835b60208310612d5c5780518252602082019150602081019050602083039250612d39565b6001836020036101000a03801982511681845116808217855250505050505090500191505060405160208183030381529060405280519060200120905060405181815273ffffffffffffffffffffffffffffffffffffffff8716602082015285604082015284606082015283608082015260a0812092505081915050949350505050565b6000806040518060800160405280605281526020016141b9605291396040516020018082805190602001908083835b60208310612e325780518252602082019150602081019050602083039250612e0f565b6001836020036101000a038019825116818451168082178552505050505050905001915050604051602081830303815290604052805190602001206040518060400160405280600d81526020017f4d61746963204e6574776f726b00000000000000000000000000000000000000815250805190602001206040518060400160405280600181526020017f3100000000000000000000000000000000000000000000000000000000000000815250805190602001206201388186604051602001808681526020018581526020018481526020018381526020018273ffffffffffffffffffffffffffffffffffffffff1673ffffffffffffffffffffffffffffffffffffffff16815260200195505050505050604051602081830303815290604052805190602001209050612f668482613595565b91505092915050565b612f7a8383836135d6565b8173ffffffffffffffffffffffffffffffffffffffff168373ffffffffffffffffffffffffffffffffffffffff16600260009054906101000a900473ffffffffffffffffffffffffffffffffffffffff1673ffffffffffffffffffffffffffffffffffffffff167f6eabe333476233fd382224f233210cb808a7bc4c4de64f9d76628bf63c677b1a846040518082815260200191505060405180910390a4505050565b600061303e8473ffffffffffffffffffffffffffffffffffffffff166135fa565b61304b57600190506131fe565b60008473ffffffffffffffffffffffffffffffffffffffff1663150b7a02338887876040518563ffffffff1660e01b8152600401808573ffffffffffffffffffffffffffffffffffffffff1673ffffffffffffffffffffffffffffffffffffffff1681526020018473ffffffffffffffffffffffffffffffffffffffff1673ffffffffffffffffffffffffffffffffffffffff16815260200183815260200180602001828103825283818151815260200191508051906020019080838360005b8381101561312657808201518184015260208101905061310b565b50505050905090810190601f1680156131535780820380516001836020036101000a031916815260200191505b5095505050505050602060405180830381600087803b15801561317557600080fd5b505af1158015613189573d6000803e3d6000fd5b505050506040513d602081101561319f57600080fd5b8101908080519060200190929190505050905063150b7a0260e01b7bffffffffffffffffffffffffffffffffffffffffffffffffffffffff1916817bffffffffffffffffffffffffffffffffffffffffffffffffffffffff1916149150505b949350505050565b613210828261360d565b6000601160008381526020019081526020016000208054600181600116156101000203166002900490501461325f5760116000828152602001908152602001600020600061325e919061406c565b5b5050565b61326d8282613647565b613277828261378d565b61328081613854565b5050565b61328d8261342b565b61329657600080fd5b806011600084815260200190815260200160002090805190602001906132bd9291906140b4565b505050565b600081600001549050919050565b6132e48160136138a090919063ffffffff16565b8073ffffffffffffffffffffffffffffffffffffffff167f6ae172837ea30b801fbfcdd4108aa1d5bf8ff775444fd70256b44e6bf3dfc3f660405160405180910390a250565b61333e81601361394c90919063ffffffff16565b8073ffffffffffffffffffffffffffffffffffffffff167fe94479a9f7e1952cc78f2d6baab678adc1b772d936c6583def489e524cb6669260405160405180910390a250565b60008073ffffffffffffffffffffffffffffffffffffffff168273ffffffffffffffffffffffffffffffffffffffff1614156133bf57600080fd5b8260000160008373ffffffffffffffffffffffffffffffffffffffff1673ffffffffffffffffffffffffffffffffffffffff16815260200190815260200160002060009054906101000a900460ff16905092915050565b600061342482600154613595565b9050919050565b6000806007600084815260200190815260200160002060009054906101000a900473ffffffffffffffffffffffffffffffffffffffff169050600073ffffffffffffffffffffffffffffffffffffffff168173ffffffffffffffffffffffffffffffffffffffff161415915050919050565b600073ffffffffffffffffffffffffffffffffffffffff168173ffffffffffffffffffffffffffffffffffffffff1614156134d757600080fd5b8073ffffffffffffffffffffffffffffffffffffffff166000809054906101000a900473ffffffffffffffffffffffffffffffffffffffff1673ffffffffffffffffffffffffffffffffffffffff167f8be0079c531659141344cd1fd0a4f28419497f9722a3daafe3b4186f6b6457e060405160405180910390a3806000806101000a81548173ffffffffffffffffffffffffffffffffffffffff021916908373ffffffffffffffffffffffffffffffffffffffff16021790555050565b60006040517f190100000000000000000000000000000000000000000000000000000000000081528260028201528360228201526042812091505092915050565b6135e18383836139f7565b6135eb8382613bba565b6135f5828261378d565b505050565b600080823b905060008111915050919050565b6136178282613d58565b6136218282613bba565b6000600c60008381526020019081526020016000208190555061364381613e9b565b5050565b600073ffffffffffffffffffffffffffffffffffffffff168273ffffffffffffffffffffffffffffffffffffffff16141561368157600080fd5b61368a8161342b565b1561369457600080fd5b816007600083815260200190815260200160002060006101000a81548173ffffffffffffffffffffffffffffffffffffffff021916908373ffffffffffffffffffffffffffffffffffffffff16021790555061372d600960008473ffffffffffffffffffffffffffffffffffffffff1673ffffffffffffffffffffffffffffffffffffffff168152602001908152602001600020613f55565b808273ffffffffffffffffffffffffffffffffffffffff16600073ffffffffffffffffffffffffffffffffffffffff167fddf252ad1be2c89b69c2b068fc378daa952ba7f163c4a11628f55a4df523b3ef60405160405180910390a45050565b600b60008373ffffffffffffffffffffffffffffffffffffffff1673ffffffffffffffffffffffffffffffffffffffff16815260200190815260200160002080549050600c600083815260200190815260200160002081905550600b60008373ffffffffffffffffffffffffffffffffffffffff1673ffffffffffffffffffffffffffffffffffffffff1681526020019081526020016000208190806001815401808255809150509060018203906000526020600020016000909192909190915055505050565b600d80549050600e600083815260200190815260200160002081905550600d81908060018154018082558091505090600182039060005260206000200160009091929091909150555050565b600073ffffffffffffffffffffffffffffffffffffffff168173ffffffffffffffffffffffffffffffffffffffff1614156138da57600080fd5b6138e48282613384565b156138ee57600080fd5b60018260000160008373ffffffffffffffffffffffffffffffffffffffff1673ffffffffffffffffffffffffffffffffffffffff16815260200190815260200160002060006101000a81548160ff0219169083151502179055505050565b600073ffffffffffffffffffffffffffffffffffffffff168173ffffffffffffffffffffffffffffffffffffffff16141561398657600080fd5b6139908282613384565b61399957600080fd5b60008260000160008373ffffffffffffffffffffffffffffffffffffffff1673ffffffffffffffffffffffffffffffffffffffff16815260200190815260200160002060006101000a81548160ff0219169083151502179055505050565b8273ffffffffffffffffffffffffffffffffffffffff16613a17826121c6565b73ffffffffffffffffffffffffffffffffffffffff1614613a3757600080fd5b600073ffffffffffffffffffffffffffffffffffffffff168273ffffffffffffffffffffffffffffffffffffffff161415613a7157600080fd5b613a7a81613f6b565b613ac1600960008573ffffffffffffffffffffffffffffffffffffffff1673ffffffffffffffffffffffffffffffffffffffff168152602001908152602001600020614029565b613b08600960008473ffffffffffffffffffffffffffffffffffffffff1673ffffffffffffffffffffffffffffffffffffffff168152602001908152602001600020613f55565b816007600083815260200190815260200160002060006101000a81548173ffffffffffffffffffffffffffffffffffffffff021916908373ffffffffffffffffffffffffffffffffffffffff160217905550808273ffffffffffffffffffffffffffffffffffffffff168473ffffffffffffffffffffffffffffffffffffffff167fddf252ad1be2c89b69c2b068fc378daa952ba7f163c4a11628f55a4df523b3ef60405160405180910390a4505050565b6000613c126001600b60008673ffffffffffffffffffffffffffffffffffffffff1673ffffffffffffffffffffffffffffffffffffffff1681526020019081526020016000208054905061404c90919063ffffffff16565b90506000600c6000848152602001908152602001600020549050818114613cff576000600b60008673ffffffffffffffffffffffffffffffffffffffff1673ffffffffffffffffffffffffffffffffffffffff1681526020019081526020016000208381548110613c7f57fe5b9060005260206000200154905080600b60008773ffffffffffffffffffffffffffffffffffffffff1673ffffffffffffffffffffffffffffffffffffffff1681526020019081526020016000208381548110613cd757fe5b906000526020600020018190555081600c600083815260200190815260200160002081905550505b600b60008573ffffffffffffffffffffffffffffffffffffffff1673ffffffffffffffffffffffffffffffffffffffff168152602001908152602001600020805480919060019003613d519190614134565b5050505050565b8173ffffffffffffffffffffffffffffffffffffffff16613d78826121c6565b73ffffffffffffffffffffffffffffffffffffffff1614613d9857600080fd5b613da181613f6b565b613de8600960008473ffffffffffffffffffffffffffffffffffffffff1673ffffffffffffffffffffffffffffffffffffffff168152602001908152602001600020614029565b60006007600083815260200190815260200160002060006101000a81548173ffffffffffffffffffffffffffffffffffffffff021916908373ffffffffffffffffffffffffffffffffffffffff16021790555080600073ffffffffffffffffffffffffffffffffffffffff168373ffffffffffffffffffffffffffffffffffffffff167fddf252ad1be2c89b69c2b068fc378daa952ba7f163c4a11628f55a4df523b3ef60405160405180910390a45050565b6000613eb66001600d8054905061404c90919063ffffffff16565b90506000600e60008481526020019081526020016000205490506000600d8381548110613edf57fe5b9060005260206000200154905080600d8381548110613efa57fe5b906000526020600020018190555081600e600083815260200190815260200160002081905550600d805480919060019003613f359190614134565b506000600e60008681526020019081526020016000208190555050505050565b6001816000016000828254019250508190555050565b600073ffffffffffffffffffffffffffffffffffffffff166008600083815260200190815260200160002060009054906101000a900473ffffffffffffffffffffffffffffffffffffffff1673ffffffffffffffffffffffffffffffffffffffff16146140265760006008600083815260200190815260200160002060006101000a81548173ffffffffffffffffffffffffffffffffffffffff021916908373ffffffffffffffffffffffffffffffffffffffff1602179055505b50565b6140416001826000015461404c90919063ffffffff16565b816000018190555050565b60008282111561405b57600080fd5b600082840390508091505092915050565b50805460018160011615610100020316600290046000825580601f1061409257506140b1565b601f0160209004906000526020600020908101906140b09190614160565b5b50565b828054600181600116156101000203166002900490600052602060002090601f016020900481019282601f106140f557805160ff1916838001178555614123565b82800160010185558215614123579182015b82811115614122578251825591602001919060010190614107565b5b5090506141309190614160565b5090565b81548183558181111561415b5781836000526020600020918201910161415a9190614160565b5b505050565b61418291905b8082111561417e576000816000905550600101614166565b5090565b9056fe4368696c6420746f6b656e3a206e657720706172656e74206164647265737320697320746865207a65726f2061646472657373454950373132446f6d61696e28737472696e67206e616d652c737472696e672076657273696f6e2c75696e7432353620636861696e49642c6164647265737320766572696679696e67436f6e74726163742953746174652073796e6365723a2063616c6c6572206973206e6f74207468652073746174652073796e63657220636f6e74726163744368696c6420746f6b656e3a206e6577206368696c64206164647265737320697320746865207a65726f2061646472657373546f6b656e5472616e736665724f726465722861646472657373207370656e6465722c75696e7432353620746f6b656e49644f72416d6f756e742c6279746573333220646174612c75696e743235362065787069726174696f6e294368696c6420746f6b656e3a2063616c6c6572206973206e6f7420746865206368696c6420636861696e20636f6e747261637453746174652073796e6365723a206e65772073746174652073796e636572206164647265737320697320746865207a65726f2061646472657373a265627a7a723158205b1083f579e5ba96b67a7d62362b11bb0293933c716e53c6c5451c91d6a002b364736f6c63430005110032454950373132446f6d61696e28737472696e67206e616d652c737472696e672076657273696f6e2c75696e7432353620636861696e49642c6164647265737320766572696679696e67436f6e747261637429",
  "linkReferences": {},
  "deployedLinkReferences": {}
}