{
  "_format": "hh-sol-artifact-1",
  "contractName": "ERC20PredicateBurnOnly",
  "sourceName": "contracts/root/predicates/ERC20PredicateBurnOnly.sol",
  "abi": [
    {
      "inputs": [
        {
          "internalType": "address",
          "name": "_withdrawManager",
          "type": "address"
        },
        {
          "internalType": "address",
          "name": "_depositManager",
          "type": "address"
        },
        {
          "internalType": "address",
          "name": "_registry",
          "type": "address"
        }
      ],
      "payable": false,
      "stateMutability": "nonpayable",
      "type": "constructor"
    },
    {
      "constant": true,
      "inputs": [],
      "name": "CHAINID",
      "outputs": [
        {
          "internalType": "uint256",
          "name": "",
          "type": "uint256"
        }
      ],
      "payable": false,
      "stateMutability": "view",
      "type": "function"
    },
    {
      "constant": true,
      "inputs": [
        {
          "internalType": "bytes",
          "name": "state",
          "type": "bytes"
        }
      ],
      "name": "interpretStateUpdate",
      "outputs": [
        {
          "internalType": "bytes",
          "name": "",
          "type": "bytes"
        }
      ],
      "payable": false,
      "stateMutability": "view",
      "type": "function"
    },
    {
      "constant": true,
      "inputs": [],
      "name": "networkId",
      "outputs": [
        {
          "internalType": "bytes",
          "name": "",
          "type": "bytes"
        }
      ],
      "payable": false,
      "stateMutability": "view",
      "type": "function"
    },
    {
      "constant": false,
      "inputs": [
        {
          "internalType": "bytes",
          "name": "data",
          "type": "bytes"
        }
      ],
      "name": "onFinalizeExit",
      "outputs": [],
      "payable": false,
      "stateMutability": "nonpayable",
      "type": "function"
    },
    {
      "constant": false,
      "inputs": [
        {
          "internalType": "bytes",
          "name": "data",
          "type": "bytes"
        }
      ],
      "name": "startExitWithBurntTokens",
      "outputs": [],
      "payable": false,
      "stateMutability": "nonpayable",
      "type": "function"
    },
    {
      "constant": false,
      "inputs": [
        {
          "internalType": "bytes",
          "name": "exit",
          "type": "bytes"
        },
        {
          "internalType": "bytes",
          "name": "inputUtxo",
          "type": "bytes"
        },
        {
          "internalType": "bytes",
          "name": "challengeData",
          "type": "bytes"
        }
      ],
      "name": "verifyDeprecation",
      "outputs": [
        {
          "internalType": "bool",
          "name": "",
          "type": "bool"
        }
      ],
      "payable": false,
      "stateMutability": "nonpayable",
      "type": "function"
    }
  ],
  "bytecode": "0x608060405234801561001057600080fd5b506040516113223803806113228339818101604052606081101561003357600080fd5b810190808051906020019092919080519060200190929190805190602001909291905050508282816000806101000a81548173ffffffffffffffffffffffffffffffffffffffff021916908373ffffffffffffffffffffffffffffffffffffffff16021790555080600160006101000a81548173ffffffffffffffffffffffffffffffffffffffff021916908373ffffffffffffffffffffffffffffffffffffffff160217905550505080600260006101000a81548173ffffffffffffffffffffffffffffffffffffffff021916908373ffffffffffffffffffffffffffffffffffffffff1602179055505050506111f2806101306000396000f3fe608060405234801561001057600080fd5b50600436106100625760003560e01c80637bd94e03146100675780637c5264b4146100e057806382e3464c146101595780639025e64c1461024b578063cc79f97b146102ce578063ec58410c146102ec575b600080fd5b6100de6004803603602081101561007d57600080fd5b810190808035906020019064010000000081111561009a57600080fd5b8201836020820111156100ac57600080fd5b803590602001918460018302840111640100000000831117156100ce57600080fd5b9091929391929390505050610427565b005b610157600480360360208110156100f657600080fd5b810190808035906020019064010000000081111561011357600080fd5b82018360208201111561012557600080fd5b8035906020019184600183028401116401000000008311171561014757600080fd5b909192939192939050505061063e565b005b6101d06004803603602081101561016f57600080fd5b810190808035906020019064010000000081111561018c57600080fd5b82018360208201111561019e57600080fd5b803590602001918460018302840111640100000000831117156101c057600080fd5b9091929391929390505050610bd3565b6040518080602001828103825283818151815260200191508051906020019080838360005b838110156102105780820151818401526020810190506101f5565b50505050905090810190601f16801561023d5780820380516001836020036101000a031916815260200191505b509250505060405180910390f35b610253610bdb565b6040518080602001828103825283818151815260200191508051906020019080838360005b83811015610293578082015181840152602081019050610278565b50505050905090810190601f1680156102c05780820380516001836020036101000a031916815260200191505b509250505060405180910390f35b6102d6610c14565b6040518082815260200191505060405180910390f35b61040d6004803603606081101561030257600080fd5b810190808035906020019064010000000081111561031f57600080fd5b82018360208201111561033157600080fd5b8035906020019184600183028401116401000000008311171561035357600080fd5b90919293919293908035906020019064010000000081111561037457600080fd5b82018360208201111561038657600080fd5b803590602001918460018302840111640100000000831117156103a857600080fd5b9091929391929390803590602001906401000000008111156103c957600080fd5b8201836020820111156103db57600080fd5b803590602001918460018302840111640100000000831117156103fd57600080fd5b9091929391929390505050610c1b565b604051808215151515815260200191505060405180910390f35b6000809054906101000a900473ffffffffffffffffffffffffffffffffffffffff1673ffffffffffffffffffffffffffffffffffffffff163373ffffffffffffffffffffffffffffffffffffffff16146104e9576040517f08c379a00000000000000000000000000000000000000000000000000000000081526004018080602001828103825260158152602001807f4f4e4c595f57495448445241575f4d414e41474552000000000000000000000081525060200191505060405180910390fd5b600080600061053b85858080601f016020809104026020016040519081016040528093929190818152602001838380828437600081840152601f19601f82011690508083019250505050505050610c27565b93509350935050600160009054906101000a900473ffffffffffffffffffffffffffffffffffffffff1673ffffffffffffffffffffffffffffffffffffffff166349f4cc178484846040518463ffffffff1660e01b8152600401808473ffffffffffffffffffffffffffffffffffffffff1673ffffffffffffffffffffffffffffffffffffffff1681526020018373ffffffffffffffffffffffffffffffffffffffff1673ffffffffffffffffffffffffffffffffffffffff1681526020018281526020019350505050600060405180830381600087803b15801561061f57600080fd5b505af1158015610633573d6000803e3d6000fd5b505050505050505050565b606061069561069084848080601f016020809104026020016040519081016040528093929190818152602001838380828437600081840152601f19601f82011690508083019250505050505050610c8e565b610cbc565b905060606106b6826006815181106106a957fe5b6020026020010151610d99565b905060606106cb6106c683610c8e565b610cbc565b905060006106ec846009815181106106df57fe5b6020026020010151610e13565b9050600a8110610764576040517f08c379a000000000000000000000000000000000000000000000000000000000815260040180806020018281038252601b8152602001807f537570706f7274696e672061206d6178206f66203130206c6f6773000000000081525060200191505060405180910390fd5b60008060009054906101000a900473ffffffffffffffffffffffffffffffffffffffff1673ffffffffffffffffffffffffffffffffffffffff1663ad1d806988886000806040518563ffffffff1660e01b815260040180806020018460ff168152602001831515151581526020018281038252868682818152602001925080828437600081840152601f19601f8201169050808301925050509550505050505060206040518083038186803b15801561081c57600080fd5b505afa158015610830573d6000803e3d6000fd5b505050506040513d602081101561084657600080fd5b810190808051906020019092919050505090506108916108798460038151811061086c57fe5b6020026020010151610cbc565b838151811061088457fe5b6020026020010151610cbc565b925060006108b2846000815181106108a557fe5b6020026020010151610e6d565b905060606108d3856002815181106108c657fe5b6020026020010151610d99565b90506108f2856001815181106108e557fe5b6020026020010151610cbc565b94507febff2602b3f468259e1e99f613fed6691f3a6526effe6ef3e768ba7ae7a36c4f60001b6109358660008151811061092857fe5b6020026020010151610e13565b60001b146109ab576040517f08c379a000000000000000000000000000000000000000000000000000000000815260040180806020018281038252601e8152602001807f4e6f742061207769746864726177206576656e74207369676e6174757265000081525060200191505060405180910390fd5b60006109ca866001815181106109bd57fe5b6020026020010151610e13565b90506109e9866002815181106109dc57fe5b6020026020010151610e13565b73ffffffffffffffffffffffffffffffffffffffff163373ffffffffffffffffffffffffffffffffffffffff1614610a6c576040517f08c379a00000000000000000000000000000000000000000000000000000000081526004018080602001828103825260288152602001806111966028913960400191505060405180910390fd5b6000610a79836000610e90565b90506000809054906101000a900473ffffffffffffffffffffffffffffffffffffffff1673ffffffffffffffffffffffffffffffffffffffff1663d931a869338685856000801b6001808d901b6040518863ffffffff1660e01b8152600401808873ffffffffffffffffffffffffffffffffffffffff1673ffffffffffffffffffffffffffffffffffffffff1681526020018773ffffffffffffffffffffffffffffffffffffffff1673ffffffffffffffffffffffffffffffffffffffff1681526020018673ffffffffffffffffffffffffffffffffffffffff1673ffffffffffffffffffffffffffffffffffffffff16815260200185815260200184815260200183151515158152602001828152602001975050505050505050600060405180830381600087803b158015610bae57600080fd5b505af1158015610bc2573d6000803e3d6000fd5b505050505050505050505050505050565b606092915050565b6040518060400160405280600381526020017f013881000000000000000000000000000000000000000000000000000000000081525081565b6201388181565b60009695505050505050565b600080600080848060200190516080811015610c4257600080fd5b8101908080519060200190929190805190602001909291908051906020019092919080519060200190929190505050829250819150809450819550829650839750505050509193509193565b610c96611161565b600060208301905060405180604001604052808451815260200182815250915050919050565b6060610cc782610eb8565b610cd057600080fd5b6000610cdb83610f06565b9050606081604051908082528060200260200182016040528015610d1957816020015b610d0661117b565b815260200190600190039081610cfe5790505b5090506000610d2b8560200151610f77565b8560200151019050600080600090505b84811015610d8c57610d4c83611000565b9150604051806040016040528083815260200184815250848281518110610d6f57fe5b602002602001018190525081830192508080600101915050610d3b565b5082945050505050919050565b60606000826000015111610dac57600080fd5b600080610db8846110b8565b915091506060816040519080825280601f01601f191660200182016040528015610df15781602001600182028038833980820191505090505b5090506000816020019050610e078482856110f0565b81945050505050919050565b6000808260000151118015610e2d57506021826000015111155b610e3657600080fd5b600080610e42846110b8565b915091506000825190506020821015610e6257816020036101000a810490505b809350505050919050565b60006015826000015114610e8057600080fd5b610e8982610e13565b9050919050565b60006020820183511015610ea357600080fd5b60008260208501015190508091505092915050565b60008082600001511415610ecf5760009050610f01565b60008083602001519050805160001a915060c060ff168260ff161015610efa57600092505050610f01565b6001925050505b919050565b60008082600001511415610f1d5760009050610f72565b60008090506000610f318460200151610f77565b84602001510190506000846000015185602001510190505b80821015610f6b57610f5a82611000565b820191508280600101935050610f49565b8293505050505b919050565b600080825160001a9050608060ff16811015610f97576000915050610ffb565b60b860ff16811080610fbc575060c060ff168110158015610fbb575060f860ff1681105b5b15610fcb576001915050610ffb565b60c060ff16811015610feb5760018060b80360ff16820301915050610ffb565b60018060f80360ff168203019150505b919050565b6000806000835160001a9050608060ff1681101561102157600191506110ae565b60b860ff1681101561103e576001608060ff1682030191506110ad565b60c060ff1681101561106e5760b78103600185019450806020036101000a855104600182018101935050506110ac565b60f860ff1681101561108b57600160c060ff1682030191506110ab565b60f78103600185019450806020036101000a855104600182018101935050505b5b5b5b8192505050919050565b60008060006110ca8460200151610f77565b905060008185602001510190506000828660000151039050818194509450505050915091565b60008114156110fe5761115c565b5b602060ff16811061112e5782518252602060ff1683019250602060ff1682019150602060ff16810390506110ff565b600081111561115b576000600182602060ff16036101000a03905080198451168184511681811785525050505b5b505050565b604051806040016040528060008152602001600081525090565b60405180604001604052806000815260200160008152509056fe5769746864726177657220616e64206275726e206578697420747820646f206e6f74206d61746368a265627a7a72315820a9f8f7ff24acbe8dba4b82657bce4a1dcf278520514c2614928945b84dc5851864736f6c63430005110032",
  "linkReferences": {},
  "deployedLinkReferences": {}
}