{
  "_format": "hh-sol-artifact-1",
  "contractName": "StakingInfo",
  "sourceName": "contracts/staking/StakingInfo.sol",
  "abi": [
    {
      "inputs": [
        {
          "internalType": "address",
          "name": "_registry",
          "type": "address"
        }
      ],
      "payable": false,
      "stateMutability": "nonpayable",
      "type": "constructor"
    },
    {
      "anonymous": false,
      "inputs": [
        {
          "indexed": true,
          "internalType": "address",
          "name": "user",
          "type": "address"
        },
        {
          "indexed": true,
          "internalType": "uint256",
          "name": "fee",
          "type": "uint256"
        }
      ],
      "name": "ClaimFee",
      "type": "event"
    },
    {
      "anonymous": false,
      "inputs": [
        {
          "indexed": true,
          "internalType": "uint256",
          "name": "validatorId",
          "type": "uint256"
        },
        {
          "indexed": true,
          "internalType": "uint256",
          "name": "amount",
          "type": "uint256"
        },
        {
          "indexed": true,
          "internalType": "uint256",
          "name": "totalAmount",
          "type": "uint256"
        }
      ],
      "name": "ClaimRewards",
      "type": "event"
    },
    {
      "anonymous": false,
      "inputs": [
        {
          "indexed": true,
          "internalType": "uint256",
          "name": "newValidatorId",
          "type": "uint256"
        },
        {
          "indexed": true,
          "internalType": "uint256",
          "name": "oldValidatorId",
          "type": "uint256"
        },
        {
          "indexed": true,
          "internalType": "uint256",
          "name": "amount",
          "type": "uint256"
        }
      ],
      "name": "ConfirmAuction",
      "type": "event"
    },
    {
      "anonymous": false,
      "inputs": [
        {
          "indexed": true,
          "internalType": "uint256",
          "name": "validatorId",
          "type": "uint256"
        },
        {
          "indexed": true,
          "internalType": "address",
          "name": "user",
          "type": "address"
        },
        {
          "indexed": true,
          "internalType": "uint256",
          "name": "rewards",
          "type": "uint256"
        }
      ],
      "name": "DelegatorClaimedRewards",
      "type": "event"
    },
    {
      "anonymous": false,
      "inputs": [
        {
          "indexed": true,
          "internalType": "uint256",
          "name": "validatorId",
          "type": "uint256"
        },
        {
          "indexed": true,
          "internalType": "address",
          "name": "user",
          "type": "address"
        },
        {
          "indexed": true,
          "internalType": "uint256",
          "name": "totalStaked",
          "type": "uint256"
        }
      ],
      "name": "DelegatorRestaked",
      "type": "event"
    },
    {
      "anonymous": false,
      "inputs": [
        {
          "indexed": true,
          "internalType": "uint256",
          "name": "validatorId",
          "type": "uint256"
        },
        {
          "indexed": true,
          "internalType": "address",
          "name": "user",
          "type": "address"
        },
        {
          "indexed": false,
          "internalType": "uint256",
          "name": "amount",
          "type": "uint256"
        }
      ],
      "name": "DelegatorUnstaked",
      "type": "event"
    },
    {
      "anonymous": false,
      "inputs": [
        {
          "indexed": false,
          "internalType": "uint256",
          "name": "newDynasty",
          "type": "uint256"
        },
        {
          "indexed": false,
          "internalType": "uint256",
          "name": "oldDynasty",
          "type": "uint256"
        }
      ],
      "name": "DynastyValueChange",
      "type": "event"
    },
    {
      "anonymous": false,
      "inputs": [
        {
          "indexed": true,
          "internalType": "uint256",
          "name": "validatorId",
          "type": "uint256"
        },
        {
          "indexed": true,
          "internalType": "uint256",
          "name": "exitEpoch",
          "type": "uint256"
        },
        {
          "indexed": true,
          "internalType": "address",
          "name": "signer",
          "type": "address"
        }
      ],
      "name": "Jailed",
      "type": "event"
    },
    {
      "anonymous": false,
      "inputs": [
        {
          "indexed": true,
          "internalType": "address",
          "name": "previousOwner",
          "type": "address"
        },
        {
          "indexed": true,
          "internalType": "address",
          "name": "newOwner",
          "type": "address"
        }
      ],
      "name": "OwnershipTransferred",
      "type": "event"
    },
    {
      "anonymous": false,
      "inputs": [
        {
          "indexed": false,
          "internalType": "uint256",
          "name": "newProposerBonus",
          "type": "uint256"
        },
        {
          "indexed": false,
          "internalType": "uint256",
          "name": "oldProposerBonus",
          "type": "uint256"
        }
      ],
      "name": "ProposerBonusChange",
      "type": "event"
    },
    {
      "anonymous": false,
      "inputs": [
        {
          "indexed": true,
          "internalType": "uint256",
          "name": "validatorId",
          "type": "uint256"
        },
        {
          "indexed": false,
          "internalType": "uint256",
          "name": "amount",
          "type": "uint256"
        },
        {
          "indexed": false,
          "internalType": "uint256",
          "name": "total",
          "type": "uint256"
        }
      ],
      "name": "Restaked",
      "type": "event"
    },
    {
      "anonymous": false,
      "inputs": [
        {
          "indexed": false,
          "internalType": "uint256",
          "name": "newReward",
          "type": "uint256"
        },
        {
          "indexed": false,
          "internalType": "uint256",
          "name": "oldReward",
          "type": "uint256"
        }
      ],
      "name": "RewardUpdate",
      "type": "event"
    },
    {
      "anonymous": false,
      "inputs": [
        {
          "indexed": true,
          "internalType": "uint256",
          "name": "validatorId",
          "type": "uint256"
        },
        {
          "indexed": true,
          "internalType": "address",
          "name": "user",
          "type": "address"
        },
        {
          "indexed": true,
          "internalType": "uint256",
          "name": "amount",
          "type": "uint256"
        },
        {
          "indexed": false,
          "internalType": "uint256",
          "name": "tokens",
          "type": "uint256"
        }
      ],
      "name": "ShareBurned",
      "type": "event"
    },
    {
      "anonymous": false,
      "inputs": [
        {
          "indexed": true,
          "internalType": "uint256",
          "name": "validatorId",
          "type": "uint256"
        },
        {
          "indexed": true,
          "internalType": "address",
          "name": "user",
          "type": "address"
        },
        {
          "indexed": true,
          "internalType": "uint256",
          "name": "amount",
          "type": "uint256"
        },
        {
          "indexed": false,
          "internalType": "uint256",
          "name": "tokens",
          "type": "uint256"
        }
      ],
      "name": "ShareMinted",
      "type": "event"
    },
    {
      "anonymous": false,
      "inputs": [
        {
          "indexed": true,
          "internalType": "uint256",
          "name": "validatorId",
          "type": "uint256"
        },
        {
          "indexed": false,
          "internalType": "uint256",
          "name": "nonce",
          "type": "uint256"
        },
        {
          "indexed": true,
          "internalType": "address",
          "name": "oldSigner",
          "type": "address"
        },
        {
          "indexed": true,
          "internalType": "address",
          "name": "newSigner",
          "type": "address"
        },
        {
          "indexed": false,
          "internalType": "bytes",
          "name": "signerPubkey",
          "type": "bytes"
        }
      ],
      "name": "SignerChange",
      "type": "event"
    },
    {
      "anonymous": false,
      "inputs": [
        {
          "indexed": true,
          "internalType": "uint256",
          "name": "nonce",
          "type": "uint256"
        },
        {
          "indexed": true,
          "internalType": "uint256",
          "name": "amount",
          "type": "uint256"
        }
      ],
      "name": "Slashed",
      "type": "event"
    },
    {
      "anonymous": false,
      "inputs": [
        {
          "indexed": true,
          "internalType": "uint256",
          "name": "validatorId",
          "type": "uint256"
        },
        {
          "indexed": true,
          "internalType": "uint256",
          "name": "nonce",
          "type": "uint256"
        },
        {
          "indexed": true,
          "internalType": "uint256",
          "name": "newAmount",
          "type": "uint256"
        }
      ],
      "name": "StakeUpdate",
      "type": "event"
    },
    {
      "anonymous": false,
      "inputs": [
        {
          "indexed": true,
          "internalType": "address",
          "name": "signer",
          "type": "address"
        },
        {
          "indexed": true,
          "internalType": "uint256",
          "name": "validatorId",
          "type": "uint256"
        },
        {
          "indexed": false,
          "internalType": "uint256",
          "name": "nonce",
          "type": "uint256"
        },
        {
          "indexed": true,
          "internalType": "uint256",
          "name": "activationEpoch",
          "type": "uint256"
        },
        {
          "indexed": false,
          "internalType": "uint256",
          "name": "amount",
          "type": "uint256"
        },
        {
          "indexed": false,
          "internalType": "uint256",
          "name": "total",
          "type": "uint256"
        },
        {
          "indexed": false,
          "internalType": "bytes",
          "name": "signerPubkey",
          "type": "bytes"
        }
      ],
      "name": "Staked",
      "type": "event"
    },
    {
      "anonymous": false,
      "inputs": [
        {
          "indexed": true,
          "internalType": "uint256",
          "name": "validatorId",
          "type": "uint256"
        },
        {
          "indexed": true,
          "internalType": "uint256",
          "name": "amount",
          "type": "uint256"
        },
        {
          "indexed": true,
          "internalType": "uint256",
          "name": "auctionAmount",
          "type": "uint256"
        }
      ],
      "name": "StartAuction",
      "type": "event"
    },
    {
      "anonymous": false,
      "inputs": [
        {
          "indexed": false,
          "internalType": "uint256",
          "name": "newThreshold",
          "type": "uint256"
        },
        {
          "indexed": false,
          "internalType": "uint256",
          "name": "oldThreshold",
          "type": "uint256"
        }
      ],
      "name": "ThresholdChange",
      "type": "event"
    },
    {
      "anonymous": false,
      "inputs": [
        {
          "indexed": true,
          "internalType": "address",
          "name": "user",
          "type": "address"
        },
        {
          "indexed": true,
          "internalType": "uint256",
          "name": "fee",
          "type": "uint256"
        }
      ],
      "name": "TopUpFee",
      "type": "event"
    },
    {
      "anonymous": false,
      "inputs": [
        {
          "indexed": true,
          "internalType": "uint256",
          "name": "validatorId",
          "type": "uint256"
        },
        {
          "indexed": true,
          "internalType": "address",
          "name": "signer",
          "type": "address"
        }
      ],
      "name": "UnJailed",
      "type": "event"
    },
    {
      "anonymous": false,
      "inputs": [
        {
          "indexed": true,
          "internalType": "address",
          "name": "user",
          "type": "address"
        },
        {
          "indexed": true,
          "internalType": "uint256",
          "name": "validatorId",
          "type": "uint256"
        },
        {
          "indexed": false,
          "internalType": "uint256",
          "name": "nonce",
          "type": "uint256"
        },
        {
          "indexed": false,
          "internalType": "uint256",
          "name": "deactivationEpoch",
          "type": "uint256"
        },
        {
          "indexed": true,
          "internalType": "uint256",
          "name": "amount",
          "type": "uint256"
        }
      ],
      "name": "UnstakeInit",
      "type": "event"
    },
    {
      "anonymous": false,
      "inputs": [
        {
          "indexed": true,
          "internalType": "address",
          "name": "user",
          "type": "address"
        },
        {
          "indexed": true,
          "internalType": "uint256",
          "name": "validatorId",
          "type": "uint256"
        },
        {
          "indexed": false,
          "internalType": "uint256",
          "name": "amount",
          "type": "uint256"
        },
        {
          "indexed": false,
          "internalType": "uint256",
          "name": "total",
          "type": "uint256"
        }
      ],
      "name": "Unstaked",
      "type": "event"
    },
    {
      "anonymous": false,
      "inputs": [
        {
          "indexed": true,
          "internalType": "uint256",
          "name": "validatorId",
          "type": "uint256"
        },
        {
          "indexed": true,
          "internalType": "uint256",
          "name": "newCommissionRate",
          "type": "uint256"
        },
        {
          "indexed": true,
          "internalType": "uint256",
          "name": "oldCommissionRate",
          "type": "uint256"
        }
      ],
      "name": "UpdateCommissionRate",
      "type": "event"
    },
    {
      "constant": true,
      "inputs": [],
      "name": "getAccountStateRoot",
      "outputs": [
        {
          "internalType": "bytes32",
          "name": "accountStateRoot",
          "type": "bytes32"
        }
      ],
      "payable": false,
      "stateMutability": "view",
      "type": "function"
    },
    {
      "constant": true,
      "inputs": [
        {
          "internalType": "uint256",
          "name": "validatorId",
          "type": "uint256"
        }
      ],
      "name": "getStakerDetails",
      "outputs": [
        {
          "internalType": "uint256",
          "name": "amount",
          "type": "uint256"
        },
        {
          "internalType": "uint256",
          "name": "reward",
          "type": "uint256"
        },
        {
          "internalType": "uint256",
          "name": "activationEpoch",
          "type": "uint256"
        },
        {
          "internalType": "uint256",
          "name": "deactivationEpoch",
          "type": "uint256"
        },
        {
          "internalType": "address",
          "name": "signer",
          "type": "address"
        },
        {
          "internalType": "uint256",
          "name": "_status",
          "type": "uint256"
        }
      ],
      "payable": false,
      "stateMutability": "view",
      "type": "function"
    },
    {
      "constant": true,
      "inputs": [
        {
          "internalType": "uint256",
          "name": "validatorId",
          "type": "uint256"
        }
      ],
      "name": "getValidatorContractAddress",
      "outputs": [
        {
          "internalType": "address",
          "name": "ValidatorContract",
          "type": "address"
        }
      ],
      "payable": false,
      "stateMutability": "view",
      "type": "function"
    },
    {
      "constant": true,
      "inputs": [],
      "name": "isOwner",
      "outputs": [
        {
          "internalType": "bool",
          "name": "",
          "type": "bool"
        }
      ],
      "payable": false,
      "stateMutability": "view",
      "type": "function"
    },
    {
      "constant": false,
      "inputs": [
        {
          "internalType": "address",
          "name": "user",
          "type": "address"
        },
        {
          "internalType": "uint256",
          "name": "fee",
          "type": "uint256"
        }
      ],
      "name": "logClaimFee",
      "outputs": [],
      "payable": false,
      "stateMutability": "nonpayable",
      "type": "function"
    },
    {
      "constant": false,
      "inputs": [
        {
          "internalType": "uint256",
          "name": "validatorId",
          "type": "uint256"
        },
        {
          "internalType": "uint256",
          "name": "amount",
          "type": "uint256"
        },
        {
          "internalType": "uint256",
          "name": "totalAmount",
          "type": "uint256"
        }
      ],
      "name": "logClaimRewards",
      "outputs": [],
      "payable": false,
      "stateMutability": "nonpayable",
      "type": "function"
    },
    {
      "constant": false,
      "inputs": [
        {
          "internalType": "uint256",
          "name": "newValidatorId",
          "type": "uint256"
        },
        {
          "internalType": "uint256",
          "name": "oldValidatorId",
          "type": "uint256"
        },
        {
          "internalType": "uint256",
          "name": "amount",
          "type": "uint256"
        }
      ],
      "name": "logConfirmAuction",
      "outputs": [],
      "payable": false,
      "stateMutability": "nonpayable",
      "type": "function"
    },
    {
      "constant": false,
      "inputs": [
        {
          "internalType": "uint256",
          "name": "validatorId",
          "type": "uint256"
        },
        {
          "internalType": "address",
          "name": "user",
          "type": "address"
        },
        {
          "internalType": "uint256",
          "name": "rewards",
          "type": "uint256"
        }
      ],
      "name": "logDelegatorClaimRewards",
      "outputs": [],
      "payable": false,
      "stateMutability": "nonpayable",
      "type": "function"
    },
    {
      "constant": false,
      "inputs": [
        {
          "internalType": "uint256",
          "name": "validatorId",
          "type": "uint256"
        },
        {
          "internalType": "address",
          "name": "user",
          "type": "address"
        },
        {
          "internalType": "uint256",
          "name": "totalStaked",
          "type": "uint256"
        }
      ],
      "name": "logDelegatorRestaked",
      "outputs": [],
      "payable": false,
      "stateMutability": "nonpayable",
      "type": "function"
    },
    {
      "constant": false,
      "inputs": [
        {
          "internalType": "uint256",
          "name": "validatorId",
          "type": "uint256"
        },
        {
          "internalType": "address",
          "name": "user",
          "type": "address"
        },
        {
          "internalType": "uint256",
          "name": "amount",
          "type": "uint256"
        }
      ],
      "name": "logDelegatorUnstaked",
      "outputs": [],
      "payable": false,
      "stateMutability": "nonpayable",
      "type": "function"
    },
    {
      "constant": false,
      "inputs": [
        {
          "internalType": "uint256",
          "name": "newDynasty",
          "type": "uint256"
        },
        {
          "internalType": "uint256",
          "name": "oldDynasty",
          "type": "uint256"
        }
      ],
      "name": "logDynastyValueChange",
      "outputs": [],
      "payable": false,
      "stateMutability": "nonpayable",
      "type": "function"
    },
    {
      "constant": false,
      "inputs": [
        {
          "internalType": "uint256",
          "name": "validatorId",
          "type": "uint256"
        },
        {
          "internalType": "uint256",
          "name": "exitEpoch",
          "type": "uint256"
        },
        {
          "internalType": "address",
          "name": "signer",
          "type": "address"
        }
      ],
      "name": "logJailed",
      "outputs": [],
      "payable": false,
      "stateMutability": "nonpayable",
      "type": "function"
    },
    {
      "constant": false,
      "inputs": [
        {
          "internalType": "uint256",
          "name": "newProposerBonus",
          "type": "uint256"
        },
        {
          "internalType": "uint256",
          "name": "oldProposerBonus",
          "type": "uint256"
        }
      ],
      "name": "logProposerBonusChange",
      "outputs": [],
      "payable": false,
      "stateMutability": "nonpayable",
      "type": "function"
    },
    {
      "constant": false,
      "inputs": [
        {
          "internalType": "uint256",
          "name": "validatorId",
          "type": "uint256"
        },
        {
          "internalType": "uint256",
          "name": "amount",
          "type": "uint256"
        },
        {
          "internalType": "uint256",
          "name": "total",
          "type": "uint256"
        }
      ],
      "name": "logRestaked",
      "outputs": [],
      "payable": false,
      "stateMutability": "nonpayable",
      "type": "function"
    },
    {
      "constant": false,
      "inputs": [
        {
          "internalType": "uint256",
          "name": "newReward",
          "type": "uint256"
        },
        {
          "internalType": "uint256",
          "name": "oldReward",
          "type": "uint256"
        }
      ],
      "name": "logRewardUpdate",
      "outputs": [],
      "payable": false,
      "stateMutability": "nonpayable",
      "type": "function"
    },
    {
      "constant": false,
      "inputs": [
        {
          "internalType": "uint256",
          "name": "validatorId",
          "type": "uint256"
        },
        {
          "internalType": "address",
          "name": "user",
          "type": "address"
        },
        {
          "internalType": "uint256",
          "name": "amount",
          "type": "uint256"
        },
        {
          "internalType": "uint256",
          "name": "tokens",
          "type": "uint256"
        }
      ],
      "name": "logShareBurned",
      "outputs": [],
      "payable": false,
      "stateMutability": "nonpayable",
      "type": "function"
    },
    {
      "constant": false,
      "inputs": [
        {
          "internalType": "uint256",
          "name": "validatorId",
          "type": "uint256"
        },
        {
          "internalType": "address",
          "name": "user",
          "type": "address"
        },
        {
          "internalType": "uint256",
          "name": "amount",
          "type": "uint256"
        },
        {
          "internalType": "uint256",
          "name": "tokens",
          "type": "uint256"
        }
      ],
      "name": "logShareMinted",
      "outputs": [],
      "payable": false,
      "stateMutability": "nonpayable",
      "type": "function"
    },
    {
      "constant": false,
      "inputs": [
        {
          "internalType": "uint256",
          "name": "validatorId",
          "type": "uint256"
        },
        {
          "internalType": "address",
          "name": "oldSigner",
          "type": "address"
        },
        {
          "internalType": "address",
          "name": "newSigner",
          "type": "address"
        },
        {
          "internalType": "bytes",
          "name": "signerPubkey",
          "type": "bytes"
        }
      ],
      "name": "logSignerChange",
      "outputs": [],
      "payable": false,
      "stateMutability": "nonpayable",
      "type": "function"
    },
    {
      "constant": false,
      "inputs": [
        {
          "internalType": "uint256",
          "name": "nonce",
          "type": "uint256"
        },
        {
          "internalType": "uint256",
          "name": "amount",
          "type": "uint256"
        }
      ],
      "name": "logSlashed",
      "outputs": [],
      "payable": false,
      "stateMutability": "nonpayable",
      "type": "function"
    },
    {
      "constant": false,
      "inputs": [
        {
          "internalType": "uint256",
          "name": "validatorId",
          "type": "uint256"
        }
      ],
      "name": "logStakeUpdate",
      "outputs": [],
      "payable": false,
      "stateMutability": "nonpayable",
      "type": "function"
    },
    {
      "constant": false,
      "inputs": [
        {
          "internalType": "address",
          "name": "signer",
          "type": "address"
        },
        {
          "internalType": "bytes",
          "name": "signerPubkey",
          "type": "bytes"
        },
        {
          "internalType": "uint256",
          "name": "validatorId",
          "type": "uint256"
        },
        {
          "internalType": "uint256",
          "name": "activationEpoch",
          "type": "uint256"
        },
        {
          "internalType": "uint256",
          "name": "amount",
          "type": "uint256"
        },
        {
          "internalType": "uint256",
          "name": "total",
          "type": "uint256"
        }
      ],
      "name": "logStaked",
      "outputs": [],
      "payable": false,
      "stateMutability": "nonpayable",
      "type": "function"
    },
    {
      "constant": false,
      "inputs": [
        {
          "internalType": "uint256",
          "name": "validatorId",
          "type": "uint256"
        },
        {
          "internalType": "uint256",
          "name": "amount",
          "type": "uint256"
        },
        {
          "internalType": "uint256",
          "name": "auctionAmount",
          "type": "uint256"
        }
      ],
      "name": "logStartAuction",
      "outputs": [],
      "payable": false,
      "stateMutability": "nonpayable",
      "type": "function"
    },
    {
      "constant": false,
      "inputs": [
        {
          "internalType": "uint256",
          "name": "newThreshold",
          "type": "uint256"
        },
        {
          "internalType": "uint256",
          "name": "oldThreshold",
          "type": "uint256"
        }
      ],
      "name": "logThresholdChange",
      "outputs": [],
      "payable": false,
      "stateMutability": "nonpayable",
      "type": "function"
    },
    {
      "constant": false,
      "inputs": [
        {
          "internalType": "address",
          "name": "user",
          "type": "address"
        },
        {
          "internalType": "uint256",
          "name": "fee",
          "type": "uint256"
        }
      ],
      "name": "logTopUpFee",
      "outputs": [],
      "payable": false,
      "stateMutability": "nonpayable",
      "type": "function"
    },
    {
      "constant": false,
      "inputs": [
        {
          "internalType": "uint256",
          "name": "validatorId",
          "type": "uint256"
        },
        {
          "internalType": "address",
          "name": "signer",
          "type": "address"
        }
      ],
      "name": "logUnjailed",
      "outputs": [],
      "payable": false,
      "stateMutability": "nonpayable",
      "type": "function"
    },
    {
      "constant": false,
      "inputs": [
        {
          "internalType": "address",
          "name": "user",
          "type": "address"
        },
        {
          "internalType": "uint256",
          "name": "validatorId",
          "type": "uint256"
        },
        {
          "internalType": "uint256",
          "name": "deactivationEpoch",
          "type": "uint256"
        },
        {
          "internalType": "uint256",
          "name": "amount",
          "type": "uint256"
        }
      ],
      "name": "logUnstakeInit",
      "outputs": [],
      "payable": false,
      "stateMutability": "nonpayable",
      "type": "function"
    },
    {
      "constant": false,
      "inputs": [
        {
          "internalType": "address",
          "name": "user",
          "type": "address"
        },
        {
          "internalType": "uint256",
          "name": "validatorId",
          "type": "uint256"
        },
        {
          "internalType": "uint256",
          "name": "amount",
          "type": "uint256"
        },
        {
          "internalType": "uint256",
          "name": "total",
          "type": "uint256"
        }
      ],
      "name": "logUnstaked",
      "outputs": [],
      "payable": false,
      "stateMutability": "nonpayable",
      "type": "function"
    },
    {
      "constant": false,
      "inputs": [
        {
          "internalType": "uint256",
          "name": "validatorId",
          "type": "uint256"
        },
        {
          "internalType": "uint256",
          "name": "newCommissionRate",
          "type": "uint256"
        },
        {
          "internalType": "uint256",
          "name": "oldCommissionRate",
          "type": "uint256"
        }
      ],
      "name": "logUpdateCommissionRate",
      "outputs": [],
      "payable": false,
      "stateMutability": "nonpayable",
      "type": "function"
    },
    {
      "constant": true,
      "inputs": [],
      "name": "owner",
      "outputs": [
        {
          "internalType": "address",
          "name": "",
          "type": "address"
        }
      ],
      "payable": false,
      "stateMutability": "view",
      "type": "function"
    },
    {
      "constant": true,
      "inputs": [],
      "name": "registry",
      "outputs": [
        {
          "internalType": "contract Registry",
          "name": "",
          "type": "address"
        }
      ],
      "payable": false,
      "stateMutability": "view",
      "type": "function"
    },
    {
      "constant": false,
      "inputs": [],
      "name": "renounceOwnership",
      "outputs": [],
      "payable": false,
      "stateMutability": "nonpayable",
      "type": "function"
    },
    {
      "constant": true,
      "inputs": [
        {
          "internalType": "uint256",
          "name": "validatorId",
          "type": "uint256"
        }
      ],
      "name": "totalValidatorStake",
      "outputs": [
        {
          "internalType": "uint256",
          "name": "validatorStake",
          "type": "uint256"
        }
      ],
      "payable": false,
      "stateMutability": "view",
      "type": "function"
    },
    {
      "constant": false,
      "inputs": [
        {
          "internalType": "address",
          "name": "newOwner",
          "type": "address"
        }
      ],
      "name": "transferOwnership",
      "outputs": [],
      "payable": false,
      "stateMutability": "nonpayable",
      "type": "function"
    },
    {
      "constant": false,
      "inputs": [
        {
          "internalType": "uint256[]",
          "name": "validatorIds",
          "type": "uint256[]"
        },
        {
          "internalType": "uint256[]",
          "name": "nonces",
          "type": "uint256[]"
        }
      ],
      "name": "updateNonce",
      "outputs": [],
      "payable": false,
      "stateMutability": "nonpayable",
      "type": "function"
    },
    {
      "constant": true,
      "inputs": [
        {
          "internalType": "uint256",
          "name": "",
          "type": "uint256"
        }
      ],
      "name": "validatorNonce",
      "outputs": [
        {
          "internalType": "uint256",
          "name": "",
          "type": "uint256"
        }
      ],
      "payable": false,
      "stateMutability": "view",
      "type": "function"
    }
  ],
  "bytecode": "0x608060405234801561001057600080fd5b50604051620047a6380380620047a68339818101604052602081101561003557600080fd5b8101908080519060200190929190505050336000806101000a81548173ffffffffffffffffffffffffffffffffffffffff021916908373ffffffffffffffffffffffffffffffffffffffff1602179055506000809054906101000a900473ffffffffffffffffffffffffffffffffffffffff1673ffffffffffffffffffffffffffffffffffffffff16600073ffffffffffffffffffffffffffffffffffffffff167f8be0079c531659141344cd1fd0a4f28419497f9722a3daafe3b4186f6b6457e060405160405180910390a380600260006101000a81548173ffffffffffffffffffffffffffffffffffffffff021916908373ffffffffffffffffffffffffffffffffffffffff1602179055505061465280620001546000396000f3fe608060405234801561001057600080fd5b50600436106102115760003560e01c8063a3b1d8cb11610125578063ca7d34b6116100ad578063f1382b531161007c578063f1382b5314610c8f578063f1980a5014610cf1578063f2fde38b14610d29578063f92ec5af14610d6d578063fb77c94e14610dbb57610211565b8063ca7d34b614610afb578063e12ab1af14610b3d578063eae3f74914610b7f578063ebde9f9314610c4d57610211565b8063b6fa74c4116100f4578063b6fa74c4146108c2578063b7721d2d146108fa578063b80fbce514610952578063c69d057314610a57578063c98cc00214610ab957610211565b8063a3b1d8cb14610798578063a449d795146107d0578063ae2e26b11461081e578063b685b26a1461088057610211565b8063605be9be116101a85780637f88a957116101775780637f88a9571461064457806381dc101b1461069c5780638da5cb5b146106f45780638f32d59b1461073e578063a0e300a61461076057610211565b8063605be9be14610507578063715018a61461055f57806378daaf69146105695780637b103999146105fa57610211565b80634b6b87ce116101e45780634b6b87ce14610417578063532e19a9146104355780635616a7cc146104635780635e04d483146104a557610211565b80630934a6df14610216578063122b648114610258578063178d46aa146102a657806333a8383c14610314575b600080fd5b6102566004803603606081101561022c57600080fd5b81019080803590602001909291908035906020019092919080359060200190929190505050610df3565b005b6102a46004803603604081101561026e57600080fd5b81019080803573ffffffffffffffffffffffffffffffffffffffff16906020019092919080359060200190929190505050610f4d565b005b6102d2600480360360208110156102bc57600080fd5b81019080803590602001909291905050506110bb565b604051808273ffffffffffffffffffffffffffffffffffffffff1673ffffffffffffffffffffffffffffffffffffffff16815260200191505060405180910390f35b610415600480360360c081101561032a57600080fd5b81019080803573ffffffffffffffffffffffffffffffffffffffff1690602001909291908035906020019064010000000081111561036757600080fd5b82018360208201111561037957600080fd5b8035906020019184600183028401116401000000008311171561039b57600080fd5b91908080601f016020809104026020016040519081016040528093929190818152602001838380828437600081840152601f19601f8201169050808301925050505050505091929192908035906020019092919080359060200190929190803590602001909291908035906020019092919050505061125e565b005b61041f6114a9565b6040518082815260200191505060405180910390f35b6104616004803603602081101561044b57600080fd5b81019080803590602001909291905050506115d3565b005b6104a36004803603606081101561047957600080fd5b810190808035906020019092919080359060200190929190803590602001909291905050506118bd565b005b610505600480360360808110156104bb57600080fd5b81019080803573ffffffffffffffffffffffffffffffffffffffff169060200190929190803590602001909291908035906020019092919080359060200190929190505050611a28565b005b61055d6004803603606081101561051d57600080fd5b8101908080359060200190929190803573ffffffffffffffffffffffffffffffffffffffff16906020019092919080359060200190929190505050611bfc565b005b610567611e92565b005b6105956004803603602081101561057f57600080fd5b8101908080359060200190929190505050611f62565b604051808781526020018681526020018581526020018481526020018373ffffffffffffffffffffffffffffffffffffffff1673ffffffffffffffffffffffffffffffffffffffff168152602001828152602001965050505050505060405180910390f35b6106026121dd565b604051808273ffffffffffffffffffffffffffffffffffffffff1673ffffffffffffffffffffffffffffffffffffffff16815260200191505060405180910390f35b61069a6004803603606081101561065a57600080fd5b8101908080359060200190929190803573ffffffffffffffffffffffffffffffffffffffff16906020019092919080359060200190929190505050612203565b005b6106f2600480360360608110156106b257600080fd5b810190808035906020019092919080359060200190929190803573ffffffffffffffffffffffffffffffffffffffff16906020019092919050505061248f565b005b6106fc6125ff565b604051808273ffffffffffffffffffffffffffffffffffffffff1673ffffffffffffffffffffffffffffffffffffffff16815260200191505060405180910390f35b610746612628565b604051808215151515815260200191505060405180910390f35b6107966004803603604081101561077657600080fd5b81019080803590602001909291908035906020019092919050505061267f565b005b6107ce600480360360408110156107ae57600080fd5b8101908080359060200190929190803590602001909291905050506127e8565b005b61081c600480360360408110156107e657600080fd5b81019080803573ffffffffffffffffffffffffffffffffffffffff16906020019092919080359060200190929190505050612951565b005b61087e6004803603608081101561083457600080fd5b81019080803573ffffffffffffffffffffffffffffffffffffffff169060200190929190803590602001909291908035906020019092919080359060200190929190505050612abf565b005b6108c06004803603606081101561089657600080fd5b81019080803590602001909291908035906020019092919080359060200190929190505050612c42565b005b6108f8600480360360408110156108d857600080fd5b810190808035906020019092919080359060200190929190505050612d9c565b005b6109506004803603606081101561091057600080fd5b8101908080359060200190929190803573ffffffffffffffffffffffffffffffffffffffff16906020019092919080359060200190929190505050612f05565b005b610a556004803603608081101561096857600080fd5b8101908080359060200190929190803573ffffffffffffffffffffffffffffffffffffffff169060200190929190803573ffffffffffffffffffffffffffffffffffffffff169060200190929190803590602001906401000000008111156109cf57600080fd5b8201836020820111156109e157600080fd5b80359060200191846001830284011164010000000083111715610a0357600080fd5b91908080601f016020809104026020016040519081016040528093929190818152602001838380828437600081840152601f19601f820116905080830192505050505050509192919290505050613191565b005b610ab760048036036080811015610a6d57600080fd5b8101908080359060200190929190803573ffffffffffffffffffffffffffffffffffffffff16906020019092919080359060200190929190803590602001909291905050506133e0565b005b610af960048036036060811015610acf57600080fd5b81019080803590602001909291908035906020019092919080359060200190929190505050613678565b005b610b2760048036036020811015610b1157600080fd5b81019080803590602001909291905050506138ee565b6040518082815260200191505060405180910390f35b610b7d60048036036060811015610b5357600080fd5b81019080803590602001909291908035906020019092919080359060200190929190505050613b49565b005b610c4b60048036036040811015610b9557600080fd5b8101908080359060200190640100000000811115610bb257600080fd5b820183602082011115610bc457600080fd5b80359060200191846020830284011164010000000083111715610be657600080fd5b909192939192939080359060200190640100000000811115610c0757600080fd5b820183602082011115610c1957600080fd5b80359060200191846020830284011164010000000083111715610c3b57600080fd5b9091929391929390505050613ca3565b005b610c7960048036036020811015610c6357600080fd5b8101908080359060200190929190505050613d8e565b6040518082815260200191505060405180910390f35b610cef60048036036080811015610ca557600080fd5b8101908080359060200190929190803573ffffffffffffffffffffffffffffffffffffffff1690602001909291908035906020019092919080359060200190929190505050613da6565b005b610d2760048036036040811015610d0757600080fd5b81019080803590602001909291908035906020019092919050505061403e565b005b610d6b60048036036020811015610d3f57600080fd5b81019080803573ffffffffffffffffffffffffffffffffffffffff1690602001909291905050506141a7565b005b610db960048036036040811015610d8357600080fd5b8101908080359060200190929190803573ffffffffffffffffffffffffffffffffffffffff1690602001909291905050506141c4565b005b610df160048036036040811015610dd157600080fd5b810190808035906020019092919080359060200190929190505050614332565b005b3373ffffffffffffffffffffffffffffffffffffffff16600260009054906101000a900473ffffffffffffffffffffffffffffffffffffffff1673ffffffffffffffffffffffffffffffffffffffff1663287be3e46040518163ffffffff1660e01b815260040160206040518083038186803b158015610e7257600080fd5b505afa158015610e86573d6000803e3d6000fd5b505050506040513d6020811015610e9c57600080fd5b810190808051906020019092919050505073ffffffffffffffffffffffffffffffffffffffff1614610f19576040517f08c379a00000000000000000000000000000000000000000000000000000000081526004018080602001828103825260218152602001806145fd6021913960400191505060405180910390fd5b8082847f683d0f47c7fa11331f4e9563b3f5a7fdc3d3c5b75c600357a91d991f5a13a43760405160405180910390a4505050565b3373ffffffffffffffffffffffffffffffffffffffff16600260009054906101000a900473ffffffffffffffffffffffffffffffffffffffff1673ffffffffffffffffffffffffffffffffffffffff1663287be3e46040518163ffffffff1660e01b815260040160206040518083038186803b158015610fcc57600080fd5b505afa158015610fe0573d6000803e3d6000fd5b505050506040513d6020811015610ff657600080fd5b810190808051906020019092919050505073ffffffffffffffffffffffffffffffffffffffff1614611073576040517f08c379a00000000000000000000000000000000000000000000000000000000081526004018080602001828103825260218152602001806145fd6021913960400191505060405180910390fd5b808273ffffffffffffffffffffffffffffffffffffffff167ff40b9ca28516abde647ef8ed0e7b155e16347eb4d8dd6eb29989ed2c0c3d27e860405160405180910390a35050565b6000600260009054906101000a900473ffffffffffffffffffffffffffffffffffffffff1673ffffffffffffffffffffffffffffffffffffffff1663287be3e46040518163ffffffff1660e01b815260040160206040518083038186803b15801561112557600080fd5b505afa158015611139573d6000803e3d6000fd5b505050506040513d602081101561114f57600080fd5b810190808051906020019092919050505073ffffffffffffffffffffffffffffffffffffffff166335aa2e44836040518263ffffffff1660e01b8152600401808281526020019150506101006040518083038186803b1580156111b157600080fd5b505afa1580156111c5573d6000803e3d6000fd5b505050506040513d6101008110156111dc57600080fd5b8101908080519060200190929190805190602001909291908051906020019092919080519060200190929190805190602001909291908051906020019092919080519060200190929190805190602001909291905050509091929394959650909192939495509091929394509091929350909192509091505080915050919050565b3373ffffffffffffffffffffffffffffffffffffffff16600260009054906101000a900473ffffffffffffffffffffffffffffffffffffffff1673ffffffffffffffffffffffffffffffffffffffff1663287be3e46040518163ffffffff1660e01b815260040160206040518083038186803b1580156112dd57600080fd5b505afa1580156112f1573d6000803e3d6000fd5b505050506040513d602081101561130757600080fd5b810190808051906020019092919050505073ffffffffffffffffffffffffffffffffffffffff1614611384576040517f08c379a00000000000000000000000000000000000000000000000000000000081526004018080602001828103825260218152602001806145fd6021913960400191505060405180910390fd5b6113aa60018060008781526020019081526020016000205461448a90919063ffffffff16565b600160008681526020019081526020016000208190555082848773ffffffffffffffffffffffffffffffffffffffff167f68c13e4125b983d7e2d6114246f443e567ec6c4ee5b4d4a7ef6100b1402bfd84600160008981526020019081526020016000205486868b6040518085815260200184815260200183815260200180602001828103825283818151815260200191508051906020019080838360005b83811015611464578082015181840152602081019050611449565b50505050905090810190601f1680156114915780820380516001836020036101000a031916815260200191505b509550505050505060405180910390a4505050505050565b6000600260009054906101000a900473ffffffffffffffffffffffffffffffffffffffff1673ffffffffffffffffffffffffffffffffffffffff1663287be3e46040518163ffffffff1660e01b815260040160206040518083038186803b15801561151357600080fd5b505afa158015611527573d6000803e3d6000fd5b505050506040513d602081101561153d57600080fd5b810190808051906020019092919050505073ffffffffffffffffffffffffffffffffffffffff166317c2b9106040518163ffffffff1660e01b815260040160206040518083038186803b15801561159357600080fd5b505afa1580156115a7573d6000803e3d6000fd5b505050506040513d60208110156115bd57600080fd5b8101908080519060200190929190505050905090565b80600080600260009054906101000a900473ffffffffffffffffffffffffffffffffffffffff1673ffffffffffffffffffffffffffffffffffffffff1663287be3e46040518163ffffffff1660e01b815260040160206040518083038186803b15801561163f57600080fd5b505afa158015611653573d6000803e3d6000fd5b505050506040513d602081101561166957600080fd5b810190808051906020019092919050505090508073ffffffffffffffffffffffffffffffffffffffff166335aa2e44846040518263ffffffff1660e01b8152600401808281526020019150506101006040518083038186803b1580156116ce57600080fd5b505afa1580156116e2573d6000803e3d6000fd5b505050506040513d6101008110156116f957600080fd5b81019080805190602001909291908051906020019092919080519060200190929190805190602001909291908051906020019092919080519060200190929190805190602001909291908051906020019092919050505090919293949596509091929394955090919293945090919293509091925090915050809250503373ffffffffffffffffffffffffffffffffffffffff168273ffffffffffffffffffffffffffffffffffffffff1614806117db57503373ffffffffffffffffffffffffffffffffffffffff168173ffffffffffffffffffffffffffffffffffffffff16145b611830576040517f08c379a00000000000000000000000000000000000000000000000000000000081526004018080602001828103825260378152602001806145c66037913960400191505060405180910390fd5b61185660018060008781526020019081526020016000205461448a90919063ffffffff16565b6001600086815260200190815260200160002081905550611876846138ee565b6001600086815260200190815260200160002054857f35af9eea1f0e7b300b0a14fae90139a072470e44daa3f14b5069bebbc1265bda60405160405180910390a450505050565b3373ffffffffffffffffffffffffffffffffffffffff16600260009054906101000a900473ffffffffffffffffffffffffffffffffffffffff1673ffffffffffffffffffffffffffffffffffffffff1663287be3e46040518163ffffffff1660e01b815260040160206040518083038186803b15801561193c57600080fd5b505afa158015611950573d6000803e3d6000fd5b505050506040513d602081101561196657600080fd5b810190808051906020019092919050505073ffffffffffffffffffffffffffffffffffffffff16146119e3576040517f08c379a00000000000000000000000000000000000000000000000000000000081526004018080602001828103825260218152602001806145fd6021913960400191505060405180910390fd5b827f09b24121f82c610c13909ec63bd0843468819a45f6eda5838c3a80568c2046a88383604051808381526020018281526020019250505060405180910390a2505050565b3373ffffffffffffffffffffffffffffffffffffffff16600260009054906101000a900473ffffffffffffffffffffffffffffffffffffffff1673ffffffffffffffffffffffffffffffffffffffff1663287be3e46040518163ffffffff1660e01b815260040160206040518083038186803b158015611aa757600080fd5b505afa158015611abb573d6000803e3d6000fd5b505050506040513d6020811015611ad157600080fd5b810190808051906020019092919050505073ffffffffffffffffffffffffffffffffffffffff1614611b4e576040517f08c379a00000000000000000000000000000000000000000000000000000000081526004018080602001828103825260218152602001806145fd6021913960400191505060405180910390fd5b611b7460018060008681526020019081526020016000205461448a90919063ffffffff16565b600160008581526020019081526020016000208190555080838573ffffffffffffffffffffffffffffffffffffffff167f69b288bb79cd5386c9fe0af060f650e823bcdfa96a44cdc07f862db060f57120600160008881526020019081526020016000205486604051808381526020018281526020019250505060405180910390a450505050565b826000600260009054906101000a900473ffffffffffffffffffffffffffffffffffffffff1673ffffffffffffffffffffffffffffffffffffffff1663287be3e46040518163ffffffff1660e01b815260040160206040518083038186803b158015611c6757600080fd5b505afa158015611c7b573d6000803e3d6000fd5b505050506040513d6020811015611c9157600080fd5b810190808051906020019092919050505073ffffffffffffffffffffffffffffffffffffffff166335aa2e44836040518263ffffffff1660e01b8152600401808281526020019150506101006040518083038186803b158015611cf357600080fd5b505afa158015611d07573d6000803e3d6000fd5b505050506040513d610100811015611d1e57600080fd5b81019080805190602001909291908051906020019092919080519060200190929190805190602001909291908051906020019092919080519060200190929190805190602001909291908051906020019092919050505090919293949596509091929394955090919293945090919293509091925090915050809150503373ffffffffffffffffffffffffffffffffffffffff168173ffffffffffffffffffffffffffffffffffffffff1614611e3c576040517f08c379a000000000000000000000000000000000000000000000000000000000815260040180806020018281038252601d8152602001807f496e76616c69642073656e6465722c206e6f742076616c696461746f7200000081525060200191505060405180910390fd5b8373ffffffffffffffffffffffffffffffffffffffff16857f770c7c7d8e20347e5080e2ac70e8519793bedaff621f044396fd8d6d052c4aa8856040518082815260200191505060405180910390a35050505050565b611e9a612628565b611ea357600080fd5b600073ffffffffffffffffffffffffffffffffffffffff166000809054906101000a900473ffffffffffffffffffffffffffffffffffffffff1673ffffffffffffffffffffffffffffffffffffffff167f8be0079c531659141344cd1fd0a4f28419497f9722a3daafe3b4186f6b6457e060405160405180910390a360008060006101000a81548173ffffffffffffffffffffffffffffffffffffffff021916908373ffffffffffffffffffffffffffffffffffffffff160217905550565b6000806000806000806000600260009054906101000a900473ffffffffffffffffffffffffffffffffffffffff1673ffffffffffffffffffffffffffffffffffffffff1663287be3e46040518163ffffffff1660e01b815260040160206040518083038186803b158015611fd557600080fd5b505afa158015611fe9573d6000803e3d6000fd5b505050506040513d6020811015611fff57600080fd5b810190808051906020019092919050505090506000808273ffffffffffffffffffffffffffffffffffffffff166335aa2e448b6040518263ffffffff1660e01b8152600401808281526020019150506101006040518083038186803b15801561206757600080fd5b505afa15801561207b573d6000803e3d6000fd5b505050506040513d61010081101561209257600080fd5b81019080805190602001909291908051906020019092919080519060200190929190805190602001909291908051906020019092919080519060200190929190805190602001909291908051906020019092919050505090919250809750819850829b50839c50849d50859e50869f505050505050505080600381111561211557fe5b9350600073ffffffffffffffffffffffffffffffffffffffff168273ffffffffffffffffffffffffffffffffffffffff16146121d1578173ffffffffffffffffffffffffffffffffffffffff16635d1e36166040518163ffffffff1660e01b815260040160206040518083038186803b15801561219157600080fd5b505afa1580156121a5573d6000803e3d6000fd5b505050506040513d60208110156121bb57600080fd5b8101908080519060200190929190505050880197505b50505091939550919395565b600260009054906101000a900473ffffffffffffffffffffffffffffffffffffffff1681565b826000600260009054906101000a900473ffffffffffffffffffffffffffffffffffffffff1673ffffffffffffffffffffffffffffffffffffffff1663287be3e46040518163ffffffff1660e01b815260040160206040518083038186803b15801561226e57600080fd5b505afa158015612282573d6000803e3d6000fd5b505050506040513d602081101561229857600080fd5b810190808051906020019092919050505073ffffffffffffffffffffffffffffffffffffffff166335aa2e44836040518263ffffffff1660e01b8152600401808281526020019150506101006040518083038186803b1580156122fa57600080fd5b505afa15801561230e573d6000803e3d6000fd5b505050506040513d61010081101561232557600080fd5b81019080805190602001909291908051906020019092919080519060200190929190805190602001909291908051906020019092919080519060200190929190805190602001909291908051906020019092919050505090919293949596509091929394955090919293945090919293509091925090915050809150503373ffffffffffffffffffffffffffffffffffffffff168173ffffffffffffffffffffffffffffffffffffffff1614612443576040517f08c379a000000000000000000000000000000000000000000000000000000000815260040180806020018281038252601d8152602001807f496e76616c69642073656e6465722c206e6f742076616c696461746f7200000081525060200191505060405180910390fd5b828473ffffffffffffffffffffffffffffffffffffffff16867f0f9ccdda16b467e719059c85ebd8383fcb7f8ffa5576629fe3b842836e04dad160405160405180910390a45050505050565b3373ffffffffffffffffffffffffffffffffffffffff16600260009054906101000a900473ffffffffffffffffffffffffffffffffffffffff1673ffffffffffffffffffffffffffffffffffffffff1663287be3e46040518163ffffffff1660e01b815260040160206040518083038186803b15801561250e57600080fd5b505afa158015612522573d6000803e3d6000fd5b505050506040513d602081101561253857600080fd5b810190808051906020019092919050505073ffffffffffffffffffffffffffffffffffffffff16146125b5576040517f08c379a00000000000000000000000000000000000000000000000000000000081526004018080602001828103825260218152602001806145fd6021913960400191505060405180910390fd5b8073ffffffffffffffffffffffffffffffffffffffff1682847ff6566d8fbe8f23227826ba3da2ecc1ec48698c5be051a829965e3358fd5b965860405160405180910390a4505050565b60008060009054906101000a900473ffffffffffffffffffffffffffffffffffffffff16905090565b60008060009054906101000a900473ffffffffffffffffffffffffffffffffffffffff1673ffffffffffffffffffffffffffffffffffffffff163373ffffffffffffffffffffffffffffffffffffffff1614905090565b3373ffffffffffffffffffffffffffffffffffffffff16600260009054906101000a900473ffffffffffffffffffffffffffffffffffffffff1673ffffffffffffffffffffffffffffffffffffffff1663287be3e46040518163ffffffff1660e01b815260040160206040518083038186803b1580156126fe57600080fd5b505afa158015612712573d6000803e3d6000fd5b505050506040513d602081101561272857600080fd5b810190808051906020019092919050505073ffffffffffffffffffffffffffffffffffffffff16146127a5576040517f08c379a00000000000000000000000000000000000000000000000000000000081526004018080602001828103825260218152602001806145fd6021913960400191505060405180910390fd5b7f9444bfcfa6aed72a15da73de1220dcc07d7864119c44abfec0037bbcacefda988282604051808381526020018281526020019250505060405180910390a15050565b3373ffffffffffffffffffffffffffffffffffffffff16600260009054906101000a900473ffffffffffffffffffffffffffffffffffffffff1673ffffffffffffffffffffffffffffffffffffffff1663287be3e46040518163ffffffff1660e01b815260040160206040518083038186803b15801561286757600080fd5b505afa15801561287b573d6000803e3d6000fd5b505050506040513d602081101561289157600080fd5b810190808051906020019092919050505073ffffffffffffffffffffffffffffffffffffffff161461290e576040517f08c379a00000000000000000000000000000000000000000000000000000000081526004018080602001828103825260218152602001806145fd6021913960400191505060405180910390fd5b7f4a501a9c4d5cce5c32415945bbc8973764f31b844e3e8fd4c15f51f315ac87928282604051808381526020018281526020019250505060405180910390a15050565b3373ffffffffffffffffffffffffffffffffffffffff16600260009054906101000a900473ffffffffffffffffffffffffffffffffffffffff1673ffffffffffffffffffffffffffffffffffffffff1663287be3e46040518163ffffffff1660e01b815260040160206040518083038186803b1580156129d057600080fd5b505afa1580156129e4573d6000803e3d6000fd5b505050506040513d60208110156129fa57600080fd5b810190808051906020019092919050505073ffffffffffffffffffffffffffffffffffffffff1614612a77576040517f08c379a00000000000000000000000000000000000000000000000000000000081526004018080602001828103825260218152602001806145fd6021913960400191505060405180910390fd5b808273ffffffffffffffffffffffffffffffffffffffff167f2c3bb5458e3dd671c31974c4ca8e8ebc2cdd892ae8602374d9a6f789b00c6b9460405160405180910390a35050565b3373ffffffffffffffffffffffffffffffffffffffff16600260009054906101000a900473ffffffffffffffffffffffffffffffffffffffff1673ffffffffffffffffffffffffffffffffffffffff1663287be3e46040518163ffffffff1660e01b815260040160206040518083038186803b158015612b3e57600080fd5b505afa158015612b52573d6000803e3d6000fd5b505050506040513d6020811015612b6857600080fd5b810190808051906020019092919050505073ffffffffffffffffffffffffffffffffffffffff1614612be5576040517f08c379a00000000000000000000000000000000000000000000000000000000081526004018080602001828103825260218152602001806145fd6021913960400191505060405180910390fd5b828473ffffffffffffffffffffffffffffffffffffffff167f204fccf0d92ed8d48f204adb39b2e81e92bad0dedb93f5716ca9478cfb57de008484604051808381526020018281526020019250505060405180910390a350505050565b3373ffffffffffffffffffffffffffffffffffffffff16600260009054906101000a900473ffffffffffffffffffffffffffffffffffffffff1673ffffffffffffffffffffffffffffffffffffffff1663287be3e46040518163ffffffff1660e01b815260040160206040518083038186803b158015612cc157600080fd5b505afa158015612cd5573d6000803e3d6000fd5b505050506040513d6020811015612ceb57600080fd5b810190808051906020019092919050505073ffffffffffffffffffffffffffffffffffffffff1614612d68576040517f08c379a00000000000000000000000000000000000000000000000000000000081526004018080602001828103825260218152602001806145fd6021913960400191505060405180910390fd5b8082847f41e5e4590cfcde2f03ee9281c54d03acad8adffb83f8310d66b894532470ba3560405160405180910390a4505050565b3373ffffffffffffffffffffffffffffffffffffffff16600260009054906101000a900473ffffffffffffffffffffffffffffffffffffffff1673ffffffffffffffffffffffffffffffffffffffff1663287be3e46040518163ffffffff1660e01b815260040160206040518083038186803b158015612e1b57600080fd5b505afa158015612e2f573d6000803e3d6000fd5b505050506040513d6020811015612e4557600080fd5b810190808051906020019092919050505073ffffffffffffffffffffffffffffffffffffffff1614612ec2576040517f08c379a00000000000000000000000000000000000000000000000000000000081526004018080602001828103825260218152602001806145fd6021913960400191505060405180910390fd5b7ff67f33e8589d3ea0356303c0f9a8e764873692159f777ff79e4fc523d389dfcd8282604051808381526020018281526020019250505060405180910390a15050565b826000600260009054906101000a900473ffffffffffffffffffffffffffffffffffffffff1673ffffffffffffffffffffffffffffffffffffffff1663287be3e46040518163ffffffff1660e01b815260040160206040518083038186803b158015612f7057600080fd5b505afa158015612f84573d6000803e3d6000fd5b505050506040513d6020811015612f9a57600080fd5b810190808051906020019092919050505073ffffffffffffffffffffffffffffffffffffffff166335aa2e44836040518263ffffffff1660e01b8152600401808281526020019150506101006040518083038186803b158015612ffc57600080fd5b505afa158015613010573d6000803e3d6000fd5b505050506040513d61010081101561302757600080fd5b81019080805190602001909291908051906020019092919080519060200190929190805190602001909291908051906020019092919080519060200190929190805190602001909291908051906020019092919050505090919293949596509091929394955090919293945090919293509091925090915050809150503373ffffffffffffffffffffffffffffffffffffffff168173ffffffffffffffffffffffffffffffffffffffff1614613145576040517f08c379a000000000000000000000000000000000000000000000000000000000815260040180806020018281038252601d8152602001807f496e76616c69642073656e6465722c206e6f742076616c696461746f7200000081525060200191505060405180910390fd5b828473ffffffffffffffffffffffffffffffffffffffff16867f31d1715032654fde9867c0f095aecce1113049e30b9f4ecbaa6954ed6c63b8df60405160405180910390a45050505050565b3373ffffffffffffffffffffffffffffffffffffffff16600260009054906101000a900473ffffffffffffffffffffffffffffffffffffffff1673ffffffffffffffffffffffffffffffffffffffff1663287be3e46040518163ffffffff1660e01b815260040160206040518083038186803b15801561321057600080fd5b505afa158015613224573d6000803e3d6000fd5b505050506040513d602081101561323a57600080fd5b810190808051906020019092919050505073ffffffffffffffffffffffffffffffffffffffff16146132b7576040517f08c379a00000000000000000000000000000000000000000000000000000000081526004018080602001828103825260218152602001806145fd6021913960400191505060405180910390fd5b6132dd60018060008781526020019081526020016000205461448a90919063ffffffff16565b60016000868152602001908152602001600020819055508173ffffffffffffffffffffffffffffffffffffffff168373ffffffffffffffffffffffffffffffffffffffff16857f086044c0612a8c965d4cccd907f0d588e40ad68438bd4c1274cac60f4c3a9d1f6001600089815260200190815260200160002054856040518083815260200180602001828103825283818151815260200191508051906020019080838360005b8381101561339f578082015181840152602081019050613384565b50505050905090810190601f1680156133cc5780820380516001836020036101000a031916815260200191505b50935050505060405180910390a450505050565b836000600260009054906101000a900473ffffffffffffffffffffffffffffffffffffffff1673ffffffffffffffffffffffffffffffffffffffff1663287be3e46040518163ffffffff1660e01b815260040160206040518083038186803b15801561344b57600080fd5b505afa15801561345f573d6000803e3d6000fd5b505050506040513d602081101561347557600080fd5b810190808051906020019092919050505073ffffffffffffffffffffffffffffffffffffffff166335aa2e44836040518263ffffffff1660e01b8152600401808281526020019150506101006040518083038186803b1580156134d757600080fd5b505afa1580156134eb573d6000803e3d6000fd5b505050506040513d61010081101561350257600080fd5b81019080805190602001909291908051906020019092919080519060200190929190805190602001909291908051906020019092919080519060200190929190805190602001909291908051906020019092919050505090919293949596509091929394955090919293945090919293509091925090915050809150503373ffffffffffffffffffffffffffffffffffffffff168173ffffffffffffffffffffffffffffffffffffffff1614613620576040517f08c379a000000000000000000000000000000000000000000000000000000000815260040180806020018281038252601d8152602001807f496e76616c69642073656e6465722c206e6f742076616c696461746f7200000081525060200191505060405180910390fd5b838573ffffffffffffffffffffffffffffffffffffffff16877fc9afff0972d33d68c8d330fe0ebd0e9f54491ad8c59ae17330a9206f280f0865866040518082815260200191505060405180910390a4505050505050565b826000600260009054906101000a900473ffffffffffffffffffffffffffffffffffffffff1673ffffffffffffffffffffffffffffffffffffffff1663287be3e46040518163ffffffff1660e01b815260040160206040518083038186803b1580156136e357600080fd5b505afa1580156136f7573d6000803e3d6000fd5b505050506040513d602081101561370d57600080fd5b810190808051906020019092919050505073ffffffffffffffffffffffffffffffffffffffff166335aa2e44836040518263ffffffff1660e01b8152600401808281526020019150506101006040518083038186803b15801561376f57600080fd5b505afa158015613783573d6000803e3d6000fd5b505050506040513d61010081101561379a57600080fd5b81019080805190602001909291908051906020019092919080519060200190929190805190602001909291908051906020019092919080519060200190929190805190602001909291908051906020019092919050505090919293949596509091929394955090919293945090919293509091925090915050809150503373ffffffffffffffffffffffffffffffffffffffff168173ffffffffffffffffffffffffffffffffffffffff16146138b8576040517f08c379a000000000000000000000000000000000000000000000000000000000815260040180806020018281038252601d8152602001807f496e76616c69642073656e6465722c206e6f742076616c696461746f7200000081525060200191505060405180910390fd5b8284867f7d5da5ece9d43013d62ab966f4704ca376b92be29ca6fbb958154baf1c0dc17e60405160405180910390a45050505050565b600080600260009054906101000a900473ffffffffffffffffffffffffffffffffffffffff1673ffffffffffffffffffffffffffffffffffffffff1663287be3e46040518163ffffffff1660e01b815260040160206040518083038186803b15801561395957600080fd5b505afa15801561396d573d6000803e3d6000fd5b505050506040513d602081101561398357600080fd5b810190808051906020019092919050505073ffffffffffffffffffffffffffffffffffffffff166335aa2e44846040518263ffffffff1660e01b8152600401808281526020019150506101006040518083038186803b1580156139e557600080fd5b505afa1580156139f9573d6000803e3d6000fd5b505050506040513d610100811015613a1057600080fd5b81019080805190602001909291908051906020019092919080519060200190929190805190602001909291908051906020019092919080519060200190929190805190602001909291908051906020019092919050505090919293949550909192939450909192935090919250909150508092508193505050600073ffffffffffffffffffffffffffffffffffffffff168173ffffffffffffffffffffffffffffffffffffffff1614613b43578073ffffffffffffffffffffffffffffffffffffffff16633a09bf446040518163ffffffff1660e01b815260040160206040518083038186803b158015613b0357600080fd5b505afa158015613b17573d6000803e3d6000fd5b505050506040513d6020811015613b2d57600080fd5b8101908080519060200190929190505050820191505b50919050565b3373ffffffffffffffffffffffffffffffffffffffff16600260009054906101000a900473ffffffffffffffffffffffffffffffffffffffff1673ffffffffffffffffffffffffffffffffffffffff1663287be3e46040518163ffffffff1660e01b815260040160206040518083038186803b158015613bc857600080fd5b505afa158015613bdc573d6000803e3d6000fd5b505050506040513d6020811015613bf257600080fd5b810190808051906020019092919050505073ffffffffffffffffffffffffffffffffffffffff1614613c6f576040517f08c379a00000000000000000000000000000000000000000000000000000000081526004018080602001828103825260218152602001806145fd6021913960400191505060405180910390fd5b8082847f1002381ecf76700f6f0ab4c90b9f523e39df7b0482b71ec63cf62cf85412047060405160405180910390a4505050565b613cab612628565b613cb457600080fd5b818190508484905014613d2f576040517f08c379a00000000000000000000000000000000000000000000000000000000081526004018080602001828103825260148152602001807f61726773206c656e677468206d69736d6174636800000000000000000000000081525060200191505060405180910390fd5b60008090505b84849050811015613d8757828282818110613d4c57fe5b9050602002013560016000878785818110613d6357fe5b90506020020135815260200190815260200160002081905550806001019050613d35565b5050505050565b60016020528060005260406000206000915090505481565b836000600260009054906101000a900473ffffffffffffffffffffffffffffffffffffffff1673ffffffffffffffffffffffffffffffffffffffff1663287be3e46040518163ffffffff1660e01b815260040160206040518083038186803b158015613e1157600080fd5b505afa158015613e25573d6000803e3d6000fd5b505050506040513d6020811015613e3b57600080fd5b810190808051906020019092919050505073ffffffffffffffffffffffffffffffffffffffff166335aa2e44836040518263ffffffff1660e01b8152600401808281526020019150506101006040518083038186803b158015613e9d57600080fd5b505afa158015613eb1573d6000803e3d6000fd5b505050506040513d610100811015613ec857600080fd5b81019080805190602001909291908051906020019092919080519060200190929190805190602001909291908051906020019092919080519060200190929190805190602001909291908051906020019092919050505090919293949596509091929394955090919293945090919293509091925090915050809150503373ffffffffffffffffffffffffffffffffffffffff168173ffffffffffffffffffffffffffffffffffffffff1614613fe6576040517f08c379a000000000000000000000000000000000000000000000000000000000815260040180806020018281038252601d8152602001807f496e76616c69642073656e6465722c206e6f742076616c696461746f7200000081525060200191505060405180910390fd5b838573ffffffffffffffffffffffffffffffffffffffff16877f7e86625aa6e668407f095af342e0cc237809c4c5086b4d665a0067de122980a9866040518082815260200191505060405180910390a4505050505050565b3373ffffffffffffffffffffffffffffffffffffffff16600260009054906101000a900473ffffffffffffffffffffffffffffffffffffffff1673ffffffffffffffffffffffffffffffffffffffff1663287be3e46040518163ffffffff1660e01b815260040160206040518083038186803b1580156140bd57600080fd5b505afa1580156140d1573d6000803e3d6000fd5b505050506040513d60208110156140e757600080fd5b810190808051906020019092919050505073ffffffffffffffffffffffffffffffffffffffff1614614164576040517f08c379a00000000000000000000000000000000000000000000000000000000081526004018080602001828103825260218152602001806145fd6021913960400191505060405180910390fd5b7f5d16a900896e1160c2033bc940e6b072d3dc3b6a996fefb9b3b9b9678841824c8282604051808381526020018281526020019250505060405180910390a15050565b6141af612628565b6141b857600080fd5b6141c1816144a9565b50565b3373ffffffffffffffffffffffffffffffffffffffff16600260009054906101000a900473ffffffffffffffffffffffffffffffffffffffff1673ffffffffffffffffffffffffffffffffffffffff1663287be3e46040518163ffffffff1660e01b815260040160206040518083038186803b15801561424357600080fd5b505afa158015614257573d6000803e3d6000fd5b505050506040513d602081101561426d57600080fd5b810190808051906020019092919050505073ffffffffffffffffffffffffffffffffffffffff16146142ea576040517f08c379a00000000000000000000000000000000000000000000000000000000081526004018080602001828103825260218152602001806145fd6021913960400191505060405180910390fd5b8073ffffffffffffffffffffffffffffffffffffffff16827fd3cb87a9c75a0d21336afc0f79f7e398f06748db5ce1815af01d315c7c135c0b60405160405180910390a35050565b3373ffffffffffffffffffffffffffffffffffffffff16600260009054906101000a900473ffffffffffffffffffffffffffffffffffffffff1673ffffffffffffffffffffffffffffffffffffffff1663d580b4186040518163ffffffff1660e01b815260040160206040518083038186803b1580156143b157600080fd5b505afa1580156143c5573d6000803e3d6000fd5b505050506040513d60208110156143db57600080fd5b810190808051906020019092919050505073ffffffffffffffffffffffffffffffffffffffff1614614458576040517f08c379a00000000000000000000000000000000000000000000000000000000081526004018080602001828103825260248152602001806145a26024913960400191505060405180910390fd5b80827f4f5f38ee30b01a960b4dfdcd520a3ca59c1a664a32dcfe5418ca79b0de6b723660405160405180910390a35050565b60008082840190508381101561449f57600080fd5b8091505092915050565b600073ffffffffffffffffffffffffffffffffffffffff168173ffffffffffffffffffffffffffffffffffffffff1614156144e357600080fd5b8073ffffffffffffffffffffffffffffffffffffffff166000809054906101000a900473ffffffffffffffffffffffffffffffffffffffff1673ffffffffffffffffffffffffffffffffffffffff167f8be0079c531659141344cd1fd0a4f28419497f9722a3daafe3b4186f6b6457e060405160405180910390a3806000806101000a81548173ffffffffffffffffffffffffffffffffffffffff021916908373ffffffffffffffffffffffffffffffffffffffff1602179055505056fe496e76616c69642073656e6465722c206e6f7420736c617368696e67206d616e61676572496e76616c69642073656e6465722c206e6f74207374616b65206d616e61676572206f722076616c696461746f7220636f6e7472616374496e76616c69642073656e6465722c206e6f74207374616b65206d616e61676572a265627a7a72315820260ff54983647133ed1fb397bea1630485f0793e8651c57137fe4fc3974fd6bb64736f6c63430005110032",
  "linkReferences": {},
  "deployedLinkReferences": {}
}