{
  "_format": "hh-sol-artifact-1",
  "contractName": "LibTokenTransferOrder",
  "sourceName": "contracts/child/misc/LibTokenTransferOrder.sol",
  "abi": [
    {
      "constant": true,
      "inputs": [],
      "name": "CHAINID",
      "outputs": [
        {
          "internalType": "uint256",
          "name": "",
          "type": "uint256"
        }
      ],
      "payable": false,
      "stateMutability": "view",
      "type": "function"
    },
    {
      "constant": true,
      "inputs": [],
      "name": "EIP712_DOMAIN_HASH",
      "outputs": [
        {
          "internalType": "bytes32",
          "name": "",
          "type": "bytes32"
        }
      ],
      "payable": false,
      "stateMutability": "view",
      "type": "function"
    },
    {
      "constant": true,
      "inputs": [],
      "name": "EIP712_DOMAIN_SCHEMA_HASH",
      "outputs": [
        {
          "internalType": "bytes32",
          "name": "",
          "type": "bytes32"
        }
      ],
      "payable": false,
      "stateMutability": "view",
      "type": "function"
    },
    {
      "constant": true,
      "inputs": [],
      "name": "EIP712_TOKEN_TRANSFER_ORDER_SCHEMA_HASH",
      "outputs": [
        {
          "internalType": "bytes32",
          "name": "",
          "type": "bytes32"
        }
      ],
      "payable": false,
      "stateMutability": "view",
      "type": "function"
    },
    {
      "constant": true,
      "inputs": [
        {
          "internalType": "address",
          "name": "spender",
          "type": "address"
        },
        {
          "internalType": "uint256",
          "name": "tokenIdOrAmount",
          "type": "uint256"
        },
        {
          "internalType": "bytes32",
          "name": "data",
          "type": "bytes32"
        },
        {
          "internalType": "uint256",
          "name": "expiration",
          "type": "uint256"
        }
      ],
      "name": "getTokenTransferOrderHash",
      "outputs": [
        {
          "internalType": "bytes32",
          "name": "orderHash",
          "type": "bytes32"
        }
      ],
      "payable": false,
      "stateMutability": "view",
      "type": "function"
    },
    {
      "constant": true,
      "inputs": [],
      "name": "networkId",
      "outputs": [
        {
          "internalType": "bytes",
          "name": "",
          "type": "bytes"
        }
      ],
      "payable": false,
      "stateMutability": "view",
      "type": "function"
    }
  ],
  "bytecode": "0x60806040526040518060800160405280605281526020016106f6605291396040516020018082805190602001908083835b602083106100535780518252602082019150602081019050602083039250610030565b6001836020036101000a038019825116818451168082178552505050505050905001915050604051602081830303815290604052805190602001206040518060400160405280600d81526020017f4d61746963204e6574776f726b00000000000000000000000000000000000000815250805190602001206040518060400160405280600181526020017f3100000000000000000000000000000000000000000000000000000000000000815250805190602001206201388130604051602001808681526020018581526020018481526020018381526020018273ffffffffffffffffffffffffffffffffffffffff1673ffffffffffffffffffffffffffffffffffffffff1681526020019550505050505060405160208183030381529060405280519060200120600081905550610566806101906000396000f3fe608060405234801561001057600080fd5b50600436106100625760003560e01c80639025e64c14610067578063abceeba2146100ea578063b789543c14610108578063cc79f97b1461017e578063e306f7791461019c578063e614d0d6146101ba575b600080fd5b61006f6101d8565b6040518080602001828103825283818151815260200191508051906020019080838360005b838110156100af578082015181840152602081019050610094565b50505050905090810190601f1680156100dc5780820380516001836020036101000a031916815260200191505b509250505060405180910390f35b6100f2610211565b6040518082815260200191505060405180910390f35b6101686004803603608081101561011e57600080fd5b81019080803573ffffffffffffffffffffffffffffffffffffffff16906020019092919080359060200190929190803590602001909291908035906020019092919050505061029e565b6040518082815260200191505060405180910390f35b6101866102be565b6040518082815260200191505060405180910390f35b6101a46102c5565b6040518082815260200191505060405180910390f35b6101c26102cb565b6040518082815260200191505060405180910390f35b6040518060400160405280600381526020017f013881000000000000000000000000000000000000000000000000000000000081525081565b6040518060800160405280605b81526020016104d7605b91396040516020018082805190602001908083835b60208310610260578051825260208201915060208101905060208303925061023d565b6001836020036101000a0380198251168184511680821785525050505050509050019150506040516020818303038152906040528051906020012081565b60006102b46102af86868686610358565b61042e565b9050949350505050565b6201388181565b60005481565b604051806080016040528060528152602001610485605291396040516020018082805190602001908083835b6020831061031a57805182526020820191506020810190506020830392506102f7565b6001836020036101000a0380198251168184511680821785525050505050509050019150506040516020818303038152906040528051906020012081565b6000806040518060800160405280605b81526020016104d7605b91396040516020018082805190602001908083835b602083106103aa5780518252602082019150602081019050602083039250610387565b6001836020036101000a03801982511681845116808217855250505050505090500191505060405160208183030381529060405280519060200120905060405181815273ffffffffffffffffffffffffffffffffffffffff8716602082015285604082015284606082015283608082015260a0812092505081915050949350505050565b600061043c82600054610443565b9050919050565b60006040517f19010000000000000000000000000000000000000000000000000000000000008152826002820152836022820152604281209150509291505056fe454950373132446f6d61696e28737472696e67206e616d652c737472696e672076657273696f6e2c75696e7432353620636861696e49642c6164647265737320766572696679696e67436f6e747261637429546f6b656e5472616e736665724f726465722861646472657373207370656e6465722c75696e7432353620746f6b656e49644f72416d6f756e742c6279746573333220646174612c75696e743235362065787069726174696f6e29a265627a7a72315820dc8c5db1702da7822dbfbe85ac49458ff6df9041966de85796aacf644fad051a64736f6c63430005110032454950373132446f6d61696e28737472696e67206e616d652c737472696e672076657273696f6e2c75696e7432353620636861696e49642c6164647265737320766572696679696e67436f6e747261637429",
  "linkReferences": {},
  "deployedLinkReferences": {}
}