{
  "_format": "hh-sol-artifact-1",
  "contractName": "Marketplace",
  "sourceName": "contracts/child/misc/Marketplace.sol",
  "abi": [
    {
      "constant": false,
      "inputs": [
        {
          "internalType": "bytes",
          "name": "data1",
          "type": "bytes"
        },
        {
          "internalType": "bytes",
          "name": "data2",
          "type": "bytes"
        },
        {
          "internalType": "bytes32",
          "name": "orderId",
          "type": "bytes32"
        },
        {
          "internalType": "uint256",
          "name": "expiration",
          "type": "uint256"
        },
        {
          "internalType": "address",
          "name": "taker",
          "type": "address"
        }
      ],
      "name": "executeOrder",
      "outputs": [],
      "payable": false,
      "stateMutability": "nonpayable",
      "type": "function"
    }
  ],
  "bytecode": "0x608060405234801561001057600080fd5b506107a9806100206000396000f3fe608060405234801561001057600080fd5b506004361061002b5760003560e01c8063e660b9e414610030575b600080fd5b6101b4600480360360a081101561004657600080fd5b810190808035906020019064010000000081111561006357600080fd5b82018360208201111561007557600080fd5b8035906020019184600183028401116401000000008311171561009757600080fd5b91908080601f016020809104026020016040519081016040528093929190818152602001838380828437600081840152601f19601f820116905080830192505050505050509192919290803590602001906401000000008111156100fa57600080fd5b82018360208201111561010c57600080fd5b8035906020019184600183028401116401000000008311171561012e57600080fd5b91908080601f016020809104026020016040519081016040528093929190818152602001838380828437600081840152601f19601f8201169050808301925050505050505091929192908035906020019092919080359060200190929190803573ffffffffffffffffffffffffffffffffffffffff1690602001909291905050506101b6565b005b6101be61073d565b6101c786610600565b90506101d161073d565b6101da86610600565b90506000826000015173ffffffffffffffffffffffffffffffffffffffff166319d27d9c846020015185604001518986600001518760400151604051602001808481526020018373ffffffffffffffffffffffffffffffffffffffff1673ffffffffffffffffffffffffffffffffffffffff1660601b815260140182815260200193505050506040516020818303038152906040528051906020012089896040518663ffffffff1660e01b815260040180806020018681526020018581526020018481526020018373ffffffffffffffffffffffffffffffffffffffff1673ffffffffffffffffffffffffffffffffffffffff168152602001828103825287818151815260200191508051906020019080838360005b8381101561030b5780820151818401526020810190506102f0565b50505050905090810190601f1680156103385780820380516001836020036101000a031916815260200191505b509650505050505050602060405180830381600087803b15801561035b57600080fd5b505af115801561036f573d6000803e3d6000fd5b505050506040513d602081101561038557600080fd5b810190808051906020019092919050505090506000826000015173ffffffffffffffffffffffffffffffffffffffff166319d27d9c846020015185604001518a88600001518960400151604051602001808481526020018373ffffffffffffffffffffffffffffffffffffffff1673ffffffffffffffffffffffffffffffffffffffff1660601b81526014018281526020019350505050604051602081830303815290604052805190602001208a876040518663ffffffff1660e01b815260040180806020018681526020018581526020018481526020018373ffffffffffffffffffffffffffffffffffffffff1673ffffffffffffffffffffffffffffffffffffffff168152602001828103825287818151815260200191508051906020019080838360005b838110156104c75780820151818401526020810190506104ac565b50505050905090810190601f1680156104f45780820380516001836020036101000a031916815260200191505b509650505050505050602060405180830381600087803b15801561051757600080fd5b505af115801561052b573d6000803e3d6000fd5b505050506040513d602081101561054157600080fd5b810190808051906020019092919050505090508073ffffffffffffffffffffffffffffffffffffffff168573ffffffffffffffffffffffffffffffffffffffff16146105f5576040517f08c379a000000000000000000000000000000000000000000000000000000000815260040180806020018281038252601c8152602001807f4f726465727320617265206e6f7420636f6d706c696d656e746172790000000081525060200191505060405180910390fd5b505050505050505050565b61060861073d565b81806020019051606081101561061d57600080fd5b81019080805190602001909291908051604051939291908464010000000082111561064757600080fd5b8382019150602082018581111561065d57600080fd5b825186600182028301116401000000008211171561067a57600080fd5b8083526020830192505050908051906020019080838360005b838110156106ae578082015181840152602081019050610693565b50505050905090810190601f1680156106db5780820380516001836020036101000a031916815260200191505b5060405260200180519060200190929190505050829250836000018460200185604001838152508390528373ffffffffffffffffffffffffffffffffffffffff1673ffffffffffffffffffffffffffffffffffffffff16815250505050919050565b6040518060600160405280600073ffffffffffffffffffffffffffffffffffffffff1681526020016060815260200160008152509056fea265627a7a7231582056d8ef53499a5346f5dfac356edaf076340b6da15ca21bd8d536440cb63dbc1c64736f6c63430005110032",
  "linkReferences": {},
  "deployedLinkReferences": {}
}