{
  "_format": "hh-sol-artifact-1",
  "contractName": "WithdrawManager",
  "sourceName": "contracts/root/withdrawManager/WithdrawManager.sol",
  "abi": [
    {
      "anonymous": false,
      "inputs": [
        {
          "indexed": true,
          "internalType": "uint256",
          "name": "exitId",
          "type": "uint256"
        }
      ],
      "name": "ExitCancelled",
      "type": "event"
    },
    {
      "anonymous": false,
      "inputs": [
        {
          "indexed": true,
          "internalType": "uint256",
          "name": "oldExitPeriod",
          "type": "uint256"
        },
        {
          "indexed": true,
          "internalType": "uint256",
          "name": "newExitPeriod",
          "type": "uint256"
        }
      ],
      "name": "ExitPeriodUpdate",
      "type": "event"
    },
    {
      "anonymous": false,
      "inputs": [
        {
          "indexed": true,
          "internalType": "address",
          "name": "exitor",
          "type": "address"
        },
        {
          "indexed": true,
          "internalType": "uint256",
          "name": "exitId",
          "type": "uint256"
        },
        {
          "indexed": true,
          "internalType": "address",
          "name": "token",
          "type": "address"
        },
        {
          "indexed": false,
          "internalType": "uint256",
          "name": "amount",
          "type": "uint256"
        },
        {
          "indexed": false,
          "internalType": "bool",
          "name": "isRegularExit",
          "type": "bool"
        }
      ],
      "name": "ExitStarted",
      "type": "event"
    },
    {
      "anonymous": false,
      "inputs": [
        {
          "indexed": true,
          "internalType": "uint256",
          "name": "exitId",
          "type": "uint256"
        },
        {
          "indexed": true,
          "internalType": "uint256",
          "name": "age",
          "type": "uint256"
        },
        {
          "indexed": false,
          "internalType": "address",
          "name": "signer",
          "type": "address"
        }
      ],
      "name": "ExitUpdated",
      "type": "event"
    },
    {
      "anonymous": false,
      "inputs": [
        {
          "indexed": true,
          "internalType": "address",
          "name": "previousOwner",
          "type": "address"
        },
        {
          "indexed": true,
          "internalType": "address",
          "name": "newOwner",
          "type": "address"
        }
      ],
      "name": "OwnershipTransferred",
      "type": "event"
    },
    {
      "anonymous": false,
      "inputs": [
        {
          "indexed": true,
          "internalType": "uint256",
          "name": "exitId",
          "type": "uint256"
        },
        {
          "indexed": true,
          "internalType": "address",
          "name": "user",
          "type": "address"
        },
        {
          "indexed": true,
          "internalType": "address",
          "name": "token",
          "type": "address"
        },
        {
          "indexed": false,
          "internalType": "uint256",
          "name": "amount",
          "type": "uint256"
        }
      ],
      "name": "Withdraw",
      "type": "event"
    },
    {
      "payable": true,
      "stateMutability": "payable",
      "type": "fallback"
    },
    {
      "constant": true,
      "inputs": [],
      "name": "HALF_EXIT_PERIOD",
      "outputs": [
        {
          "internalType": "uint256",
          "name": "",
          "type": "uint256"
        }
      ],
      "payable": false,
      "stateMutability": "view",
      "type": "function"
    },
    {
      "constant": true,
      "inputs": [],
      "name": "ON_FINALIZE_GAS_LIMIT",
      "outputs": [
        {
          "internalType": "uint32",
          "name": "",
          "type": "uint32"
        }
      ],
      "payable": false,
      "stateMutability": "view",
      "type": "function"
    },
    {
      "constant": false,
      "inputs": [
        {
          "internalType": "address",
          "name": "exitor",
          "type": "address"
        },
        {
          "internalType": "address",
          "name": "childToken",
          "type": "address"
        },
        {
          "internalType": "address",
          "name": "rootToken",
          "type": "address"
        },
        {
          "internalType": "uint256",
          "name": "exitAmountOrTokenId",
          "type": "uint256"
        },
        {
          "internalType": "bytes32",
          "name": "txHash",
          "type": "bytes32"
        },
        {
          "internalType": "bool",
          "name": "isRegularExit",
          "type": "bool"
        },
        {
          "internalType": "uint256",
          "name": "priority",
          "type": "uint256"
        }
      ],
      "name": "addExitToQueue",
      "outputs": [],
      "payable": false,
      "stateMutability": "nonpayable",
      "type": "function"
    },
    {
      "constant": false,
      "inputs": [
        {
          "internalType": "uint256",
          "name": "exitId",
          "type": "uint256"
        },
        {
          "internalType": "uint256",
          "name": "age",
          "type": "uint256"
        },
        {
          "internalType": "address",
          "name": "utxoOwner",
          "type": "address"
        },
        {
          "internalType": "address",
          "name": "token",
          "type": "address"
        }
      ],
      "name": "addInput",
      "outputs": [],
      "payable": false,
      "stateMutability": "nonpayable",
      "type": "function"
    },
    {
      "constant": false,
      "inputs": [
        {
          "internalType": "uint256",
          "name": "exitId",
          "type": "uint256"
        },
        {
          "internalType": "uint256",
          "name": "inputId",
          "type": "uint256"
        },
        {
          "internalType": "bytes",
          "name": "challengeData",
          "type": "bytes"
        },
        {
          "internalType": "address",
          "name": "adjudicatorPredicate",
          "type": "address"
        }
      ],
      "name": "challengeExit",
      "outputs": [],
      "payable": false,
      "stateMutability": "nonpayable",
      "type": "function"
    },
    {
      "constant": false,
      "inputs": [
        {
          "internalType": "address",
          "name": "token",
          "type": "address"
        }
      ],
      "name": "createExitQueue",
      "outputs": [],
      "payable": false,
      "stateMutability": "nonpayable",
      "type": "function"
    },
    {
      "constant": true,
      "inputs": [],
      "name": "exitNft",
      "outputs": [
        {
          "internalType": "contract ExitNFT",
          "name": "",
          "type": "address"
        }
      ],
      "payable": false,
      "stateMutability": "view",
      "type": "function"
    },
    {
      "constant": true,
      "inputs": [],
      "name": "exitWindow",
      "outputs": [
        {
          "internalType": "uint256",
          "name": "",
          "type": "uint256"
        }
      ],
      "payable": false,
      "stateMutability": "view",
      "type": "function"
    },
    {
      "constant": true,
      "inputs": [
        {
          "internalType": "uint256",
          "name": "",
          "type": "uint256"
        }
      ],
      "name": "exits",
      "outputs": [
        {
          "internalType": "uint256",
          "name": "receiptAmountOrNFTId",
          "type": "uint256"
        },
        {
          "internalType": "bytes32",
          "name": "txHash",
          "type": "bytes32"
        },
        {
          "internalType": "address",
          "name": "owner",
          "type": "address"
        },
        {
          "internalType": "address",
          "name": "token",
          "type": "address"
        },
        {
          "internalType": "bool",
          "name": "isRegularExit",
          "type": "bool"
        },
        {
          "internalType": "address",
          "name": "predicate",
          "type": "address"
        }
      ],
      "payable": false,
      "stateMutability": "view",
      "type": "function"
    },
    {
      "constant": true,
      "inputs": [
        {
          "internalType": "address",
          "name": "",
          "type": "address"
        }
      ],
      "name": "exitsQueues",
      "outputs": [
        {
          "internalType": "address",
          "name": "",
          "type": "address"
        }
      ],
      "payable": false,
      "stateMutability": "view",
      "type": "function"
    },
    {
      "constant": true,
      "inputs": [],
      "name": "isOwner",
      "outputs": [
        {
          "internalType": "bool",
          "name": "",
          "type": "bool"
        }
      ],
      "payable": false,
      "stateMutability": "view",
      "type": "function"
    },
    {
      "constant": true,
      "inputs": [],
      "name": "owner",
      "outputs": [
        {
          "internalType": "address",
          "name": "",
          "type": "address"
        }
      ],
      "payable": false,
      "stateMutability": "view",
      "type": "function"
    },
    {
      "constant": true,
      "inputs": [
        {
          "internalType": "bytes32",
          "name": "",
          "type": "bytes32"
        }
      ],
      "name": "ownerExits",
      "outputs": [
        {
          "internalType": "uint256",
          "name": "",
          "type": "uint256"
        }
      ],
      "payable": false,
      "stateMutability": "view",
      "type": "function"
    },
    {
      "constant": false,
      "inputs": [
        {
          "internalType": "address",
          "name": "_token",
          "type": "address"
        }
      ],
      "name": "processExits",
      "outputs": [],
      "payable": false,
      "stateMutability": "nonpayable",
      "type": "function"
    },
    {
      "constant": false,
      "inputs": [
        {
          "internalType": "address[]",
          "name": "_tokens",
          "type": "address[]"
        }
      ],
      "name": "processExitsBatch",
      "outputs": [],
      "payable": false,
      "stateMutability": "nonpayable",
      "type": "function"
    },
    {
      "constant": false,
      "inputs": [],
      "name": "renounceOwnership",
      "outputs": [],
      "payable": false,
      "stateMutability": "nonpayable",
      "type": "function"
    },
    {
      "constant": false,
      "inputs": [
        {
          "internalType": "uint256",
          "name": "depositId",
          "type": "uint256"
        },
        {
          "internalType": "address",
          "name": "token",
          "type": "address"
        },
        {
          "internalType": "uint256",
          "name": "amountOrToken",
          "type": "uint256"
        }
      ],
      "name": "startExitWithDepositedTokens",
      "outputs": [],
      "payable": true,
      "stateMutability": "payable",
      "type": "function"
    },
    {
      "constant": false,
      "inputs": [
        {
          "internalType": "address",
          "name": "newOwner",
          "type": "address"
        }
      ],
      "name": "transferOwnership",
      "outputs": [],
      "payable": false,
      "stateMutability": "nonpayable",
      "type": "function"
    },
    {
      "constant": false,
      "inputs": [
        {
          "internalType": "uint256",
          "name": "halfExitPeriod",
          "type": "uint256"
        }
      ],
      "name": "updateExitPeriod",
      "outputs": [],
      "payable": false,
      "stateMutability": "nonpayable",
      "type": "function"
    },
    {
      "constant": true,
      "inputs": [
        {
          "internalType": "bytes",
          "name": "data",
          "type": "bytes"
        },
        {
          "internalType": "uint8",
          "name": "offset",
          "type": "uint8"
        },
        {
          "internalType": "bool",
          "name": "verifyTxInclusion",
          "type": "bool"
        }
      ],
      "name": "verifyInclusion",
      "outputs": [
        {
          "internalType": "uint256",
          "name": "",
          "type": "uint256"
        }
      ],
      "payable": false,
      "stateMutability": "view",
      "type": "function"
    }
  ],
  "bytecode": "0x608060405262049d40600255620493e0600960146101000a81548163ffffffff021916908363ffffffff160217905550336000806101000a81548173ffffffffffffffffffffffffffffffffffffffff021916908373ffffffffffffffffffffffffffffffffffffffff1602179055506000809054906101000a900473ffffffffffffffffffffffffffffffffffffffff1673ffffffffffffffffffffffffffffffffffffffff16600073ffffffffffffffffffffffffffffffffffffffff167f8be0079c531659141344cd1fd0a4f28419497f9722a3daafe3b4186f6b6457e060405160405180910390a3615849806100fa6000396000f3fe6080604052600436106200013a5760003560e01c80639145e6df11620000af578063d11f045c116200006d578063d11f045c1462000770578063d931a8691462000805578063ed4a0be814620008c4578063edeca09b14620008f2578063f2fde38b146200094c576200013a565b80639145e6df14620004d95780639492b0b8146200052e57806396cbd81214620005ef578063ad1d80691462000629578063c74ab88a14620006e3576200013a565b8063433c76bf11620000fd578063433c76bf14620003a1578063661429c814620003e0578063715018a614620004335780638da5cb5b146200044d5780638f32d59b14620004a7576200013a565b80630f6795f2146200013c578063144a03b314620001915780631e29848b14620001ec57806322f192af146200021a578063342de17914620002a3575b005b3480156200014957600080fd5b506200018f600480360360208110156200016257600080fd5b81019080803573ffffffffffffffffffffffffffffffffffffffff169060200190929190505050620009a1565b005b620001ea60048036036060811015620001a957600080fd5b8101908080359060200190929190803573ffffffffffffffffffffffffffffffffffffffff169060200190929190803590602001909291905050506200122b565b005b348015620001f957600080fd5b5062000204620012ae565b6040518082815260200191505060405180910390f35b3480156200022757600080fd5b50620002a1600480360360808110156200024057600080fd5b810190808035906020019092919080359060200190929190803573ffffffffffffffffffffffffffffffffffffffff169060200190929190803573ffffffffffffffffffffffffffffffffffffffff169060200190929190505050620012b4565b005b348015620002b057600080fd5b50620002e060048036036020811015620002c957600080fd5b810190808035906020019092919050505062001515565b604051808781526020018681526020018573ffffffffffffffffffffffffffffffffffffffff1673ffffffffffffffffffffffffffffffffffffffff1681526020018473ffffffffffffffffffffffffffffffffffffffff1673ffffffffffffffffffffffffffffffffffffffff168152602001831515151581526020018273ffffffffffffffffffffffffffffffffffffffff1673ffffffffffffffffffffffffffffffffffffffff168152602001965050505050505060405180910390f35b348015620003ae57600080fd5b50620003de60048036036020811015620003c757600080fd5b8101908080359060200190929190505050620015be565b005b348015620003ed57600080fd5b506200041d600480360360208110156200040657600080fd5b81019080803590602001909291905050506200160c565b6040518082815260200191505060405180910390f35b3480156200044057600080fd5b506200044b62001624565b005b3480156200045a57600080fd5b5062000465620016f7565b604051808273ffffffffffffffffffffffffffffffffffffffff1673ffffffffffffffffffffffffffffffffffffffff16815260200191505060405180910390f35b348015620004b457600080fd5b50620004bf62001720565b604051808215151515815260200191505060405180910390f35b348015620004e657600080fd5b506200052c60048036036020811015620004ff57600080fd5b81019080803573ffffffffffffffffffffffffffffffffffffffff16906020019092919050505062001777565b005b3480156200053b57600080fd5b50620005ed600480360360808110156200055457600080fd5b810190808035906020019092919080359060200190929190803590602001906401000000008111156200058657600080fd5b8201836020820111156200059957600080fd5b80359060200191846001830284011164010000000083111715620005bc57600080fd5b9091929391929390803573ffffffffffffffffffffffffffffffffffffffff169060200190929190505050620018e7565b005b348015620005fc57600080fd5b506200060762001ed1565b604051808263ffffffff1663ffffffff16815260200191505060405180910390f35b3480156200063657600080fd5b50620006cd600480360360608110156200064f57600080fd5b81019080803590602001906401000000008111156200066d57600080fd5b8201836020820111156200068057600080fd5b80359060200191846001830284011164010000000083111715620006a357600080fd5b9091929391929390803560ff16906020019092919080351515906020019092919050505062001ee7565b6040518082815260200191505060405180910390f35b348015620006f057600080fd5b506200076e600480360360208110156200070957600080fd5b81019080803590602001906401000000008111156200072757600080fd5b8201836020820111156200073a57600080fd5b803590602001918460208302840111640100000000831117156200075d57600080fd5b90919293919293905050506200236b565b005b3480156200077d57600080fd5b50620007c3600480360360208110156200079657600080fd5b81019080803573ffffffffffffffffffffffffffffffffffffffff169060200190929190505050620023c4565b604051808273ffffffffffffffffffffffffffffffffffffffff1673ffffffffffffffffffffffffffffffffffffffff16815260200191505060405180910390f35b3480156200081257600080fd5b50620008c2600480360360e08110156200082b57600080fd5b81019080803573ffffffffffffffffffffffffffffffffffffffff169060200190929190803573ffffffffffffffffffffffffffffffffffffffff169060200190929190803573ffffffffffffffffffffffffffffffffffffffff169060200190929190803590602001909291908035906020019092919080351515906020019092919080359060200190929190505050620023f7565b005b348015620008d157600080fd5b50620008dc62002b34565b6040518082815260200191505060405180910390f35b348015620008ff57600080fd5b506200090a62002b3a565b604051808273ffffffffffffffffffffffffffffffffffffffff1673ffffffffffffffffffffffffffffffffffffffff16815260200191505060405180910390f35b3480156200095957600080fd5b506200099f600480360360208110156200097257600080fd5b81019080803573ffffffffffffffffffffffffffffffffffffffff16906020019092919050505062002b60565b005b6000806000600860008573ffffffffffffffffffffffffffffffffffffffff1673ffffffffffffffffffffffffffffffffffffffff16815260200190815260200160002060009054906101000a900473ffffffffffffffffffffffffffffffffffffffff1690505b60008173ffffffffffffffffffffffffffffffffffffffff1663bda1504b6040518163ffffffff1660e01b815260040160206040518083038186803b15801562000a5257600080fd5b505afa15801562000a67573d6000803e3d6000fd5b505050506040513d602081101562000a7e57600080fd5b810190808051906020019092919050505011801562000ab45750600960149054906101000a900463ffffffff1663ffffffff165a115b1562001224578073ffffffffffffffffffffffffffffffffffffffff1663d6362e976040518163ffffffff1660e01b8152600401604080518083038186803b15801562000b0057600080fd5b505afa15801562000b15573d6000803e3d6000fd5b505050506040513d604081101562000b2c57600080fd5b810190808051906020019092919080519060200190929190505050809350819450505081608084901b17915062000b6262004b2f565b600660008481526020019081526020016000206040518060c001604052908160008201548152602001600182015481526020016002820160009054906101000a900473ffffffffffffffffffffffffffffffffffffffff1673ffffffffffffffffffffffffffffffffffffffff1673ffffffffffffffffffffffffffffffffffffffff1681526020016003820160009054906101000a900473ffffffffffffffffffffffffffffffffffffffff1673ffffffffffffffffffffffffffffffffffffffff1673ffffffffffffffffffffffffffffffffffffffff1681526020016003820160149054906101000a900460ff161515151581526020016004820160009054906101000a900473ffffffffffffffffffffffffffffffffffffffff1673ffffffffffffffffffffffffffffffffffffffff1673ffffffffffffffffffffffffffffffffffffffff168152505090504284111562000cc6575050505062001228565b8173ffffffffffffffffffffffffffffffffffffffff1663b07576ac6040518163ffffffff1660e01b81526004016040805180830381600087803b15801562000d0e57600080fd5b505af115801562000d23573d6000803e3d6000fd5b505050506040513d604081101562000d3a57600080fd5b8101908080519060200190929190805190602001909291905050505050600960009054906101000a900473ffffffffffffffffffffffffffffffffffffffff1673ffffffffffffffffffffffffffffffffffffffff16634f558e79846040518263ffffffff1660e01b81526004018082815260200191505060206040518083038186803b15801562000dcb57600080fd5b505afa15801562000de0573d6000803e3d6000fd5b505050506040513d602081101562000df757600080fd5b810190808051906020019092919050505062000e14575062000a09565b6000600960009054906101000a900473ffffffffffffffffffffffffffffffffffffffff1673ffffffffffffffffffffffffffffffffffffffff16636352211e856040518263ffffffff1660e01b81526004018082815260200191505060206040518083038186803b15801562000e8a57600080fd5b505afa15801562000e9f573d6000803e3d6000fd5b505050506040513d602081101562000eb657600080fd5b81019080805190602001909291905050509050806006600086815260200190815260200160002060020160006101000a81548173ffffffffffffffffffffffffffffffffffffffff021916908373ffffffffffffffffffffffffffffffffffffffff160217905550600960009054906101000a900473ffffffffffffffffffffffffffffffffffffffff1673ffffffffffffffffffffffffffffffffffffffff166342966c68856040518263ffffffff1660e01b815260040180828152602001915050600060405180830381600087803b15801562000f9457600080fd5b505af115801562000fa9573d6000803e3d6000fd5b505050508160a0015173ffffffffffffffffffffffffffffffffffffffff1662000fd38562002b82565b6040516024018080602001828103825283818151815260200191508051906020019080838360005b838110156200101857808201518184015260208101905062000ffb565b50505050905090810190601f168015620010465780820380516001836020036101000a031916815260200191505b50925050506040516020818303038152906040527f7bd94e03000000000000000000000000000000000000000000000000000000007bffffffffffffffffffffffffffffffffffffffffffffffffffffffff19166020820180517bffffffffffffffffffffffffffffffffffffffffffffffffffffffff83818316178352505050506040518082805190602001908083835b60208310620010fd5780518252602082019150602081019050602083039250620010d8565b6001836020036101000a0380198251168184511680821785525050505050509050019150506000604051808303816000865af19150503d806000811462001161576040519150601f19603f3d011682016040523d82523d6000602084013e62001166565b606091505b5050508573ffffffffffffffffffffffffffffffffffffffff168173ffffffffffffffffffffffffffffffffffffffff16857ffeb2000dca3e617cd6f3a8bbb63014bb54a124aac6ccbf73ee7229b4cd01f12085600001516040518082815260200191505060405180910390a481608001516200121c578073ffffffffffffffffffffffffffffffffffffffff166108fc67016345785d8a00009081150290604051600060405180830381858888f19350505050505b505062000a09565b5050505b50565b67016345785d8a00003414620012a9576040517f08c379a00000000000000000000000000000000000000000000000000000000081526004018080602001828103825260138152602001807f496e76616c696420426f6e6420616d6f756e740000000000000000000000000081525060200191505060405180910390fd5b505050565b600a5481565b60006003811115620012c257fe5b600360009054906101000a900473ffffffffffffffffffffffffffffffffffffffff1673ffffffffffffffffffffffffffffffffffffffff166337b1d585336040518263ffffffff1660e01b8152600401808273ffffffffffffffffffffffffffffffffffffffff1673ffffffffffffffffffffffffffffffffffffffff16815260200191505060206040518083038186803b1580156200136257600080fd5b505afa15801562001377573d6000803e3d6000fd5b505050506040513d60208110156200138e57600080fd5b81019080805190602001909291905050506003811115620013ab57fe5b141562001420576040517f08c379a00000000000000000000000000000000000000000000000000000000081526004018080602001828103825260188152602001807f5052454449434154455f4e4f545f415554484f52495a4544000000000000000081525060200191505060405180910390fd5b6000600660008681526020019081526020016000209050600073ffffffffffffffffffffffffffffffffffffffff168160020160009054906101000a900473ffffffffffffffffffffffffffffffffffffffff1673ffffffffffffffffffffffffffffffffffffffff161415620014ff576040517f08c379a000000000000000000000000000000000000000000000000000000000815260040180806020018281038252600f8152602001807f494e56414c49445f455849545f4944000000000000000000000000000000000081525060200191505060405180910390fd5b6200150e858585338662002c7f565b5050505050565b60066020528060005260406000206000915090508060000154908060010154908060020160009054906101000a900473ffffffffffffffffffffffffffffffffffffffff16908060030160009054906101000a900473ffffffffffffffffffffffffffffffffffffffff16908060030160149054906101000a900460ff16908060040160009054906101000a900473ffffffffffffffffffffffffffffffffffffffff16905086565b620015c862001720565b620015d257600080fd5b806002547f06b98f3947a8966918fef150b41170e78ba1d91dd2b1d2fd48a59c91ffbd66a160405160405180910390a38060028190555050565b60076020528060005260406000206000915090505481565b6200162e62001720565b6200163857600080fd5b600073ffffffffffffffffffffffffffffffffffffffff166000809054906101000a900473ffffffffffffffffffffffffffffffffffffffff1673ffffffffffffffffffffffffffffffffffffffff167f8be0079c531659141344cd1fd0a4f28419497f9722a3daafe3b4186f6b6457e060405160405180910390a360008060006101000a81548173ffffffffffffffffffffffffffffffffffffffff021916908373ffffffffffffffffffffffffffffffffffffffff160217905550565b60008060009054906101000a900473ffffffffffffffffffffffffffffffffffffffff16905090565b60008060009054906101000a900473ffffffffffffffffffffffffffffffffffffffff1673ffffffffffffffffffffffffffffffffffffffff163373ffffffffffffffffffffffffffffffffffffffff1614905090565b600360009054906101000a900473ffffffffffffffffffffffffffffffffffffffff1673ffffffffffffffffffffffffffffffffffffffff163373ffffffffffffffffffffffffffffffffffffffff16146200183b576040517f08c379a000000000000000000000000000000000000000000000000000000000815260040180806020018281038252601a8152602001807f554e415554484f52495a45445f52454749535452595f4f4e4c5900000000000081525060200191505060405180910390fd5b604051620018499062004bac565b604051809103906000f08015801562001866573d6000803e3d6000fd5b50600860008373ffffffffffffffffffffffffffffffffffffffff1673ffffffffffffffffffffffffffffffffffffffff16815260200190815260200160002060006101000a81548173ffffffffffffffffffffffffffffffffffffffff021916908373ffffffffffffffffffffffffffffffffffffffff16021790555050565b600060066000878152602001908152602001600020905060008160050160008781526020019081526020016000209050600073ffffffffffffffffffffffffffffffffffffffff168260020160009054906101000a900473ffffffffffffffffffffffffffffffffffffffff1673ffffffffffffffffffffffffffffffffffffffff1614158015620019ca5750600073ffffffffffffffffffffffffffffffffffffffff168160000160009054906101000a900473ffffffffffffffffffffffffffffffffffffffff1673ffffffffffffffffffffffffffffffffffffffff1614155b62001a3d576040517f08c379a00000000000000000000000000000000000000000000000000000000081526004018080602001828103825260188152602001807f496e76616c69642065786974206f7220696e707574206964000000000000000081525060200191505060405180910390fd5b6000600381111562001a4b57fe5b600360009054906101000a900473ffffffffffffffffffffffffffffffffffffffff1673ffffffffffffffffffffffffffffffffffffffff166337b1d585856040518263ffffffff1660e01b8152600401808273ffffffffffffffffffffffffffffffffffffffff1673ffffffffffffffffffffffffffffffffffffffff16815260200191505060206040518083038186803b15801562001aeb57600080fd5b505afa15801562001b00573d6000803e3d6000fd5b505050506040513d602081101562001b1757600080fd5b8101908080519060200190929190505050600381111562001b3457fe5b141562001ba9576040517f08c379a00000000000000000000000000000000000000000000000000000000081526004018080602001828103825260118152602001807f494e56414c49445f50524544494341544500000000000000000000000000000081525060200191505060405180910390fd5b8273ffffffffffffffffffffffffffffffffffffffff1663ec58410c62001bd08462002e47565b62001bdc898562003029565b88886040518563ffffffff1660e01b815260040180806020018060200180602001848103845288818151815260200191508051906020019080838360005b8381101562001c3757808201518184015260208101905062001c1a565b50505050905090810190601f16801562001c655780820380516001836020036101000a031916815260200191505b50848103835287818151815260200191508051906020019080838360005b8381101562001ca057808201518184015260208101905062001c83565b50505050905090810190601f16801562001cce5780820380516001836020036101000a031916815260200191505b508481038252868682818152602001925080828437600081840152601f19601f820116905080830192505050975050505050505050602060405180830381600087803b15801562001d1e57600080fd5b505af115801562001d33573d6000803e3d6000fd5b505050506040513d602081101562001d4a57600080fd5b810190808051906020019092919050505062001dce576040517f08c379a00000000000000000000000000000000000000000000000000000000081526004018080602001828103825260108152602001807f4368616c6c656e6765206661696c65640000000000000000000000000000000081525060200191505060405180910390fd5b600960009054906101000a900473ffffffffffffffffffffffffffffffffffffffff1673ffffffffffffffffffffffffffffffffffffffff166342966c68886040518263ffffffff1660e01b815260040180828152602001915050600060405180830381600087803b15801562001e4457600080fd5b505af115801562001e59573d6000803e3d6000fd5b505050503373ffffffffffffffffffffffffffffffffffffffff166108fc67016345785d8a00009081150290604051600060405180830381858888f1935050505050867f93a8052a01c184f88312af177ab8fae2e56a9973b6aa4bdc62dfcf744e09d04160405160405180910390a250505050505050565b600960149054906101000a900463ffffffff1681565b6000606062001f4462001f3e87878080601f016020809104026020016040519081016040528093929190818152602001838380828437600081840152601f19601f8201169050808301925050505050505062003237565b62003267565b905062001f5062004bba565b62001f72828660ff168151811062001f6457fe5b602002602001015162003354565b81600001818152505062001fa0826008870160ff168151811062001f9257fe5b6020026020010151620033b3565b81602001819052506200202962001fd1836006880160ff168151811062001fc357fe5b6020026020010151620033b3565b826020015162001ffb8560078a0160ff168151811062001fed57fe5b6020026020010151620033b3565b620020208660058b0160ff16815181106200201257fe5b602002602001015162003354565b60001b62003433565b6200209c576040517f08c379a000000000000000000000000000000000000000000000000000000000815260040180806020018281038252601c8152602001807f494e56414c49445f524543454950545f4d45524b4c455f50524f4f460000000081525060200191505060405180910390fd5b8315620021985762002124620020cc83600a880160ff1681518110620020be57fe5b6020026020010151620033b3565b8260200151620020f685600b8a0160ff1681518110620020e857fe5b6020026020010151620033b3565b6200211b8660048b0160ff16815181106200210d57fe5b602002602001015162003354565b60001b62003433565b62002197576040517f08c379a00000000000000000000000000000000000000000000000000000000081526004018080602001828103825260178152602001807f494e56414c49445f54585f4d45524b4c455f50524f4f4600000000000000000081525060200191505060405180910390fd5b5b620021bd826002870160ff1681518110620021af57fe5b602002602001015162003354565b816040018181525050620022748160400151620021f4846003890160ff1681518110620021e657fe5b602002602001015162003354565b620022198560048a0160ff16815181106200220b57fe5b602002602001015162003354565b60001b620022418660058b0160ff16815181106200223357fe5b602002602001015162003354565b60001b85600001516200226e8860018d0160ff16815181106200226057fe5b6020026020010151620033b3565b62003727565b8160600181815250506200229662002290826020015162003237565b62003354565b81608001818152505060007fffffffffffffffffffffffffffffffffffffffffffffffffffffffff00000000826080015116146200233c576040517f08c379a000000000000000000000000000000000000000000000000000000000815260040180806020018281038252601d8152602001807f4272616e6368206d61736b2073686f756c64206265203332206269747300000081525060200191505060405180910390fd5b806080015160208260400151901b607f6200235b8460600151620039c4565b901b171792505050949350505050565b60008090505b82829050811015620023bf57620023b18383838181106200238e57fe5b9050602002013573ffffffffffffffffffffffffffffffffffffffff16620009a1565b808060010191505062002371565b505050565b60086020528060005260406000206000915054906101000a900473ffffffffffffffffffffffffffffffffffffffff1681565b846000600360009054906101000a900473ffffffffffffffffffffffffffffffffffffffff1673ffffffffffffffffffffffffffffffffffffffff166337b1d585336040518263ffffffff1660e01b8152600401808273ffffffffffffffffffffffffffffffffffffffff1673ffffffffffffffffffffffffffffffffffffffff16815260200191505060206040518083038186803b1580156200249a57600080fd5b505afa158015620024af573d6000803e3d6000fd5b505050506040513d6020811015620024c657600080fd5b81019080805190602001909291905050509050600073ffffffffffffffffffffffffffffffffffffffff16600360009054906101000a900473ffffffffffffffffffffffffffffffffffffffff1673ffffffffffffffffffffffffffffffffffffffff1663ea60c7c4846040518263ffffffff1660e01b8152600401808273ffffffffffffffffffffffffffffffffffffffff1673ffffffffffffffffffffffffffffffffffffffff16815260200191505060206040518083038186803b1580156200259157600080fd5b505afa158015620025a6573d6000803e3d6000fd5b505050506040513d6020811015620025bd57600080fd5b810190808051906020019092919050505073ffffffffffffffffffffffffffffffffffffffff16141562002659576040517f08c379a00000000000000000000000000000000000000000000000000000000081526004018080602001828103825260178152602001807f726f6f74546f6b656e206e6f7420737570706f7274656400000000000000000081525060200191505060405180910390fd5b600160038111156200266757fe5b8160038111156200267457fe5b1415620027bc5760001515600360009054906101000a900473ffffffffffffffffffffffffffffffffffffffff1673ffffffffffffffffffffffffffffffffffffffff1663daa09e54846040518263ffffffff1660e01b8152600401808273ffffffffffffffffffffffffffffffffffffffff1673ffffffffffffffffffffffffffffffffffffffff16815260200191505060206040518083038186803b1580156200271f57600080fd5b505afa15801562002734573d6000803e3d6000fd5b505050506040513d60208110156200274b57600080fd5b8101908080519060200190929190505050151514620027b6576040517f08c379a0000000000000000000000000000000000000000000000000000000008152600401808060200182810382526024815260200180620057ce6024913960400191505060405180910390fd5b620029b6565b60026003811115620027ca57fe5b816003811115620027d757fe5b14156200291f5760011515600360009054906101000a900473ffffffffffffffffffffffffffffffffffffffff1673ffffffffffffffffffffffffffffffffffffffff1663daa09e54846040518263ffffffff1660e01b8152600401808273ffffffffffffffffffffffffffffffffffffffff1673ffffffffffffffffffffffffffffffffffffffff16815260200191505060206040518083038186803b1580156200288257600080fd5b505afa15801562002897573d6000803e3d6000fd5b505050506040513d6020811015620028ae57600080fd5b810190808051906020019092919050505015151462002919576040517f08c379a00000000000000000000000000000000000000000000000000000000081526004018080602001828103825260258152602001806200577c6025913960400191505060405180910390fd5b620029b5565b6003808111156200292c57fe5b8160038111156200293957fe5b14156200294657620029b4565b6040517f08c379a00000000000000000000000000000000000000000000000000000000081526004018080602001828103825260188152602001807f5052454449434154455f4e4f545f415554484f52495a4544000000000000000081525060200191505060405180910390fd5b5b5b8773ffffffffffffffffffffffffffffffffffffffff16600360009054906101000a900473ffffffffffffffffffffffffffffffffffffffff1673ffffffffffffffffffffffffffffffffffffffff1663ea60c7c4896040518263ffffffff1660e01b8152600401808273ffffffffffffffffffffffffffffffffffffffff1673ffffffffffffffffffffffffffffffffffffffff16815260200191505060206040518083038186803b15801562002a6d57600080fd5b505afa15801562002a82573d6000803e3d6000fd5b505050506040513d602081101562002a9957600080fd5b810190808051906020019092919050505073ffffffffffffffffffffffffffffffffffffffff161462002b18576040517f08c379a0000000000000000000000000000000000000000000000000000000008152600401808060200182810382526023815260200180620057f26023913960400191505060405180910390fd5b62002b2989888888888833620039e4565b505050505050505050565b60025481565b600960009054906101000a900473ffffffffffffffffffffffffffffffffffffffff1681565b62002b6a62001720565b62002b7457600080fd5b62002b7f81620040f2565b50565b60606000600660008481526020019081526020016000209050828160030160009054906101000a900473ffffffffffffffffffffffffffffffffffffffff168260020160009054906101000a900473ffffffffffffffffffffffffffffffffffffffff168360000154604051602001808581526020018473ffffffffffffffffffffffffffffffffffffffff1673ffffffffffffffffffffffffffffffffffffffff1681526020018373ffffffffffffffffffffffffffffffffffffffff1673ffffffffffffffffffffffffffffffffffffffff168152602001828152602001945050505050604051602081830303815290604052915050919050565b60405180606001604052808473ffffffffffffffffffffffffffffffffffffffff1681526020018373ffffffffffffffffffffffffffffffffffffffff1681526020018273ffffffffffffffffffffffffffffffffffffffff1681525060066000878152602001908152602001600020600501600086815260200190815260200160002060008201518160000160006101000a81548173ffffffffffffffffffffffffffffffffffffffff021916908373ffffffffffffffffffffffffffffffffffffffff16021790555060208201518160010160006101000a81548173ffffffffffffffffffffffffffffffffffffffff021916908373ffffffffffffffffffffffffffffffffffffffff16021790555060408201518160020160006101000a81548173ffffffffffffffffffffffffffffffffffffffff021916908373ffffffffffffffffffffffffffffffffffffffff16021790555090505083857f87d2daa6e85f166015ebbcf09f5ee4bc50f93677579339fe128e3561a6807cb685604051808273ffffffffffffffffffffffffffffffffffffffff1673ffffffffffffffffffffffffffffffffffffffff16815260200191505060405180910390a35050505050565b60608160020160009054906101000a900473ffffffffffffffffffffffffffffffffffffffff16600360009054906101000a900473ffffffffffffffffffffffffffffffffffffffff1673ffffffffffffffffffffffffffffffffffffffff1663ea60c7c48460030160009054906101000a900473ffffffffffffffffffffffffffffffffffffffff166040518263ffffffff1660e01b8152600401808273ffffffffffffffffffffffffffffffffffffffff1673ffffffffffffffffffffffffffffffffffffffff16815260200191505060206040518083038186803b15801562002f3257600080fd5b505afa15801562002f47573d6000803e3d6000fd5b505050506040513d602081101562002f5e57600080fd5b8101908080519060200190929190505050836000015484600101548560030160149054906101000a900460ff16604051602001808673ffffffffffffffffffffffffffffffffffffffff1673ffffffffffffffffffffffffffffffffffffffff1681526020018573ffffffffffffffffffffffffffffffffffffffff1673ffffffffffffffffffffffffffffffffffffffff16815260200184815260200183815260200182151515158152602001955050505050506040516020818303038152906040529050919050565b6060828260000160009054906101000a900473ffffffffffffffffffffffffffffffffffffffff168360010160009054906101000a900473ffffffffffffffffffffffffffffffffffffffff16600360009054906101000a900473ffffffffffffffffffffffffffffffffffffffff1673ffffffffffffffffffffffffffffffffffffffff1663ea60c7c48660020160009054906101000a900473ffffffffffffffffffffffffffffffffffffffff166040518263ffffffff1660e01b8152600401808273ffffffffffffffffffffffffffffffffffffffff1673ffffffffffffffffffffffffffffffffffffffff16815260200191505060206040518083038186803b1580156200313a57600080fd5b505afa1580156200314f573d6000803e3d6000fd5b505050506040513d60208110156200316657600080fd5b8101908080519060200190929190505050604051602001808581526020018473ffffffffffffffffffffffffffffffffffffffff1673ffffffffffffffffffffffffffffffffffffffff1681526020018373ffffffffffffffffffffffffffffffffffffffff1673ffffffffffffffffffffffffffffffffffffffff1681526020018273ffffffffffffffffffffffffffffffffffffffff1673ffffffffffffffffffffffffffffffffffffffff168152602001945050505050604051602081830303815290604052905092915050565b6200324162004be9565b600060208301905060405180604001604052808451815260200182815250915050919050565b60606200327482620041eb565b6200327e57600080fd5b60006200328b836200423d565b9050606081604051908082528060200260200182016040528015620032cd57816020015b620032b962004c03565b815260200190600190039081620032af5790505b5090506000620032e18560200151620042b6565b8560200151019050600080600090505b848110156200334757620033058362004347565b91506040518060400160405280838152602001848152508482815181106200332957fe5b602002602001018190525081830192508080600101915050620032f1565b5082945050505050919050565b60008082600001511180156200336f57506021826000015111155b6200337957600080fd5b600080620033878462004407565b915091506000825190506020821015620033a857816020036101000a810490505b809350505050919050565b60606000826000015111620033c757600080fd5b600080620033d58462004407565b915091506060816040519080825280601f01601f1916602001820160405280156200340f5781602001600182028038833980820191505090505b50905060008160200190506200342784828562004441565b81945050505050919050565b60006200343f62004be9565b6200344a8462003237565b90506060620034598262003267565b9050606080600086905060008090506060620034758b620044b7565b9050600081511415620034935760009750505050505050506200371f565b60008090505b865181101562003716578151831115620034bf576000985050505050505050506200371f565b620034de878281518110620034d057fe5b60200260200101516200464e565b95508580519060200120841462003501576000985050505050505050506200371f565b620035208782815181106200351257fe5b602002602001015162003267565b94506011855114156200360457815183141562003591578c805190602001206200355f866010815181106200355157fe5b6020026020010151620033b3565b8051906020012014156200357f576001985050505050505050506200371f565b6000985050505050505050506200371f565b6000828481518110620035a057fe5b602001015160f81c60f81b60f81c905060108160ff161115620035d057600099505050505050505050506200371f565b620035f2868260ff1681518110620035e457fe5b6020026020010151620046c9565b60001b94506001840193505062003708565b600285511415620036f55760006200363d62003635876000815181106200362757fe5b6020026020010151620033b3565b8486620046f8565b905082518185011415620036a7578d8051906020012062003673876001815181106200366557fe5b6020026020010151620033b3565b8051906020012014156200369457600199505050505050505050506200371f565b600099505050505050505050506200371f565b6000811415620036c457600099505050505050505050506200371f565b8084019350620036e986600181518110620036db57fe5b6020026020010151620046c9565b60001b94505062003707565b6000985050505050505050506200371f565b5b808060010191505062003499565b50505050505050505b949350505050565b600080600080600460009054906101000a900473ffffffffffffffffffffffffffffffffffffffff1673ffffffffffffffffffffffffffffffffffffffff166341539d4a876040518263ffffffff1660e01b81526004018082815260200191505060a06040518083038186803b158015620037a157600080fd5b505afa158015620037b6573d6000803e3d6000fd5b505050506040513d60a0811015620037cd57600080fd5b810190808051906020019092919080519060200190929190805190602001909291908051906020019092919080519060200190929190505050509350509250925089898989604051602001808581526020018481526020018381526020018281526020019450505050506040516020818303038152906040528051906020012073__$e61d9d092f9a1b7ffd6ff803beb268e3c6$__636c8f455c9091848d0386896040518563ffffffff1660e01b81526004018085815260200184815260200183815260200180602001828103825283818151815260200191508051906020019080838360005b83811015620038d1578082015181840152602081019050620038b4565b50505050905090810190601f168015620038ff5780820380516001836020036101000a031916815260200191505b509550505050505060206040518083038186803b1580156200392057600080fd5b505af415801562003935573d6000803e3d6000fd5b505050506040513d60208110156200394c57600080fd5b8101908080519060200190929190505050620039b4576040517f08c379a000000000000000000000000000000000000000000000000000000000815260040180806020018281038252602d815260200180620057a1602d913960400191505060405180910390fd5b8093505050509695505050505050565b6000620039dd60025460020283016002544201620047f4565b9050919050565b600073ffffffffffffffffffffffffffffffffffffffff166006600084815260200190815260200160002060030160009054906101000a900473ffffffffffffffffffffffffffffffffffffffff1673ffffffffffffffffffffffffffffffffffffffff161462003abd576040517f08c379a00000000000000000000000000000000000000000000000000000000081526004018080602001828103825260138152602001807f455849545f414c52454144595f4558495354530000000000000000000000000081525060200191505060405180910390fd5b6040518060c001604052808681526020018581526020018873ffffffffffffffffffffffffffffffffffffffff1681526020018773ffffffffffffffffffffffffffffffffffffffff16815260200184151581526020018273ffffffffffffffffffffffffffffffffffffffff1681525060066000848152602001908152602001600020600082015181600001556020820151816001015560408201518160020160006101000a81548173ffffffffffffffffffffffffffffffffffffffff021916908373ffffffffffffffffffffffffffffffffffffffff16021790555060608201518160030160006101000a81548173ffffffffffffffffffffffffffffffffffffffff021916908373ffffffffffffffffffffffffffffffffffffffff16021790555060808201518160030160146101000a81548160ff02191690831515021790555060a08201518160040160006101000a81548173ffffffffffffffffffffffffffffffffffffffff021916908373ffffffffffffffffffffffffffffffffffffffff1602179055509050506000600660008481526020019081526020016000209050600062003cbf8260030160009054906101000a900473ffffffffffffffffffffffffffffffffffffffff168360020160009054906101000a900473ffffffffffffffffffffffffffffffffffffffff16846000015462004810565b9050841562003dd75760056000856fffffffffffffffffffffffffffffffff166fffffffffffffffffffffffffffffffff16815260200190815260200160002060009054906101000a900460ff161562003d81576040517f08c379a000000000000000000000000000000000000000000000000000000000815260040180806020018281038252600a8152602001807f4b4e4f574e5f455849540000000000000000000000000000000000000000000081525060200191505060405180910390fd5b600160056000866fffffffffffffffffffffffffffffffff166fffffffffffffffffffffffffffffffff16815260200190815260200160002060006101000a81548160ff02191690831515021790555062003e7a565b600060076000838152602001908152602001600020541462003e61576040517f08c379a00000000000000000000000000000000000000000000000000000000081526004018080602001828103825260188152602001807f455849545f414c52454144595f494e5f50524f4752455353000000000000000081525060200191505060405180910390fd5b8360076000838152602001908152602001600020819055505b6000600860008460030160009054906101000a900473ffffffffffffffffffffffffffffffffffffffff1673ffffffffffffffffffffffffffffffffffffffff1673ffffffffffffffffffffffffffffffffffffffff16815260200190815260200160002060009054906101000a900473ffffffffffffffffffffffffffffffffffffffff1690508073ffffffffffffffffffffffffffffffffffffffff16631d834a1b608087901c876fffffffffffffffffffffffffffffffff166040518363ffffffff1660e01b81526004018083815260200182815260200192505050600060405180830381600087803b15801562003f7457600080fd5b505af115801562003f89573d6000803e3d6000fd5b50505050600960009054906101000a900473ffffffffffffffffffffffffffffffffffffffff1673ffffffffffffffffffffffffffffffffffffffff166340c10f198460020160009054906101000a900473ffffffffffffffffffffffffffffffffffffffff16876040518363ffffffff1660e01b8152600401808373ffffffffffffffffffffffffffffffffffffffff1673ffffffffffffffffffffffffffffffffffffffff16815260200182815260200192505050600060405180830381600087803b1580156200405b57600080fd5b505af115801562004070573d6000803e3d6000fd5b505050508873ffffffffffffffffffffffffffffffffffffffff16858b73ffffffffffffffffffffffffffffffffffffffff167faa5303fdad123ab5ecaefaf69137bf8632257839546d43a3b3dd148cc2879d6f8b8a60405180838152602001821515151581526020019250505060405180910390a450505050505050505050565b600073ffffffffffffffffffffffffffffffffffffffff168173ffffffffffffffffffffffffffffffffffffffff1614156200412d57600080fd5b8073ffffffffffffffffffffffffffffffffffffffff166000809054906101000a900473ffffffffffffffffffffffffffffffffffffffff1673ffffffffffffffffffffffffffffffffffffffff167f8be0079c531659141344cd1fd0a4f28419497f9722a3daafe3b4186f6b6457e060405160405180910390a3806000806101000a81548173ffffffffffffffffffffffffffffffffffffffff021916908373ffffffffffffffffffffffffffffffffffffffff16021790555050565b6000808260000151141562004204576000905062004238565b60008083602001519050805160001a915060c060ff168260ff161015620042315760009250505062004238565b6001925050505b919050565b60008082600001511415620042565760009050620042b1565b600080905060006200426c8460200151620042b6565b84602001510190506000846000015185602001510190505b80821015620042aa57620042988262004347565b82019150828060010193505062004284565b8293505050505b919050565b600080825160001a9050608060ff16811015620042d857600091505062004342565b60b860ff16811080620042ff575060c060ff168110158015620042fe575060f860ff1681105b5b156200431057600191505062004342565b60c060ff16811015620043325760018060b80360ff1682030191505062004342565b60018060f80360ff168203019150505b919050565b6000806000835160001a9050608060ff168110156200436a5760019150620043fd565b60b860ff1681101562004389576001608060ff168203019150620043fc565b60c060ff16811015620043bb5760b78103600185019450806020036101000a85510460018201810193505050620043fb565b60f860ff16811015620043da57600160c060ff168203019150620043fa565b60f78103600185019450806020036101000a855104600182018101935050505b5b5b5b8192505050919050565b60008060006200441b8460200151620042b6565b905060008185602001510190506000828660000151039050818194509450505050915091565b60008114156200445157620044b2565b5b602060ff168110620044835782518252602060ff1683019250602060ff1682019150602060ff168103905062004452565b6000811115620044b1576000600182602060ff16036101000a03905080198451168184511681811785525050505b5b505050565b6060806000835111156200464557600080620044d560008662004aa0565b60f81c905060018160ff161480620044f0575060038160ff16145b156200458e5760016002865102036040519080825280601f01601f191660200182016040528015620045315781602001600182028038833980820191505090505b50925060006200454360018762004aa0565b905080846000815181106200455457fe5b60200101907effffffffffffffffffffffffffffffffffffffffffffffffffffffffffffff1916908160001a9053506001925050620045d0565b600280865102036040519080825280601f01601f191660200182016040528015620045c85781602001600182028038833980820191505090505b509250600091505b60008260ff1690505b83518110156200464157620045f760028460ff168303018762004aa0565b8482815181106200460457fe5b60200101907effffffffffffffffffffffffffffffffffffffffffffffffffffffffffffff1916908160001a9053508080600101915050620045d9565b5050505b80915050919050565b60608082600001516040519080825280601f01601f191660200182016040528015620046895781602001600182028038833980820191505090505b509050600081511415620046a15780915050620046c4565b6000816020019050620046be846020015182866000015162004441565b81925050505b919050565b60006021826000015114620046dd57600080fd5b60008060018460200151019050805191508192505050919050565b60008060606200470886620044b7565b9050606081516040519080825280601f01601f191660200182016040528015620047415781602001600182028038833980820191505090505b50905060008590505b82518601811015620047c05760008782815181106200476557fe5b602001015160f81c60f81b90508083888403815181106200478257fe5b60200101907effffffffffffffffffffffffffffffffffffffffffffffffffffffffffffff1916908160001a9053505080806001019150506200474a565b50808051906020012082805190602001201415620047e25781519250620047e7565b600092505b8293505050509392505050565b60008183101562004806578162004808565b825b905092915050565b6000600360009054906101000a900473ffffffffffffffffffffffffffffffffffffffff1673ffffffffffffffffffffffffffffffffffffffff1663daa09e54856040518263ffffffff1660e01b8152600401808273ffffffffffffffffffffffffffffffffffffffff1673ffffffffffffffffffffffffffffffffffffffff16815260200191505060206040518083038186803b158015620048b257600080fd5b505afa158015620048c7573d6000803e3d6000fd5b505050506040513d6020811015620048de57600080fd5b8101908080519060200190929190505050156200499257838383604051602001808473ffffffffffffffffffffffffffffffffffffffff1673ffffffffffffffffffffffffffffffffffffffff1660601b81526014018373ffffffffffffffffffffffffffffffffffffffff1673ffffffffffffffffffffffffffffffffffffffff1660601b8152601401828152602001935050505060405160208183030381529060405280519060200120905062004a99565b6000821162004a09576040517f08c379a00000000000000000000000000000000000000000000000000000000081526004018080602001828103825260188152602001807f43414e4e4f545f455849545f5a45524f5f414d4f554e5453000000000000000081525060200191505060405180910390fd5b8383604051602001808373ffffffffffffffffffffffffffffffffffffffff1673ffffffffffffffffffffffffffffffffffffffff1660601b81526014018273ffffffffffffffffffffffffffffffffffffffff1673ffffffffffffffffffffffffffffffffffffffff1660601b8152601401925050506040516020818303038152906040528051906020012090505b9392505050565b6000806002848162004aae57fe5b061462004aef576010826002858162004ac357fe5b048151811062004acf57fe5b602001015160f81c60f81b60f81c60ff168162004ae857fe5b0662004b24565b6010826002858162004afd57fe5b048151811062004b0957fe5b602001015160f81c60f81b60f81c60ff168162004b2257fe5b045b60f81b905092915050565b6040518060c001604052806000815260200160008019168152602001600073ffffffffffffffffffffffffffffffffffffffff168152602001600073ffffffffffffffffffffffffffffffffffffffff168152602001600015158152602001600073ffffffffffffffffffffffffffffffffffffffff1681525090565b610b5e8062004c1e83390190565b6040518060a0016040528060008152602001606081526020016000815260200160008152602001600081525090565b604051806040016040528060008152602001600081525090565b60405180604001604052806000815260200160008152509056fe608060405234801561001057600080fd5b50336000806101000a81548173ffffffffffffffffffffffffffffffffffffffff021916908373ffffffffffffffffffffffffffffffffffffffff1602179055506000809054906101000a900473ffffffffffffffffffffffffffffffffffffffff1673ffffffffffffffffffffffffffffffffffffffff16600073ffffffffffffffffffffffffffffffffffffffff167f8be0079c531659141344cd1fd0a4f28419497f9722a3daafe3b4186f6b6457e060405160405180910390a36040518060200160405280600060ff1681525060019060016100f09291906100f6565b5061016d565b828054828255906000526020600020908101928215610137579160200282015b82811115610136578251829060ff16905591602001919060010190610116565b5b5090506101449190610148565b5090565b61016a91905b8082111561016657600081600090555060010161014e565b5090565b90565b6109e28061017c6000396000f3fe608060405234801561001057600080fd5b50600436106100885760003560e01c8063b07576ac1161005b578063b07576ac1461013b578063bda1504b14610160578063d6362e971461017e578063f2fde38b146101a357610088565b80631d834a1b1461008d578063715018a6146100c55780638da5cb5b146100cf5780638f32d59b14610119575b600080fd5b6100c3600480360360408110156100a357600080fd5b8101908080359060200190929190803590602001909291905050506101e7565b005b6100cd61025b565b005b6100d761032b565b604051808273ffffffffffffffffffffffffffffffffffffffff1673ffffffffffffffffffffffffffffffffffffffff16815260200191505060405180910390f35b610121610354565b604051808215151515815260200191505060405180910390f35b6101436103ab565b604051808381526020018281526020019250505060405180910390f35b61016861048b565b6040518082815260200191505060405180910390f35b610186610491565b604051808381526020018281526020019250505060405180910390f35b6101e5600480360360208110156101b957600080fd5b81019080803573ffffffffffffffffffffffffffffffffffffffff1690602001909291905050506104bc565b005b6101ef610354565b6101f857600080fd5b600081608084901b179050600181908060018154018082558091505090600182039060005260206000200160009091929091909150555061024560016002546104d990919063ffffffff16565b6002819055506102566002546104f8565b505050565b610263610354565b61026c57600080fd5b600073ffffffffffffffffffffffffffffffffffffffff166000809054906101000a900473ffffffffffffffffffffffffffffffffffffffff1673ffffffffffffffffffffffffffffffffffffffff167f8be0079c531659141344cd1fd0a4f28419497f9722a3daafe3b4186f6b6457e060405160405180910390a360008060006101000a81548173ffffffffffffffffffffffffffffffffffffffff021916908373ffffffffffffffffffffffffffffffffffffffff160217905550565b60008060009054906101000a900473ffffffffffffffffffffffffffffffffffffffff16905090565b60008060009054906101000a900473ffffffffffffffffffffffffffffffffffffffff1673ffffffffffffffffffffffffffffffffffffffff163373ffffffffffffffffffffffffffffffffffffffff1614905090565b6000806103b6610354565b6103bf57600080fd5b6000600180815481106103ce57fe5b906000526020600020015490506001600254815481106103ea57fe5b90600052602060002001546001808154811061040257fe5b906000526020600020018190555060016002548154811061041f57fe5b906000526020600020016000905561044360016002546105dc90919063ffffffff16565b60028190555061045360016105fc565b61046b600180805490506105dc90919063ffffffff16565b600181610478919061095c565b50610482816106ce565b92509250509091565b60025481565b6000806104b4600180815481106104a457fe5b90600052602060002001546106ce565b915091509091565b6104c4610354565b6104cd57600080fd5b6104d6816106fe565b50565b6000808284019050838110156104ee57600080fd5b8091505092915050565b6000819050600081905060006001838154811061051157fe5b906000526020600020015490505b60016105356002856107f690919063ffffffff16565b8154811061053f57fe5b90600052602060002001548110156105b25760016105676002856107f690919063ffffffff16565b8154811061057157fe5b90600052602060002001546001848154811061058957fe5b90600052602060002001819055506105ab6002846107f690919063ffffffff16565b925061051f565b8183146105d65780600184815481106105c757fe5b90600052602060002001819055505b50505050565b6000828211156105eb57600080fd5b600082840390508091505092915050565b6000819050600081905060006001838154811061061557fe5b90600052602060002001549050600061062d8461081c565b90505b600254811115801561065857506001818154811061064a57fe5b906000526020600020015482115b156106a3576001818154811061066a57fe5b90600052602060002001546001858154811061068257fe5b906000526020600020018190555080935061069c8461081c565b9050610630565b8284146106c75781600185815481106106b857fe5b90600052602060002001819055505b5050505050565b6000806000608084901c90506000846fffffffffffffffffffffffffffffffff1690508181935093505050915091565b600073ffffffffffffffffffffffffffffffffffffffff168173ffffffffffffffffffffffffffffffffffffffff16141561073857600080fd5b8073ffffffffffffffffffffffffffffffffffffffff166000809054906101000a900473ffffffffffffffffffffffffffffffffffffffff1673ffffffffffffffffffffffffffffffffffffffff167f8be0079c531659141344cd1fd0a4f28419497f9722a3daafe3b4186f6b6457e060405160405180910390a3806000806101000a81548173ffffffffffffffffffffffffffffffffffffffff021916908373ffffffffffffffffffffffffffffffffffffffff16021790555050565b600080821161080457600080fd5b600082848161080f57fe5b0490508091505092915050565b6000600254610848600161083a60028661092290919063ffffffff16565b6104d990919063ffffffff16565b11156108695761086260028361092290919063ffffffff16565b905061091d565b6001610892600161088460028661092290919063ffffffff16565b6104d990919063ffffffff16565b8154811061089c57fe5b906000526020600020015460016108bd60028561092290919063ffffffff16565b815481106108c757fe5b906000526020600020015410156108f3576108ec60028361092290919063ffffffff16565b905061091d565b61091a600161090c60028561092290919063ffffffff16565b6104d990919063ffffffff16565b90505b919050565b6000808314156109355760009050610956565b600082840290508284828161094657fe5b041461095157600080fd5b809150505b92915050565b815481835581811115610983578183600052602060002091820191016109829190610988565b5b505050565b6109aa91905b808211156109a657600081600090555060010161098e565b5090565b9056fea265627a7a723158205247ee67f3d5ef21177fc4fda1a4cdcccc856df45343c5d24dca4f2300d89b4d64736f6c6343000511003250726564696361746520737570706f727473206f6e6c792045524337323120746f6b656e7357495448445241575f424c4f434b5f4e4f545f415f504152545f4f465f5355424d49545445445f48454144455250726564696361746520737570706f727473206f6e6c7920455243323020746f6b656e73494e56414c49445f524f4f545f544f5f4348494c445f544f4b454e5f4d415050494e47a265627a7a72315820abc5be18881b03ca7716e8310d0f03b9ea6df30f6ade94085b3156337528ea5764736f6c63430005110032",
  "linkReferences": {
    "contracts/common/lib/Merkle.sol": {
      "Merkle": [
        {
          "length": 20,
          "start": 14665
        }
      ]
    }
  },
  "deployedLinkReferences": {
    "contracts/common/lib/Merkle.sol": {
      "Merkle": [
        {
          "length": 20,
          "start": 14415
        }
      ]
    }
  }
}