{
  "_format": "hh-sol-artifact-1",
  "contractName": "Lockable",
  "sourceName": "contracts/common/mixin/Lockable.sol",
  "abi": [
    {
      "constant": false,
      "inputs": [],
      "name": "lock",
      "outputs": [],
      "payable": false,
      "stateMutability": "nonpayable",
      "type": "function"
    },
    {
      "constant": true,
      "inputs": [],
      "name": "locked",
      "outputs": [
        {
          "internalType": "bool",
          "name": "",
          "type": "bool"
        }
      ],
      "payable": false,
      "stateMutability": "view",
      "type": "function"
    },
    {
      "constant": false,
      "inputs": [],
      "name": "unlock",
      "outputs": [],
      "payable": false,
      "stateMutability": "nonpayable",
      "type": "function"
    }
  ],
  "bytecode": "0x608060405234801561001057600080fd5b5060f08061001f6000396000f3fe6080604052348015600f57600080fd5b5060043610603c5760003560e01c8063a69df4b5146041578063cf309012146049578063f83d08ba146069575b600080fd5b60476071565b005b604f608d565b604051808215151515815260200191505060405180910390f35b606f609f565b005b60008060006101000a81548160ff021916908315150217905550565b6000809054906101000a900460ff1681565b60016000806101000a81548160ff02191690831515021790555056fea265627a7a7231582048533049ca8eeb71c79b439a0c52f34cdd2549a7ff83309e959ea724230516d564736f6c63430005110032",
  "linkReferences": {},
  "deployedLinkReferences": {}
}