{
  "_format": "hh-sol-artifact-1",
  "contractName": "ERC20Predicate",
  "sourceName": "contracts/root/predicates/ERC20Predicate.sol",
  "abi": [
    {
      "inputs": [
        {
          "internalType": "address",
          "name": "_withdrawManager",
          "type": "address"
        },
        {
          "internalType": "address",
          "name": "_depositManager",
          "type": "address"
        },
        {
          "internalType": "address",
          "name": "_registry",
          "type": "address"
        }
      ],
      "payable": false,
      "stateMutability": "nonpayable",
      "type": "constructor"
    },
    {
      "constant": true,
      "inputs": [],
      "name": "CHAINID",
      "outputs": [
        {
          "internalType": "uint256",
          "name": "",
          "type": "uint256"
        }
      ],
      "payable": false,
      "stateMutability": "view",
      "type": "function"
    },
    {
      "constant": true,
      "inputs": [
        {
          "internalType": "bytes",
          "name": "state",
          "type": "bytes"
        }
      ],
      "name": "interpretStateUpdate",
      "outputs": [
        {
          "internalType": "bytes",
          "name": "",
          "type": "bytes"
        }
      ],
      "payable": false,
      "stateMutability": "view",
      "type": "function"
    },
    {
      "constant": true,
      "inputs": [],
      "name": "networkId",
      "outputs": [
        {
          "internalType": "bytes",
          "name": "",
          "type": "bytes"
        }
      ],
      "payable": false,
      "stateMutability": "view",
      "type": "function"
    },
    {
      "constant": false,
      "inputs": [
        {
          "internalType": "bytes",
          "name": "data",
          "type": "bytes"
        }
      ],
      "name": "onFinalizeExit",
      "outputs": [],
      "payable": false,
      "stateMutability": "nonpayable",
      "type": "function"
    },
    {
      "constant": false,
      "inputs": [
        {
          "internalType": "bytes",
          "name": "data",
          "type": "bytes"
        },
        {
          "internalType": "bytes",
          "name": "exitTx",
          "type": "bytes"
        }
      ],
      "name": "startExitForIncomingErc20Transfer",
      "outputs": [
        {
          "internalType": "address",
          "name": "",
          "type": "address"
        },
        {
          "internalType": "uint256",
          "name": "",
          "type": "uint256"
        }
      ],
      "payable": true,
      "stateMutability": "payable",
      "type": "function"
    },
    {
      "constant": false,
      "inputs": [
        {
          "internalType": "bytes",
          "name": "data",
          "type": "bytes"
        },
        {
          "internalType": "bytes",
          "name": "exitTx",
          "type": "bytes"
        }
      ],
      "name": "startExitForOutgoingErc20Transfer",
      "outputs": [
        {
          "internalType": "address",
          "name": "",
          "type": "address"
        },
        {
          "internalType": "uint256",
          "name": "",
          "type": "uint256"
        }
      ],
      "payable": true,
      "stateMutability": "payable",
      "type": "function"
    },
    {
      "constant": false,
      "inputs": [
        {
          "internalType": "bytes",
          "name": "data",
          "type": "bytes"
        }
      ],
      "name": "startExitWithBurntTokens",
      "outputs": [],
      "payable": false,
      "stateMutability": "nonpayable",
      "type": "function"
    },
    {
      "constant": false,
      "inputs": [
        {
          "internalType": "bytes",
          "name": "exit",
          "type": "bytes"
        },
        {
          "internalType": "bytes",
          "name": "inputUtxo",
          "type": "bytes"
        },
        {
          "internalType": "bytes",
          "name": "challengeData",
          "type": "bytes"
        }
      ],
      "name": "verifyDeprecation",
      "outputs": [
        {
          "internalType": "bool",
          "name": "",
          "type": "bool"
        }
      ],
      "payable": false,
      "stateMutability": "nonpayable",
      "type": "function"
    }
  ],
  "bytecode": "0x608060405234801561001057600080fd5b5060405162004dc038038062004dc08339818101604052606081101561003557600080fd5b810190808051906020019092919080519060200190929190805190602001909291905050508282816000806101000a81548173ffffffffffffffffffffffffffffffffffffffff021916908373ffffffffffffffffffffffffffffffffffffffff16021790555080600160006101000a81548173ffffffffffffffffffffffffffffffffffffffff021916908373ffffffffffffffffffffffffffffffffffffffff160217905550505080600260006101000a81548173ffffffffffffffffffffffffffffffffffffffff021916908373ffffffffffffffffffffffffffffffffffffffff160217905550505050614c8d80620001336000396000f3fe60806040526004361061007b5760003560e01c806382e3464c1161004e57806382e3464c146103b65780639025e64c146104b5578063cc79f97b14610545578063ec58410c146105705761007b565b8063378383b3146100805780633cccdaaf146101955780637bd94e03146102aa5780637c5264b414610330575b600080fd5b61014c6004803603604081101561009657600080fd5b81019080803590602001906401000000008111156100b357600080fd5b8201836020820111156100c557600080fd5b803590602001918460018302840111640100000000831117156100e757600080fd5b90919293919293908035906020019064010000000081111561010857600080fd5b82018360208201111561011a57600080fd5b8035906020019184600183028401116401000000008311171561013c57600080fd5b90919293919293905050506106b8565b604051808373ffffffffffffffffffffffffffffffffffffffff1673ffffffffffffffffffffffffffffffffffffffff1681526020018281526020019250505060405180910390f35b610261600480360360408110156101ab57600080fd5b81019080803590602001906401000000008111156101c857600080fd5b8201836020820111156101da57600080fd5b803590602001918460018302840111640100000000831117156101fc57600080fd5b90919293919293908035906020019064010000000081111561021d57600080fd5b82018360208201111561022f57600080fd5b8035906020019184600183028401116401000000008311171561025157600080fd5b90919293919293905050506110de565b604051808373ffffffffffffffffffffffffffffffffffffffff1673ffffffffffffffffffffffffffffffffffffffff1681526020018281526020019250505060405180910390f35b3480156102b657600080fd5b5061032e600480360360208110156102cd57600080fd5b81019080803590602001906401000000008111156102ea57600080fd5b8201836020820111156102fc57600080fd5b8035906020019184600183028401116401000000008311171561031e57600080fd5b9091929391929390505050611740565b005b34801561033c57600080fd5b506103b46004803603602081101561035357600080fd5b810190808035906020019064010000000081111561037057600080fd5b82018360208201111561038257600080fd5b803590602001918460018302840111640100000000831117156103a457600080fd5b9091929391929390505050611957565b005b3480156103c257600080fd5b5061043a600480360360208110156103d957600080fd5b81019080803590602001906401000000008111156103f657600080fd5b82018360208201111561040857600080fd5b8035906020019184600183028401116401000000008311171561042a57600080fd5b9091929391929390505050611eec565b6040518080602001828103825283818151815260200191508051906020019080838360005b8381101561047a57808201518184015260208101905061045f565b50505050905090810190601f1680156104a75780820380516001836020036101000a031916815260200191505b509250505060405180910390f35b3480156104c157600080fd5b506104ca612456565b6040518080602001828103825283818151815260200191508051906020019080838360005b8381101561050a5780820151818401526020810190506104ef565b50505050905090810190601f1680156105375780820380516001836020036101000a031916815260200191505b509250505060405180910390f35b34801561055157600080fd5b5061055a61248f565b6040518082815260200191505060405180910390f35b34801561057c57600080fd5b5061069e6004803603606081101561059357600080fd5b81019080803590602001906401000000008111156105b057600080fd5b8201836020820111156105c257600080fd5b803590602001918460018302840111640100000000831117156105e457600080fd5b90919293919293908035906020019064010000000081111561060557600080fd5b82018360208201111561061757600080fd5b8035906020019184600183028401116401000000008311171561063957600080fd5b90919293919293908035906020019064010000000081111561065a57600080fd5b82018360208201111561066c57600080fd5b8035906020019184600183028401116401000000008311171561068e57600080fd5b9091929391929390505050612496565b604051808215151515815260200191505060405180910390f35b60008067016345785d8a00003414610738576040517f08c379a00000000000000000000000000000000000000000000000000000000081526004018080602001828103825260138152602001807f496e76616c696420426f6e6420616d6f756e740000000000000000000000000081525060200191505060405180910390fd5b606061078f61078a88888080601f016020809104026020016040519081016040528093929190818152602001838380828437600081840152601f19601f82011690508083019250505050505050612967565b612995565b905061079961484d565b6107e686868080601f016020809104026020016040519081016040528093929190818152602001838380828437600081840152601f19601f82011690508083019250505050505050612a72565b90503373ffffffffffffffffffffffffffffffffffffffff16816060015173ffffffffffffffffffffffffffffffffffffffff16141561088e576040517f08c379a000000000000000000000000000000000000000000000000000000000815260040180806020018281038252601e8152602001807f53686f756c6420626520616e20696e636f6d696e67207472616e73666572000081525060200191505060405180910390fd5b6108966148b6565b6108df6108b6846006815181106108a957fe5b6020026020010151612c83565b6108d3856009815181106108c657fe5b6020026020010151612cfd565b84606001516000612d57565b9050806040015173ffffffffffffffffffffffffffffffffffffffff16826040015173ffffffffffffffffffffffffffffffffffffffff161461096d576040517f08c379a000000000000000000000000000000000000000000000000000000000815260040180806020018281038252603f815260200180614bc4603f913960400191505060405180910390fd5b61097782826130e2565b826000018181525050610a8781602001516000809054906101000a900473ffffffffffffffffffffffffffffffffffffffff1673ffffffffffffffffffffffffffffffffffffffff1663ad1d80698c8c6000806040518563ffffffff1660e01b815260040180806020018460ff168152602001831515151581526020018281038252868682818152602001925080828437600081840152601f19601f8201169050808301925050509550505050505060206040518083038186803b158015610a3e57600080fd5b505afa158015610a52573d6000803e3d6000fd5b505050506040513d6020811015610a6857600080fd5b81019080805190602001909291905050506131c690919063ffffffff16565b816020018181525050610a986148b6565b600a84511115610d1357610ae7610ac285601081518110610ab557fe5b6020026020010151612c83565b610adf86601381518110610ad257fe5b6020026020010151612cfd565b336000612d57565b9050816040015173ffffffffffffffffffffffffffffffffffffffff16816040015173ffffffffffffffffffffffffffffffffffffffff1614610b75576040517f08c379a000000000000000000000000000000000000000000000000000000000815260040180806020018281038252602f815260200180614a27602f913960400191505060405180910390fd5b816060015173ffffffffffffffffffffffffffffffffffffffff16816060015173ffffffffffffffffffffffffffffffffffffffff1614610c01576040517f08c379a000000000000000000000000000000000000000000000000000000000815260040180806020018281038252602e815260200180614b96602e913960400191505060405180910390fd5b610d0981602001516000809054906101000a900473ffffffffffffffffffffffffffffffffffffffff1673ffffffffffffffffffffffffffffffffffffffff1663ad1d80698d8d600a60006040518563ffffffff1660e01b815260040180806020018460ff168152602001831515151581526020018281038252868682818152602001925080828437600081840152601f19601f8201169050808301925050509550505050505060206040518083038186803b158015610cc057600080fd5b505afa158015610cd4573d6000803e3d6000fd5b505050506040513d6020811015610cea57600080fd5b81019080805190602001909291905050506131c690919063ffffffff16565b8160200181815250505b610d1b6131e5565b60006001610d3184602001518460200151613257565b901b90506000809054906101000a900473ffffffffffffffffffffffffffffffffffffffff1673ffffffffffffffffffffffffffffffffffffffff1663d931a8693385604001518660600151610d9887600001518a600001516131c690919063ffffffff16565b89602001516000886040518863ffffffff1660e01b8152600401808873ffffffffffffffffffffffffffffffffffffffff1673ffffffffffffffffffffffffffffffffffffffff1681526020018773ffffffffffffffffffffffffffffffffffffffff1673ffffffffffffffffffffffffffffffffffffffff1681526020018673ffffffffffffffffffffffffffffffffffffffff1673ffffffffffffffffffffffffffffffffffffffff16815260200185815260200184815260200183151515158152602001828152602001975050505050505050600060405180830381600087803b158015610e8857600080fd5b505af1158015610e9c573d6000803e3d6000fd5b505050506000809054906101000a900473ffffffffffffffffffffffffffffffffffffffff1673ffffffffffffffffffffffffffffffffffffffff166322f192af828560200151876060015187606001516040518563ffffffff1660e01b8152600401808581526020018481526020018373ffffffffffffffffffffffffffffffffffffffff1673ffffffffffffffffffffffffffffffffffffffff1681526020018273ffffffffffffffffffffffffffffffffffffffff1673ffffffffffffffffffffffffffffffffffffffff168152602001945050505050600060405180830381600087803b158015610f9057600080fd5b505af1158015610fa4573d6000803e3d6000fd5b505050506000809054906101000a900473ffffffffffffffffffffffffffffffffffffffff1673ffffffffffffffffffffffffffffffffffffffff166322f192af8284602001513387606001516040518563ffffffff1660e01b8152600401808581526020018481526020018373ffffffffffffffffffffffffffffffffffffffff1673ffffffffffffffffffffffffffffffffffffffff1681526020018273ffffffffffffffffffffffffffffffffffffffff1673ffffffffffffffffffffffffffffffffffffffff168152602001945050505050600060405180830381600087803b15801561109457600080fd5b505af11580156110a8573d6000803e3d6000fd5b5050505082606001516110cc836000015186600001516131c690919063ffffffff16565b96509650505050505094509492505050565b60008067016345785d8a0000341461115e576040517f08c379a00000000000000000000000000000000000000000000000000000000081526004018080602001828103825260138152602001807f496e76616c696420426f6e6420616d6f756e740000000000000000000000000081525060200191505060405180910390fd5b60606111b56111b088888080601f016020809104026020016040519081016040528093929190818152602001838380828437600081840152601f19601f82011690508083019250505050505050612967565b612995565b90506111bf61484d565b61120c86868080601f016020809104026020016040519081016040528093929190818152602001838380828437600081840152601f19601f82011690508083019250505050505050612a72565b90503373ffffffffffffffffffffffffffffffffffffffff16816060015173ffffffffffffffffffffffffffffffffffffffff16146112b3576040517f08c379a000000000000000000000000000000000000000000000000000000000815260040180806020018281038252601e8152602001807f53686f756c6420626520616e206f7574676f696e67207472616e73666572000081525060200191505060405180910390fd5b6112bb6148b6565b6113006112db846006815181106112ce57fe5b6020026020010151612c83565b6112f8856009815181106112eb57fe5b6020026020010151612cfd565b336000612d57565b9050806040015173ffffffffffffffffffffffffffffffffffffffff16826040015173ffffffffffffffffffffffffffffffffffffffff161461138e576040517f08c379a000000000000000000000000000000000000000000000000000000000815260040180806020018281038252603f815260200180614bc4603f913960400191505060405180910390fd5b61139882826130e2565b8260000181815250506114a881602001516000809054906101000a900473ffffffffffffffffffffffffffffffffffffffff1673ffffffffffffffffffffffffffffffffffffffff1663ad1d80698c8c6000806040518563ffffffff1660e01b815260040180806020018460ff168152602001831515151581526020018281038252868682818152602001925080828437600081840152601f19601f8201169050808301925050509550505050505060206040518083038186803b15801561145f57600080fd5b505afa158015611473573d6000803e3d6000fd5b505050506040513d602081101561148957600080fd5b81019080805190602001909291905050506131c690919063ffffffff16565b8160200181815250506114b96131e5565b600060018260200151901b90506001811790506000809054906101000a900473ffffffffffffffffffffffffffffffffffffffff1673ffffffffffffffffffffffffffffffffffffffff1663d931a8693384604001518560600151876000015188602001516000886040518863ffffffff1660e01b8152600401808873ffffffffffffffffffffffffffffffffffffffff1673ffffffffffffffffffffffffffffffffffffffff1681526020018773ffffffffffffffffffffffffffffffffffffffff1673ffffffffffffffffffffffffffffffffffffffff1681526020018673ffffffffffffffffffffffffffffffffffffffff1673ffffffffffffffffffffffffffffffffffffffff16815260200185815260200184815260200183151515158152602001828152602001975050505050505050600060405180830381600087803b15801561160957600080fd5b505af115801561161d573d6000803e3d6000fd5b505050506000809054906101000a900473ffffffffffffffffffffffffffffffffffffffff1673ffffffffffffffffffffffffffffffffffffffff166322f192af8284602001513386606001516040518563ffffffff1660e01b8152600401808581526020018481526020018373ffffffffffffffffffffffffffffffffffffffff1673ffffffffffffffffffffffffffffffffffffffff1681526020018273ffffffffffffffffffffffffffffffffffffffff1673ffffffffffffffffffffffffffffffffffffffff168152602001945050505050600060405180830381600087803b15801561170d57600080fd5b505af1158015611721573d6000803e3d6000fd5b5050505081606001518360000151955095505050505094509492505050565b6000809054906101000a900473ffffffffffffffffffffffffffffffffffffffff1673ffffffffffffffffffffffffffffffffffffffff163373ffffffffffffffffffffffffffffffffffffffff1614611802576040517f08c379a00000000000000000000000000000000000000000000000000000000081526004018080602001828103825260158152602001807f4f4e4c595f57495448445241575f4d414e41474552000000000000000000000081525060200191505060405180910390fd5b600080600061185485858080601f016020809104026020016040519081016040528093929190818152602001838380828437600081840152601f19601f82011690508083019250505050505050613271565b93509350935050600160009054906101000a900473ffffffffffffffffffffffffffffffffffffffff1673ffffffffffffffffffffffffffffffffffffffff166349f4cc178484846040518463ffffffff1660e01b8152600401808473ffffffffffffffffffffffffffffffffffffffff1673ffffffffffffffffffffffffffffffffffffffff1681526020018373ffffffffffffffffffffffffffffffffffffffff1673ffffffffffffffffffffffffffffffffffffffff1681526020018281526020019350505050600060405180830381600087803b15801561193857600080fd5b505af115801561194c573d6000803e3d6000fd5b505050505050505050565b60606119ae6119a984848080601f016020809104026020016040519081016040528093929190818152602001838380828437600081840152601f19601f82011690508083019250505050505050612967565b612995565b905060606119cf826006815181106119c257fe5b6020026020010151612c83565b905060606119e46119df83612967565b612995565b90506000611a05846009815181106119f857fe5b6020026020010151612cfd565b9050600a8110611a7d576040517f08c379a000000000000000000000000000000000000000000000000000000000815260040180806020018281038252601b8152602001807f537570706f7274696e672061206d6178206f66203130206c6f6773000000000081525060200191505060405180910390fd5b60008060009054906101000a900473ffffffffffffffffffffffffffffffffffffffff1673ffffffffffffffffffffffffffffffffffffffff1663ad1d806988886000806040518563ffffffff1660e01b815260040180806020018460ff168152602001831515151581526020018281038252868682818152602001925080828437600081840152601f19601f8201169050808301925050509550505050505060206040518083038186803b158015611b3557600080fd5b505afa158015611b49573d6000803e3d6000fd5b505050506040513d6020811015611b5f57600080fd5b81019080805190602001909291905050509050611baa611b9284600381518110611b8557fe5b6020026020010151612995565b8381518110611b9d57fe5b6020026020010151612995565b92506000611bcb84600081518110611bbe57fe5b60200260200101516132d8565b90506060611bec85600281518110611bdf57fe5b6020026020010151612c83565b9050611c0b85600181518110611bfe57fe5b6020026020010151612995565b94507febff2602b3f468259e1e99f613fed6691f3a6526effe6ef3e768ba7ae7a36c4f60001b611c4e86600081518110611c4157fe5b6020026020010151612cfd565b60001b14611cc4576040517f08c379a000000000000000000000000000000000000000000000000000000000815260040180806020018281038252601e8152602001807f4e6f742061207769746864726177206576656e74207369676e6174757265000081525060200191505060405180910390fd5b6000611ce386600181518110611cd657fe5b6020026020010151612cfd565b9050611d0286600281518110611cf557fe5b6020026020010151612cfd565b73ffffffffffffffffffffffffffffffffffffffff163373ffffffffffffffffffffffffffffffffffffffff1614611d85576040517f08c379a0000000000000000000000000000000000000000000000000000000008152600401808060200182810382526028815260200180614aab6028913960400191505060405180910390fd5b6000611d928360006132fb565b90506000809054906101000a900473ffffffffffffffffffffffffffffffffffffffff1673ffffffffffffffffffffffffffffffffffffffff1663d931a869338685856000801b6001808d901b6040518863ffffffff1660e01b8152600401808873ffffffffffffffffffffffffffffffffffffffff1673ffffffffffffffffffffffffffffffffffffffff1681526020018773ffffffffffffffffffffffffffffffffffffffff1673ffffffffffffffffffffffffffffffffffffffff1681526020018673ffffffffffffffffffffffffffffffffffffffff1673ffffffffffffffffffffffffffffffffffffffff16815260200185815260200184815260200183151515158152602001828152602001975050505050505050600060405180830381600087803b158015611ec757600080fd5b505af1158015611edb573d6000803e3d6000fd5b505050505050505050505050505050565b606080600080600086866080811015611f0457600080fd5b8101908080359060200190640100000000811115611f2157600080fd5b820183602082011115611f3357600080fd5b80359060200191846001830284011164010000000083111715611f5557600080fd5b91908080601f016020809104026020016040519081016040528093929190818152602001838380828437600081840152601f19601f820116905080830192505050505050509192919290803573ffffffffffffffffffffffffffffffffffffffff16906020019092919080351515906020019092919080351515906020019092919050505093509350935093506060611ff5611ff086612967565b612995565b905060606120168260068151811061200957fe5b6020026020010151612c83565b905060006120378360098151811061202a57fe5b6020026020010151612cfd565b9050600a81106120af576040517f08c379a000000000000000000000000000000000000000000000000000000000815260040180806020018281038252601b8152602001807f537570706f7274696e672061206d6178206f66203130206c6f6773000000000081525060200191505060405180910390fd5b60606120c26120bd84612967565b612995565b90506120fc6120e4826003815181106120d757fe5b6020026020010151612995565b83815181106120ef57fe5b6020026020010151612995565b90506121066148b6565b6121238260008151811061211657fe5b60200260200101516132d8565b816040019073ffffffffffffffffffffffffffffffffffffffff16908173ffffffffffffffffffffffffffffffffffffffff168152505060606121798360028151811061216c57fe5b6020026020010151612c83565b90506121988360018151811061218b57fe5b6020026020010151612995565b92506121b7836001815181106121aa57fe5b6020026020010151612cfd565b826060019073ffffffffffffffffffffffffffffffffffffffff16908173ffffffffffffffffffffffffffffffffffffffff16815250508615612203576121fe838a613323565b612221565b61220e83828b6134c1565b8360000184602001828152508281525050505b61224b612238600a866137e190919063ffffffff16565b83602001516131c690919063ffffffff16565b82602001818152505087156123a45761239a6000809054906101000a900473ffffffffffffffffffffffffffffffffffffffff1673ffffffffffffffffffffffffffffffffffffffff1663ad1d80698c6000806040518463ffffffff1660e01b815260040180806020018460ff16815260200183151515158152602001828103825285818151815260200191508051906020019080838360005b838110156123005780820151818401526020810190506122e5565b50505050905090810190601f16801561232d5780820380516001836020036101000a031916815260200191505b5094505050505060206040518083038186803b15801561234c57600080fd5b505afa158015612360573d6000803e3d6000fd5b505050506040513d602081101561237657600080fd5b810190808051906020019092919050505083602001516131c690919063ffffffff16565b8260200181815250505b8160000151826020015183604001518460600151604051602001808581526020018481526020018373ffffffffffffffffffffffffffffffffffffffff1673ffffffffffffffffffffffffffffffffffffffff1681526020018273ffffffffffffffffffffffffffffffffffffffff1673ffffffffffffffffffffffffffffffffffffffff1681526020019450505050506040516020818303038152906040529a505050505050505050505092915050565b6040518060400160405280600381526020017f013881000000000000000000000000000000000000000000000000000000000081525081565b6201388181565b60006124a061490a565b6124ed88888080601f016020809104026020016040519081016040528093929190818152602001838380828437600081840152601f19601f8201169050808301925050505050505061381b565b9050600080600061254189898080601f016020809104026020016040519081016040528093929190818152602001838380828437600081840152601f19601f82011690508083019250505050505050613901565b93505092509250606061259f61259a89898080601f016020809104026020016040519081016040528093929190818152602001838380828437600081840152601f19601f82011690508083019250505050505050612967565b612995565b90506125a961484d565b6125ce6125c983600a815181106125bc57fe5b6020026020010151612c83565b61396b565b90508373ffffffffffffffffffffffffffffffffffffffff16816060015173ffffffffffffffffffffffffffffffffffffffff1614612658576040517f08c379a000000000000000000000000000000000000000000000000000000000815260040180806020018281038252604a8152602001806149bc604a913960600191505060405180910390fd5b6126606148b6565b6126a96126808460068151811061267357fe5b6020026020010151612c83565b61269d8560098151811061269057fe5b6020026020010151612cfd565b84606001516001612d57565b90506127b381602001516000809054906101000a900473ffffffffffffffffffffffffffffffffffffffff1673ffffffffffffffffffffffffffffffffffffffff1663ad1d80698d8d600060016040518563ffffffff1660e01b815260040180806020018460ff168152602001831515151581526020018281038252868682818152602001925080828437600081840152601f19601f8201169050808301925050509550505050505060206040518083038186803b15801561276a57600080fd5b505afa15801561277e573d6000803e3d6000fd5b505050506040513d602081101561279457600080fd5b81019080805190602001909291905050506131c690919063ffffffff16565b8160200181815250508373ffffffffffffffffffffffffffffffffffffffff16816040015173ffffffffffffffffffffffffffffffffffffffff1614801561282a57508373ffffffffffffffffffffffffffffffffffffffff16826040015173ffffffffffffffffffffffffffffffffffffffff16145b61287f576040517f08c379a000000000000000000000000000000000000000000000000000000000815260040180806020018281038252604c815260200180614b23604c913960600191505060405180910390fd5b85816020015110156128f05781602001518760200151146128eb576040517f08c379a0000000000000000000000000000000000000000000000000000000008152600401808060200182810382526021815260200180614a066021913960400191505060405180910390fd5b612952565b816020015187602001511415612951576040517f08c379a0000000000000000000000000000000000000000000000000000000008152600401808060200182810382526021815260200180614a066021913960400191505060405180910390fd5b5b60019750505050505050509695505050505050565b61296f614987565b600060208301905060405180604001604052808451815260200182815250915050919050565b60606129a082613acf565b6129a957600080fd5b60006129b483613b1d565b90506060816040519080825280602002602001820160405280156129f257816020015b6129df6149a1565b8152602001906001900390816129d75790505b5090506000612a048560200151613b8e565b8560200151019050600080600090505b84811015612a6557612a2583613c17565b9150604051806040016040528083815260200184815250848281518110612a4857fe5b602002602001018190525081830192508080600101915050612a14565b5082945050505050919050565b612a7a61484d565b6060612a8d612a8884612967565b612995565b90506009815114612b06576040517f08c379a00000000000000000000000000000000000000000000000000000000081526004018080602001828103825260158152602001807f4d414c464f524d45445f57495448445241575f5458000000000000000000000081525060200191505060405180910390fd5b612b2381600381518110612b1657fe5b60200260200101516132d8565b826040019073ffffffffffffffffffffffffffffffffffffffff16908173ffffffffffffffffffffffffffffffffffffffff1681525050612b6381613ccf565b8360600184602001828152508273ffffffffffffffffffffffffffffffffffffffff1673ffffffffffffffffffffffffffffffffffffffff1681525050503373ffffffffffffffffffffffffffffffffffffffff16826060015173ffffffffffffffffffffffffffffffffffffffff161415612c2b57612bfe612bf982600581518110612bec57fe5b6020026020010151612c83565b6140fe565b8360000184608001826003811115612c1257fe5b6003811115612c1d57fe5b815250828152505050612c7d565b612c50612c4b82600581518110612c3e57fe5b6020026020010151612c83565b614255565b826000018181525050600282608001906003811115612c6b57fe5b90816003811115612c7857fe5b815250505b50919050565b60606000826000015111612c9657600080fd5b600080612ca2846143ad565b915091506060816040519080825280601f01601f191660200182016040528015612cdb5781602001600182028038833980820191505090505b5090506000816020019050612cf18482856143e5565b81945050505050919050565b6000808260000151118015612d1757506021826000015111155b612d2057600080fd5b600080612d2c846143ad565b915091506000825190506020821015612d4c57816020036101000a810490505b809350505050919050565b612d5f6148b6565b600a8410612dd5576040517f08c379a000000000000000000000000000000000000000000000000000000000815260040180806020018281038252601b8152602001807f537570706f7274696e672061206d6178206f66203130206c6f6773000000000081525060200191505060405180910390fd5b6060612de8612de387612967565b612995565b9050612e22612e0a82600381518110612dfd57fe5b6020026020010151612995565b8681518110612e1557fe5b6020026020010151612995565b9050612e4181600081518110612e3457fe5b60200260200101516132d8565b826040019073ffffffffffffffffffffffffffffffffffffffff16908173ffffffffffffffffffffffffffffffffffffffff16815250506060612e9782600281518110612e8a57fe5b6020026020010151612c83565b9050612eb682600181518110612ea957fe5b6020026020010151612995565b91506000612ed783600081518110612eca57fe5b6020026020010151612cfd565b60001b9050612ef983600181518110612eec57fe5b6020026020010151612cfd565b846060019073ffffffffffffffffffffffffffffffffffffffff16908173ffffffffffffffffffffffffffffffffffffffff16815250507f4dfe1bbbcf077ddc3e01291eea2d5c70c2b422b415d95645b9adcfd678cb1d6360001b81141561307157600260009054906101000a900473ffffffffffffffffffffffffffffffffffffffff1673ffffffffffffffffffffffffffffffffffffffff16636e86b77085606001516040518263ffffffff1660e01b8152600401808273ffffffffffffffffffffffffffffffffffffffff1673ffffffffffffffffffffffffffffffffffffffff16815260200191505060206040518083038186803b158015612ffe57600080fd5b505afa158015613012573d6000803e3d6000fd5b505050506040513d602081101561302857600080fd5b8101908080519060200190929190505050846060019073ffffffffffffffffffffffffffffffffffffffff16908173ffffffffffffffffffffffffffffffffffffffff16815250505b8415613086576130818387613323565b6130a4565b6130918383886134c1565b8560000186602001828152508281525050505b6130ce6130bb600a896137e190919063ffffffff16565b85602001516131c690919063ffffffff16565b846020018181525050505050949350505050565b6000826000015182600001511015613145576040517f08c379a0000000000000000000000000000000000000000000000000000000008152600401808060200182810382526028815260200180614a836028913960400191505060405180910390fd5b6001600381111561315257fe5b8360800151600381111561316257fe5b141561318a576131838360000151836000015161445690919063ffffffff16565b90506131c0565b60038081111561319657fe5b836080015160038111156131a657fe5b14156131b857816000015190506131c0565b826000015190505b92915050565b6000808284019050838110156131db57600080fd5b8091505092915050565b6000809054906101000a900473ffffffffffffffffffffffffffffffffffffffff1673ffffffffffffffffffffffffffffffffffffffff166108fc67016345785d8a00009081150290604051600060405180830381858888f19350505050158015613254573d6000803e3d6000fd5b50565b6000818310156132675781613269565b825b905092915050565b60008060008084806020019051608081101561328c57600080fd5b8101908080519060200190929190805190602001909291908051906020019092919080519060200190929190505050829250819150809450819550829650839750505050509193509193565b600060158260000151146132eb57600080fd5b6132f482612cfd565b9050919050565b6000602082018351101561330e57600080fd5b60008260208501015190508091505092915050565b60006133428360008151811061333557fe5b6020026020010151612cfd565b60001b90507febff2602b3f468259e1e99f613fed6691f3a6526effe6ef3e768ba7ae7a36c4f60001b81148061339a57507fe6497e3ee548a3372136af2fcb0696db31fc6cf20260707645068bd3fe97f3c460001b81145b806133c757507f4dfe1bbbcf077ddc3e01291eea2d5c70c2b422b415d95645b9adcfd678cb1d6360001b81145b61341c576040517f08c379a000000000000000000000000000000000000000000000000000000000815260040180806020018281038252602d815260200180614a56602d913960400191505060405180910390fd5b6134398360028151811061342c57fe5b6020026020010151612cfd565b73ffffffffffffffffffffffffffffffffffffffff168273ffffffffffffffffffffffffffffffffffffffff16146134bc576040517f08c379a000000000000000000000000000000000000000000000000000000000815260040180806020018281038252602a815260200180614c03602a913960400191505060405180910390fd5b505050565b60008060006134e3866000815181106134d657fe5b6020026020010151612cfd565b60001b90507f4e2ca0515ed1aef1395f66b5303bb5d6f1bf9d61a353fa53f73f8ac9973fa9f660001b81148061353b57507febff2602b3f468259e1e99f613fed6691f3a6526effe6ef3e768ba7ae7a36c4f60001b81145b156135f25761355d8660028151811061355057fe5b6020026020010151612cfd565b73ffffffffffffffffffffffffffffffffffffffff168473ffffffffffffffffffffffffffffffffffffffff16146135e0576040517f08c379a0000000000000000000000000000000000000000000000000000000008152600401808060200182810382526029815260200180614ad36029913960400191505060405180910390fd5b6135eb8560406132fb565b92506137d8565b7fe6497e3ee548a3372136af2fcb0696db31fc6cf20260707645068bd3fe97f3c460001b81148061364557507f4dfe1bbbcf077ddc3e01291eea2d5c70c2b422b415d95645b9adcfd678cb1d6360001b81145b15613769576136678660028151811061365a57fe5b6020026020010151612cfd565b73ffffffffffffffffffffffffffffffffffffffff168473ffffffffffffffffffffffffffffffffffffffff1614156136ac576136a58560606132fb565b9250613764565b6136c9866003815181106136bc57fe5b6020026020010151612cfd565b73ffffffffffffffffffffffffffffffffffffffff168473ffffffffffffffffffffffffffffffffffffffff161415613712576137078560806132fb565b925060019150613763565b6040517f08c379a0000000000000000000000000000000000000000000000000000000008152600401808060200182810382526027815260200180614afc6027913960400191505060405180910390fd5b5b6137d7565b6040517f08c379a00000000000000000000000000000000000000000000000000000000081526004018080602001828103825260178152602001807f457869742074797065206e6f7420737570706f7274656400000000000000000081525060200191505060405180910390fd5b5b50935093915050565b6000808314156137f45760009050613815565b600082840290508284828161380557fe5b041461381057600080fd5b809150505b92915050565b61382361490a565b60008060008060008680602001905160a081101561384057600080fd5b810190808051906020019092919080519060200190929190805190602001909291908051906020019092919080519060200190929190505050945094509450945094506040518060c001604052808481526020018381526020018673ffffffffffffffffffffffffffffffffffffffff1681526020018573ffffffffffffffffffffffffffffffffffffffff1681526020018215158152602001600073ffffffffffffffffffffffffffffffffffffffff1681525095505050505050919050565b60008060008084806020019051608081101561391c57600080fd5b8101908080519060200190929190805190602001909291908051906020019092919080519060200190929190505050829250819150809050809450819550829650839750505050509193509193565b61397361484d565b606061398661398184612967565b612995565b905060098151146139ff576040517f08c379a00000000000000000000000000000000000000000000000000000000081526004018080602001828103825260158152602001807f4d414c464f524d45445f57495448445241575f5458000000000000000000000081525060200191505060405180910390fd5b613a1c81600381518110613a0f57fe5b60200260200101516132d8565b826040019073ffffffffffffffffffffffffffffffffffffffff16908173ffffffffffffffffffffffffffffffffffffffff1681525050613a5c81613ccf565b8360600184602001828152508273ffffffffffffffffffffffffffffffffffffffff1673ffffffffffffffffffffffffffffffffffffffff168152505050613abf613aba82600581518110613aad57fe5b6020026020010151612c83565b6140fe565b5082600001818152505050919050565b60008082600001511415613ae65760009050613b18565b60008083602001519050805160001a915060c060ff168260ff161015613b1157600092505050613b18565b6001925050505b919050565b60008082600001511415613b345760009050613b89565b60008090506000613b488460200151613b8e565b84602001510190506000846000015185602001510190505b80821015613b8257613b7182613c17565b820191508280600101935050613b60565b8293505050505b919050565b600080825160001a9050608060ff16811015613bae576000915050613c12565b60b860ff16811080613bd3575060c060ff168110158015613bd2575060f860ff1681105b5b15613be2576001915050613c12565b60c060ff16811015613c025760018060b80360ff16820301915050613c12565b60018060f80360ff168203019150505b919050565b6000806000835160001a9050608060ff16811015613c385760019150613cc5565b60b860ff16811015613c55576001608060ff168203019150613cc4565b60c060ff16811015613c855760b78103600185019450806020036101000a85510460018201810193505050613cc3565b60f860ff16811015613ca257600160c060ff168203019150613cc2565b60f78103600185019450806020036101000a855104600182018101935050505b5b5b5b8192505050919050565b60008060606009604051908082528060200260200182016040528015613d0957816020015b6060815260200190600190039081613cf45790505b50905060008090505b60058160ff1611613d6357613d3c858260ff1681518110613d2f57fe5b6020026020010151612c83565b828260ff1681518110613d4b57fe5b60200260200101819052508080600101915050613d12565b506040518060400160405280600381526020017f013881000000000000000000000000000000000000000000000000000000000081525081600681518110613da757fe5b60200260200101819052506040518060200160405280600081525081600781518110613dcf57fe5b60200260200101819052506040518060200160405280600081525081600881518110613df757fe5b6020026020010181905250613e0b81614476565b80519060200120915060018273__$d57268b4e4abe976846916e1669260f8d8$__63b40b539b613e4e88600681518110613e4157fe5b6020026020010151612c83565b73__$d57268b4e4abe976846916e1669260f8d8$__634d66a2ae6040518060400160405280600381526020017f01388100000000000000000000000000000000000000000000000000000000008152506040518263ffffffff1660e01b81526004018080602001828103825283818151815260200191508051906020019080838360005b83811015613eed578082015181840152602081019050613ed2565b50505050905090810190601f168015613f1a5780820380516001836020036101000a031916815260200191505b509250505060206040518083038186803b158015613f3757600080fd5b505af4158015613f4b573d6000803e3d6000fd5b505050506040513d6020811015613f6157600080fd5b81019080805190602001909291905050506040518363ffffffff1660e01b815260040180806020018361ffff1661ffff168152602001828103825284818151815260200191508051906020019080838360005b83811015613fcf578082015181840152602081019050613fb4565b50505050905090810190601f168015613ffc5780820380516001836020036101000a031916815260200191505b50935050505060206040518083038186803b15801561401a57600080fd5b505af415801561402e573d6000803e3d6000fd5b505050506040513d602081101561404457600080fd5b81019080805190602001909291905050506140728760078151811061406557fe5b6020026020010151612cfd565b60001b6140928860088151811061408557fe5b6020026020010151612cfd565b60001b60405160008152602001604052604051808581526020018460ff1660ff1681526020018381526020018281526020019450505050506020604051602081039080840390855afa1580156140ec573d6000803e3d6000fd5b50505060206040510351925050915091565b600080600061411861411385600060046144da565b614566565b9050632e1a7d4d60e01b7bffffffffffffffffffffffffffffffffffffffffffffffffffffffff1916817bffffffffffffffffffffffffffffffffffffffffffffffffffffffff1916141561417d576141728460046132fb565b92506003915061424f565b63a9059cbb60e01b7bffffffffffffffffffffffffffffffffffffffffffffffffffffffff1916817bffffffffffffffffffffffffffffffffffffffffffffffffffffffff191614156141e0576141d58460246132fb565b92506001915061424e565b6040517f08c379a000000000000000000000000000000000000000000000000000000000815260040180806020018281038252601a8152602001807f457869742074782074797065206e6f7420737570706f7274656400000000000081525060200191505060405180910390fd5b5b50915091565b60008061426d61426884600060046144da565b614566565b905063a9059cbb60e01b7bffffffffffffffffffffffffffffffffffffffffffffffffffffffff1916817bffffffffffffffffffffffffffffffffffffffffffffffffffffffff19161461430c576040517f08c379a0000000000000000000000000000000000000000000000000000000008152600401808060200182810382526027815260200180614b6f6027913960400191505060405180910390fd5b6143178360046132fb565b73ffffffffffffffffffffffffffffffffffffffff163373ffffffffffffffffffffffffffffffffffffffff161461439a576040517f08c379a000000000000000000000000000000000000000000000000000000000815260040180806020018281038252602c815260200180614c2d602c913960400191505060405180910390fd5b6143a58360246132fb565b915050919050565b60008060006143bf8460200151613b8e565b905060008185602001510190506000828660000151039050818194509450505050915091565b60008114156143f357614451565b5b602060ff1681106144235782518252602060ff1683019250602060ff1682019150602060ff16810390506143f4565b6000811115614450576000600182602060ff16036101000a03905080198451168184511681811785525050505b5b505050565b60008282111561446557600080fd5b600082840390508091505092915050565b60608060008090505b83518110156144bc576144ad826144a886848151811061449b57fe5b6020026020010151614574565b614610565b9150808060010191505061447f565b506144d26144cc825160c061469a565b82614610565b915050919050565b6060818301845110156144ec57600080fd5b60608215600081146145095760405191506020820160405261455a565b6040519150601f8416801560200281840101858101878315602002848b0101015b81831015614547578051835260208301925060208101905061452a565b50868552601f19601f8301166040525050505b50809150509392505050565b600060208201519050919050565b606080600183511480156145ab5750608060ff60f81b8460008151811061459757fe5b602001015160f81c60f81b1660f81c60ff16105b156145ef5760016040519080825280601f01601f1916602001820160405280156145e45781602001600182028038833980820191505090505b509050829050614607565b6146046145fe8451608061469a565b84614610565b90505b80915050919050565b6060806040519050835180825260208201818101602087015b818310156146465780518352602083019250602081019050614629565b50855192508351830184528091508282019050602086015b8183101561467b578051835260208301925060208101905061465e565b50601f19601f8851850115830101166040525050508091505092915050565b6060603883101561472957606060016040519080825280601f01601f1916602001820160405280156146db5781602001600182028038833980820191505090505b50905082840160f81b816000815181106146f157fe5b60200101907effffffffffffffffffffffffffffffffffffffffffffffffffffffffffffff1916908160001a90535080915050614786565b600080600190505b600081868161473c57fe5b041461475657818060010192505061010081029050614731565b606061476683603787010161478c565b905060606147738761478c565b905061477f8282614610565b9450505050505b92915050565b606060006001905060ff8311156147a257600290505b806040519080825280601f01601f1916602001820160405280156147d55781602001600182028038833980820191505090505b50915060008090505b818110156148465780600183030360080260020a84816147fa57fe5b0460f81b83828151811061480a57fe5b60200101907effffffffffffffffffffffffffffffffffffffffffffffffffffffffffffff1916908160001a90535080806001019150506147de565b5050919050565b6040518060a001604052806000815260200160008019168152602001600073ffffffffffffffffffffffffffffffffffffffff168152602001600073ffffffffffffffffffffffffffffffffffffffff168152602001600060038111156148b057fe5b81525090565b60405180608001604052806000815260200160008152602001600073ffffffffffffffffffffffffffffffffffffffff168152602001600073ffffffffffffffffffffffffffffffffffffffff1681525090565b6040518060c001604052806000815260200160008019168152602001600073ffffffffffffffffffffffffffffffffffffffff168152602001600073ffffffffffffffffffffffffffffffffffffffff168152602001600015158152602001600073ffffffffffffffffffffffffffffffffffffffff1681525090565b604051806040016040528060008152602001600081525090565b60405180604001604052806000815260200160008152509056fe4368616c6c656e6765207478206e6f74207369676e6564206279207468652070617274792077686f207369676e65642074686520696e707574205554584f20746f20746865206578697443616e6e6f74206368616c6c656e676520776974682074686520657869742074786368696c6420746f6b656e7320696e20746865207265666572656e6365642074787320646f206e6f74206d617463684c6f67207369676e617475726520646f65736e74207175616c69667920617320612076616c6964207370656e6445786974696e672077697468206d6f726520746f6b656e73207468616e207265666572656e6365645769746864726177657220616e64206275726e206578697420747820646f206e6f74206d617463685769746864726177657220616e64207265666572656e63656420747820646f206e6f74206d617463687478202f206c6f6720646f65736e7420636f6e6365726e20746865207061727469636970616e744c6f675472616e73666572526563656970742c206368616c6c656e6765547820746f6b656e20616e64206368616c6c656e676564207574786f20746f6b656e20646f206e6f74206d617463684f6e6c7920737570706f7274732065786974696e672066726f6d207472616e7366657220747873726f6f7420746f6b656e7320696e20746865207265666572656e6365642074787320646f206e6f74206d617463685265666572656e636520616e64206578697420747820646f206e6f7420636f72726573706f6e6420746f207468652073616d65206368696c6420746f6b656e7061727469636970616e7420616e64207265666572656e63656420747820646f206e6f74206d61746368457869746f722073686f756c642062652074686520726563656976657220696e207468652065786974207478a265627a7a723158205462c49210ded850113aa314e419bcf91cf70905a17a7e0e5aa14c298d1ced0764736f6c63430005110032",
  "linkReferences": {
    "contracts/common/lib/Common.sol": {
      "Common": [
        {
          "length": 20,
          "start": 16204
        },
        {
          "length": 20,
          "start": 16259
        }
      ]
    }
  },
  "deployedLinkReferences": {
    "contracts/common/lib/Common.sol": {
      "Common": [
        {
          "length": 20,
          "start": 15897
        },
        {
          "length": 20,
          "start": 15952
        }
      ]
    }
  }
}